{
	"data": {
		"bytecode": {
			"linkReferences": {
				"remix_accounts.sol": {
					"TestsAccounts": [
						{
							"length": 20,
							"start": 11071
						},
						{
							"length": 20,
							"start": 11253
						},
						{
							"length": 20,
							"start": 11435
						},
						{
							"length": 20,
							"start": 11617
						}
					]
				},
				"remix_tests.sol": {
					"Assert": [
						{
							"length": 20,
							"start": 7052
						},
						{
							"length": 20,
							"start": 7260
						},
						{
							"length": 20,
							"start": 7424
						},
						{
							"length": 20,
							"start": 7734
						},
						{
							"length": 20,
							"start": 7976
						},
						{
							"length": 20,
							"start": 9028
						},
						{
							"length": 20,
							"start": 9306
						},
						{
							"length": 20,
							"start": 9470
						},
						{
							"length": 20,
							"start": 9669
						},
						{
							"length": 20,
							"start": 9876
						},
						{
							"length": 20,
							"start": 10593
						},
						{
							"length": 20,
							"start": 10800
						},
						{
							"length": 20,
							"start": 12551
						},
						{
							"length": 20,
							"start": 12760
						},
						{
							"length": 20,
							"start": 12924
						},
						{
							"length": 20,
							"start": 13329
						},
						{
							"length": 20,
							"start": 13455
						},
						{
							"length": 20,
							"start": 13581
						},
						{
							"length": 20,
							"start": 13710
						},
						{
							"length": 20,
							"start": 13975
						}
					]
				}
			},
			"object": "60806040525f600860146101000a81548160ff0219169083151502179055505f600b5f6101000a81548160ff0219169083151502179055506002600c555f600e5f6101000a81548160ff021916908315150217905550601e600f5573633ea8fe424cd65ad4d4826e6581273afd06b8ef60115f6101000a81548173ffffffffffffffffffffffffffffffffffffffff021916908373ffffffffffffffffffffffffffffffffffffffff1602179055503480156100b9575f5ffd5b5060115f9054906101000a900473ffffffffffffffffffffffffffffffffffffffff166040518060400160405280600b81526020017f57616c6c7920546f6b656e0000000000000000000000000000000000000000008152506040518060400160405280600381526020017f545747000000000000000000000000000000000000000000000000000000000081525081600390816101579190610bc4565b5080600490816101679190610bc4565b50505060016006819055505f73ffffffffffffffffffffffffffffffffffffffff168173ffffffffffffffffffffffffffffffffffffffff16036101e0576040517f08c379a00000000000000000000000000000000000000000000000000000000081526004016101d790610ced565b60405180910390fd5b6101fc336b409f9cbc7c4a04c22000000061050c60201b60201c565b6102407fa49807205ce4d355092ef5a8a18f56e8913cf4a201fbe287825b095693c2177573633ea8fe424cd65ad4d4826e6581273afd06b8ef61059160201b60201c565b506102917f9f2df0fed2c77648de5860a4cc508cd0818c85b8b8a1ab4ceeef8d981c8956a67fa49807205ce4d355092ef5a8a18f56e8913cf4a201fbe287825b095693c2177561068760201b60201c565b6102e17f3c11d16cbaffd01df69ce1c404f6340ee057498f5f00246190ea54220576a8487fa49807205ce4d355092ef5a8a18f56e8913cf4a201fbe287825b095693c2177561068760201b60201c565b8060075f6101000a81548173ffffffffffffffffffffffffffffffffffffffff021916908373ffffffffffffffffffffffffffffffffffffffff1602179055505f60075f9054906101000a900473ffffffffffffffffffffffffffffffffffffffff1673ffffffffffffffffffffffffffffffffffffffff1663c45a01556040518163ffffffff1660e01b8152600401602060405180830381865afa15801561038c573d5f5f3e3d5ffd5b505050506040513d601f19601f820116820180604052508101906103b09190610d69565b90505f60075f9054906101000a900473ffffffffffffffffffffffffffffffffffffffff1673ffffffffffffffffffffffffffffffffffffffff1663ad5c46486040518163ffffffff1660e01b8152600401602060405180830381865afa15801561041d573d5f5f3e3d5ffd5b505050506040513d601f19601f820116820180604052508101906104419190610d69565b90508173ffffffffffffffffffffffffffffffffffffffff1663c9c6539630836040518363ffffffff1660e01b815260040161047e929190610da3565b6020604051808303815f875af115801561049a573d5f5f3e3d5ffd5b505050506040513d601f19601f820116820180604052508101906104be9190610d69565b60085f6101000a81548173ffffffffffffffffffffffffffffffffffffffff021916908373ffffffffffffffffffffffffffffffffffffffff1602179055505f600a81905550505050610ea0565b5f73ffffffffffffffffffffffffffffffffffffffff168273ffffffffffffffffffffffffffffffffffffffff160361057c575f6040517fec442f050000000000000000000000000000000000000000000000000000000081526004016105739190610dca565b60405180910390fd5b61058d5f83836106e660201b60201c565b5050565b5f6105a283836108ff60201b60201c565b61067d57600160055f8581526020019081526020015f205f015f8473ffffffffffffffffffffffffffffffffffffffff1673ffffffffffffffffffffffffffffffffffffffff1681526020019081526020015f205f6101000a81548160ff02191690831515021790555061061a61096360201b60201c565b73ffffffffffffffffffffffffffffffffffffffff168273ffffffffffffffffffffffffffffffffffffffff16847f2f8788117e7eff1d82e926ec794901d17c78024a50270940304540a733656f0d60405160405180910390a460019050610681565b5f90505b92915050565b5f6106978361096a60201b60201c565b90508160055f8581526020019081526020015f20600101819055508181847fbd79b86ffe0ab8e8776151514217cd7cacd52c909f66475c3af44e129f0b00ff60405160405180910390a4505050565b5f73ffffffffffffffffffffffffffffffffffffffff168373ffffffffffffffffffffffffffffffffffffffff1603610736578060025f82825461072a9190610e10565b92505081905550610804565b5f5f5f8573ffffffffffffffffffffffffffffffffffffffff1673ffffffffffffffffffffffffffffffffffffffff1681526020019081526020015f20549050818110156107bf578381836040517fe450d38c0000000000000000000000000000000000000000000000000000000081526004016107b693929190610e52565b60405180910390fd5b8181035f5f8673ffffffffffffffffffffffffffffffffffffffff1673ffffffffffffffffffffffffffffffffffffffff1681526020019081526020015f2081905550505b5f73ffffffffffffffffffffffffffffffffffffffff168273ffffffffffffffffffffffffffffffffffffffff160361084b578060025f8282540392505081905550610895565b805f5f8473ffffffffffffffffffffffffffffffffffffffff1673ffffffffffffffffffffffffffffffffffffffff1681526020019081526020015f205f82825401925050819055505b8173ffffffffffffffffffffffffffffffffffffffff168373ffffffffffffffffffffffffffffffffffffffff167fddf252ad1be2c89b69c2b068fc378daa952ba7f163c4a11628f55a4df523b3ef836040516108f29190610e87565b60405180910390a3505050565b5f60055f8481526020019081526020015f205f015f8373ffffffffffffffffffffffffffffffffffffffff1673ffffffffffffffffffffffffffffffffffffffff1681526020019081526020015f205f9054906101000a900460ff16905092915050565b5f33905090565b5f60055f8381526020019081526020015f20600101549050919050565b5f81519050919050565b7f4e487b71000000000000000000000000000000000000000000000000000000005f52604160045260245ffd5b7f4e487b71000000000000000000000000000000000000000000000000000000005f52602260045260245ffd5b5f6002820490506001821680610a0257607f821691505b602082108103610a1557610a146109be565b5b50919050565b5f819050815f5260205f209050919050565b5f6020601f8301049050919050565b5f82821b905092915050565b5f60088302610a777fffffffffffffffffffffffffffffffffffffffffffffffffffffffffffffffff82610a3c565b610a818683610a3c565b95508019841693508086168417925050509392505050565b5f819050919050565b5f819050919050565b5f610ac5610ac0610abb84610a99565b610aa2565b610a99565b9050919050565b5f819050919050565b610ade83610aab565b610af2610aea82610acc565b848454610a48565b825550505050565b5f5f905090565b610b09610afa565b610b14818484610ad5565b505050565b5b81811015610b3757610b2c5f82610b01565b600181019050610b1a565b5050565b601f821115610b7c57610b4d81610a1b565b610b5684610a2d565b81016020851015610b65578190505b610b79610b7185610a2d565b830182610b19565b50505b505050565b5f82821c905092915050565b5f610b9c5f1984600802610b81565b1980831691505092915050565b5f610bb48383610b8d565b9150826002028217905092915050565b610bcd82610987565b67ffffffffffffffff811115610be657610be5610991565b5b610bf082546109eb565b610bfb828285610b3b565b5f60209050601f831160018114610c2c575f8415610c1a578287015190505b610c248582610ba9565b865550610c8b565b601f198416610c3a86610a1b565b5f5b82811015610c6157848901518255600182019150602085019450602081019050610c3c565b86831015610c7e5784890151610c7a601f891682610b8d565b8355505b6001600288020188555050505b505050505050565b5f82825260208201905092915050565b7f526f757465722063616e6e6f74206265207a65726f20616464726573730000005f82015250565b5f610cd7601d83610c93565b9150610ce282610ca3565b602082019050919050565b5f6020820190508181035f830152610d0481610ccb565b9050919050565b5f5ffd5b5f73ffffffffffffffffffffffffffffffffffffffff82169050919050565b5f610d3882610d0f565b9050919050565b610d4881610d2e565b8114610d52575f5ffd5b50565b5f81519050610d6381610d3f565b92915050565b5f60208284031215610d7e57610d7d610d0b565b5b5f610d8b84828501610d55565b91505092915050565b610d9d81610d2e565b82525050565b5f604082019050610db65f830185610d94565b610dc36020830184610d94565b9392505050565b5f602082019050610ddd5f830184610d94565b92915050565b7f4e487b71000000000000000000000000000000000000000000000000000000005f52601160045260245ffd5b5f610e1a82610a99565b9150610e2583610a99565b9250828201905080821115610e3d57610e3c610de3565b5b92915050565b610e4c81610a99565b82525050565b5f606082019050610e655f830186610d94565b610e726020830185610e43565b610e7f6040830184610e43565b949350505050565b5f602082019050610e9a5f830184610e43565b92915050565b614ad780610ead5f395ff3fe608060405260043610610379575f3560e01c80634ada218b116101d0578063b319c6b711610101578063dc881d1c1161009f578063f18299eb1161006e578063f18299eb14610ba8578063f68ded6614610bbe578063f6f1e30614610be8578063f9f92be414610c1a57610380565b8063dc881d1c14610b18578063dd62ed3e14610b2e578063eb7492d114610b6a578063ec28438a14610b8057610380565b8063c2e5ec04116100db578063c2e5ec0414610a74578063d00efb2f14610a9c578063d539139314610ac6578063d547741f14610af057610380565b8063b319c6b714610a0c578063b37fd19014610a36578063bc7035f114610a5e57610380565b80638c0b5e221161016e578063963472f911610148578063963472f914610952578063a217fddf1461097c578063a9059cbb146109a6578063a985ceef146109e257610380565b80638c0b5e22146108c257806391d14854146108ec57806395d89b411461092857610380565b806370a08231116101aa57806370a082311461081e57806375b238fc1461085a5780637fea0d4b14610884578063899006031461089a57610380565b80634ada218b146107c8578063679d4b31146107f25780637052454e1461080857610380565b8063282c51f3116102aa57806336568abe1161024857806342966c681161022257806342966c68146107125780634551bbe91461073a57806348fca59d1461077657806349bd5a5e1461079e57610380565b806336568abe146106ac5780633da0b6db146106d457806340c10f19146106ea57610380565b80632ff2e9dc116102845780632ff2e9dc1461062c578063313ce5671461065657806336284ce0146106805780633649a96c1461069657610380565b8063282c51f3146105b05780632be29fa8146105da5780632f2ff15d1461060457610380565b80630c81877c1161031757806318160ddd116102f157806318160ddd146104f85780631f5ee31c1461052257806323b872dd14610538578063248a9ca31461057457610380565b80630c81877c14610490578063153b0d1e146104a65780631694505e146104ce57610380565b806306fdde031161035357806306fdde03146103ec57806306fe1e8814610416578063095ea7b31461042c578063099a04e51461046857610380565b806301ffc9a71461038457806303c33d5b146103c05780630647b375146103d657610380565b3661038057005b5f5ffd5b34801561038f575f5ffd5b506103aa60048036038101906103a5919061343a565b610c56565b6040516103b7919061347f565b60405180910390f35b3480156103cb575f5ffd5b506103d4610ccf565b005b3480156103e1575f5ffd5b506103ea610cdd565b005b3480156103f7575f5ffd5b50610400610ef7565b60405161040d9190613508565b60405180910390f35b348015610421575f5ffd5b5061042a610f87565b005b348015610437575f5ffd5b50610452600480360381019061044d91906135b5565b611141565b60405161045f919061347f565b60405180910390f35b348015610473575f5ffd5b5061048e6004803603810190610489919061362e565b611163565b005b34801561049b575f5ffd5b506104a46112a9565b005b3480156104b1575f5ffd5b506104cc60048036038101906104c79190613696565b6112b8565b005b3480156104d9575f5ffd5b506104e2611389565b6040516104ef919061372f565b60405180910390f35b348015610503575f5ffd5b5061050c6113ae565b6040516105199190613757565b60405180910390f35b34801561052d575f5ffd5b506105366113b7565b005b348015610543575f5ffd5b5061055e60048036038101906105599190613770565b6113e6565b60405161056b919061347f565b60405180910390f35b34801561057f575f5ffd5b5061059a600480360381019061059591906137f3565b611414565b6040516105a7919061382d565b60405180910390f35b3480156105bb575f5ffd5b506105c4611431565b6040516105d1919061382d565b60405180910390f35b3480156105e5575f5ffd5b506105ee611455565b6040516105fb9190613757565b60405180910390f35b34801561060f575f5ffd5b5061062a60048036038101906106259190613846565b61145b565b005b348015610637575f5ffd5b5061064061147d565b60405161064d9190613757565b60405180910390f35b348015610661575f5ffd5b5061066a61148d565b604051610677919061389f565b60405180910390f35b34801561068b575f5ffd5b50610694611495565b005b3480156106a1575f5ffd5b506106aa611716565b005b3480156106b7575f5ffd5b506106d260048036038101906106cd9190613846565b61188b565b005b3480156106df575f5ffd5b506106e8611906565b005b3480156106f5575f5ffd5b50610710600480360381019061070b91906135b5565b611914565b005b34801561071d575f5ffd5b50610738600480360381019061073391906138b8565b61194d565b005b348015610745575f5ffd5b50610760600480360381019061075b91906138e3565b61198c565b60405161076d9190613757565b60405180910390f35b348015610781575f5ffd5b5061079c6004803603810190610797919061390e565b6119a1565b005b3480156107a9575f5ffd5b506107b2611a29565b6040516107bf919061395b565b60405180910390f35b3480156107d3575f5ffd5b506107dc611a4e565b6040516107e9919061347f565b60405180910390f35b3480156107fd575f5ffd5b50610806611a61565b005b348015610813575f5ffd5b5061081c611ab2565b005b348015610829575f5ffd5b50610844600480360381019061083f91906138e3565b611c27565b6040516108519190613757565b60405180910390f35b348015610865575f5ffd5b5061086e611c6c565b60405161087b919061382d565b60405180910390f35b34801561088f575f5ffd5b50610898611c90565b005b3480156108a5575f5ffd5b506108c060048036038101906108bb919061390e565b611f6a565b005b3480156108cd575f5ffd5b506108d6611ff2565b6040516108e39190613757565b60405180910390f35b3480156108f7575f5ffd5b50610912600480360381019061090d9190613846565b611ff8565b60405161091f919061347f565b60405180910390f35b348015610933575f5ffd5b5061093c61205c565b6040516109499190613508565b60405180910390f35b34801561095d575f5ffd5b506109666120ec565b604051610973919061347f565b60405180910390f35b348015610987575f5ffd5b506109906120fe565b60405161099d919061382d565b60405180910390f35b3480156109b1575f5ffd5b506109cc60048036038101906109c791906135b5565b612104565b6040516109d9919061347f565b60405180910390f35b3480156109ed575f5ffd5b506109f6612126565b604051610a03919061347f565b60405180910390f35b348015610a17575f5ffd5b50610a20612138565b604051610a2d9190613757565b60405180910390f35b348015610a41575f5ffd5b50610a5c6004803603810190610a579190613974565b61213e565b005b348015610a69575f5ffd5b50610a72612258565b005b348015610a7f575f5ffd5b50610a9a6004803603810190610a9591906139c4565b612472565b005b348015610aa7575f5ffd5b50610ab0612516565b604051610abd9190613757565b60405180910390f35b348015610ad1575f5ffd5b50610ada61251c565b604051610ae7919061382d565b60405180910390f35b348015610afb575f5ffd5b50610b166004803603810190610b119190613846565b612540565b005b348015610b23575f5ffd5b50610b2c612562565b005b348015610b39575f5ffd5b50610b546004803603810190610b4f91906139ef565b612766565b604051610b619190613757565b60405180910390f35b348015610b75575f5ffd5b50610b7e6127e8565b005b348015610b8b575f5ffd5b50610ba66004803603810190610ba191906138b8565b61286c565b005b348015610bb3575f5ffd5b50610bbc6128d8565b005b348015610bc9575f5ffd5b50610bd2612908565b604051610bdf919061395b565b60405180910390f35b610c026004803603810190610bfd9190613a2d565b612920565b604051610c1193929190613aa4565b60405180910390f35b348015610c25575f5ffd5b50610c406004803603810190610c3b91906138e3565b612a47565b604051610c4d919061347f565b60405180910390f35b5f7f7965db0b000000000000000000000000000000000000000000000000000000007bffffffffffffffffffffffffffffffffffffffffffffffffffffffff1916827bffffffffffffffffffffffffffffffffffffffffffffffffffffffff19161480610cc85750610cc782612a64565b5b9050919050565b610cda5f6064612104565b50565b73__$acbfb1c35000d78352310b16a054a6b106$__63abcd7960610d2160125f9054906101000a900473ffffffffffffffffffffffffffffffffffffffff16611c27565b5f6040518363ffffffff1660e01b8152600401610d3f929190613ba1565b602060405180830381865af4158015610d5a573d5f5f3e3d5ffd5b505050506040513d601f19601f82011682018060405250810190610d7e9190613bef565b50610dac60125f9054906101000a900473ffffffffffffffffffffffffffffffffffffffff166101f4612104565b5073__$acbfb1c35000d78352310b16a054a6b106$__63abcd7960610df160115f9054906101000a900473ffffffffffffffffffffffffffffffffffffffff16611c27565b61251c6040518363ffffffff1660e01b8152600401610e11929190613c9d565b602060405180830381865af4158015610e2c573d5f5f3e3d5ffd5b505050506040513d601f19601f82011682018060405250810190610e509190613bef565b5073__$acbfb1c35000d78352310b16a054a6b106$__63abcd7960610e9560125f9054906101000a900473ffffffffffffffffffffffffffffffffffffffff16611c27565b6101f46040518363ffffffff1660e01b8152600401610eb5929190613d10565b602060405180830381865af4158015610ed0573d5f5f3e3d5ffd5b505050506040513d601f19601f82011682018060405250810190610ef49190613bef565b50565b606060038054610f0690613d77565b80601f0160208091040260200160405190810160405280929190818152602001828054610f3290613d77565b8015610f7d5780601f10610f5457610100808354040283529160200191610f7d565b820191905f5260205f20905b815481529060010190602001808311610f6057829003601f168201915b5050505050905090565b73__$acbfb1c35000d78352310b16a054a6b106$__63abcd7960610fed60115f9054906101000a900473ffffffffffffffffffffffffffffffffffffffff1660145f9054906101000a900473ffffffffffffffffffffffffffffffffffffffff16612766565b5f6040518363ffffffff1660e01b815260040161100b929190613e17565b602060405180830381865af4158015611026573d5f5f3e3d5ffd5b505050506040513d601f19601f8201168201806040525081019061104a9190613bef565b5061107860145f9054906101000a900473ffffffffffffffffffffffffffffffffffffffff166101f4611141565b5073__$acbfb1c35000d78352310b16a054a6b106$__63abcd79606110df60115f9054906101000a900473ffffffffffffffffffffffffffffffffffffffff1660145f9054906101000a900473ffffffffffffffffffffffffffffffffffffffff16612766565b6101f46040518363ffffffff1660e01b81526004016110ff929190613e9b565b602060405180830381865af415801561111a573d5f5f3e3d5ffd5b505050506040513d601f19601f8201168201806040525081019061113e9190613bef565b50565b5f5f61114b612acd565b9050611158818585612ad4565b600191505092915050565b7fa49807205ce4d355092ef5a8a18f56e8913cf4a201fbe287825b095693c2177561118d81612ae6565b5f73ffffffffffffffffffffffffffffffffffffffff168373ffffffffffffffffffffffffffffffffffffffff16036111fb576040517f08c379a00000000000000000000000000000000000000000000000000000000081526004016111f290613f1f565b60405180910390fd5b5f8373ffffffffffffffffffffffffffffffffffffffff168360405161122090613f6a565b5f6040518083038185875af1925050503d805f811461125a576040519150601f19603f3d011682016040523d82523d5f602084013e61125f565b606091505b50509050806112a3576040517f08c379a000000000000000000000000000000000000000000000000000000000815260040161129a90613fc8565b60405180910390fd5b50505050565b6112b55f6101f4611141565b50565b7fa49807205ce4d355092ef5a8a18f56e8913cf4a201fbe287825b095693c217756112e281612ae6565b8160095f8573ffffffffffffffffffffffffffffffffffffffff1673ffffffffffffffffffffffffffffffffffffffff1681526020019081526020015f205f6101000a81548160ff0219169083151502179055508273ffffffffffffffffffffffffffffffffffffffff167fcf3473b85df1594d47b6958f29a32bea0abff9dd68296f7bf33443646793cfd88360405161137c919061347f565b60405180910390a2505050565b60075f9054906101000a900473ffffffffffffffffffffffffffffffffffffffff1681565b5f600254905090565b6113e360145f9054906101000a900473ffffffffffffffffffffffffffffffffffffffff16606e612104565b50565b5f5f6113f0612acd565b90506113fd858285612afa565b611408858585612b8d565b60019150509392505050565b5f60055f8381526020019081526020015f20600101549050919050565b7f3c11d16cbaffd01df69ce1c404f6340ee057498f5f00246190ea54220576a84881565b600c5481565b61146482611414565b61146d81612ae6565b6114778383612c7d565b50505050565b6b409f9cbc7c4a04c22000000081565b5f6012905090565b73__$acbfb1c35000d78352310b16a054a6b106$__63abcd79606114fb60115f9054906101000a900473ffffffffffffffffffffffffffffffffffffffff1660145f9054906101000a900473ffffffffffffffffffffffffffffffffffffffff16612766565b6101f46040518363ffffffff1660e01b815260040161151b929190613e9b565b602060405180830381865af4158015611536573d5f5f3e3d5ffd5b505050506040513d601f19601f8201168201806040525081019061155a9190613bef565b506115aa60115f9054906101000a900473ffffffffffffffffffffffffffffffffffffffff1660155f9054906101000a900473ffffffffffffffffffffffffffffffffffffffff166101906113e6565b5073__$acbfb1c35000d78352310b16a054a6b106$__63abcd79606115ef60155f9054906101000a900473ffffffffffffffffffffffffffffffffffffffff16611c27565b6101906040518363ffffffff1660e01b815260040161160f929190614069565b602060405180830381865af415801561162a573d5f5f3e3d5ffd5b505050506040513d601f19601f8201168201806040525081019061164e9190613bef565b5073__$acbfb1c35000d78352310b16a054a6b106$__63abcd79606116b560115f9054906101000a900473ffffffffffffffffffffffffffffffffffffffff1660145f9054906101000a900473ffffffffffffffffffffffffffffffffffffffff16612766565b60646040518363ffffffff1660e01b81526004016116d49291906140dc565b602060405180830381865af41580156116ef573d5f5f3e3d5ffd5b505050506040513d601f19601f820116820180604052508101906117139190613bef565b50565b73__$acbfb1c35000d78352310b16a054a6b106$__63abcd796061175a60115f9054906101000a900473ffffffffffffffffffffffffffffffffffffffff16611c27565b5f6040518363ffffffff1660e01b8152600401611778929190613ba1565b602060405180830381865af4158015611793573d5f5f3e3d5ffd5b505050506040513d601f19601f820116820180604052508101906117b79190613bef565b506117e560115f9054906101000a900473ffffffffffffffffffffffffffffffffffffffff16612710612d67565b73__$acbfb1c35000d78352310b16a054a6b106$__63abcd796061182960115f9054906101000a900473ffffffffffffffffffffffffffffffffffffffff16611c27565b6127106040518363ffffffff1660e01b815260040161184992919061414f565b602060405180830381865af4158015611864573d5f5f3e3d5ffd5b505050506040513d601f19601f820116820180604052508101906118889190613bef565b50565b611893612acd565b73ffffffffffffffffffffffffffffffffffffffff168173ffffffffffffffffffffffffffffffffffffffff16146118f7576040517f6697b23200000000000000000000000000000000000000000000000000000000815260040160405180910390fd5b6119018282612de6565b505050565b6119125f612710612d67565b565b7f9f2df0fed2c77648de5860a4cc508cd0818c85b8b8a1ab4ceeef8d981c8956a661193e81612ae6565b6119488383612d67565b505050565b7f3c11d16cbaffd01df69ce1c404f6340ee057498f5f00246190ea54220576a84861197781612ae6565b611988611982612acd565b83612ed0565b5050565b6010602052805f5260405f205f915090505481565b7fa49807205ce4d355092ef5a8a18f56e8913cf4a201fbe287825b095693c217756119cb81612ae6565b82600e5f6101000a81548160ff02191690831515021790555081600f819055507f3dd49c7bc5b4083d3ed5845bd08d8d308e600ce46a1bf5fed3466dba31ce9f0c8383604051611a1c929190614189565b60405180910390a1505050565b60085f9054906101000a900473ffffffffffffffffffffffffffffffffffffffff1681565b600860149054906101000a900460ff1681565b611aaf60115f9054906101000a900473ffffffffffffffffffffffffffffffffffffffff1660155f9054906101000a900473ffffffffffffffffffffffffffffffffffffffff16606e6113e6565b50565b73__$acbfb1c35000d78352310b16a054a6b106$__63abcd7960611af660115f9054906101000a900473ffffffffffffffffffffffffffffffffffffffff16611c27565b5f6040518363ffffffff1660e01b8152600401611b14929190613ba1565b602060405180830381865af4158015611b2f573d5f5f3e3d5ffd5b505050506040513d601f19601f82011682018060405250810190611b539190613bef565b50611b8160115f9054906101000a900473ffffffffffffffffffffffffffffffffffffffff16612710612d67565b73__$acbfb1c35000d78352310b16a054a6b106$__63abcd7960611bc560115f9054906101000a900473ffffffffffffffffffffffffffffffffffffffff16611c27565b6127106040518363ffffffff1660e01b8152600401611be592919061414f565b602060405180830381865af4158015611c00573d5f5f3e3d5ffd5b505050506040513d601f19601f82011682018060405250810190611c249190613bef565b50565b5f5f5f8373ffffffffffffffffffffffffffffffffffffffff1673ffffffffffffffffffffffffffffffffffffffff1681526020019081526020015f20549050919050565b7fa49807205ce4d355092ef5a8a18f56e8913cf4a201fbe287825b095693c2177581565b73__$1068a87eb54ed04c4e435de35b2ebf536f$__63ce88b14560016040518263ffffffff1660e01b8152600401611cc891906141e9565b602060405180830381865af4158015611ce3573d5f5f3e3d5ffd5b505050506040513d601f19601f82011682018060405250810190611d079190614216565b60125f6101000a81548173ffffffffffffffffffffffffffffffffffffffff021916908373ffffffffffffffffffffffffffffffffffffffff16021790555073__$1068a87eb54ed04c4e435de35b2ebf536f$__63ce88b14560026040518263ffffffff1660e01b8152600401611d7e919061427a565b602060405180830381865af4158015611d99573d5f5f3e3d5ffd5b505050506040513d601f19601f82011682018060405250810190611dbd9190614216565b60135f6101000a81548173ffffffffffffffffffffffffffffffffffffffff021916908373ffffffffffffffffffffffffffffffffffffffff16021790555073__$1068a87eb54ed04c4e435de35b2ebf536f$__63ce88b14560036040518263ffffffff1660e01b8152600401611e3491906142cc565b602060405180830381865af4158015611e4f573d5f5f3e3d5ffd5b505050506040513d601f19601f82011682018060405250810190611e739190614216565b60145f6101000a81548173ffffffffffffffffffffffffffffffffffffffff021916908373ffffffffffffffffffffffffffffffffffffffff16021790555073__$1068a87eb54ed04c4e435de35b2ebf536f$__63ce88b14560046040518263ffffffff1660e01b8152600401611eea919061431e565b602060405180830381865af4158015611f05573d5f5f3e3d5ffd5b505050506040513d601f19601f82011682018060405250810190611f299190614216565b60155f6101000a81548173ffffffffffffffffffffffffffffffffffffffff021916908373ffffffffffffffffffffffffffffffffffffffff160217905550565b7fa49807205ce4d355092ef5a8a18f56e8913cf4a201fbe287825b095693c21775611f9481612ae6565b82600b5f6101000a81548160ff02191690831515021790555081600c819055507fb31b570d042c886827a2637126edd8ff4f4fe90beb7cb87ffe8c4d2d542c190d8383604051611fe5929190614189565b60405180910390a1505050565b600a5481565b5f60055f8481526020019081526020015f205f015f8373ffffffffffffffffffffffffffffffffffffffff1673ffffffffffffffffffffffffffffffffffffffff1681526020019081526020015f205f9054906101000a900460ff16905092915050565b60606004805461206b90613d77565b80601f016020809104026020016040519081016040528092919081815260200182805461209790613d77565b80156120e25780601f106120b9576101008083540402835291602001916120e2565b820191905f5260205f20905b8154815290600101906020018083116120c557829003601f168201915b5050505050905090565b600b5f9054906101000a900460ff1681565b5f5f1b81565b5f5f61210e612acd565b905061211b818585612b8d565b600191505092915050565b600e5f9054906101000a900460ff1681565b600f5481565b7fa49807205ce4d355092ef5a8a18f56e8913cf4a201fbe287825b095693c2177561216881612ae6565b5f73ffffffffffffffffffffffffffffffffffffffff168273ffffffffffffffffffffffffffffffffffffffff16036121d6576040517f08c379a00000000000000000000000000000000000000000000000000000000081526004016121cd90613f1f565b60405180910390fd5b8373ffffffffffffffffffffffffffffffffffffffff1663a9059cbb83856040518363ffffffff1660e01b8152600401612211929190614337565b6020604051808303815f875af115801561222d573d5f5f3e3d5ffd5b505050506040513d601f19601f820116820180604052508101906122519190613bef565b5050505050565b73__$acbfb1c35000d78352310b16a054a6b106$__63abcd796061229c60125f9054906101000a900473ffffffffffffffffffffffffffffffffffffffff16611c27565b6101f46040518363ffffffff1660e01b81526004016122bc9291906143a8565b602060405180830381865af41580156122d7573d5f5f3e3d5ffd5b505050506040513d601f19601f820116820180604052508101906122fb9190613bef565b5061232860135f9054906101000a900473ffffffffffffffffffffffffffffffffffffffff166064612104565b5073__$acbfb1c35000d78352310b16a054a6b106$__63abcd796061236d60125f9054906101000a900473ffffffffffffffffffffffffffffffffffffffff16611c27565b6101906040518363ffffffff1660e01b815260040161238d9291906143e2565b602060405180830381865af41580156123a8573d5f5f3e3d5ffd5b505050506040513d601f19601f820116820180604052508101906123cc9190613bef565b5073__$acbfb1c35000d78352310b16a054a6b106$__63abcd796061241160135f9054906101000a900473ffffffffffffffffffffffffffffffffffffffff16611c27565b60646040518363ffffffff1660e01b8152600401612430929190614466565b602060405180830381865af415801561244b573d5f5f3e3d5ffd5b505050506040513d601f19601f8201168201806040525081019061246f9190613bef565b50565b7fa49807205ce4d355092ef5a8a18f56e8913cf4a201fbe287825b095693c2177561249c81612ae6565b81600860146101000a81548160ff0219169083151502179055508180156124ce5750600b5f9054906101000a900460ff165b156124db5743600d819055505b7fbeda7dca7bc1b3e80b871f4818129ec73b771581f803d553aeb3484098e5f65a8260405161250a919061347f565b60405180910390a15050565b600d5481565b7f9f2df0fed2c77648de5860a4cc508cd0818c85b8b8a1ab4ceeef8d981c8956a681565b61254982611414565b61255281612ae6565b61255c8383612de6565b50505050565b73__$acbfb1c35000d78352310b16a054a6b106$__63e8c2cb16612584610ef7565b6040518263ffffffff1660e01b81526004016125a0919061456c565b602060405180830381865af41580156125bb573d5f5f3e3d5ffd5b505050506040513d601f19601f820116820180604052508101906125df9190613bef565b5073__$acbfb1c35000d78352310b16a054a6b106$__63e8c2cb1661260261205c565b6040518263ffffffff1660e01b815260040161261e9190614646565b602060405180830381865af4158015612639573d5f5f3e3d5ffd5b505050506040513d601f19601f8201168201806040525081019061265d9190613bef565b5073__$acbfb1c35000d78352310b16a054a6b106$__63abcd796061268061148d565b60126040518363ffffffff1660e01b815260040161269f92919061473f565b602060405180830381865af41580156126ba573d5f5f3e3d5ffd5b505050506040513d601f19601f820116820180604052508101906126de9190613bef565b5073__$acbfb1c35000d78352310b16a054a6b106$__63abcd79606127016113ae565b6404a817c8006040518363ffffffff1660e01b81526004016127249291906147fc565b602060405180830381865af415801561273f573d5f5f3e3d5ffd5b505050506040513d601f19601f820116820180604052508101906127639190613bef565b50565b5f60015f8473ffffffffffffffffffffffffffffffffffffffff1673ffffffffffffffffffffffffffffffffffffffff1681526020019081526020015f205f8373ffffffffffffffffffffffffffffffffffffffff1673ffffffffffffffffffffffffffffffffffffffff1681526020019081526020015f2054905092915050565b73__$acbfb1c35000d78352310b16a054a6b106$__63abcd796061280a6113ae565b6127106040518363ffffffff1660e01b815260040161282a929190614880565b602060405180830381865af4158015612845573d5f5f3e3d5ffd5b505050506040513d601f19601f820116820180604052508101906128699190613bef565b50565b7fa49807205ce4d355092ef5a8a18f56e8913cf4a201fbe287825b095693c2177561289681612ae6565b81600a819055507f947f344d56e1e8c70dc492fb94c4ddddd490c016aab685f5e7e47b2e85cb44cf826040516128cc9190613757565b60405180910390a15050565b61290560115f9054906101000a900473ffffffffffffffffffffffffffffffffffffffff165f60646113e6565b50565b73633ea8fe424cd65ad4d4826e6581273afd06b8ef81565b5f5f5f61292b612f4f565b7fa49807205ce4d355092ef5a8a18f56e8913cf4a201fbe287825b095693c2177561295581612ae6565b6129813060075f9054906101000a900473ffffffffffffffffffffffffffffffffffffffff168a612ad4565b60075f9054906101000a900473ffffffffffffffffffffffffffffffffffffffff1673ffffffffffffffffffffffffffffffffffffffff1663f305d71934308b8b8b8f8c6040518863ffffffff1660e01b81526004016129e6969594939291906148ba565b60606040518083038185885af1158015612a02573d5f5f3e3d5ffd5b50505050506040513d601f19601f82011682018060405250810190612a27919061492d565b80945081955082965050505050612a3c612f9e565b955095509592505050565b6009602052805f5260405f205f915054906101000a900460ff1681565b5f7f01ffc9a7000000000000000000000000000000000000000000000000000000007bffffffffffffffffffffffffffffffffffffffffffffffffffffffff1916827bffffffffffffffffffffffffffffffffffffffffffffffffffffffff1916149050919050565b5f33905090565b612ae18383836001612fa8565b505050565b612af781612af2612acd565b613177565b50565b5f612b058484612766565b90507fffffffffffffffffffffffffffffffffffffffffffffffffffffffffffffffff811015612b875781811015612b78578281836040517ffb8f41b2000000000000000000000000000000000000000000000000000000008152600401612b6f9392919061497d565b60405180910390fd5b612b8684848484035f612fa8565b5b50505050565b5f73ffffffffffffffffffffffffffffffffffffffff168373ffffffffffffffffffffffffffffffffffffffff1603612bfd575f6040517f96c6fd1e000000000000000000000000000000000000000000000000000000008152600401612bf4919061395b565b60405180910390fd5b5f73ffffffffffffffffffffffffffffffffffffffff168273ffffffffffffffffffffffffffffffffffffffff1603612c6d575f6040517fec442f05000000000000000000000000000000000000000000000000000000008152600401612c64919061395b565b60405180910390fd5b612c788383836131c8565b505050565b5f612c888383611ff8565b612d5d57600160055f8581526020019081526020015f205f015f8473ffffffffffffffffffffffffffffffffffffffff1673ffffffffffffffffffffffffffffffffffffffff1681526020019081526020015f205f6101000a81548160ff021916908315150217905550612cfa612acd565b73ffffffffffffffffffffffffffffffffffffffff168273ffffffffffffffffffffffffffffffffffffffff16847f2f8788117e7eff1d82e926ec794901d17c78024a50270940304540a733656f0d60405160405180910390a460019050612d61565b5f90505b92915050565b5f73ffffffffffffffffffffffffffffffffffffffff168273ffffffffffffffffffffffffffffffffffffffff1603612dd7575f6040517fec442f05000000000000000000000000000000000000000000000000000000008152600401612dce919061395b565b60405180910390fd5b612de25f83836131c8565b5050565b5f612df18383611ff8565b15612ec6575f60055f8581526020019081526020015f205f015f8473ffffffffffffffffffffffffffffffffffffffff1673ffffffffffffffffffffffffffffffffffffffff1681526020019081526020015f205f6101000a81548160ff021916908315150217905550612e63612acd565b73ffffffffffffffffffffffffffffffffffffffff168273ffffffffffffffffffffffffffffffffffffffff16847ff6391f5c32d9c69d2a47ea670b442974b53935d1edc7fd64eb21e047a839171b60405160405180910390a460019050612eca565b5f90505b92915050565b5f73ffffffffffffffffffffffffffffffffffffffff168273ffffffffffffffffffffffffffffffffffffffff1603612f40575f6040517f96c6fd1e000000000000000000000000000000000000000000000000000000008152600401612f37919061395b565b60405180910390fd5b612f4b825f836131c8565b5050565b600260065403612f94576040517f08c379a0000000000000000000000000000000000000000000000000000000008152600401612f8b906149fc565b60405180910390fd5b6002600681905550565b6001600681905550565b5f73ffffffffffffffffffffffffffffffffffffffff168473ffffffffffffffffffffffffffffffffffffffff1603613018575f6040517fe602df0500000000000000000000000000000000000000000000000000000000815260040161300f919061395b565b60405180910390fd5b5f73ffffffffffffffffffffffffffffffffffffffff168373ffffffffffffffffffffffffffffffffffffffff1603613088575f6040517f94280d6200000000000000000000000000000000000000000000000000000000815260040161307f919061395b565b60405180910390fd5b8160015f8673ffffffffffffffffffffffffffffffffffffffff1673ffffffffffffffffffffffffffffffffffffffff1681526020019081526020015f205f8573ffffffffffffffffffffffffffffffffffffffff1673ffffffffffffffffffffffffffffffffffffffff1681526020019081526020015f20819055508015613171578273ffffffffffffffffffffffffffffffffffffffff168473ffffffffffffffffffffffffffffffffffffffff167f8c5be1e5ebec7d5bd14f71427d1e84f3dd0314c0f7b2291e5b200ac8c7c3b925846040516131689190613757565b60405180910390a35b50505050565b6131818282611ff8565b6131c45780826040517fe2517d3f0000000000000000000000000000000000000000000000000000000081526004016131bb929190614a1a565b60405180910390fd5b5050565b5f73ffffffffffffffffffffffffffffffffffffffff168373ffffffffffffffffffffffffffffffffffffffff1603613218578060025f82825461320c9190614a6e565b925050819055506132e6565b5f5f5f8573ffffffffffffffffffffffffffffffffffffffff1673ffffffffffffffffffffffffffffffffffffffff1681526020019081526020015f20549050818110156132a1578381836040517fe450d38c0000000000000000000000000000000000000000000000000000000081526004016132989392919061497d565b60405180910390fd5b8181035f5f8673ffffffffffffffffffffffffffffffffffffffff1673ffffffffffffffffffffffffffffffffffffffff1681526020019081526020015f2081905550505b5f73ffffffffffffffffffffffffffffffffffffffff168273ffffffffffffffffffffffffffffffffffffffff160361332d578060025f8282540392505081905550613377565b805f5f8473ffffffffffffffffffffffffffffffffffffffff1673ffffffffffffffffffffffffffffffffffffffff1681526020019081526020015f205f82825401925050819055505b8173ffffffffffffffffffffffffffffffffffffffff168373ffffffffffffffffffffffffffffffffffffffff167fddf252ad1be2c89b69c2b068fc378daa952ba7f163c4a11628f55a4df523b3ef836040516133d49190613757565b60405180910390a3505050565b5f5ffd5b5f7fffffffff0000000000000000000000000000000000000000000000000000000082169050919050565b613419816133e5565b8114613423575f5ffd5b50565b5f8135905061343481613410565b92915050565b5f6020828403121561344f5761344e6133e1565b5b5f61345c84828501613426565b91505092915050565b5f8115159050919050565b61347981613465565b82525050565b5f6020820190506134925f830184613470565b92915050565b5f81519050919050565b5f82825260208201905092915050565b8281835e5f83830152505050565b5f601f19601f8301169050919050565b5f6134da82613498565b6134e481856134a2565b93506134f48185602086016134b2565b6134fd816134c0565b840191505092915050565b5f6020820190508181035f83015261352081846134d0565b905092915050565b5f73ffffffffffffffffffffffffffffffffffffffff82169050919050565b5f61355182613528565b9050919050565b61356181613547565b811461356b575f5ffd5b50565b5f8135905061357c81613558565b92915050565b5f819050919050565b61359481613582565b811461359e575f5ffd5b50565b5f813590506135af8161358b565b92915050565b5f5f604083850312156135cb576135ca6133e1565b5b5f6135d88582860161356e565b92505060206135e9858286016135a1565b9150509250929050565b5f6135fd82613528565b9050919050565b61360d816135f3565b8114613617575f5ffd5b50565b5f8135905061362881613604565b92915050565b5f5f60408385031215613644576136436133e1565b5b5f6136518582860161361a565b9250506020613662858286016135a1565b9150509250929050565b61367581613465565b811461367f575f5ffd5b50565b5f813590506136908161366c565b92915050565b5f5f604083850312156136ac576136ab6133e1565b5b5f6136b98582860161356e565b92505060206136ca85828601613682565b9150509250929050565b5f819050919050565b5f6136f76136f26136ed84613528565b6136d4565b613528565b9050919050565b5f613708826136dd565b9050919050565b5f613719826136fe565b9050919050565b6137298161370f565b82525050565b5f6020820190506137425f830184613720565b92915050565b61375181613582565b82525050565b5f60208201905061376a5f830184613748565b92915050565b5f5f5f60608486031215613787576137866133e1565b5b5f6137948682870161356e565b93505060206137a58682870161356e565b92505060406137b6868287016135a1565b9150509250925092565b5f819050919050565b6137d2816137c0565b81146137dc575f5ffd5b50565b5f813590506137ed816137c9565b92915050565b5f60208284031215613808576138076133e1565b5b5f613815848285016137df565b91505092915050565b613827816137c0565b82525050565b5f6020820190506138405f83018461381e565b92915050565b5f5f6040838503121561385c5761385b6133e1565b5b5f613869858286016137df565b925050602061387a8582860161356e565b9150509250929050565b5f60ff82169050919050565b61389981613884565b82525050565b5f6020820190506138b25f830184613890565b92915050565b5f602082840312156138cd576138cc6133e1565b5b5f6138da848285016135a1565b91505092915050565b5f602082840312156138f8576138f76133e1565b5b5f6139058482850161356e565b91505092915050565b5f5f60408385031215613924576139236133e1565b5b5f61393185828601613682565b9250506020613942858286016135a1565b9150509250929050565b61395581613547565b82525050565b5f60208201905061396e5f83018461394c565b92915050565b5f5f5f6060848603121561398b5761398a6133e1565b5b5f6139988682870161356e565b93505060206139a9868287016135a1565b92505060406139ba8682870161356e565b9150509250925092565b5f602082840312156139d9576139d86133e1565b5b5f6139e684828501613682565b91505092915050565b5f5f60408385031215613a0557613a046133e1565b5b5f613a128582860161356e565b9250506020613a238582860161356e565b9150509250929050565b5f5f5f5f5f60a08688031215613a4657613a456133e1565b5b5f613a538882890161356e565b9550506020613a64888289016135a1565b9450506040613a75888289016135a1565b9350506060613a86888289016135a1565b9250506080613a97888289016135a1565b9150509295509295909350565b5f606082019050613ab75f830186613748565b613ac46020830185613748565b613ad16040830184613748565b949350505050565b613ae281613582565b82525050565b5f819050919050565b5f613b0b613b06613b0184613ae8565b6136d4565b613582565b9050919050565b613b1b81613af1565b82525050565b5f82825260208201905092915050565b7f746f6b656e2062616c616e63652073686f756c64206265207a65726f20696e695f8201527f7469616c6c790000000000000000000000000000000000000000000000000000602082015250565b5f613b8b602683613b21565b9150613b9682613b31565b604082019050919050565b5f606082019050613bb45f830185613ad9565b613bc16020830184613b12565b8181036040830152613bd281613b7f565b90509392505050565b5f81519050613be98161366c565b92915050565b5f60208284031215613c0457613c036133e1565b5b5f613c1184828501613bdb565b91505092915050565b5f819050919050565b5f613c3d613c38613c3384613c1a565b6136d4565b613582565b9050919050565b613c4d81613c23565b82525050565b7f746f6b656e2062616c616e636520646964206e6f74206d6174636800000000005f82015250565b5f613c87601b83613b21565b9150613c9282613c53565b602082019050919050565b5f606082019050613cb05f830185613ad9565b613cbd6020830184613c44565b8181036040830152613cce81613c7b565b90509392505050565b5f819050919050565b5f613cfa613cf5613cf084613cd7565b6136d4565b613582565b9050919050565b613d0a81613ce0565b82525050565b5f606082019050613d235f830185613ad9565b613d306020830184613d01565b8181036040830152613d4181613c7b565b90509392505050565b7f4e487b71000000000000000000000000000000000000000000000000000000005f52602260045260245ffd5b5f6002820490506001821680613d8e57607f821691505b602082108103613da157613da0613d4a565b5b50919050565b7f746f6b656e20616c6c6f77616e63652073686f756c64206265207a65726f20695f8201527f6e697469616c6c79000000000000000000000000000000000000000000000000602082015250565b5f613e01602883613b21565b9150613e0c82613da7565b604082019050919050565b5f606082019050613e2a5f830185613ad9565b613e376020830184613b12565b8181036040830152613e4881613df5565b90509392505050565b7f746f6b656e20616c6c6f77616e636520646964206e6f74206d617463680000005f82015250565b5f613e85601d83613b21565b9150613e9082613e51565b602082019050919050565b5f606082019050613eae5f830185613ad9565b613ebb6020830184613d01565b8181036040830152613ecc81613e79565b90509392505050565b7f496e76616c69642027746f2700000000000000000000000000000000000000005f82015250565b5f613f09600c836134a2565b9150613f1482613ed5565b602082019050919050565b5f6020820190508181035f830152613f3681613efd565b9050919050565b5f81905092915050565b50565b5f613f555f83613f3d565b9150613f6082613f47565b5f82019050919050565b5f613f7482613f4a565b9150819050919050565b7f455448207472616e73666572206661696c6564000000000000000000000000005f82015250565b5f613fb26013836134a2565b9150613fbd82613f7e565b602082019050919050565b5f6020820190508181035f830152613fdf81613fa6565b9050919050565b5f819050919050565b5f614009614004613fff84613fe6565b6136d4565b613582565b9050919050565b61401981613fef565b82525050565b7f6163633420746f6b656e2062616c616e636520646964206e6f74206d617463685f82015250565b5f614053602083613b21565b915061405e8261401f565b602082019050919050565b5f60608201905061407c5f830185613ad9565b6140896020830184614010565b818103604083015261409a81614047565b90509392505050565b5f819050919050565b5f6140c66140c16140bc846140a3565b6136d4565b613582565b9050919050565b6140d6816140ac565b82525050565b5f6060820190506140ef5f830185613ad9565b6140fc60208301846140cd565b818103604083015261410d81613e79565b90509392505050565b5f819050919050565b5f61413961413461412f84614116565b6136d4565b613582565b9050919050565b6141498161411f565b82525050565b5f6060820190506141625f830185613ad9565b61416f6020830184614140565b818103604083015261418081613c7b565b90509392505050565b5f60408201905061419c5f830185613470565b6141a96020830184613748565b9392505050565b5f819050919050565b5f6141d36141ce6141c9846141b0565b6136d4565b613582565b9050919050565b6141e3816141b9565b82525050565b5f6020820190506141fc5f8301846141da565b92915050565b5f8151905061421081613558565b92915050565b5f6020828403121561422b5761422a6133e1565b5b5f61423884828501614202565b91505092915050565b5f819050919050565b5f61426461425f61425a84614241565b6136d4565b613582565b9050919050565b6142748161424a565b82525050565b5f60208201905061428d5f83018461426b565b92915050565b5f819050919050565b5f6142b66142b16142ac84614293565b6136d4565b613582565b9050919050565b6142c68161429c565b82525050565b5f6020820190506142df5f8301846142bd565b92915050565b5f819050919050565b5f6143086143036142fe846142e5565b6136d4565b613582565b9050919050565b614318816142ee565b82525050565b5f6020820190506143315f83018461430f565b92915050565b5f60408201905061434a5f83018561394c565b6143576020830184613748565b9392505050565b7f6163633120746f6b656e2062616c616e636520646964206e6f74206d617463685f82015250565b5f614392602083613b21565b915061439d8261435e565b602082019050919050565b5f6060820190506143bb5f830185613ad9565b6143c86020830184613d01565b81810360408301526143d981614386565b90509392505050565b5f6060820190506143f55f830185613ad9565b6144026020830184614010565b818103604083015261441381614386565b90509392505050565b7f6163633220746f6b656e2062616c616e636520646964206e6f74206d617463685f82015250565b5f614450602083613b21565b915061445b8261441c565b602082019050919050565b5f6060820190506144795f830185613ad9565b61448660208301846140cd565b818103604083015261449781614444565b90509392505050565b5f6144aa82613498565b6144b48185613b21565b93506144c48185602086016134b2565b6144cd816134c0565b840191505092915050565b7f57616c6c79546f6b656e000000000000000000000000000000000000000000005f82015250565b5f61450c600a83613b21565b9150614517826144d8565b602082019050919050565b7f746f6b656e206e616d6520646964206e6f74206d6174636800000000000000005f82015250565b5f614556601883613b21565b915061456182614522565b602082019050919050565b5f6060820190508181035f83015261458481846144a0565b9050818103602083015261459781614500565b905081810360408301526145aa8161454a565b905092915050565b7f54574700000000000000000000000000000000000000000000000000000000005f82015250565b5f6145e6600383613b21565b91506145f1826145b2565b602082019050919050565b7f746f6b656e2073796d626f6c20646964206e6f74206d617463680000000000005f82015250565b5f614630601a83613b21565b915061463b826145fc565b602082019050919050565b5f6060820190508181035f83015261465e81846144a0565b90508181036020830152614671816145da565b9050818103604083015261468481614624565b905092915050565b5f6146a66146a161469c84613884565b6136d4565b613582565b9050919050565b6146b68161468c565b82525050565b5f819050919050565b5f6146df6146da6146d5846146bc565b6136d4565b613582565b9050919050565b6146ef816146c5565b82525050565b7f746f6b656e20646563696d616c7320646964206e6f74206d61746368000000005f82015250565b5f614729601c83613b21565b9150614734826146f5565b602082019050919050565b5f6060820190506147525f8301856146ad565b61475f60208301846146e6565b81810360408301526147708161471d565b90509392505050565b5f819050919050565b5f61479c61479761479284614779565b6136d4565b613582565b9050919050565b6147ac81614782565b82525050565b7f746f6b656e20737570706c792073686f756c64206265207a65726f00000000005f82015250565b5f6147e6601b83613b21565b91506147f1826147b2565b602082019050919050565b5f60608201905061480f5f830185613ad9565b61481c60208301846147a3565b818103604083015261482d816147da565b90509392505050565b7f746f74616c20737570706c7920646964206e6f74206d617463680000000000005f82015250565b5f61486a601a83613b21565b915061487582614836565b602082019050919050565b5f6060820190506148935f830185613ad9565b6148a06020830184614140565b81810360408301526148b18161485e565b90509392505050565b5f60c0820190506148cd5f83018961394c565b6148da6020830188613748565b6148e76040830187613748565b6148f46060830186613748565b614901608083018561394c565b61490e60a0830184613748565b979650505050505050565b5f815190506149278161358b565b92915050565b5f5f5f60608486031215614944576149436133e1565b5b5f61495186828701614919565b935050602061496286828701614919565b925050604061497386828701614919565b9150509250925092565b5f6060820190506149905f83018661394c565b61499d6020830185613748565b6149aa6040830184613748565b949350505050565b7f5265656e7472616e637947756172643a207265656e7472616e742063616c6c005f82015250565b5f6149e6601f836134a2565b91506149f1826149b2565b602082019050919050565b5f6020820190508181035f830152614a13816149da565b9050919050565b5f604082019050614a2d5f83018561394c565b614a3a602083018461381e565b9392505050565b7f4e487b71000000000000000000000000000000000000000000000000000000005f52601160045260245ffd5b5f614a7882613582565b9150614a8383613582565b9250828201905080821115614a9b57614a9a614a41565b5b9291505056fea2646970667358221220f5befa1703bcff64d60c2e89bad4401f5d0fe4c4ef43f4fc73387f0d899b907d64736f6c634300081c0033",
			"opcodes": "PUSH1 0x80 PUSH1 0x40 MSTORE PUSH0 PUSH1 0x8 PUSH1 0x14 PUSH2 0x100 EXP DUP2 SLOAD DUP2 PUSH1 0xFF MUL NOT AND SWAP1 DUP4 ISZERO ISZERO MUL OR SWAP1 SSTORE POP PUSH0 PUSH1 0xB PUSH0 PUSH2 0x100 EXP DUP2 SLOAD DUP2 PUSH1 0xFF MUL NOT AND SWAP1 DUP4 ISZERO ISZERO MUL OR SWAP1 SSTORE POP PUSH1 0x2 PUSH1 0xC SSTORE PUSH0 PUSH1 0xE PUSH0 PUSH2 0x100 EXP DUP2 SLOAD DUP2 PUSH1 0xFF MUL NOT AND SWAP1 DUP4 ISZERO ISZERO MUL OR SWAP1 SSTORE POP PUSH1 0x1E PUSH1 0xF SSTORE PUSH20 0x633EA8FE424CD65AD4D4826E6581273AFD06B8EF PUSH1 0x11 PUSH0 PUSH2 0x100 EXP DUP2 SLOAD DUP2 PUSH20 0xFFFFFFFFFFFFFFFFFFFFFFFFFFFFFFFFFFFFFFFF MUL NOT AND SWAP1 DUP4 PUSH20 0xFFFFFFFFFFFFFFFFFFFFFFFFFFFFFFFFFFFFFFFF AND MUL OR SWAP1 SSTORE POP CALLVALUE DUP1 ISZERO PUSH2 0xB9 JUMPI PUSH0 PUSH0 REVERT JUMPDEST POP PUSH1 0x11 PUSH0 SWAP1 SLOAD SWAP1 PUSH2 0x100 EXP SWAP1 DIV PUSH20 0xFFFFFFFFFFFFFFFFFFFFFFFFFFFFFFFFFFFFFFFF AND PUSH1 0x40 MLOAD DUP1 PUSH1 0x40 ADD PUSH1 0x40 MSTORE DUP1 PUSH1 0xB DUP2 MSTORE PUSH1 0x20 ADD PUSH32 0x57616C6C7920546F6B656E000000000000000000000000000000000000000000 DUP2 MSTORE POP PUSH1 0x40 MLOAD DUP1 PUSH1 0x40 ADD PUSH1 0x40 MSTORE DUP1 PUSH1 0x3 DUP2 MSTORE PUSH1 0x20 ADD PUSH32 0x5457470000000000000000000000000000000000000000000000000000000000 DUP2 MSTORE POP DUP2 PUSH1 0x3 SWAP1 DUP2 PUSH2 0x157 SWAP2 SWAP1 PUSH2 0xBC4 JUMP JUMPDEST POP DUP1 PUSH1 0x4 SWAP1 DUP2 PUSH2 0x167 SWAP2 SWAP1 PUSH2 0xBC4 JUMP JUMPDEST POP POP POP PUSH1 0x1 PUSH1 0x6 DUP2 SWAP1 SSTORE POP PUSH0 PUSH20 0xFFFFFFFFFFFFFFFFFFFFFFFFFFFFFFFFFFFFFFFF AND DUP2 PUSH20 0xFFFFFFFFFFFFFFFFFFFFFFFFFFFFFFFFFFFFFFFF AND SUB PUSH2 0x1E0 JUMPI PUSH1 0x40 MLOAD PUSH32 0x8C379A000000000000000000000000000000000000000000000000000000000 DUP2 MSTORE PUSH1 0x4 ADD PUSH2 0x1D7 SWAP1 PUSH2 0xCED JUMP JUMPDEST PUSH1 0x40 MLOAD DUP1 SWAP2 SUB SWAP1 REVERT JUMPDEST PUSH2 0x1FC CALLER PUSH12 0x409F9CBC7C4A04C220000000 PUSH2 0x50C PUSH1 0x20 SHL PUSH1 0x20 SHR JUMP JUMPDEST PUSH2 0x240 PUSH32 0xA49807205CE4D355092EF5A8A18F56E8913CF4A201FBE287825B095693C21775 PUSH20 0x633EA8FE424CD65AD4D4826E6581273AFD06B8EF PUSH2 0x591 PUSH1 0x20 SHL PUSH1 0x20 SHR JUMP JUMPDEST POP PUSH2 0x291 PUSH32 0x9F2DF0FED2C77648DE5860A4CC508CD0818C85B8B8A1AB4CEEEF8D981C8956A6 PUSH32 0xA49807205CE4D355092EF5A8A18F56E8913CF4A201FBE287825B095693C21775 PUSH2 0x687 PUSH1 0x20 SHL PUSH1 0x20 SHR JUMP JUMPDEST PUSH2 0x2E1 PUSH32 0x3C11D16CBAFFD01DF69CE1C404F6340EE057498F5F00246190EA54220576A848 PUSH32 0xA49807205CE4D355092EF5A8A18F56E8913CF4A201FBE287825B095693C21775 PUSH2 0x687 PUSH1 0x20 SHL PUSH1 0x20 SHR JUMP JUMPDEST DUP1 PUSH1 0x7 PUSH0 PUSH2 0x100 EXP DUP2 SLOAD DUP2 PUSH20 0xFFFFFFFFFFFFFFFFFFFFFFFFFFFFFFFFFFFFFFFF MUL NOT AND SWAP1 DUP4 PUSH20 0xFFFFFFFFFFFFFFFFFFFFFFFFFFFFFFFFFFFFFFFF AND MUL OR SWAP1 SSTORE POP PUSH0 PUSH1 0x7 PUSH0 SWAP1 SLOAD SWAP1 PUSH2 0x100 EXP SWAP1 DIV PUSH20 0xFFFFFFFFFFFFFFFFFFFFFFFFFFFFFFFFFFFFFFFF AND PUSH20 0xFFFFFFFFFFFFFFFFFFFFFFFFFFFFFFFFFFFFFFFF AND PUSH4 0xC45A0155 PUSH1 0x40 MLOAD DUP2 PUSH4 0xFFFFFFFF AND PUSH1 0xE0 SHL DUP2 MSTORE PUSH1 0x4 ADD PUSH1 0x20 PUSH1 0x40 MLOAD DUP1 DUP4 SUB DUP2 DUP7 GAS STATICCALL ISZERO DUP1 ISZERO PUSH2 0x38C JUMPI RETURNDATASIZE PUSH0 PUSH0 RETURNDATACOPY RETURNDATASIZE PUSH0 REVERT JUMPDEST POP POP POP POP PUSH1 0x40 MLOAD RETURNDATASIZE PUSH1 0x1F NOT PUSH1 0x1F DUP3 ADD AND DUP3 ADD DUP1 PUSH1 0x40 MSTORE POP DUP2 ADD SWAP1 PUSH2 0x3B0 SWAP2 SWAP1 PUSH2 0xD69 JUMP JUMPDEST SWAP1 POP PUSH0 PUSH1 0x7 PUSH0 SWAP1 SLOAD SWAP1 PUSH2 0x100 EXP SWAP1 DIV PUSH20 0xFFFFFFFFFFFFFFFFFFFFFFFFFFFFFFFFFFFFFFFF AND PUSH20 0xFFFFFFFFFFFFFFFFFFFFFFFFFFFFFFFFFFFFFFFF AND PUSH4 0xAD5C4648 PUSH1 0x40 MLOAD DUP2 PUSH4 0xFFFFFFFF AND PUSH1 0xE0 SHL DUP2 MSTORE PUSH1 0x4 ADD PUSH1 0x20 PUSH1 0x40 MLOAD DUP1 DUP4 SUB DUP2 DUP7 GAS STATICCALL ISZERO DUP1 ISZERO PUSH2 0x41D JUMPI RETURNDATASIZE PUSH0 PUSH0 RETURNDATACOPY RETURNDATASIZE PUSH0 REVERT JUMPDEST POP POP POP POP PUSH1 0x40 MLOAD RETURNDATASIZE PUSH1 0x1F NOT PUSH1 0x1F DUP3 ADD AND DUP3 ADD DUP1 PUSH1 0x40 MSTORE POP DUP2 ADD SWAP1 PUSH2 0x441 SWAP2 SWAP1 PUSH2 0xD69 JUMP JUMPDEST SWAP1 POP DUP2 PUSH20 0xFFFFFFFFFFFFFFFFFFFFFFFFFFFFFFFFFFFFFFFF AND PUSH4 0xC9C65396 ADDRESS DUP4 PUSH1 0x40 MLOAD DUP4 PUSH4 0xFFFFFFFF AND PUSH1 0xE0 SHL DUP2 MSTORE PUSH1 0x4 ADD PUSH2 0x47E SWAP3 SWAP2 SWAP1 PUSH2 0xDA3 JUMP JUMPDEST PUSH1 0x20 PUSH1 0x40 MLOAD DUP1 DUP4 SUB DUP2 PUSH0 DUP8 GAS CALL ISZERO DUP1 ISZERO PUSH2 0x49A JUMPI RETURNDATASIZE PUSH0 PUSH0 RETURNDATACOPY RETURNDATASIZE PUSH0 REVERT JUMPDEST POP POP POP POP PUSH1 0x40 MLOAD RETURNDATASIZE PUSH1 0x1F NOT PUSH1 0x1F DUP3 ADD AND DUP3 ADD DUP1 PUSH1 0x40 MSTORE POP DUP2 ADD SWAP1 PUSH2 0x4BE SWAP2 SWAP1 PUSH2 0xD69 JUMP JUMPDEST PUSH1 0x8 PUSH0 PUSH2 0x100 EXP DUP2 SLOAD DUP2 PUSH20 0xFFFFFFFFFFFFFFFFFFFFFFFFFFFFFFFFFFFFFFFF MUL NOT AND SWAP1 DUP4 PUSH20 0xFFFFFFFFFFFFFFFFFFFFFFFFFFFFFFFFFFFFFFFF AND MUL OR SWAP1 SSTORE POP PUSH0 PUSH1 0xA DUP2 SWAP1 SSTORE POP POP POP POP PUSH2 0xEA0 JUMP JUMPDEST PUSH0 PUSH20 0xFFFFFFFFFFFFFFFFFFFFFFFFFFFFFFFFFFFFFFFF AND DUP3 PUSH20 0xFFFFFFFFFFFFFFFFFFFFFFFFFFFFFFFFFFFFFFFF AND SUB PUSH2 0x57C JUMPI PUSH0 PUSH1 0x40 MLOAD PUSH32 0xEC442F0500000000000000000000000000000000000000000000000000000000 DUP2 MSTORE PUSH1 0x4 ADD PUSH2 0x573 SWAP2 SWAP1 PUSH2 0xDCA JUMP JUMPDEST PUSH1 0x40 MLOAD DUP1 SWAP2 SUB SWAP1 REVERT JUMPDEST PUSH2 0x58D PUSH0 DUP4 DUP4 PUSH2 0x6E6 PUSH1 0x20 SHL PUSH1 0x20 SHR JUMP JUMPDEST POP POP JUMP JUMPDEST PUSH0 PUSH2 0x5A2 DUP4 DUP4 PUSH2 0x8FF PUSH1 0x20 SHL PUSH1 0x20 SHR JUMP JUMPDEST PUSH2 0x67D JUMPI PUSH1 0x1 PUSH1 0x5 PUSH0 DUP6 DUP2 MSTORE PUSH1 0x20 ADD SWAP1 DUP2 MSTORE PUSH1 0x20 ADD PUSH0 KECCAK256 PUSH0 ADD PUSH0 DUP5 PUSH20 0xFFFFFFFFFFFFFFFFFFFFFFFFFFFFFFFFFFFFFFFF AND PUSH20 0xFFFFFFFFFFFFFFFFFFFFFFFFFFFFFFFFFFFFFFFF AND DUP2 MSTORE PUSH1 0x20 ADD SWAP1 DUP2 MSTORE PUSH1 0x20 ADD PUSH0 KECCAK256 PUSH0 PUSH2 0x100 EXP DUP2 SLOAD DUP2 PUSH1 0xFF MUL NOT AND SWAP1 DUP4 ISZERO ISZERO MUL OR SWAP1 SSTORE POP PUSH2 0x61A PUSH2 0x963 PUSH1 0x20 SHL PUSH1 0x20 SHR JUMP JUMPDEST PUSH20 0xFFFFFFFFFFFFFFFFFFFFFFFFFFFFFFFFFFFFFFFF AND DUP3 PUSH20 0xFFFFFFFFFFFFFFFFFFFFFFFFFFFFFFFFFFFFFFFF AND DUP5 PUSH32 0x2F8788117E7EFF1D82E926EC794901D17C78024A50270940304540A733656F0D PUSH1 0x40 MLOAD PUSH1 0x40 MLOAD DUP1 SWAP2 SUB SWAP1 LOG4 PUSH1 0x1 SWAP1 POP PUSH2 0x681 JUMP JUMPDEST PUSH0 SWAP1 POP JUMPDEST SWAP3 SWAP2 POP POP JUMP JUMPDEST PUSH0 PUSH2 0x697 DUP4 PUSH2 0x96A PUSH1 0x20 SHL PUSH1 0x20 SHR JUMP JUMPDEST SWAP1 POP DUP2 PUSH1 0x5 PUSH0 DUP6 DUP2 MSTORE PUSH1 0x20 ADD SWAP1 DUP2 MSTORE PUSH1 0x20 ADD PUSH0 KECCAK256 PUSH1 0x1 ADD DUP2 SWAP1 SSTORE POP DUP2 DUP2 DUP5 PUSH32 0xBD79B86FFE0AB8E8776151514217CD7CACD52C909F66475C3AF44E129F0B00FF PUSH1 0x40 MLOAD PUSH1 0x40 MLOAD DUP1 SWAP2 SUB SWAP1 LOG4 POP POP POP JUMP JUMPDEST PUSH0 PUSH20 0xFFFFFFFFFFFFFFFFFFFFFFFFFFFFFFFFFFFFFFFF AND DUP4 PUSH20 0xFFFFFFFFFFFFFFFFFFFFFFFFFFFFFFFFFFFFFFFF AND SUB PUSH2 0x736 JUMPI DUP1 PUSH1 0x2 PUSH0 DUP3 DUP3 SLOAD PUSH2 0x72A SWAP2 SWAP1 PUSH2 0xE10 JUMP JUMPDEST SWAP3 POP POP DUP2 SWAP1 SSTORE POP PUSH2 0x804 JUMP JUMPDEST PUSH0 PUSH0 PUSH0 DUP6 PUSH20 0xFFFFFFFFFFFFFFFFFFFFFFFFFFFFFFFFFFFFFFFF AND PUSH20 0xFFFFFFFFFFFFFFFFFFFFFFFFFFFFFFFFFFFFFFFF AND DUP2 MSTORE PUSH1 0x20 ADD SWAP1 DUP2 MSTORE PUSH1 0x20 ADD PUSH0 KECCAK256 SLOAD SWAP1 POP DUP2 DUP2 LT ISZERO PUSH2 0x7BF JUMPI DUP4 DUP2 DUP4 PUSH1 0x40 MLOAD PUSH32 0xE450D38C00000000000000000000000000000000000000000000000000000000 DUP2 MSTORE PUSH1 0x4 ADD PUSH2 0x7B6 SWAP4 SWAP3 SWAP2 SWAP1 PUSH2 0xE52 JUMP JUMPDEST PUSH1 0x40 MLOAD DUP1 SWAP2 SUB SWAP1 REVERT JUMPDEST DUP2 DUP2 SUB PUSH0 PUSH0 DUP7 PUSH20 0xFFFFFFFFFFFFFFFFFFFFFFFFFFFFFFFFFFFFFFFF AND PUSH20 0xFFFFFFFFFFFFFFFFFFFFFFFFFFFFFFFFFFFFFFFF AND DUP2 MSTORE PUSH1 0x20 ADD SWAP1 DUP2 MSTORE PUSH1 0x20 ADD PUSH0 KECCAK256 DUP2 SWAP1 SSTORE POP POP JUMPDEST PUSH0 PUSH20 0xFFFFFFFFFFFFFFFFFFFFFFFFFFFFFFFFFFFFFFFF AND DUP3 PUSH20 0xFFFFFFFFFFFFFFFFFFFFFFFFFFFFFFFFFFFFFFFF AND SUB PUSH2 0x84B JUMPI DUP1 PUSH1 0x2 PUSH0 DUP3 DUP3 SLOAD SUB SWAP3 POP POP DUP2 SWAP1 SSTORE POP PUSH2 0x895 JUMP JUMPDEST DUP1 PUSH0 PUSH0 DUP5 PUSH20 0xFFFFFFFFFFFFFFFFFFFFFFFFFFFFFFFFFFFFFFFF AND PUSH20 0xFFFFFFFFFFFFFFFFFFFFFFFFFFFFFFFFFFFFFFFF AND DUP2 MSTORE PUSH1 0x20 ADD SWAP1 DUP2 MSTORE PUSH1 0x20 ADD PUSH0 KECCAK256 PUSH0 DUP3 DUP3 SLOAD ADD SWAP3 POP POP DUP2 SWAP1 SSTORE POP JUMPDEST DUP2 PUSH20 0xFFFFFFFFFFFFFFFFFFFFFFFFFFFFFFFFFFFFFFFF AND DUP4 PUSH20 0xFFFFFFFFFFFFFFFFFFFFFFFFFFFFFFFFFFFFFFFF AND PUSH32 0xDDF252AD1BE2C89B69C2B068FC378DAA952BA7F163C4A11628F55A4DF523B3EF DUP4 PUSH1 0x40 MLOAD PUSH2 0x8F2 SWAP2 SWAP1 PUSH2 0xE87 JUMP JUMPDEST PUSH1 0x40 MLOAD DUP1 SWAP2 SUB SWAP1 LOG3 POP POP POP JUMP JUMPDEST PUSH0 PUSH1 0x5 PUSH0 DUP5 DUP2 MSTORE PUSH1 0x20 ADD SWAP1 DUP2 MSTORE PUSH1 0x20 ADD PUSH0 KECCAK256 PUSH0 ADD PUSH0 DUP4 PUSH20 0xFFFFFFFFFFFFFFFFFFFFFFFFFFFFFFFFFFFFFFFF AND PUSH20 0xFFFFFFFFFFFFFFFFFFFFFFFFFFFFFFFFFFFFFFFF AND DUP2 MSTORE PUSH1 0x20 ADD SWAP1 DUP2 MSTORE PUSH1 0x20 ADD PUSH0 KECCAK256 PUSH0 SWAP1 SLOAD SWAP1 PUSH2 0x100 EXP SWAP1 DIV PUSH1 0xFF AND SWAP1 POP SWAP3 SWAP2 POP POP JUMP JUMPDEST PUSH0 CALLER SWAP1 POP SWAP1 JUMP JUMPDEST PUSH0 PUSH1 0x5 PUSH0 DUP4 DUP2 MSTORE PUSH1 0x20 ADD SWAP1 DUP2 MSTORE PUSH1 0x20 ADD PUSH0 KECCAK256 PUSH1 0x1 ADD SLOAD SWAP1 POP SWAP2 SWAP1 POP JUMP JUMPDEST PUSH0 DUP2 MLOAD SWAP1 POP SWAP2 SWAP1 POP JUMP JUMPDEST PUSH32 0x4E487B7100000000000000000000000000000000000000000000000000000000 PUSH0 MSTORE PUSH1 0x41 PUSH1 0x4 MSTORE PUSH1 0x24 PUSH0 REVERT JUMPDEST PUSH32 0x4E487B7100000000000000000000000000000000000000000000000000000000 PUSH0 MSTORE PUSH1 0x22 PUSH1 0x4 MSTORE PUSH1 0x24 PUSH0 REVERT JUMPDEST PUSH0 PUSH1 0x2 DUP3 DIV SWAP1 POP PUSH1 0x1 DUP3 AND DUP1 PUSH2 0xA02 JUMPI PUSH1 0x7F DUP3 AND SWAP2 POP JUMPDEST PUSH1 0x20 DUP3 LT DUP2 SUB PUSH2 0xA15 JUMPI PUSH2 0xA14 PUSH2 0x9BE JUMP JUMPDEST JUMPDEST POP SWAP2 SWAP1 POP JUMP JUMPDEST PUSH0 DUP2 SWAP1 POP DUP2 PUSH0 MSTORE PUSH1 0x20 PUSH0 KECCAK256 SWAP1 POP SWAP2 SWAP1 POP JUMP JUMPDEST PUSH0 PUSH1 0x20 PUSH1 0x1F DUP4 ADD DIV SWAP1 POP SWAP2 SWAP1 POP JUMP JUMPDEST PUSH0 DUP3 DUP3 SHL SWAP1 POP SWAP3 SWAP2 POP POP JUMP JUMPDEST PUSH0 PUSH1 0x8 DUP4 MUL PUSH2 0xA77 PUSH32 0xFFFFFFFFFFFFFFFFFFFFFFFFFFFFFFFFFFFFFFFFFFFFFFFFFFFFFFFFFFFFFFFF DUP3 PUSH2 0xA3C JUMP JUMPDEST PUSH2 0xA81 DUP7 DUP4 PUSH2 0xA3C JUMP JUMPDEST SWAP6 POP DUP1 NOT DUP5 AND SWAP4 POP DUP1 DUP7 AND DUP5 OR SWAP3 POP POP POP SWAP4 SWAP3 POP POP POP JUMP JUMPDEST PUSH0 DUP2 SWAP1 POP SWAP2 SWAP1 POP JUMP JUMPDEST PUSH0 DUP2 SWAP1 POP SWAP2 SWAP1 POP JUMP JUMPDEST PUSH0 PUSH2 0xAC5 PUSH2 0xAC0 PUSH2 0xABB DUP5 PUSH2 0xA99 JUMP JUMPDEST PUSH2 0xAA2 JUMP JUMPDEST PUSH2 0xA99 JUMP JUMPDEST SWAP1 POP SWAP2 SWAP1 POP JUMP JUMPDEST PUSH0 DUP2 SWAP1 POP SWAP2 SWAP1 POP JUMP JUMPDEST PUSH2 0xADE DUP4 PUSH2 0xAAB JUMP JUMPDEST PUSH2 0xAF2 PUSH2 0xAEA DUP3 PUSH2 0xACC JUMP JUMPDEST DUP5 DUP5 SLOAD PUSH2 0xA48 JUMP JUMPDEST DUP3 SSTORE POP POP POP POP JUMP JUMPDEST PUSH0 PUSH0 SWAP1 POP SWAP1 JUMP JUMPDEST PUSH2 0xB09 PUSH2 0xAFA JUMP JUMPDEST PUSH2 0xB14 DUP2 DUP5 DUP5 PUSH2 0xAD5 JUMP JUMPDEST POP POP POP JUMP JUMPDEST JUMPDEST DUP2 DUP2 LT ISZERO PUSH2 0xB37 JUMPI PUSH2 0xB2C PUSH0 DUP3 PUSH2 0xB01 JUMP JUMPDEST PUSH1 0x1 DUP2 ADD SWAP1 POP PUSH2 0xB1A JUMP JUMPDEST POP POP JUMP JUMPDEST PUSH1 0x1F DUP3 GT ISZERO PUSH2 0xB7C JUMPI PUSH2 0xB4D DUP2 PUSH2 0xA1B JUMP JUMPDEST PUSH2 0xB56 DUP5 PUSH2 0xA2D JUMP JUMPDEST DUP2 ADD PUSH1 0x20 DUP6 LT ISZERO PUSH2 0xB65 JUMPI DUP2 SWAP1 POP JUMPDEST PUSH2 0xB79 PUSH2 0xB71 DUP6 PUSH2 0xA2D JUMP JUMPDEST DUP4 ADD DUP3 PUSH2 0xB19 JUMP JUMPDEST POP POP JUMPDEST POP POP POP JUMP JUMPDEST PUSH0 DUP3 DUP3 SHR SWAP1 POP SWAP3 SWAP2 POP POP JUMP JUMPDEST PUSH0 PUSH2 0xB9C PUSH0 NOT DUP5 PUSH1 0x8 MUL PUSH2 0xB81 JUMP JUMPDEST NOT DUP1 DUP4 AND SWAP2 POP POP SWAP3 SWAP2 POP POP JUMP JUMPDEST PUSH0 PUSH2 0xBB4 DUP4 DUP4 PUSH2 0xB8D JUMP JUMPDEST SWAP2 POP DUP3 PUSH1 0x2 MUL DUP3 OR SWAP1 POP SWAP3 SWAP2 POP POP JUMP JUMPDEST PUSH2 0xBCD DUP3 PUSH2 0x987 JUMP JUMPDEST PUSH8 0xFFFFFFFFFFFFFFFF DUP2 GT ISZERO PUSH2 0xBE6 JUMPI PUSH2 0xBE5 PUSH2 0x991 JUMP JUMPDEST JUMPDEST PUSH2 0xBF0 DUP3 SLOAD PUSH2 0x9EB JUMP JUMPDEST PUSH2 0xBFB DUP3 DUP3 DUP6 PUSH2 0xB3B JUMP JUMPDEST PUSH0 PUSH1 0x20 SWAP1 POP PUSH1 0x1F DUP4 GT PUSH1 0x1 DUP2 EQ PUSH2 0xC2C JUMPI PUSH0 DUP5 ISZERO PUSH2 0xC1A JUMPI DUP3 DUP8 ADD MLOAD SWAP1 POP JUMPDEST PUSH2 0xC24 DUP6 DUP3 PUSH2 0xBA9 JUMP JUMPDEST DUP7 SSTORE POP PUSH2 0xC8B JUMP JUMPDEST PUSH1 0x1F NOT DUP5 AND PUSH2 0xC3A DUP7 PUSH2 0xA1B JUMP JUMPDEST PUSH0 JUMPDEST DUP3 DUP2 LT ISZERO PUSH2 0xC61 JUMPI DUP5 DUP10 ADD MLOAD DUP3 SSTORE PUSH1 0x1 DUP3 ADD SWAP2 POP PUSH1 0x20 DUP6 ADD SWAP5 POP PUSH1 0x20 DUP2 ADD SWAP1 POP PUSH2 0xC3C JUMP JUMPDEST DUP7 DUP4 LT ISZERO PUSH2 0xC7E JUMPI DUP5 DUP10 ADD MLOAD PUSH2 0xC7A PUSH1 0x1F DUP10 AND DUP3 PUSH2 0xB8D JUMP JUMPDEST DUP4 SSTORE POP JUMPDEST PUSH1 0x1 PUSH1 0x2 DUP9 MUL ADD DUP9 SSTORE POP POP POP JUMPDEST POP POP POP POP POP POP JUMP JUMPDEST PUSH0 DUP3 DUP3 MSTORE PUSH1 0x20 DUP3 ADD SWAP1 POP SWAP3 SWAP2 POP POP JUMP JUMPDEST PUSH32 0x526F757465722063616E6E6F74206265207A65726F2061646472657373000000 PUSH0 DUP3 ADD MSTORE POP JUMP JUMPDEST PUSH0 PUSH2 0xCD7 PUSH1 0x1D DUP4 PUSH2 0xC93 JUMP JUMPDEST SWAP2 POP PUSH2 0xCE2 DUP3 PUSH2 0xCA3 JUMP JUMPDEST PUSH1 0x20 DUP3 ADD SWAP1 POP SWAP2 SWAP1 POP JUMP JUMPDEST PUSH0 PUSH1 0x20 DUP3 ADD SWAP1 POP DUP2 DUP2 SUB PUSH0 DUP4 ADD MSTORE PUSH2 0xD04 DUP2 PUSH2 0xCCB JUMP JUMPDEST SWAP1 POP SWAP2 SWAP1 POP JUMP JUMPDEST PUSH0 PUSH0 REVERT JUMPDEST PUSH0 PUSH20 0xFFFFFFFFFFFFFFFFFFFFFFFFFFFFFFFFFFFFFFFF DUP3 AND SWAP1 POP SWAP2 SWAP1 POP JUMP JUMPDEST PUSH0 PUSH2 0xD38 DUP3 PUSH2 0xD0F JUMP JUMPDEST SWAP1 POP SWAP2 SWAP1 POP JUMP JUMPDEST PUSH2 0xD48 DUP2 PUSH2 0xD2E JUMP JUMPDEST DUP2 EQ PUSH2 0xD52 JUMPI PUSH0 PUSH0 REVERT JUMPDEST POP JUMP JUMPDEST PUSH0 DUP2 MLOAD SWAP1 POP PUSH2 0xD63 DUP2 PUSH2 0xD3F JUMP JUMPDEST SWAP3 SWAP2 POP POP JUMP JUMPDEST PUSH0 PUSH1 0x20 DUP3 DUP5 SUB SLT ISZERO PUSH2 0xD7E JUMPI PUSH2 0xD7D PUSH2 0xD0B JUMP JUMPDEST JUMPDEST PUSH0 PUSH2 0xD8B DUP5 DUP3 DUP6 ADD PUSH2 0xD55 JUMP JUMPDEST SWAP2 POP POP SWAP3 SWAP2 POP POP JUMP JUMPDEST PUSH2 0xD9D DUP2 PUSH2 0xD2E JUMP JUMPDEST DUP3 MSTORE POP POP JUMP JUMPDEST PUSH0 PUSH1 0x40 DUP3 ADD SWAP1 POP PUSH2 0xDB6 PUSH0 DUP4 ADD DUP6 PUSH2 0xD94 JUMP JUMPDEST PUSH2 0xDC3 PUSH1 0x20 DUP4 ADD DUP5 PUSH2 0xD94 JUMP JUMPDEST SWAP4 SWAP3 POP POP POP JUMP JUMPDEST PUSH0 PUSH1 0x20 DUP3 ADD SWAP1 POP PUSH2 0xDDD PUSH0 DUP4 ADD DUP5 PUSH2 0xD94 JUMP JUMPDEST SWAP3 SWAP2 POP POP JUMP JUMPDEST PUSH32 0x4E487B7100000000000000000000000000000000000000000000000000000000 PUSH0 MSTORE PUSH1 0x11 PUSH1 0x4 MSTORE PUSH1 0x24 PUSH0 REVERT JUMPDEST PUSH0 PUSH2 0xE1A DUP3 PUSH2 0xA99 JUMP JUMPDEST SWAP2 POP PUSH2 0xE25 DUP4 PUSH2 0xA99 JUMP JUMPDEST SWAP3 POP DUP3 DUP3 ADD SWAP1 POP DUP1 DUP3 GT ISZERO PUSH2 0xE3D JUMPI PUSH2 0xE3C PUSH2 0xDE3 JUMP JUMPDEST JUMPDEST SWAP3 SWAP2 POP POP JUMP JUMPDEST PUSH2 0xE4C DUP2 PUSH2 0xA99 JUMP JUMPDEST DUP3 MSTORE POP POP JUMP JUMPDEST PUSH0 PUSH1 0x60 DUP3 ADD SWAP1 POP PUSH2 0xE65 PUSH0 DUP4 ADD DUP7 PUSH2 0xD94 JUMP JUMPDEST PUSH2 0xE72 PUSH1 0x20 DUP4 ADD DUP6 PUSH2 0xE43 JUMP JUMPDEST PUSH2 0xE7F PUSH1 0x40 DUP4 ADD DUP5 PUSH2 0xE43 JUMP JUMPDEST SWAP5 SWAP4 POP POP POP POP JUMP JUMPDEST PUSH0 PUSH1 0x20 DUP3 ADD SWAP1 POP PUSH2 0xE9A PUSH0 DUP4 ADD DUP5 PUSH2 0xE43 JUMP JUMPDEST SWAP3 SWAP2 POP POP JUMP JUMPDEST PUSH2 0x4AD7 DUP1 PUSH2 0xEAD PUSH0 CODECOPY PUSH0 RETURN INVALID PUSH1 0x80 PUSH1 0x40 MSTORE PUSH1 0x4 CALLDATASIZE LT PUSH2 0x379 JUMPI PUSH0 CALLDATALOAD PUSH1 0xE0 SHR DUP1 PUSH4 0x4ADA218B GT PUSH2 0x1D0 JUMPI DUP1 PUSH4 0xB319C6B7 GT PUSH2 0x101 JUMPI DUP1 PUSH4 0xDC881D1C GT PUSH2 0x9F JUMPI DUP1 PUSH4 0xF18299EB GT PUSH2 0x6E JUMPI DUP1 PUSH4 0xF18299EB EQ PUSH2 0xBA8 JUMPI DUP1 PUSH4 0xF68DED66 EQ PUSH2 0xBBE JUMPI DUP1 PUSH4 0xF6F1E306 EQ PUSH2 0xBE8 JUMPI DUP1 PUSH4 0xF9F92BE4 EQ PUSH2 0xC1A JUMPI PUSH2 0x380 JUMP JUMPDEST DUP1 PUSH4 0xDC881D1C EQ PUSH2 0xB18 JUMPI DUP1 PUSH4 0xDD62ED3E EQ PUSH2 0xB2E JUMPI DUP1 PUSH4 0xEB7492D1 EQ PUSH2 0xB6A JUMPI DUP1 PUSH4 0xEC28438A EQ PUSH2 0xB80 JUMPI PUSH2 0x380 JUMP JUMPDEST DUP1 PUSH4 0xC2E5EC04 GT PUSH2 0xDB JUMPI DUP1 PUSH4 0xC2E5EC04 EQ PUSH2 0xA74 JUMPI DUP1 PUSH4 0xD00EFB2F EQ PUSH2 0xA9C JUMPI DUP1 PUSH4 0xD5391393 EQ PUSH2 0xAC6 JUMPI DUP1 PUSH4 0xD547741F EQ PUSH2 0xAF0 JUMPI PUSH2 0x380 JUMP JUMPDEST DUP1 PUSH4 0xB319C6B7 EQ PUSH2 0xA0C JUMPI DUP1 PUSH4 0xB37FD190 EQ PUSH2 0xA36 JUMPI DUP1 PUSH4 0xBC7035F1 EQ PUSH2 0xA5E JUMPI PUSH2 0x380 JUMP JUMPDEST DUP1 PUSH4 0x8C0B5E22 GT PUSH2 0x16E JUMPI DUP1 PUSH4 0x963472F9 GT PUSH2 0x148 JUMPI DUP1 PUSH4 0x963472F9 EQ PUSH2 0x952 JUMPI DUP1 PUSH4 0xA217FDDF EQ PUSH2 0x97C JUMPI DUP1 PUSH4 0xA9059CBB EQ PUSH2 0x9A6 JUMPI DUP1 PUSH4 0xA985CEEF EQ PUSH2 0x9E2 JUMPI PUSH2 0x380 JUMP JUMPDEST DUP1 PUSH4 0x8C0B5E22 EQ PUSH2 0x8C2 JUMPI DUP1 PUSH4 0x91D14854 EQ PUSH2 0x8EC JUMPI DUP1 PUSH4 0x95D89B41 EQ PUSH2 0x928 JUMPI PUSH2 0x380 JUMP JUMPDEST DUP1 PUSH4 0x70A08231 GT PUSH2 0x1AA JUMPI DUP1 PUSH4 0x70A08231 EQ PUSH2 0x81E JUMPI DUP1 PUSH4 0x75B238FC EQ PUSH2 0x85A JUMPI DUP1 PUSH4 0x7FEA0D4B EQ PUSH2 0x884 JUMPI DUP1 PUSH4 0x89900603 EQ PUSH2 0x89A JUMPI PUSH2 0x380 JUMP JUMPDEST DUP1 PUSH4 0x4ADA218B EQ PUSH2 0x7C8 JUMPI DUP1 PUSH4 0x679D4B31 EQ PUSH2 0x7F2 JUMPI DUP1 PUSH4 0x7052454E EQ PUSH2 0x808 JUMPI PUSH2 0x380 JUMP JUMPDEST DUP1 PUSH4 0x282C51F3 GT PUSH2 0x2AA JUMPI DUP1 PUSH4 0x36568ABE GT PUSH2 0x248 JUMPI DUP1 PUSH4 0x42966C68 GT PUSH2 0x222 JUMPI DUP1 PUSH4 0x42966C68 EQ PUSH2 0x712 JUMPI DUP1 PUSH4 0x4551BBE9 EQ PUSH2 0x73A JUMPI DUP1 PUSH4 0x48FCA59D EQ PUSH2 0x776 JUMPI DUP1 PUSH4 0x49BD5A5E EQ PUSH2 0x79E JUMPI PUSH2 0x380 JUMP JUMPDEST DUP1 PUSH4 0x36568ABE EQ PUSH2 0x6AC JUMPI DUP1 PUSH4 0x3DA0B6DB EQ PUSH2 0x6D4 JUMPI DUP1 PUSH4 0x40C10F19 EQ PUSH2 0x6EA JUMPI PUSH2 0x380 JUMP JUMPDEST DUP1 PUSH4 0x2FF2E9DC GT PUSH2 0x284 JUMPI DUP1 PUSH4 0x2FF2E9DC EQ PUSH2 0x62C JUMPI DUP1 PUSH4 0x313CE567 EQ PUSH2 0x656 JUMPI DUP1 PUSH4 0x36284CE0 EQ PUSH2 0x680 JUMPI DUP1 PUSH4 0x3649A96C EQ PUSH2 0x696 JUMPI PUSH2 0x380 JUMP JUMPDEST DUP1 PUSH4 0x282C51F3 EQ PUSH2 0x5B0 JUMPI DUP1 PUSH4 0x2BE29FA8 EQ PUSH2 0x5DA JUMPI DUP1 PUSH4 0x2F2FF15D EQ PUSH2 0x604 JUMPI PUSH2 0x380 JUMP JUMPDEST DUP1 PUSH4 0xC81877C GT PUSH2 0x317 JUMPI DUP1 PUSH4 0x18160DDD GT PUSH2 0x2F1 JUMPI DUP1 PUSH4 0x18160DDD EQ PUSH2 0x4F8 JUMPI DUP1 PUSH4 0x1F5EE31C EQ PUSH2 0x522 JUMPI DUP1 PUSH4 0x23B872DD EQ PUSH2 0x538 JUMPI DUP1 PUSH4 0x248A9CA3 EQ PUSH2 0x574 JUMPI PUSH2 0x380 JUMP JUMPDEST DUP1 PUSH4 0xC81877C EQ PUSH2 0x490 JUMPI DUP1 PUSH4 0x153B0D1E EQ PUSH2 0x4A6 JUMPI DUP1 PUSH4 0x1694505E EQ PUSH2 0x4CE JUMPI PUSH2 0x380 JUMP JUMPDEST DUP1 PUSH4 0x6FDDE03 GT PUSH2 0x353 JUMPI DUP1 PUSH4 0x6FDDE03 EQ PUSH2 0x3EC JUMPI DUP1 PUSH4 0x6FE1E88 EQ PUSH2 0x416 JUMPI DUP1 PUSH4 0x95EA7B3 EQ PUSH2 0x42C JUMPI DUP1 PUSH4 0x99A04E5 EQ PUSH2 0x468 JUMPI PUSH2 0x380 JUMP JUMPDEST DUP1 PUSH4 0x1FFC9A7 EQ PUSH2 0x384 JUMPI DUP1 PUSH4 0x3C33D5B EQ PUSH2 0x3C0 JUMPI DUP1 PUSH4 0x647B375 EQ PUSH2 0x3D6 JUMPI PUSH2 0x380 JUMP JUMPDEST CALLDATASIZE PUSH2 0x380 JUMPI STOP JUMPDEST PUSH0 PUSH0 REVERT JUMPDEST CALLVALUE DUP1 ISZERO PUSH2 0x38F JUMPI PUSH0 PUSH0 REVERT JUMPDEST POP PUSH2 0x3AA PUSH1 0x4 DUP1 CALLDATASIZE SUB DUP2 ADD SWAP1 PUSH2 0x3A5 SWAP2 SWAP1 PUSH2 0x343A JUMP JUMPDEST PUSH2 0xC56 JUMP JUMPDEST PUSH1 0x40 MLOAD PUSH2 0x3B7 SWAP2 SWAP1 PUSH2 0x347F JUMP JUMPDEST PUSH1 0x40 MLOAD DUP1 SWAP2 SUB SWAP1 RETURN JUMPDEST CALLVALUE DUP1 ISZERO PUSH2 0x3CB JUMPI PUSH0 PUSH0 REVERT JUMPDEST POP PUSH2 0x3D4 PUSH2 0xCCF JUMP JUMPDEST STOP JUMPDEST CALLVALUE DUP1 ISZERO PUSH2 0x3E1 JUMPI PUSH0 PUSH0 REVERT JUMPDEST POP PUSH2 0x3EA PUSH2 0xCDD JUMP JUMPDEST STOP JUMPDEST CALLVALUE DUP1 ISZERO PUSH2 0x3F7 JUMPI PUSH0 PUSH0 REVERT JUMPDEST POP PUSH2 0x400 PUSH2 0xEF7 JUMP JUMPDEST PUSH1 0x40 MLOAD PUSH2 0x40D SWAP2 SWAP1 PUSH2 0x3508 JUMP JUMPDEST PUSH1 0x40 MLOAD DUP1 SWAP2 SUB SWAP1 RETURN JUMPDEST CALLVALUE DUP1 ISZERO PUSH2 0x421 JUMPI PUSH0 PUSH0 REVERT JUMPDEST POP PUSH2 0x42A PUSH2 0xF87 JUMP JUMPDEST STOP JUMPDEST CALLVALUE DUP1 ISZERO PUSH2 0x437 JUMPI PUSH0 PUSH0 REVERT JUMPDEST POP PUSH2 0x452 PUSH1 0x4 DUP1 CALLDATASIZE SUB DUP2 ADD SWAP1 PUSH2 0x44D SWAP2 SWAP1 PUSH2 0x35B5 JUMP JUMPDEST PUSH2 0x1141 JUMP JUMPDEST PUSH1 0x40 MLOAD PUSH2 0x45F SWAP2 SWAP1 PUSH2 0x347F JUMP JUMPDEST PUSH1 0x40 MLOAD DUP1 SWAP2 SUB SWAP1 RETURN JUMPDEST CALLVALUE DUP1 ISZERO PUSH2 0x473 JUMPI PUSH0 PUSH0 REVERT JUMPDEST POP PUSH2 0x48E PUSH1 0x4 DUP1 CALLDATASIZE SUB DUP2 ADD SWAP1 PUSH2 0x489 SWAP2 SWAP1 PUSH2 0x362E JUMP JUMPDEST PUSH2 0x1163 JUMP JUMPDEST STOP JUMPDEST CALLVALUE DUP1 ISZERO PUSH2 0x49B JUMPI PUSH0 PUSH0 REVERT JUMPDEST POP PUSH2 0x4A4 PUSH2 0x12A9 JUMP JUMPDEST STOP JUMPDEST CALLVALUE DUP1 ISZERO PUSH2 0x4B1 JUMPI PUSH0 PUSH0 REVERT JUMPDEST POP PUSH2 0x4CC PUSH1 0x4 DUP1 CALLDATASIZE SUB DUP2 ADD SWAP1 PUSH2 0x4C7 SWAP2 SWAP1 PUSH2 0x3696 JUMP JUMPDEST PUSH2 0x12B8 JUMP JUMPDEST STOP JUMPDEST CALLVALUE DUP1 ISZERO PUSH2 0x4D9 JUMPI PUSH0 PUSH0 REVERT JUMPDEST POP PUSH2 0x4E2 PUSH2 0x1389 JUMP JUMPDEST PUSH1 0x40 MLOAD PUSH2 0x4EF SWAP2 SWAP1 PUSH2 0x372F JUMP JUMPDEST PUSH1 0x40 MLOAD DUP1 SWAP2 SUB SWAP1 RETURN JUMPDEST CALLVALUE DUP1 ISZERO PUSH2 0x503 JUMPI PUSH0 PUSH0 REVERT JUMPDEST POP PUSH2 0x50C PUSH2 0x13AE JUMP JUMPDEST PUSH1 0x40 MLOAD PUSH2 0x519 SWAP2 SWAP1 PUSH2 0x3757 JUMP JUMPDEST PUSH1 0x40 MLOAD DUP1 SWAP2 SUB SWAP1 RETURN JUMPDEST CALLVALUE DUP1 ISZERO PUSH2 0x52D JUMPI PUSH0 PUSH0 REVERT JUMPDEST POP PUSH2 0x536 PUSH2 0x13B7 JUMP JUMPDEST STOP JUMPDEST CALLVALUE DUP1 ISZERO PUSH2 0x543 JUMPI PUSH0 PUSH0 REVERT JUMPDEST POP PUSH2 0x55E PUSH1 0x4 DUP1 CALLDATASIZE SUB DUP2 ADD SWAP1 PUSH2 0x559 SWAP2 SWAP1 PUSH2 0x3770 JUMP JUMPDEST PUSH2 0x13E6 JUMP JUMPDEST PUSH1 0x40 MLOAD PUSH2 0x56B SWAP2 SWAP1 PUSH2 0x347F JUMP JUMPDEST PUSH1 0x40 MLOAD DUP1 SWAP2 SUB SWAP1 RETURN JUMPDEST CALLVALUE DUP1 ISZERO PUSH2 0x57F JUMPI PUSH0 PUSH0 REVERT JUMPDEST POP PUSH2 0x59A PUSH1 0x4 DUP1 CALLDATASIZE SUB DUP2 ADD SWAP1 PUSH2 0x595 SWAP2 SWAP1 PUSH2 0x37F3 JUMP JUMPDEST PUSH2 0x1414 JUMP JUMPDEST PUSH1 0x40 MLOAD PUSH2 0x5A7 SWAP2 SWAP1 PUSH2 0x382D JUMP JUMPDEST PUSH1 0x40 MLOAD DUP1 SWAP2 SUB SWAP1 RETURN JUMPDEST CALLVALUE DUP1 ISZERO PUSH2 0x5BB JUMPI PUSH0 PUSH0 REVERT JUMPDEST POP PUSH2 0x5C4 PUSH2 0x1431 JUMP JUMPDEST PUSH1 0x40 MLOAD PUSH2 0x5D1 SWAP2 SWAP1 PUSH2 0x382D JUMP JUMPDEST PUSH1 0x40 MLOAD DUP1 SWAP2 SUB SWAP1 RETURN JUMPDEST CALLVALUE DUP1 ISZERO PUSH2 0x5E5 JUMPI PUSH0 PUSH0 REVERT JUMPDEST POP PUSH2 0x5EE PUSH2 0x1455 JUMP JUMPDEST PUSH1 0x40 MLOAD PUSH2 0x5FB SWAP2 SWAP1 PUSH2 0x3757 JUMP JUMPDEST PUSH1 0x40 MLOAD DUP1 SWAP2 SUB SWAP1 RETURN JUMPDEST CALLVALUE DUP1 ISZERO PUSH2 0x60F JUMPI PUSH0 PUSH0 REVERT JUMPDEST POP PUSH2 0x62A PUSH1 0x4 DUP1 CALLDATASIZE SUB DUP2 ADD SWAP1 PUSH2 0x625 SWAP2 SWAP1 PUSH2 0x3846 JUMP JUMPDEST PUSH2 0x145B JUMP JUMPDEST STOP JUMPDEST CALLVALUE DUP1 ISZERO PUSH2 0x637 JUMPI PUSH0 PUSH0 REVERT JUMPDEST POP PUSH2 0x640 PUSH2 0x147D JUMP JUMPDEST PUSH1 0x40 MLOAD PUSH2 0x64D SWAP2 SWAP1 PUSH2 0x3757 JUMP JUMPDEST PUSH1 0x40 MLOAD DUP1 SWAP2 SUB SWAP1 RETURN JUMPDEST CALLVALUE DUP1 ISZERO PUSH2 0x661 JUMPI PUSH0 PUSH0 REVERT JUMPDEST POP PUSH2 0x66A PUSH2 0x148D JUMP JUMPDEST PUSH1 0x40 MLOAD PUSH2 0x677 SWAP2 SWAP1 PUSH2 0x389F JUMP JUMPDEST PUSH1 0x40 MLOAD DUP1 SWAP2 SUB SWAP1 RETURN JUMPDEST CALLVALUE DUP1 ISZERO PUSH2 0x68B JUMPI PUSH0 PUSH0 REVERT JUMPDEST POP PUSH2 0x694 PUSH2 0x1495 JUMP JUMPDEST STOP JUMPDEST CALLVALUE DUP1 ISZERO PUSH2 0x6A1 JUMPI PUSH0 PUSH0 REVERT JUMPDEST POP PUSH2 0x6AA PUSH2 0x1716 JUMP JUMPDEST STOP JUMPDEST CALLVALUE DUP1 ISZERO PUSH2 0x6B7 JUMPI PUSH0 PUSH0 REVERT JUMPDEST POP PUSH2 0x6D2 PUSH1 0x4 DUP1 CALLDATASIZE SUB DUP2 ADD SWAP1 PUSH2 0x6CD SWAP2 SWAP1 PUSH2 0x3846 JUMP JUMPDEST PUSH2 0x188B JUMP JUMPDEST STOP JUMPDEST CALLVALUE DUP1 ISZERO PUSH2 0x6DF JUMPI PUSH0 PUSH0 REVERT JUMPDEST POP PUSH2 0x6E8 PUSH2 0x1906 JUMP JUMPDEST STOP JUMPDEST CALLVALUE DUP1 ISZERO PUSH2 0x6F5 JUMPI PUSH0 PUSH0 REVERT JUMPDEST POP PUSH2 0x710 PUSH1 0x4 DUP1 CALLDATASIZE SUB DUP2 ADD SWAP1 PUSH2 0x70B SWAP2 SWAP1 PUSH2 0x35B5 JUMP JUMPDEST PUSH2 0x1914 JUMP JUMPDEST STOP JUMPDEST CALLVALUE DUP1 ISZERO PUSH2 0x71D JUMPI PUSH0 PUSH0 REVERT JUMPDEST POP PUSH2 0x738 PUSH1 0x4 DUP1 CALLDATASIZE SUB DUP2 ADD SWAP1 PUSH2 0x733 SWAP2 SWAP1 PUSH2 0x38B8 JUMP JUMPDEST PUSH2 0x194D JUMP JUMPDEST STOP JUMPDEST CALLVALUE DUP1 ISZERO PUSH2 0x745 JUMPI PUSH0 PUSH0 REVERT JUMPDEST POP PUSH2 0x760 PUSH1 0x4 DUP1 CALLDATASIZE SUB DUP2 ADD SWAP1 PUSH2 0x75B SWAP2 SWAP1 PUSH2 0x38E3 JUMP JUMPDEST PUSH2 0x198C JUMP JUMPDEST PUSH1 0x40 MLOAD PUSH2 0x76D SWAP2 SWAP1 PUSH2 0x3757 JUMP JUMPDEST PUSH1 0x40 MLOAD DUP1 SWAP2 SUB SWAP1 RETURN JUMPDEST CALLVALUE DUP1 ISZERO PUSH2 0x781 JUMPI PUSH0 PUSH0 REVERT JUMPDEST POP PUSH2 0x79C PUSH1 0x4 DUP1 CALLDATASIZE SUB DUP2 ADD SWAP1 PUSH2 0x797 SWAP2 SWAP1 PUSH2 0x390E JUMP JUMPDEST PUSH2 0x19A1 JUMP JUMPDEST STOP JUMPDEST CALLVALUE DUP1 ISZERO PUSH2 0x7A9 JUMPI PUSH0 PUSH0 REVERT JUMPDEST POP PUSH2 0x7B2 PUSH2 0x1A29 JUMP JUMPDEST PUSH1 0x40 MLOAD PUSH2 0x7BF SWAP2 SWAP1 PUSH2 0x395B JUMP JUMPDEST PUSH1 0x40 MLOAD DUP1 SWAP2 SUB SWAP1 RETURN JUMPDEST CALLVALUE DUP1 ISZERO PUSH2 0x7D3 JUMPI PUSH0 PUSH0 REVERT JUMPDEST POP PUSH2 0x7DC PUSH2 0x1A4E JUMP JUMPDEST PUSH1 0x40 MLOAD PUSH2 0x7E9 SWAP2 SWAP1 PUSH2 0x347F JUMP JUMPDEST PUSH1 0x40 MLOAD DUP1 SWAP2 SUB SWAP1 RETURN JUMPDEST CALLVALUE DUP1 ISZERO PUSH2 0x7FD JUMPI PUSH0 PUSH0 REVERT JUMPDEST POP PUSH2 0x806 PUSH2 0x1A61 JUMP JUMPDEST STOP JUMPDEST CALLVALUE DUP1 ISZERO PUSH2 0x813 JUMPI PUSH0 PUSH0 REVERT JUMPDEST POP PUSH2 0x81C PUSH2 0x1AB2 JUMP JUMPDEST STOP JUMPDEST CALLVALUE DUP1 ISZERO PUSH2 0x829 JUMPI PUSH0 PUSH0 REVERT JUMPDEST POP PUSH2 0x844 PUSH1 0x4 DUP1 CALLDATASIZE SUB DUP2 ADD SWAP1 PUSH2 0x83F SWAP2 SWAP1 PUSH2 0x38E3 JUMP JUMPDEST PUSH2 0x1C27 JUMP JUMPDEST PUSH1 0x40 MLOAD PUSH2 0x851 SWAP2 SWAP1 PUSH2 0x3757 JUMP JUMPDEST PUSH1 0x40 MLOAD DUP1 SWAP2 SUB SWAP1 RETURN JUMPDEST CALLVALUE DUP1 ISZERO PUSH2 0x865 JUMPI PUSH0 PUSH0 REVERT JUMPDEST POP PUSH2 0x86E PUSH2 0x1C6C JUMP JUMPDEST PUSH1 0x40 MLOAD PUSH2 0x87B SWAP2 SWAP1 PUSH2 0x382D JUMP JUMPDEST PUSH1 0x40 MLOAD DUP1 SWAP2 SUB SWAP1 RETURN JUMPDEST CALLVALUE DUP1 ISZERO PUSH2 0x88F JUMPI PUSH0 PUSH0 REVERT JUMPDEST POP PUSH2 0x898 PUSH2 0x1C90 JUMP JUMPDEST STOP JUMPDEST CALLVALUE DUP1 ISZERO PUSH2 0x8A5 JUMPI PUSH0 PUSH0 REVERT JUMPDEST POP PUSH2 0x8C0 PUSH1 0x4 DUP1 CALLDATASIZE SUB DUP2 ADD SWAP1 PUSH2 0x8BB SWAP2 SWAP1 PUSH2 0x390E JUMP JUMPDEST PUSH2 0x1F6A JUMP JUMPDEST STOP JUMPDEST CALLVALUE DUP1 ISZERO PUSH2 0x8CD JUMPI PUSH0 PUSH0 REVERT JUMPDEST POP PUSH2 0x8D6 PUSH2 0x1FF2 JUMP JUMPDEST PUSH1 0x40 MLOAD PUSH2 0x8E3 SWAP2 SWAP1 PUSH2 0x3757 JUMP JUMPDEST PUSH1 0x40 MLOAD DUP1 SWAP2 SUB SWAP1 RETURN JUMPDEST CALLVALUE DUP1 ISZERO PUSH2 0x8F7 JUMPI PUSH0 PUSH0 REVERT JUMPDEST POP PUSH2 0x912 PUSH1 0x4 DUP1 CALLDATASIZE SUB DUP2 ADD SWAP1 PUSH2 0x90D SWAP2 SWAP1 PUSH2 0x3846 JUMP JUMPDEST PUSH2 0x1FF8 JUMP JUMPDEST PUSH1 0x40 MLOAD PUSH2 0x91F SWAP2 SWAP1 PUSH2 0x347F JUMP JUMPDEST PUSH1 0x40 MLOAD DUP1 SWAP2 SUB SWAP1 RETURN JUMPDEST CALLVALUE DUP1 ISZERO PUSH2 0x933 JUMPI PUSH0 PUSH0 REVERT JUMPDEST POP PUSH2 0x93C PUSH2 0x205C JUMP JUMPDEST PUSH1 0x40 MLOAD PUSH2 0x949 SWAP2 SWAP1 PUSH2 0x3508 JUMP JUMPDEST PUSH1 0x40 MLOAD DUP1 SWAP2 SUB SWAP1 RETURN JUMPDEST CALLVALUE DUP1 ISZERO PUSH2 0x95D JUMPI PUSH0 PUSH0 REVERT JUMPDEST POP PUSH2 0x966 PUSH2 0x20EC JUMP JUMPDEST PUSH1 0x40 MLOAD PUSH2 0x973 SWAP2 SWAP1 PUSH2 0x347F JUMP JUMPDEST PUSH1 0x40 MLOAD DUP1 SWAP2 SUB SWAP1 RETURN JUMPDEST CALLVALUE DUP1 ISZERO PUSH2 0x987 JUMPI PUSH0 PUSH0 REVERT JUMPDEST POP PUSH2 0x990 PUSH2 0x20FE JUMP JUMPDEST PUSH1 0x40 MLOAD PUSH2 0x99D SWAP2 SWAP1 PUSH2 0x382D JUMP JUMPDEST PUSH1 0x40 MLOAD DUP1 SWAP2 SUB SWAP1 RETURN JUMPDEST CALLVALUE DUP1 ISZERO PUSH2 0x9B1 JUMPI PUSH0 PUSH0 REVERT JUMPDEST POP PUSH2 0x9CC PUSH1 0x4 DUP1 CALLDATASIZE SUB DUP2 ADD SWAP1 PUSH2 0x9C7 SWAP2 SWAP1 PUSH2 0x35B5 JUMP JUMPDEST PUSH2 0x2104 JUMP JUMPDEST PUSH1 0x40 MLOAD PUSH2 0x9D9 SWAP2 SWAP1 PUSH2 0x347F JUMP JUMPDEST PUSH1 0x40 MLOAD DUP1 SWAP2 SUB SWAP1 RETURN JUMPDEST CALLVALUE DUP1 ISZERO PUSH2 0x9ED JUMPI PUSH0 PUSH0 REVERT JUMPDEST POP PUSH2 0x9F6 PUSH2 0x2126 JUMP JUMPDEST PUSH1 0x40 MLOAD PUSH2 0xA03 SWAP2 SWAP1 PUSH2 0x347F JUMP JUMPDEST PUSH1 0x40 MLOAD DUP1 SWAP2 SUB SWAP1 RETURN JUMPDEST CALLVALUE DUP1 ISZERO PUSH2 0xA17 JUMPI PUSH0 PUSH0 REVERT JUMPDEST POP PUSH2 0xA20 PUSH2 0x2138 JUMP JUMPDEST PUSH1 0x40 MLOAD PUSH2 0xA2D SWAP2 SWAP1 PUSH2 0x3757 JUMP JUMPDEST PUSH1 0x40 MLOAD DUP1 SWAP2 SUB SWAP1 RETURN JUMPDEST CALLVALUE DUP1 ISZERO PUSH2 0xA41 JUMPI PUSH0 PUSH0 REVERT JUMPDEST POP PUSH2 0xA5C PUSH1 0x4 DUP1 CALLDATASIZE SUB DUP2 ADD SWAP1 PUSH2 0xA57 SWAP2 SWAP1 PUSH2 0x3974 JUMP JUMPDEST PUSH2 0x213E JUMP JUMPDEST STOP JUMPDEST CALLVALUE DUP1 ISZERO PUSH2 0xA69 JUMPI PUSH0 PUSH0 REVERT JUMPDEST POP PUSH2 0xA72 PUSH2 0x2258 JUMP JUMPDEST STOP JUMPDEST CALLVALUE DUP1 ISZERO PUSH2 0xA7F JUMPI PUSH0 PUSH0 REVERT JUMPDEST POP PUSH2 0xA9A PUSH1 0x4 DUP1 CALLDATASIZE SUB DUP2 ADD SWAP1 PUSH2 0xA95 SWAP2 SWAP1 PUSH2 0x39C4 JUMP JUMPDEST PUSH2 0x2472 JUMP JUMPDEST STOP JUMPDEST CALLVALUE DUP1 ISZERO PUSH2 0xAA7 JUMPI PUSH0 PUSH0 REVERT JUMPDEST POP PUSH2 0xAB0 PUSH2 0x2516 JUMP JUMPDEST PUSH1 0x40 MLOAD PUSH2 0xABD SWAP2 SWAP1 PUSH2 0x3757 JUMP JUMPDEST PUSH1 0x40 MLOAD DUP1 SWAP2 SUB SWAP1 RETURN JUMPDEST CALLVALUE DUP1 ISZERO PUSH2 0xAD1 JUMPI PUSH0 PUSH0 REVERT JUMPDEST POP PUSH2 0xADA PUSH2 0x251C JUMP JUMPDEST PUSH1 0x40 MLOAD PUSH2 0xAE7 SWAP2 SWAP1 PUSH2 0x382D JUMP JUMPDEST PUSH1 0x40 MLOAD DUP1 SWAP2 SUB SWAP1 RETURN JUMPDEST CALLVALUE DUP1 ISZERO PUSH2 0xAFB JUMPI PUSH0 PUSH0 REVERT JUMPDEST POP PUSH2 0xB16 PUSH1 0x4 DUP1 CALLDATASIZE SUB DUP2 ADD SWAP1 PUSH2 0xB11 SWAP2 SWAP1 PUSH2 0x3846 JUMP JUMPDEST PUSH2 0x2540 JUMP JUMPDEST STOP JUMPDEST CALLVALUE DUP1 ISZERO PUSH2 0xB23 JUMPI PUSH0 PUSH0 REVERT JUMPDEST POP PUSH2 0xB2C PUSH2 0x2562 JUMP JUMPDEST STOP JUMPDEST CALLVALUE DUP1 ISZERO PUSH2 0xB39 JUMPI PUSH0 PUSH0 REVERT JUMPDEST POP PUSH2 0xB54 PUSH1 0x4 DUP1 CALLDATASIZE SUB DUP2 ADD SWAP1 PUSH2 0xB4F SWAP2 SWAP1 PUSH2 0x39EF JUMP JUMPDEST PUSH2 0x2766 JUMP JUMPDEST PUSH1 0x40 MLOAD PUSH2 0xB61 SWAP2 SWAP1 PUSH2 0x3757 JUMP JUMPDEST PUSH1 0x40 MLOAD DUP1 SWAP2 SUB SWAP1 RETURN JUMPDEST CALLVALUE DUP1 ISZERO PUSH2 0xB75 JUMPI PUSH0 PUSH0 REVERT JUMPDEST POP PUSH2 0xB7E PUSH2 0x27E8 JUMP JUMPDEST STOP JUMPDEST CALLVALUE DUP1 ISZERO PUSH2 0xB8B JUMPI PUSH0 PUSH0 REVERT JUMPDEST POP PUSH2 0xBA6 PUSH1 0x4 DUP1 CALLDATASIZE SUB DUP2 ADD SWAP1 PUSH2 0xBA1 SWAP2 SWAP1 PUSH2 0x38B8 JUMP JUMPDEST PUSH2 0x286C JUMP JUMPDEST STOP JUMPDEST CALLVALUE DUP1 ISZERO PUSH2 0xBB3 JUMPI PUSH0 PUSH0 REVERT JUMPDEST POP PUSH2 0xBBC PUSH2 0x28D8 JUMP JUMPDEST STOP JUMPDEST CALLVALUE DUP1 ISZERO PUSH2 0xBC9 JUMPI PUSH0 PUSH0 REVERT JUMPDEST POP PUSH2 0xBD2 PUSH2 0x2908 JUMP JUMPDEST PUSH1 0x40 MLOAD PUSH2 0xBDF SWAP2 SWAP1 PUSH2 0x395B JUMP JUMPDEST PUSH1 0x40 MLOAD DUP1 SWAP2 SUB SWAP1 RETURN JUMPDEST PUSH2 0xC02 PUSH1 0x4 DUP1 CALLDATASIZE SUB DUP2 ADD SWAP1 PUSH2 0xBFD SWAP2 SWAP1 PUSH2 0x3A2D JUMP JUMPDEST PUSH2 0x2920 JUMP JUMPDEST PUSH1 0x40 MLOAD PUSH2 0xC11 SWAP4 SWAP3 SWAP2 SWAP1 PUSH2 0x3AA4 JUMP JUMPDEST PUSH1 0x40 MLOAD DUP1 SWAP2 SUB SWAP1 RETURN JUMPDEST CALLVALUE DUP1 ISZERO PUSH2 0xC25 JUMPI PUSH0 PUSH0 REVERT JUMPDEST POP PUSH2 0xC40 PUSH1 0x4 DUP1 CALLDATASIZE SUB DUP2 ADD SWAP1 PUSH2 0xC3B SWAP2 SWAP1 PUSH2 0x38E3 JUMP JUMPDEST PUSH2 0x2A47 JUMP JUMPDEST PUSH1 0x40 MLOAD PUSH2 0xC4D SWAP2 SWAP1 PUSH2 0x347F JUMP JUMPDEST PUSH1 0x40 MLOAD DUP1 SWAP2 SUB SWAP1 RETURN JUMPDEST PUSH0 PUSH32 0x7965DB0B00000000000000000000000000000000000000000000000000000000 PUSH28 0xFFFFFFFFFFFFFFFFFFFFFFFFFFFFFFFFFFFFFFFFFFFFFFFFFFFFFFFF NOT AND DUP3 PUSH28 0xFFFFFFFFFFFFFFFFFFFFFFFFFFFFFFFFFFFFFFFFFFFFFFFFFFFFFFFF NOT AND EQ DUP1 PUSH2 0xCC8 JUMPI POP PUSH2 0xCC7 DUP3 PUSH2 0x2A64 JUMP JUMPDEST JUMPDEST SWAP1 POP SWAP2 SWAP1 POP JUMP JUMPDEST PUSH2 0xCDA PUSH0 PUSH1 0x64 PUSH2 0x2104 JUMP JUMPDEST POP JUMP JUMPDEST PUSH20 0x0 PUSH4 0xABCD7960 PUSH2 0xD21 PUSH1 0x12 PUSH0 SWAP1 SLOAD SWAP1 PUSH2 0x100 EXP SWAP1 DIV PUSH20 0xFFFFFFFFFFFFFFFFFFFFFFFFFFFFFFFFFFFFFFFF AND PUSH2 0x1C27 JUMP JUMPDEST PUSH0 PUSH1 0x40 MLOAD DUP4 PUSH4 0xFFFFFFFF AND PUSH1 0xE0 SHL DUP2 MSTORE PUSH1 0x4 ADD PUSH2 0xD3F SWAP3 SWAP2 SWAP1 PUSH2 0x3BA1 JUMP JUMPDEST PUSH1 0x20 PUSH1 0x40 MLOAD DUP1 DUP4 SUB DUP2 DUP7 GAS DELEGATECALL ISZERO DUP1 ISZERO PUSH2 0xD5A JUMPI RETURNDATASIZE PUSH0 PUSH0 RETURNDATACOPY RETURNDATASIZE PUSH0 REVERT JUMPDEST POP POP POP POP PUSH1 0x40 MLOAD RETURNDATASIZE PUSH1 0x1F NOT PUSH1 0x1F DUP3 ADD AND DUP3 ADD DUP1 PUSH1 0x40 MSTORE POP DUP2 ADD SWAP1 PUSH2 0xD7E SWAP2 SWAP1 PUSH2 0x3BEF JUMP JUMPDEST POP PUSH2 0xDAC PUSH1 0x12 PUSH0 SWAP1 SLOAD SWAP1 PUSH2 0x100 EXP SWAP1 DIV PUSH20 0xFFFFFFFFFFFFFFFFFFFFFFFFFFFFFFFFFFFFFFFF AND PUSH2 0x1F4 PUSH2 0x2104 JUMP JUMPDEST POP PUSH20 0x0 PUSH4 0xABCD7960 PUSH2 0xDF1 PUSH1 0x11 PUSH0 SWAP1 SLOAD SWAP1 PUSH2 0x100 EXP SWAP1 DIV PUSH20 0xFFFFFFFFFFFFFFFFFFFFFFFFFFFFFFFFFFFFFFFF AND PUSH2 0x1C27 JUMP JUMPDEST PUSH2 0x251C PUSH1 0x40 MLOAD DUP4 PUSH4 0xFFFFFFFF AND PUSH1 0xE0 SHL DUP2 MSTORE PUSH1 0x4 ADD PUSH2 0xE11 SWAP3 SWAP2 SWAP1 PUSH2 0x3C9D JUMP JUMPDEST PUSH1 0x20 PUSH1 0x40 MLOAD DUP1 DUP4 SUB DUP2 DUP7 GAS DELEGATECALL ISZERO DUP1 ISZERO PUSH2 0xE2C JUMPI RETURNDATASIZE PUSH0 PUSH0 RETURNDATACOPY RETURNDATASIZE PUSH0 REVERT JUMPDEST POP POP POP POP PUSH1 0x40 MLOAD RETURNDATASIZE PUSH1 0x1F NOT PUSH1 0x1F DUP3 ADD AND DUP3 ADD DUP1 PUSH1 0x40 MSTORE POP DUP2 ADD SWAP1 PUSH2 0xE50 SWAP2 SWAP1 PUSH2 0x3BEF JUMP JUMPDEST POP PUSH20 0x0 PUSH4 0xABCD7960 PUSH2 0xE95 PUSH1 0x12 PUSH0 SWAP1 SLOAD SWAP1 PUSH2 0x100 EXP SWAP1 DIV PUSH20 0xFFFFFFFFFFFFFFFFFFFFFFFFFFFFFFFFFFFFFFFF AND PUSH2 0x1C27 JUMP JUMPDEST PUSH2 0x1F4 PUSH1 0x40 MLOAD DUP4 PUSH4 0xFFFFFFFF AND PUSH1 0xE0 SHL DUP2 MSTORE PUSH1 0x4 ADD PUSH2 0xEB5 SWAP3 SWAP2 SWAP1 PUSH2 0x3D10 JUMP JUMPDEST PUSH1 0x20 PUSH1 0x40 MLOAD DUP1 DUP4 SUB DUP2 DUP7 GAS DELEGATECALL ISZERO DUP1 ISZERO PUSH2 0xED0 JUMPI RETURNDATASIZE PUSH0 PUSH0 RETURNDATACOPY RETURNDATASIZE PUSH0 REVERT JUMPDEST POP POP POP POP PUSH1 0x40 MLOAD RETURNDATASIZE PUSH1 0x1F NOT PUSH1 0x1F DUP3 ADD AND DUP3 ADD DUP1 PUSH1 0x40 MSTORE POP DUP2 ADD SWAP1 PUSH2 0xEF4 SWAP2 SWAP1 PUSH2 0x3BEF JUMP JUMPDEST POP JUMP JUMPDEST PUSH1 0x60 PUSH1 0x3 DUP1 SLOAD PUSH2 0xF06 SWAP1 PUSH2 0x3D77 JUMP JUMPDEST DUP1 PUSH1 0x1F ADD PUSH1 0x20 DUP1 SWAP2 DIV MUL PUSH1 0x20 ADD PUSH1 0x40 MLOAD SWAP1 DUP2 ADD PUSH1 0x40 MSTORE DUP1 SWAP3 SWAP2 SWAP1 DUP2 DUP2 MSTORE PUSH1 0x20 ADD DUP3 DUP1 SLOAD PUSH2 0xF32 SWAP1 PUSH2 0x3D77 JUMP JUMPDEST DUP1 ISZERO PUSH2 0xF7D JUMPI DUP1 PUSH1 0x1F LT PUSH2 0xF54 JUMPI PUSH2 0x100 DUP1 DUP4 SLOAD DIV MUL DUP4 MSTORE SWAP2 PUSH1 0x20 ADD SWAP2 PUSH2 0xF7D JUMP JUMPDEST DUP3 ADD SWAP2 SWAP1 PUSH0 MSTORE PUSH1 0x20 PUSH0 KECCAK256 SWAP1 JUMPDEST DUP2 SLOAD DUP2 MSTORE SWAP1 PUSH1 0x1 ADD SWAP1 PUSH1 0x20 ADD DUP1 DUP4 GT PUSH2 0xF60 JUMPI DUP3 SWAP1 SUB PUSH1 0x1F AND DUP3 ADD SWAP2 JUMPDEST POP POP POP POP POP SWAP1 POP SWAP1 JUMP JUMPDEST PUSH20 0x0 PUSH4 0xABCD7960 PUSH2 0xFED PUSH1 0x11 PUSH0 SWAP1 SLOAD SWAP1 PUSH2 0x100 EXP SWAP1 DIV PUSH20 0xFFFFFFFFFFFFFFFFFFFFFFFFFFFFFFFFFFFFFFFF AND PUSH1 0x14 PUSH0 SWAP1 SLOAD SWAP1 PUSH2 0x100 EXP SWAP1 DIV PUSH20 0xFFFFFFFFFFFFFFFFFFFFFFFFFFFFFFFFFFFFFFFF AND PUSH2 0x2766 JUMP JUMPDEST PUSH0 PUSH1 0x40 MLOAD DUP4 PUSH4 0xFFFFFFFF AND PUSH1 0xE0 SHL DUP2 MSTORE PUSH1 0x4 ADD PUSH2 0x100B SWAP3 SWAP2 SWAP1 PUSH2 0x3E17 JUMP JUMPDEST PUSH1 0x20 PUSH1 0x40 MLOAD DUP1 DUP4 SUB DUP2 DUP7 GAS DELEGATECALL ISZERO DUP1 ISZERO PUSH2 0x1026 JUMPI RETURNDATASIZE PUSH0 PUSH0 RETURNDATACOPY RETURNDATASIZE PUSH0 REVERT JUMPDEST POP POP POP POP PUSH1 0x40 MLOAD RETURNDATASIZE PUSH1 0x1F NOT PUSH1 0x1F DUP3 ADD AND DUP3 ADD DUP1 PUSH1 0x40 MSTORE POP DUP2 ADD SWAP1 PUSH2 0x104A SWAP2 SWAP1 PUSH2 0x3BEF JUMP JUMPDEST POP PUSH2 0x1078 PUSH1 0x14 PUSH0 SWAP1 SLOAD SWAP1 PUSH2 0x100 EXP SWAP1 DIV PUSH20 0xFFFFFFFFFFFFFFFFFFFFFFFFFFFFFFFFFFFFFFFF AND PUSH2 0x1F4 PUSH2 0x1141 JUMP JUMPDEST POP PUSH20 0x0 PUSH4 0xABCD7960 PUSH2 0x10DF PUSH1 0x11 PUSH0 SWAP1 SLOAD SWAP1 PUSH2 0x100 EXP SWAP1 DIV PUSH20 0xFFFFFFFFFFFFFFFFFFFFFFFFFFFFFFFFFFFFFFFF AND PUSH1 0x14 PUSH0 SWAP1 SLOAD SWAP1 PUSH2 0x100 EXP SWAP1 DIV PUSH20 0xFFFFFFFFFFFFFFFFFFFFFFFFFFFFFFFFFFFFFFFF AND PUSH2 0x2766 JUMP JUMPDEST PUSH2 0x1F4 PUSH1 0x40 MLOAD DUP4 PUSH4 0xFFFFFFFF AND PUSH1 0xE0 SHL DUP2 MSTORE PUSH1 0x4 ADD PUSH2 0x10FF SWAP3 SWAP2 SWAP1 PUSH2 0x3E9B JUMP JUMPDEST PUSH1 0x20 PUSH1 0x40 MLOAD DUP1 DUP4 SUB DUP2 DUP7 GAS DELEGATECALL ISZERO DUP1 ISZERO PUSH2 0x111A JUMPI RETURNDATASIZE PUSH0 PUSH0 RETURNDATACOPY RETURNDATASIZE PUSH0 REVERT JUMPDEST POP POP POP POP PUSH1 0x40 MLOAD RETURNDATASIZE PUSH1 0x1F NOT PUSH1 0x1F DUP3 ADD AND DUP3 ADD DUP1 PUSH1 0x40 MSTORE POP DUP2 ADD SWAP1 PUSH2 0x113E SWAP2 SWAP1 PUSH2 0x3BEF JUMP JUMPDEST POP JUMP JUMPDEST PUSH0 PUSH0 PUSH2 0x114B PUSH2 0x2ACD JUMP JUMPDEST SWAP1 POP PUSH2 0x1158 DUP2 DUP6 DUP6 PUSH2 0x2AD4 JUMP JUMPDEST PUSH1 0x1 SWAP2 POP POP SWAP3 SWAP2 POP POP JUMP JUMPDEST PUSH32 0xA49807205CE4D355092EF5A8A18F56E8913CF4A201FBE287825B095693C21775 PUSH2 0x118D DUP2 PUSH2 0x2AE6 JUMP JUMPDEST PUSH0 PUSH20 0xFFFFFFFFFFFFFFFFFFFFFFFFFFFFFFFFFFFFFFFF AND DUP4 PUSH20 0xFFFFFFFFFFFFFFFFFFFFFFFFFFFFFFFFFFFFFFFF AND SUB PUSH2 0x11FB JUMPI PUSH1 0x40 MLOAD PUSH32 0x8C379A000000000000000000000000000000000000000000000000000000000 DUP2 MSTORE PUSH1 0x4 ADD PUSH2 0x11F2 SWAP1 PUSH2 0x3F1F JUMP JUMPDEST PUSH1 0x40 MLOAD DUP1 SWAP2 SUB SWAP1 REVERT JUMPDEST PUSH0 DUP4 PUSH20 0xFFFFFFFFFFFFFFFFFFFFFFFFFFFFFFFFFFFFFFFF AND DUP4 PUSH1 0x40 MLOAD PUSH2 0x1220 SWAP1 PUSH2 0x3F6A JUMP JUMPDEST PUSH0 PUSH1 0x40 MLOAD DUP1 DUP4 SUB DUP2 DUP6 DUP8 GAS CALL SWAP3 POP POP POP RETURNDATASIZE DUP1 PUSH0 DUP2 EQ PUSH2 0x125A JUMPI PUSH1 0x40 MLOAD SWAP2 POP PUSH1 0x1F NOT PUSH1 0x3F RETURNDATASIZE ADD AND DUP3 ADD PUSH1 0x40 MSTORE RETURNDATASIZE DUP3 MSTORE RETURNDATASIZE PUSH0 PUSH1 0x20 DUP5 ADD RETURNDATACOPY PUSH2 0x125F JUMP JUMPDEST PUSH1 0x60 SWAP2 POP JUMPDEST POP POP SWAP1 POP DUP1 PUSH2 0x12A3 JUMPI PUSH1 0x40 MLOAD PUSH32 0x8C379A000000000000000000000000000000000000000000000000000000000 DUP2 MSTORE PUSH1 0x4 ADD PUSH2 0x129A SWAP1 PUSH2 0x3FC8 JUMP JUMPDEST PUSH1 0x40 MLOAD DUP1 SWAP2 SUB SWAP1 REVERT JUMPDEST POP POP POP POP JUMP JUMPDEST PUSH2 0x12B5 PUSH0 PUSH2 0x1F4 PUSH2 0x1141 JUMP JUMPDEST POP JUMP JUMPDEST PUSH32 0xA49807205CE4D355092EF5A8A18F56E8913CF4A201FBE287825B095693C21775 PUSH2 0x12E2 DUP2 PUSH2 0x2AE6 JUMP JUMPDEST DUP2 PUSH1 0x9 PUSH0 DUP6 PUSH20 0xFFFFFFFFFFFFFFFFFFFFFFFFFFFFFFFFFFFFFFFF AND PUSH20 0xFFFFFFFFFFFFFFFFFFFFFFFFFFFFFFFFFFFFFFFF AND DUP2 MSTORE PUSH1 0x20 ADD SWAP1 DUP2 MSTORE PUSH1 0x20 ADD PUSH0 KECCAK256 PUSH0 PUSH2 0x100 EXP DUP2 SLOAD DUP2 PUSH1 0xFF MUL NOT AND SWAP1 DUP4 ISZERO ISZERO MUL OR SWAP1 SSTORE POP DUP3 PUSH20 0xFFFFFFFFFFFFFFFFFFFFFFFFFFFFFFFFFFFFFFFF AND PUSH32 0xCF3473B85DF1594D47B6958F29A32BEA0ABFF9DD68296F7BF33443646793CFD8 DUP4 PUSH1 0x40 MLOAD PUSH2 0x137C SWAP2 SWAP1 PUSH2 0x347F JUMP JUMPDEST PUSH1 0x40 MLOAD DUP1 SWAP2 SUB SWAP1 LOG2 POP POP POP JUMP JUMPDEST PUSH1 0x7 PUSH0 SWAP1 SLOAD SWAP1 PUSH2 0x100 EXP SWAP1 DIV PUSH20 0xFFFFFFFFFFFFFFFFFFFFFFFFFFFFFFFFFFFFFFFF AND DUP2 JUMP JUMPDEST PUSH0 PUSH1 0x2 SLOAD SWAP1 POP SWAP1 JUMP JUMPDEST PUSH2 0x13E3 PUSH1 0x14 PUSH0 SWAP1 SLOAD SWAP1 PUSH2 0x100 EXP SWAP1 DIV PUSH20 0xFFFFFFFFFFFFFFFFFFFFFFFFFFFFFFFFFFFFFFFF AND PUSH1 0x6E PUSH2 0x2104 JUMP JUMPDEST POP JUMP JUMPDEST PUSH0 PUSH0 PUSH2 0x13F0 PUSH2 0x2ACD JUMP JUMPDEST SWAP1 POP PUSH2 0x13FD DUP6 DUP3 DUP6 PUSH2 0x2AFA JUMP JUMPDEST PUSH2 0x1408 DUP6 DUP6 DUP6 PUSH2 0x2B8D JUMP JUMPDEST PUSH1 0x1 SWAP2 POP POP SWAP4 SWAP3 POP POP POP JUMP JUMPDEST PUSH0 PUSH1 0x5 PUSH0 DUP4 DUP2 MSTORE PUSH1 0x20 ADD SWAP1 DUP2 MSTORE PUSH1 0x20 ADD PUSH0 KECCAK256 PUSH1 0x1 ADD SLOAD SWAP1 POP SWAP2 SWAP1 POP JUMP JUMPDEST PUSH32 0x3C11D16CBAFFD01DF69CE1C404F6340EE057498F5F00246190EA54220576A848 DUP2 JUMP JUMPDEST PUSH1 0xC SLOAD DUP2 JUMP JUMPDEST PUSH2 0x1464 DUP3 PUSH2 0x1414 JUMP JUMPDEST PUSH2 0x146D DUP2 PUSH2 0x2AE6 JUMP JUMPDEST PUSH2 0x1477 DUP4 DUP4 PUSH2 0x2C7D JUMP JUMPDEST POP POP POP POP JUMP JUMPDEST PUSH12 0x409F9CBC7C4A04C220000000 DUP2 JUMP JUMPDEST PUSH0 PUSH1 0x12 SWAP1 POP SWAP1 JUMP JUMPDEST PUSH20 0x0 PUSH4 0xABCD7960 PUSH2 0x14FB PUSH1 0x11 PUSH0 SWAP1 SLOAD SWAP1 PUSH2 0x100 EXP SWAP1 DIV PUSH20 0xFFFFFFFFFFFFFFFFFFFFFFFFFFFFFFFFFFFFFFFF AND PUSH1 0x14 PUSH0 SWAP1 SLOAD SWAP1 PUSH2 0x100 EXP SWAP1 DIV PUSH20 0xFFFFFFFFFFFFFFFFFFFFFFFFFFFFFFFFFFFFFFFF AND PUSH2 0x2766 JUMP JUMPDEST PUSH2 0x1F4 PUSH1 0x40 MLOAD DUP4 PUSH4 0xFFFFFFFF AND PUSH1 0xE0 SHL DUP2 MSTORE PUSH1 0x4 ADD PUSH2 0x151B SWAP3 SWAP2 SWAP1 PUSH2 0x3E9B JUMP JUMPDEST PUSH1 0x20 PUSH1 0x40 MLOAD DUP1 DUP4 SUB DUP2 DUP7 GAS DELEGATECALL ISZERO DUP1 ISZERO PUSH2 0x1536 JUMPI RETURNDATASIZE PUSH0 PUSH0 RETURNDATACOPY RETURNDATASIZE PUSH0 REVERT JUMPDEST POP POP POP POP PUSH1 0x40 MLOAD RETURNDATASIZE PUSH1 0x1F NOT PUSH1 0x1F DUP3 ADD AND DUP3 ADD DUP1 PUSH1 0x40 MSTORE POP DUP2 ADD SWAP1 PUSH2 0x155A SWAP2 SWAP1 PUSH2 0x3BEF JUMP JUMPDEST POP PUSH2 0x15AA PUSH1 0x11 PUSH0 SWAP1 SLOAD SWAP1 PUSH2 0x100 EXP SWAP1 DIV PUSH20 0xFFFFFFFFFFFFFFFFFFFFFFFFFFFFFFFFFFFFFFFF AND PUSH1 0x15 PUSH0 SWAP1 SLOAD SWAP1 PUSH2 0x100 EXP SWAP1 DIV PUSH20 0xFFFFFFFFFFFFFFFFFFFFFFFFFFFFFFFFFFFFFFFF AND PUSH2 0x190 PUSH2 0x13E6 JUMP JUMPDEST POP PUSH20 0x0 PUSH4 0xABCD7960 PUSH2 0x15EF PUSH1 0x15 PUSH0 SWAP1 SLOAD SWAP1 PUSH2 0x100 EXP SWAP1 DIV PUSH20 0xFFFFFFFFFFFFFFFFFFFFFFFFFFFFFFFFFFFFFFFF AND PUSH2 0x1C27 JUMP JUMPDEST PUSH2 0x190 PUSH1 0x40 MLOAD DUP4 PUSH4 0xFFFFFFFF AND PUSH1 0xE0 SHL DUP2 MSTORE PUSH1 0x4 ADD PUSH2 0x160F SWAP3 SWAP2 SWAP1 PUSH2 0x4069 JUMP JUMPDEST PUSH1 0x20 PUSH1 0x40 MLOAD DUP1 DUP4 SUB DUP2 DUP7 GAS DELEGATECALL ISZERO DUP1 ISZERO PUSH2 0x162A JUMPI RETURNDATASIZE PUSH0 PUSH0 RETURNDATACOPY RETURNDATASIZE PUSH0 REVERT JUMPDEST POP POP POP POP PUSH1 0x40 MLOAD RETURNDATASIZE PUSH1 0x1F NOT PUSH1 0x1F DUP3 ADD AND DUP3 ADD DUP1 PUSH1 0x40 MSTORE POP DUP2 ADD SWAP1 PUSH2 0x164E SWAP2 SWAP1 PUSH2 0x3BEF JUMP JUMPDEST POP PUSH20 0x0 PUSH4 0xABCD7960 PUSH2 0x16B5 PUSH1 0x11 PUSH0 SWAP1 SLOAD SWAP1 PUSH2 0x100 EXP SWAP1 DIV PUSH20 0xFFFFFFFFFFFFFFFFFFFFFFFFFFFFFFFFFFFFFFFF AND PUSH1 0x14 PUSH0 SWAP1 SLOAD SWAP1 PUSH2 0x100 EXP SWAP1 DIV PUSH20 0xFFFFFFFFFFFFFFFFFFFFFFFFFFFFFFFFFFFFFFFF AND PUSH2 0x2766 JUMP JUMPDEST PUSH1 0x64 PUSH1 0x40 MLOAD DUP4 PUSH4 0xFFFFFFFF AND PUSH1 0xE0 SHL DUP2 MSTORE PUSH1 0x4 ADD PUSH2 0x16D4 SWAP3 SWAP2 SWAP1 PUSH2 0x40DC JUMP JUMPDEST PUSH1 0x20 PUSH1 0x40 MLOAD DUP1 DUP4 SUB DUP2 DUP7 GAS DELEGATECALL ISZERO DUP1 ISZERO PUSH2 0x16EF JUMPI RETURNDATASIZE PUSH0 PUSH0 RETURNDATACOPY RETURNDATASIZE PUSH0 REVERT JUMPDEST POP POP POP POP PUSH1 0x40 MLOAD RETURNDATASIZE PUSH1 0x1F NOT PUSH1 0x1F DUP3 ADD AND DUP3 ADD DUP1 PUSH1 0x40 MSTORE POP DUP2 ADD SWAP1 PUSH2 0x1713 SWAP2 SWAP1 PUSH2 0x3BEF JUMP JUMPDEST POP JUMP JUMPDEST PUSH20 0x0 PUSH4 0xABCD7960 PUSH2 0x175A PUSH1 0x11 PUSH0 SWAP1 SLOAD SWAP1 PUSH2 0x100 EXP SWAP1 DIV PUSH20 0xFFFFFFFFFFFFFFFFFFFFFFFFFFFFFFFFFFFFFFFF AND PUSH2 0x1C27 JUMP JUMPDEST PUSH0 PUSH1 0x40 MLOAD DUP4 PUSH4 0xFFFFFFFF AND PUSH1 0xE0 SHL DUP2 MSTORE PUSH1 0x4 ADD PUSH2 0x1778 SWAP3 SWAP2 SWAP1 PUSH2 0x3BA1 JUMP JUMPDEST PUSH1 0x20 PUSH1 0x40 MLOAD DUP1 DUP4 SUB DUP2 DUP7 GAS DELEGATECALL ISZERO DUP1 ISZERO PUSH2 0x1793 JUMPI RETURNDATASIZE PUSH0 PUSH0 RETURNDATACOPY RETURNDATASIZE PUSH0 REVERT JUMPDEST POP POP POP POP PUSH1 0x40 MLOAD RETURNDATASIZE PUSH1 0x1F NOT PUSH1 0x1F DUP3 ADD AND DUP3 ADD DUP1 PUSH1 0x40 MSTORE POP DUP2 ADD SWAP1 PUSH2 0x17B7 SWAP2 SWAP1 PUSH2 0x3BEF JUMP JUMPDEST POP PUSH2 0x17E5 PUSH1 0x11 PUSH0 SWAP1 SLOAD SWAP1 PUSH2 0x100 EXP SWAP1 DIV PUSH20 0xFFFFFFFFFFFFFFFFFFFFFFFFFFFFFFFFFFFFFFFF AND PUSH2 0x2710 PUSH2 0x2D67 JUMP JUMPDEST PUSH20 0x0 PUSH4 0xABCD7960 PUSH2 0x1829 PUSH1 0x11 PUSH0 SWAP1 SLOAD SWAP1 PUSH2 0x100 EXP SWAP1 DIV PUSH20 0xFFFFFFFFFFFFFFFFFFFFFFFFFFFFFFFFFFFFFFFF AND PUSH2 0x1C27 JUMP JUMPDEST PUSH2 0x2710 PUSH1 0x40 MLOAD DUP4 PUSH4 0xFFFFFFFF AND PUSH1 0xE0 SHL DUP2 MSTORE PUSH1 0x4 ADD PUSH2 0x1849 SWAP3 SWAP2 SWAP1 PUSH2 0x414F JUMP JUMPDEST PUSH1 0x20 PUSH1 0x40 MLOAD DUP1 DUP4 SUB DUP2 DUP7 GAS DELEGATECALL ISZERO DUP1 ISZERO PUSH2 0x1864 JUMPI RETURNDATASIZE PUSH0 PUSH0 RETURNDATACOPY RETURNDATASIZE PUSH0 REVERT JUMPDEST POP POP POP POP PUSH1 0x40 MLOAD RETURNDATASIZE PUSH1 0x1F NOT PUSH1 0x1F DUP3 ADD AND DUP3 ADD DUP1 PUSH1 0x40 MSTORE POP DUP2 ADD SWAP1 PUSH2 0x1888 SWAP2 SWAP1 PUSH2 0x3BEF JUMP JUMPDEST POP JUMP JUMPDEST PUSH2 0x1893 PUSH2 0x2ACD JUMP JUMPDEST PUSH20 0xFFFFFFFFFFFFFFFFFFFFFFFFFFFFFFFFFFFFFFFF AND DUP2 PUSH20 0xFFFFFFFFFFFFFFFFFFFFFFFFFFFFFFFFFFFFFFFF AND EQ PUSH2 0x18F7 JUMPI PUSH1 0x40 MLOAD PUSH32 0x6697B23200000000000000000000000000000000000000000000000000000000 DUP2 MSTORE PUSH1 0x4 ADD PUSH1 0x40 MLOAD DUP1 SWAP2 SUB SWAP1 REVERT JUMPDEST PUSH2 0x1901 DUP3 DUP3 PUSH2 0x2DE6 JUMP JUMPDEST POP POP POP JUMP JUMPDEST PUSH2 0x1912 PUSH0 PUSH2 0x2710 PUSH2 0x2D67 JUMP JUMPDEST JUMP JUMPDEST PUSH32 0x9F2DF0FED2C77648DE5860A4CC508CD0818C85B8B8A1AB4CEEEF8D981C8956A6 PUSH2 0x193E DUP2 PUSH2 0x2AE6 JUMP JUMPDEST PUSH2 0x1948 DUP4 DUP4 PUSH2 0x2D67 JUMP JUMPDEST POP POP POP JUMP JUMPDEST PUSH32 0x3C11D16CBAFFD01DF69CE1C404F6340EE057498F5F00246190EA54220576A848 PUSH2 0x1977 DUP2 PUSH2 0x2AE6 JUMP JUMPDEST PUSH2 0x1988 PUSH2 0x1982 PUSH2 0x2ACD JUMP JUMPDEST DUP4 PUSH2 0x2ED0 JUMP JUMPDEST POP POP JUMP JUMPDEST PUSH1 0x10 PUSH1 0x20 MSTORE DUP1 PUSH0 MSTORE PUSH1 0x40 PUSH0 KECCAK256 PUSH0 SWAP2 POP SWAP1 POP SLOAD DUP2 JUMP JUMPDEST PUSH32 0xA49807205CE4D355092EF5A8A18F56E8913CF4A201FBE287825B095693C21775 PUSH2 0x19CB DUP2 PUSH2 0x2AE6 JUMP JUMPDEST DUP3 PUSH1 0xE PUSH0 PUSH2 0x100 EXP DUP2 SLOAD DUP2 PUSH1 0xFF MUL NOT AND SWAP1 DUP4 ISZERO ISZERO MUL OR SWAP1 SSTORE POP DUP2 PUSH1 0xF DUP2 SWAP1 SSTORE POP PUSH32 0x3DD49C7BC5B4083D3ED5845BD08D8D308E600CE46A1BF5FED3466DBA31CE9F0C DUP4 DUP4 PUSH1 0x40 MLOAD PUSH2 0x1A1C SWAP3 SWAP2 SWAP1 PUSH2 0x4189 JUMP JUMPDEST PUSH1 0x40 MLOAD DUP1 SWAP2 SUB SWAP1 LOG1 POP POP POP JUMP JUMPDEST PUSH1 0x8 PUSH0 SWAP1 SLOAD SWAP1 PUSH2 0x100 EXP SWAP1 DIV PUSH20 0xFFFFFFFFFFFFFFFFFFFFFFFFFFFFFFFFFFFFFFFF AND DUP2 JUMP JUMPDEST PUSH1 0x8 PUSH1 0x14 SWAP1 SLOAD SWAP1 PUSH2 0x100 EXP SWAP1 DIV PUSH1 0xFF AND DUP2 JUMP JUMPDEST PUSH2 0x1AAF PUSH1 0x11 PUSH0 SWAP1 SLOAD SWAP1 PUSH2 0x100 EXP SWAP1 DIV PUSH20 0xFFFFFFFFFFFFFFFFFFFFFFFFFFFFFFFFFFFFFFFF AND PUSH1 0x15 PUSH0 SWAP1 SLOAD SWAP1 PUSH2 0x100 EXP SWAP1 DIV PUSH20 0xFFFFFFFFFFFFFFFFFFFFFFFFFFFFFFFFFFFFFFFF AND PUSH1 0x6E PUSH2 0x13E6 JUMP JUMPDEST POP JUMP JUMPDEST PUSH20 0x0 PUSH4 0xABCD7960 PUSH2 0x1AF6 PUSH1 0x11 PUSH0 SWAP1 SLOAD SWAP1 PUSH2 0x100 EXP SWAP1 DIV PUSH20 0xFFFFFFFFFFFFFFFFFFFFFFFFFFFFFFFFFFFFFFFF AND PUSH2 0x1C27 JUMP JUMPDEST PUSH0 PUSH1 0x40 MLOAD DUP4 PUSH4 0xFFFFFFFF AND PUSH1 0xE0 SHL DUP2 MSTORE PUSH1 0x4 ADD PUSH2 0x1B14 SWAP3 SWAP2 SWAP1 PUSH2 0x3BA1 JUMP JUMPDEST PUSH1 0x20 PUSH1 0x40 MLOAD DUP1 DUP4 SUB DUP2 DUP7 GAS DELEGATECALL ISZERO DUP1 ISZERO PUSH2 0x1B2F JUMPI RETURNDATASIZE PUSH0 PUSH0 RETURNDATACOPY RETURNDATASIZE PUSH0 REVERT JUMPDEST POP POP POP POP PUSH1 0x40 MLOAD RETURNDATASIZE PUSH1 0x1F NOT PUSH1 0x1F DUP3 ADD AND DUP3 ADD DUP1 PUSH1 0x40 MSTORE POP DUP2 ADD SWAP1 PUSH2 0x1B53 SWAP2 SWAP1 PUSH2 0x3BEF JUMP JUMPDEST POP PUSH2 0x1B81 PUSH1 0x11 PUSH0 SWAP1 SLOAD SWAP1 PUSH2 0x100 EXP SWAP1 DIV PUSH20 0xFFFFFFFFFFFFFFFFFFFFFFFFFFFFFFFFFFFFFFFF AND PUSH2 0x2710 PUSH2 0x2D67 JUMP JUMPDEST PUSH20 0x0 PUSH4 0xABCD7960 PUSH2 0x1BC5 PUSH1 0x11 PUSH0 SWAP1 SLOAD SWAP1 PUSH2 0x100 EXP SWAP1 DIV PUSH20 0xFFFFFFFFFFFFFFFFFFFFFFFFFFFFFFFFFFFFFFFF AND PUSH2 0x1C27 JUMP JUMPDEST PUSH2 0x2710 PUSH1 0x40 MLOAD DUP4 PUSH4 0xFFFFFFFF AND PUSH1 0xE0 SHL DUP2 MSTORE PUSH1 0x4 ADD PUSH2 0x1BE5 SWAP3 SWAP2 SWAP1 PUSH2 0x414F JUMP JUMPDEST PUSH1 0x20 PUSH1 0x40 MLOAD DUP1 DUP4 SUB DUP2 DUP7 GAS DELEGATECALL ISZERO DUP1 ISZERO PUSH2 0x1C00 JUMPI RETURNDATASIZE PUSH0 PUSH0 RETURNDATACOPY RETURNDATASIZE PUSH0 REVERT JUMPDEST POP POP POP POP PUSH1 0x40 MLOAD RETURNDATASIZE PUSH1 0x1F NOT PUSH1 0x1F DUP3 ADD AND DUP3 ADD DUP1 PUSH1 0x40 MSTORE POP DUP2 ADD SWAP1 PUSH2 0x1C24 SWAP2 SWAP1 PUSH2 0x3BEF JUMP JUMPDEST POP JUMP JUMPDEST PUSH0 PUSH0 PUSH0 DUP4 PUSH20 0xFFFFFFFFFFFFFFFFFFFFFFFFFFFFFFFFFFFFFFFF AND PUSH20 0xFFFFFFFFFFFFFFFFFFFFFFFFFFFFFFFFFFFFFFFF AND DUP2 MSTORE PUSH1 0x20 ADD SWAP1 DUP2 MSTORE PUSH1 0x20 ADD PUSH0 KECCAK256 SLOAD SWAP1 POP SWAP2 SWAP1 POP JUMP JUMPDEST PUSH32 0xA49807205CE4D355092EF5A8A18F56E8913CF4A201FBE287825B095693C21775 DUP2 JUMP JUMPDEST PUSH20 0x0 PUSH4 0xCE88B145 PUSH1 0x1 PUSH1 0x40 MLOAD DUP3 PUSH4 0xFFFFFFFF AND PUSH1 0xE0 SHL DUP2 MSTORE PUSH1 0x4 ADD PUSH2 0x1CC8 SWAP2 SWAP1 PUSH2 0x41E9 JUMP JUMPDEST PUSH1 0x20 PUSH1 0x40 MLOAD DUP1 DUP4 SUB DUP2 DUP7 GAS DELEGATECALL ISZERO DUP1 ISZERO PUSH2 0x1CE3 JUMPI RETURNDATASIZE PUSH0 PUSH0 RETURNDATACOPY RETURNDATASIZE PUSH0 REVERT JUMPDEST POP POP POP POP PUSH1 0x40 MLOAD RETURNDATASIZE PUSH1 0x1F NOT PUSH1 0x1F DUP3 ADD AND DUP3 ADD DUP1 PUSH1 0x40 MSTORE POP DUP2 ADD SWAP1 PUSH2 0x1D07 SWAP2 SWAP1 PUSH2 0x4216 JUMP JUMPDEST PUSH1 0x12 PUSH0 PUSH2 0x100 EXP DUP2 SLOAD DUP2 PUSH20 0xFFFFFFFFFFFFFFFFFFFFFFFFFFFFFFFFFFFFFFFF MUL NOT AND SWAP1 DUP4 PUSH20 0xFFFFFFFFFFFFFFFFFFFFFFFFFFFFFFFFFFFFFFFF AND MUL OR SWAP1 SSTORE POP PUSH20 0x0 PUSH4 0xCE88B145 PUSH1 0x2 PUSH1 0x40 MLOAD DUP3 PUSH4 0xFFFFFFFF AND PUSH1 0xE0 SHL DUP2 MSTORE PUSH1 0x4 ADD PUSH2 0x1D7E SWAP2 SWAP1 PUSH2 0x427A JUMP JUMPDEST PUSH1 0x20 PUSH1 0x40 MLOAD DUP1 DUP4 SUB DUP2 DUP7 GAS DELEGATECALL ISZERO DUP1 ISZERO PUSH2 0x1D99 JUMPI RETURNDATASIZE PUSH0 PUSH0 RETURNDATACOPY RETURNDATASIZE PUSH0 REVERT JUMPDEST POP POP POP POP PUSH1 0x40 MLOAD RETURNDATASIZE PUSH1 0x1F NOT PUSH1 0x1F DUP3 ADD AND DUP3 ADD DUP1 PUSH1 0x40 MSTORE POP DUP2 ADD SWAP1 PUSH2 0x1DBD SWAP2 SWAP1 PUSH2 0x4216 JUMP JUMPDEST PUSH1 0x13 PUSH0 PUSH2 0x100 EXP DUP2 SLOAD DUP2 PUSH20 0xFFFFFFFFFFFFFFFFFFFFFFFFFFFFFFFFFFFFFFFF MUL NOT AND SWAP1 DUP4 PUSH20 0xFFFFFFFFFFFFFFFFFFFFFFFFFFFFFFFFFFFFFFFF AND MUL OR SWAP1 SSTORE POP PUSH20 0x0 PUSH4 0xCE88B145 PUSH1 0x3 PUSH1 0x40 MLOAD DUP3 PUSH4 0xFFFFFFFF AND PUSH1 0xE0 SHL DUP2 MSTORE PUSH1 0x4 ADD PUSH2 0x1E34 SWAP2 SWAP1 PUSH2 0x42CC JUMP JUMPDEST PUSH1 0x20 PUSH1 0x40 MLOAD DUP1 DUP4 SUB DUP2 DUP7 GAS DELEGATECALL ISZERO DUP1 ISZERO PUSH2 0x1E4F JUMPI RETURNDATASIZE PUSH0 PUSH0 RETURNDATACOPY RETURNDATASIZE PUSH0 REVERT JUMPDEST POP POP POP POP PUSH1 0x40 MLOAD RETURNDATASIZE PUSH1 0x1F NOT PUSH1 0x1F DUP3 ADD AND DUP3 ADD DUP1 PUSH1 0x40 MSTORE POP DUP2 ADD SWAP1 PUSH2 0x1E73 SWAP2 SWAP1 PUSH2 0x4216 JUMP JUMPDEST PUSH1 0x14 PUSH0 PUSH2 0x100 EXP DUP2 SLOAD DUP2 PUSH20 0xFFFFFFFFFFFFFFFFFFFFFFFFFFFFFFFFFFFFFFFF MUL NOT AND SWAP1 DUP4 PUSH20 0xFFFFFFFFFFFFFFFFFFFFFFFFFFFFFFFFFFFFFFFF AND MUL OR SWAP1 SSTORE POP PUSH20 0x0 PUSH4 0xCE88B145 PUSH1 0x4 PUSH1 0x40 MLOAD DUP3 PUSH4 0xFFFFFFFF AND PUSH1 0xE0 SHL DUP2 MSTORE PUSH1 0x4 ADD PUSH2 0x1EEA SWAP2 SWAP1 PUSH2 0x431E JUMP JUMPDEST PUSH1 0x20 PUSH1 0x40 MLOAD DUP1 DUP4 SUB DUP2 DUP7 GAS DELEGATECALL ISZERO DUP1 ISZERO PUSH2 0x1F05 JUMPI RETURNDATASIZE PUSH0 PUSH0 RETURNDATACOPY RETURNDATASIZE PUSH0 REVERT JUMPDEST POP POP POP POP PUSH1 0x40 MLOAD RETURNDATASIZE PUSH1 0x1F NOT PUSH1 0x1F DUP3 ADD AND DUP3 ADD DUP1 PUSH1 0x40 MSTORE POP DUP2 ADD SWAP1 PUSH2 0x1F29 SWAP2 SWAP1 PUSH2 0x4216 JUMP JUMPDEST PUSH1 0x15 PUSH0 PUSH2 0x100 EXP DUP2 SLOAD DUP2 PUSH20 0xFFFFFFFFFFFFFFFFFFFFFFFFFFFFFFFFFFFFFFFF MUL NOT AND SWAP1 DUP4 PUSH20 0xFFFFFFFFFFFFFFFFFFFFFFFFFFFFFFFFFFFFFFFF AND MUL OR SWAP1 SSTORE POP JUMP JUMPDEST PUSH32 0xA49807205CE4D355092EF5A8A18F56E8913CF4A201FBE287825B095693C21775 PUSH2 0x1F94 DUP2 PUSH2 0x2AE6 JUMP JUMPDEST DUP3 PUSH1 0xB PUSH0 PUSH2 0x100 EXP DUP2 SLOAD DUP2 PUSH1 0xFF MUL NOT AND SWAP1 DUP4 ISZERO ISZERO MUL OR SWAP1 SSTORE POP DUP2 PUSH1 0xC DUP2 SWAP1 SSTORE POP PUSH32 0xB31B570D042C886827A2637126EDD8FF4F4FE90BEB7CB87FFE8C4D2D542C190D DUP4 DUP4 PUSH1 0x40 MLOAD PUSH2 0x1FE5 SWAP3 SWAP2 SWAP1 PUSH2 0x4189 JUMP JUMPDEST PUSH1 0x40 MLOAD DUP1 SWAP2 SUB SWAP1 LOG1 POP POP POP JUMP JUMPDEST PUSH1 0xA SLOAD DUP2 JUMP JUMPDEST PUSH0 PUSH1 0x5 PUSH0 DUP5 DUP2 MSTORE PUSH1 0x20 ADD SWAP1 DUP2 MSTORE PUSH1 0x20 ADD PUSH0 KECCAK256 PUSH0 ADD PUSH0 DUP4 PUSH20 0xFFFFFFFFFFFFFFFFFFFFFFFFFFFFFFFFFFFFFFFF AND PUSH20 0xFFFFFFFFFFFFFFFFFFFFFFFFFFFFFFFFFFFFFFFF AND DUP2 MSTORE PUSH1 0x20 ADD SWAP1 DUP2 MSTORE PUSH1 0x20 ADD PUSH0 KECCAK256 PUSH0 SWAP1 SLOAD SWAP1 PUSH2 0x100 EXP SWAP1 DIV PUSH1 0xFF AND SWAP1 POP SWAP3 SWAP2 POP POP JUMP JUMPDEST PUSH1 0x60 PUSH1 0x4 DUP1 SLOAD PUSH2 0x206B SWAP1 PUSH2 0x3D77 JUMP JUMPDEST DUP1 PUSH1 0x1F ADD PUSH1 0x20 DUP1 SWAP2 DIV MUL PUSH1 0x20 ADD PUSH1 0x40 MLOAD SWAP1 DUP2 ADD PUSH1 0x40 MSTORE DUP1 SWAP3 SWAP2 SWAP1 DUP2 DUP2 MSTORE PUSH1 0x20 ADD DUP3 DUP1 SLOAD PUSH2 0x2097 SWAP1 PUSH2 0x3D77 JUMP JUMPDEST DUP1 ISZERO PUSH2 0x20E2 JUMPI DUP1 PUSH1 0x1F LT PUSH2 0x20B9 JUMPI PUSH2 0x100 DUP1 DUP4 SLOAD DIV MUL DUP4 MSTORE SWAP2 PUSH1 0x20 ADD SWAP2 PUSH2 0x20E2 JUMP JUMPDEST DUP3 ADD SWAP2 SWAP1 PUSH0 MSTORE PUSH1 0x20 PUSH0 KECCAK256 SWAP1 JUMPDEST DUP2 SLOAD DUP2 MSTORE SWAP1 PUSH1 0x1 ADD SWAP1 PUSH1 0x20 ADD DUP1 DUP4 GT PUSH2 0x20C5 JUMPI DUP3 SWAP1 SUB PUSH1 0x1F AND DUP3 ADD SWAP2 JUMPDEST POP POP POP POP POP SWAP1 POP SWAP1 JUMP JUMPDEST PUSH1 0xB PUSH0 SWAP1 SLOAD SWAP1 PUSH2 0x100 EXP SWAP1 DIV PUSH1 0xFF AND DUP2 JUMP JUMPDEST PUSH0 PUSH0 SHL DUP2 JUMP JUMPDEST PUSH0 PUSH0 PUSH2 0x210E PUSH2 0x2ACD JUMP JUMPDEST SWAP1 POP PUSH2 0x211B DUP2 DUP6 DUP6 PUSH2 0x2B8D JUMP JUMPDEST PUSH1 0x1 SWAP2 POP POP SWAP3 SWAP2 POP POP JUMP JUMPDEST PUSH1 0xE PUSH0 SWAP1 SLOAD SWAP1 PUSH2 0x100 EXP SWAP1 DIV PUSH1 0xFF AND DUP2 JUMP JUMPDEST PUSH1 0xF SLOAD DUP2 JUMP JUMPDEST PUSH32 0xA49807205CE4D355092EF5A8A18F56E8913CF4A201FBE287825B095693C21775 PUSH2 0x2168 DUP2 PUSH2 0x2AE6 JUMP JUMPDEST PUSH0 PUSH20 0xFFFFFFFFFFFFFFFFFFFFFFFFFFFFFFFFFFFFFFFF AND DUP3 PUSH20 0xFFFFFFFFFFFFFFFFFFFFFFFFFFFFFFFFFFFFFFFF AND SUB PUSH2 0x21D6 JUMPI PUSH1 0x40 MLOAD PUSH32 0x8C379A000000000000000000000000000000000000000000000000000000000 DUP2 MSTORE PUSH1 0x4 ADD PUSH2 0x21CD SWAP1 PUSH2 0x3F1F JUMP JUMPDEST PUSH1 0x40 MLOAD DUP1 SWAP2 SUB SWAP1 REVERT JUMPDEST DUP4 PUSH20 0xFFFFFFFFFFFFFFFFFFFFFFFFFFFFFFFFFFFFFFFF AND PUSH4 0xA9059CBB DUP4 DUP6 PUSH1 0x40 MLOAD DUP4 PUSH4 0xFFFFFFFF AND PUSH1 0xE0 SHL DUP2 MSTORE PUSH1 0x4 ADD PUSH2 0x2211 SWAP3 SWAP2 SWAP1 PUSH2 0x4337 JUMP JUMPDEST PUSH1 0x20 PUSH1 0x40 MLOAD DUP1 DUP4 SUB DUP2 PUSH0 DUP8 GAS CALL ISZERO DUP1 ISZERO PUSH2 0x222D JUMPI RETURNDATASIZE PUSH0 PUSH0 RETURNDATACOPY RETURNDATASIZE PUSH0 REVERT JUMPDEST POP POP POP POP PUSH1 0x40 MLOAD RETURNDATASIZE PUSH1 0x1F NOT PUSH1 0x1F DUP3 ADD AND DUP3 ADD DUP1 PUSH1 0x40 MSTORE POP DUP2 ADD SWAP1 PUSH2 0x2251 SWAP2 SWAP1 PUSH2 0x3BEF JUMP JUMPDEST POP POP POP POP POP JUMP JUMPDEST PUSH20 0x0 PUSH4 0xABCD7960 PUSH2 0x229C PUSH1 0x12 PUSH0 SWAP1 SLOAD SWAP1 PUSH2 0x100 EXP SWAP1 DIV PUSH20 0xFFFFFFFFFFFFFFFFFFFFFFFFFFFFFFFFFFFFFFFF AND PUSH2 0x1C27 JUMP JUMPDEST PUSH2 0x1F4 PUSH1 0x40 MLOAD DUP4 PUSH4 0xFFFFFFFF AND PUSH1 0xE0 SHL DUP2 MSTORE PUSH1 0x4 ADD PUSH2 0x22BC SWAP3 SWAP2 SWAP1 PUSH2 0x43A8 JUMP JUMPDEST PUSH1 0x20 PUSH1 0x40 MLOAD DUP1 DUP4 SUB DUP2 DUP7 GAS DELEGATECALL ISZERO DUP1 ISZERO PUSH2 0x22D7 JUMPI RETURNDATASIZE PUSH0 PUSH0 RETURNDATACOPY RETURNDATASIZE PUSH0 REVERT JUMPDEST POP POP POP POP PUSH1 0x40 MLOAD RETURNDATASIZE PUSH1 0x1F NOT PUSH1 0x1F DUP3 ADD AND DUP3 ADD DUP1 PUSH1 0x40 MSTORE POP DUP2 ADD SWAP1 PUSH2 0x22FB SWAP2 SWAP1 PUSH2 0x3BEF JUMP JUMPDEST POP PUSH2 0x2328 PUSH1 0x13 PUSH0 SWAP1 SLOAD SWAP1 PUSH2 0x100 EXP SWAP1 DIV PUSH20 0xFFFFFFFFFFFFFFFFFFFFFFFFFFFFFFFFFFFFFFFF AND PUSH1 0x64 PUSH2 0x2104 JUMP JUMPDEST POP PUSH20 0x0 PUSH4 0xABCD7960 PUSH2 0x236D PUSH1 0x12 PUSH0 SWAP1 SLOAD SWAP1 PUSH2 0x100 EXP SWAP1 DIV PUSH20 0xFFFFFFFFFFFFFFFFFFFFFFFFFFFFFFFFFFFFFFFF AND PUSH2 0x1C27 JUMP JUMPDEST PUSH2 0x190 PUSH1 0x40 MLOAD DUP4 PUSH4 0xFFFFFFFF AND PUSH1 0xE0 SHL DUP2 MSTORE PUSH1 0x4 ADD PUSH2 0x238D SWAP3 SWAP2 SWAP1 PUSH2 0x43E2 JUMP JUMPDEST PUSH1 0x20 PUSH1 0x40 MLOAD DUP1 DUP4 SUB DUP2 DUP7 GAS DELEGATECALL ISZERO DUP1 ISZERO PUSH2 0x23A8 JUMPI RETURNDATASIZE PUSH0 PUSH0 RETURNDATACOPY RETURNDATASIZE PUSH0 REVERT JUMPDEST POP POP POP POP PUSH1 0x40 MLOAD RETURNDATASIZE PUSH1 0x1F NOT PUSH1 0x1F DUP3 ADD AND DUP3 ADD DUP1 PUSH1 0x40 MSTORE POP DUP2 ADD SWAP1 PUSH2 0x23CC SWAP2 SWAP1 PUSH2 0x3BEF JUMP JUMPDEST POP PUSH20 0x0 PUSH4 0xABCD7960 PUSH2 0x2411 PUSH1 0x13 PUSH0 SWAP1 SLOAD SWAP1 PUSH2 0x100 EXP SWAP1 DIV PUSH20 0xFFFFFFFFFFFFFFFFFFFFFFFFFFFFFFFFFFFFFFFF AND PUSH2 0x1C27 JUMP JUMPDEST PUSH1 0x64 PUSH1 0x40 MLOAD DUP4 PUSH4 0xFFFFFFFF AND PUSH1 0xE0 SHL DUP2 MSTORE PUSH1 0x4 ADD PUSH2 0x2430 SWAP3 SWAP2 SWAP1 PUSH2 0x4466 JUMP JUMPDEST PUSH1 0x20 PUSH1 0x40 MLOAD DUP1 DUP4 SUB DUP2 DUP7 GAS DELEGATECALL ISZERO DUP1 ISZERO PUSH2 0x244B JUMPI RETURNDATASIZE PUSH0 PUSH0 RETURNDATACOPY RETURNDATASIZE PUSH0 REVERT JUMPDEST POP POP POP POP PUSH1 0x40 MLOAD RETURNDATASIZE PUSH1 0x1F NOT PUSH1 0x1F DUP3 ADD AND DUP3 ADD DUP1 PUSH1 0x40 MSTORE POP DUP2 ADD SWAP1 PUSH2 0x246F SWAP2 SWAP1 PUSH2 0x3BEF JUMP JUMPDEST POP JUMP JUMPDEST PUSH32 0xA49807205CE4D355092EF5A8A18F56E8913CF4A201FBE287825B095693C21775 PUSH2 0x249C DUP2 PUSH2 0x2AE6 JUMP JUMPDEST DUP2 PUSH1 0x8 PUSH1 0x14 PUSH2 0x100 EXP DUP2 SLOAD DUP2 PUSH1 0xFF MUL NOT AND SWAP1 DUP4 ISZERO ISZERO MUL OR SWAP1 SSTORE POP DUP2 DUP1 ISZERO PUSH2 0x24CE JUMPI POP PUSH1 0xB PUSH0 SWAP1 SLOAD SWAP1 PUSH2 0x100 EXP SWAP1 DIV PUSH1 0xFF AND JUMPDEST ISZERO PUSH2 0x24DB JUMPI NUMBER PUSH1 0xD DUP2 SWAP1 SSTORE POP JUMPDEST PUSH32 0xBEDA7DCA7BC1B3E80B871F4818129EC73B771581F803D553AEB3484098E5F65A DUP3 PUSH1 0x40 MLOAD PUSH2 0x250A SWAP2 SWAP1 PUSH2 0x347F JUMP JUMPDEST PUSH1 0x40 MLOAD DUP1 SWAP2 SUB SWAP1 LOG1 POP POP JUMP JUMPDEST PUSH1 0xD SLOAD DUP2 JUMP JUMPDEST PUSH32 0x9F2DF0FED2C77648DE5860A4CC508CD0818C85B8B8A1AB4CEEEF8D981C8956A6 DUP2 JUMP JUMPDEST PUSH2 0x2549 DUP3 PUSH2 0x1414 JUMP JUMPDEST PUSH2 0x2552 DUP2 PUSH2 0x2AE6 JUMP JUMPDEST PUSH2 0x255C DUP4 DUP4 PUSH2 0x2DE6 JUMP JUMPDEST POP POP POP POP JUMP JUMPDEST PUSH20 0x0 PUSH4 0xE8C2CB16 PUSH2 0x2584 PUSH2 0xEF7 JUMP JUMPDEST PUSH1 0x40 MLOAD DUP3 PUSH4 0xFFFFFFFF AND PUSH1 0xE0 SHL DUP2 MSTORE PUSH1 0x4 ADD PUSH2 0x25A0 SWAP2 SWAP1 PUSH2 0x456C JUMP JUMPDEST PUSH1 0x20 PUSH1 0x40 MLOAD DUP1 DUP4 SUB DUP2 DUP7 GAS DELEGATECALL ISZERO DUP1 ISZERO PUSH2 0x25BB JUMPI RETURNDATASIZE PUSH0 PUSH0 RETURNDATACOPY RETURNDATASIZE PUSH0 REVERT JUMPDEST POP POP POP POP PUSH1 0x40 MLOAD RETURNDATASIZE PUSH1 0x1F NOT PUSH1 0x1F DUP3 ADD AND DUP3 ADD DUP1 PUSH1 0x40 MSTORE POP DUP2 ADD SWAP1 PUSH2 0x25DF SWAP2 SWAP1 PUSH2 0x3BEF JUMP JUMPDEST POP PUSH20 0x0 PUSH4 0xE8C2CB16 PUSH2 0x2602 PUSH2 0x205C JUMP JUMPDEST PUSH1 0x40 MLOAD DUP3 PUSH4 0xFFFFFFFF AND PUSH1 0xE0 SHL DUP2 MSTORE PUSH1 0x4 ADD PUSH2 0x261E SWAP2 SWAP1 PUSH2 0x4646 JUMP JUMPDEST PUSH1 0x20 PUSH1 0x40 MLOAD DUP1 DUP4 SUB DUP2 DUP7 GAS DELEGATECALL ISZERO DUP1 ISZERO PUSH2 0x2639 JUMPI RETURNDATASIZE PUSH0 PUSH0 RETURNDATACOPY RETURNDATASIZE PUSH0 REVERT JUMPDEST POP POP POP POP PUSH1 0x40 MLOAD RETURNDATASIZE PUSH1 0x1F NOT PUSH1 0x1F DUP3 ADD AND DUP3 ADD DUP1 PUSH1 0x40 MSTORE POP DUP2 ADD SWAP1 PUSH2 0x265D SWAP2 SWAP1 PUSH2 0x3BEF JUMP JUMPDEST POP PUSH20 0x0 PUSH4 0xABCD7960 PUSH2 0x2680 PUSH2 0x148D JUMP JUMPDEST PUSH1 0x12 PUSH1 0x40 MLOAD DUP4 PUSH4 0xFFFFFFFF AND PUSH1 0xE0 SHL DUP2 MSTORE PUSH1 0x4 ADD PUSH2 0x269F SWAP3 SWAP2 SWAP1 PUSH2 0x473F JUMP JUMPDEST PUSH1 0x20 PUSH1 0x40 MLOAD DUP1 DUP4 SUB DUP2 DUP7 GAS DELEGATECALL ISZERO DUP1 ISZERO PUSH2 0x26BA JUMPI RETURNDATASIZE PUSH0 PUSH0 RETURNDATACOPY RETURNDATASIZE PUSH0 REVERT JUMPDEST POP POP POP POP PUSH1 0x40 MLOAD RETURNDATASIZE PUSH1 0x1F NOT PUSH1 0x1F DUP3 ADD AND DUP3 ADD DUP1 PUSH1 0x40 MSTORE POP DUP2 ADD SWAP1 PUSH2 0x26DE SWAP2 SWAP1 PUSH2 0x3BEF JUMP JUMPDEST POP PUSH20 0x0 PUSH4 0xABCD7960 PUSH2 0x2701 PUSH2 0x13AE JUMP JUMPDEST PUSH5 0x4A817C800 PUSH1 0x40 MLOAD DUP4 PUSH4 0xFFFFFFFF AND PUSH1 0xE0 SHL DUP2 MSTORE PUSH1 0x4 ADD PUSH2 0x2724 SWAP3 SWAP2 SWAP1 PUSH2 0x47FC JUMP JUMPDEST PUSH1 0x20 PUSH1 0x40 MLOAD DUP1 DUP4 SUB DUP2 DUP7 GAS DELEGATECALL ISZERO DUP1 ISZERO PUSH2 0x273F JUMPI RETURNDATASIZE PUSH0 PUSH0 RETURNDATACOPY RETURNDATASIZE PUSH0 REVERT JUMPDEST POP POP POP POP PUSH1 0x40 MLOAD RETURNDATASIZE PUSH1 0x1F NOT PUSH1 0x1F DUP3 ADD AND DUP3 ADD DUP1 PUSH1 0x40 MSTORE POP DUP2 ADD SWAP1 PUSH2 0x2763 SWAP2 SWAP1 PUSH2 0x3BEF JUMP JUMPDEST POP JUMP JUMPDEST PUSH0 PUSH1 0x1 PUSH0 DUP5 PUSH20 0xFFFFFFFFFFFFFFFFFFFFFFFFFFFFFFFFFFFFFFFF AND PUSH20 0xFFFFFFFFFFFFFFFFFFFFFFFFFFFFFFFFFFFFFFFF AND DUP2 MSTORE PUSH1 0x20 ADD SWAP1 DUP2 MSTORE PUSH1 0x20 ADD PUSH0 KECCAK256 PUSH0 DUP4 PUSH20 0xFFFFFFFFFFFFFFFFFFFFFFFFFFFFFFFFFFFFFFFF AND PUSH20 0xFFFFFFFFFFFFFFFFFFFFFFFFFFFFFFFFFFFFFFFF AND DUP2 MSTORE PUSH1 0x20 ADD SWAP1 DUP2 MSTORE PUSH1 0x20 ADD PUSH0 KECCAK256 SLOAD SWAP1 POP SWAP3 SWAP2 POP POP JUMP JUMPDEST PUSH20 0x0 PUSH4 0xABCD7960 PUSH2 0x280A PUSH2 0x13AE JUMP JUMPDEST PUSH2 0x2710 PUSH1 0x40 MLOAD DUP4 PUSH4 0xFFFFFFFF AND PUSH1 0xE0 SHL DUP2 MSTORE PUSH1 0x4 ADD PUSH2 0x282A SWAP3 SWAP2 SWAP1 PUSH2 0x4880 JUMP JUMPDEST PUSH1 0x20 PUSH1 0x40 MLOAD DUP1 DUP4 SUB DUP2 DUP7 GAS DELEGATECALL ISZERO DUP1 ISZERO PUSH2 0x2845 JUMPI RETURNDATASIZE PUSH0 PUSH0 RETURNDATACOPY RETURNDATASIZE PUSH0 REVERT JUMPDEST POP POP POP POP PUSH1 0x40 MLOAD RETURNDATASIZE PUSH1 0x1F NOT PUSH1 0x1F DUP3 ADD AND DUP3 ADD DUP1 PUSH1 0x40 MSTORE POP DUP2 ADD SWAP1 PUSH2 0x2869 SWAP2 SWAP1 PUSH2 0x3BEF JUMP JUMPDEST POP JUMP JUMPDEST PUSH32 0xA49807205CE4D355092EF5A8A18F56E8913CF4A201FBE287825B095693C21775 PUSH2 0x2896 DUP2 PUSH2 0x2AE6 JUMP JUMPDEST DUP2 PUSH1 0xA DUP2 SWAP1 SSTORE POP PUSH32 0x947F344D56E1E8C70DC492FB94C4DDDDD490C016AAB685F5E7E47B2E85CB44CF DUP3 PUSH1 0x40 MLOAD PUSH2 0x28CC SWAP2 SWAP1 PUSH2 0x3757 JUMP JUMPDEST PUSH1 0x40 MLOAD DUP1 SWAP2 SUB SWAP1 LOG1 POP POP JUMP JUMPDEST PUSH2 0x2905 PUSH1 0x11 PUSH0 SWAP1 SLOAD SWAP1 PUSH2 0x100 EXP SWAP1 DIV PUSH20 0xFFFFFFFFFFFFFFFFFFFFFFFFFFFFFFFFFFFFFFFF AND PUSH0 PUSH1 0x64 PUSH2 0x13E6 JUMP JUMPDEST POP JUMP JUMPDEST PUSH20 0x633EA8FE424CD65AD4D4826E6581273AFD06B8EF DUP2 JUMP JUMPDEST PUSH0 PUSH0 PUSH0 PUSH2 0x292B PUSH2 0x2F4F JUMP JUMPDEST PUSH32 0xA49807205CE4D355092EF5A8A18F56E8913CF4A201FBE287825B095693C21775 PUSH2 0x2955 DUP2 PUSH2 0x2AE6 JUMP JUMPDEST PUSH2 0x2981 ADDRESS PUSH1 0x7 PUSH0 SWAP1 SLOAD SWAP1 PUSH2 0x100 EXP SWAP1 DIV PUSH20 0xFFFFFFFFFFFFFFFFFFFFFFFFFFFFFFFFFFFFFFFF AND DUP11 PUSH2 0x2AD4 JUMP JUMPDEST PUSH1 0x7 PUSH0 SWAP1 SLOAD SWAP1 PUSH2 0x100 EXP SWAP1 DIV PUSH20 0xFFFFFFFFFFFFFFFFFFFFFFFFFFFFFFFFFFFFFFFF AND PUSH20 0xFFFFFFFFFFFFFFFFFFFFFFFFFFFFFFFFFFFFFFFF AND PUSH4 0xF305D719 CALLVALUE ADDRESS DUP12 DUP12 DUP12 DUP16 DUP13 PUSH1 0x40 MLOAD DUP9 PUSH4 0xFFFFFFFF AND PUSH1 0xE0 SHL DUP2 MSTORE PUSH1 0x4 ADD PUSH2 0x29E6 SWAP7 SWAP6 SWAP5 SWAP4 SWAP3 SWAP2 SWAP1 PUSH2 0x48BA JUMP JUMPDEST PUSH1 0x60 PUSH1 0x40 MLOAD DUP1 DUP4 SUB DUP2 DUP6 DUP9 GAS CALL ISZERO DUP1 ISZERO PUSH2 0x2A02 JUMPI RETURNDATASIZE PUSH0 PUSH0 RETURNDATACOPY RETURNDATASIZE PUSH0 REVERT JUMPDEST POP POP POP POP POP PUSH1 0x40 MLOAD RETURNDATASIZE PUSH1 0x1F NOT PUSH1 0x1F DUP3 ADD AND DUP3 ADD DUP1 PUSH1 0x40 MSTORE POP DUP2 ADD SWAP1 PUSH2 0x2A27 SWAP2 SWAP1 PUSH2 0x492D JUMP JUMPDEST DUP1 SWAP5 POP DUP2 SWAP6 POP DUP3 SWAP7 POP POP POP POP POP PUSH2 0x2A3C PUSH2 0x2F9E JUMP JUMPDEST SWAP6 POP SWAP6 POP SWAP6 SWAP3 POP POP POP JUMP JUMPDEST PUSH1 0x9 PUSH1 0x20 MSTORE DUP1 PUSH0 MSTORE PUSH1 0x40 PUSH0 KECCAK256 PUSH0 SWAP2 POP SLOAD SWAP1 PUSH2 0x100 EXP SWAP1 DIV PUSH1 0xFF AND DUP2 JUMP JUMPDEST PUSH0 PUSH32 0x1FFC9A700000000000000000000000000000000000000000000000000000000 PUSH28 0xFFFFFFFFFFFFFFFFFFFFFFFFFFFFFFFFFFFFFFFFFFFFFFFFFFFFFFFF NOT AND DUP3 PUSH28 0xFFFFFFFFFFFFFFFFFFFFFFFFFFFFFFFFFFFFFFFFFFFFFFFFFFFFFFFF NOT AND EQ SWAP1 POP SWAP2 SWAP1 POP JUMP JUMPDEST PUSH0 CALLER SWAP1 POP SWAP1 JUMP JUMPDEST PUSH2 0x2AE1 DUP4 DUP4 DUP4 PUSH1 0x1 PUSH2 0x2FA8 JUMP JUMPDEST POP POP POP JUMP JUMPDEST PUSH2 0x2AF7 DUP2 PUSH2 0x2AF2 PUSH2 0x2ACD JUMP JUMPDEST PUSH2 0x3177 JUMP JUMPDEST POP JUMP JUMPDEST PUSH0 PUSH2 0x2B05 DUP5 DUP5 PUSH2 0x2766 JUMP JUMPDEST SWAP1 POP PUSH32 0xFFFFFFFFFFFFFFFFFFFFFFFFFFFFFFFFFFFFFFFFFFFFFFFFFFFFFFFFFFFFFFFF DUP2 LT ISZERO PUSH2 0x2B87 JUMPI DUP2 DUP2 LT ISZERO PUSH2 0x2B78 JUMPI DUP3 DUP2 DUP4 PUSH1 0x40 MLOAD PUSH32 0xFB8F41B200000000000000000000000000000000000000000000000000000000 DUP2 MSTORE PUSH1 0x4 ADD PUSH2 0x2B6F SWAP4 SWAP3 SWAP2 SWAP1 PUSH2 0x497D JUMP JUMPDEST PUSH1 0x40 MLOAD DUP1 SWAP2 SUB SWAP1 REVERT JUMPDEST PUSH2 0x2B86 DUP5 DUP5 DUP5 DUP5 SUB PUSH0 PUSH2 0x2FA8 JUMP JUMPDEST JUMPDEST POP POP POP POP JUMP JUMPDEST PUSH0 PUSH20 0xFFFFFFFFFFFFFFFFFFFFFFFFFFFFFFFFFFFFFFFF AND DUP4 PUSH20 0xFFFFFFFFFFFFFFFFFFFFFFFFFFFFFFFFFFFFFFFF AND SUB PUSH2 0x2BFD JUMPI PUSH0 PUSH1 0x40 MLOAD PUSH32 0x96C6FD1E00000000000000000000000000000000000000000000000000000000 DUP2 MSTORE PUSH1 0x4 ADD PUSH2 0x2BF4 SWAP2 SWAP1 PUSH2 0x395B JUMP JUMPDEST PUSH1 0x40 MLOAD DUP1 SWAP2 SUB SWAP1 REVERT JUMPDEST PUSH0 PUSH20 0xFFFFFFFFFFFFFFFFFFFFFFFFFFFFFFFFFFFFFFFF AND DUP3 PUSH20 0xFFFFFFFFFFFFFFFFFFFFFFFFFFFFFFFFFFFFFFFF AND SUB PUSH2 0x2C6D JUMPI PUSH0 PUSH1 0x40 MLOAD PUSH32 0xEC442F0500000000000000000000000000000000000000000000000000000000 DUP2 MSTORE PUSH1 0x4 ADD PUSH2 0x2C64 SWAP2 SWAP1 PUSH2 0x395B JUMP JUMPDEST PUSH1 0x40 MLOAD DUP1 SWAP2 SUB SWAP1 REVERT JUMPDEST PUSH2 0x2C78 DUP4 DUP4 DUP4 PUSH2 0x31C8 JUMP JUMPDEST POP POP POP JUMP JUMPDEST PUSH0 PUSH2 0x2C88 DUP4 DUP4 PUSH2 0x1FF8 JUMP JUMPDEST PUSH2 0x2D5D JUMPI PUSH1 0x1 PUSH1 0x5 PUSH0 DUP6 DUP2 MSTORE PUSH1 0x20 ADD SWAP1 DUP2 MSTORE PUSH1 0x20 ADD PUSH0 KECCAK256 PUSH0 ADD PUSH0 DUP5 PUSH20 0xFFFFFFFFFFFFFFFFFFFFFFFFFFFFFFFFFFFFFFFF AND PUSH20 0xFFFFFFFFFFFFFFFFFFFFFFFFFFFFFFFFFFFFFFFF AND DUP2 MSTORE PUSH1 0x20 ADD SWAP1 DUP2 MSTORE PUSH1 0x20 ADD PUSH0 KECCAK256 PUSH0 PUSH2 0x100 EXP DUP2 SLOAD DUP2 PUSH1 0xFF MUL NOT AND SWAP1 DUP4 ISZERO ISZERO MUL OR SWAP1 SSTORE POP PUSH2 0x2CFA PUSH2 0x2ACD JUMP JUMPDEST PUSH20 0xFFFFFFFFFFFFFFFFFFFFFFFFFFFFFFFFFFFFFFFF AND DUP3 PUSH20 0xFFFFFFFFFFFFFFFFFFFFFFFFFFFFFFFFFFFFFFFF AND DUP5 PUSH32 0x2F8788117E7EFF1D82E926EC794901D17C78024A50270940304540A733656F0D PUSH1 0x40 MLOAD PUSH1 0x40 MLOAD DUP1 SWAP2 SUB SWAP1 LOG4 PUSH1 0x1 SWAP1 POP PUSH2 0x2D61 JUMP JUMPDEST PUSH0 SWAP1 POP JUMPDEST SWAP3 SWAP2 POP POP JUMP JUMPDEST PUSH0 PUSH20 0xFFFFFFFFFFFFFFFFFFFFFFFFFFFFFFFFFFFFFFFF AND DUP3 PUSH20 0xFFFFFFFFFFFFFFFFFFFFFFFFFFFFFFFFFFFFFFFF AND SUB PUSH2 0x2DD7 JUMPI PUSH0 PUSH1 0x40 MLOAD PUSH32 0xEC442F0500000000000000000000000000000000000000000000000000000000 DUP2 MSTORE PUSH1 0x4 ADD PUSH2 0x2DCE SWAP2 SWAP1 PUSH2 0x395B JUMP JUMPDEST PUSH1 0x40 MLOAD DUP1 SWAP2 SUB SWAP1 REVERT JUMPDEST PUSH2 0x2DE2 PUSH0 DUP4 DUP4 PUSH2 0x31C8 JUMP JUMPDEST POP POP JUMP JUMPDEST PUSH0 PUSH2 0x2DF1 DUP4 DUP4 PUSH2 0x1FF8 JUMP JUMPDEST ISZERO PUSH2 0x2EC6 JUMPI PUSH0 PUSH1 0x5 PUSH0 DUP6 DUP2 MSTORE PUSH1 0x20 ADD SWAP1 DUP2 MSTORE PUSH1 0x20 ADD PUSH0 KECCAK256 PUSH0 ADD PUSH0 DUP5 PUSH20 0xFFFFFFFFFFFFFFFFFFFFFFFFFFFFFFFFFFFFFFFF AND PUSH20 0xFFFFFFFFFFFFFFFFFFFFFFFFFFFFFFFFFFFFFFFF AND DUP2 MSTORE PUSH1 0x20 ADD SWAP1 DUP2 MSTORE PUSH1 0x20 ADD PUSH0 KECCAK256 PUSH0 PUSH2 0x100 EXP DUP2 SLOAD DUP2 PUSH1 0xFF MUL NOT AND SWAP1 DUP4 ISZERO ISZERO MUL OR SWAP1 SSTORE POP PUSH2 0x2E63 PUSH2 0x2ACD JUMP JUMPDEST PUSH20 0xFFFFFFFFFFFFFFFFFFFFFFFFFFFFFFFFFFFFFFFF AND DUP3 PUSH20 0xFFFFFFFFFFFFFFFFFFFFFFFFFFFFFFFFFFFFFFFF AND DUP5 PUSH32 0xF6391F5C32D9C69D2A47EA670B442974B53935D1EDC7FD64EB21E047A839171B PUSH1 0x40 MLOAD PUSH1 0x40 MLOAD DUP1 SWAP2 SUB SWAP1 LOG4 PUSH1 0x1 SWAP1 POP PUSH2 0x2ECA JUMP JUMPDEST PUSH0 SWAP1 POP JUMPDEST SWAP3 SWAP2 POP POP JUMP JUMPDEST PUSH0 PUSH20 0xFFFFFFFFFFFFFFFFFFFFFFFFFFFFFFFFFFFFFFFF AND DUP3 PUSH20 0xFFFFFFFFFFFFFFFFFFFFFFFFFFFFFFFFFFFFFFFF AND SUB PUSH2 0x2F40 JUMPI PUSH0 PUSH1 0x40 MLOAD PUSH32 0x96C6FD1E00000000000000000000000000000000000000000000000000000000 DUP2 MSTORE PUSH1 0x4 ADD PUSH2 0x2F37 SWAP2 SWAP1 PUSH2 0x395B JUMP JUMPDEST PUSH1 0x40 MLOAD DUP1 SWAP2 SUB SWAP1 REVERT JUMPDEST PUSH2 0x2F4B DUP3 PUSH0 DUP4 PUSH2 0x31C8 JUMP JUMPDEST POP POP JUMP JUMPDEST PUSH1 0x2 PUSH1 0x6 SLOAD SUB PUSH2 0x2F94 JUMPI PUSH1 0x40 MLOAD PUSH32 0x8C379A000000000000000000000000000000000000000000000000000000000 DUP2 MSTORE PUSH1 0x4 ADD PUSH2 0x2F8B SWAP1 PUSH2 0x49FC JUMP JUMPDEST PUSH1 0x40 MLOAD DUP1 SWAP2 SUB SWAP1 REVERT JUMPDEST PUSH1 0x2 PUSH1 0x6 DUP2 SWAP1 SSTORE POP JUMP JUMPDEST PUSH1 0x1 PUSH1 0x6 DUP2 SWAP1 SSTORE POP JUMP JUMPDEST PUSH0 PUSH20 0xFFFFFFFFFFFFFFFFFFFFFFFFFFFFFFFFFFFFFFFF AND DUP5 PUSH20 0xFFFFFFFFFFFFFFFFFFFFFFFFFFFFFFFFFFFFFFFF AND SUB PUSH2 0x3018 JUMPI PUSH0 PUSH1 0x40 MLOAD PUSH32 0xE602DF0500000000000000000000000000000000000000000000000000000000 DUP2 MSTORE PUSH1 0x4 ADD PUSH2 0x300F SWAP2 SWAP1 PUSH2 0x395B JUMP JUMPDEST PUSH1 0x40 MLOAD DUP1 SWAP2 SUB SWAP1 REVERT JUMPDEST PUSH0 PUSH20 0xFFFFFFFFFFFFFFFFFFFFFFFFFFFFFFFFFFFFFFFF AND DUP4 PUSH20 0xFFFFFFFFFFFFFFFFFFFFFFFFFFFFFFFFFFFFFFFF AND SUB PUSH2 0x3088 JUMPI PUSH0 PUSH1 0x40 MLOAD PUSH32 0x94280D6200000000000000000000000000000000000000000000000000000000 DUP2 MSTORE PUSH1 0x4 ADD PUSH2 0x307F SWAP2 SWAP1 PUSH2 0x395B JUMP JUMPDEST PUSH1 0x40 MLOAD DUP1 SWAP2 SUB SWAP1 REVERT JUMPDEST DUP2 PUSH1 0x1 PUSH0 DUP7 PUSH20 0xFFFFFFFFFFFFFFFFFFFFFFFFFFFFFFFFFFFFFFFF AND PUSH20 0xFFFFFFFFFFFFFFFFFFFFFFFFFFFFFFFFFFFFFFFF AND DUP2 MSTORE PUSH1 0x20 ADD SWAP1 DUP2 MSTORE PUSH1 0x20 ADD PUSH0 KECCAK256 PUSH0 DUP6 PUSH20 0xFFFFFFFFFFFFFFFFFFFFFFFFFFFFFFFFFFFFFFFF AND PUSH20 0xFFFFFFFFFFFFFFFFFFFFFFFFFFFFFFFFFFFFFFFF AND DUP2 MSTORE PUSH1 0x20 ADD SWAP1 DUP2 MSTORE PUSH1 0x20 ADD PUSH0 KECCAK256 DUP2 SWAP1 SSTORE POP DUP1 ISZERO PUSH2 0x3171 JUMPI DUP3 PUSH20 0xFFFFFFFFFFFFFFFFFFFFFFFFFFFFFFFFFFFFFFFF AND DUP5 PUSH20 0xFFFFFFFFFFFFFFFFFFFFFFFFFFFFFFFFFFFFFFFF AND PUSH32 0x8C5BE1E5EBEC7D5BD14F71427D1E84F3DD0314C0F7B2291E5B200AC8C7C3B925 DUP5 PUSH1 0x40 MLOAD PUSH2 0x3168 SWAP2 SWAP1 PUSH2 0x3757 JUMP JUMPDEST PUSH1 0x40 MLOAD DUP1 SWAP2 SUB SWAP1 LOG3 JUMPDEST POP POP POP POP JUMP JUMPDEST PUSH2 0x3181 DUP3 DUP3 PUSH2 0x1FF8 JUMP JUMPDEST PUSH2 0x31C4 JUMPI DUP1 DUP3 PUSH1 0x40 MLOAD PUSH32 0xE2517D3F00000000000000000000000000000000000000000000000000000000 DUP2 MSTORE PUSH1 0x4 ADD PUSH2 0x31BB SWAP3 SWAP2 SWAP1 PUSH2 0x4A1A JUMP JUMPDEST PUSH1 0x40 MLOAD DUP1 SWAP2 SUB SWAP1 REVERT JUMPDEST POP POP JUMP JUMPDEST PUSH0 PUSH20 0xFFFFFFFFFFFFFFFFFFFFFFFFFFFFFFFFFFFFFFFF AND DUP4 PUSH20 0xFFFFFFFFFFFFFFFFFFFFFFFFFFFFFFFFFFFFFFFF AND SUB PUSH2 0x3218 JUMPI DUP1 PUSH1 0x2 PUSH0 DUP3 DUP3 SLOAD PUSH2 0x320C SWAP2 SWAP1 PUSH2 0x4A6E JUMP JUMPDEST SWAP3 POP POP DUP2 SWAP1 SSTORE POP PUSH2 0x32E6 JUMP JUMPDEST PUSH0 PUSH0 PUSH0 DUP6 PUSH20 0xFFFFFFFFFFFFFFFFFFFFFFFFFFFFFFFFFFFFFFFF AND PUSH20 0xFFFFFFFFFFFFFFFFFFFFFFFFFFFFFFFFFFFFFFFF AND DUP2 MSTORE PUSH1 0x20 ADD SWAP1 DUP2 MSTORE PUSH1 0x20 ADD PUSH0 KECCAK256 SLOAD SWAP1 POP DUP2 DUP2 LT ISZERO PUSH2 0x32A1 JUMPI DUP4 DUP2 DUP4 PUSH1 0x40 MLOAD PUSH32 0xE450D38C00000000000000000000000000000000000000000000000000000000 DUP2 MSTORE PUSH1 0x4 ADD PUSH2 0x3298 SWAP4 SWAP3 SWAP2 SWAP1 PUSH2 0x497D JUMP JUMPDEST PUSH1 0x40 MLOAD DUP1 SWAP2 SUB SWAP1 REVERT JUMPDEST DUP2 DUP2 SUB PUSH0 PUSH0 DUP7 PUSH20 0xFFFFFFFFFFFFFFFFFFFFFFFFFFFFFFFFFFFFFFFF AND PUSH20 0xFFFFFFFFFFFFFFFFFFFFFFFFFFFFFFFFFFFFFFFF AND DUP2 MSTORE PUSH1 0x20 ADD SWAP1 DUP2 MSTORE PUSH1 0x20 ADD PUSH0 KECCAK256 DUP2 SWAP1 SSTORE POP POP JUMPDEST PUSH0 PUSH20 0xFFFFFFFFFFFFFFFFFFFFFFFFFFFFFFFFFFFFFFFF AND DUP3 PUSH20 0xFFFFFFFFFFFFFFFFFFFFFFFFFFFFFFFFFFFFFFFF AND SUB PUSH2 0x332D JUMPI DUP1 PUSH1 0x2 PUSH0 DUP3 DUP3 SLOAD SUB SWAP3 POP POP DUP2 SWAP1 SSTORE POP PUSH2 0x3377 JUMP JUMPDEST DUP1 PUSH0 PUSH0 DUP5 PUSH20 0xFFFFFFFFFFFFFFFFFFFFFFFFFFFFFFFFFFFFFFFF AND PUSH20 0xFFFFFFFFFFFFFFFFFFFFFFFFFFFFFFFFFFFFFFFF AND DUP2 MSTORE PUSH1 0x20 ADD SWAP1 DUP2 MSTORE PUSH1 0x20 ADD PUSH0 KECCAK256 PUSH0 DUP3 DUP3 SLOAD ADD SWAP3 POP POP DUP2 SWAP1 SSTORE POP JUMPDEST DUP2 PUSH20 0xFFFFFFFFFFFFFFFFFFFFFFFFFFFFFFFFFFFFFFFF AND DUP4 PUSH20 0xFFFFFFFFFFFFFFFFFFFFFFFFFFFFFFFFFFFFFFFF AND PUSH32 0xDDF252AD1BE2C89B69C2B068FC378DAA952BA7F163C4A11628F55A4DF523B3EF DUP4 PUSH1 0x40 MLOAD PUSH2 0x33D4 SWAP2 SWAP1 PUSH2 0x3757 JUMP JUMPDEST PUSH1 0x40 MLOAD DUP1 SWAP2 SUB SWAP1 LOG3 POP POP POP JUMP JUMPDEST PUSH0 PUSH0 REVERT JUMPDEST PUSH0 PUSH32 0xFFFFFFFF00000000000000000000000000000000000000000000000000000000 DUP3 AND SWAP1 POP SWAP2 SWAP1 POP JUMP JUMPDEST PUSH2 0x3419 DUP2 PUSH2 0x33E5 JUMP JUMPDEST DUP2 EQ PUSH2 0x3423 JUMPI PUSH0 PUSH0 REVERT JUMPDEST POP JUMP JUMPDEST PUSH0 DUP2 CALLDATALOAD SWAP1 POP PUSH2 0x3434 DUP2 PUSH2 0x3410 JUMP JUMPDEST SWAP3 SWAP2 POP POP JUMP JUMPDEST PUSH0 PUSH1 0x20 DUP3 DUP5 SUB SLT ISZERO PUSH2 0x344F JUMPI PUSH2 0x344E PUSH2 0x33E1 JUMP JUMPDEST JUMPDEST PUSH0 PUSH2 0x345C DUP5 DUP3 DUP6 ADD PUSH2 0x3426 JUMP JUMPDEST SWAP2 POP POP SWAP3 SWAP2 POP POP JUMP JUMPDEST PUSH0 DUP2 ISZERO ISZERO SWAP1 POP SWAP2 SWAP1 POP JUMP JUMPDEST PUSH2 0x3479 DUP2 PUSH2 0x3465 JUMP JUMPDEST DUP3 MSTORE POP POP JUMP JUMPDEST PUSH0 PUSH1 0x20 DUP3 ADD SWAP1 POP PUSH2 0x3492 PUSH0 DUP4 ADD DUP5 PUSH2 0x3470 JUMP JUMPDEST SWAP3 SWAP2 POP POP JUMP JUMPDEST PUSH0 DUP2 MLOAD SWAP1 POP SWAP2 SWAP1 POP JUMP JUMPDEST PUSH0 DUP3 DUP3 MSTORE PUSH1 0x20 DUP3 ADD SWAP1 POP SWAP3 SWAP2 POP POP JUMP JUMPDEST DUP3 DUP2 DUP4 MCOPY PUSH0 DUP4 DUP4 ADD MSTORE POP POP POP JUMP JUMPDEST PUSH0 PUSH1 0x1F NOT PUSH1 0x1F DUP4 ADD AND SWAP1 POP SWAP2 SWAP1 POP JUMP JUMPDEST PUSH0 PUSH2 0x34DA DUP3 PUSH2 0x3498 JUMP JUMPDEST PUSH2 0x34E4 DUP2 DUP6 PUSH2 0x34A2 JUMP JUMPDEST SWAP4 POP PUSH2 0x34F4 DUP2 DUP6 PUSH1 0x20 DUP7 ADD PUSH2 0x34B2 JUMP JUMPDEST PUSH2 0x34FD DUP2 PUSH2 0x34C0 JUMP JUMPDEST DUP5 ADD SWAP2 POP POP SWAP3 SWAP2 POP POP JUMP JUMPDEST PUSH0 PUSH1 0x20 DUP3 ADD SWAP1 POP DUP2 DUP2 SUB PUSH0 DUP4 ADD MSTORE PUSH2 0x3520 DUP2 DUP5 PUSH2 0x34D0 JUMP JUMPDEST SWAP1 POP SWAP3 SWAP2 POP POP JUMP JUMPDEST PUSH0 PUSH20 0xFFFFFFFFFFFFFFFFFFFFFFFFFFFFFFFFFFFFFFFF DUP3 AND SWAP1 POP SWAP2 SWAP1 POP JUMP JUMPDEST PUSH0 PUSH2 0x3551 DUP3 PUSH2 0x3528 JUMP JUMPDEST SWAP1 POP SWAP2 SWAP1 POP JUMP JUMPDEST PUSH2 0x3561 DUP2 PUSH2 0x3547 JUMP JUMPDEST DUP2 EQ PUSH2 0x356B JUMPI PUSH0 PUSH0 REVERT JUMPDEST POP JUMP JUMPDEST PUSH0 DUP2 CALLDATALOAD SWAP1 POP PUSH2 0x357C DUP2 PUSH2 0x3558 JUMP JUMPDEST SWAP3 SWAP2 POP POP JUMP JUMPDEST PUSH0 DUP2 SWAP1 POP SWAP2 SWAP1 POP JUMP JUMPDEST PUSH2 0x3594 DUP2 PUSH2 0x3582 JUMP JUMPDEST DUP2 EQ PUSH2 0x359E JUMPI PUSH0 PUSH0 REVERT JUMPDEST POP JUMP JUMPDEST PUSH0 DUP2 CALLDATALOAD SWAP1 POP PUSH2 0x35AF DUP2 PUSH2 0x358B JUMP JUMPDEST SWAP3 SWAP2 POP POP JUMP JUMPDEST PUSH0 PUSH0 PUSH1 0x40 DUP4 DUP6 SUB SLT ISZERO PUSH2 0x35CB JUMPI PUSH2 0x35CA PUSH2 0x33E1 JUMP JUMPDEST JUMPDEST PUSH0 PUSH2 0x35D8 DUP6 DUP3 DUP7 ADD PUSH2 0x356E JUMP JUMPDEST SWAP3 POP POP PUSH1 0x20 PUSH2 0x35E9 DUP6 DUP3 DUP7 ADD PUSH2 0x35A1 JUMP JUMPDEST SWAP2 POP POP SWAP3 POP SWAP3 SWAP1 POP JUMP JUMPDEST PUSH0 PUSH2 0x35FD DUP3 PUSH2 0x3528 JUMP JUMPDEST SWAP1 POP SWAP2 SWAP1 POP JUMP JUMPDEST PUSH2 0x360D DUP2 PUSH2 0x35F3 JUMP JUMPDEST DUP2 EQ PUSH2 0x3617 JUMPI PUSH0 PUSH0 REVERT JUMPDEST POP JUMP JUMPDEST PUSH0 DUP2 CALLDATALOAD SWAP1 POP PUSH2 0x3628 DUP2 PUSH2 0x3604 JUMP JUMPDEST SWAP3 SWAP2 POP POP JUMP JUMPDEST PUSH0 PUSH0 PUSH1 0x40 DUP4 DUP6 SUB SLT ISZERO PUSH2 0x3644 JUMPI PUSH2 0x3643 PUSH2 0x33E1 JUMP JUMPDEST JUMPDEST PUSH0 PUSH2 0x3651 DUP6 DUP3 DUP7 ADD PUSH2 0x361A JUMP JUMPDEST SWAP3 POP POP PUSH1 0x20 PUSH2 0x3662 DUP6 DUP3 DUP7 ADD PUSH2 0x35A1 JUMP JUMPDEST SWAP2 POP POP SWAP3 POP SWAP3 SWAP1 POP JUMP JUMPDEST PUSH2 0x3675 DUP2 PUSH2 0x3465 JUMP JUMPDEST DUP2 EQ PUSH2 0x367F JUMPI PUSH0 PUSH0 REVERT JUMPDEST POP JUMP JUMPDEST PUSH0 DUP2 CALLDATALOAD SWAP1 POP PUSH2 0x3690 DUP2 PUSH2 0x366C JUMP JUMPDEST SWAP3 SWAP2 POP POP JUMP JUMPDEST PUSH0 PUSH0 PUSH1 0x40 DUP4 DUP6 SUB SLT ISZERO PUSH2 0x36AC JUMPI PUSH2 0x36AB PUSH2 0x33E1 JUMP JUMPDEST JUMPDEST PUSH0 PUSH2 0x36B9 DUP6 DUP3 DUP7 ADD PUSH2 0x356E JUMP JUMPDEST SWAP3 POP POP PUSH1 0x20 PUSH2 0x36CA DUP6 DUP3 DUP7 ADD PUSH2 0x3682 JUMP JUMPDEST SWAP2 POP POP SWAP3 POP SWAP3 SWAP1 POP JUMP JUMPDEST PUSH0 DUP2 SWAP1 POP SWAP2 SWAP1 POP JUMP JUMPDEST PUSH0 PUSH2 0x36F7 PUSH2 0x36F2 PUSH2 0x36ED DUP5 PUSH2 0x3528 JUMP JUMPDEST PUSH2 0x36D4 JUMP JUMPDEST PUSH2 0x3528 JUMP JUMPDEST SWAP1 POP SWAP2 SWAP1 POP JUMP JUMPDEST PUSH0 PUSH2 0x3708 DUP3 PUSH2 0x36DD JUMP JUMPDEST SWAP1 POP SWAP2 SWAP1 POP JUMP JUMPDEST PUSH0 PUSH2 0x3719 DUP3 PUSH2 0x36FE JUMP JUMPDEST SWAP1 POP SWAP2 SWAP1 POP JUMP JUMPDEST PUSH2 0x3729 DUP2 PUSH2 0x370F JUMP JUMPDEST DUP3 MSTORE POP POP JUMP JUMPDEST PUSH0 PUSH1 0x20 DUP3 ADD SWAP1 POP PUSH2 0x3742 PUSH0 DUP4 ADD DUP5 PUSH2 0x3720 JUMP JUMPDEST SWAP3 SWAP2 POP POP JUMP JUMPDEST PUSH2 0x3751 DUP2 PUSH2 0x3582 JUMP JUMPDEST DUP3 MSTORE POP POP JUMP JUMPDEST PUSH0 PUSH1 0x20 DUP3 ADD SWAP1 POP PUSH2 0x376A PUSH0 DUP4 ADD DUP5 PUSH2 0x3748 JUMP JUMPDEST SWAP3 SWAP2 POP POP JUMP JUMPDEST PUSH0 PUSH0 PUSH0 PUSH1 0x60 DUP5 DUP7 SUB SLT ISZERO PUSH2 0x3787 JUMPI PUSH2 0x3786 PUSH2 0x33E1 JUMP JUMPDEST JUMPDEST PUSH0 PUSH2 0x3794 DUP7 DUP3 DUP8 ADD PUSH2 0x356E JUMP JUMPDEST SWAP4 POP POP PUSH1 0x20 PUSH2 0x37A5 DUP7 DUP3 DUP8 ADD PUSH2 0x356E JUMP JUMPDEST SWAP3 POP POP PUSH1 0x40 PUSH2 0x37B6 DUP7 DUP3 DUP8 ADD PUSH2 0x35A1 JUMP JUMPDEST SWAP2 POP POP SWAP3 POP SWAP3 POP SWAP3 JUMP JUMPDEST PUSH0 DUP2 SWAP1 POP SWAP2 SWAP1 POP JUMP JUMPDEST PUSH2 0x37D2 DUP2 PUSH2 0x37C0 JUMP JUMPDEST DUP2 EQ PUSH2 0x37DC JUMPI PUSH0 PUSH0 REVERT JUMPDEST POP JUMP JUMPDEST PUSH0 DUP2 CALLDATALOAD SWAP1 POP PUSH2 0x37ED DUP2 PUSH2 0x37C9 JUMP JUMPDEST SWAP3 SWAP2 POP POP JUMP JUMPDEST PUSH0 PUSH1 0x20 DUP3 DUP5 SUB SLT ISZERO PUSH2 0x3808 JUMPI PUSH2 0x3807 PUSH2 0x33E1 JUMP JUMPDEST JUMPDEST PUSH0 PUSH2 0x3815 DUP5 DUP3 DUP6 ADD PUSH2 0x37DF JUMP JUMPDEST SWAP2 POP POP SWAP3 SWAP2 POP POP JUMP JUMPDEST PUSH2 0x3827 DUP2 PUSH2 0x37C0 JUMP JUMPDEST DUP3 MSTORE POP POP JUMP JUMPDEST PUSH0 PUSH1 0x20 DUP3 ADD SWAP1 POP PUSH2 0x3840 PUSH0 DUP4 ADD DUP5 PUSH2 0x381E JUMP JUMPDEST SWAP3 SWAP2 POP POP JUMP JUMPDEST PUSH0 PUSH0 PUSH1 0x40 DUP4 DUP6 SUB SLT ISZERO PUSH2 0x385C JUMPI PUSH2 0x385B PUSH2 0x33E1 JUMP JUMPDEST JUMPDEST PUSH0 PUSH2 0x3869 DUP6 DUP3 DUP7 ADD PUSH2 0x37DF JUMP JUMPDEST SWAP3 POP POP PUSH1 0x20 PUSH2 0x387A DUP6 DUP3 DUP7 ADD PUSH2 0x356E JUMP JUMPDEST SWAP2 POP POP SWAP3 POP SWAP3 SWAP1 POP JUMP JUMPDEST PUSH0 PUSH1 0xFF DUP3 AND SWAP1 POP SWAP2 SWAP1 POP JUMP JUMPDEST PUSH2 0x3899 DUP2 PUSH2 0x3884 JUMP JUMPDEST DUP3 MSTORE POP POP JUMP JUMPDEST PUSH0 PUSH1 0x20 DUP3 ADD SWAP1 POP PUSH2 0x38B2 PUSH0 DUP4 ADD DUP5 PUSH2 0x3890 JUMP JUMPDEST SWAP3 SWAP2 POP POP JUMP JUMPDEST PUSH0 PUSH1 0x20 DUP3 DUP5 SUB SLT ISZERO PUSH2 0x38CD JUMPI PUSH2 0x38CC PUSH2 0x33E1 JUMP JUMPDEST JUMPDEST PUSH0 PUSH2 0x38DA DUP5 DUP3 DUP6 ADD PUSH2 0x35A1 JUMP JUMPDEST SWAP2 POP POP SWAP3 SWAP2 POP POP JUMP JUMPDEST PUSH0 PUSH1 0x20 DUP3 DUP5 SUB SLT ISZERO PUSH2 0x38F8 JUMPI PUSH2 0x38F7 PUSH2 0x33E1 JUMP JUMPDEST JUMPDEST PUSH0 PUSH2 0x3905 DUP5 DUP3 DUP6 ADD PUSH2 0x356E JUMP JUMPDEST SWAP2 POP POP SWAP3 SWAP2 POP POP JUMP JUMPDEST PUSH0 PUSH0 PUSH1 0x40 DUP4 DUP6 SUB SLT ISZERO PUSH2 0x3924 JUMPI PUSH2 0x3923 PUSH2 0x33E1 JUMP JUMPDEST JUMPDEST PUSH0 PUSH2 0x3931 DUP6 DUP3 DUP7 ADD PUSH2 0x3682 JUMP JUMPDEST SWAP3 POP POP PUSH1 0x20 PUSH2 0x3942 DUP6 DUP3 DUP7 ADD PUSH2 0x35A1 JUMP JUMPDEST SWAP2 POP POP SWAP3 POP SWAP3 SWAP1 POP JUMP JUMPDEST PUSH2 0x3955 DUP2 PUSH2 0x3547 JUMP JUMPDEST DUP3 MSTORE POP POP JUMP JUMPDEST PUSH0 PUSH1 0x20 DUP3 ADD SWAP1 POP PUSH2 0x396E PUSH0 DUP4 ADD DUP5 PUSH2 0x394C JUMP JUMPDEST SWAP3 SWAP2 POP POP JUMP JUMPDEST PUSH0 PUSH0 PUSH0 PUSH1 0x60 DUP5 DUP7 SUB SLT ISZERO PUSH2 0x398B JUMPI PUSH2 0x398A PUSH2 0x33E1 JUMP JUMPDEST JUMPDEST PUSH0 PUSH2 0x3998 DUP7 DUP3 DUP8 ADD PUSH2 0x356E JUMP JUMPDEST SWAP4 POP POP PUSH1 0x20 PUSH2 0x39A9 DUP7 DUP3 DUP8 ADD PUSH2 0x35A1 JUMP JUMPDEST SWAP3 POP POP PUSH1 0x40 PUSH2 0x39BA DUP7 DUP3 DUP8 ADD PUSH2 0x356E JUMP JUMPDEST SWAP2 POP POP SWAP3 POP SWAP3 POP SWAP3 JUMP JUMPDEST PUSH0 PUSH1 0x20 DUP3 DUP5 SUB SLT ISZERO PUSH2 0x39D9 JUMPI PUSH2 0x39D8 PUSH2 0x33E1 JUMP JUMPDEST JUMPDEST PUSH0 PUSH2 0x39E6 DUP5 DUP3 DUP6 ADD PUSH2 0x3682 JUMP JUMPDEST SWAP2 POP POP SWAP3 SWAP2 POP POP JUMP JUMPDEST PUSH0 PUSH0 PUSH1 0x40 DUP4 DUP6 SUB SLT ISZERO PUSH2 0x3A05 JUMPI PUSH2 0x3A04 PUSH2 0x33E1 JUMP JUMPDEST JUMPDEST PUSH0 PUSH2 0x3A12 DUP6 DUP3 DUP7 ADD PUSH2 0x356E JUMP JUMPDEST SWAP3 POP POP PUSH1 0x20 PUSH2 0x3A23 DUP6 DUP3 DUP7 ADD PUSH2 0x356E JUMP JUMPDEST SWAP2 POP POP SWAP3 POP SWAP3 SWAP1 POP JUMP JUMPDEST PUSH0 PUSH0 PUSH0 PUSH0 PUSH0 PUSH1 0xA0 DUP7 DUP9 SUB SLT ISZERO PUSH2 0x3A46 JUMPI PUSH2 0x3A45 PUSH2 0x33E1 JUMP JUMPDEST JUMPDEST PUSH0 PUSH2 0x3A53 DUP9 DUP3 DUP10 ADD PUSH2 0x356E JUMP JUMPDEST SWAP6 POP POP PUSH1 0x20 PUSH2 0x3A64 DUP9 DUP3 DUP10 ADD PUSH2 0x35A1 JUMP JUMPDEST SWAP5 POP POP PUSH1 0x40 PUSH2 0x3A75 DUP9 DUP3 DUP10 ADD PUSH2 0x35A1 JUMP JUMPDEST SWAP4 POP POP PUSH1 0x60 PUSH2 0x3A86 DUP9 DUP3 DUP10 ADD PUSH2 0x35A1 JUMP JUMPDEST SWAP3 POP POP PUSH1 0x80 PUSH2 0x3A97 DUP9 DUP3 DUP10 ADD PUSH2 0x35A1 JUMP JUMPDEST SWAP2 POP POP SWAP3 SWAP6 POP SWAP3 SWAP6 SWAP1 SWAP4 POP JUMP JUMPDEST PUSH0 PUSH1 0x60 DUP3 ADD SWAP1 POP PUSH2 0x3AB7 PUSH0 DUP4 ADD DUP7 PUSH2 0x3748 JUMP JUMPDEST PUSH2 0x3AC4 PUSH1 0x20 DUP4 ADD DUP6 PUSH2 0x3748 JUMP JUMPDEST PUSH2 0x3AD1 PUSH1 0x40 DUP4 ADD DUP5 PUSH2 0x3748 JUMP JUMPDEST SWAP5 SWAP4 POP POP POP POP JUMP JUMPDEST PUSH2 0x3AE2 DUP2 PUSH2 0x3582 JUMP JUMPDEST DUP3 MSTORE POP POP JUMP JUMPDEST PUSH0 DUP2 SWAP1 POP SWAP2 SWAP1 POP JUMP JUMPDEST PUSH0 PUSH2 0x3B0B PUSH2 0x3B06 PUSH2 0x3B01 DUP5 PUSH2 0x3AE8 JUMP JUMPDEST PUSH2 0x36D4 JUMP JUMPDEST PUSH2 0x3582 JUMP JUMPDEST SWAP1 POP SWAP2 SWAP1 POP JUMP JUMPDEST PUSH2 0x3B1B DUP2 PUSH2 0x3AF1 JUMP JUMPDEST DUP3 MSTORE POP POP JUMP JUMPDEST PUSH0 DUP3 DUP3 MSTORE PUSH1 0x20 DUP3 ADD SWAP1 POP SWAP3 SWAP2 POP POP JUMP JUMPDEST PUSH32 0x746F6B656E2062616C616E63652073686F756C64206265207A65726F20696E69 PUSH0 DUP3 ADD MSTORE PUSH32 0x7469616C6C790000000000000000000000000000000000000000000000000000 PUSH1 0x20 DUP3 ADD MSTORE POP JUMP JUMPDEST PUSH0 PUSH2 0x3B8B PUSH1 0x26 DUP4 PUSH2 0x3B21 JUMP JUMPDEST SWAP2 POP PUSH2 0x3B96 DUP3 PUSH2 0x3B31 JUMP JUMPDEST PUSH1 0x40 DUP3 ADD SWAP1 POP SWAP2 SWAP1 POP JUMP JUMPDEST PUSH0 PUSH1 0x60 DUP3 ADD SWAP1 POP PUSH2 0x3BB4 PUSH0 DUP4 ADD DUP6 PUSH2 0x3AD9 JUMP JUMPDEST PUSH2 0x3BC1 PUSH1 0x20 DUP4 ADD DUP5 PUSH2 0x3B12 JUMP JUMPDEST DUP2 DUP2 SUB PUSH1 0x40 DUP4 ADD MSTORE PUSH2 0x3BD2 DUP2 PUSH2 0x3B7F JUMP JUMPDEST SWAP1 POP SWAP4 SWAP3 POP POP POP JUMP JUMPDEST PUSH0 DUP2 MLOAD SWAP1 POP PUSH2 0x3BE9 DUP2 PUSH2 0x366C JUMP JUMPDEST SWAP3 SWAP2 POP POP JUMP JUMPDEST PUSH0 PUSH1 0x20 DUP3 DUP5 SUB SLT ISZERO PUSH2 0x3C04 JUMPI PUSH2 0x3C03 PUSH2 0x33E1 JUMP JUMPDEST JUMPDEST PUSH0 PUSH2 0x3C11 DUP5 DUP3 DUP6 ADD PUSH2 0x3BDB JUMP JUMPDEST SWAP2 POP POP SWAP3 SWAP2 POP POP JUMP JUMPDEST PUSH0 DUP2 SWAP1 POP SWAP2 SWAP1 POP JUMP JUMPDEST PUSH0 PUSH2 0x3C3D PUSH2 0x3C38 PUSH2 0x3C33 DUP5 PUSH2 0x3C1A JUMP JUMPDEST PUSH2 0x36D4 JUMP JUMPDEST PUSH2 0x3582 JUMP JUMPDEST SWAP1 POP SWAP2 SWAP1 POP JUMP JUMPDEST PUSH2 0x3C4D DUP2 PUSH2 0x3C23 JUMP JUMPDEST DUP3 MSTORE POP POP JUMP JUMPDEST PUSH32 0x746F6B656E2062616C616E636520646964206E6F74206D617463680000000000 PUSH0 DUP3 ADD MSTORE POP JUMP JUMPDEST PUSH0 PUSH2 0x3C87 PUSH1 0x1B DUP4 PUSH2 0x3B21 JUMP JUMPDEST SWAP2 POP PUSH2 0x3C92 DUP3 PUSH2 0x3C53 JUMP JUMPDEST PUSH1 0x20 DUP3 ADD SWAP1 POP SWAP2 SWAP1 POP JUMP JUMPDEST PUSH0 PUSH1 0x60 DUP3 ADD SWAP1 POP PUSH2 0x3CB0 PUSH0 DUP4 ADD DUP6 PUSH2 0x3AD9 JUMP JUMPDEST PUSH2 0x3CBD PUSH1 0x20 DUP4 ADD DUP5 PUSH2 0x3C44 JUMP JUMPDEST DUP2 DUP2 SUB PUSH1 0x40 DUP4 ADD MSTORE PUSH2 0x3CCE DUP2 PUSH2 0x3C7B JUMP JUMPDEST SWAP1 POP SWAP4 SWAP3 POP POP POP JUMP JUMPDEST PUSH0 DUP2 SWAP1 POP SWAP2 SWAP1 POP JUMP JUMPDEST PUSH0 PUSH2 0x3CFA PUSH2 0x3CF5 PUSH2 0x3CF0 DUP5 PUSH2 0x3CD7 JUMP JUMPDEST PUSH2 0x36D4 JUMP JUMPDEST PUSH2 0x3582 JUMP JUMPDEST SWAP1 POP SWAP2 SWAP1 POP JUMP JUMPDEST PUSH2 0x3D0A DUP2 PUSH2 0x3CE0 JUMP JUMPDEST DUP3 MSTORE POP POP JUMP JUMPDEST PUSH0 PUSH1 0x60 DUP3 ADD SWAP1 POP PUSH2 0x3D23 PUSH0 DUP4 ADD DUP6 PUSH2 0x3AD9 JUMP JUMPDEST PUSH2 0x3D30 PUSH1 0x20 DUP4 ADD DUP5 PUSH2 0x3D01 JUMP JUMPDEST DUP2 DUP2 SUB PUSH1 0x40 DUP4 ADD MSTORE PUSH2 0x3D41 DUP2 PUSH2 0x3C7B JUMP JUMPDEST SWAP1 POP SWAP4 SWAP3 POP POP POP JUMP JUMPDEST PUSH32 0x4E487B7100000000000000000000000000000000000000000000000000000000 PUSH0 MSTORE PUSH1 0x22 PUSH1 0x4 MSTORE PUSH1 0x24 PUSH0 REVERT JUMPDEST PUSH0 PUSH1 0x2 DUP3 DIV SWAP1 POP PUSH1 0x1 DUP3 AND DUP1 PUSH2 0x3D8E JUMPI PUSH1 0x7F DUP3 AND SWAP2 POP JUMPDEST PUSH1 0x20 DUP3 LT DUP2 SUB PUSH2 0x3DA1 JUMPI PUSH2 0x3DA0 PUSH2 0x3D4A JUMP JUMPDEST JUMPDEST POP SWAP2 SWAP1 POP JUMP JUMPDEST PUSH32 0x746F6B656E20616C6C6F77616E63652073686F756C64206265207A65726F2069 PUSH0 DUP3 ADD MSTORE PUSH32 0x6E697469616C6C79000000000000000000000000000000000000000000000000 PUSH1 0x20 DUP3 ADD MSTORE POP JUMP JUMPDEST PUSH0 PUSH2 0x3E01 PUSH1 0x28 DUP4 PUSH2 0x3B21 JUMP JUMPDEST SWAP2 POP PUSH2 0x3E0C DUP3 PUSH2 0x3DA7 JUMP JUMPDEST PUSH1 0x40 DUP3 ADD SWAP1 POP SWAP2 SWAP1 POP JUMP JUMPDEST PUSH0 PUSH1 0x60 DUP3 ADD SWAP1 POP PUSH2 0x3E2A PUSH0 DUP4 ADD DUP6 PUSH2 0x3AD9 JUMP JUMPDEST PUSH2 0x3E37 PUSH1 0x20 DUP4 ADD DUP5 PUSH2 0x3B12 JUMP JUMPDEST DUP2 DUP2 SUB PUSH1 0x40 DUP4 ADD MSTORE PUSH2 0x3E48 DUP2 PUSH2 0x3DF5 JUMP JUMPDEST SWAP1 POP SWAP4 SWAP3 POP POP POP JUMP JUMPDEST PUSH32 0x746F6B656E20616C6C6F77616E636520646964206E6F74206D61746368000000 PUSH0 DUP3 ADD MSTORE POP JUMP JUMPDEST PUSH0 PUSH2 0x3E85 PUSH1 0x1D DUP4 PUSH2 0x3B21 JUMP JUMPDEST SWAP2 POP PUSH2 0x3E90 DUP3 PUSH2 0x3E51 JUMP JUMPDEST PUSH1 0x20 DUP3 ADD SWAP1 POP SWAP2 SWAP1 POP JUMP JUMPDEST PUSH0 PUSH1 0x60 DUP3 ADD SWAP1 POP PUSH2 0x3EAE PUSH0 DUP4 ADD DUP6 PUSH2 0x3AD9 JUMP JUMPDEST PUSH2 0x3EBB PUSH1 0x20 DUP4 ADD DUP5 PUSH2 0x3D01 JUMP JUMPDEST DUP2 DUP2 SUB PUSH1 0x40 DUP4 ADD MSTORE PUSH2 0x3ECC DUP2 PUSH2 0x3E79 JUMP JUMPDEST SWAP1 POP SWAP4 SWAP3 POP POP POP JUMP JUMPDEST PUSH32 0x496E76616C69642027746F270000000000000000000000000000000000000000 PUSH0 DUP3 ADD MSTORE POP JUMP JUMPDEST PUSH0 PUSH2 0x3F09 PUSH1 0xC DUP4 PUSH2 0x34A2 JUMP JUMPDEST SWAP2 POP PUSH2 0x3F14 DUP3 PUSH2 0x3ED5 JUMP JUMPDEST PUSH1 0x20 DUP3 ADD SWAP1 POP SWAP2 SWAP1 POP JUMP JUMPDEST PUSH0 PUSH1 0x20 DUP3 ADD SWAP1 POP DUP2 DUP2 SUB PUSH0 DUP4 ADD MSTORE PUSH2 0x3F36 DUP2 PUSH2 0x3EFD JUMP JUMPDEST SWAP1 POP SWAP2 SWAP1 POP JUMP JUMPDEST PUSH0 DUP2 SWAP1 POP SWAP3 SWAP2 POP POP JUMP JUMPDEST POP JUMP JUMPDEST PUSH0 PUSH2 0x3F55 PUSH0 DUP4 PUSH2 0x3F3D JUMP JUMPDEST SWAP2 POP PUSH2 0x3F60 DUP3 PUSH2 0x3F47 JUMP JUMPDEST PUSH0 DUP3 ADD SWAP1 POP SWAP2 SWAP1 POP JUMP JUMPDEST PUSH0 PUSH2 0x3F74 DUP3 PUSH2 0x3F4A JUMP JUMPDEST SWAP2 POP DUP2 SWAP1 POP SWAP2 SWAP1 POP JUMP JUMPDEST PUSH32 0x455448207472616E73666572206661696C656400000000000000000000000000 PUSH0 DUP3 ADD MSTORE POP JUMP JUMPDEST PUSH0 PUSH2 0x3FB2 PUSH1 0x13 DUP4 PUSH2 0x34A2 JUMP JUMPDEST SWAP2 POP PUSH2 0x3FBD DUP3 PUSH2 0x3F7E JUMP JUMPDEST PUSH1 0x20 DUP3 ADD SWAP1 POP SWAP2 SWAP1 POP JUMP JUMPDEST PUSH0 PUSH1 0x20 DUP3 ADD SWAP1 POP DUP2 DUP2 SUB PUSH0 DUP4 ADD MSTORE PUSH2 0x3FDF DUP2 PUSH2 0x3FA6 JUMP JUMPDEST SWAP1 POP SWAP2 SWAP1 POP JUMP JUMPDEST PUSH0 DUP2 SWAP1 POP SWAP2 SWAP1 POP JUMP JUMPDEST PUSH0 PUSH2 0x4009 PUSH2 0x4004 PUSH2 0x3FFF DUP5 PUSH2 0x3FE6 JUMP JUMPDEST PUSH2 0x36D4 JUMP JUMPDEST PUSH2 0x3582 JUMP JUMPDEST SWAP1 POP SWAP2 SWAP1 POP JUMP JUMPDEST PUSH2 0x4019 DUP2 PUSH2 0x3FEF JUMP JUMPDEST DUP3 MSTORE POP POP JUMP JUMPDEST PUSH32 0x6163633420746F6B656E2062616C616E636520646964206E6F74206D61746368 PUSH0 DUP3 ADD MSTORE POP JUMP JUMPDEST PUSH0 PUSH2 0x4053 PUSH1 0x20 DUP4 PUSH2 0x3B21 JUMP JUMPDEST SWAP2 POP PUSH2 0x405E DUP3 PUSH2 0x401F JUMP JUMPDEST PUSH1 0x20 DUP3 ADD SWAP1 POP SWAP2 SWAP1 POP JUMP JUMPDEST PUSH0 PUSH1 0x60 DUP3 ADD SWAP1 POP PUSH2 0x407C PUSH0 DUP4 ADD DUP6 PUSH2 0x3AD9 JUMP JUMPDEST PUSH2 0x4089 PUSH1 0x20 DUP4 ADD DUP5 PUSH2 0x4010 JUMP JUMPDEST DUP2 DUP2 SUB PUSH1 0x40 DUP4 ADD MSTORE PUSH2 0x409A DUP2 PUSH2 0x4047 JUMP JUMPDEST SWAP1 POP SWAP4 SWAP3 POP POP POP JUMP JUMPDEST PUSH0 DUP2 SWAP1 POP SWAP2 SWAP1 POP JUMP JUMPDEST PUSH0 PUSH2 0x40C6 PUSH2 0x40C1 PUSH2 0x40BC DUP5 PUSH2 0x40A3 JUMP JUMPDEST PUSH2 0x36D4 JUMP JUMPDEST PUSH2 0x3582 JUMP JUMPDEST SWAP1 POP SWAP2 SWAP1 POP JUMP JUMPDEST PUSH2 0x40D6 DUP2 PUSH2 0x40AC JUMP JUMPDEST DUP3 MSTORE POP POP JUMP JUMPDEST PUSH0 PUSH1 0x60 DUP3 ADD SWAP1 POP PUSH2 0x40EF PUSH0 DUP4 ADD DUP6 PUSH2 0x3AD9 JUMP JUMPDEST PUSH2 0x40FC PUSH1 0x20 DUP4 ADD DUP5 PUSH2 0x40CD JUMP JUMPDEST DUP2 DUP2 SUB PUSH1 0x40 DUP4 ADD MSTORE PUSH2 0x410D DUP2 PUSH2 0x3E79 JUMP JUMPDEST SWAP1 POP SWAP4 SWAP3 POP POP POP JUMP JUMPDEST PUSH0 DUP2 SWAP1 POP SWAP2 SWAP1 POP JUMP JUMPDEST PUSH0 PUSH2 0x4139 PUSH2 0x4134 PUSH2 0x412F DUP5 PUSH2 0x4116 JUMP JUMPDEST PUSH2 0x36D4 JUMP JUMPDEST PUSH2 0x3582 JUMP JUMPDEST SWAP1 POP SWAP2 SWAP1 POP JUMP JUMPDEST PUSH2 0x4149 DUP2 PUSH2 0x411F JUMP JUMPDEST DUP3 MSTORE POP POP JUMP JUMPDEST PUSH0 PUSH1 0x60 DUP3 ADD SWAP1 POP PUSH2 0x4162 PUSH0 DUP4 ADD DUP6 PUSH2 0x3AD9 JUMP JUMPDEST PUSH2 0x416F PUSH1 0x20 DUP4 ADD DUP5 PUSH2 0x4140 JUMP JUMPDEST DUP2 DUP2 SUB PUSH1 0x40 DUP4 ADD MSTORE PUSH2 0x4180 DUP2 PUSH2 0x3C7B JUMP JUMPDEST SWAP1 POP SWAP4 SWAP3 POP POP POP JUMP JUMPDEST PUSH0 PUSH1 0x40 DUP3 ADD SWAP1 POP PUSH2 0x419C PUSH0 DUP4 ADD DUP6 PUSH2 0x3470 JUMP JUMPDEST PUSH2 0x41A9 PUSH1 0x20 DUP4 ADD DUP5 PUSH2 0x3748 JUMP JUMPDEST SWAP4 SWAP3 POP POP POP JUMP JUMPDEST PUSH0 DUP2 SWAP1 POP SWAP2 SWAP1 POP JUMP JUMPDEST PUSH0 PUSH2 0x41D3 PUSH2 0x41CE PUSH2 0x41C9 DUP5 PUSH2 0x41B0 JUMP JUMPDEST PUSH2 0x36D4 JUMP JUMPDEST PUSH2 0x3582 JUMP JUMPDEST SWAP1 POP SWAP2 SWAP1 POP JUMP JUMPDEST PUSH2 0x41E3 DUP2 PUSH2 0x41B9 JUMP JUMPDEST DUP3 MSTORE POP POP JUMP JUMPDEST PUSH0 PUSH1 0x20 DUP3 ADD SWAP1 POP PUSH2 0x41FC PUSH0 DUP4 ADD DUP5 PUSH2 0x41DA JUMP JUMPDEST SWAP3 SWAP2 POP POP JUMP JUMPDEST PUSH0 DUP2 MLOAD SWAP1 POP PUSH2 0x4210 DUP2 PUSH2 0x3558 JUMP JUMPDEST SWAP3 SWAP2 POP POP JUMP JUMPDEST PUSH0 PUSH1 0x20 DUP3 DUP5 SUB SLT ISZERO PUSH2 0x422B JUMPI PUSH2 0x422A PUSH2 0x33E1 JUMP JUMPDEST JUMPDEST PUSH0 PUSH2 0x4238 DUP5 DUP3 DUP6 ADD PUSH2 0x4202 JUMP JUMPDEST SWAP2 POP POP SWAP3 SWAP2 POP POP JUMP JUMPDEST PUSH0 DUP2 SWAP1 POP SWAP2 SWAP1 POP JUMP JUMPDEST PUSH0 PUSH2 0x4264 PUSH2 0x425F PUSH2 0x425A DUP5 PUSH2 0x4241 JUMP JUMPDEST PUSH2 0x36D4 JUMP JUMPDEST PUSH2 0x3582 JUMP JUMPDEST SWAP1 POP SWAP2 SWAP1 POP JUMP JUMPDEST PUSH2 0x4274 DUP2 PUSH2 0x424A JUMP JUMPDEST DUP3 MSTORE POP POP JUMP JUMPDEST PUSH0 PUSH1 0x20 DUP3 ADD SWAP1 POP PUSH2 0x428D PUSH0 DUP4 ADD DUP5 PUSH2 0x426B JUMP JUMPDEST SWAP3 SWAP2 POP POP JUMP JUMPDEST PUSH0 DUP2 SWAP1 POP SWAP2 SWAP1 POP JUMP JUMPDEST PUSH0 PUSH2 0x42B6 PUSH2 0x42B1 PUSH2 0x42AC DUP5 PUSH2 0x4293 JUMP JUMPDEST PUSH2 0x36D4 JUMP JUMPDEST PUSH2 0x3582 JUMP JUMPDEST SWAP1 POP SWAP2 SWAP1 POP JUMP JUMPDEST PUSH2 0x42C6 DUP2 PUSH2 0x429C JUMP JUMPDEST DUP3 MSTORE POP POP JUMP JUMPDEST PUSH0 PUSH1 0x20 DUP3 ADD SWAP1 POP PUSH2 0x42DF PUSH0 DUP4 ADD DUP5 PUSH2 0x42BD JUMP JUMPDEST SWAP3 SWAP2 POP POP JUMP JUMPDEST PUSH0 DUP2 SWAP1 POP SWAP2 SWAP1 POP JUMP JUMPDEST PUSH0 PUSH2 0x4308 PUSH2 0x4303 PUSH2 0x42FE DUP5 PUSH2 0x42E5 JUMP JUMPDEST PUSH2 0x36D4 JUMP JUMPDEST PUSH2 0x3582 JUMP JUMPDEST SWAP1 POP SWAP2 SWAP1 POP JUMP JUMPDEST PUSH2 0x4318 DUP2 PUSH2 0x42EE JUMP JUMPDEST DUP3 MSTORE POP POP JUMP JUMPDEST PUSH0 PUSH1 0x20 DUP3 ADD SWAP1 POP PUSH2 0x4331 PUSH0 DUP4 ADD DUP5 PUSH2 0x430F JUMP JUMPDEST SWAP3 SWAP2 POP POP JUMP JUMPDEST PUSH0 PUSH1 0x40 DUP3 ADD SWAP1 POP PUSH2 0x434A PUSH0 DUP4 ADD DUP6 PUSH2 0x394C JUMP JUMPDEST PUSH2 0x4357 PUSH1 0x20 DUP4 ADD DUP5 PUSH2 0x3748 JUMP JUMPDEST SWAP4 SWAP3 POP POP POP JUMP JUMPDEST PUSH32 0x6163633120746F6B656E2062616C616E636520646964206E6F74206D61746368 PUSH0 DUP3 ADD MSTORE POP JUMP JUMPDEST PUSH0 PUSH2 0x4392 PUSH1 0x20 DUP4 PUSH2 0x3B21 JUMP JUMPDEST SWAP2 POP PUSH2 0x439D DUP3 PUSH2 0x435E JUMP JUMPDEST PUSH1 0x20 DUP3 ADD SWAP1 POP SWAP2 SWAP1 POP JUMP JUMPDEST PUSH0 PUSH1 0x60 DUP3 ADD SWAP1 POP PUSH2 0x43BB PUSH0 DUP4 ADD DUP6 PUSH2 0x3AD9 JUMP JUMPDEST PUSH2 0x43C8 PUSH1 0x20 DUP4 ADD DUP5 PUSH2 0x3D01 JUMP JUMPDEST DUP2 DUP2 SUB PUSH1 0x40 DUP4 ADD MSTORE PUSH2 0x43D9 DUP2 PUSH2 0x4386 JUMP JUMPDEST SWAP1 POP SWAP4 SWAP3 POP POP POP JUMP JUMPDEST PUSH0 PUSH1 0x60 DUP3 ADD SWAP1 POP PUSH2 0x43F5 PUSH0 DUP4 ADD DUP6 PUSH2 0x3AD9 JUMP JUMPDEST PUSH2 0x4402 PUSH1 0x20 DUP4 ADD DUP5 PUSH2 0x4010 JUMP JUMPDEST DUP2 DUP2 SUB PUSH1 0x40 DUP4 ADD MSTORE PUSH2 0x4413 DUP2 PUSH2 0x4386 JUMP JUMPDEST SWAP1 POP SWAP4 SWAP3 POP POP POP JUMP JUMPDEST PUSH32 0x6163633220746F6B656E2062616C616E636520646964206E6F74206D61746368 PUSH0 DUP3 ADD MSTORE POP JUMP JUMPDEST PUSH0 PUSH2 0x4450 PUSH1 0x20 DUP4 PUSH2 0x3B21 JUMP JUMPDEST SWAP2 POP PUSH2 0x445B DUP3 PUSH2 0x441C JUMP JUMPDEST PUSH1 0x20 DUP3 ADD SWAP1 POP SWAP2 SWAP1 POP JUMP JUMPDEST PUSH0 PUSH1 0x60 DUP3 ADD SWAP1 POP PUSH2 0x4479 PUSH0 DUP4 ADD DUP6 PUSH2 0x3AD9 JUMP JUMPDEST PUSH2 0x4486 PUSH1 0x20 DUP4 ADD DUP5 PUSH2 0x40CD JUMP JUMPDEST DUP2 DUP2 SUB PUSH1 0x40 DUP4 ADD MSTORE PUSH2 0x4497 DUP2 PUSH2 0x4444 JUMP JUMPDEST SWAP1 POP SWAP4 SWAP3 POP POP POP JUMP JUMPDEST PUSH0 PUSH2 0x44AA DUP3 PUSH2 0x3498 JUMP JUMPDEST PUSH2 0x44B4 DUP2 DUP6 PUSH2 0x3B21 JUMP JUMPDEST SWAP4 POP PUSH2 0x44C4 DUP2 DUP6 PUSH1 0x20 DUP7 ADD PUSH2 0x34B2 JUMP JUMPDEST PUSH2 0x44CD DUP2 PUSH2 0x34C0 JUMP JUMPDEST DUP5 ADD SWAP2 POP POP SWAP3 SWAP2 POP POP JUMP JUMPDEST PUSH32 0x57616C6C79546F6B656E00000000000000000000000000000000000000000000 PUSH0 DUP3 ADD MSTORE POP JUMP JUMPDEST PUSH0 PUSH2 0x450C PUSH1 0xA DUP4 PUSH2 0x3B21 JUMP JUMPDEST SWAP2 POP PUSH2 0x4517 DUP3 PUSH2 0x44D8 JUMP JUMPDEST PUSH1 0x20 DUP3 ADD SWAP1 POP SWAP2 SWAP1 POP JUMP JUMPDEST PUSH32 0x746F6B656E206E616D6520646964206E6F74206D617463680000000000000000 PUSH0 DUP3 ADD MSTORE POP JUMP JUMPDEST PUSH0 PUSH2 0x4556 PUSH1 0x18 DUP4 PUSH2 0x3B21 JUMP JUMPDEST SWAP2 POP PUSH2 0x4561 DUP3 PUSH2 0x4522 JUMP JUMPDEST PUSH1 0x20 DUP3 ADD SWAP1 POP SWAP2 SWAP1 POP JUMP JUMPDEST PUSH0 PUSH1 0x60 DUP3 ADD SWAP1 POP DUP2 DUP2 SUB PUSH0 DUP4 ADD MSTORE PUSH2 0x4584 DUP2 DUP5 PUSH2 0x44A0 JUMP JUMPDEST SWAP1 POP DUP2 DUP2 SUB PUSH1 0x20 DUP4 ADD MSTORE PUSH2 0x4597 DUP2 PUSH2 0x4500 JUMP JUMPDEST SWAP1 POP DUP2 DUP2 SUB PUSH1 0x40 DUP4 ADD MSTORE PUSH2 0x45AA DUP2 PUSH2 0x454A JUMP JUMPDEST SWAP1 POP SWAP3 SWAP2 POP POP JUMP JUMPDEST PUSH32 0x5457470000000000000000000000000000000000000000000000000000000000 PUSH0 DUP3 ADD MSTORE POP JUMP JUMPDEST PUSH0 PUSH2 0x45E6 PUSH1 0x3 DUP4 PUSH2 0x3B21 JUMP JUMPDEST SWAP2 POP PUSH2 0x45F1 DUP3 PUSH2 0x45B2 JUMP JUMPDEST PUSH1 0x20 DUP3 ADD SWAP1 POP SWAP2 SWAP1 POP JUMP JUMPDEST PUSH32 0x746F6B656E2073796D626F6C20646964206E6F74206D61746368000000000000 PUSH0 DUP3 ADD MSTORE POP JUMP JUMPDEST PUSH0 PUSH2 0x4630 PUSH1 0x1A DUP4 PUSH2 0x3B21 JUMP JUMPDEST SWAP2 POP PUSH2 0x463B DUP3 PUSH2 0x45FC JUMP JUMPDEST PUSH1 0x20 DUP3 ADD SWAP1 POP SWAP2 SWAP1 POP JUMP JUMPDEST PUSH0 PUSH1 0x60 DUP3 ADD SWAP1 POP DUP2 DUP2 SUB PUSH0 DUP4 ADD MSTORE PUSH2 0x465E DUP2 DUP5 PUSH2 0x44A0 JUMP JUMPDEST SWAP1 POP DUP2 DUP2 SUB PUSH1 0x20 DUP4 ADD MSTORE PUSH2 0x4671 DUP2 PUSH2 0x45DA JUMP JUMPDEST SWAP1 POP DUP2 DUP2 SUB PUSH1 0x40 DUP4 ADD MSTORE PUSH2 0x4684 DUP2 PUSH2 0x4624 JUMP JUMPDEST SWAP1 POP SWAP3 SWAP2 POP POP JUMP JUMPDEST PUSH0 PUSH2 0x46A6 PUSH2 0x46A1 PUSH2 0x469C DUP5 PUSH2 0x3884 JUMP JUMPDEST PUSH2 0x36D4 JUMP JUMPDEST PUSH2 0x3582 JUMP JUMPDEST SWAP1 POP SWAP2 SWAP1 POP JUMP JUMPDEST PUSH2 0x46B6 DUP2 PUSH2 0x468C JUMP JUMPDEST DUP3 MSTORE POP POP JUMP JUMPDEST PUSH0 DUP2 SWAP1 POP SWAP2 SWAP1 POP JUMP JUMPDEST PUSH0 PUSH2 0x46DF PUSH2 0x46DA PUSH2 0x46D5 DUP5 PUSH2 0x46BC JUMP JUMPDEST PUSH2 0x36D4 JUMP JUMPDEST PUSH2 0x3582 JUMP JUMPDEST SWAP1 POP SWAP2 SWAP1 POP JUMP JUMPDEST PUSH2 0x46EF DUP2 PUSH2 0x46C5 JUMP JUMPDEST DUP3 MSTORE POP POP JUMP JUMPDEST PUSH32 0x746F6B656E20646563696D616C7320646964206E6F74206D6174636800000000 PUSH0 DUP3 ADD MSTORE POP JUMP JUMPDEST PUSH0 PUSH2 0x4729 PUSH1 0x1C DUP4 PUSH2 0x3B21 JUMP JUMPDEST SWAP2 POP PUSH2 0x4734 DUP3 PUSH2 0x46F5 JUMP JUMPDEST PUSH1 0x20 DUP3 ADD SWAP1 POP SWAP2 SWAP1 POP JUMP JUMPDEST PUSH0 PUSH1 0x60 DUP3 ADD SWAP1 POP PUSH2 0x4752 PUSH0 DUP4 ADD DUP6 PUSH2 0x46AD JUMP JUMPDEST PUSH2 0x475F PUSH1 0x20 DUP4 ADD DUP5 PUSH2 0x46E6 JUMP JUMPDEST DUP2 DUP2 SUB PUSH1 0x40 DUP4 ADD MSTORE PUSH2 0x4770 DUP2 PUSH2 0x471D JUMP JUMPDEST SWAP1 POP SWAP4 SWAP3 POP POP POP JUMP JUMPDEST PUSH0 DUP2 SWAP1 POP SWAP2 SWAP1 POP JUMP JUMPDEST PUSH0 PUSH2 0x479C PUSH2 0x4797 PUSH2 0x4792 DUP5 PUSH2 0x4779 JUMP JUMPDEST PUSH2 0x36D4 JUMP JUMPDEST PUSH2 0x3582 JUMP JUMPDEST SWAP1 POP SWAP2 SWAP1 POP JUMP JUMPDEST PUSH2 0x47AC DUP2 PUSH2 0x4782 JUMP JUMPDEST DUP3 MSTORE POP POP JUMP JUMPDEST PUSH32 0x746F6B656E20737570706C792073686F756C64206265207A65726F0000000000 PUSH0 DUP3 ADD MSTORE POP JUMP JUMPDEST PUSH0 PUSH2 0x47E6 PUSH1 0x1B DUP4 PUSH2 0x3B21 JUMP JUMPDEST SWAP2 POP PUSH2 0x47F1 DUP3 PUSH2 0x47B2 JUMP JUMPDEST PUSH1 0x20 DUP3 ADD SWAP1 POP SWAP2 SWAP1 POP JUMP JUMPDEST PUSH0 PUSH1 0x60 DUP3 ADD SWAP1 POP PUSH2 0x480F PUSH0 DUP4 ADD DUP6 PUSH2 0x3AD9 JUMP JUMPDEST PUSH2 0x481C PUSH1 0x20 DUP4 ADD DUP5 PUSH2 0x47A3 JUMP JUMPDEST DUP2 DUP2 SUB PUSH1 0x40 DUP4 ADD MSTORE PUSH2 0x482D DUP2 PUSH2 0x47DA JUMP JUMPDEST SWAP1 POP SWAP4 SWAP3 POP POP POP JUMP JUMPDEST PUSH32 0x746F74616C20737570706C7920646964206E6F74206D61746368000000000000 PUSH0 DUP3 ADD MSTORE POP JUMP JUMPDEST PUSH0 PUSH2 0x486A PUSH1 0x1A DUP4 PUSH2 0x3B21 JUMP JUMPDEST SWAP2 POP PUSH2 0x4875 DUP3 PUSH2 0x4836 JUMP JUMPDEST PUSH1 0x20 DUP3 ADD SWAP1 POP SWAP2 SWAP1 POP JUMP JUMPDEST PUSH0 PUSH1 0x60 DUP3 ADD SWAP1 POP PUSH2 0x4893 PUSH0 DUP4 ADD DUP6 PUSH2 0x3AD9 JUMP JUMPDEST PUSH2 0x48A0 PUSH1 0x20 DUP4 ADD DUP5 PUSH2 0x4140 JUMP JUMPDEST DUP2 DUP2 SUB PUSH1 0x40 DUP4 ADD MSTORE PUSH2 0x48B1 DUP2 PUSH2 0x485E JUMP JUMPDEST SWAP1 POP SWAP4 SWAP3 POP POP POP JUMP JUMPDEST PUSH0 PUSH1 0xC0 DUP3 ADD SWAP1 POP PUSH2 0x48CD PUSH0 DUP4 ADD DUP10 PUSH2 0x394C JUMP JUMPDEST PUSH2 0x48DA PUSH1 0x20 DUP4 ADD DUP9 PUSH2 0x3748 JUMP JUMPDEST PUSH2 0x48E7 PUSH1 0x40 DUP4 ADD DUP8 PUSH2 0x3748 JUMP JUMPDEST PUSH2 0x48F4 PUSH1 0x60 DUP4 ADD DUP7 PUSH2 0x3748 JUMP JUMPDEST PUSH2 0x4901 PUSH1 0x80 DUP4 ADD DUP6 PUSH2 0x394C JUMP JUMPDEST PUSH2 0x490E PUSH1 0xA0 DUP4 ADD DUP5 PUSH2 0x3748 JUMP JUMPDEST SWAP8 SWAP7 POP POP POP POP POP POP POP JUMP JUMPDEST PUSH0 DUP2 MLOAD SWAP1 POP PUSH2 0x4927 DUP2 PUSH2 0x358B JUMP JUMPDEST SWAP3 SWAP2 POP POP JUMP JUMPDEST PUSH0 PUSH0 PUSH0 PUSH1 0x60 DUP5 DUP7 SUB SLT ISZERO PUSH2 0x4944 JUMPI PUSH2 0x4943 PUSH2 0x33E1 JUMP JUMPDEST JUMPDEST PUSH0 PUSH2 0x4951 DUP7 DUP3 DUP8 ADD PUSH2 0x4919 JUMP JUMPDEST SWAP4 POP POP PUSH1 0x20 PUSH2 0x4962 DUP7 DUP3 DUP8 ADD PUSH2 0x4919 JUMP JUMPDEST SWAP3 POP POP PUSH1 0x40 PUSH2 0x4973 DUP7 DUP3 DUP8 ADD PUSH2 0x4919 JUMP JUMPDEST SWAP2 POP POP SWAP3 POP SWAP3 POP SWAP3 JUMP JUMPDEST PUSH0 PUSH1 0x60 DUP3 ADD SWAP1 POP PUSH2 0x4990 PUSH0 DUP4 ADD DUP7 PUSH2 0x394C JUMP JUMPDEST PUSH2 0x499D PUSH1 0x20 DUP4 ADD DUP6 PUSH2 0x3748 JUMP JUMPDEST PUSH2 0x49AA PUSH1 0x40 DUP4 ADD DUP5 PUSH2 0x3748 JUMP JUMPDEST SWAP5 SWAP4 POP POP POP POP JUMP JUMPDEST PUSH32 0x5265656E7472616E637947756172643A207265656E7472616E742063616C6C00 PUSH0 DUP3 ADD MSTORE POP JUMP JUMPDEST PUSH0 PUSH2 0x49E6 PUSH1 0x1F DUP4 PUSH2 0x34A2 JUMP JUMPDEST SWAP2 POP PUSH2 0x49F1 DUP3 PUSH2 0x49B2 JUMP JUMPDEST PUSH1 0x20 DUP3 ADD SWAP1 POP SWAP2 SWAP1 POP JUMP JUMPDEST PUSH0 PUSH1 0x20 DUP3 ADD SWAP1 POP DUP2 DUP2 SUB PUSH0 DUP4 ADD MSTORE PUSH2 0x4A13 DUP2 PUSH2 0x49DA JUMP JUMPDEST SWAP1 POP SWAP2 SWAP1 POP JUMP JUMPDEST PUSH0 PUSH1 0x40 DUP3 ADD SWAP1 POP PUSH2 0x4A2D PUSH0 DUP4 ADD DUP6 PUSH2 0x394C JUMP JUMPDEST PUSH2 0x4A3A PUSH1 0x20 DUP4 ADD DUP5 PUSH2 0x381E JUMP JUMPDEST SWAP4 SWAP3 POP POP POP JUMP JUMPDEST PUSH32 0x4E487B7100000000000000000000000000000000000000000000000000000000 PUSH0 MSTORE PUSH1 0x11 PUSH1 0x4 MSTORE PUSH1 0x24 PUSH0 REVERT JUMPDEST PUSH0 PUSH2 0x4A78 DUP3 PUSH2 0x3582 JUMP JUMPDEST SWAP2 POP PUSH2 0x4A83 DUP4 PUSH2 0x3582 JUMP JUMPDEST SWAP3 POP DUP3 DUP3 ADD SWAP1 POP DUP1 DUP3 GT ISZERO PUSH2 0x4A9B JUMPI PUSH2 0x4A9A PUSH2 0x4A41 JUMP JUMPDEST JUMPDEST SWAP3 SWAP2 POP POP JUMP INVALID LOG2 PUSH5 0x6970667358 0x22 SLT KECCAK256 CREATE2 0xBE STATICCALL OR SUB 0xBC SELFDESTRUCT PUSH5 0xD60C2E89BA 0xD4 BLOCKHASH 0x1F TSTORE 0xF 0xE4 0xC4 0xEF NUMBER DELEGATECALL 0xFC PUSH20 0x387F0D899B907D64736F6C634300081C00330000 "
		},
		"gasEstimates": {
			"creation": {
				"codeDepositCost": "3831800",
				"executionCost": "infinite",
				"totalCost": "infinite"
			},
			"external": {
				"ADMIN_ROLE()": "415",
				"BURNER_ROLE()": "394",
				"DAO_ADDRESS()": "461",
				"DEFAULT_ADMIN_ROLE()": "418",
				"INITIAL_SUPPLY()": "393",
				"MINTER_ROLE()": "436",
				"addLiquidityETH(address,uint256,uint256,uint256,uint256)": "infinite",
				"allowance(address,address)": "infinite",
				"approve(address,uint256)": "infinite",
				"balanceOf(address)": "2896",
				"beforeAll()": "infinite",
				"blacklist(address)": "2965",
				"burn(uint256)": "infinite",
				"cooldownEnabled()": "2599",
				"cooldownTime()": "2493",
				"decimals()": "428",
				"failTestTokenApproveForZeroSpenderAddress()": "630",
				"failTestTokenMintingForZeroAddress()": "521",
				"failTestTokenMintingWithWrongOwner()": "infinite",
				"failTestTokenTransferMoreThanBalance()": "infinite",
				"failTestTokenTransferToZeroAddress()": "626",
				"failTestTokenTransferfromForMoreThanAllowance()": "infinite",
				"failTestTokenTransferfromForZeroToAddress()": "infinite",
				"getRoleAdmin(bytes32)": "infinite",
				"grantRole(bytes32,address)": "infinite",
				"hasRole(bytes32,address)": "3211",
				"lastTxTimestamp(address)": "2891",
				"launchBlock()": "2514",
				"maxTxAmount()": "2493",
				"mint(address,uint256)": "infinite",
				"name()": "infinite",
				"renounceRole(bytes32,address)": "infinite",
				"rescueETH(address,uint256)": "infinite",
				"rescueTokens(address,uint256,address)": "infinite",
				"revokeRole(bytes32,address)": "infinite",
				"setBlacklist(address,bool)": "infinite",
				"setCooldownConfig(bool,uint256)": "infinite",
				"setMaxTxAmount(uint256)": "infinite",
				"setSniperProtection(bool,uint256)": "infinite",
				"setTradingEnabled(bool)": "infinite",
				"snipeBlocks()": "2516",
				"sniperProtectionEnabled()": "2533",
				"supportsInterface(bytes4)": "787",
				"symbol()": "infinite",
				"testTokenApprove()": "infinite",
				"testTokenInitialValues()": "infinite",
				"testTokenMinting()": "infinite",
				"testTokenTransfer()": "infinite",
				"testTokenTransferToOtherAddress()": "infinite",
				"testTokenTransferfrom()": "infinite",
				"testTotalSupply()": "infinite",
				"totalSupply()": "2500",
				"tradingEnabled()": "2586",
				"transfer(address,uint256)": "infinite",
				"transferFrom(address,address,uint256)": "infinite",
				"uniswapV2Pair()": "2641",
				"uniswapV2Router()": "infinite"
			}
		},
		"methodIdentifiers": {
			"ADMIN_ROLE()": "75b238fc",
			"BURNER_ROLE()": "282c51f3",
			"DAO_ADDRESS()": "f68ded66",
			"DEFAULT_ADMIN_ROLE()": "a217fddf",
			"INITIAL_SUPPLY()": "2ff2e9dc",
			"MINTER_ROLE()": "d5391393",
			"addLiquidityETH(address,uint256,uint256,uint256,uint256)": "f6f1e306",
			"allowance(address,address)": "dd62ed3e",
			"approve(address,uint256)": "095ea7b3",
			"balanceOf(address)": "70a08231",
			"beforeAll()": "7fea0d4b",
			"blacklist(address)": "f9f92be4",
			"burn(uint256)": "42966c68",
			"cooldownEnabled()": "a985ceef",
			"cooldownTime()": "b319c6b7",
			"decimals()": "313ce567",
			"failTestTokenApproveForZeroSpenderAddress()": "0c81877c",
			"failTestTokenMintingForZeroAddress()": "3da0b6db",
			"failTestTokenMintingWithWrongOwner()": "3649a96c",
			"failTestTokenTransferMoreThanBalance()": "1f5ee31c",
			"failTestTokenTransferToZeroAddress()": "03c33d5b",
			"failTestTokenTransferfromForMoreThanAllowance()": "679d4b31",
			"failTestTokenTransferfromForZeroToAddress()": "f18299eb",
			"getRoleAdmin(bytes32)": "248a9ca3",
			"grantRole(bytes32,address)": "2f2ff15d",
			"hasRole(bytes32,address)": "91d14854",
			"lastTxTimestamp(address)": "4551bbe9",
			"launchBlock()": "d00efb2f",
			"maxTxAmount()": "8c0b5e22",
			"mint(address,uint256)": "40c10f19",
			"name()": "06fdde03",
			"renounceRole(bytes32,address)": "36568abe",
			"rescueETH(address,uint256)": "099a04e5",
			"rescueTokens(address,uint256,address)": "b37fd190",
			"revokeRole(bytes32,address)": "d547741f",
			"setBlacklist(address,bool)": "153b0d1e",
			"setCooldownConfig(bool,uint256)": "48fca59d",
			"setMaxTxAmount(uint256)": "ec28438a",
			"setSniperProtection(bool,uint256)": "89900603",
			"setTradingEnabled(bool)": "c2e5ec04",
			"snipeBlocks()": "2be29fa8",
			"sniperProtectionEnabled()": "963472f9",
			"supportsInterface(bytes4)": "01ffc9a7",
			"symbol()": "95d89b41",
			"testTokenApprove()": "06fe1e88",
			"testTokenInitialValues()": "dc881d1c",
			"testTokenMinting()": "7052454e",
			"testTokenTransfer()": "0647b375",
			"testTokenTransferToOtherAddress()": "bc7035f1",
			"testTokenTransferfrom()": "36284ce0",
			"testTotalSupply()": "eb7492d1",
			"totalSupply()": "18160ddd",
			"tradingEnabled()": "4ada218b",
			"transfer(address,uint256)": "a9059cbb",
			"transferFrom(address,address,uint256)": "23b872dd",
			"uniswapV2Pair()": "49bd5a5e",
			"uniswapV2Router()": "1694505e"
		}
	},
	"abi": [
		{
			"inputs": [],
			"stateMutability": "nonpayable",
			"type": "constructor"
		},
		{
			"inputs": [],
			"name": "AccessControlBadConfirmation",
			"type": "error"
		},
		{
			"inputs": [
				{
					"internalType": "address",
					"name": "account",
					"type": "address"
				},
				{
					"internalType": "bytes32",
					"name": "neededRole",
					"type": "bytes32"
				}
			],
			"name": "AccessControlUnauthorizedAccount",
			"type": "error"
		},
		{
			"inputs": [
				{
					"internalType": "address",
					"name": "spender",
					"type": "address"
				},
				{
					"internalType": "uint256",
					"name": "allowance",
					"type": "uint256"
				},
				{
					"internalType": "uint256",
					"name": "needed",
					"type": "uint256"
				}
			],
			"name": "ERC20InsufficientAllowance",
			"type": "error"
		},
		{
			"inputs": [
				{
					"internalType": "address",
					"name": "sender",
					"type": "address"
				},
				{
					"internalType": "uint256",
					"name": "balance",
					"type": "uint256"
				},
				{
					"internalType": "uint256",
					"name": "needed",
					"type": "uint256"
				}
			],
			"name": "ERC20InsufficientBalance",
			"type": "error"
		},
		{
			"inputs": [
				{
					"internalType": "address",
					"name": "approver",
					"type": "address"
				}
			],
			"name": "ERC20InvalidApprover",
			"type": "error"
		},
		{
			"inputs": [
				{
					"internalType": "address",
					"name": "receiver",
					"type": "address"
				}
			],
			"name": "ERC20InvalidReceiver",
			"type": "error"
		},
		{
			"inputs": [
				{
					"internalType": "address",
					"name": "sender",
					"type": "address"
				}
			],
			"name": "ERC20InvalidSender",
			"type": "error"
		},
		{
			"inputs": [
				{
					"internalType": "address",
					"name": "spender",
					"type": "address"
				}
			],
			"name": "ERC20InvalidSpender",
			"type": "error"
		},
		{
			"anonymous": false,
			"inputs": [
				{
					"indexed": true,
					"internalType": "address",
					"name": "owner",
					"type": "address"
				},
				{
					"indexed": true,
					"internalType": "address",
					"name": "spender",
					"type": "address"
				},
				{
					"indexed": false,
					"internalType": "uint256",
					"name": "value",
					"type": "uint256"
				}
			],
			"name": "Approval",
			"type": "event"
		},
		{
			"anonymous": false,
			"inputs": [
				{
					"indexed": true,
					"internalType": "address",
					"name": "account",
					"type": "address"
				},
				{
					"indexed": false,
					"internalType": "bool",
					"name": "isBlacklisted",
					"type": "bool"
				}
			],
			"name": "Blacklisted",
			"type": "event"
		},
		{
			"anonymous": false,
			"inputs": [
				{
					"indexed": false,
					"internalType": "bool",
					"name": "enabled",
					"type": "bool"
				},
				{
					"indexed": false,
					"internalType": "uint256",
					"name": "cooldownTime",
					"type": "uint256"
				}
			],
			"name": "CooldownUpdated",
			"type": "event"
		},
		{
			"anonymous": false,
			"inputs": [
				{
					"indexed": false,
					"internalType": "uint256",
					"name": "newMaxTx",
					"type": "uint256"
				}
			],
			"name": "MaxTxAmountUpdated",
			"type": "event"
		},
		{
			"anonymous": false,
			"inputs": [
				{
					"indexed": true,
					"internalType": "bytes32",
					"name": "role",
					"type": "bytes32"
				},
				{
					"indexed": true,
					"internalType": "bytes32",
					"name": "previousAdminRole",
					"type": "bytes32"
				},
				{
					"indexed": true,
					"internalType": "bytes32",
					"name": "newAdminRole",
					"type": "bytes32"
				}
			],
			"name": "RoleAdminChanged",
			"type": "event"
		},
		{
			"anonymous": false,
			"inputs": [
				{
					"indexed": true,
					"internalType": "bytes32",
					"name": "role",
					"type": "bytes32"
				},
				{
					"indexed": true,
					"internalType": "address",
					"name": "account",
					"type": "address"
				},
				{
					"indexed": true,
					"internalType": "address",
					"name": "sender",
					"type": "address"
				}
			],
			"name": "RoleGranted",
			"type": "event"
		},
		{
			"anonymous": false,
			"inputs": [
				{
					"indexed": true,
					"internalType": "bytes32",
					"name": "role",
					"type": "bytes32"
				},
				{
					"indexed": true,
					"internalType": "address",
					"name": "account",
					"type": "address"
				},
				{
					"indexed": true,
					"internalType": "address",
					"name": "sender",
					"type": "address"
				}
			],
			"name": "RoleRevoked",
			"type": "event"
		},
		{
			"anonymous": false,
			"inputs": [
				{
					"indexed": false,
					"internalType": "bool",
					"name": "enabled",
					"type": "bool"
				},
				{
					"indexed": false,
					"internalType": "uint256",
					"name": "snipeBlocks",
					"type": "uint256"
				}
			],
			"name": "SniperProtectionUpdated",
			"type": "event"
		},
		{
			"anonymous": false,
			"inputs": [
				{
					"indexed": false,
					"internalType": "bool",
					"name": "enabled",
					"type": "bool"
				}
			],
			"name": "TradingEnabled",
			"type": "event"
		},
		{
			"anonymous": false,
			"inputs": [
				{
					"indexed": true,
					"internalType": "address",
					"name": "from",
					"type": "address"
				},
				{
					"indexed": true,
					"internalType": "address",
					"name": "to",
					"type": "address"
				},
				{
					"indexed": false,
					"internalType": "uint256",
					"name": "value",
					"type": "uint256"
				}
			],
			"name": "Transfer",
			"type": "event"
		},
		{
			"inputs": [],
			"name": "ADMIN_ROLE",
			"outputs": [
				{
					"internalType": "bytes32",
					"name": "",
					"type": "bytes32"
				}
			],
			"stateMutability": "view",
			"type": "function"
		},
		{
			"inputs": [],
			"name": "BURNER_ROLE",
			"outputs": [
				{
					"internalType": "bytes32",
					"name": "",
					"type": "bytes32"
				}
			],
			"stateMutability": "view",
			"type": "function"
		},
		{
			"inputs": [],
			"name": "DAO_ADDRESS",
			"outputs": [
				{
					"internalType": "address",
					"name": "",
					"type": "address"
				}
			],
			"stateMutability": "view",
			"type": "function"
		},
		{
			"inputs": [],
			"name": "DEFAULT_ADMIN_ROLE",
			"outputs": [
				{
					"internalType": "bytes32",
					"name": "",
					"type": "bytes32"
				}
			],
			"stateMutability": "view",
			"type": "function"
		},
		{
			"inputs": [],
			"name": "INITIAL_SUPPLY",
			"outputs": [
				{
					"internalType": "uint256",
					"name": "",
					"type": "uint256"
				}
			],
			"stateMutability": "view",
			"type": "function"
		},
		{
			"inputs": [],
			"name": "MINTER_ROLE",
			"outputs": [
				{
					"internalType": "bytes32",
					"name": "",
					"type": "bytes32"
				}
			],
			"stateMutability": "view",
			"type": "function"
		},
		{
			"inputs": [
				{
					"internalType": "address",
					"name": "to",
					"type": "address"
				},
				{
					"internalType": "uint256",
					"name": "tokenAmountIn",
					"type": "uint256"
				},
				{
					"internalType": "uint256",
					"name": "tokenAmountMin",
					"type": "uint256"
				},
				{
					"internalType": "uint256",
					"name": "ethAmountMin",
					"type": "uint256"
				},
				{
					"internalType": "uint256",
					"name": "deadline",
					"type": "uint256"
				}
			],
			"name": "addLiquidityETH",
			"outputs": [
				{
					"internalType": "uint256",
					"name": "amountToken",
					"type": "uint256"
				},
				{
					"internalType": "uint256",
					"name": "amountETH",
					"type": "uint256"
				},
				{
					"internalType": "uint256",
					"name": "liquidity",
					"type": "uint256"
				}
			],
			"stateMutability": "payable",
			"type": "function"
		},
		{
			"inputs": [
				{
					"internalType": "address",
					"name": "owner",
					"type": "address"
				},
				{
					"internalType": "address",
					"name": "spender",
					"type": "address"
				}
			],
			"name": "allowance",
			"outputs": [
				{
					"internalType": "uint256",
					"name": "",
					"type": "uint256"
				}
			],
			"stateMutability": "view",
			"type": "function"
		},
		{
			"inputs": [
				{
					"internalType": "address",
					"name": "spender",
					"type": "address"
				},
				{
					"internalType": "uint256",
					"name": "value",
					"type": "uint256"
				}
			],
			"name": "approve",
			"outputs": [
				{
					"internalType": "bool",
					"name": "",
					"type": "bool"
				}
			],
			"stateMutability": "nonpayable",
			"type": "function"
		},
		{
			"inputs": [
				{
					"internalType": "address",
					"name": "account",
					"type": "address"
				}
			],
			"name": "balanceOf",
			"outputs": [
				{
					"internalType": "uint256",
					"name": "",
					"type": "uint256"
				}
			],
			"stateMutability": "view",
			"type": "function"
		},
		{
			"inputs": [],
			"name": "beforeAll",
			"outputs": [],
			"stateMutability": "nonpayable",
			"type": "function"
		},
		{
			"inputs": [
				{
					"internalType": "address",
					"name": "",
					"type": "address"
				}
			],
			"name": "blacklist",
			"outputs": [
				{
					"internalType": "bool",
					"name": "",
					"type": "bool"
				}
			],
			"stateMutability": "view",
			"type": "function"
		},
		{
			"inputs": [
				{
					"internalType": "uint256",
					"name": "amount",
					"type": "uint256"
				}
			],
			"name": "burn",
			"outputs": [],
			"stateMutability": "nonpayable",
			"type": "function"
		},
		{
			"inputs": [],
			"name": "cooldownEnabled",
			"outputs": [
				{
					"internalType": "bool",
					"name": "",
					"type": "bool"
				}
			],
			"stateMutability": "view",
			"type": "function"
		},
		{
			"inputs": [],
			"name": "cooldownTime",
			"outputs": [
				{
					"internalType": "uint256",
					"name": "",
					"type": "uint256"
				}
			],
			"stateMutability": "view",
			"type": "function"
		},
		{
			"inputs": [],
			"name": "decimals",
			"outputs": [
				{
					"internalType": "uint8",
					"name": "",
					"type": "uint8"
				}
			],
			"stateMutability": "view",
			"type": "function"
		},
		{
			"inputs": [],
			"name": "failTestTokenApproveForZeroSpenderAddress",
			"outputs": [],
			"stateMutability": "nonpayable",
			"type": "function"
		},
		{
			"inputs": [],
			"name": "failTestTokenMintingForZeroAddress",
			"outputs": [],
			"stateMutability": "nonpayable",
			"type": "function"
		},
		{
			"inputs": [],
			"name": "failTestTokenMintingWithWrongOwner",
			"outputs": [],
			"stateMutability": "nonpayable",
			"type": "function"
		},
		{
			"inputs": [],
			"name": "failTestTokenTransferMoreThanBalance",
			"outputs": [],
			"stateMutability": "nonpayable",
			"type": "function"
		},
		{
			"inputs": [],
			"name": "failTestTokenTransferToZeroAddress",
			"outputs": [],
			"stateMutability": "nonpayable",
			"type": "function"
		},
		{
			"inputs": [],
			"name": "failTestTokenTransferfromForMoreThanAllowance",
			"outputs": [],
			"stateMutability": "nonpayable",
			"type": "function"
		},
		{
			"inputs": [],
			"name": "failTestTokenTransferfromForZeroToAddress",
			"outputs": [],
			"stateMutability": "nonpayable",
			"type": "function"
		},
		{
			"inputs": [
				{
					"internalType": "bytes32",
					"name": "role",
					"type": "bytes32"
				}
			],
			"name": "getRoleAdmin",
			"outputs": [
				{
					"internalType": "bytes32",
					"name": "",
					"type": "bytes32"
				}
			],
			"stateMutability": "view",
			"type": "function"
		},
		{
			"inputs": [
				{
					"internalType": "bytes32",
					"name": "role",
					"type": "bytes32"
				},
				{
					"internalType": "address",
					"name": "account",
					"type": "address"
				}
			],
			"name": "grantRole",
			"outputs": [],
			"stateMutability": "nonpayable",
			"type": "function"
		},
		{
			"inputs": [
				{
					"internalType": "bytes32",
					"name": "role",
					"type": "bytes32"
				},
				{
					"internalType": "address",
					"name": "account",
					"type": "address"
				}
			],
			"name": "hasRole",
			"outputs": [
				{
					"internalType": "bool",
					"name": "",
					"type": "bool"
				}
			],
			"stateMutability": "view",
			"type": "function"
		},
		{
			"inputs": [
				{
					"internalType": "address",
					"name": "",
					"type": "address"
				}
			],
			"name": "lastTxTimestamp",
			"outputs": [
				{
					"internalType": "uint256",
					"name": "",
					"type": "uint256"
				}
			],
			"stateMutability": "view",
			"type": "function"
		},
		{
			"inputs": [],
			"name": "launchBlock",
			"outputs": [
				{
					"internalType": "uint256",
					"name": "",
					"type": "uint256"
				}
			],
			"stateMutability": "view",
			"type": "function"
		},
		{
			"inputs": [],
			"name": "maxTxAmount",
			"outputs": [
				{
					"internalType": "uint256",
					"name": "",
					"type": "uint256"
				}
			],
			"stateMutability": "view",
			"type": "function"
		},
		{
			"inputs": [
				{
					"internalType": "address",
					"name": "to",
					"type": "address"
				},
				{
					"internalType": "uint256",
					"name": "amount",
					"type": "uint256"
				}
			],
			"name": "mint",
			"outputs": [],
			"stateMutability": "nonpayable",
			"type": "function"
		},
		{
			"inputs": [],
			"name": "name",
			"outputs": [
				{
					"internalType": "string",
					"name": "",
					"type": "string"
				}
			],
			"stateMutability": "view",
			"type": "function"
		},
		{
			"inputs": [
				{
					"internalType": "bytes32",
					"name": "role",
					"type": "bytes32"
				},
				{
					"internalType": "address",
					"name": "callerConfirmation",
					"type": "address"
				}
			],
			"name": "renounceRole",
			"outputs": [],
			"stateMutability": "nonpayable",
			"type": "function"
		},
		{
			"inputs": [
				{
					"internalType": "address payable",
					"name": "to",
					"type": "address"
				},
				{
					"internalType": "uint256",
					"name": "amount",
					"type": "uint256"
				}
			],
			"name": "rescueETH",
			"outputs": [],
			"stateMutability": "nonpayable",
			"type": "function"
		},
		{
			"inputs": [
				{
					"internalType": "address",
					"name": "tokenAddress",
					"type": "address"
				},
				{
					"internalType": "uint256",
					"name": "amount",
					"type": "uint256"
				},
				{
					"internalType": "address",
					"name": "to",
					"type": "address"
				}
			],
			"name": "rescueTokens",
			"outputs": [],
			"stateMutability": "nonpayable",
			"type": "function"
		},
		{
			"inputs": [
				{
					"internalType": "bytes32",
					"name": "role",
					"type": "bytes32"
				},
				{
					"internalType": "address",
					"name": "account",
					"type": "address"
				}
			],
			"name": "revokeRole",
			"outputs": [],
			"stateMutability": "nonpayable",
			"type": "function"
		},
		{
			"inputs": [
				{
					"internalType": "address",
					"name": "account",
					"type": "address"
				},
				{
					"internalType": "bool",
					"name": "isBlacklisted",
					"type": "bool"
				}
			],
			"name": "setBlacklist",
			"outputs": [],
			"stateMutability": "nonpayable",
			"type": "function"
		},
		{
			"inputs": [
				{
					"internalType": "bool",
					"name": "_enabled",
					"type": "bool"
				},
				{
					"internalType": "uint256",
					"name": "_cooldownTime",
					"type": "uint256"
				}
			],
			"name": "setCooldownConfig",
			"outputs": [],
			"stateMutability": "nonpayable",
			"type": "function"
		},
		{
			"inputs": [
				{
					"internalType": "uint256",
					"name": "_maxTxAmount",
					"type": "uint256"
				}
			],
			"name": "setMaxTxAmount",
			"outputs": [],
			"stateMutability": "nonpayable",
			"type": "function"
		},
		{
			"inputs": [
				{
					"internalType": "bool",
					"name": "_enabled",
					"type": "bool"
				},
				{
					"internalType": "uint256",
					"name": "_snipeBlocks",
					"type": "uint256"
				}
			],
			"name": "setSniperProtection",
			"outputs": [],
			"stateMutability": "nonpayable",
			"type": "function"
		},
		{
			"inputs": [
				{
					"internalType": "bool",
					"name": "_enabled",
					"type": "bool"
				}
			],
			"name": "setTradingEnabled",
			"outputs": [],
			"stateMutability": "nonpayable",
			"type": "function"
		},
		{
			"inputs": [],
			"name": "snipeBlocks",
			"outputs": [
				{
					"internalType": "uint256",
					"name": "",
					"type": "uint256"
				}
			],
			"stateMutability": "view",
			"type": "function"
		},
		{
			"inputs": [],
			"name": "sniperProtectionEnabled",
			"outputs": [
				{
					"internalType": "bool",
					"name": "",
					"type": "bool"
				}
			],
			"stateMutability": "view",
			"type": "function"
		},
		{
			"inputs": [
				{
					"internalType": "bytes4",
					"name": "interfaceId",
					"type": "bytes4"
				}
			],
			"name": "supportsInterface",
			"outputs": [
				{
					"internalType": "bool",
					"name": "",
					"type": "bool"
				}
			],
			"stateMutability": "view",
			"type": "function"
		},
		{
			"inputs": [],
			"name": "symbol",
			"outputs": [
				{
					"internalType": "string",
					"name": "",
					"type": "string"
				}
			],
			"stateMutability": "view",
			"type": "function"
		},
		{
			"inputs": [],
			"name": "testTokenApprove",
			"outputs": [],
			"stateMutability": "nonpayable",
			"type": "function"
		},
		{
			"inputs": [],
			"name": "testTokenInitialValues",
			"outputs": [],
			"stateMutability": "nonpayable",
			"type": "function"
		},
		{
			"inputs": [],
			"name": "testTokenMinting",
			"outputs": [],
			"stateMutability": "nonpayable",
			"type": "function"
		},
		{
			"inputs": [],
			"name": "testTokenTransfer",
			"outputs": [],
			"stateMutability": "nonpayable",
			"type": "function"
		},
		{
			"inputs": [],
			"name": "testTokenTransferToOtherAddress",
			"outputs": [],
			"stateMutability": "nonpayable",
			"type": "function"
		},
		{
			"inputs": [],
			"name": "testTokenTransferfrom",
			"outputs": [],
			"stateMutability": "nonpayable",
			"type": "function"
		},
		{
			"inputs": [],
			"name": "testTotalSupply",
			"outputs": [],
			"stateMutability": "nonpayable",
			"type": "function"
		},
		{
			"inputs": [],
			"name": "totalSupply",
			"outputs": [
				{
					"internalType": "uint256",
					"name": "",
					"type": "uint256"
				}
			],
			"stateMutability": "view",
			"type": "function"
		},
		{
			"inputs": [],
			"name": "tradingEnabled",
			"outputs": [
				{
					"internalType": "bool",
					"name": "",
					"type": "bool"
				}
			],
			"stateMutability": "view",
			"type": "function"
		},
		{
			"inputs": [
				{
					"internalType": "address",
					"name": "to",
					"type": "address"
				},
				{
					"internalType": "uint256",
					"name": "value",
					"type": "uint256"
				}
			],
			"name": "transfer",
			"outputs": [
				{
					"internalType": "bool",
					"name": "",
					"type": "bool"
				}
			],
			"stateMutability": "nonpayable",
			"type": "function"
		},
		{
			"inputs": [
				{
					"internalType": "address",
					"name": "from",
					"type": "address"
				},
				{
					"internalType": "address",
					"name": "to",
					"type": "address"
				},
				{
					"internalType": "uint256",
					"name": "value",
					"type": "uint256"
				}
			],
			"name": "transferFrom",
			"outputs": [
				{
					"internalType": "bool",
					"name": "",
					"type": "bool"
				}
			],
			"stateMutability": "nonpayable",
			"type": "function"
		},
		{
			"inputs": [],
			"name": "uniswapV2Pair",
			"outputs": [
				{
					"internalType": "address",
					"name": "",
					"type": "address"
				}
			],
			"stateMutability": "view",
			"type": "function"
		},
		{
			"inputs": [],
			"name": "uniswapV2Router",
			"outputs": [
				{
					"internalType": "contract IUniswapV2Router02",
					"name": "",
					"type": "address"
				}
			],
			"stateMutability": "view",
			"type": "function"
		},
		{
			"stateMutability": "payable",
			"type": "receive"
		}
	]
}