{
	"contracts/WallyStaking.sol": {
		"WallyStaking": {
			"abi": [
				{
					"inputs": [
						{
							"internalType": "address",
							"name": "_wallyToken",
							"type": "address"
						},
						{
							"internalType": "address",
							"name": "_admin",
							"type": "address"
						}
					],
					"stateMutability": "nonpayable",
					"type": "constructor"
				},
				{
					"inputs": [],
					"name": "AccessControlBadConfirmation",
					"type": "error"
				},
				{
					"inputs": [
						{
							"internalType": "address",
							"name": "account",
							"type": "address"
						},
						{
							"internalType": "bytes32",
							"name": "neededRole",
							"type": "bytes32"
						}
					],
					"name": "AccessControlUnauthorizedAccount",
					"type": "error"
				},
				{
					"anonymous": false,
					"inputs": [
						{
							"indexed": true,
							"internalType": "bytes32",
							"name": "role",
							"type": "bytes32"
						},
						{
							"indexed": true,
							"internalType": "bytes32",
							"name": "previousAdminRole",
							"type": "bytes32"
						},
						{
							"indexed": true,
							"internalType": "bytes32",
							"name": "newAdminRole",
							"type": "bytes32"
						}
					],
					"name": "RoleAdminChanged",
					"type": "event"
				},
				{
					"anonymous": false,
					"inputs": [
						{
							"indexed": true,
							"internalType": "bytes32",
							"name": "role",
							"type": "bytes32"
						},
						{
							"indexed": true,
							"internalType": "address",
							"name": "account",
							"type": "address"
						},
						{
							"indexed": true,
							"internalType": "address",
							"name": "sender",
							"type": "address"
						}
					],
					"name": "RoleGranted",
					"type": "event"
				},
				{
					"anonymous": false,
					"inputs": [
						{
							"indexed": true,
							"internalType": "bytes32",
							"name": "role",
							"type": "bytes32"
						},
						{
							"indexed": true,
							"internalType": "address",
							"name": "account",
							"type": "address"
						},
						{
							"indexed": true,
							"internalType": "address",
							"name": "sender",
							"type": "address"
						}
					],
					"name": "RoleRevoked",
					"type": "event"
				},
				{
					"anonymous": false,
					"inputs": [
						{
							"indexed": true,
							"internalType": "address",
							"name": "user",
							"type": "address"
						},
						{
							"indexed": false,
							"internalType": "uint256",
							"name": "amount",
							"type": "uint256"
						},
						{
							"indexed": false,
							"internalType": "uint256",
							"name": "lockDuration",
							"type": "uint256"
						},
						{
							"indexed": false,
							"internalType": "uint256",
							"name": "apy",
							"type": "uint256"
						}
					],
					"name": "Staked",
					"type": "event"
				},
				{
					"anonymous": false,
					"inputs": [
						{
							"indexed": true,
							"internalType": "address",
							"name": "user",
							"type": "address"
						},
						{
							"indexed": false,
							"internalType": "uint256",
							"name": "stakeIndex",
							"type": "uint256"
						},
						{
							"indexed": false,
							"internalType": "uint256",
							"name": "reward",
							"type": "uint256"
						}
					],
					"name": "Withdrawn",
					"type": "event"
				},
				{
					"inputs": [],
					"name": "ADMIN_ROLE",
					"outputs": [
						{
							"internalType": "bytes32",
							"name": "",
							"type": "bytes32"
						}
					],
					"stateMutability": "view",
					"type": "function"
				},
				{
					"inputs": [],
					"name": "DEFAULT_ADMIN_ROLE",
					"outputs": [
						{
							"internalType": "bytes32",
							"name": "",
							"type": "bytes32"
						}
					],
					"stateMutability": "view",
					"type": "function"
				},
				{
					"inputs": [],
					"name": "LOCK_12_MONTHS",
					"outputs": [
						{
							"internalType": "uint256",
							"name": "",
							"type": "uint256"
						}
					],
					"stateMutability": "view",
					"type": "function"
				},
				{
					"inputs": [],
					"name": "LOCK_3_MONTHS",
					"outputs": [
						{
							"internalType": "uint256",
							"name": "",
							"type": "uint256"
						}
					],
					"stateMutability": "view",
					"type": "function"
				},
				{
					"inputs": [],
					"name": "LOCK_6_MONTHS",
					"outputs": [
						{
							"internalType": "uint256",
							"name": "",
							"type": "uint256"
						}
					],
					"stateMutability": "view",
					"type": "function"
				},
				{
					"inputs": [],
					"name": "apy12Months",
					"outputs": [
						{
							"internalType": "uint256",
							"name": "",
							"type": "uint256"
						}
					],
					"stateMutability": "view",
					"type": "function"
				},
				{
					"inputs": [],
					"name": "apy3Months",
					"outputs": [
						{
							"internalType": "uint256",
							"name": "",
							"type": "uint256"
						}
					],
					"stateMutability": "view",
					"type": "function"
				},
				{
					"inputs": [],
					"name": "apy6Months",
					"outputs": [
						{
							"internalType": "uint256",
							"name": "",
							"type": "uint256"
						}
					],
					"stateMutability": "view",
					"type": "function"
				},
				{
					"inputs": [
						{
							"internalType": "bytes32",
							"name": "role",
							"type": "bytes32"
						}
					],
					"name": "getRoleAdmin",
					"outputs": [
						{
							"internalType": "bytes32",
							"name": "",
							"type": "bytes32"
						}
					],
					"stateMutability": "view",
					"type": "function"
				},
				{
					"inputs": [
						{
							"internalType": "bytes32",
							"name": "role",
							"type": "bytes32"
						},
						{
							"internalType": "address",
							"name": "account",
							"type": "address"
						}
					],
					"name": "grantRole",
					"outputs": [],
					"stateMutability": "nonpayable",
					"type": "function"
				},
				{
					"inputs": [
						{
							"internalType": "bytes32",
							"name": "role",
							"type": "bytes32"
						},
						{
							"internalType": "address",
							"name": "account",
							"type": "address"
						}
					],
					"name": "hasRole",
					"outputs": [
						{
							"internalType": "bool",
							"name": "",
							"type": "bool"
						}
					],
					"stateMutability": "view",
					"type": "function"
				},
				{
					"inputs": [
						{
							"internalType": "bytes32",
							"name": "role",
							"type": "bytes32"
						},
						{
							"internalType": "address",
							"name": "callerConfirmation",
							"type": "address"
						}
					],
					"name": "renounceRole",
					"outputs": [],
					"stateMutability": "nonpayable",
					"type": "function"
				},
				{
					"inputs": [
						{
							"internalType": "address",
							"name": "tokenAddress",
							"type": "address"
						},
						{
							"internalType": "uint256",
							"name": "amount",
							"type": "uint256"
						},
						{
							"internalType": "address",
							"name": "to",
							"type": "address"
						}
					],
					"name": "rescueTokens",
					"outputs": [],
					"stateMutability": "nonpayable",
					"type": "function"
				},
				{
					"inputs": [
						{
							"internalType": "bytes32",
							"name": "role",
							"type": "bytes32"
						},
						{
							"internalType": "address",
							"name": "account",
							"type": "address"
						}
					],
					"name": "revokeRole",
					"outputs": [],
					"stateMutability": "nonpayable",
					"type": "function"
				},
				{
					"inputs": [
						{
							"internalType": "uint256",
							"name": "_apy3",
							"type": "uint256"
						},
						{
							"internalType": "uint256",
							"name": "_apy6",
							"type": "uint256"
						},
						{
							"internalType": "uint256",
							"name": "_apy12",
							"type": "uint256"
						}
					],
					"name": "setAPYs",
					"outputs": [],
					"stateMutability": "nonpayable",
					"type": "function"
				},
				{
					"inputs": [
						{
							"internalType": "uint256",
							"name": "amount",
							"type": "uint256"
						},
						{
							"internalType": "uint256",
							"name": "lockChoice",
							"type": "uint256"
						}
					],
					"name": "stake",
					"outputs": [],
					"stateMutability": "nonpayable",
					"type": "function"
				},
				{
					"inputs": [
						{
							"internalType": "address",
							"name": "",
							"type": "address"
						},
						{
							"internalType": "uint256",
							"name": "",
							"type": "uint256"
						}
					],
					"name": "stakes",
					"outputs": [
						{
							"internalType": "uint256",
							"name": "amount",
							"type": "uint256"
						},
						{
							"internalType": "uint256",
							"name": "startTimestamp",
							"type": "uint256"
						},
						{
							"internalType": "uint256",
							"name": "lockDuration",
							"type": "uint256"
						},
						{
							"internalType": "uint256",
							"name": "apy",
							"type": "uint256"
						},
						{
							"internalType": "bool",
							"name": "withdrawn",
							"type": "bool"
						}
					],
					"stateMutability": "view",
					"type": "function"
				},
				{
					"inputs": [
						{
							"internalType": "bytes4",
							"name": "interfaceId",
							"type": "bytes4"
						}
					],
					"name": "supportsInterface",
					"outputs": [
						{
							"internalType": "bool",
							"name": "",
							"type": "bool"
						}
					],
					"stateMutability": "view",
					"type": "function"
				},
				{
					"inputs": [],
					"name": "wallyToken",
					"outputs": [
						{
							"internalType": "contract IERC20",
							"name": "",
							"type": "address"
						}
					],
					"stateMutability": "view",
					"type": "function"
				},
				{
					"inputs": [
						{
							"internalType": "uint256",
							"name": "stakeIndex",
							"type": "uint256"
						}
					],
					"name": "withdraw",
					"outputs": [],
					"stateMutability": "nonpayable",
					"type": "function"
				}
			],
			"devdoc": {
				"details": "Users can stake Wally Tokens for fixed durations (3, 6, or 12 months) to earn rewards. APY-based reward: reward = principal * (apyBps/10000) * (timeStaked / 365 days) IMPORTANT: - This contract must be funded with enough TWG to cover principal + rewards. - The DAO or an admin can set APYs, rescue leftover tokens, etc.",
				"errors": {
					"AccessControlBadConfirmation()": [
						{
							"details": "The caller of a function is not the expected one. NOTE: Don't confuse with {AccessControlUnauthorizedAccount}."
						}
					],
					"AccessControlUnauthorizedAccount(address,bytes32)": [
						{
							"details": "The `account` is missing a role."
						}
					]
				},
				"events": {
					"RoleAdminChanged(bytes32,bytes32,bytes32)": {
						"details": "Emitted when `newAdminRole` is set as ``role``'s admin role, replacing `previousAdminRole` `DEFAULT_ADMIN_ROLE` is the starting admin for all roles, despite {RoleAdminChanged} not being emitted signaling this."
					},
					"RoleGranted(bytes32,address,address)": {
						"details": "Emitted when `account` is granted `role`. `sender` is the account that originated the contract call. This account bears the admin role (for the granted role). Expected in cases where the role was granted using the internal {AccessControl-_grantRole}."
					},
					"RoleRevoked(bytes32,address,address)": {
						"details": "Emitted when `account` is revoked `role`. `sender` is the account that originated the contract call:   - if using `revokeRole`, it is the admin role bearer   - if using `renounceRole`, it is the role bearer (i.e. `account`)"
					}
				},
				"kind": "dev",
				"methods": {
					"getRoleAdmin(bytes32)": {
						"details": "Returns the admin role that controls `role`. See {grantRole} and {revokeRole}. To change a role's admin, use {_setRoleAdmin}."
					},
					"grantRole(bytes32,address)": {
						"details": "Grants `role` to `account`. If `account` had not been already granted `role`, emits a {RoleGranted} event. Requirements: - the caller must have ``role``'s admin role. May emit a {RoleGranted} event."
					},
					"hasRole(bytes32,address)": {
						"details": "Returns `true` if `account` has been granted `role`."
					},
					"renounceRole(bytes32,address)": {
						"details": "Revokes `role` from the calling account. Roles are often managed via {grantRole} and {revokeRole}: this function's purpose is to provide a mechanism for accounts to lose their privileges if they are compromised (such as when a trusted device is misplaced). If the calling account had been revoked `role`, emits a {RoleRevoked} event. Requirements: - the caller must be `callerConfirmation`. May emit a {RoleRevoked} event."
					},
					"rescueTokens(address,uint256,address)": {
						"details": "Rescue any leftover tokens. Useful if random tokens are sent by mistake."
					},
					"revokeRole(bytes32,address)": {
						"details": "Revokes `role` from `account`. If `account` had been granted `role`, emits a {RoleRevoked} event. Requirements: - the caller must have ``role``'s admin role. May emit a {RoleRevoked} event."
					},
					"stake(uint256,uint256)": {
						"details": "Stake a specific `amount` of TWG for one of the fixed durations (3,6,12 months)."
					},
					"supportsInterface(bytes4)": {
						"details": "See {IERC165-supportsInterface}."
					},
					"withdraw(uint256)": {
						"details": "Withdraw staked tokens + reward after lock period ends."
					}
				},
				"title": "WallyStaking",
				"version": 1
			},
			"evm": {
				"assembly": "    /* \"contracts/WallyStaking.sol\":615:5404  contract WallyStaking is AccessControl, ReentrancyGuard {... */\n  mstore(0x40, 0xa0)\n    /* \"contracts/WallyStaking.sol\":1075:1078  500 */\n  0x01f4\n    /* \"contracts/WallyStaking.sol\":1047:1078  uint256 public apy3Months = 500 */\n  0x02\n  sstore\n    /* \"contracts/WallyStaking.sol\":1121:1125  1000 */\n  0x03e8\n    /* \"contracts/WallyStaking.sol\":1093:1125  uint256 public apy6Months = 1000 */\n  0x03\n  sstore\n    /* \"contracts/WallyStaking.sol\":1169:1173  1500 */\n  0x05dc\n    /* \"contracts/WallyStaking.sol\":1140:1173  uint256 public apy12Months = 1500 */\n  0x04\n  sstore\n    /* \"contracts/WallyStaking.sol\":1623:1895  constructor(address _wallyToken, address _admin) {... */\n  callvalue\n  dup1\n  iszero\n  tag_1\n  jumpi\n  revert(0x00, 0x00)\ntag_1:\n  pop\n  mload(0x40)\n  sub(codesize, bytecodeSize)\n  dup1\n  bytecodeSize\n  dup4\n  codecopy\n  dup2\n  dup2\n  add\n  0x40\n  mstore\n  dup2\n  add\n  swap1\n  tag_2\n  swap2\n  swap1\n  tag_3\n  jump\t// in\ntag_2:\n    /* \"@openzeppelin/contracts/security/ReentrancyGuard.sol\":1716:1717  1 */\n  0x01\n    /* \"@openzeppelin/contracts/security/ReentrancyGuard.sol\":1821:1828  _status */\n  dup1\n    /* \"@openzeppelin/contracts/security/ReentrancyGuard.sol\":1821:1843  _status = _NOT_ENTERED */\n  dup2\n  swap1\n  sstore\n  pop\n    /* \"contracts/WallyStaking.sol\":1713:1714  0 */\n  0x00\n    /* \"contracts/WallyStaking.sol\":1690:1715  _wallyToken != address(0) */\n  0xffffffffffffffffffffffffffffffffffffffff\n  and\n    /* \"contracts/WallyStaking.sol\":1690:1701  _wallyToken */\n  dup3\n    /* \"contracts/WallyStaking.sol\":1690:1715  _wallyToken != address(0) */\n  0xffffffffffffffffffffffffffffffffffffffff\n  and\n  sub\n    /* \"contracts/WallyStaking.sol\":1682:1741  require(_wallyToken != address(0), \"Invalid token address\") */\n  tag_8\n  jumpi\n  mload(0x40)\n  0x08c379a000000000000000000000000000000000000000000000000000000000\n  dup2\n  mstore\n  0x04\n  add\n  tag_9\n  swap1\n  tag_10\n  jump\t// in\ntag_9:\n  mload(0x40)\n  dup1\n  swap2\n  sub\n  swap1\n  revert\ntag_8:\n    /* \"contracts/WallyStaking.sol\":1777:1778  0 */\n  0x00\n    /* \"contracts/WallyStaking.sol\":1759:1779  _admin != address(0) */\n  0xffffffffffffffffffffffffffffffffffffffff\n  and\n    /* \"contracts/WallyStaking.sol\":1759:1765  _admin */\n  dup2\n    /* \"contracts/WallyStaking.sol\":1759:1779  _admin != address(0) */\n  0xffffffffffffffffffffffffffffffffffffffff\n  and\n  sub\n    /* \"contracts/WallyStaking.sol\":1751:1805  require(_admin != address(0), \"Invalid admin address\") */\n  tag_11\n  jumpi\n  mload(0x40)\n  0x08c379a000000000000000000000000000000000000000000000000000000000\n  dup2\n  mstore\n  0x04\n  add\n  tag_12\n  swap1\n  tag_13\n  jump\t// in\ntag_12:\n  mload(0x40)\n  dup1\n  swap2\n  sub\n  swap1\n  revert\ntag_11:\n    /* \"contracts/WallyStaking.sol\":1836:1847  _wallyToken */\n  dup2\n    /* \"contracts/WallyStaking.sol\":1816:1848  wallyToken = IERC20(_wallyToken) */\n  0xffffffffffffffffffffffffffffffffffffffff\n  and\n  0x80\n  dup2\n  0xffffffffffffffffffffffffffffffffffffffff\n  and\n  dup2\n  mstore\n  pop\n  pop\n    /* \"contracts/WallyStaking.sol\":1858:1888  _grantRole(ADMIN_ROLE, _admin) */\n  tag_14\n    /* \"contracts/WallyStaking.sol\":714:737  keccak256(\"ADMIN_ROLE\") */\n  0xa49807205ce4d355092ef5a8a18f56e8913cf4a201fbe287825b095693c21775\n    /* \"contracts/WallyStaking.sol\":1881:1887  _admin */\n  dup3\n    /* \"contracts/WallyStaking.sol\":1858:1868  _grantRole */\n  shl(0x20, tag_15)\n    /* \"contracts/WallyStaking.sol\":1858:1888  _grantRole(ADMIN_ROLE, _admin) */\n  0x20\n  shr\n  jump\t// in\ntag_14:\n  pop\n    /* \"contracts/WallyStaking.sol\":1623:1895  constructor(address _wallyToken, address _admin) {... */\n  pop\n  pop\n    /* \"contracts/WallyStaking.sol\":615:5404  contract WallyStaking is AccessControl, ReentrancyGuard {... */\n  jump(tag_16)\n    /* \"@openzeppelin/contracts/access/AccessControl.sol\":6179:6495  function _grantRole(bytes32 role, address account) internal virtual returns (bool) {... */\ntag_15:\n    /* \"@openzeppelin/contracts/access/AccessControl.sol\":6256:6260  bool */\n  0x00\n    /* \"@openzeppelin/contracts/access/AccessControl.sol\":6277:6299  hasRole(role, account) */\n  tag_18\n    /* \"@openzeppelin/contracts/access/AccessControl.sol\":6285:6289  role */\n  dup4\n    /* \"@openzeppelin/contracts/access/AccessControl.sol\":6291:6298  account */\n  dup4\n    /* \"@openzeppelin/contracts/access/AccessControl.sol\":6277:6284  hasRole */\n  shl(0x20, tag_19)\n    /* \"@openzeppelin/contracts/access/AccessControl.sol\":6277:6299  hasRole(role, account) */\n  0x20\n  shr\n  jump\t// in\ntag_18:\n    /* \"@openzeppelin/contracts/access/AccessControl.sol\":6272:6489  if (!hasRole(role, account)) {... */\n  tag_20\n  jumpi\n    /* \"@openzeppelin/contracts/access/AccessControl.sol\":6347:6351  true */\n  0x01\n    /* \"@openzeppelin/contracts/access/AccessControl.sol\":6315:6321  _roles */\n  0x00\n    /* \"@openzeppelin/contracts/access/AccessControl.sol\":6315:6327  _roles[role] */\n  0x00\n    /* \"@openzeppelin/contracts/access/AccessControl.sol\":6322:6326  role */\n  dup6\n    /* \"@openzeppelin/contracts/access/AccessControl.sol\":6315:6327  _roles[role] */\n  dup2\n  mstore\n  0x20\n  add\n  swap1\n  dup2\n  mstore\n  0x20\n  add\n  0x00\n  keccak256\n    /* \"@openzeppelin/contracts/access/AccessControl.sol\":6315:6335  _roles[role].hasRole */\n  0x00\n  add\n    /* \"@openzeppelin/contracts/access/AccessControl.sol\":6315:6344  _roles[role].hasRole[account] */\n  0x00\n    /* \"@openzeppelin/contracts/access/AccessControl.sol\":6336:6343  account */\n  dup5\n    /* \"@openzeppelin/contracts/access/AccessControl.sol\":6315:6344  _roles[role].hasRole[account] */\n  0xffffffffffffffffffffffffffffffffffffffff\n  and\n  0xffffffffffffffffffffffffffffffffffffffff\n  and\n  dup2\n  mstore\n  0x20\n  add\n  swap1\n  dup2\n  mstore\n  0x20\n  add\n  0x00\n  keccak256\n  0x00\n    /* \"@openzeppelin/contracts/access/AccessControl.sol\":6315:6351  _roles[role].hasRole[account] = true */\n  0x0100\n  exp\n  dup2\n  sload\n  dup2\n  0xff\n  mul\n  not\n  and\n  swap1\n  dup4\n  iszero\n  iszero\n  mul\n  or\n  swap1\n  sstore\n  pop\n    /* \"@openzeppelin/contracts/access/AccessControl.sol\":6397:6409  _msgSender() */\n  tag_21\n    /* \"@openzeppelin/contracts/access/AccessControl.sol\":6397:6407  _msgSender */\n  shl(0x20, tag_22)\n    /* \"@openzeppelin/contracts/access/AccessControl.sol\":6397:6409  _msgSender() */\n  0x20\n  shr\n  jump\t// in\ntag_21:\n    /* \"@openzeppelin/contracts/access/AccessControl.sol\":6370:6410  RoleGranted(role, account, _msgSender()) */\n  0xffffffffffffffffffffffffffffffffffffffff\n  and\n    /* \"@openzeppelin/contracts/access/AccessControl.sol\":6388:6395  account */\n  dup3\n    /* \"@openzeppelin/contracts/access/AccessControl.sol\":6370:6410  RoleGranted(role, account, _msgSender()) */\n  0xffffffffffffffffffffffffffffffffffffffff\n  and\n    /* \"@openzeppelin/contracts/access/AccessControl.sol\":6382:6386  role */\n  dup5\n    /* \"@openzeppelin/contracts/access/AccessControl.sol\":6370:6410  RoleGranted(role, account, _msgSender()) */\n  0x2f8788117e7eff1d82e926ec794901d17c78024a50270940304540a733656f0d\n  mload(0x40)\n  mload(0x40)\n  dup1\n  swap2\n  sub\n  swap1\n  log4\n    /* \"@openzeppelin/contracts/access/AccessControl.sol\":6431:6435  true */\n  0x01\n    /* \"@openzeppelin/contracts/access/AccessControl.sol\":6424:6435  return true */\n  swap1\n  pop\n  jump(tag_17)\n    /* \"@openzeppelin/contracts/access/AccessControl.sol\":6272:6489  if (!hasRole(role, account)) {... */\ntag_20:\n    /* \"@openzeppelin/contracts/access/AccessControl.sol\":6473:6478  false */\n  0x00\n    /* \"@openzeppelin/contracts/access/AccessControl.sol\":6466:6478  return false */\n  swap1\n  pop\n    /* \"@openzeppelin/contracts/access/AccessControl.sol\":6179:6495  function _grantRole(bytes32 role, address account) internal virtual returns (bool) {... */\ntag_17:\n  swap3\n  swap2\n  pop\n  pop\n  jump\t// out\n    /* \"@openzeppelin/contracts/access/AccessControl.sol\":2854:2990  function hasRole(bytes32 role, address account) public view virtual returns (bool) {... */\ntag_19:\n    /* \"@openzeppelin/contracts/access/AccessControl.sol\":2931:2935  bool */\n  0x00\n    /* \"@openzeppelin/contracts/access/AccessControl.sol\":2954:2960  _roles */\n  0x00\n    /* \"@openzeppelin/contracts/access/AccessControl.sol\":2954:2966  _roles[role] */\n  0x00\n    /* \"@openzeppelin/contracts/access/AccessControl.sol\":2961:2965  role */\n  dup5\n    /* \"@openzeppelin/contracts/access/AccessControl.sol\":2954:2966  _roles[role] */\n  dup2\n  mstore\n  0x20\n  add\n  swap1\n  dup2\n  mstore\n  0x20\n  add\n  0x00\n  keccak256\n    /* \"@openzeppelin/contracts/access/AccessControl.sol\":2954:2974  _roles[role].hasRole */\n  0x00\n  add\n    /* \"@openzeppelin/contracts/access/AccessControl.sol\":2954:2983  _roles[role].hasRole[account] */\n  0x00\n    /* \"@openzeppelin/contracts/access/AccessControl.sol\":2975:2982  account */\n  dup4\n    /* \"@openzeppelin/contracts/access/AccessControl.sol\":2954:2983  _roles[role].hasRole[account] */\n  0xffffffffffffffffffffffffffffffffffffffff\n  and\n  0xffffffffffffffffffffffffffffffffffffffff\n  and\n  dup2\n  mstore\n  0x20\n  add\n  swap1\n  dup2\n  mstore\n  0x20\n  add\n  0x00\n  keccak256\n  0x00\n  swap1\n  sload\n  swap1\n  0x0100\n  exp\n  swap1\n  div\n  0xff\n  and\n    /* \"@openzeppelin/contracts/access/AccessControl.sol\":2947:2983  return _roles[role].hasRole[account] */\n  swap1\n  pop\n    /* \"@openzeppelin/contracts/access/AccessControl.sol\":2854:2990  function hasRole(bytes32 role, address account) public view virtual returns (bool) {... */\n  swap3\n  swap2\n  pop\n  pop\n  jump\t// out\n    /* \"@openzeppelin/contracts/utils/Context.sol\":656:752  function _msgSender() internal view virtual returns (address) {... */\ntag_22:\n    /* \"@openzeppelin/contracts/utils/Context.sol\":709:716  address */\n  0x00\n    /* \"@openzeppelin/contracts/utils/Context.sol\":735:745  msg.sender */\n  caller\n    /* \"@openzeppelin/contracts/utils/Context.sol\":728:745  return msg.sender */\n  swap1\n  pop\n    /* \"@openzeppelin/contracts/utils/Context.sol\":656:752  function _msgSender() internal view virtual returns (address) {... */\n  swap1\n  jump\t// out\n    /* \"#utility.yul\":88:205   */\ntag_27:\n    /* \"#utility.yul\":197:198   */\n  0x00\n    /* \"#utility.yul\":194:195   */\n  0x00\n    /* \"#utility.yul\":187:199   */\n  revert\n    /* \"#utility.yul\":334:460   */\ntag_29:\n    /* \"#utility.yul\":371:378   */\n  0x00\n    /* \"#utility.yul\":411:453   */\n  0xffffffffffffffffffffffffffffffffffffffff\n    /* \"#utility.yul\":404:409   */\n  dup3\n    /* \"#utility.yul\":400:454   */\n  and\n    /* \"#utility.yul\":389:454   */\n  swap1\n  pop\n    /* \"#utility.yul\":334:460   */\n  swap2\n  swap1\n  pop\n  jump\t// out\n    /* \"#utility.yul\":466:562   */\ntag_30:\n    /* \"#utility.yul\":503:510   */\n  0x00\n    /* \"#utility.yul\":532:556   */\n  tag_44\n    /* \"#utility.yul\":550:555   */\n  dup3\n    /* \"#utility.yul\":532:556   */\n  tag_29\n  jump\t// in\ntag_44:\n    /* \"#utility.yul\":521:556   */\n  swap1\n  pop\n    /* \"#utility.yul\":466:562   */\n  swap2\n  swap1\n  pop\n  jump\t// out\n    /* \"#utility.yul\":568:690   */\ntag_31:\n    /* \"#utility.yul\":641:665   */\n  tag_46\n    /* \"#utility.yul\":659:664   */\n  dup2\n    /* \"#utility.yul\":641:665   */\n  tag_30\n  jump\t// in\ntag_46:\n    /* \"#utility.yul\":634:639   */\n  dup2\n    /* \"#utility.yul\":631:666   */\n  eq\n    /* \"#utility.yul\":621:684   */\n  tag_47\n  jumpi\n    /* \"#utility.yul\":680:681   */\n  0x00\n    /* \"#utility.yul\":677:678   */\n  0x00\n    /* \"#utility.yul\":670:682   */\n  revert\n    /* \"#utility.yul\":621:684   */\ntag_47:\n    /* \"#utility.yul\":568:690   */\n  pop\n  jump\t// out\n    /* \"#utility.yul\":696:839   */\ntag_32:\n    /* \"#utility.yul\":753:758   */\n  0x00\n    /* \"#utility.yul\":784:790   */\n  dup2\n    /* \"#utility.yul\":778:791   */\n  mload\n    /* \"#utility.yul\":769:791   */\n  swap1\n  pop\n    /* \"#utility.yul\":800:833   */\n  tag_49\n    /* \"#utility.yul\":827:832   */\n  dup2\n    /* \"#utility.yul\":800:833   */\n  tag_31\n  jump\t// in\ntag_49:\n    /* \"#utility.yul\":696:839   */\n  swap3\n  swap2\n  pop\n  pop\n  jump\t// out\n    /* \"#utility.yul\":845:1352   */\ntag_3:\n    /* \"#utility.yul\":924:930   */\n  0x00\n    /* \"#utility.yul\":932:938   */\n  0x00\n    /* \"#utility.yul\":981:983   */\n  0x40\n    /* \"#utility.yul\":969:978   */\n  dup4\n    /* \"#utility.yul\":960:967   */\n  dup6\n    /* \"#utility.yul\":956:979   */\n  sub\n    /* \"#utility.yul\":952:984   */\n  slt\n    /* \"#utility.yul\":949:1068   */\n  iszero\n  tag_51\n  jumpi\n    /* \"#utility.yul\":987:1066   */\n  tag_52\n  tag_27\n  jump\t// in\ntag_52:\n    /* \"#utility.yul\":949:1068   */\ntag_51:\n    /* \"#utility.yul\":1107:1108   */\n  0x00\n    /* \"#utility.yul\":1132:1196   */\n  tag_53\n    /* \"#utility.yul\":1188:1195   */\n  dup6\n    /* \"#utility.yul\":1179:1185   */\n  dup3\n    /* \"#utility.yul\":1168:1177   */\n  dup7\n    /* \"#utility.yul\":1164:1186   */\n  add\n    /* \"#utility.yul\":1132:1196   */\n  tag_32\n  jump\t// in\ntag_53:\n    /* \"#utility.yul\":1122:1196   */\n  swap3\n  pop\n    /* \"#utility.yul\":1078:1206   */\n  pop\n    /* \"#utility.yul\":1245:1247   */\n  0x20\n    /* \"#utility.yul\":1271:1335   */\n  tag_54\n    /* \"#utility.yul\":1327:1334   */\n  dup6\n    /* \"#utility.yul\":1318:1324   */\n  dup3\n    /* \"#utility.yul\":1307:1316   */\n  dup7\n    /* \"#utility.yul\":1303:1325   */\n  add\n    /* \"#utility.yul\":1271:1335   */\n  tag_32\n  jump\t// in\ntag_54:\n    /* \"#utility.yul\":1261:1335   */\n  swap2\n  pop\n    /* \"#utility.yul\":1216:1345   */\n  pop\n    /* \"#utility.yul\":845:1352   */\n  swap3\n  pop\n  swap3\n  swap1\n  pop\n  jump\t// out\n    /* \"#utility.yul\":1358:1527   */\ntag_33:\n    /* \"#utility.yul\":1442:1453   */\n  0x00\n    /* \"#utility.yul\":1476:1482   */\n  dup3\n    /* \"#utility.yul\":1471:1474   */\n  dup3\n    /* \"#utility.yul\":1464:1483   */\n  mstore\n    /* \"#utility.yul\":1516:1520   */\n  0x20\n    /* \"#utility.yul\":1511:1514   */\n  dup3\n    /* \"#utility.yul\":1507:1521   */\n  add\n    /* \"#utility.yul\":1492:1521   */\n  swap1\n  pop\n    /* \"#utility.yul\":1358:1527   */\n  swap3\n  swap2\n  pop\n  pop\n  jump\t// out\n    /* \"#utility.yul\":1533:1704   */\ntag_34:\n    /* \"#utility.yul\":1673:1696   */\n  0x496e76616c696420746f6b656e20616464726573730000000000000000000000\n    /* \"#utility.yul\":1669:1670   */\n  0x00\n    /* \"#utility.yul\":1661:1667   */\n  dup3\n    /* \"#utility.yul\":1657:1671   */\n  add\n    /* \"#utility.yul\":1650:1697   */\n  mstore\n    /* \"#utility.yul\":1533:1704   */\n  pop\n  jump\t// out\n    /* \"#utility.yul\":1710:2076   */\ntag_35:\n    /* \"#utility.yul\":1852:1855   */\n  0x00\n    /* \"#utility.yul\":1873:1940   */\n  tag_58\n    /* \"#utility.yul\":1937:1939   */\n  0x15\n    /* \"#utility.yul\":1932:1935   */\n  dup4\n    /* \"#utility.yul\":1873:1940   */\n  tag_33\n  jump\t// in\ntag_58:\n    /* \"#utility.yul\":1866:1940   */\n  swap2\n  pop\n    /* \"#utility.yul\":1949:2042   */\n  tag_59\n    /* \"#utility.yul\":2038:2041   */\n  dup3\n    /* \"#utility.yul\":1949:2042   */\n  tag_34\n  jump\t// in\ntag_59:\n    /* \"#utility.yul\":2067:2069   */\n  0x20\n    /* \"#utility.yul\":2062:2065   */\n  dup3\n    /* \"#utility.yul\":2058:2070   */\n  add\n    /* \"#utility.yul\":2051:2070   */\n  swap1\n  pop\n    /* \"#utility.yul\":1710:2076   */\n  swap2\n  swap1\n  pop\n  jump\t// out\n    /* \"#utility.yul\":2082:2501   */\ntag_10:\n    /* \"#utility.yul\":2248:2252   */\n  0x00\n    /* \"#utility.yul\":2286:2288   */\n  0x20\n    /* \"#utility.yul\":2275:2284   */\n  dup3\n    /* \"#utility.yul\":2271:2289   */\n  add\n    /* \"#utility.yul\":2263:2289   */\n  swap1\n  pop\n    /* \"#utility.yul\":2335:2344   */\n  dup2\n    /* \"#utility.yul\":2329:2333   */\n  dup2\n    /* \"#utility.yul\":2325:2345   */\n  sub\n    /* \"#utility.yul\":2321:2322   */\n  0x00\n    /* \"#utility.yul\":2310:2319   */\n  dup4\n    /* \"#utility.yul\":2306:2323   */\n  add\n    /* \"#utility.yul\":2299:2346   */\n  mstore\n    /* \"#utility.yul\":2363:2494   */\n  tag_61\n    /* \"#utility.yul\":2489:2493   */\n  dup2\n    /* \"#utility.yul\":2363:2494   */\n  tag_35\n  jump\t// in\ntag_61:\n    /* \"#utility.yul\":2355:2494   */\n  swap1\n  pop\n    /* \"#utility.yul\":2082:2501   */\n  swap2\n  swap1\n  pop\n  jump\t// out\n    /* \"#utility.yul\":2507:2678   */\ntag_36:\n    /* \"#utility.yul\":2647:2670   */\n  0x496e76616c69642061646d696e20616464726573730000000000000000000000\n    /* \"#utility.yul\":2643:2644   */\n  0x00\n    /* \"#utility.yul\":2635:2641   */\n  dup3\n    /* \"#utility.yul\":2631:2645   */\n  add\n    /* \"#utility.yul\":2624:2671   */\n  mstore\n    /* \"#utility.yul\":2507:2678   */\n  pop\n  jump\t// out\n    /* \"#utility.yul\":2684:3050   */\ntag_37:\n    /* \"#utility.yul\":2826:2829   */\n  0x00\n    /* \"#utility.yul\":2847:2914   */\n  tag_64\n    /* \"#utility.yul\":2911:2913   */\n  0x15\n    /* \"#utility.yul\":2906:2909   */\n  dup4\n    /* \"#utility.yul\":2847:2914   */\n  tag_33\n  jump\t// in\ntag_64:\n    /* \"#utility.yul\":2840:2914   */\n  swap2\n  pop\n    /* \"#utility.yul\":2923:3016   */\n  tag_65\n    /* \"#utility.yul\":3012:3015   */\n  dup3\n    /* \"#utility.yul\":2923:3016   */\n  tag_36\n  jump\t// in\ntag_65:\n    /* \"#utility.yul\":3041:3043   */\n  0x20\n    /* \"#utility.yul\":3036:3039   */\n  dup3\n    /* \"#utility.yul\":3032:3044   */\n  add\n    /* \"#utility.yul\":3025:3044   */\n  swap1\n  pop\n    /* \"#utility.yul\":2684:3050   */\n  swap2\n  swap1\n  pop\n  jump\t// out\n    /* \"#utility.yul\":3056:3475   */\ntag_13:\n    /* \"#utility.yul\":3222:3226   */\n  0x00\n    /* \"#utility.yul\":3260:3262   */\n  0x20\n    /* \"#utility.yul\":3249:3258   */\n  dup3\n    /* \"#utility.yul\":3245:3263   */\n  add\n    /* \"#utility.yul\":3237:3263   */\n  swap1\n  pop\n    /* \"#utility.yul\":3309:3318   */\n  dup2\n    /* \"#utility.yul\":3303:3307   */\n  dup2\n    /* \"#utility.yul\":3299:3319   */\n  sub\n    /* \"#utility.yul\":3295:3296   */\n  0x00\n    /* \"#utility.yul\":3284:3293   */\n  dup4\n    /* \"#utility.yul\":3280:3297   */\n  add\n    /* \"#utility.yul\":3273:3320   */\n  mstore\n    /* \"#utility.yul\":3337:3468   */\n  tag_67\n    /* \"#utility.yul\":3463:3467   */\n  dup2\n    /* \"#utility.yul\":3337:3468   */\n  tag_37\n  jump\t// in\ntag_67:\n    /* \"#utility.yul\":3329:3468   */\n  swap1\n  pop\n    /* \"#utility.yul\":3056:3475   */\n  swap2\n  swap1\n  pop\n  jump\t// out\n    /* \"contracts/WallyStaking.sol\":615:5404  contract WallyStaking is AccessControl, ReentrancyGuard {... */\ntag_16:\n  mload(0x80)\n  codecopy(0x00, dataOffset(sub_0), dataSize(sub_0))\n  0x00\n  assignImmutable(\"0x84a03125b104c11968e358d5f682f85e2d800fa6885d3315fc7e189cab9d099b\")\n  return(0x00, dataSize(sub_0))\nstop\n\nsub_0: assembly {\n        /* \"contracts/WallyStaking.sol\":615:5404  contract WallyStaking is AccessControl, ReentrancyGuard {... */\n      mstore(0x40, 0x80)\n      callvalue\n      dup1\n      iszero\n      tag_1\n      jumpi\n      revert(0x00, 0x00)\n    tag_1:\n      pop\n      jumpi(tag_2, lt(calldatasize, 0x04))\n      shr(0xe0, calldataload(0x00))\n      dup1\n      0x75b238fc\n      gt\n      tag_23\n      jumpi\n      dup1\n      0xb37fd190\n      gt\n      tag_24\n      jumpi\n      dup1\n      0xb37fd190\n      eq\n      tag_18\n      jumpi\n      dup1\n      0xc0a9c35d\n      eq\n      tag_19\n      jumpi\n      dup1\n      0xd547741f\n      eq\n      tag_20\n      jumpi\n      dup1\n      0xf09823c3\n      eq\n      tag_21\n      jumpi\n      dup1\n      0xfbcacca7\n      eq\n      tag_22\n      jumpi\n      jump(tag_2)\n    tag_24:\n      dup1\n      0x75b238fc\n      eq\n      tag_13\n      jumpi\n      dup1\n      0x765ef4cc\n      eq\n      tag_14\n      jumpi\n      dup1\n      0x7b0472f0\n      eq\n      tag_15\n      jumpi\n      dup1\n      0x91d14854\n      eq\n      tag_16\n      jumpi\n      dup1\n      0xa217fddf\n      eq\n      tag_17\n      jumpi\n      jump(tag_2)\n    tag_23:\n      dup1\n      0x2f2ff15d\n      gt\n      tag_25\n      jumpi\n      dup1\n      0x2f2ff15d\n      eq\n      tag_8\n      jumpi\n      dup1\n      0x33803860\n      eq\n      tag_9\n      jumpi\n      dup1\n      0x36568abe\n      eq\n      tag_10\n      jumpi\n      dup1\n      0x584b62a1\n      eq\n      tag_11\n      jumpi\n      dup1\n      0x5bf42fb4\n      eq\n      tag_12\n      jumpi\n      jump(tag_2)\n    tag_25:\n      dup1\n      0x01ffc9a7\n      eq\n      tag_3\n      jumpi\n      dup1\n      0x0e033dc5\n      eq\n      tag_4\n      jumpi\n      dup1\n      0x11149445\n      eq\n      tag_5\n      jumpi\n      dup1\n      0x248a9ca3\n      eq\n      tag_6\n      jumpi\n      dup1\n      0x2e1a7d4d\n      eq\n      tag_7\n      jumpi\n    tag_2:\n      revert(0x00, 0x00)\n        /* \"@openzeppelin/contracts/access/AccessControl.sol\":2565:2767  function supportsInterface(bytes4 interfaceId) public view virtual override returns (bool) {... */\n    tag_3:\n      tag_26\n      0x04\n      dup1\n      calldatasize\n      sub\n      dup2\n      add\n      swap1\n      tag_27\n      swap2\n      swap1\n      tag_28\n      jump\t// in\n    tag_27:\n      tag_29\n      jump\t// in\n    tag_26:\n      mload(0x40)\n      tag_30\n      swap2\n      swap1\n      tag_31\n      jump\t// in\n    tag_30:\n      mload(0x40)\n      dup1\n      swap2\n      sub\n      swap1\n      return\n        /* \"contracts/WallyStaking.sol\":763:797  IERC20 public immutable wallyToken */\n    tag_4:\n      tag_32\n      tag_33\n      jump\t// in\n    tag_32:\n      mload(0x40)\n      tag_34\n      swap2\n      swap1\n      tag_35\n      jump\t// in\n    tag_34:\n      mload(0x40)\n      dup1\n      swap2\n      sub\n      swap1\n      return\n        /* \"contracts/WallyStaking.sol\":839:886  uint256 public constant LOCK_3_MONTHS = 90 days */\n    tag_5:\n      tag_36\n      tag_37\n      jump\t// in\n    tag_36:\n      mload(0x40)\n      tag_38\n      swap2\n      swap1\n      tag_39\n      jump\t// in\n    tag_38:\n      mload(0x40)\n      dup1\n      swap2\n      sub\n      swap1\n      return\n        /* \"@openzeppelin/contracts/access/AccessControl.sol\":3810:3930  function getRoleAdmin(bytes32 role) public view virtual returns (bytes32) {... */\n    tag_6:\n      tag_40\n      0x04\n      dup1\n      calldatasize\n      sub\n      dup2\n      add\n      swap1\n      tag_41\n      swap2\n      swap1\n      tag_42\n      jump\t// in\n    tag_41:\n      tag_43\n      jump\t// in\n    tag_40:\n      mload(0x40)\n      tag_44\n      swap2\n      swap1\n      tag_45\n      jump\t// in\n    tag_44:\n      mload(0x40)\n      dup1\n      swap2\n      sub\n      swap1\n      return\n        /* \"contracts/WallyStaking.sol\":2889:3851  function withdraw(uint256 stakeIndex) external nonReentrant {... */\n    tag_7:\n      tag_46\n      0x04\n      dup1\n      calldatasize\n      sub\n      dup2\n      add\n      swap1\n      tag_47\n      swap2\n      swap1\n      tag_48\n      jump\t// in\n    tag_47:\n      tag_49\n      jump\t// in\n    tag_46:\n      stop\n        /* \"@openzeppelin/contracts/access/AccessControl.sol\":4226:4362  function grantRole(bytes32 role, address account) public virtual onlyRole(getRoleAdmin(role)) {... */\n    tag_8:\n      tag_50\n      0x04\n      dup1\n      calldatasize\n      sub\n      dup2\n      add\n      swap1\n      tag_51\n      swap2\n      swap1\n      tag_52\n      jump\t// in\n    tag_51:\n      tag_53\n      jump\t// in\n    tag_50:\n      stop\n        /* \"contracts/WallyStaking.sol\":946:995  uint256 public constant LOCK_12_MONTHS = 365 days */\n    tag_9:\n      tag_54\n      tag_55\n      jump\t// in\n    tag_54:\n      mload(0x40)\n      tag_56\n      swap2\n      swap1\n      tag_39\n      jump\t// in\n    tag_56:\n      mload(0x40)\n      dup1\n      swap2\n      sub\n      swap1\n      return\n        /* \"@openzeppelin/contracts/access/AccessControl.sol\":5328:5573  function renounceRole(bytes32 role, address callerConfirmation) public virtual {... */\n    tag_10:\n      tag_57\n      0x04\n      dup1\n      calldatasize\n      sub\n      dup2\n      add\n      swap1\n      tag_58\n      swap2\n      swap1\n      tag_52\n      jump\t// in\n    tag_58:\n      tag_59\n      jump\t// in\n    tag_57:\n      stop\n        /* \"contracts/WallyStaking.sol\":1400:1445  mapping(address => StakeInfo[]) public stakes */\n    tag_11:\n      tag_60\n      0x04\n      dup1\n      calldatasize\n      sub\n      dup2\n      add\n      swap1\n      tag_61\n      swap2\n      swap1\n      tag_62\n      jump\t// in\n    tag_61:\n      tag_63\n      jump\t// in\n    tag_60:\n      mload(0x40)\n      tag_64\n      swap6\n      swap5\n      swap4\n      swap3\n      swap2\n      swap1\n      tag_65\n      jump\t// in\n    tag_64:\n      mload(0x40)\n      dup1\n      swap2\n      sub\n      swap1\n      return\n        /* \"contracts/WallyStaking.sol\":1093:1125  uint256 public apy6Months = 1000 */\n    tag_12:\n      tag_66\n      tag_67\n      jump\t// in\n    tag_66:\n      mload(0x40)\n      tag_68\n      swap2\n      swap1\n      tag_39\n      jump\t// in\n    tag_68:\n      mload(0x40)\n      dup1\n      swap2\n      sub\n      swap1\n      return\n        /* \"contracts/WallyStaking.sol\":677:737  bytes32 public constant ADMIN_ROLE = keccak256(\"ADMIN_ROLE\") */\n    tag_13:\n      tag_69\n      tag_70\n      jump\t// in\n    tag_69:\n      mload(0x40)\n      tag_71\n      swap2\n      swap1\n      tag_45\n      jump\t// in\n    tag_71:\n      mload(0x40)\n      dup1\n      swap2\n      sub\n      swap1\n      return\n        /* \"contracts/WallyStaking.sol\":4858:5064  function setAPYs(uint256 _apy3, uint256 _apy6, uint256 _apy12)... */\n    tag_14:\n      tag_72\n      0x04\n      dup1\n      calldatasize\n      sub\n      dup2\n      add\n      swap1\n      tag_73\n      swap2\n      swap1\n      tag_74\n      jump\t// in\n    tag_73:\n      tag_75\n      jump\t// in\n    tag_72:\n      stop\n        /* \"contracts/WallyStaking.sol\":2010:2799  function stake(uint256 amount, uint256 lockChoice) external nonReentrant {... */\n    tag_15:\n      tag_76\n      0x04\n      dup1\n      calldatasize\n      sub\n      dup2\n      add\n      swap1\n      tag_77\n      swap2\n      swap1\n      tag_78\n      jump\t// in\n    tag_77:\n      tag_79\n      jump\t// in\n    tag_76:\n      stop\n        /* \"@openzeppelin/contracts/access/AccessControl.sol\":2854:2990  function hasRole(bytes32 role, address account) public view virtual returns (bool) {... */\n    tag_16:\n      tag_80\n      0x04\n      dup1\n      calldatasize\n      sub\n      dup2\n      add\n      swap1\n      tag_81\n      swap2\n      swap1\n      tag_52\n      jump\t// in\n    tag_81:\n      tag_82\n      jump\t// in\n    tag_80:\n      mload(0x40)\n      tag_83\n      swap2\n      swap1\n      tag_31\n      jump\t// in\n    tag_83:\n      mload(0x40)\n      dup1\n      swap2\n      sub\n      swap1\n      return\n        /* \"@openzeppelin/contracts/access/AccessControl.sol\":2187:2236  bytes32 public constant DEFAULT_ADMIN_ROLE = 0x00 */\n    tag_17:\n      tag_84\n      tag_85\n      jump\t// in\n    tag_84:\n      mload(0x40)\n      tag_86\n      swap2\n      swap1\n      tag_45\n      jump\t// in\n    tag_86:\n      mload(0x40)\n      dup1\n      swap2\n      sub\n      swap1\n      return\n        /* \"contracts/WallyStaking.sol\":5171:5402  function rescueTokens(address tokenAddress, uint256 amount, address to)... */\n    tag_18:\n      tag_87\n      0x04\n      dup1\n      calldatasize\n      sub\n      dup2\n      add\n      swap1\n      tag_88\n      swap2\n      swap1\n      tag_89\n      jump\t// in\n    tag_88:\n      tag_90\n      jump\t// in\n    tag_87:\n      stop\n        /* \"contracts/WallyStaking.sol\":892:940  uint256 public constant LOCK_6_MONTHS = 180 days */\n    tag_19:\n      tag_91\n      tag_92\n      jump\t// in\n    tag_91:\n      mload(0x40)\n      tag_93\n      swap2\n      swap1\n      tag_39\n      jump\t// in\n    tag_93:\n      mload(0x40)\n      dup1\n      swap2\n      sub\n      swap1\n      return\n        /* \"@openzeppelin/contracts/access/AccessControl.sol\":4642:4780  function revokeRole(bytes32 role, address account) public virtual onlyRole(getRoleAdmin(role)) {... */\n    tag_20:\n      tag_94\n      0x04\n      dup1\n      calldatasize\n      sub\n      dup2\n      add\n      swap1\n      tag_95\n      swap2\n      swap1\n      tag_52\n      jump\t// in\n    tag_95:\n      tag_96\n      jump\t// in\n    tag_94:\n      stop\n        /* \"contracts/WallyStaking.sol\":1047:1078  uint256 public apy3Months = 500 */\n    tag_21:\n      tag_97\n      tag_98\n      jump\t// in\n    tag_97:\n      mload(0x40)\n      tag_99\n      swap2\n      swap1\n      tag_39\n      jump\t// in\n    tag_99:\n      mload(0x40)\n      dup1\n      swap2\n      sub\n      swap1\n      return\n        /* \"contracts/WallyStaking.sol\":1140:1173  uint256 public apy12Months = 1500 */\n    tag_22:\n      tag_100\n      tag_101\n      jump\t// in\n    tag_100:\n      mload(0x40)\n      tag_102\n      swap2\n      swap1\n      tag_39\n      jump\t// in\n    tag_102:\n      mload(0x40)\n      dup1\n      swap2\n      sub\n      swap1\n      return\n        /* \"@openzeppelin/contracts/access/AccessControl.sol\":2565:2767  function supportsInterface(bytes4 interfaceId) public view virtual override returns (bool) {... */\n    tag_29:\n        /* \"@openzeppelin/contracts/access/AccessControl.sol\":2650:2654  bool */\n      0x00\n        /* \"@openzeppelin/contracts/access/AccessControl.sol\":2688:2720  type(IAccessControl).interfaceId */\n      0x7965db0b00000000000000000000000000000000000000000000000000000000\n        /* \"@openzeppelin/contracts/access/AccessControl.sol\":2673:2720  interfaceId == type(IAccessControl).interfaceId */\n      not(0xffffffffffffffffffffffffffffffffffffffffffffffffffffffff)\n      and\n        /* \"@openzeppelin/contracts/access/AccessControl.sol\":2673:2684  interfaceId */\n      dup3\n        /* \"@openzeppelin/contracts/access/AccessControl.sol\":2673:2720  interfaceId == type(IAccessControl).interfaceId */\n      not(0xffffffffffffffffffffffffffffffffffffffffffffffffffffffff)\n      and\n      eq\n        /* \"@openzeppelin/contracts/access/AccessControl.sol\":2673:2760  interfaceId == type(IAccessControl).interfaceId || super.supportsInterface(interfaceId) */\n      dup1\n      tag_104\n      jumpi\n      pop\n        /* \"@openzeppelin/contracts/access/AccessControl.sol\":2724:2760  super.supportsInterface(interfaceId) */\n      tag_105\n        /* \"@openzeppelin/contracts/access/AccessControl.sol\":2748:2759  interfaceId */\n      dup3\n        /* \"@openzeppelin/contracts/access/AccessControl.sol\":2724:2747  super.supportsInterface */\n      tag_106\n        /* \"@openzeppelin/contracts/access/AccessControl.sol\":2724:2760  super.supportsInterface(interfaceId) */\n      jump\t// in\n    tag_105:\n        /* \"@openzeppelin/contracts/access/AccessControl.sol\":2673:2760  interfaceId == type(IAccessControl).interfaceId || super.supportsInterface(interfaceId) */\n    tag_104:\n        /* \"@openzeppelin/contracts/access/AccessControl.sol\":2666:2760  return interfaceId == type(IAccessControl).interfaceId || super.supportsInterface(interfaceId) */\n      swap1\n      pop\n        /* \"@openzeppelin/contracts/access/AccessControl.sol\":2565:2767  function supportsInterface(bytes4 interfaceId) public view virtual override returns (bool) {... */\n      swap2\n      swap1\n      pop\n      jump\t// out\n        /* \"contracts/WallyStaking.sol\":763:797  IERC20 public immutable wallyToken */\n    tag_33:\n      immutable(\"0x84a03125b104c11968e358d5f682f85e2d800fa6885d3315fc7e189cab9d099b\")\n      dup2\n      jump\t// out\n        /* \"contracts/WallyStaking.sol\":839:886  uint256 public constant LOCK_3_MONTHS = 90 days */\n    tag_37:\n        /* \"contracts/WallyStaking.sol\":879:886  90 days */\n      0x76a700\n        /* \"contracts/WallyStaking.sol\":839:886  uint256 public constant LOCK_3_MONTHS = 90 days */\n      dup2\n      jump\t// out\n        /* \"@openzeppelin/contracts/access/AccessControl.sol\":3810:3930  function getRoleAdmin(bytes32 role) public view virtual returns (bytes32) {... */\n    tag_43:\n        /* \"@openzeppelin/contracts/access/AccessControl.sol\":3875:3882  bytes32 */\n      0x00\n        /* \"@openzeppelin/contracts/access/AccessControl.sol\":3901:3907  _roles */\n      0x00\n        /* \"@openzeppelin/contracts/access/AccessControl.sol\":3901:3913  _roles[role] */\n      0x00\n        /* \"@openzeppelin/contracts/access/AccessControl.sol\":3908:3912  role */\n      dup4\n        /* \"@openzeppelin/contracts/access/AccessControl.sol\":3901:3913  _roles[role] */\n      dup2\n      mstore\n      0x20\n      add\n      swap1\n      dup2\n      mstore\n      0x20\n      add\n      0x00\n      keccak256\n        /* \"@openzeppelin/contracts/access/AccessControl.sol\":3901:3923  _roles[role].adminRole */\n      0x01\n      add\n      sload\n        /* \"@openzeppelin/contracts/access/AccessControl.sol\":3894:3923  return _roles[role].adminRole */\n      swap1\n      pop\n        /* \"@openzeppelin/contracts/access/AccessControl.sol\":3810:3930  function getRoleAdmin(bytes32 role) public view virtual returns (bytes32) {... */\n      swap2\n      swap1\n      pop\n      jump\t// out\n        /* \"contracts/WallyStaking.sol\":2889:3851  function withdraw(uint256 stakeIndex) external nonReentrant {... */\n    tag_49:\n        /* \"@openzeppelin/contracts/security/ReentrancyGuard.sol\":2261:2282  _nonReentrantBefore() */\n      tag_109\n        /* \"@openzeppelin/contracts/security/ReentrancyGuard.sol\":2261:2280  _nonReentrantBefore */\n      tag_110\n        /* \"@openzeppelin/contracts/security/ReentrancyGuard.sol\":2261:2282  _nonReentrantBefore() */\n      jump\t// in\n    tag_109:\n        /* \"contracts/WallyStaking.sol\":2980:2986  stakes */\n      0x05\n        /* \"contracts/WallyStaking.sol\":2980:2998  stakes[msg.sender] */\n      0x00\n        /* \"contracts/WallyStaking.sol\":2987:2997  msg.sender */\n      caller\n        /* \"contracts/WallyStaking.sol\":2980:2998  stakes[msg.sender] */\n      0xffffffffffffffffffffffffffffffffffffffff\n      and\n      0xffffffffffffffffffffffffffffffffffffffff\n      and\n      dup2\n      mstore\n      0x20\n      add\n      swap1\n      dup2\n      mstore\n      0x20\n      add\n      0x00\n      keccak256\n        /* \"contracts/WallyStaking.sol\":2980:3005  stakes[msg.sender].length */\n      dup1\n      sload\n      swap1\n      pop\n        /* \"contracts/WallyStaking.sol\":2967:2977  stakeIndex */\n      dup2\n        /* \"contracts/WallyStaking.sol\":2967:3005  stakeIndex < stakes[msg.sender].length */\n      lt\n        /* \"contracts/WallyStaking.sol\":2959:3029  require(stakeIndex < stakes[msg.sender].length, \"Invalid stake index\") */\n      tag_112\n      jumpi\n      mload(0x40)\n      0x08c379a000000000000000000000000000000000000000000000000000000000\n      dup2\n      mstore\n      0x04\n      add\n      tag_113\n      swap1\n      tag_114\n      jump\t// in\n    tag_113:\n      mload(0x40)\n      dup1\n      swap2\n      sub\n      swap1\n      revert\n    tag_112:\n        /* \"contracts/WallyStaking.sol\":3039:3066  StakeInfo storage userStake */\n      0x00\n        /* \"contracts/WallyStaking.sol\":3069:3075  stakes */\n      0x05\n        /* \"contracts/WallyStaking.sol\":3069:3087  stakes[msg.sender] */\n      0x00\n        /* \"contracts/WallyStaking.sol\":3076:3086  msg.sender */\n      caller\n        /* \"contracts/WallyStaking.sol\":3069:3087  stakes[msg.sender] */\n      0xffffffffffffffffffffffffffffffffffffffff\n      and\n      0xffffffffffffffffffffffffffffffffffffffff\n      and\n      dup2\n      mstore\n      0x20\n      add\n      swap1\n      dup2\n      mstore\n      0x20\n      add\n      0x00\n      keccak256\n        /* \"contracts/WallyStaking.sol\":3088:3098  stakeIndex */\n      dup3\n        /* \"contracts/WallyStaking.sol\":3069:3099  stakes[msg.sender][stakeIndex] */\n      dup2\n      sload\n      dup2\n      lt\n      tag_115\n      jumpi\n      tag_116\n      tag_117\n      jump\t// in\n    tag_116:\n    tag_115:\n      swap1\n      0x00\n      mstore\n      keccak256(0x00, 0x20)\n      swap1\n      0x05\n      mul\n      add\n        /* \"contracts/WallyStaking.sol\":3039:3099  StakeInfo storage userStake = stakes[msg.sender][stakeIndex] */\n      swap1\n      pop\n        /* \"contracts/WallyStaking.sol\":3118:3127  userStake */\n      dup1\n        /* \"contracts/WallyStaking.sol\":3118:3137  userStake.withdrawn */\n      0x04\n      add\n      0x00\n      swap1\n      sload\n      swap1\n      0x0100\n      exp\n      swap1\n      div\n      0xff\n      and\n        /* \"contracts/WallyStaking.sol\":3117:3137  !userStake.withdrawn */\n      iszero\n        /* \"contracts/WallyStaking.sol\":3109:3159  require(!userStake.withdrawn, \"Already withdrawn\") */\n      tag_119\n      jumpi\n      mload(0x40)\n      0x08c379a000000000000000000000000000000000000000000000000000000000\n      dup2\n      mstore\n      0x04\n      add\n      tag_120\n      swap1\n      tag_121\n      jump\t// in\n    tag_120:\n      mload(0x40)\n      dup1\n      swap2\n      sub\n      swap1\n      revert\n    tag_119:\n        /* \"contracts/WallyStaking.sol\":3170:3188  uint256 unlockTime */\n      0x00\n        /* \"contracts/WallyStaking.sol\":3218:3227  userStake */\n      dup2\n        /* \"contracts/WallyStaking.sol\":3218:3240  userStake.lockDuration */\n      0x02\n      add\n      sload\n        /* \"contracts/WallyStaking.sol\":3191:3200  userStake */\n      dup3\n        /* \"contracts/WallyStaking.sol\":3191:3215  userStake.startTimestamp */\n      0x01\n      add\n      sload\n        /* \"contracts/WallyStaking.sol\":3191:3240  userStake.startTimestamp + userStake.lockDuration */\n      tag_122\n      swap2\n      swap1\n      tag_123\n      jump\t// in\n    tag_122:\n        /* \"contracts/WallyStaking.sol\":3170:3240  uint256 unlockTime = userStake.startTimestamp + userStake.lockDuration */\n      swap1\n      pop\n        /* \"contracts/WallyStaking.sol\":3277:3287  unlockTime */\n      dup1\n        /* \"contracts/WallyStaking.sol\":3258:3273  block.timestamp */\n      timestamp\n        /* \"contracts/WallyStaking.sol\":3258:3287  block.timestamp >= unlockTime */\n      lt\n      iszero\n        /* \"contracts/WallyStaking.sol\":3250:3305  require(block.timestamp >= unlockTime, \"Lock not over\") */\n      tag_124\n      jumpi\n      mload(0x40)\n      0x08c379a000000000000000000000000000000000000000000000000000000000\n      dup2\n      mstore\n      0x04\n      add\n      tag_125\n      swap1\n      tag_126\n      jump\t// in\n    tag_125:\n      mload(0x40)\n      dup1\n      swap2\n      sub\n      swap1\n      revert\n    tag_124:\n        /* \"contracts/WallyStaking.sol\":3316:3333  uint256 principal */\n      0x00\n        /* \"contracts/WallyStaking.sol\":3336:3345  userStake */\n      dup3\n        /* \"contracts/WallyStaking.sol\":3336:3352  userStake.amount */\n      0x00\n      add\n      sload\n        /* \"contracts/WallyStaking.sol\":3316:3352  uint256 principal = userStake.amount */\n      swap1\n      pop\n        /* \"contracts/WallyStaking.sol\":3362:3380  uint256 timeStaked */\n      0x00\n        /* \"contracts/WallyStaking.sol\":3383:3392  userStake */\n      dup4\n        /* \"contracts/WallyStaking.sol\":3383:3405  userStake.lockDuration */\n      0x02\n      add\n      sload\n        /* \"contracts/WallyStaking.sol\":3362:3405  uint256 timeStaked = userStake.lockDuration */\n      swap1\n      pop\n        /* \"contracts/WallyStaking.sol\":3439:3453  uint256 reward */\n      0x00\n        /* \"contracts/WallyStaking.sol\":3456:3510  _calculateReward(principal, userStake.apy, timeStaked) */\n      tag_127\n        /* \"contracts/WallyStaking.sol\":3473:3482  principal */\n      dup4\n        /* \"contracts/WallyStaking.sol\":3484:3493  userStake */\n      dup7\n        /* \"contracts/WallyStaking.sol\":3484:3497  userStake.apy */\n      0x03\n      add\n      sload\n        /* \"contracts/WallyStaking.sol\":3499:3509  timeStaked */\n      dup5\n        /* \"contracts/WallyStaking.sol\":3456:3472  _calculateReward */\n      tag_128\n        /* \"contracts/WallyStaking.sol\":3456:3510  _calculateReward(principal, userStake.apy, timeStaked) */\n      jump\t// in\n    tag_127:\n        /* \"contracts/WallyStaking.sol\":3439:3510  uint256 reward = _calculateReward(principal, userStake.apy, timeStaked) */\n      swap1\n      pop\n        /* \"contracts/WallyStaking.sol\":3543:3547  true */\n      0x01\n        /* \"contracts/WallyStaking.sol\":3521:3530  userStake */\n      dup6\n        /* \"contracts/WallyStaking.sol\":3521:3540  userStake.withdrawn */\n      0x04\n      add\n      0x00\n        /* \"contracts/WallyStaking.sol\":3521:3547  userStake.withdrawn = true */\n      0x0100\n      exp\n      dup2\n      sload\n      dup2\n      0xff\n      mul\n      not\n      and\n      swap1\n      dup4\n      iszero\n      iszero\n      mul\n      or\n      swap1\n      sstore\n      pop\n        /* \"contracts/WallyStaking.sol\":3558:3578  uint256 totalPayment */\n      0x00\n        /* \"contracts/WallyStaking.sol\":3593:3599  reward */\n      dup2\n        /* \"contracts/WallyStaking.sol\":3581:3590  principal */\n      dup5\n        /* \"contracts/WallyStaking.sol\":3581:3599  principal + reward */\n      tag_129\n      swap2\n      swap1\n      tag_123\n      jump\t// in\n    tag_129:\n        /* \"contracts/WallyStaking.sol\":3558:3599  uint256 totalPayment = principal + reward */\n      swap1\n      pop\n        /* \"contracts/WallyStaking.sol\":3669:3681  totalPayment */\n      dup1\n        /* \"contracts/WallyStaking.sol\":3630:3640  wallyToken */\n      immutable(\"0x84a03125b104c11968e358d5f682f85e2d800fa6885d3315fc7e189cab9d099b\")\n        /* \"contracts/WallyStaking.sol\":3630:3650  wallyToken.balanceOf */\n      0xffffffffffffffffffffffffffffffffffffffff\n      and\n      0x70a08231\n        /* \"contracts/WallyStaking.sol\":3659:3663  this */\n      address\n        /* \"contracts/WallyStaking.sol\":3630:3665  wallyToken.balanceOf(address(this)) */\n      mload(0x40)\n      dup3\n      0xffffffff\n      and\n      0xe0\n      shl\n      dup2\n      mstore\n      0x04\n      add\n      tag_130\n      swap2\n      swap1\n      tag_131\n      jump\t// in\n    tag_130:\n      0x20\n      mload(0x40)\n      dup1\n      dup4\n      sub\n      dup2\n      dup7\n      gas\n      staticcall\n      iszero\n      dup1\n      iszero\n      tag_133\n      jumpi\n      returndatacopy(0x00, 0x00, returndatasize)\n      revert(0x00, returndatasize)\n    tag_133:\n      pop\n      pop\n      pop\n      pop\n      mload(0x40)\n      returndatasize\n      not(0x1f)\n      0x1f\n      dup3\n      add\n      and\n      dup3\n      add\n      dup1\n      0x40\n      mstore\n      pop\n      dup2\n      add\n      swap1\n      tag_134\n      swap2\n      swap1\n      tag_135\n      jump\t// in\n    tag_134:\n        /* \"contracts/WallyStaking.sol\":3630:3681  wallyToken.balanceOf(address(this)) >= totalPayment */\n      lt\n      iszero\n        /* \"contracts/WallyStaking.sol\":3609:3731  require(... */\n      tag_136\n      jumpi\n      mload(0x40)\n      0x08c379a000000000000000000000000000000000000000000000000000000000\n      dup2\n      mstore\n      0x04\n      add\n      tag_137\n      swap1\n      tag_138\n      jump\t// in\n    tag_137:\n      mload(0x40)\n      dup1\n      swap2\n      sub\n      swap1\n      revert\n    tag_136:\n        /* \"contracts/WallyStaking.sol\":3742:3752  wallyToken */\n      immutable(\"0x84a03125b104c11968e358d5f682f85e2d800fa6885d3315fc7e189cab9d099b\")\n        /* \"contracts/WallyStaking.sol\":3742:3761  wallyToken.transfer */\n      0xffffffffffffffffffffffffffffffffffffffff\n      and\n      0xa9059cbb\n        /* \"contracts/WallyStaking.sol\":3762:3772  msg.sender */\n      caller\n        /* \"contracts/WallyStaking.sol\":3774:3786  totalPayment */\n      dup4\n        /* \"contracts/WallyStaking.sol\":3742:3787  wallyToken.transfer(msg.sender, totalPayment) */\n      mload(0x40)\n      dup4\n      0xffffffff\n      and\n      0xe0\n      shl\n      dup2\n      mstore\n      0x04\n      add\n      tag_139\n      swap3\n      swap2\n      swap1\n      tag_140\n      jump\t// in\n    tag_139:\n      0x20\n      mload(0x40)\n      dup1\n      dup4\n      sub\n      dup2\n      0x00\n      dup8\n      gas\n      call\n      iszero\n      dup1\n      iszero\n      tag_142\n      jumpi\n      returndatacopy(0x00, 0x00, returndatasize)\n      revert(0x00, returndatasize)\n    tag_142:\n      pop\n      pop\n      pop\n      pop\n      mload(0x40)\n      returndatasize\n      not(0x1f)\n      0x1f\n      dup3\n      add\n      and\n      dup3\n      add\n      dup1\n      0x40\n      mstore\n      pop\n      dup2\n      add\n      swap1\n      tag_143\n      swap2\n      swap1\n      tag_144\n      jump\t// in\n    tag_143:\n      pop\n        /* \"contracts/WallyStaking.sol\":3813:3823  msg.sender */\n      caller\n        /* \"contracts/WallyStaking.sol\":3803:3844  Withdrawn(msg.sender, stakeIndex, reward) */\n      0xffffffffffffffffffffffffffffffffffffffff\n      and\n      0x92ccf450a286a957af52509bc1c9939d1a6a481783e142e41e2499f0bb66ebc6\n        /* \"contracts/WallyStaking.sol\":3825:3835  stakeIndex */\n      dup9\n        /* \"contracts/WallyStaking.sol\":3837:3843  reward */\n      dup5\n        /* \"contracts/WallyStaking.sol\":3803:3844  Withdrawn(msg.sender, stakeIndex, reward) */\n      mload(0x40)\n      tag_145\n      swap3\n      swap2\n      swap1\n      tag_146\n      jump\t// in\n    tag_145:\n      mload(0x40)\n      dup1\n      swap2\n      sub\n      swap1\n      log2\n        /* \"contracts/WallyStaking.sol\":2949:3851  {... */\n      pop\n      pop\n      pop\n      pop\n      pop\n      pop\n        /* \"@openzeppelin/contracts/security/ReentrancyGuard.sol\":2303:2323  _nonReentrantAfter() */\n      tag_147\n        /* \"@openzeppelin/contracts/security/ReentrancyGuard.sol\":2303:2321  _nonReentrantAfter */\n      tag_148\n        /* \"@openzeppelin/contracts/security/ReentrancyGuard.sol\":2303:2323  _nonReentrantAfter() */\n      jump\t// in\n    tag_147:\n        /* \"contracts/WallyStaking.sol\":2889:3851  function withdraw(uint256 stakeIndex) external nonReentrant {... */\n      pop\n      jump\t// out\n        /* \"@openzeppelin/contracts/access/AccessControl.sol\":4226:4362  function grantRole(bytes32 role, address account) public virtual onlyRole(getRoleAdmin(role)) {... */\n    tag_53:\n        /* \"@openzeppelin/contracts/access/AccessControl.sol\":4300:4318  getRoleAdmin(role) */\n      tag_149\n        /* \"@openzeppelin/contracts/access/AccessControl.sol\":4313:4317  role */\n      dup3\n        /* \"@openzeppelin/contracts/access/AccessControl.sol\":4300:4312  getRoleAdmin */\n      tag_43\n        /* \"@openzeppelin/contracts/access/AccessControl.sol\":4300:4318  getRoleAdmin(role) */\n      jump\t// in\n    tag_149:\n        /* \"@openzeppelin/contracts/access/AccessControl.sol\":2464:2480  _checkRole(role) */\n      tag_151\n        /* \"@openzeppelin/contracts/access/AccessControl.sol\":2475:2479  role */\n      dup2\n        /* \"@openzeppelin/contracts/access/AccessControl.sol\":2464:2474  _checkRole */\n      tag_152\n        /* \"@openzeppelin/contracts/access/AccessControl.sol\":2464:2480  _checkRole(role) */\n      jump\t// in\n    tag_151:\n        /* \"@openzeppelin/contracts/access/AccessControl.sol\":4330:4355  _grantRole(role, account) */\n      tag_154\n        /* \"@openzeppelin/contracts/access/AccessControl.sol\":4341:4345  role */\n      dup4\n        /* \"@openzeppelin/contracts/access/AccessControl.sol\":4347:4354  account */\n      dup4\n        /* \"@openzeppelin/contracts/access/AccessControl.sol\":4330:4340  _grantRole */\n      tag_155\n        /* \"@openzeppelin/contracts/access/AccessControl.sol\":4330:4355  _grantRole(role, account) */\n      jump\t// in\n    tag_154:\n      pop\n        /* \"@openzeppelin/contracts/access/AccessControl.sol\":4226:4362  function grantRole(bytes32 role, address account) public virtual onlyRole(getRoleAdmin(role)) {... */\n      pop\n      pop\n      pop\n      jump\t// out\n        /* \"contracts/WallyStaking.sol\":946:995  uint256 public constant LOCK_12_MONTHS = 365 days */\n    tag_55:\n        /* \"contracts/WallyStaking.sol\":987:995  365 days */\n      0x01e13380\n        /* \"contracts/WallyStaking.sol\":946:995  uint256 public constant LOCK_12_MONTHS = 365 days */\n      dup2\n      jump\t// out\n        /* \"@openzeppelin/contracts/access/AccessControl.sol\":5328:5573  function renounceRole(bytes32 role, address callerConfirmation) public virtual {... */\n    tag_59:\n        /* \"@openzeppelin/contracts/access/AccessControl.sol\":5443:5455  _msgSender() */\n      tag_157\n        /* \"@openzeppelin/contracts/access/AccessControl.sol\":5443:5453  _msgSender */\n      tag_158\n        /* \"@openzeppelin/contracts/access/AccessControl.sol\":5443:5455  _msgSender() */\n      jump\t// in\n    tag_157:\n        /* \"@openzeppelin/contracts/access/AccessControl.sol\":5421:5455  callerConfirmation != _msgSender() */\n      0xffffffffffffffffffffffffffffffffffffffff\n      and\n        /* \"@openzeppelin/contracts/access/AccessControl.sol\":5421:5439  callerConfirmation */\n      dup2\n        /* \"@openzeppelin/contracts/access/AccessControl.sol\":5421:5455  callerConfirmation != _msgSender() */\n      0xffffffffffffffffffffffffffffffffffffffff\n      and\n      eq\n        /* \"@openzeppelin/contracts/access/AccessControl.sol\":5417:5519  if (callerConfirmation != _msgSender()) {... */\n      tag_159\n      jumpi\n        /* \"@openzeppelin/contracts/access/AccessControl.sol\":5478:5508  AccessControlBadConfirmation() */\n      mload(0x40)\n      0x6697b23200000000000000000000000000000000000000000000000000000000\n      dup2\n      mstore\n      0x04\n      add\n      mload(0x40)\n      dup1\n      swap2\n      sub\n      swap1\n      revert\n        /* \"@openzeppelin/contracts/access/AccessControl.sol\":5417:5519  if (callerConfirmation != _msgSender()) {... */\n    tag_159:\n        /* \"@openzeppelin/contracts/access/AccessControl.sol\":5529:5566  _revokeRole(role, callerConfirmation) */\n      tag_160\n        /* \"@openzeppelin/contracts/access/AccessControl.sol\":5541:5545  role */\n      dup3\n        /* \"@openzeppelin/contracts/access/AccessControl.sol\":5547:5565  callerConfirmation */\n      dup3\n        /* \"@openzeppelin/contracts/access/AccessControl.sol\":5529:5540  _revokeRole */\n      tag_161\n        /* \"@openzeppelin/contracts/access/AccessControl.sol\":5529:5566  _revokeRole(role, callerConfirmation) */\n      jump\t// in\n    tag_160:\n      pop\n        /* \"@openzeppelin/contracts/access/AccessControl.sol\":5328:5573  function renounceRole(bytes32 role, address callerConfirmation) public virtual {... */\n      pop\n      pop\n      jump\t// out\n        /* \"contracts/WallyStaking.sol\":1400:1445  mapping(address => StakeInfo[]) public stakes */\n    tag_63:\n      mstore(0x20, 0x05)\n      dup2\n      0x00\n      mstore\n      keccak256(0x00, 0x40)\n      dup2\n      dup2\n      sload\n      dup2\n      lt\n      tag_162\n      jumpi\n      0x00\n      dup1\n      revert\n    tag_162:\n      swap1\n      0x00\n      mstore\n      keccak256(0x00, 0x20)\n      swap1\n      0x05\n      mul\n      add\n      0x00\n      swap2\n      pop\n      swap2\n      pop\n      pop\n      dup1\n      0x00\n      add\n      sload\n      swap1\n      dup1\n      0x01\n      add\n      sload\n      swap1\n      dup1\n      0x02\n      add\n      sload\n      swap1\n      dup1\n      0x03\n      add\n      sload\n      swap1\n      dup1\n      0x04\n      add\n      0x00\n      swap1\n      sload\n      swap1\n      0x0100\n      exp\n      swap1\n      div\n      0xff\n      and\n      swap1\n      pop\n      dup6\n      jump\t// out\n        /* \"contracts/WallyStaking.sol\":1093:1125  uint256 public apy6Months = 1000 */\n    tag_67:\n      sload(0x03)\n      dup2\n      jump\t// out\n        /* \"contracts/WallyStaking.sol\":677:737  bytes32 public constant ADMIN_ROLE = keccak256(\"ADMIN_ROLE\") */\n    tag_70:\n        /* \"contracts/WallyStaking.sol\":714:737  keccak256(\"ADMIN_ROLE\") */\n      0xa49807205ce4d355092ef5a8a18f56e8913cf4a201fbe287825b095693c21775\n        /* \"contracts/WallyStaking.sol\":677:737  bytes32 public constant ADMIN_ROLE = keccak256(\"ADMIN_ROLE\") */\n      dup2\n      jump\t// out\n        /* \"contracts/WallyStaking.sol\":4858:5064  function setAPYs(uint256 _apy3, uint256 _apy6, uint256 _apy12)... */\n    tag_75:\n        /* \"contracts/WallyStaking.sol\":714:737  keccak256(\"ADMIN_ROLE\") */\n      0xa49807205ce4d355092ef5a8a18f56e8913cf4a201fbe287825b095693c21775\n        /* \"@openzeppelin/contracts/access/AccessControl.sol\":2464:2480  _checkRole(role) */\n      tag_165\n        /* \"@openzeppelin/contracts/access/AccessControl.sol\":2475:2479  role */\n      dup2\n        /* \"@openzeppelin/contracts/access/AccessControl.sol\":2464:2474  _checkRole */\n      tag_152\n        /* \"@openzeppelin/contracts/access/AccessControl.sol\":2464:2480  _checkRole(role) */\n      jump\t// in\n    tag_165:\n        /* \"contracts/WallyStaking.sol\":4994:4999  _apy3 */\n      dup4\n        /* \"contracts/WallyStaking.sol\":4981:4991  apy3Months */\n      0x02\n        /* \"contracts/WallyStaking.sol\":4981:4999  apy3Months = _apy3 */\n      dup2\n      swap1\n      sstore\n      pop\n        /* \"contracts/WallyStaking.sol\":5022:5027  _apy6 */\n      dup3\n        /* \"contracts/WallyStaking.sol\":5009:5019  apy6Months */\n      0x03\n        /* \"contracts/WallyStaking.sol\":5009:5027  apy6Months = _apy6 */\n      dup2\n      swap1\n      sstore\n      pop\n        /* \"contracts/WallyStaking.sol\":5051:5057  _apy12 */\n      dup2\n        /* \"contracts/WallyStaking.sol\":5037:5048  apy12Months */\n      0x04\n        /* \"contracts/WallyStaking.sol\":5037:5057  apy12Months = _apy12 */\n      dup2\n      swap1\n      sstore\n      pop\n        /* \"contracts/WallyStaking.sol\":4858:5064  function setAPYs(uint256 _apy3, uint256 _apy6, uint256 _apy12)... */\n      pop\n      pop\n      pop\n      pop\n      jump\t// out\n        /* \"contracts/WallyStaking.sol\":2010:2799  function stake(uint256 amount, uint256 lockChoice) external nonReentrant {... */\n    tag_79:\n        /* \"@openzeppelin/contracts/security/ReentrancyGuard.sol\":2261:2282  _nonReentrantBefore() */\n      tag_168\n        /* \"@openzeppelin/contracts/security/ReentrancyGuard.sol\":2261:2280  _nonReentrantBefore */\n      tag_110\n        /* \"@openzeppelin/contracts/security/ReentrancyGuard.sol\":2261:2282  _nonReentrantBefore() */\n      jump\t// in\n    tag_168:\n        /* \"contracts/WallyStaking.sol\":2110:2111  0 */\n      0x00\n        /* \"contracts/WallyStaking.sol\":2101:2107  amount */\n      dup3\n        /* \"contracts/WallyStaking.sol\":2101:2111  amount > 0 */\n      gt\n        /* \"contracts/WallyStaking.sol\":2093:2133  require(amount > 0, \"Cannot stake zero\") */\n      tag_170\n      jumpi\n      mload(0x40)\n      0x08c379a000000000000000000000000000000000000000000000000000000000\n      dup2\n      mstore\n      0x04\n      add\n      tag_171\n      swap1\n      tag_172\n      jump\t// in\n    tag_171:\n      mload(0x40)\n      dup1\n      swap2\n      sub\n      swap1\n      revert\n    tag_170:\n        /* \"contracts/WallyStaking.sol\":2186:2204  uint256 chosenLock */\n      0x00\n        /* \"contracts/WallyStaking.sol\":2206:2223  uint256 chosenAPY */\n      0x00\n        /* \"contracts/WallyStaking.sol\":2227:2251  _getLockInfo(lockChoice) */\n      tag_173\n        /* \"contracts/WallyStaking.sol\":2240:2250  lockChoice */\n      dup4\n        /* \"contracts/WallyStaking.sol\":2227:2239  _getLockInfo */\n      tag_174\n        /* \"contracts/WallyStaking.sol\":2227:2251  _getLockInfo(lockChoice) */\n      jump\t// in\n    tag_173:\n        /* \"contracts/WallyStaking.sol\":2185:2251  (uint256 chosenLock, uint256 chosenAPY) = _getLockInfo(lockChoice) */\n      swap2\n      pop\n      swap2\n      pop\n        /* \"contracts/WallyStaking.sol\":2313:2325  bool success */\n      0x00\n        /* \"contracts/WallyStaking.sol\":2328:2338  wallyToken */\n      immutable(\"0x84a03125b104c11968e358d5f682f85e2d800fa6885d3315fc7e189cab9d099b\")\n        /* \"contracts/WallyStaking.sol\":2328:2351  wallyToken.transferFrom */\n      0xffffffffffffffffffffffffffffffffffffffff\n      and\n      0x23b872dd\n        /* \"contracts/WallyStaking.sol\":2352:2362  msg.sender */\n      caller\n        /* \"contracts/WallyStaking.sol\":2372:2376  this */\n      address\n        /* \"contracts/WallyStaking.sol\":2379:2385  amount */\n      dup9\n        /* \"contracts/WallyStaking.sol\":2328:2386  wallyToken.transferFrom(msg.sender, address(this), amount) */\n      mload(0x40)\n      dup5\n      0xffffffff\n      and\n      0xe0\n      shl\n      dup2\n      mstore\n      0x04\n      add\n      tag_175\n      swap4\n      swap3\n      swap2\n      swap1\n      tag_176\n      jump\t// in\n    tag_175:\n      0x20\n      mload(0x40)\n      dup1\n      dup4\n      sub\n      dup2\n      0x00\n      dup8\n      gas\n      call\n      iszero\n      dup1\n      iszero\n      tag_178\n      jumpi\n      returndatacopy(0x00, 0x00, returndatasize)\n      revert(0x00, returndatasize)\n    tag_178:\n      pop\n      pop\n      pop\n      pop\n      mload(0x40)\n      returndatasize\n      not(0x1f)\n      0x1f\n      dup3\n      add\n      and\n      dup3\n      add\n      dup1\n      0x40\n      mstore\n      pop\n      dup2\n      add\n      swap1\n      tag_179\n      swap2\n      swap1\n      tag_144\n      jump\t// in\n    tag_179:\n        /* \"contracts/WallyStaking.sol\":2313:2386  bool success = wallyToken.transferFrom(msg.sender, address(this), amount) */\n      swap1\n      pop\n        /* \"contracts/WallyStaking.sol\":2404:2411  success */\n      dup1\n        /* \"contracts/WallyStaking.sol\":2396:2431  require(success, \"Transfer failed\") */\n      tag_180\n      jumpi\n      mload(0x40)\n      0x08c379a000000000000000000000000000000000000000000000000000000000\n      dup2\n      mstore\n      0x04\n      add\n      tag_181\n      swap1\n      tag_182\n      jump\t// in\n    tag_181:\n      mload(0x40)\n      dup1\n      swap2\n      sub\n      swap1\n      revert\n    tag_180:\n        /* \"contracts/WallyStaking.sol\":2466:2472  stakes */\n      0x05\n        /* \"contracts/WallyStaking.sol\":2466:2484  stakes[msg.sender] */\n      0x00\n        /* \"contracts/WallyStaking.sol\":2473:2483  msg.sender */\n      caller\n        /* \"contracts/WallyStaking.sol\":2466:2484  stakes[msg.sender] */\n      0xffffffffffffffffffffffffffffffffffffffff\n      and\n      0xffffffffffffffffffffffffffffffffffffffff\n      and\n      dup2\n      mstore\n      0x20\n      add\n      swap1\n      dup2\n      mstore\n      0x20\n      add\n      0x00\n      keccak256\n        /* \"contracts/WallyStaking.sol\":2503:2717  StakeInfo({... */\n      mload(0x40)\n      dup1\n      0xa0\n      add\n      0x40\n      mstore\n      dup1\n        /* \"contracts/WallyStaking.sol\":2539:2545  amount */\n      dup8\n        /* \"contracts/WallyStaking.sol\":2503:2717  StakeInfo({... */\n      dup2\n      mstore\n      0x20\n      add\n        /* \"contracts/WallyStaking.sol\":2579:2594  block.timestamp */\n      timestamp\n        /* \"contracts/WallyStaking.sol\":2503:2717  StakeInfo({... */\n      dup2\n      mstore\n      0x20\n      add\n        /* \"contracts/WallyStaking.sol\":2626:2636  chosenLock */\n      dup6\n        /* \"contracts/WallyStaking.sol\":2503:2717  StakeInfo({... */\n      dup2\n      mstore\n      0x20\n      add\n        /* \"contracts/WallyStaking.sol\":2659:2668  chosenAPY */\n      dup5\n        /* \"contracts/WallyStaking.sol\":2503:2717  StakeInfo({... */\n      dup2\n      mstore\n      0x20\n      add\n        /* \"contracts/WallyStaking.sol\":2697:2702  false */\n      0x00\n        /* \"contracts/WallyStaking.sol\":2503:2717  StakeInfo({... */\n      iszero\n      iszero\n      dup2\n      mstore\n      pop\n        /* \"contracts/WallyStaking.sol\":2466:2727  stakes[msg.sender].push(... */\n      swap1\n      dup1\n      0x01\n      dup2\n      sload\n      add\n      dup1\n      dup3\n      sstore\n      dup1\n      swap2\n      pop\n      pop\n      0x01\n      swap1\n      sub\n      swap1\n      0x00\n      mstore\n      keccak256(0x00, 0x20)\n      swap1\n      0x05\n      mul\n      add\n      0x00\n      swap1\n      swap2\n      swap1\n      swap2\n      swap1\n      swap2\n      pop\n      0x00\n      dup3\n      add\n      mload\n      dup2\n      0x00\n      add\n      sstore\n      0x20\n      dup3\n      add\n      mload\n      dup2\n      0x01\n      add\n      sstore\n      0x40\n      dup3\n      add\n      mload\n      dup2\n      0x02\n      add\n      sstore\n      0x60\n      dup3\n      add\n      mload\n      dup2\n      0x03\n      add\n      sstore\n      0x80\n      dup3\n      add\n      mload\n      dup2\n      0x04\n      add\n      exp(0x0100, 0x00)\n      dup2\n      sload\n      dup2\n      0xff\n      mul\n      not\n      and\n      swap1\n      dup4\n      iszero\n      iszero\n      mul\n      or\n      swap1\n      sstore\n      pop\n      pop\n      pop\n        /* \"contracts/WallyStaking.sol\":2750:2760  msg.sender */\n      caller\n        /* \"contracts/WallyStaking.sol\":2743:2792  Staked(msg.sender, amount, chosenLock, chosenAPY) */\n      0xffffffffffffffffffffffffffffffffffffffff\n      and\n      0xb4caaf29adda3eefee3ad552a8e85058589bf834c7466cae4ee58787f70589ed\n        /* \"contracts/WallyStaking.sol\":2762:2768  amount */\n      dup7\n        /* \"contracts/WallyStaking.sol\":2770:2780  chosenLock */\n      dup6\n        /* \"contracts/WallyStaking.sol\":2782:2791  chosenAPY */\n      dup6\n        /* \"contracts/WallyStaking.sol\":2743:2792  Staked(msg.sender, amount, chosenLock, chosenAPY) */\n      mload(0x40)\n      tag_184\n      swap4\n      swap3\n      swap2\n      swap1\n      tag_185\n      jump\t// in\n    tag_184:\n      mload(0x40)\n      dup1\n      swap2\n      sub\n      swap1\n      log2\n        /* \"contracts/WallyStaking.sol\":2083:2799  {... */\n      pop\n      pop\n      pop\n        /* \"@openzeppelin/contracts/security/ReentrancyGuard.sol\":2303:2323  _nonReentrantAfter() */\n      tag_186\n        /* \"@openzeppelin/contracts/security/ReentrancyGuard.sol\":2303:2321  _nonReentrantAfter */\n      tag_148\n        /* \"@openzeppelin/contracts/security/ReentrancyGuard.sol\":2303:2323  _nonReentrantAfter() */\n      jump\t// in\n    tag_186:\n        /* \"contracts/WallyStaking.sol\":2010:2799  function stake(uint256 amount, uint256 lockChoice) external nonReentrant {... */\n      pop\n      pop\n      jump\t// out\n        /* \"@openzeppelin/contracts/access/AccessControl.sol\":2854:2990  function hasRole(bytes32 role, address account) public view virtual returns (bool) {... */\n    tag_82:\n        /* \"@openzeppelin/contracts/access/AccessControl.sol\":2931:2935  bool */\n      0x00\n        /* \"@openzeppelin/contracts/access/AccessControl.sol\":2954:2960  _roles */\n      0x00\n        /* \"@openzeppelin/contracts/access/AccessControl.sol\":2954:2966  _roles[role] */\n      0x00\n        /* \"@openzeppelin/contracts/access/AccessControl.sol\":2961:2965  role */\n      dup5\n        /* \"@openzeppelin/contracts/access/AccessControl.sol\":2954:2966  _roles[role] */\n      dup2\n      mstore\n      0x20\n      add\n      swap1\n      dup2\n      mstore\n      0x20\n      add\n      0x00\n      keccak256\n        /* \"@openzeppelin/contracts/access/AccessControl.sol\":2954:2974  _roles[role].hasRole */\n      0x00\n      add\n        /* \"@openzeppelin/contracts/access/AccessControl.sol\":2954:2983  _roles[role].hasRole[account] */\n      0x00\n        /* \"@openzeppelin/contracts/access/AccessControl.sol\":2975:2982  account */\n      dup4\n        /* \"@openzeppelin/contracts/access/AccessControl.sol\":2954:2983  _roles[role].hasRole[account] */\n      0xffffffffffffffffffffffffffffffffffffffff\n      and\n      0xffffffffffffffffffffffffffffffffffffffff\n      and\n      dup2\n      mstore\n      0x20\n      add\n      swap1\n      dup2\n      mstore\n      0x20\n      add\n      0x00\n      keccak256\n      0x00\n      swap1\n      sload\n      swap1\n      0x0100\n      exp\n      swap1\n      div\n      0xff\n      and\n        /* \"@openzeppelin/contracts/access/AccessControl.sol\":2947:2983  return _roles[role].hasRole[account] */\n      swap1\n      pop\n        /* \"@openzeppelin/contracts/access/AccessControl.sol\":2854:2990  function hasRole(bytes32 role, address account) public view virtual returns (bool) {... */\n      swap3\n      swap2\n      pop\n      pop\n      jump\t// out\n        /* \"@openzeppelin/contracts/access/AccessControl.sol\":2187:2236  bytes32 public constant DEFAULT_ADMIN_ROLE = 0x00 */\n    tag_85:\n        /* \"@openzeppelin/contracts/access/AccessControl.sol\":2232:2236  0x00 */\n      0x00\n        /* \"@openzeppelin/contracts/access/AccessControl.sol\":2187:2236  bytes32 public constant DEFAULT_ADMIN_ROLE = 0x00 */\n      0x00\n      shl\n      dup2\n      jump\t// out\n        /* \"contracts/WallyStaking.sol\":5171:5402  function rescueTokens(address tokenAddress, uint256 amount, address to)... */\n    tag_90:\n        /* \"contracts/WallyStaking.sol\":714:737  keccak256(\"ADMIN_ROLE\") */\n      0xa49807205ce4d355092ef5a8a18f56e8913cf4a201fbe287825b095693c21775\n        /* \"@openzeppelin/contracts/access/AccessControl.sol\":2464:2480  _checkRole(role) */\n      tag_189\n        /* \"@openzeppelin/contracts/access/AccessControl.sol\":2475:2479  role */\n      dup2\n        /* \"@openzeppelin/contracts/access/AccessControl.sol\":2464:2474  _checkRole */\n      tag_152\n        /* \"@openzeppelin/contracts/access/AccessControl.sol\":2464:2480  _checkRole(role) */\n      jump\t// in\n    tag_189:\n        /* \"contracts/WallyStaking.sol\":5325:5326  0 */\n      0x00\n        /* \"contracts/WallyStaking.sol\":5311:5327  to != address(0) */\n      0xffffffffffffffffffffffffffffffffffffffff\n      and\n        /* \"contracts/WallyStaking.sol\":5311:5313  to */\n      dup3\n        /* \"contracts/WallyStaking.sol\":5311:5327  to != address(0) */\n      0xffffffffffffffffffffffffffffffffffffffff\n      and\n      sub\n        /* \"contracts/WallyStaking.sol\":5303:5344  require(to != address(0), \"Invalid 'to'\") */\n      tag_191\n      jumpi\n      mload(0x40)\n      0x08c379a000000000000000000000000000000000000000000000000000000000\n      dup2\n      mstore\n      0x04\n      add\n      tag_192\n      swap1\n      tag_193\n      jump\t// in\n    tag_192:\n      mload(0x40)\n      dup1\n      swap2\n      sub\n      swap1\n      revert\n    tag_191:\n        /* \"contracts/WallyStaking.sol\":5361:5373  tokenAddress */\n      dup4\n        /* \"contracts/WallyStaking.sol\":5354:5383  IERC20(tokenAddress).transfer */\n      0xffffffffffffffffffffffffffffffffffffffff\n      and\n      0xa9059cbb\n        /* \"contracts/WallyStaking.sol\":5384:5386  to */\n      dup4\n        /* \"contracts/WallyStaking.sol\":5388:5394  amount */\n      dup6\n        /* \"contracts/WallyStaking.sol\":5354:5395  IERC20(tokenAddress).transfer(to, amount) */\n      mload(0x40)\n      dup4\n      0xffffffff\n      and\n      0xe0\n      shl\n      dup2\n      mstore\n      0x04\n      add\n      tag_194\n      swap3\n      swap2\n      swap1\n      tag_140\n      jump\t// in\n    tag_194:\n      0x20\n      mload(0x40)\n      dup1\n      dup4\n      sub\n      dup2\n      0x00\n      dup8\n      gas\n      call\n      iszero\n      dup1\n      iszero\n      tag_196\n      jumpi\n      returndatacopy(0x00, 0x00, returndatasize)\n      revert(0x00, returndatasize)\n    tag_196:\n      pop\n      pop\n      pop\n      pop\n      mload(0x40)\n      returndatasize\n      not(0x1f)\n      0x1f\n      dup3\n      add\n      and\n      dup3\n      add\n      dup1\n      0x40\n      mstore\n      pop\n      dup2\n      add\n      swap1\n      tag_197\n      swap2\n      swap1\n      tag_144\n      jump\t// in\n    tag_197:\n      pop\n        /* \"contracts/WallyStaking.sol\":5171:5402  function rescueTokens(address tokenAddress, uint256 amount, address to)... */\n      pop\n      pop\n      pop\n      pop\n      jump\t// out\n        /* \"contracts/WallyStaking.sol\":892:940  uint256 public constant LOCK_6_MONTHS = 180 days */\n    tag_92:\n        /* \"contracts/WallyStaking.sol\":932:940  180 days */\n      0xed4e00\n        /* \"contracts/WallyStaking.sol\":892:940  uint256 public constant LOCK_6_MONTHS = 180 days */\n      dup2\n      jump\t// out\n        /* \"@openzeppelin/contracts/access/AccessControl.sol\":4642:4780  function revokeRole(bytes32 role, address account) public virtual onlyRole(getRoleAdmin(role)) {... */\n    tag_96:\n        /* \"@openzeppelin/contracts/access/AccessControl.sol\":4717:4735  getRoleAdmin(role) */\n      tag_198\n        /* \"@openzeppelin/contracts/access/AccessControl.sol\":4730:4734  role */\n      dup3\n        /* \"@openzeppelin/contracts/access/AccessControl.sol\":4717:4729  getRoleAdmin */\n      tag_43\n        /* \"@openzeppelin/contracts/access/AccessControl.sol\":4717:4735  getRoleAdmin(role) */\n      jump\t// in\n    tag_198:\n        /* \"@openzeppelin/contracts/access/AccessControl.sol\":2464:2480  _checkRole(role) */\n      tag_200\n        /* \"@openzeppelin/contracts/access/AccessControl.sol\":2475:2479  role */\n      dup2\n        /* \"@openzeppelin/contracts/access/AccessControl.sol\":2464:2474  _checkRole */\n      tag_152\n        /* \"@openzeppelin/contracts/access/AccessControl.sol\":2464:2480  _checkRole(role) */\n      jump\t// in\n    tag_200:\n        /* \"@openzeppelin/contracts/access/AccessControl.sol\":4747:4773  _revokeRole(role, account) */\n      tag_202\n        /* \"@openzeppelin/contracts/access/AccessControl.sol\":4759:4763  role */\n      dup4\n        /* \"@openzeppelin/contracts/access/AccessControl.sol\":4765:4772  account */\n      dup4\n        /* \"@openzeppelin/contracts/access/AccessControl.sol\":4747:4758  _revokeRole */\n      tag_161\n        /* \"@openzeppelin/contracts/access/AccessControl.sol\":4747:4773  _revokeRole(role, account) */\n      jump\t// in\n    tag_202:\n      pop\n        /* \"@openzeppelin/contracts/access/AccessControl.sol\":4642:4780  function revokeRole(bytes32 role, address account) public virtual onlyRole(getRoleAdmin(role)) {... */\n      pop\n      pop\n      pop\n      jump\t// out\n        /* \"contracts/WallyStaking.sol\":1047:1078  uint256 public apy3Months = 500 */\n    tag_98:\n      sload(0x02)\n      dup2\n      jump\t// out\n        /* \"contracts/WallyStaking.sol\":1140:1173  uint256 public apy12Months = 1500 */\n    tag_101:\n      sload(0x04)\n      dup2\n      jump\t// out\n        /* \"@openzeppelin/contracts/utils/introspection/ERC165.sol\":763:909  function supportsInterface(bytes4 interfaceId) public view virtual returns (bool) {... */\n    tag_106:\n        /* \"@openzeppelin/contracts/utils/introspection/ERC165.sol\":839:843  bool */\n      0x00\n        /* \"@openzeppelin/contracts/utils/introspection/ERC165.sol\":877:902  type(IERC165).interfaceId */\n      0x01ffc9a700000000000000000000000000000000000000000000000000000000\n        /* \"@openzeppelin/contracts/utils/introspection/ERC165.sol\":862:902  interfaceId == type(IERC165).interfaceId */\n      not(0xffffffffffffffffffffffffffffffffffffffffffffffffffffffff)\n      and\n        /* \"@openzeppelin/contracts/utils/introspection/ERC165.sol\":862:873  interfaceId */\n      dup3\n        /* \"@openzeppelin/contracts/utils/introspection/ERC165.sol\":862:902  interfaceId == type(IERC165).interfaceId */\n      not(0xffffffffffffffffffffffffffffffffffffffffffffffffffffffff)\n      and\n      eq\n        /* \"@openzeppelin/contracts/utils/introspection/ERC165.sol\":855:902  return interfaceId == type(IERC165).interfaceId */\n      swap1\n      pop\n        /* \"@openzeppelin/contracts/utils/introspection/ERC165.sol\":763:909  function supportsInterface(bytes4 interfaceId) public view virtual returns (bool) {... */\n      swap2\n      swap1\n      pop\n      jump\t// out\n        /* \"@openzeppelin/contracts/security/ReentrancyGuard.sol\":2336:2623  function _nonReentrantBefore() private {... */\n    tag_110:\n        /* \"@openzeppelin/contracts/security/ReentrancyGuard.sol\":1759:1760  2 */\n      0x02\n        /* \"@openzeppelin/contracts/security/ReentrancyGuard.sol\":2468:2475  _status */\n      sload(0x01)\n        /* \"@openzeppelin/contracts/security/ReentrancyGuard.sol\":2468:2487  _status != _ENTERED */\n      sub\n        /* \"@openzeppelin/contracts/security/ReentrancyGuard.sol\":2460:2523  require(_status != _ENTERED, \"ReentrancyGuard: reentrant call\") */\n      tag_205\n      jumpi\n      mload(0x40)\n      0x08c379a000000000000000000000000000000000000000000000000000000000\n      dup2\n      mstore\n      0x04\n      add\n      tag_206\n      swap1\n      tag_207\n      jump\t// in\n    tag_206:\n      mload(0x40)\n      dup1\n      swap2\n      sub\n      swap1\n      revert\n    tag_205:\n        /* \"@openzeppelin/contracts/security/ReentrancyGuard.sol\":1759:1760  2 */\n      0x02\n        /* \"@openzeppelin/contracts/security/ReentrancyGuard.sol\":2598:2605  _status */\n      0x01\n        /* \"@openzeppelin/contracts/security/ReentrancyGuard.sol\":2598:2616  _status = _ENTERED */\n      dup2\n      swap1\n      sstore\n      pop\n        /* \"@openzeppelin/contracts/security/ReentrancyGuard.sol\":2336:2623  function _nonReentrantBefore() private {... */\n      jump\t// out\n        /* \"contracts/WallyStaking.sol\":3990:4211  function _calculateReward(... */\n    tag_128:\n        /* \"contracts/WallyStaking.sol\":4124:4131  uint256 */\n      0x00\n        /* \"contracts/WallyStaking.sol\":4187:4203  365 days * 10000 */\n      0x496cebb800\n        /* \"contracts/WallyStaking.sol\":4172:4182  timeStaked */\n      dup3\n        /* \"contracts/WallyStaking.sol\":4163:4169  apyBps */\n      dup5\n        /* \"contracts/WallyStaking.sol\":4151:4160  principal */\n      dup7\n        /* \"contracts/WallyStaking.sol\":4151:4169  principal * apyBps */\n      tag_209\n      swap2\n      swap1\n      tag_210\n      jump\t// in\n    tag_209:\n        /* \"contracts/WallyStaking.sol\":4151:4182  principal * apyBps * timeStaked */\n      tag_211\n      swap2\n      swap1\n      tag_210\n      jump\t// in\n    tag_211:\n        /* \"contracts/WallyStaking.sol\":4150:4204  (principal * apyBps * timeStaked) / (365 days * 10000) */\n      tag_212\n      swap2\n      swap1\n      tag_213\n      jump\t// in\n    tag_212:\n        /* \"contracts/WallyStaking.sol\":4143:4204  return (principal * apyBps * timeStaked) / (365 days * 10000) */\n      swap1\n      pop\n        /* \"contracts/WallyStaking.sol\":3990:4211  function _calculateReward(... */\n      swap4\n      swap3\n      pop\n      pop\n      pop\n      jump\t// out\n        /* \"@openzeppelin/contracts/security/ReentrancyGuard.sol\":2629:2838  function _nonReentrantAfter() private {... */\n    tag_148:\n        /* \"@openzeppelin/contracts/security/ReentrancyGuard.sol\":1716:1717  1 */\n      0x01\n        /* \"@openzeppelin/contracts/security/ReentrancyGuard.sol\":2809:2816  _status */\n      dup1\n        /* \"@openzeppelin/contracts/security/ReentrancyGuard.sol\":2809:2831  _status = _NOT_ENTERED */\n      dup2\n      swap1\n      sstore\n      pop\n        /* \"@openzeppelin/contracts/security/ReentrancyGuard.sol\":2629:2838  function _nonReentrantAfter() private {... */\n      jump\t// out\n        /* \"@openzeppelin/contracts/access/AccessControl.sol\":3199:3302  function _checkRole(bytes32 role) internal view virtual {... */\n    tag_152:\n        /* \"@openzeppelin/contracts/access/AccessControl.sol\":3265:3295  _checkRole(role, _msgSender()) */\n      tag_216\n        /* \"@openzeppelin/contracts/access/AccessControl.sol\":3276:3280  role */\n      dup2\n        /* \"@openzeppelin/contracts/access/AccessControl.sol\":3282:3294  _msgSender() */\n      tag_217\n        /* \"@openzeppelin/contracts/access/AccessControl.sol\":3282:3292  _msgSender */\n      tag_158\n        /* \"@openzeppelin/contracts/access/AccessControl.sol\":3282:3294  _msgSender() */\n      jump\t// in\n    tag_217:\n        /* \"@openzeppelin/contracts/access/AccessControl.sol\":3265:3275  _checkRole */\n      tag_218\n        /* \"@openzeppelin/contracts/access/AccessControl.sol\":3265:3295  _checkRole(role, _msgSender()) */\n      jump\t// in\n    tag_216:\n        /* \"@openzeppelin/contracts/access/AccessControl.sol\":3199:3302  function _checkRole(bytes32 role) internal view virtual {... */\n      pop\n      jump\t// out\n        /* \"@openzeppelin/contracts/access/AccessControl.sol\":6179:6495  function _grantRole(bytes32 role, address account) internal virtual returns (bool) {... */\n    tag_155:\n        /* \"@openzeppelin/contracts/access/AccessControl.sol\":6256:6260  bool */\n      0x00\n        /* \"@openzeppelin/contracts/access/AccessControl.sol\":6277:6299  hasRole(role, account) */\n      tag_220\n        /* \"@openzeppelin/contracts/access/AccessControl.sol\":6285:6289  role */\n      dup4\n        /* \"@openzeppelin/contracts/access/AccessControl.sol\":6291:6298  account */\n      dup4\n        /* \"@openzeppelin/contracts/access/AccessControl.sol\":6277:6284  hasRole */\n      tag_82\n        /* \"@openzeppelin/contracts/access/AccessControl.sol\":6277:6299  hasRole(role, account) */\n      jump\t// in\n    tag_220:\n        /* \"@openzeppelin/contracts/access/AccessControl.sol\":6272:6489  if (!hasRole(role, account)) {... */\n      tag_221\n      jumpi\n        /* \"@openzeppelin/contracts/access/AccessControl.sol\":6347:6351  true */\n      0x01\n        /* \"@openzeppelin/contracts/access/AccessControl.sol\":6315:6321  _roles */\n      0x00\n        /* \"@openzeppelin/contracts/access/AccessControl.sol\":6315:6327  _roles[role] */\n      0x00\n        /* \"@openzeppelin/contracts/access/AccessControl.sol\":6322:6326  role */\n      dup6\n        /* \"@openzeppelin/contracts/access/AccessControl.sol\":6315:6327  _roles[role] */\n      dup2\n      mstore\n      0x20\n      add\n      swap1\n      dup2\n      mstore\n      0x20\n      add\n      0x00\n      keccak256\n        /* \"@openzeppelin/contracts/access/AccessControl.sol\":6315:6335  _roles[role].hasRole */\n      0x00\n      add\n        /* \"@openzeppelin/contracts/access/AccessControl.sol\":6315:6344  _roles[role].hasRole[account] */\n      0x00\n        /* \"@openzeppelin/contracts/access/AccessControl.sol\":6336:6343  account */\n      dup5\n        /* \"@openzeppelin/contracts/access/AccessControl.sol\":6315:6344  _roles[role].hasRole[account] */\n      0xffffffffffffffffffffffffffffffffffffffff\n      and\n      0xffffffffffffffffffffffffffffffffffffffff\n      and\n      dup2\n      mstore\n      0x20\n      add\n      swap1\n      dup2\n      mstore\n      0x20\n      add\n      0x00\n      keccak256\n      0x00\n        /* \"@openzeppelin/contracts/access/AccessControl.sol\":6315:6351  _roles[role].hasRole[account] = true */\n      0x0100\n      exp\n      dup2\n      sload\n      dup2\n      0xff\n      mul\n      not\n      and\n      swap1\n      dup4\n      iszero\n      iszero\n      mul\n      or\n      swap1\n      sstore\n      pop\n        /* \"@openzeppelin/contracts/access/AccessControl.sol\":6397:6409  _msgSender() */\n      tag_222\n        /* \"@openzeppelin/contracts/access/AccessControl.sol\":6397:6407  _msgSender */\n      tag_158\n        /* \"@openzeppelin/contracts/access/AccessControl.sol\":6397:6409  _msgSender() */\n      jump\t// in\n    tag_222:\n        /* \"@openzeppelin/contracts/access/AccessControl.sol\":6370:6410  RoleGranted(role, account, _msgSender()) */\n      0xffffffffffffffffffffffffffffffffffffffff\n      and\n        /* \"@openzeppelin/contracts/access/AccessControl.sol\":6388:6395  account */\n      dup3\n        /* \"@openzeppelin/contracts/access/AccessControl.sol\":6370:6410  RoleGranted(role, account, _msgSender()) */\n      0xffffffffffffffffffffffffffffffffffffffff\n      and\n        /* \"@openzeppelin/contracts/access/AccessControl.sol\":6382:6386  role */\n      dup5\n        /* \"@openzeppelin/contracts/access/AccessControl.sol\":6370:6410  RoleGranted(role, account, _msgSender()) */\n      0x2f8788117e7eff1d82e926ec794901d17c78024a50270940304540a733656f0d\n      mload(0x40)\n      mload(0x40)\n      dup1\n      swap2\n      sub\n      swap1\n      log4\n        /* \"@openzeppelin/contracts/access/AccessControl.sol\":6431:6435  true */\n      0x01\n        /* \"@openzeppelin/contracts/access/AccessControl.sol\":6424:6435  return true */\n      swap1\n      pop\n      jump(tag_219)\n        /* \"@openzeppelin/contracts/access/AccessControl.sol\":6272:6489  if (!hasRole(role, account)) {... */\n    tag_221:\n        /* \"@openzeppelin/contracts/access/AccessControl.sol\":6473:6478  false */\n      0x00\n        /* \"@openzeppelin/contracts/access/AccessControl.sol\":6466:6478  return false */\n      swap1\n      pop\n        /* \"@openzeppelin/contracts/access/AccessControl.sol\":6179:6495  function _grantRole(bytes32 role, address account) internal virtual returns (bool) {... */\n    tag_219:\n      swap3\n      swap2\n      pop\n      pop\n      jump\t// out\n        /* \"@openzeppelin/contracts/utils/Context.sol\":656:752  function _msgSender() internal view virtual returns (address) {... */\n    tag_158:\n        /* \"@openzeppelin/contracts/utils/Context.sol\":709:716  address */\n      0x00\n        /* \"@openzeppelin/contracts/utils/Context.sol\":735:745  msg.sender */\n      caller\n        /* \"@openzeppelin/contracts/utils/Context.sol\":728:745  return msg.sender */\n      swap1\n      pop\n        /* \"@openzeppelin/contracts/utils/Context.sol\":656:752  function _msgSender() internal view virtual returns (address) {... */\n      swap1\n      jump\t// out\n        /* \"@openzeppelin/contracts/access/AccessControl.sol\":6730:7047  function _revokeRole(bytes32 role, address account) internal virtual returns (bool) {... */\n    tag_161:\n        /* \"@openzeppelin/contracts/access/AccessControl.sol\":6808:6812  bool */\n      0x00\n        /* \"@openzeppelin/contracts/access/AccessControl.sol\":6828:6850  hasRole(role, account) */\n      tag_226\n        /* \"@openzeppelin/contracts/access/AccessControl.sol\":6836:6840  role */\n      dup4\n        /* \"@openzeppelin/contracts/access/AccessControl.sol\":6842:6849  account */\n      dup4\n        /* \"@openzeppelin/contracts/access/AccessControl.sol\":6828:6835  hasRole */\n      tag_82\n        /* \"@openzeppelin/contracts/access/AccessControl.sol\":6828:6850  hasRole(role, account) */\n      jump\t// in\n    tag_226:\n        /* \"@openzeppelin/contracts/access/AccessControl.sol\":6824:7041  if (hasRole(role, account)) {... */\n      iszero\n      tag_227\n      jumpi\n        /* \"@openzeppelin/contracts/access/AccessControl.sol\":6898:6903  false */\n      0x00\n        /* \"@openzeppelin/contracts/access/AccessControl.sol\":6866:6872  _roles */\n      0x00\n        /* \"@openzeppelin/contracts/access/AccessControl.sol\":6866:6878  _roles[role] */\n      0x00\n        /* \"@openzeppelin/contracts/access/AccessControl.sol\":6873:6877  role */\n      dup6\n        /* \"@openzeppelin/contracts/access/AccessControl.sol\":6866:6878  _roles[role] */\n      dup2\n      mstore\n      0x20\n      add\n      swap1\n      dup2\n      mstore\n      0x20\n      add\n      0x00\n      keccak256\n        /* \"@openzeppelin/contracts/access/AccessControl.sol\":6866:6886  _roles[role].hasRole */\n      0x00\n      add\n        /* \"@openzeppelin/contracts/access/AccessControl.sol\":6866:6895  _roles[role].hasRole[account] */\n      0x00\n        /* \"@openzeppelin/contracts/access/AccessControl.sol\":6887:6894  account */\n      dup5\n        /* \"@openzeppelin/contracts/access/AccessControl.sol\":6866:6895  _roles[role].hasRole[account] */\n      0xffffffffffffffffffffffffffffffffffffffff\n      and\n      0xffffffffffffffffffffffffffffffffffffffff\n      and\n      dup2\n      mstore\n      0x20\n      add\n      swap1\n      dup2\n      mstore\n      0x20\n      add\n      0x00\n      keccak256\n      0x00\n        /* \"@openzeppelin/contracts/access/AccessControl.sol\":6866:6903  _roles[role].hasRole[account] = false */\n      0x0100\n      exp\n      dup2\n      sload\n      dup2\n      0xff\n      mul\n      not\n      and\n      swap1\n      dup4\n      iszero\n      iszero\n      mul\n      or\n      swap1\n      sstore\n      pop\n        /* \"@openzeppelin/contracts/access/AccessControl.sol\":6949:6961  _msgSender() */\n      tag_228\n        /* \"@openzeppelin/contracts/access/AccessControl.sol\":6949:6959  _msgSender */\n      tag_158\n        /* \"@openzeppelin/contracts/access/AccessControl.sol\":6949:6961  _msgSender() */\n      jump\t// in\n    tag_228:\n        /* \"@openzeppelin/contracts/access/AccessControl.sol\":6922:6962  RoleRevoked(role, account, _msgSender()) */\n      0xffffffffffffffffffffffffffffffffffffffff\n      and\n        /* \"@openzeppelin/contracts/access/AccessControl.sol\":6940:6947  account */\n      dup3\n        /* \"@openzeppelin/contracts/access/AccessControl.sol\":6922:6962  RoleRevoked(role, account, _msgSender()) */\n      0xffffffffffffffffffffffffffffffffffffffff\n      and\n        /* \"@openzeppelin/contracts/access/AccessControl.sol\":6934:6938  role */\n      dup5\n        /* \"@openzeppelin/contracts/access/AccessControl.sol\":6922:6962  RoleRevoked(role, account, _msgSender()) */\n      0xf6391f5c32d9c69d2a47ea670b442974b53935d1edc7fd64eb21e047a839171b\n      mload(0x40)\n      mload(0x40)\n      dup1\n      swap2\n      sub\n      swap1\n      log4\n        /* \"@openzeppelin/contracts/access/AccessControl.sol\":6983:6987  true */\n      0x01\n        /* \"@openzeppelin/contracts/access/AccessControl.sol\":6976:6987  return true */\n      swap1\n      pop\n      jump(tag_225)\n        /* \"@openzeppelin/contracts/access/AccessControl.sol\":6824:7041  if (hasRole(role, account)) {... */\n    tag_227:\n        /* \"@openzeppelin/contracts/access/AccessControl.sol\":7025:7030  false */\n      0x00\n        /* \"@openzeppelin/contracts/access/AccessControl.sol\":7018:7030  return false */\n      swap1\n      pop\n        /* \"@openzeppelin/contracts/access/AccessControl.sol\":6730:7047  function _revokeRole(bytes32 role, address account) internal virtual returns (bool) {... */\n    tag_225:\n      swap3\n      swap2\n      pop\n      pop\n      jump\t// out\n        /* \"contracts/WallyStaking.sol\":4217:4764  function _getLockInfo(uint256 lockChoice)... */\n    tag_174:\n        /* \"contracts/WallyStaking.sol\":4306:4324  uint256 chosenLock */\n      0x00\n        /* \"contracts/WallyStaking.sol\":4326:4343  uint256 chosenAPY */\n      0x00\n        /* \"contracts/WallyStaking.sol\":4377:4378  3 */\n      0x03\n        /* \"contracts/WallyStaking.sol\":4363:4373  lockChoice */\n      dup4\n        /* \"contracts/WallyStaking.sol\":4363:4378  lockChoice == 3 */\n      sub\n        /* \"contracts/WallyStaking.sol\":4359:4758  if (lockChoice == 3) {... */\n      tag_231\n      jumpi\n        /* \"contracts/WallyStaking.sol\":879:886  90 days */\n      0x76a700\n        /* \"contracts/WallyStaking.sol\":4394:4420  chosenLock = LOCK_3_MONTHS */\n      swap2\n      pop\n        /* \"contracts/WallyStaking.sol\":4446:4456  apy3Months */\n      sload(0x02)\n        /* \"contracts/WallyStaking.sol\":4434:4456  chosenAPY = apy3Months */\n      swap1\n      pop\n        /* \"contracts/WallyStaking.sol\":4359:4758  if (lockChoice == 3) {... */\n      jump(tag_232)\n    tag_231:\n        /* \"contracts/WallyStaking.sol\":4491:4492  6 */\n      0x06\n        /* \"contracts/WallyStaking.sol\":4477:4487  lockChoice */\n      dup4\n        /* \"contracts/WallyStaking.sol\":4477:4492  lockChoice == 6 */\n      sub\n        /* \"contracts/WallyStaking.sol\":4473:4758  if (lockChoice == 6) {... */\n      tag_233\n      jumpi\n        /* \"contracts/WallyStaking.sol\":932:940  180 days */\n      0xed4e00\n        /* \"contracts/WallyStaking.sol\":4508:4534  chosenLock = LOCK_6_MONTHS */\n      swap2\n      pop\n        /* \"contracts/WallyStaking.sol\":4560:4570  apy6Months */\n      sload(0x03)\n        /* \"contracts/WallyStaking.sol\":4548:4570  chosenAPY = apy6Months */\n      swap1\n      pop\n        /* \"contracts/WallyStaking.sol\":4473:4758  if (lockChoice == 6) {... */\n      jump(tag_234)\n    tag_233:\n        /* \"contracts/WallyStaking.sol\":4605:4607  12 */\n      0x0c\n        /* \"contracts/WallyStaking.sol\":4591:4601  lockChoice */\n      dup4\n        /* \"contracts/WallyStaking.sol\":4591:4607  lockChoice == 12 */\n      sub\n        /* \"contracts/WallyStaking.sol\":4587:4758  if (lockChoice == 12) {... */\n      tag_235\n      jumpi\n        /* \"contracts/WallyStaking.sol\":987:995  365 days */\n      0x01e13380\n        /* \"contracts/WallyStaking.sol\":4623:4650  chosenLock = LOCK_12_MONTHS */\n      swap2\n      pop\n        /* \"contracts/WallyStaking.sol\":4676:4687  apy12Months */\n      sload(0x04)\n        /* \"contracts/WallyStaking.sol\":4664:4687  chosenAPY = apy12Months */\n      swap1\n      pop\n        /* \"contracts/WallyStaking.sol\":4587:4758  if (lockChoice == 12) {... */\n      jump(tag_236)\n    tag_235:\n        /* \"contracts/WallyStaking.sol\":4718:4747  revert(\"Invalid lock choice\") */\n      mload(0x40)\n      0x08c379a000000000000000000000000000000000000000000000000000000000\n      dup2\n      mstore\n      0x04\n      add\n      tag_237\n      swap1\n      tag_238\n      jump\t// in\n    tag_237:\n      mload(0x40)\n      dup1\n      swap2\n      sub\n      swap1\n      revert\n        /* \"contracts/WallyStaking.sol\":4587:4758  if (lockChoice == 12) {... */\n    tag_236:\n        /* \"contracts/WallyStaking.sol\":4473:4758  if (lockChoice == 6) {... */\n    tag_234:\n        /* \"contracts/WallyStaking.sol\":4359:4758  if (lockChoice == 3) {... */\n    tag_232:\n        /* \"contracts/WallyStaking.sol\":4217:4764  function _getLockInfo(uint256 lockChoice)... */\n      swap2\n      pop\n      swap2\n      jump\t// out\n        /* \"@openzeppelin/contracts/access/AccessControl.sol\":3432:3629  function _checkRole(bytes32 role, address account) internal view virtual {... */\n    tag_218:\n        /* \"@openzeppelin/contracts/access/AccessControl.sol\":3520:3542  hasRole(role, account) */\n      tag_240\n        /* \"@openzeppelin/contracts/access/AccessControl.sol\":3528:3532  role */\n      dup3\n        /* \"@openzeppelin/contracts/access/AccessControl.sol\":3534:3541  account */\n      dup3\n        /* \"@openzeppelin/contracts/access/AccessControl.sol\":3520:3527  hasRole */\n      tag_82\n        /* \"@openzeppelin/contracts/access/AccessControl.sol\":3520:3542  hasRole(role, account) */\n      jump\t// in\n    tag_240:\n        /* \"@openzeppelin/contracts/access/AccessControl.sol\":3515:3623  if (!hasRole(role, account)) {... */\n      tag_241\n      jumpi\n        /* \"@openzeppelin/contracts/access/AccessControl.sol\":3598:3605  account */\n      dup1\n        /* \"@openzeppelin/contracts/access/AccessControl.sol\":3607:3611  role */\n      dup3\n        /* \"@openzeppelin/contracts/access/AccessControl.sol\":3565:3612  AccessControlUnauthorizedAccount(account, role) */\n      mload(0x40)\n      0xe2517d3f00000000000000000000000000000000000000000000000000000000\n      dup2\n      mstore\n      0x04\n      add\n      tag_242\n      swap3\n      swap2\n      swap1\n      tag_243\n      jump\t// in\n    tag_242:\n      mload(0x40)\n      dup1\n      swap2\n      sub\n      swap1\n      revert\n        /* \"@openzeppelin/contracts/access/AccessControl.sol\":3515:3623  if (!hasRole(role, account)) {... */\n    tag_241:\n        /* \"@openzeppelin/contracts/access/AccessControl.sol\":3432:3629  function _checkRole(bytes32 role, address account) internal view virtual {... */\n      pop\n      pop\n      jump\t// out\n        /* \"#utility.yul\":88:205   */\n    tag_245:\n        /* \"#utility.yul\":197:198   */\n      0x00\n        /* \"#utility.yul\":194:195   */\n      0x00\n        /* \"#utility.yul\":187:199   */\n      revert\n        /* \"#utility.yul\":334:483   */\n    tag_247:\n        /* \"#utility.yul\":370:377   */\n      0x00\n        /* \"#utility.yul\":410:476   */\n      0xffffffff00000000000000000000000000000000000000000000000000000000\n        /* \"#utility.yul\":403:408   */\n      dup3\n        /* \"#utility.yul\":399:477   */\n      and\n        /* \"#utility.yul\":388:477   */\n      swap1\n      pop\n        /* \"#utility.yul\":334:483   */\n      swap2\n      swap1\n      pop\n      jump\t// out\n        /* \"#utility.yul\":489:609   */\n    tag_248:\n        /* \"#utility.yul\":561:584   */\n      tag_300\n        /* \"#utility.yul\":578:583   */\n      dup2\n        /* \"#utility.yul\":561:584   */\n      tag_247\n      jump\t// in\n    tag_300:\n        /* \"#utility.yul\":554:559   */\n      dup2\n        /* \"#utility.yul\":551:585   */\n      eq\n        /* \"#utility.yul\":541:603   */\n      tag_301\n      jumpi\n        /* \"#utility.yul\":599:600   */\n      0x00\n        /* \"#utility.yul\":596:597   */\n      0x00\n        /* \"#utility.yul\":589:601   */\n      revert\n        /* \"#utility.yul\":541:603   */\n    tag_301:\n        /* \"#utility.yul\":489:609   */\n      pop\n      jump\t// out\n        /* \"#utility.yul\":615:752   */\n    tag_249:\n        /* \"#utility.yul\":660:665   */\n      0x00\n        /* \"#utility.yul\":698:704   */\n      dup2\n        /* \"#utility.yul\":685:705   */\n      calldataload\n        /* \"#utility.yul\":676:705   */\n      swap1\n      pop\n        /* \"#utility.yul\":714:746   */\n      tag_303\n        /* \"#utility.yul\":740:745   */\n      dup2\n        /* \"#utility.yul\":714:746   */\n      tag_248\n      jump\t// in\n    tag_303:\n        /* \"#utility.yul\":615:752   */\n      swap3\n      swap2\n      pop\n      pop\n      jump\t// out\n        /* \"#utility.yul\":758:1085   */\n    tag_28:\n        /* \"#utility.yul\":816:822   */\n      0x00\n        /* \"#utility.yul\":865:867   */\n      0x20\n        /* \"#utility.yul\":853:862   */\n      dup3\n        /* \"#utility.yul\":844:851   */\n      dup5\n        /* \"#utility.yul\":840:863   */\n      sub\n        /* \"#utility.yul\":836:868   */\n      slt\n        /* \"#utility.yul\":833:952   */\n      iszero\n      tag_305\n      jumpi\n        /* \"#utility.yul\":871:950   */\n      tag_306\n      tag_245\n      jump\t// in\n    tag_306:\n        /* \"#utility.yul\":833:952   */\n    tag_305:\n        /* \"#utility.yul\":991:992   */\n      0x00\n        /* \"#utility.yul\":1016:1068   */\n      tag_307\n        /* \"#utility.yul\":1060:1067   */\n      dup5\n        /* \"#utility.yul\":1051:1057   */\n      dup3\n        /* \"#utility.yul\":1040:1049   */\n      dup6\n        /* \"#utility.yul\":1036:1058   */\n      add\n        /* \"#utility.yul\":1016:1068   */\n      tag_249\n      jump\t// in\n    tag_307:\n        /* \"#utility.yul\":1006:1068   */\n      swap2\n      pop\n        /* \"#utility.yul\":962:1078   */\n      pop\n        /* \"#utility.yul\":758:1085   */\n      swap3\n      swap2\n      pop\n      pop\n      jump\t// out\n        /* \"#utility.yul\":1091:1181   */\n    tag_250:\n        /* \"#utility.yul\":1125:1132   */\n      0x00\n        /* \"#utility.yul\":1168:1173   */\n      dup2\n        /* \"#utility.yul\":1161:1174   */\n      iszero\n        /* \"#utility.yul\":1154:1175   */\n      iszero\n        /* \"#utility.yul\":1143:1175   */\n      swap1\n      pop\n        /* \"#utility.yul\":1091:1181   */\n      swap2\n      swap1\n      pop\n      jump\t// out\n        /* \"#utility.yul\":1187:1296   */\n    tag_251:\n        /* \"#utility.yul\":1268:1289   */\n      tag_310\n        /* \"#utility.yul\":1283:1288   */\n      dup2\n        /* \"#utility.yul\":1268:1289   */\n      tag_250\n      jump\t// in\n    tag_310:\n        /* \"#utility.yul\":1263:1266   */\n      dup3\n        /* \"#utility.yul\":1256:1290   */\n      mstore\n        /* \"#utility.yul\":1187:1296   */\n      pop\n      pop\n      jump\t// out\n        /* \"#utility.yul\":1302:1512   */\n    tag_31:\n        /* \"#utility.yul\":1389:1393   */\n      0x00\n        /* \"#utility.yul\":1427:1429   */\n      0x20\n        /* \"#utility.yul\":1416:1425   */\n      dup3\n        /* \"#utility.yul\":1412:1430   */\n      add\n        /* \"#utility.yul\":1404:1430   */\n      swap1\n      pop\n        /* \"#utility.yul\":1440:1505   */\n      tag_312\n        /* \"#utility.yul\":1502:1503   */\n      0x00\n        /* \"#utility.yul\":1491:1500   */\n      dup4\n        /* \"#utility.yul\":1487:1504   */\n      add\n        /* \"#utility.yul\":1478:1484   */\n      dup5\n        /* \"#utility.yul\":1440:1505   */\n      tag_251\n      jump\t// in\n    tag_312:\n        /* \"#utility.yul\":1302:1512   */\n      swap3\n      swap2\n      pop\n      pop\n      jump\t// out\n        /* \"#utility.yul\":1518:1644   */\n    tag_252:\n        /* \"#utility.yul\":1555:1562   */\n      0x00\n        /* \"#utility.yul\":1595:1637   */\n      0xffffffffffffffffffffffffffffffffffffffff\n        /* \"#utility.yul\":1588:1593   */\n      dup3\n        /* \"#utility.yul\":1584:1638   */\n      and\n        /* \"#utility.yul\":1573:1638   */\n      swap1\n      pop\n        /* \"#utility.yul\":1518:1644   */\n      swap2\n      swap1\n      pop\n      jump\t// out\n        /* \"#utility.yul\":1650:1710   */\n    tag_253:\n        /* \"#utility.yul\":1678:1681   */\n      0x00\n        /* \"#utility.yul\":1699:1704   */\n      dup2\n        /* \"#utility.yul\":1692:1704   */\n      swap1\n      pop\n        /* \"#utility.yul\":1650:1710   */\n      swap2\n      swap1\n      pop\n      jump\t// out\n        /* \"#utility.yul\":1716:1858   */\n    tag_254:\n        /* \"#utility.yul\":1766:1775   */\n      0x00\n        /* \"#utility.yul\":1799:1852   */\n      tag_316\n        /* \"#utility.yul\":1817:1851   */\n      tag_317\n        /* \"#utility.yul\":1826:1850   */\n      tag_318\n        /* \"#utility.yul\":1844:1849   */\n      dup5\n        /* \"#utility.yul\":1826:1850   */\n      tag_252\n      jump\t// in\n    tag_318:\n        /* \"#utility.yul\":1817:1851   */\n      tag_253\n      jump\t// in\n    tag_317:\n        /* \"#utility.yul\":1799:1852   */\n      tag_252\n      jump\t// in\n    tag_316:\n        /* \"#utility.yul\":1786:1852   */\n      swap1\n      pop\n        /* \"#utility.yul\":1716:1858   */\n      swap2\n      swap1\n      pop\n      jump\t// out\n        /* \"#utility.yul\":1864:1990   */\n    tag_255:\n        /* \"#utility.yul\":1914:1923   */\n      0x00\n        /* \"#utility.yul\":1947:1984   */\n      tag_320\n        /* \"#utility.yul\":1978:1983   */\n      dup3\n        /* \"#utility.yul\":1947:1984   */\n      tag_254\n      jump\t// in\n    tag_320:\n        /* \"#utility.yul\":1934:1984   */\n      swap1\n      pop\n        /* \"#utility.yul\":1864:1990   */\n      swap2\n      swap1\n      pop\n      jump\t// out\n        /* \"#utility.yul\":1996:2136   */\n    tag_256:\n        /* \"#utility.yul\":2060:2069   */\n      0x00\n        /* \"#utility.yul\":2093:2130   */\n      tag_322\n        /* \"#utility.yul\":2124:2129   */\n      dup3\n        /* \"#utility.yul\":2093:2130   */\n      tag_255\n      jump\t// in\n    tag_322:\n        /* \"#utility.yul\":2080:2130   */\n      swap1\n      pop\n        /* \"#utility.yul\":1996:2136   */\n      swap2\n      swap1\n      pop\n      jump\t// out\n        /* \"#utility.yul\":2142:2301   */\n    tag_257:\n        /* \"#utility.yul\":2243:2294   */\n      tag_324\n        /* \"#utility.yul\":2288:2293   */\n      dup2\n        /* \"#utility.yul\":2243:2294   */\n      tag_256\n      jump\t// in\n    tag_324:\n        /* \"#utility.yul\":2238:2241   */\n      dup3\n        /* \"#utility.yul\":2231:2295   */\n      mstore\n        /* \"#utility.yul\":2142:2301   */\n      pop\n      pop\n      jump\t// out\n        /* \"#utility.yul\":2307:2557   */\n    tag_35:\n        /* \"#utility.yul\":2414:2418   */\n      0x00\n        /* \"#utility.yul\":2452:2454   */\n      0x20\n        /* \"#utility.yul\":2441:2450   */\n      dup3\n        /* \"#utility.yul\":2437:2455   */\n      add\n        /* \"#utility.yul\":2429:2455   */\n      swap1\n      pop\n        /* \"#utility.yul\":2465:2550   */\n      tag_326\n        /* \"#utility.yul\":2547:2548   */\n      0x00\n        /* \"#utility.yul\":2536:2545   */\n      dup4\n        /* \"#utility.yul\":2532:2549   */\n      add\n        /* \"#utility.yul\":2523:2529   */\n      dup5\n        /* \"#utility.yul\":2465:2550   */\n      tag_257\n      jump\t// in\n    tag_326:\n        /* \"#utility.yul\":2307:2557   */\n      swap3\n      swap2\n      pop\n      pop\n      jump\t// out\n        /* \"#utility.yul\":2563:2640   */\n    tag_258:\n        /* \"#utility.yul\":2600:2607   */\n      0x00\n        /* \"#utility.yul\":2629:2634   */\n      dup2\n        /* \"#utility.yul\":2618:2634   */\n      swap1\n      pop\n        /* \"#utility.yul\":2563:2640   */\n      swap2\n      swap1\n      pop\n      jump\t// out\n        /* \"#utility.yul\":2646:2764   */\n    tag_259:\n        /* \"#utility.yul\":2733:2757   */\n      tag_329\n        /* \"#utility.yul\":2751:2756   */\n      dup2\n        /* \"#utility.yul\":2733:2757   */\n      tag_258\n      jump\t// in\n    tag_329:\n        /* \"#utility.yul\":2728:2731   */\n      dup3\n        /* \"#utility.yul\":2721:2758   */\n      mstore\n        /* \"#utility.yul\":2646:2764   */\n      pop\n      pop\n      jump\t// out\n        /* \"#utility.yul\":2770:2992   */\n    tag_39:\n        /* \"#utility.yul\":2863:2867   */\n      0x00\n        /* \"#utility.yul\":2901:2903   */\n      0x20\n        /* \"#utility.yul\":2890:2899   */\n      dup3\n        /* \"#utility.yul\":2886:2904   */\n      add\n        /* \"#utility.yul\":2878:2904   */\n      swap1\n      pop\n        /* \"#utility.yul\":2914:2985   */\n      tag_331\n        /* \"#utility.yul\":2982:2983   */\n      0x00\n        /* \"#utility.yul\":2971:2980   */\n      dup4\n        /* \"#utility.yul\":2967:2984   */\n      add\n        /* \"#utility.yul\":2958:2964   */\n      dup5\n        /* \"#utility.yul\":2914:2985   */\n      tag_259\n      jump\t// in\n    tag_331:\n        /* \"#utility.yul\":2770:2992   */\n      swap3\n      swap2\n      pop\n      pop\n      jump\t// out\n        /* \"#utility.yul\":2998:3075   */\n    tag_260:\n        /* \"#utility.yul\":3035:3042   */\n      0x00\n        /* \"#utility.yul\":3064:3069   */\n      dup2\n        /* \"#utility.yul\":3053:3069   */\n      swap1\n      pop\n        /* \"#utility.yul\":2998:3075   */\n      swap2\n      swap1\n      pop\n      jump\t// out\n        /* \"#utility.yul\":3081:3203   */\n    tag_261:\n        /* \"#utility.yul\":3154:3178   */\n      tag_334\n        /* \"#utility.yul\":3172:3177   */\n      dup2\n        /* \"#utility.yul\":3154:3178   */\n      tag_260\n      jump\t// in\n    tag_334:\n        /* \"#utility.yul\":3147:3152   */\n      dup2\n        /* \"#utility.yul\":3144:3179   */\n      eq\n        /* \"#utility.yul\":3134:3197   */\n      tag_335\n      jumpi\n        /* \"#utility.yul\":3193:3194   */\n      0x00\n        /* \"#utility.yul\":3190:3191   */\n      0x00\n        /* \"#utility.yul\":3183:3195   */\n      revert\n        /* \"#utility.yul\":3134:3197   */\n    tag_335:\n        /* \"#utility.yul\":3081:3203   */\n      pop\n      jump\t// out\n        /* \"#utility.yul\":3209:3348   */\n    tag_262:\n        /* \"#utility.yul\":3255:3260   */\n      0x00\n        /* \"#utility.yul\":3293:3299   */\n      dup2\n        /* \"#utility.yul\":3280:3300   */\n      calldataload\n        /* \"#utility.yul\":3271:3300   */\n      swap1\n      pop\n        /* \"#utility.yul\":3309:3342   */\n      tag_337\n        /* \"#utility.yul\":3336:3341   */\n      dup2\n        /* \"#utility.yul\":3309:3342   */\n      tag_261\n      jump\t// in\n    tag_337:\n        /* \"#utility.yul\":3209:3348   */\n      swap3\n      swap2\n      pop\n      pop\n      jump\t// out\n        /* \"#utility.yul\":3354:3683   */\n    tag_42:\n        /* \"#utility.yul\":3413:3419   */\n      0x00\n        /* \"#utility.yul\":3462:3464   */\n      0x20\n        /* \"#utility.yul\":3450:3459   */\n      dup3\n        /* \"#utility.yul\":3441:3448   */\n      dup5\n        /* \"#utility.yul\":3437:3460   */\n      sub\n        /* \"#utility.yul\":3433:3465   */\n      slt\n        /* \"#utility.yul\":3430:3549   */\n      iszero\n      tag_339\n      jumpi\n        /* \"#utility.yul\":3468:3547   */\n      tag_340\n      tag_245\n      jump\t// in\n    tag_340:\n        /* \"#utility.yul\":3430:3549   */\n    tag_339:\n        /* \"#utility.yul\":3588:3589   */\n      0x00\n        /* \"#utility.yul\":3613:3666   */\n      tag_341\n        /* \"#utility.yul\":3658:3665   */\n      dup5\n        /* \"#utility.yul\":3649:3655   */\n      dup3\n        /* \"#utility.yul\":3638:3647   */\n      dup6\n        /* \"#utility.yul\":3634:3656   */\n      add\n        /* \"#utility.yul\":3613:3666   */\n      tag_262\n      jump\t// in\n    tag_341:\n        /* \"#utility.yul\":3603:3666   */\n      swap2\n      pop\n        /* \"#utility.yul\":3559:3676   */\n      pop\n        /* \"#utility.yul\":3354:3683   */\n      swap3\n      swap2\n      pop\n      pop\n      jump\t// out\n        /* \"#utility.yul\":3689:3807   */\n    tag_263:\n        /* \"#utility.yul\":3776:3800   */\n      tag_343\n        /* \"#utility.yul\":3794:3799   */\n      dup2\n        /* \"#utility.yul\":3776:3800   */\n      tag_260\n      jump\t// in\n    tag_343:\n        /* \"#utility.yul\":3771:3774   */\n      dup3\n        /* \"#utility.yul\":3764:3801   */\n      mstore\n        /* \"#utility.yul\":3689:3807   */\n      pop\n      pop\n      jump\t// out\n        /* \"#utility.yul\":3813:4035   */\n    tag_45:\n        /* \"#utility.yul\":3906:3910   */\n      0x00\n        /* \"#utility.yul\":3944:3946   */\n      0x20\n        /* \"#utility.yul\":3933:3942   */\n      dup3\n        /* \"#utility.yul\":3929:3947   */\n      add\n        /* \"#utility.yul\":3921:3947   */\n      swap1\n      pop\n        /* \"#utility.yul\":3957:4028   */\n      tag_345\n        /* \"#utility.yul\":4025:4026   */\n      0x00\n        /* \"#utility.yul\":4014:4023   */\n      dup4\n        /* \"#utility.yul\":4010:4027   */\n      add\n        /* \"#utility.yul\":4001:4007   */\n      dup5\n        /* \"#utility.yul\":3957:4028   */\n      tag_263\n      jump\t// in\n    tag_345:\n        /* \"#utility.yul\":3813:4035   */\n      swap3\n      swap2\n      pop\n      pop\n      jump\t// out\n        /* \"#utility.yul\":4041:4163   */\n    tag_264:\n        /* \"#utility.yul\":4114:4138   */\n      tag_347\n        /* \"#utility.yul\":4132:4137   */\n      dup2\n        /* \"#utility.yul\":4114:4138   */\n      tag_258\n      jump\t// in\n    tag_347:\n        /* \"#utility.yul\":4107:4112   */\n      dup2\n        /* \"#utility.yul\":4104:4139   */\n      eq\n        /* \"#utility.yul\":4094:4157   */\n      tag_348\n      jumpi\n        /* \"#utility.yul\":4153:4154   */\n      0x00\n        /* \"#utility.yul\":4150:4151   */\n      0x00\n        /* \"#utility.yul\":4143:4155   */\n      revert\n        /* \"#utility.yul\":4094:4157   */\n    tag_348:\n        /* \"#utility.yul\":4041:4163   */\n      pop\n      jump\t// out\n        /* \"#utility.yul\":4169:4308   */\n    tag_265:\n        /* \"#utility.yul\":4215:4220   */\n      0x00\n        /* \"#utility.yul\":4253:4259   */\n      dup2\n        /* \"#utility.yul\":4240:4260   */\n      calldataload\n        /* \"#utility.yul\":4231:4260   */\n      swap1\n      pop\n        /* \"#utility.yul\":4269:4302   */\n      tag_350\n        /* \"#utility.yul\":4296:4301   */\n      dup2\n        /* \"#utility.yul\":4269:4302   */\n      tag_264\n      jump\t// in\n    tag_350:\n        /* \"#utility.yul\":4169:4308   */\n      swap3\n      swap2\n      pop\n      pop\n      jump\t// out\n        /* \"#utility.yul\":4314:4643   */\n    tag_48:\n        /* \"#utility.yul\":4373:4379   */\n      0x00\n        /* \"#utility.yul\":4422:4424   */\n      0x20\n        /* \"#utility.yul\":4410:4419   */\n      dup3\n        /* \"#utility.yul\":4401:4408   */\n      dup5\n        /* \"#utility.yul\":4397:4420   */\n      sub\n        /* \"#utility.yul\":4393:4425   */\n      slt\n        /* \"#utility.yul\":4390:4509   */\n      iszero\n      tag_352\n      jumpi\n        /* \"#utility.yul\":4428:4507   */\n      tag_353\n      tag_245\n      jump\t// in\n    tag_353:\n        /* \"#utility.yul\":4390:4509   */\n    tag_352:\n        /* \"#utility.yul\":4548:4549   */\n      0x00\n        /* \"#utility.yul\":4573:4626   */\n      tag_354\n        /* \"#utility.yul\":4618:4625   */\n      dup5\n        /* \"#utility.yul\":4609:4615   */\n      dup3\n        /* \"#utility.yul\":4598:4607   */\n      dup6\n        /* \"#utility.yul\":4594:4616   */\n      add\n        /* \"#utility.yul\":4573:4626   */\n      tag_265\n      jump\t// in\n    tag_354:\n        /* \"#utility.yul\":4563:4626   */\n      swap2\n      pop\n        /* \"#utility.yul\":4519:4636   */\n      pop\n        /* \"#utility.yul\":4314:4643   */\n      swap3\n      swap2\n      pop\n      pop\n      jump\t// out\n        /* \"#utility.yul\":4649:4745   */\n    tag_266:\n        /* \"#utility.yul\":4686:4693   */\n      0x00\n        /* \"#utility.yul\":4715:4739   */\n      tag_356\n        /* \"#utility.yul\":4733:4738   */\n      dup3\n        /* \"#utility.yul\":4715:4739   */\n      tag_252\n      jump\t// in\n    tag_356:\n        /* \"#utility.yul\":4704:4739   */\n      swap1\n      pop\n        /* \"#utility.yul\":4649:4745   */\n      swap2\n      swap1\n      pop\n      jump\t// out\n        /* \"#utility.yul\":4751:4873   */\n    tag_267:\n        /* \"#utility.yul\":4824:4848   */\n      tag_358\n        /* \"#utility.yul\":4842:4847   */\n      dup2\n        /* \"#utility.yul\":4824:4848   */\n      tag_266\n      jump\t// in\n    tag_358:\n        /* \"#utility.yul\":4817:4822   */\n      dup2\n        /* \"#utility.yul\":4814:4849   */\n      eq\n        /* \"#utility.yul\":4804:4867   */\n      tag_359\n      jumpi\n        /* \"#utility.yul\":4863:4864   */\n      0x00\n        /* \"#utility.yul\":4860:4861   */\n      0x00\n        /* \"#utility.yul\":4853:4865   */\n      revert\n        /* \"#utility.yul\":4804:4867   */\n    tag_359:\n        /* \"#utility.yul\":4751:4873   */\n      pop\n      jump\t// out\n        /* \"#utility.yul\":4879:5018   */\n    tag_268:\n        /* \"#utility.yul\":4925:4930   */\n      0x00\n        /* \"#utility.yul\":4963:4969   */\n      dup2\n        /* \"#utility.yul\":4950:4970   */\n      calldataload\n        /* \"#utility.yul\":4941:4970   */\n      swap1\n      pop\n        /* \"#utility.yul\":4979:5012   */\n      tag_361\n        /* \"#utility.yul\":5006:5011   */\n      dup2\n        /* \"#utility.yul\":4979:5012   */\n      tag_267\n      jump\t// in\n    tag_361:\n        /* \"#utility.yul\":4879:5018   */\n      swap3\n      swap2\n      pop\n      pop\n      jump\t// out\n        /* \"#utility.yul\":5024:5498   */\n    tag_52:\n        /* \"#utility.yul\":5092:5098   */\n      0x00\n        /* \"#utility.yul\":5100:5106   */\n      0x00\n        /* \"#utility.yul\":5149:5151   */\n      0x40\n        /* \"#utility.yul\":5137:5146   */\n      dup4\n        /* \"#utility.yul\":5128:5135   */\n      dup6\n        /* \"#utility.yul\":5124:5147   */\n      sub\n        /* \"#utility.yul\":5120:5152   */\n      slt\n        /* \"#utility.yul\":5117:5236   */\n      iszero\n      tag_363\n      jumpi\n        /* \"#utility.yul\":5155:5234   */\n      tag_364\n      tag_245\n      jump\t// in\n    tag_364:\n        /* \"#utility.yul\":5117:5236   */\n    tag_363:\n        /* \"#utility.yul\":5275:5276   */\n      0x00\n        /* \"#utility.yul\":5300:5353   */\n      tag_365\n        /* \"#utility.yul\":5345:5352   */\n      dup6\n        /* \"#utility.yul\":5336:5342   */\n      dup3\n        /* \"#utility.yul\":5325:5334   */\n      dup7\n        /* \"#utility.yul\":5321:5343   */\n      add\n        /* \"#utility.yul\":5300:5353   */\n      tag_262\n      jump\t// in\n    tag_365:\n        /* \"#utility.yul\":5290:5353   */\n      swap3\n      pop\n        /* \"#utility.yul\":5246:5363   */\n      pop\n        /* \"#utility.yul\":5402:5404   */\n      0x20\n        /* \"#utility.yul\":5428:5481   */\n      tag_366\n        /* \"#utility.yul\":5473:5480   */\n      dup6\n        /* \"#utility.yul\":5464:5470   */\n      dup3\n        /* \"#utility.yul\":5453:5462   */\n      dup7\n        /* \"#utility.yul\":5449:5471   */\n      add\n        /* \"#utility.yul\":5428:5481   */\n      tag_268\n      jump\t// in\n    tag_366:\n        /* \"#utility.yul\":5418:5481   */\n      swap2\n      pop\n        /* \"#utility.yul\":5373:5491   */\n      pop\n        /* \"#utility.yul\":5024:5498   */\n      swap3\n      pop\n      swap3\n      swap1\n      pop\n      jump\t// out\n        /* \"#utility.yul\":5504:5978   */\n    tag_62:\n        /* \"#utility.yul\":5572:5578   */\n      0x00\n        /* \"#utility.yul\":5580:5586   */\n      0x00\n        /* \"#utility.yul\":5629:5631   */\n      0x40\n        /* \"#utility.yul\":5617:5626   */\n      dup4\n        /* \"#utility.yul\":5608:5615   */\n      dup6\n        /* \"#utility.yul\":5604:5627   */\n      sub\n        /* \"#utility.yul\":5600:5632   */\n      slt\n        /* \"#utility.yul\":5597:5716   */\n      iszero\n      tag_368\n      jumpi\n        /* \"#utility.yul\":5635:5714   */\n      tag_369\n      tag_245\n      jump\t// in\n    tag_369:\n        /* \"#utility.yul\":5597:5716   */\n    tag_368:\n        /* \"#utility.yul\":5755:5756   */\n      0x00\n        /* \"#utility.yul\":5780:5833   */\n      tag_370\n        /* \"#utility.yul\":5825:5832   */\n      dup6\n        /* \"#utility.yul\":5816:5822   */\n      dup3\n        /* \"#utility.yul\":5805:5814   */\n      dup7\n        /* \"#utility.yul\":5801:5823   */\n      add\n        /* \"#utility.yul\":5780:5833   */\n      tag_268\n      jump\t// in\n    tag_370:\n        /* \"#utility.yul\":5770:5833   */\n      swap3\n      pop\n        /* \"#utility.yul\":5726:5843   */\n      pop\n        /* \"#utility.yul\":5882:5884   */\n      0x20\n        /* \"#utility.yul\":5908:5961   */\n      tag_371\n        /* \"#utility.yul\":5953:5960   */\n      dup6\n        /* \"#utility.yul\":5944:5950   */\n      dup3\n        /* \"#utility.yul\":5933:5942   */\n      dup7\n        /* \"#utility.yul\":5929:5951   */\n      add\n        /* \"#utility.yul\":5908:5961   */\n      tag_265\n      jump\t// in\n    tag_371:\n        /* \"#utility.yul\":5898:5961   */\n      swap2\n      pop\n        /* \"#utility.yul\":5853:5971   */\n      pop\n        /* \"#utility.yul\":5504:5978   */\n      swap3\n      pop\n      swap3\n      swap1\n      pop\n      jump\t// out\n        /* \"#utility.yul\":5984:6636   */\n    tag_65:\n        /* \"#utility.yul\":6183:6187   */\n      0x00\n        /* \"#utility.yul\":6221:6224   */\n      0xa0\n        /* \"#utility.yul\":6210:6219   */\n      dup3\n        /* \"#utility.yul\":6206:6225   */\n      add\n        /* \"#utility.yul\":6198:6225   */\n      swap1\n      pop\n        /* \"#utility.yul\":6235:6306   */\n      tag_373\n        /* \"#utility.yul\":6303:6304   */\n      0x00\n        /* \"#utility.yul\":6292:6301   */\n      dup4\n        /* \"#utility.yul\":6288:6305   */\n      add\n        /* \"#utility.yul\":6279:6285   */\n      dup9\n        /* \"#utility.yul\":6235:6306   */\n      tag_259\n      jump\t// in\n    tag_373:\n        /* \"#utility.yul\":6316:6388   */\n      tag_374\n        /* \"#utility.yul\":6384:6386   */\n      0x20\n        /* \"#utility.yul\":6373:6382   */\n      dup4\n        /* \"#utility.yul\":6369:6387   */\n      add\n        /* \"#utility.yul\":6360:6366   */\n      dup8\n        /* \"#utility.yul\":6316:6388   */\n      tag_259\n      jump\t// in\n    tag_374:\n        /* \"#utility.yul\":6398:6470   */\n      tag_375\n        /* \"#utility.yul\":6466:6468   */\n      0x40\n        /* \"#utility.yul\":6455:6464   */\n      dup4\n        /* \"#utility.yul\":6451:6469   */\n      add\n        /* \"#utility.yul\":6442:6448   */\n      dup7\n        /* \"#utility.yul\":6398:6470   */\n      tag_259\n      jump\t// in\n    tag_375:\n        /* \"#utility.yul\":6480:6552   */\n      tag_376\n        /* \"#utility.yul\":6548:6550   */\n      0x60\n        /* \"#utility.yul\":6537:6546   */\n      dup4\n        /* \"#utility.yul\":6533:6551   */\n      add\n        /* \"#utility.yul\":6524:6530   */\n      dup6\n        /* \"#utility.yul\":6480:6552   */\n      tag_259\n      jump\t// in\n    tag_376:\n        /* \"#utility.yul\":6562:6629   */\n      tag_377\n        /* \"#utility.yul\":6624:6627   */\n      0x80\n        /* \"#utility.yul\":6613:6622   */\n      dup4\n        /* \"#utility.yul\":6609:6628   */\n      add\n        /* \"#utility.yul\":6600:6606   */\n      dup5\n        /* \"#utility.yul\":6562:6629   */\n      tag_251\n      jump\t// in\n    tag_377:\n        /* \"#utility.yul\":5984:6636   */\n      swap7\n      swap6\n      pop\n      pop\n      pop\n      pop\n      pop\n      pop\n      jump\t// out\n        /* \"#utility.yul\":6642:7261   */\n    tag_74:\n        /* \"#utility.yul\":6719:6725   */\n      0x00\n        /* \"#utility.yul\":6727:6733   */\n      0x00\n        /* \"#utility.yul\":6735:6741   */\n      0x00\n        /* \"#utility.yul\":6784:6786   */\n      0x60\n        /* \"#utility.yul\":6772:6781   */\n      dup5\n        /* \"#utility.yul\":6763:6770   */\n      dup7\n        /* \"#utility.yul\":6759:6782   */\n      sub\n        /* \"#utility.yul\":6755:6787   */\n      slt\n        /* \"#utility.yul\":6752:6871   */\n      iszero\n      tag_379\n      jumpi\n        /* \"#utility.yul\":6790:6869   */\n      tag_380\n      tag_245\n      jump\t// in\n    tag_380:\n        /* \"#utility.yul\":6752:6871   */\n    tag_379:\n        /* \"#utility.yul\":6910:6911   */\n      0x00\n        /* \"#utility.yul\":6935:6988   */\n      tag_381\n        /* \"#utility.yul\":6980:6987   */\n      dup7\n        /* \"#utility.yul\":6971:6977   */\n      dup3\n        /* \"#utility.yul\":6960:6969   */\n      dup8\n        /* \"#utility.yul\":6956:6978   */\n      add\n        /* \"#utility.yul\":6935:6988   */\n      tag_265\n      jump\t// in\n    tag_381:\n        /* \"#utility.yul\":6925:6988   */\n      swap4\n      pop\n        /* \"#utility.yul\":6881:6998   */\n      pop\n        /* \"#utility.yul\":7037:7039   */\n      0x20\n        /* \"#utility.yul\":7063:7116   */\n      tag_382\n        /* \"#utility.yul\":7108:7115   */\n      dup7\n        /* \"#utility.yul\":7099:7105   */\n      dup3\n        /* \"#utility.yul\":7088:7097   */\n      dup8\n        /* \"#utility.yul\":7084:7106   */\n      add\n        /* \"#utility.yul\":7063:7116   */\n      tag_265\n      jump\t// in\n    tag_382:\n        /* \"#utility.yul\":7053:7116   */\n      swap3\n      pop\n        /* \"#utility.yul\":7008:7126   */\n      pop\n        /* \"#utility.yul\":7165:7167   */\n      0x40\n        /* \"#utility.yul\":7191:7244   */\n      tag_383\n        /* \"#utility.yul\":7236:7243   */\n      dup7\n        /* \"#utility.yul\":7227:7233   */\n      dup3\n        /* \"#utility.yul\":7216:7225   */\n      dup8\n        /* \"#utility.yul\":7212:7234   */\n      add\n        /* \"#utility.yul\":7191:7244   */\n      tag_265\n      jump\t// in\n    tag_383:\n        /* \"#utility.yul\":7181:7244   */\n      swap2\n      pop\n        /* \"#utility.yul\":7136:7254   */\n      pop\n        /* \"#utility.yul\":6642:7261   */\n      swap3\n      pop\n      swap3\n      pop\n      swap3\n      jump\t// out\n        /* \"#utility.yul\":7267:7741   */\n    tag_78:\n        /* \"#utility.yul\":7335:7341   */\n      0x00\n        /* \"#utility.yul\":7343:7349   */\n      0x00\n        /* \"#utility.yul\":7392:7394   */\n      0x40\n        /* \"#utility.yul\":7380:7389   */\n      dup4\n        /* \"#utility.yul\":7371:7378   */\n      dup6\n        /* \"#utility.yul\":7367:7390   */\n      sub\n        /* \"#utility.yul\":7363:7395   */\n      slt\n        /* \"#utility.yul\":7360:7479   */\n      iszero\n      tag_385\n      jumpi\n        /* \"#utility.yul\":7398:7477   */\n      tag_386\n      tag_245\n      jump\t// in\n    tag_386:\n        /* \"#utility.yul\":7360:7479   */\n    tag_385:\n        /* \"#utility.yul\":7518:7519   */\n      0x00\n        /* \"#utility.yul\":7543:7596   */\n      tag_387\n        /* \"#utility.yul\":7588:7595   */\n      dup6\n        /* \"#utility.yul\":7579:7585   */\n      dup3\n        /* \"#utility.yul\":7568:7577   */\n      dup7\n        /* \"#utility.yul\":7564:7586   */\n      add\n        /* \"#utility.yul\":7543:7596   */\n      tag_265\n      jump\t// in\n    tag_387:\n        /* \"#utility.yul\":7533:7596   */\n      swap3\n      pop\n        /* \"#utility.yul\":7489:7606   */\n      pop\n        /* \"#utility.yul\":7645:7647   */\n      0x20\n        /* \"#utility.yul\":7671:7724   */\n      tag_388\n        /* \"#utility.yul\":7716:7723   */\n      dup6\n        /* \"#utility.yul\":7707:7713   */\n      dup3\n        /* \"#utility.yul\":7696:7705   */\n      dup7\n        /* \"#utility.yul\":7692:7714   */\n      add\n        /* \"#utility.yul\":7671:7724   */\n      tag_265\n      jump\t// in\n    tag_388:\n        /* \"#utility.yul\":7661:7724   */\n      swap2\n      pop\n        /* \"#utility.yul\":7616:7734   */\n      pop\n        /* \"#utility.yul\":7267:7741   */\n      swap3\n      pop\n      swap3\n      swap1\n      pop\n      jump\t// out\n        /* \"#utility.yul\":7747:8366   */\n    tag_89:\n        /* \"#utility.yul\":7824:7830   */\n      0x00\n        /* \"#utility.yul\":7832:7838   */\n      0x00\n        /* \"#utility.yul\":7840:7846   */\n      0x00\n        /* \"#utility.yul\":7889:7891   */\n      0x60\n        /* \"#utility.yul\":7877:7886   */\n      dup5\n        /* \"#utility.yul\":7868:7875   */\n      dup7\n        /* \"#utility.yul\":7864:7887   */\n      sub\n        /* \"#utility.yul\":7860:7892   */\n      slt\n        /* \"#utility.yul\":7857:7976   */\n      iszero\n      tag_390\n      jumpi\n        /* \"#utility.yul\":7895:7974   */\n      tag_391\n      tag_245\n      jump\t// in\n    tag_391:\n        /* \"#utility.yul\":7857:7976   */\n    tag_390:\n        /* \"#utility.yul\":8015:8016   */\n      0x00\n        /* \"#utility.yul\":8040:8093   */\n      tag_392\n        /* \"#utility.yul\":8085:8092   */\n      dup7\n        /* \"#utility.yul\":8076:8082   */\n      dup3\n        /* \"#utility.yul\":8065:8074   */\n      dup8\n        /* \"#utility.yul\":8061:8083   */\n      add\n        /* \"#utility.yul\":8040:8093   */\n      tag_268\n      jump\t// in\n    tag_392:\n        /* \"#utility.yul\":8030:8093   */\n      swap4\n      pop\n        /* \"#utility.yul\":7986:8103   */\n      pop\n        /* \"#utility.yul\":8142:8144   */\n      0x20\n        /* \"#utility.yul\":8168:8221   */\n      tag_393\n        /* \"#utility.yul\":8213:8220   */\n      dup7\n        /* \"#utility.yul\":8204:8210   */\n      dup3\n        /* \"#utility.yul\":8193:8202   */\n      dup8\n        /* \"#utility.yul\":8189:8211   */\n      add\n        /* \"#utility.yul\":8168:8221   */\n      tag_265\n      jump\t// in\n    tag_393:\n        /* \"#utility.yul\":8158:8221   */\n      swap3\n      pop\n        /* \"#utility.yul\":8113:8231   */\n      pop\n        /* \"#utility.yul\":8270:8272   */\n      0x40\n        /* \"#utility.yul\":8296:8349   */\n      tag_394\n        /* \"#utility.yul\":8341:8348   */\n      dup7\n        /* \"#utility.yul\":8332:8338   */\n      dup3\n        /* \"#utility.yul\":8321:8330   */\n      dup8\n        /* \"#utility.yul\":8317:8339   */\n      add\n        /* \"#utility.yul\":8296:8349   */\n      tag_268\n      jump\t// in\n    tag_394:\n        /* \"#utility.yul\":8286:8349   */\n      swap2\n      pop\n        /* \"#utility.yul\":8241:8359   */\n      pop\n        /* \"#utility.yul\":7747:8366   */\n      swap3\n      pop\n      swap3\n      pop\n      swap3\n      jump\t// out\n        /* \"#utility.yul\":8372:8541   */\n    tag_269:\n        /* \"#utility.yul\":8456:8467   */\n      0x00\n        /* \"#utility.yul\":8490:8496   */\n      dup3\n        /* \"#utility.yul\":8485:8488   */\n      dup3\n        /* \"#utility.yul\":8478:8497   */\n      mstore\n        /* \"#utility.yul\":8530:8534   */\n      0x20\n        /* \"#utility.yul\":8525:8528   */\n      dup3\n        /* \"#utility.yul\":8521:8535   */\n      add\n        /* \"#utility.yul\":8506:8535   */\n      swap1\n      pop\n        /* \"#utility.yul\":8372:8541   */\n      swap3\n      swap2\n      pop\n      pop\n      jump\t// out\n        /* \"#utility.yul\":8547:8716   */\n    tag_270:\n        /* \"#utility.yul\":8687:8708   */\n      0x496e76616c6964207374616b6520696e64657800000000000000000000000000\n        /* \"#utility.yul\":8683:8684   */\n      0x00\n        /* \"#utility.yul\":8675:8681   */\n      dup3\n        /* \"#utility.yul\":8671:8685   */\n      add\n        /* \"#utility.yul\":8664:8709   */\n      mstore\n        /* \"#utility.yul\":8547:8716   */\n      pop\n      jump\t// out\n        /* \"#utility.yul\":8722:9088   */\n    tag_271:\n        /* \"#utility.yul\":8864:8867   */\n      0x00\n        /* \"#utility.yul\":8885:8952   */\n      tag_398\n        /* \"#utility.yul\":8949:8951   */\n      0x13\n        /* \"#utility.yul\":8944:8947   */\n      dup4\n        /* \"#utility.yul\":8885:8952   */\n      tag_269\n      jump\t// in\n    tag_398:\n        /* \"#utility.yul\":8878:8952   */\n      swap2\n      pop\n        /* \"#utility.yul\":8961:9054   */\n      tag_399\n        /* \"#utility.yul\":9050:9053   */\n      dup3\n        /* \"#utility.yul\":8961:9054   */\n      tag_270\n      jump\t// in\n    tag_399:\n        /* \"#utility.yul\":9079:9081   */\n      0x20\n        /* \"#utility.yul\":9074:9077   */\n      dup3\n        /* \"#utility.yul\":9070:9082   */\n      add\n        /* \"#utility.yul\":9063:9082   */\n      swap1\n      pop\n        /* \"#utility.yul\":8722:9088   */\n      swap2\n      swap1\n      pop\n      jump\t// out\n        /* \"#utility.yul\":9094:9513   */\n    tag_114:\n        /* \"#utility.yul\":9260:9264   */\n      0x00\n        /* \"#utility.yul\":9298:9300   */\n      0x20\n        /* \"#utility.yul\":9287:9296   */\n      dup3\n        /* \"#utility.yul\":9283:9301   */\n      add\n        /* \"#utility.yul\":9275:9301   */\n      swap1\n      pop\n        /* \"#utility.yul\":9347:9356   */\n      dup2\n        /* \"#utility.yul\":9341:9345   */\n      dup2\n        /* \"#utility.yul\":9337:9357   */\n      sub\n        /* \"#utility.yul\":9333:9334   */\n      0x00\n        /* \"#utility.yul\":9322:9331   */\n      dup4\n        /* \"#utility.yul\":9318:9335   */\n      add\n        /* \"#utility.yul\":9311:9358   */\n      mstore\n        /* \"#utility.yul\":9375:9506   */\n      tag_401\n        /* \"#utility.yul\":9501:9505   */\n      dup2\n        /* \"#utility.yul\":9375:9506   */\n      tag_271\n      jump\t// in\n    tag_401:\n        /* \"#utility.yul\":9367:9506   */\n      swap1\n      pop\n        /* \"#utility.yul\":9094:9513   */\n      swap2\n      swap1\n      pop\n      jump\t// out\n        /* \"#utility.yul\":9519:9699   */\n    tag_117:\n        /* \"#utility.yul\":9567:9644   */\n      0x4e487b7100000000000000000000000000000000000000000000000000000000\n        /* \"#utility.yul\":9564:9565   */\n      0x00\n        /* \"#utility.yul\":9557:9645   */\n      mstore\n        /* \"#utility.yul\":9664:9668   */\n      0x32\n        /* \"#utility.yul\":9661:9662   */\n      0x04\n        /* \"#utility.yul\":9654:9669   */\n      mstore\n        /* \"#utility.yul\":9688:9692   */\n      0x24\n        /* \"#utility.yul\":9685:9686   */\n      0x00\n        /* \"#utility.yul\":9678:9693   */\n      revert\n        /* \"#utility.yul\":9705:9872   */\n    tag_272:\n        /* \"#utility.yul\":9845:9864   */\n      0x416c72656164792077697468647261776e000000000000000000000000000000\n        /* \"#utility.yul\":9841:9842   */\n      0x00\n        /* \"#utility.yul\":9833:9839   */\n      dup3\n        /* \"#utility.yul\":9829:9843   */\n      add\n        /* \"#utility.yul\":9822:9865   */\n      mstore\n        /* \"#utility.yul\":9705:9872   */\n      pop\n      jump\t// out\n        /* \"#utility.yul\":9878:10244   */\n    tag_273:\n        /* \"#utility.yul\":10020:10023   */\n      0x00\n        /* \"#utility.yul\":10041:10108   */\n      tag_405\n        /* \"#utility.yul\":10105:10107   */\n      0x11\n        /* \"#utility.yul\":10100:10103   */\n      dup4\n        /* \"#utility.yul\":10041:10108   */\n      tag_269\n      jump\t// in\n    tag_405:\n        /* \"#utility.yul\":10034:10108   */\n      swap2\n      pop\n        /* \"#utility.yul\":10117:10210   */\n      tag_406\n        /* \"#utility.yul\":10206:10209   */\n      dup3\n        /* \"#utility.yul\":10117:10210   */\n      tag_272\n      jump\t// in\n    tag_406:\n        /* \"#utility.yul\":10235:10237   */\n      0x20\n        /* \"#utility.yul\":10230:10233   */\n      dup3\n        /* \"#utility.yul\":10226:10238   */\n      add\n        /* \"#utility.yul\":10219:10238   */\n      swap1\n      pop\n        /* \"#utility.yul\":9878:10244   */\n      swap2\n      swap1\n      pop\n      jump\t// out\n        /* \"#utility.yul\":10250:10669   */\n    tag_121:\n        /* \"#utility.yul\":10416:10420   */\n      0x00\n        /* \"#utility.yul\":10454:10456   */\n      0x20\n        /* \"#utility.yul\":10443:10452   */\n      dup3\n        /* \"#utility.yul\":10439:10457   */\n      add\n        /* \"#utility.yul\":10431:10457   */\n      swap1\n      pop\n        /* \"#utility.yul\":10503:10512   */\n      dup2\n        /* \"#utility.yul\":10497:10501   */\n      dup2\n        /* \"#utility.yul\":10493:10513   */\n      sub\n        /* \"#utility.yul\":10489:10490   */\n      0x00\n        /* \"#utility.yul\":10478:10487   */\n      dup4\n        /* \"#utility.yul\":10474:10491   */\n      add\n        /* \"#utility.yul\":10467:10514   */\n      mstore\n        /* \"#utility.yul\":10531:10662   */\n      tag_408\n        /* \"#utility.yul\":10657:10661   */\n      dup2\n        /* \"#utility.yul\":10531:10662   */\n      tag_273\n      jump\t// in\n    tag_408:\n        /* \"#utility.yul\":10523:10662   */\n      swap1\n      pop\n        /* \"#utility.yul\":10250:10669   */\n      swap2\n      swap1\n      pop\n      jump\t// out\n        /* \"#utility.yul\":10675:10855   */\n    tag_274:\n        /* \"#utility.yul\":10723:10800   */\n      0x4e487b7100000000000000000000000000000000000000000000000000000000\n        /* \"#utility.yul\":10720:10721   */\n      0x00\n        /* \"#utility.yul\":10713:10801   */\n      mstore\n        /* \"#utility.yul\":10820:10824   */\n      0x11\n        /* \"#utility.yul\":10817:10818   */\n      0x04\n        /* \"#utility.yul\":10810:10825   */\n      mstore\n        /* \"#utility.yul\":10844:10848   */\n      0x24\n        /* \"#utility.yul\":10841:10842   */\n      0x00\n        /* \"#utility.yul\":10834:10849   */\n      revert\n        /* \"#utility.yul\":10861:11052   */\n    tag_123:\n        /* \"#utility.yul\":10901:10904   */\n      0x00\n        /* \"#utility.yul\":10920:10940   */\n      tag_411\n        /* \"#utility.yul\":10938:10939   */\n      dup3\n        /* \"#utility.yul\":10920:10940   */\n      tag_258\n      jump\t// in\n    tag_411:\n        /* \"#utility.yul\":10915:10940   */\n      swap2\n      pop\n        /* \"#utility.yul\":10954:10974   */\n      tag_412\n        /* \"#utility.yul\":10972:10973   */\n      dup4\n        /* \"#utility.yul\":10954:10974   */\n      tag_258\n      jump\t// in\n    tag_412:\n        /* \"#utility.yul\":10949:10974   */\n      swap3\n      pop\n        /* \"#utility.yul\":10997:10998   */\n      dup3\n        /* \"#utility.yul\":10994:10995   */\n      dup3\n        /* \"#utility.yul\":10990:10999   */\n      add\n        /* \"#utility.yul\":10983:10999   */\n      swap1\n      pop\n        /* \"#utility.yul\":11018:11021   */\n      dup1\n        /* \"#utility.yul\":11015:11016   */\n      dup3\n        /* \"#utility.yul\":11012:11022   */\n      gt\n        /* \"#utility.yul\":11009:11045   */\n      iszero\n      tag_413\n      jumpi\n        /* \"#utility.yul\":11025:11043   */\n      tag_414\n      tag_274\n      jump\t// in\n    tag_414:\n        /* \"#utility.yul\":11009:11045   */\n    tag_413:\n        /* \"#utility.yul\":10861:11052   */\n      swap3\n      swap2\n      pop\n      pop\n      jump\t// out\n        /* \"#utility.yul\":11058:11221   */\n    tag_275:\n        /* \"#utility.yul\":11198:11213   */\n      0x4c6f636b206e6f74206f76657200000000000000000000000000000000000000\n        /* \"#utility.yul\":11194:11195   */\n      0x00\n        /* \"#utility.yul\":11186:11192   */\n      dup3\n        /* \"#utility.yul\":11182:11196   */\n      add\n        /* \"#utility.yul\":11175:11214   */\n      mstore\n        /* \"#utility.yul\":11058:11221   */\n      pop\n      jump\t// out\n        /* \"#utility.yul\":11227:11593   */\n    tag_276:\n        /* \"#utility.yul\":11369:11372   */\n      0x00\n        /* \"#utility.yul\":11390:11457   */\n      tag_417\n        /* \"#utility.yul\":11454:11456   */\n      0x0d\n        /* \"#utility.yul\":11449:11452   */\n      dup4\n        /* \"#utility.yul\":11390:11457   */\n      tag_269\n      jump\t// in\n    tag_417:\n        /* \"#utility.yul\":11383:11457   */\n      swap2\n      pop\n        /* \"#utility.yul\":11466:11559   */\n      tag_418\n        /* \"#utility.yul\":11555:11558   */\n      dup3\n        /* \"#utility.yul\":11466:11559   */\n      tag_275\n      jump\t// in\n    tag_418:\n        /* \"#utility.yul\":11584:11586   */\n      0x20\n        /* \"#utility.yul\":11579:11582   */\n      dup3\n        /* \"#utility.yul\":11575:11587   */\n      add\n        /* \"#utility.yul\":11568:11587   */\n      swap1\n      pop\n        /* \"#utility.yul\":11227:11593   */\n      swap2\n      swap1\n      pop\n      jump\t// out\n        /* \"#utility.yul\":11599:12018   */\n    tag_126:\n        /* \"#utility.yul\":11765:11769   */\n      0x00\n        /* \"#utility.yul\":11803:11805   */\n      0x20\n        /* \"#utility.yul\":11792:11801   */\n      dup3\n        /* \"#utility.yul\":11788:11806   */\n      add\n        /* \"#utility.yul\":11780:11806   */\n      swap1\n      pop\n        /* \"#utility.yul\":11852:11861   */\n      dup2\n        /* \"#utility.yul\":11846:11850   */\n      dup2\n        /* \"#utility.yul\":11842:11862   */\n      sub\n        /* \"#utility.yul\":11838:11839   */\n      0x00\n        /* \"#utility.yul\":11827:11836   */\n      dup4\n        /* \"#utility.yul\":11823:11840   */\n      add\n        /* \"#utility.yul\":11816:11863   */\n      mstore\n        /* \"#utility.yul\":11880:12011   */\n      tag_420\n        /* \"#utility.yul\":12006:12010   */\n      dup2\n        /* \"#utility.yul\":11880:12011   */\n      tag_276\n      jump\t// in\n    tag_420:\n        /* \"#utility.yul\":11872:12011   */\n      swap1\n      pop\n        /* \"#utility.yul\":11599:12018   */\n      swap2\n      swap1\n      pop\n      jump\t// out\n        /* \"#utility.yul\":12024:12142   */\n    tag_277:\n        /* \"#utility.yul\":12111:12135   */\n      tag_422\n        /* \"#utility.yul\":12129:12134   */\n      dup2\n        /* \"#utility.yul\":12111:12135   */\n      tag_266\n      jump\t// in\n    tag_422:\n        /* \"#utility.yul\":12106:12109   */\n      dup3\n        /* \"#utility.yul\":12099:12136   */\n      mstore\n        /* \"#utility.yul\":12024:12142   */\n      pop\n      pop\n      jump\t// out\n        /* \"#utility.yul\":12148:12370   */\n    tag_131:\n        /* \"#utility.yul\":12241:12245   */\n      0x00\n        /* \"#utility.yul\":12279:12281   */\n      0x20\n        /* \"#utility.yul\":12268:12277   */\n      dup3\n        /* \"#utility.yul\":12264:12282   */\n      add\n        /* \"#utility.yul\":12256:12282   */\n      swap1\n      pop\n        /* \"#utility.yul\":12292:12363   */\n      tag_424\n        /* \"#utility.yul\":12360:12361   */\n      0x00\n        /* \"#utility.yul\":12349:12358   */\n      dup4\n        /* \"#utility.yul\":12345:12362   */\n      add\n        /* \"#utility.yul\":12336:12342   */\n      dup5\n        /* \"#utility.yul\":12292:12363   */\n      tag_277\n      jump\t// in\n    tag_424:\n        /* \"#utility.yul\":12148:12370   */\n      swap3\n      swap2\n      pop\n      pop\n      jump\t// out\n        /* \"#utility.yul\":12376:12519   */\n    tag_278:\n        /* \"#utility.yul\":12433:12438   */\n      0x00\n        /* \"#utility.yul\":12464:12470   */\n      dup2\n        /* \"#utility.yul\":12458:12471   */\n      mload\n        /* \"#utility.yul\":12449:12471   */\n      swap1\n      pop\n        /* \"#utility.yul\":12480:12513   */\n      tag_426\n        /* \"#utility.yul\":12507:12512   */\n      dup2\n        /* \"#utility.yul\":12480:12513   */\n      tag_264\n      jump\t// in\n    tag_426:\n        /* \"#utility.yul\":12376:12519   */\n      swap3\n      swap2\n      pop\n      pop\n      jump\t// out\n        /* \"#utility.yul\":12525:12876   */\n    tag_135:\n        /* \"#utility.yul\":12595:12601   */\n      0x00\n        /* \"#utility.yul\":12644:12646   */\n      0x20\n        /* \"#utility.yul\":12632:12641   */\n      dup3\n        /* \"#utility.yul\":12623:12630   */\n      dup5\n        /* \"#utility.yul\":12619:12642   */\n      sub\n        /* \"#utility.yul\":12615:12647   */\n      slt\n        /* \"#utility.yul\":12612:12731   */\n      iszero\n      tag_428\n      jumpi\n        /* \"#utility.yul\":12650:12729   */\n      tag_429\n      tag_245\n      jump\t// in\n    tag_429:\n        /* \"#utility.yul\":12612:12731   */\n    tag_428:\n        /* \"#utility.yul\":12770:12771   */\n      0x00\n        /* \"#utility.yul\":12795:12859   */\n      tag_430\n        /* \"#utility.yul\":12851:12858   */\n      dup5\n        /* \"#utility.yul\":12842:12848   */\n      dup3\n        /* \"#utility.yul\":12831:12840   */\n      dup6\n        /* \"#utility.yul\":12827:12849   */\n      add\n        /* \"#utility.yul\":12795:12859   */\n      tag_278\n      jump\t// in\n    tag_430:\n        /* \"#utility.yul\":12785:12859   */\n      swap2\n      pop\n        /* \"#utility.yul\":12741:12869   */\n      pop\n        /* \"#utility.yul\":12525:12876   */\n      swap3\n      swap2\n      pop\n      pop\n      jump\t// out\n        /* \"#utility.yul\":12882:13056   */\n    tag_279:\n        /* \"#utility.yul\":13022:13048   */\n      0x496e73756666696369656e742072657761726420706f6f6c0000000000000000\n        /* \"#utility.yul\":13018:13019   */\n      0x00\n        /* \"#utility.yul\":13010:13016   */\n      dup3\n        /* \"#utility.yul\":13006:13020   */\n      add\n        /* \"#utility.yul\":12999:13049   */\n      mstore\n        /* \"#utility.yul\":12882:13056   */\n      pop\n      jump\t// out\n        /* \"#utility.yul\":13062:13428   */\n    tag_280:\n        /* \"#utility.yul\":13204:13207   */\n      0x00\n        /* \"#utility.yul\":13225:13292   */\n      tag_433\n        /* \"#utility.yul\":13289:13291   */\n      0x18\n        /* \"#utility.yul\":13284:13287   */\n      dup4\n        /* \"#utility.yul\":13225:13292   */\n      tag_269\n      jump\t// in\n    tag_433:\n        /* \"#utility.yul\":13218:13292   */\n      swap2\n      pop\n        /* \"#utility.yul\":13301:13394   */\n      tag_434\n        /* \"#utility.yul\":13390:13393   */\n      dup3\n        /* \"#utility.yul\":13301:13394   */\n      tag_279\n      jump\t// in\n    tag_434:\n        /* \"#utility.yul\":13419:13421   */\n      0x20\n        /* \"#utility.yul\":13414:13417   */\n      dup3\n        /* \"#utility.yul\":13410:13422   */\n      add\n        /* \"#utility.yul\":13403:13422   */\n      swap1\n      pop\n        /* \"#utility.yul\":13062:13428   */\n      swap2\n      swap1\n      pop\n      jump\t// out\n        /* \"#utility.yul\":13434:13853   */\n    tag_138:\n        /* \"#utility.yul\":13600:13604   */\n      0x00\n        /* \"#utility.yul\":13638:13640   */\n      0x20\n        /* \"#utility.yul\":13627:13636   */\n      dup3\n        /* \"#utility.yul\":13623:13641   */\n      add\n        /* \"#utility.yul\":13615:13641   */\n      swap1\n      pop\n        /* \"#utility.yul\":13687:13696   */\n      dup2\n        /* \"#utility.yul\":13681:13685   */\n      dup2\n        /* \"#utility.yul\":13677:13697   */\n      sub\n        /* \"#utility.yul\":13673:13674   */\n      0x00\n        /* \"#utility.yul\":13662:13671   */\n      dup4\n        /* \"#utility.yul\":13658:13675   */\n      add\n        /* \"#utility.yul\":13651:13698   */\n      mstore\n        /* \"#utility.yul\":13715:13846   */\n      tag_436\n        /* \"#utility.yul\":13841:13845   */\n      dup2\n        /* \"#utility.yul\":13715:13846   */\n      tag_280\n      jump\t// in\n    tag_436:\n        /* \"#utility.yul\":13707:13846   */\n      swap1\n      pop\n        /* \"#utility.yul\":13434:13853   */\n      swap2\n      swap1\n      pop\n      jump\t// out\n        /* \"#utility.yul\":13859:14191   */\n    tag_140:\n        /* \"#utility.yul\":13980:13984   */\n      0x00\n        /* \"#utility.yul\":14018:14020   */\n      0x40\n        /* \"#utility.yul\":14007:14016   */\n      dup3\n        /* \"#utility.yul\":14003:14021   */\n      add\n        /* \"#utility.yul\":13995:14021   */\n      swap1\n      pop\n        /* \"#utility.yul\":14031:14102   */\n      tag_438\n        /* \"#utility.yul\":14099:14100   */\n      0x00\n        /* \"#utility.yul\":14088:14097   */\n      dup4\n        /* \"#utility.yul\":14084:14101   */\n      add\n        /* \"#utility.yul\":14075:14081   */\n      dup6\n        /* \"#utility.yul\":14031:14102   */\n      tag_277\n      jump\t// in\n    tag_438:\n        /* \"#utility.yul\":14112:14184   */\n      tag_439\n        /* \"#utility.yul\":14180:14182   */\n      0x20\n        /* \"#utility.yul\":14169:14178   */\n      dup4\n        /* \"#utility.yul\":14165:14183   */\n      add\n        /* \"#utility.yul\":14156:14162   */\n      dup5\n        /* \"#utility.yul\":14112:14184   */\n      tag_259\n      jump\t// in\n    tag_439:\n        /* \"#utility.yul\":13859:14191   */\n      swap4\n      swap3\n      pop\n      pop\n      pop\n      jump\t// out\n        /* \"#utility.yul\":14197:14313   */\n    tag_281:\n        /* \"#utility.yul\":14267:14288   */\n      tag_441\n        /* \"#utility.yul\":14282:14287   */\n      dup2\n        /* \"#utility.yul\":14267:14288   */\n      tag_250\n      jump\t// in\n    tag_441:\n        /* \"#utility.yul\":14260:14265   */\n      dup2\n        /* \"#utility.yul\":14257:14289   */\n      eq\n        /* \"#utility.yul\":14247:14307   */\n      tag_442\n      jumpi\n        /* \"#utility.yul\":14303:14304   */\n      0x00\n        /* \"#utility.yul\":14300:14301   */\n      0x00\n        /* \"#utility.yul\":14293:14305   */\n      revert\n        /* \"#utility.yul\":14247:14307   */\n    tag_442:\n        /* \"#utility.yul\":14197:14313   */\n      pop\n      jump\t// out\n        /* \"#utility.yul\":14319:14456   */\n    tag_282:\n        /* \"#utility.yul\":14373:14378   */\n      0x00\n        /* \"#utility.yul\":14404:14410   */\n      dup2\n        /* \"#utility.yul\":14398:14411   */\n      mload\n        /* \"#utility.yul\":14389:14411   */\n      swap1\n      pop\n        /* \"#utility.yul\":14420:14450   */\n      tag_444\n        /* \"#utility.yul\":14444:14449   */\n      dup2\n        /* \"#utility.yul\":14420:14450   */\n      tag_281\n      jump\t// in\n    tag_444:\n        /* \"#utility.yul\":14319:14456   */\n      swap3\n      swap2\n      pop\n      pop\n      jump\t// out\n        /* \"#utility.yul\":14462:14807   */\n    tag_144:\n        /* \"#utility.yul\":14529:14535   */\n      0x00\n        /* \"#utility.yul\":14578:14580   */\n      0x20\n        /* \"#utility.yul\":14566:14575   */\n      dup3\n        /* \"#utility.yul\":14557:14564   */\n      dup5\n        /* \"#utility.yul\":14553:14576   */\n      sub\n        /* \"#utility.yul\":14549:14581   */\n      slt\n        /* \"#utility.yul\":14546:14665   */\n      iszero\n      tag_446\n      jumpi\n        /* \"#utility.yul\":14584:14663   */\n      tag_447\n      tag_245\n      jump\t// in\n    tag_447:\n        /* \"#utility.yul\":14546:14665   */\n    tag_446:\n        /* \"#utility.yul\":14704:14705   */\n      0x00\n        /* \"#utility.yul\":14729:14790   */\n      tag_448\n        /* \"#utility.yul\":14782:14789   */\n      dup5\n        /* \"#utility.yul\":14773:14779   */\n      dup3\n        /* \"#utility.yul\":14762:14771   */\n      dup6\n        /* \"#utility.yul\":14758:14780   */\n      add\n        /* \"#utility.yul\":14729:14790   */\n      tag_282\n      jump\t// in\n    tag_448:\n        /* \"#utility.yul\":14719:14790   */\n      swap2\n      pop\n        /* \"#utility.yul\":14675:14800   */\n      pop\n        /* \"#utility.yul\":14462:14807   */\n      swap3\n      swap2\n      pop\n      pop\n      jump\t// out\n        /* \"#utility.yul\":14813:15145   */\n    tag_146:\n        /* \"#utility.yul\":14934:14938   */\n      0x00\n        /* \"#utility.yul\":14972:14974   */\n      0x40\n        /* \"#utility.yul\":14961:14970   */\n      dup3\n        /* \"#utility.yul\":14957:14975   */\n      add\n        /* \"#utility.yul\":14949:14975   */\n      swap1\n      pop\n        /* \"#utility.yul\":14985:15056   */\n      tag_450\n        /* \"#utility.yul\":15053:15054   */\n      0x00\n        /* \"#utility.yul\":15042:15051   */\n      dup4\n        /* \"#utility.yul\":15038:15055   */\n      add\n        /* \"#utility.yul\":15029:15035   */\n      dup6\n        /* \"#utility.yul\":14985:15056   */\n      tag_259\n      jump\t// in\n    tag_450:\n        /* \"#utility.yul\":15066:15138   */\n      tag_451\n        /* \"#utility.yul\":15134:15136   */\n      0x20\n        /* \"#utility.yul\":15123:15132   */\n      dup4\n        /* \"#utility.yul\":15119:15137   */\n      add\n        /* \"#utility.yul\":15110:15116   */\n      dup5\n        /* \"#utility.yul\":15066:15138   */\n      tag_259\n      jump\t// in\n    tag_451:\n        /* \"#utility.yul\":14813:15145   */\n      swap4\n      swap3\n      pop\n      pop\n      pop\n      jump\t// out\n        /* \"#utility.yul\":15151:15318   */\n    tag_283:\n        /* \"#utility.yul\":15291:15310   */\n      0x43616e6e6f74207374616b65207a65726f000000000000000000000000000000\n        /* \"#utility.yul\":15287:15288   */\n      0x00\n        /* \"#utility.yul\":15279:15285   */\n      dup3\n        /* \"#utility.yul\":15275:15289   */\n      add\n        /* \"#utility.yul\":15268:15311   */\n      mstore\n        /* \"#utility.yul\":15151:15318   */\n      pop\n      jump\t// out\n        /* \"#utility.yul\":15324:15690   */\n    tag_284:\n        /* \"#utility.yul\":15466:15469   */\n      0x00\n        /* \"#utility.yul\":15487:15554   */\n      tag_454\n        /* \"#utility.yul\":15551:15553   */\n      0x11\n        /* \"#utility.yul\":15546:15549   */\n      dup4\n        /* \"#utility.yul\":15487:15554   */\n      tag_269\n      jump\t// in\n    tag_454:\n        /* \"#utility.yul\":15480:15554   */\n      swap2\n      pop\n        /* \"#utility.yul\":15563:15656   */\n      tag_455\n        /* \"#utility.yul\":15652:15655   */\n      dup3\n        /* \"#utility.yul\":15563:15656   */\n      tag_283\n      jump\t// in\n    tag_455:\n        /* \"#utility.yul\":15681:15683   */\n      0x20\n        /* \"#utility.yul\":15676:15679   */\n      dup3\n        /* \"#utility.yul\":15672:15684   */\n      add\n        /* \"#utility.yul\":15665:15684   */\n      swap1\n      pop\n        /* \"#utility.yul\":15324:15690   */\n      swap2\n      swap1\n      pop\n      jump\t// out\n        /* \"#utility.yul\":15696:16115   */\n    tag_172:\n        /* \"#utility.yul\":15862:15866   */\n      0x00\n        /* \"#utility.yul\":15900:15902   */\n      0x20\n        /* \"#utility.yul\":15889:15898   */\n      dup3\n        /* \"#utility.yul\":15885:15903   */\n      add\n        /* \"#utility.yul\":15877:15903   */\n      swap1\n      pop\n        /* \"#utility.yul\":15949:15958   */\n      dup2\n        /* \"#utility.yul\":15943:15947   */\n      dup2\n        /* \"#utility.yul\":15939:15959   */\n      sub\n        /* \"#utility.yul\":15935:15936   */\n      0x00\n        /* \"#utility.yul\":15924:15933   */\n      dup4\n        /* \"#utility.yul\":15920:15937   */\n      add\n        /* \"#utility.yul\":15913:15960   */\n      mstore\n        /* \"#utility.yul\":15977:16108   */\n      tag_457\n        /* \"#utility.yul\":16103:16107   */\n      dup2\n        /* \"#utility.yul\":15977:16108   */\n      tag_284\n      jump\t// in\n    tag_457:\n        /* \"#utility.yul\":15969:16108   */\n      swap1\n      pop\n        /* \"#utility.yul\":15696:16115   */\n      swap2\n      swap1\n      pop\n      jump\t// out\n        /* \"#utility.yul\":16121:16563   */\n    tag_176:\n        /* \"#utility.yul\":16270:16274   */\n      0x00\n        /* \"#utility.yul\":16308:16310   */\n      0x60\n        /* \"#utility.yul\":16297:16306   */\n      dup3\n        /* \"#utility.yul\":16293:16311   */\n      add\n        /* \"#utility.yul\":16285:16311   */\n      swap1\n      pop\n        /* \"#utility.yul\":16321:16392   */\n      tag_459\n        /* \"#utility.yul\":16389:16390   */\n      0x00\n        /* \"#utility.yul\":16378:16387   */\n      dup4\n        /* \"#utility.yul\":16374:16391   */\n      add\n        /* \"#utility.yul\":16365:16371   */\n      dup7\n        /* \"#utility.yul\":16321:16392   */\n      tag_277\n      jump\t// in\n    tag_459:\n        /* \"#utility.yul\":16402:16474   */\n      tag_460\n        /* \"#utility.yul\":16470:16472   */\n      0x20\n        /* \"#utility.yul\":16459:16468   */\n      dup4\n        /* \"#utility.yul\":16455:16473   */\n      add\n        /* \"#utility.yul\":16446:16452   */\n      dup6\n        /* \"#utility.yul\":16402:16474   */\n      tag_277\n      jump\t// in\n    tag_460:\n        /* \"#utility.yul\":16484:16556   */\n      tag_461\n        /* \"#utility.yul\":16552:16554   */\n      0x40\n        /* \"#utility.yul\":16541:16550   */\n      dup4\n        /* \"#utility.yul\":16537:16555   */\n      add\n        /* \"#utility.yul\":16528:16534   */\n      dup5\n        /* \"#utility.yul\":16484:16556   */\n      tag_259\n      jump\t// in\n    tag_461:\n        /* \"#utility.yul\":16121:16563   */\n      swap5\n      swap4\n      pop\n      pop\n      pop\n      pop\n      jump\t// out\n        /* \"#utility.yul\":16569:16734   */\n    tag_285:\n        /* \"#utility.yul\":16709:16726   */\n      0x5472616e73666572206661696c65640000000000000000000000000000000000\n        /* \"#utility.yul\":16705:16706   */\n      0x00\n        /* \"#utility.yul\":16697:16703   */\n      dup3\n        /* \"#utility.yul\":16693:16707   */\n      add\n        /* \"#utility.yul\":16686:16727   */\n      mstore\n        /* \"#utility.yul\":16569:16734   */\n      pop\n      jump\t// out\n        /* \"#utility.yul\":16740:17106   */\n    tag_286:\n        /* \"#utility.yul\":16882:16885   */\n      0x00\n        /* \"#utility.yul\":16903:16970   */\n      tag_464\n        /* \"#utility.yul\":16967:16969   */\n      0x0f\n        /* \"#utility.yul\":16962:16965   */\n      dup4\n        /* \"#utility.yul\":16903:16970   */\n      tag_269\n      jump\t// in\n    tag_464:\n        /* \"#utility.yul\":16896:16970   */\n      swap2\n      pop\n        /* \"#utility.yul\":16979:17072   */\n      tag_465\n        /* \"#utility.yul\":17068:17071   */\n      dup3\n        /* \"#utility.yul\":16979:17072   */\n      tag_285\n      jump\t// in\n    tag_465:\n        /* \"#utility.yul\":17097:17099   */\n      0x20\n        /* \"#utility.yul\":17092:17095   */\n      dup3\n        /* \"#utility.yul\":17088:17100   */\n      add\n        /* \"#utility.yul\":17081:17100   */\n      swap1\n      pop\n        /* \"#utility.yul\":16740:17106   */\n      swap2\n      swap1\n      pop\n      jump\t// out\n        /* \"#utility.yul\":17112:17531   */\n    tag_182:\n        /* \"#utility.yul\":17278:17282   */\n      0x00\n        /* \"#utility.yul\":17316:17318   */\n      0x20\n        /* \"#utility.yul\":17305:17314   */\n      dup3\n        /* \"#utility.yul\":17301:17319   */\n      add\n        /* \"#utility.yul\":17293:17319   */\n      swap1\n      pop\n        /* \"#utility.yul\":17365:17374   */\n      dup2\n        /* \"#utility.yul\":17359:17363   */\n      dup2\n        /* \"#utility.yul\":17355:17375   */\n      sub\n        /* \"#utility.yul\":17351:17352   */\n      0x00\n        /* \"#utility.yul\":17340:17349   */\n      dup4\n        /* \"#utility.yul\":17336:17353   */\n      add\n        /* \"#utility.yul\":17329:17376   */\n      mstore\n        /* \"#utility.yul\":17393:17524   */\n      tag_467\n        /* \"#utility.yul\":17519:17523   */\n      dup2\n        /* \"#utility.yul\":17393:17524   */\n      tag_286\n      jump\t// in\n    tag_467:\n        /* \"#utility.yul\":17385:17524   */\n      swap1\n      pop\n        /* \"#utility.yul\":17112:17531   */\n      swap2\n      swap1\n      pop\n      jump\t// out\n        /* \"#utility.yul\":17537:17979   */\n    tag_185:\n        /* \"#utility.yul\":17686:17690   */\n      0x00\n        /* \"#utility.yul\":17724:17726   */\n      0x60\n        /* \"#utility.yul\":17713:17722   */\n      dup3\n        /* \"#utility.yul\":17709:17727   */\n      add\n        /* \"#utility.yul\":17701:17727   */\n      swap1\n      pop\n        /* \"#utility.yul\":17737:17808   */\n      tag_469\n        /* \"#utility.yul\":17805:17806   */\n      0x00\n        /* \"#utility.yul\":17794:17803   */\n      dup4\n        /* \"#utility.yul\":17790:17807   */\n      add\n        /* \"#utility.yul\":17781:17787   */\n      dup7\n        /* \"#utility.yul\":17737:17808   */\n      tag_259\n      jump\t// in\n    tag_469:\n        /* \"#utility.yul\":17818:17890   */\n      tag_470\n        /* \"#utility.yul\":17886:17888   */\n      0x20\n        /* \"#utility.yul\":17875:17884   */\n      dup4\n        /* \"#utility.yul\":17871:17889   */\n      add\n        /* \"#utility.yul\":17862:17868   */\n      dup6\n        /* \"#utility.yul\":17818:17890   */\n      tag_259\n      jump\t// in\n    tag_470:\n        /* \"#utility.yul\":17900:17972   */\n      tag_471\n        /* \"#utility.yul\":17968:17970   */\n      0x40\n        /* \"#utility.yul\":17957:17966   */\n      dup4\n        /* \"#utility.yul\":17953:17971   */\n      add\n        /* \"#utility.yul\":17944:17950   */\n      dup5\n        /* \"#utility.yul\":17900:17972   */\n      tag_259\n      jump\t// in\n    tag_471:\n        /* \"#utility.yul\":17537:17979   */\n      swap5\n      swap4\n      pop\n      pop\n      pop\n      pop\n      jump\t// out\n        /* \"#utility.yul\":17985:18147   */\n    tag_287:\n        /* \"#utility.yul\":18125:18139   */\n      0x496e76616c69642027746f270000000000000000000000000000000000000000\n        /* \"#utility.yul\":18121:18122   */\n      0x00\n        /* \"#utility.yul\":18113:18119   */\n      dup3\n        /* \"#utility.yul\":18109:18123   */\n      add\n        /* \"#utility.yul\":18102:18140   */\n      mstore\n        /* \"#utility.yul\":17985:18147   */\n      pop\n      jump\t// out\n        /* \"#utility.yul\":18153:18519   */\n    tag_288:\n        /* \"#utility.yul\":18295:18298   */\n      0x00\n        /* \"#utility.yul\":18316:18383   */\n      tag_474\n        /* \"#utility.yul\":18380:18382   */\n      0x0c\n        /* \"#utility.yul\":18375:18378   */\n      dup4\n        /* \"#utility.yul\":18316:18383   */\n      tag_269\n      jump\t// in\n    tag_474:\n        /* \"#utility.yul\":18309:18383   */\n      swap2\n      pop\n        /* \"#utility.yul\":18392:18485   */\n      tag_475\n        /* \"#utility.yul\":18481:18484   */\n      dup3\n        /* \"#utility.yul\":18392:18485   */\n      tag_287\n      jump\t// in\n    tag_475:\n        /* \"#utility.yul\":18510:18512   */\n      0x20\n        /* \"#utility.yul\":18505:18508   */\n      dup3\n        /* \"#utility.yul\":18501:18513   */\n      add\n        /* \"#utility.yul\":18494:18513   */\n      swap1\n      pop\n        /* \"#utility.yul\":18153:18519   */\n      swap2\n      swap1\n      pop\n      jump\t// out\n        /* \"#utility.yul\":18525:18944   */\n    tag_193:\n        /* \"#utility.yul\":18691:18695   */\n      0x00\n        /* \"#utility.yul\":18729:18731   */\n      0x20\n        /* \"#utility.yul\":18718:18727   */\n      dup3\n        /* \"#utility.yul\":18714:18732   */\n      add\n        /* \"#utility.yul\":18706:18732   */\n      swap1\n      pop\n        /* \"#utility.yul\":18778:18787   */\n      dup2\n        /* \"#utility.yul\":18772:18776   */\n      dup2\n        /* \"#utility.yul\":18768:18788   */\n      sub\n        /* \"#utility.yul\":18764:18765   */\n      0x00\n        /* \"#utility.yul\":18753:18762   */\n      dup4\n        /* \"#utility.yul\":18749:18766   */\n      add\n        /* \"#utility.yul\":18742:18789   */\n      mstore\n        /* \"#utility.yul\":18806:18937   */\n      tag_477\n        /* \"#utility.yul\":18932:18936   */\n      dup2\n        /* \"#utility.yul\":18806:18937   */\n      tag_288\n      jump\t// in\n    tag_477:\n        /* \"#utility.yul\":18798:18937   */\n      swap1\n      pop\n        /* \"#utility.yul\":18525:18944   */\n      swap2\n      swap1\n      pop\n      jump\t// out\n        /* \"#utility.yul\":18950:19131   */\n    tag_289:\n        /* \"#utility.yul\":19090:19123   */\n      0x5265656e7472616e637947756172643a207265656e7472616e742063616c6c00\n        /* \"#utility.yul\":19086:19087   */\n      0x00\n        /* \"#utility.yul\":19078:19084   */\n      dup3\n        /* \"#utility.yul\":19074:19088   */\n      add\n        /* \"#utility.yul\":19067:19124   */\n      mstore\n        /* \"#utility.yul\":18950:19131   */\n      pop\n      jump\t// out\n        /* \"#utility.yul\":19137:19503   */\n    tag_290:\n        /* \"#utility.yul\":19279:19282   */\n      0x00\n        /* \"#utility.yul\":19300:19367   */\n      tag_480\n        /* \"#utility.yul\":19364:19366   */\n      0x1f\n        /* \"#utility.yul\":19359:19362   */\n      dup4\n        /* \"#utility.yul\":19300:19367   */\n      tag_269\n      jump\t// in\n    tag_480:\n        /* \"#utility.yul\":19293:19367   */\n      swap2\n      pop\n        /* \"#utility.yul\":19376:19469   */\n      tag_481\n        /* \"#utility.yul\":19465:19468   */\n      dup3\n        /* \"#utility.yul\":19376:19469   */\n      tag_289\n      jump\t// in\n    tag_481:\n        /* \"#utility.yul\":19494:19496   */\n      0x20\n        /* \"#utility.yul\":19489:19492   */\n      dup3\n        /* \"#utility.yul\":19485:19497   */\n      add\n        /* \"#utility.yul\":19478:19497   */\n      swap1\n      pop\n        /* \"#utility.yul\":19137:19503   */\n      swap2\n      swap1\n      pop\n      jump\t// out\n        /* \"#utility.yul\":19509:19928   */\n    tag_207:\n        /* \"#utility.yul\":19675:19679   */\n      0x00\n        /* \"#utility.yul\":19713:19715   */\n      0x20\n        /* \"#utility.yul\":19702:19711   */\n      dup3\n        /* \"#utility.yul\":19698:19716   */\n      add\n        /* \"#utility.yul\":19690:19716   */\n      swap1\n      pop\n        /* \"#utility.yul\":19762:19771   */\n      dup2\n        /* \"#utility.yul\":19756:19760   */\n      dup2\n        /* \"#utility.yul\":19752:19772   */\n      sub\n        /* \"#utility.yul\":19748:19749   */\n      0x00\n        /* \"#utility.yul\":19737:19746   */\n      dup4\n        /* \"#utility.yul\":19733:19750   */\n      add\n        /* \"#utility.yul\":19726:19773   */\n      mstore\n        /* \"#utility.yul\":19790:19921   */\n      tag_483\n        /* \"#utility.yul\":19916:19920   */\n      dup2\n        /* \"#utility.yul\":19790:19921   */\n      tag_290\n      jump\t// in\n    tag_483:\n        /* \"#utility.yul\":19782:19921   */\n      swap1\n      pop\n        /* \"#utility.yul\":19509:19928   */\n      swap2\n      swap1\n      pop\n      jump\t// out\n        /* \"#utility.yul\":19934:20344   */\n    tag_210:\n        /* \"#utility.yul\":19974:19981   */\n      0x00\n        /* \"#utility.yul\":19997:20017   */\n      tag_485\n        /* \"#utility.yul\":20015:20016   */\n      dup3\n        /* \"#utility.yul\":19997:20017   */\n      tag_258\n      jump\t// in\n    tag_485:\n        /* \"#utility.yul\":19992:20017   */\n      swap2\n      pop\n        /* \"#utility.yul\":20031:20051   */\n      tag_486\n        /* \"#utility.yul\":20049:20050   */\n      dup4\n        /* \"#utility.yul\":20031:20051   */\n      tag_258\n      jump\t// in\n    tag_486:\n        /* \"#utility.yul\":20026:20051   */\n      swap3\n      pop\n        /* \"#utility.yul\":20086:20087   */\n      dup3\n        /* \"#utility.yul\":20083:20084   */\n      dup3\n        /* \"#utility.yul\":20079:20088   */\n      mul\n        /* \"#utility.yul\":20108:20138   */\n      tag_487\n        /* \"#utility.yul\":20126:20137   */\n      dup2\n        /* \"#utility.yul\":20108:20138   */\n      tag_258\n      jump\t// in\n    tag_487:\n        /* \"#utility.yul\":20097:20138   */\n      swap2\n      pop\n        /* \"#utility.yul\":20287:20288   */\n      dup3\n        /* \"#utility.yul\":20278:20285   */\n      dup3\n        /* \"#utility.yul\":20274:20289   */\n      div\n        /* \"#utility.yul\":20271:20272   */\n      dup5\n        /* \"#utility.yul\":20268:20290   */\n      eq\n        /* \"#utility.yul\":20248:20249   */\n      dup4\n        /* \"#utility.yul\":20241:20250   */\n      iszero\n        /* \"#utility.yul\":20221:20304   */\n      or\n        /* \"#utility.yul\":20198:20337   */\n      tag_488\n      jumpi\n        /* \"#utility.yul\":20317:20335   */\n      tag_489\n      tag_274\n      jump\t// in\n    tag_489:\n        /* \"#utility.yul\":20198:20337   */\n    tag_488:\n        /* \"#utility.yul\":19982:20344   */\n      pop\n        /* \"#utility.yul\":19934:20344   */\n      swap3\n      swap2\n      pop\n      pop\n      jump\t// out\n        /* \"#utility.yul\":20350:20530   */\n    tag_291:\n        /* \"#utility.yul\":20398:20475   */\n      0x4e487b7100000000000000000000000000000000000000000000000000000000\n        /* \"#utility.yul\":20395:20396   */\n      0x00\n        /* \"#utility.yul\":20388:20476   */\n      mstore\n        /* \"#utility.yul\":20495:20499   */\n      0x12\n        /* \"#utility.yul\":20492:20493   */\n      0x04\n        /* \"#utility.yul\":20485:20500   */\n      mstore\n        /* \"#utility.yul\":20519:20523   */\n      0x24\n        /* \"#utility.yul\":20516:20517   */\n      0x00\n        /* \"#utility.yul\":20509:20524   */\n      revert\n        /* \"#utility.yul\":20536:20721   */\n    tag_213:\n        /* \"#utility.yul\":20576:20577   */\n      0x00\n        /* \"#utility.yul\":20593:20613   */\n      tag_492\n        /* \"#utility.yul\":20611:20612   */\n      dup3\n        /* \"#utility.yul\":20593:20613   */\n      tag_258\n      jump\t// in\n    tag_492:\n        /* \"#utility.yul\":20588:20613   */\n      swap2\n      pop\n        /* \"#utility.yul\":20627:20647   */\n      tag_493\n        /* \"#utility.yul\":20645:20646   */\n      dup4\n        /* \"#utility.yul\":20627:20647   */\n      tag_258\n      jump\t// in\n    tag_493:\n        /* \"#utility.yul\":20622:20647   */\n      swap3\n      pop\n        /* \"#utility.yul\":20666:20667   */\n      dup3\n        /* \"#utility.yul\":20656:20691   */\n      tag_494\n      jumpi\n        /* \"#utility.yul\":20671:20689   */\n      tag_495\n      tag_291\n      jump\t// in\n    tag_495:\n        /* \"#utility.yul\":20656:20691   */\n    tag_494:\n        /* \"#utility.yul\":20713:20714   */\n      dup3\n        /* \"#utility.yul\":20710:20711   */\n      dup3\n        /* \"#utility.yul\":20706:20715   */\n      div\n        /* \"#utility.yul\":20701:20715   */\n      swap1\n      pop\n        /* \"#utility.yul\":20536:20721   */\n      swap3\n      swap2\n      pop\n      pop\n      jump\t// out\n        /* \"#utility.yul\":20727:20896   */\n    tag_292:\n        /* \"#utility.yul\":20867:20888   */\n      0x496e76616c6964206c6f636b2063686f69636500000000000000000000000000\n        /* \"#utility.yul\":20863:20864   */\n      0x00\n        /* \"#utility.yul\":20855:20861   */\n      dup3\n        /* \"#utility.yul\":20851:20865   */\n      add\n        /* \"#utility.yul\":20844:20889   */\n      mstore\n        /* \"#utility.yul\":20727:20896   */\n      pop\n      jump\t// out\n        /* \"#utility.yul\":20902:21268   */\n    tag_293:\n        /* \"#utility.yul\":21044:21047   */\n      0x00\n        /* \"#utility.yul\":21065:21132   */\n      tag_498\n        /* \"#utility.yul\":21129:21131   */\n      0x13\n        /* \"#utility.yul\":21124:21127   */\n      dup4\n        /* \"#utility.yul\":21065:21132   */\n      tag_269\n      jump\t// in\n    tag_498:\n        /* \"#utility.yul\":21058:21132   */\n      swap2\n      pop\n        /* \"#utility.yul\":21141:21234   */\n      tag_499\n        /* \"#utility.yul\":21230:21233   */\n      dup3\n        /* \"#utility.yul\":21141:21234   */\n      tag_292\n      jump\t// in\n    tag_499:\n        /* \"#utility.yul\":21259:21261   */\n      0x20\n        /* \"#utility.yul\":21254:21257   */\n      dup3\n        /* \"#utility.yul\":21250:21262   */\n      add\n        /* \"#utility.yul\":21243:21262   */\n      swap1\n      pop\n        /* \"#utility.yul\":20902:21268   */\n      swap2\n      swap1\n      pop\n      jump\t// out\n        /* \"#utility.yul\":21274:21693   */\n    tag_238:\n        /* \"#utility.yul\":21440:21444   */\n      0x00\n        /* \"#utility.yul\":21478:21480   */\n      0x20\n        /* \"#utility.yul\":21467:21476   */\n      dup3\n        /* \"#utility.yul\":21463:21481   */\n      add\n        /* \"#utility.yul\":21455:21481   */\n      swap1\n      pop\n        /* \"#utility.yul\":21527:21536   */\n      dup2\n        /* \"#utility.yul\":21521:21525   */\n      dup2\n        /* \"#utility.yul\":21517:21537   */\n      sub\n        /* \"#utility.yul\":21513:21514   */\n      0x00\n        /* \"#utility.yul\":21502:21511   */\n      dup4\n        /* \"#utility.yul\":21498:21515   */\n      add\n        /* \"#utility.yul\":21491:21538   */\n      mstore\n        /* \"#utility.yul\":21555:21686   */\n      tag_501\n        /* \"#utility.yul\":21681:21685   */\n      dup2\n        /* \"#utility.yul\":21555:21686   */\n      tag_293\n      jump\t// in\n    tag_501:\n        /* \"#utility.yul\":21547:21686   */\n      swap1\n      pop\n        /* \"#utility.yul\":21274:21693   */\n      swap2\n      swap1\n      pop\n      jump\t// out\n        /* \"#utility.yul\":21699:22031   */\n    tag_243:\n        /* \"#utility.yul\":21820:21824   */\n      0x00\n        /* \"#utility.yul\":21858:21860   */\n      0x40\n        /* \"#utility.yul\":21847:21856   */\n      dup3\n        /* \"#utility.yul\":21843:21861   */\n      add\n        /* \"#utility.yul\":21835:21861   */\n      swap1\n      pop\n        /* \"#utility.yul\":21871:21942   */\n      tag_503\n        /* \"#utility.yul\":21939:21940   */\n      0x00\n        /* \"#utility.yul\":21928:21937   */\n      dup4\n        /* \"#utility.yul\":21924:21941   */\n      add\n        /* \"#utility.yul\":21915:21921   */\n      dup6\n        /* \"#utility.yul\":21871:21942   */\n      tag_277\n      jump\t// in\n    tag_503:\n        /* \"#utility.yul\":21952:22024   */\n      tag_504\n        /* \"#utility.yul\":22020:22022   */\n      0x20\n        /* \"#utility.yul\":22009:22018   */\n      dup4\n        /* \"#utility.yul\":22005:22023   */\n      add\n        /* \"#utility.yul\":21996:22002   */\n      dup5\n        /* \"#utility.yul\":21952:22024   */\n      tag_263\n      jump\t// in\n    tag_504:\n        /* \"#utility.yul\":21699:22031   */\n      swap4\n      swap3\n      pop\n      pop\n      pop\n      jump\t// out\n\n    auxdata: 0xa2646970667358221220b094fb45af8c7bd2e1db42c1474976e040087be9838d71dc149068ae45ca917b64736f6c634300081c0033\n}\n",
				"bytecode": {
					"linkReferences": {},
					"object": "60a06040526101f46002556103e86003556105dc600455348015610021575f5ffd5b506040516121123803806121128339818101604052810190610043919061034f565b600180819055505f73ffffffffffffffffffffffffffffffffffffffff168273ffffffffffffffffffffffffffffffffffffffff16036100b8576040517f08c379a00000000000000000000000000000000000000000000000000000000081526004016100af906103e7565b60405180910390fd5b5f73ffffffffffffffffffffffffffffffffffffffff168173ffffffffffffffffffffffffffffffffffffffff1603610126576040517f08c379a000000000000000000000000000000000000000000000000000000000815260040161011d9061044f565b60405180910390fd5b8173ffffffffffffffffffffffffffffffffffffffff1660808173ffffffffffffffffffffffffffffffffffffffff168152505061018a7fa49807205ce4d355092ef5a8a18f56e8913cf4a201fbe287825b095693c217758261019260201b60201c565b50505061046d565b5f6101a3838361028760201b60201c565b61027d5760015f5f8581526020019081526020015f205f015f8473ffffffffffffffffffffffffffffffffffffffff1673ffffffffffffffffffffffffffffffffffffffff1681526020019081526020015f205f6101000a81548160ff02191690831515021790555061021a6102ea60201b60201c565b73ffffffffffffffffffffffffffffffffffffffff168273ffffffffffffffffffffffffffffffffffffffff16847f2f8788117e7eff1d82e926ec794901d17c78024a50270940304540a733656f0d60405160405180910390a460019050610281565b5f90505b92915050565b5f5f5f8481526020019081526020015f205f015f8373ffffffffffffffffffffffffffffffffffffffff1673ffffffffffffffffffffffffffffffffffffffff1681526020019081526020015f205f9054906101000a900460ff16905092915050565b5f33905090565b5f5ffd5b5f73ffffffffffffffffffffffffffffffffffffffff82169050919050565b5f61031e826102f5565b9050919050565b61032e81610314565b8114610338575f5ffd5b50565b5f8151905061034981610325565b92915050565b5f5f60408385031215610365576103646102f1565b5b5f6103728582860161033b565b92505060206103838582860161033b565b9150509250929050565b5f82825260208201905092915050565b7f496e76616c696420746f6b656e206164647265737300000000000000000000005f82015250565b5f6103d160158361038d565b91506103dc8261039d565b602082019050919050565b5f6020820190508181035f8301526103fe816103c5565b9050919050565b7f496e76616c69642061646d696e206164647265737300000000000000000000005f82015250565b5f61043960158361038d565b915061044482610405565b602082019050919050565b5f6020820190508181035f8301526104668161042d565b9050919050565b608051611c7861049a5f395f818161043f015281816106660152818161073f0152610a020152611c785ff3fe608060405234801561000f575f5ffd5b506004361061012a575f3560e01c806375b238fc116100ab578063b37fd1901161006f578063b37fd19014610332578063c0a9c35d1461034e578063d547741f1461036c578063f09823c314610388578063fbcacca7146103a65761012a565b806375b238fc1461028e578063765ef4cc146102ac5780637b0472f0146102c857806391d14854146102e4578063a217fddf146103145761012a565b80632f2ff15d116100f25780632f2ff15d146101e6578063338038601461020257806336568abe14610220578063584b62a11461023c5780635bf42fb4146102705761012a565b806301ffc9a71461012e5780630e033dc51461015e578063111494451461017c578063248a9ca31461019a5780632e1a7d4d146101ca575b5f5ffd5b610148600480360381019061014391906111e1565b6103c4565b6040516101559190611226565b60405180910390f35b61016661043d565b60405161017391906112b9565b60405180910390f35b610184610461565b60405161019191906112ea565b60405180910390f35b6101b460048036038101906101af9190611336565b610468565b6040516101c19190611370565b60405180910390f35b6101e460048036038101906101df91906113b3565b610484565b005b61020060048036038101906101fb9190611419565b61083a565b005b61020a61085c565b60405161021791906112ea565b60405180910390f35b61023a60048036038101906102359190611419565b610864565b005b61025660048036038101906102519190611457565b6108df565b604051610267959493929190611495565b60405180910390f35b610278610937565b60405161028591906112ea565b60405180910390f35b61029661093d565b6040516102a39190611370565b60405180910390f35b6102c660048036038101906102c191906114e6565b610961565b005b6102e260048036038101906102dd9190611536565b6109a6565b005b6102fe60048036038101906102f99190611419565b610c13565b60405161030b9190611226565b60405180910390f35b61031c610c76565b6040516103299190611370565b60405180910390f35b61034c60048036038101906103479190611574565b610c7c565b005b610356610d96565b60405161036391906112ea565b60405180910390f35b61038660048036038101906103819190611419565b610d9d565b005b610390610dbf565b60405161039d91906112ea565b60405180910390f35b6103ae610dc5565b6040516103bb91906112ea565b60405180910390f35b5f7f7965db0b000000000000000000000000000000000000000000000000000000007bffffffffffffffffffffffffffffffffffffffffffffffffffffffff1916827bffffffffffffffffffffffffffffffffffffffffffffffffffffffff19161480610436575061043582610dcb565b5b9050919050565b7f000000000000000000000000000000000000000000000000000000000000000081565b6276a70081565b5f5f5f8381526020019081526020015f20600101549050919050565b61048c610e34565b60055f3373ffffffffffffffffffffffffffffffffffffffff1673ffffffffffffffffffffffffffffffffffffffff1681526020019081526020015f2080549050811061050e576040517f08c379a00000000000000000000000000000000000000000000000000000000081526004016105059061161e565b60405180910390fd5b5f60055f3373ffffffffffffffffffffffffffffffffffffffff1673ffffffffffffffffffffffffffffffffffffffff1681526020019081526020015f20828154811061055e5761055d61163c565b5b905f5260205f2090600502019050806004015f9054906101000a900460ff16156105bd576040517f08c379a00000000000000000000000000000000000000000000000000000000081526004016105b4906116b3565b60405180910390fd5b5f816002015482600101546105d291906116fe565b905080421015610617576040517f08c379a000000000000000000000000000000000000000000000000000000000815260040161060e9061177b565b60405180910390fd5b5f825f015490505f836002015490505f61063683866003015484610e83565b90506001856004015f6101000a81548160ff0219169083151502179055505f818461066191906116fe565b9050807f000000000000000000000000000000000000000000000000000000000000000073ffffffffffffffffffffffffffffffffffffffff166370a08231306040518263ffffffff1660e01b81526004016106bd91906117a8565b602060405180830381865afa1580156106d8573d5f5f3e3d5ffd5b505050506040513d601f19601f820116820180604052508101906106fc91906117d5565b101561073d576040517f08c379a00000000000000000000000000000000000000000000000000000000081526004016107349061184a565b60405180910390fd5b7f000000000000000000000000000000000000000000000000000000000000000073ffffffffffffffffffffffffffffffffffffffff1663a9059cbb33836040518363ffffffff1660e01b8152600401610798929190611868565b6020604051808303815f875af11580156107b4573d5f5f3e3d5ffd5b505050506040513d601f19601f820116820180604052508101906107d891906118b9565b503373ffffffffffffffffffffffffffffffffffffffff167f92ccf450a286a957af52509bc1c9939d1a6a481783e142e41e2499f0bb66ebc688846040516108219291906118e4565b60405180910390a2505050505050610837610eb4565b50565b61084382610468565b61084c81610ebd565b6108568383610ed1565b50505050565b6301e1338081565b61086c610fba565b73ffffffffffffffffffffffffffffffffffffffff168173ffffffffffffffffffffffffffffffffffffffff16146108d0576040517f6697b23200000000000000000000000000000000000000000000000000000000815260040160405180910390fd5b6108da8282610fc1565b505050565b6005602052815f5260405f2081815481106108f8575f80fd5b905f5260205f2090600502015f9150915050805f015490806001015490806002015490806003015490806004015f9054906101000a900460ff16905085565b60035481565b7fa49807205ce4d355092ef5a8a18f56e8913cf4a201fbe287825b095693c2177581565b7fa49807205ce4d355092ef5a8a18f56e8913cf4a201fbe287825b095693c2177561098b81610ebd565b83600281905550826003819055508160048190555050505050565b6109ae610e34565b5f82116109f0576040517f08c379a00000000000000000000000000000000000000000000000000000000081526004016109e790611955565b60405180910390fd5b5f5f6109fb836110aa565b915091505f7f000000000000000000000000000000000000000000000000000000000000000073ffffffffffffffffffffffffffffffffffffffff166323b872dd3330886040518463ffffffff1660e01b8152600401610a5d93929190611973565b6020604051808303815f875af1158015610a79573d5f5f3e3d5ffd5b505050506040513d601f19601f82011682018060405250810190610a9d91906118b9565b905080610adf576040517f08c379a0000000000000000000000000000000000000000000000000000000008152600401610ad6906119f2565b60405180910390fd5b60055f3373ffffffffffffffffffffffffffffffffffffffff1673ffffffffffffffffffffffffffffffffffffffff1681526020019081526020015f206040518060a001604052808781526020014281526020018581526020018481526020015f1515815250908060018154018082558091505060019003905f5260205f2090600502015f909190919091505f820151815f01556020820151816001015560408201518160020155606082015181600301556080820151816004015f6101000a81548160ff02191690831515021790555050503373ffffffffffffffffffffffffffffffffffffffff167fb4caaf29adda3eefee3ad552a8e85058589bf834c7466cae4ee58787f70589ed868585604051610bfc93929190611a10565b60405180910390a2505050610c0f610eb4565b5050565b5f5f5f8481526020019081526020015f205f015f8373ffffffffffffffffffffffffffffffffffffffff1673ffffffffffffffffffffffffffffffffffffffff1681526020019081526020015f205f9054906101000a900460ff16905092915050565b5f5f1b81565b7fa49807205ce4d355092ef5a8a18f56e8913cf4a201fbe287825b095693c21775610ca681610ebd565b5f73ffffffffffffffffffffffffffffffffffffffff168273ffffffffffffffffffffffffffffffffffffffff1603610d14576040517f08c379a0000000000000000000000000000000000000000000000000000000008152600401610d0b90611a8f565b60405180910390fd5b8373ffffffffffffffffffffffffffffffffffffffff1663a9059cbb83856040518363ffffffff1660e01b8152600401610d4f929190611868565b6020604051808303815f875af1158015610d6b573d5f5f3e3d5ffd5b505050506040513d601f19601f82011682018060405250810190610d8f91906118b9565b5050505050565b62ed4e0081565b610da682610468565b610daf81610ebd565b610db98383610fc1565b50505050565b60025481565b60045481565b5f7f01ffc9a7000000000000000000000000000000000000000000000000000000007bffffffffffffffffffffffffffffffffffffffffffffffffffffffff1916827bffffffffffffffffffffffffffffffffffffffffffffffffffffffff1916149050919050565b600260015403610e79576040517f08c379a0000000000000000000000000000000000000000000000000000000008152600401610e7090611af7565b60405180910390fd5b6002600181905550565b5f64496cebb800828486610e979190611b15565b610ea19190611b15565b610eab9190611b83565b90509392505050565b60018081905550565b610ece81610ec9610fba565b611137565b50565b5f610edc8383610c13565b610fb05760015f5f8581526020019081526020015f205f015f8473ffffffffffffffffffffffffffffffffffffffff1673ffffffffffffffffffffffffffffffffffffffff1681526020019081526020015f205f6101000a81548160ff021916908315150217905550610f4d610fba565b73ffffffffffffffffffffffffffffffffffffffff168273ffffffffffffffffffffffffffffffffffffffff16847f2f8788117e7eff1d82e926ec794901d17c78024a50270940304540a733656f0d60405160405180910390a460019050610fb4565b5f90505b92915050565b5f33905090565b5f610fcc8383610c13565b156110a0575f5f5f8581526020019081526020015f205f015f8473ffffffffffffffffffffffffffffffffffffffff1673ffffffffffffffffffffffffffffffffffffffff1681526020019081526020015f205f6101000a81548160ff02191690831515021790555061103d610fba565b73ffffffffffffffffffffffffffffffffffffffff168273ffffffffffffffffffffffffffffffffffffffff16847ff6391f5c32d9c69d2a47ea670b442974b53935d1edc7fd64eb21e047a839171b60405160405180910390a4600190506110a4565b5f90505b92915050565b5f5f600383036110c4576276a70091506002549050611132565b600683036110dc5762ed4e0091506003549050611131565b600c83036110f5576301e1338091506004549050611130565b6040517f08c379a000000000000000000000000000000000000000000000000000000000815260040161112790611bfd565b60405180910390fd5b5b5b915091565b6111418282610c13565b6111845780826040517fe2517d3f00000000000000000000000000000000000000000000000000000000815260040161117b929190611c1b565b60405180910390fd5b5050565b5f5ffd5b5f7fffffffff0000000000000000000000000000000000000000000000000000000082169050919050565b6111c08161118c565b81146111ca575f5ffd5b50565b5f813590506111db816111b7565b92915050565b5f602082840312156111f6576111f5611188565b5b5f611203848285016111cd565b91505092915050565b5f8115159050919050565b6112208161120c565b82525050565b5f6020820190506112395f830184611217565b92915050565b5f73ffffffffffffffffffffffffffffffffffffffff82169050919050565b5f819050919050565b5f61128161127c6112778461123f565b61125e565b61123f565b9050919050565b5f61129282611267565b9050919050565b5f6112a382611288565b9050919050565b6112b381611299565b82525050565b5f6020820190506112cc5f8301846112aa565b92915050565b5f819050919050565b6112e4816112d2565b82525050565b5f6020820190506112fd5f8301846112db565b92915050565b5f819050919050565b61131581611303565b811461131f575f5ffd5b50565b5f813590506113308161130c565b92915050565b5f6020828403121561134b5761134a611188565b5b5f61135884828501611322565b91505092915050565b61136a81611303565b82525050565b5f6020820190506113835f830184611361565b92915050565b611392816112d2565b811461139c575f5ffd5b50565b5f813590506113ad81611389565b92915050565b5f602082840312156113c8576113c7611188565b5b5f6113d58482850161139f565b91505092915050565b5f6113e88261123f565b9050919050565b6113f8816113de565b8114611402575f5ffd5b50565b5f81359050611413816113ef565b92915050565b5f5f6040838503121561142f5761142e611188565b5b5f61143c85828601611322565b925050602061144d85828601611405565b9150509250929050565b5f5f6040838503121561146d5761146c611188565b5b5f61147a85828601611405565b925050602061148b8582860161139f565b9150509250929050565b5f60a0820190506114a85f8301886112db565b6114b560208301876112db565b6114c260408301866112db565b6114cf60608301856112db565b6114dc6080830184611217565b9695505050505050565b5f5f5f606084860312156114fd576114fc611188565b5b5f61150a8682870161139f565b935050602061151b8682870161139f565b925050604061152c8682870161139f565b9150509250925092565b5f5f6040838503121561154c5761154b611188565b5b5f6115598582860161139f565b925050602061156a8582860161139f565b9150509250929050565b5f5f5f6060848603121561158b5761158a611188565b5b5f61159886828701611405565b93505060206115a98682870161139f565b92505060406115ba86828701611405565b9150509250925092565b5f82825260208201905092915050565b7f496e76616c6964207374616b6520696e646578000000000000000000000000005f82015250565b5f6116086013836115c4565b9150611613826115d4565b602082019050919050565b5f6020820190508181035f830152611635816115fc565b9050919050565b7f4e487b71000000000000000000000000000000000000000000000000000000005f52603260045260245ffd5b7f416c72656164792077697468647261776e0000000000000000000000000000005f82015250565b5f61169d6011836115c4565b91506116a882611669565b602082019050919050565b5f6020820190508181035f8301526116ca81611691565b9050919050565b7f4e487b71000000000000000000000000000000000000000000000000000000005f52601160045260245ffd5b5f611708826112d2565b9150611713836112d2565b925082820190508082111561172b5761172a6116d1565b5b92915050565b7f4c6f636b206e6f74206f766572000000000000000000000000000000000000005f82015250565b5f611765600d836115c4565b915061177082611731565b602082019050919050565b5f6020820190508181035f83015261179281611759565b9050919050565b6117a2816113de565b82525050565b5f6020820190506117bb5f830184611799565b92915050565b5f815190506117cf81611389565b92915050565b5f602082840312156117ea576117e9611188565b5b5f6117f7848285016117c1565b91505092915050565b7f496e73756666696369656e742072657761726420706f6f6c00000000000000005f82015250565b5f6118346018836115c4565b915061183f82611800565b602082019050919050565b5f6020820190508181035f83015261186181611828565b9050919050565b5f60408201905061187b5f830185611799565b61188860208301846112db565b9392505050565b6118988161120c565b81146118a2575f5ffd5b50565b5f815190506118b38161188f565b92915050565b5f602082840312156118ce576118cd611188565b5b5f6118db848285016118a5565b91505092915050565b5f6040820190506118f75f8301856112db565b61190460208301846112db565b9392505050565b7f43616e6e6f74207374616b65207a65726f0000000000000000000000000000005f82015250565b5f61193f6011836115c4565b915061194a8261190b565b602082019050919050565b5f6020820190508181035f83015261196c81611933565b9050919050565b5f6060820190506119865f830186611799565b6119936020830185611799565b6119a060408301846112db565b949350505050565b7f5472616e73666572206661696c656400000000000000000000000000000000005f82015250565b5f6119dc600f836115c4565b91506119e7826119a8565b602082019050919050565b5f6020820190508181035f830152611a09816119d0565b9050919050565b5f606082019050611a235f8301866112db565b611a3060208301856112db565b611a3d60408301846112db565b949350505050565b7f496e76616c69642027746f2700000000000000000000000000000000000000005f82015250565b5f611a79600c836115c4565b9150611a8482611a45565b602082019050919050565b5f6020820190508181035f830152611aa681611a6d565b9050919050565b7f5265656e7472616e637947756172643a207265656e7472616e742063616c6c005f82015250565b5f611ae1601f836115c4565b9150611aec82611aad565b602082019050919050565b5f6020820190508181035f830152611b0e81611ad5565b9050919050565b5f611b1f826112d2565b9150611b2a836112d2565b9250828202611b38816112d2565b91508282048414831517611b4f57611b4e6116d1565b5b5092915050565b7f4e487b71000000000000000000000000000000000000000000000000000000005f52601260045260245ffd5b5f611b8d826112d2565b9150611b98836112d2565b925082611ba857611ba7611b56565b5b828204905092915050565b7f496e76616c6964206c6f636b2063686f696365000000000000000000000000005f82015250565b5f611be76013836115c4565b9150611bf282611bb3565b602082019050919050565b5f6020820190508181035f830152611c1481611bdb565b9050919050565b5f604082019050611c2e5f830185611799565b611c3b6020830184611361565b939250505056fea2646970667358221220b094fb45af8c7bd2e1db42c1474976e040087be9838d71dc149068ae45ca917b64736f6c634300081c0033",
					"opcodes": "PUSH1 0xA0 PUSH1 0x40 MSTORE PUSH2 0x1F4 PUSH1 0x2 SSTORE PUSH2 0x3E8 PUSH1 0x3 SSTORE PUSH2 0x5DC PUSH1 0x4 SSTORE CALLVALUE DUP1 ISZERO PUSH2 0x21 JUMPI PUSH0 PUSH0 REVERT JUMPDEST POP PUSH1 0x40 MLOAD PUSH2 0x2112 CODESIZE SUB DUP1 PUSH2 0x2112 DUP4 CODECOPY DUP2 DUP2 ADD PUSH1 0x40 MSTORE DUP2 ADD SWAP1 PUSH2 0x43 SWAP2 SWAP1 PUSH2 0x34F JUMP JUMPDEST PUSH1 0x1 DUP1 DUP2 SWAP1 SSTORE POP PUSH0 PUSH20 0xFFFFFFFFFFFFFFFFFFFFFFFFFFFFFFFFFFFFFFFF AND DUP3 PUSH20 0xFFFFFFFFFFFFFFFFFFFFFFFFFFFFFFFFFFFFFFFF AND SUB PUSH2 0xB8 JUMPI PUSH1 0x40 MLOAD PUSH32 0x8C379A000000000000000000000000000000000000000000000000000000000 DUP2 MSTORE PUSH1 0x4 ADD PUSH2 0xAF SWAP1 PUSH2 0x3E7 JUMP JUMPDEST PUSH1 0x40 MLOAD DUP1 SWAP2 SUB SWAP1 REVERT JUMPDEST PUSH0 PUSH20 0xFFFFFFFFFFFFFFFFFFFFFFFFFFFFFFFFFFFFFFFF AND DUP2 PUSH20 0xFFFFFFFFFFFFFFFFFFFFFFFFFFFFFFFFFFFFFFFF AND SUB PUSH2 0x126 JUMPI PUSH1 0x40 MLOAD PUSH32 0x8C379A000000000000000000000000000000000000000000000000000000000 DUP2 MSTORE PUSH1 0x4 ADD PUSH2 0x11D SWAP1 PUSH2 0x44F JUMP JUMPDEST PUSH1 0x40 MLOAD DUP1 SWAP2 SUB SWAP1 REVERT JUMPDEST DUP2 PUSH20 0xFFFFFFFFFFFFFFFFFFFFFFFFFFFFFFFFFFFFFFFF AND PUSH1 0x80 DUP2 PUSH20 0xFFFFFFFFFFFFFFFFFFFFFFFFFFFFFFFFFFFFFFFF AND DUP2 MSTORE POP POP PUSH2 0x18A PUSH32 0xA49807205CE4D355092EF5A8A18F56E8913CF4A201FBE287825B095693C21775 DUP3 PUSH2 0x192 PUSH1 0x20 SHL PUSH1 0x20 SHR JUMP JUMPDEST POP POP POP PUSH2 0x46D JUMP JUMPDEST PUSH0 PUSH2 0x1A3 DUP4 DUP4 PUSH2 0x287 PUSH1 0x20 SHL PUSH1 0x20 SHR JUMP JUMPDEST PUSH2 0x27D JUMPI PUSH1 0x1 PUSH0 PUSH0 DUP6 DUP2 MSTORE PUSH1 0x20 ADD SWAP1 DUP2 MSTORE PUSH1 0x20 ADD PUSH0 KECCAK256 PUSH0 ADD PUSH0 DUP5 PUSH20 0xFFFFFFFFFFFFFFFFFFFFFFFFFFFFFFFFFFFFFFFF AND PUSH20 0xFFFFFFFFFFFFFFFFFFFFFFFFFFFFFFFFFFFFFFFF AND DUP2 MSTORE PUSH1 0x20 ADD SWAP1 DUP2 MSTORE PUSH1 0x20 ADD PUSH0 KECCAK256 PUSH0 PUSH2 0x100 EXP DUP2 SLOAD DUP2 PUSH1 0xFF MUL NOT AND SWAP1 DUP4 ISZERO ISZERO MUL OR SWAP1 SSTORE POP PUSH2 0x21A PUSH2 0x2EA PUSH1 0x20 SHL PUSH1 0x20 SHR JUMP JUMPDEST PUSH20 0xFFFFFFFFFFFFFFFFFFFFFFFFFFFFFFFFFFFFFFFF AND DUP3 PUSH20 0xFFFFFFFFFFFFFFFFFFFFFFFFFFFFFFFFFFFFFFFF AND DUP5 PUSH32 0x2F8788117E7EFF1D82E926EC794901D17C78024A50270940304540A733656F0D PUSH1 0x40 MLOAD PUSH1 0x40 MLOAD DUP1 SWAP2 SUB SWAP1 LOG4 PUSH1 0x1 SWAP1 POP PUSH2 0x281 JUMP JUMPDEST PUSH0 SWAP1 POP JUMPDEST SWAP3 SWAP2 POP POP JUMP JUMPDEST PUSH0 PUSH0 PUSH0 DUP5 DUP2 MSTORE PUSH1 0x20 ADD SWAP1 DUP2 MSTORE PUSH1 0x20 ADD PUSH0 KECCAK256 PUSH0 ADD PUSH0 DUP4 PUSH20 0xFFFFFFFFFFFFFFFFFFFFFFFFFFFFFFFFFFFFFFFF AND PUSH20 0xFFFFFFFFFFFFFFFFFFFFFFFFFFFFFFFFFFFFFFFF AND DUP2 MSTORE PUSH1 0x20 ADD SWAP1 DUP2 MSTORE PUSH1 0x20 ADD PUSH0 KECCAK256 PUSH0 SWAP1 SLOAD SWAP1 PUSH2 0x100 EXP SWAP1 DIV PUSH1 0xFF AND SWAP1 POP SWAP3 SWAP2 POP POP JUMP JUMPDEST PUSH0 CALLER SWAP1 POP SWAP1 JUMP JUMPDEST PUSH0 PUSH0 REVERT JUMPDEST PUSH0 PUSH20 0xFFFFFFFFFFFFFFFFFFFFFFFFFFFFFFFFFFFFFFFF DUP3 AND SWAP1 POP SWAP2 SWAP1 POP JUMP JUMPDEST PUSH0 PUSH2 0x31E DUP3 PUSH2 0x2F5 JUMP JUMPDEST SWAP1 POP SWAP2 SWAP1 POP JUMP JUMPDEST PUSH2 0x32E DUP2 PUSH2 0x314 JUMP JUMPDEST DUP2 EQ PUSH2 0x338 JUMPI PUSH0 PUSH0 REVERT JUMPDEST POP JUMP JUMPDEST PUSH0 DUP2 MLOAD SWAP1 POP PUSH2 0x349 DUP2 PUSH2 0x325 JUMP JUMPDEST SWAP3 SWAP2 POP POP JUMP JUMPDEST PUSH0 PUSH0 PUSH1 0x40 DUP4 DUP6 SUB SLT ISZERO PUSH2 0x365 JUMPI PUSH2 0x364 PUSH2 0x2F1 JUMP JUMPDEST JUMPDEST PUSH0 PUSH2 0x372 DUP6 DUP3 DUP7 ADD PUSH2 0x33B JUMP JUMPDEST SWAP3 POP POP PUSH1 0x20 PUSH2 0x383 DUP6 DUP3 DUP7 ADD PUSH2 0x33B JUMP JUMPDEST SWAP2 POP POP SWAP3 POP SWAP3 SWAP1 POP JUMP JUMPDEST PUSH0 DUP3 DUP3 MSTORE PUSH1 0x20 DUP3 ADD SWAP1 POP SWAP3 SWAP2 POP POP JUMP JUMPDEST PUSH32 0x496E76616C696420746F6B656E20616464726573730000000000000000000000 PUSH0 DUP3 ADD MSTORE POP JUMP JUMPDEST PUSH0 PUSH2 0x3D1 PUSH1 0x15 DUP4 PUSH2 0x38D JUMP JUMPDEST SWAP2 POP PUSH2 0x3DC DUP3 PUSH2 0x39D JUMP JUMPDEST PUSH1 0x20 DUP3 ADD SWAP1 POP SWAP2 SWAP1 POP JUMP JUMPDEST PUSH0 PUSH1 0x20 DUP3 ADD SWAP1 POP DUP2 DUP2 SUB PUSH0 DUP4 ADD MSTORE PUSH2 0x3FE DUP2 PUSH2 0x3C5 JUMP JUMPDEST SWAP1 POP SWAP2 SWAP1 POP JUMP JUMPDEST PUSH32 0x496E76616C69642061646D696E20616464726573730000000000000000000000 PUSH0 DUP3 ADD MSTORE POP JUMP JUMPDEST PUSH0 PUSH2 0x439 PUSH1 0x15 DUP4 PUSH2 0x38D JUMP JUMPDEST SWAP2 POP PUSH2 0x444 DUP3 PUSH2 0x405 JUMP JUMPDEST PUSH1 0x20 DUP3 ADD SWAP1 POP SWAP2 SWAP1 POP JUMP JUMPDEST PUSH0 PUSH1 0x20 DUP3 ADD SWAP1 POP DUP2 DUP2 SUB PUSH0 DUP4 ADD MSTORE PUSH2 0x466 DUP2 PUSH2 0x42D JUMP JUMPDEST SWAP1 POP SWAP2 SWAP1 POP JUMP JUMPDEST PUSH1 0x80 MLOAD PUSH2 0x1C78 PUSH2 0x49A PUSH0 CODECOPY PUSH0 DUP2 DUP2 PUSH2 0x43F ADD MSTORE DUP2 DUP2 PUSH2 0x666 ADD MSTORE DUP2 DUP2 PUSH2 0x73F ADD MSTORE PUSH2 0xA02 ADD MSTORE PUSH2 0x1C78 PUSH0 RETURN INVALID PUSH1 0x80 PUSH1 0x40 MSTORE CALLVALUE DUP1 ISZERO PUSH2 0xF JUMPI PUSH0 PUSH0 REVERT JUMPDEST POP PUSH1 0x4 CALLDATASIZE LT PUSH2 0x12A JUMPI PUSH0 CALLDATALOAD PUSH1 0xE0 SHR DUP1 PUSH4 0x75B238FC GT PUSH2 0xAB JUMPI DUP1 PUSH4 0xB37FD190 GT PUSH2 0x6F JUMPI DUP1 PUSH4 0xB37FD190 EQ PUSH2 0x332 JUMPI DUP1 PUSH4 0xC0A9C35D EQ PUSH2 0x34E JUMPI DUP1 PUSH4 0xD547741F EQ PUSH2 0x36C JUMPI DUP1 PUSH4 0xF09823C3 EQ PUSH2 0x388 JUMPI DUP1 PUSH4 0xFBCACCA7 EQ PUSH2 0x3A6 JUMPI PUSH2 0x12A JUMP JUMPDEST DUP1 PUSH4 0x75B238FC EQ PUSH2 0x28E JUMPI DUP1 PUSH4 0x765EF4CC EQ PUSH2 0x2AC JUMPI DUP1 PUSH4 0x7B0472F0 EQ PUSH2 0x2C8 JUMPI DUP1 PUSH4 0x91D14854 EQ PUSH2 0x2E4 JUMPI DUP1 PUSH4 0xA217FDDF EQ PUSH2 0x314 JUMPI PUSH2 0x12A JUMP JUMPDEST DUP1 PUSH4 0x2F2FF15D GT PUSH2 0xF2 JUMPI DUP1 PUSH4 0x2F2FF15D EQ PUSH2 0x1E6 JUMPI DUP1 PUSH4 0x33803860 EQ PUSH2 0x202 JUMPI DUP1 PUSH4 0x36568ABE EQ PUSH2 0x220 JUMPI DUP1 PUSH4 0x584B62A1 EQ PUSH2 0x23C JUMPI DUP1 PUSH4 0x5BF42FB4 EQ PUSH2 0x270 JUMPI PUSH2 0x12A JUMP JUMPDEST DUP1 PUSH4 0x1FFC9A7 EQ PUSH2 0x12E JUMPI DUP1 PUSH4 0xE033DC5 EQ PUSH2 0x15E JUMPI DUP1 PUSH4 0x11149445 EQ PUSH2 0x17C JUMPI DUP1 PUSH4 0x248A9CA3 EQ PUSH2 0x19A JUMPI DUP1 PUSH4 0x2E1A7D4D EQ PUSH2 0x1CA JUMPI JUMPDEST PUSH0 PUSH0 REVERT JUMPDEST PUSH2 0x148 PUSH1 0x4 DUP1 CALLDATASIZE SUB DUP2 ADD SWAP1 PUSH2 0x143 SWAP2 SWAP1 PUSH2 0x11E1 JUMP JUMPDEST PUSH2 0x3C4 JUMP JUMPDEST PUSH1 0x40 MLOAD PUSH2 0x155 SWAP2 SWAP1 PUSH2 0x1226 JUMP JUMPDEST PUSH1 0x40 MLOAD DUP1 SWAP2 SUB SWAP1 RETURN JUMPDEST PUSH2 0x166 PUSH2 0x43D JUMP JUMPDEST PUSH1 0x40 MLOAD PUSH2 0x173 SWAP2 SWAP1 PUSH2 0x12B9 JUMP JUMPDEST PUSH1 0x40 MLOAD DUP1 SWAP2 SUB SWAP1 RETURN JUMPDEST PUSH2 0x184 PUSH2 0x461 JUMP JUMPDEST PUSH1 0x40 MLOAD PUSH2 0x191 SWAP2 SWAP1 PUSH2 0x12EA JUMP JUMPDEST PUSH1 0x40 MLOAD DUP1 SWAP2 SUB SWAP1 RETURN JUMPDEST PUSH2 0x1B4 PUSH1 0x4 DUP1 CALLDATASIZE SUB DUP2 ADD SWAP1 PUSH2 0x1AF SWAP2 SWAP1 PUSH2 0x1336 JUMP JUMPDEST PUSH2 0x468 JUMP JUMPDEST PUSH1 0x40 MLOAD PUSH2 0x1C1 SWAP2 SWAP1 PUSH2 0x1370 JUMP JUMPDEST PUSH1 0x40 MLOAD DUP1 SWAP2 SUB SWAP1 RETURN JUMPDEST PUSH2 0x1E4 PUSH1 0x4 DUP1 CALLDATASIZE SUB DUP2 ADD SWAP1 PUSH2 0x1DF SWAP2 SWAP1 PUSH2 0x13B3 JUMP JUMPDEST PUSH2 0x484 JUMP JUMPDEST STOP JUMPDEST PUSH2 0x200 PUSH1 0x4 DUP1 CALLDATASIZE SUB DUP2 ADD SWAP1 PUSH2 0x1FB SWAP2 SWAP1 PUSH2 0x1419 JUMP JUMPDEST PUSH2 0x83A JUMP JUMPDEST STOP JUMPDEST PUSH2 0x20A PUSH2 0x85C JUMP JUMPDEST PUSH1 0x40 MLOAD PUSH2 0x217 SWAP2 SWAP1 PUSH2 0x12EA JUMP JUMPDEST PUSH1 0x40 MLOAD DUP1 SWAP2 SUB SWAP1 RETURN JUMPDEST PUSH2 0x23A PUSH1 0x4 DUP1 CALLDATASIZE SUB DUP2 ADD SWAP1 PUSH2 0x235 SWAP2 SWAP1 PUSH2 0x1419 JUMP JUMPDEST PUSH2 0x864 JUMP JUMPDEST STOP JUMPDEST PUSH2 0x256 PUSH1 0x4 DUP1 CALLDATASIZE SUB DUP2 ADD SWAP1 PUSH2 0x251 SWAP2 SWAP1 PUSH2 0x1457 JUMP JUMPDEST PUSH2 0x8DF JUMP JUMPDEST PUSH1 0x40 MLOAD PUSH2 0x267 SWAP6 SWAP5 SWAP4 SWAP3 SWAP2 SWAP1 PUSH2 0x1495 JUMP JUMPDEST PUSH1 0x40 MLOAD DUP1 SWAP2 SUB SWAP1 RETURN JUMPDEST PUSH2 0x278 PUSH2 0x937 JUMP JUMPDEST PUSH1 0x40 MLOAD PUSH2 0x285 SWAP2 SWAP1 PUSH2 0x12EA JUMP JUMPDEST PUSH1 0x40 MLOAD DUP1 SWAP2 SUB SWAP1 RETURN JUMPDEST PUSH2 0x296 PUSH2 0x93D JUMP JUMPDEST PUSH1 0x40 MLOAD PUSH2 0x2A3 SWAP2 SWAP1 PUSH2 0x1370 JUMP JUMPDEST PUSH1 0x40 MLOAD DUP1 SWAP2 SUB SWAP1 RETURN JUMPDEST PUSH2 0x2C6 PUSH1 0x4 DUP1 CALLDATASIZE SUB DUP2 ADD SWAP1 PUSH2 0x2C1 SWAP2 SWAP1 PUSH2 0x14E6 JUMP JUMPDEST PUSH2 0x961 JUMP JUMPDEST STOP JUMPDEST PUSH2 0x2E2 PUSH1 0x4 DUP1 CALLDATASIZE SUB DUP2 ADD SWAP1 PUSH2 0x2DD SWAP2 SWAP1 PUSH2 0x1536 JUMP JUMPDEST PUSH2 0x9A6 JUMP JUMPDEST STOP JUMPDEST PUSH2 0x2FE PUSH1 0x4 DUP1 CALLDATASIZE SUB DUP2 ADD SWAP1 PUSH2 0x2F9 SWAP2 SWAP1 PUSH2 0x1419 JUMP JUMPDEST PUSH2 0xC13 JUMP JUMPDEST PUSH1 0x40 MLOAD PUSH2 0x30B SWAP2 SWAP1 PUSH2 0x1226 JUMP JUMPDEST PUSH1 0x40 MLOAD DUP1 SWAP2 SUB SWAP1 RETURN JUMPDEST PUSH2 0x31C PUSH2 0xC76 JUMP JUMPDEST PUSH1 0x40 MLOAD PUSH2 0x329 SWAP2 SWAP1 PUSH2 0x1370 JUMP JUMPDEST PUSH1 0x40 MLOAD DUP1 SWAP2 SUB SWAP1 RETURN JUMPDEST PUSH2 0x34C PUSH1 0x4 DUP1 CALLDATASIZE SUB DUP2 ADD SWAP1 PUSH2 0x347 SWAP2 SWAP1 PUSH2 0x1574 JUMP JUMPDEST PUSH2 0xC7C JUMP JUMPDEST STOP JUMPDEST PUSH2 0x356 PUSH2 0xD96 JUMP JUMPDEST PUSH1 0x40 MLOAD PUSH2 0x363 SWAP2 SWAP1 PUSH2 0x12EA JUMP JUMPDEST PUSH1 0x40 MLOAD DUP1 SWAP2 SUB SWAP1 RETURN JUMPDEST PUSH2 0x386 PUSH1 0x4 DUP1 CALLDATASIZE SUB DUP2 ADD SWAP1 PUSH2 0x381 SWAP2 SWAP1 PUSH2 0x1419 JUMP JUMPDEST PUSH2 0xD9D JUMP JUMPDEST STOP JUMPDEST PUSH2 0x390 PUSH2 0xDBF JUMP JUMPDEST PUSH1 0x40 MLOAD PUSH2 0x39D SWAP2 SWAP1 PUSH2 0x12EA JUMP JUMPDEST PUSH1 0x40 MLOAD DUP1 SWAP2 SUB SWAP1 RETURN JUMPDEST PUSH2 0x3AE PUSH2 0xDC5 JUMP JUMPDEST PUSH1 0x40 MLOAD PUSH2 0x3BB SWAP2 SWAP1 PUSH2 0x12EA JUMP JUMPDEST PUSH1 0x40 MLOAD DUP1 SWAP2 SUB SWAP1 RETURN JUMPDEST PUSH0 PUSH32 0x7965DB0B00000000000000000000000000000000000000000000000000000000 PUSH28 0xFFFFFFFFFFFFFFFFFFFFFFFFFFFFFFFFFFFFFFFFFFFFFFFFFFFFFFFF NOT AND DUP3 PUSH28 0xFFFFFFFFFFFFFFFFFFFFFFFFFFFFFFFFFFFFFFFFFFFFFFFFFFFFFFFF NOT AND EQ DUP1 PUSH2 0x436 JUMPI POP PUSH2 0x435 DUP3 PUSH2 0xDCB JUMP JUMPDEST JUMPDEST SWAP1 POP SWAP2 SWAP1 POP JUMP JUMPDEST PUSH32 0x0 DUP2 JUMP JUMPDEST PUSH3 0x76A700 DUP2 JUMP JUMPDEST PUSH0 PUSH0 PUSH0 DUP4 DUP2 MSTORE PUSH1 0x20 ADD SWAP1 DUP2 MSTORE PUSH1 0x20 ADD PUSH0 KECCAK256 PUSH1 0x1 ADD SLOAD SWAP1 POP SWAP2 SWAP1 POP JUMP JUMPDEST PUSH2 0x48C PUSH2 0xE34 JUMP JUMPDEST PUSH1 0x5 PUSH0 CALLER PUSH20 0xFFFFFFFFFFFFFFFFFFFFFFFFFFFFFFFFFFFFFFFF AND PUSH20 0xFFFFFFFFFFFFFFFFFFFFFFFFFFFFFFFFFFFFFFFF AND DUP2 MSTORE PUSH1 0x20 ADD SWAP1 DUP2 MSTORE PUSH1 0x20 ADD PUSH0 KECCAK256 DUP1 SLOAD SWAP1 POP DUP2 LT PUSH2 0x50E JUMPI PUSH1 0x40 MLOAD PUSH32 0x8C379A000000000000000000000000000000000000000000000000000000000 DUP2 MSTORE PUSH1 0x4 ADD PUSH2 0x505 SWAP1 PUSH2 0x161E JUMP JUMPDEST PUSH1 0x40 MLOAD DUP1 SWAP2 SUB SWAP1 REVERT JUMPDEST PUSH0 PUSH1 0x5 PUSH0 CALLER PUSH20 0xFFFFFFFFFFFFFFFFFFFFFFFFFFFFFFFFFFFFFFFF AND PUSH20 0xFFFFFFFFFFFFFFFFFFFFFFFFFFFFFFFFFFFFFFFF AND DUP2 MSTORE PUSH1 0x20 ADD SWAP1 DUP2 MSTORE PUSH1 0x20 ADD PUSH0 KECCAK256 DUP3 DUP2 SLOAD DUP2 LT PUSH2 0x55E JUMPI PUSH2 0x55D PUSH2 0x163C JUMP JUMPDEST JUMPDEST SWAP1 PUSH0 MSTORE PUSH1 0x20 PUSH0 KECCAK256 SWAP1 PUSH1 0x5 MUL ADD SWAP1 POP DUP1 PUSH1 0x4 ADD PUSH0 SWAP1 SLOAD SWAP1 PUSH2 0x100 EXP SWAP1 DIV PUSH1 0xFF AND ISZERO PUSH2 0x5BD JUMPI PUSH1 0x40 MLOAD PUSH32 0x8C379A000000000000000000000000000000000000000000000000000000000 DUP2 MSTORE PUSH1 0x4 ADD PUSH2 0x5B4 SWAP1 PUSH2 0x16B3 JUMP JUMPDEST PUSH1 0x40 MLOAD DUP1 SWAP2 SUB SWAP1 REVERT JUMPDEST PUSH0 DUP2 PUSH1 0x2 ADD SLOAD DUP3 PUSH1 0x1 ADD SLOAD PUSH2 0x5D2 SWAP2 SWAP1 PUSH2 0x16FE JUMP JUMPDEST SWAP1 POP DUP1 TIMESTAMP LT ISZERO PUSH2 0x617 JUMPI PUSH1 0x40 MLOAD PUSH32 0x8C379A000000000000000000000000000000000000000000000000000000000 DUP2 MSTORE PUSH1 0x4 ADD PUSH2 0x60E SWAP1 PUSH2 0x177B JUMP JUMPDEST PUSH1 0x40 MLOAD DUP1 SWAP2 SUB SWAP1 REVERT JUMPDEST PUSH0 DUP3 PUSH0 ADD SLOAD SWAP1 POP PUSH0 DUP4 PUSH1 0x2 ADD SLOAD SWAP1 POP PUSH0 PUSH2 0x636 DUP4 DUP7 PUSH1 0x3 ADD SLOAD DUP5 PUSH2 0xE83 JUMP JUMPDEST SWAP1 POP PUSH1 0x1 DUP6 PUSH1 0x4 ADD PUSH0 PUSH2 0x100 EXP DUP2 SLOAD DUP2 PUSH1 0xFF MUL NOT AND SWAP1 DUP4 ISZERO ISZERO MUL OR SWAP1 SSTORE POP PUSH0 DUP2 DUP5 PUSH2 0x661 SWAP2 SWAP1 PUSH2 0x16FE JUMP JUMPDEST SWAP1 POP DUP1 PUSH32 0x0 PUSH20 0xFFFFFFFFFFFFFFFFFFFFFFFFFFFFFFFFFFFFFFFF AND PUSH4 0x70A08231 ADDRESS PUSH1 0x40 MLOAD DUP3 PUSH4 0xFFFFFFFF AND PUSH1 0xE0 SHL DUP2 MSTORE PUSH1 0x4 ADD PUSH2 0x6BD SWAP2 SWAP1 PUSH2 0x17A8 JUMP JUMPDEST PUSH1 0x20 PUSH1 0x40 MLOAD DUP1 DUP4 SUB DUP2 DUP7 GAS STATICCALL ISZERO DUP1 ISZERO PUSH2 0x6D8 JUMPI RETURNDATASIZE PUSH0 PUSH0 RETURNDATACOPY RETURNDATASIZE PUSH0 REVERT JUMPDEST POP POP POP POP PUSH1 0x40 MLOAD RETURNDATASIZE PUSH1 0x1F NOT PUSH1 0x1F DUP3 ADD AND DUP3 ADD DUP1 PUSH1 0x40 MSTORE POP DUP2 ADD SWAP1 PUSH2 0x6FC SWAP2 SWAP1 PUSH2 0x17D5 JUMP JUMPDEST LT ISZERO PUSH2 0x73D JUMPI PUSH1 0x40 MLOAD PUSH32 0x8C379A000000000000000000000000000000000000000000000000000000000 DUP2 MSTORE PUSH1 0x4 ADD PUSH2 0x734 SWAP1 PUSH2 0x184A JUMP JUMPDEST PUSH1 0x40 MLOAD DUP1 SWAP2 SUB SWAP1 REVERT JUMPDEST PUSH32 0x0 PUSH20 0xFFFFFFFFFFFFFFFFFFFFFFFFFFFFFFFFFFFFFFFF AND PUSH4 0xA9059CBB CALLER DUP4 PUSH1 0x40 MLOAD DUP4 PUSH4 0xFFFFFFFF AND PUSH1 0xE0 SHL DUP2 MSTORE PUSH1 0x4 ADD PUSH2 0x798 SWAP3 SWAP2 SWAP1 PUSH2 0x1868 JUMP JUMPDEST PUSH1 0x20 PUSH1 0x40 MLOAD DUP1 DUP4 SUB DUP2 PUSH0 DUP8 GAS CALL ISZERO DUP1 ISZERO PUSH2 0x7B4 JUMPI RETURNDATASIZE PUSH0 PUSH0 RETURNDATACOPY RETURNDATASIZE PUSH0 REVERT JUMPDEST POP POP POP POP PUSH1 0x40 MLOAD RETURNDATASIZE PUSH1 0x1F NOT PUSH1 0x1F DUP3 ADD AND DUP3 ADD DUP1 PUSH1 0x40 MSTORE POP DUP2 ADD SWAP1 PUSH2 0x7D8 SWAP2 SWAP1 PUSH2 0x18B9 JUMP JUMPDEST POP CALLER PUSH20 0xFFFFFFFFFFFFFFFFFFFFFFFFFFFFFFFFFFFFFFFF AND PUSH32 0x92CCF450A286A957AF52509BC1C9939D1A6A481783E142E41E2499F0BB66EBC6 DUP9 DUP5 PUSH1 0x40 MLOAD PUSH2 0x821 SWAP3 SWAP2 SWAP1 PUSH2 0x18E4 JUMP JUMPDEST PUSH1 0x40 MLOAD DUP1 SWAP2 SUB SWAP1 LOG2 POP POP POP POP POP POP PUSH2 0x837 PUSH2 0xEB4 JUMP JUMPDEST POP JUMP JUMPDEST PUSH2 0x843 DUP3 PUSH2 0x468 JUMP JUMPDEST PUSH2 0x84C DUP2 PUSH2 0xEBD JUMP JUMPDEST PUSH2 0x856 DUP4 DUP4 PUSH2 0xED1 JUMP JUMPDEST POP POP POP POP JUMP JUMPDEST PUSH4 0x1E13380 DUP2 JUMP JUMPDEST PUSH2 0x86C PUSH2 0xFBA JUMP JUMPDEST PUSH20 0xFFFFFFFFFFFFFFFFFFFFFFFFFFFFFFFFFFFFFFFF AND DUP2 PUSH20 0xFFFFFFFFFFFFFFFFFFFFFFFFFFFFFFFFFFFFFFFF AND EQ PUSH2 0x8D0 JUMPI PUSH1 0x40 MLOAD PUSH32 0x6697B23200000000000000000000000000000000000000000000000000000000 DUP2 MSTORE PUSH1 0x4 ADD PUSH1 0x40 MLOAD DUP1 SWAP2 SUB SWAP1 REVERT JUMPDEST PUSH2 0x8DA DUP3 DUP3 PUSH2 0xFC1 JUMP JUMPDEST POP POP POP JUMP JUMPDEST PUSH1 0x5 PUSH1 0x20 MSTORE DUP2 PUSH0 MSTORE PUSH1 0x40 PUSH0 KECCAK256 DUP2 DUP2 SLOAD DUP2 LT PUSH2 0x8F8 JUMPI PUSH0 DUP1 REVERT JUMPDEST SWAP1 PUSH0 MSTORE PUSH1 0x20 PUSH0 KECCAK256 SWAP1 PUSH1 0x5 MUL ADD PUSH0 SWAP2 POP SWAP2 POP POP DUP1 PUSH0 ADD SLOAD SWAP1 DUP1 PUSH1 0x1 ADD SLOAD SWAP1 DUP1 PUSH1 0x2 ADD SLOAD SWAP1 DUP1 PUSH1 0x3 ADD SLOAD SWAP1 DUP1 PUSH1 0x4 ADD PUSH0 SWAP1 SLOAD SWAP1 PUSH2 0x100 EXP SWAP1 DIV PUSH1 0xFF AND SWAP1 POP DUP6 JUMP JUMPDEST PUSH1 0x3 SLOAD DUP2 JUMP JUMPDEST PUSH32 0xA49807205CE4D355092EF5A8A18F56E8913CF4A201FBE287825B095693C21775 DUP2 JUMP JUMPDEST PUSH32 0xA49807205CE4D355092EF5A8A18F56E8913CF4A201FBE287825B095693C21775 PUSH2 0x98B DUP2 PUSH2 0xEBD JUMP JUMPDEST DUP4 PUSH1 0x2 DUP2 SWAP1 SSTORE POP DUP3 PUSH1 0x3 DUP2 SWAP1 SSTORE POP DUP2 PUSH1 0x4 DUP2 SWAP1 SSTORE POP POP POP POP POP JUMP JUMPDEST PUSH2 0x9AE PUSH2 0xE34 JUMP JUMPDEST PUSH0 DUP3 GT PUSH2 0x9F0 JUMPI PUSH1 0x40 MLOAD PUSH32 0x8C379A000000000000000000000000000000000000000000000000000000000 DUP2 MSTORE PUSH1 0x4 ADD PUSH2 0x9E7 SWAP1 PUSH2 0x1955 JUMP JUMPDEST PUSH1 0x40 MLOAD DUP1 SWAP2 SUB SWAP1 REVERT JUMPDEST PUSH0 PUSH0 PUSH2 0x9FB DUP4 PUSH2 0x10AA JUMP JUMPDEST SWAP2 POP SWAP2 POP PUSH0 PUSH32 0x0 PUSH20 0xFFFFFFFFFFFFFFFFFFFFFFFFFFFFFFFFFFFFFFFF AND PUSH4 0x23B872DD CALLER ADDRESS DUP9 PUSH1 0x40 MLOAD DUP5 PUSH4 0xFFFFFFFF AND PUSH1 0xE0 SHL DUP2 MSTORE PUSH1 0x4 ADD PUSH2 0xA5D SWAP4 SWAP3 SWAP2 SWAP1 PUSH2 0x1973 JUMP JUMPDEST PUSH1 0x20 PUSH1 0x40 MLOAD DUP1 DUP4 SUB DUP2 PUSH0 DUP8 GAS CALL ISZERO DUP1 ISZERO PUSH2 0xA79 JUMPI RETURNDATASIZE PUSH0 PUSH0 RETURNDATACOPY RETURNDATASIZE PUSH0 REVERT JUMPDEST POP POP POP POP PUSH1 0x40 MLOAD RETURNDATASIZE PUSH1 0x1F NOT PUSH1 0x1F DUP3 ADD AND DUP3 ADD DUP1 PUSH1 0x40 MSTORE POP DUP2 ADD SWAP1 PUSH2 0xA9D SWAP2 SWAP1 PUSH2 0x18B9 JUMP JUMPDEST SWAP1 POP DUP1 PUSH2 0xADF JUMPI PUSH1 0x40 MLOAD PUSH32 0x8C379A000000000000000000000000000000000000000000000000000000000 DUP2 MSTORE PUSH1 0x4 ADD PUSH2 0xAD6 SWAP1 PUSH2 0x19F2 JUMP JUMPDEST PUSH1 0x40 MLOAD DUP1 SWAP2 SUB SWAP1 REVERT JUMPDEST PUSH1 0x5 PUSH0 CALLER PUSH20 0xFFFFFFFFFFFFFFFFFFFFFFFFFFFFFFFFFFFFFFFF AND PUSH20 0xFFFFFFFFFFFFFFFFFFFFFFFFFFFFFFFFFFFFFFFF AND DUP2 MSTORE PUSH1 0x20 ADD SWAP1 DUP2 MSTORE PUSH1 0x20 ADD PUSH0 KECCAK256 PUSH1 0x40 MLOAD DUP1 PUSH1 0xA0 ADD PUSH1 0x40 MSTORE DUP1 DUP8 DUP2 MSTORE PUSH1 0x20 ADD TIMESTAMP DUP2 MSTORE PUSH1 0x20 ADD DUP6 DUP2 MSTORE PUSH1 0x20 ADD DUP5 DUP2 MSTORE PUSH1 0x20 ADD PUSH0 ISZERO ISZERO DUP2 MSTORE POP SWAP1 DUP1 PUSH1 0x1 DUP2 SLOAD ADD DUP1 DUP3 SSTORE DUP1 SWAP2 POP POP PUSH1 0x1 SWAP1 SUB SWAP1 PUSH0 MSTORE PUSH1 0x20 PUSH0 KECCAK256 SWAP1 PUSH1 0x5 MUL ADD PUSH0 SWAP1 SWAP2 SWAP1 SWAP2 SWAP1 SWAP2 POP PUSH0 DUP3 ADD MLOAD DUP2 PUSH0 ADD SSTORE PUSH1 0x20 DUP3 ADD MLOAD DUP2 PUSH1 0x1 ADD SSTORE PUSH1 0x40 DUP3 ADD MLOAD DUP2 PUSH1 0x2 ADD SSTORE PUSH1 0x60 DUP3 ADD MLOAD DUP2 PUSH1 0x3 ADD SSTORE PUSH1 0x80 DUP3 ADD MLOAD DUP2 PUSH1 0x4 ADD PUSH0 PUSH2 0x100 EXP DUP2 SLOAD DUP2 PUSH1 0xFF MUL NOT AND SWAP1 DUP4 ISZERO ISZERO MUL OR SWAP1 SSTORE POP POP POP CALLER PUSH20 0xFFFFFFFFFFFFFFFFFFFFFFFFFFFFFFFFFFFFFFFF AND PUSH32 0xB4CAAF29ADDA3EEFEE3AD552A8E85058589BF834C7466CAE4EE58787F70589ED DUP7 DUP6 DUP6 PUSH1 0x40 MLOAD PUSH2 0xBFC SWAP4 SWAP3 SWAP2 SWAP1 PUSH2 0x1A10 JUMP JUMPDEST PUSH1 0x40 MLOAD DUP1 SWAP2 SUB SWAP1 LOG2 POP POP POP PUSH2 0xC0F PUSH2 0xEB4 JUMP JUMPDEST POP POP JUMP JUMPDEST PUSH0 PUSH0 PUSH0 DUP5 DUP2 MSTORE PUSH1 0x20 ADD SWAP1 DUP2 MSTORE PUSH1 0x20 ADD PUSH0 KECCAK256 PUSH0 ADD PUSH0 DUP4 PUSH20 0xFFFFFFFFFFFFFFFFFFFFFFFFFFFFFFFFFFFFFFFF AND PUSH20 0xFFFFFFFFFFFFFFFFFFFFFFFFFFFFFFFFFFFFFFFF AND DUP2 MSTORE PUSH1 0x20 ADD SWAP1 DUP2 MSTORE PUSH1 0x20 ADD PUSH0 KECCAK256 PUSH0 SWAP1 SLOAD SWAP1 PUSH2 0x100 EXP SWAP1 DIV PUSH1 0xFF AND SWAP1 POP SWAP3 SWAP2 POP POP JUMP JUMPDEST PUSH0 PUSH0 SHL DUP2 JUMP JUMPDEST PUSH32 0xA49807205CE4D355092EF5A8A18F56E8913CF4A201FBE287825B095693C21775 PUSH2 0xCA6 DUP2 PUSH2 0xEBD JUMP JUMPDEST PUSH0 PUSH20 0xFFFFFFFFFFFFFFFFFFFFFFFFFFFFFFFFFFFFFFFF AND DUP3 PUSH20 0xFFFFFFFFFFFFFFFFFFFFFFFFFFFFFFFFFFFFFFFF AND SUB PUSH2 0xD14 JUMPI PUSH1 0x40 MLOAD PUSH32 0x8C379A000000000000000000000000000000000000000000000000000000000 DUP2 MSTORE PUSH1 0x4 ADD PUSH2 0xD0B SWAP1 PUSH2 0x1A8F JUMP JUMPDEST PUSH1 0x40 MLOAD DUP1 SWAP2 SUB SWAP1 REVERT JUMPDEST DUP4 PUSH20 0xFFFFFFFFFFFFFFFFFFFFFFFFFFFFFFFFFFFFFFFF AND PUSH4 0xA9059CBB DUP4 DUP6 PUSH1 0x40 MLOAD DUP4 PUSH4 0xFFFFFFFF AND PUSH1 0xE0 SHL DUP2 MSTORE PUSH1 0x4 ADD PUSH2 0xD4F SWAP3 SWAP2 SWAP1 PUSH2 0x1868 JUMP JUMPDEST PUSH1 0x20 PUSH1 0x40 MLOAD DUP1 DUP4 SUB DUP2 PUSH0 DUP8 GAS CALL ISZERO DUP1 ISZERO PUSH2 0xD6B JUMPI RETURNDATASIZE PUSH0 PUSH0 RETURNDATACOPY RETURNDATASIZE PUSH0 REVERT JUMPDEST POP POP POP POP PUSH1 0x40 MLOAD RETURNDATASIZE PUSH1 0x1F NOT PUSH1 0x1F DUP3 ADD AND DUP3 ADD DUP1 PUSH1 0x40 MSTORE POP DUP2 ADD SWAP1 PUSH2 0xD8F SWAP2 SWAP1 PUSH2 0x18B9 JUMP JUMPDEST POP POP POP POP POP JUMP JUMPDEST PUSH3 0xED4E00 DUP2 JUMP JUMPDEST PUSH2 0xDA6 DUP3 PUSH2 0x468 JUMP JUMPDEST PUSH2 0xDAF DUP2 PUSH2 0xEBD JUMP JUMPDEST PUSH2 0xDB9 DUP4 DUP4 PUSH2 0xFC1 JUMP JUMPDEST POP POP POP POP JUMP JUMPDEST PUSH1 0x2 SLOAD DUP2 JUMP JUMPDEST PUSH1 0x4 SLOAD DUP2 JUMP JUMPDEST PUSH0 PUSH32 0x1FFC9A700000000000000000000000000000000000000000000000000000000 PUSH28 0xFFFFFFFFFFFFFFFFFFFFFFFFFFFFFFFFFFFFFFFFFFFFFFFFFFFFFFFF NOT AND DUP3 PUSH28 0xFFFFFFFFFFFFFFFFFFFFFFFFFFFFFFFFFFFFFFFFFFFFFFFFFFFFFFFF NOT AND EQ SWAP1 POP SWAP2 SWAP1 POP JUMP JUMPDEST PUSH1 0x2 PUSH1 0x1 SLOAD SUB PUSH2 0xE79 JUMPI PUSH1 0x40 MLOAD PUSH32 0x8C379A000000000000000000000000000000000000000000000000000000000 DUP2 MSTORE PUSH1 0x4 ADD PUSH2 0xE70 SWAP1 PUSH2 0x1AF7 JUMP JUMPDEST PUSH1 0x40 MLOAD DUP1 SWAP2 SUB SWAP1 REVERT JUMPDEST PUSH1 0x2 PUSH1 0x1 DUP2 SWAP1 SSTORE POP JUMP JUMPDEST PUSH0 PUSH5 0x496CEBB800 DUP3 DUP5 DUP7 PUSH2 0xE97 SWAP2 SWAP1 PUSH2 0x1B15 JUMP JUMPDEST PUSH2 0xEA1 SWAP2 SWAP1 PUSH2 0x1B15 JUMP JUMPDEST PUSH2 0xEAB SWAP2 SWAP1 PUSH2 0x1B83 JUMP JUMPDEST SWAP1 POP SWAP4 SWAP3 POP POP POP JUMP JUMPDEST PUSH1 0x1 DUP1 DUP2 SWAP1 SSTORE POP JUMP JUMPDEST PUSH2 0xECE DUP2 PUSH2 0xEC9 PUSH2 0xFBA JUMP JUMPDEST PUSH2 0x1137 JUMP JUMPDEST POP JUMP JUMPDEST PUSH0 PUSH2 0xEDC DUP4 DUP4 PUSH2 0xC13 JUMP JUMPDEST PUSH2 0xFB0 JUMPI PUSH1 0x1 PUSH0 PUSH0 DUP6 DUP2 MSTORE PUSH1 0x20 ADD SWAP1 DUP2 MSTORE PUSH1 0x20 ADD PUSH0 KECCAK256 PUSH0 ADD PUSH0 DUP5 PUSH20 0xFFFFFFFFFFFFFFFFFFFFFFFFFFFFFFFFFFFFFFFF AND PUSH20 0xFFFFFFFFFFFFFFFFFFFFFFFFFFFFFFFFFFFFFFFF AND DUP2 MSTORE PUSH1 0x20 ADD SWAP1 DUP2 MSTORE PUSH1 0x20 ADD PUSH0 KECCAK256 PUSH0 PUSH2 0x100 EXP DUP2 SLOAD DUP2 PUSH1 0xFF MUL NOT AND SWAP1 DUP4 ISZERO ISZERO MUL OR SWAP1 SSTORE POP PUSH2 0xF4D PUSH2 0xFBA JUMP JUMPDEST PUSH20 0xFFFFFFFFFFFFFFFFFFFFFFFFFFFFFFFFFFFFFFFF AND DUP3 PUSH20 0xFFFFFFFFFFFFFFFFFFFFFFFFFFFFFFFFFFFFFFFF AND DUP5 PUSH32 0x2F8788117E7EFF1D82E926EC794901D17C78024A50270940304540A733656F0D PUSH1 0x40 MLOAD PUSH1 0x40 MLOAD DUP1 SWAP2 SUB SWAP1 LOG4 PUSH1 0x1 SWAP1 POP PUSH2 0xFB4 JUMP JUMPDEST PUSH0 SWAP1 POP JUMPDEST SWAP3 SWAP2 POP POP JUMP JUMPDEST PUSH0 CALLER SWAP1 POP SWAP1 JUMP JUMPDEST PUSH0 PUSH2 0xFCC DUP4 DUP4 PUSH2 0xC13 JUMP JUMPDEST ISZERO PUSH2 0x10A0 JUMPI PUSH0 PUSH0 PUSH0 DUP6 DUP2 MSTORE PUSH1 0x20 ADD SWAP1 DUP2 MSTORE PUSH1 0x20 ADD PUSH0 KECCAK256 PUSH0 ADD PUSH0 DUP5 PUSH20 0xFFFFFFFFFFFFFFFFFFFFFFFFFFFFFFFFFFFFFFFF AND PUSH20 0xFFFFFFFFFFFFFFFFFFFFFFFFFFFFFFFFFFFFFFFF AND DUP2 MSTORE PUSH1 0x20 ADD SWAP1 DUP2 MSTORE PUSH1 0x20 ADD PUSH0 KECCAK256 PUSH0 PUSH2 0x100 EXP DUP2 SLOAD DUP2 PUSH1 0xFF MUL NOT AND SWAP1 DUP4 ISZERO ISZERO MUL OR SWAP1 SSTORE POP PUSH2 0x103D PUSH2 0xFBA JUMP JUMPDEST PUSH20 0xFFFFFFFFFFFFFFFFFFFFFFFFFFFFFFFFFFFFFFFF AND DUP3 PUSH20 0xFFFFFFFFFFFFFFFFFFFFFFFFFFFFFFFFFFFFFFFF AND DUP5 PUSH32 0xF6391F5C32D9C69D2A47EA670B442974B53935D1EDC7FD64EB21E047A839171B PUSH1 0x40 MLOAD PUSH1 0x40 MLOAD DUP1 SWAP2 SUB SWAP1 LOG4 PUSH1 0x1 SWAP1 POP PUSH2 0x10A4 JUMP JUMPDEST PUSH0 SWAP1 POP JUMPDEST SWAP3 SWAP2 POP POP JUMP JUMPDEST PUSH0 PUSH0 PUSH1 0x3 DUP4 SUB PUSH2 0x10C4 JUMPI PUSH3 0x76A700 SWAP2 POP PUSH1 0x2 SLOAD SWAP1 POP PUSH2 0x1132 JUMP JUMPDEST PUSH1 0x6 DUP4 SUB PUSH2 0x10DC JUMPI PUSH3 0xED4E00 SWAP2 POP PUSH1 0x3 SLOAD SWAP1 POP PUSH2 0x1131 JUMP JUMPDEST PUSH1 0xC DUP4 SUB PUSH2 0x10F5 JUMPI PUSH4 0x1E13380 SWAP2 POP PUSH1 0x4 SLOAD SWAP1 POP PUSH2 0x1130 JUMP JUMPDEST PUSH1 0x40 MLOAD PUSH32 0x8C379A000000000000000000000000000000000000000000000000000000000 DUP2 MSTORE PUSH1 0x4 ADD PUSH2 0x1127 SWAP1 PUSH2 0x1BFD JUMP JUMPDEST PUSH1 0x40 MLOAD DUP1 SWAP2 SUB SWAP1 REVERT JUMPDEST JUMPDEST JUMPDEST SWAP2 POP SWAP2 JUMP JUMPDEST PUSH2 0x1141 DUP3 DUP3 PUSH2 0xC13 JUMP JUMPDEST PUSH2 0x1184 JUMPI DUP1 DUP3 PUSH1 0x40 MLOAD PUSH32 0xE2517D3F00000000000000000000000000000000000000000000000000000000 DUP2 MSTORE PUSH1 0x4 ADD PUSH2 0x117B SWAP3 SWAP2 SWAP1 PUSH2 0x1C1B JUMP JUMPDEST PUSH1 0x40 MLOAD DUP1 SWAP2 SUB SWAP1 REVERT JUMPDEST POP POP JUMP JUMPDEST PUSH0 PUSH0 REVERT JUMPDEST PUSH0 PUSH32 0xFFFFFFFF00000000000000000000000000000000000000000000000000000000 DUP3 AND SWAP1 POP SWAP2 SWAP1 POP JUMP JUMPDEST PUSH2 0x11C0 DUP2 PUSH2 0x118C JUMP JUMPDEST DUP2 EQ PUSH2 0x11CA JUMPI PUSH0 PUSH0 REVERT JUMPDEST POP JUMP JUMPDEST PUSH0 DUP2 CALLDATALOAD SWAP1 POP PUSH2 0x11DB DUP2 PUSH2 0x11B7 JUMP JUMPDEST SWAP3 SWAP2 POP POP JUMP JUMPDEST PUSH0 PUSH1 0x20 DUP3 DUP5 SUB SLT ISZERO PUSH2 0x11F6 JUMPI PUSH2 0x11F5 PUSH2 0x1188 JUMP JUMPDEST JUMPDEST PUSH0 PUSH2 0x1203 DUP5 DUP3 DUP6 ADD PUSH2 0x11CD JUMP JUMPDEST SWAP2 POP POP SWAP3 SWAP2 POP POP JUMP JUMPDEST PUSH0 DUP2 ISZERO ISZERO SWAP1 POP SWAP2 SWAP1 POP JUMP JUMPDEST PUSH2 0x1220 DUP2 PUSH2 0x120C JUMP JUMPDEST DUP3 MSTORE POP POP JUMP JUMPDEST PUSH0 PUSH1 0x20 DUP3 ADD SWAP1 POP PUSH2 0x1239 PUSH0 DUP4 ADD DUP5 PUSH2 0x1217 JUMP JUMPDEST SWAP3 SWAP2 POP POP JUMP JUMPDEST PUSH0 PUSH20 0xFFFFFFFFFFFFFFFFFFFFFFFFFFFFFFFFFFFFFFFF DUP3 AND SWAP1 POP SWAP2 SWAP1 POP JUMP JUMPDEST PUSH0 DUP2 SWAP1 POP SWAP2 SWAP1 POP JUMP JUMPDEST PUSH0 PUSH2 0x1281 PUSH2 0x127C PUSH2 0x1277 DUP5 PUSH2 0x123F JUMP JUMPDEST PUSH2 0x125E JUMP JUMPDEST PUSH2 0x123F JUMP JUMPDEST SWAP1 POP SWAP2 SWAP1 POP JUMP JUMPDEST PUSH0 PUSH2 0x1292 DUP3 PUSH2 0x1267 JUMP JUMPDEST SWAP1 POP SWAP2 SWAP1 POP JUMP JUMPDEST PUSH0 PUSH2 0x12A3 DUP3 PUSH2 0x1288 JUMP JUMPDEST SWAP1 POP SWAP2 SWAP1 POP JUMP JUMPDEST PUSH2 0x12B3 DUP2 PUSH2 0x1299 JUMP JUMPDEST DUP3 MSTORE POP POP JUMP JUMPDEST PUSH0 PUSH1 0x20 DUP3 ADD SWAP1 POP PUSH2 0x12CC PUSH0 DUP4 ADD DUP5 PUSH2 0x12AA JUMP JUMPDEST SWAP3 SWAP2 POP POP JUMP JUMPDEST PUSH0 DUP2 SWAP1 POP SWAP2 SWAP1 POP JUMP JUMPDEST PUSH2 0x12E4 DUP2 PUSH2 0x12D2 JUMP JUMPDEST DUP3 MSTORE POP POP JUMP JUMPDEST PUSH0 PUSH1 0x20 DUP3 ADD SWAP1 POP PUSH2 0x12FD PUSH0 DUP4 ADD DUP5 PUSH2 0x12DB JUMP JUMPDEST SWAP3 SWAP2 POP POP JUMP JUMPDEST PUSH0 DUP2 SWAP1 POP SWAP2 SWAP1 POP JUMP JUMPDEST PUSH2 0x1315 DUP2 PUSH2 0x1303 JUMP JUMPDEST DUP2 EQ PUSH2 0x131F JUMPI PUSH0 PUSH0 REVERT JUMPDEST POP JUMP JUMPDEST PUSH0 DUP2 CALLDATALOAD SWAP1 POP PUSH2 0x1330 DUP2 PUSH2 0x130C JUMP JUMPDEST SWAP3 SWAP2 POP POP JUMP JUMPDEST PUSH0 PUSH1 0x20 DUP3 DUP5 SUB SLT ISZERO PUSH2 0x134B JUMPI PUSH2 0x134A PUSH2 0x1188 JUMP JUMPDEST JUMPDEST PUSH0 PUSH2 0x1358 DUP5 DUP3 DUP6 ADD PUSH2 0x1322 JUMP JUMPDEST SWAP2 POP POP SWAP3 SWAP2 POP POP JUMP JUMPDEST PUSH2 0x136A DUP2 PUSH2 0x1303 JUMP JUMPDEST DUP3 MSTORE POP POP JUMP JUMPDEST PUSH0 PUSH1 0x20 DUP3 ADD SWAP1 POP PUSH2 0x1383 PUSH0 DUP4 ADD DUP5 PUSH2 0x1361 JUMP JUMPDEST SWAP3 SWAP2 POP POP JUMP JUMPDEST PUSH2 0x1392 DUP2 PUSH2 0x12D2 JUMP JUMPDEST DUP2 EQ PUSH2 0x139C JUMPI PUSH0 PUSH0 REVERT JUMPDEST POP JUMP JUMPDEST PUSH0 DUP2 CALLDATALOAD SWAP1 POP PUSH2 0x13AD DUP2 PUSH2 0x1389 JUMP JUMPDEST SWAP3 SWAP2 POP POP JUMP JUMPDEST PUSH0 PUSH1 0x20 DUP3 DUP5 SUB SLT ISZERO PUSH2 0x13C8 JUMPI PUSH2 0x13C7 PUSH2 0x1188 JUMP JUMPDEST JUMPDEST PUSH0 PUSH2 0x13D5 DUP5 DUP3 DUP6 ADD PUSH2 0x139F JUMP JUMPDEST SWAP2 POP POP SWAP3 SWAP2 POP POP JUMP JUMPDEST PUSH0 PUSH2 0x13E8 DUP3 PUSH2 0x123F JUMP JUMPDEST SWAP1 POP SWAP2 SWAP1 POP JUMP JUMPDEST PUSH2 0x13F8 DUP2 PUSH2 0x13DE JUMP JUMPDEST DUP2 EQ PUSH2 0x1402 JUMPI PUSH0 PUSH0 REVERT JUMPDEST POP JUMP JUMPDEST PUSH0 DUP2 CALLDATALOAD SWAP1 POP PUSH2 0x1413 DUP2 PUSH2 0x13EF JUMP JUMPDEST SWAP3 SWAP2 POP POP JUMP JUMPDEST PUSH0 PUSH0 PUSH1 0x40 DUP4 DUP6 SUB SLT ISZERO PUSH2 0x142F JUMPI PUSH2 0x142E PUSH2 0x1188 JUMP JUMPDEST JUMPDEST PUSH0 PUSH2 0x143C DUP6 DUP3 DUP7 ADD PUSH2 0x1322 JUMP JUMPDEST SWAP3 POP POP PUSH1 0x20 PUSH2 0x144D DUP6 DUP3 DUP7 ADD PUSH2 0x1405 JUMP JUMPDEST SWAP2 POP POP SWAP3 POP SWAP3 SWAP1 POP JUMP JUMPDEST PUSH0 PUSH0 PUSH1 0x40 DUP4 DUP6 SUB SLT ISZERO PUSH2 0x146D JUMPI PUSH2 0x146C PUSH2 0x1188 JUMP JUMPDEST JUMPDEST PUSH0 PUSH2 0x147A DUP6 DUP3 DUP7 ADD PUSH2 0x1405 JUMP JUMPDEST SWAP3 POP POP PUSH1 0x20 PUSH2 0x148B DUP6 DUP3 DUP7 ADD PUSH2 0x139F JUMP JUMPDEST SWAP2 POP POP SWAP3 POP SWAP3 SWAP1 POP JUMP JUMPDEST PUSH0 PUSH1 0xA0 DUP3 ADD SWAP1 POP PUSH2 0x14A8 PUSH0 DUP4 ADD DUP9 PUSH2 0x12DB JUMP JUMPDEST PUSH2 0x14B5 PUSH1 0x20 DUP4 ADD DUP8 PUSH2 0x12DB JUMP JUMPDEST PUSH2 0x14C2 PUSH1 0x40 DUP4 ADD DUP7 PUSH2 0x12DB JUMP JUMPDEST PUSH2 0x14CF PUSH1 0x60 DUP4 ADD DUP6 PUSH2 0x12DB JUMP JUMPDEST PUSH2 0x14DC PUSH1 0x80 DUP4 ADD DUP5 PUSH2 0x1217 JUMP JUMPDEST SWAP7 SWAP6 POP POP POP POP POP POP JUMP JUMPDEST PUSH0 PUSH0 PUSH0 PUSH1 0x60 DUP5 DUP7 SUB SLT ISZERO PUSH2 0x14FD JUMPI PUSH2 0x14FC PUSH2 0x1188 JUMP JUMPDEST JUMPDEST PUSH0 PUSH2 0x150A DUP7 DUP3 DUP8 ADD PUSH2 0x139F JUMP JUMPDEST SWAP4 POP POP PUSH1 0x20 PUSH2 0x151B DUP7 DUP3 DUP8 ADD PUSH2 0x139F JUMP JUMPDEST SWAP3 POP POP PUSH1 0x40 PUSH2 0x152C DUP7 DUP3 DUP8 ADD PUSH2 0x139F JUMP JUMPDEST SWAP2 POP POP SWAP3 POP SWAP3 POP SWAP3 JUMP JUMPDEST PUSH0 PUSH0 PUSH1 0x40 DUP4 DUP6 SUB SLT ISZERO PUSH2 0x154C JUMPI PUSH2 0x154B PUSH2 0x1188 JUMP JUMPDEST JUMPDEST PUSH0 PUSH2 0x1559 DUP6 DUP3 DUP7 ADD PUSH2 0x139F JUMP JUMPDEST SWAP3 POP POP PUSH1 0x20 PUSH2 0x156A DUP6 DUP3 DUP7 ADD PUSH2 0x139F JUMP JUMPDEST SWAP2 POP POP SWAP3 POP SWAP3 SWAP1 POP JUMP JUMPDEST PUSH0 PUSH0 PUSH0 PUSH1 0x60 DUP5 DUP7 SUB SLT ISZERO PUSH2 0x158B JUMPI PUSH2 0x158A PUSH2 0x1188 JUMP JUMPDEST JUMPDEST PUSH0 PUSH2 0x1598 DUP7 DUP3 DUP8 ADD PUSH2 0x1405 JUMP JUMPDEST SWAP4 POP POP PUSH1 0x20 PUSH2 0x15A9 DUP7 DUP3 DUP8 ADD PUSH2 0x139F JUMP JUMPDEST SWAP3 POP POP PUSH1 0x40 PUSH2 0x15BA DUP7 DUP3 DUP8 ADD PUSH2 0x1405 JUMP JUMPDEST SWAP2 POP POP SWAP3 POP SWAP3 POP SWAP3 JUMP JUMPDEST PUSH0 DUP3 DUP3 MSTORE PUSH1 0x20 DUP3 ADD SWAP1 POP SWAP3 SWAP2 POP POP JUMP JUMPDEST PUSH32 0x496E76616C6964207374616B6520696E64657800000000000000000000000000 PUSH0 DUP3 ADD MSTORE POP JUMP JUMPDEST PUSH0 PUSH2 0x1608 PUSH1 0x13 DUP4 PUSH2 0x15C4 JUMP JUMPDEST SWAP2 POP PUSH2 0x1613 DUP3 PUSH2 0x15D4 JUMP JUMPDEST PUSH1 0x20 DUP3 ADD SWAP1 POP SWAP2 SWAP1 POP JUMP JUMPDEST PUSH0 PUSH1 0x20 DUP3 ADD SWAP1 POP DUP2 DUP2 SUB PUSH0 DUP4 ADD MSTORE PUSH2 0x1635 DUP2 PUSH2 0x15FC JUMP JUMPDEST SWAP1 POP SWAP2 SWAP1 POP JUMP JUMPDEST PUSH32 0x4E487B7100000000000000000000000000000000000000000000000000000000 PUSH0 MSTORE PUSH1 0x32 PUSH1 0x4 MSTORE PUSH1 0x24 PUSH0 REVERT JUMPDEST PUSH32 0x416C72656164792077697468647261776E000000000000000000000000000000 PUSH0 DUP3 ADD MSTORE POP JUMP JUMPDEST PUSH0 PUSH2 0x169D PUSH1 0x11 DUP4 PUSH2 0x15C4 JUMP JUMPDEST SWAP2 POP PUSH2 0x16A8 DUP3 PUSH2 0x1669 JUMP JUMPDEST PUSH1 0x20 DUP3 ADD SWAP1 POP SWAP2 SWAP1 POP JUMP JUMPDEST PUSH0 PUSH1 0x20 DUP3 ADD SWAP1 POP DUP2 DUP2 SUB PUSH0 DUP4 ADD MSTORE PUSH2 0x16CA DUP2 PUSH2 0x1691 JUMP JUMPDEST SWAP1 POP SWAP2 SWAP1 POP JUMP JUMPDEST PUSH32 0x4E487B7100000000000000000000000000000000000000000000000000000000 PUSH0 MSTORE PUSH1 0x11 PUSH1 0x4 MSTORE PUSH1 0x24 PUSH0 REVERT JUMPDEST PUSH0 PUSH2 0x1708 DUP3 PUSH2 0x12D2 JUMP JUMPDEST SWAP2 POP PUSH2 0x1713 DUP4 PUSH2 0x12D2 JUMP JUMPDEST SWAP3 POP DUP3 DUP3 ADD SWAP1 POP DUP1 DUP3 GT ISZERO PUSH2 0x172B JUMPI PUSH2 0x172A PUSH2 0x16D1 JUMP JUMPDEST JUMPDEST SWAP3 SWAP2 POP POP JUMP JUMPDEST PUSH32 0x4C6F636B206E6F74206F76657200000000000000000000000000000000000000 PUSH0 DUP3 ADD MSTORE POP JUMP JUMPDEST PUSH0 PUSH2 0x1765 PUSH1 0xD DUP4 PUSH2 0x15C4 JUMP JUMPDEST SWAP2 POP PUSH2 0x1770 DUP3 PUSH2 0x1731 JUMP JUMPDEST PUSH1 0x20 DUP3 ADD SWAP1 POP SWAP2 SWAP1 POP JUMP JUMPDEST PUSH0 PUSH1 0x20 DUP3 ADD SWAP1 POP DUP2 DUP2 SUB PUSH0 DUP4 ADD MSTORE PUSH2 0x1792 DUP2 PUSH2 0x1759 JUMP JUMPDEST SWAP1 POP SWAP2 SWAP1 POP JUMP JUMPDEST PUSH2 0x17A2 DUP2 PUSH2 0x13DE JUMP JUMPDEST DUP3 MSTORE POP POP JUMP JUMPDEST PUSH0 PUSH1 0x20 DUP3 ADD SWAP1 POP PUSH2 0x17BB PUSH0 DUP4 ADD DUP5 PUSH2 0x1799 JUMP JUMPDEST SWAP3 SWAP2 POP POP JUMP JUMPDEST PUSH0 DUP2 MLOAD SWAP1 POP PUSH2 0x17CF DUP2 PUSH2 0x1389 JUMP JUMPDEST SWAP3 SWAP2 POP POP JUMP JUMPDEST PUSH0 PUSH1 0x20 DUP3 DUP5 SUB SLT ISZERO PUSH2 0x17EA JUMPI PUSH2 0x17E9 PUSH2 0x1188 JUMP JUMPDEST JUMPDEST PUSH0 PUSH2 0x17F7 DUP5 DUP3 DUP6 ADD PUSH2 0x17C1 JUMP JUMPDEST SWAP2 POP POP SWAP3 SWAP2 POP POP JUMP JUMPDEST PUSH32 0x496E73756666696369656E742072657761726420706F6F6C0000000000000000 PUSH0 DUP3 ADD MSTORE POP JUMP JUMPDEST PUSH0 PUSH2 0x1834 PUSH1 0x18 DUP4 PUSH2 0x15C4 JUMP JUMPDEST SWAP2 POP PUSH2 0x183F DUP3 PUSH2 0x1800 JUMP JUMPDEST PUSH1 0x20 DUP3 ADD SWAP1 POP SWAP2 SWAP1 POP JUMP JUMPDEST PUSH0 PUSH1 0x20 DUP3 ADD SWAP1 POP DUP2 DUP2 SUB PUSH0 DUP4 ADD MSTORE PUSH2 0x1861 DUP2 PUSH2 0x1828 JUMP JUMPDEST SWAP1 POP SWAP2 SWAP1 POP JUMP JUMPDEST PUSH0 PUSH1 0x40 DUP3 ADD SWAP1 POP PUSH2 0x187B PUSH0 DUP4 ADD DUP6 PUSH2 0x1799 JUMP JUMPDEST PUSH2 0x1888 PUSH1 0x20 DUP4 ADD DUP5 PUSH2 0x12DB JUMP JUMPDEST SWAP4 SWAP3 POP POP POP JUMP JUMPDEST PUSH2 0x1898 DUP2 PUSH2 0x120C JUMP JUMPDEST DUP2 EQ PUSH2 0x18A2 JUMPI PUSH0 PUSH0 REVERT JUMPDEST POP JUMP JUMPDEST PUSH0 DUP2 MLOAD SWAP1 POP PUSH2 0x18B3 DUP2 PUSH2 0x188F JUMP JUMPDEST SWAP3 SWAP2 POP POP JUMP JUMPDEST PUSH0 PUSH1 0x20 DUP3 DUP5 SUB SLT ISZERO PUSH2 0x18CE JUMPI PUSH2 0x18CD PUSH2 0x1188 JUMP JUMPDEST JUMPDEST PUSH0 PUSH2 0x18DB DUP5 DUP3 DUP6 ADD PUSH2 0x18A5 JUMP JUMPDEST SWAP2 POP POP SWAP3 SWAP2 POP POP JUMP JUMPDEST PUSH0 PUSH1 0x40 DUP3 ADD SWAP1 POP PUSH2 0x18F7 PUSH0 DUP4 ADD DUP6 PUSH2 0x12DB JUMP JUMPDEST PUSH2 0x1904 PUSH1 0x20 DUP4 ADD DUP5 PUSH2 0x12DB JUMP JUMPDEST SWAP4 SWAP3 POP POP POP JUMP JUMPDEST PUSH32 0x43616E6E6F74207374616B65207A65726F000000000000000000000000000000 PUSH0 DUP3 ADD MSTORE POP JUMP JUMPDEST PUSH0 PUSH2 0x193F PUSH1 0x11 DUP4 PUSH2 0x15C4 JUMP JUMPDEST SWAP2 POP PUSH2 0x194A DUP3 PUSH2 0x190B JUMP JUMPDEST PUSH1 0x20 DUP3 ADD SWAP1 POP SWAP2 SWAP1 POP JUMP JUMPDEST PUSH0 PUSH1 0x20 DUP3 ADD SWAP1 POP DUP2 DUP2 SUB PUSH0 DUP4 ADD MSTORE PUSH2 0x196C DUP2 PUSH2 0x1933 JUMP JUMPDEST SWAP1 POP SWAP2 SWAP1 POP JUMP JUMPDEST PUSH0 PUSH1 0x60 DUP3 ADD SWAP1 POP PUSH2 0x1986 PUSH0 DUP4 ADD DUP7 PUSH2 0x1799 JUMP JUMPDEST PUSH2 0x1993 PUSH1 0x20 DUP4 ADD DUP6 PUSH2 0x1799 JUMP JUMPDEST PUSH2 0x19A0 PUSH1 0x40 DUP4 ADD DUP5 PUSH2 0x12DB JUMP JUMPDEST SWAP5 SWAP4 POP POP POP POP JUMP JUMPDEST PUSH32 0x5472616E73666572206661696C65640000000000000000000000000000000000 PUSH0 DUP3 ADD MSTORE POP JUMP JUMPDEST PUSH0 PUSH2 0x19DC PUSH1 0xF DUP4 PUSH2 0x15C4 JUMP JUMPDEST SWAP2 POP PUSH2 0x19E7 DUP3 PUSH2 0x19A8 JUMP JUMPDEST PUSH1 0x20 DUP3 ADD SWAP1 POP SWAP2 SWAP1 POP JUMP JUMPDEST PUSH0 PUSH1 0x20 DUP3 ADD SWAP1 POP DUP2 DUP2 SUB PUSH0 DUP4 ADD MSTORE PUSH2 0x1A09 DUP2 PUSH2 0x19D0 JUMP JUMPDEST SWAP1 POP SWAP2 SWAP1 POP JUMP JUMPDEST PUSH0 PUSH1 0x60 DUP3 ADD SWAP1 POP PUSH2 0x1A23 PUSH0 DUP4 ADD DUP7 PUSH2 0x12DB JUMP JUMPDEST PUSH2 0x1A30 PUSH1 0x20 DUP4 ADD DUP6 PUSH2 0x12DB JUMP JUMPDEST PUSH2 0x1A3D PUSH1 0x40 DUP4 ADD DUP5 PUSH2 0x12DB JUMP JUMPDEST SWAP5 SWAP4 POP POP POP POP JUMP JUMPDEST PUSH32 0x496E76616C69642027746F270000000000000000000000000000000000000000 PUSH0 DUP3 ADD MSTORE POP JUMP JUMPDEST PUSH0 PUSH2 0x1A79 PUSH1 0xC DUP4 PUSH2 0x15C4 JUMP JUMPDEST SWAP2 POP PUSH2 0x1A84 DUP3 PUSH2 0x1A45 JUMP JUMPDEST PUSH1 0x20 DUP3 ADD SWAP1 POP SWAP2 SWAP1 POP JUMP JUMPDEST PUSH0 PUSH1 0x20 DUP3 ADD SWAP1 POP DUP2 DUP2 SUB PUSH0 DUP4 ADD MSTORE PUSH2 0x1AA6 DUP2 PUSH2 0x1A6D JUMP JUMPDEST SWAP1 POP SWAP2 SWAP1 POP JUMP JUMPDEST PUSH32 0x5265656E7472616E637947756172643A207265656E7472616E742063616C6C00 PUSH0 DUP3 ADD MSTORE POP JUMP JUMPDEST PUSH0 PUSH2 0x1AE1 PUSH1 0x1F DUP4 PUSH2 0x15C4 JUMP JUMPDEST SWAP2 POP PUSH2 0x1AEC DUP3 PUSH2 0x1AAD JUMP JUMPDEST PUSH1 0x20 DUP3 ADD SWAP1 POP SWAP2 SWAP1 POP JUMP JUMPDEST PUSH0 PUSH1 0x20 DUP3 ADD SWAP1 POP DUP2 DUP2 SUB PUSH0 DUP4 ADD MSTORE PUSH2 0x1B0E DUP2 PUSH2 0x1AD5 JUMP JUMPDEST SWAP1 POP SWAP2 SWAP1 POP JUMP JUMPDEST PUSH0 PUSH2 0x1B1F DUP3 PUSH2 0x12D2 JUMP JUMPDEST SWAP2 POP PUSH2 0x1B2A DUP4 PUSH2 0x12D2 JUMP JUMPDEST SWAP3 POP DUP3 DUP3 MUL PUSH2 0x1B38 DUP2 PUSH2 0x12D2 JUMP JUMPDEST SWAP2 POP DUP3 DUP3 DIV DUP5 EQ DUP4 ISZERO OR PUSH2 0x1B4F JUMPI PUSH2 0x1B4E PUSH2 0x16D1 JUMP JUMPDEST JUMPDEST POP SWAP3 SWAP2 POP POP JUMP JUMPDEST PUSH32 0x4E487B7100000000000000000000000000000000000000000000000000000000 PUSH0 MSTORE PUSH1 0x12 PUSH1 0x4 MSTORE PUSH1 0x24 PUSH0 REVERT JUMPDEST PUSH0 PUSH2 0x1B8D DUP3 PUSH2 0x12D2 JUMP JUMPDEST SWAP2 POP PUSH2 0x1B98 DUP4 PUSH2 0x12D2 JUMP JUMPDEST SWAP3 POP DUP3 PUSH2 0x1BA8 JUMPI PUSH2 0x1BA7 PUSH2 0x1B56 JUMP JUMPDEST JUMPDEST DUP3 DUP3 DIV SWAP1 POP SWAP3 SWAP2 POP POP JUMP JUMPDEST PUSH32 0x496E76616C6964206C6F636B2063686F69636500000000000000000000000000 PUSH0 DUP3 ADD MSTORE POP JUMP JUMPDEST PUSH0 PUSH2 0x1BE7 PUSH1 0x13 DUP4 PUSH2 0x15C4 JUMP JUMPDEST SWAP2 POP PUSH2 0x1BF2 DUP3 PUSH2 0x1BB3 JUMP JUMPDEST PUSH1 0x20 DUP3 ADD SWAP1 POP SWAP2 SWAP1 POP JUMP JUMPDEST PUSH0 PUSH1 0x20 DUP3 ADD SWAP1 POP DUP2 DUP2 SUB PUSH0 DUP4 ADD MSTORE PUSH2 0x1C14 DUP2 PUSH2 0x1BDB JUMP JUMPDEST SWAP1 POP SWAP2 SWAP1 POP JUMP JUMPDEST PUSH0 PUSH1 0x40 DUP3 ADD SWAP1 POP PUSH2 0x1C2E PUSH0 DUP4 ADD DUP6 PUSH2 0x1799 JUMP JUMPDEST PUSH2 0x1C3B PUSH1 0x20 DUP4 ADD DUP5 PUSH2 0x1361 JUMP JUMPDEST SWAP4 SWAP3 POP POP POP JUMP INVALID LOG2 PUSH5 0x6970667358 0x22 SLT KECCAK256 0xB0 SWAP5 0xFB GASLIMIT 0xAF DUP13 PUSH28 0xD2E1DB42C1474976E040087BE9838D71DC149068AE45CA917B64736F PUSH13 0x634300081C0033000000000000 "
				},
				"gasEstimates": {
					"creation": {
						"codeDepositCost": "1457600",
						"executionCost": "infinite",
						"totalCost": "infinite"
					},
					"external": {
						"ADMIN_ROLE()": "348",
						"DEFAULT_ADMIN_ROLE()": "440",
						"LOCK_12_MONTHS()": "370",
						"LOCK_3_MONTHS()": "393",
						"LOCK_6_MONTHS()": "369",
						"apy12Months()": "2535",
						"apy3Months()": "2513",
						"apy6Months()": "2536",
						"getRoleAdmin(bytes32)": "infinite",
						"grantRole(bytes32,address)": "infinite",
						"hasRole(bytes32,address)": "3209",
						"renounceRole(bytes32,address)": "infinite",
						"rescueTokens(address,uint256,address)": "infinite",
						"revokeRole(bytes32,address)": "infinite",
						"setAPYs(uint256,uint256,uint256)": "infinite",
						"stake(uint256,uint256)": "infinite",
						"stakes(address,uint256)": "infinite",
						"supportsInterface(bytes4)": "741",
						"wallyToken()": "infinite",
						"withdraw(uint256)": "infinite"
					},
					"internal": {
						"_calculateReward(uint256,uint256,uint256)": "infinite",
						"_getLockInfo(uint256)": "infinite"
					}
				},
				"methodIdentifiers": {
					"ADMIN_ROLE()": "75b238fc",
					"DEFAULT_ADMIN_ROLE()": "a217fddf",
					"LOCK_12_MONTHS()": "33803860",
					"LOCK_3_MONTHS()": "11149445",
					"LOCK_6_MONTHS()": "c0a9c35d",
					"apy12Months()": "fbcacca7",
					"apy3Months()": "f09823c3",
					"apy6Months()": "5bf42fb4",
					"getRoleAdmin(bytes32)": "248a9ca3",
					"grantRole(bytes32,address)": "2f2ff15d",
					"hasRole(bytes32,address)": "91d14854",
					"renounceRole(bytes32,address)": "36568abe",
					"rescueTokens(address,uint256,address)": "b37fd190",
					"revokeRole(bytes32,address)": "d547741f",
					"setAPYs(uint256,uint256,uint256)": "765ef4cc",
					"stake(uint256,uint256)": "7b0472f0",
					"stakes(address,uint256)": "584b62a1",
					"supportsInterface(bytes4)": "01ffc9a7",
					"wallyToken()": "0e033dc5",
					"withdraw(uint256)": "2e1a7d4d"
				}
			},
			"storageLayout": {
				"storage": [
					{
						"astId": 26,
						"contract": "contracts/WallyStaking.sol:WallyStaking",
						"label": "_roles",
						"offset": 0,
						"slot": "0",
						"type": "t_mapping(t_bytes32,t_struct(RoleData)21_storage)"
					},
					{
						"astId": 389,
						"contract": "contracts/WallyStaking.sol:WallyStaking",
						"label": "_status",
						"offset": 0,
						"slot": "1",
						"type": "t_uint256"
					},
					{
						"astId": 617,
						"contract": "contracts/WallyStaking.sol:WallyStaking",
						"label": "apy3Months",
						"offset": 0,
						"slot": "2",
						"type": "t_uint256"
					},
					{
						"astId": 620,
						"contract": "contracts/WallyStaking.sol:WallyStaking",
						"label": "apy6Months",
						"offset": 0,
						"slot": "3",
						"type": "t_uint256"
					},
					{
						"astId": 623,
						"contract": "contracts/WallyStaking.sol:WallyStaking",
						"label": "apy12Months",
						"offset": 0,
						"slot": "4",
						"type": "t_uint256"
					},
					{
						"astId": 640,
						"contract": "contracts/WallyStaking.sol:WallyStaking",
						"label": "stakes",
						"offset": 0,
						"slot": "5",
						"type": "t_mapping(t_address,t_array(t_struct(StakeInfo)634_storage)dyn_storage)"
					}
				],
				"types": {
					"t_address": {
						"encoding": "inplace",
						"label": "address",
						"numberOfBytes": "20"
					},
					"t_array(t_struct(StakeInfo)634_storage)dyn_storage": {
						"base": "t_struct(StakeInfo)634_storage",
						"encoding": "dynamic_array",
						"label": "struct WallyStaking.StakeInfo[]",
						"numberOfBytes": "32"
					},
					"t_bool": {
						"encoding": "inplace",
						"label": "bool",
						"numberOfBytes": "1"
					},
					"t_bytes32": {
						"encoding": "inplace",
						"label": "bytes32",
						"numberOfBytes": "32"
					},
					"t_mapping(t_address,t_array(t_struct(StakeInfo)634_storage)dyn_storage)": {
						"encoding": "mapping",
						"key": "t_address",
						"label": "mapping(address => struct WallyStaking.StakeInfo[])",
						"numberOfBytes": "32",
						"value": "t_array(t_struct(StakeInfo)634_storage)dyn_storage"
					},
					"t_mapping(t_address,t_bool)": {
						"encoding": "mapping",
						"key": "t_address",
						"label": "mapping(address => bool)",
						"numberOfBytes": "32",
						"value": "t_bool"
					},
					"t_mapping(t_bytes32,t_struct(RoleData)21_storage)": {
						"encoding": "mapping",
						"key": "t_bytes32",
						"label": "mapping(bytes32 => struct AccessControl.RoleData)",
						"numberOfBytes": "32",
						"value": "t_struct(RoleData)21_storage"
					},
					"t_struct(RoleData)21_storage": {
						"encoding": "inplace",
						"label": "struct AccessControl.RoleData",
						"members": [
							{
								"astId": 18,
								"contract": "contracts/WallyStaking.sol:WallyStaking",
								"label": "hasRole",
								"offset": 0,
								"slot": "0",
								"type": "t_mapping(t_address,t_bool)"
							},
							{
								"astId": 20,
								"contract": "contracts/WallyStaking.sol:WallyStaking",
								"label": "adminRole",
								"offset": 0,
								"slot": "1",
								"type": "t_bytes32"
							}
						],
						"numberOfBytes": "64"
					},
					"t_struct(StakeInfo)634_storage": {
						"encoding": "inplace",
						"label": "struct WallyStaking.StakeInfo",
						"members": [
							{
								"astId": 625,
								"contract": "contracts/WallyStaking.sol:WallyStaking",
								"label": "amount",
								"offset": 0,
								"slot": "0",
								"type": "t_uint256"
							},
							{
								"astId": 627,
								"contract": "contracts/WallyStaking.sol:WallyStaking",
								"label": "startTimestamp",
								"offset": 0,
								"slot": "1",
								"type": "t_uint256"
							},
							{
								"astId": 629,
								"contract": "contracts/WallyStaking.sol:WallyStaking",
								"label": "lockDuration",
								"offset": 0,
								"slot": "2",
								"type": "t_uint256"
							},
							{
								"astId": 631,
								"contract": "contracts/WallyStaking.sol:WallyStaking",
								"label": "apy",
								"offset": 0,
								"slot": "3",
								"type": "t_uint256"
							},
							{
								"astId": 633,
								"contract": "contracts/WallyStaking.sol:WallyStaking",
								"label": "withdrawn",
								"offset": 0,
								"slot": "4",
								"type": "t_bool"
							}
						],
						"numberOfBytes": "160"
					},
					"t_uint256": {
						"encoding": "inplace",
						"label": "uint256",
						"numberOfBytes": "32"
					}
				}
			},
			"userdoc": {
				"kind": "user",
				"methods": {},
				"version": 1
			}
		}
	}
}