{
	"contracts/WallyVesting.sol": {
		"WallyVesting": {
			"abi": [
				{
					"inputs": [
						{
							"internalType": "address",
							"name": "_token",
							"type": "address"
						},
						{
							"internalType": "address",
							"name": "_beneficiary",
							"type": "address"
						},
						{
							"internalType": "uint256",
							"name": "_start",
							"type": "uint256"
						},
						{
							"internalType": "uint256",
							"name": "_cliffDuration",
							"type": "uint256"
						},
						{
							"internalType": "uint256",
							"name": "_duration",
							"type": "uint256"
						},
						{
							"internalType": "address",
							"name": "_admin",
							"type": "address"
						}
					],
					"stateMutability": "payable",
					"type": "constructor"
				},
				{
					"inputs": [],
					"name": "AccessControlBadConfirmation",
					"type": "error"
				},
				{
					"inputs": [
						{
							"internalType": "address",
							"name": "account",
							"type": "address"
						},
						{
							"internalType": "bytes32",
							"name": "neededRole",
							"type": "bytes32"
						}
					],
					"name": "AccessControlUnauthorizedAccount",
					"type": "error"
				},
				{
					"inputs": [],
					"name": "CliffGreaterThanDuration",
					"type": "error"
				},
				{
					"inputs": [],
					"name": "InvalidAddress",
					"type": "error"
				},
				{
					"inputs": [],
					"name": "NotAuthorized",
					"type": "error"
				},
				{
					"inputs": [],
					"name": "NothingToRelease",
					"type": "error"
				},
				{
					"inputs": [],
					"name": "VestingRevokedAlready",
					"type": "error"
				},
				{
					"anonymous": false,
					"inputs": [
						{
							"indexed": true,
							"internalType": "bytes32",
							"name": "role",
							"type": "bytes32"
						},
						{
							"indexed": true,
							"internalType": "bytes32",
							"name": "previousAdminRole",
							"type": "bytes32"
						},
						{
							"indexed": true,
							"internalType": "bytes32",
							"name": "newAdminRole",
							"type": "bytes32"
						}
					],
					"name": "RoleAdminChanged",
					"type": "event"
				},
				{
					"anonymous": false,
					"inputs": [
						{
							"indexed": true,
							"internalType": "bytes32",
							"name": "role",
							"type": "bytes32"
						},
						{
							"indexed": true,
							"internalType": "address",
							"name": "account",
							"type": "address"
						},
						{
							"indexed": true,
							"internalType": "address",
							"name": "sender",
							"type": "address"
						}
					],
					"name": "RoleGranted",
					"type": "event"
				},
				{
					"anonymous": false,
					"inputs": [
						{
							"indexed": true,
							"internalType": "bytes32",
							"name": "role",
							"type": "bytes32"
						},
						{
							"indexed": true,
							"internalType": "address",
							"name": "account",
							"type": "address"
						},
						{
							"indexed": true,
							"internalType": "address",
							"name": "sender",
							"type": "address"
						}
					],
					"name": "RoleRevoked",
					"type": "event"
				},
				{
					"anonymous": false,
					"inputs": [
						{
							"indexed": false,
							"internalType": "uint256",
							"name": "amount",
							"type": "uint256"
						}
					],
					"name": "TokensReleased",
					"type": "event"
				},
				{
					"anonymous": false,
					"inputs": [],
					"name": "VestingRevoked",
					"type": "event"
				},
				{
					"inputs": [],
					"name": "DEFAULT_ADMIN_ROLE",
					"outputs": [
						{
							"internalType": "bytes32",
							"name": "",
							"type": "bytes32"
						}
					],
					"stateMutability": "view",
					"type": "function"
				},
				{
					"inputs": [],
					"name": "getBeneficiary",
					"outputs": [
						{
							"internalType": "address",
							"name": "",
							"type": "address"
						}
					],
					"stateMutability": "view",
					"type": "function"
				},
				{
					"inputs": [
						{
							"internalType": "bytes32",
							"name": "role",
							"type": "bytes32"
						}
					],
					"name": "getRoleAdmin",
					"outputs": [
						{
							"internalType": "bytes32",
							"name": "",
							"type": "bytes32"
						}
					],
					"stateMutability": "view",
					"type": "function"
				},
				{
					"inputs": [
						{
							"internalType": "bytes32",
							"name": "role",
							"type": "bytes32"
						},
						{
							"internalType": "address",
							"name": "account",
							"type": "address"
						}
					],
					"name": "grantRole",
					"outputs": [],
					"stateMutability": "nonpayable",
					"type": "function"
				},
				{
					"inputs": [
						{
							"internalType": "bytes32",
							"name": "role",
							"type": "bytes32"
						},
						{
							"internalType": "address",
							"name": "account",
							"type": "address"
						}
					],
					"name": "hasRole",
					"outputs": [
						{
							"internalType": "bool",
							"name": "",
							"type": "bool"
						}
					],
					"stateMutability": "view",
					"type": "function"
				},
				{
					"inputs": [],
					"name": "isRevoked",
					"outputs": [
						{
							"internalType": "bool",
							"name": "",
							"type": "bool"
						}
					],
					"stateMutability": "view",
					"type": "function"
				},
				{
					"inputs": [],
					"name": "releasableAmount",
					"outputs": [
						{
							"internalType": "uint256",
							"name": "",
							"type": "uint256"
						}
					],
					"stateMutability": "view",
					"type": "function"
				},
				{
					"inputs": [],
					"name": "release",
					"outputs": [],
					"stateMutability": "nonpayable",
					"type": "function"
				},
				{
					"inputs": [
						{
							"internalType": "bytes32",
							"name": "role",
							"type": "bytes32"
						},
						{
							"internalType": "address",
							"name": "callerConfirmation",
							"type": "address"
						}
					],
					"name": "renounceRole",
					"outputs": [],
					"stateMutability": "nonpayable",
					"type": "function"
				},
				{
					"inputs": [],
					"name": "revoke",
					"outputs": [],
					"stateMutability": "nonpayable",
					"type": "function"
				},
				{
					"inputs": [
						{
							"internalType": "bytes32",
							"name": "role",
							"type": "bytes32"
						},
						{
							"internalType": "address",
							"name": "account",
							"type": "address"
						}
					],
					"name": "revokeRole",
					"outputs": [],
					"stateMutability": "nonpayable",
					"type": "function"
				},
				{
					"inputs": [
						{
							"internalType": "bytes4",
							"name": "interfaceId",
							"type": "bytes4"
						}
					],
					"name": "supportsInterface",
					"outputs": [
						{
							"internalType": "bool",
							"name": "",
							"type": "bool"
						}
					],
					"stateMutability": "view",
					"type": "function"
				},
				{
					"inputs": [],
					"name": "totalReleased",
					"outputs": [
						{
							"internalType": "uint256",
							"name": "",
							"type": "uint256"
						}
					],
					"stateMutability": "view",
					"type": "function"
				},
				{
					"inputs": [],
					"name": "vestedAmount",
					"outputs": [
						{
							"internalType": "uint256",
							"name": "",
							"type": "uint256"
						}
					],
					"stateMutability": "view",
					"type": "function"
				}
			],
			"evm": {
				"assembly": "    /* \"contracts/WallyVesting.sol\":507:3776  contract WallyVesting is AccessControl {... */\n  0x0120\n  0x1f\n  bytecodeSize\n  codesize\n  dup2\n  swap1\n  sub\n  swap2\n  dup3\n  add\n  not(0x1f)\n  and\n  dup4\n  add\n  swap2\n  sub(shl(0x40, 0x01), 0x01)\n  dup4\n  gt\n  dup5\n  dup5\n  lt\n  or\n  tag_3\n  jumpi\n  dup1\n  dup5\n  swap3\n  0xc0\n  swap5\n  0x40\n  mstore\n  dup4\n  codecopy\n  dup2\n  add\n  sub\n  slt\n  tag_5\n  jumpi\n  tag_7\n  dup2\n  tag_1\n  jump\t// in\ntag_7:\n  tag_8\n  0x20\n  dup4\n  add\n  tag_1\n  jump\t// in\ntag_8:\n  swap1\n  0x40\n  dup4\n  add\n  mload\n  swap2\n  0x60\n  dup5\n  add\n  mload\n  swap2\n  tag_9\n  0xa0\n  0x80\n  dup8\n  add\n  mload\n  swap7\n  add\n  tag_1\n  jump\t// in\ntag_9:\n  sub(shl(0xa0, 0x01), 0x01)\n  swap1\n  swap2\n  and\n  swap1\n    /* \"contracts/WallyVesting.sol\":1162:1182  _token == address(0) */\n  dup2\n  iszero\n    /* \"contracts/WallyVesting.sol\":1158:1207  if (_token == address(0)) revert InvalidAddress() */\n  tag_14\n  jumpi\n  sub(shl(0xa0, 0x01), 0x01)\n    /* \"contracts/WallyVesting.sol\":507:3776  contract WallyVesting is AccessControl {... */\n  dup4\n  and\n    /* \"contracts/WallyVesting.sol\":1221:1247  _beneficiary == address(0) */\n  iszero\n    /* \"contracts/WallyVesting.sol\":1217:1272  if (_beneficiary == address(0)) revert InvalidAddress() */\n  tag_14\n  jumpi\n  sub(shl(0xa0, 0x01), 0x01)\n    /* \"contracts/WallyVesting.sol\":507:3776  contract WallyVesting is AccessControl {... */\n  dup2\n  and\n    /* \"contracts/WallyVesting.sol\":1286:1306  _admin == address(0) */\n  iszero\n    /* \"contracts/WallyVesting.sol\":1282:1331  if (_admin == address(0)) revert InvalidAddress() */\n  tag_14\n  jumpi\n    /* \"contracts/WallyVesting.sol\":1345:1371  _cliffDuration > _duration */\n  dup6\n  dup5\n  gt\n    /* \"contracts/WallyVesting.sol\":1341:1406  if (_cliffDuration > _duration) revert CliffGreaterThanDuration() */\n  tag_16\n  jumpi\n    /* \"contracts/WallyVesting.sol\":1417:1447  _grantRole(ADMIN_ROLE, _admin) */\n  tag_18\n  swap1\n  tag_2\n  jump\t// in\ntag_18:\n  pop\n    /* \"contracts/WallyVesting.sol\":507:3776  contract WallyVesting is AccessControl {... */\n  0x80\n    /* \"contracts/WallyVesting.sol\":1458:1480  token = IERC20(_token) */\n  mstore\n    /* \"contracts/WallyVesting.sol\":507:3776  contract WallyVesting is AccessControl {... */\n  0xa0\n    /* \"contracts/WallyVesting.sol\":1490:1516  beneficiary = _beneficiary */\n  mstore\n    /* \"contracts/WallyVesting.sol\":1526:1540  start = _start */\n  dup2\n  0xe0\n  mstore\n    /* \"contracts/WallyVesting.sol\":590:613  keccak256(\"ADMIN_ROLE\") */\n  dup2\n  add\n  dup1\n  swap2\n  gt\n  tag_19\n  jumpi\n    /* \"contracts/WallyVesting.sol\":507:3776  contract WallyVesting is AccessControl {... */\n  0xc0\n    /* \"contracts/WallyVesting.sol\":1550:1581  cliff = _start + _cliffDuration */\n  mstore\n    /* \"contracts/WallyVesting.sol\":1591:1611  duration = _duration */\n  0x0100\n  mstore\n    /* \"contracts/WallyVesting.sol\":507:3776  contract WallyVesting is AccessControl {... */\n  mload(0x40)\n  dataSize(sub_0)\n  swap1\n  dup2\n  dataOffset(sub_0)\n  dup3\n  codecopy\n  mload(0x80)\n  dup2\n  assignImmutable(\"0x92301b0fbe71398b074974cbaad6952dd587c7bfe6c03904031cb0a6440991dd\")\n  mload(0xa0)\n  dup2\n  assignImmutable(\"0x742923de7bc50464937906bfe030fa4efb91e6a4573564a32c624c34f00beca2\")\n  mload(0xc0)\n  dup2\n  assignImmutable(\"0x5a93a2dc92091af230683d15d3257a435cf66aed689fda6017f4307513f6d5be\")\n    /* \"contracts/WallyVesting.sol\":1526:1540  start = _start */\n  0xe0\n    /* \"contracts/WallyVesting.sol\":507:3776  contract WallyVesting is AccessControl {... */\n  mload\n  dup2\n  assignImmutable(\"0xa46665548394c5816a813de8fb4459a0749dc37e4f6d2d629612997abd1cb8f3\")\n    /* \"contracts/WallyVesting.sol\":1591:1611  duration = _duration */\n  0x0100\n    /* \"contracts/WallyVesting.sol\":507:3776  contract WallyVesting is AccessControl {... */\n  mload\n  dup2\n  assignImmutable(\"0x22615f586e4a86b23ead367df957a03709c50c3e9f8d9d951d77eb93984a0744\")\n  return\n    /* \"contracts/WallyVesting.sol\":590:613  keccak256(\"ADMIN_ROLE\") */\ntag_19:\n    /* \"contracts/WallyVesting.sol\":507:3776  contract WallyVesting is AccessControl {... */\n  shl(0xe0, 0x4e487b71)\n  0x00\n    /* \"contracts/WallyVesting.sol\":590:613  keccak256(\"ADMIN_ROLE\") */\n  mstore\n  mstore(0x04, 0x11)\n  revert(0x00, 0x24)\n    /* \"contracts/WallyVesting.sol\":1341:1406  if (_cliffDuration > _duration) revert CliffGreaterThanDuration() */\ntag_16:\n    /* \"contracts/WallyVesting.sol\":1380:1406  CliffGreaterThanDuration() */\n  mstore(0x00, shl(0xe0, 0x67f675ff))\n  revert(0x00, 0x04)\n    /* \"contracts/WallyVesting.sol\":1282:1331  if (_admin == address(0)) revert InvalidAddress() */\ntag_14:\n    /* \"contracts/WallyVesting.sol\":1191:1207  InvalidAddress() */\n  shl(0xe0, 0xe6c4247b)\n  0x00\n    /* \"contracts/WallyVesting.sol\":1315:1331  InvalidAddress() */\n  mstore\n  revert(0x00, 0x04)\n    /* \"contracts/WallyVesting.sol\":507:3776  contract WallyVesting is AccessControl {... */\ntag_5:\n  0x00\n  dup1\n  revert\ntag_3:\n  mstore(0x00, shl(0xe0, 0x4e487b71))\n  mstore(0x04, 0x41)\n  revert(0x00, 0x24)\ntag_1:\n  mload\n  swap1\n  sub(shl(0xa0, 0x01), 0x01)\n  dup3\n  and\n  dup3\n  sub\n  tag_5\n  jumpi\n  jump\t// out\n    /* \"@openzeppelin/contracts/access/AccessControl.sol\":6179:6495  function _grantRole(bytes32 role, address account) internal virtual returns (bool) {... */\ntag_2:\n  sub(shl(0xa0, 0x01), 0x01)\n    /* \"contracts/WallyVesting.sol\":507:3776  contract WallyVesting is AccessControl {... */\n  dup2\n  and\n  0x00\n  swap1\n  dup2\n  mstore\n  mload(0x00)\n  codecopy(0x00, data_27ad65e758a22f2fe9f0d501da4e2a54eb635546ab8210118501a36d81e3b048, 0x20)\n  mload(0x00)\n  swap1\n  0x00\n  mstore\n  0x20\n  mstore\n  0x40\n  swap1\n  keccak256\n  sload\n  0xff\n  and\n  tag_23\n  jumpi\n  sub(shl(0xa0, 0x01), 0x01)\n  and\n  0x00\n  dup2\n  dup2\n  mstore\n  mload(0x00)\n  codecopy(0x00, data_27ad65e758a22f2fe9f0d501da4e2a54eb635546ab8210118501a36d81e3b048, 0x20)\n  mload(0x00)\n  swap1\n  0x00\n  mstore\n  0x20\n  mstore\n  0x40\n  dup2\n  keccak256\n  dup1\n  sload\n  not(0xff)\n  and\n  0x01\n  or\n  swap1\n  sstore\n    /* \"@openzeppelin/contracts/utils/Context.sol\":735:745  msg.sender */\n  caller\n  swap2\n    /* \"contracts/WallyVesting.sol\":507:3776  contract WallyVesting is AccessControl {... */\n  swap1\n    /* \"contracts/WallyVesting.sol\":590:613  keccak256(\"ADMIN_ROLE\") */\n  0xa49807205ce4d355092ef5a8a18f56e8913cf4a201fbe287825b095693c21775\n  swap1\n    /* \"@openzeppelin/contracts/access/AccessControl.sol\":6370:6410  RoleGranted(role, account, _msgSender()) */\n  0x2f8788117e7eff1d82e926ec794901d17c78024a50270940304540a733656f0d\n  swap1\n    /* \"contracts/WallyVesting.sol\":507:3776  contract WallyVesting is AccessControl {... */\n  dup1\n    /* \"@openzeppelin/contracts/access/AccessControl.sol\":6370:6410  RoleGranted(role, account, _msgSender()) */\n  log4\n    /* \"@openzeppelin/contracts/access/AccessControl.sol\":6347:6351  true */\n  0x01\n    /* \"@openzeppelin/contracts/access/AccessControl.sol\":6424:6435  return true */\n  swap1\n  jump\t// out\n    /* \"@openzeppelin/contracts/access/AccessControl.sol\":6272:6489  if (!hasRole(role, account)) {... */\ntag_23:\n    /* \"@openzeppelin/contracts/access/AccessControl.sol\":6466:6478  return false */\n  pop\n    /* \"contracts/WallyVesting.sol\":507:3776  contract WallyVesting is AccessControl {... */\n  0x00\n    /* \"@openzeppelin/contracts/access/AccessControl.sol\":6466:6478  return false */\n  swap1\n  jump\t// out\nstop\ndata_27ad65e758a22f2fe9f0d501da4e2a54eb635546ab8210118501a36d81e3b048 7d7ffb7a348e1c6a02869081a26547b49160dd3df72d1d75a570eb9b698292ec\n\nsub_0: assembly {\n        /* \"contracts/WallyVesting.sol\":507:3776  contract WallyVesting is AccessControl {... */\n      0x80\n      dup1\n      0x40\n      mstore\n      jumpi(tag_12, iszero(lt(calldatasize, 0x04)))\n      0x00\n      dup1\n      revert\n    tag_12:\n      shr(0xe0, calldataload(0x00))\n      swap1\n      dup2\n      0x01ffc9a7\n      eq\n      tag_14\n      jumpi\n      pop\n      dup1\n      0x248a9ca3\n      eq\n      tag_16\n      jumpi\n      dup1\n      0x2bc9ed02\n      eq\n      tag_18\n      jumpi\n      dup1\n      0x2f2ff15d\n      eq\n      tag_20\n      jumpi\n      dup1\n      0x36568abe\n      eq\n      tag_22\n      jumpi\n      dup1\n      0x44b1231f\n      eq\n      tag_24\n      jumpi\n      dup1\n      0x565a2e2c\n      eq\n      tag_26\n      jumpi\n      dup1\n      0x5b940081\n      eq\n      tag_28\n      jumpi\n      dup1\n      0x86d1a69f\n      eq\n      tag_30\n      jumpi\n      dup1\n      0x91d14854\n      eq\n      tag_32\n      jumpi\n      dup1\n      0xa217fddf\n      eq\n      tag_34\n      jumpi\n      dup1\n      0xb6549f75\n      eq\n      tag_36\n      jumpi\n      dup1\n      0xd547741f\n      eq\n      tag_38\n      jumpi\n      0xe33b7de3\n      eq\n      tag_40\n      jumpi\n      0x00\n      dup1\n      revert\n    tag_40:\n      jumpi(tag_44, callvalue)\n      jumpi(tag_44, slt(add(not(0x03), calldatasize), 0x00))\n      0x20\n        /* \"contracts/WallyVesting.sol\":3661:3669  released */\n      0x01\n        /* \"contracts/WallyVesting.sol\":507:3776  contract WallyVesting is AccessControl {... */\n      sload\n      mload(0x40)\n      swap1\n      dup2\n      mstore\n      return\n    tag_44:\n      0x00\n      dup1\n      revert\n    tag_38:\n      jumpi(tag_44, callvalue)\n        /* \"@openzeppelin/contracts/access/AccessControl.sol\":4747:4773  _revokeRole(role, account) */\n      tag_48\n        /* \"contracts/WallyVesting.sol\":507:3776  contract WallyVesting is AccessControl {... */\n      tag_49\n      calldatasize\n      tag_1\n      jump\t// in\n    tag_49:\n        /* \"@openzeppelin/contracts/access/AccessControl.sol\":4717:4735  getRoleAdmin(role) */\n      swap1\n        /* \"@openzeppelin/contracts/access/AccessControl.sol\":2475:2479  role */\n      tag_50\n        /* \"@openzeppelin/contracts/access/AccessControl.sol\":4717:4735  getRoleAdmin(role) */\n      tag_51\n      dup3\n        /* \"@openzeppelin/contracts/access/AccessControl.sol\":3901:3907  _roles */\n      0x00\n        /* \"contracts/WallyVesting.sol\":507:3776  contract WallyVesting is AccessControl {... */\n      mstore\n        /* \"@openzeppelin/contracts/access/AccessControl.sol\":3901:3907  _roles */\n      0x00\n        /* \"contracts/WallyVesting.sol\":507:3776  contract WallyVesting is AccessControl {... */\n      0x20\n      mstore\n        /* \"@openzeppelin/contracts/access/AccessControl.sol\":3901:3923  _roles[role].adminRole */\n      0x01\n        /* \"contracts/WallyVesting.sol\":507:3776  contract WallyVesting is AccessControl {... */\n      0x40\n        /* \"@openzeppelin/contracts/access/AccessControl.sol\":3901:3907  _roles */\n      0x00\n        /* \"contracts/WallyVesting.sol\":507:3776  contract WallyVesting is AccessControl {... */\n      keccak256\n        /* \"@openzeppelin/contracts/access/AccessControl.sol\":3901:3923  _roles[role].adminRole */\n      add\n        /* \"contracts/WallyVesting.sol\":507:3776  contract WallyVesting is AccessControl {... */\n      sload\n        /* \"@openzeppelin/contracts/access/AccessControl.sol\":3810:3930  function getRoleAdmin(bytes32 role) public view virtual returns (bytes32) {... */\n      swap1\n      jump\n        /* \"@openzeppelin/contracts/access/AccessControl.sol\":4717:4735  getRoleAdmin(role) */\n    tag_51:\n        /* \"@openzeppelin/contracts/access/AccessControl.sol\":2475:2479  role */\n      tag_9\n      jump\t// in\n    tag_50:\n        /* \"@openzeppelin/contracts/access/AccessControl.sol\":4747:4773  _revokeRole(role, account) */\n      tag_11\n      jump\t// in\n    tag_48:\n        /* \"contracts/WallyVesting.sol\":507:3776  contract WallyVesting is AccessControl {... */\n      stop\n    tag_36:\n      jumpi(tag_44, callvalue)\n      jumpi(tag_44, slt(add(not(0x03), calldatasize), 0x00))\n        /* \"@openzeppelin/contracts/utils/Context.sol\":735:745  msg.sender */\n      caller\n        /* \"contracts/WallyVesting.sol\":507:3776  contract WallyVesting is AccessControl {... */\n      0x00\n      swap1\n      dup2\n      mstore\n      mstore(0x20, 0x7d7ffb7a348e1c6a02869081a26547b49160dd3df72d1d75a570eb9b698292ec)\n      0x40\n      swap1\n      keccak256\n      sload\n      0xff\n      and\n        /* \"@openzeppelin/contracts/access/AccessControl.sol\":3519:3542  !hasRole(role, account) */\n      iszero\n        /* \"@openzeppelin/contracts/access/AccessControl.sol\":3515:3623  if (!hasRole(role, account)) {... */\n      tag_56\n      jumpi\n        /* \"contracts/WallyVesting.sol\":2391:2398  revoked */\n      0x02\n        /* \"contracts/WallyVesting.sol\":507:3776  contract WallyVesting is AccessControl {... */\n      sload\n      0xff\n      dup2\n      and\n        /* \"contracts/WallyVesting.sol\":2387:2430  if (revoked) revert VestingRevokedAlready() */\n      tag_58\n      jumpi\n      not(0xff)\n        /* \"contracts/WallyVesting.sol\":507:3776  contract WallyVesting is AccessControl {... */\n      and\n        /* \"contracts/WallyVesting.sol\":2450:2454  true */\n      0x01\n        /* \"contracts/WallyVesting.sol\":507:3776  contract WallyVesting is AccessControl {... */\n      or\n        /* \"contracts/WallyVesting.sol\":2391:2398  revoked */\n      0x02\n        /* \"contracts/WallyVesting.sol\":507:3776  contract WallyVesting is AccessControl {... */\n      sstore\n      mload(0x40)\n      shl(0xe0, 0x70a08231)\n        /* \"contracts/WallyVesting.sol\":2483:2513  token.balanceOf(address(this)) */\n      dup2\n      mstore\n        /* \"contracts/WallyVesting.sol\":2507:2511  this */\n      address\n        /* \"contracts/WallyVesting.sol\":507:3776  contract WallyVesting is AccessControl {... */\n      0x04\n        /* \"contracts/WallyVesting.sol\":2483:2513  token.balanceOf(address(this)) */\n      dup3\n      add\n        /* \"contracts/WallyVesting.sol\":507:3776  contract WallyVesting is AccessControl {... */\n      mstore\n        /* \"contracts/WallyVesting.sol\":2483:2488  token */\n      immutable(\"0x92301b0fbe71398b074974cbaad6952dd587c7bfe6c03904031cb0a6440991dd\")\n      sub(shl(0xa0, 0x01), 0x01)\n        /* \"contracts/WallyVesting.sol\":507:3776  contract WallyVesting is AccessControl {... */\n      and\n      swap1\n      0x20\n      dup2\n        /* \"contracts/WallyVesting.sol\":2483:2513  token.balanceOf(address(this)) */\n      0x24\n        /* \"contracts/WallyVesting.sol\":507:3776  contract WallyVesting is AccessControl {... */\n      dup2\n      dup6\n        /* \"contracts/WallyVesting.sol\":2483:2513  token.balanceOf(address(this)) */\n      gas\n      staticcall\n      swap1\n      dup2\n      iszero\n      tag_73\n      jumpi\n        /* \"contracts/WallyVesting.sol\":507:3776  contract WallyVesting is AccessControl {... */\n      0x00\n        /* \"contracts/WallyVesting.sol\":2483:2513  token.balanceOf(address(this)) */\n      swap2\n      tag_62\n      jumpi\n        /* \"contracts/WallyVesting.sol\":507:3776  contract WallyVesting is AccessControl {... */\n    tag_63:\n        /* \"contracts/WallyVesting.sol\":2905:2919  vestedAmount() */\n      pop\n        /* \"contracts/WallyVesting.sol\":2905:2930  vestedAmount() - released */\n      tag_64\n        /* \"contracts/WallyVesting.sol\":2905:2919  vestedAmount() */\n      tag_65\n      tag_6\n      jump\t// in\n    tag_65:\n        /* \"contracts/WallyVesting.sol\":2450:2454  true */\n      0x01\n        /* \"contracts/WallyVesting.sol\":507:3776  contract WallyVesting is AccessControl {... */\n      sload\n        /* \"contracts/WallyVesting.sol\":2905:2930  vestedAmount() - released */\n      swap1\n      tag_5\n      jump\t// in\n    tag_64:\n        /* \"contracts/WallyVesting.sol\":2590:2610  balance > unreleased */\n      dup1\n      dup3\n      gt\n      iszero\n      tag_66\n      jumpi\n        /* \"contracts/WallyVesting.sol\":2615:2635  balance - unreleased */\n      tag_68\n      swap2\n      tag_5\n      jump\t// in\n    tag_68:\n        /* \"contracts/WallyVesting.sol\":2589:2640  (balance > unreleased) ? (balance - unreleased) : 0 */\n      swap1\n    tag_69:\n        /* \"contracts/WallyVesting.sol\":2655:2666  refund != 0 */\n      dup2\n        /* \"contracts/WallyVesting.sol\":2651:2787  if (refund != 0) {... */\n      tag_70\n      jumpi\n        /* \"contracts/WallyVesting.sol\":2589:2640  (balance > unreleased) ? (balance - unreleased) : 0 */\n    tag_71:\n        /* \"contracts/WallyVesting.sol\":2801:2817  VestingRevoked() */\n      0xab9bb9a2dbce8eb1c5199596521d57563c7289fb1ac680030c44e9a0d16e6ed0\n        /* \"contracts/WallyVesting.sol\":507:3776  contract WallyVesting is AccessControl {... */\n      0x00\n        /* \"contracts/WallyVesting.sol\":2801:2817  VestingRevoked() */\n      dup1\n      log1\n        /* \"contracts/WallyVesting.sol\":507:3776  contract WallyVesting is AccessControl {... */\n      stop\n        /* \"contracts/WallyVesting.sol\":2651:2787  if (refund != 0) {... */\n    tag_70:\n        /* \"contracts/WallyVesting.sol\":507:3776  contract WallyVesting is AccessControl {... */\n      mload(0x40)\n      shl(0xe0, 0xa9059cbb)\n        /* \"contracts/WallyVesting.sol\":2697:2731  token.transfer(msg.sender, refund) */\n      dup2\n      mstore\n        /* \"@openzeppelin/contracts/utils/Context.sol\":735:745  msg.sender */\n      caller\n        /* \"contracts/WallyVesting.sol\":507:3776  contract WallyVesting is AccessControl {... */\n      0x04\n        /* \"contracts/WallyVesting.sol\":2697:2731  token.transfer(msg.sender, refund) */\n      dup3\n      add\n        /* \"contracts/WallyVesting.sol\":507:3776  contract WallyVesting is AccessControl {... */\n      mstore\n      0x24\n      dup2\n      add\n      swap3\n      swap1\n      swap3\n      mstore\n      0x20\n      swap1\n      dup3\n      swap1\n      0x44\n      swap1\n      dup3\n      swap1\n      0x00\n      swap1\n        /* \"contracts/WallyVesting.sol\":2697:2731  token.transfer(msg.sender, refund) */\n      gas\n      call\n      swap1\n      dup2\n      iszero\n      tag_73\n      jumpi\n        /* \"contracts/WallyVesting.sol\":507:3776  contract WallyVesting is AccessControl {... */\n      0x00\n        /* \"contracts/WallyVesting.sol\":2697:2731  token.transfer(msg.sender, refund) */\n      swap2\n      tag_75\n      jumpi\n        /* \"contracts/WallyVesting.sol\":2651:2787  if (refund != 0) {... */\n    tag_76:\n        /* \"contracts/WallyVesting.sol\":507:3776  contract WallyVesting is AccessControl {... */\n      pop\n      iszero\n      tag_77\n      jumpi\n        /* \"contracts/WallyVesting.sol\":2651:2787  if (refund != 0) {... */\n      dup1\n      dup1\n      jump(tag_71)\n        /* \"contracts/WallyVesting.sol\":507:3776  contract WallyVesting is AccessControl {... */\n    tag_77:\n      mload(0x40)\n      shl(0xe5, 0x461bcd)\n      dup2\n      mstore\n      0x20\n      0x04\n      dup3\n      add\n      mstore\n      0x0b\n        /* \"contracts/WallyVesting.sol\":2483:2513  token.balanceOf(address(this)) */\n      0x24\n        /* \"contracts/WallyVesting.sol\":507:3776  contract WallyVesting is AccessControl {... */\n      dup3\n      add\n      mstore\n      shl(0xaa, 0x1499599d5b990819985a5b)\n      0x44\n      dup3\n      add\n      mstore\n      0x64\n      swap1\n      revert\n        /* \"contracts/WallyVesting.sol\":2697:2731  token.transfer(msg.sender, refund) */\n    tag_75:\n      tag_79\n      swap2\n      pop\n        /* \"contracts/WallyVesting.sol\":507:3776  contract WallyVesting is AccessControl {... */\n      0x20\n        /* \"contracts/WallyVesting.sol\":2697:2731  token.transfer(msg.sender, refund) */\n      returndatasize\n        /* \"contracts/WallyVesting.sol\":507:3776  contract WallyVesting is AccessControl {... */\n      0x20\n        /* \"contracts/WallyVesting.sol\":2697:2731  token.transfer(msg.sender, refund) */\n      gt\n      tag_80\n      jumpi\n    tag_81:\n      tag_82\n      dup2\n      dup4\n      tag_3\n      jump\t// in\n    tag_82:\n      dup2\n      add\n      swap1\n      tag_7\n      jump\t// in\n    tag_79:\n      dup2\n      jump(tag_76)\n    tag_80:\n      pop\n      returndatasize\n      jump(tag_81)\n    tag_73:\n        /* \"contracts/WallyVesting.sol\":507:3776  contract WallyVesting is AccessControl {... */\n      mload(0x40)\n      returndatasize\n      0x00\n      dup3\n      returndatacopy\n      returndatasize\n      swap1\n      revert\n        /* \"contracts/WallyVesting.sol\":2589:2640  (balance > unreleased) ? (balance - unreleased) : 0 */\n    tag_66:\n      pop\n      pop\n        /* \"contracts/WallyVesting.sol\":507:3776  contract WallyVesting is AccessControl {... */\n      0x00\n        /* \"contracts/WallyVesting.sol\":2589:2640  (balance > unreleased) ? (balance - unreleased) : 0 */\n      swap1\n      jump(tag_69)\n        /* \"contracts/WallyVesting.sol\":2483:2513  token.balanceOf(address(this)) */\n    tag_62:\n      swap1\n      pop\n        /* \"contracts/WallyVesting.sol\":507:3776  contract WallyVesting is AccessControl {... */\n      0x20\n        /* \"contracts/WallyVesting.sol\":2483:2513  token.balanceOf(address(this)) */\n      dup2\n      returndatasize\n        /* \"contracts/WallyVesting.sol\":507:3776  contract WallyVesting is AccessControl {... */\n      0x20\n        /* \"contracts/WallyVesting.sol\":2483:2513  token.balanceOf(address(this)) */\n      gt\n      tag_83\n      jumpi\n    tag_84:\n      dup2\n      tag_85\n        /* \"contracts/WallyVesting.sol\":507:3776  contract WallyVesting is AccessControl {... */\n      0x20\n        /* \"contracts/WallyVesting.sol\":2483:2513  token.balanceOf(address(this)) */\n      swap4\n      dup4\n      tag_3\n      jump\t// in\n    tag_85:\n      dup2\n      add\n        /* \"contracts/WallyVesting.sol\":507:3776  contract WallyVesting is AccessControl {... */\n      sub\n      slt\n      tag_44\n      jumpi\n      mload\n        /* \"contracts/WallyVesting.sol\":2483:2513  token.balanceOf(address(this)) */\n      dup3\n      jump(tag_63)\n    tag_83:\n      returndatasize\n      swap2\n      pop\n      jump(tag_84)\n        /* \"contracts/WallyVesting.sol\":2387:2430  if (revoked) revert VestingRevokedAlready() */\n    tag_58:\n        /* \"contracts/WallyVesting.sol\":1883:1906  VestingRevokedAlready() */\n      shl(0xe0, 0x01404c2b)\n        /* \"contracts/WallyVesting.sol\":507:3776  contract WallyVesting is AccessControl {... */\n      0x00\n        /* \"contracts/WallyVesting.sol\":2407:2430  VestingRevokedAlready() */\n      mstore\n        /* \"contracts/WallyVesting.sol\":507:3776  contract WallyVesting is AccessControl {... */\n      0x04\n      0x00\n        /* \"contracts/WallyVesting.sol\":2407:2430  VestingRevokedAlready() */\n      revert\n        /* \"@openzeppelin/contracts/access/AccessControl.sol\":3515:3623  if (!hasRole(role, account)) {... */\n    tag_56:\n        /* \"@openzeppelin/contracts/access/AccessControl.sol\":3565:3612  AccessControlUnauthorizedAccount(account, role) */\n      shl(0xe0, 0xe2517d3f)\n        /* \"contracts/WallyVesting.sol\":507:3776  contract WallyVesting is AccessControl {... */\n      0x00\n        /* \"@openzeppelin/contracts/access/AccessControl.sol\":3565:3612  AccessControlUnauthorizedAccount(account, role) */\n      mstore\n        /* \"@openzeppelin/contracts/utils/Context.sol\":735:745  msg.sender */\n      caller\n        /* \"contracts/WallyVesting.sol\":507:3776  contract WallyVesting is AccessControl {... */\n      0x04\n      mstore\n        /* \"contracts/WallyVesting.sol\":590:613  keccak256(\"ADMIN_ROLE\") */\n      0xa49807205ce4d355092ef5a8a18f56e8913cf4a201fbe287825b095693c21775\n        /* \"contracts/WallyVesting.sol\":507:3776  contract WallyVesting is AccessControl {... */\n      0x24\n      mstore\n      0x44\n      0x00\n        /* \"@openzeppelin/contracts/access/AccessControl.sol\":3565:3612  AccessControlUnauthorizedAccount(account, role) */\n      revert\n        /* \"contracts/WallyVesting.sol\":507:3776  contract WallyVesting is AccessControl {... */\n    tag_34:\n      jumpi(tag_44, callvalue)\n      jumpi(tag_44, slt(add(not(0x03), calldatasize), 0x00))\n      0x20\n      mload(0x40)\n      0x00\n      dup2\n      mstore\n      return\n    tag_32:\n      jumpi(tag_44, callvalue)\n      tag_94\n      calldatasize\n      tag_1\n      jump\t// in\n    tag_94:\n      swap1\n      0x00\n      mstore\n      mstore(0x20, 0x00)\n      keccak256(0x00, 0x40)\n        /* \"@openzeppelin/contracts/access/AccessControl.sol\":2954:2983  _roles[role].hasRole[account] */\n      swap1\n        /* \"contracts/WallyVesting.sol\":507:3776  contract WallyVesting is AccessControl {... */\n      0x01\n      dup1\n      0xa0\n      shl\n      sub\n      and\n      0x00\n      mstore\n      0x20\n      mstore\n      0x20\n      and(sload(keccak256(0x00, 0x40)), 0xff)\n      mload(0x40)\n      swap1\n      iszero\n      iszero\n      dup2\n      mstore\n      return\n    tag_30:\n      jumpi(tag_44, callvalue)\n      jumpi(tag_44, slt(add(not(0x03), calldatasize), 0x00))\n        /* \"contracts/WallyVesting.sol\":1685:1695  msg.sender */\n      caller\n        /* \"contracts/WallyVesting.sol\":507:3776  contract WallyVesting is AccessControl {... */\n      0x00\n      swap1\n      dup2\n      mstore\n      mstore(0x20, 0x7d7ffb7a348e1c6a02869081a26547b49160dd3df72d1d75a570eb9b698292ec)\n      0x40\n      swap1\n      keccak256\n      sload\n      0xff\n      and\n        /* \"contracts/WallyVesting.sol\":1664:1696  !hasRole(ADMIN_ROLE, msg.sender) */\n      iszero\n        /* \"contracts/WallyVesting.sol\":1660:1720  if (!hasRole(ADMIN_ROLE, msg.sender)) revert NotAuthorized() */\n      tag_99\n      jumpi\n        /* \"contracts/WallyVesting.sol\":507:3776  contract WallyVesting is AccessControl {... */\n      0xff\n        /* \"contracts/WallyVesting.sol\":1867:1874  revoked */\n      0x02\n        /* \"contracts/WallyVesting.sol\":507:3776  contract WallyVesting is AccessControl {... */\n      sload\n      and\n        /* \"contracts/WallyVesting.sol\":1863:1906  if (revoked) revert VestingRevokedAlready() */\n      tag_58\n      jumpi\n        /* \"contracts/WallyVesting.sol\":2905:2919  vestedAmount() */\n      tag_103\n      tag_6\n      jump\t// in\n    tag_103:\n        /* \"contracts/WallyVesting.sol\":2905:2930  vestedAmount() - released */\n      tag_104\n        /* \"contracts/WallyVesting.sol\":2922:2930  released */\n      0x01\n        /* \"contracts/WallyVesting.sol\":507:3776  contract WallyVesting is AccessControl {... */\n      sload\n        /* \"contracts/WallyVesting.sol\":2905:2930  vestedAmount() - released */\n      dup1\n      swap3\n      tag_5\n      jump\t// in\n    tag_104:\n        /* \"contracts/WallyVesting.sol\":1969:1984  unreleased == 0 */\n      swap1\n      dup2\n      iszero\n        /* \"contracts/WallyVesting.sol\":1965:2011  if (unreleased == 0) revert NothingToRelease() */\n      tag_105\n      jumpi\n        /* \"contracts/WallyVesting.sol\":2033:2054  released + unreleased */\n      dup2\n      tag_107\n      swap2\n      tag_4\n      jump\t// in\n    tag_107:\n        /* \"contracts/WallyVesting.sol\":2922:2930  released */\n      0x01\n        /* \"contracts/WallyVesting.sol\":507:3776  contract WallyVesting is AccessControl {... */\n      sstore\n      mload(0x40)\n      shl(0xe0, 0xa9059cbb)\n        /* \"contracts/WallyVesting.sol\":2080:2119  token.transfer(beneficiary, unreleased) */\n      dup2\n      mstore\n      sub(shl(0xa0, 0x01), 0x01)\n        /* \"contracts/WallyVesting.sol\":2095:2106  beneficiary */\n      immutable(\"0x742923de7bc50464937906bfe030fa4efb91e6a4573564a32c624c34f00beca2\")\n        /* \"contracts/WallyVesting.sol\":507:3776  contract WallyVesting is AccessControl {... */\n      and\n      0x04\n        /* \"contracts/WallyVesting.sol\":2080:2119  token.transfer(beneficiary, unreleased) */\n      dup3\n      add\n        /* \"contracts/WallyVesting.sol\":507:3776  contract WallyVesting is AccessControl {... */\n      mstore\n      0x24\n      dup2\n      add\n      dup3\n      swap1\n      mstore\n      0x20\n      dup2\n      dup1\n      0x44\n      dup2\n      add\n        /* \"contracts/WallyVesting.sol\":2080:2119  token.transfer(beneficiary, unreleased) */\n      sub\n        /* \"contracts/WallyVesting.sol\":507:3776  contract WallyVesting is AccessControl {... */\n      dup2\n      0x00\n        /* \"contracts/WallyVesting.sol\":2080:2085  token */\n      immutable(\"0x92301b0fbe71398b074974cbaad6952dd587c7bfe6c03904031cb0a6440991dd\")\n      sub(shl(0xa0, 0x01), 0x01)\n        /* \"contracts/WallyVesting.sol\":507:3776  contract WallyVesting is AccessControl {... */\n      and\n        /* \"contracts/WallyVesting.sol\":2080:2119  token.transfer(beneficiary, unreleased) */\n      gas\n      call\n      swap1\n      dup2\n      iszero\n      tag_73\n      jumpi\n        /* \"contracts/WallyVesting.sol\":507:3776  contract WallyVesting is AccessControl {... */\n      0x00\n        /* \"contracts/WallyVesting.sol\":2080:2119  token.transfer(beneficiary, unreleased) */\n      swap2\n      tag_111\n      jumpi\n        /* \"contracts/WallyVesting.sol\":507:3776  contract WallyVesting is AccessControl {... */\n    tag_112:\n      pop\n      iszero\n      tag_113\n      jumpi\n      0x20\n        /* \"contracts/WallyVesting.sol\":2178:2204  TokensReleased(unreleased) */\n      0xa1598fb976f7dd9df63fd18699c54a5744a6a95364166bbd0d77a2f6c8438b1f\n        /* \"contracts/WallyVesting.sol\":507:3776  contract WallyVesting is AccessControl {... */\n      swap2\n      mload(0x40)\n      swap1\n      dup2\n      mstore\n        /* \"contracts/WallyVesting.sol\":2178:2204  TokensReleased(unreleased) */\n      log1\n        /* \"contracts/WallyVesting.sol\":507:3776  contract WallyVesting is AccessControl {... */\n      stop\n    tag_113:\n      mload(0x40)\n      shl(0xe5, 0x461bcd)\n      dup2\n      mstore\n      0x20\n      0x04\n      dup3\n      add\n      mstore\n      0x0d\n      0x24\n      dup3\n      add\n      mstore\n      shl(0x9a, 0x151c985b9cd9995c8819985a5b)\n      0x44\n      dup3\n      add\n      mstore\n      0x64\n      swap1\n      revert\n        /* \"contracts/WallyVesting.sol\":2080:2119  token.transfer(beneficiary, unreleased) */\n    tag_111:\n      tag_115\n      swap2\n      pop\n        /* \"contracts/WallyVesting.sol\":507:3776  contract WallyVesting is AccessControl {... */\n      0x20\n        /* \"contracts/WallyVesting.sol\":2080:2119  token.transfer(beneficiary, unreleased) */\n      returndatasize\n        /* \"contracts/WallyVesting.sol\":507:3776  contract WallyVesting is AccessControl {... */\n      0x20\n        /* \"contracts/WallyVesting.sol\":2080:2119  token.transfer(beneficiary, unreleased) */\n      gt\n      tag_80\n      jumpi\n      tag_82\n      dup2\n      dup4\n      tag_3\n      jump\t// in\n    tag_115:\n      dup3\n      jump(tag_112)\n        /* \"contracts/WallyVesting.sol\":1965:2011  if (unreleased == 0) revert NothingToRelease() */\n    tag_105:\n        /* \"contracts/WallyVesting.sol\":1993:2011  NothingToRelease() */\n      shl(0xe0, 0xb10205ed)\n        /* \"contracts/WallyVesting.sol\":507:3776  contract WallyVesting is AccessControl {... */\n      0x00\n        /* \"contracts/WallyVesting.sol\":1993:2011  NothingToRelease() */\n      mstore\n        /* \"contracts/WallyVesting.sol\":507:3776  contract WallyVesting is AccessControl {... */\n      0x04\n      0x00\n        /* \"contracts/WallyVesting.sol\":1993:2011  NothingToRelease() */\n      revert\n        /* \"contracts/WallyVesting.sol\":1660:1720  if (!hasRole(ADMIN_ROLE, msg.sender)) revert NotAuthorized() */\n    tag_99:\n        /* \"contracts/WallyVesting.sol\":1705:1720  NotAuthorized() */\n      shl(0xe0, 0xea8e4eb5)\n        /* \"contracts/WallyVesting.sol\":507:3776  contract WallyVesting is AccessControl {... */\n      0x00\n        /* \"contracts/WallyVesting.sol\":1705:1720  NotAuthorized() */\n      mstore\n        /* \"contracts/WallyVesting.sol\":507:3776  contract WallyVesting is AccessControl {... */\n      0x04\n      0x00\n        /* \"contracts/WallyVesting.sol\":1705:1720  NotAuthorized() */\n      revert\n        /* \"contracts/WallyVesting.sol\":507:3776  contract WallyVesting is AccessControl {... */\n    tag_28:\n      jumpi(tag_44, callvalue)\n      jumpi(tag_44, slt(add(not(0x03), calldatasize), 0x00))\n      0x20\n        /* \"contracts/WallyVesting.sol\":2905:2930  vestedAmount() - released */\n      tag_123\n        /* \"contracts/WallyVesting.sol\":2905:2919  vestedAmount() */\n      tag_65\n      tag_6\n      jump\t// in\n        /* \"contracts/WallyVesting.sol\":2905:2930  vestedAmount() - released */\n    tag_123:\n        /* \"contracts/WallyVesting.sol\":507:3776  contract WallyVesting is AccessControl {... */\n      mload(0x40)\n      swap1\n      dup2\n      mstore\n      return\n    tag_26:\n      jumpi(tag_44, callvalue)\n      jumpi(tag_44, slt(add(not(0x03), calldatasize), 0x00))\n      mload(0x40)\n        /* \"contracts/WallyVesting.sol\":3756:3767  beneficiary */\n      immutable(\"0x742923de7bc50464937906bfe030fa4efb91e6a4573564a32c624c34f00beca2\")\n      sub(shl(0xa0, 0x01), 0x01)\n        /* \"contracts/WallyVesting.sol\":507:3776  contract WallyVesting is AccessControl {... */\n      and\n      dup2\n      mstore\n      0x20\n      swap1\n      return\n    tag_24:\n      jumpi(tag_44, callvalue)\n      jumpi(tag_44, slt(add(not(0x03), calldatasize), 0x00))\n      0x20\n      tag_123\n      tag_6\n      jump\t// in\n    tag_22:\n      jumpi(tag_44, callvalue)\n      tag_136\n      calldatasize\n      tag_1\n      jump\t// in\n    tag_136:\n        /* \"@openzeppelin/contracts/utils/Context.sol\":735:745  msg.sender */\n      caller\n      sub(shl(0xa0, 0x01), 0x01)\n        /* \"contracts/WallyVesting.sol\":507:3776  contract WallyVesting is AccessControl {... */\n      dup3\n      and\n        /* \"@openzeppelin/contracts/access/AccessControl.sol\":5421:5455  callerConfirmation != _msgSender() */\n      sub\n        /* \"@openzeppelin/contracts/access/AccessControl.sol\":5417:5519  if (callerConfirmation != _msgSender()) {... */\n      tag_137\n      jumpi\n        /* \"@openzeppelin/contracts/access/AccessControl.sol\":5529:5566  _revokeRole(role, callerConfirmation) */\n      tag_48\n      swap2\n      tag_11\n      jump\t// in\n        /* \"@openzeppelin/contracts/access/AccessControl.sol\":5417:5519  if (callerConfirmation != _msgSender()) {... */\n    tag_137:\n        /* \"@openzeppelin/contracts/access/AccessControl.sol\":5478:5508  AccessControlBadConfirmation() */\n      shl(0xe1, 0x334bd919)\n        /* \"contracts/WallyVesting.sol\":507:3776  contract WallyVesting is AccessControl {... */\n      0x00\n        /* \"@openzeppelin/contracts/access/AccessControl.sol\":5478:5508  AccessControlBadConfirmation() */\n      mstore\n        /* \"contracts/WallyVesting.sol\":507:3776  contract WallyVesting is AccessControl {... */\n      0x04\n      0x00\n        /* \"@openzeppelin/contracts/access/AccessControl.sol\":5478:5508  AccessControlBadConfirmation() */\n      revert\n        /* \"contracts/WallyVesting.sol\":507:3776  contract WallyVesting is AccessControl {... */\n    tag_20:\n      jumpi(tag_44, callvalue)\n        /* \"@openzeppelin/contracts/access/AccessControl.sol\":4330:4355  _grantRole(role, account) */\n      tag_48\n        /* \"contracts/WallyVesting.sol\":507:3776  contract WallyVesting is AccessControl {... */\n      tag_143\n      calldatasize\n      tag_1\n      jump\t// in\n    tag_143:\n        /* \"@openzeppelin/contracts/access/AccessControl.sol\":4300:4318  getRoleAdmin(role) */\n      swap1\n        /* \"@openzeppelin/contracts/access/AccessControl.sol\":2475:2479  role */\n      tag_144\n        /* \"@openzeppelin/contracts/access/AccessControl.sol\":4300:4318  getRoleAdmin(role) */\n      tag_51\n      dup3\n        /* \"@openzeppelin/contracts/access/AccessControl.sol\":3901:3907  _roles */\n      0x00\n        /* \"contracts/WallyVesting.sol\":507:3776  contract WallyVesting is AccessControl {... */\n      mstore\n        /* \"@openzeppelin/contracts/access/AccessControl.sol\":3901:3907  _roles */\n      0x00\n        /* \"contracts/WallyVesting.sol\":507:3776  contract WallyVesting is AccessControl {... */\n      0x20\n      mstore\n        /* \"@openzeppelin/contracts/access/AccessControl.sol\":3901:3923  _roles[role].adminRole */\n      0x01\n        /* \"contracts/WallyVesting.sol\":507:3776  contract WallyVesting is AccessControl {... */\n      0x40\n        /* \"@openzeppelin/contracts/access/AccessControl.sol\":3901:3907  _roles */\n      0x00\n        /* \"contracts/WallyVesting.sol\":507:3776  contract WallyVesting is AccessControl {... */\n      keccak256\n        /* \"@openzeppelin/contracts/access/AccessControl.sol\":3901:3923  _roles[role].adminRole */\n      add\n        /* \"contracts/WallyVesting.sol\":507:3776  contract WallyVesting is AccessControl {... */\n      sload\n        /* \"@openzeppelin/contracts/access/AccessControl.sol\":3810:3930  function getRoleAdmin(bytes32 role) public view virtual returns (bytes32) {... */\n      swap1\n      jump\n        /* \"@openzeppelin/contracts/access/AccessControl.sol\":2475:2479  role */\n    tag_144:\n        /* \"@openzeppelin/contracts/access/AccessControl.sol\":4330:4355  _grantRole(role, account) */\n      tag_10\n      jump\t// in\n        /* \"contracts/WallyVesting.sol\":507:3776  contract WallyVesting is AccessControl {... */\n    tag_18:\n      jumpi(tag_44, callvalue)\n      jumpi(tag_44, slt(add(not(0x03), calldatasize), 0x00))\n      0x20\n      0xff\n        /* \"contracts/WallyVesting.sol\":3568:3575  revoked */\n      0x02\n        /* \"contracts/WallyVesting.sol\":507:3776  contract WallyVesting is AccessControl {... */\n      sload\n      and\n      mload(0x40)\n      swap1\n      iszero\n      iszero\n      dup2\n      mstore\n      return\n    tag_16:\n      jumpi(tag_44, callvalue)\n      jumpi(tag_44, slt(add(not(0x03), calldatasize), 0x20))\n      0x20\n      tag_123\n      calldataload(0x04)\n        /* \"@openzeppelin/contracts/access/AccessControl.sol\":3901:3907  _roles */\n      0x00\n        /* \"contracts/WallyVesting.sol\":507:3776  contract WallyVesting is AccessControl {... */\n      mstore\n        /* \"@openzeppelin/contracts/access/AccessControl.sol\":3901:3907  _roles */\n      0x00\n        /* \"contracts/WallyVesting.sol\":507:3776  contract WallyVesting is AccessControl {... */\n      0x20\n      mstore\n        /* \"@openzeppelin/contracts/access/AccessControl.sol\":3901:3923  _roles[role].adminRole */\n      0x01\n        /* \"contracts/WallyVesting.sol\":507:3776  contract WallyVesting is AccessControl {... */\n      0x40\n        /* \"@openzeppelin/contracts/access/AccessControl.sol\":3901:3907  _roles */\n      0x00\n        /* \"contracts/WallyVesting.sol\":507:3776  contract WallyVesting is AccessControl {... */\n      keccak256\n        /* \"@openzeppelin/contracts/access/AccessControl.sol\":3901:3923  _roles[role].adminRole */\n      add\n        /* \"contracts/WallyVesting.sol\":507:3776  contract WallyVesting is AccessControl {... */\n      sload\n        /* \"@openzeppelin/contracts/access/AccessControl.sol\":3810:3930  function getRoleAdmin(bytes32 role) public view virtual returns (bytes32) {... */\n      swap1\n      jump\n        /* \"contracts/WallyVesting.sol\":507:3776  contract WallyVesting is AccessControl {... */\n    tag_14:\n      jumpi(tag_44, callvalue)\n      jumpi(tag_44, slt(add(not(0x03), calldatasize), 0x20))\n      calldataload(0x04)\n      swap1\n      shl(0xe0, 0xffffffff)\n      dup3\n      and\n      dup1\n      swap3\n      sub\n      tag_44\n      jumpi\n      0x20\n      swap2\n      shl(0xe0, 0x7965db0b)\n        /* \"@openzeppelin/contracts/access/AccessControl.sol\":2673:2720  interfaceId == type(IAccessControl).interfaceId */\n      dup2\n      eq\n      swap1\n        /* \"@openzeppelin/contracts/access/AccessControl.sol\":2673:2760  interfaceId == type(IAccessControl).interfaceId || super.supportsInterface(interfaceId) */\n      dup2\n      iszero\n      tag_161\n      jumpi\n        /* \"contracts/WallyVesting.sol\":507:3776  contract WallyVesting is AccessControl {... */\n    tag_162:\n      pop\n      iszero\n      iszero\n      dup2\n      mstore\n      return\n        /* \"@openzeppelin/contracts/access/AccessControl.sol\":2673:2760  interfaceId == type(IAccessControl).interfaceId || super.supportsInterface(interfaceId) */\n    tag_161:\n      shl(0xe0, 0x01ffc9a7)\n        /* \"@openzeppelin/contracts/utils/introspection/ERC165.sol\":862:902  interfaceId == type(IERC165).interfaceId */\n      eq\n      swap1\n      pop\n        /* \"@openzeppelin/contracts/access/AccessControl.sol\":2673:2760  interfaceId == type(IAccessControl).interfaceId || super.supportsInterface(interfaceId) */\n      dup4\n      jump(tag_162)\n        /* \"contracts/WallyVesting.sol\":507:3776  contract WallyVesting is AccessControl {... */\n    tag_1:\n      0x40\n      swap1\n      not(0x03)\n      add\n      slt\n      tag_44\n      jumpi\n      calldataload(0x04)\n      swap1\n      calldataload(0x24)\n      sub(shl(0xa0, 0x01), 0x01)\n      dup2\n      and\n      dup2\n      sub\n      tag_44\n      jumpi\n      swap1\n      jump\t// out\n    tag_3:\n      swap1\n      0x1f\n      dup1\n      not\n      swap2\n      add\n      and\n      dup2\n      add\n      swap1\n      dup2\n      lt\n      0xffffffffffffffff\n      dup3\n      gt\n      or\n      tag_167\n      jumpi\n      0x40\n      mstore\n      jump\t// out\n    tag_167:\n      mstore(0x00, shl(0xe0, 0x4e487b71))\n      mstore(0x04, 0x41)\n      revert(0x00, 0x24)\n    tag_4:\n      swap2\n      swap1\n      dup3\n      add\n      dup1\n      swap3\n      gt\n      tag_169\n      jumpi\n      jump\t// out\n    tag_169:\n      mstore(0x00, shl(0xe0, 0x4e487b71))\n      mstore(0x04, 0x11)\n      revert(0x00, 0x24)\n    tag_5:\n      swap2\n      swap1\n      dup3\n      sub\n      swap2\n      dup3\n      gt\n      tag_169\n      jumpi\n      jump\t// out\n        /* \"contracts/WallyVesting.sol\":2943:3471  function vestedAmount() public view returns (uint256) {... */\n    tag_6:\n        /* \"contracts/WallyVesting.sol\":507:3776  contract WallyVesting is AccessControl {... */\n      mload(0x40)\n      shl(0xe0, 0x70a08231)\n        /* \"contracts/WallyVesting.sol\":3030:3060  token.balanceOf(address(this)) */\n      dup2\n      mstore\n        /* \"contracts/WallyVesting.sol\":3054:3058  this */\n      address\n        /* \"contracts/WallyVesting.sol\":3030:3060  token.balanceOf(address(this)) */\n      0x04\n      dup3\n      add\n        /* \"contracts/WallyVesting.sol\":507:3776  contract WallyVesting is AccessControl {... */\n      mstore\n      0x20\n      dup2\n        /* \"contracts/WallyVesting.sol\":3030:3060  token.balanceOf(address(this)) */\n      0x24\n        /* \"contracts/WallyVesting.sol\":507:3776  contract WallyVesting is AccessControl {... */\n      dup2\n        /* \"contracts/WallyVesting.sol\":3030:3035  token */\n      immutable(\"0x92301b0fbe71398b074974cbaad6952dd587c7bfe6c03904031cb0a6440991dd\")\n      sub(shl(0xa0, 0x01), 0x01)\n        /* \"contracts/WallyVesting.sol\":507:3776  contract WallyVesting is AccessControl {... */\n      and\n        /* \"contracts/WallyVesting.sol\":3030:3060  token.balanceOf(address(this)) */\n      gas\n      staticcall\n      dup1\n      iszero\n      tag_73\n      jumpi\n        /* \"contracts/WallyVesting.sol\":507:3776  contract WallyVesting is AccessControl {... */\n      0x00\n        /* \"contracts/WallyVesting.sol\":3030:3060  token.balanceOf(address(this)) */\n      swap1\n      tag_175\n      jumpi\n        /* \"contracts/WallyVesting.sol\":2943:3471  function vestedAmount() public view returns (uint256) {... */\n    tag_176:\n        /* \"contracts/WallyVesting.sol\":3094:3117  totalCurrent + released */\n      tag_177\n        /* \"contracts/WallyVesting.sol\":507:3776  contract WallyVesting is AccessControl {... */\n      swap2\n      pop\n        /* \"contracts/WallyVesting.sol\":3109:3117  released */\n      0x01\n        /* \"contracts/WallyVesting.sol\":507:3776  contract WallyVesting is AccessControl {... */\n      sload\n        /* \"contracts/WallyVesting.sol\":3094:3117  totalCurrent + released */\n      swap1\n      tag_4\n      jump\t// in\n    tag_177:\n        /* \"contracts/WallyVesting.sol\":3150:3155  cliff */\n      immutable(\"0x5a93a2dc92091af230683d15d3257a435cf66aed689fda6017f4307513f6d5be\")\n        /* \"contracts/WallyVesting.sol\":3132:3147  block.timestamp */\n      timestamp\n        /* \"contracts/WallyVesting.sol\":3132:3155  block.timestamp < cliff */\n      lt\n        /* \"contracts/WallyVesting.sol\":3150:3155  cliff */\n      iszero\n      tag_178\n      jumpi\n        /* \"contracts/WallyVesting.sol\":3171:3179  return 0 */\n      pop\n        /* \"contracts/WallyVesting.sol\":507:3776  contract WallyVesting is AccessControl {... */\n      0x00\n        /* \"contracts/WallyVesting.sol\":3171:3179  return 0 */\n      swap1\n      jump\t// out\n        /* \"contracts/WallyVesting.sol\":3128:3465  if (block.timestamp < cliff) {... */\n    tag_178:\n        /* \"contracts/WallyVesting.sol\":3228:3236  duration */\n      immutable(\"0x22615f586e4a86b23ead367df957a03709c50c3e9f8d9d951d77eb93984a0744\")\n      swap1\n        /* \"contracts/WallyVesting.sol\":3220:3225  start */\n      immutable(\"0xa46665548394c5816a813de8fb4459a0749dc37e4f6d2d629612997abd1cb8f3\")\n        /* \"contracts/WallyVesting.sol\":3220:3236  start + duration */\n      tag_180\n        /* \"contracts/WallyVesting.sol\":3228:3236  duration */\n      dup4\n        /* \"contracts/WallyVesting.sol\":3220:3225  start */\n      dup3\n        /* \"contracts/WallyVesting.sol\":3220:3236  start + duration */\n      tag_4\n      jump\t// in\n    tag_180:\n        /* \"contracts/WallyVesting.sol\":3132:3147  block.timestamp */\n      timestamp\n        /* \"contracts/WallyVesting.sol\":3200:3237  block.timestamp >= (start + duration) */\n      lt\n      dup1\n      iszero\n        /* \"contracts/WallyVesting.sol\":3200:3248  block.timestamp >= (start + duration) || revoked */\n      swap1\n      tag_181\n      jumpi\n        /* \"contracts/WallyVesting.sol\":3128:3465  if (block.timestamp < cliff) {... */\n    tag_182:\n        /* \"contracts/WallyVesting.sol\":3196:3465  if (block.timestamp >= (start + duration) || revoked) {... */\n      iszero\n      tag_183\n      jumpi\n        /* \"contracts/WallyVesting.sol\":3264:3284  return totalAssigned */\n      pop\n      swap1\n      pop\n      swap1\n      jump\t// out\n        /* \"contracts/WallyVesting.sol\":3196:3465  if (block.timestamp >= (start + duration) || revoked) {... */\n    tag_183:\n        /* \"contracts/WallyVesting.sol\":3335:3358  block.timestamp - start */\n      tag_185\n        /* \"contracts/WallyVesting.sol\":3132:3147  block.timestamp */\n      swap1\n      timestamp\n        /* \"contracts/WallyVesting.sol\":3335:3358  block.timestamp - start */\n      tag_5\n      jump\t// in\n    tag_185:\n        /* \"contracts/WallyVesting.sol\":507:3776  contract WallyVesting is AccessControl {... */\n      swap1\n      dup2\n      dup2\n      mul\n      swap2\n      dup2\n      dup4\n      div\n      eq\n      swap1\n      iszero\n      or\n      iszero\n      tag_169\n      jumpi\n      dup2\n      iszero\n      tag_188\n      jumpi\n      div\n        /* \"contracts/WallyVesting.sol\":3441:3454  return vested */\n      swap1\n      jump\t// out\n        /* \"contracts/WallyVesting.sol\":507:3776  contract WallyVesting is AccessControl {... */\n    tag_188:\n      mstore(0x00, shl(0xe0, 0x4e487b71))\n      0x12\n        /* \"contracts/WallyVesting.sol\":3030:3060  token.balanceOf(address(this)) */\n      0x04\n        /* \"contracts/WallyVesting.sol\":507:3776  contract WallyVesting is AccessControl {... */\n      mstore\n        /* \"contracts/WallyVesting.sol\":3030:3060  token.balanceOf(address(this)) */\n      0x24\n        /* \"contracts/WallyVesting.sol\":507:3776  contract WallyVesting is AccessControl {... */\n      0x00\n      revert\n        /* \"contracts/WallyVesting.sol\":3200:3248  block.timestamp >= (start + duration) || revoked */\n    tag_181:\n        /* \"contracts/WallyVesting.sol\":507:3776  contract WallyVesting is AccessControl {... */\n      pop\n      0xff\n        /* \"contracts/WallyVesting.sol\":3241:3248  revoked */\n      0x02\n        /* \"contracts/WallyVesting.sol\":507:3776  contract WallyVesting is AccessControl {... */\n      sload\n      and\n        /* \"contracts/WallyVesting.sol\":3200:3248  block.timestamp >= (start + duration) || revoked */\n      jump(tag_182)\n        /* \"contracts/WallyVesting.sol\":3030:3060  token.balanceOf(address(this)) */\n    tag_175:\n      pop\n        /* \"contracts/WallyVesting.sol\":507:3776  contract WallyVesting is AccessControl {... */\n      0x20\n        /* \"contracts/WallyVesting.sol\":3030:3060  token.balanceOf(address(this)) */\n      dup2\n      returndatasize\n        /* \"contracts/WallyVesting.sol\":507:3776  contract WallyVesting is AccessControl {... */\n      0x20\n        /* \"contracts/WallyVesting.sol\":3030:3060  token.balanceOf(address(this)) */\n      gt\n      tag_190\n      jumpi\n    tag_191:\n      dup2\n      tag_192\n        /* \"contracts/WallyVesting.sol\":507:3776  contract WallyVesting is AccessControl {... */\n      0x20\n        /* \"contracts/WallyVesting.sol\":3030:3060  token.balanceOf(address(this)) */\n      swap4\n      dup4\n      tag_3\n      jump\t// in\n    tag_192:\n      dup2\n      add\n        /* \"contracts/WallyVesting.sol\":507:3776  contract WallyVesting is AccessControl {... */\n      sub\n      slt\n      tag_44\n      jumpi\n        /* \"contracts/WallyVesting.sol\":3094:3117  totalCurrent + released */\n      tag_177\n        /* \"contracts/WallyVesting.sol\":507:3776  contract WallyVesting is AccessControl {... */\n      swap1\n      mload\n        /* \"contracts/WallyVesting.sol\":3030:3060  token.balanceOf(address(this)) */\n      jump(tag_176)\n    tag_190:\n      returndatasize\n      swap2\n      pop\n      jump(tag_191)\n        /* \"contracts/WallyVesting.sol\":507:3776  contract WallyVesting is AccessControl {... */\n    tag_7:\n      swap1\n      dup2\n      0x20\n      swap2\n      sub\n      slt\n      tag_44\n      jumpi\n      mload\n      dup1\n      iszero\n      iszero\n      dup2\n      sub\n      tag_44\n      jumpi\n      swap1\n      jump\t// out\n        /* \"@openzeppelin/contracts/access/AccessControl.sol\":3199:3302  function _checkRole(bytes32 role) internal view virtual {... */\n    tag_9:\n        /* \"@openzeppelin/contracts/access/AccessControl.sol\":2954:2960  _roles */\n      0x00\n        /* \"contracts/WallyVesting.sol\":507:3776  contract WallyVesting is AccessControl {... */\n      dup2\n      dup2\n      mstore\n      0x20\n      dup2\n      dup2\n      mstore\n      0x40\n      dup1\n      dup4\n      keccak256\n        /* \"@openzeppelin/contracts/utils/Context.sol\":735:745  msg.sender */\n      caller\n        /* \"contracts/WallyVesting.sol\":507:3776  contract WallyVesting is AccessControl {... */\n      dup5\n      mstore\n      swap1\n      swap2\n      mstore\n      swap1\n      keccak256\n      sload\n      0xff\n      and\n        /* \"@openzeppelin/contracts/access/AccessControl.sol\":3519:3542  !hasRole(role, account) */\n      iszero\n        /* \"@openzeppelin/contracts/access/AccessControl.sol\":3515:3623  if (!hasRole(role, account)) {... */\n      tag_199\n      jumpi\n        /* \"@openzeppelin/contracts/access/AccessControl.sol\":3199:3302  function _checkRole(bytes32 role) internal view virtual {... */\n      pop\n      jump\t// out\n        /* \"@openzeppelin/contracts/access/AccessControl.sol\":3515:3623  if (!hasRole(role, account)) {... */\n    tag_199:\n        /* \"@openzeppelin/contracts/access/AccessControl.sol\":3565:3612  AccessControlUnauthorizedAccount(account, role) */\n      shl(0xe0, 0xe2517d3f)\n        /* \"@openzeppelin/contracts/access/AccessControl.sol\":2954:2960  _roles */\n      0x00\n        /* \"@openzeppelin/contracts/access/AccessControl.sol\":3565:3612  AccessControlUnauthorizedAccount(account, role) */\n      mstore\n        /* \"@openzeppelin/contracts/utils/Context.sol\":735:745  msg.sender */\n      caller\n        /* \"@openzeppelin/contracts/access/AccessControl.sol\":3565:3612  AccessControlUnauthorizedAccount(account, role) */\n      0x04\n        /* \"contracts/WallyVesting.sol\":507:3776  contract WallyVesting is AccessControl {... */\n      mstore\n      0x24\n      mstore\n      0x44\n        /* \"@openzeppelin/contracts/access/AccessControl.sol\":2954:2960  _roles */\n      0x00\n        /* \"@openzeppelin/contracts/access/AccessControl.sol\":3565:3612  AccessControlUnauthorizedAccount(account, role) */\n      revert\n        /* \"@openzeppelin/contracts/access/AccessControl.sol\":6179:6495  function _grantRole(bytes32 role, address account) internal virtual returns (bool) {... */\n    tag_10:\n        /* \"contracts/WallyVesting.sol\":507:3776  contract WallyVesting is AccessControl {... */\n      0x00\n      dup2\n      dup2\n      mstore\n      0x20\n      dup2\n      dup2\n      mstore\n      0x40\n      dup1\n      dup4\n      keccak256\n      sub(shl(0xa0, 0x01), 0x01)\n      dup7\n      and\n      dup5\n      mstore\n      swap1\n      swap2\n      mstore\n      swap1\n      keccak256\n      sload\n      0xff\n      and\n      tag_201\n      jumpi\n      0x00\n      dup2\n      dup2\n      mstore\n      0x20\n      dup2\n      dup2\n      mstore\n      0x40\n      dup1\n      dup4\n      keccak256\n      sub(shl(0xa0, 0x01), 0x01)\n      swap6\n      swap1\n      swap6\n      and\n      dup1\n      dup5\n      mstore\n      swap5\n      swap1\n      swap2\n      mstore\n      dup2\n      keccak256\n      dup1\n      sload\n      not(0xff)\n      and\n      0x01\n      or\n      swap1\n      sstore\n        /* \"@openzeppelin/contracts/utils/Context.sol\":735:745  msg.sender */\n      caller\n      swap3\n        /* \"contracts/WallyVesting.sol\":507:3776  contract WallyVesting is AccessControl {... */\n      swap2\n      swap1\n        /* \"@openzeppelin/contracts/access/AccessControl.sol\":6370:6410  RoleGranted(role, account, _msgSender()) */\n      0x2f8788117e7eff1d82e926ec794901d17c78024a50270940304540a733656f0d\n      swap1\n        /* \"contracts/WallyVesting.sol\":507:3776  contract WallyVesting is AccessControl {... */\n      dup1\n        /* \"@openzeppelin/contracts/access/AccessControl.sol\":6370:6410  RoleGranted(role, account, _msgSender()) */\n      log4\n        /* \"@openzeppelin/contracts/access/AccessControl.sol\":6347:6351  true */\n      0x01\n        /* \"@openzeppelin/contracts/access/AccessControl.sol\":6424:6435  return true */\n      swap1\n      jump\t// out\n        /* \"@openzeppelin/contracts/access/AccessControl.sol\":6272:6489  if (!hasRole(role, account)) {... */\n    tag_201:\n        /* \"@openzeppelin/contracts/access/AccessControl.sol\":6466:6478  return false */\n      pop\n      pop\n        /* \"contracts/WallyVesting.sol\":507:3776  contract WallyVesting is AccessControl {... */\n      0x00\n        /* \"@openzeppelin/contracts/access/AccessControl.sol\":6466:6478  return false */\n      swap1\n      jump\t// out\n        /* \"@openzeppelin/contracts/access/AccessControl.sol\":6730:7047  function _revokeRole(bytes32 role, address account) internal virtual returns (bool) {... */\n    tag_11:\n        /* \"contracts/WallyVesting.sol\":507:3776  contract WallyVesting is AccessControl {... */\n      0x00\n      dup2\n      dup2\n      mstore\n      0x20\n      dup2\n      dup2\n      mstore\n      0x40\n      dup1\n      dup4\n      keccak256\n      sub(shl(0xa0, 0x01), 0x01)\n      dup7\n      and\n      dup5\n      mstore\n      swap1\n      swap2\n      mstore\n      swap1\n      keccak256\n      sload\n      0xff\n      and\n      iszero\n      tag_201\n      jumpi\n      0x00\n      dup2\n      dup2\n      mstore\n      0x20\n      dup2\n      dup2\n      mstore\n      0x40\n      dup1\n      dup4\n      keccak256\n      sub(shl(0xa0, 0x01), 0x01)\n      swap6\n      swap1\n      swap6\n      and\n      dup1\n      dup5\n      mstore\n      swap5\n      swap1\n      swap2\n      mstore\n      dup2\n      keccak256\n      dup1\n      sload\n      not(0xff)\n      and\n      swap1\n      sstore\n        /* \"@openzeppelin/contracts/utils/Context.sol\":735:745  msg.sender */\n      caller\n      swap3\n        /* \"contracts/WallyVesting.sol\":507:3776  contract WallyVesting is AccessControl {... */\n      swap2\n      swap1\n        /* \"@openzeppelin/contracts/access/AccessControl.sol\":6922:6962  RoleRevoked(role, account, _msgSender()) */\n      0xf6391f5c32d9c69d2a47ea670b442974b53935d1edc7fd64eb21e047a839171b\n      swap1\n        /* \"contracts/WallyVesting.sol\":507:3776  contract WallyVesting is AccessControl {... */\n      dup1\n        /* \"@openzeppelin/contracts/access/AccessControl.sol\":6922:6962  RoleRevoked(role, account, _msgSender()) */\n      log4\n        /* \"contracts/WallyVesting.sol\":507:3776  contract WallyVesting is AccessControl {... */\n      0x01\n        /* \"@openzeppelin/contracts/access/AccessControl.sol\":6976:6987  return true */\n      swap1\n      jump\t// out\n\n    auxdata: 0xa26469706673582212201c8a89dd5b9b1077ec422321e2ae85e2f34d944af6de4d309ee01018cc7ed49d64736f6c634300081c0033\n}\n",
				"bytecode": {
					"linkReferences": {},
					"object": "610120601f610c8938819003918201601f19168301916001600160401b038311848410176101505780849260c09460405283398101031261014c5761004381610164565b61004f60208301610164565b9060408301519160608401519161006d60a060808701519601610164565b6001600160a01b0390911690811561013d576001600160a01b0383161561013d576001600160a01b0381161561013d5785841161012e576100ad90610178565b5060805260a0528160e052810180911161011a5760c05261010052604051610a459081610224823960805181818161017d01528181610461015261076a015260a0518181816104280152610578015260c051816107b1015260e05181610800015261010051816107de0152f35b634e487b7160e01b5f52601160045260245ffd5b6367f675ff60e01b5f5260045ffd5b63e6c4247b60e01b5f5260045ffd5b5f80fd5b634e487b7160e01b5f52604160045260245ffd5b51906001600160a01b038216820361014c57565b6001600160a01b0381165f9081525f516020610c695f395f51905f52602052604090205460ff1661021e576001600160a01b03165f8181525f516020610c695f395f51905f5260205260408120805460ff191660011790553391907fa49807205ce4d355092ef5a8a18f56e8913cf4a201fbe287825b095693c21775907f2f8788117e7eff1d82e926ec794901d17c78024a50270940304540a733656f0d9080a4600190565b505f9056fe6080806040526004361015610012575f80fd5b5f3560e01c90816301ffc9a71461067257508063248a9ca3146106485780632bc9ed02146106265780632f2ff15d146105f757806336568abe146105c157806344b1231f146105a7578063565a2e2c146105635780635b9400811461053e57806386d1a69f1461039857806391d148541461035d578063a217fddf14610343578063b6549f751461010d578063d547741f146100d75763e33b7de3146100b6575f80fd5b346100d3575f3660031901126100d3576020600154604051908152f35b5f80fd5b346100d35761010b6100e8366106c5565b90610106610101825f525f602052600160405f20015490565b6108cf565b61098f565b005b346100d3575f3660031901126100d357335f9081527f7d7ffb7a348e1c6a02869081a26547b49160dd3df72d1d75a570eb9b698292ec602052604090205460ff161561030c5760025460ff81166102fd5760ff19166001176002556040516370a0823160e01b81523060048201527f00000000000000000000000000000000000000000000000000000000000000006001600160a01b031690602081602481855afa9081156102b7575f916102cb575b506101d26101c961074f565b60015490610742565b808211156102c2576101e391610742565b905b81610211575b7fab9bb9a2dbce8eb1c5199596521d57563c7289fb1ac680030c44e9a0d16e6ed05f80a1005b60405163a9059cbb60e01b81523360048201526024810192909252602090829060449082905f905af19081156102b7575f91610288575b50156102555780806101eb565b60405162461bcd60e51b815260206004820152600b60248201526a1499599d5b990819985a5b60aa1b6044820152606490fd5b6102aa915060203d6020116102b0575b6102a281836106eb565b8101906108b7565b81610248565b503d610298565b6040513d5f823e3d90fd5b50505f906101e5565b90506020813d6020116102f5575b816102e6602093836106eb565b810103126100d35751826101bd565b3d91506102d9565b6301404c2b60e01b5f5260045ffd5b63e2517d3f60e01b5f52336004527fa49807205ce4d355092ef5a8a18f56e8913cf4a201fbe287825b095693c2177560245260445ffd5b346100d3575f3660031901126100d35760206040515f8152f35b346100d35761036b366106c5565b905f525f60205260405f209060018060a01b03165f52602052602060ff60405f2054166040519015158152f35b346100d3575f3660031901126100d357335f9081527f7d7ffb7a348e1c6a02869081a26547b49160dd3df72d1d75a570eb9b698292ec602052604090205460ff161561052f5760ff600254166102fd576103f061074f565b6103fd6001548092610742565b908115610520578161040e91610721565b60015560405163a9059cbb60e01b81526001600160a01b037f000000000000000000000000000000000000000000000000000000000000000016600482015260248101829052602081806044810103815f7f00000000000000000000000000000000000000000000000000000000000000006001600160a01b03165af19081156102b7575f91610501575b50156104cc5760207fa1598fb976f7dd9df63fd18699c54a5744a6a95364166bbd0d77a2f6c8438b1f91604051908152a1005b60405162461bcd60e51b815260206004820152600d60248201526c151c985b9cd9995c8819985a5b609a1b6044820152606490fd5b61051a915060203d6020116102b0576102a281836106eb565b82610499565b63b10205ed60e01b5f5260045ffd5b63ea8e4eb560e01b5f5260045ffd5b346100d3575f3660031901126100d357602061055b6101c961074f565b604051908152f35b346100d3575f3660031901126100d3576040517f00000000000000000000000000000000000000000000000000000000000000006001600160a01b03168152602090f35b346100d3575f3660031901126100d357602061055b61074f565b346100d3576105cf366106c5565b336001600160a01b038216036105e85761010b9161098f565b63334bd91960e11b5f5260045ffd5b346100d35761010b610608366106c5565b90610621610101825f525f602052600160405f20015490565b610907565b346100d3575f3660031901126100d357602060ff600254166040519015158152f35b346100d35760203660031901126100d357602061055b6004355f525f602052600160405f20015490565b346100d35760203660031901126100d3576004359063ffffffff60e01b82168092036100d357602091637965db0b60e01b81149081156106b4575b5015158152f35b6301ffc9a760e01b149050836106ad565b60409060031901126100d357600435906024356001600160a01b03811681036100d35790565b90601f8019910116810190811067ffffffffffffffff82111761070d57604052565b634e487b7160e01b5f52604160045260245ffd5b9190820180921161072e57565b634e487b7160e01b5f52601160045260245ffd5b9190820391821161072e57565b6040516370a0823160e01b81523060048201526020816024817f00000000000000000000000000000000000000000000000000000000000000006001600160a01b03165afa80156102b7575f90610883575b6107af915060015490610721565b7f00000000000000000000000000000000000000000000000000000000000000004210156107dc57505f90565b7f0000000000000000000000000000000000000000000000000000000000000000907f00000000000000000000000000000000000000000000000000000000000000006108298382610721565b4210801590610877575b1561083e5750905090565b6108489042610742565b9081810291818304149015171561072e578115610863570490565b634e487b7160e01b5f52601260045260245ffd5b5060ff60025416610833565b506020813d6020116108af575b8161089d602093836106eb565b810103126100d3576107af90516107a1565b3d9150610890565b908160209103126100d3575180151581036100d35790565b5f8181526020818152604080832033845290915290205460ff16156108f15750565b63e2517d3f60e01b5f523360045260245260445ffd5b5f818152602081815260408083206001600160a01b038616845290915290205460ff16610989575f818152602081815260408083206001600160a01b0395909516808452949091528120805460ff19166001179055339291907f2f8788117e7eff1d82e926ec794901d17c78024a50270940304540a733656f0d9080a4600190565b50505f90565b5f818152602081815260408083206001600160a01b038616845290915290205460ff1615610989575f818152602081815260408083206001600160a01b0395909516808452949091528120805460ff19169055339291907ff6391f5c32d9c69d2a47ea670b442974b53935d1edc7fd64eb21e047a839171b9080a460019056fea26469706673582212201c8a89dd5b9b1077ec422321e2ae85e2f34d944af6de4d309ee01018cc7ed49d64736f6c634300081c00337d7ffb7a348e1c6a02869081a26547b49160dd3df72d1d75a570eb9b698292ec",
					"opcodes": "PUSH2 0x120 PUSH1 0x1F PUSH2 0xC89 CODESIZE DUP2 SWAP1 SUB SWAP2 DUP3 ADD PUSH1 0x1F NOT AND DUP4 ADD SWAP2 PUSH1 0x1 PUSH1 0x1 PUSH1 0x40 SHL SUB DUP4 GT DUP5 DUP5 LT OR PUSH2 0x150 JUMPI DUP1 DUP5 SWAP3 PUSH1 0xC0 SWAP5 PUSH1 0x40 MSTORE DUP4 CODECOPY DUP2 ADD SUB SLT PUSH2 0x14C JUMPI PUSH2 0x43 DUP2 PUSH2 0x164 JUMP JUMPDEST PUSH2 0x4F PUSH1 0x20 DUP4 ADD PUSH2 0x164 JUMP JUMPDEST SWAP1 PUSH1 0x40 DUP4 ADD MLOAD SWAP2 PUSH1 0x60 DUP5 ADD MLOAD SWAP2 PUSH2 0x6D PUSH1 0xA0 PUSH1 0x80 DUP8 ADD MLOAD SWAP7 ADD PUSH2 0x164 JUMP JUMPDEST PUSH1 0x1 PUSH1 0x1 PUSH1 0xA0 SHL SUB SWAP1 SWAP2 AND SWAP1 DUP2 ISZERO PUSH2 0x13D JUMPI PUSH1 0x1 PUSH1 0x1 PUSH1 0xA0 SHL SUB DUP4 AND ISZERO PUSH2 0x13D JUMPI PUSH1 0x1 PUSH1 0x1 PUSH1 0xA0 SHL SUB DUP2 AND ISZERO PUSH2 0x13D JUMPI DUP6 DUP5 GT PUSH2 0x12E JUMPI PUSH2 0xAD SWAP1 PUSH2 0x178 JUMP JUMPDEST POP PUSH1 0x80 MSTORE PUSH1 0xA0 MSTORE DUP2 PUSH1 0xE0 MSTORE DUP2 ADD DUP1 SWAP2 GT PUSH2 0x11A JUMPI PUSH1 0xC0 MSTORE PUSH2 0x100 MSTORE PUSH1 0x40 MLOAD PUSH2 0xA45 SWAP1 DUP2 PUSH2 0x224 DUP3 CODECOPY PUSH1 0x80 MLOAD DUP2 DUP2 DUP2 PUSH2 0x17D ADD MSTORE DUP2 DUP2 PUSH2 0x461 ADD MSTORE PUSH2 0x76A ADD MSTORE PUSH1 0xA0 MLOAD DUP2 DUP2 DUP2 PUSH2 0x428 ADD MSTORE PUSH2 0x578 ADD MSTORE PUSH1 0xC0 MLOAD DUP2 PUSH2 0x7B1 ADD MSTORE PUSH1 0xE0 MLOAD DUP2 PUSH2 0x800 ADD MSTORE PUSH2 0x100 MLOAD DUP2 PUSH2 0x7DE ADD MSTORE RETURN JUMPDEST PUSH4 0x4E487B71 PUSH1 0xE0 SHL PUSH0 MSTORE PUSH1 0x11 PUSH1 0x4 MSTORE PUSH1 0x24 PUSH0 REVERT JUMPDEST PUSH4 0x67F675FF PUSH1 0xE0 SHL PUSH0 MSTORE PUSH1 0x4 PUSH0 REVERT JUMPDEST PUSH4 0xE6C4247B PUSH1 0xE0 SHL PUSH0 MSTORE PUSH1 0x4 PUSH0 REVERT JUMPDEST PUSH0 DUP1 REVERT JUMPDEST PUSH4 0x4E487B71 PUSH1 0xE0 SHL PUSH0 MSTORE PUSH1 0x41 PUSH1 0x4 MSTORE PUSH1 0x24 PUSH0 REVERT JUMPDEST MLOAD SWAP1 PUSH1 0x1 PUSH1 0x1 PUSH1 0xA0 SHL SUB DUP3 AND DUP3 SUB PUSH2 0x14C JUMPI JUMP JUMPDEST PUSH1 0x1 PUSH1 0x1 PUSH1 0xA0 SHL SUB DUP2 AND PUSH0 SWAP1 DUP2 MSTORE PUSH0 MLOAD PUSH1 0x20 PUSH2 0xC69 PUSH0 CODECOPY PUSH0 MLOAD SWAP1 PUSH0 MSTORE PUSH1 0x20 MSTORE PUSH1 0x40 SWAP1 KECCAK256 SLOAD PUSH1 0xFF AND PUSH2 0x21E JUMPI PUSH1 0x1 PUSH1 0x1 PUSH1 0xA0 SHL SUB AND PUSH0 DUP2 DUP2 MSTORE PUSH0 MLOAD PUSH1 0x20 PUSH2 0xC69 PUSH0 CODECOPY PUSH0 MLOAD SWAP1 PUSH0 MSTORE PUSH1 0x20 MSTORE PUSH1 0x40 DUP2 KECCAK256 DUP1 SLOAD PUSH1 0xFF NOT AND PUSH1 0x1 OR SWAP1 SSTORE CALLER SWAP2 SWAP1 PUSH32 0xA49807205CE4D355092EF5A8A18F56E8913CF4A201FBE287825B095693C21775 SWAP1 PUSH32 0x2F8788117E7EFF1D82E926EC794901D17C78024A50270940304540A733656F0D SWAP1 DUP1 LOG4 PUSH1 0x1 SWAP1 JUMP JUMPDEST POP PUSH0 SWAP1 JUMP INVALID PUSH1 0x80 DUP1 PUSH1 0x40 MSTORE PUSH1 0x4 CALLDATASIZE LT ISZERO PUSH2 0x12 JUMPI PUSH0 DUP1 REVERT JUMPDEST PUSH0 CALLDATALOAD PUSH1 0xE0 SHR SWAP1 DUP2 PUSH4 0x1FFC9A7 EQ PUSH2 0x672 JUMPI POP DUP1 PUSH4 0x248A9CA3 EQ PUSH2 0x648 JUMPI DUP1 PUSH4 0x2BC9ED02 EQ PUSH2 0x626 JUMPI DUP1 PUSH4 0x2F2FF15D EQ PUSH2 0x5F7 JUMPI DUP1 PUSH4 0x36568ABE EQ PUSH2 0x5C1 JUMPI DUP1 PUSH4 0x44B1231F EQ PUSH2 0x5A7 JUMPI DUP1 PUSH4 0x565A2E2C EQ PUSH2 0x563 JUMPI DUP1 PUSH4 0x5B940081 EQ PUSH2 0x53E JUMPI DUP1 PUSH4 0x86D1A69F EQ PUSH2 0x398 JUMPI DUP1 PUSH4 0x91D14854 EQ PUSH2 0x35D JUMPI DUP1 PUSH4 0xA217FDDF EQ PUSH2 0x343 JUMPI DUP1 PUSH4 0xB6549F75 EQ PUSH2 0x10D JUMPI DUP1 PUSH4 0xD547741F EQ PUSH2 0xD7 JUMPI PUSH4 0xE33B7DE3 EQ PUSH2 0xB6 JUMPI PUSH0 DUP1 REVERT JUMPDEST CALLVALUE PUSH2 0xD3 JUMPI PUSH0 CALLDATASIZE PUSH1 0x3 NOT ADD SLT PUSH2 0xD3 JUMPI PUSH1 0x20 PUSH1 0x1 SLOAD PUSH1 0x40 MLOAD SWAP1 DUP2 MSTORE RETURN JUMPDEST PUSH0 DUP1 REVERT JUMPDEST CALLVALUE PUSH2 0xD3 JUMPI PUSH2 0x10B PUSH2 0xE8 CALLDATASIZE PUSH2 0x6C5 JUMP JUMPDEST SWAP1 PUSH2 0x106 PUSH2 0x101 DUP3 PUSH0 MSTORE PUSH0 PUSH1 0x20 MSTORE PUSH1 0x1 PUSH1 0x40 PUSH0 KECCAK256 ADD SLOAD SWAP1 JUMP JUMPDEST PUSH2 0x8CF JUMP JUMPDEST PUSH2 0x98F JUMP JUMPDEST STOP JUMPDEST CALLVALUE PUSH2 0xD3 JUMPI PUSH0 CALLDATASIZE PUSH1 0x3 NOT ADD SLT PUSH2 0xD3 JUMPI CALLER PUSH0 SWAP1 DUP2 MSTORE PUSH32 0x7D7FFB7A348E1C6A02869081A26547B49160DD3DF72D1D75A570EB9B698292EC PUSH1 0x20 MSTORE PUSH1 0x40 SWAP1 KECCAK256 SLOAD PUSH1 0xFF AND ISZERO PUSH2 0x30C JUMPI PUSH1 0x2 SLOAD PUSH1 0xFF DUP2 AND PUSH2 0x2FD JUMPI PUSH1 0xFF NOT AND PUSH1 0x1 OR PUSH1 0x2 SSTORE PUSH1 0x40 MLOAD PUSH4 0x70A08231 PUSH1 0xE0 SHL DUP2 MSTORE ADDRESS PUSH1 0x4 DUP3 ADD MSTORE PUSH32 0x0 PUSH1 0x1 PUSH1 0x1 PUSH1 0xA0 SHL SUB AND SWAP1 PUSH1 0x20 DUP2 PUSH1 0x24 DUP2 DUP6 GAS STATICCALL SWAP1 DUP2 ISZERO PUSH2 0x2B7 JUMPI PUSH0 SWAP2 PUSH2 0x2CB JUMPI JUMPDEST POP PUSH2 0x1D2 PUSH2 0x1C9 PUSH2 0x74F JUMP JUMPDEST PUSH1 0x1 SLOAD SWAP1 PUSH2 0x742 JUMP JUMPDEST DUP1 DUP3 GT ISZERO PUSH2 0x2C2 JUMPI PUSH2 0x1E3 SWAP2 PUSH2 0x742 JUMP JUMPDEST SWAP1 JUMPDEST DUP2 PUSH2 0x211 JUMPI JUMPDEST PUSH32 0xAB9BB9A2DBCE8EB1C5199596521D57563C7289FB1AC680030C44E9A0D16E6ED0 PUSH0 DUP1 LOG1 STOP JUMPDEST PUSH1 0x40 MLOAD PUSH4 0xA9059CBB PUSH1 0xE0 SHL DUP2 MSTORE CALLER PUSH1 0x4 DUP3 ADD MSTORE PUSH1 0x24 DUP2 ADD SWAP3 SWAP1 SWAP3 MSTORE PUSH1 0x20 SWAP1 DUP3 SWAP1 PUSH1 0x44 SWAP1 DUP3 SWAP1 PUSH0 SWAP1 GAS CALL SWAP1 DUP2 ISZERO PUSH2 0x2B7 JUMPI PUSH0 SWAP2 PUSH2 0x288 JUMPI JUMPDEST POP ISZERO PUSH2 0x255 JUMPI DUP1 DUP1 PUSH2 0x1EB JUMP JUMPDEST PUSH1 0x40 MLOAD PUSH3 0x461BCD PUSH1 0xE5 SHL DUP2 MSTORE PUSH1 0x20 PUSH1 0x4 DUP3 ADD MSTORE PUSH1 0xB PUSH1 0x24 DUP3 ADD MSTORE PUSH11 0x1499599D5B990819985A5B PUSH1 0xAA SHL PUSH1 0x44 DUP3 ADD MSTORE PUSH1 0x64 SWAP1 REVERT JUMPDEST PUSH2 0x2AA SWAP2 POP PUSH1 0x20 RETURNDATASIZE PUSH1 0x20 GT PUSH2 0x2B0 JUMPI JUMPDEST PUSH2 0x2A2 DUP2 DUP4 PUSH2 0x6EB JUMP JUMPDEST DUP2 ADD SWAP1 PUSH2 0x8B7 JUMP JUMPDEST DUP2 PUSH2 0x248 JUMP JUMPDEST POP RETURNDATASIZE PUSH2 0x298 JUMP JUMPDEST PUSH1 0x40 MLOAD RETURNDATASIZE PUSH0 DUP3 RETURNDATACOPY RETURNDATASIZE SWAP1 REVERT JUMPDEST POP POP PUSH0 SWAP1 PUSH2 0x1E5 JUMP JUMPDEST SWAP1 POP PUSH1 0x20 DUP2 RETURNDATASIZE PUSH1 0x20 GT PUSH2 0x2F5 JUMPI JUMPDEST DUP2 PUSH2 0x2E6 PUSH1 0x20 SWAP4 DUP4 PUSH2 0x6EB JUMP JUMPDEST DUP2 ADD SUB SLT PUSH2 0xD3 JUMPI MLOAD DUP3 PUSH2 0x1BD JUMP JUMPDEST RETURNDATASIZE SWAP2 POP PUSH2 0x2D9 JUMP JUMPDEST PUSH4 0x1404C2B PUSH1 0xE0 SHL PUSH0 MSTORE PUSH1 0x4 PUSH0 REVERT JUMPDEST PUSH4 0xE2517D3F PUSH1 0xE0 SHL PUSH0 MSTORE CALLER PUSH1 0x4 MSTORE PUSH32 0xA49807205CE4D355092EF5A8A18F56E8913CF4A201FBE287825B095693C21775 PUSH1 0x24 MSTORE PUSH1 0x44 PUSH0 REVERT JUMPDEST CALLVALUE PUSH2 0xD3 JUMPI PUSH0 CALLDATASIZE PUSH1 0x3 NOT ADD SLT PUSH2 0xD3 JUMPI PUSH1 0x20 PUSH1 0x40 MLOAD PUSH0 DUP2 MSTORE RETURN JUMPDEST CALLVALUE PUSH2 0xD3 JUMPI PUSH2 0x36B CALLDATASIZE PUSH2 0x6C5 JUMP JUMPDEST SWAP1 PUSH0 MSTORE PUSH0 PUSH1 0x20 MSTORE PUSH1 0x40 PUSH0 KECCAK256 SWAP1 PUSH1 0x1 DUP1 PUSH1 0xA0 SHL SUB AND PUSH0 MSTORE PUSH1 0x20 MSTORE PUSH1 0x20 PUSH1 0xFF PUSH1 0x40 PUSH0 KECCAK256 SLOAD AND PUSH1 0x40 MLOAD SWAP1 ISZERO ISZERO DUP2 MSTORE RETURN JUMPDEST CALLVALUE PUSH2 0xD3 JUMPI PUSH0 CALLDATASIZE PUSH1 0x3 NOT ADD SLT PUSH2 0xD3 JUMPI CALLER PUSH0 SWAP1 DUP2 MSTORE PUSH32 0x7D7FFB7A348E1C6A02869081A26547B49160DD3DF72D1D75A570EB9B698292EC PUSH1 0x20 MSTORE PUSH1 0x40 SWAP1 KECCAK256 SLOAD PUSH1 0xFF AND ISZERO PUSH2 0x52F JUMPI PUSH1 0xFF PUSH1 0x2 SLOAD AND PUSH2 0x2FD JUMPI PUSH2 0x3F0 PUSH2 0x74F JUMP JUMPDEST PUSH2 0x3FD PUSH1 0x1 SLOAD DUP1 SWAP3 PUSH2 0x742 JUMP JUMPDEST SWAP1 DUP2 ISZERO PUSH2 0x520 JUMPI DUP2 PUSH2 0x40E SWAP2 PUSH2 0x721 JUMP JUMPDEST PUSH1 0x1 SSTORE PUSH1 0x40 MLOAD PUSH4 0xA9059CBB PUSH1 0xE0 SHL DUP2 MSTORE PUSH1 0x1 PUSH1 0x1 PUSH1 0xA0 SHL SUB PUSH32 0x0 AND PUSH1 0x4 DUP3 ADD MSTORE PUSH1 0x24 DUP2 ADD DUP3 SWAP1 MSTORE PUSH1 0x20 DUP2 DUP1 PUSH1 0x44 DUP2 ADD SUB DUP2 PUSH0 PUSH32 0x0 PUSH1 0x1 PUSH1 0x1 PUSH1 0xA0 SHL SUB AND GAS CALL SWAP1 DUP2 ISZERO PUSH2 0x2B7 JUMPI PUSH0 SWAP2 PUSH2 0x501 JUMPI JUMPDEST POP ISZERO PUSH2 0x4CC JUMPI PUSH1 0x20 PUSH32 0xA1598FB976F7DD9DF63FD18699C54A5744A6A95364166BBD0D77A2F6C8438B1F SWAP2 PUSH1 0x40 MLOAD SWAP1 DUP2 MSTORE LOG1 STOP JUMPDEST PUSH1 0x40 MLOAD PUSH3 0x461BCD PUSH1 0xE5 SHL DUP2 MSTORE PUSH1 0x20 PUSH1 0x4 DUP3 ADD MSTORE PUSH1 0xD PUSH1 0x24 DUP3 ADD MSTORE PUSH13 0x151C985B9CD9995C8819985A5B PUSH1 0x9A SHL PUSH1 0x44 DUP3 ADD MSTORE PUSH1 0x64 SWAP1 REVERT JUMPDEST PUSH2 0x51A SWAP2 POP PUSH1 0x20 RETURNDATASIZE PUSH1 0x20 GT PUSH2 0x2B0 JUMPI PUSH2 0x2A2 DUP2 DUP4 PUSH2 0x6EB JUMP JUMPDEST DUP3 PUSH2 0x499 JUMP JUMPDEST PUSH4 0xB10205ED PUSH1 0xE0 SHL PUSH0 MSTORE PUSH1 0x4 PUSH0 REVERT JUMPDEST PUSH4 0xEA8E4EB5 PUSH1 0xE0 SHL PUSH0 MSTORE PUSH1 0x4 PUSH0 REVERT JUMPDEST CALLVALUE PUSH2 0xD3 JUMPI PUSH0 CALLDATASIZE PUSH1 0x3 NOT ADD SLT PUSH2 0xD3 JUMPI PUSH1 0x20 PUSH2 0x55B PUSH2 0x1C9 PUSH2 0x74F JUMP JUMPDEST PUSH1 0x40 MLOAD SWAP1 DUP2 MSTORE RETURN JUMPDEST CALLVALUE PUSH2 0xD3 JUMPI PUSH0 CALLDATASIZE PUSH1 0x3 NOT ADD SLT PUSH2 0xD3 JUMPI PUSH1 0x40 MLOAD PUSH32 0x0 PUSH1 0x1 PUSH1 0x1 PUSH1 0xA0 SHL SUB AND DUP2 MSTORE PUSH1 0x20 SWAP1 RETURN JUMPDEST CALLVALUE PUSH2 0xD3 JUMPI PUSH0 CALLDATASIZE PUSH1 0x3 NOT ADD SLT PUSH2 0xD3 JUMPI PUSH1 0x20 PUSH2 0x55B PUSH2 0x74F JUMP JUMPDEST CALLVALUE PUSH2 0xD3 JUMPI PUSH2 0x5CF CALLDATASIZE PUSH2 0x6C5 JUMP JUMPDEST CALLER PUSH1 0x1 PUSH1 0x1 PUSH1 0xA0 SHL SUB DUP3 AND SUB PUSH2 0x5E8 JUMPI PUSH2 0x10B SWAP2 PUSH2 0x98F JUMP JUMPDEST PUSH4 0x334BD919 PUSH1 0xE1 SHL PUSH0 MSTORE PUSH1 0x4 PUSH0 REVERT JUMPDEST CALLVALUE PUSH2 0xD3 JUMPI PUSH2 0x10B PUSH2 0x608 CALLDATASIZE PUSH2 0x6C5 JUMP JUMPDEST SWAP1 PUSH2 0x621 PUSH2 0x101 DUP3 PUSH0 MSTORE PUSH0 PUSH1 0x20 MSTORE PUSH1 0x1 PUSH1 0x40 PUSH0 KECCAK256 ADD SLOAD SWAP1 JUMP JUMPDEST PUSH2 0x907 JUMP JUMPDEST CALLVALUE PUSH2 0xD3 JUMPI PUSH0 CALLDATASIZE PUSH1 0x3 NOT ADD SLT PUSH2 0xD3 JUMPI PUSH1 0x20 PUSH1 0xFF PUSH1 0x2 SLOAD AND PUSH1 0x40 MLOAD SWAP1 ISZERO ISZERO DUP2 MSTORE RETURN JUMPDEST CALLVALUE PUSH2 0xD3 JUMPI PUSH1 0x20 CALLDATASIZE PUSH1 0x3 NOT ADD SLT PUSH2 0xD3 JUMPI PUSH1 0x20 PUSH2 0x55B PUSH1 0x4 CALLDATALOAD PUSH0 MSTORE PUSH0 PUSH1 0x20 MSTORE PUSH1 0x1 PUSH1 0x40 PUSH0 KECCAK256 ADD SLOAD SWAP1 JUMP JUMPDEST CALLVALUE PUSH2 0xD3 JUMPI PUSH1 0x20 CALLDATASIZE PUSH1 0x3 NOT ADD SLT PUSH2 0xD3 JUMPI PUSH1 0x4 CALLDATALOAD SWAP1 PUSH4 0xFFFFFFFF PUSH1 0xE0 SHL DUP3 AND DUP1 SWAP3 SUB PUSH2 0xD3 JUMPI PUSH1 0x20 SWAP2 PUSH4 0x7965DB0B PUSH1 0xE0 SHL DUP2 EQ SWAP1 DUP2 ISZERO PUSH2 0x6B4 JUMPI JUMPDEST POP ISZERO ISZERO DUP2 MSTORE RETURN JUMPDEST PUSH4 0x1FFC9A7 PUSH1 0xE0 SHL EQ SWAP1 POP DUP4 PUSH2 0x6AD JUMP JUMPDEST PUSH1 0x40 SWAP1 PUSH1 0x3 NOT ADD SLT PUSH2 0xD3 JUMPI PUSH1 0x4 CALLDATALOAD SWAP1 PUSH1 0x24 CALLDATALOAD PUSH1 0x1 PUSH1 0x1 PUSH1 0xA0 SHL SUB DUP2 AND DUP2 SUB PUSH2 0xD3 JUMPI SWAP1 JUMP JUMPDEST SWAP1 PUSH1 0x1F DUP1 NOT SWAP2 ADD AND DUP2 ADD SWAP1 DUP2 LT PUSH8 0xFFFFFFFFFFFFFFFF DUP3 GT OR PUSH2 0x70D JUMPI PUSH1 0x40 MSTORE JUMP JUMPDEST PUSH4 0x4E487B71 PUSH1 0xE0 SHL PUSH0 MSTORE PUSH1 0x41 PUSH1 0x4 MSTORE PUSH1 0x24 PUSH0 REVERT JUMPDEST SWAP2 SWAP1 DUP3 ADD DUP1 SWAP3 GT PUSH2 0x72E JUMPI JUMP JUMPDEST PUSH4 0x4E487B71 PUSH1 0xE0 SHL PUSH0 MSTORE PUSH1 0x11 PUSH1 0x4 MSTORE PUSH1 0x24 PUSH0 REVERT JUMPDEST SWAP2 SWAP1 DUP3 SUB SWAP2 DUP3 GT PUSH2 0x72E JUMPI JUMP JUMPDEST PUSH1 0x40 MLOAD PUSH4 0x70A08231 PUSH1 0xE0 SHL DUP2 MSTORE ADDRESS PUSH1 0x4 DUP3 ADD MSTORE PUSH1 0x20 DUP2 PUSH1 0x24 DUP2 PUSH32 0x0 PUSH1 0x1 PUSH1 0x1 PUSH1 0xA0 SHL SUB AND GAS STATICCALL DUP1 ISZERO PUSH2 0x2B7 JUMPI PUSH0 SWAP1 PUSH2 0x883 JUMPI JUMPDEST PUSH2 0x7AF SWAP2 POP PUSH1 0x1 SLOAD SWAP1 PUSH2 0x721 JUMP JUMPDEST PUSH32 0x0 TIMESTAMP LT ISZERO PUSH2 0x7DC JUMPI POP PUSH0 SWAP1 JUMP JUMPDEST PUSH32 0x0 SWAP1 PUSH32 0x0 PUSH2 0x829 DUP4 DUP3 PUSH2 0x721 JUMP JUMPDEST TIMESTAMP LT DUP1 ISZERO SWAP1 PUSH2 0x877 JUMPI JUMPDEST ISZERO PUSH2 0x83E JUMPI POP SWAP1 POP SWAP1 JUMP JUMPDEST PUSH2 0x848 SWAP1 TIMESTAMP PUSH2 0x742 JUMP JUMPDEST SWAP1 DUP2 DUP2 MUL SWAP2 DUP2 DUP4 DIV EQ SWAP1 ISZERO OR ISZERO PUSH2 0x72E JUMPI DUP2 ISZERO PUSH2 0x863 JUMPI DIV SWAP1 JUMP JUMPDEST PUSH4 0x4E487B71 PUSH1 0xE0 SHL PUSH0 MSTORE PUSH1 0x12 PUSH1 0x4 MSTORE PUSH1 0x24 PUSH0 REVERT JUMPDEST POP PUSH1 0xFF PUSH1 0x2 SLOAD AND PUSH2 0x833 JUMP JUMPDEST POP PUSH1 0x20 DUP2 RETURNDATASIZE PUSH1 0x20 GT PUSH2 0x8AF JUMPI JUMPDEST DUP2 PUSH2 0x89D PUSH1 0x20 SWAP4 DUP4 PUSH2 0x6EB JUMP JUMPDEST DUP2 ADD SUB SLT PUSH2 0xD3 JUMPI PUSH2 0x7AF SWAP1 MLOAD PUSH2 0x7A1 JUMP JUMPDEST RETURNDATASIZE SWAP2 POP PUSH2 0x890 JUMP JUMPDEST SWAP1 DUP2 PUSH1 0x20 SWAP2 SUB SLT PUSH2 0xD3 JUMPI MLOAD DUP1 ISZERO ISZERO DUP2 SUB PUSH2 0xD3 JUMPI SWAP1 JUMP JUMPDEST PUSH0 DUP2 DUP2 MSTORE PUSH1 0x20 DUP2 DUP2 MSTORE PUSH1 0x40 DUP1 DUP4 KECCAK256 CALLER DUP5 MSTORE SWAP1 SWAP2 MSTORE SWAP1 KECCAK256 SLOAD PUSH1 0xFF AND ISZERO PUSH2 0x8F1 JUMPI POP JUMP JUMPDEST PUSH4 0xE2517D3F PUSH1 0xE0 SHL PUSH0 MSTORE CALLER PUSH1 0x4 MSTORE PUSH1 0x24 MSTORE PUSH1 0x44 PUSH0 REVERT JUMPDEST PUSH0 DUP2 DUP2 MSTORE PUSH1 0x20 DUP2 DUP2 MSTORE PUSH1 0x40 DUP1 DUP4 KECCAK256 PUSH1 0x1 PUSH1 0x1 PUSH1 0xA0 SHL SUB DUP7 AND DUP5 MSTORE SWAP1 SWAP2 MSTORE SWAP1 KECCAK256 SLOAD PUSH1 0xFF AND PUSH2 0x989 JUMPI PUSH0 DUP2 DUP2 MSTORE PUSH1 0x20 DUP2 DUP2 MSTORE PUSH1 0x40 DUP1 DUP4 KECCAK256 PUSH1 0x1 PUSH1 0x1 PUSH1 0xA0 SHL SUB SWAP6 SWAP1 SWAP6 AND DUP1 DUP5 MSTORE SWAP5 SWAP1 SWAP2 MSTORE DUP2 KECCAK256 DUP1 SLOAD PUSH1 0xFF NOT AND PUSH1 0x1 OR SWAP1 SSTORE CALLER SWAP3 SWAP2 SWAP1 PUSH32 0x2F8788117E7EFF1D82E926EC794901D17C78024A50270940304540A733656F0D SWAP1 DUP1 LOG4 PUSH1 0x1 SWAP1 JUMP JUMPDEST POP POP PUSH0 SWAP1 JUMP JUMPDEST PUSH0 DUP2 DUP2 MSTORE PUSH1 0x20 DUP2 DUP2 MSTORE PUSH1 0x40 DUP1 DUP4 KECCAK256 PUSH1 0x1 PUSH1 0x1 PUSH1 0xA0 SHL SUB DUP7 AND DUP5 MSTORE SWAP1 SWAP2 MSTORE SWAP1 KECCAK256 SLOAD PUSH1 0xFF AND ISZERO PUSH2 0x989 JUMPI PUSH0 DUP2 DUP2 MSTORE PUSH1 0x20 DUP2 DUP2 MSTORE PUSH1 0x40 DUP1 DUP4 KECCAK256 PUSH1 0x1 PUSH1 0x1 PUSH1 0xA0 SHL SUB SWAP6 SWAP1 SWAP6 AND DUP1 DUP5 MSTORE SWAP5 SWAP1 SWAP2 MSTORE DUP2 KECCAK256 DUP1 SLOAD PUSH1 0xFF NOT AND SWAP1 SSTORE CALLER SWAP3 SWAP2 SWAP1 PUSH32 0xF6391F5C32D9C69D2A47EA670B442974B53935D1EDC7FD64EB21E047A839171B SWAP1 DUP1 LOG4 PUSH1 0x1 SWAP1 JUMP INVALID LOG2 PUSH5 0x6970667358 0x22 SLT KECCAK256 SHR DUP11 DUP10 0xDD JUMPDEST SWAP12 LT PUSH24 0xEC422321E2AE85E2F34D944AF6DE4D309EE01018CC7ED49D PUSH5 0x736F6C6343 STOP ADDMOD SHR STOP CALLER PUSH30 0x7FFB7A348E1C6A02869081A26547B49160DD3DF72D1D75A570EB9B698292 0xEC "
				},
				"gasEstimates": {
					"creation": {
						"codeDepositCost": "525800",
						"executionCost": "infinite",
						"totalCost": "infinite"
					},
					"external": {
						"DEFAULT_ADMIN_ROLE()": "372",
						"getBeneficiary()": "infinite",
						"getRoleAdmin(bytes32)": "2363",
						"grantRole(bytes32,address)": "33339",
						"hasRole(bytes32,address)": "2691",
						"isRevoked()": "2312",
						"releasableAmount()": "infinite",
						"release()": "infinite",
						"renounceRole(bytes32,address)": "28929",
						"revoke()": "infinite",
						"revokeRole(bytes32,address)": "33534",
						"supportsInterface(bytes4)": "270",
						"totalReleased()": "2539",
						"vestedAmount()": "infinite"
					}
				},
				"methodIdentifiers": {
					"DEFAULT_ADMIN_ROLE()": "a217fddf",
					"getBeneficiary()": "565a2e2c",
					"getRoleAdmin(bytes32)": "248a9ca3",
					"grantRole(bytes32,address)": "2f2ff15d",
					"hasRole(bytes32,address)": "91d14854",
					"isRevoked()": "2bc9ed02",
					"releasableAmount()": "5b940081",
					"release()": "86d1a69f",
					"renounceRole(bytes32,address)": "36568abe",
					"revoke()": "b6549f75",
					"revokeRole(bytes32,address)": "d547741f",
					"supportsInterface(bytes4)": "01ffc9a7",
					"totalReleased()": "e33b7de3",
					"vestedAmount()": "44b1231f"
				}
			},
			"storageLayout": {
				"storage": [
					{
						"astId": 26,
						"contract": "contracts/WallyVesting.sol:WallyVesting",
						"label": "_roles",
						"offset": 0,
						"slot": "0",
						"type": "t_mapping(t_bytes32,t_struct(RoleData)21_storage)"
					},
					{
						"astId": 557,
						"contract": "contracts/WallyVesting.sol:WallyVesting",
						"label": "released",
						"offset": 0,
						"slot": "1",
						"type": "t_uint256"
					},
					{
						"astId": 559,
						"contract": "contracts/WallyVesting.sol:WallyVesting",
						"label": "revoked",
						"offset": 0,
						"slot": "2",
						"type": "t_bool"
					}
				],
				"types": {
					"t_address": {
						"encoding": "inplace",
						"label": "address",
						"numberOfBytes": "20"
					},
					"t_bool": {
						"encoding": "inplace",
						"label": "bool",
						"numberOfBytes": "1"
					},
					"t_bytes32": {
						"encoding": "inplace",
						"label": "bytes32",
						"numberOfBytes": "32"
					},
					"t_mapping(t_address,t_bool)": {
						"encoding": "mapping",
						"key": "t_address",
						"label": "mapping(address => bool)",
						"numberOfBytes": "32",
						"value": "t_bool"
					},
					"t_mapping(t_bytes32,t_struct(RoleData)21_storage)": {
						"encoding": "mapping",
						"key": "t_bytes32",
						"label": "mapping(bytes32 => struct AccessControl.RoleData)",
						"numberOfBytes": "32",
						"value": "t_struct(RoleData)21_storage"
					},
					"t_struct(RoleData)21_storage": {
						"encoding": "inplace",
						"label": "struct AccessControl.RoleData",
						"members": [
							{
								"astId": 18,
								"contract": "contracts/WallyVesting.sol:WallyVesting",
								"label": "hasRole",
								"offset": 0,
								"slot": "0",
								"type": "t_mapping(t_address,t_bool)"
							},
							{
								"astId": 20,
								"contract": "contracts/WallyVesting.sol:WallyVesting",
								"label": "adminRole",
								"offset": 0,
								"slot": "1",
								"type": "t_bytes32"
							}
						],
						"numberOfBytes": "64"
					},
					"t_uint256": {
						"encoding": "inplace",
						"label": "uint256",
						"numberOfBytes": "32"
					}
				}
			},
			"userdoc": {
				"kind": "user",
				"methods": {},
				"version": 1
			}
		}
	}
}