{
	"contracts/WallyAirdrop.sol": {
		"WallyAirdrop": {
			"abi": [
				{
					"inputs": [
						{
							"internalType": "address",
							"name": "_wallyToken",
							"type": "address"
						},
						{
							"internalType": "address",
							"name": "_admin",
							"type": "address"
						}
					],
					"stateMutability": "nonpayable",
					"type": "constructor"
				},
				{
					"inputs": [],
					"name": "AccessControlBadConfirmation",
					"type": "error"
				},
				{
					"inputs": [
						{
							"internalType": "address",
							"name": "account",
							"type": "address"
						},
						{
							"internalType": "bytes32",
							"name": "neededRole",
							"type": "bytes32"
						}
					],
					"name": "AccessControlUnauthorizedAccount",
					"type": "error"
				},
				{
					"anonymous": false,
					"inputs": [
						{
							"indexed": false,
							"internalType": "address[]",
							"name": "recipients",
							"type": "address[]"
						},
						{
							"indexed": false,
							"internalType": "uint256[]",
							"name": "amounts",
							"type": "uint256[]"
						}
					],
					"name": "Airdropped",
					"type": "event"
				},
				{
					"anonymous": false,
					"inputs": [
						{
							"indexed": false,
							"internalType": "address",
							"name": "token",
							"type": "address"
						},
						{
							"indexed": false,
							"internalType": "uint256",
							"name": "amount",
							"type": "uint256"
						},
						{
							"indexed": false,
							"internalType": "address",
							"name": "to",
							"type": "address"
						}
					],
					"name": "RescueTokens",
					"type": "event"
				},
				{
					"anonymous": false,
					"inputs": [
						{
							"indexed": true,
							"internalType": "bytes32",
							"name": "role",
							"type": "bytes32"
						},
						{
							"indexed": true,
							"internalType": "bytes32",
							"name": "previousAdminRole",
							"type": "bytes32"
						},
						{
							"indexed": true,
							"internalType": "bytes32",
							"name": "newAdminRole",
							"type": "bytes32"
						}
					],
					"name": "RoleAdminChanged",
					"type": "event"
				},
				{
					"anonymous": false,
					"inputs": [
						{
							"indexed": true,
							"internalType": "bytes32",
							"name": "role",
							"type": "bytes32"
						},
						{
							"indexed": true,
							"internalType": "address",
							"name": "account",
							"type": "address"
						},
						{
							"indexed": true,
							"internalType": "address",
							"name": "sender",
							"type": "address"
						}
					],
					"name": "RoleGranted",
					"type": "event"
				},
				{
					"anonymous": false,
					"inputs": [
						{
							"indexed": true,
							"internalType": "bytes32",
							"name": "role",
							"type": "bytes32"
						},
						{
							"indexed": true,
							"internalType": "address",
							"name": "account",
							"type": "address"
						},
						{
							"indexed": true,
							"internalType": "address",
							"name": "sender",
							"type": "address"
						}
					],
					"name": "RoleRevoked",
					"type": "event"
				},
				{
					"inputs": [],
					"name": "ADMIN_ROLE",
					"outputs": [
						{
							"internalType": "bytes32",
							"name": "",
							"type": "bytes32"
						}
					],
					"stateMutability": "view",
					"type": "function"
				},
				{
					"inputs": [],
					"name": "DEFAULT_ADMIN_ROLE",
					"outputs": [
						{
							"internalType": "bytes32",
							"name": "",
							"type": "bytes32"
						}
					],
					"stateMutability": "view",
					"type": "function"
				},
				{
					"inputs": [
						{
							"internalType": "address[]",
							"name": "recipients",
							"type": "address[]"
						},
						{
							"internalType": "uint256[]",
							"name": "amounts",
							"type": "uint256[]"
						}
					],
					"name": "airdrop",
					"outputs": [],
					"stateMutability": "nonpayable",
					"type": "function"
				},
				{
					"inputs": [
						{
							"internalType": "bytes32",
							"name": "role",
							"type": "bytes32"
						}
					],
					"name": "getRoleAdmin",
					"outputs": [
						{
							"internalType": "bytes32",
							"name": "",
							"type": "bytes32"
						}
					],
					"stateMutability": "view",
					"type": "function"
				},
				{
					"inputs": [
						{
							"internalType": "bytes32",
							"name": "role",
							"type": "bytes32"
						},
						{
							"internalType": "address",
							"name": "account",
							"type": "address"
						}
					],
					"name": "grantRole",
					"outputs": [],
					"stateMutability": "nonpayable",
					"type": "function"
				},
				{
					"inputs": [
						{
							"internalType": "bytes32",
							"name": "role",
							"type": "bytes32"
						},
						{
							"internalType": "address",
							"name": "account",
							"type": "address"
						}
					],
					"name": "hasRole",
					"outputs": [
						{
							"internalType": "bool",
							"name": "",
							"type": "bool"
						}
					],
					"stateMutability": "view",
					"type": "function"
				},
				{
					"inputs": [
						{
							"internalType": "bytes32",
							"name": "role",
							"type": "bytes32"
						},
						{
							"internalType": "address",
							"name": "callerConfirmation",
							"type": "address"
						}
					],
					"name": "renounceRole",
					"outputs": [],
					"stateMutability": "nonpayable",
					"type": "function"
				},
				{
					"inputs": [
						{
							"internalType": "address",
							"name": "tokenAddress",
							"type": "address"
						},
						{
							"internalType": "uint256",
							"name": "amount",
							"type": "uint256"
						},
						{
							"internalType": "address",
							"name": "to",
							"type": "address"
						}
					],
					"name": "rescueTokens",
					"outputs": [],
					"stateMutability": "nonpayable",
					"type": "function"
				},
				{
					"inputs": [
						{
							"internalType": "bytes32",
							"name": "role",
							"type": "bytes32"
						},
						{
							"internalType": "address",
							"name": "account",
							"type": "address"
						}
					],
					"name": "revokeRole",
					"outputs": [],
					"stateMutability": "nonpayable",
					"type": "function"
				},
				{
					"inputs": [
						{
							"internalType": "bytes4",
							"name": "interfaceId",
							"type": "bytes4"
						}
					],
					"name": "supportsInterface",
					"outputs": [
						{
							"internalType": "bool",
							"name": "",
							"type": "bool"
						}
					],
					"stateMutability": "view",
					"type": "function"
				},
				{
					"inputs": [],
					"name": "wallyToken",
					"outputs": [
						{
							"internalType": "contract IERC20",
							"name": "",
							"type": "address"
						}
					],
					"stateMutability": "view",
					"type": "function"
				}
			],
			"devdoc": {
				"details": "Simple airdrop contract allowing batch distribution of Wally Tokens to multiple addresses.  Must be prefunded with enough tokens. The admin can do multiple airdrops. For massive drops (thousands of addresses), consider a Merkle or claim-based approach.",
				"errors": {
					"AccessControlBadConfirmation()": [
						{
							"details": "The caller of a function is not the expected one. NOTE: Don't confuse with {AccessControlUnauthorizedAccount}."
						}
					],
					"AccessControlUnauthorizedAccount(address,bytes32)": [
						{
							"details": "The `account` is missing a role."
						}
					]
				},
				"events": {
					"RoleAdminChanged(bytes32,bytes32,bytes32)": {
						"details": "Emitted when `newAdminRole` is set as ``role``'s admin role, replacing `previousAdminRole` `DEFAULT_ADMIN_ROLE` is the starting admin for all roles, despite {RoleAdminChanged} not being emitted signaling this."
					},
					"RoleGranted(bytes32,address,address)": {
						"details": "Emitted when `account` is granted `role`. `sender` is the account that originated the contract call. This account bears the admin role (for the granted role). Expected in cases where the role was granted using the internal {AccessControl-_grantRole}."
					},
					"RoleRevoked(bytes32,address,address)": {
						"details": "Emitted when `account` is revoked `role`. `sender` is the account that originated the contract call:   - if using `revokeRole`, it is the admin role bearer   - if using `renounceRole`, it is the role bearer (i.e. `account`)"
					}
				},
				"kind": "dev",
				"methods": {
					"airdrop(address[],uint256[])": {
						"details": "Airdrop tokens in a single batch transaction.       The contract must hold enough tokens to cover all amounts.",
						"params": {
							"amounts": "Corresponding array of token amounts",
							"recipients": "Array of addresses to receive tokens"
						}
					},
					"getRoleAdmin(bytes32)": {
						"details": "Returns the admin role that controls `role`. See {grantRole} and {revokeRole}. To change a role's admin, use {_setRoleAdmin}."
					},
					"grantRole(bytes32,address)": {
						"details": "Grants `role` to `account`. If `account` had not been already granted `role`, emits a {RoleGranted} event. Requirements: - the caller must have ``role``'s admin role. May emit a {RoleGranted} event."
					},
					"hasRole(bytes32,address)": {
						"details": "Returns `true` if `account` has been granted `role`."
					},
					"renounceRole(bytes32,address)": {
						"details": "Revokes `role` from the calling account. Roles are often managed via {grantRole} and {revokeRole}: this function's purpose is to provide a mechanism for accounts to lose their privileges if they are compromised (such as when a trusted device is misplaced). If the calling account had been revoked `role`, emits a {RoleRevoked} event. Requirements: - the caller must be `callerConfirmation`. May emit a {RoleRevoked} event."
					},
					"rescueTokens(address,uint256,address)": {
						"details": "Rescue any ERC20 tokens stuck in this contract, including TWG if needed."
					},
					"revokeRole(bytes32,address)": {
						"details": "Revokes `role` from `account`. If `account` had been granted `role`, emits a {RoleRevoked} event. Requirements: - the caller must have ``role``'s admin role. May emit a {RoleRevoked} event."
					},
					"supportsInterface(bytes4)": {
						"details": "See {IERC165-supportsInterface}."
					}
				},
				"title": "WallyAirdrop",
				"version": 1
			},
			"evm": {
				"assembly": "    /* \"contracts/WallyAirdrop.sol\":476:2309  contract WallyAirdrop is AccessControl {... */\n  mstore(0x40, 0xa0)\n    /* \"contracts/WallyAirdrop.sol\":760:1016  constructor(address _wallyToken, address _admin) {... */\n  callvalue\n  dup1\n  iszero\n  tag_1\n  jumpi\n  revert(0x00, 0x00)\ntag_1:\n  pop\n  mload(0x40)\n  sub(codesize, bytecodeSize)\n  dup1\n  bytecodeSize\n  dup4\n  codecopy\n  dup2\n  dup2\n  add\n  0x40\n  mstore\n  dup2\n  add\n  swap1\n  tag_2\n  swap2\n  swap1\n  tag_3\n  jump\t// in\ntag_2:\n    /* \"contracts/WallyAirdrop.sol\":850:851  0 */\n  0x00\n    /* \"contracts/WallyAirdrop.sol\":827:852  _wallyToken != address(0) */\n  0xffffffffffffffffffffffffffffffffffffffff\n  and\n    /* \"contracts/WallyAirdrop.sol\":827:838  _wallyToken */\n  dup3\n    /* \"contracts/WallyAirdrop.sol\":827:852  _wallyToken != address(0) */\n  0xffffffffffffffffffffffffffffffffffffffff\n  and\n  sub\n    /* \"contracts/WallyAirdrop.sol\":819:870  require(_wallyToken != address(0), \"Invalid token\") */\n  tag_6\n  jumpi\n  mload(0x40)\n  0x08c379a000000000000000000000000000000000000000000000000000000000\n  dup2\n  mstore\n  0x04\n  add\n  tag_7\n  swap1\n  tag_8\n  jump\t// in\ntag_7:\n  mload(0x40)\n  dup1\n  swap2\n  sub\n  swap1\n  revert\ntag_6:\n    /* \"contracts/WallyAirdrop.sol\":906:907  0 */\n  0x00\n    /* \"contracts/WallyAirdrop.sol\":888:908  _admin != address(0) */\n  0xffffffffffffffffffffffffffffffffffffffff\n  and\n    /* \"contracts/WallyAirdrop.sol\":888:894  _admin */\n  dup2\n    /* \"contracts/WallyAirdrop.sol\":888:908  _admin != address(0) */\n  0xffffffffffffffffffffffffffffffffffffffff\n  and\n  sub\n    /* \"contracts/WallyAirdrop.sol\":880:926  require(_admin != address(0), \"Invalid admin\") */\n  tag_9\n  jumpi\n  mload(0x40)\n  0x08c379a000000000000000000000000000000000000000000000000000000000\n  dup2\n  mstore\n  0x04\n  add\n  tag_10\n  swap1\n  tag_11\n  jump\t// in\ntag_10:\n  mload(0x40)\n  dup1\n  swap2\n  sub\n  swap1\n  revert\ntag_9:\n    /* \"contracts/WallyAirdrop.sol\":957:968  _wallyToken */\n  dup2\n    /* \"contracts/WallyAirdrop.sol\":937:969  wallyToken = IERC20(_wallyToken) */\n  0xffffffffffffffffffffffffffffffffffffffff\n  and\n  0x80\n  dup2\n  0xffffffffffffffffffffffffffffffffffffffff\n  and\n  dup2\n  mstore\n  pop\n  pop\n    /* \"contracts/WallyAirdrop.sol\":979:1009  _grantRole(ADMIN_ROLE, _admin) */\n  tag_12\n    /* \"contracts/WallyAirdrop.sol\":558:581  keccak256(\"ADMIN_ROLE\") */\n  0xa49807205ce4d355092ef5a8a18f56e8913cf4a201fbe287825b095693c21775\n    /* \"contracts/WallyAirdrop.sol\":1002:1008  _admin */\n  dup3\n    /* \"contracts/WallyAirdrop.sol\":979:989  _grantRole */\n  shl(0x20, tag_13)\n    /* \"contracts/WallyAirdrop.sol\":979:1009  _grantRole(ADMIN_ROLE, _admin) */\n  0x20\n  shr\n  jump\t// in\ntag_12:\n  pop\n    /* \"contracts/WallyAirdrop.sol\":760:1016  constructor(address _wallyToken, address _admin) {... */\n  pop\n  pop\n    /* \"contracts/WallyAirdrop.sol\":476:2309  contract WallyAirdrop is AccessControl {... */\n  jump(tag_14)\n    /* \"@openzeppelin/contracts/access/AccessControl.sol\":6179:6495  function _grantRole(bytes32 role, address account) internal virtual returns (bool) {... */\ntag_13:\n    /* \"@openzeppelin/contracts/access/AccessControl.sol\":6256:6260  bool */\n  0x00\n    /* \"@openzeppelin/contracts/access/AccessControl.sol\":6277:6299  hasRole(role, account) */\n  tag_16\n    /* \"@openzeppelin/contracts/access/AccessControl.sol\":6285:6289  role */\n  dup4\n    /* \"@openzeppelin/contracts/access/AccessControl.sol\":6291:6298  account */\n  dup4\n    /* \"@openzeppelin/contracts/access/AccessControl.sol\":6277:6284  hasRole */\n  shl(0x20, tag_17)\n    /* \"@openzeppelin/contracts/access/AccessControl.sol\":6277:6299  hasRole(role, account) */\n  0x20\n  shr\n  jump\t// in\ntag_16:\n    /* \"@openzeppelin/contracts/access/AccessControl.sol\":6272:6489  if (!hasRole(role, account)) {... */\n  tag_18\n  jumpi\n    /* \"@openzeppelin/contracts/access/AccessControl.sol\":6347:6351  true */\n  0x01\n    /* \"@openzeppelin/contracts/access/AccessControl.sol\":6315:6321  _roles */\n  0x00\n    /* \"@openzeppelin/contracts/access/AccessControl.sol\":6315:6327  _roles[role] */\n  0x00\n    /* \"@openzeppelin/contracts/access/AccessControl.sol\":6322:6326  role */\n  dup6\n    /* \"@openzeppelin/contracts/access/AccessControl.sol\":6315:6327  _roles[role] */\n  dup2\n  mstore\n  0x20\n  add\n  swap1\n  dup2\n  mstore\n  0x20\n  add\n  0x00\n  keccak256\n    /* \"@openzeppelin/contracts/access/AccessControl.sol\":6315:6335  _roles[role].hasRole */\n  0x00\n  add\n    /* \"@openzeppelin/contracts/access/AccessControl.sol\":6315:6344  _roles[role].hasRole[account] */\n  0x00\n    /* \"@openzeppelin/contracts/access/AccessControl.sol\":6336:6343  account */\n  dup5\n    /* \"@openzeppelin/contracts/access/AccessControl.sol\":6315:6344  _roles[role].hasRole[account] */\n  0xffffffffffffffffffffffffffffffffffffffff\n  and\n  0xffffffffffffffffffffffffffffffffffffffff\n  and\n  dup2\n  mstore\n  0x20\n  add\n  swap1\n  dup2\n  mstore\n  0x20\n  add\n  0x00\n  keccak256\n  0x00\n    /* \"@openzeppelin/contracts/access/AccessControl.sol\":6315:6351  _roles[role].hasRole[account] = true */\n  0x0100\n  exp\n  dup2\n  sload\n  dup2\n  0xff\n  mul\n  not\n  and\n  swap1\n  dup4\n  iszero\n  iszero\n  mul\n  or\n  swap1\n  sstore\n  pop\n    /* \"@openzeppelin/contracts/access/AccessControl.sol\":6397:6409  _msgSender() */\n  tag_19\n    /* \"@openzeppelin/contracts/access/AccessControl.sol\":6397:6407  _msgSender */\n  shl(0x20, tag_20)\n    /* \"@openzeppelin/contracts/access/AccessControl.sol\":6397:6409  _msgSender() */\n  0x20\n  shr\n  jump\t// in\ntag_19:\n    /* \"@openzeppelin/contracts/access/AccessControl.sol\":6370:6410  RoleGranted(role, account, _msgSender()) */\n  0xffffffffffffffffffffffffffffffffffffffff\n  and\n    /* \"@openzeppelin/contracts/access/AccessControl.sol\":6388:6395  account */\n  dup3\n    /* \"@openzeppelin/contracts/access/AccessControl.sol\":6370:6410  RoleGranted(role, account, _msgSender()) */\n  0xffffffffffffffffffffffffffffffffffffffff\n  and\n    /* \"@openzeppelin/contracts/access/AccessControl.sol\":6382:6386  role */\n  dup5\n    /* \"@openzeppelin/contracts/access/AccessControl.sol\":6370:6410  RoleGranted(role, account, _msgSender()) */\n  0x2f8788117e7eff1d82e926ec794901d17c78024a50270940304540a733656f0d\n  mload(0x40)\n  mload(0x40)\n  dup1\n  swap2\n  sub\n  swap1\n  log4\n    /* \"@openzeppelin/contracts/access/AccessControl.sol\":6431:6435  true */\n  0x01\n    /* \"@openzeppelin/contracts/access/AccessControl.sol\":6424:6435  return true */\n  swap1\n  pop\n  jump(tag_15)\n    /* \"@openzeppelin/contracts/access/AccessControl.sol\":6272:6489  if (!hasRole(role, account)) {... */\ntag_18:\n    /* \"@openzeppelin/contracts/access/AccessControl.sol\":6473:6478  false */\n  0x00\n    /* \"@openzeppelin/contracts/access/AccessControl.sol\":6466:6478  return false */\n  swap1\n  pop\n    /* \"@openzeppelin/contracts/access/AccessControl.sol\":6179:6495  function _grantRole(bytes32 role, address account) internal virtual returns (bool) {... */\ntag_15:\n  swap3\n  swap2\n  pop\n  pop\n  jump\t// out\n    /* \"@openzeppelin/contracts/access/AccessControl.sol\":2854:2990  function hasRole(bytes32 role, address account) public view virtual returns (bool) {... */\ntag_17:\n    /* \"@openzeppelin/contracts/access/AccessControl.sol\":2931:2935  bool */\n  0x00\n    /* \"@openzeppelin/contracts/access/AccessControl.sol\":2954:2960  _roles */\n  0x00\n    /* \"@openzeppelin/contracts/access/AccessControl.sol\":2954:2966  _roles[role] */\n  0x00\n    /* \"@openzeppelin/contracts/access/AccessControl.sol\":2961:2965  role */\n  dup5\n    /* \"@openzeppelin/contracts/access/AccessControl.sol\":2954:2966  _roles[role] */\n  dup2\n  mstore\n  0x20\n  add\n  swap1\n  dup2\n  mstore\n  0x20\n  add\n  0x00\n  keccak256\n    /* \"@openzeppelin/contracts/access/AccessControl.sol\":2954:2974  _roles[role].hasRole */\n  0x00\n  add\n    /* \"@openzeppelin/contracts/access/AccessControl.sol\":2954:2983  _roles[role].hasRole[account] */\n  0x00\n    /* \"@openzeppelin/contracts/access/AccessControl.sol\":2975:2982  account */\n  dup4\n    /* \"@openzeppelin/contracts/access/AccessControl.sol\":2954:2983  _roles[role].hasRole[account] */\n  0xffffffffffffffffffffffffffffffffffffffff\n  and\n  0xffffffffffffffffffffffffffffffffffffffff\n  and\n  dup2\n  mstore\n  0x20\n  add\n  swap1\n  dup2\n  mstore\n  0x20\n  add\n  0x00\n  keccak256\n  0x00\n  swap1\n  sload\n  swap1\n  0x0100\n  exp\n  swap1\n  div\n  0xff\n  and\n    /* \"@openzeppelin/contracts/access/AccessControl.sol\":2947:2983  return _roles[role].hasRole[account] */\n  swap1\n  pop\n    /* \"@openzeppelin/contracts/access/AccessControl.sol\":2854:2990  function hasRole(bytes32 role, address account) public view virtual returns (bool) {... */\n  swap3\n  swap2\n  pop\n  pop\n  jump\t// out\n    /* \"@openzeppelin/contracts/utils/Context.sol\":656:752  function _msgSender() internal view virtual returns (address) {... */\ntag_20:\n    /* \"@openzeppelin/contracts/utils/Context.sol\":709:716  address */\n  0x00\n    /* \"@openzeppelin/contracts/utils/Context.sol\":735:745  msg.sender */\n  caller\n    /* \"@openzeppelin/contracts/utils/Context.sol\":728:745  return msg.sender */\n  swap1\n  pop\n    /* \"@openzeppelin/contracts/utils/Context.sol\":656:752  function _msgSender() internal view virtual returns (address) {... */\n  swap1\n  jump\t// out\n    /* \"#utility.yul\":88:205   */\ntag_25:\n    /* \"#utility.yul\":197:198   */\n  0x00\n    /* \"#utility.yul\":194:195   */\n  0x00\n    /* \"#utility.yul\":187:199   */\n  revert\n    /* \"#utility.yul\":334:460   */\ntag_27:\n    /* \"#utility.yul\":371:378   */\n  0x00\n    /* \"#utility.yul\":411:453   */\n  0xffffffffffffffffffffffffffffffffffffffff\n    /* \"#utility.yul\":404:409   */\n  dup3\n    /* \"#utility.yul\":400:454   */\n  and\n    /* \"#utility.yul\":389:454   */\n  swap1\n  pop\n    /* \"#utility.yul\":334:460   */\n  swap2\n  swap1\n  pop\n  jump\t// out\n    /* \"#utility.yul\":466:562   */\ntag_28:\n    /* \"#utility.yul\":503:510   */\n  0x00\n    /* \"#utility.yul\":532:556   */\n  tag_42\n    /* \"#utility.yul\":550:555   */\n  dup3\n    /* \"#utility.yul\":532:556   */\n  tag_27\n  jump\t// in\ntag_42:\n    /* \"#utility.yul\":521:556   */\n  swap1\n  pop\n    /* \"#utility.yul\":466:562   */\n  swap2\n  swap1\n  pop\n  jump\t// out\n    /* \"#utility.yul\":568:690   */\ntag_29:\n    /* \"#utility.yul\":641:665   */\n  tag_44\n    /* \"#utility.yul\":659:664   */\n  dup2\n    /* \"#utility.yul\":641:665   */\n  tag_28\n  jump\t// in\ntag_44:\n    /* \"#utility.yul\":634:639   */\n  dup2\n    /* \"#utility.yul\":631:666   */\n  eq\n    /* \"#utility.yul\":621:684   */\n  tag_45\n  jumpi\n    /* \"#utility.yul\":680:681   */\n  0x00\n    /* \"#utility.yul\":677:678   */\n  0x00\n    /* \"#utility.yul\":670:682   */\n  revert\n    /* \"#utility.yul\":621:684   */\ntag_45:\n    /* \"#utility.yul\":568:690   */\n  pop\n  jump\t// out\n    /* \"#utility.yul\":696:839   */\ntag_30:\n    /* \"#utility.yul\":753:758   */\n  0x00\n    /* \"#utility.yul\":784:790   */\n  dup2\n    /* \"#utility.yul\":778:791   */\n  mload\n    /* \"#utility.yul\":769:791   */\n  swap1\n  pop\n    /* \"#utility.yul\":800:833   */\n  tag_47\n    /* \"#utility.yul\":827:832   */\n  dup2\n    /* \"#utility.yul\":800:833   */\n  tag_29\n  jump\t// in\ntag_47:\n    /* \"#utility.yul\":696:839   */\n  swap3\n  swap2\n  pop\n  pop\n  jump\t// out\n    /* \"#utility.yul\":845:1352   */\ntag_3:\n    /* \"#utility.yul\":924:930   */\n  0x00\n    /* \"#utility.yul\":932:938   */\n  0x00\n    /* \"#utility.yul\":981:983   */\n  0x40\n    /* \"#utility.yul\":969:978   */\n  dup4\n    /* \"#utility.yul\":960:967   */\n  dup6\n    /* \"#utility.yul\":956:979   */\n  sub\n    /* \"#utility.yul\":952:984   */\n  slt\n    /* \"#utility.yul\":949:1068   */\n  iszero\n  tag_49\n  jumpi\n    /* \"#utility.yul\":987:1066   */\n  tag_50\n  tag_25\n  jump\t// in\ntag_50:\n    /* \"#utility.yul\":949:1068   */\ntag_49:\n    /* \"#utility.yul\":1107:1108   */\n  0x00\n    /* \"#utility.yul\":1132:1196   */\n  tag_51\n    /* \"#utility.yul\":1188:1195   */\n  dup6\n    /* \"#utility.yul\":1179:1185   */\n  dup3\n    /* \"#utility.yul\":1168:1177   */\n  dup7\n    /* \"#utility.yul\":1164:1186   */\n  add\n    /* \"#utility.yul\":1132:1196   */\n  tag_30\n  jump\t// in\ntag_51:\n    /* \"#utility.yul\":1122:1196   */\n  swap3\n  pop\n    /* \"#utility.yul\":1078:1206   */\n  pop\n    /* \"#utility.yul\":1245:1247   */\n  0x20\n    /* \"#utility.yul\":1271:1335   */\n  tag_52\n    /* \"#utility.yul\":1327:1334   */\n  dup6\n    /* \"#utility.yul\":1318:1324   */\n  dup3\n    /* \"#utility.yul\":1307:1316   */\n  dup7\n    /* \"#utility.yul\":1303:1325   */\n  add\n    /* \"#utility.yul\":1271:1335   */\n  tag_30\n  jump\t// in\ntag_52:\n    /* \"#utility.yul\":1261:1335   */\n  swap2\n  pop\n    /* \"#utility.yul\":1216:1345   */\n  pop\n    /* \"#utility.yul\":845:1352   */\n  swap3\n  pop\n  swap3\n  swap1\n  pop\n  jump\t// out\n    /* \"#utility.yul\":1358:1527   */\ntag_31:\n    /* \"#utility.yul\":1442:1453   */\n  0x00\n    /* \"#utility.yul\":1476:1482   */\n  dup3\n    /* \"#utility.yul\":1471:1474   */\n  dup3\n    /* \"#utility.yul\":1464:1483   */\n  mstore\n    /* \"#utility.yul\":1516:1520   */\n  0x20\n    /* \"#utility.yul\":1511:1514   */\n  dup3\n    /* \"#utility.yul\":1507:1521   */\n  add\n    /* \"#utility.yul\":1492:1521   */\n  swap1\n  pop\n    /* \"#utility.yul\":1358:1527   */\n  swap3\n  swap2\n  pop\n  pop\n  jump\t// out\n    /* \"#utility.yul\":1533:1696   */\ntag_32:\n    /* \"#utility.yul\":1673:1688   */\n  0x496e76616c696420746f6b656e00000000000000000000000000000000000000\n    /* \"#utility.yul\":1669:1670   */\n  0x00\n    /* \"#utility.yul\":1661:1667   */\n  dup3\n    /* \"#utility.yul\":1657:1671   */\n  add\n    /* \"#utility.yul\":1650:1689   */\n  mstore\n    /* \"#utility.yul\":1533:1696   */\n  pop\n  jump\t// out\n    /* \"#utility.yul\":1702:2068   */\ntag_33:\n    /* \"#utility.yul\":1844:1847   */\n  0x00\n    /* \"#utility.yul\":1865:1932   */\n  tag_56\n    /* \"#utility.yul\":1929:1931   */\n  0x0d\n    /* \"#utility.yul\":1924:1927   */\n  dup4\n    /* \"#utility.yul\":1865:1932   */\n  tag_31\n  jump\t// in\ntag_56:\n    /* \"#utility.yul\":1858:1932   */\n  swap2\n  pop\n    /* \"#utility.yul\":1941:2034   */\n  tag_57\n    /* \"#utility.yul\":2030:2033   */\n  dup3\n    /* \"#utility.yul\":1941:2034   */\n  tag_32\n  jump\t// in\ntag_57:\n    /* \"#utility.yul\":2059:2061   */\n  0x20\n    /* \"#utility.yul\":2054:2057   */\n  dup3\n    /* \"#utility.yul\":2050:2062   */\n  add\n    /* \"#utility.yul\":2043:2062   */\n  swap1\n  pop\n    /* \"#utility.yul\":1702:2068   */\n  swap2\n  swap1\n  pop\n  jump\t// out\n    /* \"#utility.yul\":2074:2493   */\ntag_8:\n    /* \"#utility.yul\":2240:2244   */\n  0x00\n    /* \"#utility.yul\":2278:2280   */\n  0x20\n    /* \"#utility.yul\":2267:2276   */\n  dup3\n    /* \"#utility.yul\":2263:2281   */\n  add\n    /* \"#utility.yul\":2255:2281   */\n  swap1\n  pop\n    /* \"#utility.yul\":2327:2336   */\n  dup2\n    /* \"#utility.yul\":2321:2325   */\n  dup2\n    /* \"#utility.yul\":2317:2337   */\n  sub\n    /* \"#utility.yul\":2313:2314   */\n  0x00\n    /* \"#utility.yul\":2302:2311   */\n  dup4\n    /* \"#utility.yul\":2298:2315   */\n  add\n    /* \"#utility.yul\":2291:2338   */\n  mstore\n    /* \"#utility.yul\":2355:2486   */\n  tag_59\n    /* \"#utility.yul\":2481:2485   */\n  dup2\n    /* \"#utility.yul\":2355:2486   */\n  tag_33\n  jump\t// in\ntag_59:\n    /* \"#utility.yul\":2347:2486   */\n  swap1\n  pop\n    /* \"#utility.yul\":2074:2493   */\n  swap2\n  swap1\n  pop\n  jump\t// out\n    /* \"#utility.yul\":2499:2662   */\ntag_34:\n    /* \"#utility.yul\":2639:2654   */\n  0x496e76616c69642061646d696e00000000000000000000000000000000000000\n    /* \"#utility.yul\":2635:2636   */\n  0x00\n    /* \"#utility.yul\":2627:2633   */\n  dup3\n    /* \"#utility.yul\":2623:2637   */\n  add\n    /* \"#utility.yul\":2616:2655   */\n  mstore\n    /* \"#utility.yul\":2499:2662   */\n  pop\n  jump\t// out\n    /* \"#utility.yul\":2668:3034   */\ntag_35:\n    /* \"#utility.yul\":2810:2813   */\n  0x00\n    /* \"#utility.yul\":2831:2898   */\n  tag_62\n    /* \"#utility.yul\":2895:2897   */\n  0x0d\n    /* \"#utility.yul\":2890:2893   */\n  dup4\n    /* \"#utility.yul\":2831:2898   */\n  tag_31\n  jump\t// in\ntag_62:\n    /* \"#utility.yul\":2824:2898   */\n  swap2\n  pop\n    /* \"#utility.yul\":2907:3000   */\n  tag_63\n    /* \"#utility.yul\":2996:2999   */\n  dup3\n    /* \"#utility.yul\":2907:3000   */\n  tag_34\n  jump\t// in\ntag_63:\n    /* \"#utility.yul\":3025:3027   */\n  0x20\n    /* \"#utility.yul\":3020:3023   */\n  dup3\n    /* \"#utility.yul\":3016:3028   */\n  add\n    /* \"#utility.yul\":3009:3028   */\n  swap1\n  pop\n    /* \"#utility.yul\":2668:3034   */\n  swap2\n  swap1\n  pop\n  jump\t// out\n    /* \"#utility.yul\":3040:3459   */\ntag_11:\n    /* \"#utility.yul\":3206:3210   */\n  0x00\n    /* \"#utility.yul\":3244:3246   */\n  0x20\n    /* \"#utility.yul\":3233:3242   */\n  dup3\n    /* \"#utility.yul\":3229:3247   */\n  add\n    /* \"#utility.yul\":3221:3247   */\n  swap1\n  pop\n    /* \"#utility.yul\":3293:3302   */\n  dup2\n    /* \"#utility.yul\":3287:3291   */\n  dup2\n    /* \"#utility.yul\":3283:3303   */\n  sub\n    /* \"#utility.yul\":3279:3280   */\n  0x00\n    /* \"#utility.yul\":3268:3277   */\n  dup4\n    /* \"#utility.yul\":3264:3281   */\n  add\n    /* \"#utility.yul\":3257:3304   */\n  mstore\n    /* \"#utility.yul\":3321:3452   */\n  tag_65\n    /* \"#utility.yul\":3447:3451   */\n  dup2\n    /* \"#utility.yul\":3321:3452   */\n  tag_35\n  jump\t// in\ntag_65:\n    /* \"#utility.yul\":3313:3452   */\n  swap1\n  pop\n    /* \"#utility.yul\":3040:3459   */\n  swap2\n  swap1\n  pop\n  jump\t// out\n    /* \"contracts/WallyAirdrop.sol\":476:2309  contract WallyAirdrop is AccessControl {... */\ntag_14:\n  mload(0x80)\n  codecopy(0x00, dataOffset(sub_0), dataSize(sub_0))\n  0x00\n  assignImmutable(\"0x13650127de40bd0482f7a6a80d1966ae3e83b4ea537267404140481f37e37931\")\n  return(0x00, dataSize(sub_0))\nstop\n\nsub_0: assembly {\n        /* \"contracts/WallyAirdrop.sol\":476:2309  contract WallyAirdrop is AccessControl {... */\n      mstore(0x40, 0x80)\n      callvalue\n      dup1\n      iszero\n      tag_1\n      jumpi\n      revert(0x00, 0x00)\n    tag_1:\n      pop\n      jumpi(tag_2, lt(calldatasize, 0x04))\n      shr(0xe0, calldataload(0x00))\n      dup1\n      0x67243482\n      gt\n      tag_14\n      jumpi\n      dup1\n      0x67243482\n      eq\n      tag_8\n      jumpi\n      dup1\n      0x75b238fc\n      eq\n      tag_9\n      jumpi\n      dup1\n      0x91d14854\n      eq\n      tag_10\n      jumpi\n      dup1\n      0xa217fddf\n      eq\n      tag_11\n      jumpi\n      dup1\n      0xb37fd190\n      eq\n      tag_12\n      jumpi\n      dup1\n      0xd547741f\n      eq\n      tag_13\n      jumpi\n      jump(tag_2)\n    tag_14:\n      dup1\n      0x01ffc9a7\n      eq\n      tag_3\n      jumpi\n      dup1\n      0x0e033dc5\n      eq\n      tag_4\n      jumpi\n      dup1\n      0x248a9ca3\n      eq\n      tag_5\n      jumpi\n      dup1\n      0x2f2ff15d\n      eq\n      tag_6\n      jumpi\n      dup1\n      0x36568abe\n      eq\n      tag_7\n      jumpi\n    tag_2:\n      revert(0x00, 0x00)\n        /* \"@openzeppelin/contracts/access/AccessControl.sol\":2565:2767  function supportsInterface(bytes4 interfaceId) public view virtual override returns (bool) {... */\n    tag_3:\n      tag_15\n      0x04\n      dup1\n      calldatasize\n      sub\n      dup2\n      add\n      swap1\n      tag_16\n      swap2\n      swap1\n      tag_17\n      jump\t// in\n    tag_16:\n      tag_18\n      jump\t// in\n    tag_15:\n      mload(0x40)\n      tag_19\n      swap2\n      swap1\n      tag_20\n      jump\t// in\n    tag_19:\n      mload(0x40)\n      dup1\n      swap2\n      sub\n      swap1\n      return\n        /* \"contracts/WallyAirdrop.sol\":588:622  IERC20 public immutable wallyToken */\n    tag_4:\n      tag_21\n      tag_22\n      jump\t// in\n    tag_21:\n      mload(0x40)\n      tag_23\n      swap2\n      swap1\n      tag_24\n      jump\t// in\n    tag_23:\n      mload(0x40)\n      dup1\n      swap2\n      sub\n      swap1\n      return\n        /* \"@openzeppelin/contracts/access/AccessControl.sol\":3810:3930  function getRoleAdmin(bytes32 role) public view virtual returns (bytes32) {... */\n    tag_5:\n      tag_25\n      0x04\n      dup1\n      calldatasize\n      sub\n      dup2\n      add\n      swap1\n      tag_26\n      swap2\n      swap1\n      tag_27\n      jump\t// in\n    tag_26:\n      tag_28\n      jump\t// in\n    tag_25:\n      mload(0x40)\n      tag_29\n      swap2\n      swap1\n      tag_30\n      jump\t// in\n    tag_29:\n      mload(0x40)\n      dup1\n      swap2\n      sub\n      swap1\n      return\n        /* \"@openzeppelin/contracts/access/AccessControl.sol\":4226:4362  function grantRole(bytes32 role, address account) public virtual onlyRole(getRoleAdmin(role)) {... */\n    tag_6:\n      tag_31\n      0x04\n      dup1\n      calldatasize\n      sub\n      dup2\n      add\n      swap1\n      tag_32\n      swap2\n      swap1\n      tag_33\n      jump\t// in\n    tag_32:\n      tag_34\n      jump\t// in\n    tag_31:\n      stop\n        /* \"@openzeppelin/contracts/access/AccessControl.sol\":5328:5573  function renounceRole(bytes32 role, address callerConfirmation) public virtual {... */\n    tag_7:\n      tag_35\n      0x04\n      dup1\n      calldatasize\n      sub\n      dup2\n      add\n      swap1\n      tag_36\n      swap2\n      swap1\n      tag_33\n      jump\t// in\n    tag_36:\n      tag_37\n      jump\t// in\n    tag_35:\n      stop\n        /* \"contracts/WallyAirdrop.sol\":1299:1916  function airdrop(address[] calldata recipients, uint256[] calldata amounts)... */\n    tag_8:\n      tag_38\n      0x04\n      dup1\n      calldatasize\n      sub\n      dup2\n      add\n      swap1\n      tag_39\n      swap2\n      swap1\n      tag_40\n      jump\t// in\n    tag_39:\n      tag_41\n      jump\t// in\n    tag_38:\n      stop\n        /* \"contracts/WallyAirdrop.sol\":521:581  bytes32 public constant ADMIN_ROLE = keccak256(\"ADMIN_ROLE\") */\n    tag_9:\n      tag_42\n      tag_43\n      jump\t// in\n    tag_42:\n      mload(0x40)\n      tag_44\n      swap2\n      swap1\n      tag_30\n      jump\t// in\n    tag_44:\n      mload(0x40)\n      dup1\n      swap2\n      sub\n      swap1\n      return\n        /* \"@openzeppelin/contracts/access/AccessControl.sol\":2854:2990  function hasRole(bytes32 role, address account) public view virtual returns (bool) {... */\n    tag_10:\n      tag_45\n      0x04\n      dup1\n      calldatasize\n      sub\n      dup2\n      add\n      swap1\n      tag_46\n      swap2\n      swap1\n      tag_33\n      jump\t// in\n    tag_46:\n      tag_47\n      jump\t// in\n    tag_45:\n      mload(0x40)\n      tag_48\n      swap2\n      swap1\n      tag_20\n      jump\t// in\n    tag_48:\n      mload(0x40)\n      dup1\n      swap2\n      sub\n      swap1\n      return\n        /* \"@openzeppelin/contracts/access/AccessControl.sol\":2187:2236  bytes32 public constant DEFAULT_ADMIN_ROLE = 0x00 */\n    tag_11:\n      tag_49\n      tag_50\n      jump\t// in\n    tag_49:\n      mload(0x40)\n      tag_51\n      swap2\n      swap1\n      tag_30\n      jump\t// in\n    tag_51:\n      mload(0x40)\n      dup1\n      swap2\n      sub\n      swap1\n      return\n        /* \"contracts/WallyAirdrop.sol\":2023:2307  function rescueTokens(address tokenAddress, uint256 amount, address to)... */\n    tag_12:\n      tag_52\n      0x04\n      dup1\n      calldatasize\n      sub\n      dup2\n      add\n      swap1\n      tag_53\n      swap2\n      swap1\n      tag_54\n      jump\t// in\n    tag_53:\n      tag_55\n      jump\t// in\n    tag_52:\n      stop\n        /* \"@openzeppelin/contracts/access/AccessControl.sol\":4642:4780  function revokeRole(bytes32 role, address account) public virtual onlyRole(getRoleAdmin(role)) {... */\n    tag_13:\n      tag_56\n      0x04\n      dup1\n      calldatasize\n      sub\n      dup2\n      add\n      swap1\n      tag_57\n      swap2\n      swap1\n      tag_33\n      jump\t// in\n    tag_57:\n      tag_58\n      jump\t// in\n    tag_56:\n      stop\n        /* \"@openzeppelin/contracts/access/AccessControl.sol\":2565:2767  function supportsInterface(bytes4 interfaceId) public view virtual override returns (bool) {... */\n    tag_18:\n        /* \"@openzeppelin/contracts/access/AccessControl.sol\":2650:2654  bool */\n      0x00\n        /* \"@openzeppelin/contracts/access/AccessControl.sol\":2688:2720  type(IAccessControl).interfaceId */\n      0x7965db0b00000000000000000000000000000000000000000000000000000000\n        /* \"@openzeppelin/contracts/access/AccessControl.sol\":2673:2720  interfaceId == type(IAccessControl).interfaceId */\n      not(0xffffffffffffffffffffffffffffffffffffffffffffffffffffffff)\n      and\n        /* \"@openzeppelin/contracts/access/AccessControl.sol\":2673:2684  interfaceId */\n      dup3\n        /* \"@openzeppelin/contracts/access/AccessControl.sol\":2673:2720  interfaceId == type(IAccessControl).interfaceId */\n      not(0xffffffffffffffffffffffffffffffffffffffffffffffffffffffff)\n      and\n      eq\n        /* \"@openzeppelin/contracts/access/AccessControl.sol\":2673:2760  interfaceId == type(IAccessControl).interfaceId || super.supportsInterface(interfaceId) */\n      dup1\n      tag_60\n      jumpi\n      pop\n        /* \"@openzeppelin/contracts/access/AccessControl.sol\":2724:2760  super.supportsInterface(interfaceId) */\n      tag_61\n        /* \"@openzeppelin/contracts/access/AccessControl.sol\":2748:2759  interfaceId */\n      dup3\n        /* \"@openzeppelin/contracts/access/AccessControl.sol\":2724:2747  super.supportsInterface */\n      tag_62\n        /* \"@openzeppelin/contracts/access/AccessControl.sol\":2724:2760  super.supportsInterface(interfaceId) */\n      jump\t// in\n    tag_61:\n        /* \"@openzeppelin/contracts/access/AccessControl.sol\":2673:2760  interfaceId == type(IAccessControl).interfaceId || super.supportsInterface(interfaceId) */\n    tag_60:\n        /* \"@openzeppelin/contracts/access/AccessControl.sol\":2666:2760  return interfaceId == type(IAccessControl).interfaceId || super.supportsInterface(interfaceId) */\n      swap1\n      pop\n        /* \"@openzeppelin/contracts/access/AccessControl.sol\":2565:2767  function supportsInterface(bytes4 interfaceId) public view virtual override returns (bool) {... */\n      swap2\n      swap1\n      pop\n      jump\t// out\n        /* \"contracts/WallyAirdrop.sol\":588:622  IERC20 public immutable wallyToken */\n    tag_22:\n      immutable(\"0x13650127de40bd0482f7a6a80d1966ae3e83b4ea537267404140481f37e37931\")\n      dup2\n      jump\t// out\n        /* \"@openzeppelin/contracts/access/AccessControl.sol\":3810:3930  function getRoleAdmin(bytes32 role) public view virtual returns (bytes32) {... */\n    tag_28:\n        /* \"@openzeppelin/contracts/access/AccessControl.sol\":3875:3882  bytes32 */\n      0x00\n        /* \"@openzeppelin/contracts/access/AccessControl.sol\":3901:3907  _roles */\n      0x00\n        /* \"@openzeppelin/contracts/access/AccessControl.sol\":3901:3913  _roles[role] */\n      0x00\n        /* \"@openzeppelin/contracts/access/AccessControl.sol\":3908:3912  role */\n      dup4\n        /* \"@openzeppelin/contracts/access/AccessControl.sol\":3901:3913  _roles[role] */\n      dup2\n      mstore\n      0x20\n      add\n      swap1\n      dup2\n      mstore\n      0x20\n      add\n      0x00\n      keccak256\n        /* \"@openzeppelin/contracts/access/AccessControl.sol\":3901:3923  _roles[role].adminRole */\n      0x01\n      add\n      sload\n        /* \"@openzeppelin/contracts/access/AccessControl.sol\":3894:3923  return _roles[role].adminRole */\n      swap1\n      pop\n        /* \"@openzeppelin/contracts/access/AccessControl.sol\":3810:3930  function getRoleAdmin(bytes32 role) public view virtual returns (bytes32) {... */\n      swap2\n      swap1\n      pop\n      jump\t// out\n        /* \"@openzeppelin/contracts/access/AccessControl.sol\":4226:4362  function grantRole(bytes32 role, address account) public virtual onlyRole(getRoleAdmin(role)) {... */\n    tag_34:\n        /* \"@openzeppelin/contracts/access/AccessControl.sol\":4300:4318  getRoleAdmin(role) */\n      tag_64\n        /* \"@openzeppelin/contracts/access/AccessControl.sol\":4313:4317  role */\n      dup3\n        /* \"@openzeppelin/contracts/access/AccessControl.sol\":4300:4312  getRoleAdmin */\n      tag_28\n        /* \"@openzeppelin/contracts/access/AccessControl.sol\":4300:4318  getRoleAdmin(role) */\n      jump\t// in\n    tag_64:\n        /* \"@openzeppelin/contracts/access/AccessControl.sol\":2464:2480  _checkRole(role) */\n      tag_66\n        /* \"@openzeppelin/contracts/access/AccessControl.sol\":2475:2479  role */\n      dup2\n        /* \"@openzeppelin/contracts/access/AccessControl.sol\":2464:2474  _checkRole */\n      tag_67\n        /* \"@openzeppelin/contracts/access/AccessControl.sol\":2464:2480  _checkRole(role) */\n      jump\t// in\n    tag_66:\n        /* \"@openzeppelin/contracts/access/AccessControl.sol\":4330:4355  _grantRole(role, account) */\n      tag_69\n        /* \"@openzeppelin/contracts/access/AccessControl.sol\":4341:4345  role */\n      dup4\n        /* \"@openzeppelin/contracts/access/AccessControl.sol\":4347:4354  account */\n      dup4\n        /* \"@openzeppelin/contracts/access/AccessControl.sol\":4330:4340  _grantRole */\n      tag_70\n        /* \"@openzeppelin/contracts/access/AccessControl.sol\":4330:4355  _grantRole(role, account) */\n      jump\t// in\n    tag_69:\n      pop\n        /* \"@openzeppelin/contracts/access/AccessControl.sol\":4226:4362  function grantRole(bytes32 role, address account) public virtual onlyRole(getRoleAdmin(role)) {... */\n      pop\n      pop\n      pop\n      jump\t// out\n        /* \"@openzeppelin/contracts/access/AccessControl.sol\":5328:5573  function renounceRole(bytes32 role, address callerConfirmation) public virtual {... */\n    tag_37:\n        /* \"@openzeppelin/contracts/access/AccessControl.sol\":5443:5455  _msgSender() */\n      tag_72\n        /* \"@openzeppelin/contracts/access/AccessControl.sol\":5443:5453  _msgSender */\n      tag_73\n        /* \"@openzeppelin/contracts/access/AccessControl.sol\":5443:5455  _msgSender() */\n      jump\t// in\n    tag_72:\n        /* \"@openzeppelin/contracts/access/AccessControl.sol\":5421:5455  callerConfirmation != _msgSender() */\n      0xffffffffffffffffffffffffffffffffffffffff\n      and\n        /* \"@openzeppelin/contracts/access/AccessControl.sol\":5421:5439  callerConfirmation */\n      dup2\n        /* \"@openzeppelin/contracts/access/AccessControl.sol\":5421:5455  callerConfirmation != _msgSender() */\n      0xffffffffffffffffffffffffffffffffffffffff\n      and\n      eq\n        /* \"@openzeppelin/contracts/access/AccessControl.sol\":5417:5519  if (callerConfirmation != _msgSender()) {... */\n      tag_74\n      jumpi\n        /* \"@openzeppelin/contracts/access/AccessControl.sol\":5478:5508  AccessControlBadConfirmation() */\n      mload(0x40)\n      0x6697b23200000000000000000000000000000000000000000000000000000000\n      dup2\n      mstore\n      0x04\n      add\n      mload(0x40)\n      dup1\n      swap2\n      sub\n      swap1\n      revert\n        /* \"@openzeppelin/contracts/access/AccessControl.sol\":5417:5519  if (callerConfirmation != _msgSender()) {... */\n    tag_74:\n        /* \"@openzeppelin/contracts/access/AccessControl.sol\":5529:5566  _revokeRole(role, callerConfirmation) */\n      tag_75\n        /* \"@openzeppelin/contracts/access/AccessControl.sol\":5541:5545  role */\n      dup3\n        /* \"@openzeppelin/contracts/access/AccessControl.sol\":5547:5565  callerConfirmation */\n      dup3\n        /* \"@openzeppelin/contracts/access/AccessControl.sol\":5529:5540  _revokeRole */\n      tag_76\n        /* \"@openzeppelin/contracts/access/AccessControl.sol\":5529:5566  _revokeRole(role, callerConfirmation) */\n      jump\t// in\n    tag_75:\n      pop\n        /* \"@openzeppelin/contracts/access/AccessControl.sol\":5328:5573  function renounceRole(bytes32 role, address callerConfirmation) public virtual {... */\n      pop\n      pop\n      jump\t// out\n        /* \"contracts/WallyAirdrop.sol\":1299:1916  function airdrop(address[] calldata recipients, uint256[] calldata amounts)... */\n    tag_41:\n        /* \"contracts/WallyAirdrop.sol\":558:581  keccak256(\"ADMIN_ROLE\") */\n      0xa49807205ce4d355092ef5a8a18f56e8913cf4a201fbe287825b095693c21775\n        /* \"@openzeppelin/contracts/access/AccessControl.sol\":2464:2480  _checkRole(role) */\n      tag_78\n        /* \"@openzeppelin/contracts/access/AccessControl.sol\":2475:2479  role */\n      dup2\n        /* \"@openzeppelin/contracts/access/AccessControl.sol\":2464:2474  _checkRole */\n      tag_67\n        /* \"@openzeppelin/contracts/access/AccessControl.sol\":2464:2480  _checkRole(role) */\n      jump\t// in\n    tag_78:\n        /* \"contracts/WallyAirdrop.sol\":1464:1471  amounts */\n      dup3\n      dup3\n        /* \"contracts/WallyAirdrop.sol\":1464:1478  amounts.length */\n      swap1\n      pop\n        /* \"contracts/WallyAirdrop.sol\":1443:1453  recipients */\n      dup6\n      dup6\n        /* \"contracts/WallyAirdrop.sol\":1443:1460  recipients.length */\n      swap1\n      pop\n        /* \"contracts/WallyAirdrop.sol\":1443:1478  recipients.length == amounts.length */\n      eq\n        /* \"contracts/WallyAirdrop.sol\":1435:1498  require(recipients.length == amounts.length, \"Length mismatch\") */\n      tag_80\n      jumpi\n      mload(0x40)\n      0x08c379a000000000000000000000000000000000000000000000000000000000\n      dup2\n      mstore\n      0x04\n      add\n      tag_81\n      swap1\n      tag_82\n      jump\t// in\n    tag_81:\n      mload(0x40)\n      dup1\n      swap2\n      sub\n      swap1\n      revert\n    tag_80:\n        /* \"contracts/WallyAirdrop.sol\":1508:1519  uint256 len */\n      0x00\n        /* \"contracts/WallyAirdrop.sol\":1522:1532  recipients */\n      dup6\n      dup6\n        /* \"contracts/WallyAirdrop.sol\":1522:1539  recipients.length */\n      swap1\n      pop\n        /* \"contracts/WallyAirdrop.sol\":1508:1539  uint256 len = recipients.length */\n      swap1\n      pop\n        /* \"contracts/WallyAirdrop.sol\":1555:1564  uint256 i */\n      0x00\n        /* \"contracts/WallyAirdrop.sol\":1567:1568  0 */\n      0x00\n        /* \"contracts/WallyAirdrop.sol\":1555:1568  uint256 i = 0 */\n      swap1\n      pop\n        /* \"contracts/WallyAirdrop.sol\":1550:1863  for (uint256 i = 0; i < len; i++) {... */\n    tag_83:\n        /* \"contracts/WallyAirdrop.sol\":1574:1577  len */\n      dup2\n        /* \"contracts/WallyAirdrop.sol\":1570:1571  i */\n      dup2\n        /* \"contracts/WallyAirdrop.sol\":1570:1577  i < len */\n      lt\n        /* \"contracts/WallyAirdrop.sol\":1550:1863  for (uint256 i = 0; i < len; i++) {... */\n      iszero\n      tag_84\n      jumpi\n        /* \"contracts/WallyAirdrop.sol\":1631:1632  0 */\n      0x00\n        /* \"contracts/WallyAirdrop.sol\":1606:1633  recipients[i] != address(0) */\n      0xffffffffffffffffffffffffffffffffffffffff\n      and\n        /* \"contracts/WallyAirdrop.sol\":1606:1616  recipients */\n      dup8\n      dup8\n        /* \"contracts/WallyAirdrop.sol\":1617:1618  i */\n      dup4\n        /* \"contracts/WallyAirdrop.sol\":1606:1619  recipients[i] */\n      dup2\n      dup2\n      lt\n      tag_86\n      jumpi\n      tag_87\n      tag_88\n      jump\t// in\n    tag_87:\n    tag_86:\n      swap1\n      pop\n      0x20\n      mul\n      add\n      0x20\n      dup2\n      add\n      swap1\n      tag_89\n      swap2\n      swap1\n      tag_90\n      jump\t// in\n    tag_89:\n        /* \"contracts/WallyAirdrop.sol\":1606:1633  recipients[i] != address(0) */\n      0xffffffffffffffffffffffffffffffffffffffff\n      and\n      sub\n        /* \"contracts/WallyAirdrop.sol\":1598:1650  require(recipients[i] != address(0), \"Zero address\") */\n      tag_91\n      jumpi\n      mload(0x40)\n      0x08c379a000000000000000000000000000000000000000000000000000000000\n      dup2\n      mstore\n      0x04\n      add\n      tag_92\n      swap1\n      tag_93\n      jump\t// in\n    tag_92:\n      mload(0x40)\n      dup1\n      swap2\n      sub\n      swap1\n      revert\n    tag_91:\n        /* \"contracts/WallyAirdrop.sol\":1728:1735  amounts */\n      dup5\n      dup5\n        /* \"contracts/WallyAirdrop.sol\":1736:1737  i */\n      dup3\n        /* \"contracts/WallyAirdrop.sol\":1728:1738  amounts[i] */\n      dup2\n      dup2\n      lt\n      tag_94\n      jumpi\n      tag_95\n      tag_88\n      jump\t// in\n    tag_95:\n    tag_94:\n      swap1\n      pop\n      0x20\n      mul\n      add\n      calldataload\n        /* \"contracts/WallyAirdrop.sol\":1689:1699  wallyToken */\n      immutable(\"0x13650127de40bd0482f7a6a80d1966ae3e83b4ea537267404140481f37e37931\")\n        /* \"contracts/WallyAirdrop.sol\":1689:1709  wallyToken.balanceOf */\n      0xffffffffffffffffffffffffffffffffffffffff\n      and\n      0x70a08231\n        /* \"contracts/WallyAirdrop.sol\":1718:1722  this */\n      address\n        /* \"contracts/WallyAirdrop.sol\":1689:1724  wallyToken.balanceOf(address(this)) */\n      mload(0x40)\n      dup3\n      0xffffffff\n      and\n      0xe0\n      shl\n      dup2\n      mstore\n      0x04\n      add\n      tag_96\n      swap2\n      swap1\n      tag_97\n      jump\t// in\n    tag_96:\n      0x20\n      mload(0x40)\n      dup1\n      dup4\n      sub\n      dup2\n      dup7\n      gas\n      staticcall\n      iszero\n      dup1\n      iszero\n      tag_99\n      jumpi\n      returndatacopy(0x00, 0x00, returndatasize)\n      revert(0x00, returndatasize)\n    tag_99:\n      pop\n      pop\n      pop\n      pop\n      mload(0x40)\n      returndatasize\n      not(0x1f)\n      0x1f\n      dup3\n      add\n      and\n      dup3\n      add\n      dup1\n      0x40\n      mstore\n      pop\n      dup2\n      add\n      swap1\n      tag_100\n      swap2\n      swap1\n      tag_101\n      jump\t// in\n    tag_100:\n        /* \"contracts/WallyAirdrop.sol\":1689:1738  wallyToken.balanceOf(address(this)) >= amounts[i] */\n      lt\n      iszero\n        /* \"contracts/WallyAirdrop.sol\":1664:1792  require(... */\n      tag_102\n      jumpi\n      mload(0x40)\n      0x08c379a000000000000000000000000000000000000000000000000000000000\n      dup2\n      mstore\n      0x04\n      add\n      tag_103\n      swap1\n      tag_104\n      jump\t// in\n    tag_103:\n      mload(0x40)\n      dup1\n      swap2\n      sub\n      swap1\n      revert\n    tag_102:\n        /* \"contracts/WallyAirdrop.sol\":1806:1816  wallyToken */\n      immutable(\"0x13650127de40bd0482f7a6a80d1966ae3e83b4ea537267404140481f37e37931\")\n        /* \"contracts/WallyAirdrop.sol\":1806:1825  wallyToken.transfer */\n      0xffffffffffffffffffffffffffffffffffffffff\n      and\n      0xa9059cbb\n        /* \"contracts/WallyAirdrop.sol\":1826:1836  recipients */\n      dup9\n      dup9\n        /* \"contracts/WallyAirdrop.sol\":1837:1838  i */\n      dup5\n        /* \"contracts/WallyAirdrop.sol\":1826:1839  recipients[i] */\n      dup2\n      dup2\n      lt\n      tag_105\n      jumpi\n      tag_106\n      tag_88\n      jump\t// in\n    tag_106:\n    tag_105:\n      swap1\n      pop\n      0x20\n      mul\n      add\n      0x20\n      dup2\n      add\n      swap1\n      tag_107\n      swap2\n      swap1\n      tag_90\n      jump\t// in\n    tag_107:\n        /* \"contracts/WallyAirdrop.sol\":1841:1848  amounts */\n      dup8\n      dup8\n        /* \"contracts/WallyAirdrop.sol\":1849:1850  i */\n      dup6\n        /* \"contracts/WallyAirdrop.sol\":1841:1851  amounts[i] */\n      dup2\n      dup2\n      lt\n      tag_108\n      jumpi\n      tag_109\n      tag_88\n      jump\t// in\n    tag_109:\n    tag_108:\n      swap1\n      pop\n      0x20\n      mul\n      add\n      calldataload\n        /* \"contracts/WallyAirdrop.sol\":1806:1852  wallyToken.transfer(recipients[i], amounts[i]) */\n      mload(0x40)\n      dup4\n      0xffffffff\n      and\n      0xe0\n      shl\n      dup2\n      mstore\n      0x04\n      add\n      tag_110\n      swap3\n      swap2\n      swap1\n      tag_111\n      jump\t// in\n    tag_110:\n      0x20\n      mload(0x40)\n      dup1\n      dup4\n      sub\n      dup2\n      0x00\n      dup8\n      gas\n      call\n      iszero\n      dup1\n      iszero\n      tag_113\n      jumpi\n      returndatacopy(0x00, 0x00, returndatasize)\n      revert(0x00, returndatasize)\n    tag_113:\n      pop\n      pop\n      pop\n      pop\n      mload(0x40)\n      returndatasize\n      not(0x1f)\n      0x1f\n      dup3\n      add\n      and\n      dup3\n      add\n      dup1\n      0x40\n      mstore\n      pop\n      dup2\n      add\n      swap1\n      tag_114\n      swap2\n      swap1\n      tag_115\n      jump\t// in\n    tag_114:\n      pop\n        /* \"contracts/WallyAirdrop.sol\":1579:1582  i++ */\n      dup1\n      dup1\n      0x01\n      add\n      swap2\n      pop\n      pop\n        /* \"contracts/WallyAirdrop.sol\":1550:1863  for (uint256 i = 0; i < len; i++) {... */\n      jump(tag_83)\n    tag_84:\n      pop\n        /* \"contracts/WallyAirdrop.sol\":1878:1909  Airdropped(recipients, amounts) */\n      0x71dfe3d8206b73dfdb5bff7f42fc15abd6bf2665f4076753f9d046f5d7de6edf\n        /* \"contracts/WallyAirdrop.sol\":1889:1899  recipients */\n      dup7\n      dup7\n        /* \"contracts/WallyAirdrop.sol\":1901:1908  amounts */\n      dup7\n      dup7\n        /* \"contracts/WallyAirdrop.sol\":1878:1909  Airdropped(recipients, amounts) */\n      mload(0x40)\n      tag_116\n      swap5\n      swap4\n      swap3\n      swap2\n      swap1\n      tag_117\n      jump\t// in\n    tag_116:\n      mload(0x40)\n      dup1\n      swap2\n      sub\n      swap1\n      log1\n        /* \"contracts/WallyAirdrop.sol\":1425:1916  {... */\n      pop\n        /* \"contracts/WallyAirdrop.sol\":1299:1916  function airdrop(address[] calldata recipients, uint256[] calldata amounts)... */\n      pop\n      pop\n      pop\n      pop\n      pop\n      jump\t// out\n        /* \"contracts/WallyAirdrop.sol\":521:581  bytes32 public constant ADMIN_ROLE = keccak256(\"ADMIN_ROLE\") */\n    tag_43:\n        /* \"contracts/WallyAirdrop.sol\":558:581  keccak256(\"ADMIN_ROLE\") */\n      0xa49807205ce4d355092ef5a8a18f56e8913cf4a201fbe287825b095693c21775\n        /* \"contracts/WallyAirdrop.sol\":521:581  bytes32 public constant ADMIN_ROLE = keccak256(\"ADMIN_ROLE\") */\n      dup2\n      jump\t// out\n        /* \"@openzeppelin/contracts/access/AccessControl.sol\":2854:2990  function hasRole(bytes32 role, address account) public view virtual returns (bool) {... */\n    tag_47:\n        /* \"@openzeppelin/contracts/access/AccessControl.sol\":2931:2935  bool */\n      0x00\n        /* \"@openzeppelin/contracts/access/AccessControl.sol\":2954:2960  _roles */\n      0x00\n        /* \"@openzeppelin/contracts/access/AccessControl.sol\":2954:2966  _roles[role] */\n      0x00\n        /* \"@openzeppelin/contracts/access/AccessControl.sol\":2961:2965  role */\n      dup5\n        /* \"@openzeppelin/contracts/access/AccessControl.sol\":2954:2966  _roles[role] */\n      dup2\n      mstore\n      0x20\n      add\n      swap1\n      dup2\n      mstore\n      0x20\n      add\n      0x00\n      keccak256\n        /* \"@openzeppelin/contracts/access/AccessControl.sol\":2954:2974  _roles[role].hasRole */\n      0x00\n      add\n        /* \"@openzeppelin/contracts/access/AccessControl.sol\":2954:2983  _roles[role].hasRole[account] */\n      0x00\n        /* \"@openzeppelin/contracts/access/AccessControl.sol\":2975:2982  account */\n      dup4\n        /* \"@openzeppelin/contracts/access/AccessControl.sol\":2954:2983  _roles[role].hasRole[account] */\n      0xffffffffffffffffffffffffffffffffffffffff\n      and\n      0xffffffffffffffffffffffffffffffffffffffff\n      and\n      dup2\n      mstore\n      0x20\n      add\n      swap1\n      dup2\n      mstore\n      0x20\n      add\n      0x00\n      keccak256\n      0x00\n      swap1\n      sload\n      swap1\n      0x0100\n      exp\n      swap1\n      div\n      0xff\n      and\n        /* \"@openzeppelin/contracts/access/AccessControl.sol\":2947:2983  return _roles[role].hasRole[account] */\n      swap1\n      pop\n        /* \"@openzeppelin/contracts/access/AccessControl.sol\":2854:2990  function hasRole(bytes32 role, address account) public view virtual returns (bool) {... */\n      swap3\n      swap2\n      pop\n      pop\n      jump\t// out\n        /* \"@openzeppelin/contracts/access/AccessControl.sol\":2187:2236  bytes32 public constant DEFAULT_ADMIN_ROLE = 0x00 */\n    tag_50:\n        /* \"@openzeppelin/contracts/access/AccessControl.sol\":2232:2236  0x00 */\n      0x00\n        /* \"@openzeppelin/contracts/access/AccessControl.sol\":2187:2236  bytes32 public constant DEFAULT_ADMIN_ROLE = 0x00 */\n      0x00\n      shl\n      dup2\n      jump\t// out\n        /* \"contracts/WallyAirdrop.sol\":2023:2307  function rescueTokens(address tokenAddress, uint256 amount, address to)... */\n    tag_55:\n        /* \"contracts/WallyAirdrop.sol\":558:581  keccak256(\"ADMIN_ROLE\") */\n      0xa49807205ce4d355092ef5a8a18f56e8913cf4a201fbe287825b095693c21775\n        /* \"@openzeppelin/contracts/access/AccessControl.sol\":2464:2480  _checkRole(role) */\n      tag_120\n        /* \"@openzeppelin/contracts/access/AccessControl.sol\":2475:2479  role */\n      dup2\n        /* \"@openzeppelin/contracts/access/AccessControl.sol\":2464:2474  _checkRole */\n      tag_67\n        /* \"@openzeppelin/contracts/access/AccessControl.sol\":2464:2480  _checkRole(role) */\n      jump\t// in\n    tag_120:\n        /* \"contracts/WallyAirdrop.sol\":2177:2178  0 */\n      0x00\n        /* \"contracts/WallyAirdrop.sol\":2163:2179  to != address(0) */\n      0xffffffffffffffffffffffffffffffffffffffff\n      and\n        /* \"contracts/WallyAirdrop.sol\":2163:2165  to */\n      dup3\n        /* \"contracts/WallyAirdrop.sol\":2163:2179  to != address(0) */\n      0xffffffffffffffffffffffffffffffffffffffff\n      and\n      sub\n        /* \"contracts/WallyAirdrop.sol\":2155:2196  require(to != address(0), \"Invalid 'to'\") */\n      tag_122\n      jumpi\n      mload(0x40)\n      0x08c379a000000000000000000000000000000000000000000000000000000000\n      dup2\n      mstore\n      0x04\n      add\n      tag_123\n      swap1\n      tag_124\n      jump\t// in\n    tag_123:\n      mload(0x40)\n      dup1\n      swap2\n      sub\n      swap1\n      revert\n    tag_122:\n        /* \"contracts/WallyAirdrop.sol\":2213:2225  tokenAddress */\n      dup4\n        /* \"contracts/WallyAirdrop.sol\":2206:2235  IERC20(tokenAddress).transfer */\n      0xffffffffffffffffffffffffffffffffffffffff\n      and\n      0xa9059cbb\n        /* \"contracts/WallyAirdrop.sol\":2236:2238  to */\n      dup4\n        /* \"contracts/WallyAirdrop.sol\":2240:2246  amount */\n      dup6\n        /* \"contracts/WallyAirdrop.sol\":2206:2247  IERC20(tokenAddress).transfer(to, amount) */\n      mload(0x40)\n      dup4\n      0xffffffff\n      and\n      0xe0\n      shl\n      dup2\n      mstore\n      0x04\n      add\n      tag_125\n      swap3\n      swap2\n      swap1\n      tag_111\n      jump\t// in\n    tag_125:\n      0x20\n      mload(0x40)\n      dup1\n      dup4\n      sub\n      dup2\n      0x00\n      dup8\n      gas\n      call\n      iszero\n      dup1\n      iszero\n      tag_127\n      jumpi\n      returndatacopy(0x00, 0x00, returndatasize)\n      revert(0x00, returndatasize)\n    tag_127:\n      pop\n      pop\n      pop\n      pop\n      mload(0x40)\n      returndatasize\n      not(0x1f)\n      0x1f\n      dup3\n      add\n      and\n      dup3\n      add\n      dup1\n      0x40\n      mstore\n      pop\n      dup2\n      add\n      swap1\n      tag_128\n      swap2\n      swap1\n      tag_115\n      jump\t// in\n    tag_128:\n      pop\n        /* \"contracts/WallyAirdrop.sol\":2262:2300  RescueTokens(tokenAddress, amount, to) */\n      0xb827212398d00bec25c9929a724fa1a266fb9ee3507d7a377758eca985b8923f\n        /* \"contracts/WallyAirdrop.sol\":2275:2287  tokenAddress */\n      dup5\n        /* \"contracts/WallyAirdrop.sol\":2289:2295  amount */\n      dup5\n        /* \"contracts/WallyAirdrop.sol\":2297:2299  to */\n      dup5\n        /* \"contracts/WallyAirdrop.sol\":2262:2300  RescueTokens(tokenAddress, amount, to) */\n      mload(0x40)\n      tag_129\n      swap4\n      swap3\n      swap2\n      swap1\n      tag_130\n      jump\t// in\n    tag_129:\n      mload(0x40)\n      dup1\n      swap2\n      sub\n      swap1\n      log1\n        /* \"contracts/WallyAirdrop.sol\":2023:2307  function rescueTokens(address tokenAddress, uint256 amount, address to)... */\n      pop\n      pop\n      pop\n      pop\n      jump\t// out\n        /* \"@openzeppelin/contracts/access/AccessControl.sol\":4642:4780  function revokeRole(bytes32 role, address account) public virtual onlyRole(getRoleAdmin(role)) {... */\n    tag_58:\n        /* \"@openzeppelin/contracts/access/AccessControl.sol\":4717:4735  getRoleAdmin(role) */\n      tag_131\n        /* \"@openzeppelin/contracts/access/AccessControl.sol\":4730:4734  role */\n      dup3\n        /* \"@openzeppelin/contracts/access/AccessControl.sol\":4717:4729  getRoleAdmin */\n      tag_28\n        /* \"@openzeppelin/contracts/access/AccessControl.sol\":4717:4735  getRoleAdmin(role) */\n      jump\t// in\n    tag_131:\n        /* \"@openzeppelin/contracts/access/AccessControl.sol\":2464:2480  _checkRole(role) */\n      tag_133\n        /* \"@openzeppelin/contracts/access/AccessControl.sol\":2475:2479  role */\n      dup2\n        /* \"@openzeppelin/contracts/access/AccessControl.sol\":2464:2474  _checkRole */\n      tag_67\n        /* \"@openzeppelin/contracts/access/AccessControl.sol\":2464:2480  _checkRole(role) */\n      jump\t// in\n    tag_133:\n        /* \"@openzeppelin/contracts/access/AccessControl.sol\":4747:4773  _revokeRole(role, account) */\n      tag_135\n        /* \"@openzeppelin/contracts/access/AccessControl.sol\":4759:4763  role */\n      dup4\n        /* \"@openzeppelin/contracts/access/AccessControl.sol\":4765:4772  account */\n      dup4\n        /* \"@openzeppelin/contracts/access/AccessControl.sol\":4747:4758  _revokeRole */\n      tag_76\n        /* \"@openzeppelin/contracts/access/AccessControl.sol\":4747:4773  _revokeRole(role, account) */\n      jump\t// in\n    tag_135:\n      pop\n        /* \"@openzeppelin/contracts/access/AccessControl.sol\":4642:4780  function revokeRole(bytes32 role, address account) public virtual onlyRole(getRoleAdmin(role)) {... */\n      pop\n      pop\n      pop\n      jump\t// out\n        /* \"@openzeppelin/contracts/utils/introspection/ERC165.sol\":763:909  function supportsInterface(bytes4 interfaceId) public view virtual returns (bool) {... */\n    tag_62:\n        /* \"@openzeppelin/contracts/utils/introspection/ERC165.sol\":839:843  bool */\n      0x00\n        /* \"@openzeppelin/contracts/utils/introspection/ERC165.sol\":877:902  type(IERC165).interfaceId */\n      0x01ffc9a700000000000000000000000000000000000000000000000000000000\n        /* \"@openzeppelin/contracts/utils/introspection/ERC165.sol\":862:902  interfaceId == type(IERC165).interfaceId */\n      not(0xffffffffffffffffffffffffffffffffffffffffffffffffffffffff)\n      and\n        /* \"@openzeppelin/contracts/utils/introspection/ERC165.sol\":862:873  interfaceId */\n      dup3\n        /* \"@openzeppelin/contracts/utils/introspection/ERC165.sol\":862:902  interfaceId == type(IERC165).interfaceId */\n      not(0xffffffffffffffffffffffffffffffffffffffffffffffffffffffff)\n      and\n      eq\n        /* \"@openzeppelin/contracts/utils/introspection/ERC165.sol\":855:902  return interfaceId == type(IERC165).interfaceId */\n      swap1\n      pop\n        /* \"@openzeppelin/contracts/utils/introspection/ERC165.sol\":763:909  function supportsInterface(bytes4 interfaceId) public view virtual returns (bool) {... */\n      swap2\n      swap1\n      pop\n      jump\t// out\n        /* \"@openzeppelin/contracts/access/AccessControl.sol\":3199:3302  function _checkRole(bytes32 role) internal view virtual {... */\n    tag_67:\n        /* \"@openzeppelin/contracts/access/AccessControl.sol\":3265:3295  _checkRole(role, _msgSender()) */\n      tag_138\n        /* \"@openzeppelin/contracts/access/AccessControl.sol\":3276:3280  role */\n      dup2\n        /* \"@openzeppelin/contracts/access/AccessControl.sol\":3282:3294  _msgSender() */\n      tag_139\n        /* \"@openzeppelin/contracts/access/AccessControl.sol\":3282:3292  _msgSender */\n      tag_73\n        /* \"@openzeppelin/contracts/access/AccessControl.sol\":3282:3294  _msgSender() */\n      jump\t// in\n    tag_139:\n        /* \"@openzeppelin/contracts/access/AccessControl.sol\":3265:3275  _checkRole */\n      tag_140\n        /* \"@openzeppelin/contracts/access/AccessControl.sol\":3265:3295  _checkRole(role, _msgSender()) */\n      jump\t// in\n    tag_138:\n        /* \"@openzeppelin/contracts/access/AccessControl.sol\":3199:3302  function _checkRole(bytes32 role) internal view virtual {... */\n      pop\n      jump\t// out\n        /* \"@openzeppelin/contracts/access/AccessControl.sol\":6179:6495  function _grantRole(bytes32 role, address account) internal virtual returns (bool) {... */\n    tag_70:\n        /* \"@openzeppelin/contracts/access/AccessControl.sol\":6256:6260  bool */\n      0x00\n        /* \"@openzeppelin/contracts/access/AccessControl.sol\":6277:6299  hasRole(role, account) */\n      tag_142\n        /* \"@openzeppelin/contracts/access/AccessControl.sol\":6285:6289  role */\n      dup4\n        /* \"@openzeppelin/contracts/access/AccessControl.sol\":6291:6298  account */\n      dup4\n        /* \"@openzeppelin/contracts/access/AccessControl.sol\":6277:6284  hasRole */\n      tag_47\n        /* \"@openzeppelin/contracts/access/AccessControl.sol\":6277:6299  hasRole(role, account) */\n      jump\t// in\n    tag_142:\n        /* \"@openzeppelin/contracts/access/AccessControl.sol\":6272:6489  if (!hasRole(role, account)) {... */\n      tag_143\n      jumpi\n        /* \"@openzeppelin/contracts/access/AccessControl.sol\":6347:6351  true */\n      0x01\n        /* \"@openzeppelin/contracts/access/AccessControl.sol\":6315:6321  _roles */\n      0x00\n        /* \"@openzeppelin/contracts/access/AccessControl.sol\":6315:6327  _roles[role] */\n      0x00\n        /* \"@openzeppelin/contracts/access/AccessControl.sol\":6322:6326  role */\n      dup6\n        /* \"@openzeppelin/contracts/access/AccessControl.sol\":6315:6327  _roles[role] */\n      dup2\n      mstore\n      0x20\n      add\n      swap1\n      dup2\n      mstore\n      0x20\n      add\n      0x00\n      keccak256\n        /* \"@openzeppelin/contracts/access/AccessControl.sol\":6315:6335  _roles[role].hasRole */\n      0x00\n      add\n        /* \"@openzeppelin/contracts/access/AccessControl.sol\":6315:6344  _roles[role].hasRole[account] */\n      0x00\n        /* \"@openzeppelin/contracts/access/AccessControl.sol\":6336:6343  account */\n      dup5\n        /* \"@openzeppelin/contracts/access/AccessControl.sol\":6315:6344  _roles[role].hasRole[account] */\n      0xffffffffffffffffffffffffffffffffffffffff\n      and\n      0xffffffffffffffffffffffffffffffffffffffff\n      and\n      dup2\n      mstore\n      0x20\n      add\n      swap1\n      dup2\n      mstore\n      0x20\n      add\n      0x00\n      keccak256\n      0x00\n        /* \"@openzeppelin/contracts/access/AccessControl.sol\":6315:6351  _roles[role].hasRole[account] = true */\n      0x0100\n      exp\n      dup2\n      sload\n      dup2\n      0xff\n      mul\n      not\n      and\n      swap1\n      dup4\n      iszero\n      iszero\n      mul\n      or\n      swap1\n      sstore\n      pop\n        /* \"@openzeppelin/contracts/access/AccessControl.sol\":6397:6409  _msgSender() */\n      tag_144\n        /* \"@openzeppelin/contracts/access/AccessControl.sol\":6397:6407  _msgSender */\n      tag_73\n        /* \"@openzeppelin/contracts/access/AccessControl.sol\":6397:6409  _msgSender() */\n      jump\t// in\n    tag_144:\n        /* \"@openzeppelin/contracts/access/AccessControl.sol\":6370:6410  RoleGranted(role, account, _msgSender()) */\n      0xffffffffffffffffffffffffffffffffffffffff\n      and\n        /* \"@openzeppelin/contracts/access/AccessControl.sol\":6388:6395  account */\n      dup3\n        /* \"@openzeppelin/contracts/access/AccessControl.sol\":6370:6410  RoleGranted(role, account, _msgSender()) */\n      0xffffffffffffffffffffffffffffffffffffffff\n      and\n        /* \"@openzeppelin/contracts/access/AccessControl.sol\":6382:6386  role */\n      dup5\n        /* \"@openzeppelin/contracts/access/AccessControl.sol\":6370:6410  RoleGranted(role, account, _msgSender()) */\n      0x2f8788117e7eff1d82e926ec794901d17c78024a50270940304540a733656f0d\n      mload(0x40)\n      mload(0x40)\n      dup1\n      swap2\n      sub\n      swap1\n      log4\n        /* \"@openzeppelin/contracts/access/AccessControl.sol\":6431:6435  true */\n      0x01\n        /* \"@openzeppelin/contracts/access/AccessControl.sol\":6424:6435  return true */\n      swap1\n      pop\n      jump(tag_141)\n        /* \"@openzeppelin/contracts/access/AccessControl.sol\":6272:6489  if (!hasRole(role, account)) {... */\n    tag_143:\n        /* \"@openzeppelin/contracts/access/AccessControl.sol\":6473:6478  false */\n      0x00\n        /* \"@openzeppelin/contracts/access/AccessControl.sol\":6466:6478  return false */\n      swap1\n      pop\n        /* \"@openzeppelin/contracts/access/AccessControl.sol\":6179:6495  function _grantRole(bytes32 role, address account) internal virtual returns (bool) {... */\n    tag_141:\n      swap3\n      swap2\n      pop\n      pop\n      jump\t// out\n        /* \"@openzeppelin/contracts/utils/Context.sol\":656:752  function _msgSender() internal view virtual returns (address) {... */\n    tag_73:\n        /* \"@openzeppelin/contracts/utils/Context.sol\":709:716  address */\n      0x00\n        /* \"@openzeppelin/contracts/utils/Context.sol\":735:745  msg.sender */\n      caller\n        /* \"@openzeppelin/contracts/utils/Context.sol\":728:745  return msg.sender */\n      swap1\n      pop\n        /* \"@openzeppelin/contracts/utils/Context.sol\":656:752  function _msgSender() internal view virtual returns (address) {... */\n      swap1\n      jump\t// out\n        /* \"@openzeppelin/contracts/access/AccessControl.sol\":6730:7047  function _revokeRole(bytes32 role, address account) internal virtual returns (bool) {... */\n    tag_76:\n        /* \"@openzeppelin/contracts/access/AccessControl.sol\":6808:6812  bool */\n      0x00\n        /* \"@openzeppelin/contracts/access/AccessControl.sol\":6828:6850  hasRole(role, account) */\n      tag_148\n        /* \"@openzeppelin/contracts/access/AccessControl.sol\":6836:6840  role */\n      dup4\n        /* \"@openzeppelin/contracts/access/AccessControl.sol\":6842:6849  account */\n      dup4\n        /* \"@openzeppelin/contracts/access/AccessControl.sol\":6828:6835  hasRole */\n      tag_47\n        /* \"@openzeppelin/contracts/access/AccessControl.sol\":6828:6850  hasRole(role, account) */\n      jump\t// in\n    tag_148:\n        /* \"@openzeppelin/contracts/access/AccessControl.sol\":6824:7041  if (hasRole(role, account)) {... */\n      iszero\n      tag_149\n      jumpi\n        /* \"@openzeppelin/contracts/access/AccessControl.sol\":6898:6903  false */\n      0x00\n        /* \"@openzeppelin/contracts/access/AccessControl.sol\":6866:6872  _roles */\n      0x00\n        /* \"@openzeppelin/contracts/access/AccessControl.sol\":6866:6878  _roles[role] */\n      0x00\n        /* \"@openzeppelin/contracts/access/AccessControl.sol\":6873:6877  role */\n      dup6\n        /* \"@openzeppelin/contracts/access/AccessControl.sol\":6866:6878  _roles[role] */\n      dup2\n      mstore\n      0x20\n      add\n      swap1\n      dup2\n      mstore\n      0x20\n      add\n      0x00\n      keccak256\n        /* \"@openzeppelin/contracts/access/AccessControl.sol\":6866:6886  _roles[role].hasRole */\n      0x00\n      add\n        /* \"@openzeppelin/contracts/access/AccessControl.sol\":6866:6895  _roles[role].hasRole[account] */\n      0x00\n        /* \"@openzeppelin/contracts/access/AccessControl.sol\":6887:6894  account */\n      dup5\n        /* \"@openzeppelin/contracts/access/AccessControl.sol\":6866:6895  _roles[role].hasRole[account] */\n      0xffffffffffffffffffffffffffffffffffffffff\n      and\n      0xffffffffffffffffffffffffffffffffffffffff\n      and\n      dup2\n      mstore\n      0x20\n      add\n      swap1\n      dup2\n      mstore\n      0x20\n      add\n      0x00\n      keccak256\n      0x00\n        /* \"@openzeppelin/contracts/access/AccessControl.sol\":6866:6903  _roles[role].hasRole[account] = false */\n      0x0100\n      exp\n      dup2\n      sload\n      dup2\n      0xff\n      mul\n      not\n      and\n      swap1\n      dup4\n      iszero\n      iszero\n      mul\n      or\n      swap1\n      sstore\n      pop\n        /* \"@openzeppelin/contracts/access/AccessControl.sol\":6949:6961  _msgSender() */\n      tag_150\n        /* \"@openzeppelin/contracts/access/AccessControl.sol\":6949:6959  _msgSender */\n      tag_73\n        /* \"@openzeppelin/contracts/access/AccessControl.sol\":6949:6961  _msgSender() */\n      jump\t// in\n    tag_150:\n        /* \"@openzeppelin/contracts/access/AccessControl.sol\":6922:6962  RoleRevoked(role, account, _msgSender()) */\n      0xffffffffffffffffffffffffffffffffffffffff\n      and\n        /* \"@openzeppelin/contracts/access/AccessControl.sol\":6940:6947  account */\n      dup3\n        /* \"@openzeppelin/contracts/access/AccessControl.sol\":6922:6962  RoleRevoked(role, account, _msgSender()) */\n      0xffffffffffffffffffffffffffffffffffffffff\n      and\n        /* \"@openzeppelin/contracts/access/AccessControl.sol\":6934:6938  role */\n      dup5\n        /* \"@openzeppelin/contracts/access/AccessControl.sol\":6922:6962  RoleRevoked(role, account, _msgSender()) */\n      0xf6391f5c32d9c69d2a47ea670b442974b53935d1edc7fd64eb21e047a839171b\n      mload(0x40)\n      mload(0x40)\n      dup1\n      swap2\n      sub\n      swap1\n      log4\n        /* \"@openzeppelin/contracts/access/AccessControl.sol\":6983:6987  true */\n      0x01\n        /* \"@openzeppelin/contracts/access/AccessControl.sol\":6976:6987  return true */\n      swap1\n      pop\n      jump(tag_147)\n        /* \"@openzeppelin/contracts/access/AccessControl.sol\":6824:7041  if (hasRole(role, account)) {... */\n    tag_149:\n        /* \"@openzeppelin/contracts/access/AccessControl.sol\":7025:7030  false */\n      0x00\n        /* \"@openzeppelin/contracts/access/AccessControl.sol\":7018:7030  return false */\n      swap1\n      pop\n        /* \"@openzeppelin/contracts/access/AccessControl.sol\":6730:7047  function _revokeRole(bytes32 role, address account) internal virtual returns (bool) {... */\n    tag_147:\n      swap3\n      swap2\n      pop\n      pop\n      jump\t// out\n        /* \"@openzeppelin/contracts/access/AccessControl.sol\":3432:3629  function _checkRole(bytes32 role, address account) internal view virtual {... */\n    tag_140:\n        /* \"@openzeppelin/contracts/access/AccessControl.sol\":3520:3542  hasRole(role, account) */\n      tag_153\n        /* \"@openzeppelin/contracts/access/AccessControl.sol\":3528:3532  role */\n      dup3\n        /* \"@openzeppelin/contracts/access/AccessControl.sol\":3534:3541  account */\n      dup3\n        /* \"@openzeppelin/contracts/access/AccessControl.sol\":3520:3527  hasRole */\n      tag_47\n        /* \"@openzeppelin/contracts/access/AccessControl.sol\":3520:3542  hasRole(role, account) */\n      jump\t// in\n    tag_153:\n        /* \"@openzeppelin/contracts/access/AccessControl.sol\":3515:3623  if (!hasRole(role, account)) {... */\n      tag_154\n      jumpi\n        /* \"@openzeppelin/contracts/access/AccessControl.sol\":3598:3605  account */\n      dup1\n        /* \"@openzeppelin/contracts/access/AccessControl.sol\":3607:3611  role */\n      dup3\n        /* \"@openzeppelin/contracts/access/AccessControl.sol\":3565:3612  AccessControlUnauthorizedAccount(account, role) */\n      mload(0x40)\n      0xe2517d3f00000000000000000000000000000000000000000000000000000000\n      dup2\n      mstore\n      0x04\n      add\n      tag_155\n      swap3\n      swap2\n      swap1\n      tag_156\n      jump\t// in\n    tag_155:\n      mload(0x40)\n      dup1\n      swap2\n      sub\n      swap1\n      revert\n        /* \"@openzeppelin/contracts/access/AccessControl.sol\":3515:3623  if (!hasRole(role, account)) {... */\n    tag_154:\n        /* \"@openzeppelin/contracts/access/AccessControl.sol\":3432:3629  function _checkRole(bytes32 role, address account) internal view virtual {... */\n      pop\n      pop\n      jump\t// out\n        /* \"#utility.yul\":88:205   */\n    tag_158:\n        /* \"#utility.yul\":197:198   */\n      0x00\n        /* \"#utility.yul\":194:195   */\n      0x00\n        /* \"#utility.yul\":187:199   */\n      revert\n        /* \"#utility.yul\":211:328   */\n    tag_159:\n        /* \"#utility.yul\":320:321   */\n      0x00\n        /* \"#utility.yul\":317:318   */\n      0x00\n        /* \"#utility.yul\":310:322   */\n      revert\n        /* \"#utility.yul\":334:483   */\n    tag_160:\n        /* \"#utility.yul\":370:377   */\n      0x00\n        /* \"#utility.yul\":410:476   */\n      0xffffffff00000000000000000000000000000000000000000000000000000000\n        /* \"#utility.yul\":403:408   */\n      dup3\n        /* \"#utility.yul\":399:477   */\n      and\n        /* \"#utility.yul\":388:477   */\n      swap1\n      pop\n        /* \"#utility.yul\":334:483   */\n      swap2\n      swap1\n      pop\n      jump\t// out\n        /* \"#utility.yul\":489:609   */\n    tag_161:\n        /* \"#utility.yul\":561:584   */\n      tag_217\n        /* \"#utility.yul\":578:583   */\n      dup2\n        /* \"#utility.yul\":561:584   */\n      tag_160\n      jump\t// in\n    tag_217:\n        /* \"#utility.yul\":554:559   */\n      dup2\n        /* \"#utility.yul\":551:585   */\n      eq\n        /* \"#utility.yul\":541:603   */\n      tag_218\n      jumpi\n        /* \"#utility.yul\":599:600   */\n      0x00\n        /* \"#utility.yul\":596:597   */\n      0x00\n        /* \"#utility.yul\":589:601   */\n      revert\n        /* \"#utility.yul\":541:603   */\n    tag_218:\n        /* \"#utility.yul\":489:609   */\n      pop\n      jump\t// out\n        /* \"#utility.yul\":615:752   */\n    tag_162:\n        /* \"#utility.yul\":660:665   */\n      0x00\n        /* \"#utility.yul\":698:704   */\n      dup2\n        /* \"#utility.yul\":685:705   */\n      calldataload\n        /* \"#utility.yul\":676:705   */\n      swap1\n      pop\n        /* \"#utility.yul\":714:746   */\n      tag_220\n        /* \"#utility.yul\":740:745   */\n      dup2\n        /* \"#utility.yul\":714:746   */\n      tag_161\n      jump\t// in\n    tag_220:\n        /* \"#utility.yul\":615:752   */\n      swap3\n      swap2\n      pop\n      pop\n      jump\t// out\n        /* \"#utility.yul\":758:1085   */\n    tag_17:\n        /* \"#utility.yul\":816:822   */\n      0x00\n        /* \"#utility.yul\":865:867   */\n      0x20\n        /* \"#utility.yul\":853:862   */\n      dup3\n        /* \"#utility.yul\":844:851   */\n      dup5\n        /* \"#utility.yul\":840:863   */\n      sub\n        /* \"#utility.yul\":836:868   */\n      slt\n        /* \"#utility.yul\":833:952   */\n      iszero\n      tag_222\n      jumpi\n        /* \"#utility.yul\":871:950   */\n      tag_223\n      tag_158\n      jump\t// in\n    tag_223:\n        /* \"#utility.yul\":833:952   */\n    tag_222:\n        /* \"#utility.yul\":991:992   */\n      0x00\n        /* \"#utility.yul\":1016:1068   */\n      tag_224\n        /* \"#utility.yul\":1060:1067   */\n      dup5\n        /* \"#utility.yul\":1051:1057   */\n      dup3\n        /* \"#utility.yul\":1040:1049   */\n      dup6\n        /* \"#utility.yul\":1036:1058   */\n      add\n        /* \"#utility.yul\":1016:1068   */\n      tag_162\n      jump\t// in\n    tag_224:\n        /* \"#utility.yul\":1006:1068   */\n      swap2\n      pop\n        /* \"#utility.yul\":962:1078   */\n      pop\n        /* \"#utility.yul\":758:1085   */\n      swap3\n      swap2\n      pop\n      pop\n      jump\t// out\n        /* \"#utility.yul\":1091:1181   */\n    tag_163:\n        /* \"#utility.yul\":1125:1132   */\n      0x00\n        /* \"#utility.yul\":1168:1173   */\n      dup2\n        /* \"#utility.yul\":1161:1174   */\n      iszero\n        /* \"#utility.yul\":1154:1175   */\n      iszero\n        /* \"#utility.yul\":1143:1175   */\n      swap1\n      pop\n        /* \"#utility.yul\":1091:1181   */\n      swap2\n      swap1\n      pop\n      jump\t// out\n        /* \"#utility.yul\":1187:1296   */\n    tag_164:\n        /* \"#utility.yul\":1268:1289   */\n      tag_227\n        /* \"#utility.yul\":1283:1288   */\n      dup2\n        /* \"#utility.yul\":1268:1289   */\n      tag_163\n      jump\t// in\n    tag_227:\n        /* \"#utility.yul\":1263:1266   */\n      dup3\n        /* \"#utility.yul\":1256:1290   */\n      mstore\n        /* \"#utility.yul\":1187:1296   */\n      pop\n      pop\n      jump\t// out\n        /* \"#utility.yul\":1302:1512   */\n    tag_20:\n        /* \"#utility.yul\":1389:1393   */\n      0x00\n        /* \"#utility.yul\":1427:1429   */\n      0x20\n        /* \"#utility.yul\":1416:1425   */\n      dup3\n        /* \"#utility.yul\":1412:1430   */\n      add\n        /* \"#utility.yul\":1404:1430   */\n      swap1\n      pop\n        /* \"#utility.yul\":1440:1505   */\n      tag_229\n        /* \"#utility.yul\":1502:1503   */\n      0x00\n        /* \"#utility.yul\":1491:1500   */\n      dup4\n        /* \"#utility.yul\":1487:1504   */\n      add\n        /* \"#utility.yul\":1478:1484   */\n      dup5\n        /* \"#utility.yul\":1440:1505   */\n      tag_164\n      jump\t// in\n    tag_229:\n        /* \"#utility.yul\":1302:1512   */\n      swap3\n      swap2\n      pop\n      pop\n      jump\t// out\n        /* \"#utility.yul\":1518:1644   */\n    tag_165:\n        /* \"#utility.yul\":1555:1562   */\n      0x00\n        /* \"#utility.yul\":1595:1637   */\n      0xffffffffffffffffffffffffffffffffffffffff\n        /* \"#utility.yul\":1588:1593   */\n      dup3\n        /* \"#utility.yul\":1584:1638   */\n      and\n        /* \"#utility.yul\":1573:1638   */\n      swap1\n      pop\n        /* \"#utility.yul\":1518:1644   */\n      swap2\n      swap1\n      pop\n      jump\t// out\n        /* \"#utility.yul\":1650:1710   */\n    tag_166:\n        /* \"#utility.yul\":1678:1681   */\n      0x00\n        /* \"#utility.yul\":1699:1704   */\n      dup2\n        /* \"#utility.yul\":1692:1704   */\n      swap1\n      pop\n        /* \"#utility.yul\":1650:1710   */\n      swap2\n      swap1\n      pop\n      jump\t// out\n        /* \"#utility.yul\":1716:1858   */\n    tag_167:\n        /* \"#utility.yul\":1766:1775   */\n      0x00\n        /* \"#utility.yul\":1799:1852   */\n      tag_233\n        /* \"#utility.yul\":1817:1851   */\n      tag_234\n        /* \"#utility.yul\":1826:1850   */\n      tag_235\n        /* \"#utility.yul\":1844:1849   */\n      dup5\n        /* \"#utility.yul\":1826:1850   */\n      tag_165\n      jump\t// in\n    tag_235:\n        /* \"#utility.yul\":1817:1851   */\n      tag_166\n      jump\t// in\n    tag_234:\n        /* \"#utility.yul\":1799:1852   */\n      tag_165\n      jump\t// in\n    tag_233:\n        /* \"#utility.yul\":1786:1852   */\n      swap1\n      pop\n        /* \"#utility.yul\":1716:1858   */\n      swap2\n      swap1\n      pop\n      jump\t// out\n        /* \"#utility.yul\":1864:1990   */\n    tag_168:\n        /* \"#utility.yul\":1914:1923   */\n      0x00\n        /* \"#utility.yul\":1947:1984   */\n      tag_237\n        /* \"#utility.yul\":1978:1983   */\n      dup3\n        /* \"#utility.yul\":1947:1984   */\n      tag_167\n      jump\t// in\n    tag_237:\n        /* \"#utility.yul\":1934:1984   */\n      swap1\n      pop\n        /* \"#utility.yul\":1864:1990   */\n      swap2\n      swap1\n      pop\n      jump\t// out\n        /* \"#utility.yul\":1996:2136   */\n    tag_169:\n        /* \"#utility.yul\":2060:2069   */\n      0x00\n        /* \"#utility.yul\":2093:2130   */\n      tag_239\n        /* \"#utility.yul\":2124:2129   */\n      dup3\n        /* \"#utility.yul\":2093:2130   */\n      tag_168\n      jump\t// in\n    tag_239:\n        /* \"#utility.yul\":2080:2130   */\n      swap1\n      pop\n        /* \"#utility.yul\":1996:2136   */\n      swap2\n      swap1\n      pop\n      jump\t// out\n        /* \"#utility.yul\":2142:2301   */\n    tag_170:\n        /* \"#utility.yul\":2243:2294   */\n      tag_241\n        /* \"#utility.yul\":2288:2293   */\n      dup2\n        /* \"#utility.yul\":2243:2294   */\n      tag_169\n      jump\t// in\n    tag_241:\n        /* \"#utility.yul\":2238:2241   */\n      dup3\n        /* \"#utility.yul\":2231:2295   */\n      mstore\n        /* \"#utility.yul\":2142:2301   */\n      pop\n      pop\n      jump\t// out\n        /* \"#utility.yul\":2307:2557   */\n    tag_24:\n        /* \"#utility.yul\":2414:2418   */\n      0x00\n        /* \"#utility.yul\":2452:2454   */\n      0x20\n        /* \"#utility.yul\":2441:2450   */\n      dup3\n        /* \"#utility.yul\":2437:2455   */\n      add\n        /* \"#utility.yul\":2429:2455   */\n      swap1\n      pop\n        /* \"#utility.yul\":2465:2550   */\n      tag_243\n        /* \"#utility.yul\":2547:2548   */\n      0x00\n        /* \"#utility.yul\":2536:2545   */\n      dup4\n        /* \"#utility.yul\":2532:2549   */\n      add\n        /* \"#utility.yul\":2523:2529   */\n      dup5\n        /* \"#utility.yul\":2465:2550   */\n      tag_170\n      jump\t// in\n    tag_243:\n        /* \"#utility.yul\":2307:2557   */\n      swap3\n      swap2\n      pop\n      pop\n      jump\t// out\n        /* \"#utility.yul\":2563:2640   */\n    tag_171:\n        /* \"#utility.yul\":2600:2607   */\n      0x00\n        /* \"#utility.yul\":2629:2634   */\n      dup2\n        /* \"#utility.yul\":2618:2634   */\n      swap1\n      pop\n        /* \"#utility.yul\":2563:2640   */\n      swap2\n      swap1\n      pop\n      jump\t// out\n        /* \"#utility.yul\":2646:2768   */\n    tag_172:\n        /* \"#utility.yul\":2719:2743   */\n      tag_246\n        /* \"#utility.yul\":2737:2742   */\n      dup2\n        /* \"#utility.yul\":2719:2743   */\n      tag_171\n      jump\t// in\n    tag_246:\n        /* \"#utility.yul\":2712:2717   */\n      dup2\n        /* \"#utility.yul\":2709:2744   */\n      eq\n        /* \"#utility.yul\":2699:2762   */\n      tag_247\n      jumpi\n        /* \"#utility.yul\":2758:2759   */\n      0x00\n        /* \"#utility.yul\":2755:2756   */\n      0x00\n        /* \"#utility.yul\":2748:2760   */\n      revert\n        /* \"#utility.yul\":2699:2762   */\n    tag_247:\n        /* \"#utility.yul\":2646:2768   */\n      pop\n      jump\t// out\n        /* \"#utility.yul\":2774:2913   */\n    tag_173:\n        /* \"#utility.yul\":2820:2825   */\n      0x00\n        /* \"#utility.yul\":2858:2864   */\n      dup2\n        /* \"#utility.yul\":2845:2865   */\n      calldataload\n        /* \"#utility.yul\":2836:2865   */\n      swap1\n      pop\n        /* \"#utility.yul\":2874:2907   */\n      tag_249\n        /* \"#utility.yul\":2901:2906   */\n      dup2\n        /* \"#utility.yul\":2874:2907   */\n      tag_172\n      jump\t// in\n    tag_249:\n        /* \"#utility.yul\":2774:2913   */\n      swap3\n      swap2\n      pop\n      pop\n      jump\t// out\n        /* \"#utility.yul\":2919:3248   */\n    tag_27:\n        /* \"#utility.yul\":2978:2984   */\n      0x00\n        /* \"#utility.yul\":3027:3029   */\n      0x20\n        /* \"#utility.yul\":3015:3024   */\n      dup3\n        /* \"#utility.yul\":3006:3013   */\n      dup5\n        /* \"#utility.yul\":3002:3025   */\n      sub\n        /* \"#utility.yul\":2998:3030   */\n      slt\n        /* \"#utility.yul\":2995:3114   */\n      iszero\n      tag_251\n      jumpi\n        /* \"#utility.yul\":3033:3112   */\n      tag_252\n      tag_158\n      jump\t// in\n    tag_252:\n        /* \"#utility.yul\":2995:3114   */\n    tag_251:\n        /* \"#utility.yul\":3153:3154   */\n      0x00\n        /* \"#utility.yul\":3178:3231   */\n      tag_253\n        /* \"#utility.yul\":3223:3230   */\n      dup5\n        /* \"#utility.yul\":3214:3220   */\n      dup3\n        /* \"#utility.yul\":3203:3212   */\n      dup6\n        /* \"#utility.yul\":3199:3221   */\n      add\n        /* \"#utility.yul\":3178:3231   */\n      tag_173\n      jump\t// in\n    tag_253:\n        /* \"#utility.yul\":3168:3231   */\n      swap2\n      pop\n        /* \"#utility.yul\":3124:3241   */\n      pop\n        /* \"#utility.yul\":2919:3248   */\n      swap3\n      swap2\n      pop\n      pop\n      jump\t// out\n        /* \"#utility.yul\":3254:3372   */\n    tag_174:\n        /* \"#utility.yul\":3341:3365   */\n      tag_255\n        /* \"#utility.yul\":3359:3364   */\n      dup2\n        /* \"#utility.yul\":3341:3365   */\n      tag_171\n      jump\t// in\n    tag_255:\n        /* \"#utility.yul\":3336:3339   */\n      dup3\n        /* \"#utility.yul\":3329:3366   */\n      mstore\n        /* \"#utility.yul\":3254:3372   */\n      pop\n      pop\n      jump\t// out\n        /* \"#utility.yul\":3378:3600   */\n    tag_30:\n        /* \"#utility.yul\":3471:3475   */\n      0x00\n        /* \"#utility.yul\":3509:3511   */\n      0x20\n        /* \"#utility.yul\":3498:3507   */\n      dup3\n        /* \"#utility.yul\":3494:3512   */\n      add\n        /* \"#utility.yul\":3486:3512   */\n      swap1\n      pop\n        /* \"#utility.yul\":3522:3593   */\n      tag_257\n        /* \"#utility.yul\":3590:3591   */\n      0x00\n        /* \"#utility.yul\":3579:3588   */\n      dup4\n        /* \"#utility.yul\":3575:3592   */\n      add\n        /* \"#utility.yul\":3566:3572   */\n      dup5\n        /* \"#utility.yul\":3522:3593   */\n      tag_174\n      jump\t// in\n    tag_257:\n        /* \"#utility.yul\":3378:3600   */\n      swap3\n      swap2\n      pop\n      pop\n      jump\t// out\n        /* \"#utility.yul\":3606:3702   */\n    tag_175:\n        /* \"#utility.yul\":3643:3650   */\n      0x00\n        /* \"#utility.yul\":3672:3696   */\n      tag_259\n        /* \"#utility.yul\":3690:3695   */\n      dup3\n        /* \"#utility.yul\":3672:3696   */\n      tag_165\n      jump\t// in\n    tag_259:\n        /* \"#utility.yul\":3661:3696   */\n      swap1\n      pop\n        /* \"#utility.yul\":3606:3702   */\n      swap2\n      swap1\n      pop\n      jump\t// out\n        /* \"#utility.yul\":3708:3830   */\n    tag_176:\n        /* \"#utility.yul\":3781:3805   */\n      tag_261\n        /* \"#utility.yul\":3799:3804   */\n      dup2\n        /* \"#utility.yul\":3781:3805   */\n      tag_175\n      jump\t// in\n    tag_261:\n        /* \"#utility.yul\":3774:3779   */\n      dup2\n        /* \"#utility.yul\":3771:3806   */\n      eq\n        /* \"#utility.yul\":3761:3824   */\n      tag_262\n      jumpi\n        /* \"#utility.yul\":3820:3821   */\n      0x00\n        /* \"#utility.yul\":3817:3818   */\n      0x00\n        /* \"#utility.yul\":3810:3822   */\n      revert\n        /* \"#utility.yul\":3761:3824   */\n    tag_262:\n        /* \"#utility.yul\":3708:3830   */\n      pop\n      jump\t// out\n        /* \"#utility.yul\":3836:3975   */\n    tag_177:\n        /* \"#utility.yul\":3882:3887   */\n      0x00\n        /* \"#utility.yul\":3920:3926   */\n      dup2\n        /* \"#utility.yul\":3907:3927   */\n      calldataload\n        /* \"#utility.yul\":3898:3927   */\n      swap1\n      pop\n        /* \"#utility.yul\":3936:3969   */\n      tag_264\n        /* \"#utility.yul\":3963:3968   */\n      dup2\n        /* \"#utility.yul\":3936:3969   */\n      tag_176\n      jump\t// in\n    tag_264:\n        /* \"#utility.yul\":3836:3975   */\n      swap3\n      swap2\n      pop\n      pop\n      jump\t// out\n        /* \"#utility.yul\":3981:4455   */\n    tag_33:\n        /* \"#utility.yul\":4049:4055   */\n      0x00\n        /* \"#utility.yul\":4057:4063   */\n      0x00\n        /* \"#utility.yul\":4106:4108   */\n      0x40\n        /* \"#utility.yul\":4094:4103   */\n      dup4\n        /* \"#utility.yul\":4085:4092   */\n      dup6\n        /* \"#utility.yul\":4081:4104   */\n      sub\n        /* \"#utility.yul\":4077:4109   */\n      slt\n        /* \"#utility.yul\":4074:4193   */\n      iszero\n      tag_266\n      jumpi\n        /* \"#utility.yul\":4112:4191   */\n      tag_267\n      tag_158\n      jump\t// in\n    tag_267:\n        /* \"#utility.yul\":4074:4193   */\n    tag_266:\n        /* \"#utility.yul\":4232:4233   */\n      0x00\n        /* \"#utility.yul\":4257:4310   */\n      tag_268\n        /* \"#utility.yul\":4302:4309   */\n      dup6\n        /* \"#utility.yul\":4293:4299   */\n      dup3\n        /* \"#utility.yul\":4282:4291   */\n      dup7\n        /* \"#utility.yul\":4278:4300   */\n      add\n        /* \"#utility.yul\":4257:4310   */\n      tag_173\n      jump\t// in\n    tag_268:\n        /* \"#utility.yul\":4247:4310   */\n      swap3\n      pop\n        /* \"#utility.yul\":4203:4320   */\n      pop\n        /* \"#utility.yul\":4359:4361   */\n      0x20\n        /* \"#utility.yul\":4385:4438   */\n      tag_269\n        /* \"#utility.yul\":4430:4437   */\n      dup6\n        /* \"#utility.yul\":4421:4427   */\n      dup3\n        /* \"#utility.yul\":4410:4419   */\n      dup7\n        /* \"#utility.yul\":4406:4428   */\n      add\n        /* \"#utility.yul\":4385:4438   */\n      tag_177\n      jump\t// in\n    tag_269:\n        /* \"#utility.yul\":4375:4438   */\n      swap2\n      pop\n        /* \"#utility.yul\":4330:4448   */\n      pop\n        /* \"#utility.yul\":3981:4455   */\n      swap3\n      pop\n      swap3\n      swap1\n      pop\n      jump\t// out\n        /* \"#utility.yul\":4461:4578   */\n    tag_178:\n        /* \"#utility.yul\":4570:4571   */\n      0x00\n        /* \"#utility.yul\":4567:4568   */\n      0x00\n        /* \"#utility.yul\":4560:4572   */\n      revert\n        /* \"#utility.yul\":4584:4701   */\n    tag_179:\n        /* \"#utility.yul\":4693:4694   */\n      0x00\n        /* \"#utility.yul\":4690:4691   */\n      0x00\n        /* \"#utility.yul\":4683:4695   */\n      revert\n        /* \"#utility.yul\":4707:4824   */\n    tag_180:\n        /* \"#utility.yul\":4816:4817   */\n      0x00\n        /* \"#utility.yul\":4813:4814   */\n      0x00\n        /* \"#utility.yul\":4806:4818   */\n      revert\n        /* \"#utility.yul\":4847:5415   */\n    tag_181:\n        /* \"#utility.yul\":4920:4928   */\n      0x00\n        /* \"#utility.yul\":4930:4936   */\n      0x00\n        /* \"#utility.yul\":4980:4983   */\n      dup4\n        /* \"#utility.yul\":4973:4977   */\n      0x1f\n        /* \"#utility.yul\":4965:4971   */\n      dup5\n        /* \"#utility.yul\":4961:4978   */\n      add\n        /* \"#utility.yul\":4957:4984   */\n      slt\n        /* \"#utility.yul\":4947:5069   */\n      tag_274\n      jumpi\n        /* \"#utility.yul\":4988:5067   */\n      tag_275\n      tag_178\n      jump\t// in\n    tag_275:\n        /* \"#utility.yul\":4947:5069   */\n    tag_274:\n        /* \"#utility.yul\":5101:5107   */\n      dup3\n        /* \"#utility.yul\":5088:5108   */\n      calldataload\n        /* \"#utility.yul\":5078:5108   */\n      swap1\n      pop\n        /* \"#utility.yul\":5131:5149   */\n      0xffffffffffffffff\n        /* \"#utility.yul\":5123:5129   */\n      dup2\n        /* \"#utility.yul\":5120:5150   */\n      gt\n        /* \"#utility.yul\":5117:5234   */\n      iszero\n      tag_276\n      jumpi\n        /* \"#utility.yul\":5153:5232   */\n      tag_277\n      tag_179\n      jump\t// in\n    tag_277:\n        /* \"#utility.yul\":5117:5234   */\n    tag_276:\n        /* \"#utility.yul\":5267:5271   */\n      0x20\n        /* \"#utility.yul\":5259:5265   */\n      dup4\n        /* \"#utility.yul\":5255:5272   */\n      add\n        /* \"#utility.yul\":5243:5272   */\n      swap2\n      pop\n        /* \"#utility.yul\":5321:5324   */\n      dup4\n        /* \"#utility.yul\":5313:5317   */\n      0x20\n        /* \"#utility.yul\":5305:5311   */\n      dup3\n        /* \"#utility.yul\":5301:5318   */\n      mul\n        /* \"#utility.yul\":5291:5299   */\n      dup4\n        /* \"#utility.yul\":5287:5319   */\n      add\n        /* \"#utility.yul\":5284:5325   */\n      gt\n        /* \"#utility.yul\":5281:5409   */\n      iszero\n      tag_278\n      jumpi\n        /* \"#utility.yul\":5328:5407   */\n      tag_279\n      tag_180\n      jump\t// in\n    tag_279:\n        /* \"#utility.yul\":5281:5409   */\n    tag_278:\n        /* \"#utility.yul\":4847:5415   */\n      swap3\n      pop\n      swap3\n      swap1\n      pop\n      jump\t// out\n        /* \"#utility.yul\":5438:6006   */\n    tag_182:\n        /* \"#utility.yul\":5511:5519   */\n      0x00\n        /* \"#utility.yul\":5521:5527   */\n      0x00\n        /* \"#utility.yul\":5571:5574   */\n      dup4\n        /* \"#utility.yul\":5564:5568   */\n      0x1f\n        /* \"#utility.yul\":5556:5562   */\n      dup5\n        /* \"#utility.yul\":5552:5569   */\n      add\n        /* \"#utility.yul\":5548:5575   */\n      slt\n        /* \"#utility.yul\":5538:5660   */\n      tag_281\n      jumpi\n        /* \"#utility.yul\":5579:5658   */\n      tag_282\n      tag_178\n      jump\t// in\n    tag_282:\n        /* \"#utility.yul\":5538:5660   */\n    tag_281:\n        /* \"#utility.yul\":5692:5698   */\n      dup3\n        /* \"#utility.yul\":5679:5699   */\n      calldataload\n        /* \"#utility.yul\":5669:5699   */\n      swap1\n      pop\n        /* \"#utility.yul\":5722:5740   */\n      0xffffffffffffffff\n        /* \"#utility.yul\":5714:5720   */\n      dup2\n        /* \"#utility.yul\":5711:5741   */\n      gt\n        /* \"#utility.yul\":5708:5825   */\n      iszero\n      tag_283\n      jumpi\n        /* \"#utility.yul\":5744:5823   */\n      tag_284\n      tag_179\n      jump\t// in\n    tag_284:\n        /* \"#utility.yul\":5708:5825   */\n    tag_283:\n        /* \"#utility.yul\":5858:5862   */\n      0x20\n        /* \"#utility.yul\":5850:5856   */\n      dup4\n        /* \"#utility.yul\":5846:5863   */\n      add\n        /* \"#utility.yul\":5834:5863   */\n      swap2\n      pop\n        /* \"#utility.yul\":5912:5915   */\n      dup4\n        /* \"#utility.yul\":5904:5908   */\n      0x20\n        /* \"#utility.yul\":5896:5902   */\n      dup3\n        /* \"#utility.yul\":5892:5909   */\n      mul\n        /* \"#utility.yul\":5882:5890   */\n      dup4\n        /* \"#utility.yul\":5878:5910   */\n      add\n        /* \"#utility.yul\":5875:5916   */\n      gt\n        /* \"#utility.yul\":5872:6000   */\n      iszero\n      tag_285\n      jumpi\n        /* \"#utility.yul\":5919:5998   */\n      tag_286\n      tag_180\n      jump\t// in\n    tag_286:\n        /* \"#utility.yul\":5872:6000   */\n    tag_285:\n        /* \"#utility.yul\":5438:6006   */\n      swap3\n      pop\n      swap3\n      swap1\n      pop\n      jump\t// out\n        /* \"#utility.yul\":6012:6946   */\n    tag_40:\n        /* \"#utility.yul\":6134:6140   */\n      0x00\n        /* \"#utility.yul\":6142:6148   */\n      0x00\n        /* \"#utility.yul\":6150:6156   */\n      0x00\n        /* \"#utility.yul\":6158:6164   */\n      0x00\n        /* \"#utility.yul\":6207:6209   */\n      0x40\n        /* \"#utility.yul\":6195:6204   */\n      dup6\n        /* \"#utility.yul\":6186:6193   */\n      dup8\n        /* \"#utility.yul\":6182:6205   */\n      sub\n        /* \"#utility.yul\":6178:6210   */\n      slt\n        /* \"#utility.yul\":6175:6294   */\n      iszero\n      tag_288\n      jumpi\n        /* \"#utility.yul\":6213:6292   */\n      tag_289\n      tag_158\n      jump\t// in\n    tag_289:\n        /* \"#utility.yul\":6175:6294   */\n    tag_288:\n        /* \"#utility.yul\":6361:6362   */\n      0x00\n        /* \"#utility.yul\":6350:6359   */\n      dup6\n        /* \"#utility.yul\":6346:6363   */\n      add\n        /* \"#utility.yul\":6333:6364   */\n      calldataload\n        /* \"#utility.yul\":6391:6409   */\n      0xffffffffffffffff\n        /* \"#utility.yul\":6383:6389   */\n      dup2\n        /* \"#utility.yul\":6380:6410   */\n      gt\n        /* \"#utility.yul\":6377:6494   */\n      iszero\n      tag_290\n      jumpi\n        /* \"#utility.yul\":6413:6492   */\n      tag_291\n      tag_159\n      jump\t// in\n    tag_291:\n        /* \"#utility.yul\":6377:6494   */\n    tag_290:\n        /* \"#utility.yul\":6526:6606   */\n      tag_292\n        /* \"#utility.yul\":6598:6605   */\n      dup8\n        /* \"#utility.yul\":6589:6595   */\n      dup3\n        /* \"#utility.yul\":6578:6587   */\n      dup9\n        /* \"#utility.yul\":6574:6596   */\n      add\n        /* \"#utility.yul\":6526:6606   */\n      tag_181\n      jump\t// in\n    tag_292:\n        /* \"#utility.yul\":6508:6606   */\n      swap5\n      pop\n      swap5\n      pop\n        /* \"#utility.yul\":6304:6616   */\n      pop\n        /* \"#utility.yul\":6683:6685   */\n      0x20\n        /* \"#utility.yul\":6672:6681   */\n      dup6\n        /* \"#utility.yul\":6668:6686   */\n      add\n        /* \"#utility.yul\":6655:6687   */\n      calldataload\n        /* \"#utility.yul\":6714:6732   */\n      0xffffffffffffffff\n        /* \"#utility.yul\":6706:6712   */\n      dup2\n        /* \"#utility.yul\":6703:6733   */\n      gt\n        /* \"#utility.yul\":6700:6817   */\n      iszero\n      tag_293\n      jumpi\n        /* \"#utility.yul\":6736:6815   */\n      tag_294\n      tag_159\n      jump\t// in\n    tag_294:\n        /* \"#utility.yul\":6700:6817   */\n    tag_293:\n        /* \"#utility.yul\":6849:6929   */\n      tag_295\n        /* \"#utility.yul\":6921:6928   */\n      dup8\n        /* \"#utility.yul\":6912:6918   */\n      dup3\n        /* \"#utility.yul\":6901:6910   */\n      dup9\n        /* \"#utility.yul\":6897:6919   */\n      add\n        /* \"#utility.yul\":6849:6929   */\n      tag_182\n      jump\t// in\n    tag_295:\n        /* \"#utility.yul\":6831:6929   */\n      swap3\n      pop\n      swap3\n      pop\n        /* \"#utility.yul\":6626:6939   */\n      pop\n        /* \"#utility.yul\":6012:6946   */\n      swap3\n      swap6\n      swap2\n      swap5\n      pop\n      swap3\n      pop\n      jump\t// out\n        /* \"#utility.yul\":6952:7029   */\n    tag_183:\n        /* \"#utility.yul\":6989:6996   */\n      0x00\n        /* \"#utility.yul\":7018:7023   */\n      dup2\n        /* \"#utility.yul\":7007:7023   */\n      swap1\n      pop\n        /* \"#utility.yul\":6952:7029   */\n      swap2\n      swap1\n      pop\n      jump\t// out\n        /* \"#utility.yul\":7035:7157   */\n    tag_184:\n        /* \"#utility.yul\":7108:7132   */\n      tag_298\n        /* \"#utility.yul\":7126:7131   */\n      dup2\n        /* \"#utility.yul\":7108:7132   */\n      tag_183\n      jump\t// in\n    tag_298:\n        /* \"#utility.yul\":7101:7106   */\n      dup2\n        /* \"#utility.yul\":7098:7133   */\n      eq\n        /* \"#utility.yul\":7088:7151   */\n      tag_299\n      jumpi\n        /* \"#utility.yul\":7147:7148   */\n      0x00\n        /* \"#utility.yul\":7144:7145   */\n      0x00\n        /* \"#utility.yul\":7137:7149   */\n      revert\n        /* \"#utility.yul\":7088:7151   */\n    tag_299:\n        /* \"#utility.yul\":7035:7157   */\n      pop\n      jump\t// out\n        /* \"#utility.yul\":7163:7302   */\n    tag_185:\n        /* \"#utility.yul\":7209:7214   */\n      0x00\n        /* \"#utility.yul\":7247:7253   */\n      dup2\n        /* \"#utility.yul\":7234:7254   */\n      calldataload\n        /* \"#utility.yul\":7225:7254   */\n      swap1\n      pop\n        /* \"#utility.yul\":7263:7296   */\n      tag_301\n        /* \"#utility.yul\":7290:7295   */\n      dup2\n        /* \"#utility.yul\":7263:7296   */\n      tag_184\n      jump\t// in\n    tag_301:\n        /* \"#utility.yul\":7163:7302   */\n      swap3\n      swap2\n      pop\n      pop\n      jump\t// out\n        /* \"#utility.yul\":7308:7927   */\n    tag_54:\n        /* \"#utility.yul\":7385:7391   */\n      0x00\n        /* \"#utility.yul\":7393:7399   */\n      0x00\n        /* \"#utility.yul\":7401:7407   */\n      0x00\n        /* \"#utility.yul\":7450:7452   */\n      0x60\n        /* \"#utility.yul\":7438:7447   */\n      dup5\n        /* \"#utility.yul\":7429:7436   */\n      dup7\n        /* \"#utility.yul\":7425:7448   */\n      sub\n        /* \"#utility.yul\":7421:7453   */\n      slt\n        /* \"#utility.yul\":7418:7537   */\n      iszero\n      tag_303\n      jumpi\n        /* \"#utility.yul\":7456:7535   */\n      tag_304\n      tag_158\n      jump\t// in\n    tag_304:\n        /* \"#utility.yul\":7418:7537   */\n    tag_303:\n        /* \"#utility.yul\":7576:7577   */\n      0x00\n        /* \"#utility.yul\":7601:7654   */\n      tag_305\n        /* \"#utility.yul\":7646:7653   */\n      dup7\n        /* \"#utility.yul\":7637:7643   */\n      dup3\n        /* \"#utility.yul\":7626:7635   */\n      dup8\n        /* \"#utility.yul\":7622:7644   */\n      add\n        /* \"#utility.yul\":7601:7654   */\n      tag_177\n      jump\t// in\n    tag_305:\n        /* \"#utility.yul\":7591:7654   */\n      swap4\n      pop\n        /* \"#utility.yul\":7547:7664   */\n      pop\n        /* \"#utility.yul\":7703:7705   */\n      0x20\n        /* \"#utility.yul\":7729:7782   */\n      tag_306\n        /* \"#utility.yul\":7774:7781   */\n      dup7\n        /* \"#utility.yul\":7765:7771   */\n      dup3\n        /* \"#utility.yul\":7754:7763   */\n      dup8\n        /* \"#utility.yul\":7750:7772   */\n      add\n        /* \"#utility.yul\":7729:7782   */\n      tag_185\n      jump\t// in\n    tag_306:\n        /* \"#utility.yul\":7719:7782   */\n      swap3\n      pop\n        /* \"#utility.yul\":7674:7792   */\n      pop\n        /* \"#utility.yul\":7831:7833   */\n      0x40\n        /* \"#utility.yul\":7857:7910   */\n      tag_307\n        /* \"#utility.yul\":7902:7909   */\n      dup7\n        /* \"#utility.yul\":7893:7899   */\n      dup3\n        /* \"#utility.yul\":7882:7891   */\n      dup8\n        /* \"#utility.yul\":7878:7900   */\n      add\n        /* \"#utility.yul\":7857:7910   */\n      tag_177\n      jump\t// in\n    tag_307:\n        /* \"#utility.yul\":7847:7910   */\n      swap2\n      pop\n        /* \"#utility.yul\":7802:7920   */\n      pop\n        /* \"#utility.yul\":7308:7927   */\n      swap3\n      pop\n      swap3\n      pop\n      swap3\n      jump\t// out\n        /* \"#utility.yul\":7933:8102   */\n    tag_186:\n        /* \"#utility.yul\":8017:8028   */\n      0x00\n        /* \"#utility.yul\":8051:8057   */\n      dup3\n        /* \"#utility.yul\":8046:8049   */\n      dup3\n        /* \"#utility.yul\":8039:8058   */\n      mstore\n        /* \"#utility.yul\":8091:8095   */\n      0x20\n        /* \"#utility.yul\":8086:8089   */\n      dup3\n        /* \"#utility.yul\":8082:8096   */\n      add\n        /* \"#utility.yul\":8067:8096   */\n      swap1\n      pop\n        /* \"#utility.yul\":7933:8102   */\n      swap3\n      swap2\n      pop\n      pop\n      jump\t// out\n        /* \"#utility.yul\":8108:8273   */\n    tag_187:\n        /* \"#utility.yul\":8248:8265   */\n      0x4c656e677468206d69736d617463680000000000000000000000000000000000\n        /* \"#utility.yul\":8244:8245   */\n      0x00\n        /* \"#utility.yul\":8236:8242   */\n      dup3\n        /* \"#utility.yul\":8232:8246   */\n      add\n        /* \"#utility.yul\":8225:8266   */\n      mstore\n        /* \"#utility.yul\":8108:8273   */\n      pop\n      jump\t// out\n        /* \"#utility.yul\":8279:8645   */\n    tag_188:\n        /* \"#utility.yul\":8421:8424   */\n      0x00\n        /* \"#utility.yul\":8442:8509   */\n      tag_311\n        /* \"#utility.yul\":8506:8508   */\n      0x0f\n        /* \"#utility.yul\":8501:8504   */\n      dup4\n        /* \"#utility.yul\":8442:8509   */\n      tag_186\n      jump\t// in\n    tag_311:\n        /* \"#utility.yul\":8435:8509   */\n      swap2\n      pop\n        /* \"#utility.yul\":8518:8611   */\n      tag_312\n        /* \"#utility.yul\":8607:8610   */\n      dup3\n        /* \"#utility.yul\":8518:8611   */\n      tag_187\n      jump\t// in\n    tag_312:\n        /* \"#utility.yul\":8636:8638   */\n      0x20\n        /* \"#utility.yul\":8631:8634   */\n      dup3\n        /* \"#utility.yul\":8627:8639   */\n      add\n        /* \"#utility.yul\":8620:8639   */\n      swap1\n      pop\n        /* \"#utility.yul\":8279:8645   */\n      swap2\n      swap1\n      pop\n      jump\t// out\n        /* \"#utility.yul\":8651:9070   */\n    tag_82:\n        /* \"#utility.yul\":8817:8821   */\n      0x00\n        /* \"#utility.yul\":8855:8857   */\n      0x20\n        /* \"#utility.yul\":8844:8853   */\n      dup3\n        /* \"#utility.yul\":8840:8858   */\n      add\n        /* \"#utility.yul\":8832:8858   */\n      swap1\n      pop\n        /* \"#utility.yul\":8904:8913   */\n      dup2\n        /* \"#utility.yul\":8898:8902   */\n      dup2\n        /* \"#utility.yul\":8894:8914   */\n      sub\n        /* \"#utility.yul\":8890:8891   */\n      0x00\n        /* \"#utility.yul\":8879:8888   */\n      dup4\n        /* \"#utility.yul\":8875:8892   */\n      add\n        /* \"#utility.yul\":8868:8915   */\n      mstore\n        /* \"#utility.yul\":8932:9063   */\n      tag_314\n        /* \"#utility.yul\":9058:9062   */\n      dup2\n        /* \"#utility.yul\":8932:9063   */\n      tag_188\n      jump\t// in\n    tag_314:\n        /* \"#utility.yul\":8924:9063   */\n      swap1\n      pop\n        /* \"#utility.yul\":8651:9070   */\n      swap2\n      swap1\n      pop\n      jump\t// out\n        /* \"#utility.yul\":9076:9256   */\n    tag_88:\n        /* \"#utility.yul\":9124:9201   */\n      0x4e487b7100000000000000000000000000000000000000000000000000000000\n        /* \"#utility.yul\":9121:9122   */\n      0x00\n        /* \"#utility.yul\":9114:9202   */\n      mstore\n        /* \"#utility.yul\":9221:9225   */\n      0x32\n        /* \"#utility.yul\":9218:9219   */\n      0x04\n        /* \"#utility.yul\":9211:9226   */\n      mstore\n        /* \"#utility.yul\":9245:9249   */\n      0x24\n        /* \"#utility.yul\":9242:9243   */\n      0x00\n        /* \"#utility.yul\":9235:9250   */\n      revert\n        /* \"#utility.yul\":9262:9591   */\n    tag_90:\n        /* \"#utility.yul\":9321:9327   */\n      0x00\n        /* \"#utility.yul\":9370:9372   */\n      0x20\n        /* \"#utility.yul\":9358:9367   */\n      dup3\n        /* \"#utility.yul\":9349:9356   */\n      dup5\n        /* \"#utility.yul\":9345:9368   */\n      sub\n        /* \"#utility.yul\":9341:9373   */\n      slt\n        /* \"#utility.yul\":9338:9457   */\n      iszero\n      tag_317\n      jumpi\n        /* \"#utility.yul\":9376:9455   */\n      tag_318\n      tag_158\n      jump\t// in\n    tag_318:\n        /* \"#utility.yul\":9338:9457   */\n    tag_317:\n        /* \"#utility.yul\":9496:9497   */\n      0x00\n        /* \"#utility.yul\":9521:9574   */\n      tag_319\n        /* \"#utility.yul\":9566:9573   */\n      dup5\n        /* \"#utility.yul\":9557:9563   */\n      dup3\n        /* \"#utility.yul\":9546:9555   */\n      dup6\n        /* \"#utility.yul\":9542:9564   */\n      add\n        /* \"#utility.yul\":9521:9574   */\n      tag_177\n      jump\t// in\n    tag_319:\n        /* \"#utility.yul\":9511:9574   */\n      swap2\n      pop\n        /* \"#utility.yul\":9467:9584   */\n      pop\n        /* \"#utility.yul\":9262:9591   */\n      swap3\n      swap2\n      pop\n      pop\n      jump\t// out\n        /* \"#utility.yul\":9597:9759   */\n    tag_189:\n        /* \"#utility.yul\":9737:9751   */\n      0x5a65726f20616464726573730000000000000000000000000000000000000000\n        /* \"#utility.yul\":9733:9734   */\n      0x00\n        /* \"#utility.yul\":9725:9731   */\n      dup3\n        /* \"#utility.yul\":9721:9735   */\n      add\n        /* \"#utility.yul\":9714:9752   */\n      mstore\n        /* \"#utility.yul\":9597:9759   */\n      pop\n      jump\t// out\n        /* \"#utility.yul\":9765:10131   */\n    tag_190:\n        /* \"#utility.yul\":9907:9910   */\n      0x00\n        /* \"#utility.yul\":9928:9995   */\n      tag_322\n        /* \"#utility.yul\":9992:9994   */\n      0x0c\n        /* \"#utility.yul\":9987:9990   */\n      dup4\n        /* \"#utility.yul\":9928:9995   */\n      tag_186\n      jump\t// in\n    tag_322:\n        /* \"#utility.yul\":9921:9995   */\n      swap2\n      pop\n        /* \"#utility.yul\":10004:10097   */\n      tag_323\n        /* \"#utility.yul\":10093:10096   */\n      dup3\n        /* \"#utility.yul\":10004:10097   */\n      tag_189\n      jump\t// in\n    tag_323:\n        /* \"#utility.yul\":10122:10124   */\n      0x20\n        /* \"#utility.yul\":10117:10120   */\n      dup3\n        /* \"#utility.yul\":10113:10125   */\n      add\n        /* \"#utility.yul\":10106:10125   */\n      swap1\n      pop\n        /* \"#utility.yul\":9765:10131   */\n      swap2\n      swap1\n      pop\n      jump\t// out\n        /* \"#utility.yul\":10137:10556   */\n    tag_93:\n        /* \"#utility.yul\":10303:10307   */\n      0x00\n        /* \"#utility.yul\":10341:10343   */\n      0x20\n        /* \"#utility.yul\":10330:10339   */\n      dup3\n        /* \"#utility.yul\":10326:10344   */\n      add\n        /* \"#utility.yul\":10318:10344   */\n      swap1\n      pop\n        /* \"#utility.yul\":10390:10399   */\n      dup2\n        /* \"#utility.yul\":10384:10388   */\n      dup2\n        /* \"#utility.yul\":10380:10400   */\n      sub\n        /* \"#utility.yul\":10376:10377   */\n      0x00\n        /* \"#utility.yul\":10365:10374   */\n      dup4\n        /* \"#utility.yul\":10361:10378   */\n      add\n        /* \"#utility.yul\":10354:10401   */\n      mstore\n        /* \"#utility.yul\":10418:10549   */\n      tag_325\n        /* \"#utility.yul\":10544:10548   */\n      dup2\n        /* \"#utility.yul\":10418:10549   */\n      tag_190\n      jump\t// in\n    tag_325:\n        /* \"#utility.yul\":10410:10549   */\n      swap1\n      pop\n        /* \"#utility.yul\":10137:10556   */\n      swap2\n      swap1\n      pop\n      jump\t// out\n        /* \"#utility.yul\":10562:10680   */\n    tag_191:\n        /* \"#utility.yul\":10649:10673   */\n      tag_327\n        /* \"#utility.yul\":10667:10672   */\n      dup2\n        /* \"#utility.yul\":10649:10673   */\n      tag_175\n      jump\t// in\n    tag_327:\n        /* \"#utility.yul\":10644:10647   */\n      dup3\n        /* \"#utility.yul\":10637:10674   */\n      mstore\n        /* \"#utility.yul\":10562:10680   */\n      pop\n      pop\n      jump\t// out\n        /* \"#utility.yul\":10686:10908   */\n    tag_97:\n        /* \"#utility.yul\":10779:10783   */\n      0x00\n        /* \"#utility.yul\":10817:10819   */\n      0x20\n        /* \"#utility.yul\":10806:10815   */\n      dup3\n        /* \"#utility.yul\":10802:10820   */\n      add\n        /* \"#utility.yul\":10794:10820   */\n      swap1\n      pop\n        /* \"#utility.yul\":10830:10901   */\n      tag_329\n        /* \"#utility.yul\":10898:10899   */\n      0x00\n        /* \"#utility.yul\":10887:10896   */\n      dup4\n        /* \"#utility.yul\":10883:10900   */\n      add\n        /* \"#utility.yul\":10874:10880   */\n      dup5\n        /* \"#utility.yul\":10830:10901   */\n      tag_191\n      jump\t// in\n    tag_329:\n        /* \"#utility.yul\":10686:10908   */\n      swap3\n      swap2\n      pop\n      pop\n      jump\t// out\n        /* \"#utility.yul\":10914:11057   */\n    tag_192:\n        /* \"#utility.yul\":10971:10976   */\n      0x00\n        /* \"#utility.yul\":11002:11008   */\n      dup2\n        /* \"#utility.yul\":10996:11009   */\n      mload\n        /* \"#utility.yul\":10987:11009   */\n      swap1\n      pop\n        /* \"#utility.yul\":11018:11051   */\n      tag_331\n        /* \"#utility.yul\":11045:11050   */\n      dup2\n        /* \"#utility.yul\":11018:11051   */\n      tag_184\n      jump\t// in\n    tag_331:\n        /* \"#utility.yul\":10914:11057   */\n      swap3\n      swap2\n      pop\n      pop\n      jump\t// out\n        /* \"#utility.yul\":11063:11414   */\n    tag_101:\n        /* \"#utility.yul\":11133:11139   */\n      0x00\n        /* \"#utility.yul\":11182:11184   */\n      0x20\n        /* \"#utility.yul\":11170:11179   */\n      dup3\n        /* \"#utility.yul\":11161:11168   */\n      dup5\n        /* \"#utility.yul\":11157:11180   */\n      sub\n        /* \"#utility.yul\":11153:11185   */\n      slt\n        /* \"#utility.yul\":11150:11269   */\n      iszero\n      tag_333\n      jumpi\n        /* \"#utility.yul\":11188:11267   */\n      tag_334\n      tag_158\n      jump\t// in\n    tag_334:\n        /* \"#utility.yul\":11150:11269   */\n    tag_333:\n        /* \"#utility.yul\":11308:11309   */\n      0x00\n        /* \"#utility.yul\":11333:11397   */\n      tag_335\n        /* \"#utility.yul\":11389:11396   */\n      dup5\n        /* \"#utility.yul\":11380:11386   */\n      dup3\n        /* \"#utility.yul\":11369:11378   */\n      dup6\n        /* \"#utility.yul\":11365:11387   */\n      add\n        /* \"#utility.yul\":11333:11397   */\n      tag_192\n      jump\t// in\n    tag_335:\n        /* \"#utility.yul\":11323:11397   */\n      swap2\n      pop\n        /* \"#utility.yul\":11279:11407   */\n      pop\n        /* \"#utility.yul\":11063:11414   */\n      swap3\n      swap2\n      pop\n      pop\n      jump\t// out\n        /* \"#utility.yul\":11420:11590   */\n    tag_193:\n        /* \"#utility.yul\":11560:11582   */\n      0x496e73756666696369656e742062616c616e6365000000000000000000000000\n        /* \"#utility.yul\":11556:11557   */\n      0x00\n        /* \"#utility.yul\":11548:11554   */\n      dup3\n        /* \"#utility.yul\":11544:11558   */\n      add\n        /* \"#utility.yul\":11537:11583   */\n      mstore\n        /* \"#utility.yul\":11420:11590   */\n      pop\n      jump\t// out\n        /* \"#utility.yul\":11596:11962   */\n    tag_194:\n        /* \"#utility.yul\":11738:11741   */\n      0x00\n        /* \"#utility.yul\":11759:11826   */\n      tag_338\n        /* \"#utility.yul\":11823:11825   */\n      0x14\n        /* \"#utility.yul\":11818:11821   */\n      dup4\n        /* \"#utility.yul\":11759:11826   */\n      tag_186\n      jump\t// in\n    tag_338:\n        /* \"#utility.yul\":11752:11826   */\n      swap2\n      pop\n        /* \"#utility.yul\":11835:11928   */\n      tag_339\n        /* \"#utility.yul\":11924:11927   */\n      dup3\n        /* \"#utility.yul\":11835:11928   */\n      tag_193\n      jump\t// in\n    tag_339:\n        /* \"#utility.yul\":11953:11955   */\n      0x20\n        /* \"#utility.yul\":11948:11951   */\n      dup3\n        /* \"#utility.yul\":11944:11956   */\n      add\n        /* \"#utility.yul\":11937:11956   */\n      swap1\n      pop\n        /* \"#utility.yul\":11596:11962   */\n      swap2\n      swap1\n      pop\n      jump\t// out\n        /* \"#utility.yul\":11968:12387   */\n    tag_104:\n        /* \"#utility.yul\":12134:12138   */\n      0x00\n        /* \"#utility.yul\":12172:12174   */\n      0x20\n        /* \"#utility.yul\":12161:12170   */\n      dup3\n        /* \"#utility.yul\":12157:12175   */\n      add\n        /* \"#utility.yul\":12149:12175   */\n      swap1\n      pop\n        /* \"#utility.yul\":12221:12230   */\n      dup2\n        /* \"#utility.yul\":12215:12219   */\n      dup2\n        /* \"#utility.yul\":12211:12231   */\n      sub\n        /* \"#utility.yul\":12207:12208   */\n      0x00\n        /* \"#utility.yul\":12196:12205   */\n      dup4\n        /* \"#utility.yul\":12192:12209   */\n      add\n        /* \"#utility.yul\":12185:12232   */\n      mstore\n        /* \"#utility.yul\":12249:12380   */\n      tag_341\n        /* \"#utility.yul\":12375:12379   */\n      dup2\n        /* \"#utility.yul\":12249:12380   */\n      tag_194\n      jump\t// in\n    tag_341:\n        /* \"#utility.yul\":12241:12380   */\n      swap1\n      pop\n        /* \"#utility.yul\":11968:12387   */\n      swap2\n      swap1\n      pop\n      jump\t// out\n        /* \"#utility.yul\":12393:12511   */\n    tag_195:\n        /* \"#utility.yul\":12480:12504   */\n      tag_343\n        /* \"#utility.yul\":12498:12503   */\n      dup2\n        /* \"#utility.yul\":12480:12504   */\n      tag_183\n      jump\t// in\n    tag_343:\n        /* \"#utility.yul\":12475:12478   */\n      dup3\n        /* \"#utility.yul\":12468:12505   */\n      mstore\n        /* \"#utility.yul\":12393:12511   */\n      pop\n      pop\n      jump\t// out\n        /* \"#utility.yul\":12517:12849   */\n    tag_111:\n        /* \"#utility.yul\":12638:12642   */\n      0x00\n        /* \"#utility.yul\":12676:12678   */\n      0x40\n        /* \"#utility.yul\":12665:12674   */\n      dup3\n        /* \"#utility.yul\":12661:12679   */\n      add\n        /* \"#utility.yul\":12653:12679   */\n      swap1\n      pop\n        /* \"#utility.yul\":12689:12760   */\n      tag_345\n        /* \"#utility.yul\":12757:12758   */\n      0x00\n        /* \"#utility.yul\":12746:12755   */\n      dup4\n        /* \"#utility.yul\":12742:12759   */\n      add\n        /* \"#utility.yul\":12733:12739   */\n      dup6\n        /* \"#utility.yul\":12689:12760   */\n      tag_191\n      jump\t// in\n    tag_345:\n        /* \"#utility.yul\":12770:12842   */\n      tag_346\n        /* \"#utility.yul\":12838:12840   */\n      0x20\n        /* \"#utility.yul\":12827:12836   */\n      dup4\n        /* \"#utility.yul\":12823:12841   */\n      add\n        /* \"#utility.yul\":12814:12820   */\n      dup5\n        /* \"#utility.yul\":12770:12842   */\n      tag_195\n      jump\t// in\n    tag_346:\n        /* \"#utility.yul\":12517:12849   */\n      swap4\n      swap3\n      pop\n      pop\n      pop\n      jump\t// out\n        /* \"#utility.yul\":12855:12971   */\n    tag_196:\n        /* \"#utility.yul\":12925:12946   */\n      tag_348\n        /* \"#utility.yul\":12940:12945   */\n      dup2\n        /* \"#utility.yul\":12925:12946   */\n      tag_163\n      jump\t// in\n    tag_348:\n        /* \"#utility.yul\":12918:12923   */\n      dup2\n        /* \"#utility.yul\":12915:12947   */\n      eq\n        /* \"#utility.yul\":12905:12965   */\n      tag_349\n      jumpi\n        /* \"#utility.yul\":12961:12962   */\n      0x00\n        /* \"#utility.yul\":12958:12959   */\n      0x00\n        /* \"#utility.yul\":12951:12963   */\n      revert\n        /* \"#utility.yul\":12905:12965   */\n    tag_349:\n        /* \"#utility.yul\":12855:12971   */\n      pop\n      jump\t// out\n        /* \"#utility.yul\":12977:13114   */\n    tag_197:\n        /* \"#utility.yul\":13031:13036   */\n      0x00\n        /* \"#utility.yul\":13062:13068   */\n      dup2\n        /* \"#utility.yul\":13056:13069   */\n      mload\n        /* \"#utility.yul\":13047:13069   */\n      swap1\n      pop\n        /* \"#utility.yul\":13078:13108   */\n      tag_351\n        /* \"#utility.yul\":13102:13107   */\n      dup2\n        /* \"#utility.yul\":13078:13108   */\n      tag_196\n      jump\t// in\n    tag_351:\n        /* \"#utility.yul\":12977:13114   */\n      swap3\n      swap2\n      pop\n      pop\n      jump\t// out\n        /* \"#utility.yul\":13120:13465   */\n    tag_115:\n        /* \"#utility.yul\":13187:13193   */\n      0x00\n        /* \"#utility.yul\":13236:13238   */\n      0x20\n        /* \"#utility.yul\":13224:13233   */\n      dup3\n        /* \"#utility.yul\":13215:13222   */\n      dup5\n        /* \"#utility.yul\":13211:13234   */\n      sub\n        /* \"#utility.yul\":13207:13239   */\n      slt\n        /* \"#utility.yul\":13204:13323   */\n      iszero\n      tag_353\n      jumpi\n        /* \"#utility.yul\":13242:13321   */\n      tag_354\n      tag_158\n      jump\t// in\n    tag_354:\n        /* \"#utility.yul\":13204:13323   */\n    tag_353:\n        /* \"#utility.yul\":13362:13363   */\n      0x00\n        /* \"#utility.yul\":13387:13448   */\n      tag_355\n        /* \"#utility.yul\":13440:13447   */\n      dup5\n        /* \"#utility.yul\":13431:13437   */\n      dup3\n        /* \"#utility.yul\":13420:13429   */\n      dup6\n        /* \"#utility.yul\":13416:13438   */\n      add\n        /* \"#utility.yul\":13387:13448   */\n      tag_197\n      jump\t// in\n    tag_355:\n        /* \"#utility.yul\":13377:13448   */\n      swap2\n      pop\n        /* \"#utility.yul\":13333:13458   */\n      pop\n        /* \"#utility.yul\":13120:13465   */\n      swap3\n      swap2\n      pop\n      pop\n      jump\t// out\n        /* \"#utility.yul\":13471:13655   */\n    tag_198:\n        /* \"#utility.yul\":13570:13581   */\n      0x00\n        /* \"#utility.yul\":13604:13610   */\n      dup3\n        /* \"#utility.yul\":13599:13602   */\n      dup3\n        /* \"#utility.yul\":13592:13611   */\n      mstore\n        /* \"#utility.yul\":13644:13648   */\n      0x20\n        /* \"#utility.yul\":13639:13642   */\n      dup3\n        /* \"#utility.yul\":13635:13649   */\n      add\n        /* \"#utility.yul\":13620:13649   */\n      swap1\n      pop\n        /* \"#utility.yul\":13471:13655   */\n      swap3\n      swap2\n      pop\n      pop\n      jump\t// out\n        /* \"#utility.yul\":13661:13763   */\n    tag_199:\n        /* \"#utility.yul\":13730:13734   */\n      0x00\n        /* \"#utility.yul\":13753:13756   */\n      dup2\n        /* \"#utility.yul\":13745:13756   */\n      swap1\n      pop\n        /* \"#utility.yul\":13661:13763   */\n      swap2\n      swap1\n      pop\n      jump\t// out\n        /* \"#utility.yul\":13769:13877   */\n    tag_200:\n        /* \"#utility.yul\":13846:13870   */\n      tag_359\n        /* \"#utility.yul\":13864:13869   */\n      dup2\n        /* \"#utility.yul\":13846:13870   */\n      tag_175\n      jump\t// in\n    tag_359:\n        /* \"#utility.yul\":13841:13844   */\n      dup3\n        /* \"#utility.yul\":13834:13871   */\n      mstore\n        /* \"#utility.yul\":13769:13877   */\n      pop\n      pop\n      jump\t// out\n        /* \"#utility.yul\":13883:14062   */\n    tag_201:\n        /* \"#utility.yul\":13952:13962   */\n      0x00\n        /* \"#utility.yul\":13973:14019   */\n      tag_361\n        /* \"#utility.yul\":14015:14018   */\n      dup4\n        /* \"#utility.yul\":14007:14013   */\n      dup4\n        /* \"#utility.yul\":13973:14019   */\n      tag_200\n      jump\t// in\n    tag_361:\n        /* \"#utility.yul\":14051:14055   */\n      0x20\n        /* \"#utility.yul\":14046:14049   */\n      dup4\n        /* \"#utility.yul\":14042:14056   */\n      add\n        /* \"#utility.yul\":14028:14056   */\n      swap1\n      pop\n        /* \"#utility.yul\":13883:14062   */\n      swap3\n      swap2\n      pop\n      pop\n      jump\t// out\n        /* \"#utility.yul\":14068:14190   */\n    tag_202:\n        /* \"#utility.yul\":14120:14125   */\n      0x00\n        /* \"#utility.yul\":14145:14184   */\n      tag_363\n        /* \"#utility.yul\":14180:14182   */\n      0x20\n        /* \"#utility.yul\":14175:14178   */\n      dup5\n        /* \"#utility.yul\":14171:14183   */\n      add\n        /* \"#utility.yul\":14166:14169   */\n      dup5\n        /* \"#utility.yul\":14145:14184   */\n      tag_177\n      jump\t// in\n    tag_363:\n        /* \"#utility.yul\":14136:14184   */\n      swap1\n      pop\n        /* \"#utility.yul\":14068:14190   */\n      swap3\n      swap2\n      pop\n      pop\n      jump\t// out\n        /* \"#utility.yul\":14196:14311   */\n    tag_203:\n        /* \"#utility.yul\":14268:14272   */\n      0x00\n        /* \"#utility.yul\":14300:14304   */\n      0x20\n        /* \"#utility.yul\":14295:14298   */\n      dup3\n        /* \"#utility.yul\":14291:14305   */\n      add\n        /* \"#utility.yul\":14283:14305   */\n      swap1\n      pop\n        /* \"#utility.yul\":14196:14311   */\n      swap2\n      swap1\n      pop\n      jump\t// out\n        /* \"#utility.yul\":14347:15046   */\n    tag_204:\n        /* \"#utility.yul\":14476:14479   */\n      0x00\n        /* \"#utility.yul\":14499:14585   */\n      tag_366\n        /* \"#utility.yul\":14578:14584   */\n      dup4\n        /* \"#utility.yul\":14573:14576   */\n      dup6\n        /* \"#utility.yul\":14499:14585   */\n      tag_198\n      jump\t// in\n    tag_366:\n        /* \"#utility.yul\":14492:14585   */\n      swap4\n      pop\n        /* \"#utility.yul\":14609:14667   */\n      tag_367\n        /* \"#utility.yul\":14661:14666   */\n      dup3\n        /* \"#utility.yul\":14609:14667   */\n      tag_199\n      jump\t// in\n    tag_367:\n        /* \"#utility.yul\":14690:14697   */\n      dup1\n        /* \"#utility.yul\":14721:14722   */\n      0x00\n        /* \"#utility.yul\":14706:15021   */\n    tag_368:\n        /* \"#utility.yul\":14731:14737   */\n      dup6\n        /* \"#utility.yul\":14728:14729   */\n      dup2\n        /* \"#utility.yul\":14725:14738   */\n      lt\n        /* \"#utility.yul\":14706:15021   */\n      iszero\n      tag_370\n      jumpi\n        /* \"#utility.yul\":14801:14843   */\n      tag_371\n        /* \"#utility.yul\":14836:14842   */\n      dup3\n        /* \"#utility.yul\":14827:14834   */\n      dup5\n        /* \"#utility.yul\":14801:14843   */\n      tag_202\n      jump\t// in\n    tag_371:\n        /* \"#utility.yul\":14863:14926   */\n      tag_372\n        /* \"#utility.yul\":14922:14925   */\n      dup9\n        /* \"#utility.yul\":14907:14920   */\n      dup3\n        /* \"#utility.yul\":14863:14926   */\n      tag_201\n      jump\t// in\n    tag_372:\n        /* \"#utility.yul\":14856:14926   */\n      swap8\n      pop\n        /* \"#utility.yul\":14949:15011   */\n      tag_373\n        /* \"#utility.yul\":15004:15010   */\n      dup4\n        /* \"#utility.yul\":14949:15011   */\n      tag_203\n      jump\t// in\n    tag_373:\n        /* \"#utility.yul\":14939:15011   */\n      swap3\n      pop\n        /* \"#utility.yul\":14766:15021   */\n      pop\n        /* \"#utility.yul\":14753:14754   */\n      0x01\n        /* \"#utility.yul\":14750:14751   */\n      dup2\n        /* \"#utility.yul\":14746:14755   */\n      add\n        /* \"#utility.yul\":14741:14755   */\n      swap1\n      pop\n        /* \"#utility.yul\":14706:15021   */\n      jump(tag_368)\n    tag_370:\n        /* \"#utility.yul\":14710:14724   */\n      pop\n        /* \"#utility.yul\":15037:15040   */\n      dup6\n        /* \"#utility.yul\":15030:15040   */\n      swap3\n      pop\n        /* \"#utility.yul\":14481:15046   */\n      pop\n      pop\n        /* \"#utility.yul\":14347:15046   */\n      swap4\n      swap3\n      pop\n      pop\n      pop\n      jump\t// out\n        /* \"#utility.yul\":15052:15236   */\n    tag_205:\n        /* \"#utility.yul\":15151:15162   */\n      0x00\n        /* \"#utility.yul\":15185:15191   */\n      dup3\n        /* \"#utility.yul\":15180:15183   */\n      dup3\n        /* \"#utility.yul\":15173:15192   */\n      mstore\n        /* \"#utility.yul\":15225:15229   */\n      0x20\n        /* \"#utility.yul\":15220:15223   */\n      dup3\n        /* \"#utility.yul\":15216:15230   */\n      add\n        /* \"#utility.yul\":15201:15230   */\n      swap1\n      pop\n        /* \"#utility.yul\":15052:15236   */\n      swap3\n      swap2\n      pop\n      pop\n      jump\t// out\n        /* \"#utility.yul\":15242:15359   */\n    tag_206:\n        /* \"#utility.yul\":15351:15352   */\n      0x00\n        /* \"#utility.yul\":15348:15349   */\n      0x00\n        /* \"#utility.yul\":15341:15353   */\n      revert\n        /* \"#utility.yul\":15365:15464   */\n    tag_207:\n        /* \"#utility.yul\":15450:15456   */\n      dup3\n        /* \"#utility.yul\":15445:15448   */\n      dup2\n        /* \"#utility.yul\":15440:15443   */\n      dup4\n        /* \"#utility.yul\":15427:15457   */\n      calldatacopy\n        /* \"#utility.yul\":15365:15464   */\n      pop\n      pop\n      pop\n      jump\t// out\n        /* \"#utility.yul\":15500:16037   */\n    tag_208:\n        /* \"#utility.yul\":15628:15631   */\n      0x00\n        /* \"#utility.yul\":15649:15735   */\n      tag_378\n        /* \"#utility.yul\":15728:15734   */\n      dup4\n        /* \"#utility.yul\":15723:15726   */\n      dup6\n        /* \"#utility.yul\":15649:15735   */\n      tag_205\n      jump\t// in\n    tag_378:\n        /* \"#utility.yul\":15642:15735   */\n      swap4\n      pop\n        /* \"#utility.yul\":15759:15825   */\n      0x07ffffffffffffffffffffffffffffffffffffffffffffffffffffffffffffff\n        /* \"#utility.yul\":15751:15757   */\n      dup4\n        /* \"#utility.yul\":15748:15826   */\n      gt\n        /* \"#utility.yul\":15745:15910   */\n      iszero\n      tag_379\n      jumpi\n        /* \"#utility.yul\":15829:15908   */\n      tag_380\n      tag_206\n      jump\t// in\n    tag_380:\n        /* \"#utility.yul\":15745:15910   */\n    tag_379:\n        /* \"#utility.yul\":15941:15945   */\n      0x20\n        /* \"#utility.yul\":15933:15939   */\n      dup4\n        /* \"#utility.yul\":15929:15946   */\n      mul\n        /* \"#utility.yul\":15919:15946   */\n      swap3\n      pop\n        /* \"#utility.yul\":15956:15999   */\n      tag_381\n        /* \"#utility.yul\":15992:15998   */\n      dup4\n        /* \"#utility.yul\":15987:15990   */\n      dup6\n        /* \"#utility.yul\":15980:15985   */\n      dup5\n        /* \"#utility.yul\":15956:15999   */\n      tag_207\n      jump\t// in\n    tag_381:\n        /* \"#utility.yul\":16024:16030   */\n      dup3\n        /* \"#utility.yul\":16019:16022   */\n      dup5\n        /* \"#utility.yul\":16015:16031   */\n      add\n        /* \"#utility.yul\":16008:16031   */\n      swap1\n      pop\n        /* \"#utility.yul\":15500:16037   */\n      swap4\n      swap3\n      pop\n      pop\n      pop\n      jump\t// out\n        /* \"#utility.yul\":16043:16717   */\n    tag_117:\n        /* \"#utility.yul\":16284:16288   */\n      0x00\n        /* \"#utility.yul\":16322:16324   */\n      0x40\n        /* \"#utility.yul\":16311:16320   */\n      dup3\n        /* \"#utility.yul\":16307:16325   */\n      add\n        /* \"#utility.yul\":16299:16325   */\n      swap1\n      pop\n        /* \"#utility.yul\":16371:16380   */\n      dup2\n        /* \"#utility.yul\":16365:16369   */\n      dup2\n        /* \"#utility.yul\":16361:16381   */\n      sub\n        /* \"#utility.yul\":16357:16358   */\n      0x00\n        /* \"#utility.yul\":16346:16355   */\n      dup4\n        /* \"#utility.yul\":16342:16359   */\n      add\n        /* \"#utility.yul\":16335:16382   */\n      mstore\n        /* \"#utility.yul\":16399:16517   */\n      tag_383\n        /* \"#utility.yul\":16512:16516   */\n      dup2\n        /* \"#utility.yul\":16503:16509   */\n      dup7\n        /* \"#utility.yul\":16495:16501   */\n      dup9\n        /* \"#utility.yul\":16399:16517   */\n      tag_204\n      jump\t// in\n    tag_383:\n        /* \"#utility.yul\":16391:16517   */\n      swap1\n      pop\n        /* \"#utility.yul\":16564:16573   */\n      dup2\n        /* \"#utility.yul\":16558:16562   */\n      dup2\n        /* \"#utility.yul\":16554:16574   */\n      sub\n        /* \"#utility.yul\":16549:16551   */\n      0x20\n        /* \"#utility.yul\":16538:16547   */\n      dup4\n        /* \"#utility.yul\":16534:16552   */\n      add\n        /* \"#utility.yul\":16527:16575   */\n      mstore\n        /* \"#utility.yul\":16592:16710   */\n      tag_384\n        /* \"#utility.yul\":16705:16709   */\n      dup2\n        /* \"#utility.yul\":16696:16702   */\n      dup5\n        /* \"#utility.yul\":16688:16694   */\n      dup7\n        /* \"#utility.yul\":16592:16710   */\n      tag_208\n      jump\t// in\n    tag_384:\n        /* \"#utility.yul\":16584:16710   */\n      swap1\n      pop\n        /* \"#utility.yul\":16043:16717   */\n      swap6\n      swap5\n      pop\n      pop\n      pop\n      pop\n      pop\n      jump\t// out\n        /* \"#utility.yul\":16723:16885   */\n    tag_209:\n        /* \"#utility.yul\":16863:16877   */\n      0x496e76616c69642027746f270000000000000000000000000000000000000000\n        /* \"#utility.yul\":16859:16860   */\n      0x00\n        /* \"#utility.yul\":16851:16857   */\n      dup3\n        /* \"#utility.yul\":16847:16861   */\n      add\n        /* \"#utility.yul\":16840:16878   */\n      mstore\n        /* \"#utility.yul\":16723:16885   */\n      pop\n      jump\t// out\n        /* \"#utility.yul\":16891:17257   */\n    tag_210:\n        /* \"#utility.yul\":17033:17036   */\n      0x00\n        /* \"#utility.yul\":17054:17121   */\n      tag_387\n        /* \"#utility.yul\":17118:17120   */\n      0x0c\n        /* \"#utility.yul\":17113:17116   */\n      dup4\n        /* \"#utility.yul\":17054:17121   */\n      tag_186\n      jump\t// in\n    tag_387:\n        /* \"#utility.yul\":17047:17121   */\n      swap2\n      pop\n        /* \"#utility.yul\":17130:17223   */\n      tag_388\n        /* \"#utility.yul\":17219:17222   */\n      dup3\n        /* \"#utility.yul\":17130:17223   */\n      tag_209\n      jump\t// in\n    tag_388:\n        /* \"#utility.yul\":17248:17250   */\n      0x20\n        /* \"#utility.yul\":17243:17246   */\n      dup3\n        /* \"#utility.yul\":17239:17251   */\n      add\n        /* \"#utility.yul\":17232:17251   */\n      swap1\n      pop\n        /* \"#utility.yul\":16891:17257   */\n      swap2\n      swap1\n      pop\n      jump\t// out\n        /* \"#utility.yul\":17263:17682   */\n    tag_124:\n        /* \"#utility.yul\":17429:17433   */\n      0x00\n        /* \"#utility.yul\":17467:17469   */\n      0x20\n        /* \"#utility.yul\":17456:17465   */\n      dup3\n        /* \"#utility.yul\":17452:17470   */\n      add\n        /* \"#utility.yul\":17444:17470   */\n      swap1\n      pop\n        /* \"#utility.yul\":17516:17525   */\n      dup2\n        /* \"#utility.yul\":17510:17514   */\n      dup2\n        /* \"#utility.yul\":17506:17526   */\n      sub\n        /* \"#utility.yul\":17502:17503   */\n      0x00\n        /* \"#utility.yul\":17491:17500   */\n      dup4\n        /* \"#utility.yul\":17487:17504   */\n      add\n        /* \"#utility.yul\":17480:17527   */\n      mstore\n        /* \"#utility.yul\":17544:17675   */\n      tag_390\n        /* \"#utility.yul\":17670:17674   */\n      dup2\n        /* \"#utility.yul\":17544:17675   */\n      tag_210\n      jump\t// in\n    tag_390:\n        /* \"#utility.yul\":17536:17675   */\n      swap1\n      pop\n        /* \"#utility.yul\":17263:17682   */\n      swap2\n      swap1\n      pop\n      jump\t// out\n        /* \"#utility.yul\":17688:18130   */\n    tag_130:\n        /* \"#utility.yul\":17837:17841   */\n      0x00\n        /* \"#utility.yul\":17875:17877   */\n      0x60\n        /* \"#utility.yul\":17864:17873   */\n      dup3\n        /* \"#utility.yul\":17860:17878   */\n      add\n        /* \"#utility.yul\":17852:17878   */\n      swap1\n      pop\n        /* \"#utility.yul\":17888:17959   */\n      tag_392\n        /* \"#utility.yul\":17956:17957   */\n      0x00\n        /* \"#utility.yul\":17945:17954   */\n      dup4\n        /* \"#utility.yul\":17941:17958   */\n      add\n        /* \"#utility.yul\":17932:17938   */\n      dup7\n        /* \"#utility.yul\":17888:17959   */\n      tag_191\n      jump\t// in\n    tag_392:\n        /* \"#utility.yul\":17969:18041   */\n      tag_393\n        /* \"#utility.yul\":18037:18039   */\n      0x20\n        /* \"#utility.yul\":18026:18035   */\n      dup4\n        /* \"#utility.yul\":18022:18040   */\n      add\n        /* \"#utility.yul\":18013:18019   */\n      dup6\n        /* \"#utility.yul\":17969:18041   */\n      tag_195\n      jump\t// in\n    tag_393:\n        /* \"#utility.yul\":18051:18123   */\n      tag_394\n        /* \"#utility.yul\":18119:18121   */\n      0x40\n        /* \"#utility.yul\":18108:18117   */\n      dup4\n        /* \"#utility.yul\":18104:18122   */\n      add\n        /* \"#utility.yul\":18095:18101   */\n      dup5\n        /* \"#utility.yul\":18051:18123   */\n      tag_191\n      jump\t// in\n    tag_394:\n        /* \"#utility.yul\":17688:18130   */\n      swap5\n      swap4\n      pop\n      pop\n      pop\n      pop\n      jump\t// out\n        /* \"#utility.yul\":18136:18468   */\n    tag_156:\n        /* \"#utility.yul\":18257:18261   */\n      0x00\n        /* \"#utility.yul\":18295:18297   */\n      0x40\n        /* \"#utility.yul\":18284:18293   */\n      dup3\n        /* \"#utility.yul\":18280:18298   */\n      add\n        /* \"#utility.yul\":18272:18298   */\n      swap1\n      pop\n        /* \"#utility.yul\":18308:18379   */\n      tag_396\n        /* \"#utility.yul\":18376:18377   */\n      0x00\n        /* \"#utility.yul\":18365:18374   */\n      dup4\n        /* \"#utility.yul\":18361:18378   */\n      add\n        /* \"#utility.yul\":18352:18358   */\n      dup6\n        /* \"#utility.yul\":18308:18379   */\n      tag_191\n      jump\t// in\n    tag_396:\n        /* \"#utility.yul\":18389:18461   */\n      tag_397\n        /* \"#utility.yul\":18457:18459   */\n      0x20\n        /* \"#utility.yul\":18446:18455   */\n      dup4\n        /* \"#utility.yul\":18442:18460   */\n      add\n        /* \"#utility.yul\":18433:18439   */\n      dup5\n        /* \"#utility.yul\":18389:18461   */\n      tag_174\n      jump\t// in\n    tag_397:\n        /* \"#utility.yul\":18136:18468   */\n      swap4\n      swap3\n      pop\n      pop\n      pop\n      jump\t// out\n\n    auxdata: 0xa26469706673582212208f4267983d2b0e0ed4f98c35d8a6d0151bb9f37db12f91039ba993400d5b674a64736f6c634300081c0033\n}\n",
				"bytecode": {
					"linkReferences": {},
					"object": "60a060405234801561000f575f5ffd5b506040516118d63803806118d683398181016040528101906100319190610336565b5f73ffffffffffffffffffffffffffffffffffffffff168273ffffffffffffffffffffffffffffffffffffffff160361009f576040517f08c379a0000000000000000000000000000000000000000000000000000000008152600401610096906103ce565b60405180910390fd5b5f73ffffffffffffffffffffffffffffffffffffffff168173ffffffffffffffffffffffffffffffffffffffff160361010d576040517f08c379a000000000000000000000000000000000000000000000000000000000815260040161010490610436565b60405180910390fd5b8173ffffffffffffffffffffffffffffffffffffffff1660808173ffffffffffffffffffffffffffffffffffffffff16815250506101717fa49807205ce4d355092ef5a8a18f56e8913cf4a201fbe287825b095693c217758261017960201b60201c565b505050610454565b5f61018a838361026e60201b60201c565b6102645760015f5f8581526020019081526020015f205f015f8473ffffffffffffffffffffffffffffffffffffffff1673ffffffffffffffffffffffffffffffffffffffff1681526020019081526020015f205f6101000a81548160ff0219169083151502179055506102016102d160201b60201c565b73ffffffffffffffffffffffffffffffffffffffff168273ffffffffffffffffffffffffffffffffffffffff16847f2f8788117e7eff1d82e926ec794901d17c78024a50270940304540a733656f0d60405160405180910390a460019050610268565b5f90505b92915050565b5f5f5f8481526020019081526020015f205f015f8373ffffffffffffffffffffffffffffffffffffffff1673ffffffffffffffffffffffffffffffffffffffff1681526020019081526020015f205f9054906101000a900460ff16905092915050565b5f33905090565b5f5ffd5b5f73ffffffffffffffffffffffffffffffffffffffff82169050919050565b5f610305826102dc565b9050919050565b610315816102fb565b811461031f575f5ffd5b50565b5f815190506103308161030c565b92915050565b5f5f6040838503121561034c5761034b6102d8565b5b5f61035985828601610322565b925050602061036a85828601610322565b9150509250929050565b5f82825260208201905092915050565b7f496e76616c696420746f6b656e000000000000000000000000000000000000005f82015250565b5f6103b8600d83610374565b91506103c382610384565b602082019050919050565b5f6020820190508181035f8301526103e5816103ac565b9050919050565b7f496e76616c69642061646d696e000000000000000000000000000000000000005f82015250565b5f610420600d83610374565b915061042b826103ec565b602082019050919050565b5f6020820190508181035f83015261044d81610414565b9050919050565b60805161145c61047a5f395f818161029c015281816104ae0152610587015261145c5ff3fe608060405234801561000f575f5ffd5b50600436106100a7575f3560e01c8063672434821161006f578063672434821461016157806375b238fc1461017d57806391d148541461019b578063a217fddf146101cb578063b37fd190146101e9578063d547741f14610205576100a7565b806301ffc9a7146100ab5780630e033dc5146100db578063248a9ca3146100f95780632f2ff15d1461012957806336568abe14610145575b5f5ffd5b6100c560048036038101906100c09190610bbc565b610221565b6040516100d29190610c01565b60405180910390f35b6100e361029a565b6040516100f09190610c94565b60405180910390f35b610113600480360381019061010e9190610ce0565b6102be565b6040516101209190610d1a565b60405180910390f35b610143600480360381019061013e9190610d6e565b6102da565b005b61015f600480360381019061015a9190610d6e565b6102fc565b005b61017b60048036038101906101769190610e62565b610377565b005b6101856106b4565b6040516101929190610d1a565b60405180910390f35b6101b560048036038101906101b09190610d6e565b6106d8565b6040516101c29190610c01565b60405180910390f35b6101d361073b565b6040516101e09190610d1a565b60405180910390f35b61020360048036038101906101fe9190610f13565b610741565b005b61021f600480360381019061021a9190610d6e565b610896565b005b5f7f7965db0b000000000000000000000000000000000000000000000000000000007bffffffffffffffffffffffffffffffffffffffffffffffffffffffff1916827bffffffffffffffffffffffffffffffffffffffffffffffffffffffff191614806102935750610292826108b8565b5b9050919050565b7f000000000000000000000000000000000000000000000000000000000000000081565b5f5f5f8381526020019081526020015f20600101549050919050565b6102e3826102be565b6102ec81610921565b6102f68383610935565b50505050565b610304610a1e565b73ffffffffffffffffffffffffffffffffffffffff168173ffffffffffffffffffffffffffffffffffffffff1614610368576040517f6697b23200000000000000000000000000000000000000000000000000000000815260040160405180910390fd5b6103728282610a25565b505050565b7fa49807205ce4d355092ef5a8a18f56e8913cf4a201fbe287825b095693c217756103a181610921565b8282905085859050146103e9576040517f08c379a00000000000000000000000000000000000000000000000000000000081526004016103e090610fbd565b60405180910390fd5b5f8585905090505f5f90505b8181101561066e575f73ffffffffffffffffffffffffffffffffffffffff1687878381811061042757610426610fdb565b5b905060200201602081019061043c9190611008565b73ffffffffffffffffffffffffffffffffffffffff1603610492576040517f08c379a00000000000000000000000000000000000000000000000000000000081526004016104899061107d565b60405180910390fd5b8484828181106104a5576104a4610fdb565b5b905060200201357f000000000000000000000000000000000000000000000000000000000000000073ffffffffffffffffffffffffffffffffffffffff166370a08231306040518263ffffffff1660e01b815260040161050591906110aa565b602060405180830381865afa158015610520573d5f5f3e3d5ffd5b505050506040513d601f19601f8201168201806040525081019061054491906110d7565b1015610585576040517f08c379a000000000000000000000000000000000000000000000000000000000815260040161057c9061114c565b60405180910390fd5b7f000000000000000000000000000000000000000000000000000000000000000073ffffffffffffffffffffffffffffffffffffffff1663a9059cbb8888848181106105d4576105d3610fdb565b5b90506020020160208101906105e99190611008565b8787858181106105fc576105fb610fdb565b5b905060200201356040518363ffffffff1660e01b8152600401610620929190611179565b6020604051808303815f875af115801561063c573d5f5f3e3d5ffd5b505050506040513d601f19601f8201168201806040525081019061066091906111ca565b5080806001019150506103f5565b507f71dfe3d8206b73dfdb5bff7f42fc15abd6bf2665f4076753f9d046f5d7de6edf868686866040516106a49493929190611329565b60405180910390a1505050505050565b7fa49807205ce4d355092ef5a8a18f56e8913cf4a201fbe287825b095693c2177581565b5f5f5f8481526020019081526020015f205f015f8373ffffffffffffffffffffffffffffffffffffffff1673ffffffffffffffffffffffffffffffffffffffff1681526020019081526020015f205f9054906101000a900460ff16905092915050565b5f5f1b81565b7fa49807205ce4d355092ef5a8a18f56e8913cf4a201fbe287825b095693c2177561076b81610921565b5f73ffffffffffffffffffffffffffffffffffffffff168273ffffffffffffffffffffffffffffffffffffffff16036107d9576040517f08c379a00000000000000000000000000000000000000000000000000000000081526004016107d0906113ac565b60405180910390fd5b8373ffffffffffffffffffffffffffffffffffffffff1663a9059cbb83856040518363ffffffff1660e01b8152600401610814929190611179565b6020604051808303815f875af1158015610830573d5f5f3e3d5ffd5b505050506040513d601f19601f8201168201806040525081019061085491906111ca565b507fb827212398d00bec25c9929a724fa1a266fb9ee3507d7a377758eca985b8923f848484604051610888939291906113ca565b60405180910390a150505050565b61089f826102be565b6108a881610921565b6108b28383610a25565b50505050565b5f7f01ffc9a7000000000000000000000000000000000000000000000000000000007bffffffffffffffffffffffffffffffffffffffffffffffffffffffff1916827bffffffffffffffffffffffffffffffffffffffffffffffffffffffff1916149050919050565b6109328161092d610a1e565b610b0e565b50565b5f61094083836106d8565b610a145760015f5f8581526020019081526020015f205f015f8473ffffffffffffffffffffffffffffffffffffffff1673ffffffffffffffffffffffffffffffffffffffff1681526020019081526020015f205f6101000a81548160ff0219169083151502179055506109b1610a1e565b73ffffffffffffffffffffffffffffffffffffffff168273ffffffffffffffffffffffffffffffffffffffff16847f2f8788117e7eff1d82e926ec794901d17c78024a50270940304540a733656f0d60405160405180910390a460019050610a18565b5f90505b92915050565b5f33905090565b5f610a3083836106d8565b15610b04575f5f5f8581526020019081526020015f205f015f8473ffffffffffffffffffffffffffffffffffffffff1673ffffffffffffffffffffffffffffffffffffffff1681526020019081526020015f205f6101000a81548160ff021916908315150217905550610aa1610a1e565b73ffffffffffffffffffffffffffffffffffffffff168273ffffffffffffffffffffffffffffffffffffffff16847ff6391f5c32d9c69d2a47ea670b442974b53935d1edc7fd64eb21e047a839171b60405160405180910390a460019050610b08565b5f90505b92915050565b610b1882826106d8565b610b5b5780826040517fe2517d3f000000000000000000000000000000000000000000000000000000008152600401610b529291906113ff565b60405180910390fd5b5050565b5f5ffd5b5f5ffd5b5f7fffffffff0000000000000000000000000000000000000000000000000000000082169050919050565b610b9b81610b67565b8114610ba5575f5ffd5b50565b5f81359050610bb681610b92565b92915050565b5f60208284031215610bd157610bd0610b5f565b5b5f610bde84828501610ba8565b91505092915050565b5f8115159050919050565b610bfb81610be7565b82525050565b5f602082019050610c145f830184610bf2565b92915050565b5f73ffffffffffffffffffffffffffffffffffffffff82169050919050565b5f819050919050565b5f610c5c610c57610c5284610c1a565b610c39565b610c1a565b9050919050565b5f610c6d82610c42565b9050919050565b5f610c7e82610c63565b9050919050565b610c8e81610c74565b82525050565b5f602082019050610ca75f830184610c85565b92915050565b5f819050919050565b610cbf81610cad565b8114610cc9575f5ffd5b50565b5f81359050610cda81610cb6565b92915050565b5f60208284031215610cf557610cf4610b5f565b5b5f610d0284828501610ccc565b91505092915050565b610d1481610cad565b82525050565b5f602082019050610d2d5f830184610d0b565b92915050565b5f610d3d82610c1a565b9050919050565b610d4d81610d33565b8114610d57575f5ffd5b50565b5f81359050610d6881610d44565b92915050565b5f5f60408385031215610d8457610d83610b5f565b5b5f610d9185828601610ccc565b9250506020610da285828601610d5a565b9150509250929050565b5f5ffd5b5f5ffd5b5f5ffd5b5f5f83601f840112610dcd57610dcc610dac565b5b8235905067ffffffffffffffff811115610dea57610de9610db0565b5b602083019150836020820283011115610e0657610e05610db4565b5b9250929050565b5f5f83601f840112610e2257610e21610dac565b5b8235905067ffffffffffffffff811115610e3f57610e3e610db0565b5b602083019150836020820283011115610e5b57610e5a610db4565b5b9250929050565b5f5f5f5f60408587031215610e7a57610e79610b5f565b5b5f85013567ffffffffffffffff811115610e9757610e96610b63565b5b610ea387828801610db8565b9450945050602085013567ffffffffffffffff811115610ec657610ec5610b63565b5b610ed287828801610e0d565b925092505092959194509250565b5f819050919050565b610ef281610ee0565b8114610efc575f5ffd5b50565b5f81359050610f0d81610ee9565b92915050565b5f5f5f60608486031215610f2a57610f29610b5f565b5b5f610f3786828701610d5a565b9350506020610f4886828701610eff565b9250506040610f5986828701610d5a565b9150509250925092565b5f82825260208201905092915050565b7f4c656e677468206d69736d6174636800000000000000000000000000000000005f82015250565b5f610fa7600f83610f63565b9150610fb282610f73565b602082019050919050565b5f6020820190508181035f830152610fd481610f9b565b9050919050565b7f4e487b71000000000000000000000000000000000000000000000000000000005f52603260045260245ffd5b5f6020828403121561101d5761101c610b5f565b5b5f61102a84828501610d5a565b91505092915050565b7f5a65726f206164647265737300000000000000000000000000000000000000005f82015250565b5f611067600c83610f63565b915061107282611033565b602082019050919050565b5f6020820190508181035f8301526110948161105b565b9050919050565b6110a481610d33565b82525050565b5f6020820190506110bd5f83018461109b565b92915050565b5f815190506110d181610ee9565b92915050565b5f602082840312156110ec576110eb610b5f565b5b5f6110f9848285016110c3565b91505092915050565b7f496e73756666696369656e742062616c616e63650000000000000000000000005f82015250565b5f611136601483610f63565b915061114182611102565b602082019050919050565b5f6020820190508181035f8301526111638161112a565b9050919050565b61117381610ee0565b82525050565b5f60408201905061118c5f83018561109b565b611199602083018461116a565b9392505050565b6111a981610be7565b81146111b3575f5ffd5b50565b5f815190506111c4816111a0565b92915050565b5f602082840312156111df576111de610b5f565b5b5f6111ec848285016111b6565b91505092915050565b5f82825260208201905092915050565b5f819050919050565b61121781610d33565b82525050565b5f611228838361120e565b60208301905092915050565b5f6112426020840184610d5a565b905092915050565b5f602082019050919050565b5f61126183856111f5565b935061126c82611205565b805f5b858110156112a4576112818284611234565b61128b888261121d565b97506112968361124a565b92505060018101905061126f565b5085925050509392505050565b5f82825260208201905092915050565b5f5ffd5b82818337505050565b5f6112d983856112b1565b93507f07ffffffffffffffffffffffffffffffffffffffffffffffffffffffffffffff83111561130c5761130b6112c1565b5b60208302925061131d8385846112c5565b82840190509392505050565b5f6040820190508181035f830152611342818688611256565b905081810360208301526113578184866112ce565b905095945050505050565b7f496e76616c69642027746f2700000000000000000000000000000000000000005f82015250565b5f611396600c83610f63565b91506113a182611362565b602082019050919050565b5f6020820190508181035f8301526113c38161138a565b9050919050565b5f6060820190506113dd5f83018661109b565b6113ea602083018561116a565b6113f7604083018461109b565b949350505050565b5f6040820190506114125f83018561109b565b61141f6020830184610d0b565b939250505056fea26469706673582212208f4267983d2b0e0ed4f98c35d8a6d0151bb9f37db12f91039ba993400d5b674a64736f6c634300081c0033",
					"opcodes": "PUSH1 0xA0 PUSH1 0x40 MSTORE CALLVALUE DUP1 ISZERO PUSH2 0xF JUMPI PUSH0 PUSH0 REVERT JUMPDEST POP PUSH1 0x40 MLOAD PUSH2 0x18D6 CODESIZE SUB DUP1 PUSH2 0x18D6 DUP4 CODECOPY DUP2 DUP2 ADD PUSH1 0x40 MSTORE DUP2 ADD SWAP1 PUSH2 0x31 SWAP2 SWAP1 PUSH2 0x336 JUMP JUMPDEST PUSH0 PUSH20 0xFFFFFFFFFFFFFFFFFFFFFFFFFFFFFFFFFFFFFFFF AND DUP3 PUSH20 0xFFFFFFFFFFFFFFFFFFFFFFFFFFFFFFFFFFFFFFFF AND SUB PUSH2 0x9F JUMPI PUSH1 0x40 MLOAD PUSH32 0x8C379A000000000000000000000000000000000000000000000000000000000 DUP2 MSTORE PUSH1 0x4 ADD PUSH2 0x96 SWAP1 PUSH2 0x3CE JUMP JUMPDEST PUSH1 0x40 MLOAD DUP1 SWAP2 SUB SWAP1 REVERT JUMPDEST PUSH0 PUSH20 0xFFFFFFFFFFFFFFFFFFFFFFFFFFFFFFFFFFFFFFFF AND DUP2 PUSH20 0xFFFFFFFFFFFFFFFFFFFFFFFFFFFFFFFFFFFFFFFF AND SUB PUSH2 0x10D JUMPI PUSH1 0x40 MLOAD PUSH32 0x8C379A000000000000000000000000000000000000000000000000000000000 DUP2 MSTORE PUSH1 0x4 ADD PUSH2 0x104 SWAP1 PUSH2 0x436 JUMP JUMPDEST PUSH1 0x40 MLOAD DUP1 SWAP2 SUB SWAP1 REVERT JUMPDEST DUP2 PUSH20 0xFFFFFFFFFFFFFFFFFFFFFFFFFFFFFFFFFFFFFFFF AND PUSH1 0x80 DUP2 PUSH20 0xFFFFFFFFFFFFFFFFFFFFFFFFFFFFFFFFFFFFFFFF AND DUP2 MSTORE POP POP PUSH2 0x171 PUSH32 0xA49807205CE4D355092EF5A8A18F56E8913CF4A201FBE287825B095693C21775 DUP3 PUSH2 0x179 PUSH1 0x20 SHL PUSH1 0x20 SHR JUMP JUMPDEST POP POP POP PUSH2 0x454 JUMP JUMPDEST PUSH0 PUSH2 0x18A DUP4 DUP4 PUSH2 0x26E PUSH1 0x20 SHL PUSH1 0x20 SHR JUMP JUMPDEST PUSH2 0x264 JUMPI PUSH1 0x1 PUSH0 PUSH0 DUP6 DUP2 MSTORE PUSH1 0x20 ADD SWAP1 DUP2 MSTORE PUSH1 0x20 ADD PUSH0 KECCAK256 PUSH0 ADD PUSH0 DUP5 PUSH20 0xFFFFFFFFFFFFFFFFFFFFFFFFFFFFFFFFFFFFFFFF AND PUSH20 0xFFFFFFFFFFFFFFFFFFFFFFFFFFFFFFFFFFFFFFFF AND DUP2 MSTORE PUSH1 0x20 ADD SWAP1 DUP2 MSTORE PUSH1 0x20 ADD PUSH0 KECCAK256 PUSH0 PUSH2 0x100 EXP DUP2 SLOAD DUP2 PUSH1 0xFF MUL NOT AND SWAP1 DUP4 ISZERO ISZERO MUL OR SWAP1 SSTORE POP PUSH2 0x201 PUSH2 0x2D1 PUSH1 0x20 SHL PUSH1 0x20 SHR JUMP JUMPDEST PUSH20 0xFFFFFFFFFFFFFFFFFFFFFFFFFFFFFFFFFFFFFFFF AND DUP3 PUSH20 0xFFFFFFFFFFFFFFFFFFFFFFFFFFFFFFFFFFFFFFFF AND DUP5 PUSH32 0x2F8788117E7EFF1D82E926EC794901D17C78024A50270940304540A733656F0D PUSH1 0x40 MLOAD PUSH1 0x40 MLOAD DUP1 SWAP2 SUB SWAP1 LOG4 PUSH1 0x1 SWAP1 POP PUSH2 0x268 JUMP JUMPDEST PUSH0 SWAP1 POP JUMPDEST SWAP3 SWAP2 POP POP JUMP JUMPDEST PUSH0 PUSH0 PUSH0 DUP5 DUP2 MSTORE PUSH1 0x20 ADD SWAP1 DUP2 MSTORE PUSH1 0x20 ADD PUSH0 KECCAK256 PUSH0 ADD PUSH0 DUP4 PUSH20 0xFFFFFFFFFFFFFFFFFFFFFFFFFFFFFFFFFFFFFFFF AND PUSH20 0xFFFFFFFFFFFFFFFFFFFFFFFFFFFFFFFFFFFFFFFF AND DUP2 MSTORE PUSH1 0x20 ADD SWAP1 DUP2 MSTORE PUSH1 0x20 ADD PUSH0 KECCAK256 PUSH0 SWAP1 SLOAD SWAP1 PUSH2 0x100 EXP SWAP1 DIV PUSH1 0xFF AND SWAP1 POP SWAP3 SWAP2 POP POP JUMP JUMPDEST PUSH0 CALLER SWAP1 POP SWAP1 JUMP JUMPDEST PUSH0 PUSH0 REVERT JUMPDEST PUSH0 PUSH20 0xFFFFFFFFFFFFFFFFFFFFFFFFFFFFFFFFFFFFFFFF DUP3 AND SWAP1 POP SWAP2 SWAP1 POP JUMP JUMPDEST PUSH0 PUSH2 0x305 DUP3 PUSH2 0x2DC JUMP JUMPDEST SWAP1 POP SWAP2 SWAP1 POP JUMP JUMPDEST PUSH2 0x315 DUP2 PUSH2 0x2FB JUMP JUMPDEST DUP2 EQ PUSH2 0x31F JUMPI PUSH0 PUSH0 REVERT JUMPDEST POP JUMP JUMPDEST PUSH0 DUP2 MLOAD SWAP1 POP PUSH2 0x330 DUP2 PUSH2 0x30C JUMP JUMPDEST SWAP3 SWAP2 POP POP JUMP JUMPDEST PUSH0 PUSH0 PUSH1 0x40 DUP4 DUP6 SUB SLT ISZERO PUSH2 0x34C JUMPI PUSH2 0x34B PUSH2 0x2D8 JUMP JUMPDEST JUMPDEST PUSH0 PUSH2 0x359 DUP6 DUP3 DUP7 ADD PUSH2 0x322 JUMP JUMPDEST SWAP3 POP POP PUSH1 0x20 PUSH2 0x36A DUP6 DUP3 DUP7 ADD PUSH2 0x322 JUMP JUMPDEST SWAP2 POP POP SWAP3 POP SWAP3 SWAP1 POP JUMP JUMPDEST PUSH0 DUP3 DUP3 MSTORE PUSH1 0x20 DUP3 ADD SWAP1 POP SWAP3 SWAP2 POP POP JUMP JUMPDEST PUSH32 0x496E76616C696420746F6B656E00000000000000000000000000000000000000 PUSH0 DUP3 ADD MSTORE POP JUMP JUMPDEST PUSH0 PUSH2 0x3B8 PUSH1 0xD DUP4 PUSH2 0x374 JUMP JUMPDEST SWAP2 POP PUSH2 0x3C3 DUP3 PUSH2 0x384 JUMP JUMPDEST PUSH1 0x20 DUP3 ADD SWAP1 POP SWAP2 SWAP1 POP JUMP JUMPDEST PUSH0 PUSH1 0x20 DUP3 ADD SWAP1 POP DUP2 DUP2 SUB PUSH0 DUP4 ADD MSTORE PUSH2 0x3E5 DUP2 PUSH2 0x3AC JUMP JUMPDEST SWAP1 POP SWAP2 SWAP1 POP JUMP JUMPDEST PUSH32 0x496E76616C69642061646D696E00000000000000000000000000000000000000 PUSH0 DUP3 ADD MSTORE POP JUMP JUMPDEST PUSH0 PUSH2 0x420 PUSH1 0xD DUP4 PUSH2 0x374 JUMP JUMPDEST SWAP2 POP PUSH2 0x42B DUP3 PUSH2 0x3EC JUMP JUMPDEST PUSH1 0x20 DUP3 ADD SWAP1 POP SWAP2 SWAP1 POP JUMP JUMPDEST PUSH0 PUSH1 0x20 DUP3 ADD SWAP1 POP DUP2 DUP2 SUB PUSH0 DUP4 ADD MSTORE PUSH2 0x44D DUP2 PUSH2 0x414 JUMP JUMPDEST SWAP1 POP SWAP2 SWAP1 POP JUMP JUMPDEST PUSH1 0x80 MLOAD PUSH2 0x145C PUSH2 0x47A PUSH0 CODECOPY PUSH0 DUP2 DUP2 PUSH2 0x29C ADD MSTORE DUP2 DUP2 PUSH2 0x4AE ADD MSTORE PUSH2 0x587 ADD MSTORE PUSH2 0x145C PUSH0 RETURN INVALID PUSH1 0x80 PUSH1 0x40 MSTORE CALLVALUE DUP1 ISZERO PUSH2 0xF JUMPI PUSH0 PUSH0 REVERT JUMPDEST POP PUSH1 0x4 CALLDATASIZE LT PUSH2 0xA7 JUMPI PUSH0 CALLDATALOAD PUSH1 0xE0 SHR DUP1 PUSH4 0x67243482 GT PUSH2 0x6F JUMPI DUP1 PUSH4 0x67243482 EQ PUSH2 0x161 JUMPI DUP1 PUSH4 0x75B238FC EQ PUSH2 0x17D JUMPI DUP1 PUSH4 0x91D14854 EQ PUSH2 0x19B JUMPI DUP1 PUSH4 0xA217FDDF EQ PUSH2 0x1CB JUMPI DUP1 PUSH4 0xB37FD190 EQ PUSH2 0x1E9 JUMPI DUP1 PUSH4 0xD547741F EQ PUSH2 0x205 JUMPI PUSH2 0xA7 JUMP JUMPDEST DUP1 PUSH4 0x1FFC9A7 EQ PUSH2 0xAB JUMPI DUP1 PUSH4 0xE033DC5 EQ PUSH2 0xDB JUMPI DUP1 PUSH4 0x248A9CA3 EQ PUSH2 0xF9 JUMPI DUP1 PUSH4 0x2F2FF15D EQ PUSH2 0x129 JUMPI DUP1 PUSH4 0x36568ABE EQ PUSH2 0x145 JUMPI JUMPDEST PUSH0 PUSH0 REVERT JUMPDEST PUSH2 0xC5 PUSH1 0x4 DUP1 CALLDATASIZE SUB DUP2 ADD SWAP1 PUSH2 0xC0 SWAP2 SWAP1 PUSH2 0xBBC JUMP JUMPDEST PUSH2 0x221 JUMP JUMPDEST PUSH1 0x40 MLOAD PUSH2 0xD2 SWAP2 SWAP1 PUSH2 0xC01 JUMP JUMPDEST PUSH1 0x40 MLOAD DUP1 SWAP2 SUB SWAP1 RETURN JUMPDEST PUSH2 0xE3 PUSH2 0x29A JUMP JUMPDEST PUSH1 0x40 MLOAD PUSH2 0xF0 SWAP2 SWAP1 PUSH2 0xC94 JUMP JUMPDEST PUSH1 0x40 MLOAD DUP1 SWAP2 SUB SWAP1 RETURN JUMPDEST PUSH2 0x113 PUSH1 0x4 DUP1 CALLDATASIZE SUB DUP2 ADD SWAP1 PUSH2 0x10E SWAP2 SWAP1 PUSH2 0xCE0 JUMP JUMPDEST PUSH2 0x2BE JUMP JUMPDEST PUSH1 0x40 MLOAD PUSH2 0x120 SWAP2 SWAP1 PUSH2 0xD1A JUMP JUMPDEST PUSH1 0x40 MLOAD DUP1 SWAP2 SUB SWAP1 RETURN JUMPDEST PUSH2 0x143 PUSH1 0x4 DUP1 CALLDATASIZE SUB DUP2 ADD SWAP1 PUSH2 0x13E SWAP2 SWAP1 PUSH2 0xD6E JUMP JUMPDEST PUSH2 0x2DA JUMP JUMPDEST STOP JUMPDEST PUSH2 0x15F PUSH1 0x4 DUP1 CALLDATASIZE SUB DUP2 ADD SWAP1 PUSH2 0x15A SWAP2 SWAP1 PUSH2 0xD6E JUMP JUMPDEST PUSH2 0x2FC JUMP JUMPDEST STOP JUMPDEST PUSH2 0x17B PUSH1 0x4 DUP1 CALLDATASIZE SUB DUP2 ADD SWAP1 PUSH2 0x176 SWAP2 SWAP1 PUSH2 0xE62 JUMP JUMPDEST PUSH2 0x377 JUMP JUMPDEST STOP JUMPDEST PUSH2 0x185 PUSH2 0x6B4 JUMP JUMPDEST PUSH1 0x40 MLOAD PUSH2 0x192 SWAP2 SWAP1 PUSH2 0xD1A JUMP JUMPDEST PUSH1 0x40 MLOAD DUP1 SWAP2 SUB SWAP1 RETURN JUMPDEST PUSH2 0x1B5 PUSH1 0x4 DUP1 CALLDATASIZE SUB DUP2 ADD SWAP1 PUSH2 0x1B0 SWAP2 SWAP1 PUSH2 0xD6E JUMP JUMPDEST PUSH2 0x6D8 JUMP JUMPDEST PUSH1 0x40 MLOAD PUSH2 0x1C2 SWAP2 SWAP1 PUSH2 0xC01 JUMP JUMPDEST PUSH1 0x40 MLOAD DUP1 SWAP2 SUB SWAP1 RETURN JUMPDEST PUSH2 0x1D3 PUSH2 0x73B JUMP JUMPDEST PUSH1 0x40 MLOAD PUSH2 0x1E0 SWAP2 SWAP1 PUSH2 0xD1A JUMP JUMPDEST PUSH1 0x40 MLOAD DUP1 SWAP2 SUB SWAP1 RETURN JUMPDEST PUSH2 0x203 PUSH1 0x4 DUP1 CALLDATASIZE SUB DUP2 ADD SWAP1 PUSH2 0x1FE SWAP2 SWAP1 PUSH2 0xF13 JUMP JUMPDEST PUSH2 0x741 JUMP JUMPDEST STOP JUMPDEST PUSH2 0x21F PUSH1 0x4 DUP1 CALLDATASIZE SUB DUP2 ADD SWAP1 PUSH2 0x21A SWAP2 SWAP1 PUSH2 0xD6E JUMP JUMPDEST PUSH2 0x896 JUMP JUMPDEST STOP JUMPDEST PUSH0 PUSH32 0x7965DB0B00000000000000000000000000000000000000000000000000000000 PUSH28 0xFFFFFFFFFFFFFFFFFFFFFFFFFFFFFFFFFFFFFFFFFFFFFFFFFFFFFFFF NOT AND DUP3 PUSH28 0xFFFFFFFFFFFFFFFFFFFFFFFFFFFFFFFFFFFFFFFFFFFFFFFFFFFFFFFF NOT AND EQ DUP1 PUSH2 0x293 JUMPI POP PUSH2 0x292 DUP3 PUSH2 0x8B8 JUMP JUMPDEST JUMPDEST SWAP1 POP SWAP2 SWAP1 POP JUMP JUMPDEST PUSH32 0x0 DUP2 JUMP JUMPDEST PUSH0 PUSH0 PUSH0 DUP4 DUP2 MSTORE PUSH1 0x20 ADD SWAP1 DUP2 MSTORE PUSH1 0x20 ADD PUSH0 KECCAK256 PUSH1 0x1 ADD SLOAD SWAP1 POP SWAP2 SWAP1 POP JUMP JUMPDEST PUSH2 0x2E3 DUP3 PUSH2 0x2BE JUMP JUMPDEST PUSH2 0x2EC DUP2 PUSH2 0x921 JUMP JUMPDEST PUSH2 0x2F6 DUP4 DUP4 PUSH2 0x935 JUMP JUMPDEST POP POP POP POP JUMP JUMPDEST PUSH2 0x304 PUSH2 0xA1E JUMP JUMPDEST PUSH20 0xFFFFFFFFFFFFFFFFFFFFFFFFFFFFFFFFFFFFFFFF AND DUP2 PUSH20 0xFFFFFFFFFFFFFFFFFFFFFFFFFFFFFFFFFFFFFFFF AND EQ PUSH2 0x368 JUMPI PUSH1 0x40 MLOAD PUSH32 0x6697B23200000000000000000000000000000000000000000000000000000000 DUP2 MSTORE PUSH1 0x4 ADD PUSH1 0x40 MLOAD DUP1 SWAP2 SUB SWAP1 REVERT JUMPDEST PUSH2 0x372 DUP3 DUP3 PUSH2 0xA25 JUMP JUMPDEST POP POP POP JUMP JUMPDEST PUSH32 0xA49807205CE4D355092EF5A8A18F56E8913CF4A201FBE287825B095693C21775 PUSH2 0x3A1 DUP2 PUSH2 0x921 JUMP JUMPDEST DUP3 DUP3 SWAP1 POP DUP6 DUP6 SWAP1 POP EQ PUSH2 0x3E9 JUMPI PUSH1 0x40 MLOAD PUSH32 0x8C379A000000000000000000000000000000000000000000000000000000000 DUP2 MSTORE PUSH1 0x4 ADD PUSH2 0x3E0 SWAP1 PUSH2 0xFBD JUMP JUMPDEST PUSH1 0x40 MLOAD DUP1 SWAP2 SUB SWAP1 REVERT JUMPDEST PUSH0 DUP6 DUP6 SWAP1 POP SWAP1 POP PUSH0 PUSH0 SWAP1 POP JUMPDEST DUP2 DUP2 LT ISZERO PUSH2 0x66E JUMPI PUSH0 PUSH20 0xFFFFFFFFFFFFFFFFFFFFFFFFFFFFFFFFFFFFFFFF AND DUP8 DUP8 DUP4 DUP2 DUP2 LT PUSH2 0x427 JUMPI PUSH2 0x426 PUSH2 0xFDB JUMP JUMPDEST JUMPDEST SWAP1 POP PUSH1 0x20 MUL ADD PUSH1 0x20 DUP2 ADD SWAP1 PUSH2 0x43C SWAP2 SWAP1 PUSH2 0x1008 JUMP JUMPDEST PUSH20 0xFFFFFFFFFFFFFFFFFFFFFFFFFFFFFFFFFFFFFFFF AND SUB PUSH2 0x492 JUMPI PUSH1 0x40 MLOAD PUSH32 0x8C379A000000000000000000000000000000000000000000000000000000000 DUP2 MSTORE PUSH1 0x4 ADD PUSH2 0x489 SWAP1 PUSH2 0x107D JUMP JUMPDEST PUSH1 0x40 MLOAD DUP1 SWAP2 SUB SWAP1 REVERT JUMPDEST DUP5 DUP5 DUP3 DUP2 DUP2 LT PUSH2 0x4A5 JUMPI PUSH2 0x4A4 PUSH2 0xFDB JUMP JUMPDEST JUMPDEST SWAP1 POP PUSH1 0x20 MUL ADD CALLDATALOAD PUSH32 0x0 PUSH20 0xFFFFFFFFFFFFFFFFFFFFFFFFFFFFFFFFFFFFFFFF AND PUSH4 0x70A08231 ADDRESS PUSH1 0x40 MLOAD DUP3 PUSH4 0xFFFFFFFF AND PUSH1 0xE0 SHL DUP2 MSTORE PUSH1 0x4 ADD PUSH2 0x505 SWAP2 SWAP1 PUSH2 0x10AA JUMP JUMPDEST PUSH1 0x20 PUSH1 0x40 MLOAD DUP1 DUP4 SUB DUP2 DUP7 GAS STATICCALL ISZERO DUP1 ISZERO PUSH2 0x520 JUMPI RETURNDATASIZE PUSH0 PUSH0 RETURNDATACOPY RETURNDATASIZE PUSH0 REVERT JUMPDEST POP POP POP POP PUSH1 0x40 MLOAD RETURNDATASIZE PUSH1 0x1F NOT PUSH1 0x1F DUP3 ADD AND DUP3 ADD DUP1 PUSH1 0x40 MSTORE POP DUP2 ADD SWAP1 PUSH2 0x544 SWAP2 SWAP1 PUSH2 0x10D7 JUMP JUMPDEST LT ISZERO PUSH2 0x585 JUMPI PUSH1 0x40 MLOAD PUSH32 0x8C379A000000000000000000000000000000000000000000000000000000000 DUP2 MSTORE PUSH1 0x4 ADD PUSH2 0x57C SWAP1 PUSH2 0x114C JUMP JUMPDEST PUSH1 0x40 MLOAD DUP1 SWAP2 SUB SWAP1 REVERT JUMPDEST PUSH32 0x0 PUSH20 0xFFFFFFFFFFFFFFFFFFFFFFFFFFFFFFFFFFFFFFFF AND PUSH4 0xA9059CBB DUP9 DUP9 DUP5 DUP2 DUP2 LT PUSH2 0x5D4 JUMPI PUSH2 0x5D3 PUSH2 0xFDB JUMP JUMPDEST JUMPDEST SWAP1 POP PUSH1 0x20 MUL ADD PUSH1 0x20 DUP2 ADD SWAP1 PUSH2 0x5E9 SWAP2 SWAP1 PUSH2 0x1008 JUMP JUMPDEST DUP8 DUP8 DUP6 DUP2 DUP2 LT PUSH2 0x5FC JUMPI PUSH2 0x5FB PUSH2 0xFDB JUMP JUMPDEST JUMPDEST SWAP1 POP PUSH1 0x20 MUL ADD CALLDATALOAD PUSH1 0x40 MLOAD DUP4 PUSH4 0xFFFFFFFF AND PUSH1 0xE0 SHL DUP2 MSTORE PUSH1 0x4 ADD PUSH2 0x620 SWAP3 SWAP2 SWAP1 PUSH2 0x1179 JUMP JUMPDEST PUSH1 0x20 PUSH1 0x40 MLOAD DUP1 DUP4 SUB DUP2 PUSH0 DUP8 GAS CALL ISZERO DUP1 ISZERO PUSH2 0x63C JUMPI RETURNDATASIZE PUSH0 PUSH0 RETURNDATACOPY RETURNDATASIZE PUSH0 REVERT JUMPDEST POP POP POP POP PUSH1 0x40 MLOAD RETURNDATASIZE PUSH1 0x1F NOT PUSH1 0x1F DUP3 ADD AND DUP3 ADD DUP1 PUSH1 0x40 MSTORE POP DUP2 ADD SWAP1 PUSH2 0x660 SWAP2 SWAP1 PUSH2 0x11CA JUMP JUMPDEST POP DUP1 DUP1 PUSH1 0x1 ADD SWAP2 POP POP PUSH2 0x3F5 JUMP JUMPDEST POP PUSH32 0x71DFE3D8206B73DFDB5BFF7F42FC15ABD6BF2665F4076753F9D046F5D7DE6EDF DUP7 DUP7 DUP7 DUP7 PUSH1 0x40 MLOAD PUSH2 0x6A4 SWAP5 SWAP4 SWAP3 SWAP2 SWAP1 PUSH2 0x1329 JUMP JUMPDEST PUSH1 0x40 MLOAD DUP1 SWAP2 SUB SWAP1 LOG1 POP POP POP POP POP POP JUMP JUMPDEST PUSH32 0xA49807205CE4D355092EF5A8A18F56E8913CF4A201FBE287825B095693C21775 DUP2 JUMP JUMPDEST PUSH0 PUSH0 PUSH0 DUP5 DUP2 MSTORE PUSH1 0x20 ADD SWAP1 DUP2 MSTORE PUSH1 0x20 ADD PUSH0 KECCAK256 PUSH0 ADD PUSH0 DUP4 PUSH20 0xFFFFFFFFFFFFFFFFFFFFFFFFFFFFFFFFFFFFFFFF AND PUSH20 0xFFFFFFFFFFFFFFFFFFFFFFFFFFFFFFFFFFFFFFFF AND DUP2 MSTORE PUSH1 0x20 ADD SWAP1 DUP2 MSTORE PUSH1 0x20 ADD PUSH0 KECCAK256 PUSH0 SWAP1 SLOAD SWAP1 PUSH2 0x100 EXP SWAP1 DIV PUSH1 0xFF AND SWAP1 POP SWAP3 SWAP2 POP POP JUMP JUMPDEST PUSH0 PUSH0 SHL DUP2 JUMP JUMPDEST PUSH32 0xA49807205CE4D355092EF5A8A18F56E8913CF4A201FBE287825B095693C21775 PUSH2 0x76B DUP2 PUSH2 0x921 JUMP JUMPDEST PUSH0 PUSH20 0xFFFFFFFFFFFFFFFFFFFFFFFFFFFFFFFFFFFFFFFF AND DUP3 PUSH20 0xFFFFFFFFFFFFFFFFFFFFFFFFFFFFFFFFFFFFFFFF AND SUB PUSH2 0x7D9 JUMPI PUSH1 0x40 MLOAD PUSH32 0x8C379A000000000000000000000000000000000000000000000000000000000 DUP2 MSTORE PUSH1 0x4 ADD PUSH2 0x7D0 SWAP1 PUSH2 0x13AC JUMP JUMPDEST PUSH1 0x40 MLOAD DUP1 SWAP2 SUB SWAP1 REVERT JUMPDEST DUP4 PUSH20 0xFFFFFFFFFFFFFFFFFFFFFFFFFFFFFFFFFFFFFFFF AND PUSH4 0xA9059CBB DUP4 DUP6 PUSH1 0x40 MLOAD DUP4 PUSH4 0xFFFFFFFF AND PUSH1 0xE0 SHL DUP2 MSTORE PUSH1 0x4 ADD PUSH2 0x814 SWAP3 SWAP2 SWAP1 PUSH2 0x1179 JUMP JUMPDEST PUSH1 0x20 PUSH1 0x40 MLOAD DUP1 DUP4 SUB DUP2 PUSH0 DUP8 GAS CALL ISZERO DUP1 ISZERO PUSH2 0x830 JUMPI RETURNDATASIZE PUSH0 PUSH0 RETURNDATACOPY RETURNDATASIZE PUSH0 REVERT JUMPDEST POP POP POP POP PUSH1 0x40 MLOAD RETURNDATASIZE PUSH1 0x1F NOT PUSH1 0x1F DUP3 ADD AND DUP3 ADD DUP1 PUSH1 0x40 MSTORE POP DUP2 ADD SWAP1 PUSH2 0x854 SWAP2 SWAP1 PUSH2 0x11CA JUMP JUMPDEST POP PUSH32 0xB827212398D00BEC25C9929A724FA1A266FB9EE3507D7A377758ECA985B8923F DUP5 DUP5 DUP5 PUSH1 0x40 MLOAD PUSH2 0x888 SWAP4 SWAP3 SWAP2 SWAP1 PUSH2 0x13CA JUMP JUMPDEST PUSH1 0x40 MLOAD DUP1 SWAP2 SUB SWAP1 LOG1 POP POP POP POP JUMP JUMPDEST PUSH2 0x89F DUP3 PUSH2 0x2BE JUMP JUMPDEST PUSH2 0x8A8 DUP2 PUSH2 0x921 JUMP JUMPDEST PUSH2 0x8B2 DUP4 DUP4 PUSH2 0xA25 JUMP JUMPDEST POP POP POP POP JUMP JUMPDEST PUSH0 PUSH32 0x1FFC9A700000000000000000000000000000000000000000000000000000000 PUSH28 0xFFFFFFFFFFFFFFFFFFFFFFFFFFFFFFFFFFFFFFFFFFFFFFFFFFFFFFFF NOT AND DUP3 PUSH28 0xFFFFFFFFFFFFFFFFFFFFFFFFFFFFFFFFFFFFFFFFFFFFFFFFFFFFFFFF NOT AND EQ SWAP1 POP SWAP2 SWAP1 POP JUMP JUMPDEST PUSH2 0x932 DUP2 PUSH2 0x92D PUSH2 0xA1E JUMP JUMPDEST PUSH2 0xB0E JUMP JUMPDEST POP JUMP JUMPDEST PUSH0 PUSH2 0x940 DUP4 DUP4 PUSH2 0x6D8 JUMP JUMPDEST PUSH2 0xA14 JUMPI PUSH1 0x1 PUSH0 PUSH0 DUP6 DUP2 MSTORE PUSH1 0x20 ADD SWAP1 DUP2 MSTORE PUSH1 0x20 ADD PUSH0 KECCAK256 PUSH0 ADD PUSH0 DUP5 PUSH20 0xFFFFFFFFFFFFFFFFFFFFFFFFFFFFFFFFFFFFFFFF AND PUSH20 0xFFFFFFFFFFFFFFFFFFFFFFFFFFFFFFFFFFFFFFFF AND DUP2 MSTORE PUSH1 0x20 ADD SWAP1 DUP2 MSTORE PUSH1 0x20 ADD PUSH0 KECCAK256 PUSH0 PUSH2 0x100 EXP DUP2 SLOAD DUP2 PUSH1 0xFF MUL NOT AND SWAP1 DUP4 ISZERO ISZERO MUL OR SWAP1 SSTORE POP PUSH2 0x9B1 PUSH2 0xA1E JUMP JUMPDEST PUSH20 0xFFFFFFFFFFFFFFFFFFFFFFFFFFFFFFFFFFFFFFFF AND DUP3 PUSH20 0xFFFFFFFFFFFFFFFFFFFFFFFFFFFFFFFFFFFFFFFF AND DUP5 PUSH32 0x2F8788117E7EFF1D82E926EC794901D17C78024A50270940304540A733656F0D PUSH1 0x40 MLOAD PUSH1 0x40 MLOAD DUP1 SWAP2 SUB SWAP1 LOG4 PUSH1 0x1 SWAP1 POP PUSH2 0xA18 JUMP JUMPDEST PUSH0 SWAP1 POP JUMPDEST SWAP3 SWAP2 POP POP JUMP JUMPDEST PUSH0 CALLER SWAP1 POP SWAP1 JUMP JUMPDEST PUSH0 PUSH2 0xA30 DUP4 DUP4 PUSH2 0x6D8 JUMP JUMPDEST ISZERO PUSH2 0xB04 JUMPI PUSH0 PUSH0 PUSH0 DUP6 DUP2 MSTORE PUSH1 0x20 ADD SWAP1 DUP2 MSTORE PUSH1 0x20 ADD PUSH0 KECCAK256 PUSH0 ADD PUSH0 DUP5 PUSH20 0xFFFFFFFFFFFFFFFFFFFFFFFFFFFFFFFFFFFFFFFF AND PUSH20 0xFFFFFFFFFFFFFFFFFFFFFFFFFFFFFFFFFFFFFFFF AND DUP2 MSTORE PUSH1 0x20 ADD SWAP1 DUP2 MSTORE PUSH1 0x20 ADD PUSH0 KECCAK256 PUSH0 PUSH2 0x100 EXP DUP2 SLOAD DUP2 PUSH1 0xFF MUL NOT AND SWAP1 DUP4 ISZERO ISZERO MUL OR SWAP1 SSTORE POP PUSH2 0xAA1 PUSH2 0xA1E JUMP JUMPDEST PUSH20 0xFFFFFFFFFFFFFFFFFFFFFFFFFFFFFFFFFFFFFFFF AND DUP3 PUSH20 0xFFFFFFFFFFFFFFFFFFFFFFFFFFFFFFFFFFFFFFFF AND DUP5 PUSH32 0xF6391F5C32D9C69D2A47EA670B442974B53935D1EDC7FD64EB21E047A839171B PUSH1 0x40 MLOAD PUSH1 0x40 MLOAD DUP1 SWAP2 SUB SWAP1 LOG4 PUSH1 0x1 SWAP1 POP PUSH2 0xB08 JUMP JUMPDEST PUSH0 SWAP1 POP JUMPDEST SWAP3 SWAP2 POP POP JUMP JUMPDEST PUSH2 0xB18 DUP3 DUP3 PUSH2 0x6D8 JUMP JUMPDEST PUSH2 0xB5B JUMPI DUP1 DUP3 PUSH1 0x40 MLOAD PUSH32 0xE2517D3F00000000000000000000000000000000000000000000000000000000 DUP2 MSTORE PUSH1 0x4 ADD PUSH2 0xB52 SWAP3 SWAP2 SWAP1 PUSH2 0x13FF JUMP JUMPDEST PUSH1 0x40 MLOAD DUP1 SWAP2 SUB SWAP1 REVERT JUMPDEST POP POP JUMP JUMPDEST PUSH0 PUSH0 REVERT JUMPDEST PUSH0 PUSH0 REVERT JUMPDEST PUSH0 PUSH32 0xFFFFFFFF00000000000000000000000000000000000000000000000000000000 DUP3 AND SWAP1 POP SWAP2 SWAP1 POP JUMP JUMPDEST PUSH2 0xB9B DUP2 PUSH2 0xB67 JUMP JUMPDEST DUP2 EQ PUSH2 0xBA5 JUMPI PUSH0 PUSH0 REVERT JUMPDEST POP JUMP JUMPDEST PUSH0 DUP2 CALLDATALOAD SWAP1 POP PUSH2 0xBB6 DUP2 PUSH2 0xB92 JUMP JUMPDEST SWAP3 SWAP2 POP POP JUMP JUMPDEST PUSH0 PUSH1 0x20 DUP3 DUP5 SUB SLT ISZERO PUSH2 0xBD1 JUMPI PUSH2 0xBD0 PUSH2 0xB5F JUMP JUMPDEST JUMPDEST PUSH0 PUSH2 0xBDE DUP5 DUP3 DUP6 ADD PUSH2 0xBA8 JUMP JUMPDEST SWAP2 POP POP SWAP3 SWAP2 POP POP JUMP JUMPDEST PUSH0 DUP2 ISZERO ISZERO SWAP1 POP SWAP2 SWAP1 POP JUMP JUMPDEST PUSH2 0xBFB DUP2 PUSH2 0xBE7 JUMP JUMPDEST DUP3 MSTORE POP POP JUMP JUMPDEST PUSH0 PUSH1 0x20 DUP3 ADD SWAP1 POP PUSH2 0xC14 PUSH0 DUP4 ADD DUP5 PUSH2 0xBF2 JUMP JUMPDEST SWAP3 SWAP2 POP POP JUMP JUMPDEST PUSH0 PUSH20 0xFFFFFFFFFFFFFFFFFFFFFFFFFFFFFFFFFFFFFFFF DUP3 AND SWAP1 POP SWAP2 SWAP1 POP JUMP JUMPDEST PUSH0 DUP2 SWAP1 POP SWAP2 SWAP1 POP JUMP JUMPDEST PUSH0 PUSH2 0xC5C PUSH2 0xC57 PUSH2 0xC52 DUP5 PUSH2 0xC1A JUMP JUMPDEST PUSH2 0xC39 JUMP JUMPDEST PUSH2 0xC1A JUMP JUMPDEST SWAP1 POP SWAP2 SWAP1 POP JUMP JUMPDEST PUSH0 PUSH2 0xC6D DUP3 PUSH2 0xC42 JUMP JUMPDEST SWAP1 POP SWAP2 SWAP1 POP JUMP JUMPDEST PUSH0 PUSH2 0xC7E DUP3 PUSH2 0xC63 JUMP JUMPDEST SWAP1 POP SWAP2 SWAP1 POP JUMP JUMPDEST PUSH2 0xC8E DUP2 PUSH2 0xC74 JUMP JUMPDEST DUP3 MSTORE POP POP JUMP JUMPDEST PUSH0 PUSH1 0x20 DUP3 ADD SWAP1 POP PUSH2 0xCA7 PUSH0 DUP4 ADD DUP5 PUSH2 0xC85 JUMP JUMPDEST SWAP3 SWAP2 POP POP JUMP JUMPDEST PUSH0 DUP2 SWAP1 POP SWAP2 SWAP1 POP JUMP JUMPDEST PUSH2 0xCBF DUP2 PUSH2 0xCAD JUMP JUMPDEST DUP2 EQ PUSH2 0xCC9 JUMPI PUSH0 PUSH0 REVERT JUMPDEST POP JUMP JUMPDEST PUSH0 DUP2 CALLDATALOAD SWAP1 POP PUSH2 0xCDA DUP2 PUSH2 0xCB6 JUMP JUMPDEST SWAP3 SWAP2 POP POP JUMP JUMPDEST PUSH0 PUSH1 0x20 DUP3 DUP5 SUB SLT ISZERO PUSH2 0xCF5 JUMPI PUSH2 0xCF4 PUSH2 0xB5F JUMP JUMPDEST JUMPDEST PUSH0 PUSH2 0xD02 DUP5 DUP3 DUP6 ADD PUSH2 0xCCC JUMP JUMPDEST SWAP2 POP POP SWAP3 SWAP2 POP POP JUMP JUMPDEST PUSH2 0xD14 DUP2 PUSH2 0xCAD JUMP JUMPDEST DUP3 MSTORE POP POP JUMP JUMPDEST PUSH0 PUSH1 0x20 DUP3 ADD SWAP1 POP PUSH2 0xD2D PUSH0 DUP4 ADD DUP5 PUSH2 0xD0B JUMP JUMPDEST SWAP3 SWAP2 POP POP JUMP JUMPDEST PUSH0 PUSH2 0xD3D DUP3 PUSH2 0xC1A JUMP JUMPDEST SWAP1 POP SWAP2 SWAP1 POP JUMP JUMPDEST PUSH2 0xD4D DUP2 PUSH2 0xD33 JUMP JUMPDEST DUP2 EQ PUSH2 0xD57 JUMPI PUSH0 PUSH0 REVERT JUMPDEST POP JUMP JUMPDEST PUSH0 DUP2 CALLDATALOAD SWAP1 POP PUSH2 0xD68 DUP2 PUSH2 0xD44 JUMP JUMPDEST SWAP3 SWAP2 POP POP JUMP JUMPDEST PUSH0 PUSH0 PUSH1 0x40 DUP4 DUP6 SUB SLT ISZERO PUSH2 0xD84 JUMPI PUSH2 0xD83 PUSH2 0xB5F JUMP JUMPDEST JUMPDEST PUSH0 PUSH2 0xD91 DUP6 DUP3 DUP7 ADD PUSH2 0xCCC JUMP JUMPDEST SWAP3 POP POP PUSH1 0x20 PUSH2 0xDA2 DUP6 DUP3 DUP7 ADD PUSH2 0xD5A JUMP JUMPDEST SWAP2 POP POP SWAP3 POP SWAP3 SWAP1 POP JUMP JUMPDEST PUSH0 PUSH0 REVERT JUMPDEST PUSH0 PUSH0 REVERT JUMPDEST PUSH0 PUSH0 REVERT JUMPDEST PUSH0 PUSH0 DUP4 PUSH1 0x1F DUP5 ADD SLT PUSH2 0xDCD JUMPI PUSH2 0xDCC PUSH2 0xDAC JUMP JUMPDEST JUMPDEST DUP3 CALLDATALOAD SWAP1 POP PUSH8 0xFFFFFFFFFFFFFFFF DUP2 GT ISZERO PUSH2 0xDEA JUMPI PUSH2 0xDE9 PUSH2 0xDB0 JUMP JUMPDEST JUMPDEST PUSH1 0x20 DUP4 ADD SWAP2 POP DUP4 PUSH1 0x20 DUP3 MUL DUP4 ADD GT ISZERO PUSH2 0xE06 JUMPI PUSH2 0xE05 PUSH2 0xDB4 JUMP JUMPDEST JUMPDEST SWAP3 POP SWAP3 SWAP1 POP JUMP JUMPDEST PUSH0 PUSH0 DUP4 PUSH1 0x1F DUP5 ADD SLT PUSH2 0xE22 JUMPI PUSH2 0xE21 PUSH2 0xDAC JUMP JUMPDEST JUMPDEST DUP3 CALLDATALOAD SWAP1 POP PUSH8 0xFFFFFFFFFFFFFFFF DUP2 GT ISZERO PUSH2 0xE3F JUMPI PUSH2 0xE3E PUSH2 0xDB0 JUMP JUMPDEST JUMPDEST PUSH1 0x20 DUP4 ADD SWAP2 POP DUP4 PUSH1 0x20 DUP3 MUL DUP4 ADD GT ISZERO PUSH2 0xE5B JUMPI PUSH2 0xE5A PUSH2 0xDB4 JUMP JUMPDEST JUMPDEST SWAP3 POP SWAP3 SWAP1 POP JUMP JUMPDEST PUSH0 PUSH0 PUSH0 PUSH0 PUSH1 0x40 DUP6 DUP8 SUB SLT ISZERO PUSH2 0xE7A JUMPI PUSH2 0xE79 PUSH2 0xB5F JUMP JUMPDEST JUMPDEST PUSH0 DUP6 ADD CALLDATALOAD PUSH8 0xFFFFFFFFFFFFFFFF DUP2 GT ISZERO PUSH2 0xE97 JUMPI PUSH2 0xE96 PUSH2 0xB63 JUMP JUMPDEST JUMPDEST PUSH2 0xEA3 DUP8 DUP3 DUP9 ADD PUSH2 0xDB8 JUMP JUMPDEST SWAP5 POP SWAP5 POP POP PUSH1 0x20 DUP6 ADD CALLDATALOAD PUSH8 0xFFFFFFFFFFFFFFFF DUP2 GT ISZERO PUSH2 0xEC6 JUMPI PUSH2 0xEC5 PUSH2 0xB63 JUMP JUMPDEST JUMPDEST PUSH2 0xED2 DUP8 DUP3 DUP9 ADD PUSH2 0xE0D JUMP JUMPDEST SWAP3 POP SWAP3 POP POP SWAP3 SWAP6 SWAP2 SWAP5 POP SWAP3 POP JUMP JUMPDEST PUSH0 DUP2 SWAP1 POP SWAP2 SWAP1 POP JUMP JUMPDEST PUSH2 0xEF2 DUP2 PUSH2 0xEE0 JUMP JUMPDEST DUP2 EQ PUSH2 0xEFC JUMPI PUSH0 PUSH0 REVERT JUMPDEST POP JUMP JUMPDEST PUSH0 DUP2 CALLDATALOAD SWAP1 POP PUSH2 0xF0D DUP2 PUSH2 0xEE9 JUMP JUMPDEST SWAP3 SWAP2 POP POP JUMP JUMPDEST PUSH0 PUSH0 PUSH0 PUSH1 0x60 DUP5 DUP7 SUB SLT ISZERO PUSH2 0xF2A JUMPI PUSH2 0xF29 PUSH2 0xB5F JUMP JUMPDEST JUMPDEST PUSH0 PUSH2 0xF37 DUP7 DUP3 DUP8 ADD PUSH2 0xD5A JUMP JUMPDEST SWAP4 POP POP PUSH1 0x20 PUSH2 0xF48 DUP7 DUP3 DUP8 ADD PUSH2 0xEFF JUMP JUMPDEST SWAP3 POP POP PUSH1 0x40 PUSH2 0xF59 DUP7 DUP3 DUP8 ADD PUSH2 0xD5A JUMP JUMPDEST SWAP2 POP POP SWAP3 POP SWAP3 POP SWAP3 JUMP JUMPDEST PUSH0 DUP3 DUP3 MSTORE PUSH1 0x20 DUP3 ADD SWAP1 POP SWAP3 SWAP2 POP POP JUMP JUMPDEST PUSH32 0x4C656E677468206D69736D617463680000000000000000000000000000000000 PUSH0 DUP3 ADD MSTORE POP JUMP JUMPDEST PUSH0 PUSH2 0xFA7 PUSH1 0xF DUP4 PUSH2 0xF63 JUMP JUMPDEST SWAP2 POP PUSH2 0xFB2 DUP3 PUSH2 0xF73 JUMP JUMPDEST PUSH1 0x20 DUP3 ADD SWAP1 POP SWAP2 SWAP1 POP JUMP JUMPDEST PUSH0 PUSH1 0x20 DUP3 ADD SWAP1 POP DUP2 DUP2 SUB PUSH0 DUP4 ADD MSTORE PUSH2 0xFD4 DUP2 PUSH2 0xF9B JUMP JUMPDEST SWAP1 POP SWAP2 SWAP1 POP JUMP JUMPDEST PUSH32 0x4E487B7100000000000000000000000000000000000000000000000000000000 PUSH0 MSTORE PUSH1 0x32 PUSH1 0x4 MSTORE PUSH1 0x24 PUSH0 REVERT JUMPDEST PUSH0 PUSH1 0x20 DUP3 DUP5 SUB SLT ISZERO PUSH2 0x101D JUMPI PUSH2 0x101C PUSH2 0xB5F JUMP JUMPDEST JUMPDEST PUSH0 PUSH2 0x102A DUP5 DUP3 DUP6 ADD PUSH2 0xD5A JUMP JUMPDEST SWAP2 POP POP SWAP3 SWAP2 POP POP JUMP JUMPDEST PUSH32 0x5A65726F20616464726573730000000000000000000000000000000000000000 PUSH0 DUP3 ADD MSTORE POP JUMP JUMPDEST PUSH0 PUSH2 0x1067 PUSH1 0xC DUP4 PUSH2 0xF63 JUMP JUMPDEST SWAP2 POP PUSH2 0x1072 DUP3 PUSH2 0x1033 JUMP JUMPDEST PUSH1 0x20 DUP3 ADD SWAP1 POP SWAP2 SWAP1 POP JUMP JUMPDEST PUSH0 PUSH1 0x20 DUP3 ADD SWAP1 POP DUP2 DUP2 SUB PUSH0 DUP4 ADD MSTORE PUSH2 0x1094 DUP2 PUSH2 0x105B JUMP JUMPDEST SWAP1 POP SWAP2 SWAP1 POP JUMP JUMPDEST PUSH2 0x10A4 DUP2 PUSH2 0xD33 JUMP JUMPDEST DUP3 MSTORE POP POP JUMP JUMPDEST PUSH0 PUSH1 0x20 DUP3 ADD SWAP1 POP PUSH2 0x10BD PUSH0 DUP4 ADD DUP5 PUSH2 0x109B JUMP JUMPDEST SWAP3 SWAP2 POP POP JUMP JUMPDEST PUSH0 DUP2 MLOAD SWAP1 POP PUSH2 0x10D1 DUP2 PUSH2 0xEE9 JUMP JUMPDEST SWAP3 SWAP2 POP POP JUMP JUMPDEST PUSH0 PUSH1 0x20 DUP3 DUP5 SUB SLT ISZERO PUSH2 0x10EC JUMPI PUSH2 0x10EB PUSH2 0xB5F JUMP JUMPDEST JUMPDEST PUSH0 PUSH2 0x10F9 DUP5 DUP3 DUP6 ADD PUSH2 0x10C3 JUMP JUMPDEST SWAP2 POP POP SWAP3 SWAP2 POP POP JUMP JUMPDEST PUSH32 0x496E73756666696369656E742062616C616E6365000000000000000000000000 PUSH0 DUP3 ADD MSTORE POP JUMP JUMPDEST PUSH0 PUSH2 0x1136 PUSH1 0x14 DUP4 PUSH2 0xF63 JUMP JUMPDEST SWAP2 POP PUSH2 0x1141 DUP3 PUSH2 0x1102 JUMP JUMPDEST PUSH1 0x20 DUP3 ADD SWAP1 POP SWAP2 SWAP1 POP JUMP JUMPDEST PUSH0 PUSH1 0x20 DUP3 ADD SWAP1 POP DUP2 DUP2 SUB PUSH0 DUP4 ADD MSTORE PUSH2 0x1163 DUP2 PUSH2 0x112A JUMP JUMPDEST SWAP1 POP SWAP2 SWAP1 POP JUMP JUMPDEST PUSH2 0x1173 DUP2 PUSH2 0xEE0 JUMP JUMPDEST DUP3 MSTORE POP POP JUMP JUMPDEST PUSH0 PUSH1 0x40 DUP3 ADD SWAP1 POP PUSH2 0x118C PUSH0 DUP4 ADD DUP6 PUSH2 0x109B JUMP JUMPDEST PUSH2 0x1199 PUSH1 0x20 DUP4 ADD DUP5 PUSH2 0x116A JUMP JUMPDEST SWAP4 SWAP3 POP POP POP JUMP JUMPDEST PUSH2 0x11A9 DUP2 PUSH2 0xBE7 JUMP JUMPDEST DUP2 EQ PUSH2 0x11B3 JUMPI PUSH0 PUSH0 REVERT JUMPDEST POP JUMP JUMPDEST PUSH0 DUP2 MLOAD SWAP1 POP PUSH2 0x11C4 DUP2 PUSH2 0x11A0 JUMP JUMPDEST SWAP3 SWAP2 POP POP JUMP JUMPDEST PUSH0 PUSH1 0x20 DUP3 DUP5 SUB SLT ISZERO PUSH2 0x11DF JUMPI PUSH2 0x11DE PUSH2 0xB5F JUMP JUMPDEST JUMPDEST PUSH0 PUSH2 0x11EC DUP5 DUP3 DUP6 ADD PUSH2 0x11B6 JUMP JUMPDEST SWAP2 POP POP SWAP3 SWAP2 POP POP JUMP JUMPDEST PUSH0 DUP3 DUP3 MSTORE PUSH1 0x20 DUP3 ADD SWAP1 POP SWAP3 SWAP2 POP POP JUMP JUMPDEST PUSH0 DUP2 SWAP1 POP SWAP2 SWAP1 POP JUMP JUMPDEST PUSH2 0x1217 DUP2 PUSH2 0xD33 JUMP JUMPDEST DUP3 MSTORE POP POP JUMP JUMPDEST PUSH0 PUSH2 0x1228 DUP4 DUP4 PUSH2 0x120E JUMP JUMPDEST PUSH1 0x20 DUP4 ADD SWAP1 POP SWAP3 SWAP2 POP POP JUMP JUMPDEST PUSH0 PUSH2 0x1242 PUSH1 0x20 DUP5 ADD DUP5 PUSH2 0xD5A JUMP JUMPDEST SWAP1 POP SWAP3 SWAP2 POP POP JUMP JUMPDEST PUSH0 PUSH1 0x20 DUP3 ADD SWAP1 POP SWAP2 SWAP1 POP JUMP JUMPDEST PUSH0 PUSH2 0x1261 DUP4 DUP6 PUSH2 0x11F5 JUMP JUMPDEST SWAP4 POP PUSH2 0x126C DUP3 PUSH2 0x1205 JUMP JUMPDEST DUP1 PUSH0 JUMPDEST DUP6 DUP2 LT ISZERO PUSH2 0x12A4 JUMPI PUSH2 0x1281 DUP3 DUP5 PUSH2 0x1234 JUMP JUMPDEST PUSH2 0x128B DUP9 DUP3 PUSH2 0x121D JUMP JUMPDEST SWAP8 POP PUSH2 0x1296 DUP4 PUSH2 0x124A JUMP JUMPDEST SWAP3 POP POP PUSH1 0x1 DUP2 ADD SWAP1 POP PUSH2 0x126F JUMP JUMPDEST POP DUP6 SWAP3 POP POP POP SWAP4 SWAP3 POP POP POP JUMP JUMPDEST PUSH0 DUP3 DUP3 MSTORE PUSH1 0x20 DUP3 ADD SWAP1 POP SWAP3 SWAP2 POP POP JUMP JUMPDEST PUSH0 PUSH0 REVERT JUMPDEST DUP3 DUP2 DUP4 CALLDATACOPY POP POP POP JUMP JUMPDEST PUSH0 PUSH2 0x12D9 DUP4 DUP6 PUSH2 0x12B1 JUMP JUMPDEST SWAP4 POP PUSH32 0x7FFFFFFFFFFFFFFFFFFFFFFFFFFFFFFFFFFFFFFFFFFFFFFFFFFFFFFFFFFFFFF DUP4 GT ISZERO PUSH2 0x130C JUMPI PUSH2 0x130B PUSH2 0x12C1 JUMP JUMPDEST JUMPDEST PUSH1 0x20 DUP4 MUL SWAP3 POP PUSH2 0x131D DUP4 DUP6 DUP5 PUSH2 0x12C5 JUMP JUMPDEST DUP3 DUP5 ADD SWAP1 POP SWAP4 SWAP3 POP POP POP JUMP JUMPDEST PUSH0 PUSH1 0x40 DUP3 ADD SWAP1 POP DUP2 DUP2 SUB PUSH0 DUP4 ADD MSTORE PUSH2 0x1342 DUP2 DUP7 DUP9 PUSH2 0x1256 JUMP JUMPDEST SWAP1 POP DUP2 DUP2 SUB PUSH1 0x20 DUP4 ADD MSTORE PUSH2 0x1357 DUP2 DUP5 DUP7 PUSH2 0x12CE JUMP JUMPDEST SWAP1 POP SWAP6 SWAP5 POP POP POP POP POP JUMP JUMPDEST PUSH32 0x496E76616C69642027746F270000000000000000000000000000000000000000 PUSH0 DUP3 ADD MSTORE POP JUMP JUMPDEST PUSH0 PUSH2 0x1396 PUSH1 0xC DUP4 PUSH2 0xF63 JUMP JUMPDEST SWAP2 POP PUSH2 0x13A1 DUP3 PUSH2 0x1362 JUMP JUMPDEST PUSH1 0x20 DUP3 ADD SWAP1 POP SWAP2 SWAP1 POP JUMP JUMPDEST PUSH0 PUSH1 0x20 DUP3 ADD SWAP1 POP DUP2 DUP2 SUB PUSH0 DUP4 ADD MSTORE PUSH2 0x13C3 DUP2 PUSH2 0x138A JUMP JUMPDEST SWAP1 POP SWAP2 SWAP1 POP JUMP JUMPDEST PUSH0 PUSH1 0x60 DUP3 ADD SWAP1 POP PUSH2 0x13DD PUSH0 DUP4 ADD DUP7 PUSH2 0x109B JUMP JUMPDEST PUSH2 0x13EA PUSH1 0x20 DUP4 ADD DUP6 PUSH2 0x116A JUMP JUMPDEST PUSH2 0x13F7 PUSH1 0x40 DUP4 ADD DUP5 PUSH2 0x109B JUMP JUMPDEST SWAP5 SWAP4 POP POP POP POP JUMP JUMPDEST PUSH0 PUSH1 0x40 DUP3 ADD SWAP1 POP PUSH2 0x1412 PUSH0 DUP4 ADD DUP6 PUSH2 0x109B JUMP JUMPDEST PUSH2 0x141F PUSH1 0x20 DUP4 ADD DUP5 PUSH2 0xD0B JUMP JUMPDEST SWAP4 SWAP3 POP POP POP JUMP INVALID LOG2 PUSH5 0x6970667358 0x22 SLT KECCAK256 DUP16 TIMESTAMP PUSH8 0x983D2B0E0ED4F98C CALLDATALOAD 0xD8 0xA6 0xD0 ISZERO SHL 0xB9 RETURN PUSH30 0xB12F91039BA993400D5B674A64736F6C634300081C003300000000000000 "
				},
				"gasEstimates": {
					"creation": {
						"codeDepositCost": "1042400",
						"executionCost": "infinite",
						"totalCost": "infinite"
					},
					"external": {
						"ADMIN_ROLE()": "347",
						"DEFAULT_ADMIN_ROLE()": "395",
						"airdrop(address[],uint256[])": "infinite",
						"getRoleAdmin(bytes32)": "infinite",
						"grantRole(bytes32,address)": "infinite",
						"hasRole(bytes32,address)": "3164",
						"renounceRole(bytes32,address)": "infinite",
						"rescueTokens(address,uint256,address)": "infinite",
						"revokeRole(bytes32,address)": "infinite",
						"supportsInterface(bytes4)": "718",
						"wallyToken()": "infinite"
					}
				},
				"methodIdentifiers": {
					"ADMIN_ROLE()": "75b238fc",
					"DEFAULT_ADMIN_ROLE()": "a217fddf",
					"airdrop(address[],uint256[])": "67243482",
					"getRoleAdmin(bytes32)": "248a9ca3",
					"grantRole(bytes32,address)": "2f2ff15d",
					"hasRole(bytes32,address)": "91d14854",
					"renounceRole(bytes32,address)": "36568abe",
					"rescueTokens(address,uint256,address)": "b37fd190",
					"revokeRole(bytes32,address)": "d547741f",
					"supportsInterface(bytes4)": "01ffc9a7",
					"wallyToken()": "0e033dc5"
				}
			},
			"storageLayout": {
				"storage": [
					{
						"astId": 26,
						"contract": "contracts/WallyAirdrop.sol:WallyAirdrop",
						"label": "_roles",
						"offset": 0,
						"slot": "0",
						"type": "t_mapping(t_bytes32,t_struct(RoleData)21_storage)"
					}
				],
				"types": {
					"t_address": {
						"encoding": "inplace",
						"label": "address",
						"numberOfBytes": "20"
					},
					"t_bool": {
						"encoding": "inplace",
						"label": "bool",
						"numberOfBytes": "1"
					},
					"t_bytes32": {
						"encoding": "inplace",
						"label": "bytes32",
						"numberOfBytes": "32"
					},
					"t_mapping(t_address,t_bool)": {
						"encoding": "mapping",
						"key": "t_address",
						"label": "mapping(address => bool)",
						"numberOfBytes": "32",
						"value": "t_bool"
					},
					"t_mapping(t_bytes32,t_struct(RoleData)21_storage)": {
						"encoding": "mapping",
						"key": "t_bytes32",
						"label": "mapping(bytes32 => struct AccessControl.RoleData)",
						"numberOfBytes": "32",
						"value": "t_struct(RoleData)21_storage"
					},
					"t_struct(RoleData)21_storage": {
						"encoding": "inplace",
						"label": "struct AccessControl.RoleData",
						"members": [
							{
								"astId": 18,
								"contract": "contracts/WallyAirdrop.sol:WallyAirdrop",
								"label": "hasRole",
								"offset": 0,
								"slot": "0",
								"type": "t_mapping(t_address,t_bool)"
							},
							{
								"astId": 20,
								"contract": "contracts/WallyAirdrop.sol:WallyAirdrop",
								"label": "adminRole",
								"offset": 0,
								"slot": "1",
								"type": "t_bytes32"
							}
						],
						"numberOfBytes": "64"
					}
				}
			},
			"userdoc": {
				"kind": "user",
				"methods": {},
				"version": 1
			}
		}
	}
}