{
	"contracts/WallyToken.sol": {
		"WallyToken": {
			"abi": [
				{
					"inputs": [
						{
							"internalType": "address",
							"name": "uniswapV2Router_",
							"type": "address"
						},
						{
							"internalType": "address",
							"name": "daoAddress_",
							"type": "address"
						}
					],
					"stateMutability": "payable",
					"type": "constructor"
				},
				{
					"inputs": [],
					"name": "AccessControlBadConfirmation",
					"type": "error"
				},
				{
					"inputs": [
						{
							"internalType": "address",
							"name": "account",
							"type": "address"
						},
						{
							"internalType": "bytes32",
							"name": "neededRole",
							"type": "bytes32"
						}
					],
					"name": "AccessControlUnauthorizedAccount",
					"type": "error"
				},
				{
					"inputs": [],
					"name": "ApproveNonZero",
					"type": "error"
				},
				{
					"inputs": [
						{
							"internalType": "address",
							"name": "spender",
							"type": "address"
						},
						{
							"internalType": "uint256",
							"name": "allowance",
							"type": "uint256"
						},
						{
							"internalType": "uint256",
							"name": "needed",
							"type": "uint256"
						}
					],
					"name": "ERC20InsufficientAllowance",
					"type": "error"
				},
				{
					"inputs": [
						{
							"internalType": "address",
							"name": "sender",
							"type": "address"
						},
						{
							"internalType": "uint256",
							"name": "balance",
							"type": "uint256"
						},
						{
							"internalType": "uint256",
							"name": "needed",
							"type": "uint256"
						}
					],
					"name": "ERC20InsufficientBalance",
					"type": "error"
				},
				{
					"inputs": [
						{
							"internalType": "address",
							"name": "approver",
							"type": "address"
						}
					],
					"name": "ERC20InvalidApprover",
					"type": "error"
				},
				{
					"inputs": [
						{
							"internalType": "address",
							"name": "receiver",
							"type": "address"
						}
					],
					"name": "ERC20InvalidReceiver",
					"type": "error"
				},
				{
					"inputs": [
						{
							"internalType": "address",
							"name": "sender",
							"type": "address"
						}
					],
					"name": "ERC20InvalidSender",
					"type": "error"
				},
				{
					"inputs": [
						{
							"internalType": "address",
							"name": "spender",
							"type": "address"
						}
					],
					"name": "ERC20InvalidSpender",
					"type": "error"
				},
				{
					"anonymous": false,
					"inputs": [
						{
							"indexed": true,
							"internalType": "address",
							"name": "owner",
							"type": "address"
						},
						{
							"indexed": true,
							"internalType": "address",
							"name": "spender",
							"type": "address"
						},
						{
							"indexed": false,
							"internalType": "uint256",
							"name": "value",
							"type": "uint256"
						}
					],
					"name": "Approval",
					"type": "event"
				},
				{
					"anonymous": false,
					"inputs": [
						{
							"indexed": true,
							"internalType": "address",
							"name": "from",
							"type": "address"
						},
						{
							"indexed": false,
							"internalType": "uint256",
							"name": "amount",
							"type": "uint256"
						}
					],
					"name": "Burned",
					"type": "event"
				},
				{
					"anonymous": false,
					"inputs": [
						{
							"indexed": true,
							"internalType": "bool",
							"name": "enabled",
							"type": "bool"
						},
						{
							"indexed": true,
							"internalType": "uint256",
							"name": "timeSeconds",
							"type": "uint256"
						}
					],
					"name": "CooldownSet",
					"type": "event"
				},
				{
					"anonymous": false,
					"inputs": [
						{
							"indexed": true,
							"internalType": "address",
							"name": "admin",
							"type": "address"
						},
						{
							"indexed": true,
							"internalType": "address",
							"name": "to",
							"type": "address"
						},
						{
							"indexed": false,
							"internalType": "uint256",
							"name": "tokenAmountIn",
							"type": "uint256"
						},
						{
							"indexed": false,
							"internalType": "uint256",
							"name": "ethAmount",
							"type": "uint256"
						}
					],
					"name": "LiquidityAddRequested",
					"type": "event"
				},
				{
					"anonymous": false,
					"inputs": [
						{
							"indexed": true,
							"internalType": "address",
							"name": "to",
							"type": "address"
						},
						{
							"indexed": false,
							"internalType": "uint256",
							"name": "tokenAmount",
							"type": "uint256"
						},
						{
							"indexed": false,
							"internalType": "uint256",
							"name": "ethAmount",
							"type": "uint256"
						},
						{
							"indexed": false,
							"internalType": "uint256",
							"name": "liquidity",
							"type": "uint256"
						}
					],
					"name": "LiquidityAdded",
					"type": "event"
				},
				{
					"anonymous": false,
					"inputs": [
						{
							"indexed": true,
							"internalType": "uint256",
							"name": "newMaxTx",
							"type": "uint256"
						}
					],
					"name": "MaxTxAmountSet",
					"type": "event"
				},
				{
					"anonymous": false,
					"inputs": [
						{
							"indexed": true,
							"internalType": "address",
							"name": "to",
							"type": "address"
						},
						{
							"indexed": false,
							"internalType": "uint256",
							"name": "amount",
							"type": "uint256"
						}
					],
					"name": "Minted",
					"type": "event"
				},
				{
					"anonymous": false,
					"inputs": [
						{
							"indexed": true,
							"internalType": "address",
							"name": "from",
							"type": "address"
						},
						{
							"indexed": false,
							"internalType": "uint256",
							"name": "amount",
							"type": "uint256"
						}
					],
					"name": "ReceivedEther",
					"type": "event"
				},
				{
					"anonymous": false,
					"inputs": [
						{
							"indexed": true,
							"internalType": "bytes32",
							"name": "role",
							"type": "bytes32"
						},
						{
							"indexed": true,
							"internalType": "bytes32",
							"name": "previousAdminRole",
							"type": "bytes32"
						},
						{
							"indexed": true,
							"internalType": "bytes32",
							"name": "newAdminRole",
							"type": "bytes32"
						}
					],
					"name": "RoleAdminChanged",
					"type": "event"
				},
				{
					"anonymous": false,
					"inputs": [
						{
							"indexed": true,
							"internalType": "bytes32",
							"name": "role",
							"type": "bytes32"
						},
						{
							"indexed": true,
							"internalType": "address",
							"name": "account",
							"type": "address"
						},
						{
							"indexed": true,
							"internalType": "address",
							"name": "sender",
							"type": "address"
						}
					],
					"name": "RoleGranted",
					"type": "event"
				},
				{
					"anonymous": false,
					"inputs": [
						{
							"indexed": true,
							"internalType": "bytes32",
							"name": "role",
							"type": "bytes32"
						},
						{
							"indexed": true,
							"internalType": "address",
							"name": "account",
							"type": "address"
						},
						{
							"indexed": true,
							"internalType": "address",
							"name": "sender",
							"type": "address"
						}
					],
					"name": "RoleRevoked",
					"type": "event"
				},
				{
					"anonymous": false,
					"inputs": [
						{
							"indexed": true,
							"internalType": "bool",
							"name": "enabled",
							"type": "bool"
						},
						{
							"indexed": true,
							"internalType": "uint256",
							"name": "timeSeconds",
							"type": "uint256"
						}
					],
					"name": "SniperProtectionSet",
					"type": "event"
				},
				{
					"anonymous": false,
					"inputs": [
						{
							"indexed": true,
							"internalType": "address",
							"name": "token",
							"type": "address"
						},
						{
							"indexed": false,
							"internalType": "uint256",
							"name": "amount",
							"type": "uint256"
						},
						{
							"indexed": true,
							"internalType": "address",
							"name": "to",
							"type": "address"
						}
					],
					"name": "TokensRescued",
					"type": "event"
				},
				{
					"anonymous": false,
					"inputs": [
						{
							"indexed": true,
							"internalType": "bool",
							"name": "enabled",
							"type": "bool"
						}
					],
					"name": "TradingEnabledSet",
					"type": "event"
				},
				{
					"anonymous": false,
					"inputs": [
						{
							"indexed": true,
							"internalType": "address",
							"name": "from",
							"type": "address"
						},
						{
							"indexed": true,
							"internalType": "address",
							"name": "to",
							"type": "address"
						},
						{
							"indexed": false,
							"internalType": "uint256",
							"name": "value",
							"type": "uint256"
						}
					],
					"name": "Transfer",
					"type": "event"
				},
				{
					"anonymous": false,
					"inputs": [
						{
							"indexed": true,
							"internalType": "address",
							"name": "user",
							"type": "address"
						},
						{
							"indexed": true,
							"internalType": "bool",
							"name": "isBlacklisted",
							"type": "bool"
						}
					],
					"name": "UserBlacklistedSet",
					"type": "event"
				},
				{
					"inputs": [],
					"name": "DEFAULT_ADMIN_ROLE",
					"outputs": [
						{
							"internalType": "bytes32",
							"name": "",
							"type": "bytes32"
						}
					],
					"stateMutability": "view",
					"type": "function"
				},
				{
					"inputs": [
						{
							"internalType": "address",
							"name": "to",
							"type": "address"
						},
						{
							"internalType": "uint256",
							"name": "tokenAmountIn",
							"type": "uint256"
						},
						{
							"internalType": "uint256",
							"name": "tokenAmountMin",
							"type": "uint256"
						},
						{
							"internalType": "uint256",
							"name": "ethAmountMin",
							"type": "uint256"
						},
						{
							"internalType": "uint256",
							"name": "deadline",
							"type": "uint256"
						}
					],
					"name": "addLiquidityETH",
					"outputs": [
						{
							"internalType": "uint256",
							"name": "amountToken",
							"type": "uint256"
						},
						{
							"internalType": "uint256",
							"name": "amountETH",
							"type": "uint256"
						},
						{
							"internalType": "uint256",
							"name": "liquidity",
							"type": "uint256"
						}
					],
					"stateMutability": "payable",
					"type": "function"
				},
				{
					"inputs": [
						{
							"internalType": "address",
							"name": "owner",
							"type": "address"
						},
						{
							"internalType": "address",
							"name": "spender",
							"type": "address"
						}
					],
					"name": "allowance",
					"outputs": [
						{
							"internalType": "uint256",
							"name": "",
							"type": "uint256"
						}
					],
					"stateMutability": "view",
					"type": "function"
				},
				{
					"inputs": [
						{
							"internalType": "address",
							"name": "spender",
							"type": "address"
						},
						{
							"internalType": "uint256",
							"name": "amount",
							"type": "uint256"
						}
					],
					"name": "approve",
					"outputs": [
						{
							"internalType": "bool",
							"name": "",
							"type": "bool"
						}
					],
					"stateMutability": "nonpayable",
					"type": "function"
				},
				{
					"inputs": [
						{
							"internalType": "address",
							"name": "account",
							"type": "address"
						}
					],
					"name": "balanceOf",
					"outputs": [
						{
							"internalType": "uint256",
							"name": "",
							"type": "uint256"
						}
					],
					"stateMutability": "view",
					"type": "function"
				},
				{
					"inputs": [
						{
							"internalType": "uint256",
							"name": "amount",
							"type": "uint256"
						}
					],
					"name": "burn",
					"outputs": [],
					"stateMutability": "nonpayable",
					"type": "function"
				},
				{
					"inputs": [],
					"name": "cooldownEnabled",
					"outputs": [
						{
							"internalType": "bool",
							"name": "",
							"type": "bool"
						}
					],
					"stateMutability": "view",
					"type": "function"
				},
				{
					"inputs": [],
					"name": "cooldownTime",
					"outputs": [
						{
							"internalType": "uint256",
							"name": "",
							"type": "uint256"
						}
					],
					"stateMutability": "view",
					"type": "function"
				},
				{
					"inputs": [],
					"name": "daoAddress",
					"outputs": [
						{
							"internalType": "address",
							"name": "",
							"type": "address"
						}
					],
					"stateMutability": "view",
					"type": "function"
				},
				{
					"inputs": [],
					"name": "decimals",
					"outputs": [
						{
							"internalType": "uint8",
							"name": "",
							"type": "uint8"
						}
					],
					"stateMutability": "view",
					"type": "function"
				},
				{
					"inputs": [
						{
							"internalType": "address",
							"name": "",
							"type": "address"
						},
						{
							"internalType": "uint256",
							"name": "",
							"type": "uint256"
						}
					],
					"name": "decreaseAllowance",
					"outputs": [
						{
							"internalType": "bool",
							"name": "",
							"type": "bool"
						}
					],
					"stateMutability": "nonpayable",
					"type": "function"
				},
				{
					"inputs": [
						{
							"internalType": "bytes32",
							"name": "role",
							"type": "bytes32"
						}
					],
					"name": "getRoleAdmin",
					"outputs": [
						{
							"internalType": "bytes32",
							"name": "",
							"type": "bytes32"
						}
					],
					"stateMutability": "view",
					"type": "function"
				},
				{
					"inputs": [
						{
							"internalType": "bytes32",
							"name": "role",
							"type": "bytes32"
						},
						{
							"internalType": "address",
							"name": "account",
							"type": "address"
						}
					],
					"name": "grantRole",
					"outputs": [],
					"stateMutability": "nonpayable",
					"type": "function"
				},
				{
					"inputs": [
						{
							"internalType": "bytes32",
							"name": "role",
							"type": "bytes32"
						},
						{
							"internalType": "address",
							"name": "account",
							"type": "address"
						}
					],
					"name": "hasRole",
					"outputs": [
						{
							"internalType": "bool",
							"name": "",
							"type": "bool"
						}
					],
					"stateMutability": "view",
					"type": "function"
				},
				{
					"inputs": [
						{
							"internalType": "address",
							"name": "",
							"type": "address"
						},
						{
							"internalType": "uint256",
							"name": "",
							"type": "uint256"
						}
					],
					"name": "increaseAllowance",
					"outputs": [
						{
							"internalType": "bool",
							"name": "",
							"type": "bool"
						}
					],
					"stateMutability": "nonpayable",
					"type": "function"
				},
				{
					"inputs": [
						{
							"internalType": "address",
							"name": "user",
							"type": "address"
						}
					],
					"name": "isBlacklisted",
					"outputs": [
						{
							"internalType": "bool",
							"name": "",
							"type": "bool"
						}
					],
					"stateMutability": "view",
					"type": "function"
				},
				{
					"inputs": [],
					"name": "launchTimestamp",
					"outputs": [
						{
							"internalType": "uint256",
							"name": "",
							"type": "uint256"
						}
					],
					"stateMutability": "view",
					"type": "function"
				},
				{
					"inputs": [],
					"name": "maxTxAmount",
					"outputs": [
						{
							"internalType": "uint256",
							"name": "",
							"type": "uint256"
						}
					],
					"stateMutability": "view",
					"type": "function"
				},
				{
					"inputs": [
						{
							"internalType": "address",
							"name": "to",
							"type": "address"
						},
						{
							"internalType": "uint256",
							"name": "amount",
							"type": "uint256"
						}
					],
					"name": "mint",
					"outputs": [],
					"stateMutability": "nonpayable",
					"type": "function"
				},
				{
					"inputs": [],
					"name": "name",
					"outputs": [
						{
							"internalType": "string",
							"name": "",
							"type": "string"
						}
					],
					"stateMutability": "view",
					"type": "function"
				},
				{
					"inputs": [
						{
							"internalType": "bytes32",
							"name": "role",
							"type": "bytes32"
						},
						{
							"internalType": "address",
							"name": "callerConfirmation",
							"type": "address"
						}
					],
					"name": "renounceRole",
					"outputs": [],
					"stateMutability": "nonpayable",
					"type": "function"
				},
				{
					"inputs": [
						{
							"internalType": "address payable",
							"name": "to",
							"type": "address"
						},
						{
							"internalType": "uint256",
							"name": "amount",
							"type": "uint256"
						}
					],
					"name": "rescueETH",
					"outputs": [],
					"stateMutability": "payable",
					"type": "function"
				},
				{
					"inputs": [
						{
							"internalType": "address",
							"name": "tokenAddress",
							"type": "address"
						},
						{
							"internalType": "uint256",
							"name": "amount",
							"type": "uint256"
						},
						{
							"internalType": "address",
							"name": "to",
							"type": "address"
						}
					],
					"name": "rescueTokens",
					"outputs": [],
					"stateMutability": "nonpayable",
					"type": "function"
				},
				{
					"inputs": [
						{
							"internalType": "bytes32",
							"name": "role",
							"type": "bytes32"
						},
						{
							"internalType": "address",
							"name": "account",
							"type": "address"
						}
					],
					"name": "revokeRole",
					"outputs": [],
					"stateMutability": "nonpayable",
					"type": "function"
				},
				{
					"inputs": [
						{
							"internalType": "address",
							"name": "user",
							"type": "address"
						},
						{
							"internalType": "bool",
							"name": "blacklisted_",
							"type": "bool"
						}
					],
					"name": "setBlacklist",
					"outputs": [],
					"stateMutability": "nonpayable",
					"type": "function"
				},
				{
					"inputs": [
						{
							"internalType": "bool",
							"name": "enabled",
							"type": "bool"
						},
						{
							"internalType": "uint256",
							"name": "cooldownSec",
							"type": "uint256"
						}
					],
					"name": "setCooldownConfig",
					"outputs": [],
					"stateMutability": "nonpayable",
					"type": "function"
				},
				{
					"inputs": [
						{
							"internalType": "uint256",
							"name": "maxTx",
							"type": "uint256"
						}
					],
					"name": "setMaxTxAmount",
					"outputs": [],
					"stateMutability": "nonpayable",
					"type": "function"
				},
				{
					"inputs": [
						{
							"internalType": "bool",
							"name": "enabled",
							"type": "bool"
						},
						{
							"internalType": "uint256",
							"name": "timeSeconds",
							"type": "uint256"
						}
					],
					"name": "setSniperProtection",
					"outputs": [],
					"stateMutability": "nonpayable",
					"type": "function"
				},
				{
					"inputs": [
						{
							"internalType": "bool",
							"name": "enabled",
							"type": "bool"
						}
					],
					"name": "setTradingEnabled",
					"outputs": [],
					"stateMutability": "nonpayable",
					"type": "function"
				},
				{
					"inputs": [],
					"name": "snipeTime",
					"outputs": [
						{
							"internalType": "uint256",
							"name": "",
							"type": "uint256"
						}
					],
					"stateMutability": "view",
					"type": "function"
				},
				{
					"inputs": [],
					"name": "sniperProtectionEnabled",
					"outputs": [
						{
							"internalType": "bool",
							"name": "",
							"type": "bool"
						}
					],
					"stateMutability": "view",
					"type": "function"
				},
				{
					"inputs": [
						{
							"internalType": "bytes4",
							"name": "interfaceId",
							"type": "bytes4"
						}
					],
					"name": "supportsInterface",
					"outputs": [
						{
							"internalType": "bool",
							"name": "",
							"type": "bool"
						}
					],
					"stateMutability": "view",
					"type": "function"
				},
				{
					"inputs": [],
					"name": "symbol",
					"outputs": [
						{
							"internalType": "string",
							"name": "",
							"type": "string"
						}
					],
					"stateMutability": "view",
					"type": "function"
				},
				{
					"inputs": [],
					"name": "totalSupply",
					"outputs": [
						{
							"internalType": "uint256",
							"name": "",
							"type": "uint256"
						}
					],
					"stateMutability": "view",
					"type": "function"
				},
				{
					"inputs": [],
					"name": "tradingEnabled",
					"outputs": [
						{
							"internalType": "bool",
							"name": "",
							"type": "bool"
						}
					],
					"stateMutability": "view",
					"type": "function"
				},
				{
					"inputs": [
						{
							"internalType": "address",
							"name": "to",
							"type": "address"
						},
						{
							"internalType": "uint256",
							"name": "value",
							"type": "uint256"
						}
					],
					"name": "transfer",
					"outputs": [
						{
							"internalType": "bool",
							"name": "",
							"type": "bool"
						}
					],
					"stateMutability": "nonpayable",
					"type": "function"
				},
				{
					"inputs": [
						{
							"internalType": "address",
							"name": "from",
							"type": "address"
						},
						{
							"internalType": "address",
							"name": "to",
							"type": "address"
						},
						{
							"internalType": "uint256",
							"name": "value",
							"type": "uint256"
						}
					],
					"name": "transferFrom",
					"outputs": [
						{
							"internalType": "bool",
							"name": "",
							"type": "bool"
						}
					],
					"stateMutability": "nonpayable",
					"type": "function"
				},
				{
					"inputs": [],
					"name": "uniswapV2Pair",
					"outputs": [
						{
							"internalType": "address",
							"name": "",
							"type": "address"
						}
					],
					"stateMutability": "view",
					"type": "function"
				},
				{
					"inputs": [],
					"name": "uniswapV2Router",
					"outputs": [
						{
							"internalType": "address",
							"name": "",
							"type": "address"
						}
					],
					"stateMutability": "view",
					"type": "function"
				},
				{
					"stateMutability": "payable",
					"type": "receive"
				}
			],
			"evm": {
				"assembly": "    /* \"contracts/WallyToken.sol\":1241:12028  contract WallyToken is ERC20, AccessControl, ReentrancyGuard {... */\n  0xa0\n  dup1\n  0x40\n  mstore\n  0x40\n  dup2\n  bytecodeSize\n  dup1\n  codesize\n  sub\n  dup1\n  swap2\n  tag_4\n  dup3\n  dup6\n  tag_1\n  jump\t// in\ntag_4:\n  dup4\n  codecopy\n  dup2\n  add\n  sub\n  slt\n  tag_61\n  jumpi\n  tag_7\n  0x20\n  tag_8\n  dup4\n  tag_2\n  jump\t// in\ntag_8:\n  swap3\n  add\n  tag_2\n  jump\t// in\ntag_7:\n  swap1\n  mload(0x40)\n  swap2\n  tag_9\n  0x40\n  dup5\n  tag_1\n  jump\t// in\ntag_9:\n  0x0b\n  dup4\n  mstore\n  shl(0xa9, 0x2bb0b6363c902a37b5b2b7)\n  0x20\n  dup5\n  add\n  mstore\n  mload(0x40)\n  swap2\n  tag_10\n  0x40\n  dup5\n  tag_1\n  jump\t// in\ntag_10:\n  0x03\n  dup4\n  mstore\n  shl(0xe8, 0x545747)\n  0x20\n  dup5\n  add\n  mstore\n  dup4\n  mload\n  sub(shl(0x40, 0x01), 0x01)\n  dup2\n  gt\n  tag_24\n  jumpi\n  sload(0x03)\n  0x01\n  dup2\n  dup2\n  shr\n  swap2\n  and\n  dup1\n  iszero\n  tag_13\n  jumpi\ntag_14:\n  0x20\n  dup3\n  lt\n  eq\n  tag_28\n  jumpi\n  0x1f\n  dup2\n  gt\n  tag_17\n  jumpi\ntag_18:\n  pop\n  0x20\n  swap5\n  0x1f\n  dup3\n  gt\n  0x01\n  eq\n  tag_19\n  jumpi\n  swap5\n  dup2\n  swap3\n  swap4\n  swap5\n  swap6\n  0x00\n  swap3\n  tag_21\n  jumpi\ntag_22:\n  pop\n  pop\n  dup2\n  0x01\n  shl\n  swap2\n  not(0x00)\n  swap1\n  0x03\n  shl\n  shr\n  not\n  and\n  or\n  0x03\n  sstore\ntag_23:\n  dup3\n  mload\n  sub(shl(0x40, 0x01), 0x01)\n  dup2\n  gt\n  tag_24\n  jumpi\n    /* \"@openzeppelin/contracts/token/ERC20/ERC20.sol\":1690:1707  _symbol = symbol_ */\n  0x04\n    /* \"contracts/WallyToken.sol\":1241:12028  contract WallyToken is ERC20, AccessControl, ReentrancyGuard {... */\n  sload\n  0x01\n  dup2\n  dup2\n  shr\n  swap2\n  and\n  dup1\n  iszero\n  tag_26\n  jumpi\ntag_27:\n  0x20\n  dup3\n  lt\n  eq\n  tag_28\n  jumpi\n  0x1f\n  dup2\n  gt\n  tag_30\n  jumpi\ntag_31:\n  pop\n  0x20\n  0x1f\n  dup3\n  gt\n  0x01\n  eq\n  tag_32\n  jumpi\n  dup2\n  swap3\n  swap4\n  swap5\n  0x00\n  swap3\n  tag_34\n  jumpi\ntag_35:\n  pop\n  pop\n  dup2\n  0x01\n  shl\n  swap2\n  not(0x00)\n  swap1\n  0x03\n  shl\n  shr\n  not\n  and\n  or\n    /* \"@openzeppelin/contracts/token/ERC20/ERC20.sol\":1690:1707  _symbol = symbol_ */\n  0x04\n    /* \"contracts/WallyToken.sol\":1241:12028  contract WallyToken is ERC20, AccessControl, ReentrancyGuard {... */\n  sstore\ntag_36:\n  0x01\n    /* \"@openzeppelin/contracts/security/ReentrancyGuard.sol\":1821:1843  _status = _NOT_ENTERED */\n  0x06\n    /* \"contracts/WallyToken.sol\":1241:12028  contract WallyToken is ERC20, AccessControl, ReentrancyGuard {... */\n  sstore\n    /* \"contracts/WallyToken.sol\":1952:1954  30 */\n  0x1e\n    /* \"contracts/WallyToken.sol\":1241:12028  contract WallyToken is ERC20, AccessControl, ReentrancyGuard {... */\n  0x0b\n  dup2\n  swap1\n  sstore\n    /* \"contracts/WallyToken.sol\":2073:2075  30 */\n  0x0e\n    /* \"contracts/WallyToken.sol\":1241:12028  contract WallyToken is ERC20, AccessControl, ReentrancyGuard {... */\n  sstore\n  sub(shl(0xa0, 0x01), 0x01)\n  and\n  swap1\n    /* \"contracts/WallyToken.sol\":3075:3105  uniswapV2Router_ != address(0) */\n  dup2\n  iszero\n    /* \"contracts/WallyToken.sol\":1241:12028  contract WallyToken is ERC20, AccessControl, ReentrancyGuard {... */\n  tag_37\n  jumpi\n  sub(shl(0xa0, 0x01), 0x01)\n  dup2\n  and\n    /* \"contracts/WallyToken.sol\":3139:3164  daoAddress_ != address(0) */\n  iszero\n    /* \"contracts/WallyToken.sol\":1241:12028  contract WallyToken is ERC20, AccessControl, ReentrancyGuard {... */\n  tag_39\n  jumpi\n    /* \"contracts/WallyToken.sol\":3188:3213  _daoAddress = daoAddress_ */\n  0x80\n  mstore\n    /* \"contracts/WallyToken.sol\":3230:3240  msg.sender */\n  caller\n    /* \"@openzeppelin/contracts/token/ERC20/ERC20.sol\":7528:7549  account == address(0) */\n  iszero\n    /* \"@openzeppelin/contracts/token/ERC20/ERC20.sol\":7524:7615  if (account == address(0)) {... */\n  tag_41\n  jumpi\n    /* \"@openzeppelin/contracts/token/ERC20/ERC20.sol\":6233:6254  _totalSupply += value */\n  0x02\n    /* \"contracts/WallyToken.sol\":1241:12028  contract WallyToken is ERC20, AccessControl, ReentrancyGuard {... */\n  sload\n    /* \"contracts/WallyToken.sol\":1561:1572  20e9 * 1e18 */\n  0x409f9cbc7c4a04c220000000\n    /* \"contracts/WallyToken.sol\":1241:12028  contract WallyToken is ERC20, AccessControl, ReentrancyGuard {... */\n  dup2\n  add\n  dup1\n  swap2\n  gt\n  tag_43\n  jumpi\n    /* \"@openzeppelin/contracts/token/ERC20/ERC20.sol\":6233:6254  _totalSupply += value */\n  0x02\n    /* \"contracts/WallyToken.sol\":1241:12028  contract WallyToken is ERC20, AccessControl, ReentrancyGuard {... */\n  sstore\n    /* \"contracts/WallyToken.sol\":3230:3240  msg.sender */\n  caller\n  0x00\n    /* \"contracts/WallyToken.sol\":1241:12028  contract WallyToken is ERC20, AccessControl, ReentrancyGuard {... */\n  mstore\n  mstore(0x20, 0x00)\n  keccak256(0x00, 0x40)\n    /* \"contracts/WallyToken.sol\":1561:1572  20e9 * 1e18 */\n  0x409f9cbc7c4a04c220000000\n    /* \"contracts/WallyToken.sol\":1241:12028  contract WallyToken is ERC20, AccessControl, ReentrancyGuard {... */\n  dup2\n  sload\n  add\n  swap1\n  sstore\n  mload(0x40)\n    /* \"contracts/WallyToken.sol\":1561:1572  20e9 * 1e18 */\n  0x409f9cbc7c4a04c220000000\n    /* \"contracts/WallyToken.sol\":1241:12028  contract WallyToken is ERC20, AccessControl, ReentrancyGuard {... */\n  dup2\n  mstore\n  0x00\n    /* \"@openzeppelin/contracts/token/ERC20/ERC20.sol\":7083:7108  Transfer(from, to, value) */\n  0xddf252ad1be2c89b69c2b068fc378daa952ba7f163c4a11628f55a4df523b3ef\n    /* \"contracts/WallyToken.sol\":1241:12028  contract WallyToken is ERC20, AccessControl, ReentrancyGuard {... */\n  0x20\n    /* \"contracts/WallyToken.sol\":3230:3240  msg.sender */\n  caller\n    /* \"@openzeppelin/contracts/token/ERC20/ERC20.sol\":7083:7108  Transfer(from, to, value) */\n  swap4\n  log3\n    /* \"contracts/WallyToken.sol\":3188:3213  _daoAddress = daoAddress_ */\n  0x80\n    /* \"contracts/WallyToken.sol\":1348:1371  keccak256(\"ADMIN_ROLE\") */\n  mload\n    /* \"contracts/WallyToken.sol\":3269:3305  _grantRole(_ADMIN_ROLE, _daoAddress) */\n  tag_45\n  swap1\n  sub(shl(0xa0, 0x01), 0x01)\n    /* \"contracts/WallyToken.sol\":1241:12028  contract WallyToken is ERC20, AccessControl, ReentrancyGuard {... */\n  and\n    /* \"contracts/WallyToken.sol\":3269:3305  _grantRole(_ADMIN_ROLE, _daoAddress) */\n  tag_3\n  jump\t// in\ntag_45:\n  pop\n    /* \"contracts/WallyToken.sol\":1417:1441  keccak256(\"MINTER_ROLE\") */\n  0x9f2df0fed2c77648de5860a4cc508cd0818c85b8b8a1ab4ceeef8d981c8956a6\n  0x00\n    /* \"contracts/WallyToken.sol\":1241:12028  contract WallyToken is ERC20, AccessControl, ReentrancyGuard {... */\n  dup2\n  dup2\n  mstore\n    /* \"@openzeppelin/contracts/access/AccessControl.sol\":3901:3907  _roles */\n  0x05\n    /* \"contracts/WallyToken.sol\":1241:12028  contract WallyToken is ERC20, AccessControl, ReentrancyGuard {... */\n  0x20\n  mstore\n    /* \"@openzeppelin/contracts/access/AccessControl.sol\":3901:3923  _roles[role].adminRole */\n  0x15a28d26fa1bf736cf7edc9922607171ccb09c3c73b808e7772a3013e068a523\n    /* \"contracts/WallyToken.sol\":1241:12028  contract WallyToken is ERC20, AccessControl, ReentrancyGuard {... */\n  dup1\n  sload\n  mload(0x00)\n  codecopy(0x00, data_cb864c43dd5d441bb6271f424f11befa622c032dfd374d226e26fbbdb782b8f8, 0x20)\n  mload(0x00)\n  swap1\n  0x00\n  mstore\n  swap2\n  dup3\n  swap1\n  sstore\n    /* \"contracts/WallyToken.sol\":1348:1371  keccak256(\"ADMIN_ROLE\") */\n  swap1\n  swap3\n    /* \"contracts/WallyToken.sol\":1241:12028  contract WallyToken is ERC20, AccessControl, ReentrancyGuard {... */\n  swap1\n  swap2\n  mload(0x00)\n  codecopy(0x00, data_0cc6bfbb777b5ba8a5fa65e7400d0765a2fbd8cfce940c84f5480427bf0c914d, 0x20)\n  mload(0x00)\n  swap1\n  0x00\n  mstore\n    /* \"@openzeppelin/contracts/access/AccessControl.sol\":5886:5938  RoleAdminChanged(role, previousAdminRole, adminRole) */\n  swap1\n  dup1\n  log4\n    /* \"contracts/WallyToken.sol\":1487:1511  keccak256(\"BURNER_ROLE\") */\n  0x3c11d16cbaffd01df69ce1c404f6340ee057498f5f00246190ea54220576a848\n  0x00\n    /* \"contracts/WallyToken.sol\":1241:12028  contract WallyToken is ERC20, AccessControl, ReentrancyGuard {... */\n  dup2\n  dup2\n  mstore\n    /* \"@openzeppelin/contracts/access/AccessControl.sol\":3901:3907  _roles */\n  0x05\n    /* \"contracts/WallyToken.sol\":1241:12028  contract WallyToken is ERC20, AccessControl, ReentrancyGuard {... */\n  0x20\n  mstore\n    /* \"@openzeppelin/contracts/access/AccessControl.sol\":3901:3923  _roles[role].adminRole */\n  0x847f481f687befb06ed3511f1a8dcef57e83007c0147ae5047583d7056170938\n    /* \"contracts/WallyToken.sol\":1241:12028  contract WallyToken is ERC20, AccessControl, ReentrancyGuard {... */\n  dup1\n  sload\n  mload(0x00)\n  codecopy(0x00, data_cb864c43dd5d441bb6271f424f11befa622c032dfd374d226e26fbbdb782b8f8, 0x20)\n  mload(0x00)\n  swap1\n  0x00\n  mstore\n  swap2\n  dup3\n  swap1\n  sstore\n    /* \"contracts/WallyToken.sol\":1348:1371  keccak256(\"ADMIN_ROLE\") */\n  swap1\n  swap3\n    /* \"contracts/WallyToken.sol\":1241:12028  contract WallyToken is ERC20, AccessControl, ReentrancyGuard {... */\n  swap1\n  swap2\n  mload(0x00)\n  codecopy(0x00, data_0cc6bfbb777b5ba8a5fa65e7400d0765a2fbd8cfce940c84f5480427bf0c914d, 0x20)\n  mload(0x00)\n  swap1\n  0x00\n  mstore\n    /* \"@openzeppelin/contracts/access/AccessControl.sol\":5886:5938  RoleAdminChanged(role, previousAdminRole, adminRole) */\n  swap1\n  dup1\n  log4\n    /* \"contracts/WallyToken.sol\":3490:3515  _uniswapV2Router = router */\n  0x07\n    /* \"contracts/WallyToken.sol\":1487:1511  keccak256(\"BURNER_ROLE\") */\n  dup1\n  sload\n  not(sub(shl(0xa0, 0x01), 0x01))\n  and\n  dup3\n  or\n  swap1\n  sstore\n    /* \"contracts/WallyToken.sol\":1241:12028  contract WallyToken is ERC20, AccessControl, ReentrancyGuard {... */\n  mload(0x40)\n  shl(0xe0, 0xc45a0155)\n    /* \"contracts/WallyToken.sol\":3543:3559  router.factory() */\n  dup2\n  mstore\n    /* \"contracts/WallyToken.sol\":1241:12028  contract WallyToken is ERC20, AccessControl, ReentrancyGuard {... */\n  swap1\n  0x20\n  dup3\n    /* \"@openzeppelin/contracts/token/ERC20/ERC20.sol\":1690:1707  _symbol = symbol_ */\n  0x04\n    /* \"contracts/WallyToken.sol\":1241:12028  contract WallyToken is ERC20, AccessControl, ReentrancyGuard {... */\n  dup2\n  dup5\n    /* \"contracts/WallyToken.sol\":3543:3559  router.factory() */\n  gas\n  staticcall\n  swap2\n  dup3\n  iszero\n  tag_54\n  jumpi\n  0x00\n  swap3\n  tag_48\n  jumpi\n    /* \"contracts/WallyToken.sol\":1241:12028  contract WallyToken is ERC20, AccessControl, ReentrancyGuard {... */\ntag_49:\n  pop\n  0x20\n    /* \"@openzeppelin/contracts/token/ERC20/ERC20.sol\":1690:1707  _symbol = symbol_ */\n  0x04\n    /* \"contracts/WallyToken.sol\":1241:12028  contract WallyToken is ERC20, AccessControl, ReentrancyGuard {... */\n  swap2\n  mload(0x40)\n    /* \"contracts/WallyToken.sol\":1487:1511  keccak256(\"BURNER_ROLE\") */\n  swap3\n  dup4\n  dup1\n  swap3\n  shl(0xe3, 0x15ab88c9)\n    /* \"contracts/WallyToken.sol\":3584:3597  router.WETH() */\n  dup3\n  mstore\n  gas\n  staticcall\n  swap1\n  dup2\n  iszero\n  tag_54\n  jumpi\n  0x00\n  swap2\n  tag_52\n  jumpi\n    /* \"contracts/WallyToken.sol\":1241:12028  contract WallyToken is ERC20, AccessControl, ReentrancyGuard {... */\ntag_53:\n  pop\n  mload(0x40)\n  shl(0xe1, 0x64e329cb)\n    /* \"contracts/WallyToken.sol\":3664:3714  IUniswapV2Factory(factory).createPair(self_, weth) */\n  dup2\n  mstore\n    /* \"contracts/WallyToken.sol\":3632:3636  this */\n  address\n    /* \"@openzeppelin/contracts/token/ERC20/ERC20.sol\":1690:1707  _symbol = symbol_ */\n  0x04\n    /* \"contracts/WallyToken.sol\":3664:3714  IUniswapV2Factory(factory).createPair(self_, weth) */\n  dup3\n  add\n    /* \"contracts/WallyToken.sol\":1487:1511  keccak256(\"BURNER_ROLE\") */\n  mstore\n  sub(shl(0xa0, 0x01), 0x01)\n    /* \"contracts/WallyToken.sol\":1241:12028  contract WallyToken is ERC20, AccessControl, ReentrancyGuard {... */\n  swap2\n  dup3\n  and\n    /* \"contracts/WallyToken.sol\":1487:1511  keccak256(\"BURNER_ROLE\") */\n  0x24\n  dup3\n  add\n  mstore\n    /* \"contracts/WallyToken.sol\":1241:12028  contract WallyToken is ERC20, AccessControl, ReentrancyGuard {... */\n  swap2\n  0x20\n  swap2\n  dup4\n  swap2\n    /* \"contracts/WallyToken.sol\":3664:3714  IUniswapV2Factory(factory).createPair(self_, weth) */\n  0x44\n  swap2\n    /* \"contracts/WallyToken.sol\":1241:12028  contract WallyToken is ERC20, AccessControl, ReentrancyGuard {... */\n  dup4\n  swap2\n  0x00\n  swap2\n  and\n    /* \"contracts/WallyToken.sol\":3664:3714  IUniswapV2Factory(factory).createPair(self_, weth) */\n  gas\n  call\n  swap1\n  dup2\n  iszero\n  tag_54\n  jumpi\n  0x00\n  swap2\n  tag_56\n  jumpi\n    /* \"contracts/WallyToken.sol\":1241:12028  contract WallyToken is ERC20, AccessControl, ReentrancyGuard {... */\ntag_57:\n  pop\n    /* \"contracts/WallyToken.sol\":3647:3714  _uniswapV2Pair = IUniswapV2Factory(factory).createPair(self_, weth) */\n  0x08\n    /* \"contracts/WallyToken.sol\":1487:1511  keccak256(\"BURNER_ROLE\") */\n  dup1\n  sload\n  not(sub(shl(0xa0, 0x01), 0x01))\n  and\n  sub(shl(0xa0, 0x01), 0x01)\n    /* \"contracts/WallyToken.sol\":1241:12028  contract WallyToken is ERC20, AccessControl, ReentrancyGuard {... */\n  swap3\n  swap1\n  swap3\n  and\n    /* \"contracts/WallyToken.sol\":1487:1511  keccak256(\"BURNER_ROLE\") */\n  swap2\n  swap1\n  swap2\n  or\n  swap1\n  sstore\n  0x00\n    /* \"contracts/WallyToken.sol\":3725:3741  _maxTxAmount = 0 */\n  0x0f\n    /* \"contracts/WallyToken.sol\":1241:12028  contract WallyToken is ERC20, AccessControl, ReentrancyGuard {... */\n  sstore\n    /* \"contracts/WallyToken.sol\":3751:3774  _tradingEnabled = false */\n  0x0a\n    /* \"contracts/WallyToken.sol\":1487:1511  keccak256(\"BURNER_ROLE\") */\n  dup1\n  sload\n  not(0xffff)\n  and\n  swap1\n  sstore\n    /* \"contracts/WallyToken.sol\":3826:3850  _cooldownEnabled = false */\n  0x0d\n    /* \"contracts/WallyToken.sol\":1487:1511  keccak256(\"BURNER_ROLE\") */\n  dup1\n  sload\n  not(0xff)\n  and\n  swap1\n  sstore\n    /* \"contracts/WallyToken.sol\":1241:12028  contract WallyToken is ERC20, AccessControl, ReentrancyGuard {... */\n  mload(0x40)\n  dataSize(sub_0)\n  swap1\n  dup2\n  dataOffset(sub_0)\n  dup3\n  codecopy\n    /* \"contracts/WallyToken.sol\":3188:3213  _daoAddress = daoAddress_ */\n  0x80\n    /* \"contracts/WallyToken.sol\":1241:12028  contract WallyToken is ERC20, AccessControl, ReentrancyGuard {... */\n  mload\n  dup2\n  assignImmutable(\"0xd4585d973f6cb05f7dca9ebe127c2460285bc70f09a7025a97fbb5c7cafe081b\")\n  return\n    /* \"contracts/WallyToken.sol\":3664:3714  IUniswapV2Factory(factory).createPair(self_, weth) */\ntag_56:\n  swap1\n  pop\n    /* \"contracts/WallyToken.sol\":1241:12028  contract WallyToken is ERC20, AccessControl, ReentrancyGuard {... */\n  0x20\n    /* \"contracts/WallyToken.sol\":3664:3714  IUniswapV2Factory(factory).createPair(self_, weth) */\n  dup2\n  returndatasize\n    /* \"contracts/WallyToken.sol\":1241:12028  contract WallyToken is ERC20, AccessControl, ReentrancyGuard {... */\n  0x20\n    /* \"contracts/WallyToken.sol\":3664:3714  IUniswapV2Factory(factory).createPair(self_, weth) */\n  gt\n  tag_58\n  jumpi\ntag_59:\n  dup2\n  tag_60\n    /* \"contracts/WallyToken.sol\":1241:12028  contract WallyToken is ERC20, AccessControl, ReentrancyGuard {... */\n  0x20\n    /* \"contracts/WallyToken.sol\":3664:3714  IUniswapV2Factory(factory).createPair(self_, weth) */\n  swap4\n  dup4\n  tag_1\n  jump\t// in\ntag_60:\n  dup2\n  add\n    /* \"contracts/WallyToken.sol\":1487:1511  keccak256(\"BURNER_ROLE\") */\n  sub\n  slt\n  tag_61\n  jumpi\n    /* \"contracts/WallyToken.sol\":1241:12028  contract WallyToken is ERC20, AccessControl, ReentrancyGuard {... */\n  tag_63\n  swap1\n  tag_2\n  jump\t// in\ntag_63:\n    /* \"contracts/WallyToken.sol\":3664:3714  IUniswapV2Factory(factory).createPair(self_, weth) */\n  0x00\n  jump(tag_57)\n    /* \"contracts/WallyToken.sol\":1487:1511  keccak256(\"BURNER_ROLE\") */\ntag_61:\n  0x00\n    /* \"contracts/WallyToken.sol\":1241:12028  contract WallyToken is ERC20, AccessControl, ReentrancyGuard {... */\n  dup1\n  revert\n    /* \"contracts/WallyToken.sol\":3664:3714  IUniswapV2Factory(factory).createPair(self_, weth) */\ntag_58:\n  returndatasize\n  swap2\n  pop\n  jump(tag_59)\ntag_54:\n    /* \"contracts/WallyToken.sol\":1241:12028  contract WallyToken is ERC20, AccessControl, ReentrancyGuard {... */\n  mload(0x40)\n    /* \"contracts/WallyToken.sol\":1487:1511  keccak256(\"BURNER_ROLE\") */\n  returndatasize\n  0x00\n  dup3\n  returndatacopy\n  returndatasize\n  swap1\n  revert\n    /* \"contracts/WallyToken.sol\":3584:3597  router.WETH() */\ntag_52:\n  swap1\n  pop\n    /* \"contracts/WallyToken.sol\":1241:12028  contract WallyToken is ERC20, AccessControl, ReentrancyGuard {... */\n  0x20\n    /* \"contracts/WallyToken.sol\":3584:3597  router.WETH() */\n  dup2\n  returndatasize\n    /* \"contracts/WallyToken.sol\":1241:12028  contract WallyToken is ERC20, AccessControl, ReentrancyGuard {... */\n  0x20\n    /* \"contracts/WallyToken.sol\":3584:3597  router.WETH() */\n  gt\n  tag_64\n  jumpi\ntag_65:\n  dup2\n  tag_66\n    /* \"contracts/WallyToken.sol\":1241:12028  contract WallyToken is ERC20, AccessControl, ReentrancyGuard {... */\n  0x20\n    /* \"contracts/WallyToken.sol\":3584:3597  router.WETH() */\n  swap4\n  dup4\n  tag_1\n  jump\t// in\ntag_66:\n  dup2\n  add\n    /* \"contracts/WallyToken.sol\":1487:1511  keccak256(\"BURNER_ROLE\") */\n  sub\n  slt\n  tag_61\n  jumpi\n  0x00\n    /* \"contracts/WallyToken.sol\":1241:12028  contract WallyToken is ERC20, AccessControl, ReentrancyGuard {... */\n  swap2\n    /* \"contracts/WallyToken.sol\":3664:3714  IUniswapV2Factory(factory).createPair(self_, weth) */\n  0x44\n    /* \"contracts/WallyToken.sol\":1241:12028  contract WallyToken is ERC20, AccessControl, ReentrancyGuard {... */\n  tag_69\n  0x20\n  swap4\n  tag_2\n  jump\t// in\ntag_69:\n    /* \"contracts/WallyToken.sol\":3584:3597  router.WETH() */\n  swap3\n  pop\n  pop\n  swap2\n  jump(tag_53)\ntag_64:\n  returndatasize\n  swap2\n  pop\n  jump(tag_65)\n    /* \"contracts/WallyToken.sol\":3543:3559  router.factory() */\ntag_48:\n  swap1\n  swap2\n  pop\n    /* \"contracts/WallyToken.sol\":1241:12028  contract WallyToken is ERC20, AccessControl, ReentrancyGuard {... */\n  0x20\n    /* \"contracts/WallyToken.sol\":3543:3559  router.factory() */\n  dup2\n  returndatasize\n    /* \"contracts/WallyToken.sol\":1241:12028  contract WallyToken is ERC20, AccessControl, ReentrancyGuard {... */\n  0x20\n    /* \"contracts/WallyToken.sol\":3543:3559  router.factory() */\n  gt\n  tag_70\n  jumpi\ntag_71:\n  dup2\n  tag_72\n    /* \"contracts/WallyToken.sol\":1241:12028  contract WallyToken is ERC20, AccessControl, ReentrancyGuard {... */\n  0x20\n    /* \"contracts/WallyToken.sol\":3543:3559  router.factory() */\n  swap4\n  dup4\n  tag_1\n  jump\t// in\ntag_72:\n  dup2\n  add\n    /* \"contracts/WallyToken.sol\":1487:1511  keccak256(\"BURNER_ROLE\") */\n  sub\n  slt\n  tag_61\n  jumpi\n    /* \"contracts/WallyToken.sol\":1241:12028  contract WallyToken is ERC20, AccessControl, ReentrancyGuard {... */\n  0x20\n  tag_75\n    /* \"@openzeppelin/contracts/token/ERC20/ERC20.sol\":1690:1707  _symbol = symbol_ */\n  0x04\n    /* \"contracts/WallyToken.sol\":1241:12028  contract WallyToken is ERC20, AccessControl, ReentrancyGuard {... */\n  swap3\n  tag_2\n  jump\t// in\ntag_75:\n    /* \"contracts/WallyToken.sol\":3543:3559  router.factory() */\n  swap3\n  swap2\n  pop\n  jump(tag_49)\ntag_70:\n  returndatasize\n  swap2\n  pop\n  jump(tag_71)\n    /* \"contracts/WallyToken.sol\":1241:12028  contract WallyToken is ERC20, AccessControl, ReentrancyGuard {... */\ntag_43:\n  mstore(0x00, shl(0xe0, 0x4e487b71))\n  0x11\n    /* \"@openzeppelin/contracts/token/ERC20/ERC20.sol\":1690:1707  _symbol = symbol_ */\n  0x04\n    /* \"contracts/WallyToken.sol\":1241:12028  contract WallyToken is ERC20, AccessControl, ReentrancyGuard {... */\n  mstore\n  revert(0x00, 0x24)\n    /* \"@openzeppelin/contracts/token/ERC20/ERC20.sol\":7524:7615  if (account == address(0)) {... */\ntag_41:\n    /* \"@openzeppelin/contracts/token/ERC20/ERC20.sol\":7572:7604  ERC20InvalidReceiver(address(0)) */\n  mstore(0x00, shl(0xe0, 0xec442f05))\n  0x00\n    /* \"@openzeppelin/contracts/token/ERC20/ERC20.sol\":1690:1707  _symbol = symbol_ */\n  0x04\n    /* \"contracts/WallyToken.sol\":1487:1511  keccak256(\"BURNER_ROLE\") */\n  mstore\n    /* \"contracts/WallyToken.sol\":1241:12028  contract WallyToken is ERC20, AccessControl, ReentrancyGuard {... */\n  0x24\n  0x00\n    /* \"@openzeppelin/contracts/token/ERC20/ERC20.sol\":7572:7604  ERC20InvalidReceiver(address(0)) */\n  revert\n    /* \"contracts/WallyToken.sol\":1241:12028  contract WallyToken is ERC20, AccessControl, ReentrancyGuard {... */\ntag_39:\n  mload(0x40)\n  shl(0xe5, 0x461bcd)\n  dup2\n  mstore\n  0x20\n    /* \"@openzeppelin/contracts/token/ERC20/ERC20.sol\":1690:1707  _symbol = symbol_ */\n  0x04\n    /* \"contracts/WallyToken.sol\":1241:12028  contract WallyToken is ERC20, AccessControl, ReentrancyGuard {... */\n  dup3\n  add\n  mstore\n  0x08\n  0x24\n  dup3\n  add\n  mstore\n  shl(0xc0, 0x5a65726f2044414f)\n  0x44\n  dup3\n  add\n  mstore\n  0x64\n  swap1\n  revert\ntag_37:\n  mload(0x40)\n  shl(0xe5, 0x461bcd)\n  dup2\n  mstore\n  0x20\n    /* \"@openzeppelin/contracts/token/ERC20/ERC20.sol\":1690:1707  _symbol = symbol_ */\n  0x04\n    /* \"contracts/WallyToken.sol\":1241:12028  contract WallyToken is ERC20, AccessControl, ReentrancyGuard {... */\n  dup3\n  add\n  mstore\n  0x0b\n  0x24\n  dup3\n  add\n  mstore\n  shl(0xa9, 0x2d32b937903937baba32b9)\n  0x44\n  dup3\n  add\n  mstore\n  0x64\n  swap1\n  revert\ntag_34:\n  add\n  mload\n  swap1\n  pop\n  0x00\n  dup1\n  jump(tag_35)\ntag_32:\n  not(0x1f)\n  dup3\n  and\n  swap1\n    /* \"@openzeppelin/contracts/token/ERC20/ERC20.sol\":1690:1707  _symbol = symbol_ */\n  0x04\n  0x00\n    /* \"contracts/WallyToken.sol\":1241:12028  contract WallyToken is ERC20, AccessControl, ReentrancyGuard {... */\n  mstore\n  dup1\n  0x00\n  keccak256\n  swap2\n  0x00\ntag_76:\n  dup2\n  dup2\n  lt\n  tag_77\n  jumpi\n  pop\n  swap6\n  dup4\n  0x01\n  swap6\n  swap7\n  swap8\n  lt\n  tag_79\n  jumpi\ntag_80:\n  pop\n  pop\n  pop\n  dup2\n  shl\n  add\n    /* \"@openzeppelin/contracts/token/ERC20/ERC20.sol\":1690:1707  _symbol = symbol_ */\n  0x04\n    /* \"contracts/WallyToken.sol\":1241:12028  contract WallyToken is ERC20, AccessControl, ReentrancyGuard {... */\n  sstore\n  jump(tag_36)\ntag_79:\n  add\n  mload\n  not(0x00)\n  0xf8\n  dup5\n  0x03\n  shl\n  and\n  shr\n  not\n  and\n  swap1\n  sstore\n  0x00\n  dup1\n  dup1\n  jump(tag_80)\ntag_77:\n  swap2\n  swap3\n  0x20\n  0x01\n  dup2\n  swap3\n  dup7\n  dup12\n  add\n  mload\n  dup2\n  sstore\n  add\n  swap5\n  add\n  swap3\n  add\n  jump(tag_76)\ntag_30:\n    /* \"@openzeppelin/contracts/token/ERC20/ERC20.sol\":1690:1707  _symbol = symbol_ */\n  0x04\n  0x00\n    /* \"contracts/WallyToken.sol\":1241:12028  contract WallyToken is ERC20, AccessControl, ReentrancyGuard {... */\n  mstore\n  0x8a35acfbc15ff81a39ae7d344fd709f28e8600b4aa8c65c6b64bfe7fe36bd19b\n  0x1f\n  dup4\n  add\n  0x05\n  shr\n  dup2\n  add\n  swap2\n  0x20\n  dup5\n  lt\n  tag_81\n  jumpi\ntag_82:\n  0x1f\n  add\n  0x05\n  shr\n  add\n  swap1\ntag_83:\n  dup2\n  dup2\n  lt\n  tag_84\n  jumpi\n  pop\n  jump(tag_31)\ntag_84:\n  0x00\n  dup2\n  sstore\n  0x01\n  add\n  jump(tag_83)\ntag_81:\n  swap1\n  swap2\n  pop\n  dup2\n  swap1\n  jump(tag_82)\ntag_28:\n  mstore(0x00, shl(0xe0, 0x4e487b71))\n  0x22\n    /* \"@openzeppelin/contracts/token/ERC20/ERC20.sol\":1690:1707  _symbol = symbol_ */\n  0x04\n    /* \"contracts/WallyToken.sol\":1241:12028  contract WallyToken is ERC20, AccessControl, ReentrancyGuard {... */\n  mstore\n  revert(0x00, 0x24)\ntag_26:\n  swap1\n  0x7f\n  and\n  swap1\n  jump(tag_27)\ntag_24:\n  mstore(0x00, shl(0xe0, 0x4e487b71))\n  0x41\n    /* \"@openzeppelin/contracts/token/ERC20/ERC20.sol\":1690:1707  _symbol = symbol_ */\n  0x04\n    /* \"contracts/WallyToken.sol\":1241:12028  contract WallyToken is ERC20, AccessControl, ReentrancyGuard {... */\n  mstore\n  revert(0x00, 0x24)\ntag_21:\n  add\n  mload\n  swap1\n  pop\n  0x00\n  dup1\n  jump(tag_22)\ntag_19:\n  not(0x1f)\n  dup3\n  and\n  swap6\n  mstore(0x00, 0x03)\n  dup1\n  0x00\n  keccak256\n  swap2\n  0x00\ntag_86:\n  dup9\n  dup2\n  lt\n  tag_87\n  jumpi\n  pop\n  dup4\n  0x01\n  swap6\n  swap7\n  swap8\n  swap9\n  lt\n  tag_89\n  jumpi\ntag_90:\n  pop\n  pop\n  pop\n  dup2\n  shl\n  add\n  0x03\n  sstore\n  jump(tag_23)\ntag_89:\n  add\n  mload\n  not(0x00)\n  0xf8\n  dup5\n  0x03\n  shl\n  and\n  shr\n  not\n  and\n  swap1\n  sstore\n  0x00\n  dup1\n  dup1\n  jump(tag_90)\ntag_87:\n  swap2\n  swap3\n  0x20\n  0x01\n  dup2\n  swap3\n  dup7\n  dup6\n  add\n  mload\n  dup2\n  sstore\n  add\n  swap5\n  add\n  swap3\n  add\n  jump(tag_86)\ntag_17:\n  mstore(0x00, 0x03)\n  0xc2575a0e9e593c00f959f8c92f12db2869c3395a3b0502d05e2516446f71f85b\n  0x1f\n  dup4\n  add\n  0x05\n  shr\n  dup2\n  add\n  swap2\n  0x20\n  dup5\n  lt\n  tag_91\n  jumpi\ntag_92:\n  0x1f\n  add\n  0x05\n  shr\n  add\n  swap1\ntag_93:\n  dup2\n  dup2\n  lt\n  tag_94\n  jumpi\n  pop\n  jump(tag_18)\ntag_94:\n  0x00\n  dup2\n  sstore\n  0x01\n  add\n  jump(tag_93)\ntag_91:\n  swap1\n  swap2\n  pop\n  dup2\n  swap1\n  jump(tag_92)\ntag_13:\n  swap1\n  0x7f\n  and\n  swap1\n  jump(tag_14)\ntag_1:\n  0x1f\n  swap1\n  swap2\n  add\n  not(0x1f)\n  and\n  dup2\n  add\n  swap1\n  sub(shl(0x40, 0x01), 0x01)\n  dup3\n  gt\n  swap1\n  dup3\n  lt\n  or\n  tag_24\n  jumpi\n  0x40\n  mstore\n  jump\t// out\ntag_2:\n  mload\n  swap1\n  sub(shl(0xa0, 0x01), 0x01)\n  dup3\n  and\n  dup3\n  sub\n  tag_61\n  jumpi\n  jump\t// out\n    /* \"@openzeppelin/contracts/access/AccessControl.sol\":6179:6495  function _grantRole(bytes32 role, address account) internal virtual returns (bool) {... */\ntag_3:\n  sub(shl(0xa0, 0x01), 0x01)\n    /* \"contracts/WallyToken.sol\":1241:12028  contract WallyToken is ERC20, AccessControl, ReentrancyGuard {... */\n  dup2\n  and\n  0x00\n  swap1\n  dup2\n  mstore\n  mload(0x00)\n  codecopy(0x00, data_3d62345ca25dbcf5b90cd3caf078ba6fbc74987b189717c4d0a39b417756bdb3, 0x20)\n  mload(0x00)\n  swap1\n  0x00\n  mstore\n  0x20\n  mstore\n  0x40\n  swap1\n  keccak256\n  sload\n  0xff\n  and\n  tag_100\n  jumpi\n  sub(shl(0xa0, 0x01), 0x01)\n  and\n  0x00\n  dup2\n  dup2\n  mstore\n  mload(0x00)\n  codecopy(0x00, data_3d62345ca25dbcf5b90cd3caf078ba6fbc74987b189717c4d0a39b417756bdb3, 0x20)\n  mload(0x00)\n  swap1\n  0x00\n  mstore\n  0x20\n  mstore\n  0x40\n  dup2\n  keccak256\n    /* \"contracts/WallyToken.sol\":1487:1511  keccak256(\"BURNER_ROLE\") */\n  dup1\n  sload\n  not(0xff)\n  and\n    /* \"contracts/WallyToken.sol\":1241:12028  contract WallyToken is ERC20, AccessControl, ReentrancyGuard {... */\n  0x01\n    /* \"contracts/WallyToken.sol\":1487:1511  keccak256(\"BURNER_ROLE\") */\n  or\n  swap1\n  sstore\n    /* \"@openzeppelin/contracts/utils/Context.sol\":735:745  msg.sender */\n  caller\n  swap2\n    /* \"contracts/WallyToken.sol\":1241:12028  contract WallyToken is ERC20, AccessControl, ReentrancyGuard {... */\n  swap1\n  mload(0x00)\n  codecopy(0x00, data_cb864c43dd5d441bb6271f424f11befa622c032dfd374d226e26fbbdb782b8f8, 0x20)\n  mload(0x00)\n  swap1\n  0x00\n  mstore\n    /* \"contracts/WallyToken.sol\":1348:1371  keccak256(\"ADMIN_ROLE\") */\n  swap1\n    /* \"@openzeppelin/contracts/access/AccessControl.sol\":6370:6410  RoleGranted(role, account, _msgSender()) */\n  0x2f8788117e7eff1d82e926ec794901d17c78024a50270940304540a733656f0d\n  swap1\n    /* \"contracts/WallyToken.sol\":1241:12028  contract WallyToken is ERC20, AccessControl, ReentrancyGuard {... */\n  dup1\n    /* \"@openzeppelin/contracts/access/AccessControl.sol\":6370:6410  RoleGranted(role, account, _msgSender()) */\n  log4\n    /* \"@openzeppelin/contracts/access/AccessControl.sol\":6347:6351  true */\n  0x01\n    /* \"@openzeppelin/contracts/access/AccessControl.sol\":6424:6435  return true */\n  swap1\n  jump\t// out\n    /* \"@openzeppelin/contracts/access/AccessControl.sol\":6272:6489  if (!hasRole(role, account)) {... */\ntag_100:\n    /* \"@openzeppelin/contracts/access/AccessControl.sol\":6466:6478  return false */\n  pop\n    /* \"contracts/WallyToken.sol\":1241:12028  contract WallyToken is ERC20, AccessControl, ReentrancyGuard {... */\n  0x00\n    /* \"@openzeppelin/contracts/access/AccessControl.sol\":6466:6478  return false */\n  swap1\n  jump\t// out\nstop\ndata_0cc6bfbb777b5ba8a5fa65e7400d0765a2fbd8cfce940c84f5480427bf0c914d bd79b86ffe0ab8e8776151514217cd7cacd52c909f66475c3af44e129f0b00ff\ndata_3d62345ca25dbcf5b90cd3caf078ba6fbc74987b189717c4d0a39b417756bdb3 d8ef4509105c3edb0b04658b4528edc5ddd30ea5a81e623a2623c88db1eb54b6\ndata_cb864c43dd5d441bb6271f424f11befa622c032dfd374d226e26fbbdb782b8f8 a49807205ce4d355092ef5a8a18f56e8913cf4a201fbe287825b095693c21775\n\nsub_0: assembly {\n        /* \"contracts/WallyToken.sol\":1241:12028  contract WallyToken is ERC20, AccessControl, ReentrancyGuard {... */\n      0x80\n      dup1\n      0x40\n      mstore\n      jumpi(tag_17, iszero(lt(calldatasize, 0x04)))\n    tag_18:\n      pop\n      jumpi(tag_19, iszero(calldatasize))\n      0x00\n      dup1\n      revert\n    tag_19:\n      mload(0x40)\n        /* \"contracts/WallyToken.sol\":12009:12018  msg.value */\n      callvalue\n        /* \"contracts/WallyToken.sol\":1241:12028  contract WallyToken is ERC20, AccessControl, ReentrancyGuard {... */\n      dup2\n      mstore\n        /* \"contracts/WallyToken.sol\":11983:12019  ReceivedEther(msg.sender, msg.value) */\n      0xa419615bc8fda4c87663805ee2a3597a6d71c1d476911d9892f340d965bc7bf1\n        /* \"contracts/WallyToken.sol\":1241:12028  contract WallyToken is ERC20, AccessControl, ReentrancyGuard {... */\n      0x20\n        /* \"contracts/WallyToken.sol\":11997:12007  msg.sender */\n      caller\n        /* \"contracts/WallyToken.sol\":11983:12019  ReceivedEther(msg.sender, msg.value) */\n      swap3\n      log2\n        /* \"contracts/WallyToken.sol\":1241:12028  contract WallyToken is ERC20, AccessControl, ReentrancyGuard {... */\n      stop\n    tag_17:\n      shr(0xe0, calldataload(0x00))\n      swap1\n      dup2\n      0x01ffc9a7\n      eq\n      tag_21\n      jumpi\n      pop\n      dup1\n      0x06fdde03\n      eq\n      tag_23\n      jumpi\n      dup1\n      0x095ea7b3\n      eq\n      tag_25\n      jumpi\n      dup1\n      0x099a04e5\n      eq\n      tag_27\n      jumpi\n      dup1\n      0x153b0d1e\n      eq\n      tag_29\n      jumpi\n      dup1\n      0x1694505e\n      eq\n      tag_31\n      jumpi\n      dup1\n      0x18160ddd\n      eq\n      tag_33\n      jumpi\n      dup1\n      0x2131c68c\n      eq\n      tag_35\n      jumpi\n      dup1\n      0x23b872dd\n      eq\n      tag_37\n      jumpi\n      dup1\n      0x248a9ca3\n      eq\n      tag_39\n      jumpi\n      dup1\n      0x2618f214\n      eq\n      tag_41\n      jumpi\n      dup1\n      0x2f2ff15d\n      eq\n      tag_43\n      jumpi\n      dup1\n      0x313ce567\n      eq\n      tag_45\n      jumpi\n      dup1\n      0x36568abe\n      eq\n      tag_47\n      jumpi\n      dup1\n      0x39509351\n      eq\n      tag_77\n      jumpi\n      dup1\n      0x40c10f19\n      eq\n      tag_51\n      jumpi\n      dup1\n      0x42966c68\n      eq\n      tag_53\n      jumpi\n      dup1\n      0x48fca59d\n      eq\n      tag_55\n      jumpi\n      dup1\n      0x49bd5a5e\n      eq\n      tag_57\n      jumpi\n      dup1\n      0x4ada218b\n      eq\n      tag_59\n      jumpi\n      dup1\n      0x65cf7c9b\n      eq\n      tag_61\n      jumpi\n      dup1\n      0x70a08231\n      eq\n      tag_63\n      jumpi\n      dup1\n      0x89900603\n      eq\n      tag_65\n      jumpi\n      dup1\n      0x8c0b5e22\n      eq\n      tag_67\n      jumpi\n      dup1\n      0x91d14854\n      eq\n      tag_69\n      jumpi\n      dup1\n      0x95d89b41\n      eq\n      tag_71\n      jumpi\n      dup1\n      0x963472f9\n      eq\n      tag_73\n      jumpi\n      dup1\n      0xa217fddf\n      eq\n      tag_75\n      jumpi\n      dup1\n      0xa457c2d7\n      eq\n      tag_77\n      jumpi\n      dup1\n      0xa9059cbb\n      eq\n      tag_79\n      jumpi\n      dup1\n      0xa985ceef\n      eq\n      tag_81\n      jumpi\n      dup1\n      0xb319c6b7\n      eq\n      tag_83\n      jumpi\n      dup1\n      0xb37fd190\n      eq\n      tag_85\n      jumpi\n      dup1\n      0xc2e5ec04\n      eq\n      tag_87\n      jumpi\n      dup1\n      0xd547741f\n      eq\n      tag_89\n      jumpi\n      dup1\n      0xdd62ed3e\n      eq\n      tag_91\n      jumpi\n      dup1\n      0xec28438a\n      eq\n      tag_93\n      jumpi\n      dup1\n      0xf6f1e306\n      eq\n      tag_95\n      jumpi\n      0xfe575a87\n      eq\n      tag_97\n      jumpi\n      0x00\n      jump(tag_18)\n    tag_97:\n      jumpi(tag_101, callvalue)\n      jumpi(tag_101, slt(add(not(0x03), calldatasize), 0x20))\n      sub(shl(0xa0, 0x01), 0x01)\n      tag_103\n      tag_2\n      jump\t// in\n    tag_103:\n      and\n      0x00\n      mstore\n        /* \"contracts/WallyToken.sol\":7991:8000  _userData */\n      0x09\n        /* \"contracts/WallyToken.sol\":1241:12028  contract WallyToken is ERC20, AccessControl, ReentrancyGuard {... */\n      0x20\n      mstore\n      0x20\n      and(sload(keccak256(0x00, 0x40)), 0xff)\n      mload(0x40)\n      swap1\n      iszero\n      iszero\n      dup2\n      mstore\n      return\n    tag_101:\n      0x00\n      dup1\n      revert\n    tag_95:\n      jumpi(tag_101, slt(add(not(0x03), calldatasize), 0xa0))\n      tag_106\n      tag_2\n      jump\t// in\n    tag_106:\n      calldataload(0x24)\n        /* \"@openzeppelin/contracts/security/ReentrancyGuard.sol\":2227:2330  modifier nonReentrant() {... */\n      swap1\n      tag_107\n      tag_10\n      jump\t// in\n    tag_107:\n        /* \"@openzeppelin/contracts/access/AccessControl.sol\":2475:2479  role */\n      tag_108\n      tag_11\n      jump\t// in\n    tag_108:\n        /* \"contracts/WallyToken.sol\":1241:12028  contract WallyToken is ERC20, AccessControl, ReentrancyGuard {... */\n      0x01\n      dup1\n      0xa0\n      shl\n      sub\n      and\n      dup1\n      mload(0x40)\n      dup4\n      dup2\n      mstore\n        /* \"contracts/WallyToken.sol\":8454:8463  msg.value */\n      callvalue\n        /* \"contracts/WallyToken.sol\":1241:12028  contract WallyToken is ERC20, AccessControl, ReentrancyGuard {... */\n      0x20\n      dup3\n      add\n      mstore\n        /* \"contracts/WallyToken.sol\":8401:8464  LiquidityAddRequested(msg.sender, to, tokenAmountIn, msg.value) */\n      0x407e9458c121455467ad277a21812c883f5d67ee0020a7b7a3ea0007a6639183\n        /* \"contracts/WallyToken.sol\":1241:12028  contract WallyToken is ERC20, AccessControl, ReentrancyGuard {... */\n      0x40\n        /* \"contracts/WallyToken.sol\":8423:8433  msg.sender */\n      caller\n        /* \"contracts/WallyToken.sol\":8401:8464  LiquidityAddRequested(msg.sender, to, tokenAmountIn, msg.value) */\n      swap3\n      log3\n        /* \"contracts/WallyToken.sol\":8542:8558  _uniswapV2Router */\n      0x07\n        /* \"contracts/WallyToken.sol\":1241:12028  contract WallyToken is ERC20, AccessControl, ReentrancyGuard {... */\n      sload\n      sub(shl(0xa0, 0x01), 0x01)\n      and\n      swap2\n      0x60\n      swap1\n        /* \"@openzeppelin/contracts/token/ERC20/ERC20.sol\":8842:8846  true */\n      tag_109\n        /* \"contracts/WallyToken.sol\":8499:8503  this */\n      dup2\n        /* \"contracts/WallyToken.sol\":1241:12028  contract WallyToken is ERC20, AccessControl, ReentrancyGuard {... */\n      dup6\n        /* \"contracts/WallyToken.sol\":8499:8503  this */\n      address\n        /* \"@openzeppelin/contracts/token/ERC20/ERC20.sol\":8842:8846  true */\n      tag_16\n      jump\t// in\n    tag_109:\n        /* \"contracts/WallyToken.sol\":8665:8853  router.addLiquidityETH{value: msg.value}(... */\n      0xc4\n        /* \"contracts/WallyToken.sol\":1241:12028  contract WallyToken is ERC20, AccessControl, ReentrancyGuard {... */\n      mload(0x40)\n      dup1\n      swap6\n      dup2\n      swap4\n      shl(0xe0, 0xf305d719)\n        /* \"contracts/WallyToken.sol\":8665:8853  router.addLiquidityETH{value: msg.value}(... */\n      dup4\n      mstore\n        /* \"contracts/WallyToken.sol\":8499:8503  this */\n      address\n        /* \"contracts/WallyToken.sol\":1241:12028  contract WallyToken is ERC20, AccessControl, ReentrancyGuard {... */\n      0x04\n        /* \"contracts/WallyToken.sol\":8665:8853  router.addLiquidityETH{value: msg.value}(... */\n      dup5\n      add\n        /* \"contracts/WallyToken.sol\":1241:12028  contract WallyToken is ERC20, AccessControl, ReentrancyGuard {... */\n      mstore\n      0x24\n      dup4\n      add\n      mstore\n      calldataload(0x44)\n      0x44\n      dup4\n      add\n      mstore\n      calldataload(0x64)\n      0x64\n      dup4\n      add\n      mstore\n      dup6\n      0x84\n      dup4\n      add\n      mstore\n      calldataload(0x84)\n      0xa4\n      dup4\n      add\n      mstore\n        /* \"contracts/WallyToken.sol\":8454:8463  msg.value */\n      callvalue\n        /* \"contracts/WallyToken.sol\":8665:8853  router.addLiquidityETH{value: msg.value}(... */\n      swap1\n      gas\n      call\n      dup1\n      iszero\n      tag_110\n      jumpi\n        /* \"contracts/WallyToken.sol\":1241:12028  contract WallyToken is ERC20, AccessControl, ReentrancyGuard {... */\n      0x00\n      swap2\n      0x00\n      swap4\n      0x00\n        /* \"contracts/WallyToken.sol\":8665:8853  router.addLiquidityETH{value: msg.value}(... */\n      swap3\n      tag_112\n      jumpi\n        /* \"contracts/WallyToken.sol\":1241:12028  contract WallyToken is ERC20, AccessControl, ReentrancyGuard {... */\n    tag_113:\n      pop\n      swap1\n      tag_114\n      swap2\n        /* \"contracts/WallyToken.sol\":8869:8922  LiquidityAdded(to, amountToken, amountETH, liquidity) */\n      0x64b83944e79c3ce8d4c297411de637c3e102d064677aac0c163976ebdcd6f50e\n        /* \"contracts/WallyToken.sol\":1241:12028  contract WallyToken is ERC20, AccessControl, ReentrancyGuard {... */\n      mload(0x40)\n        /* \"contracts/WallyToken.sol\":8869:8922  LiquidityAdded(to, amountToken, amountETH, liquidity) */\n      dup1\n      tag_115\n      dup6\n      dup10\n      dup10\n      dup5\n        /* \"contracts/WallyToken.sol\":1241:12028  contract WallyToken is ERC20, AccessControl, ReentrancyGuard {... */\n      0x40\n      swap2\n      swap5\n      swap4\n      swap3\n      0x60\n      dup3\n      add\n      swap6\n      dup3\n      mstore\n      0x20\n      dup3\n      add\n      mstore\n      add\n      mstore\n      jump\n        /* \"contracts/WallyToken.sol\":8869:8922  LiquidityAdded(to, amountToken, amountETH, liquidity) */\n    tag_115:\n      sub\n      swap1\n      log2\n        /* \"contracts/WallyToken.sol\":1241:12028  contract WallyToken is ERC20, AccessControl, ReentrancyGuard {... */\n      0x01\n        /* \"@openzeppelin/contracts/security/ReentrancyGuard.sol\":2809:2831  _status = _NOT_ENTERED */\n      0x06\n        /* \"contracts/WallyToken.sol\":1241:12028  contract WallyToken is ERC20, AccessControl, ReentrancyGuard {... */\n      sstore\n      mload(0x40)\n      swap4\n      dup5\n      swap4\n      dup5\n      0x40\n      swap2\n      swap5\n      swap4\n      swap3\n      0x60\n      dup3\n      add\n      swap6\n      dup3\n      mstore\n      0x20\n      dup3\n      add\n      mstore\n      add\n      mstore\n      jump\n    tag_114:\n      sub\n      swap1\n      return\n        /* \"contracts/WallyToken.sol\":8665:8853  router.addLiquidityETH{value: msg.value}(... */\n    tag_112:\n      swap3\n      pop\n      swap3\n      pop\n      pop\n        /* \"contracts/WallyToken.sol\":1241:12028  contract WallyToken is ERC20, AccessControl, ReentrancyGuard {... */\n      0x60\n        /* \"contracts/WallyToken.sol\":8665:8853  router.addLiquidityETH{value: msg.value}(... */\n      dup2\n      returndatasize\n        /* \"contracts/WallyToken.sol\":1241:12028  contract WallyToken is ERC20, AccessControl, ReentrancyGuard {... */\n      0x60\n        /* \"contracts/WallyToken.sol\":8665:8853  router.addLiquidityETH{value: msg.value}(... */\n      gt\n      tag_116\n      jumpi\n    tag_117:\n      dup2\n      tag_118\n        /* \"contracts/WallyToken.sol\":1241:12028  contract WallyToken is ERC20, AccessControl, ReentrancyGuard {... */\n      0x60\n        /* \"contracts/WallyToken.sol\":8665:8853  router.addLiquidityETH{value: msg.value}(... */\n      swap4\n      dup4\n      tag_7\n      jump\t// in\n    tag_118:\n      dup2\n      add\n        /* \"contracts/WallyToken.sol\":1241:12028  contract WallyToken is ERC20, AccessControl, ReentrancyGuard {... */\n      sub\n      slt\n      tag_101\n      jumpi\n      tag_114\n      dup2\n      mload\n      swap3\n      0x40\n      0x20\n      dup5\n      add\n      mload\n      swap4\n      add\n      mload\n        /* \"contracts/WallyToken.sol\":8665:8853  router.addLiquidityETH{value: msg.value}(... */\n      swap4\n      swap3\n      swap4\n      swap2\n      jump(tag_113)\n    tag_116:\n      returndatasize\n      swap2\n      pop\n      jump(tag_117)\n    tag_110:\n        /* \"contracts/WallyToken.sol\":1241:12028  contract WallyToken is ERC20, AccessControl, ReentrancyGuard {... */\n      mload(0x40)\n      returndatasize\n      0x00\n      dup3\n      returndatacopy\n      returndatasize\n      swap1\n      revert\n    tag_93:\n      jumpi(tag_101, callvalue)\n      jumpi(tag_101, slt(add(not(0x03), calldatasize), 0x20))\n      calldataload(0x04)\n        /* \"@openzeppelin/contracts/security/ReentrancyGuard.sol\":2227:2330  modifier nonReentrant() {... */\n      tag_125\n      tag_10\n      jump\t// in\n    tag_125:\n        /* \"@openzeppelin/contracts/access/AccessControl.sol\":2475:2479  role */\n      tag_126\n      tag_11\n      jump\t// in\n    tag_126:\n        /* \"contracts/WallyToken.sol\":1241:12028  contract WallyToken is ERC20, AccessControl, ReentrancyGuard {... */\n      dup1\n        /* \"contracts/WallyToken.sol\":6403:6415  _maxTxAmount */\n      0x0f\n        /* \"contracts/WallyToken.sol\":1241:12028  contract WallyToken is ERC20, AccessControl, ReentrancyGuard {... */\n      sload\n        /* \"contracts/WallyToken.sol\":6403:6424  _maxTxAmount != maxTx */\n      sub\n        /* \"contracts/WallyToken.sol\":6399:6511  if (_maxTxAmount != maxTx) {... */\n      tag_127\n      jumpi\n        /* \"contracts/WallyToken.sol\":1241:12028  contract WallyToken is ERC20, AccessControl, ReentrancyGuard {... */\n    tag_128:\n      0x01\n        /* \"@openzeppelin/contracts/security/ReentrancyGuard.sol\":2809:2831  _status = _NOT_ENTERED */\n      0x06\n        /* \"contracts/WallyToken.sol\":1241:12028  contract WallyToken is ERC20, AccessControl, ReentrancyGuard {... */\n      sstore\n      stop\n        /* \"contracts/WallyToken.sol\":6399:6511  if (_maxTxAmount != maxTx) {... */\n    tag_127:\n        /* \"contracts/WallyToken.sol\":1241:12028  contract WallyToken is ERC20, AccessControl, ReentrancyGuard {... */\n      dup1\n        /* \"contracts/WallyToken.sol\":6403:6415  _maxTxAmount */\n      0x0f\n        /* \"contracts/WallyToken.sol\":1241:12028  contract WallyToken is ERC20, AccessControl, ReentrancyGuard {... */\n      sstore\n        /* \"contracts/WallyToken.sol\":6479:6500  MaxTxAmountSet(maxTx) */\n      0xd6a912222a539eff01eb7e23cd954e57c4ae962622948839fefbc46b0ffe914a\n        /* \"contracts/WallyToken.sol\":1241:12028  contract WallyToken is ERC20, AccessControl, ReentrancyGuard {... */\n      0x00\n        /* \"contracts/WallyToken.sol\":6479:6500  MaxTxAmountSet(maxTx) */\n      dup1\n      log2\n        /* \"contracts/WallyToken.sol\":6399:6511  if (_maxTxAmount != maxTx) {... */\n      dup1\n      jump(tag_128)\n        /* \"contracts/WallyToken.sol\":1241:12028  contract WallyToken is ERC20, AccessControl, ReentrancyGuard {... */\n    tag_91:\n      jumpi(tag_101, callvalue)\n      jumpi(tag_101, slt(add(not(0x03), calldatasize), 0x40))\n      tag_133\n      tag_2\n      jump\t// in\n    tag_133:\n      tag_134\n      tag_3\n      jump\t// in\n    tag_134:\n      sub(shl(0xa0, 0x01), 0x01)\n      swap2\n      dup3\n      and\n      0x00\n      swap1\n      dup2\n      mstore\n      0x01\n      0x20\n      swap1\n      dup2\n      mstore\n      0x40\n      dup1\n      dup4\n      keccak256\n      swap5\n      swap1\n      swap4\n      and\n      dup3\n      mstore\n      swap3\n      dup4\n      mstore\n      dup2\n      swap1\n      keccak256\n      sload\n      swap1\n      mload\n      swap1\n      dup2\n      mstore\n      return\n    tag_89:\n      jumpi(tag_101, callvalue)\n      jumpi(tag_101, slt(add(not(0x03), calldatasize), 0x40))\n        /* \"@openzeppelin/contracts/access/AccessControl.sol\":4747:4773  _revokeRole(role, account) */\n      tag_139\n        /* \"contracts/WallyToken.sol\":1241:12028  contract WallyToken is ERC20, AccessControl, ReentrancyGuard {... */\n      calldataload(0x04)\n      tag_140\n      tag_3\n      jump\t// in\n    tag_140:\n        /* \"@openzeppelin/contracts/access/AccessControl.sol\":4717:4735  getRoleAdmin(role) */\n      swap1\n        /* \"@openzeppelin/contracts/access/AccessControl.sol\":2475:2479  role */\n      tag_141\n        /* \"@openzeppelin/contracts/access/AccessControl.sol\":4717:4735  getRoleAdmin(role) */\n      tag_142\n      dup3\n      0x00\n        /* \"contracts/WallyToken.sol\":1241:12028  contract WallyToken is ERC20, AccessControl, ReentrancyGuard {... */\n      mstore\n        /* \"@openzeppelin/contracts/access/AccessControl.sol\":3901:3907  _roles */\n      0x05\n        /* \"contracts/WallyToken.sol\":1241:12028  contract WallyToken is ERC20, AccessControl, ReentrancyGuard {... */\n      0x20\n      mstore\n        /* \"@openzeppelin/contracts/access/AccessControl.sol\":3901:3923  _roles[role].adminRole */\n      0x01\n        /* \"contracts/WallyToken.sol\":1241:12028  contract WallyToken is ERC20, AccessControl, ReentrancyGuard {... */\n      keccak256(0x00, 0x40)\n        /* \"@openzeppelin/contracts/access/AccessControl.sol\":3901:3923  _roles[role].adminRole */\n      add\n        /* \"contracts/WallyToken.sol\":1241:12028  contract WallyToken is ERC20, AccessControl, ReentrancyGuard {... */\n      sload\n        /* \"@openzeppelin/contracts/access/AccessControl.sol\":3810:3930  function getRoleAdmin(bytes32 role) public view virtual returns (bytes32) {... */\n      swap1\n      jump\n        /* \"@openzeppelin/contracts/access/AccessControl.sol\":4717:4735  getRoleAdmin(role) */\n    tag_142:\n        /* \"@openzeppelin/contracts/access/AccessControl.sol\":2475:2479  role */\n      tag_12\n      jump\t// in\n    tag_141:\n        /* \"@openzeppelin/contracts/access/AccessControl.sol\":4747:4773  _revokeRole(role, account) */\n      tag_15\n      jump\t// in\n    tag_139:\n        /* \"contracts/WallyToken.sol\":1241:12028  contract WallyToken is ERC20, AccessControl, ReentrancyGuard {... */\n      stop\n    tag_87:\n      jumpi(tag_101, callvalue)\n      jumpi(tag_101, slt(add(not(0x03), calldatasize), 0x20))\n      tag_147\n      tag_4\n      jump\t// in\n    tag_147:\n        /* \"@openzeppelin/contracts/security/ReentrancyGuard.sol\":2227:2330  modifier nonReentrant() {... */\n      tag_148\n      tag_10\n      jump\t// in\n    tag_148:\n        /* \"@openzeppelin/contracts/access/AccessControl.sol\":2475:2479  role */\n      tag_149\n      tag_11\n      jump\t// in\n    tag_149:\n        /* \"contracts/WallyToken.sol\":5235:5250  _tradingEnabled */\n      0x0a\n        /* \"contracts/WallyToken.sol\":1241:12028  contract WallyToken is ERC20, AccessControl, ReentrancyGuard {... */\n      sload\n      dup2\n      iszero\n      iszero\n      swap1\n      dup2\n      0xff\n      dup3\n      and\n      iszero\n      iszero\n        /* \"contracts/WallyToken.sol\":5235:5261  _tradingEnabled != enabled */\n      sub\n        /* \"contracts/WallyToken.sol\":5231:5480  if (_tradingEnabled != enabled) {... */\n      tag_150\n      jumpi\n        /* \"@openzeppelin/contracts/security/ReentrancyGuard.sol\":1716:1717  1 */\n      0x01\n        /* \"@openzeppelin/contracts/security/ReentrancyGuard.sol\":2809:2831  _status = _NOT_ENTERED */\n      0x06\n        /* \"contracts/WallyToken.sol\":1241:12028  contract WallyToken is ERC20, AccessControl, ReentrancyGuard {... */\n      sstore\n      stop\n        /* \"contracts/WallyToken.sol\":5231:5480  if (_tradingEnabled != enabled) {... */\n    tag_150:\n      not(0xff)\n        /* \"contracts/WallyToken.sol\":1241:12028  contract WallyToken is ERC20, AccessControl, ReentrancyGuard {... */\n      and\n      0xff\n      dup3\n      and\n      or\n        /* \"contracts/WallyToken.sol\":5235:5250  _tradingEnabled */\n      0x0a\n        /* \"contracts/WallyToken.sol\":1241:12028  contract WallyToken is ERC20, AccessControl, ReentrancyGuard {... */\n      dup2\n      swap1\n      sstore\n      swap1\n        /* \"contracts/WallyToken.sol\":5321:5347  TradingEnabledSet(enabled) */\n      0x6e552ceee9488e9332de4530eb91788e818d00e6ccfb1f2968cb4325924e0611\n        /* \"contracts/WallyToken.sol\":1241:12028  contract WallyToken is ERC20, AccessControl, ReentrancyGuard {... */\n      0x00\n      dup1\n        /* \"contracts/WallyToken.sol\":5321:5347  TradingEnabledSet(enabled) */\n      log2\n        /* \"contracts/WallyToken.sol\":5365:5400  enabled && _sniperProtectionEnabled */\n      dup2\n      tag_152\n      jumpi\n        /* \"contracts/WallyToken.sol\":5231:5480  if (_tradingEnabled != enabled) {... */\n    tag_153:\n        /* \"contracts/WallyToken.sol\":5361:5470  if (enabled && _sniperProtectionEnabled) {... */\n      pop\n      tag_154\n      jumpi\n        /* \"contracts/WallyToken.sol\":5231:5480  if (_tradingEnabled != enabled) {... */\n    tag_155:\n      dup1\n      dup1\n      dup1\n      jump(tag_128)\n        /* \"contracts/WallyToken.sol\":5361:5470  if (enabled && _sniperProtectionEnabled) {... */\n    tag_154:\n        /* \"contracts/WallyToken.sol\":5439:5454  block.timestamp */\n      timestamp\n        /* \"contracts/WallyToken.sol\":5420:5454  _launchTimestamp = block.timestamp */\n      0x0c\n        /* \"contracts/WallyToken.sol\":1241:12028  contract WallyToken is ERC20, AccessControl, ReentrancyGuard {... */\n      sstore\n        /* \"contracts/WallyToken.sol\":5361:5470  if (enabled && _sniperProtectionEnabled) {... */\n      jump(tag_155)\n        /* \"contracts/WallyToken.sol\":5365:5400  enabled && _sniperProtectionEnabled */\n    tag_152:\n        /* \"contracts/WallyToken.sol\":1241:12028  contract WallyToken is ERC20, AccessControl, ReentrancyGuard {... */\n      0xff\n      swap2\n      pop\n      0x08\n      shr\n      and\n        /* \"contracts/WallyToken.sol\":5365:5400  enabled && _sniperProtectionEnabled */\n      dup2\n      jump(tag_153)\n        /* \"contracts/WallyToken.sol\":1241:12028  contract WallyToken is ERC20, AccessControl, ReentrancyGuard {... */\n    tag_85:\n      jumpi(tag_101, callvalue)\n      jumpi(tag_101, slt(add(not(0x03), calldatasize), 0x60))\n      tag_160\n      tag_2\n      jump\t// in\n    tag_160:\n      calldataload(0x44)\n      sub(shl(0xa0, 0x01), 0x01)\n      dup2\n      and\n      swap2\n      calldataload(0x24)\n      swap2\n      dup4\n      swap1\n      sub\n      tag_101\n      jumpi\n        /* \"@openzeppelin/contracts/security/ReentrancyGuard.sol\":2227:2330  modifier nonReentrant() {... */\n      tag_163\n      tag_10\n      jump\t// in\n    tag_163:\n        /* \"@openzeppelin/contracts/access/AccessControl.sol\":2475:2479  role */\n      tag_164\n      tag_11\n      jump\t// in\n    tag_164:\n        /* \"contracts/WallyToken.sol\":11435:11473  require(to != address(0), \"Zero 'to'\") */\n      tag_165\n        /* \"contracts/WallyToken.sol\":11443:11459  to != address(0) */\n      dup4\n      iszero\n      iszero\n        /* \"contracts/WallyToken.sol\":11435:11473  require(to != address(0), \"Zero 'to'\") */\n      tag_8\n      jump\t// in\n    tag_165:\n        /* \"contracts/WallyToken.sol\":1241:12028  contract WallyToken is ERC20, AccessControl, ReentrancyGuard {... */\n      0x01\n      dup1\n      0xa0\n      shl\n      sub\n      and\n      swap1\n      mload(0x40)\n      shl(0xe0, 0xa9059cbb)\n        /* \"contracts/WallyToken.sol\":11483:11524  IERC20(tokenAddress).transfer(to, amount) */\n      dup2\n      mstore\n      dup4\n        /* \"contracts/WallyToken.sol\":1241:12028  contract WallyToken is ERC20, AccessControl, ReentrancyGuard {... */\n      0x04\n        /* \"contracts/WallyToken.sol\":11483:11524  IERC20(tokenAddress).transfer(to, amount) */\n      dup3\n      add\n        /* \"contracts/WallyToken.sol\":1241:12028  contract WallyToken is ERC20, AccessControl, ReentrancyGuard {... */\n      mstore\n      dup2\n      0x24\n      dup3\n      add\n      mstore\n      0x20\n        /* \"contracts/WallyToken.sol\":11483:11524  IERC20(tokenAddress).transfer(to, amount) */\n      dup2\n        /* \"contracts/WallyToken.sol\":1241:12028  contract WallyToken is ERC20, AccessControl, ReentrancyGuard {... */\n      0x44\n        /* \"contracts/WallyToken.sol\":11483:11524  IERC20(tokenAddress).transfer(to, amount) */\n      dup2\n        /* \"contracts/WallyToken.sol\":1241:12028  contract WallyToken is ERC20, AccessControl, ReentrancyGuard {... */\n      0x00\n        /* \"contracts/WallyToken.sol\":11483:11524  IERC20(tokenAddress).transfer(to, amount) */\n      dup8\n      gas\n      call\n      dup1\n      iszero\n      tag_110\n      jumpi\n      tag_168\n      jumpi\n        /* \"contracts/WallyToken.sol\":1241:12028  contract WallyToken is ERC20, AccessControl, ReentrancyGuard {... */\n    tag_169:\n      pop\n      0x20\n        /* \"contracts/WallyToken.sol\":11539:11578  TokensRescued(tokenAddress, amount, to) */\n      0xfb475a842bad10d3800b61bd1a92e716051afba979b124b583bd99a2d1d7bfd5\n        /* \"contracts/WallyToken.sol\":1241:12028  contract WallyToken is ERC20, AccessControl, ReentrancyGuard {... */\n      swap2\n      mload(0x40)\n      swap1\n      dup2\n      mstore\n        /* \"contracts/WallyToken.sol\":11539:11578  TokensRescued(tokenAddress, amount, to) */\n      log3\n        /* \"contracts/WallyToken.sol\":1241:12028  contract WallyToken is ERC20, AccessControl, ReentrancyGuard {... */\n      0x01\n        /* \"@openzeppelin/contracts/security/ReentrancyGuard.sol\":2809:2831  _status = _NOT_ENTERED */\n      0x06\n        /* \"contracts/WallyToken.sol\":1241:12028  contract WallyToken is ERC20, AccessControl, ReentrancyGuard {... */\n      sstore\n      stop\n        /* \"contracts/WallyToken.sol\":11483:11524  IERC20(tokenAddress).transfer(to, amount) */\n    tag_168:\n        /* \"contracts/WallyToken.sol\":1241:12028  contract WallyToken is ERC20, AccessControl, ReentrancyGuard {... */\n      0x20\n        /* \"contracts/WallyToken.sol\":11483:11524  IERC20(tokenAddress).transfer(to, amount) */\n      dup2\n      returndatasize\n        /* \"contracts/WallyToken.sol\":1241:12028  contract WallyToken is ERC20, AccessControl, ReentrancyGuard {... */\n      0x20\n        /* \"contracts/WallyToken.sol\":11483:11524  IERC20(tokenAddress).transfer(to, amount) */\n      gt\n      tag_170\n      jumpi\n    tag_171:\n      dup2\n      tag_172\n        /* \"contracts/WallyToken.sol\":1241:12028  contract WallyToken is ERC20, AccessControl, ReentrancyGuard {... */\n      0x20\n        /* \"contracts/WallyToken.sol\":11483:11524  IERC20(tokenAddress).transfer(to, amount) */\n      swap4\n      dup4\n      tag_7\n      jump\t// in\n    tag_172:\n      dup2\n      add\n        /* \"contracts/WallyToken.sol\":1241:12028  contract WallyToken is ERC20, AccessControl, ReentrancyGuard {... */\n      sub\n      slt\n      tag_101\n      jumpi\n      mload\n      dup1\n      iszero\n      iszero\n      dup2\n      sub\n      tag_101\n      jumpi\n      pop\n      0x20\n        /* \"contracts/WallyToken.sol\":11483:11524  IERC20(tokenAddress).transfer(to, amount) */\n      jump(tag_169)\n    tag_170:\n      returndatasize\n      swap2\n      pop\n      jump(tag_171)\n        /* \"contracts/WallyToken.sol\":1241:12028  contract WallyToken is ERC20, AccessControl, ReentrancyGuard {... */\n    tag_83:\n      jumpi(tag_101, callvalue)\n      jumpi(tag_101, slt(add(not(0x03), calldatasize), 0x00))\n      0x20\n        /* \"contracts/WallyToken.sol\":7787:7800  _cooldownTime */\n      0x0e\n        /* \"contracts/WallyToken.sol\":1241:12028  contract WallyToken is ERC20, AccessControl, ReentrancyGuard {... */\n      sload\n      mload(0x40)\n      swap1\n      dup2\n      mstore\n      return\n    tag_81:\n      jumpi(tag_101, callvalue)\n      jumpi(tag_101, slt(add(not(0x03), calldatasize), 0x00))\n      0x20\n      0xff\n        /* \"contracts/WallyToken.sol\":7686:7702  _cooldownEnabled */\n      0x0d\n        /* \"contracts/WallyToken.sol\":1241:12028  contract WallyToken is ERC20, AccessControl, ReentrancyGuard {... */\n      sload\n      and\n      mload(0x40)\n      swap1\n      iszero\n      iszero\n      dup2\n      mstore\n      return\n    tag_79:\n      jumpi(tag_101, callvalue)\n      jumpi(tag_101, slt(add(not(0x03), calldatasize), 0x40))\n        /* \"@openzeppelin/contracts/token/ERC20/ERC20.sol\":3459:3464  value */\n      tag_189\n        /* \"contracts/WallyToken.sol\":1241:12028  contract WallyToken is ERC20, AccessControl, ReentrancyGuard {... */\n      tag_190\n      tag_2\n      jump\t// in\n    tag_190:\n      calldataload(0x24)\n        /* \"@openzeppelin/contracts/utils/Context.sol\":735:745  msg.sender */\n      swap1\n      caller\n        /* \"@openzeppelin/contracts/token/ERC20/ERC20.sol\":3459:3464  value */\n      tag_13\n      jump\t// in\n    tag_189:\n        /* \"contracts/WallyToken.sol\":1241:12028  contract WallyToken is ERC20, AccessControl, ReentrancyGuard {... */\n      0x20\n      mload(0x40)\n      0x01\n      dup2\n      mstore\n      return\n    tag_77:\n      tag_5\n      jump\t// in\n    tag_75:\n      jumpi(tag_101, callvalue)\n      jumpi(tag_101, slt(add(not(0x03), calldatasize), 0x00))\n      0x20\n      mload(0x40)\n      0x00\n      dup2\n      mstore\n      return\n    tag_73:\n      jumpi(tag_101, callvalue)\n      jumpi(tag_101, slt(add(not(0x03), calldatasize), 0x00))\n      0x20\n      0xff\n        /* \"contracts/WallyToken.sol\":7381:7405  _sniperProtectionEnabled */\n      0x0a\n        /* \"contracts/WallyToken.sol\":1241:12028  contract WallyToken is ERC20, AccessControl, ReentrancyGuard {... */\n      sload\n      0x08\n      shr\n      and\n      mload(0x40)\n      swap1\n      iszero\n      iszero\n      dup2\n      mstore\n      return\n    tag_71:\n      jumpi(tag_101, callvalue)\n      jumpi(tag_101, slt(add(not(0x03), calldatasize), 0x00))\n      mload(0x40)\n      0x00\n      sload(0x04)\n      dup1\n      0x01\n      shr\n      swap1\n      0x01\n      dup2\n      and\n      dup1\n      iszero\n      tag_203\n      jumpi\n    tag_204:\n      0x20\n      dup4\n      lt\n      dup2\n      eq\n      tag_205\n      jumpi\n      dup3\n      dup6\n      mstore\n      swap1\n      dup2\n      iszero\n      tag_207\n      jumpi\n      pop\n      0x01\n      eq\n      tag_209\n      jumpi\n    tag_210:\n      tag_114\n      dup4\n      tag_212\n      dup2\n      dup6\n      sub\n      dup3\n      tag_7\n      jump\t// in\n    tag_212:\n      mload(0x40)\n      swap2\n      dup3\n      swap2\n      dup3\n      tag_1\n      jump\t// in\n    tag_209:\n      swap2\n      swap1\n      pop\n      mstore(0x00, 0x04)\n      0x8a35acfbc15ff81a39ae7d344fd709f28e8600b4aa8c65c6b64bfe7fe36bd19b\n      swap2\n      0x00\n      swap1\n    tag_213:\n      dup1\n      dup3\n      lt\n      tag_214\n      jumpi\n      pop\n      swap1\n      swap2\n      pop\n      dup2\n      add\n      0x20\n      add\n      tag_212\n      jump(tag_210)\n    tag_214:\n      swap2\n      swap3\n      0x01\n      dup2\n      0x20\n      swap3\n      sload\n      dup4\n      dup6\n      dup9\n      add\n      add\n      mstore\n      add\n      swap2\n      add\n      swap1\n      swap3\n      swap2\n      jump(tag_213)\n    tag_207:\n      not(0xff)\n      and\n      0x20\n      dup1\n      dup7\n      add\n      swap2\n      swap1\n      swap2\n      mstore\n      swap2\n      iszero\n      iszero\n      0x05\n      shl\n      dup5\n      add\n      swap1\n      swap2\n      add\n      swap2\n      pop\n      tag_212\n      swap1\n      pop\n      jump(tag_210)\n    tag_205:\n      mstore(0x00, shl(0xe0, 0x4e487b71))\n      mstore(0x04, 0x22)\n      revert(0x00, 0x24)\n    tag_203:\n      swap2\n      0x7f\n      and\n      swap2\n      jump(tag_204)\n    tag_69:\n      jumpi(tag_101, callvalue)\n      jumpi(tag_101, slt(add(not(0x03), calldatasize), 0x40))\n      tag_220\n      tag_3\n      jump\t// in\n    tag_220:\n      mstore(0x00, calldataload(0x04))\n        /* \"@openzeppelin/contracts/access/AccessControl.sol\":2954:2960  _roles */\n      0x05\n        /* \"contracts/WallyToken.sol\":1241:12028  contract WallyToken is ERC20, AccessControl, ReentrancyGuard {... */\n      0x20\n      mstore\n      keccak256(0x00, 0x40)\n        /* \"@openzeppelin/contracts/access/AccessControl.sol\":2954:2983  _roles[role].hasRole[account] */\n      swap1\n        /* \"contracts/WallyToken.sol\":1241:12028  contract WallyToken is ERC20, AccessControl, ReentrancyGuard {... */\n      0x01\n      dup1\n      0xa0\n      shl\n      sub\n      and\n      0x00\n      mstore\n      0x20\n      mstore\n      0x20\n      and(sload(keccak256(0x00, 0x40)), 0xff)\n      mload(0x40)\n      swap1\n      iszero\n      iszero\n      dup2\n      mstore\n      return\n    tag_67:\n      jumpi(tag_101, callvalue)\n      jumpi(tag_101, slt(add(not(0x03), calldatasize), 0x00))\n      0x20\n        /* \"contracts/WallyToken.sol\":7884:7896  _maxTxAmount */\n      0x0f\n        /* \"contracts/WallyToken.sol\":1241:12028  contract WallyToken is ERC20, AccessControl, ReentrancyGuard {... */\n      sload\n      mload(0x40)\n      swap1\n      dup2\n      mstore\n      return\n    tag_65:\n      jumpi(tag_101, callvalue)\n      jumpi(tag_101, slt(add(not(0x03), calldatasize), 0x40))\n      tag_229\n      tag_4\n      jump\t// in\n    tag_229:\n      calldataload(0x24)\n        /* \"@openzeppelin/contracts/security/ReentrancyGuard.sol\":2227:2330  modifier nonReentrant() {... */\n      swap1\n      tag_230\n      tag_10\n      jump\t// in\n    tag_230:\n        /* \"@openzeppelin/contracts/access/AccessControl.sol\":2475:2479  role */\n      tag_231\n      tag_11\n      jump\t// in\n    tag_231:\n        /* \"contracts/WallyToken.sol\":5642:5666  _sniperProtectionEnabled */\n      0x0a\n        /* \"contracts/WallyToken.sol\":1241:12028  contract WallyToken is ERC20, AccessControl, ReentrancyGuard {... */\n      sload\n      swap1\n      iszero\n      iszero\n      swap1\n      dup2\n      0xff\n      dup3\n      0x08\n      shr\n      and\n      iszero\n      iszero\n        /* \"contracts/WallyToken.sol\":5642:5677  _sniperProtectionEnabled != enabled */\n      sub\n        /* \"contracts/WallyToken.sol\":5638:5738  if (_sniperProtectionEnabled != enabled) {... */\n      tag_232\n      jumpi\n        /* \"contracts/WallyToken.sol\":1241:12028  contract WallyToken is ERC20, AccessControl, ReentrancyGuard {... */\n    tag_233:\n      pop\n      dup2\n        /* \"contracts/WallyToken.sol\":5751:5761  _snipeTime */\n      0x0b\n        /* \"contracts/WallyToken.sol\":1241:12028  contract WallyToken is ERC20, AccessControl, ReentrancyGuard {... */\n      sload\n        /* \"contracts/WallyToken.sol\":5751:5776  _snipeTime != timeSeconds */\n      sub\n        /* \"contracts/WallyToken.sol\":5747:5827  if (_snipeTime != timeSeconds) {... */\n      tag_234\n      jumpi\n        /* \"contracts/WallyToken.sol\":1241:12028  contract WallyToken is ERC20, AccessControl, ReentrancyGuard {... */\n    tag_235:\n        /* \"contracts/WallyToken.sol\":5841:5882  SniperProtectionSet(enabled, timeSeconds) */\n      0x5d394a4e9bd564f1a587773e5dbd3099a9e7b2fb0ecb2dbe1808ad21e9dc943e\n        /* \"contracts/WallyToken.sol\":1241:12028  contract WallyToken is ERC20, AccessControl, ReentrancyGuard {... */\n      0x00\n        /* \"contracts/WallyToken.sol\":5841:5882  SniperProtectionSet(enabled, timeSeconds) */\n      dup1\n      log3\n        /* \"contracts/WallyToken.sol\":1241:12028  contract WallyToken is ERC20, AccessControl, ReentrancyGuard {... */\n      0x01\n        /* \"@openzeppelin/contracts/security/ReentrancyGuard.sol\":2809:2831  _status = _NOT_ENTERED */\n      0x06\n        /* \"contracts/WallyToken.sol\":1241:12028  contract WallyToken is ERC20, AccessControl, ReentrancyGuard {... */\n      sstore\n      stop\n        /* \"contracts/WallyToken.sol\":5747:5827  if (_snipeTime != timeSeconds) {... */\n    tag_234:\n        /* \"contracts/WallyToken.sol\":1241:12028  contract WallyToken is ERC20, AccessControl, ReentrancyGuard {... */\n      dup2\n        /* \"contracts/WallyToken.sol\":5751:5761  _snipeTime */\n      0x0b\n        /* \"contracts/WallyToken.sol\":1241:12028  contract WallyToken is ERC20, AccessControl, ReentrancyGuard {... */\n      sstore\n        /* \"contracts/WallyToken.sol\":5747:5827  if (_snipeTime != timeSeconds) {... */\n      jump(tag_235)\n        /* \"contracts/WallyToken.sol\":5638:5738  if (_sniperProtectionEnabled != enabled) {... */\n    tag_232:\n      not(0xff00)\n        /* \"contracts/WallyToken.sol\":1241:12028  contract WallyToken is ERC20, AccessControl, ReentrancyGuard {... */\n      and\n      0x08\n      dup3\n      swap1\n      shl\n      0xff00\n      and\n      or\n        /* \"contracts/WallyToken.sol\":5642:5666  _sniperProtectionEnabled */\n      0x0a\n        /* \"contracts/WallyToken.sol\":1241:12028  contract WallyToken is ERC20, AccessControl, ReentrancyGuard {... */\n      sstore\n        /* \"contracts/WallyToken.sol\":5638:5738  if (_sniperProtectionEnabled != enabled) {... */\n      dup3\n      jump(tag_233)\n        /* \"contracts/WallyToken.sol\":1241:12028  contract WallyToken is ERC20, AccessControl, ReentrancyGuard {... */\n    tag_63:\n      jumpi(tag_101, callvalue)\n      jumpi(tag_101, slt(add(not(0x03), calldatasize), 0x20))\n      sub(shl(0xa0, 0x01), 0x01)\n      tag_240\n      tag_2\n      jump\t// in\n    tag_240:\n      and\n      0x00\n      mstore\n      mstore(0x20, 0x00)\n      0x20\n      sload(keccak256(0x00, 0x40))\n      mload(0x40)\n      swap1\n      dup2\n      mstore\n      return\n    tag_61:\n      jumpi(tag_101, callvalue)\n      jumpi(tag_101, slt(add(not(0x03), calldatasize), 0x00))\n      0x20\n        /* \"contracts/WallyToken.sol\":7585:7601  _launchTimestamp */\n      0x0c\n        /* \"contracts/WallyToken.sol\":1241:12028  contract WallyToken is ERC20, AccessControl, ReentrancyGuard {... */\n      sload\n      mload(0x40)\n      swap1\n      dup2\n      mstore\n      return\n    tag_59:\n      jumpi(tag_101, callvalue)\n      jumpi(tag_101, slt(add(not(0x03), calldatasize), 0x00))\n      0x20\n      0xff\n        /* \"contracts/WallyToken.sol\":7273:7288  _tradingEnabled */\n      0x0a\n        /* \"contracts/WallyToken.sol\":1241:12028  contract WallyToken is ERC20, AccessControl, ReentrancyGuard {... */\n      sload\n      and\n      mload(0x40)\n      swap1\n      iszero\n      iszero\n      dup2\n      mstore\n      return\n    tag_57:\n      jumpi(tag_101, callvalue)\n      jumpi(tag_101, slt(add(not(0x03), calldatasize), 0x00))\n        /* \"contracts/WallyToken.sol\":7175:7189  _uniswapV2Pair */\n      0x08\n        /* \"contracts/WallyToken.sol\":1241:12028  contract WallyToken is ERC20, AccessControl, ReentrancyGuard {... */\n      sload\n      mload(0x40)\n      sub(shl(0xa0, 0x01), 0x01)\n      swap1\n      swap2\n      and\n      dup2\n      mstore\n      0x20\n      swap1\n      return\n    tag_55:\n      jumpi(tag_101, callvalue)\n      jumpi(tag_101, slt(add(not(0x03), calldatasize), 0x40))\n      tag_257\n      tag_4\n      jump\t// in\n    tag_257:\n      calldataload(0x24)\n        /* \"@openzeppelin/contracts/security/ReentrancyGuard.sol\":2227:2330  modifier nonReentrant() {... */\n      swap1\n      tag_258\n      tag_10\n      jump\t// in\n    tag_258:\n        /* \"@openzeppelin/contracts/access/AccessControl.sol\":2475:2479  role */\n      tag_259\n      tag_11\n      jump\t// in\n    tag_259:\n        /* \"contracts/WallyToken.sol\":6043:6059  _cooldownEnabled */\n      0x0d\n        /* \"contracts/WallyToken.sol\":1241:12028  contract WallyToken is ERC20, AccessControl, ReentrancyGuard {... */\n      sload\n      swap1\n      iszero\n      iszero\n      swap1\n      dup2\n      0xff\n      dup3\n      and\n      iszero\n      iszero\n        /* \"contracts/WallyToken.sol\":6043:6070  _cooldownEnabled != enabled */\n      sub\n        /* \"contracts/WallyToken.sol\":6039:6123  if (_cooldownEnabled != enabled) {... */\n      tag_260\n      jumpi\n        /* \"contracts/WallyToken.sol\":1241:12028  contract WallyToken is ERC20, AccessControl, ReentrancyGuard {... */\n    tag_261:\n      pop\n      dup2\n        /* \"contracts/WallyToken.sol\":6136:6149  _cooldownTime */\n      0x0e\n        /* \"contracts/WallyToken.sol\":1241:12028  contract WallyToken is ERC20, AccessControl, ReentrancyGuard {... */\n      sload\n        /* \"contracts/WallyToken.sol\":6136:6164  _cooldownTime != cooldownSec */\n      sub\n        /* \"contracts/WallyToken.sol\":6132:6218  if (_cooldownTime != cooldownSec) {... */\n      tag_262\n      jumpi\n        /* \"contracts/WallyToken.sol\":1241:12028  contract WallyToken is ERC20, AccessControl, ReentrancyGuard {... */\n    tag_263:\n        /* \"contracts/WallyToken.sol\":6232:6265  CooldownSet(enabled, cooldownSec) */\n      0x7bc6854ea2dd87a130378b485fb91a0eb3056211ee9b85cb67fabef030c07350\n        /* \"contracts/WallyToken.sol\":1241:12028  contract WallyToken is ERC20, AccessControl, ReentrancyGuard {... */\n      0x00\n        /* \"contracts/WallyToken.sol\":6232:6265  CooldownSet(enabled, cooldownSec) */\n      dup1\n      log3\n        /* \"contracts/WallyToken.sol\":1241:12028  contract WallyToken is ERC20, AccessControl, ReentrancyGuard {... */\n      0x01\n        /* \"@openzeppelin/contracts/security/ReentrancyGuard.sol\":2809:2831  _status = _NOT_ENTERED */\n      0x06\n        /* \"contracts/WallyToken.sol\":1241:12028  contract WallyToken is ERC20, AccessControl, ReentrancyGuard {... */\n      sstore\n      stop\n        /* \"contracts/WallyToken.sol\":6132:6218  if (_cooldownTime != cooldownSec) {... */\n    tag_262:\n        /* \"contracts/WallyToken.sol\":1241:12028  contract WallyToken is ERC20, AccessControl, ReentrancyGuard {... */\n      dup2\n        /* \"contracts/WallyToken.sol\":6136:6149  _cooldownTime */\n      0x0e\n        /* \"contracts/WallyToken.sol\":1241:12028  contract WallyToken is ERC20, AccessControl, ReentrancyGuard {... */\n      sstore\n        /* \"contracts/WallyToken.sol\":6132:6218  if (_cooldownTime != cooldownSec) {... */\n      jump(tag_263)\n        /* \"contracts/WallyToken.sol\":6039:6123  if (_cooldownEnabled != enabled) {... */\n    tag_260:\n      not(0xff)\n        /* \"contracts/WallyToken.sol\":1241:12028  contract WallyToken is ERC20, AccessControl, ReentrancyGuard {... */\n      and\n      0xff\n      dup3\n      and\n      or\n        /* \"contracts/WallyToken.sol\":6043:6059  _cooldownEnabled */\n      0x0d\n        /* \"contracts/WallyToken.sol\":1241:12028  contract WallyToken is ERC20, AccessControl, ReentrancyGuard {... */\n      sstore\n        /* \"contracts/WallyToken.sol\":6039:6123  if (_cooldownEnabled != enabled) {... */\n      dup3\n      jump(tag_261)\n        /* \"contracts/WallyToken.sol\":1241:12028  contract WallyToken is ERC20, AccessControl, ReentrancyGuard {... */\n    tag_53:\n      jumpi(tag_101, callvalue)\n      jumpi(tag_101, slt(add(not(0x03), calldatasize), 0x20))\n        /* \"@openzeppelin/contracts/utils/Context.sol\":735:745  msg.sender */\n      caller\n        /* \"contracts/WallyToken.sol\":1241:12028  contract WallyToken is ERC20, AccessControl, ReentrancyGuard {... */\n      0x00\n      swap1\n      dup2\n      mstore\n      mstore(0x20, 0x847f481f687befb06ed3511f1a8dcef57e83007c0147ae5047583d7056170937)\n      0x40\n      swap1\n      keccak256\n      sload\n      calldataload(0x04)\n      swap1\n      0xff\n      and\n        /* \"@openzeppelin/contracts/access/AccessControl.sol\":3519:3542  !hasRole(role, account) */\n      iszero\n        /* \"@openzeppelin/contracts/access/AccessControl.sol\":3515:3623  if (!hasRole(role, account)) {... */\n      tag_268\n      jumpi\n        /* \"@openzeppelin/contracts/utils/Context.sol\":735:745  msg.sender */\n      caller\n        /* \"@openzeppelin/contracts/token/ERC20/ERC20.sol\":8054:8075  account == address(0) */\n      iszero\n        /* \"@openzeppelin/contracts/token/ERC20/ERC20.sol\":8050:8139  if (account == address(0)) {... */\n      tag_270\n      jumpi\n        /* \"@openzeppelin/contracts/utils/Context.sol\":735:745  msg.sender */\n      caller\n        /* \"contracts/WallyToken.sol\":1241:12028  contract WallyToken is ERC20, AccessControl, ReentrancyGuard {... */\n      0x00\n      mstore\n      mstore(0x20, 0x00)\n      dup1\n      sload(keccak256(0x00, 0x40))\n        /* \"@openzeppelin/contracts/token/ERC20/ERC20.sol\":6340:6359  fromBalance < value */\n      dup2\n      dup2\n      lt\n        /* \"@openzeppelin/contracts/token/ERC20/ERC20.sol\":6336:6451  if (fromBalance < value) {... */\n      tag_272\n      jumpi\n        /* \"@openzeppelin/contracts/utils/Context.sol\":735:745  msg.sender */\n      caller\n        /* \"contracts/WallyToken.sol\":1241:12028  contract WallyToken is ERC20, AccessControl, ReentrancyGuard {... */\n      0x00\n      mstore\n      mstore(0x20, 0x00)\n      sub\n      keccak256(0x00, 0x40)\n      sstore\n      dup1\n        /* \"@openzeppelin/contracts/token/ERC20/ERC20.sol\":6810:6831  _totalSupply -= value */\n      0x02\n        /* \"contracts/WallyToken.sol\":1241:12028  contract WallyToken is ERC20, AccessControl, ReentrancyGuard {... */\n      sload\n      sub\n        /* \"@openzeppelin/contracts/token/ERC20/ERC20.sol\":6810:6831  _totalSupply -= value */\n      0x02\n        /* \"contracts/WallyToken.sol\":1241:12028  contract WallyToken is ERC20, AccessControl, ReentrancyGuard {... */\n      sstore\n      0x00\n      mload(0x40)\n      dup3\n      dup2\n      mstore\n        /* \"@openzeppelin/contracts/token/ERC20/ERC20.sol\":7083:7108  Transfer(from, to, value) */\n      0xddf252ad1be2c89b69c2b068fc378daa952ba7f163c4a11628f55a4df523b3ef\n        /* \"contracts/WallyToken.sol\":1241:12028  contract WallyToken is ERC20, AccessControl, ReentrancyGuard {... */\n      0x20\n        /* \"@openzeppelin/contracts/utils/Context.sol\":735:745  msg.sender */\n      caller\n        /* \"@openzeppelin/contracts/token/ERC20/ERC20.sol\":7083:7108  Transfer(from, to, value) */\n      swap3\n      log3\n        /* \"contracts/WallyToken.sol\":1241:12028  contract WallyToken is ERC20, AccessControl, ReentrancyGuard {... */\n      mload(0x40)\n      swap1\n      dup2\n      mstore\n        /* \"contracts/WallyToken.sol\":5052:5080  Burned(_msgSender(), amount) */\n      0x696de425f79f4a40bc6d2122ca50507f0efbeabbff86a84871b7196ab8ea8df7\n        /* \"contracts/WallyToken.sol\":1241:12028  contract WallyToken is ERC20, AccessControl, ReentrancyGuard {... */\n      0x20\n        /* \"@openzeppelin/contracts/utils/Context.sol\":735:745  msg.sender */\n      caller\n        /* \"contracts/WallyToken.sol\":5052:5080  Burned(_msgSender(), amount) */\n      swap3\n      log2\n        /* \"contracts/WallyToken.sol\":1241:12028  contract WallyToken is ERC20, AccessControl, ReentrancyGuard {... */\n      stop\n        /* \"@openzeppelin/contracts/token/ERC20/ERC20.sol\":6336:6451  if (fromBalance < value) {... */\n    tag_272:\n        /* \"@openzeppelin/contracts/token/ERC20/ERC20.sol\":6386:6436  ERC20InsufficientBalance(from, fromBalance, value) */\n      shl(0xe2, 0x391434e3)\n        /* \"contracts/WallyToken.sol\":1241:12028  contract WallyToken is ERC20, AccessControl, ReentrancyGuard {... */\n      0x00\n        /* \"@openzeppelin/contracts/token/ERC20/ERC20.sol\":6386:6436  ERC20InsufficientBalance(from, fromBalance, value) */\n      mstore\n        /* \"@openzeppelin/contracts/utils/Context.sol\":735:745  msg.sender */\n      caller\n        /* \"contracts/WallyToken.sol\":1241:12028  contract WallyToken is ERC20, AccessControl, ReentrancyGuard {... */\n      0x04\n      mstore\n      0x24\n      mstore\n      0x44\n      mstore\n      0x64\n      0x00\n        /* \"@openzeppelin/contracts/token/ERC20/ERC20.sol\":6386:6436  ERC20InsufficientBalance(from, fromBalance, value) */\n      revert\n        /* \"@openzeppelin/contracts/token/ERC20/ERC20.sol\":8050:8139  if (account == address(0)) {... */\n    tag_270:\n        /* \"@openzeppelin/contracts/token/ERC20/ERC20.sol\":8098:8128  ERC20InvalidSender(address(0)) */\n      shl(0xe1, 0x4b637e8f)\n        /* \"contracts/WallyToken.sol\":1241:12028  contract WallyToken is ERC20, AccessControl, ReentrancyGuard {... */\n      0x00\n        /* \"@openzeppelin/contracts/token/ERC20/ERC20.sol\":8098:8128  ERC20InvalidSender(address(0)) */\n      mstore\n        /* \"contracts/WallyToken.sol\":1241:12028  contract WallyToken is ERC20, AccessControl, ReentrancyGuard {... */\n      mstore(0x04, 0x00)\n      0x24\n      0x00\n        /* \"@openzeppelin/contracts/token/ERC20/ERC20.sol\":8098:8128  ERC20InvalidSender(address(0)) */\n      revert\n        /* \"@openzeppelin/contracts/access/AccessControl.sol\":3515:3623  if (!hasRole(role, account)) {... */\n    tag_268:\n        /* \"@openzeppelin/contracts/access/AccessControl.sol\":3565:3612  AccessControlUnauthorizedAccount(account, role) */\n      shl(0xe0, 0xe2517d3f)\n        /* \"contracts/WallyToken.sol\":1241:12028  contract WallyToken is ERC20, AccessControl, ReentrancyGuard {... */\n      0x00\n        /* \"@openzeppelin/contracts/access/AccessControl.sol\":3565:3612  AccessControlUnauthorizedAccount(account, role) */\n      mstore\n        /* \"@openzeppelin/contracts/utils/Context.sol\":735:745  msg.sender */\n      caller\n        /* \"contracts/WallyToken.sol\":1241:12028  contract WallyToken is ERC20, AccessControl, ReentrancyGuard {... */\n      0x04\n      mstore\n        /* \"contracts/WallyToken.sol\":1487:1511  keccak256(\"BURNER_ROLE\") */\n      0x3c11d16cbaffd01df69ce1c404f6340ee057498f5f00246190ea54220576a848\n        /* \"contracts/WallyToken.sol\":1241:12028  contract WallyToken is ERC20, AccessControl, ReentrancyGuard {... */\n      0x24\n      mstore\n      0x44\n      0x00\n        /* \"@openzeppelin/contracts/access/AccessControl.sol\":3565:3612  AccessControlUnauthorizedAccount(account, role) */\n      revert\n        /* \"contracts/WallyToken.sol\":1241:12028  contract WallyToken is ERC20, AccessControl, ReentrancyGuard {... */\n    tag_51:\n      jumpi(tag_101, callvalue)\n      jumpi(tag_101, slt(add(not(0x03), calldatasize), 0x40))\n      tag_278\n      tag_2\n      jump\t// in\n    tag_278:\n        /* \"@openzeppelin/contracts/utils/Context.sol\":735:745  msg.sender */\n      caller\n        /* \"contracts/WallyToken.sol\":1241:12028  contract WallyToken is ERC20, AccessControl, ReentrancyGuard {... */\n      0x00\n      swap1\n      dup2\n      mstore\n      mstore(0x20, 0x15a28d26fa1bf736cf7edc9922607171ccb09c3c73b808e7772a3013e068a522)\n      0x40\n      swap1\n      keccak256\n      sload\n      calldataload(0x24)\n      swap2\n      swap1\n      0xff\n      and\n        /* \"@openzeppelin/contracts/access/AccessControl.sol\":3519:3542  !hasRole(role, account) */\n      iszero\n        /* \"@openzeppelin/contracts/access/AccessControl.sol\":3515:3623  if (!hasRole(role, account)) {... */\n      tag_279\n      jumpi\n      sub(shl(0xa0, 0x01), 0x01)\n        /* \"contracts/WallyToken.sol\":1241:12028  contract WallyToken is ERC20, AccessControl, ReentrancyGuard {... */\n      and\n      swap1\n        /* \"@openzeppelin/contracts/token/ERC20/ERC20.sol\":7528:7549  account == address(0) */\n      dup2\n      iszero\n        /* \"@openzeppelin/contracts/token/ERC20/ERC20.sol\":7524:7615  if (account == address(0)) {... */\n      tag_281\n      jumpi\n        /* \"@openzeppelin/contracts/token/ERC20/ERC20.sol\":6233:6254  _totalSupply += value */\n      0x02\n        /* \"contracts/WallyToken.sol\":1241:12028  contract WallyToken is ERC20, AccessControl, ReentrancyGuard {... */\n      sload\n      dup2\n      dup2\n      add\n      dup1\n      swap2\n      gt\n      tag_283\n      jumpi\n        /* \"contracts/WallyToken.sol\":4907:4925  Minted(to, amount) */\n      0x30385c845b448a36257a6a1716e6ad2e1bc2cbe333cde1e69fe849ad6511adfe\n        /* \"contracts/WallyToken.sol\":1241:12028  contract WallyToken is ERC20, AccessControl, ReentrancyGuard {... */\n      swap2\n      0x20\n      swap2\n        /* \"@openzeppelin/contracts/token/ERC20/ERC20.sol\":6233:6254  _totalSupply += value */\n      0x02\n        /* \"contracts/WallyToken.sol\":1241:12028  contract WallyToken is ERC20, AccessControl, ReentrancyGuard {... */\n      sstore\n      dup4\n      0x00\n      mstore\n      0x00\n      dup3\n      mstore\n      keccak256(0x00, 0x40)\n      dup2\n      dup2\n      sload\n      add\n      swap1\n      sstore\n      dup4\n      0x00\n        /* \"@openzeppelin/contracts/token/ERC20/ERC20.sol\":7083:7108  Transfer(from, to, value) */\n      0xddf252ad1be2c89b69c2b068fc378daa952ba7f163c4a11628f55a4df523b3ef\n        /* \"contracts/WallyToken.sol\":1241:12028  contract WallyToken is ERC20, AccessControl, ReentrancyGuard {... */\n      dup5\n      mload(0x40)\n      dup6\n      dup2\n      mstore\n        /* \"@openzeppelin/contracts/token/ERC20/ERC20.sol\":7083:7108  Transfer(from, to, value) */\n      log3\n        /* \"contracts/WallyToken.sol\":1241:12028  contract WallyToken is ERC20, AccessControl, ReentrancyGuard {... */\n      mload(0x40)\n      swap1\n      dup2\n      mstore\n        /* \"contracts/WallyToken.sol\":4907:4925  Minted(to, amount) */\n      log2\n        /* \"contracts/WallyToken.sol\":1241:12028  contract WallyToken is ERC20, AccessControl, ReentrancyGuard {... */\n      stop\n    tag_283:\n      mstore(0x00, shl(0xe0, 0x4e487b71))\n      mstore(0x04, 0x11)\n      revert(0x00, 0x24)\n        /* \"@openzeppelin/contracts/token/ERC20/ERC20.sol\":7524:7615  if (account == address(0)) {... */\n    tag_281:\n        /* \"@openzeppelin/contracts/token/ERC20/ERC20.sol\":7572:7604  ERC20InvalidReceiver(address(0)) */\n      shl(0xe0, 0xec442f05)\n        /* \"contracts/WallyToken.sol\":1241:12028  contract WallyToken is ERC20, AccessControl, ReentrancyGuard {... */\n      0x00\n        /* \"@openzeppelin/contracts/token/ERC20/ERC20.sol\":7572:7604  ERC20InvalidReceiver(address(0)) */\n      mstore\n        /* \"contracts/WallyToken.sol\":1241:12028  contract WallyToken is ERC20, AccessControl, ReentrancyGuard {... */\n      mstore(0x04, 0x00)\n      0x24\n      0x00\n        /* \"@openzeppelin/contracts/token/ERC20/ERC20.sol\":7572:7604  ERC20InvalidReceiver(address(0)) */\n      revert\n        /* \"@openzeppelin/contracts/access/AccessControl.sol\":3515:3623  if (!hasRole(role, account)) {... */\n    tag_279:\n        /* \"@openzeppelin/contracts/access/AccessControl.sol\":3565:3612  AccessControlUnauthorizedAccount(account, role) */\n      shl(0xe0, 0xe2517d3f)\n        /* \"contracts/WallyToken.sol\":1241:12028  contract WallyToken is ERC20, AccessControl, ReentrancyGuard {... */\n      0x00\n        /* \"@openzeppelin/contracts/access/AccessControl.sol\":3565:3612  AccessControlUnauthorizedAccount(account, role) */\n      mstore\n        /* \"@openzeppelin/contracts/utils/Context.sol\":735:745  msg.sender */\n      caller\n        /* \"contracts/WallyToken.sol\":1241:12028  contract WallyToken is ERC20, AccessControl, ReentrancyGuard {... */\n      0x04\n      mstore\n        /* \"contracts/WallyToken.sol\":1417:1441  keccak256(\"MINTER_ROLE\") */\n      0x9f2df0fed2c77648de5860a4cc508cd0818c85b8b8a1ab4ceeef8d981c8956a6\n        /* \"contracts/WallyToken.sol\":1241:12028  contract WallyToken is ERC20, AccessControl, ReentrancyGuard {... */\n      0x24\n      mstore\n      0x44\n      0x00\n        /* \"@openzeppelin/contracts/access/AccessControl.sol\":3565:3612  AccessControlUnauthorizedAccount(account, role) */\n      revert\n        /* \"contracts/WallyToken.sol\":1241:12028  contract WallyToken is ERC20, AccessControl, ReentrancyGuard {... */\n    tag_47:\n      jumpi(tag_101, callvalue)\n      jumpi(tag_101, slt(add(not(0x03), calldatasize), 0x40))\n      tag_289\n      tag_3\n      jump\t// in\n    tag_289:\n        /* \"@openzeppelin/contracts/utils/Context.sol\":735:745  msg.sender */\n      caller\n      sub(shl(0xa0, 0x01), 0x01)\n        /* \"contracts/WallyToken.sol\":1241:12028  contract WallyToken is ERC20, AccessControl, ReentrancyGuard {... */\n      dup3\n      and\n        /* \"@openzeppelin/contracts/access/AccessControl.sol\":5421:5455  callerConfirmation != _msgSender() */\n      sub\n        /* \"@openzeppelin/contracts/access/AccessControl.sol\":5417:5519  if (callerConfirmation != _msgSender()) {... */\n      tag_290\n      jumpi\n        /* \"@openzeppelin/contracts/access/AccessControl.sol\":5529:5566  _revokeRole(role, callerConfirmation) */\n      tag_139\n        /* \"contracts/WallyToken.sol\":1241:12028  contract WallyToken is ERC20, AccessControl, ReentrancyGuard {... */\n      swap1\n      calldataload(0x04)\n        /* \"@openzeppelin/contracts/access/AccessControl.sol\":5529:5566  _revokeRole(role, callerConfirmation) */\n      tag_15\n      jump\t// in\n        /* \"@openzeppelin/contracts/access/AccessControl.sol\":5417:5519  if (callerConfirmation != _msgSender()) {... */\n    tag_290:\n        /* \"@openzeppelin/contracts/access/AccessControl.sol\":5478:5508  AccessControlBadConfirmation() */\n      shl(0xe1, 0x334bd919)\n        /* \"contracts/WallyToken.sol\":1241:12028  contract WallyToken is ERC20, AccessControl, ReentrancyGuard {... */\n      0x00\n        /* \"@openzeppelin/contracts/access/AccessControl.sol\":5478:5508  AccessControlBadConfirmation() */\n      mstore\n        /* \"contracts/WallyToken.sol\":1241:12028  contract WallyToken is ERC20, AccessControl, ReentrancyGuard {... */\n      0x04\n      0x00\n        /* \"@openzeppelin/contracts/access/AccessControl.sol\":5478:5508  AccessControlBadConfirmation() */\n      revert\n        /* \"contracts/WallyToken.sol\":1241:12028  contract WallyToken is ERC20, AccessControl, ReentrancyGuard {... */\n    tag_45:\n      jumpi(tag_101, callvalue)\n      jumpi(tag_101, slt(add(not(0x03), calldatasize), 0x00))\n      0x20\n      mload(0x40)\n        /* \"@openzeppelin/contracts/token/ERC20/ERC20.sol\":2780:2782  18 */\n      0x12\n        /* \"contracts/WallyToken.sol\":1241:12028  contract WallyToken is ERC20, AccessControl, ReentrancyGuard {... */\n      dup2\n      mstore\n      return\n    tag_43:\n      jumpi(tag_101, callvalue)\n      jumpi(tag_101, slt(add(not(0x03), calldatasize), 0x40))\n        /* \"@openzeppelin/contracts/access/AccessControl.sol\":4330:4355  _grantRole(role, account) */\n      tag_139\n        /* \"contracts/WallyToken.sol\":1241:12028  contract WallyToken is ERC20, AccessControl, ReentrancyGuard {... */\n      calldataload(0x04)\n      tag_302\n      tag_3\n      jump\t// in\n    tag_302:\n        /* \"@openzeppelin/contracts/access/AccessControl.sol\":4300:4318  getRoleAdmin(role) */\n      swap1\n        /* \"@openzeppelin/contracts/access/AccessControl.sol\":2475:2479  role */\n      tag_303\n        /* \"@openzeppelin/contracts/access/AccessControl.sol\":4300:4318  getRoleAdmin(role) */\n      tag_142\n      dup3\n      0x00\n        /* \"contracts/WallyToken.sol\":1241:12028  contract WallyToken is ERC20, AccessControl, ReentrancyGuard {... */\n      mstore\n        /* \"@openzeppelin/contracts/access/AccessControl.sol\":3901:3907  _roles */\n      0x05\n        /* \"contracts/WallyToken.sol\":1241:12028  contract WallyToken is ERC20, AccessControl, ReentrancyGuard {... */\n      0x20\n      mstore\n        /* \"@openzeppelin/contracts/access/AccessControl.sol\":3901:3923  _roles[role].adminRole */\n      0x01\n        /* \"contracts/WallyToken.sol\":1241:12028  contract WallyToken is ERC20, AccessControl, ReentrancyGuard {... */\n      keccak256(0x00, 0x40)\n        /* \"@openzeppelin/contracts/access/AccessControl.sol\":3901:3923  _roles[role].adminRole */\n      add\n        /* \"contracts/WallyToken.sol\":1241:12028  contract WallyToken is ERC20, AccessControl, ReentrancyGuard {... */\n      sload\n        /* \"@openzeppelin/contracts/access/AccessControl.sol\":3810:3930  function getRoleAdmin(bytes32 role) public view virtual returns (bytes32) {... */\n      swap1\n      jump\n        /* \"@openzeppelin/contracts/access/AccessControl.sol\":2475:2479  role */\n    tag_303:\n        /* \"@openzeppelin/contracts/access/AccessControl.sol\":4330:4355  _grantRole(role, account) */\n      tag_14\n      jump\t// in\n        /* \"contracts/WallyToken.sol\":1241:12028  contract WallyToken is ERC20, AccessControl, ReentrancyGuard {... */\n    tag_41:\n      jumpi(tag_101, callvalue)\n      jumpi(tag_101, slt(add(not(0x03), calldatasize), 0x00))\n      0x20\n        /* \"contracts/WallyToken.sol\":7487:7497  _snipeTime */\n      0x0b\n        /* \"contracts/WallyToken.sol\":1241:12028  contract WallyToken is ERC20, AccessControl, ReentrancyGuard {... */\n      sload\n      mload(0x40)\n      swap1\n      dup2\n      mstore\n      return\n    tag_39:\n      jumpi(tag_101, callvalue)\n      jumpi(tag_101, slt(add(not(0x03), calldatasize), 0x20))\n      0x20\n      tag_313\n      mstore(0x00, calldataload(0x04))\n        /* \"@openzeppelin/contracts/access/AccessControl.sol\":3901:3907  _roles */\n      0x05\n        /* \"contracts/WallyToken.sol\":1241:12028  contract WallyToken is ERC20, AccessControl, ReentrancyGuard {... */\n      0x20\n      mstore\n        /* \"@openzeppelin/contracts/access/AccessControl.sol\":3901:3923  _roles[role].adminRole */\n      0x01\n        /* \"contracts/WallyToken.sol\":1241:12028  contract WallyToken is ERC20, AccessControl, ReentrancyGuard {... */\n      keccak256(0x00, 0x40)\n        /* \"@openzeppelin/contracts/access/AccessControl.sol\":3901:3923  _roles[role].adminRole */\n      add\n        /* \"contracts/WallyToken.sol\":1241:12028  contract WallyToken is ERC20, AccessControl, ReentrancyGuard {... */\n      sload\n        /* \"@openzeppelin/contracts/access/AccessControl.sol\":3810:3930  function getRoleAdmin(bytes32 role) public view virtual returns (bytes32) {... */\n      swap1\n      jump\n        /* \"contracts/WallyToken.sol\":1241:12028  contract WallyToken is ERC20, AccessControl, ReentrancyGuard {... */\n    tag_313:\n      mload(0x40)\n      swap1\n      dup2\n      mstore\n      return\n    tag_37:\n      jumpi(tag_101, callvalue)\n      jumpi(tag_101, slt(add(not(0x03), calldatasize), 0x60))\n      tag_318\n      tag_2\n      jump\t// in\n    tag_318:\n      tag_319\n      tag_3\n      jump\t// in\n    tag_319:\n      sub(shl(0xa0, 0x01), 0x01)\n      dup3\n      and\n      0x00\n      dup2\n      dup2\n      mstore\n      0x01\n      0x20\n      swap1\n      dup2\n      mstore\n      0x40\n      dup1\n      dup4\n      keccak256\n        /* \"@openzeppelin/contracts/utils/Context.sol\":735:745  msg.sender */\n      caller\n        /* \"contracts/WallyToken.sol\":1241:12028  contract WallyToken is ERC20, AccessControl, ReentrancyGuard {... */\n      dup5\n      mstore\n      swap1\n      swap2\n      mstore\n      swap1\n      keccak256\n      sload\n      swap1\n      swap3\n      calldataload(0x44)\n      swap3\n      swap2\n      not(0x00)\n        /* \"@openzeppelin/contracts/token/ERC20/ERC20.sol\":10580:10616  currentAllowance < type(uint256).max */\n      dup2\n      lt\n        /* \"@openzeppelin/contracts/token/ERC20/ERC20.sol\":10576:10885  if (currentAllowance < type(uint256).max) {... */\n      tag_320\n      jumpi\n        /* \"contracts/WallyToken.sol\":1241:12028  contract WallyToken is ERC20, AccessControl, ReentrancyGuard {... */\n    tag_321:\n        /* \"@openzeppelin/contracts/token/ERC20/ERC20.sol\":4986:4991  value */\n      pop\n      tag_189\n      swap4\n      pop\n      tag_13\n      jump\t// in\n        /* \"@openzeppelin/contracts/token/ERC20/ERC20.sol\":10576:10885  if (currentAllowance < type(uint256).max) {... */\n    tag_320:\n        /* \"@openzeppelin/contracts/token/ERC20/ERC20.sol\":10636:10660  currentAllowance < value */\n      dup4\n      dup2\n      lt\n        /* \"@openzeppelin/contracts/token/ERC20/ERC20.sol\":10632:10762  if (currentAllowance < value) {... */\n      tag_323\n      jumpi\n        /* \"@openzeppelin/contracts/token/ERC20/ERC20.sol\":9813:9832  owner == address(0) */\n      dup5\n      iszero\n        /* \"@openzeppelin/contracts/token/ERC20/ERC20.sol\":9809:9898  if (owner == address(0)) {... */\n      tag_325\n      jumpi\n        /* \"@openzeppelin/contracts/utils/Context.sol\":735:745  msg.sender */\n      caller\n        /* \"@openzeppelin/contracts/token/ERC20/ERC20.sol\":9911:9932  spender == address(0) */\n      iszero\n        /* \"@openzeppelin/contracts/token/ERC20/ERC20.sol\":9907:9997  if (spender == address(0)) {... */\n      tag_327\n      jumpi\n        /* \"@openzeppelin/contracts/token/ERC20/ERC20.sol\":4986:4991  value */\n      tag_189\n        /* \"contracts/WallyToken.sol\":1241:12028  contract WallyToken is ERC20, AccessControl, ReentrancyGuard {... */\n      swap5\n      0x00\n      mstore\n      mstore(0x20, 0x01)\n      keccak256(0x00, 0x40)\n      0x01\n      dup1\n      0xa0\n      shl\n      sub\n        /* \"@openzeppelin/contracts/utils/Context.sol\":735:745  msg.sender */\n      caller\n        /* \"contracts/WallyToken.sol\":1241:12028  contract WallyToken is ERC20, AccessControl, ReentrancyGuard {... */\n      and\n      0x00\n      mstore\n      0x20\n      mstore\n      dup4\n      keccak256(0x00, 0x40)\n      swap2\n      sub\n      swap1\n      sstore\n        /* \"@openzeppelin/contracts/token/ERC20/ERC20.sol\":10576:10885  if (currentAllowance < type(uint256).max) {... */\n      dup5\n      jump(tag_321)\n        /* \"@openzeppelin/contracts/token/ERC20/ERC20.sol\":9907:9997  if (spender == address(0)) {... */\n    tag_327:\n        /* \"@openzeppelin/contracts/token/ERC20/ERC20.sol\":9955:9986  ERC20InvalidSpender(address(0)) */\n      shl(0xe1, 0x4a1406b1)\n        /* \"contracts/WallyToken.sol\":1241:12028  contract WallyToken is ERC20, AccessControl, ReentrancyGuard {... */\n      0x00\n        /* \"@openzeppelin/contracts/token/ERC20/ERC20.sol\":9955:9986  ERC20InvalidSpender(address(0)) */\n      mstore\n        /* \"contracts/WallyToken.sol\":1241:12028  contract WallyToken is ERC20, AccessControl, ReentrancyGuard {... */\n      mstore(0x04, 0x00)\n      0x24\n      0x00\n        /* \"@openzeppelin/contracts/token/ERC20/ERC20.sol\":9955:9986  ERC20InvalidSpender(address(0)) */\n      revert\n        /* \"@openzeppelin/contracts/token/ERC20/ERC20.sol\":9809:9898  if (owner == address(0)) {... */\n    tag_325:\n        /* \"@openzeppelin/contracts/token/ERC20/ERC20.sol\":9855:9887  ERC20InvalidApprover(address(0)) */\n      shl(0xe0, 0xe602df05)\n        /* \"contracts/WallyToken.sol\":1241:12028  contract WallyToken is ERC20, AccessControl, ReentrancyGuard {... */\n      0x00\n        /* \"@openzeppelin/contracts/token/ERC20/ERC20.sol\":9855:9887  ERC20InvalidApprover(address(0)) */\n      mstore\n        /* \"contracts/WallyToken.sol\":1241:12028  contract WallyToken is ERC20, AccessControl, ReentrancyGuard {... */\n      mstore(0x04, 0x00)\n      0x24\n      0x00\n        /* \"@openzeppelin/contracts/token/ERC20/ERC20.sol\":9855:9887  ERC20InvalidApprover(address(0)) */\n      revert\n        /* \"@openzeppelin/contracts/token/ERC20/ERC20.sol\":10632:10762  if (currentAllowance < value) {... */\n    tag_323:\n        /* \"@openzeppelin/contracts/token/ERC20/ERC20.sol\":10687:10747  ERC20InsufficientAllowance(spender, currentAllowance, value) */\n      dup4\n      swap1\n      shl(0xe1, 0x7dc7a0d9)\n        /* \"contracts/WallyToken.sol\":1241:12028  contract WallyToken is ERC20, AccessControl, ReentrancyGuard {... */\n      0x00\n        /* \"@openzeppelin/contracts/token/ERC20/ERC20.sol\":10687:10747  ERC20InsufficientAllowance(spender, currentAllowance, value) */\n      mstore\n        /* \"@openzeppelin/contracts/utils/Context.sol\":735:745  msg.sender */\n      caller\n        /* \"contracts/WallyToken.sol\":1241:12028  contract WallyToken is ERC20, AccessControl, ReentrancyGuard {... */\n      0x04\n      mstore\n      0x24\n      mstore\n      0x44\n      mstore\n      0x64\n      0x00\n        /* \"@openzeppelin/contracts/token/ERC20/ERC20.sol\":10687:10747  ERC20InsufficientAllowance(spender, currentAllowance, value) */\n      revert\n        /* \"contracts/WallyToken.sol\":1241:12028  contract WallyToken is ERC20, AccessControl, ReentrancyGuard {... */\n    tag_35:\n      jumpi(tag_101, callvalue)\n      jumpi(tag_101, slt(add(not(0x03), calldatasize), 0x00))\n      mload(0x40)\n        /* \"contracts/WallyToken.sol\":6965:6976  _daoAddress */\n      immutable(\"0xd4585d973f6cb05f7dca9ebe127c2460285bc70f09a7025a97fbb5c7cafe081b\")\n      sub(shl(0xa0, 0x01), 0x01)\n        /* \"contracts/WallyToken.sol\":1241:12028  contract WallyToken is ERC20, AccessControl, ReentrancyGuard {... */\n      and\n      dup2\n      mstore\n      0x20\n      swap1\n      return\n    tag_33:\n      jumpi(tag_101, callvalue)\n      jumpi(tag_101, slt(add(not(0x03), calldatasize), 0x00))\n      0x20\n        /* \"@openzeppelin/contracts/token/ERC20/ERC20.sol\":2927:2939  _totalSupply */\n      0x02\n        /* \"contracts/WallyToken.sol\":1241:12028  contract WallyToken is ERC20, AccessControl, ReentrancyGuard {... */\n      sload\n      mload(0x40)\n      swap1\n      dup2\n      mstore\n      return\n    tag_31:\n      jumpi(tag_101, callvalue)\n      jumpi(tag_101, slt(add(not(0x03), calldatasize), 0x00))\n        /* \"contracts/WallyToken.sol\":7072:7088  _uniswapV2Router */\n      0x07\n        /* \"contracts/WallyToken.sol\":1241:12028  contract WallyToken is ERC20, AccessControl, ReentrancyGuard {... */\n      sload\n      mload(0x40)\n      sub(shl(0xa0, 0x01), 0x01)\n      swap1\n      swap2\n      and\n      dup2\n      mstore\n      0x20\n      swap1\n      return\n    tag_29:\n      jumpi(tag_101, callvalue)\n      jumpi(tag_101, slt(add(not(0x03), calldatasize), 0x40))\n      tag_345\n      tag_2\n      jump\t// in\n    tag_345:\n      calldataload(0x24)\n      swap1\n      dup2\n      iszero\n      iszero\n      dup1\n      swap3\n      sub\n      tag_101\n      jumpi\n        /* \"@openzeppelin/contracts/security/ReentrancyGuard.sol\":2227:2330  modifier nonReentrant() {... */\n      tag_348\n      tag_10\n      jump\t// in\n    tag_348:\n        /* \"@openzeppelin/contracts/access/AccessControl.sol\":2475:2479  role */\n      tag_349\n      tag_11\n      jump\t// in\n    tag_349:\n      sub(shl(0xa0, 0x01), 0x01)\n        /* \"contracts/WallyToken.sol\":1241:12028  contract WallyToken is ERC20, AccessControl, ReentrancyGuard {... */\n      and\n      0x00\n      dup2\n      dup2\n      mstore\n        /* \"contracts/WallyToken.sol\":6684:6693  _userData */\n      0x09\n        /* \"contracts/WallyToken.sol\":1241:12028  contract WallyToken is ERC20, AccessControl, ReentrancyGuard {... */\n      0x20\n      mstore\n      0x40\n      swap1\n      keccak256\n      dup1\n      sload\n      0xff\n      and\n      iszero\n      iszero\n        /* \"contracts/WallyToken.sol\":6713:6745  data.blacklisted != blacklisted_ */\n      dup4\n      swap1\n      sub\n        /* \"contracts/WallyToken.sol\":6709:6860  if (data.blacklisted != blacklisted_) {... */\n      tag_350\n      jumpi\n        /* \"@openzeppelin/contracts/security/ReentrancyGuard.sol\":1716:1717  1 */\n      0x01\n        /* \"@openzeppelin/contracts/security/ReentrancyGuard.sol\":2809:2831  _status = _NOT_ENTERED */\n      0x06\n        /* \"contracts/WallyToken.sol\":1241:12028  contract WallyToken is ERC20, AccessControl, ReentrancyGuard {... */\n      sstore\n      stop\n        /* \"contracts/WallyToken.sol\":6709:6860  if (data.blacklisted != blacklisted_) {... */\n    tag_350:\n        /* \"contracts/WallyToken.sol\":1241:12028  contract WallyToken is ERC20, AccessControl, ReentrancyGuard {... */\n      not(0xff)\n      dup2\n      sload\n      and\n      0xff\n      dup5\n      and\n      or\n      swap1\n      sstore\n        /* \"contracts/WallyToken.sol\":6811:6849  UserBlacklistedSet(user, blacklisted_) */\n      0xa534e7c418f24c958af1e861a7af8c6ece8f5204eb8c33685ae7e16a1c2ada42\n        /* \"contracts/WallyToken.sol\":1241:12028  contract WallyToken is ERC20, AccessControl, ReentrancyGuard {... */\n      0x00\n        /* \"contracts/WallyToken.sol\":6811:6849  UserBlacklistedSet(user, blacklisted_) */\n      dup1\n      log3\n        /* \"contracts/WallyToken.sol\":6709:6860  if (data.blacklisted != blacklisted_) {... */\n      dup1\n      dup1\n      dup1\n      jump(tag_128)\n        /* \"contracts/WallyToken.sol\":1241:12028  contract WallyToken is ERC20, AccessControl, ReentrancyGuard {... */\n    tag_27:\n      jumpi(tag_101, slt(add(not(0x03), calldatasize), 0x40))\n      calldataload(0x04)\n      sub(shl(0xa0, 0x01), 0x01)\n      dup2\n      and\n      swap1\n      dup2\n      swap1\n      sub\n      tag_101\n      jumpi\n      0x00\n      dup1\n      dup1\n      dup1\n      swap4\n      calldataload(0x24)\n        /* \"@openzeppelin/contracts/security/ReentrancyGuard.sol\":2227:2330  modifier nonReentrant() {... */\n      swap1\n      tag_356\n      tag_10\n      jump\t// in\n    tag_356:\n        /* \"@openzeppelin/contracts/access/AccessControl.sol\":2475:2479  role */\n      tag_357\n      tag_11\n      jump\t// in\n    tag_357:\n        /* \"contracts/WallyToken.sol\":11744:11782  require(to != address(0), \"Zero 'to'\") */\n      tag_358\n        /* \"contracts/WallyToken.sol\":11752:11768  to != address(0) */\n      dup2\n      iszero\n      iszero\n        /* \"contracts/WallyToken.sol\":11744:11782  require(to != address(0), \"Zero 'to'\") */\n      tag_8\n      jump\t// in\n    tag_358:\n        /* \"contracts/WallyToken.sol\":1241:12028  contract WallyToken is ERC20, AccessControl, ReentrancyGuard {... */\n      dup1\n      dup4\n        /* \"contracts/WallyToken.sol\":11797:11834  TokensRescued(address(0), amount, to) */\n      0xfb475a842bad10d3800b61bd1a92e716051afba979b124b583bd99a2d1d7bfd5\n        /* \"contracts/WallyToken.sol\":1241:12028  contract WallyToken is ERC20, AccessControl, ReentrancyGuard {... */\n      0x20\n      mload(0x40)\n      dup7\n      dup2\n      mstore\n        /* \"contracts/WallyToken.sol\":11797:11834  TokensRescued(address(0), amount, to) */\n      log3\n        /* \"contracts/WallyToken.sol\":11864:11890  to.call{value: amount}(\"\") */\n      gas\n      call\n        /* \"contracts/WallyToken.sol\":1241:12028  contract WallyToken is ERC20, AccessControl, ReentrancyGuard {... */\n      jumpi(tag_359, iszero(returndatasize))\n      returndatasize\n      0xffffffffffffffff\n      dup2\n      gt\n      tag_361\n      jumpi\n      mload(0x40)\n      swap1\n      tag_363\n      0x1f\n      dup3\n      add\n      not(0x1f)\n      and\n      0x20\n      add\n      dup4\n      tag_7\n      jump\t// in\n    tag_363:\n      dup2\n      mstore\n      0x00\n      0x20\n      returndatasize\n      swap3\n      add\n      returndatacopy\n    tag_364:\n      iszero\n      tag_365\n      jumpi\n      0x01\n        /* \"@openzeppelin/contracts/security/ReentrancyGuard.sol\":2809:2831  _status = _NOT_ENTERED */\n      0x06\n        /* \"contracts/WallyToken.sol\":1241:12028  contract WallyToken is ERC20, AccessControl, ReentrancyGuard {... */\n      sstore\n      stop\n    tag_365:\n      mload(0x40)\n      shl(0xe5, 0x461bcd)\n      dup2\n      mstore\n      0x20\n      0x04\n      dup3\n      add\n      mstore\n      0x08\n      0x24\n      dup3\n      add\n      mstore\n      shl(0xc2, 0x1155120819985a5b)\n      0x44\n      dup3\n      add\n      mstore\n      0x64\n      swap1\n      revert\n    tag_361:\n      mstore(0x00, shl(0xe0, 0x4e487b71))\n      mstore(0x04, 0x41)\n      revert(0x00, 0x24)\n    tag_359:\n      jump(tag_364)\n    tag_25:\n      jumpi(tag_101, callvalue)\n      jumpi(tag_101, slt(add(not(0x03), calldatasize), 0x40))\n      tag_371\n      tag_2\n      jump\t// in\n    tag_371:\n      calldataload(0x24)\n        /* \"contracts/WallyToken.sol\":4092:4102  msg.sender */\n      caller\n        /* \"contracts/WallyToken.sol\":1241:12028  contract WallyToken is ERC20, AccessControl, ReentrancyGuard {... */\n      0x00\n      mstore\n      mstore(0x20, 0x01)\n      keccak256(0x00, 0x40)\n      0x01\n      dup1\n      0xa0\n      shl\n      sub\n      dup4\n      and\n      0x00\n      mstore\n      0x20\n      mstore\n      sload(keccak256(0x00, 0x40))\n        /* \"contracts/WallyToken.sol\":4195:4207  current != 0 */\n      iszero\n      iszero\n        /* \"contracts/WallyToken.sol\":4195:4222  current != 0 && amount != 0 */\n      dup1\n      tag_372\n      jumpi\n        /* \"contracts/WallyToken.sol\":1241:12028  contract WallyToken is ERC20, AccessControl, ReentrancyGuard {... */\n    tag_373:\n        /* \"contracts/WallyToken.sol\":4191:4272  if (current != 0 && amount != 0) {... */\n      tag_374\n      jumpi\n        /* \"@openzeppelin/contracts/token/ERC20/ERC20.sol\":8842:8846  true */\n      tag_189\n        /* \"contracts/WallyToken.sol\":4092:4102  msg.sender */\n      swap2\n      caller\n        /* \"@openzeppelin/contracts/token/ERC20/ERC20.sol\":8842:8846  true */\n      tag_16\n      jump\t// in\n        /* \"contracts/WallyToken.sol\":4191:4272  if (current != 0 && amount != 0) {... */\n    tag_374:\n        /* \"contracts/WallyToken.sol\":4245:4261  ApproveNonZero() */\n      shl(0xe0, 0x2279cc21)\n        /* \"contracts/WallyToken.sol\":1241:12028  contract WallyToken is ERC20, AccessControl, ReentrancyGuard {... */\n      0x00\n        /* \"contracts/WallyToken.sol\":4245:4261  ApproveNonZero() */\n      mstore\n        /* \"contracts/WallyToken.sol\":1241:12028  contract WallyToken is ERC20, AccessControl, ReentrancyGuard {... */\n      0x04\n      0x00\n        /* \"contracts/WallyToken.sol\":4245:4261  ApproveNonZero() */\n      revert\n        /* \"contracts/WallyToken.sol\":4195:4222  current != 0 && amount != 0 */\n    tag_372:\n        /* \"contracts/WallyToken.sol\":4211:4222  amount != 0 */\n      pop\n      dup1\n      iszero\n      iszero\n        /* \"contracts/WallyToken.sol\":4195:4222  current != 0 && amount != 0 */\n      jump(tag_373)\n        /* \"contracts/WallyToken.sol\":1241:12028  contract WallyToken is ERC20, AccessControl, ReentrancyGuard {... */\n    tag_23:\n      jumpi(tag_101, callvalue)\n      jumpi(tag_101, slt(add(not(0x03), calldatasize), 0x00))\n      mload(0x40)\n      0x00\n        /* \"@openzeppelin/contracts/token/ERC20/ERC20.sol\":1856:1861  _name */\n      0x03\n        /* \"contracts/WallyToken.sol\":1241:12028  contract WallyToken is ERC20, AccessControl, ReentrancyGuard {... */\n      sload\n      dup1\n      0x01\n      shr\n      swap1\n      0x01\n      dup2\n      and\n      dup1\n      iszero\n      tag_381\n      jumpi\n    tag_382:\n      0x20\n      dup4\n      lt\n      dup2\n      eq\n      tag_205\n      jumpi\n      dup3\n      dup6\n      mstore\n      swap1\n      dup2\n      iszero\n      tag_207\n      jumpi\n      pop\n      0x01\n      eq\n      tag_387\n      jumpi\n      tag_114\n      dup4\n      tag_212\n      dup2\n      dup6\n      sub\n      dup3\n      tag_7\n      jump\t// in\n    tag_387:\n      swap2\n      swap1\n      pop\n        /* \"@openzeppelin/contracts/token/ERC20/ERC20.sol\":1856:1861  _name */\n      0x03\n        /* \"contracts/WallyToken.sol\":1241:12028  contract WallyToken is ERC20, AccessControl, ReentrancyGuard {... */\n      0x00\n      mstore\n      0xc2575a0e9e593c00f959f8c92f12db2869c3395a3b0502d05e2516446f71f85b\n      swap2\n      0x00\n      swap1\n    tag_391:\n      dup1\n      dup3\n      lt\n      tag_392\n      jumpi\n      pop\n      swap1\n      swap2\n      pop\n      dup2\n      add\n      0x20\n      add\n      tag_212\n      jump(tag_210)\n    tag_392:\n      swap2\n      swap3\n      0x01\n      dup2\n      0x20\n      swap3\n      sload\n      dup4\n      dup6\n      dup9\n      add\n      add\n      mstore\n      add\n      swap2\n      add\n      swap1\n      swap3\n      swap2\n      jump(tag_391)\n    tag_381:\n      swap2\n      0x7f\n      and\n      swap2\n      jump(tag_382)\n    tag_21:\n      jumpi(tag_101, callvalue)\n      jumpi(tag_101, slt(add(not(0x03), calldatasize), 0x20))\n      calldataload(0x04)\n      swap1\n      shl(0xe0, 0xffffffff)\n      dup3\n      and\n      dup1\n      swap3\n      sub\n      tag_101\n      jumpi\n      0x20\n      swap2\n      shl(0xe0, 0x7965db0b)\n        /* \"@openzeppelin/contracts/access/AccessControl.sol\":2673:2720  interfaceId == type(IAccessControl).interfaceId */\n      dup2\n      eq\n      swap1\n        /* \"@openzeppelin/contracts/access/AccessControl.sol\":2673:2760  interfaceId == type(IAccessControl).interfaceId || super.supportsInterface(interfaceId) */\n      dup2\n      iszero\n      tag_400\n      jumpi\n        /* \"contracts/WallyToken.sol\":1241:12028  contract WallyToken is ERC20, AccessControl, ReentrancyGuard {... */\n    tag_401:\n      pop\n      iszero\n      iszero\n      dup2\n      mstore\n      return\n        /* \"@openzeppelin/contracts/access/AccessControl.sol\":2673:2760  interfaceId == type(IAccessControl).interfaceId || super.supportsInterface(interfaceId) */\n    tag_400:\n      shl(0xe0, 0x01ffc9a7)\n        /* \"@openzeppelin/contracts/utils/introspection/ERC165.sol\":862:902  interfaceId == type(IERC165).interfaceId */\n      eq\n      swap1\n      pop\n        /* \"@openzeppelin/contracts/access/AccessControl.sol\":2673:2760  interfaceId == type(IAccessControl).interfaceId || super.supportsInterface(interfaceId) */\n      dup4\n      jump(tag_401)\n        /* \"contracts/WallyToken.sol\":1241:12028  contract WallyToken is ERC20, AccessControl, ReentrancyGuard {... */\n    tag_1:\n      0x20\n      0x40\n      swap3\n      dup2\n      dup4\n      mstore\n      dup1\n      mload\n      swap2\n      dup3\n      swap2\n      dup3\n      dup3\n      dup7\n      add\n      mstore\n      add\n      dup5\n      dup5\n      add\n      mcopy\n      0x00\n      dup3\n      dup3\n      add\n      dup5\n      add\n      mstore\n      0x1f\n      add\n      not(0x1f)\n      and\n      add\n      add\n      swap1\n      jump\t// out\n    tag_2:\n      calldataload(0x04)\n      swap1\n      sub(shl(0xa0, 0x01), 0x01)\n      dup3\n      and\n      dup3\n      sub\n      tag_101\n      jumpi\n      jump\t// out\n    tag_3:\n      calldataload(0x24)\n      swap1\n      sub(shl(0xa0, 0x01), 0x01)\n      dup3\n      and\n      dup3\n      sub\n      tag_101\n      jumpi\n      jump\t// out\n    tag_4:\n      calldataload(0x04)\n      swap1\n      dup2\n      iszero\n      iszero\n      dup3\n      sub\n      tag_101\n      jumpi\n      jump\t// out\n    tag_5:\n      jumpi(tag_101, callvalue)\n      jumpi(tag_101, slt(add(not(0x03), calldatasize), 0x40))\n      tag_412\n      tag_2\n      jump\t// in\n    tag_412:\n      pop\n      mload(0x40)\n      shl(0xe5, 0x461bcd)\n        /* \"contracts/WallyToken.sol\":4520:4561  revert(\"Use approve() to set to 0 first\") */\n      dup2\n      mstore\n        /* \"contracts/WallyToken.sol\":1241:12028  contract WallyToken is ERC20, AccessControl, ReentrancyGuard {... */\n      0x20\n      0x04\n        /* \"contracts/WallyToken.sol\":4520:4561  revert(\"Use approve() to set to 0 first\") */\n      dup3\n      add\n        /* \"contracts/WallyToken.sol\":1241:12028  contract WallyToken is ERC20, AccessControl, ReentrancyGuard {... */\n      mstore\n      0x1f\n      0x24\n      dup3\n      add\n      mstore\n      0x55736520617070726f7665282920746f2073657420746f203020666972737400\n      0x44\n      dup3\n      add\n      mstore\n        /* \"contracts/WallyToken.sol\":4520:4561  revert(\"Use approve() to set to 0 first\") */\n      0x64\n      swap1\n      revert\n        /* \"contracts/WallyToken.sol\":1241:12028  contract WallyToken is ERC20, AccessControl, ReentrancyGuard {... */\n    tag_7:\n      swap1\n      0x1f\n      dup1\n      not\n      swap2\n      add\n      and\n      dup2\n      add\n      swap1\n      dup2\n      lt\n      0xffffffffffffffff\n      dup3\n      gt\n      or\n      tag_361\n      jumpi\n      0x40\n      mstore\n      jump\t// out\n    tag_8:\n      iszero\n      tag_415\n      jumpi\n      jump\t// out\n    tag_415:\n      mload(0x40)\n      shl(0xe5, 0x461bcd)\n      dup2\n      mstore\n      0x20\n      0x04\n      dup3\n      add\n      mstore\n      0x09\n      0x24\n      dup3\n      add\n      mstore\n      shl(0xb8, 0x5a65726f2027746f27)\n      0x44\n      dup3\n      add\n      mstore\n      0x64\n      swap1\n      revert\n        /* \"@openzeppelin/contracts/security/ReentrancyGuard.sol\":2336:2623  function _nonReentrantBefore() private {... */\n    tag_10:\n        /* \"@openzeppelin/contracts/security/ReentrancyGuard.sol\":1759:1760  2 */\n      0x02\n        /* \"@openzeppelin/contracts/security/ReentrancyGuard.sol\":2468:2475  _status */\n      0x06\n        /* \"contracts/WallyToken.sol\":1241:12028  contract WallyToken is ERC20, AccessControl, ReentrancyGuard {... */\n      sload\n        /* \"@openzeppelin/contracts/security/ReentrancyGuard.sol\":2468:2487  _status != _ENTERED */\n      eq\n        /* \"@openzeppelin/contracts/security/ReentrancyGuard.sol\":1759:1760  2 */\n      tag_417\n      jumpi\n      0x02\n        /* \"@openzeppelin/contracts/security/ReentrancyGuard.sol\":2468:2475  _status */\n      0x06\n        /* \"contracts/WallyToken.sol\":1241:12028  contract WallyToken is ERC20, AccessControl, ReentrancyGuard {... */\n      sstore\n        /* \"@openzeppelin/contracts/security/ReentrancyGuard.sol\":2336:2623  function _nonReentrantBefore() private {... */\n      jump\t// out\n        /* \"@openzeppelin/contracts/security/ReentrancyGuard.sol\":1759:1760  2 */\n    tag_417:\n        /* \"contracts/WallyToken.sol\":1241:12028  contract WallyToken is ERC20, AccessControl, ReentrancyGuard {... */\n      mload(0x40)\n      shl(0xe5, 0x461bcd)\n        /* \"@openzeppelin/contracts/security/ReentrancyGuard.sol\":1759:1760  2 */\n      dup2\n      mstore\n      0x20\n      0x04\n      dup3\n      add\n      mstore\n      0x1f\n      0x24\n      dup3\n      add\n        /* \"contracts/WallyToken.sol\":1241:12028  contract WallyToken is ERC20, AccessControl, ReentrancyGuard {... */\n      mstore\n        /* \"@openzeppelin/contracts/security/ReentrancyGuard.sol\":1759:1760  2 */\n      0x5265656e7472616e637947756172643a207265656e7472616e742063616c6c00\n        /* \"contracts/WallyToken.sol\":1241:12028  contract WallyToken is ERC20, AccessControl, ReentrancyGuard {... */\n      0x44\n      dup3\n      add\n        /* \"@openzeppelin/contracts/security/ReentrancyGuard.sol\":1759:1760  2 */\n      mstore\n      0x64\n      swap1\n      revert\n        /* \"@openzeppelin/contracts/access/AccessControl.sol\":3199:3302  function _checkRole(bytes32 role) internal view virtual {... */\n    tag_11:\n        /* \"@openzeppelin/contracts/utils/Context.sol\":735:745  msg.sender */\n      caller\n      0x00\n        /* \"contracts/WallyToken.sol\":1241:12028  contract WallyToken is ERC20, AccessControl, ReentrancyGuard {... */\n      swap1\n      dup2\n      mstore\n      mstore(0x20, 0xd8ef4509105c3edb0b04658b4528edc5ddd30ea5a81e623a2623c88db1eb54b6)\n      0x40\n      swap1\n      keccak256\n      sload\n      0xff\n      and\n        /* \"@openzeppelin/contracts/access/AccessControl.sol\":3519:3542  !hasRole(role, account) */\n      iszero\n        /* \"@openzeppelin/contracts/access/AccessControl.sol\":3515:3623  if (!hasRole(role, account)) {... */\n      tag_419\n      jumpi\n        /* \"@openzeppelin/contracts/access/AccessControl.sol\":3199:3302  function _checkRole(bytes32 role) internal view virtual {... */\n      jump\t// out\n        /* \"@openzeppelin/contracts/access/AccessControl.sol\":3515:3623  if (!hasRole(role, account)) {... */\n    tag_419:\n        /* \"@openzeppelin/contracts/access/AccessControl.sol\":3565:3612  AccessControlUnauthorizedAccount(account, role) */\n      mstore(0x00, shl(0xe0, 0xe2517d3f))\n        /* \"@openzeppelin/contracts/utils/Context.sol\":735:745  msg.sender */\n      caller\n        /* \"@openzeppelin/contracts/access/AccessControl.sol\":3565:3612  AccessControlUnauthorizedAccount(account, role) */\n      0x04\n        /* \"contracts/WallyToken.sol\":1241:12028  contract WallyToken is ERC20, AccessControl, ReentrancyGuard {... */\n      mstore\n        /* \"contracts/WallyToken.sol\":1348:1371  keccak256(\"ADMIN_ROLE\") */\n      0xa49807205ce4d355092ef5a8a18f56e8913cf4a201fbe287825b095693c21775\n        /* \"contracts/WallyToken.sol\":1241:12028  contract WallyToken is ERC20, AccessControl, ReentrancyGuard {... */\n      0x24\n      mstore\n      0x44\n      0x00\n        /* \"@openzeppelin/contracts/access/AccessControl.sol\":3565:3612  AccessControlUnauthorizedAccount(account, role) */\n      revert\n        /* \"@openzeppelin/contracts/access/AccessControl.sol\":3199:3302  function _checkRole(bytes32 role) internal view virtual {... */\n    tag_12:\n      0x00\n        /* \"contracts/WallyToken.sol\":1241:12028  contract WallyToken is ERC20, AccessControl, ReentrancyGuard {... */\n      dup2\n      dup2\n      mstore\n        /* \"@openzeppelin/contracts/access/AccessControl.sol\":2954:2960  _roles */\n      0x05\n        /* \"contracts/WallyToken.sol\":1241:12028  contract WallyToken is ERC20, AccessControl, ReentrancyGuard {... */\n      0x20\n      swap1\n      dup2\n      mstore\n      0x40\n      dup1\n      dup4\n      keccak256\n        /* \"@openzeppelin/contracts/utils/Context.sol\":735:745  msg.sender */\n      caller\n        /* \"contracts/WallyToken.sol\":1241:12028  contract WallyToken is ERC20, AccessControl, ReentrancyGuard {... */\n      dup5\n      mstore\n      swap1\n      swap2\n      mstore\n      swap1\n      keccak256\n      sload\n      0xff\n      and\n        /* \"@openzeppelin/contracts/access/AccessControl.sol\":3519:3542  !hasRole(role, account) */\n      iszero\n        /* \"@openzeppelin/contracts/access/AccessControl.sol\":3515:3623  if (!hasRole(role, account)) {... */\n      tag_421\n      jumpi\n        /* \"@openzeppelin/contracts/access/AccessControl.sol\":3199:3302  function _checkRole(bytes32 role) internal view virtual {... */\n      pop\n      jump\t// out\n        /* \"@openzeppelin/contracts/access/AccessControl.sol\":3515:3623  if (!hasRole(role, account)) {... */\n    tag_421:\n        /* \"@openzeppelin/contracts/access/AccessControl.sol\":3565:3612  AccessControlUnauthorizedAccount(account, role) */\n      mstore(0x00, shl(0xe0, 0xe2517d3f))\n        /* \"@openzeppelin/contracts/utils/Context.sol\":735:745  msg.sender */\n      caller\n        /* \"@openzeppelin/contracts/access/AccessControl.sol\":3565:3612  AccessControlUnauthorizedAccount(account, role) */\n      0x04\n        /* \"contracts/WallyToken.sol\":1241:12028  contract WallyToken is ERC20, AccessControl, ReentrancyGuard {... */\n      mstore\n      0x24\n      mstore\n      0x44\n      0x00\n        /* \"@openzeppelin/contracts/access/AccessControl.sol\":3565:3612  AccessControlUnauthorizedAccount(account, role) */\n      revert\n        /* \"@openzeppelin/contracts/token/ERC20/ERC20.sol\":5393:5693  function _transfer(address from, address to, uint256 value) internal {... */\n    tag_13:\n      sub(shl(0xa0, 0x01), 0x01)\n        /* \"contracts/WallyToken.sol\":1241:12028  contract WallyToken is ERC20, AccessControl, ReentrancyGuard {... */\n      and\n      swap1\n        /* \"@openzeppelin/contracts/token/ERC20/ERC20.sol\":5476:5494  from == address(0) */\n      dup2\n      iszero\n        /* \"@openzeppelin/contracts/token/ERC20/ERC20.sol\":5472:5558  if (from == address(0)) {... */\n      tag_270\n      jumpi\n      sub(shl(0xa0, 0x01), 0x01)\n        /* \"contracts/WallyToken.sol\":1241:12028  contract WallyToken is ERC20, AccessControl, ReentrancyGuard {... */\n      and\n      swap2\n        /* \"@openzeppelin/contracts/token/ERC20/ERC20.sol\":5571:5587  to == address(0) */\n      dup3\n      iszero\n        /* \"@openzeppelin/contracts/token/ERC20/ERC20.sol\":5567:5653  if (to == address(0)) {... */\n      tag_281\n      jumpi\n        /* \"contracts/WallyToken.sol\":1241:12028  contract WallyToken is ERC20, AccessControl, ReentrancyGuard {... */\n      dup2\n        /* \"@openzeppelin/contracts/token/ERC20/ERC20.sol\":5492:5493  0 */\n      0x00\n        /* \"contracts/WallyToken.sol\":1241:12028  contract WallyToken is ERC20, AccessControl, ReentrancyGuard {... */\n      mstore\n        /* \"@openzeppelin/contracts/token/ERC20/ERC20.sol\":5492:5493  0 */\n      0x00\n        /* \"contracts/WallyToken.sol\":1241:12028  contract WallyToken is ERC20, AccessControl, ReentrancyGuard {... */\n      0x20\n      mstore\n      0x40\n        /* \"@openzeppelin/contracts/token/ERC20/ERC20.sol\":5492:5493  0 */\n      0x00\n        /* \"contracts/WallyToken.sol\":1241:12028  contract WallyToken is ERC20, AccessControl, ReentrancyGuard {... */\n      keccak256\n      sload\n        /* \"@openzeppelin/contracts/token/ERC20/ERC20.sol\":6340:6359  fromBalance < value */\n      dup2\n      dup2\n      lt\n        /* \"@openzeppelin/contracts/token/ERC20/ERC20.sol\":6336:6451  if (fromBalance < value) {... */\n      tag_427\n      jumpi\n        /* \"contracts/WallyToken.sol\":1241:12028  contract WallyToken is ERC20, AccessControl, ReentrancyGuard {... */\n      dup2\n        /* \"@openzeppelin/contracts/token/ERC20/ERC20.sol\":7083:7108  Transfer(from, to, value) */\n      0xddf252ad1be2c89b69c2b068fc378daa952ba7f163c4a11628f55a4df523b3ef\n        /* \"contracts/WallyToken.sol\":1241:12028  contract WallyToken is ERC20, AccessControl, ReentrancyGuard {... */\n      swap3\n      0x20\n      swap3\n      dup6\n        /* \"@openzeppelin/contracts/token/ERC20/ERC20.sol\":5492:5493  0 */\n      0x00\n        /* \"contracts/WallyToken.sol\":1241:12028  contract WallyToken is ERC20, AccessControl, ReentrancyGuard {... */\n      mstore\n        /* \"@openzeppelin/contracts/token/ERC20/ERC20.sol\":5492:5493  0 */\n      0x00\n        /* \"contracts/WallyToken.sol\":1241:12028  contract WallyToken is ERC20, AccessControl, ReentrancyGuard {... */\n      dup5\n      mstore\n      sub\n      0x40\n        /* \"@openzeppelin/contracts/token/ERC20/ERC20.sol\":5492:5493  0 */\n      0x00\n        /* \"contracts/WallyToken.sol\":1241:12028  contract WallyToken is ERC20, AccessControl, ReentrancyGuard {... */\n      keccak256\n      sstore\n      dup5\n        /* \"@openzeppelin/contracts/token/ERC20/ERC20.sol\":5492:5493  0 */\n      0x00\n        /* \"contracts/WallyToken.sol\":1241:12028  contract WallyToken is ERC20, AccessControl, ReentrancyGuard {... */\n      mstore\n        /* \"@openzeppelin/contracts/token/ERC20/ERC20.sol\":5492:5493  0 */\n      0x00\n        /* \"contracts/WallyToken.sol\":1241:12028  contract WallyToken is ERC20, AccessControl, ReentrancyGuard {... */\n      dup3\n      mstore\n      0x40\n        /* \"@openzeppelin/contracts/token/ERC20/ERC20.sol\":5492:5493  0 */\n      0x00\n        /* \"contracts/WallyToken.sol\":1241:12028  contract WallyToken is ERC20, AccessControl, ReentrancyGuard {... */\n      keccak256\n      dup2\n      dup2\n      sload\n      add\n      swap1\n      sstore\n      mload(0x40)\n      swap1\n      dup2\n      mstore\n        /* \"@openzeppelin/contracts/token/ERC20/ERC20.sol\":7083:7108  Transfer(from, to, value) */\n      log3\n        /* \"@openzeppelin/contracts/token/ERC20/ERC20.sol\":5393:5693  function _transfer(address from, address to, uint256 value) internal {... */\n      jump\t// out\n        /* \"@openzeppelin/contracts/token/ERC20/ERC20.sol\":6336:6451  if (fromBalance < value) {... */\n    tag_427:\n        /* \"@openzeppelin/contracts/token/ERC20/ERC20.sol\":6386:6436  ERC20InsufficientBalance(from, fromBalance, value) */\n      dup3\n      shl(0xe2, 0x391434e3)\n        /* \"@openzeppelin/contracts/token/ERC20/ERC20.sol\":5492:5493  0 */\n      0x00\n        /* \"@openzeppelin/contracts/token/ERC20/ERC20.sol\":6386:6436  ERC20InsufficientBalance(from, fromBalance, value) */\n      mstore\n      0x04\n        /* \"contracts/WallyToken.sol\":1241:12028  contract WallyToken is ERC20, AccessControl, ReentrancyGuard {... */\n      mstore\n      0x24\n      mstore\n      0x44\n      mstore\n      0x64\n        /* \"@openzeppelin/contracts/token/ERC20/ERC20.sol\":5492:5493  0 */\n      0x00\n        /* \"@openzeppelin/contracts/token/ERC20/ERC20.sol\":6386:6436  ERC20InsufficientBalance(from, fromBalance, value) */\n      revert\n        /* \"@openzeppelin/contracts/access/AccessControl.sol\":6179:6495  function _grantRole(bytes32 role, address account) internal virtual returns (bool) {... */\n    tag_14:\n        /* \"contracts/WallyToken.sol\":1241:12028  contract WallyToken is ERC20, AccessControl, ReentrancyGuard {... */\n      0x00\n      dup2\n      dup2\n      mstore\n        /* \"@openzeppelin/contracts/access/AccessControl.sol\":2954:2960  _roles */\n      0x05\n        /* \"contracts/WallyToken.sol\":1241:12028  contract WallyToken is ERC20, AccessControl, ReentrancyGuard {... */\n      0x20\n      swap1\n      dup2\n      mstore\n      0x40\n      dup1\n      dup4\n      keccak256\n      sub(shl(0xa0, 0x01), 0x01)\n      dup7\n      and\n      dup5\n      mstore\n      swap1\n      swap2\n      mstore\n      swap1\n      keccak256\n      sload\n      0xff\n      and\n      tag_429\n      jumpi\n      0x00\n      dup2\n      dup2\n      mstore\n        /* \"@openzeppelin/contracts/access/AccessControl.sol\":2954:2960  _roles */\n      0x05\n        /* \"contracts/WallyToken.sol\":1241:12028  contract WallyToken is ERC20, AccessControl, ReentrancyGuard {... */\n      0x20\n      swap1\n      dup2\n      mstore\n      0x40\n      dup1\n      dup4\n      keccak256\n      sub(shl(0xa0, 0x01), 0x01)\n      swap6\n      swap1\n      swap6\n      and\n      dup1\n      dup5\n      mstore\n      swap5\n      swap1\n      swap2\n      mstore\n      dup2\n      keccak256\n      dup1\n      sload\n      not(0xff)\n      and\n      0x01\n      or\n      swap1\n      sstore\n        /* \"@openzeppelin/contracts/utils/Context.sol\":735:745  msg.sender */\n      caller\n      swap3\n        /* \"contracts/WallyToken.sol\":1241:12028  contract WallyToken is ERC20, AccessControl, ReentrancyGuard {... */\n      swap2\n      swap1\n        /* \"@openzeppelin/contracts/access/AccessControl.sol\":6370:6410  RoleGranted(role, account, _msgSender()) */\n      0x2f8788117e7eff1d82e926ec794901d17c78024a50270940304540a733656f0d\n      swap1\n        /* \"contracts/WallyToken.sol\":1241:12028  contract WallyToken is ERC20, AccessControl, ReentrancyGuard {... */\n      dup1\n        /* \"@openzeppelin/contracts/access/AccessControl.sol\":6370:6410  RoleGranted(role, account, _msgSender()) */\n      log4\n        /* \"@openzeppelin/contracts/access/AccessControl.sol\":6347:6351  true */\n      0x01\n        /* \"@openzeppelin/contracts/access/AccessControl.sol\":6424:6435  return true */\n      swap1\n      jump\t// out\n        /* \"@openzeppelin/contracts/access/AccessControl.sol\":6272:6489  if (!hasRole(role, account)) {... */\n    tag_429:\n        /* \"@openzeppelin/contracts/access/AccessControl.sol\":6466:6478  return false */\n      pop\n      pop\n        /* \"contracts/WallyToken.sol\":1241:12028  contract WallyToken is ERC20, AccessControl, ReentrancyGuard {... */\n      0x00\n        /* \"@openzeppelin/contracts/access/AccessControl.sol\":6466:6478  return false */\n      swap1\n      jump\t// out\n        /* \"@openzeppelin/contracts/access/AccessControl.sol\":6730:7047  function _revokeRole(bytes32 role, address account) internal virtual returns (bool) {... */\n    tag_15:\n        /* \"contracts/WallyToken.sol\":1241:12028  contract WallyToken is ERC20, AccessControl, ReentrancyGuard {... */\n      0x00\n      dup2\n      dup2\n      mstore\n        /* \"@openzeppelin/contracts/access/AccessControl.sol\":2954:2960  _roles */\n      0x05\n        /* \"contracts/WallyToken.sol\":1241:12028  contract WallyToken is ERC20, AccessControl, ReentrancyGuard {... */\n      0x20\n      swap1\n      dup2\n      mstore\n      0x40\n      dup1\n      dup4\n      keccak256\n      sub(shl(0xa0, 0x01), 0x01)\n      dup7\n      and\n      dup5\n      mstore\n      swap1\n      swap2\n      mstore\n      swap1\n      keccak256\n      sload\n      0xff\n      and\n      iszero\n      tag_429\n      jumpi\n      0x00\n      dup2\n      dup2\n      mstore\n        /* \"@openzeppelin/contracts/access/AccessControl.sol\":2954:2960  _roles */\n      0x05\n        /* \"contracts/WallyToken.sol\":1241:12028  contract WallyToken is ERC20, AccessControl, ReentrancyGuard {... */\n      0x20\n      swap1\n      dup2\n      mstore\n      0x40\n      dup1\n      dup4\n      keccak256\n      sub(shl(0xa0, 0x01), 0x01)\n      swap6\n      swap1\n      swap6\n      and\n      dup1\n      dup5\n      mstore\n      swap5\n      swap1\n      swap2\n      mstore\n      dup2\n      keccak256\n      dup1\n      sload\n      not(0xff)\n      and\n      swap1\n      sstore\n        /* \"@openzeppelin/contracts/utils/Context.sol\":735:745  msg.sender */\n      caller\n      swap3\n        /* \"contracts/WallyToken.sol\":1241:12028  contract WallyToken is ERC20, AccessControl, ReentrancyGuard {... */\n      swap2\n      swap1\n        /* \"@openzeppelin/contracts/access/AccessControl.sol\":6922:6962  RoleRevoked(role, account, _msgSender()) */\n      0xf6391f5c32d9c69d2a47ea670b442974b53935d1edc7fd64eb21e047a839171b\n      swap1\n        /* \"contracts/WallyToken.sol\":1241:12028  contract WallyToken is ERC20, AccessControl, ReentrancyGuard {... */\n      dup1\n        /* \"@openzeppelin/contracts/access/AccessControl.sol\":6922:6962  RoleRevoked(role, account, _msgSender()) */\n      log4\n        /* \"contracts/WallyToken.sol\":1241:12028  contract WallyToken is ERC20, AccessControl, ReentrancyGuard {... */\n      0x01\n        /* \"@openzeppelin/contracts/access/AccessControl.sol\":6976:6987  return true */\n      swap1\n      jump\t// out\n        /* \"@openzeppelin/contracts/token/ERC20/ERC20.sol\":9701:10133  function _approve(address owner, address spender, uint256 value, bool emitEvent) internal virtual {... */\n    tag_16:\n      sub(shl(0xa0, 0x01), 0x01)\n        /* \"contracts/WallyToken.sol\":1241:12028  contract WallyToken is ERC20, AccessControl, ReentrancyGuard {... */\n      and\n      swap1\n        /* \"@openzeppelin/contracts/token/ERC20/ERC20.sol\":9813:9832  owner == address(0) */\n      dup2\n      iszero\n        /* \"@openzeppelin/contracts/token/ERC20/ERC20.sol\":9809:9898  if (owner == address(0)) {... */\n      tag_325\n      jumpi\n      sub(shl(0xa0, 0x01), 0x01)\n        /* \"contracts/WallyToken.sol\":1241:12028  contract WallyToken is ERC20, AccessControl, ReentrancyGuard {... */\n      and\n      swap2\n        /* \"@openzeppelin/contracts/token/ERC20/ERC20.sol\":9911:9932  spender == address(0) */\n      dup3\n      iszero\n        /* \"@openzeppelin/contracts/token/ERC20/ERC20.sol\":9907:9997  if (spender == address(0)) {... */\n      tag_327\n      jumpi\n        /* \"contracts/WallyToken.sol\":1241:12028  contract WallyToken is ERC20, AccessControl, ReentrancyGuard {... */\n      0x20\n        /* \"@openzeppelin/contracts/token/ERC20/ERC20.sol\":10085:10116  Approval(owner, spender, value) */\n      0x8c5be1e5ebec7d5bd14f71427d1e84f3dd0314c0f7b2291e5b200ac8c7c3b925\n        /* \"contracts/WallyToken.sol\":1241:12028  contract WallyToken is ERC20, AccessControl, ReentrancyGuard {... */\n      swap2\n      dup4\n        /* \"@openzeppelin/contracts/token/ERC20/ERC20.sol\":9830:9831  0 */\n      0x00\n        /* \"contracts/WallyToken.sol\":1241:12028  contract WallyToken is ERC20, AccessControl, ReentrancyGuard {... */\n      mstore\n        /* \"@openzeppelin/contracts/token/ERC20/ERC20.sol\":3657:3668  _allowances */\n      0x01\n        /* \"contracts/WallyToken.sol\":1241:12028  contract WallyToken is ERC20, AccessControl, ReentrancyGuard {... */\n      dup3\n      mstore\n      0x40\n        /* \"@openzeppelin/contracts/token/ERC20/ERC20.sol\":9830:9831  0 */\n      0x00\n        /* \"contracts/WallyToken.sol\":1241:12028  contract WallyToken is ERC20, AccessControl, ReentrancyGuard {... */\n      keccak256\n      dup6\n      0x00\n      mstore\n      dup3\n      mstore\n      dup1\n      keccak256(0x00, 0x40)\n      sstore\n      mload(0x40)\n      swap1\n      dup2\n      mstore\n        /* \"@openzeppelin/contracts/token/ERC20/ERC20.sol\":10085:10116  Approval(owner, spender, value) */\n      log3\n        /* \"@openzeppelin/contracts/token/ERC20/ERC20.sol\":9701:10133  function _approve(address owner, address spender, uint256 value, bool emitEvent) internal virtual {... */\n      jump\t// out\n\n    auxdata: 0xa26469706673582212202f3bdc56a83b87774368eb14d04af7beaf83758e6ea7217f4fe226e9d039491764736f6c634300081c0033\n}\n",
				"bytecode": {
					"linkReferences": {},
					"object": "60a080604052604081611ebe803803809161001a8285610713565b83398101031261041057610039602061003283610736565b9201610736565b9060405191610049604084610713565b600b83526a2bb0b6363c902a37b5b2b760a91b602084015260405191610070604084610713565b600383526254574760e81b602084015283516001600160401b03811161062457600354600181811c91168015610709575b602082101461060657601f81116106a6575b50602094601f8211600114610643579481929394955f92610638575b50508160011b915f199060031b1c1916176003555b82516001600160401b03811161062457600454600181811c9116801561061a575b602082101461060657601f81116105a3575b506020601f821160011461054057819293945f92610535575b50508160011b915f199060031b1c1916176004555b6001600655601e600b819055600e556001600160a01b0316908115610502576001600160a01b038116156104d25760805233156104bf576002546b409f9cbc7c4a04c22000000081018091116104ab57600255335f525f60205260405f206b409f9cbc7c4a04c22000000081540190556040516b409f9cbc7c4a04c22000000081525f7fddf252ad1be2c89b69c2b068fc378daa952ba7f163c4a11628f55a4df523b3ef60203393a3608051610203906001600160a01b031661074a565b507f9f2df0fed2c77648de5860a4cc508cd0818c85b8b8a1ab4ceeef8d981c8956a65f81815260056020527f15a28d26fa1bf736cf7edc9922607171ccb09c3c73b808e7772a3013e068a52380545f516020611e9e5f395f51905f5291829055909290915f516020611e5e5f395f51905f529080a47f3c11d16cbaffd01df69ce1c404f6340ee057498f5f00246190ea54220576a8485f81815260056020527f847f481f687befb06ed3511f1a8dcef57e83007c0147ae5047583d705617093880545f516020611e9e5f395f51905f5291829055909290915f516020611e5e5f395f51905f529080a4600780546001600160a01b0319168217905560405163c45a015560e01b815290602082600481845afa91821561041c575f9261046a575b506020600491604051928380926315ab88c960e31b82525afa90811561041c575f91610427575b506040516364e329cb60e11b81523060048201526001600160a01b03918216602482015291602091839160449183915f91165af190811561041c575f916103de575b50600880546001600160a01b0319166001600160a01b03929092169190911790555f600f55600a805461ffff19169055600d805460ff1916905560405161167b90816107e3823960805181610e980152f35b90506020813d602011610414575b816103f960209383610713565b810103126104105761040a90610736565b5f61038c565b5f80fd5b3d91506103ec565b6040513d5f823e3d90fd5b90506020813d602011610462575b8161044260209383610713565b81010312610410575f916044610459602093610736565b9250509161034a565b3d9150610435565b9091506020813d6020116104a3575b8161048660209383610713565b8101031261041057602061049b600492610736565b929150610323565b3d9150610479565b634e487b7160e01b5f52601160045260245ffd5b63ec442f0560e01b5f525f60045260245ffd5b60405162461bcd60e51b81526020600482015260086024820152675a65726f2044414f60c01b6044820152606490fd5b60405162461bcd60e51b815260206004820152600b60248201526a2d32b937903937baba32b960a91b6044820152606490fd5b015190505f80610130565b601f1982169060045f52805f20915f5b81811061058b57509583600195969710610573575b505050811b01600455610145565b01515f1960f88460031b161c191690555f8080610565565b9192602060018192868b015181550194019201610550565b60045f527f8a35acfbc15ff81a39ae7d344fd709f28e8600b4aa8c65c6b64bfe7fe36bd19b601f830160051c810191602084106105fc575b601f0160051c01905b8181106105f15750610117565b5f81556001016105e4565b90915081906105db565b634e487b7160e01b5f52602260045260245ffd5b90607f1690610105565b634e487b7160e01b5f52604160045260245ffd5b015190505f806100cf565b601f1982169560035f52805f20915f5b88811061068e57508360019596979810610676575b505050811b016003556100e4565b01515f1960f88460031b161c191690555f8080610668565b91926020600181928685015181550194019201610653565b60035f527fc2575a0e9e593c00f959f8c92f12db2869c3395a3b0502d05e2516446f71f85b601f830160051c810191602084106106ff575b601f0160051c01905b8181106106f457506100b3565b5f81556001016106e7565b90915081906106de565b90607f16906100a1565b601f909101601f19168101906001600160401b0382119082101761062457604052565b51906001600160a01b038216820361041057565b6001600160a01b0381165f9081525f516020611e7e5f395f51905f52602052604090205460ff166107dd576001600160a01b03165f8181525f516020611e7e5f395f51905f5260205260408120805460ff191660011790553391905f516020611e9e5f395f51905f52907f2f8788117e7eff1d82e926ec794901d17c78024a50270940304540a733656f0d9080a4600190565b505f9056fe6080806040526004361015610048575b50361561001a575f80fd5b6040513481527fa419615bc8fda4c87663805ee2a3597a6d71c1d476911d9892f340d965bc7bf160203392a2005b5f3560e01c90816301ffc9a7146111cb5750806306fdde0314611110578063095ea7b3146110a7578063099a04e514610fa7578063153b0d1e14610f0c5780631694505e14610ee457806318160ddd14610ec75780632131c68c14610e8357806323b872dd14610da4578063248a9ca314610d715780632618f21414610d545780632f2ff15d14610d16578063313ce56714610cfb57806336568abe14610cb757806339509351146106cf57806340c10f1914610b7c57806342966c6814610a4457806348fca59d146109b257806349bd5a5e1461098a5780634ada218b1461096857806365cf7c9b1461094b57806370a082311461091457806389900603146108795780638c0b5e221461085c57806391d148541461081357806395d89b4114610713578063963472f9146106ee578063a217fddf146106d4578063a457c2d7146106cf578063a9059cbb1461069e578063a985ceef1461067c578063b319c6b71461065f578063b37fd1901461056d578063c2e5ec04146104cc578063d547741f14610487578063dd62ed3e14610437578063ec28438a146103d4578063f6f1e306146102425763fe575a8714610201575f61000f565b3461023e57602036600319011261023e576001600160a01b03610222611248565b165f526009602052602060ff60405f2054166040519015158152f35b5f80fd5b60a036600319011261023e57610256611248565b6024359061026261133c565b61026a611392565b60018060a01b0316806040518381523460208201527f407e9458c121455467ad277a21812c883f5d67ee0020a7b7a3ea0007a663918360403392a36007546001600160a01b0316916060906102c08185306115e2565b60c46040518095819363f305d71960e01b835230600484015260248301526044356044830152606435606483015285608483015260843560a483015234905af180156103c9575f915f935f92610382575b509061037e917f64b83944e79c3ce8d4c297411de637c3e102d064677aac0c163976ebdcd6f50e60405180610359858989846040919493926060820195825260208201520152565b0390a26001600655604051938493846040919493926060820195825260208201520152565b0390f35b92509250506060813d6060116103c1575b816103a0606093836112e2565b8101031261023e5761037e8151926040602084015193015193929391610311565b3d9150610393565b6040513d5f823e3d90fd5b3461023e57602036600319011261023e576004356103f061133c565b6103f8611392565b80600f5403610409575b6001600655005b80600f557fd6a912222a539eff01eb7e23cd954e57c4ae962622948839fefbc46b0ffe914a5f80a280610402565b3461023e57604036600319011261023e57610450611248565b61045861125e565b6001600160a01b039182165f908152600160209081526040808320949093168252928352819020549051908152f35b3461023e57604036600319011261023e576104ca6004356104a661125e565b906104c56104c0825f526005602052600160405f20015490565b611401565b61155e565b005b3461023e57602036600319011261023e576104e5611274565b6104ed61133c565b6104f5611392565b600a54811515908160ff821615150361050f576001600655005b60ff191660ff821617600a819055907f6e552ceee9488e9332de4530eb91788e818d00e6ccfb1f2968cb4325924e06115f80a28161055f575b50610556575b808080610402565b42600c5561054e565b60ff915060081c1681610548565b3461023e57606036600319011261023e57610586611248565b6044356001600160a01b038116916024359183900361023e576105a761133c565b6105af611392565b6105ba831515611304565b60018060a01b03169060405163a9059cbb60e01b81528360048201528160248201526020816044815f875af180156103c957610624575b5060207ffb475a842bad10d3800b61bd1a92e716051afba979b124b583bd99a2d1d7bfd591604051908152a36001600655005b6020813d602011610657575b8161063d602093836112e2565b8101031261023e5751801515810361023e575060206105f1565b3d9150610630565b3461023e575f36600319011261023e576020600e54604051908152f35b3461023e575f36600319011261023e57602060ff600d54166040519015158152f35b3461023e57604036600319011261023e576106c46106ba611248565b602435903361143b565b602060405160018152f35b611283565b3461023e575f36600319011261023e5760206040515f8152f35b3461023e575f36600319011261023e57602060ff600a5460081c166040519015158152f35b3461023e575f36600319011261023e576040515f6004548060011c90600181168015610809575b6020831081146107f5578285529081156107d15750600114610773575b61037e83610767818503826112e2565b6040519182918261121e565b91905060045f527f8a35acfbc15ff81a39ae7d344fd709f28e8600b4aa8c65c6b64bfe7fe36bd19b915f905b8082106107b757509091508101602001610767610757565b91926001816020925483858801015201910190929161079f565b60ff191660208086019190915291151560051b840190910191506107679050610757565b634e487b7160e01b5f52602260045260245ffd5b91607f169161073a565b3461023e57604036600319011261023e5761082c61125e565b6004355f52600560205260405f209060018060a01b03165f52602052602060ff60405f2054166040519015158152f35b3461023e575f36600319011261023e576020600f54604051908152f35b3461023e57604036600319011261023e57610892611274565b6024359061089e61133c565b6108a6611392565b600a54901515908160ff8260081c161515036108fc575b5081600b54036108f3575b7f5d394a4e9bd564f1a587773e5dbd3099a9e7b2fb0ecb2dbe1808ad21e9dc943e5f80a36001600655005b81600b556108c8565b61ff001916600882901b61ff001617600a55826108bd565b3461023e57602036600319011261023e576001600160a01b03610935611248565b165f525f602052602060405f2054604051908152f35b3461023e575f36600319011261023e576020600c54604051908152f35b3461023e575f36600319011261023e57602060ff600a54166040519015158152f35b3461023e575f36600319011261023e576008546040516001600160a01b039091168152602090f35b3461023e57604036600319011261023e576109cb611274565b602435906109d761133c565b6109df611392565b600d54901515908160ff8216151503610a32575b5081600e5403610a29575b7f7bc6854ea2dd87a130378b485fb91a0eb3056211ee9b85cb67fabef030c073505f80a36001600655005b81600e556109fe565b60ff191660ff821617600d55826109f3565b3461023e57602036600319011261023e57335f9081527f847f481f687befb06ed3511f1a8dcef57e83007c0147ae5047583d705617093760205260409020546004359060ff1615610b45573315610b3257335f525f6020528060405f2054818110610b1957335f525f6020520360405f205580600254036002555f6040518281527fddf252ad1be2c89b69c2b068fc378daa952ba7f163c4a11628f55a4df523b3ef60203392a36040519081527f696de425f79f4a40bc6d2122ca50507f0efbeabbff86a84871b7196ab8ea8df760203392a2005b63391434e360e21b5f523360045260245260445260645ffd5b634b637e8f60e11b5f525f60045260245ffd5b63e2517d3f60e01b5f52336004527f3c11d16cbaffd01df69ce1c404f6340ee057498f5f00246190ea54220576a84860245260445ffd5b3461023e57604036600319011261023e57610b95611248565b335f9081527f15a28d26fa1bf736cf7edc9922607171ccb09c3c73b808e7772a3013e068a5226020526040902054602435919060ff1615610c80576001600160a01b0316908115610c6d57600254818101809111610c59577f30385c845b448a36257a6a1716e6ad2e1bc2cbe333cde1e69fe849ad6511adfe91602091600255835f525f825260405f20818154019055835f7fddf252ad1be2c89b69c2b068fc378daa952ba7f163c4a11628f55a4df523b3ef84604051858152a3604051908152a2005b634e487b7160e01b5f52601160045260245ffd5b63ec442f0560e01b5f525f60045260245ffd5b63e2517d3f60e01b5f52336004527f9f2df0fed2c77648de5860a4cc508cd0818c85b8b8a1ab4ceeef8d981c8956a660245260445ffd5b3461023e57604036600319011261023e57610cd061125e565b336001600160a01b03821603610cec576104ca9060043561155e565b63334bd91960e11b5f5260045ffd5b3461023e575f36600319011261023e57602060405160128152f35b3461023e57604036600319011261023e576104ca600435610d3561125e565b90610d4f6104c0825f526005602052600160405f20015490565b6114d2565b3461023e575f36600319011261023e576020600b54604051908152f35b3461023e57602036600319011261023e576020610d9c6004355f526005602052600160405f20015490565b604051908152f35b3461023e57606036600319011261023e57610dbd611248565b610dc561125e565b6001600160a01b0382165f818152600160209081526040808320338452909152902054909260443592915f198110610e03575b506106c4935061143b565b838110610e68578415610e55573315610e42576106c4945f52600160205260405f2060018060a01b0333165f526020528360405f209103905584610df8565b634a1406b160e11b5f525f60045260245ffd5b63e602df0560e01b5f525f60045260245ffd5b8390637dc7a0d960e11b5f523360045260245260445260645ffd5b3461023e575f36600319011261023e576040517f00000000000000000000000000000000000000000000000000000000000000006001600160a01b03168152602090f35b3461023e575f36600319011261023e576020600254604051908152f35b3461023e575f36600319011261023e576007546040516001600160a01b039091168152602090f35b3461023e57604036600319011261023e57610f25611248565b6024359081151580920361023e57610f3b61133c565b610f43611392565b6001600160a01b03165f818152600960205260409020805460ff161515839003610f6e576001600655005b60ff1981541660ff84161790557fa534e7c418f24c958af1e861a7af8c6ece8f5204eb8c33685ae7e16a1c2ada425f80a3808080610402565b604036600319011261023e576004356001600160a01b0381169081900361023e575f8080809360243590610fd961133c565b610fe1611392565b610fec811515611304565b80837ffb475a842bad10d3800b61bd1a92e716051afba979b124b583bd99a2d1d7bfd56020604051868152a35af13d156110a2573d67ffffffffffffffff811161108e5760405190611048601f8201601f1916602001836112e2565b81525f60203d92013e5b1561105e576001600655005b60405162461bcd60e51b81526020600482015260086024820152671155120819985a5b60c21b6044820152606490fd5b634e487b7160e01b5f52604160045260245ffd5b611052565b3461023e57604036600319011261023e576110c0611248565b602435335f52600160205260405f2060018060a01b0383165f5260205260405f2054151580611107575b6110f8576106c491336115e2565b632279cc2160e01b5f5260045ffd5b508015156110ea565b3461023e575f36600319011261023e576040515f6003548060011c906001811680156111c1575b6020831081146107f5578285529081156107d157506001146111635761037e83610767818503826112e2565b91905060035f527fc2575a0e9e593c00f959f8c92f12db2869c3395a3b0502d05e2516446f71f85b915f905b8082106111a757509091508101602001610767610757565b91926001816020925483858801015201910190929161118f565b91607f1691611137565b3461023e57602036600319011261023e576004359063ffffffff60e01b821680920361023e57602091637965db0b60e01b811490811561120d575b5015158152f35b6301ffc9a760e01b14905083611206565b602060409281835280519182918282860152018484015e5f828201840152601f01601f1916010190565b600435906001600160a01b038216820361023e57565b602435906001600160a01b038216820361023e57565b60043590811515820361023e57565b3461023e57604036600319011261023e5761129c611248565b5060405162461bcd60e51b815260206004820152601f60248201527f55736520617070726f7665282920746f2073657420746f2030206669727374006044820152606490fd5b90601f8019910116810190811067ffffffffffffffff82111761108e57604052565b1561130b57565b60405162461bcd60e51b81526020600482015260096024820152685a65726f2027746f2760b81b6044820152606490fd5b60026006541461134d576002600655565b60405162461bcd60e51b815260206004820152601f60248201527f5265656e7472616e637947756172643a207265656e7472616e742063616c6c006044820152606490fd5b335f9081527fd8ef4509105c3edb0b04658b4528edc5ddd30ea5a81e623a2623c88db1eb54b6602052604090205460ff16156113ca57565b63e2517d3f60e01b5f52336004527fa49807205ce4d355092ef5a8a18f56e8913cf4a201fbe287825b095693c2177560245260445ffd5b5f81815260056020908152604080832033845290915290205460ff16156114255750565b63e2517d3f60e01b5f523360045260245260445ffd5b6001600160a01b0316908115610b32576001600160a01b0316918215610c6d57815f525f60205260405f20548181106114b957817fddf252ad1be2c89b69c2b068fc378daa952ba7f163c4a11628f55a4df523b3ef92602092855f525f84520360405f2055845f525f825260405f20818154019055604051908152a3565b8263391434e360e21b5f5260045260245260445260645ffd5b5f8181526005602090815260408083206001600160a01b038616845290915290205460ff16611558575f8181526005602090815260408083206001600160a01b0395909516808452949091528120805460ff19166001179055339291907f2f8788117e7eff1d82e926ec794901d17c78024a50270940304540a733656f0d9080a4600190565b50505f90565b5f8181526005602090815260408083206001600160a01b038616845290915290205460ff1615611558575f8181526005602090815260408083206001600160a01b0395909516808452949091528120805460ff19169055339291907ff6391f5c32d9c69d2a47ea670b442974b53935d1edc7fd64eb21e047a839171b9080a4600190565b6001600160a01b0316908115610e55576001600160a01b0316918215610e425760207f8c5be1e5ebec7d5bd14f71427d1e84f3dd0314c0f7b2291e5b200ac8c7c3b92591835f526001825260405f20855f5282528060405f2055604051908152a356fea26469706673582212202f3bdc56a83b87774368eb14d04af7beaf83758e6ea7217f4fe226e9d039491764736f6c634300081c0033bd79b86ffe0ab8e8776151514217cd7cacd52c909f66475c3af44e129f0b00ffd8ef4509105c3edb0b04658b4528edc5ddd30ea5a81e623a2623c88db1eb54b6a49807205ce4d355092ef5a8a18f56e8913cf4a201fbe287825b095693c21775",
					"opcodes": "PUSH1 0xA0 DUP1 PUSH1 0x40 MSTORE PUSH1 0x40 DUP2 PUSH2 0x1EBE DUP1 CODESIZE SUB DUP1 SWAP2 PUSH2 0x1A DUP3 DUP6 PUSH2 0x713 JUMP JUMPDEST DUP4 CODECOPY DUP2 ADD SUB SLT PUSH2 0x410 JUMPI PUSH2 0x39 PUSH1 0x20 PUSH2 0x32 DUP4 PUSH2 0x736 JUMP JUMPDEST SWAP3 ADD PUSH2 0x736 JUMP JUMPDEST SWAP1 PUSH1 0x40 MLOAD SWAP2 PUSH2 0x49 PUSH1 0x40 DUP5 PUSH2 0x713 JUMP JUMPDEST PUSH1 0xB DUP4 MSTORE PUSH11 0x2BB0B6363C902A37B5B2B7 PUSH1 0xA9 SHL PUSH1 0x20 DUP5 ADD MSTORE PUSH1 0x40 MLOAD SWAP2 PUSH2 0x70 PUSH1 0x40 DUP5 PUSH2 0x713 JUMP JUMPDEST PUSH1 0x3 DUP4 MSTORE PUSH3 0x545747 PUSH1 0xE8 SHL PUSH1 0x20 DUP5 ADD MSTORE DUP4 MLOAD PUSH1 0x1 PUSH1 0x1 PUSH1 0x40 SHL SUB DUP2 GT PUSH2 0x624 JUMPI PUSH1 0x3 SLOAD PUSH1 0x1 DUP2 DUP2 SHR SWAP2 AND DUP1 ISZERO PUSH2 0x709 JUMPI JUMPDEST PUSH1 0x20 DUP3 LT EQ PUSH2 0x606 JUMPI PUSH1 0x1F DUP2 GT PUSH2 0x6A6 JUMPI JUMPDEST POP PUSH1 0x20 SWAP5 PUSH1 0x1F DUP3 GT PUSH1 0x1 EQ PUSH2 0x643 JUMPI SWAP5 DUP2 SWAP3 SWAP4 SWAP5 SWAP6 PUSH0 SWAP3 PUSH2 0x638 JUMPI JUMPDEST POP POP DUP2 PUSH1 0x1 SHL SWAP2 PUSH0 NOT SWAP1 PUSH1 0x3 SHL SHR NOT AND OR PUSH1 0x3 SSTORE JUMPDEST DUP3 MLOAD PUSH1 0x1 PUSH1 0x1 PUSH1 0x40 SHL SUB DUP2 GT PUSH2 0x624 JUMPI PUSH1 0x4 SLOAD PUSH1 0x1 DUP2 DUP2 SHR SWAP2 AND DUP1 ISZERO PUSH2 0x61A JUMPI JUMPDEST PUSH1 0x20 DUP3 LT EQ PUSH2 0x606 JUMPI PUSH1 0x1F DUP2 GT PUSH2 0x5A3 JUMPI JUMPDEST POP PUSH1 0x20 PUSH1 0x1F DUP3 GT PUSH1 0x1 EQ PUSH2 0x540 JUMPI DUP2 SWAP3 SWAP4 SWAP5 PUSH0 SWAP3 PUSH2 0x535 JUMPI JUMPDEST POP POP DUP2 PUSH1 0x1 SHL SWAP2 PUSH0 NOT SWAP1 PUSH1 0x3 SHL SHR NOT AND OR PUSH1 0x4 SSTORE JUMPDEST PUSH1 0x1 PUSH1 0x6 SSTORE PUSH1 0x1E PUSH1 0xB DUP2 SWAP1 SSTORE PUSH1 0xE SSTORE PUSH1 0x1 PUSH1 0x1 PUSH1 0xA0 SHL SUB AND SWAP1 DUP2 ISZERO PUSH2 0x502 JUMPI PUSH1 0x1 PUSH1 0x1 PUSH1 0xA0 SHL SUB DUP2 AND ISZERO PUSH2 0x4D2 JUMPI PUSH1 0x80 MSTORE CALLER ISZERO PUSH2 0x4BF JUMPI PUSH1 0x2 SLOAD PUSH12 0x409F9CBC7C4A04C220000000 DUP2 ADD DUP1 SWAP2 GT PUSH2 0x4AB JUMPI PUSH1 0x2 SSTORE CALLER PUSH0 MSTORE PUSH0 PUSH1 0x20 MSTORE PUSH1 0x40 PUSH0 KECCAK256 PUSH12 0x409F9CBC7C4A04C220000000 DUP2 SLOAD ADD SWAP1 SSTORE PUSH1 0x40 MLOAD PUSH12 0x409F9CBC7C4A04C220000000 DUP2 MSTORE PUSH0 PUSH32 0xDDF252AD1BE2C89B69C2B068FC378DAA952BA7F163C4A11628F55A4DF523B3EF PUSH1 0x20 CALLER SWAP4 LOG3 PUSH1 0x80 MLOAD PUSH2 0x203 SWAP1 PUSH1 0x1 PUSH1 0x1 PUSH1 0xA0 SHL SUB AND PUSH2 0x74A JUMP JUMPDEST POP PUSH32 0x9F2DF0FED2C77648DE5860A4CC508CD0818C85B8B8A1AB4CEEEF8D981C8956A6 PUSH0 DUP2 DUP2 MSTORE PUSH1 0x5 PUSH1 0x20 MSTORE PUSH32 0x15A28D26FA1BF736CF7EDC9922607171CCB09C3C73B808E7772A3013E068A523 DUP1 SLOAD PUSH0 MLOAD PUSH1 0x20 PUSH2 0x1E9E PUSH0 CODECOPY PUSH0 MLOAD SWAP1 PUSH0 MSTORE SWAP2 DUP3 SWAP1 SSTORE SWAP1 SWAP3 SWAP1 SWAP2 PUSH0 MLOAD PUSH1 0x20 PUSH2 0x1E5E PUSH0 CODECOPY PUSH0 MLOAD SWAP1 PUSH0 MSTORE SWAP1 DUP1 LOG4 PUSH32 0x3C11D16CBAFFD01DF69CE1C404F6340EE057498F5F00246190EA54220576A848 PUSH0 DUP2 DUP2 MSTORE PUSH1 0x5 PUSH1 0x20 MSTORE PUSH32 0x847F481F687BEFB06ED3511F1A8DCEF57E83007C0147AE5047583D7056170938 DUP1 SLOAD PUSH0 MLOAD PUSH1 0x20 PUSH2 0x1E9E PUSH0 CODECOPY PUSH0 MLOAD SWAP1 PUSH0 MSTORE SWAP2 DUP3 SWAP1 SSTORE SWAP1 SWAP3 SWAP1 SWAP2 PUSH0 MLOAD PUSH1 0x20 PUSH2 0x1E5E PUSH0 CODECOPY PUSH0 MLOAD SWAP1 PUSH0 MSTORE SWAP1 DUP1 LOG4 PUSH1 0x7 DUP1 SLOAD PUSH1 0x1 PUSH1 0x1 PUSH1 0xA0 SHL SUB NOT AND DUP3 OR SWAP1 SSTORE PUSH1 0x40 MLOAD PUSH4 0xC45A0155 PUSH1 0xE0 SHL DUP2 MSTORE SWAP1 PUSH1 0x20 DUP3 PUSH1 0x4 DUP2 DUP5 GAS STATICCALL SWAP2 DUP3 ISZERO PUSH2 0x41C JUMPI PUSH0 SWAP3 PUSH2 0x46A JUMPI JUMPDEST POP PUSH1 0x20 PUSH1 0x4 SWAP2 PUSH1 0x40 MLOAD SWAP3 DUP4 DUP1 SWAP3 PUSH4 0x15AB88C9 PUSH1 0xE3 SHL DUP3 MSTORE GAS STATICCALL SWAP1 DUP2 ISZERO PUSH2 0x41C JUMPI PUSH0 SWAP2 PUSH2 0x427 JUMPI JUMPDEST POP PUSH1 0x40 MLOAD PUSH4 0x64E329CB PUSH1 0xE1 SHL DUP2 MSTORE ADDRESS PUSH1 0x4 DUP3 ADD MSTORE PUSH1 0x1 PUSH1 0x1 PUSH1 0xA0 SHL SUB SWAP2 DUP3 AND PUSH1 0x24 DUP3 ADD MSTORE SWAP2 PUSH1 0x20 SWAP2 DUP4 SWAP2 PUSH1 0x44 SWAP2 DUP4 SWAP2 PUSH0 SWAP2 AND GAS CALL SWAP1 DUP2 ISZERO PUSH2 0x41C JUMPI PUSH0 SWAP2 PUSH2 0x3DE JUMPI JUMPDEST POP PUSH1 0x8 DUP1 SLOAD PUSH1 0x1 PUSH1 0x1 PUSH1 0xA0 SHL SUB NOT AND PUSH1 0x1 PUSH1 0x1 PUSH1 0xA0 SHL SUB SWAP3 SWAP1 SWAP3 AND SWAP2 SWAP1 SWAP2 OR SWAP1 SSTORE PUSH0 PUSH1 0xF SSTORE PUSH1 0xA DUP1 SLOAD PUSH2 0xFFFF NOT AND SWAP1 SSTORE PUSH1 0xD DUP1 SLOAD PUSH1 0xFF NOT AND SWAP1 SSTORE PUSH1 0x40 MLOAD PUSH2 0x167B SWAP1 DUP2 PUSH2 0x7E3 DUP3 CODECOPY PUSH1 0x80 MLOAD DUP2 PUSH2 0xE98 ADD MSTORE RETURN JUMPDEST SWAP1 POP PUSH1 0x20 DUP2 RETURNDATASIZE PUSH1 0x20 GT PUSH2 0x414 JUMPI JUMPDEST DUP2 PUSH2 0x3F9 PUSH1 0x20 SWAP4 DUP4 PUSH2 0x713 JUMP JUMPDEST DUP2 ADD SUB SLT PUSH2 0x410 JUMPI PUSH2 0x40A SWAP1 PUSH2 0x736 JUMP JUMPDEST PUSH0 PUSH2 0x38C JUMP JUMPDEST PUSH0 DUP1 REVERT JUMPDEST RETURNDATASIZE SWAP2 POP PUSH2 0x3EC JUMP JUMPDEST PUSH1 0x40 MLOAD RETURNDATASIZE PUSH0 DUP3 RETURNDATACOPY RETURNDATASIZE SWAP1 REVERT JUMPDEST SWAP1 POP PUSH1 0x20 DUP2 RETURNDATASIZE PUSH1 0x20 GT PUSH2 0x462 JUMPI JUMPDEST DUP2 PUSH2 0x442 PUSH1 0x20 SWAP4 DUP4 PUSH2 0x713 JUMP JUMPDEST DUP2 ADD SUB SLT PUSH2 0x410 JUMPI PUSH0 SWAP2 PUSH1 0x44 PUSH2 0x459 PUSH1 0x20 SWAP4 PUSH2 0x736 JUMP JUMPDEST SWAP3 POP POP SWAP2 PUSH2 0x34A JUMP JUMPDEST RETURNDATASIZE SWAP2 POP PUSH2 0x435 JUMP JUMPDEST SWAP1 SWAP2 POP PUSH1 0x20 DUP2 RETURNDATASIZE PUSH1 0x20 GT PUSH2 0x4A3 JUMPI JUMPDEST DUP2 PUSH2 0x486 PUSH1 0x20 SWAP4 DUP4 PUSH2 0x713 JUMP JUMPDEST DUP2 ADD SUB SLT PUSH2 0x410 JUMPI PUSH1 0x20 PUSH2 0x49B PUSH1 0x4 SWAP3 PUSH2 0x736 JUMP JUMPDEST SWAP3 SWAP2 POP PUSH2 0x323 JUMP JUMPDEST RETURNDATASIZE SWAP2 POP PUSH2 0x479 JUMP JUMPDEST PUSH4 0x4E487B71 PUSH1 0xE0 SHL PUSH0 MSTORE PUSH1 0x11 PUSH1 0x4 MSTORE PUSH1 0x24 PUSH0 REVERT JUMPDEST PUSH4 0xEC442F05 PUSH1 0xE0 SHL PUSH0 MSTORE PUSH0 PUSH1 0x4 MSTORE PUSH1 0x24 PUSH0 REVERT JUMPDEST PUSH1 0x40 MLOAD PUSH3 0x461BCD PUSH1 0xE5 SHL DUP2 MSTORE PUSH1 0x20 PUSH1 0x4 DUP3 ADD MSTORE PUSH1 0x8 PUSH1 0x24 DUP3 ADD MSTORE PUSH8 0x5A65726F2044414F PUSH1 0xC0 SHL PUSH1 0x44 DUP3 ADD MSTORE PUSH1 0x64 SWAP1 REVERT JUMPDEST PUSH1 0x40 MLOAD PUSH3 0x461BCD PUSH1 0xE5 SHL DUP2 MSTORE PUSH1 0x20 PUSH1 0x4 DUP3 ADD MSTORE PUSH1 0xB PUSH1 0x24 DUP3 ADD MSTORE PUSH11 0x2D32B937903937BABA32B9 PUSH1 0xA9 SHL PUSH1 0x44 DUP3 ADD MSTORE PUSH1 0x64 SWAP1 REVERT JUMPDEST ADD MLOAD SWAP1 POP PUSH0 DUP1 PUSH2 0x130 JUMP JUMPDEST PUSH1 0x1F NOT DUP3 AND SWAP1 PUSH1 0x4 PUSH0 MSTORE DUP1 PUSH0 KECCAK256 SWAP2 PUSH0 JUMPDEST DUP2 DUP2 LT PUSH2 0x58B JUMPI POP SWAP6 DUP4 PUSH1 0x1 SWAP6 SWAP7 SWAP8 LT PUSH2 0x573 JUMPI JUMPDEST POP POP POP DUP2 SHL ADD PUSH1 0x4 SSTORE PUSH2 0x145 JUMP JUMPDEST ADD MLOAD PUSH0 NOT PUSH1 0xF8 DUP5 PUSH1 0x3 SHL AND SHR NOT AND SWAP1 SSTORE PUSH0 DUP1 DUP1 PUSH2 0x565 JUMP JUMPDEST SWAP2 SWAP3 PUSH1 0x20 PUSH1 0x1 DUP2 SWAP3 DUP7 DUP12 ADD MLOAD DUP2 SSTORE ADD SWAP5 ADD SWAP3 ADD PUSH2 0x550 JUMP JUMPDEST PUSH1 0x4 PUSH0 MSTORE PUSH32 0x8A35ACFBC15FF81A39AE7D344FD709F28E8600B4AA8C65C6B64BFE7FE36BD19B PUSH1 0x1F DUP4 ADD PUSH1 0x5 SHR DUP2 ADD SWAP2 PUSH1 0x20 DUP5 LT PUSH2 0x5FC JUMPI JUMPDEST PUSH1 0x1F ADD PUSH1 0x5 SHR ADD SWAP1 JUMPDEST DUP2 DUP2 LT PUSH2 0x5F1 JUMPI POP PUSH2 0x117 JUMP JUMPDEST PUSH0 DUP2 SSTORE PUSH1 0x1 ADD PUSH2 0x5E4 JUMP JUMPDEST SWAP1 SWAP2 POP DUP2 SWAP1 PUSH2 0x5DB JUMP JUMPDEST PUSH4 0x4E487B71 PUSH1 0xE0 SHL PUSH0 MSTORE PUSH1 0x22 PUSH1 0x4 MSTORE PUSH1 0x24 PUSH0 REVERT JUMPDEST SWAP1 PUSH1 0x7F AND SWAP1 PUSH2 0x105 JUMP JUMPDEST PUSH4 0x4E487B71 PUSH1 0xE0 SHL PUSH0 MSTORE PUSH1 0x41 PUSH1 0x4 MSTORE PUSH1 0x24 PUSH0 REVERT JUMPDEST ADD MLOAD SWAP1 POP PUSH0 DUP1 PUSH2 0xCF JUMP JUMPDEST PUSH1 0x1F NOT DUP3 AND SWAP6 PUSH1 0x3 PUSH0 MSTORE DUP1 PUSH0 KECCAK256 SWAP2 PUSH0 JUMPDEST DUP9 DUP2 LT PUSH2 0x68E JUMPI POP DUP4 PUSH1 0x1 SWAP6 SWAP7 SWAP8 SWAP9 LT PUSH2 0x676 JUMPI JUMPDEST POP POP POP DUP2 SHL ADD PUSH1 0x3 SSTORE PUSH2 0xE4 JUMP JUMPDEST ADD MLOAD PUSH0 NOT PUSH1 0xF8 DUP5 PUSH1 0x3 SHL AND SHR NOT AND SWAP1 SSTORE PUSH0 DUP1 DUP1 PUSH2 0x668 JUMP JUMPDEST SWAP2 SWAP3 PUSH1 0x20 PUSH1 0x1 DUP2 SWAP3 DUP7 DUP6 ADD MLOAD DUP2 SSTORE ADD SWAP5 ADD SWAP3 ADD PUSH2 0x653 JUMP JUMPDEST PUSH1 0x3 PUSH0 MSTORE PUSH32 0xC2575A0E9E593C00F959F8C92F12DB2869C3395A3B0502D05E2516446F71F85B PUSH1 0x1F DUP4 ADD PUSH1 0x5 SHR DUP2 ADD SWAP2 PUSH1 0x20 DUP5 LT PUSH2 0x6FF JUMPI JUMPDEST PUSH1 0x1F ADD PUSH1 0x5 SHR ADD SWAP1 JUMPDEST DUP2 DUP2 LT PUSH2 0x6F4 JUMPI POP PUSH2 0xB3 JUMP JUMPDEST PUSH0 DUP2 SSTORE PUSH1 0x1 ADD PUSH2 0x6E7 JUMP JUMPDEST SWAP1 SWAP2 POP DUP2 SWAP1 PUSH2 0x6DE JUMP JUMPDEST SWAP1 PUSH1 0x7F AND SWAP1 PUSH2 0xA1 JUMP JUMPDEST PUSH1 0x1F SWAP1 SWAP2 ADD PUSH1 0x1F NOT AND DUP2 ADD SWAP1 PUSH1 0x1 PUSH1 0x1 PUSH1 0x40 SHL SUB DUP3 GT SWAP1 DUP3 LT OR PUSH2 0x624 JUMPI PUSH1 0x40 MSTORE JUMP JUMPDEST MLOAD SWAP1 PUSH1 0x1 PUSH1 0x1 PUSH1 0xA0 SHL SUB DUP3 AND DUP3 SUB PUSH2 0x410 JUMPI JUMP JUMPDEST PUSH1 0x1 PUSH1 0x1 PUSH1 0xA0 SHL SUB DUP2 AND PUSH0 SWAP1 DUP2 MSTORE PUSH0 MLOAD PUSH1 0x20 PUSH2 0x1E7E PUSH0 CODECOPY PUSH0 MLOAD SWAP1 PUSH0 MSTORE PUSH1 0x20 MSTORE PUSH1 0x40 SWAP1 KECCAK256 SLOAD PUSH1 0xFF AND PUSH2 0x7DD JUMPI PUSH1 0x1 PUSH1 0x1 PUSH1 0xA0 SHL SUB AND PUSH0 DUP2 DUP2 MSTORE PUSH0 MLOAD PUSH1 0x20 PUSH2 0x1E7E PUSH0 CODECOPY PUSH0 MLOAD SWAP1 PUSH0 MSTORE PUSH1 0x20 MSTORE PUSH1 0x40 DUP2 KECCAK256 DUP1 SLOAD PUSH1 0xFF NOT AND PUSH1 0x1 OR SWAP1 SSTORE CALLER SWAP2 SWAP1 PUSH0 MLOAD PUSH1 0x20 PUSH2 0x1E9E PUSH0 CODECOPY PUSH0 MLOAD SWAP1 PUSH0 MSTORE SWAP1 PUSH32 0x2F8788117E7EFF1D82E926EC794901D17C78024A50270940304540A733656F0D SWAP1 DUP1 LOG4 PUSH1 0x1 SWAP1 JUMP JUMPDEST POP PUSH0 SWAP1 JUMP INVALID PUSH1 0x80 DUP1 PUSH1 0x40 MSTORE PUSH1 0x4 CALLDATASIZE LT ISZERO PUSH2 0x48 JUMPI JUMPDEST POP CALLDATASIZE ISZERO PUSH2 0x1A JUMPI PUSH0 DUP1 REVERT JUMPDEST PUSH1 0x40 MLOAD CALLVALUE DUP2 MSTORE PUSH32 0xA419615BC8FDA4C87663805EE2A3597A6D71C1D476911D9892F340D965BC7BF1 PUSH1 0x20 CALLER SWAP3 LOG2 STOP JUMPDEST PUSH0 CALLDATALOAD PUSH1 0xE0 SHR SWAP1 DUP2 PUSH4 0x1FFC9A7 EQ PUSH2 0x11CB JUMPI POP DUP1 PUSH4 0x6FDDE03 EQ PUSH2 0x1110 JUMPI DUP1 PUSH4 0x95EA7B3 EQ PUSH2 0x10A7 JUMPI DUP1 PUSH4 0x99A04E5 EQ PUSH2 0xFA7 JUMPI DUP1 PUSH4 0x153B0D1E EQ PUSH2 0xF0C JUMPI DUP1 PUSH4 0x1694505E EQ PUSH2 0xEE4 JUMPI DUP1 PUSH4 0x18160DDD EQ PUSH2 0xEC7 JUMPI DUP1 PUSH4 0x2131C68C EQ PUSH2 0xE83 JUMPI DUP1 PUSH4 0x23B872DD EQ PUSH2 0xDA4 JUMPI DUP1 PUSH4 0x248A9CA3 EQ PUSH2 0xD71 JUMPI DUP1 PUSH4 0x2618F214 EQ PUSH2 0xD54 JUMPI DUP1 PUSH4 0x2F2FF15D EQ PUSH2 0xD16 JUMPI DUP1 PUSH4 0x313CE567 EQ PUSH2 0xCFB JUMPI DUP1 PUSH4 0x36568ABE EQ PUSH2 0xCB7 JUMPI DUP1 PUSH4 0x39509351 EQ PUSH2 0x6CF JUMPI DUP1 PUSH4 0x40C10F19 EQ PUSH2 0xB7C JUMPI DUP1 PUSH4 0x42966C68 EQ PUSH2 0xA44 JUMPI DUP1 PUSH4 0x48FCA59D EQ PUSH2 0x9B2 JUMPI DUP1 PUSH4 0x49BD5A5E EQ PUSH2 0x98A JUMPI DUP1 PUSH4 0x4ADA218B EQ PUSH2 0x968 JUMPI DUP1 PUSH4 0x65CF7C9B EQ PUSH2 0x94B JUMPI DUP1 PUSH4 0x70A08231 EQ PUSH2 0x914 JUMPI DUP1 PUSH4 0x89900603 EQ PUSH2 0x879 JUMPI DUP1 PUSH4 0x8C0B5E22 EQ PUSH2 0x85C JUMPI DUP1 PUSH4 0x91D14854 EQ PUSH2 0x813 JUMPI DUP1 PUSH4 0x95D89B41 EQ PUSH2 0x713 JUMPI DUP1 PUSH4 0x963472F9 EQ PUSH2 0x6EE JUMPI DUP1 PUSH4 0xA217FDDF EQ PUSH2 0x6D4 JUMPI DUP1 PUSH4 0xA457C2D7 EQ PUSH2 0x6CF JUMPI DUP1 PUSH4 0xA9059CBB EQ PUSH2 0x69E JUMPI DUP1 PUSH4 0xA985CEEF EQ PUSH2 0x67C JUMPI DUP1 PUSH4 0xB319C6B7 EQ PUSH2 0x65F JUMPI DUP1 PUSH4 0xB37FD190 EQ PUSH2 0x56D JUMPI DUP1 PUSH4 0xC2E5EC04 EQ PUSH2 0x4CC JUMPI DUP1 PUSH4 0xD547741F EQ PUSH2 0x487 JUMPI DUP1 PUSH4 0xDD62ED3E EQ PUSH2 0x437 JUMPI DUP1 PUSH4 0xEC28438A EQ PUSH2 0x3D4 JUMPI DUP1 PUSH4 0xF6F1E306 EQ PUSH2 0x242 JUMPI PUSH4 0xFE575A87 EQ PUSH2 0x201 JUMPI PUSH0 PUSH2 0xF JUMP JUMPDEST CALLVALUE PUSH2 0x23E JUMPI PUSH1 0x20 CALLDATASIZE PUSH1 0x3 NOT ADD SLT PUSH2 0x23E JUMPI PUSH1 0x1 PUSH1 0x1 PUSH1 0xA0 SHL SUB PUSH2 0x222 PUSH2 0x1248 JUMP JUMPDEST AND PUSH0 MSTORE PUSH1 0x9 PUSH1 0x20 MSTORE PUSH1 0x20 PUSH1 0xFF PUSH1 0x40 PUSH0 KECCAK256 SLOAD AND PUSH1 0x40 MLOAD SWAP1 ISZERO ISZERO DUP2 MSTORE RETURN JUMPDEST PUSH0 DUP1 REVERT JUMPDEST PUSH1 0xA0 CALLDATASIZE PUSH1 0x3 NOT ADD SLT PUSH2 0x23E JUMPI PUSH2 0x256 PUSH2 0x1248 JUMP JUMPDEST PUSH1 0x24 CALLDATALOAD SWAP1 PUSH2 0x262 PUSH2 0x133C JUMP JUMPDEST PUSH2 0x26A PUSH2 0x1392 JUMP JUMPDEST PUSH1 0x1 DUP1 PUSH1 0xA0 SHL SUB AND DUP1 PUSH1 0x40 MLOAD DUP4 DUP2 MSTORE CALLVALUE PUSH1 0x20 DUP3 ADD MSTORE PUSH32 0x407E9458C121455467AD277A21812C883F5D67EE0020A7B7A3EA0007A6639183 PUSH1 0x40 CALLER SWAP3 LOG3 PUSH1 0x7 SLOAD PUSH1 0x1 PUSH1 0x1 PUSH1 0xA0 SHL SUB AND SWAP2 PUSH1 0x60 SWAP1 PUSH2 0x2C0 DUP2 DUP6 ADDRESS PUSH2 0x15E2 JUMP JUMPDEST PUSH1 0xC4 PUSH1 0x40 MLOAD DUP1 SWAP6 DUP2 SWAP4 PUSH4 0xF305D719 PUSH1 0xE0 SHL DUP4 MSTORE ADDRESS PUSH1 0x4 DUP5 ADD MSTORE PUSH1 0x24 DUP4 ADD MSTORE PUSH1 0x44 CALLDATALOAD PUSH1 0x44 DUP4 ADD MSTORE PUSH1 0x64 CALLDATALOAD PUSH1 0x64 DUP4 ADD MSTORE DUP6 PUSH1 0x84 DUP4 ADD MSTORE PUSH1 0x84 CALLDATALOAD PUSH1 0xA4 DUP4 ADD MSTORE CALLVALUE SWAP1 GAS CALL DUP1 ISZERO PUSH2 0x3C9 JUMPI PUSH0 SWAP2 PUSH0 SWAP4 PUSH0 SWAP3 PUSH2 0x382 JUMPI JUMPDEST POP SWAP1 PUSH2 0x37E SWAP2 PUSH32 0x64B83944E79C3CE8D4C297411DE637C3E102D064677AAC0C163976EBDCD6F50E PUSH1 0x40 MLOAD DUP1 PUSH2 0x359 DUP6 DUP10 DUP10 DUP5 PUSH1 0x40 SWAP2 SWAP5 SWAP4 SWAP3 PUSH1 0x60 DUP3 ADD SWAP6 DUP3 MSTORE PUSH1 0x20 DUP3 ADD MSTORE ADD MSTORE JUMP JUMPDEST SUB SWAP1 LOG2 PUSH1 0x1 PUSH1 0x6 SSTORE PUSH1 0x40 MLOAD SWAP4 DUP5 SWAP4 DUP5 PUSH1 0x40 SWAP2 SWAP5 SWAP4 SWAP3 PUSH1 0x60 DUP3 ADD SWAP6 DUP3 MSTORE PUSH1 0x20 DUP3 ADD MSTORE ADD MSTORE JUMP JUMPDEST SUB SWAP1 RETURN JUMPDEST SWAP3 POP SWAP3 POP POP PUSH1 0x60 DUP2 RETURNDATASIZE PUSH1 0x60 GT PUSH2 0x3C1 JUMPI JUMPDEST DUP2 PUSH2 0x3A0 PUSH1 0x60 SWAP4 DUP4 PUSH2 0x12E2 JUMP JUMPDEST DUP2 ADD SUB SLT PUSH2 0x23E JUMPI PUSH2 0x37E DUP2 MLOAD SWAP3 PUSH1 0x40 PUSH1 0x20 DUP5 ADD MLOAD SWAP4 ADD MLOAD SWAP4 SWAP3 SWAP4 SWAP2 PUSH2 0x311 JUMP JUMPDEST RETURNDATASIZE SWAP2 POP PUSH2 0x393 JUMP JUMPDEST PUSH1 0x40 MLOAD RETURNDATASIZE PUSH0 DUP3 RETURNDATACOPY RETURNDATASIZE SWAP1 REVERT JUMPDEST CALLVALUE PUSH2 0x23E JUMPI PUSH1 0x20 CALLDATASIZE PUSH1 0x3 NOT ADD SLT PUSH2 0x23E JUMPI PUSH1 0x4 CALLDATALOAD PUSH2 0x3F0 PUSH2 0x133C JUMP JUMPDEST PUSH2 0x3F8 PUSH2 0x1392 JUMP JUMPDEST DUP1 PUSH1 0xF SLOAD SUB PUSH2 0x409 JUMPI JUMPDEST PUSH1 0x1 PUSH1 0x6 SSTORE STOP JUMPDEST DUP1 PUSH1 0xF SSTORE PUSH32 0xD6A912222A539EFF01EB7E23CD954E57C4AE962622948839FEFBC46B0FFE914A PUSH0 DUP1 LOG2 DUP1 PUSH2 0x402 JUMP JUMPDEST CALLVALUE PUSH2 0x23E JUMPI PUSH1 0x40 CALLDATASIZE PUSH1 0x3 NOT ADD SLT PUSH2 0x23E JUMPI PUSH2 0x450 PUSH2 0x1248 JUMP JUMPDEST PUSH2 0x458 PUSH2 0x125E JUMP JUMPDEST PUSH1 0x1 PUSH1 0x1 PUSH1 0xA0 SHL SUB SWAP2 DUP3 AND PUSH0 SWAP1 DUP2 MSTORE PUSH1 0x1 PUSH1 0x20 SWAP1 DUP2 MSTORE PUSH1 0x40 DUP1 DUP4 KECCAK256 SWAP5 SWAP1 SWAP4 AND DUP3 MSTORE SWAP3 DUP4 MSTORE DUP2 SWAP1 KECCAK256 SLOAD SWAP1 MLOAD SWAP1 DUP2 MSTORE RETURN JUMPDEST CALLVALUE PUSH2 0x23E JUMPI PUSH1 0x40 CALLDATASIZE PUSH1 0x3 NOT ADD SLT PUSH2 0x23E JUMPI PUSH2 0x4CA PUSH1 0x4 CALLDATALOAD PUSH2 0x4A6 PUSH2 0x125E JUMP JUMPDEST SWAP1 PUSH2 0x4C5 PUSH2 0x4C0 DUP3 PUSH0 MSTORE PUSH1 0x5 PUSH1 0x20 MSTORE PUSH1 0x1 PUSH1 0x40 PUSH0 KECCAK256 ADD SLOAD SWAP1 JUMP JUMPDEST PUSH2 0x1401 JUMP JUMPDEST PUSH2 0x155E JUMP JUMPDEST STOP JUMPDEST CALLVALUE PUSH2 0x23E JUMPI PUSH1 0x20 CALLDATASIZE PUSH1 0x3 NOT ADD SLT PUSH2 0x23E JUMPI PUSH2 0x4E5 PUSH2 0x1274 JUMP JUMPDEST PUSH2 0x4ED PUSH2 0x133C JUMP JUMPDEST PUSH2 0x4F5 PUSH2 0x1392 JUMP JUMPDEST PUSH1 0xA SLOAD DUP2 ISZERO ISZERO SWAP1 DUP2 PUSH1 0xFF DUP3 AND ISZERO ISZERO SUB PUSH2 0x50F JUMPI PUSH1 0x1 PUSH1 0x6 SSTORE STOP JUMPDEST PUSH1 0xFF NOT AND PUSH1 0xFF DUP3 AND OR PUSH1 0xA DUP2 SWAP1 SSTORE SWAP1 PUSH32 0x6E552CEEE9488E9332DE4530EB91788E818D00E6CCFB1F2968CB4325924E0611 PUSH0 DUP1 LOG2 DUP2 PUSH2 0x55F JUMPI JUMPDEST POP PUSH2 0x556 JUMPI JUMPDEST DUP1 DUP1 DUP1 PUSH2 0x402 JUMP JUMPDEST TIMESTAMP PUSH1 0xC SSTORE PUSH2 0x54E JUMP JUMPDEST PUSH1 0xFF SWAP2 POP PUSH1 0x8 SHR AND DUP2 PUSH2 0x548 JUMP JUMPDEST CALLVALUE PUSH2 0x23E JUMPI PUSH1 0x60 CALLDATASIZE PUSH1 0x3 NOT ADD SLT PUSH2 0x23E JUMPI PUSH2 0x586 PUSH2 0x1248 JUMP JUMPDEST PUSH1 0x44 CALLDATALOAD PUSH1 0x1 PUSH1 0x1 PUSH1 0xA0 SHL SUB DUP2 AND SWAP2 PUSH1 0x24 CALLDATALOAD SWAP2 DUP4 SWAP1 SUB PUSH2 0x23E JUMPI PUSH2 0x5A7 PUSH2 0x133C JUMP JUMPDEST PUSH2 0x5AF PUSH2 0x1392 JUMP JUMPDEST PUSH2 0x5BA DUP4 ISZERO ISZERO PUSH2 0x1304 JUMP JUMPDEST PUSH1 0x1 DUP1 PUSH1 0xA0 SHL SUB AND SWAP1 PUSH1 0x40 MLOAD PUSH4 0xA9059CBB PUSH1 0xE0 SHL DUP2 MSTORE DUP4 PUSH1 0x4 DUP3 ADD MSTORE DUP2 PUSH1 0x24 DUP3 ADD MSTORE PUSH1 0x20 DUP2 PUSH1 0x44 DUP2 PUSH0 DUP8 GAS CALL DUP1 ISZERO PUSH2 0x3C9 JUMPI PUSH2 0x624 JUMPI JUMPDEST POP PUSH1 0x20 PUSH32 0xFB475A842BAD10D3800B61BD1A92E716051AFBA979B124B583BD99A2D1D7BFD5 SWAP2 PUSH1 0x40 MLOAD SWAP1 DUP2 MSTORE LOG3 PUSH1 0x1 PUSH1 0x6 SSTORE STOP JUMPDEST PUSH1 0x20 DUP2 RETURNDATASIZE PUSH1 0x20 GT PUSH2 0x657 JUMPI JUMPDEST DUP2 PUSH2 0x63D PUSH1 0x20 SWAP4 DUP4 PUSH2 0x12E2 JUMP JUMPDEST DUP2 ADD SUB SLT PUSH2 0x23E JUMPI MLOAD DUP1 ISZERO ISZERO DUP2 SUB PUSH2 0x23E JUMPI POP PUSH1 0x20 PUSH2 0x5F1 JUMP JUMPDEST RETURNDATASIZE SWAP2 POP PUSH2 0x630 JUMP JUMPDEST CALLVALUE PUSH2 0x23E JUMPI PUSH0 CALLDATASIZE PUSH1 0x3 NOT ADD SLT PUSH2 0x23E JUMPI PUSH1 0x20 PUSH1 0xE SLOAD PUSH1 0x40 MLOAD SWAP1 DUP2 MSTORE RETURN JUMPDEST CALLVALUE PUSH2 0x23E JUMPI PUSH0 CALLDATASIZE PUSH1 0x3 NOT ADD SLT PUSH2 0x23E JUMPI PUSH1 0x20 PUSH1 0xFF PUSH1 0xD SLOAD AND PUSH1 0x40 MLOAD SWAP1 ISZERO ISZERO DUP2 MSTORE RETURN JUMPDEST CALLVALUE PUSH2 0x23E JUMPI PUSH1 0x40 CALLDATASIZE PUSH1 0x3 NOT ADD SLT PUSH2 0x23E JUMPI PUSH2 0x6C4 PUSH2 0x6BA PUSH2 0x1248 JUMP JUMPDEST PUSH1 0x24 CALLDATALOAD SWAP1 CALLER PUSH2 0x143B JUMP JUMPDEST PUSH1 0x20 PUSH1 0x40 MLOAD PUSH1 0x1 DUP2 MSTORE RETURN JUMPDEST PUSH2 0x1283 JUMP JUMPDEST CALLVALUE PUSH2 0x23E JUMPI PUSH0 CALLDATASIZE PUSH1 0x3 NOT ADD SLT PUSH2 0x23E JUMPI PUSH1 0x20 PUSH1 0x40 MLOAD PUSH0 DUP2 MSTORE RETURN JUMPDEST CALLVALUE PUSH2 0x23E JUMPI PUSH0 CALLDATASIZE PUSH1 0x3 NOT ADD SLT PUSH2 0x23E JUMPI PUSH1 0x20 PUSH1 0xFF PUSH1 0xA SLOAD PUSH1 0x8 SHR AND PUSH1 0x40 MLOAD SWAP1 ISZERO ISZERO DUP2 MSTORE RETURN JUMPDEST CALLVALUE PUSH2 0x23E JUMPI PUSH0 CALLDATASIZE PUSH1 0x3 NOT ADD SLT PUSH2 0x23E JUMPI PUSH1 0x40 MLOAD PUSH0 PUSH1 0x4 SLOAD DUP1 PUSH1 0x1 SHR SWAP1 PUSH1 0x1 DUP2 AND DUP1 ISZERO PUSH2 0x809 JUMPI JUMPDEST PUSH1 0x20 DUP4 LT DUP2 EQ PUSH2 0x7F5 JUMPI DUP3 DUP6 MSTORE SWAP1 DUP2 ISZERO PUSH2 0x7D1 JUMPI POP PUSH1 0x1 EQ PUSH2 0x773 JUMPI JUMPDEST PUSH2 0x37E DUP4 PUSH2 0x767 DUP2 DUP6 SUB DUP3 PUSH2 0x12E2 JUMP JUMPDEST PUSH1 0x40 MLOAD SWAP2 DUP3 SWAP2 DUP3 PUSH2 0x121E JUMP JUMPDEST SWAP2 SWAP1 POP PUSH1 0x4 PUSH0 MSTORE PUSH32 0x8A35ACFBC15FF81A39AE7D344FD709F28E8600B4AA8C65C6B64BFE7FE36BD19B SWAP2 PUSH0 SWAP1 JUMPDEST DUP1 DUP3 LT PUSH2 0x7B7 JUMPI POP SWAP1 SWAP2 POP DUP2 ADD PUSH1 0x20 ADD PUSH2 0x767 PUSH2 0x757 JUMP JUMPDEST SWAP2 SWAP3 PUSH1 0x1 DUP2 PUSH1 0x20 SWAP3 SLOAD DUP4 DUP6 DUP9 ADD ADD MSTORE ADD SWAP2 ADD SWAP1 SWAP3 SWAP2 PUSH2 0x79F JUMP JUMPDEST PUSH1 0xFF NOT AND PUSH1 0x20 DUP1 DUP7 ADD SWAP2 SWAP1 SWAP2 MSTORE SWAP2 ISZERO ISZERO PUSH1 0x5 SHL DUP5 ADD SWAP1 SWAP2 ADD SWAP2 POP PUSH2 0x767 SWAP1 POP PUSH2 0x757 JUMP JUMPDEST PUSH4 0x4E487B71 PUSH1 0xE0 SHL PUSH0 MSTORE PUSH1 0x22 PUSH1 0x4 MSTORE PUSH1 0x24 PUSH0 REVERT JUMPDEST SWAP2 PUSH1 0x7F AND SWAP2 PUSH2 0x73A JUMP JUMPDEST CALLVALUE PUSH2 0x23E JUMPI PUSH1 0x40 CALLDATASIZE PUSH1 0x3 NOT ADD SLT PUSH2 0x23E JUMPI PUSH2 0x82C PUSH2 0x125E JUMP JUMPDEST PUSH1 0x4 CALLDATALOAD PUSH0 MSTORE PUSH1 0x5 PUSH1 0x20 MSTORE PUSH1 0x40 PUSH0 KECCAK256 SWAP1 PUSH1 0x1 DUP1 PUSH1 0xA0 SHL SUB AND PUSH0 MSTORE PUSH1 0x20 MSTORE PUSH1 0x20 PUSH1 0xFF PUSH1 0x40 PUSH0 KECCAK256 SLOAD AND PUSH1 0x40 MLOAD SWAP1 ISZERO ISZERO DUP2 MSTORE RETURN JUMPDEST CALLVALUE PUSH2 0x23E JUMPI PUSH0 CALLDATASIZE PUSH1 0x3 NOT ADD SLT PUSH2 0x23E JUMPI PUSH1 0x20 PUSH1 0xF SLOAD PUSH1 0x40 MLOAD SWAP1 DUP2 MSTORE RETURN JUMPDEST CALLVALUE PUSH2 0x23E JUMPI PUSH1 0x40 CALLDATASIZE PUSH1 0x3 NOT ADD SLT PUSH2 0x23E JUMPI PUSH2 0x892 PUSH2 0x1274 JUMP JUMPDEST PUSH1 0x24 CALLDATALOAD SWAP1 PUSH2 0x89E PUSH2 0x133C JUMP JUMPDEST PUSH2 0x8A6 PUSH2 0x1392 JUMP JUMPDEST PUSH1 0xA SLOAD SWAP1 ISZERO ISZERO SWAP1 DUP2 PUSH1 0xFF DUP3 PUSH1 0x8 SHR AND ISZERO ISZERO SUB PUSH2 0x8FC JUMPI JUMPDEST POP DUP2 PUSH1 0xB SLOAD SUB PUSH2 0x8F3 JUMPI JUMPDEST PUSH32 0x5D394A4E9BD564F1A587773E5DBD3099A9E7B2FB0ECB2DBE1808AD21E9DC943E PUSH0 DUP1 LOG3 PUSH1 0x1 PUSH1 0x6 SSTORE STOP JUMPDEST DUP2 PUSH1 0xB SSTORE PUSH2 0x8C8 JUMP JUMPDEST PUSH2 0xFF00 NOT AND PUSH1 0x8 DUP3 SWAP1 SHL PUSH2 0xFF00 AND OR PUSH1 0xA SSTORE DUP3 PUSH2 0x8BD JUMP JUMPDEST CALLVALUE PUSH2 0x23E JUMPI PUSH1 0x20 CALLDATASIZE PUSH1 0x3 NOT ADD SLT PUSH2 0x23E JUMPI PUSH1 0x1 PUSH1 0x1 PUSH1 0xA0 SHL SUB PUSH2 0x935 PUSH2 0x1248 JUMP JUMPDEST AND PUSH0 MSTORE PUSH0 PUSH1 0x20 MSTORE PUSH1 0x20 PUSH1 0x40 PUSH0 KECCAK256 SLOAD PUSH1 0x40 MLOAD SWAP1 DUP2 MSTORE RETURN JUMPDEST CALLVALUE PUSH2 0x23E JUMPI PUSH0 CALLDATASIZE PUSH1 0x3 NOT ADD SLT PUSH2 0x23E JUMPI PUSH1 0x20 PUSH1 0xC SLOAD PUSH1 0x40 MLOAD SWAP1 DUP2 MSTORE RETURN JUMPDEST CALLVALUE PUSH2 0x23E JUMPI PUSH0 CALLDATASIZE PUSH1 0x3 NOT ADD SLT PUSH2 0x23E JUMPI PUSH1 0x20 PUSH1 0xFF PUSH1 0xA SLOAD AND PUSH1 0x40 MLOAD SWAP1 ISZERO ISZERO DUP2 MSTORE RETURN JUMPDEST CALLVALUE PUSH2 0x23E JUMPI PUSH0 CALLDATASIZE PUSH1 0x3 NOT ADD SLT PUSH2 0x23E JUMPI PUSH1 0x8 SLOAD PUSH1 0x40 MLOAD PUSH1 0x1 PUSH1 0x1 PUSH1 0xA0 SHL SUB SWAP1 SWAP2 AND DUP2 MSTORE PUSH1 0x20 SWAP1 RETURN JUMPDEST CALLVALUE PUSH2 0x23E JUMPI PUSH1 0x40 CALLDATASIZE PUSH1 0x3 NOT ADD SLT PUSH2 0x23E JUMPI PUSH2 0x9CB PUSH2 0x1274 JUMP JUMPDEST PUSH1 0x24 CALLDATALOAD SWAP1 PUSH2 0x9D7 PUSH2 0x133C JUMP JUMPDEST PUSH2 0x9DF PUSH2 0x1392 JUMP JUMPDEST PUSH1 0xD SLOAD SWAP1 ISZERO ISZERO SWAP1 DUP2 PUSH1 0xFF DUP3 AND ISZERO ISZERO SUB PUSH2 0xA32 JUMPI JUMPDEST POP DUP2 PUSH1 0xE SLOAD SUB PUSH2 0xA29 JUMPI JUMPDEST PUSH32 0x7BC6854EA2DD87A130378B485FB91A0EB3056211EE9B85CB67FABEF030C07350 PUSH0 DUP1 LOG3 PUSH1 0x1 PUSH1 0x6 SSTORE STOP JUMPDEST DUP2 PUSH1 0xE SSTORE PUSH2 0x9FE JUMP JUMPDEST PUSH1 0xFF NOT AND PUSH1 0xFF DUP3 AND OR PUSH1 0xD SSTORE DUP3 PUSH2 0x9F3 JUMP JUMPDEST CALLVALUE PUSH2 0x23E JUMPI PUSH1 0x20 CALLDATASIZE PUSH1 0x3 NOT ADD SLT PUSH2 0x23E JUMPI CALLER PUSH0 SWAP1 DUP2 MSTORE PUSH32 0x847F481F687BEFB06ED3511F1A8DCEF57E83007C0147AE5047583D7056170937 PUSH1 0x20 MSTORE PUSH1 0x40 SWAP1 KECCAK256 SLOAD PUSH1 0x4 CALLDATALOAD SWAP1 PUSH1 0xFF AND ISZERO PUSH2 0xB45 JUMPI CALLER ISZERO PUSH2 0xB32 JUMPI CALLER PUSH0 MSTORE PUSH0 PUSH1 0x20 MSTORE DUP1 PUSH1 0x40 PUSH0 KECCAK256 SLOAD DUP2 DUP2 LT PUSH2 0xB19 JUMPI CALLER PUSH0 MSTORE PUSH0 PUSH1 0x20 MSTORE SUB PUSH1 0x40 PUSH0 KECCAK256 SSTORE DUP1 PUSH1 0x2 SLOAD SUB PUSH1 0x2 SSTORE PUSH0 PUSH1 0x40 MLOAD DUP3 DUP2 MSTORE PUSH32 0xDDF252AD1BE2C89B69C2B068FC378DAA952BA7F163C4A11628F55A4DF523B3EF PUSH1 0x20 CALLER SWAP3 LOG3 PUSH1 0x40 MLOAD SWAP1 DUP2 MSTORE PUSH32 0x696DE425F79F4A40BC6D2122CA50507F0EFBEABBFF86A84871B7196AB8EA8DF7 PUSH1 0x20 CALLER SWAP3 LOG2 STOP JUMPDEST PUSH4 0x391434E3 PUSH1 0xE2 SHL PUSH0 MSTORE CALLER PUSH1 0x4 MSTORE PUSH1 0x24 MSTORE PUSH1 0x44 MSTORE PUSH1 0x64 PUSH0 REVERT JUMPDEST PUSH4 0x4B637E8F PUSH1 0xE1 SHL PUSH0 MSTORE PUSH0 PUSH1 0x4 MSTORE PUSH1 0x24 PUSH0 REVERT JUMPDEST PUSH4 0xE2517D3F PUSH1 0xE0 SHL PUSH0 MSTORE CALLER PUSH1 0x4 MSTORE PUSH32 0x3C11D16CBAFFD01DF69CE1C404F6340EE057498F5F00246190EA54220576A848 PUSH1 0x24 MSTORE PUSH1 0x44 PUSH0 REVERT JUMPDEST CALLVALUE PUSH2 0x23E JUMPI PUSH1 0x40 CALLDATASIZE PUSH1 0x3 NOT ADD SLT PUSH2 0x23E JUMPI PUSH2 0xB95 PUSH2 0x1248 JUMP JUMPDEST CALLER PUSH0 SWAP1 DUP2 MSTORE PUSH32 0x15A28D26FA1BF736CF7EDC9922607171CCB09C3C73B808E7772A3013E068A522 PUSH1 0x20 MSTORE PUSH1 0x40 SWAP1 KECCAK256 SLOAD PUSH1 0x24 CALLDATALOAD SWAP2 SWAP1 PUSH1 0xFF AND ISZERO PUSH2 0xC80 JUMPI PUSH1 0x1 PUSH1 0x1 PUSH1 0xA0 SHL SUB AND SWAP1 DUP2 ISZERO PUSH2 0xC6D JUMPI PUSH1 0x2 SLOAD DUP2 DUP2 ADD DUP1 SWAP2 GT PUSH2 0xC59 JUMPI PUSH32 0x30385C845B448A36257A6A1716E6AD2E1BC2CBE333CDE1E69FE849AD6511ADFE SWAP2 PUSH1 0x20 SWAP2 PUSH1 0x2 SSTORE DUP4 PUSH0 MSTORE PUSH0 DUP3 MSTORE PUSH1 0x40 PUSH0 KECCAK256 DUP2 DUP2 SLOAD ADD SWAP1 SSTORE DUP4 PUSH0 PUSH32 0xDDF252AD1BE2C89B69C2B068FC378DAA952BA7F163C4A11628F55A4DF523B3EF DUP5 PUSH1 0x40 MLOAD DUP6 DUP2 MSTORE LOG3 PUSH1 0x40 MLOAD SWAP1 DUP2 MSTORE LOG2 STOP JUMPDEST PUSH4 0x4E487B71 PUSH1 0xE0 SHL PUSH0 MSTORE PUSH1 0x11 PUSH1 0x4 MSTORE PUSH1 0x24 PUSH0 REVERT JUMPDEST PUSH4 0xEC442F05 PUSH1 0xE0 SHL PUSH0 MSTORE PUSH0 PUSH1 0x4 MSTORE PUSH1 0x24 PUSH0 REVERT JUMPDEST PUSH4 0xE2517D3F PUSH1 0xE0 SHL PUSH0 MSTORE CALLER PUSH1 0x4 MSTORE PUSH32 0x9F2DF0FED2C77648DE5860A4CC508CD0818C85B8B8A1AB4CEEEF8D981C8956A6 PUSH1 0x24 MSTORE PUSH1 0x44 PUSH0 REVERT JUMPDEST CALLVALUE PUSH2 0x23E JUMPI PUSH1 0x40 CALLDATASIZE PUSH1 0x3 NOT ADD SLT PUSH2 0x23E JUMPI PUSH2 0xCD0 PUSH2 0x125E JUMP JUMPDEST CALLER PUSH1 0x1 PUSH1 0x1 PUSH1 0xA0 SHL SUB DUP3 AND SUB PUSH2 0xCEC JUMPI PUSH2 0x4CA SWAP1 PUSH1 0x4 CALLDATALOAD PUSH2 0x155E JUMP JUMPDEST PUSH4 0x334BD919 PUSH1 0xE1 SHL PUSH0 MSTORE PUSH1 0x4 PUSH0 REVERT JUMPDEST CALLVALUE PUSH2 0x23E JUMPI PUSH0 CALLDATASIZE PUSH1 0x3 NOT ADD SLT PUSH2 0x23E JUMPI PUSH1 0x20 PUSH1 0x40 MLOAD PUSH1 0x12 DUP2 MSTORE RETURN JUMPDEST CALLVALUE PUSH2 0x23E JUMPI PUSH1 0x40 CALLDATASIZE PUSH1 0x3 NOT ADD SLT PUSH2 0x23E JUMPI PUSH2 0x4CA PUSH1 0x4 CALLDATALOAD PUSH2 0xD35 PUSH2 0x125E JUMP JUMPDEST SWAP1 PUSH2 0xD4F PUSH2 0x4C0 DUP3 PUSH0 MSTORE PUSH1 0x5 PUSH1 0x20 MSTORE PUSH1 0x1 PUSH1 0x40 PUSH0 KECCAK256 ADD SLOAD SWAP1 JUMP JUMPDEST PUSH2 0x14D2 JUMP JUMPDEST CALLVALUE PUSH2 0x23E JUMPI PUSH0 CALLDATASIZE PUSH1 0x3 NOT ADD SLT PUSH2 0x23E JUMPI PUSH1 0x20 PUSH1 0xB SLOAD PUSH1 0x40 MLOAD SWAP1 DUP2 MSTORE RETURN JUMPDEST CALLVALUE PUSH2 0x23E JUMPI PUSH1 0x20 CALLDATASIZE PUSH1 0x3 NOT ADD SLT PUSH2 0x23E JUMPI PUSH1 0x20 PUSH2 0xD9C PUSH1 0x4 CALLDATALOAD PUSH0 MSTORE PUSH1 0x5 PUSH1 0x20 MSTORE PUSH1 0x1 PUSH1 0x40 PUSH0 KECCAK256 ADD SLOAD SWAP1 JUMP JUMPDEST PUSH1 0x40 MLOAD SWAP1 DUP2 MSTORE RETURN JUMPDEST CALLVALUE PUSH2 0x23E JUMPI PUSH1 0x60 CALLDATASIZE PUSH1 0x3 NOT ADD SLT PUSH2 0x23E JUMPI PUSH2 0xDBD PUSH2 0x1248 JUMP JUMPDEST PUSH2 0xDC5 PUSH2 0x125E JUMP JUMPDEST PUSH1 0x1 PUSH1 0x1 PUSH1 0xA0 SHL SUB DUP3 AND PUSH0 DUP2 DUP2 MSTORE PUSH1 0x1 PUSH1 0x20 SWAP1 DUP2 MSTORE PUSH1 0x40 DUP1 DUP4 KECCAK256 CALLER DUP5 MSTORE SWAP1 SWAP2 MSTORE SWAP1 KECCAK256 SLOAD SWAP1 SWAP3 PUSH1 0x44 CALLDATALOAD SWAP3 SWAP2 PUSH0 NOT DUP2 LT PUSH2 0xE03 JUMPI JUMPDEST POP PUSH2 0x6C4 SWAP4 POP PUSH2 0x143B JUMP JUMPDEST DUP4 DUP2 LT PUSH2 0xE68 JUMPI DUP5 ISZERO PUSH2 0xE55 JUMPI CALLER ISZERO PUSH2 0xE42 JUMPI PUSH2 0x6C4 SWAP5 PUSH0 MSTORE PUSH1 0x1 PUSH1 0x20 MSTORE PUSH1 0x40 PUSH0 KECCAK256 PUSH1 0x1 DUP1 PUSH1 0xA0 SHL SUB CALLER AND PUSH0 MSTORE PUSH1 0x20 MSTORE DUP4 PUSH1 0x40 PUSH0 KECCAK256 SWAP2 SUB SWAP1 SSTORE DUP5 PUSH2 0xDF8 JUMP JUMPDEST PUSH4 0x4A1406B1 PUSH1 0xE1 SHL PUSH0 MSTORE PUSH0 PUSH1 0x4 MSTORE PUSH1 0x24 PUSH0 REVERT JUMPDEST PUSH4 0xE602DF05 PUSH1 0xE0 SHL PUSH0 MSTORE PUSH0 PUSH1 0x4 MSTORE PUSH1 0x24 PUSH0 REVERT JUMPDEST DUP4 SWAP1 PUSH4 0x7DC7A0D9 PUSH1 0xE1 SHL PUSH0 MSTORE CALLER PUSH1 0x4 MSTORE PUSH1 0x24 MSTORE PUSH1 0x44 MSTORE PUSH1 0x64 PUSH0 REVERT JUMPDEST CALLVALUE PUSH2 0x23E JUMPI PUSH0 CALLDATASIZE PUSH1 0x3 NOT ADD SLT PUSH2 0x23E JUMPI PUSH1 0x40 MLOAD PUSH32 0x0 PUSH1 0x1 PUSH1 0x1 PUSH1 0xA0 SHL SUB AND DUP2 MSTORE PUSH1 0x20 SWAP1 RETURN JUMPDEST CALLVALUE PUSH2 0x23E JUMPI PUSH0 CALLDATASIZE PUSH1 0x3 NOT ADD SLT PUSH2 0x23E JUMPI PUSH1 0x20 PUSH1 0x2 SLOAD PUSH1 0x40 MLOAD SWAP1 DUP2 MSTORE RETURN JUMPDEST CALLVALUE PUSH2 0x23E JUMPI PUSH0 CALLDATASIZE PUSH1 0x3 NOT ADD SLT PUSH2 0x23E JUMPI PUSH1 0x7 SLOAD PUSH1 0x40 MLOAD PUSH1 0x1 PUSH1 0x1 PUSH1 0xA0 SHL SUB SWAP1 SWAP2 AND DUP2 MSTORE PUSH1 0x20 SWAP1 RETURN JUMPDEST CALLVALUE PUSH2 0x23E JUMPI PUSH1 0x40 CALLDATASIZE PUSH1 0x3 NOT ADD SLT PUSH2 0x23E JUMPI PUSH2 0xF25 PUSH2 0x1248 JUMP JUMPDEST PUSH1 0x24 CALLDATALOAD SWAP1 DUP2 ISZERO ISZERO DUP1 SWAP3 SUB PUSH2 0x23E JUMPI PUSH2 0xF3B PUSH2 0x133C JUMP JUMPDEST PUSH2 0xF43 PUSH2 0x1392 JUMP JUMPDEST PUSH1 0x1 PUSH1 0x1 PUSH1 0xA0 SHL SUB AND PUSH0 DUP2 DUP2 MSTORE PUSH1 0x9 PUSH1 0x20 MSTORE PUSH1 0x40 SWAP1 KECCAK256 DUP1 SLOAD PUSH1 0xFF AND ISZERO ISZERO DUP4 SWAP1 SUB PUSH2 0xF6E JUMPI PUSH1 0x1 PUSH1 0x6 SSTORE STOP JUMPDEST PUSH1 0xFF NOT DUP2 SLOAD AND PUSH1 0xFF DUP5 AND OR SWAP1 SSTORE PUSH32 0xA534E7C418F24C958AF1E861A7AF8C6ECE8F5204EB8C33685AE7E16A1C2ADA42 PUSH0 DUP1 LOG3 DUP1 DUP1 DUP1 PUSH2 0x402 JUMP JUMPDEST PUSH1 0x40 CALLDATASIZE PUSH1 0x3 NOT ADD SLT PUSH2 0x23E JUMPI PUSH1 0x4 CALLDATALOAD PUSH1 0x1 PUSH1 0x1 PUSH1 0xA0 SHL SUB DUP2 AND SWAP1 DUP2 SWAP1 SUB PUSH2 0x23E JUMPI PUSH0 DUP1 DUP1 DUP1 SWAP4 PUSH1 0x24 CALLDATALOAD SWAP1 PUSH2 0xFD9 PUSH2 0x133C JUMP JUMPDEST PUSH2 0xFE1 PUSH2 0x1392 JUMP JUMPDEST PUSH2 0xFEC DUP2 ISZERO ISZERO PUSH2 0x1304 JUMP JUMPDEST DUP1 DUP4 PUSH32 0xFB475A842BAD10D3800B61BD1A92E716051AFBA979B124B583BD99A2D1D7BFD5 PUSH1 0x20 PUSH1 0x40 MLOAD DUP7 DUP2 MSTORE LOG3 GAS CALL RETURNDATASIZE ISZERO PUSH2 0x10A2 JUMPI RETURNDATASIZE PUSH8 0xFFFFFFFFFFFFFFFF DUP2 GT PUSH2 0x108E JUMPI PUSH1 0x40 MLOAD SWAP1 PUSH2 0x1048 PUSH1 0x1F DUP3 ADD PUSH1 0x1F NOT AND PUSH1 0x20 ADD DUP4 PUSH2 0x12E2 JUMP JUMPDEST DUP2 MSTORE PUSH0 PUSH1 0x20 RETURNDATASIZE SWAP3 ADD RETURNDATACOPY JUMPDEST ISZERO PUSH2 0x105E JUMPI PUSH1 0x1 PUSH1 0x6 SSTORE STOP JUMPDEST PUSH1 0x40 MLOAD PUSH3 0x461BCD PUSH1 0xE5 SHL DUP2 MSTORE PUSH1 0x20 PUSH1 0x4 DUP3 ADD MSTORE PUSH1 0x8 PUSH1 0x24 DUP3 ADD MSTORE PUSH8 0x1155120819985A5B PUSH1 0xC2 SHL PUSH1 0x44 DUP3 ADD MSTORE PUSH1 0x64 SWAP1 REVERT JUMPDEST PUSH4 0x4E487B71 PUSH1 0xE0 SHL PUSH0 MSTORE PUSH1 0x41 PUSH1 0x4 MSTORE PUSH1 0x24 PUSH0 REVERT JUMPDEST PUSH2 0x1052 JUMP JUMPDEST CALLVALUE PUSH2 0x23E JUMPI PUSH1 0x40 CALLDATASIZE PUSH1 0x3 NOT ADD SLT PUSH2 0x23E JUMPI PUSH2 0x10C0 PUSH2 0x1248 JUMP JUMPDEST PUSH1 0x24 CALLDATALOAD CALLER PUSH0 MSTORE PUSH1 0x1 PUSH1 0x20 MSTORE PUSH1 0x40 PUSH0 KECCAK256 PUSH1 0x1 DUP1 PUSH1 0xA0 SHL SUB DUP4 AND PUSH0 MSTORE PUSH1 0x20 MSTORE PUSH1 0x40 PUSH0 KECCAK256 SLOAD ISZERO ISZERO DUP1 PUSH2 0x1107 JUMPI JUMPDEST PUSH2 0x10F8 JUMPI PUSH2 0x6C4 SWAP2 CALLER PUSH2 0x15E2 JUMP JUMPDEST PUSH4 0x2279CC21 PUSH1 0xE0 SHL PUSH0 MSTORE PUSH1 0x4 PUSH0 REVERT JUMPDEST POP DUP1 ISZERO ISZERO PUSH2 0x10EA JUMP JUMPDEST CALLVALUE PUSH2 0x23E JUMPI PUSH0 CALLDATASIZE PUSH1 0x3 NOT ADD SLT PUSH2 0x23E JUMPI PUSH1 0x40 MLOAD PUSH0 PUSH1 0x3 SLOAD DUP1 PUSH1 0x1 SHR SWAP1 PUSH1 0x1 DUP2 AND DUP1 ISZERO PUSH2 0x11C1 JUMPI JUMPDEST PUSH1 0x20 DUP4 LT DUP2 EQ PUSH2 0x7F5 JUMPI DUP3 DUP6 MSTORE SWAP1 DUP2 ISZERO PUSH2 0x7D1 JUMPI POP PUSH1 0x1 EQ PUSH2 0x1163 JUMPI PUSH2 0x37E DUP4 PUSH2 0x767 DUP2 DUP6 SUB DUP3 PUSH2 0x12E2 JUMP JUMPDEST SWAP2 SWAP1 POP PUSH1 0x3 PUSH0 MSTORE PUSH32 0xC2575A0E9E593C00F959F8C92F12DB2869C3395A3B0502D05E2516446F71F85B SWAP2 PUSH0 SWAP1 JUMPDEST DUP1 DUP3 LT PUSH2 0x11A7 JUMPI POP SWAP1 SWAP2 POP DUP2 ADD PUSH1 0x20 ADD PUSH2 0x767 PUSH2 0x757 JUMP JUMPDEST SWAP2 SWAP3 PUSH1 0x1 DUP2 PUSH1 0x20 SWAP3 SLOAD DUP4 DUP6 DUP9 ADD ADD MSTORE ADD SWAP2 ADD SWAP1 SWAP3 SWAP2 PUSH2 0x118F JUMP JUMPDEST SWAP2 PUSH1 0x7F AND SWAP2 PUSH2 0x1137 JUMP JUMPDEST CALLVALUE PUSH2 0x23E JUMPI PUSH1 0x20 CALLDATASIZE PUSH1 0x3 NOT ADD SLT PUSH2 0x23E JUMPI PUSH1 0x4 CALLDATALOAD SWAP1 PUSH4 0xFFFFFFFF PUSH1 0xE0 SHL DUP3 AND DUP1 SWAP3 SUB PUSH2 0x23E JUMPI PUSH1 0x20 SWAP2 PUSH4 0x7965DB0B PUSH1 0xE0 SHL DUP2 EQ SWAP1 DUP2 ISZERO PUSH2 0x120D JUMPI JUMPDEST POP ISZERO ISZERO DUP2 MSTORE RETURN JUMPDEST PUSH4 0x1FFC9A7 PUSH1 0xE0 SHL EQ SWAP1 POP DUP4 PUSH2 0x1206 JUMP JUMPDEST PUSH1 0x20 PUSH1 0x40 SWAP3 DUP2 DUP4 MSTORE DUP1 MLOAD SWAP2 DUP3 SWAP2 DUP3 DUP3 DUP7 ADD MSTORE ADD DUP5 DUP5 ADD MCOPY PUSH0 DUP3 DUP3 ADD DUP5 ADD MSTORE PUSH1 0x1F ADD PUSH1 0x1F NOT AND ADD ADD SWAP1 JUMP JUMPDEST PUSH1 0x4 CALLDATALOAD SWAP1 PUSH1 0x1 PUSH1 0x1 PUSH1 0xA0 SHL SUB DUP3 AND DUP3 SUB PUSH2 0x23E JUMPI JUMP JUMPDEST PUSH1 0x24 CALLDATALOAD SWAP1 PUSH1 0x1 PUSH1 0x1 PUSH1 0xA0 SHL SUB DUP3 AND DUP3 SUB PUSH2 0x23E JUMPI JUMP JUMPDEST PUSH1 0x4 CALLDATALOAD SWAP1 DUP2 ISZERO ISZERO DUP3 SUB PUSH2 0x23E JUMPI JUMP JUMPDEST CALLVALUE PUSH2 0x23E JUMPI PUSH1 0x40 CALLDATASIZE PUSH1 0x3 NOT ADD SLT PUSH2 0x23E JUMPI PUSH2 0x129C PUSH2 0x1248 JUMP JUMPDEST POP PUSH1 0x40 MLOAD PUSH3 0x461BCD PUSH1 0xE5 SHL DUP2 MSTORE PUSH1 0x20 PUSH1 0x4 DUP3 ADD MSTORE PUSH1 0x1F PUSH1 0x24 DUP3 ADD MSTORE PUSH32 0x55736520617070726F7665282920746F2073657420746F203020666972737400 PUSH1 0x44 DUP3 ADD MSTORE PUSH1 0x64 SWAP1 REVERT JUMPDEST SWAP1 PUSH1 0x1F DUP1 NOT SWAP2 ADD AND DUP2 ADD SWAP1 DUP2 LT PUSH8 0xFFFFFFFFFFFFFFFF DUP3 GT OR PUSH2 0x108E JUMPI PUSH1 0x40 MSTORE JUMP JUMPDEST ISZERO PUSH2 0x130B JUMPI JUMP JUMPDEST PUSH1 0x40 MLOAD PUSH3 0x461BCD PUSH1 0xE5 SHL DUP2 MSTORE PUSH1 0x20 PUSH1 0x4 DUP3 ADD MSTORE PUSH1 0x9 PUSH1 0x24 DUP3 ADD MSTORE PUSH9 0x5A65726F2027746F27 PUSH1 0xB8 SHL PUSH1 0x44 DUP3 ADD MSTORE PUSH1 0x64 SWAP1 REVERT JUMPDEST PUSH1 0x2 PUSH1 0x6 SLOAD EQ PUSH2 0x134D JUMPI PUSH1 0x2 PUSH1 0x6 SSTORE JUMP JUMPDEST PUSH1 0x40 MLOAD PUSH3 0x461BCD PUSH1 0xE5 SHL DUP2 MSTORE PUSH1 0x20 PUSH1 0x4 DUP3 ADD MSTORE PUSH1 0x1F PUSH1 0x24 DUP3 ADD MSTORE PUSH32 0x5265656E7472616E637947756172643A207265656E7472616E742063616C6C00 PUSH1 0x44 DUP3 ADD MSTORE PUSH1 0x64 SWAP1 REVERT JUMPDEST CALLER PUSH0 SWAP1 DUP2 MSTORE PUSH32 0xD8EF4509105C3EDB0B04658B4528EDC5DDD30EA5A81E623A2623C88DB1EB54B6 PUSH1 0x20 MSTORE PUSH1 0x40 SWAP1 KECCAK256 SLOAD PUSH1 0xFF AND ISZERO PUSH2 0x13CA JUMPI JUMP JUMPDEST PUSH4 0xE2517D3F PUSH1 0xE0 SHL PUSH0 MSTORE CALLER PUSH1 0x4 MSTORE PUSH32 0xA49807205CE4D355092EF5A8A18F56E8913CF4A201FBE287825B095693C21775 PUSH1 0x24 MSTORE PUSH1 0x44 PUSH0 REVERT JUMPDEST PUSH0 DUP2 DUP2 MSTORE PUSH1 0x5 PUSH1 0x20 SWAP1 DUP2 MSTORE PUSH1 0x40 DUP1 DUP4 KECCAK256 CALLER DUP5 MSTORE SWAP1 SWAP2 MSTORE SWAP1 KECCAK256 SLOAD PUSH1 0xFF AND ISZERO PUSH2 0x1425 JUMPI POP JUMP JUMPDEST PUSH4 0xE2517D3F PUSH1 0xE0 SHL PUSH0 MSTORE CALLER PUSH1 0x4 MSTORE PUSH1 0x24 MSTORE PUSH1 0x44 PUSH0 REVERT JUMPDEST PUSH1 0x1 PUSH1 0x1 PUSH1 0xA0 SHL SUB AND SWAP1 DUP2 ISZERO PUSH2 0xB32 JUMPI PUSH1 0x1 PUSH1 0x1 PUSH1 0xA0 SHL SUB AND SWAP2 DUP3 ISZERO PUSH2 0xC6D JUMPI DUP2 PUSH0 MSTORE PUSH0 PUSH1 0x20 MSTORE PUSH1 0x40 PUSH0 KECCAK256 SLOAD DUP2 DUP2 LT PUSH2 0x14B9 JUMPI DUP2 PUSH32 0xDDF252AD1BE2C89B69C2B068FC378DAA952BA7F163C4A11628F55A4DF523B3EF SWAP3 PUSH1 0x20 SWAP3 DUP6 PUSH0 MSTORE PUSH0 DUP5 MSTORE SUB PUSH1 0x40 PUSH0 KECCAK256 SSTORE DUP5 PUSH0 MSTORE PUSH0 DUP3 MSTORE PUSH1 0x40 PUSH0 KECCAK256 DUP2 DUP2 SLOAD ADD SWAP1 SSTORE PUSH1 0x40 MLOAD SWAP1 DUP2 MSTORE LOG3 JUMP JUMPDEST DUP3 PUSH4 0x391434E3 PUSH1 0xE2 SHL PUSH0 MSTORE PUSH1 0x4 MSTORE PUSH1 0x24 MSTORE PUSH1 0x44 MSTORE PUSH1 0x64 PUSH0 REVERT JUMPDEST PUSH0 DUP2 DUP2 MSTORE PUSH1 0x5 PUSH1 0x20 SWAP1 DUP2 MSTORE PUSH1 0x40 DUP1 DUP4 KECCAK256 PUSH1 0x1 PUSH1 0x1 PUSH1 0xA0 SHL SUB DUP7 AND DUP5 MSTORE SWAP1 SWAP2 MSTORE SWAP1 KECCAK256 SLOAD PUSH1 0xFF AND PUSH2 0x1558 JUMPI PUSH0 DUP2 DUP2 MSTORE PUSH1 0x5 PUSH1 0x20 SWAP1 DUP2 MSTORE PUSH1 0x40 DUP1 DUP4 KECCAK256 PUSH1 0x1 PUSH1 0x1 PUSH1 0xA0 SHL SUB SWAP6 SWAP1 SWAP6 AND DUP1 DUP5 MSTORE SWAP5 SWAP1 SWAP2 MSTORE DUP2 KECCAK256 DUP1 SLOAD PUSH1 0xFF NOT AND PUSH1 0x1 OR SWAP1 SSTORE CALLER SWAP3 SWAP2 SWAP1 PUSH32 0x2F8788117E7EFF1D82E926EC794901D17C78024A50270940304540A733656F0D SWAP1 DUP1 LOG4 PUSH1 0x1 SWAP1 JUMP JUMPDEST POP POP PUSH0 SWAP1 JUMP JUMPDEST PUSH0 DUP2 DUP2 MSTORE PUSH1 0x5 PUSH1 0x20 SWAP1 DUP2 MSTORE PUSH1 0x40 DUP1 DUP4 KECCAK256 PUSH1 0x1 PUSH1 0x1 PUSH1 0xA0 SHL SUB DUP7 AND DUP5 MSTORE SWAP1 SWAP2 MSTORE SWAP1 KECCAK256 SLOAD PUSH1 0xFF AND ISZERO PUSH2 0x1558 JUMPI PUSH0 DUP2 DUP2 MSTORE PUSH1 0x5 PUSH1 0x20 SWAP1 DUP2 MSTORE PUSH1 0x40 DUP1 DUP4 KECCAK256 PUSH1 0x1 PUSH1 0x1 PUSH1 0xA0 SHL SUB SWAP6 SWAP1 SWAP6 AND DUP1 DUP5 MSTORE SWAP5 SWAP1 SWAP2 MSTORE DUP2 KECCAK256 DUP1 SLOAD PUSH1 0xFF NOT AND SWAP1 SSTORE CALLER SWAP3 SWAP2 SWAP1 PUSH32 0xF6391F5C32D9C69D2A47EA670B442974B53935D1EDC7FD64EB21E047A839171B SWAP1 DUP1 LOG4 PUSH1 0x1 SWAP1 JUMP JUMPDEST PUSH1 0x1 PUSH1 0x1 PUSH1 0xA0 SHL SUB AND SWAP1 DUP2 ISZERO PUSH2 0xE55 JUMPI PUSH1 0x1 PUSH1 0x1 PUSH1 0xA0 SHL SUB AND SWAP2 DUP3 ISZERO PUSH2 0xE42 JUMPI PUSH1 0x20 PUSH32 0x8C5BE1E5EBEC7D5BD14F71427D1E84F3DD0314C0F7B2291E5B200AC8C7C3B925 SWAP2 DUP4 PUSH0 MSTORE PUSH1 0x1 DUP3 MSTORE PUSH1 0x40 PUSH0 KECCAK256 DUP6 PUSH0 MSTORE DUP3 MSTORE DUP1 PUSH1 0x40 PUSH0 KECCAK256 SSTORE PUSH1 0x40 MLOAD SWAP1 DUP2 MSTORE LOG3 JUMP INVALID LOG2 PUSH5 0x6970667358 0x22 SLT KECCAK256 0x2F EXTCODESIZE 0xDC JUMP 0xA8 EXTCODESIZE DUP8 PUSH24 0x4368EB14D04AF7BEAF83758E6EA7217F4FE226E9D0394917 PUSH5 0x736F6C6343 STOP ADDMOD SHR STOP CALLER 0xBD PUSH26 0xB86FFE0AB8E8776151514217CD7CACD52C909F66475C3AF44E12 SWAP16 SIGNEXTEND STOP SELFDESTRUCT 0xD8 0xEF GASLIMIT MULMOD LT TLOAD RETURNDATACOPY 0xDB SIGNEXTEND DIV PUSH6 0x8B4528EDC5DD 0xD3 0xE 0xA5 0xA8 0x1E PUSH3 0x3A2623 0xC8 DUP14 0xB1 0xEB SLOAD 0xB6 LOG4 SWAP9 SMOD KECCAK256 TLOAD 0xE4 0xD3 SSTORE MULMOD 0x2E CREATE2 0xA8 LOG1 DUP16 JUMP 0xE8 SWAP2 EXTCODECOPY DELEGATECALL LOG2 ADD 0xFB 0xE2 DUP8 DUP3 JUMPDEST MULMOD JUMP SWAP4 0xC2 OR PUSH22 0x0 "
				},
				"gasEstimates": {
					"creation": {
						"codeDepositCost": "1151000",
						"executionCost": "infinite",
						"totalCost": "infinite"
					},
					"external": {
						"DEFAULT_ADMIN_ROLE()": "746",
						"addLiquidityETH(address,uint256,uint256,uint256,uint256)": "infinite",
						"allowance(address,address)": "3343",
						"approve(address,uint256)": "26695",
						"balanceOf(address)": "2867",
						"burn(uint256)": "54462",
						"cooldownEnabled()": "2928",
						"cooldownTime()": "2938",
						"daoAddress()": "infinite",
						"decimals()": "417",
						"decreaseAllowance(address,uint256)": "920",
						"getRoleAdmin(bytes32)": "2540",
						"grantRole(bytes32,address)": "33519",
						"hasRole(bytes32,address)": "3013",
						"increaseAllowance(address,uint256)": "612",
						"isBlacklisted(address)": "3251",
						"launchTimestamp()": "2696",
						"maxTxAmount()": "2762",
						"mint(address,uint256)": "54485",
						"name()": "infinite",
						"renounceRole(bytes32,address)": "29127",
						"rescueETH(address,uint256)": "infinite",
						"rescueTokens(address,uint256,address)": "infinite",
						"revokeRole(bytes32,address)": "34022",
						"setBlacklist(address,bool)": "76885",
						"setCooldownConfig(bool,uint256)": "82088",
						"setMaxTxAmount(uint256)": "57779",
						"setSniperProtection(bool,uint256)": "82213",
						"setTradingEnabled(bool)": "80010",
						"snipeTime()": "2476",
						"sniperProtectionEnabled()": "2846",
						"supportsInterface(bytes4)": "270",
						"symbol()": "infinite",
						"totalSupply()": "2388",
						"tradingEnabled()": "2686",
						"transfer(address,uint256)": "51392",
						"transferFrom(address,address,uint256)": "75633",
						"uniswapV2Pair()": "2676",
						"uniswapV2Router()": "2390"
					},
					"internal": {
						"_beforeTokenTransfer(address,address,uint256)": "infinite"
					}
				},
				"methodIdentifiers": {
					"DEFAULT_ADMIN_ROLE()": "a217fddf",
					"addLiquidityETH(address,uint256,uint256,uint256,uint256)": "f6f1e306",
					"allowance(address,address)": "dd62ed3e",
					"approve(address,uint256)": "095ea7b3",
					"balanceOf(address)": "70a08231",
					"burn(uint256)": "42966c68",
					"cooldownEnabled()": "a985ceef",
					"cooldownTime()": "b319c6b7",
					"daoAddress()": "2131c68c",
					"decimals()": "313ce567",
					"decreaseAllowance(address,uint256)": "a457c2d7",
					"getRoleAdmin(bytes32)": "248a9ca3",
					"grantRole(bytes32,address)": "2f2ff15d",
					"hasRole(bytes32,address)": "91d14854",
					"increaseAllowance(address,uint256)": "39509351",
					"isBlacklisted(address)": "fe575a87",
					"launchTimestamp()": "65cf7c9b",
					"maxTxAmount()": "8c0b5e22",
					"mint(address,uint256)": "40c10f19",
					"name()": "06fdde03",
					"renounceRole(bytes32,address)": "36568abe",
					"rescueETH(address,uint256)": "099a04e5",
					"rescueTokens(address,uint256,address)": "b37fd190",
					"revokeRole(bytes32,address)": "d547741f",
					"setBlacklist(address,bool)": "153b0d1e",
					"setCooldownConfig(bool,uint256)": "48fca59d",
					"setMaxTxAmount(uint256)": "ec28438a",
					"setSniperProtection(bool,uint256)": "89900603",
					"setTradingEnabled(bool)": "c2e5ec04",
					"snipeTime()": "2618f214",
					"sniperProtectionEnabled()": "963472f9",
					"supportsInterface(bytes4)": "01ffc9a7",
					"symbol()": "95d89b41",
					"totalSupply()": "18160ddd",
					"tradingEnabled()": "4ada218b",
					"transfer(address,uint256)": "a9059cbb",
					"transferFrom(address,address,uint256)": "23b872dd",
					"uniswapV2Pair()": "49bd5a5e",
					"uniswapV2Router()": "1694505e"
				}
			},
			"storageLayout": {
				"storage": [
					{
						"astId": 603,
						"contract": "contracts/WallyToken.sol:WallyToken",
						"label": "_balances",
						"offset": 0,
						"slot": "0",
						"type": "t_mapping(t_address,t_uint256)"
					},
					{
						"astId": 609,
						"contract": "contracts/WallyToken.sol:WallyToken",
						"label": "_allowances",
						"offset": 0,
						"slot": "1",
						"type": "t_mapping(t_address,t_mapping(t_address,t_uint256))"
					},
					{
						"astId": 611,
						"contract": "contracts/WallyToken.sol:WallyToken",
						"label": "_totalSupply",
						"offset": 0,
						"slot": "2",
						"type": "t_uint256"
					},
					{
						"astId": 613,
						"contract": "contracts/WallyToken.sol:WallyToken",
						"label": "_name",
						"offset": 0,
						"slot": "3",
						"type": "t_string_storage"
					},
					{
						"astId": 615,
						"contract": "contracts/WallyToken.sol:WallyToken",
						"label": "_symbol",
						"offset": 0,
						"slot": "4",
						"type": "t_string_storage"
					},
					{
						"astId": 26,
						"contract": "contracts/WallyToken.sol:WallyToken",
						"label": "_roles",
						"offset": 0,
						"slot": "5",
						"type": "t_mapping(t_bytes32,t_struct(RoleData)21_storage)"
					},
					{
						"astId": 526,
						"contract": "contracts/WallyToken.sol:WallyToken",
						"label": "_status",
						"offset": 0,
						"slot": "6",
						"type": "t_uint256"
					},
					{
						"astId": 1358,
						"contract": "contracts/WallyToken.sol:WallyToken",
						"label": "_uniswapV2Router",
						"offset": 0,
						"slot": "7",
						"type": "t_contract(IUniswapV2Router02)1326"
					},
					{
						"astId": 1360,
						"contract": "contracts/WallyToken.sol:WallyToken",
						"label": "_uniswapV2Pair",
						"offset": 0,
						"slot": "8",
						"type": "t_address"
					},
					{
						"astId": 1370,
						"contract": "contracts/WallyToken.sol:WallyToken",
						"label": "_userData",
						"offset": 0,
						"slot": "9",
						"type": "t_mapping(t_address,t_struct(UserData)1365_storage)"
					},
					{
						"astId": 1372,
						"contract": "contracts/WallyToken.sol:WallyToken",
						"label": "_tradingEnabled",
						"offset": 0,
						"slot": "10",
						"type": "t_bool"
					},
					{
						"astId": 1374,
						"contract": "contracts/WallyToken.sol:WallyToken",
						"label": "_sniperProtectionEnabled",
						"offset": 1,
						"slot": "10",
						"type": "t_bool"
					},
					{
						"astId": 1377,
						"contract": "contracts/WallyToken.sol:WallyToken",
						"label": "_snipeTime",
						"offset": 0,
						"slot": "11",
						"type": "t_uint256"
					},
					{
						"astId": 1379,
						"contract": "contracts/WallyToken.sol:WallyToken",
						"label": "_launchTimestamp",
						"offset": 0,
						"slot": "12",
						"type": "t_uint256"
					},
					{
						"astId": 1381,
						"contract": "contracts/WallyToken.sol:WallyToken",
						"label": "_cooldownEnabled",
						"offset": 0,
						"slot": "13",
						"type": "t_bool"
					},
					{
						"astId": 1384,
						"contract": "contracts/WallyToken.sol:WallyToken",
						"label": "_cooldownTime",
						"offset": 0,
						"slot": "14",
						"type": "t_uint256"
					},
					{
						"astId": 1386,
						"contract": "contracts/WallyToken.sol:WallyToken",
						"label": "_maxTxAmount",
						"offset": 0,
						"slot": "15",
						"type": "t_uint256"
					}
				],
				"types": {
					"t_address": {
						"encoding": "inplace",
						"label": "address",
						"numberOfBytes": "20"
					},
					"t_bool": {
						"encoding": "inplace",
						"label": "bool",
						"numberOfBytes": "1"
					},
					"t_bytes32": {
						"encoding": "inplace",
						"label": "bytes32",
						"numberOfBytes": "32"
					},
					"t_contract(IUniswapV2Router02)1326": {
						"encoding": "inplace",
						"label": "contract IUniswapV2Router02",
						"numberOfBytes": "20"
					},
					"t_mapping(t_address,t_bool)": {
						"encoding": "mapping",
						"key": "t_address",
						"label": "mapping(address => bool)",
						"numberOfBytes": "32",
						"value": "t_bool"
					},
					"t_mapping(t_address,t_mapping(t_address,t_uint256))": {
						"encoding": "mapping",
						"key": "t_address",
						"label": "mapping(address => mapping(address => uint256))",
						"numberOfBytes": "32",
						"value": "t_mapping(t_address,t_uint256)"
					},
					"t_mapping(t_address,t_struct(UserData)1365_storage)": {
						"encoding": "mapping",
						"key": "t_address",
						"label": "mapping(address => struct WallyToken.UserData)",
						"numberOfBytes": "32",
						"value": "t_struct(UserData)1365_storage"
					},
					"t_mapping(t_address,t_uint256)": {
						"encoding": "mapping",
						"key": "t_address",
						"label": "mapping(address => uint256)",
						"numberOfBytes": "32",
						"value": "t_uint256"
					},
					"t_mapping(t_bytes32,t_struct(RoleData)21_storage)": {
						"encoding": "mapping",
						"key": "t_bytes32",
						"label": "mapping(bytes32 => struct AccessControl.RoleData)",
						"numberOfBytes": "32",
						"value": "t_struct(RoleData)21_storage"
					},
					"t_string_storage": {
						"encoding": "bytes",
						"label": "string",
						"numberOfBytes": "32"
					},
					"t_struct(RoleData)21_storage": {
						"encoding": "inplace",
						"label": "struct AccessControl.RoleData",
						"members": [
							{
								"astId": 18,
								"contract": "contracts/WallyToken.sol:WallyToken",
								"label": "hasRole",
								"offset": 0,
								"slot": "0",
								"type": "t_mapping(t_address,t_bool)"
							},
							{
								"astId": 20,
								"contract": "contracts/WallyToken.sol:WallyToken",
								"label": "adminRole",
								"offset": 0,
								"slot": "1",
								"type": "t_bytes32"
							}
						],
						"numberOfBytes": "64"
					},
					"t_struct(UserData)1365_storage": {
						"encoding": "inplace",
						"label": "struct WallyToken.UserData",
						"members": [
							{
								"astId": 1362,
								"contract": "contracts/WallyToken.sol:WallyToken",
								"label": "blacklisted",
								"offset": 0,
								"slot": "0",
								"type": "t_bool"
							},
							{
								"astId": 1364,
								"contract": "contracts/WallyToken.sol:WallyToken",
								"label": "lastTx",
								"offset": 0,
								"slot": "1",
								"type": "t_uint256"
							}
						],
						"numberOfBytes": "64"
					},
					"t_uint256": {
						"encoding": "inplace",
						"label": "uint256",
						"numberOfBytes": "32"
					}
				}
			},
			"userdoc": {
				"kind": "user",
				"methods": {},
				"version": 1
			}
		}
	}
}