{
	"contracts/WallyVesting.sol": {
		"WallyVesting": {
			"abi": [
				{
					"inputs": [
						{
							"internalType": "address",
							"name": "token_",
							"type": "address"
						},
						{
							"internalType": "address",
							"name": "beneficiary_",
							"type": "address"
						},
						{
							"internalType": "uint256",
							"name": "start_",
							"type": "uint256"
						},
						{
							"internalType": "uint256",
							"name": "cliffDuration_",
							"type": "uint256"
						},
						{
							"internalType": "uint256",
							"name": "duration_",
							"type": "uint256"
						},
						{
							"internalType": "address",
							"name": "admin_",
							"type": "address"
						}
					],
					"stateMutability": "payable",
					"type": "constructor"
				},
				{
					"inputs": [],
					"name": "AccessControlBadConfirmation",
					"type": "error"
				},
				{
					"inputs": [
						{
							"internalType": "address",
							"name": "account",
							"type": "address"
						},
						{
							"internalType": "bytes32",
							"name": "neededRole",
							"type": "bytes32"
						}
					],
					"name": "AccessControlUnauthorizedAccount",
					"type": "error"
				},
				{
					"inputs": [],
					"name": "CliffGreaterThanDuration",
					"type": "error"
				},
				{
					"inputs": [],
					"name": "InvalidAddress",
					"type": "error"
				},
				{
					"inputs": [],
					"name": "NotAuthorized",
					"type": "error"
				},
				{
					"inputs": [],
					"name": "NothingToRelease",
					"type": "error"
				},
				{
					"inputs": [
						{
							"internalType": "address",
							"name": "token",
							"type": "address"
						}
					],
					"name": "SafeERC20FailedOperation",
					"type": "error"
				},
				{
					"inputs": [],
					"name": "VestingRevokedAlready",
					"type": "error"
				},
				{
					"anonymous": false,
					"inputs": [
						{
							"indexed": true,
							"internalType": "bytes32",
							"name": "role",
							"type": "bytes32"
						},
						{
							"indexed": true,
							"internalType": "bytes32",
							"name": "previousAdminRole",
							"type": "bytes32"
						},
						{
							"indexed": true,
							"internalType": "bytes32",
							"name": "newAdminRole",
							"type": "bytes32"
						}
					],
					"name": "RoleAdminChanged",
					"type": "event"
				},
				{
					"anonymous": false,
					"inputs": [
						{
							"indexed": true,
							"internalType": "bytes32",
							"name": "role",
							"type": "bytes32"
						},
						{
							"indexed": true,
							"internalType": "address",
							"name": "account",
							"type": "address"
						},
						{
							"indexed": true,
							"internalType": "address",
							"name": "sender",
							"type": "address"
						}
					],
					"name": "RoleGranted",
					"type": "event"
				},
				{
					"anonymous": false,
					"inputs": [
						{
							"indexed": true,
							"internalType": "bytes32",
							"name": "role",
							"type": "bytes32"
						},
						{
							"indexed": true,
							"internalType": "address",
							"name": "account",
							"type": "address"
						},
						{
							"indexed": true,
							"internalType": "address",
							"name": "sender",
							"type": "address"
						}
					],
					"name": "RoleRevoked",
					"type": "event"
				},
				{
					"anonymous": false,
					"inputs": [
						{
							"indexed": false,
							"internalType": "uint256",
							"name": "amount",
							"type": "uint256"
						}
					],
					"name": "TokensReleased",
					"type": "event"
				},
				{
					"anonymous": false,
					"inputs": [],
					"name": "VestingRevoked",
					"type": "event"
				},
				{
					"inputs": [],
					"name": "DEFAULT_ADMIN_ROLE",
					"outputs": [
						{
							"internalType": "bytes32",
							"name": "",
							"type": "bytes32"
						}
					],
					"stateMutability": "view",
					"type": "function"
				},
				{
					"inputs": [],
					"name": "getBeneficiary",
					"outputs": [
						{
							"internalType": "address",
							"name": "",
							"type": "address"
						}
					],
					"stateMutability": "view",
					"type": "function"
				},
				{
					"inputs": [],
					"name": "getCliff",
					"outputs": [
						{
							"internalType": "uint256",
							"name": "",
							"type": "uint256"
						}
					],
					"stateMutability": "view",
					"type": "function"
				},
				{
					"inputs": [],
					"name": "getDuration",
					"outputs": [
						{
							"internalType": "uint256",
							"name": "",
							"type": "uint256"
						}
					],
					"stateMutability": "view",
					"type": "function"
				},
				{
					"inputs": [
						{
							"internalType": "bytes32",
							"name": "role",
							"type": "bytes32"
						}
					],
					"name": "getRoleAdmin",
					"outputs": [
						{
							"internalType": "bytes32",
							"name": "",
							"type": "bytes32"
						}
					],
					"stateMutability": "view",
					"type": "function"
				},
				{
					"inputs": [],
					"name": "getStart",
					"outputs": [
						{
							"internalType": "uint256",
							"name": "",
							"type": "uint256"
						}
					],
					"stateMutability": "view",
					"type": "function"
				},
				{
					"inputs": [],
					"name": "getToken",
					"outputs": [
						{
							"internalType": "contract IERC20",
							"name": "",
							"type": "address"
						}
					],
					"stateMutability": "view",
					"type": "function"
				},
				{
					"inputs": [
						{
							"internalType": "bytes32",
							"name": "role",
							"type": "bytes32"
						},
						{
							"internalType": "address",
							"name": "account",
							"type": "address"
						}
					],
					"name": "grantRole",
					"outputs": [],
					"stateMutability": "nonpayable",
					"type": "function"
				},
				{
					"inputs": [
						{
							"internalType": "bytes32",
							"name": "role",
							"type": "bytes32"
						},
						{
							"internalType": "address",
							"name": "account",
							"type": "address"
						}
					],
					"name": "hasRole",
					"outputs": [
						{
							"internalType": "bool",
							"name": "",
							"type": "bool"
						}
					],
					"stateMutability": "view",
					"type": "function"
				},
				{
					"inputs": [],
					"name": "isRevoked",
					"outputs": [
						{
							"internalType": "bool",
							"name": "",
							"type": "bool"
						}
					],
					"stateMutability": "view",
					"type": "function"
				},
				{
					"inputs": [],
					"name": "releasableAmount",
					"outputs": [
						{
							"internalType": "uint256",
							"name": "releasableTokens",
							"type": "uint256"
						}
					],
					"stateMutability": "view",
					"type": "function"
				},
				{
					"inputs": [],
					"name": "release",
					"outputs": [],
					"stateMutability": "nonpayable",
					"type": "function"
				},
				{
					"inputs": [
						{
							"internalType": "bytes32",
							"name": "role",
							"type": "bytes32"
						},
						{
							"internalType": "address",
							"name": "callerConfirmation",
							"type": "address"
						}
					],
					"name": "renounceRole",
					"outputs": [],
					"stateMutability": "nonpayable",
					"type": "function"
				},
				{
					"inputs": [],
					"name": "revoke",
					"outputs": [],
					"stateMutability": "nonpayable",
					"type": "function"
				},
				{
					"inputs": [
						{
							"internalType": "bytes32",
							"name": "role",
							"type": "bytes32"
						},
						{
							"internalType": "address",
							"name": "account",
							"type": "address"
						}
					],
					"name": "revokeRole",
					"outputs": [],
					"stateMutability": "nonpayable",
					"type": "function"
				},
				{
					"inputs": [
						{
							"internalType": "bytes4",
							"name": "interfaceId",
							"type": "bytes4"
						}
					],
					"name": "supportsInterface",
					"outputs": [
						{
							"internalType": "bool",
							"name": "",
							"type": "bool"
						}
					],
					"stateMutability": "view",
					"type": "function"
				},
				{
					"inputs": [],
					"name": "totalReleased",
					"outputs": [
						{
							"internalType": "uint256",
							"name": "",
							"type": "uint256"
						}
					],
					"stateMutability": "view",
					"type": "function"
				},
				{
					"inputs": [],
					"name": "vestedAmount",
					"outputs": [
						{
							"internalType": "uint256",
							"name": "vestedTokens",
							"type": "uint256"
						}
					],
					"stateMutability": "view",
					"type": "function"
				}
			],
			"evm": {
				"assembly": "    /* \"contracts/WallyVesting.sol\":1391:9243  contract WallyVesting is AccessControl, ReentrancyGuard {... */\n  0x0120\n  0x1f\n  bytecodeSize\n  codesize\n  dup2\n  swap1\n  sub\n  swap2\n  dup3\n  add\n  not(0x1f)\n  and\n  dup4\n  add\n  swap2\n  sub(shl(0x40, 0x01), 0x01)\n  dup4\n  gt\n  dup5\n  dup5\n  lt\n  or\n  tag_3\n  jumpi\n  dup1\n  dup5\n  swap3\n  0xc0\n  swap5\n  0x40\n  mstore\n  dup4\n  codecopy\n  dup2\n  add\n  sub\n  slt\n  tag_5\n  jumpi\n  tag_7\n  dup2\n  tag_1\n  jump\t// in\ntag_7:\n  tag_8\n  0x20\n  dup4\n  add\n  tag_1\n  jump\t// in\ntag_8:\n  swap1\n  0x40\n  dup4\n  add\n  mload\n  swap2\n  0x60\n  dup5\n  add\n  mload\n  swap2\n  tag_9\n  0xa0\n  0x80\n  dup8\n  add\n  mload\n  swap7\n  add\n  tag_1\n  jump\t// in\ntag_9:\n  0x01\n    /* \"@openzeppelin/contracts/security/ReentrancyGuard.sol\":1716:1717  1 */\n  dup1\n  sstore\n  sub(shl(0xa0, 0x01), 0x01)\n    /* \"contracts/WallyVesting.sol\":1391:9243  contract WallyVesting is AccessControl, ReentrancyGuard {... */\n  swap1\n  swap2\n  and\n  swap1\n    /* \"contracts/WallyVesting.sol\":2721:2741  token_ == address(0) */\n  dup2\n  iszero\n    /* \"contracts/WallyVesting.sol\":2717:2766  if (token_ == address(0)) revert InvalidAddress() */\n  tag_14\n  jumpi\n  sub(shl(0xa0, 0x01), 0x01)\n    /* \"contracts/WallyVesting.sol\":1391:9243  contract WallyVesting is AccessControl, ReentrancyGuard {... */\n  dup4\n  and\n    /* \"contracts/WallyVesting.sol\":2780:2806  beneficiary_ == address(0) */\n  iszero\n    /* \"contracts/WallyVesting.sol\":2776:2831  if (beneficiary_ == address(0)) revert InvalidAddress() */\n  tag_14\n  jumpi\n  sub(shl(0xa0, 0x01), 0x01)\n    /* \"contracts/WallyVesting.sol\":1391:9243  contract WallyVesting is AccessControl, ReentrancyGuard {... */\n  dup2\n  and\n    /* \"contracts/WallyVesting.sol\":2845:2865  admin_ == address(0) */\n  iszero\n    /* \"contracts/WallyVesting.sol\":2841:2890  if (admin_ == address(0)) revert InvalidAddress() */\n  tag_14\n  jumpi\n    /* \"contracts/WallyVesting.sol\":1391:9243  contract WallyVesting is AccessControl, ReentrancyGuard {... */\n  0x01\n  dup7\n  add\n  dup1\n  dup8\n  gt\n  tag_21\n  jumpi\n    /* \"contracts/WallyVesting.sol\":2904:2935  cliffDuration_ >= duration_ + 1 */\n  dup5\n  lt\n  iszero\n    /* \"contracts/WallyVesting.sol\":2900:2970  if (cliffDuration_ >= duration_ + 1) revert CliffGreaterThanDuration() */\n  tag_18\n  jumpi\n    /* \"contracts/WallyVesting.sol\":2981:3011  _grantRole(ADMIN_ROLE, admin_) */\n  tag_20\n  swap1\n  tag_2\n  jump\t// in\ntag_20:\n  pop\n    /* \"contracts/WallyVesting.sol\":1391:9243  contract WallyVesting is AccessControl, ReentrancyGuard {... */\n  0x80\n    /* \"contracts/WallyVesting.sol\":3022:3051  _token       = IERC20(token_) */\n  mstore\n    /* \"contracts/WallyVesting.sol\":1391:9243  contract WallyVesting is AccessControl, ReentrancyGuard {... */\n  0xa0\n    /* \"contracts/WallyVesting.sol\":3061:3088  _beneficiary = beneficiary_ */\n  mstore\n    /* \"contracts/WallyVesting.sol\":3098:3119  _start       = start_ */\n  dup2\n  0xe0\n  mstore\n    /* \"contracts/WallyVesting.sol\":1391:9243  contract WallyVesting is AccessControl, ReentrancyGuard {... */\n  dup2\n  add\n  dup1\n  swap2\n  gt\n  tag_21\n  jumpi\n  0xc0\n    /* \"contracts/WallyVesting.sol\":3129:3167  _cliff       = start_ + cliffDuration_ */\n  mstore\n    /* \"contracts/WallyVesting.sol\":3177:3201  _duration    = duration_ */\n  0x0100\n  mstore\n    /* \"contracts/WallyVesting.sol\":1391:9243  contract WallyVesting is AccessControl, ReentrancyGuard {... */\n  mload(0x40)\n  dataSize(sub_0)\n  swap1\n  dup2\n  dataOffset(sub_0)\n  dup3\n  codecopy\n  mload(0x80)\n  dup2\n  assignImmutable(\"0x9868493de459c15d8892dc20f1eb084d4f81f9fb52da16094bbcd0adbccf53aa\")\n  mload(0xa0)\n  dup2\n  assignImmutable(\"0xcbd294e0eaf674a37cbfe1697122b5bc2363395b1d4728ebd5c75eb9d8757892\")\n  mload(0xc0)\n  dup2\n  assignImmutable(\"0x2e415caec8d91e458e1b9987576611b087b1a3cc6a704a90bb9e06da9759f8e6\")\n    /* \"contracts/WallyVesting.sol\":3098:3119  _start       = start_ */\n  0xe0\n    /* \"contracts/WallyVesting.sol\":1391:9243  contract WallyVesting is AccessControl, ReentrancyGuard {... */\n  mload\n  dup2\n  assignImmutable(\"0xb0f58b310312c6d34ea4c7502a6d13b434abf5a24e5c74332758b4563060a29a\")\n    /* \"contracts/WallyVesting.sol\":3177:3201  _duration    = duration_ */\n  0x0100\n    /* \"contracts/WallyVesting.sol\":1391:9243  contract WallyVesting is AccessControl, ReentrancyGuard {... */\n  mload\n  dup2\n  assignImmutable(\"0x161161210e6355a6429545d364ec3540b64c310bda58f2fa5c14e891124edb12\")\n  return\ntag_21:\n  mstore(0x00, shl(0xe0, 0x4e487b71))\n  mstore(0x04, 0x11)\n  revert(0x00, 0x24)\n    /* \"contracts/WallyVesting.sol\":2900:2970  if (cliffDuration_ >= duration_ + 1) revert CliffGreaterThanDuration() */\ntag_18:\n    /* \"contracts/WallyVesting.sol\":2944:2970  CliffGreaterThanDuration() */\n  mstore(0x00, shl(0xe0, 0x67f675ff))\n  revert(0x00, 0x04)\n    /* \"contracts/WallyVesting.sol\":2841:2890  if (admin_ == address(0)) revert InvalidAddress() */\ntag_14:\n    /* \"contracts/WallyVesting.sol\":2750:2766  InvalidAddress() */\n  shl(0xe0, 0xe6c4247b)\n  0x00\n    /* \"contracts/WallyVesting.sol\":2874:2890  InvalidAddress() */\n  mstore\n  revert(0x00, 0x04)\n    /* \"contracts/WallyVesting.sol\":1391:9243  contract WallyVesting is AccessControl, ReentrancyGuard {... */\ntag_5:\n  0x00\n  dup1\n  revert\ntag_3:\n  mstore(0x00, shl(0xe0, 0x4e487b71))\n  mstore(0x04, 0x41)\n  revert(0x00, 0x24)\ntag_1:\n  mload\n  swap1\n  sub(shl(0xa0, 0x01), 0x01)\n  dup3\n  and\n  dup3\n  sub\n  tag_5\n  jumpi\n  jump\t// out\n    /* \"@openzeppelin/contracts/access/AccessControl.sol\":6179:6495  function _grantRole(bytes32 role, address account) internal virtual returns (bool) {... */\ntag_2:\n  sub(shl(0xa0, 0x01), 0x01)\n    /* \"contracts/WallyVesting.sol\":1391:9243  contract WallyVesting is AccessControl, ReentrancyGuard {... */\n  dup2\n  and\n  0x00\n  swap1\n  dup2\n  mstore\n  mload(0x00)\n  codecopy(0x00, data_27ad65e758a22f2fe9f0d501da4e2a54eb635546ab8210118501a36d81e3b048, 0x20)\n  mload(0x00)\n  swap1\n  0x00\n  mstore\n  0x20\n  mstore\n  0x40\n  swap1\n  keccak256\n  sload\n  0xff\n  and\n  tag_25\n  jumpi\n  sub(shl(0xa0, 0x01), 0x01)\n  and\n  0x00\n  dup2\n  dup2\n  mstore\n  mload(0x00)\n  codecopy(0x00, data_27ad65e758a22f2fe9f0d501da4e2a54eb635546ab8210118501a36d81e3b048, 0x20)\n  mload(0x00)\n  swap1\n  0x00\n  mstore\n  0x20\n  mstore\n  0x40\n  dup2\n  keccak256\n  dup1\n  sload\n  not(0xff)\n  and\n  0x01\n  or\n  swap1\n  sstore\n    /* \"@openzeppelin/contracts/utils/Context.sol\":735:745  msg.sender */\n  caller\n  swap2\n    /* \"contracts/WallyVesting.sol\":1391:9243  contract WallyVesting is AccessControl, ReentrancyGuard {... */\n  swap1\n    /* \"contracts/WallyVesting.sol\":1565:1588  keccak256(\"ADMIN_ROLE\") */\n  0xa49807205ce4d355092ef5a8a18f56e8913cf4a201fbe287825b095693c21775\n  swap1\n    /* \"@openzeppelin/contracts/access/AccessControl.sol\":6370:6410  RoleGranted(role, account, _msgSender()) */\n  0x2f8788117e7eff1d82e926ec794901d17c78024a50270940304540a733656f0d\n  swap1\n    /* \"contracts/WallyVesting.sol\":1391:9243  contract WallyVesting is AccessControl, ReentrancyGuard {... */\n  dup1\n    /* \"@openzeppelin/contracts/access/AccessControl.sol\":6370:6410  RoleGranted(role, account, _msgSender()) */\n  log4\n    /* \"@openzeppelin/contracts/access/AccessControl.sol\":6347:6351  true */\n  0x01\n    /* \"@openzeppelin/contracts/access/AccessControl.sol\":6424:6435  return true */\n  swap1\n  jump\t// out\n    /* \"@openzeppelin/contracts/access/AccessControl.sol\":6272:6489  if (!hasRole(role, account)) {... */\ntag_25:\n    /* \"@openzeppelin/contracts/access/AccessControl.sol\":6466:6478  return false */\n  pop\n    /* \"contracts/WallyVesting.sol\":1391:9243  contract WallyVesting is AccessControl, ReentrancyGuard {... */\n  0x00\n    /* \"@openzeppelin/contracts/access/AccessControl.sol\":6466:6478  return false */\n  swap1\n  jump\t// out\nstop\ndata_27ad65e758a22f2fe9f0d501da4e2a54eb635546ab8210118501a36d81e3b048 7d7ffb7a348e1c6a02869081a26547b49160dd3df72d1d75a570eb9b698292ec\n\nsub_0: assembly {\n        /* \"contracts/WallyVesting.sol\":1391:9243  contract WallyVesting is AccessControl, ReentrancyGuard {... */\n      0x80\n      dup1\n      0x40\n      mstore\n      jumpi(tag_12, iszero(lt(calldatasize, 0x04)))\n      0x00\n      dup1\n      revert\n    tag_12:\n      shr(0xe0, calldataload(0x00))\n      swap1\n      dup2\n      0x01ffc9a7\n      eq\n      tag_14\n      jumpi\n      pop\n      dup1\n      0x21df0da7\n      eq\n      tag_16\n      jumpi\n      dup1\n      0x248a9ca3\n      eq\n      tag_18\n      jumpi\n      dup1\n      0x2bc9ed02\n      eq\n      tag_20\n      jumpi\n      dup1\n      0x2f2ff15d\n      eq\n      tag_22\n      jumpi\n      dup1\n      0x36568abe\n      eq\n      tag_24\n      jumpi\n      dup1\n      0x44b1231f\n      eq\n      tag_26\n      jumpi\n      dup1\n      0x565a2e2c\n      eq\n      tag_28\n      jumpi\n      dup1\n      0x5b940081\n      eq\n      tag_30\n      jumpi\n      dup1\n      0x63260e36\n      eq\n      tag_32\n      jumpi\n      dup1\n      0x86d1a69f\n      eq\n      tag_34\n      jumpi\n      dup1\n      0x91d14854\n      eq\n      tag_36\n      jumpi\n      dup1\n      0xa217fddf\n      eq\n      tag_38\n      jumpi\n      dup1\n      0xad2e8c9b\n      eq\n      tag_40\n      jumpi\n      dup1\n      0xb6549f75\n      eq\n      tag_42\n      jumpi\n      dup1\n      0xc5292c67\n      eq\n      tag_44\n      jumpi\n      dup1\n      0xd547741f\n      eq\n      tag_46\n      jumpi\n      0xe33b7de3\n      eq\n      tag_48\n      jumpi\n      0x00\n      dup1\n      revert\n    tag_48:\n      jumpi(tag_52, callvalue)\n      jumpi(tag_52, slt(add(not(0x03), calldatasize), 0x00))\n      0x20\n        /* \"contracts/WallyVesting.sol\":8768:8777  _released */\n      0x02\n        /* \"contracts/WallyVesting.sol\":1391:9243  contract WallyVesting is AccessControl, ReentrancyGuard {... */\n      sload\n      mload(0x40)\n      swap1\n      dup2\n      mstore\n      return\n    tag_52:\n      0x00\n      dup1\n      revert\n    tag_46:\n      jumpi(tag_52, callvalue)\n        /* \"@openzeppelin/contracts/access/AccessControl.sol\":4747:4773  _revokeRole(role, account) */\n      tag_56\n        /* \"contracts/WallyVesting.sol\":1391:9243  contract WallyVesting is AccessControl, ReentrancyGuard {... */\n      tag_57\n      calldatasize\n      tag_1\n      jump\t// in\n    tag_57:\n        /* \"@openzeppelin/contracts/access/AccessControl.sol\":4717:4735  getRoleAdmin(role) */\n      swap1\n        /* \"@openzeppelin/contracts/access/AccessControl.sol\":2475:2479  role */\n      tag_58\n        /* \"@openzeppelin/contracts/access/AccessControl.sol\":4717:4735  getRoleAdmin(role) */\n      tag_59\n      dup3\n        /* \"@openzeppelin/contracts/access/AccessControl.sol\":3901:3907  _roles */\n      0x00\n        /* \"contracts/WallyVesting.sol\":1391:9243  contract WallyVesting is AccessControl, ReentrancyGuard {... */\n      mstore\n        /* \"@openzeppelin/contracts/access/AccessControl.sol\":3901:3907  _roles */\n      0x00\n        /* \"contracts/WallyVesting.sol\":1391:9243  contract WallyVesting is AccessControl, ReentrancyGuard {... */\n      0x20\n      mstore\n        /* \"@openzeppelin/contracts/access/AccessControl.sol\":3901:3923  _roles[role].adminRole */\n      0x01\n        /* \"contracts/WallyVesting.sol\":1391:9243  contract WallyVesting is AccessControl, ReentrancyGuard {... */\n      0x40\n        /* \"@openzeppelin/contracts/access/AccessControl.sol\":3901:3907  _roles */\n      0x00\n        /* \"contracts/WallyVesting.sol\":1391:9243  contract WallyVesting is AccessControl, ReentrancyGuard {... */\n      keccak256\n        /* \"@openzeppelin/contracts/access/AccessControl.sol\":3901:3923  _roles[role].adminRole */\n      add\n        /* \"contracts/WallyVesting.sol\":1391:9243  contract WallyVesting is AccessControl, ReentrancyGuard {... */\n      sload\n        /* \"@openzeppelin/contracts/access/AccessControl.sol\":3810:3930  function getRoleAdmin(bytes32 role) public view virtual returns (bytes32) {... */\n      swap1\n      jump\n        /* \"@openzeppelin/contracts/access/AccessControl.sol\":4717:4735  getRoleAdmin(role) */\n    tag_59:\n        /* \"@openzeppelin/contracts/access/AccessControl.sol\":2475:2479  role */\n      tag_7\n      jump\t// in\n    tag_58:\n        /* \"@openzeppelin/contracts/access/AccessControl.sol\":4747:4773  _revokeRole(role, account) */\n      tag_9\n      jump\t// in\n    tag_56:\n        /* \"contracts/WallyVesting.sol\":1391:9243  contract WallyVesting is AccessControl, ReentrancyGuard {... */\n      stop\n    tag_44:\n      jumpi(tag_52, callvalue)\n      jumpi(tag_52, slt(add(not(0x03), calldatasize), 0x00))\n      0x20\n      mload(0x40)\n        /* \"contracts/WallyVesting.sol\":9134:9140  _start */\n      immutable(\"0xb0f58b310312c6d34ea4c7502a6d13b434abf5a24e5c74332758b4563060a29a\")\n        /* \"contracts/WallyVesting.sol\":1391:9243  contract WallyVesting is AccessControl, ReentrancyGuard {... */\n      dup2\n      mstore\n      return\n    tag_42:\n      jumpi(tag_52, callvalue)\n      jumpi(tag_52, slt(add(not(0x03), calldatasize), 0x00))\n        /* \"@openzeppelin/contracts/security/ReentrancyGuard.sol\":2227:2330  modifier nonReentrant() {... */\n      tag_68\n      tag_10\n      jump\t// in\n    tag_68:\n        /* \"@openzeppelin/contracts/utils/Context.sol\":735:745  msg.sender */\n      caller\n        /* \"contracts/WallyVesting.sol\":1391:9243  contract WallyVesting is AccessControl, ReentrancyGuard {... */\n      0x00\n      swap1\n      dup2\n      mstore\n      mstore(0x20, 0x7d7ffb7a348e1c6a02869081a26547b49160dd3df72d1d75a570eb9b698292ec)\n      0x40\n      swap1\n      keccak256\n      sload\n      0xff\n      and\n        /* \"@openzeppelin/contracts/access/AccessControl.sol\":3519:3542  !hasRole(role, account) */\n      iszero\n        /* \"@openzeppelin/contracts/access/AccessControl.sol\":3515:3623  if (!hasRole(role, account)) {... */\n      tag_69\n      jumpi\n        /* \"contracts/WallyVesting.sol\":5533:5541  _revoked */\n      0x03\n        /* \"contracts/WallyVesting.sol\":1391:9243  contract WallyVesting is AccessControl, ReentrancyGuard {... */\n      sload\n      0xff\n      dup2\n      and\n        /* \"contracts/WallyVesting.sol\":5551:5595  if (revoked_) revert VestingRevokedAlready() */\n      tag_71\n      jumpi\n      not(0xff)\n        /* \"contracts/WallyVesting.sol\":1391:9243  contract WallyVesting is AccessControl, ReentrancyGuard {... */\n      and\n        /* \"contracts/WallyVesting.sol\":5616:5620  true */\n      0x01\n        /* \"contracts/WallyVesting.sol\":1391:9243  contract WallyVesting is AccessControl, ReentrancyGuard {... */\n      or\n        /* \"contracts/WallyVesting.sol\":5533:5541  _revoked */\n      0x03\n        /* \"contracts/WallyVesting.sol\":1391:9243  contract WallyVesting is AccessControl, ReentrancyGuard {... */\n      sstore\n      mload(0x40)\n      shl(0xe0, 0x70a08231)\n        /* \"contracts/WallyVesting.sol\":5711:5742  _token.balanceOf(address(this)) */\n      dup2\n      mstore\n        /* \"contracts/WallyVesting.sol\":5736:5740  this */\n      address\n        /* \"contracts/WallyVesting.sol\":1391:9243  contract WallyVesting is AccessControl, ReentrancyGuard {... */\n      0x04\n        /* \"contracts/WallyVesting.sol\":5711:5742  _token.balanceOf(address(this)) */\n      dup3\n      add\n        /* \"contracts/WallyVesting.sol\":1391:9243  contract WallyVesting is AccessControl, ReentrancyGuard {... */\n      mstore\n        /* \"contracts/WallyVesting.sol\":5711:5717  _token */\n      immutable(\"0x9868493de459c15d8892dc20f1eb084d4f81f9fb52da16094bbcd0adbccf53aa\")\n      swap1\n        /* \"contracts/WallyVesting.sol\":1391:9243  contract WallyVesting is AccessControl, ReentrancyGuard {... */\n      0x20\n      dup2\n        /* \"contracts/WallyVesting.sol\":5711:5742  _token.balanceOf(address(this)) */\n      0x24\n        /* \"contracts/WallyVesting.sol\":1391:9243  contract WallyVesting is AccessControl, ReentrancyGuard {... */\n      dup2\n      sub(shl(0xa0, 0x01), 0x01)\n      dup7\n      and\n        /* \"contracts/WallyVesting.sol\":5711:5742  _token.balanceOf(address(this)) */\n      gas\n      staticcall\n      swap1\n      dup2\n      iszero\n      tag_73\n      jumpi\n        /* \"contracts/WallyVesting.sol\":1391:9243  contract WallyVesting is AccessControl, ReentrancyGuard {... */\n      0x00\n        /* \"contracts/WallyVesting.sol\":5711:5742  _token.balanceOf(address(this)) */\n      swap2\n      tag_75\n      jumpi\n        /* \"contracts/WallyVesting.sol\":1391:9243  contract WallyVesting is AccessControl, ReentrancyGuard {... */\n    tag_76:\n        /* \"contracts/WallyVesting.sol\":6519:6533  vestedAmount() */\n      pop\n        /* \"contracts/WallyVesting.sol\":6519:6545  vestedAmount() - _released */\n      tag_77\n        /* \"contracts/WallyVesting.sol\":6519:6533  vestedAmount() */\n      tag_78\n      tag_6\n      jump\t// in\n    tag_78:\n        /* \"contracts/WallyVesting.sol\":6536:6545  _released */\n      0x02\n        /* \"contracts/WallyVesting.sol\":1391:9243  contract WallyVesting is AccessControl, ReentrancyGuard {... */\n      sload\n        /* \"contracts/WallyVesting.sol\":6519:6545  vestedAmount() - _released */\n      swap1\n      tag_5\n      jump\t// in\n    tag_77:\n        /* \"contracts/WallyVesting.sol\":5819:5839  balance > unreleased */\n      dup1\n      dup3\n      gt\n      iszero\n      tag_79\n      jumpi\n        /* \"contracts/WallyVesting.sol\":5844:5864  balance - unreleased */\n      tag_81\n      swap2\n      tag_5\n      jump\t// in\n    tag_81:\n        /* \"contracts/WallyVesting.sol\":5884:5895  refund != 0 */\n      dup1\n        /* \"contracts/WallyVesting.sol\":5880:5961  if (refund != 0) {... */\n      tag_83\n      jumpi\n        /* \"contracts/WallyVesting.sol\":5818:5869  (balance > unreleased) ? (balance - unreleased) : 0 */\n    tag_84:\n        /* \"contracts/WallyVesting.sol\":5976:5992  VestingRevoked() */\n      0xab9bb9a2dbce8eb1c5199596521d57563c7289fb1ac680030c44e9a0d16e6ed0\n        /* \"contracts/WallyVesting.sol\":1391:9243  contract WallyVesting is AccessControl, ReentrancyGuard {... */\n      0x00\n        /* \"contracts/WallyVesting.sol\":5976:5992  VestingRevoked() */\n      dup1\n      log1\n        /* \"contracts/WallyVesting.sol\":5616:5620  true */\n      0x01\n        /* \"contracts/WallyVesting.sol\":1391:9243  contract WallyVesting is AccessControl, ReentrancyGuard {... */\n      dup1\n      sstore\n      stop\n        /* \"contracts/WallyVesting.sol\":5880:5961  if (refund != 0) {... */\n    tag_83:\n        /* \"contracts/WallyVesting.sol\":5943:5949  refund */\n      tag_85\n        /* \"@openzeppelin/contracts/utils/Context.sol\":735:745  msg.sender */\n      swap2\n      caller\n        /* \"contracts/WallyVesting.sol\":5943:5949  refund */\n      swap1\n      tag_11\n      jump\t// in\n    tag_85:\n        /* \"contracts/WallyVesting.sol\":5880:5961  if (refund != 0) {... */\n      dup1\n      dup1\n      jump(tag_84)\n        /* \"contracts/WallyVesting.sol\":5818:5869  (balance > unreleased) ? (balance - unreleased) : 0 */\n    tag_79:\n      pop\n      pop\n        /* \"contracts/WallyVesting.sol\":1391:9243  contract WallyVesting is AccessControl, ReentrancyGuard {... */\n      0x00\n        /* \"contracts/WallyVesting.sol\":5818:5869  (balance > unreleased) ? (balance - unreleased) : 0 */\n      jump(tag_81)\n        /* \"contracts/WallyVesting.sol\":5711:5742  _token.balanceOf(address(this)) */\n    tag_75:\n      swap1\n      pop\n        /* \"contracts/WallyVesting.sol\":1391:9243  contract WallyVesting is AccessControl, ReentrancyGuard {... */\n      0x20\n        /* \"contracts/WallyVesting.sol\":5711:5742  _token.balanceOf(address(this)) */\n      dup2\n      returndatasize\n        /* \"contracts/WallyVesting.sol\":1391:9243  contract WallyVesting is AccessControl, ReentrancyGuard {... */\n      0x20\n        /* \"contracts/WallyVesting.sol\":5711:5742  _token.balanceOf(address(this)) */\n      gt\n      tag_86\n      jumpi\n    tag_87:\n      dup2\n      tag_88\n        /* \"contracts/WallyVesting.sol\":1391:9243  contract WallyVesting is AccessControl, ReentrancyGuard {... */\n      0x20\n        /* \"contracts/WallyVesting.sol\":5711:5742  _token.balanceOf(address(this)) */\n      swap4\n      dup4\n      tag_3\n      jump\t// in\n    tag_88:\n      dup2\n      add\n        /* \"contracts/WallyVesting.sol\":1391:9243  contract WallyVesting is AccessControl, ReentrancyGuard {... */\n      sub\n      slt\n      tag_52\n      jumpi\n      mload\n        /* \"contracts/WallyVesting.sol\":5711:5742  _token.balanceOf(address(this)) */\n      dup3\n      jump(tag_76)\n    tag_86:\n      returndatasize\n      swap2\n      pop\n      jump(tag_87)\n    tag_73:\n        /* \"contracts/WallyVesting.sol\":1391:9243  contract WallyVesting is AccessControl, ReentrancyGuard {... */\n      mload(0x40)\n      returndatasize\n      0x00\n      dup3\n      returndatacopy\n      returndatasize\n      swap1\n      revert\n        /* \"contracts/WallyVesting.sol\":5551:5595  if (revoked_) revert VestingRevokedAlready() */\n    tag_71:\n        /* \"contracts/WallyVesting.sol\":4139:4162  VestingRevokedAlready() */\n      shl(0xe0, 0x01404c2b)\n        /* \"contracts/WallyVesting.sol\":1391:9243  contract WallyVesting is AccessControl, ReentrancyGuard {... */\n      0x00\n        /* \"contracts/WallyVesting.sol\":5572:5595  VestingRevokedAlready() */\n      mstore\n        /* \"contracts/WallyVesting.sol\":1391:9243  contract WallyVesting is AccessControl, ReentrancyGuard {... */\n      0x04\n      0x00\n        /* \"contracts/WallyVesting.sol\":5572:5595  VestingRevokedAlready() */\n      revert\n        /* \"@openzeppelin/contracts/access/AccessControl.sol\":3515:3623  if (!hasRole(role, account)) {... */\n    tag_69:\n        /* \"@openzeppelin/contracts/access/AccessControl.sol\":3565:3612  AccessControlUnauthorizedAccount(account, role) */\n      shl(0xe0, 0xe2517d3f)\n        /* \"contracts/WallyVesting.sol\":1391:9243  contract WallyVesting is AccessControl, ReentrancyGuard {... */\n      0x00\n        /* \"@openzeppelin/contracts/access/AccessControl.sol\":3565:3612  AccessControlUnauthorizedAccount(account, role) */\n      mstore\n        /* \"@openzeppelin/contracts/utils/Context.sol\":735:745  msg.sender */\n      caller\n        /* \"contracts/WallyVesting.sol\":1391:9243  contract WallyVesting is AccessControl, ReentrancyGuard {... */\n      0x04\n      mstore\n        /* \"contracts/WallyVesting.sol\":1565:1588  keccak256(\"ADMIN_ROLE\") */\n      0xa49807205ce4d355092ef5a8a18f56e8913cf4a201fbe287825b095693c21775\n        /* \"contracts/WallyVesting.sol\":1391:9243  contract WallyVesting is AccessControl, ReentrancyGuard {... */\n      0x24\n      mstore\n      0x44\n      0x00\n        /* \"@openzeppelin/contracts/access/AccessControl.sol\":3565:3612  AccessControlUnauthorizedAccount(account, role) */\n      revert\n        /* \"contracts/WallyVesting.sol\":1391:9243  contract WallyVesting is AccessControl, ReentrancyGuard {... */\n    tag_40:\n      jumpi(tag_52, callvalue)\n      jumpi(tag_52, slt(add(not(0x03), calldatasize), 0x00))\n      0x20\n      mload(0x40)\n        /* \"contracts/WallyVesting.sol\":9225:9234  _duration */\n      immutable(\"0x161161210e6355a6429545d364ec3540b64c310bda58f2fa5c14e891124edb12\")\n        /* \"contracts/WallyVesting.sol\":1391:9243  contract WallyVesting is AccessControl, ReentrancyGuard {... */\n      dup2\n      mstore\n      return\n    tag_38:\n      jumpi(tag_52, callvalue)\n      jumpi(tag_52, slt(add(not(0x03), calldatasize), 0x00))\n      0x20\n      mload(0x40)\n      0x00\n      dup2\n      mstore\n      return\n    tag_36:\n      jumpi(tag_52, callvalue)\n      tag_101\n      calldatasize\n      tag_1\n      jump\t// in\n    tag_101:\n      swap1\n      0x00\n      mstore\n      mstore(0x20, 0x00)\n      keccak256(0x00, 0x40)\n        /* \"@openzeppelin/contracts/access/AccessControl.sol\":2954:2983  _roles[role].hasRole[account] */\n      swap1\n        /* \"contracts/WallyVesting.sol\":1391:9243  contract WallyVesting is AccessControl, ReentrancyGuard {... */\n      0x01\n      dup1\n      0xa0\n      shl\n      sub\n      and\n      0x00\n      mstore\n      0x20\n      mstore\n      0x20\n      and(sload(keccak256(0x00, 0x40)), 0xff)\n      mload(0x40)\n      swap1\n      iszero\n      iszero\n      dup2\n      mstore\n      return\n    tag_34:\n      jumpi(tag_52, callvalue)\n      jumpi(tag_52, slt(add(not(0x03), calldatasize), 0x00))\n        /* \"@openzeppelin/contracts/security/ReentrancyGuard.sol\":2227:2330  modifier nonReentrant() {... */\n      tag_106\n      tag_10\n      jump\t// in\n    tag_106:\n        /* \"contracts/WallyVesting.sol\":3451:3461  msg.sender */\n      caller\n        /* \"contracts/WallyVesting.sol\":1391:9243  contract WallyVesting is AccessControl, ReentrancyGuard {... */\n      0x00\n      swap1\n      dup2\n      mstore\n      mstore(0x20, 0x7d7ffb7a348e1c6a02869081a26547b49160dd3df72d1d75a570eb9b698292ec)\n      0x40\n      swap1\n      keccak256\n      sload\n      0xff\n      and\n        /* \"contracts/WallyVesting.sol\":3430:3462  !hasRole(ADMIN_ROLE, msg.sender) */\n      iszero\n        /* \"contracts/WallyVesting.sol\":3426:3486  if (!hasRole(ADMIN_ROLE, msg.sender)) revert NotAuthorized() */\n      tag_107\n      jumpi\n        /* \"contracts/WallyVesting.sol\":1391:9243  contract WallyVesting is AccessControl, ReentrancyGuard {... */\n      0xff\n        /* \"contracts/WallyVesting.sol\":4100:4108  _revoked */\n      0x03\n        /* \"contracts/WallyVesting.sol\":1391:9243  contract WallyVesting is AccessControl, ReentrancyGuard {... */\n      sload\n      and\n        /* \"contracts/WallyVesting.sol\":4118:4162  if (revoked_) revert VestingRevokedAlready() */\n      tag_71\n      jumpi\n        /* \"contracts/WallyVesting.sol\":6519:6533  vestedAmount() */\n      tag_111\n      tag_6\n      jump\t// in\n    tag_111:\n        /* \"contracts/WallyVesting.sol\":6519:6545  vestedAmount() - _released */\n      tag_112\n        /* \"contracts/WallyVesting.sol\":6536:6545  _released */\n      0x02\n        /* \"contracts/WallyVesting.sol\":1391:9243  contract WallyVesting is AccessControl, ReentrancyGuard {... */\n      sload\n        /* \"contracts/WallyVesting.sol\":6519:6545  vestedAmount() - _released */\n      dup1\n      swap3\n      tag_5\n      jump\t// in\n    tag_112:\n        /* \"contracts/WallyVesting.sol\":4226:4241  unreleased == 0 */\n      swap1\n      dup2\n      iszero\n        /* \"contracts/WallyVesting.sol\":4222:4268  if (unreleased == 0) revert NothingToRelease() */\n      tag_113\n      jumpi\n        /* \"contracts/WallyVesting.sol\":1391:9243  contract WallyVesting is AccessControl, ReentrancyGuard {... */\n      mload(0x40)\n      shl(0xe0, 0x70a08231)\n        /* \"contracts/WallyVesting.sol\":4584:4614  _token.balanceOf(_beneficiary) */\n      dup2\n      mstore\n        /* \"contracts/WallyVesting.sol\":4601:4613  _beneficiary */\n      immutable(\"0xcbd294e0eaf674a37cbfe1697122b5bc2363395b1d4728ebd5c75eb9d8757892\")\n      sub(shl(0xa0, 0x01), 0x01)\n        /* \"contracts/WallyVesting.sol\":1391:9243  contract WallyVesting is AccessControl, ReentrancyGuard {... */\n      dup2\n      dup2\n      and\n      0x04\n        /* \"contracts/WallyVesting.sol\":4584:4614  _token.balanceOf(_beneficiary) */\n      dup5\n      add\n        /* \"contracts/WallyVesting.sol\":1391:9243  contract WallyVesting is AccessControl, ReentrancyGuard {... */\n      dup2\n      swap1\n      mstore\n      swap3\n      swap5\n        /* \"contracts/WallyVesting.sol\":4584:4590  _token */\n      immutable(\"0x9868493de459c15d8892dc20f1eb084d4f81f9fb52da16094bbcd0adbccf53aa\")\n        /* \"contracts/WallyVesting.sol\":1391:9243  contract WallyVesting is AccessControl, ReentrancyGuard {... */\n      swap2\n      dup3\n      and\n      swap4\n      swap3\n      swap1\n      swap2\n      0x20\n      dup8\n        /* \"contracts/WallyVesting.sol\":4584:4614  _token.balanceOf(_beneficiary) */\n      0x24\n        /* \"contracts/WallyVesting.sol\":1391:9243  contract WallyVesting is AccessControl, ReentrancyGuard {... */\n      dup2\n      dup9\n        /* \"contracts/WallyVesting.sol\":4584:4614  _token.balanceOf(_beneficiary) */\n      gas\n      staticcall\n      swap7\n      dup8\n      iszero\n      tag_73\n      jumpi\n        /* \"contracts/WallyVesting.sol\":1391:9243  contract WallyVesting is AccessControl, ReentrancyGuard {... */\n      0x00\n        /* \"contracts/WallyVesting.sol\":4584:4614  _token.balanceOf(_beneficiary) */\n      swap8\n      tag_117\n      jumpi\n        /* \"contracts/WallyVesting.sol\":1391:9243  contract WallyVesting is AccessControl, ReentrancyGuard {... */\n    tag_118:\n        /* \"contracts/WallyVesting.sol\":4658:4668  unreleased */\n      pop\n      swap2\n      tag_119\n      swap2\n        /* \"contracts/WallyVesting.sol\":1391:9243  contract WallyVesting is AccessControl, ReentrancyGuard {... */\n      0x20\n        /* \"contracts/WallyVesting.sol\":4658:4668  unreleased */\n      swap5\n      swap4\n      tag_11\n      jump\t// in\n    tag_119:\n        /* \"contracts/WallyVesting.sol\":4584:4614  _token.balanceOf(_beneficiary) */\n      0x24\n        /* \"contracts/WallyVesting.sol\":1391:9243  contract WallyVesting is AccessControl, ReentrancyGuard {... */\n      mload(0x40)\n      dup1\n      swap5\n      dup2\n      swap4\n      shl(0xe0, 0x70a08231)\n        /* \"contracts/WallyVesting.sol\":4713:4743  _token.balanceOf(_beneficiary) */\n      dup4\n      mstore\n        /* \"contracts/WallyVesting.sol\":1391:9243  contract WallyVesting is AccessControl, ReentrancyGuard {... */\n      0x04\n        /* \"contracts/WallyVesting.sol\":4713:4743  _token.balanceOf(_beneficiary) */\n      dup4\n      add\n        /* \"contracts/WallyVesting.sol\":1391:9243  contract WallyVesting is AccessControl, ReentrancyGuard {... */\n      mstore\n        /* \"contracts/WallyVesting.sol\":4713:4743  _token.balanceOf(_beneficiary) */\n      gas\n      staticcall\n      swap1\n      dup2\n      iszero\n      tag_73\n      jumpi\n        /* \"contracts/WallyVesting.sol\":1391:9243  contract WallyVesting is AccessControl, ReentrancyGuard {... */\n      0x00\n        /* \"contracts/WallyVesting.sol\":4713:4743  _token.balanceOf(_beneficiary) */\n      swap2\n      tag_122\n      jumpi\n        /* \"contracts/WallyVesting.sol\":1391:9243  contract WallyVesting is AccessControl, ReentrancyGuard {... */\n    tag_123:\n        /* \"contracts/WallyVesting.sol\":4967:5000  TokensReleased(actualTransferred) */\n      0xa1598fb976f7dd9df63fd18699c54a5744a6a95364166bbd0d77a2f6c8438b1f\n        /* \"contracts/WallyVesting.sol\":1391:9243  contract WallyVesting is AccessControl, ReentrancyGuard {... */\n      0x20\n        /* \"contracts/WallyVesting.sol\":4848:4898  beneficiaryBalanceAfter - beneficiaryBalanceBefore */\n      dup5\n        /* \"contracts/WallyVesting.sol\":4920:4951  oldReleased + actualTransferred */\n      tag_124\n        /* \"contracts/WallyVesting.sol\":4848:4898  beneficiaryBalanceAfter - beneficiaryBalanceBefore */\n      tag_125\n      dup9\n      dup8\n      tag_5\n      jump\t// in\n    tag_125:\n        /* \"contracts/WallyVesting.sol\":4920:4951  oldReleased + actualTransferred */\n      dup1\n      swap3\n      tag_4\n      jump\t// in\n    tag_124:\n        /* \"contracts/WallyVesting.sol\":6536:6545  _released */\n      0x02\n        /* \"contracts/WallyVesting.sol\":1391:9243  contract WallyVesting is AccessControl, ReentrancyGuard {... */\n      sstore\n      mload(0x40)\n      swap1\n      dup2\n      mstore\n        /* \"contracts/WallyVesting.sol\":4967:5000  TokensReleased(actualTransferred) */\n      log1\n        /* \"@openzeppelin/contracts/security/ReentrancyGuard.sol\":1716:1717  1 */\n      0x01\n        /* \"contracts/WallyVesting.sol\":1391:9243  contract WallyVesting is AccessControl, ReentrancyGuard {... */\n      dup1\n      sstore\n      stop\n        /* \"contracts/WallyVesting.sol\":4713:4743  _token.balanceOf(_beneficiary) */\n    tag_122:\n      swap2\n      swap1\n      pop\n        /* \"contracts/WallyVesting.sol\":1391:9243  contract WallyVesting is AccessControl, ReentrancyGuard {... */\n      0x20\n        /* \"contracts/WallyVesting.sol\":4713:4743  _token.balanceOf(_beneficiary) */\n      dup3\n      returndatasize\n        /* \"contracts/WallyVesting.sol\":1391:9243  contract WallyVesting is AccessControl, ReentrancyGuard {... */\n      0x20\n        /* \"contracts/WallyVesting.sol\":4713:4743  _token.balanceOf(_beneficiary) */\n      gt\n      tag_126\n      jumpi\n    tag_127:\n      dup2\n      tag_128\n        /* \"contracts/WallyVesting.sol\":1391:9243  contract WallyVesting is AccessControl, ReentrancyGuard {... */\n      0x20\n        /* \"contracts/WallyVesting.sol\":4713:4743  _token.balanceOf(_beneficiary) */\n      swap4\n      dup4\n      tag_3\n      jump\t// in\n    tag_128:\n      dup2\n      add\n        /* \"contracts/WallyVesting.sol\":1391:9243  contract WallyVesting is AccessControl, ReentrancyGuard {... */\n      sub\n      slt\n      tag_52\n      jumpi\n      swap1\n      mload\n        /* \"contracts/WallyVesting.sol\":4920:4951  oldReleased + actualTransferred */\n      tag_124\n        /* \"contracts/WallyVesting.sol\":4713:4743  _token.balanceOf(_beneficiary) */\n      jump(tag_123)\n    tag_126:\n      returndatasize\n      swap2\n      pop\n      jump(tag_127)\n        /* \"contracts/WallyVesting.sol\":4584:4614  _token.balanceOf(_beneficiary) */\n    tag_117:\n      swap2\n      swap4\n      swap3\n      swap1\n      swap7\n      pop\n        /* \"contracts/WallyVesting.sol\":1391:9243  contract WallyVesting is AccessControl, ReentrancyGuard {... */\n      0x20\n        /* \"contracts/WallyVesting.sol\":4584:4614  _token.balanceOf(_beneficiary) */\n      dup3\n      returndatasize\n        /* \"contracts/WallyVesting.sol\":1391:9243  contract WallyVesting is AccessControl, ReentrancyGuard {... */\n      0x20\n        /* \"contracts/WallyVesting.sol\":4584:4614  _token.balanceOf(_beneficiary) */\n      gt\n      tag_131\n      jumpi\n    tag_132:\n      dup2\n      tag_133\n        /* \"contracts/WallyVesting.sol\":1391:9243  contract WallyVesting is AccessControl, ReentrancyGuard {... */\n      0x20\n        /* \"contracts/WallyVesting.sol\":4584:4614  _token.balanceOf(_beneficiary) */\n      swap4\n      dup4\n      tag_3\n      jump\t// in\n    tag_133:\n      dup2\n      add\n        /* \"contracts/WallyVesting.sol\":1391:9243  contract WallyVesting is AccessControl, ReentrancyGuard {... */\n      sub\n      slt\n      tag_52\n      jumpi\n      swap1\n      mload\n      swap6\n        /* \"contracts/WallyVesting.sol\":4584:4614  _token.balanceOf(_beneficiary) */\n      swap2\n      swap3\n      swap1\n      swap2\n        /* \"contracts/WallyVesting.sol\":4658:4668  unreleased */\n      tag_119\n        /* \"contracts/WallyVesting.sol\":4584:4614  _token.balanceOf(_beneficiary) */\n      jump(tag_118)\n    tag_131:\n      returndatasize\n      swap2\n      pop\n      jump(tag_132)\n        /* \"contracts/WallyVesting.sol\":4222:4268  if (unreleased == 0) revert NothingToRelease() */\n    tag_113:\n        /* \"contracts/WallyVesting.sol\":4250:4268  NothingToRelease() */\n      shl(0xe0, 0xb10205ed)\n        /* \"contracts/WallyVesting.sol\":1391:9243  contract WallyVesting is AccessControl, ReentrancyGuard {... */\n      0x00\n        /* \"contracts/WallyVesting.sol\":4250:4268  NothingToRelease() */\n      mstore\n        /* \"contracts/WallyVesting.sol\":1391:9243  contract WallyVesting is AccessControl, ReentrancyGuard {... */\n      0x04\n      0x00\n        /* \"contracts/WallyVesting.sol\":4250:4268  NothingToRelease() */\n      revert\n        /* \"contracts/WallyVesting.sol\":3426:3486  if (!hasRole(ADMIN_ROLE, msg.sender)) revert NotAuthorized() */\n    tag_107:\n        /* \"contracts/WallyVesting.sol\":3471:3486  NotAuthorized() */\n      shl(0xe0, 0xea8e4eb5)\n        /* \"contracts/WallyVesting.sol\":1391:9243  contract WallyVesting is AccessControl, ReentrancyGuard {... */\n      0x00\n        /* \"contracts/WallyVesting.sol\":3471:3486  NotAuthorized() */\n      mstore\n        /* \"contracts/WallyVesting.sol\":1391:9243  contract WallyVesting is AccessControl, ReentrancyGuard {... */\n      0x04\n      0x00\n        /* \"contracts/WallyVesting.sol\":3471:3486  NotAuthorized() */\n      revert\n        /* \"contracts/WallyVesting.sol\":1391:9243  contract WallyVesting is AccessControl, ReentrancyGuard {... */\n    tag_32:\n      jumpi(tag_52, callvalue)\n      jumpi(tag_52, slt(add(not(0x03), calldatasize), 0x00))\n      0x20\n      mload(0x40)\n        /* \"contracts/WallyVesting.sol\":9046:9052  _cliff */\n      immutable(\"0x2e415caec8d91e458e1b9987576611b087b1a3cc6a704a90bb9e06da9759f8e6\")\n        /* \"contracts/WallyVesting.sol\":1391:9243  contract WallyVesting is AccessControl, ReentrancyGuard {... */\n      dup2\n      mstore\n      return\n    tag_30:\n      jumpi(tag_52, callvalue)\n      jumpi(tag_52, slt(add(not(0x03), calldatasize), 0x00))\n      0x20\n        /* \"contracts/WallyVesting.sol\":6519:6545  vestedAmount() - _released */\n      tag_144\n        /* \"contracts/WallyVesting.sol\":6519:6533  vestedAmount() */\n      tag_78\n      tag_6\n      jump\t// in\n        /* \"contracts/WallyVesting.sol\":6519:6545  vestedAmount() - _released */\n    tag_144:\n        /* \"contracts/WallyVesting.sol\":1391:9243  contract WallyVesting is AccessControl, ReentrancyGuard {... */\n      mload(0x40)\n      swap1\n      dup2\n      mstore\n      return\n    tag_28:\n      jumpi(tag_52, callvalue)\n      jumpi(tag_52, slt(add(not(0x03), calldatasize), 0x00))\n      mload(0x40)\n        /* \"contracts/WallyVesting.sol\":8865:8877  _beneficiary */\n      immutable(\"0xcbd294e0eaf674a37cbfe1697122b5bc2363395b1d4728ebd5c75eb9d8757892\")\n      sub(shl(0xa0, 0x01), 0x01)\n        /* \"contracts/WallyVesting.sol\":1391:9243  contract WallyVesting is AccessControl, ReentrancyGuard {... */\n      and\n      dup2\n      mstore\n      0x20\n      swap1\n      return\n    tag_26:\n      jumpi(tag_52, callvalue)\n      jumpi(tag_52, slt(add(not(0x03), calldatasize), 0x00))\n      0x20\n      tag_144\n      tag_6\n      jump\t// in\n    tag_24:\n      jumpi(tag_52, callvalue)\n      tag_157\n      calldatasize\n      tag_1\n      jump\t// in\n    tag_157:\n        /* \"@openzeppelin/contracts/utils/Context.sol\":735:745  msg.sender */\n      caller\n      sub(shl(0xa0, 0x01), 0x01)\n        /* \"contracts/WallyVesting.sol\":1391:9243  contract WallyVesting is AccessControl, ReentrancyGuard {... */\n      dup3\n      and\n        /* \"@openzeppelin/contracts/access/AccessControl.sol\":5421:5455  callerConfirmation != _msgSender() */\n      sub\n        /* \"@openzeppelin/contracts/access/AccessControl.sol\":5417:5519  if (callerConfirmation != _msgSender()) {... */\n      tag_158\n      jumpi\n        /* \"@openzeppelin/contracts/access/AccessControl.sol\":5529:5566  _revokeRole(role, callerConfirmation) */\n      tag_56\n      swap2\n      tag_9\n      jump\t// in\n        /* \"@openzeppelin/contracts/access/AccessControl.sol\":5417:5519  if (callerConfirmation != _msgSender()) {... */\n    tag_158:\n        /* \"@openzeppelin/contracts/access/AccessControl.sol\":5478:5508  AccessControlBadConfirmation() */\n      shl(0xe1, 0x334bd919)\n        /* \"contracts/WallyVesting.sol\":1391:9243  contract WallyVesting is AccessControl, ReentrancyGuard {... */\n      0x00\n        /* \"@openzeppelin/contracts/access/AccessControl.sol\":5478:5508  AccessControlBadConfirmation() */\n      mstore\n        /* \"contracts/WallyVesting.sol\":1391:9243  contract WallyVesting is AccessControl, ReentrancyGuard {... */\n      0x04\n      0x00\n        /* \"@openzeppelin/contracts/access/AccessControl.sol\":5478:5508  AccessControlBadConfirmation() */\n      revert\n        /* \"contracts/WallyVesting.sol\":1391:9243  contract WallyVesting is AccessControl, ReentrancyGuard {... */\n    tag_22:\n      jumpi(tag_52, callvalue)\n        /* \"@openzeppelin/contracts/access/AccessControl.sol\":4330:4355  _grantRole(role, account) */\n      tag_56\n        /* \"contracts/WallyVesting.sol\":1391:9243  contract WallyVesting is AccessControl, ReentrancyGuard {... */\n      tag_164\n      calldatasize\n      tag_1\n      jump\t// in\n    tag_164:\n        /* \"@openzeppelin/contracts/access/AccessControl.sol\":4300:4318  getRoleAdmin(role) */\n      swap1\n        /* \"@openzeppelin/contracts/access/AccessControl.sol\":2475:2479  role */\n      tag_165\n        /* \"@openzeppelin/contracts/access/AccessControl.sol\":4300:4318  getRoleAdmin(role) */\n      tag_59\n      dup3\n        /* \"@openzeppelin/contracts/access/AccessControl.sol\":3901:3907  _roles */\n      0x00\n        /* \"contracts/WallyVesting.sol\":1391:9243  contract WallyVesting is AccessControl, ReentrancyGuard {... */\n      mstore\n        /* \"@openzeppelin/contracts/access/AccessControl.sol\":3901:3907  _roles */\n      0x00\n        /* \"contracts/WallyVesting.sol\":1391:9243  contract WallyVesting is AccessControl, ReentrancyGuard {... */\n      0x20\n      mstore\n        /* \"@openzeppelin/contracts/access/AccessControl.sol\":3901:3923  _roles[role].adminRole */\n      0x01\n        /* \"contracts/WallyVesting.sol\":1391:9243  contract WallyVesting is AccessControl, ReentrancyGuard {... */\n      0x40\n        /* \"@openzeppelin/contracts/access/AccessControl.sol\":3901:3907  _roles */\n      0x00\n        /* \"contracts/WallyVesting.sol\":1391:9243  contract WallyVesting is AccessControl, ReentrancyGuard {... */\n      keccak256\n        /* \"@openzeppelin/contracts/access/AccessControl.sol\":3901:3923  _roles[role].adminRole */\n      add\n        /* \"contracts/WallyVesting.sol\":1391:9243  contract WallyVesting is AccessControl, ReentrancyGuard {... */\n      sload\n        /* \"@openzeppelin/contracts/access/AccessControl.sol\":3810:3930  function getRoleAdmin(bytes32 role) public view virtual returns (bytes32) {... */\n      swap1\n      jump\n        /* \"@openzeppelin/contracts/access/AccessControl.sol\":2475:2479  role */\n    tag_165:\n        /* \"@openzeppelin/contracts/access/AccessControl.sol\":4330:4355  _grantRole(role, account) */\n      tag_8\n      jump\t// in\n        /* \"contracts/WallyVesting.sol\":1391:9243  contract WallyVesting is AccessControl, ReentrancyGuard {... */\n    tag_20:\n      jumpi(tag_52, callvalue)\n      jumpi(tag_52, slt(add(not(0x03), calldatasize), 0x00))\n      0x20\n      0xff\n        /* \"contracts/WallyVesting.sol\":8673:8681  _revoked */\n      0x03\n        /* \"contracts/WallyVesting.sol\":1391:9243  contract WallyVesting is AccessControl, ReentrancyGuard {... */\n      sload\n      and\n      mload(0x40)\n      swap1\n      iszero\n      iszero\n      dup2\n      mstore\n      return\n    tag_18:\n      jumpi(tag_52, callvalue)\n      jumpi(tag_52, slt(add(not(0x03), calldatasize), 0x20))\n      0x20\n      tag_144\n      calldataload(0x04)\n        /* \"@openzeppelin/contracts/access/AccessControl.sol\":3901:3907  _roles */\n      0x00\n        /* \"contracts/WallyVesting.sol\":1391:9243  contract WallyVesting is AccessControl, ReentrancyGuard {... */\n      mstore\n        /* \"@openzeppelin/contracts/access/AccessControl.sol\":3901:3907  _roles */\n      0x00\n        /* \"contracts/WallyVesting.sol\":1391:9243  contract WallyVesting is AccessControl, ReentrancyGuard {... */\n      0x20\n      mstore\n        /* \"@openzeppelin/contracts/access/AccessControl.sol\":3901:3923  _roles[role].adminRole */\n      0x01\n        /* \"contracts/WallyVesting.sol\":1391:9243  contract WallyVesting is AccessControl, ReentrancyGuard {... */\n      0x40\n        /* \"@openzeppelin/contracts/access/AccessControl.sol\":3901:3907  _roles */\n      0x00\n        /* \"contracts/WallyVesting.sol\":1391:9243  contract WallyVesting is AccessControl, ReentrancyGuard {... */\n      keccak256\n        /* \"@openzeppelin/contracts/access/AccessControl.sol\":3901:3923  _roles[role].adminRole */\n      add\n        /* \"contracts/WallyVesting.sol\":1391:9243  contract WallyVesting is AccessControl, ReentrancyGuard {... */\n      sload\n        /* \"@openzeppelin/contracts/access/AccessControl.sol\":3810:3930  function getRoleAdmin(bytes32 role) public view virtual returns (bytes32) {... */\n      swap1\n      jump\n        /* \"contracts/WallyVesting.sol\":1391:9243  contract WallyVesting is AccessControl, ReentrancyGuard {... */\n    tag_16:\n      jumpi(tag_52, callvalue)\n      jumpi(tag_52, slt(add(not(0x03), calldatasize), 0x00))\n      mload(0x40)\n        /* \"contracts/WallyVesting.sol\":8958:8964  _token */\n      immutable(\"0x9868493de459c15d8892dc20f1eb084d4f81f9fb52da16094bbcd0adbccf53aa\")\n      sub(shl(0xa0, 0x01), 0x01)\n        /* \"contracts/WallyVesting.sol\":1391:9243  contract WallyVesting is AccessControl, ReentrancyGuard {... */\n      and\n      dup2\n      mstore\n      0x20\n      swap1\n      return\n    tag_14:\n      jumpi(tag_52, callvalue)\n      jumpi(tag_52, slt(add(not(0x03), calldatasize), 0x20))\n      calldataload(0x04)\n      swap1\n      shl(0xe0, 0xffffffff)\n      dup3\n      and\n      dup1\n      swap3\n      sub\n      tag_52\n      jumpi\n      0x20\n      swap2\n      shl(0xe0, 0x7965db0b)\n        /* \"@openzeppelin/contracts/access/AccessControl.sol\":2673:2720  interfaceId == type(IAccessControl).interfaceId */\n      dup2\n      eq\n      swap1\n        /* \"@openzeppelin/contracts/access/AccessControl.sol\":2673:2760  interfaceId == type(IAccessControl).interfaceId || super.supportsInterface(interfaceId) */\n      dup2\n      iszero\n      tag_186\n      jumpi\n        /* \"contracts/WallyVesting.sol\":1391:9243  contract WallyVesting is AccessControl, ReentrancyGuard {... */\n    tag_187:\n      pop\n      iszero\n      iszero\n      dup2\n      mstore\n      return\n        /* \"@openzeppelin/contracts/access/AccessControl.sol\":2673:2760  interfaceId == type(IAccessControl).interfaceId || super.supportsInterface(interfaceId) */\n    tag_186:\n      shl(0xe0, 0x01ffc9a7)\n        /* \"@openzeppelin/contracts/utils/introspection/ERC165.sol\":862:902  interfaceId == type(IERC165).interfaceId */\n      eq\n      swap1\n      pop\n        /* \"@openzeppelin/contracts/access/AccessControl.sol\":2673:2760  interfaceId == type(IAccessControl).interfaceId || super.supportsInterface(interfaceId) */\n      dup4\n      jump(tag_187)\n        /* \"contracts/WallyVesting.sol\":1391:9243  contract WallyVesting is AccessControl, ReentrancyGuard {... */\n    tag_1:\n      0x40\n      swap1\n      not(0x03)\n      add\n      slt\n      tag_52\n      jumpi\n      calldataload(0x04)\n      swap1\n      calldataload(0x24)\n      sub(shl(0xa0, 0x01), 0x01)\n      dup2\n      and\n      dup2\n      sub\n      tag_52\n      jumpi\n      swap1\n      jump\t// out\n    tag_3:\n      swap1\n      0x1f\n      dup1\n      not\n      swap2\n      add\n      and\n      dup2\n      add\n      swap1\n      dup2\n      lt\n      0xffffffffffffffff\n      dup3\n      gt\n      or\n      tag_192\n      jumpi\n      0x40\n      mstore\n      jump\t// out\n    tag_192:\n      mstore(0x00, shl(0xe0, 0x4e487b71))\n      mstore(0x04, 0x41)\n      revert(0x00, 0x24)\n    tag_4:\n      swap2\n      swap1\n      dup3\n      add\n      dup1\n      swap3\n      gt\n      tag_194\n      jumpi\n      jump\t// out\n    tag_194:\n      mstore(0x00, shl(0xe0, 0x4e487b71))\n      mstore(0x04, 0x11)\n      revert(0x00, 0x24)\n    tag_5:\n      swap2\n      swap1\n      dup3\n      sub\n      swap2\n      dup3\n      gt\n      tag_194\n      jumpi\n      jump\t// out\n        /* \"contracts/WallyVesting.sol\":6767:8425  function vestedAmount() public view returns (uint256 vestedTokens) {... */\n    tag_6:\n        /* \"contracts/WallyVesting.sol\":6910:6919  _released */\n      0x02\n        /* \"contracts/WallyVesting.sol\":1391:9243  contract WallyVesting is AccessControl, ReentrancyGuard {... */\n      sload\n      mload(0x40)\n      shl(0xe0, 0x70a08231)\n        /* \"contracts/WallyVesting.sol\":7191:7222  _token.balanceOf(address(this)) */\n      dup2\n      mstore\n        /* \"contracts/WallyVesting.sol\":7216:7220  this */\n      address\n        /* \"contracts/WallyVesting.sol\":7191:7222  _token.balanceOf(address(this)) */\n      0x04\n      dup3\n      add\n        /* \"contracts/WallyVesting.sol\":1391:9243  contract WallyVesting is AccessControl, ReentrancyGuard {... */\n      mstore\n      swap1\n      0x20\n      dup3\n        /* \"contracts/WallyVesting.sol\":7191:7222  _token.balanceOf(address(this)) */\n      0x24\n        /* \"contracts/WallyVesting.sol\":1391:9243  contract WallyVesting is AccessControl, ReentrancyGuard {... */\n      dup2\n        /* \"contracts/WallyVesting.sol\":7191:7197  _token */\n      immutable(\"0x9868493de459c15d8892dc20f1eb084d4f81f9fb52da16094bbcd0adbccf53aa\")\n      sub(shl(0xa0, 0x01), 0x01)\n        /* \"contracts/WallyVesting.sol\":1391:9243  contract WallyVesting is AccessControl, ReentrancyGuard {... */\n      and\n        /* \"contracts/WallyVesting.sol\":7191:7222  _token.balanceOf(address(this)) */\n      gas\n      staticcall\n      dup1\n      iszero\n      tag_73\n      jumpi\n        /* \"contracts/WallyVesting.sol\":1391:9243  contract WallyVesting is AccessControl, ReentrancyGuard {... */\n      0x00\n        /* \"contracts/WallyVesting.sol\":7191:7222  _token.balanceOf(address(this)) */\n      swap1\n      tag_200\n      jumpi\n        /* \"contracts/WallyVesting.sol\":6767:8425  function vestedAmount() public view returns (uint256 vestedTokens) {... */\n    tag_201:\n        /* \"contracts/WallyVesting.sol\":7256:7280  totalCurrent + released_ */\n      tag_202\n      swap3\n      pop\n      tag_4\n      jump\t// in\n    tag_202:\n        /* \"contracts/WallyVesting.sol\":7599:7600  1 */\n      0x01\n        /* \"contracts/WallyVesting.sol\":7405:7420  block.timestamp */\n      timestamp\n        /* \"contracts/WallyVesting.sol\":1391:9243  contract WallyVesting is AccessControl, ReentrancyGuard {... */\n      add\n        /* \"contracts/WallyVesting.sol\":7405:7420  block.timestamp */\n      dup1\n      timestamp\n        /* \"contracts/WallyVesting.sol\":1391:9243  contract WallyVesting is AccessControl, ReentrancyGuard {... */\n      gt\n      tag_194\n      jumpi\n        /* \"contracts/WallyVesting.sol\":7604:7610  _cliff */\n      immutable(\"0x2e415caec8d91e458e1b9987576611b087b1a3cc6a704a90bb9e06da9759f8e6\")\n      lt\n      tag_205\n      jumpi\n        /* \"contracts/WallyVesting.sol\":7671:7687  vestedTokens = 0 */\n      pop\n        /* \"contracts/WallyVesting.sol\":1391:9243  contract WallyVesting is AccessControl, ReentrancyGuard {... */\n      0x00\n        /* \"contracts/WallyVesting.sol\":7581:8317  if (currentTime + 1 <= _cliff) {... */\n      swap1\n        /* \"contracts/WallyVesting.sol\":6767:8425  function vestedAmount() public view returns (uint256 vestedTokens) {... */\n      jump\t// out\n        /* \"contracts/WallyVesting.sol\":7581:8317  if (currentTime + 1 <= _cliff) {... */\n    tag_205:\n        /* \"contracts/WallyVesting.sol\":7788:7797  _duration */\n      immutable(\"0x161161210e6355a6429545d364ec3540b64c310bda58f2fa5c14e891124edb12\")\n      swap1\n        /* \"contracts/WallyVesting.sol\":7779:7785  _start */\n      immutable(\"0xb0f58b310312c6d34ea4c7502a6d13b434abf5a24e5c74332758b4563060a29a\")\n        /* \"contracts/WallyVesting.sol\":7779:7797  _start + _duration */\n      tag_208\n        /* \"contracts/WallyVesting.sol\":7788:7797  _duration */\n      dup4\n        /* \"contracts/WallyVesting.sol\":7779:7785  _start */\n      dup3\n        /* \"contracts/WallyVesting.sol\":7779:7797  _start + _duration */\n      tag_4\n      jump\t// in\n    tag_208:\n        /* \"contracts/WallyVesting.sol\":7405:7420  block.timestamp */\n      timestamp\n        /* \"contracts/WallyVesting.sol\":7763:7798  currentTime >= (_start + _duration) */\n      lt\n      dup1\n      iszero\n        /* \"contracts/WallyVesting.sol\":7763:7810  currentTime >= (_start + _duration) || _revoked */\n      swap1\n      tag_209\n      jumpi\n        /* \"contracts/WallyVesting.sol\":7581:8317  if (currentTime + 1 <= _cliff) {... */\n    tag_210:\n        /* \"contracts/WallyVesting.sol\":7759:8317  if (currentTime >= (_start + _duration) || _revoked) {... */\n      iszero\n      tag_211\n      jumpi\n        /* \"contracts/WallyVesting.sol\":7890:7918  vestedTokens = totalAssigned */\n      pop\n      swap1\n      pop\n        /* \"contracts/WallyVesting.sol\":7759:8317  if (currentTime >= (_start + _duration) || _revoked) {... */\n      swap1\n        /* \"contracts/WallyVesting.sol\":6767:8425  function vestedAmount() public view returns (uint256 vestedTokens) {... */\n      jump\t// out\n        /* \"contracts/WallyVesting.sol\":7759:8317  if (currentTime >= (_start + _duration) || _revoked) {... */\n    tag_211:\n        /* \"contracts/WallyVesting.sol\":8044:8064  currentTime - _start */\n      tag_214\n        /* \"contracts/WallyVesting.sol\":7405:7420  block.timestamp */\n      swap1\n      timestamp\n        /* \"contracts/WallyVesting.sol\":8044:8064  currentTime - _start */\n      tag_5\n      jump\t// in\n    tag_214:\n        /* \"contracts/WallyVesting.sol\":1391:9243  contract WallyVesting is AccessControl, ReentrancyGuard {... */\n      swap1\n      dup2\n      dup2\n      mul\n      swap2\n      dup2\n      dup4\n      div\n      eq\n      swap1\n      iszero\n      or\n      iszero\n      tag_194\n      jumpi\n      dup2\n      iszero\n      tag_217\n      jumpi\n      div\n        /* \"contracts/WallyVesting.sol\":7759:8317  if (currentTime >= (_start + _duration) || _revoked) {... */\n      swap1\n        /* \"contracts/WallyVesting.sol\":6767:8425  function vestedAmount() public view returns (uint256 vestedTokens) {... */\n      jump\t// out\n        /* \"contracts/WallyVesting.sol\":1391:9243  contract WallyVesting is AccessControl, ReentrancyGuard {... */\n    tag_217:\n      mstore(0x00, shl(0xe0, 0x4e487b71))\n      0x12\n        /* \"contracts/WallyVesting.sol\":7191:7222  _token.balanceOf(address(this)) */\n      0x04\n        /* \"contracts/WallyVesting.sol\":1391:9243  contract WallyVesting is AccessControl, ReentrancyGuard {... */\n      mstore\n        /* \"contracts/WallyVesting.sol\":7191:7222  _token.balanceOf(address(this)) */\n      0x24\n        /* \"contracts/WallyVesting.sol\":1391:9243  contract WallyVesting is AccessControl, ReentrancyGuard {... */\n      0x00\n      revert\n        /* \"contracts/WallyVesting.sol\":7763:7810  currentTime >= (_start + _duration) || _revoked */\n    tag_209:\n        /* \"contracts/WallyVesting.sol\":1391:9243  contract WallyVesting is AccessControl, ReentrancyGuard {... */\n      pop\n      0xff\n        /* \"contracts/WallyVesting.sol\":7802:7810  _revoked */\n      0x03\n        /* \"contracts/WallyVesting.sol\":1391:9243  contract WallyVesting is AccessControl, ReentrancyGuard {... */\n      sload\n      and\n        /* \"contracts/WallyVesting.sol\":7763:7810  currentTime >= (_start + _duration) || _revoked */\n      jump(tag_210)\n        /* \"contracts/WallyVesting.sol\":7191:7222  _token.balanceOf(address(this)) */\n    tag_200:\n      pop\n        /* \"contracts/WallyVesting.sol\":1391:9243  contract WallyVesting is AccessControl, ReentrancyGuard {... */\n      0x20\n        /* \"contracts/WallyVesting.sol\":7191:7222  _token.balanceOf(address(this)) */\n      dup3\n      returndatasize\n        /* \"contracts/WallyVesting.sol\":1391:9243  contract WallyVesting is AccessControl, ReentrancyGuard {... */\n      0x20\n        /* \"contracts/WallyVesting.sol\":7191:7222  _token.balanceOf(address(this)) */\n      gt\n      tag_219\n      jumpi\n    tag_220:\n      dup2\n      tag_221\n        /* \"contracts/WallyVesting.sol\":1391:9243  contract WallyVesting is AccessControl, ReentrancyGuard {... */\n      0x20\n        /* \"contracts/WallyVesting.sol\":7191:7222  _token.balanceOf(address(this)) */\n      swap4\n      dup4\n      tag_3\n      jump\t// in\n    tag_221:\n      dup2\n      add\n        /* \"contracts/WallyVesting.sol\":1391:9243  contract WallyVesting is AccessControl, ReentrancyGuard {... */\n      sub\n      slt\n      tag_52\n      jumpi\n        /* \"contracts/WallyVesting.sol\":7256:7280  totalCurrent + released_ */\n      tag_202\n        /* \"contracts/WallyVesting.sol\":1391:9243  contract WallyVesting is AccessControl, ReentrancyGuard {... */\n      swap2\n      mload\n        /* \"contracts/WallyVesting.sol\":7191:7222  _token.balanceOf(address(this)) */\n      jump(tag_201)\n    tag_219:\n      returndatasize\n      swap2\n      pop\n      jump(tag_220)\n        /* \"@openzeppelin/contracts/access/AccessControl.sol\":3199:3302  function _checkRole(bytes32 role) internal view virtual {... */\n    tag_7:\n        /* \"@openzeppelin/contracts/access/AccessControl.sol\":2954:2960  _roles */\n      0x00\n        /* \"contracts/WallyVesting.sol\":1391:9243  contract WallyVesting is AccessControl, ReentrancyGuard {... */\n      dup2\n      dup2\n      mstore\n      0x20\n      dup2\n      dup2\n      mstore\n      0x40\n      dup1\n      dup4\n      keccak256\n        /* \"@openzeppelin/contracts/utils/Context.sol\":735:745  msg.sender */\n      caller\n        /* \"contracts/WallyVesting.sol\":1391:9243  contract WallyVesting is AccessControl, ReentrancyGuard {... */\n      dup5\n      mstore\n      swap1\n      swap2\n      mstore\n      swap1\n      keccak256\n      sload\n      0xff\n      and\n        /* \"@openzeppelin/contracts/access/AccessControl.sol\":3519:3542  !hasRole(role, account) */\n      iszero\n        /* \"@openzeppelin/contracts/access/AccessControl.sol\":3515:3623  if (!hasRole(role, account)) {... */\n      tag_224\n      jumpi\n        /* \"@openzeppelin/contracts/access/AccessControl.sol\":3199:3302  function _checkRole(bytes32 role) internal view virtual {... */\n      pop\n      jump\t// out\n        /* \"@openzeppelin/contracts/access/AccessControl.sol\":3515:3623  if (!hasRole(role, account)) {... */\n    tag_224:\n        /* \"@openzeppelin/contracts/access/AccessControl.sol\":3565:3612  AccessControlUnauthorizedAccount(account, role) */\n      shl(0xe0, 0xe2517d3f)\n        /* \"@openzeppelin/contracts/access/AccessControl.sol\":2954:2960  _roles */\n      0x00\n        /* \"@openzeppelin/contracts/access/AccessControl.sol\":3565:3612  AccessControlUnauthorizedAccount(account, role) */\n      mstore\n        /* \"@openzeppelin/contracts/utils/Context.sol\":735:745  msg.sender */\n      caller\n        /* \"@openzeppelin/contracts/access/AccessControl.sol\":3565:3612  AccessControlUnauthorizedAccount(account, role) */\n      0x04\n        /* \"contracts/WallyVesting.sol\":1391:9243  contract WallyVesting is AccessControl, ReentrancyGuard {... */\n      mstore\n      0x24\n      mstore\n      0x44\n        /* \"@openzeppelin/contracts/access/AccessControl.sol\":2954:2960  _roles */\n      0x00\n        /* \"@openzeppelin/contracts/access/AccessControl.sol\":3565:3612  AccessControlUnauthorizedAccount(account, role) */\n      revert\n        /* \"@openzeppelin/contracts/access/AccessControl.sol\":6179:6495  function _grantRole(bytes32 role, address account) internal virtual returns (bool) {... */\n    tag_8:\n        /* \"contracts/WallyVesting.sol\":1391:9243  contract WallyVesting is AccessControl, ReentrancyGuard {... */\n      0x00\n      dup2\n      dup2\n      mstore\n      0x20\n      dup2\n      dup2\n      mstore\n      0x40\n      dup1\n      dup4\n      keccak256\n      sub(shl(0xa0, 0x01), 0x01)\n      dup7\n      and\n      dup5\n      mstore\n      swap1\n      swap2\n      mstore\n      swap1\n      keccak256\n      sload\n      0xff\n      and\n      tag_226\n      jumpi\n      0x00\n      dup2\n      dup2\n      mstore\n      0x20\n      dup2\n      dup2\n      mstore\n      0x40\n      dup1\n      dup4\n      keccak256\n      sub(shl(0xa0, 0x01), 0x01)\n      swap6\n      swap1\n      swap6\n      and\n      dup1\n      dup5\n      mstore\n      swap5\n      swap1\n      swap2\n      mstore\n      dup2\n      keccak256\n      dup1\n      sload\n      not(0xff)\n      and\n      0x01\n      or\n      swap1\n      sstore\n        /* \"@openzeppelin/contracts/utils/Context.sol\":735:745  msg.sender */\n      caller\n      swap3\n        /* \"contracts/WallyVesting.sol\":1391:9243  contract WallyVesting is AccessControl, ReentrancyGuard {... */\n      swap2\n      swap1\n        /* \"@openzeppelin/contracts/access/AccessControl.sol\":6370:6410  RoleGranted(role, account, _msgSender()) */\n      0x2f8788117e7eff1d82e926ec794901d17c78024a50270940304540a733656f0d\n      swap1\n        /* \"contracts/WallyVesting.sol\":1391:9243  contract WallyVesting is AccessControl, ReentrancyGuard {... */\n      dup1\n        /* \"@openzeppelin/contracts/access/AccessControl.sol\":6370:6410  RoleGranted(role, account, _msgSender()) */\n      log4\n        /* \"@openzeppelin/contracts/access/AccessControl.sol\":6347:6351  true */\n      0x01\n        /* \"@openzeppelin/contracts/access/AccessControl.sol\":6424:6435  return true */\n      swap1\n      jump\t// out\n        /* \"@openzeppelin/contracts/access/AccessControl.sol\":6272:6489  if (!hasRole(role, account)) {... */\n    tag_226:\n        /* \"@openzeppelin/contracts/access/AccessControl.sol\":6466:6478  return false */\n      pop\n      pop\n        /* \"contracts/WallyVesting.sol\":1391:9243  contract WallyVesting is AccessControl, ReentrancyGuard {... */\n      0x00\n        /* \"@openzeppelin/contracts/access/AccessControl.sol\":6466:6478  return false */\n      swap1\n      jump\t// out\n        /* \"@openzeppelin/contracts/access/AccessControl.sol\":6730:7047  function _revokeRole(bytes32 role, address account) internal virtual returns (bool) {... */\n    tag_9:\n        /* \"contracts/WallyVesting.sol\":1391:9243  contract WallyVesting is AccessControl, ReentrancyGuard {... */\n      0x00\n      dup2\n      dup2\n      mstore\n      0x20\n      dup2\n      dup2\n      mstore\n      0x40\n      dup1\n      dup4\n      keccak256\n      sub(shl(0xa0, 0x01), 0x01)\n      dup7\n      and\n      dup5\n      mstore\n      swap1\n      swap2\n      mstore\n      swap1\n      keccak256\n      sload\n      0xff\n      and\n      iszero\n      tag_226\n      jumpi\n      0x00\n      dup2\n      dup2\n      mstore\n      0x20\n      dup2\n      dup2\n      mstore\n      0x40\n      dup1\n      dup4\n      keccak256\n      sub(shl(0xa0, 0x01), 0x01)\n      swap6\n      swap1\n      swap6\n      and\n      dup1\n      dup5\n      mstore\n      swap5\n      swap1\n      swap2\n      mstore\n      dup2\n      keccak256\n      dup1\n      sload\n      not(0xff)\n      and\n      swap1\n      sstore\n        /* \"@openzeppelin/contracts/utils/Context.sol\":735:745  msg.sender */\n      caller\n      swap3\n        /* \"contracts/WallyVesting.sol\":1391:9243  contract WallyVesting is AccessControl, ReentrancyGuard {... */\n      swap2\n      swap1\n        /* \"@openzeppelin/contracts/access/AccessControl.sol\":6922:6962  RoleRevoked(role, account, _msgSender()) */\n      0xf6391f5c32d9c69d2a47ea670b442974b53935d1edc7fd64eb21e047a839171b\n      swap1\n        /* \"contracts/WallyVesting.sol\":1391:9243  contract WallyVesting is AccessControl, ReentrancyGuard {... */\n      dup1\n        /* \"@openzeppelin/contracts/access/AccessControl.sol\":6922:6962  RoleRevoked(role, account, _msgSender()) */\n      log4\n        /* \"contracts/WallyVesting.sol\":1391:9243  contract WallyVesting is AccessControl, ReentrancyGuard {... */\n      0x01\n        /* \"@openzeppelin/contracts/access/AccessControl.sol\":6976:6987  return true */\n      swap1\n      jump\t// out\n        /* \"@openzeppelin/contracts/security/ReentrancyGuard.sol\":2336:2623  function _nonReentrantBefore() private {... */\n    tag_10:\n        /* \"@openzeppelin/contracts/security/ReentrancyGuard.sol\":1759:1760  2 */\n      0x02\n        /* \"@openzeppelin/contracts/security/ReentrancyGuard.sol\":2468:2475  _status */\n      0x01\n        /* \"contracts/WallyVesting.sol\":1391:9243  contract WallyVesting is AccessControl, ReentrancyGuard {... */\n      sload\n        /* \"@openzeppelin/contracts/security/ReentrancyGuard.sol\":2468:2487  _status != _ENTERED */\n      eq\n        /* \"@openzeppelin/contracts/security/ReentrancyGuard.sol\":1759:1760  2 */\n      tag_230\n      jumpi\n      0x02\n        /* \"@openzeppelin/contracts/security/ReentrancyGuard.sol\":2468:2475  _status */\n      0x01\n        /* \"contracts/WallyVesting.sol\":1391:9243  contract WallyVesting is AccessControl, ReentrancyGuard {... */\n      sstore\n        /* \"@openzeppelin/contracts/security/ReentrancyGuard.sol\":2336:2623  function _nonReentrantBefore() private {... */\n      jump\t// out\n        /* \"@openzeppelin/contracts/security/ReentrancyGuard.sol\":1759:1760  2 */\n    tag_230:\n        /* \"contracts/WallyVesting.sol\":1391:9243  contract WallyVesting is AccessControl, ReentrancyGuard {... */\n      mload(0x40)\n      shl(0xe5, 0x461bcd)\n        /* \"@openzeppelin/contracts/security/ReentrancyGuard.sol\":1759:1760  2 */\n      dup2\n      mstore\n      0x20\n      0x04\n      dup3\n      add\n      mstore\n      0x1f\n      0x24\n      dup3\n      add\n      mstore\n      0x5265656e7472616e637947756172643a207265656e7472616e742063616c6c00\n      0x44\n      dup3\n      add\n      mstore\n      0x64\n      swap1\n      revert\n        /* \"@openzeppelin/contracts/token/ERC20/utils/SafeERC20.sol\":1219:1379  function safeTransfer(IERC20 token, address to, uint256 value) internal {... */\n    tag_11:\n        /* \"contracts/WallyVesting.sol\":1391:9243  contract WallyVesting is AccessControl, ReentrancyGuard {... */\n      mload(0x40)\n      shl(0xe0, 0xa9059cbb)\n        /* \"@openzeppelin/contracts/token/ERC20/utils/SafeERC20.sol\":1328:1371  abi.encodeCall(token.transfer, (to, value)) */\n      0x20\n      dup3\n      dup2\n      add\n      swap2\n      dup3\n      mstore\n      sub(shl(0xa0, 0x01), 0x01)\n        /* \"contracts/WallyVesting.sol\":1391:9243  contract WallyVesting is AccessControl, ReentrancyGuard {... */\n      swap1\n      swap5\n      and\n        /* \"@openzeppelin/contracts/token/ERC20/utils/SafeERC20.sol\":1328:1371  abi.encodeCall(token.transfer, (to, value)) */\n      0x24\n      dup4\n      add\n        /* \"contracts/WallyVesting.sol\":1391:9243  contract WallyVesting is AccessControl, ReentrancyGuard {... */\n      mstore\n      0x44\n      dup1\n      dup4\n      add\n      swap6\n      swap1\n      swap6\n      mstore\n        /* \"@openzeppelin/contracts/token/ERC20/utils/SafeERC20.sol\":1328:1371  abi.encodeCall(token.transfer, (to, value)) */\n      swap4\n      dup2\n      mstore\n        /* \"@openzeppelin/contracts/token/ERC20/utils/SafeERC20.sol\":1219:1379  function safeTransfer(IERC20 token, address to, uint256 value) internal {... */\n      swap1\n      swap3\n      0x00\n      swap2\n        /* \"@openzeppelin/contracts/token/ERC20/utils/SafeERC20.sol\":1328:1371  abi.encodeCall(token.transfer, (to, value)) */\n      tag_232\n      0x64\n        /* \"contracts/WallyVesting.sol\":1391:9243  contract WallyVesting is AccessControl, ReentrancyGuard {... */\n      dup3\n        /* \"@openzeppelin/contracts/token/ERC20/utils/SafeERC20.sol\":1328:1371  abi.encodeCall(token.transfer, (to, value)) */\n      tag_3\n      jump\t// in\n    tag_232:\n        /* \"@openzeppelin/contracts/token/ERC20/utils/SafeERC20.sol\":7823:8244  assembly (\"memory-safe\") {... */\n      mload\n      swap1\n      dup3\n      dup6\n      gas\n      call\n      iszero\n      tag_73\n      jumpi\n      mload(0x00)\n      returndatasize\n        /* \"@openzeppelin/contracts/token/ERC20/utils/SafeERC20.sol\":8258:8273  returnSize == 0 */\n      tag_235\n      jumpi\n      pop\n      sub(shl(0xa0, 0x01), 0x01)\n        /* \"contracts/WallyVesting.sol\":1391:9243  contract WallyVesting is AccessControl, ReentrancyGuard {... */\n      dup2\n      and\n        /* \"@openzeppelin/contracts/token/ERC20/utils/SafeERC20.sol\":8276:8302  address(token).code.length */\n      extcodesize\n        /* \"@openzeppelin/contracts/token/ERC20/utils/SafeERC20.sol\":8276:8307  address(token).code.length == 0 */\n      iszero\n        /* \"@openzeppelin/contracts/token/ERC20/utils/SafeERC20.sol\":8258:8326  returnSize == 0 ? address(token).code.length == 0 : returnValue != 1 */\n    tag_237:\n        /* \"@openzeppelin/contracts/token/ERC20/utils/SafeERC20.sol\":8254:8400  if (returnSize == 0 ? address(token).code.length == 0 : returnValue != 1) {... */\n      tag_238\n      jumpi\n        /* \"@openzeppelin/contracts/token/ERC20/utils/SafeERC20.sol\":1219:1379  function safeTransfer(IERC20 token, address to, uint256 value) internal {... */\n      pop\n      jump\t// out\n        /* \"@openzeppelin/contracts/token/ERC20/utils/SafeERC20.sol\":8254:8400  if (returnSize == 0 ? address(token).code.length == 0 : returnValue != 1) {... */\n    tag_238:\n      shl(0xe0, 0x5274afe7)\n      0x00\n        /* \"@openzeppelin/contracts/token/ERC20/utils/SafeERC20.sol\":8349:8389  SafeERC20FailedOperation(address(token)) */\n      swap1\n      dup2\n      mstore\n      sub(shl(0xa0, 0x01), 0x01)\n        /* \"contracts/WallyVesting.sol\":1391:9243  contract WallyVesting is AccessControl, ReentrancyGuard {... */\n      swap2\n      swap1\n      swap2\n      and\n        /* \"@openzeppelin/contracts/token/ERC20/utils/SafeERC20.sol\":8349:8389  SafeERC20FailedOperation(address(token)) */\n      0x04\n        /* \"contracts/WallyVesting.sol\":1391:9243  contract WallyVesting is AccessControl, ReentrancyGuard {... */\n      mstore\n        /* \"@openzeppelin/contracts/token/ERC20/utils/SafeERC20.sol\":1328:1371  abi.encodeCall(token.transfer, (to, value)) */\n      0x24\n      swap1\n        /* \"@openzeppelin/contracts/token/ERC20/utils/SafeERC20.sol\":8349:8389  SafeERC20FailedOperation(address(token)) */\n      revert\n        /* \"@openzeppelin/contracts/token/ERC20/utils/SafeERC20.sol\":8258:8326  returnSize == 0 ? address(token).code.length == 0 : returnValue != 1 */\n    tag_235:\n        /* \"@openzeppelin/contracts/token/ERC20/utils/SafeERC20.sol\":8325:8326  1 */\n      0x01\n        /* \"@openzeppelin/contracts/token/ERC20/utils/SafeERC20.sol\":8310:8326  returnValue != 1 */\n      eq\n      iszero\n        /* \"@openzeppelin/contracts/token/ERC20/utils/SafeERC20.sol\":8258:8326  returnSize == 0 ? address(token).code.length == 0 : returnValue != 1 */\n      jump(tag_237)\n\n    auxdata: 0xa264697066735822122096cd499e25a01f34865f58b1c09af047886e55fccd75101a596ad306823d587664736f6c634300081c0033\n}\n",
				"bytecode": {
					"linkReferences": {},
					"object": "610120601f610e7c38819003918201601f19168301916001600160401b0383118484101761017b5780849260c094604052833981010312610177576100438161018f565b61004f6020830161018f565b9060408301519160608401519161006d60a06080870151960161018f565b600180556001600160a01b03909116908115610168576001600160a01b03831615610168576001600160a01b03811615610168576001860180871161014557841015610159576100bc906101a3565b5060805260a0528160e05281018091116101455760c05261010052604051610c0d908161024f82396080518181816101eb01528181610465015281816107360152610861015260a0518181816104300152610627015260c0518181816105ca01526108af015260e05181818161015001526108fc01526101005181818161033501526108da0152f35b634e487b7160e01b5f52601160045260245ffd5b6367f675ff60e01b5f5260045ffd5b63e6c4247b60e01b5f5260045ffd5b5f80fd5b634e487b7160e01b5f52604160045260245ffd5b51906001600160a01b038216820361017757565b6001600160a01b0381165f9081525f516020610e5c5f395f51905f52602052604090205460ff16610249576001600160a01b03165f8181525f516020610e5c5f395f51905f5260205260408120805460ff191660011790553391907fa49807205ce4d355092ef5a8a18f56e8913cf4a201fbe287825b095693c21775907f2f8788117e7eff1d82e926ec794901d17c78024a50270940304540a733656f0d9080a4600190565b505f9056fe6080806040526004361015610012575f80fd5b5f3560e01c90816301ffc9a7146107655750806321df0da714610721578063248a9ca3146106f75780632bc9ed02146106d55780632f2ff15d146106a657806336568abe1461067057806344b1231f14610656578063565a2e2c146106125780635b940081146105ed57806363260e36146105b357806386d1a69f146103ad57806391d1485414610372578063a217fddf14610358578063ad2e8c9b1461031e578063b6549f7514610173578063c5292c6714610139578063d547741f146101035763e33b7de3146100e2575f80fd5b346100ff575f3660031901126100ff576020600254604051908152f35b5f80fd5b346100ff57610137610114366107b8565b9061013261012d825f525f602052600160405f20015490565b6109b3565b610a73565b005b346100ff575f3660031901126100ff5760206040517f00000000000000000000000000000000000000000000000000000000000000008152f35b346100ff575f3660031901126100ff5761018b610af3565b335f9081527f7d7ffb7a348e1c6a02869081a26547b49160dd3df72d1d75a570eb9b698292ec602052604090205460ff16156102e75760035460ff81166102d85760ff19166001176003556040516370a0823160e01b81523060048201527f0000000000000000000000000000000000000000000000000000000000000000906020816024816001600160a01b0386165afa9081156102cd575f9161029b575b50610240610237610842565b60025490610835565b808211156102935761025191610835565b80610281575b7fab9bb9a2dbce8eb1c5199596521d57563c7289fb1ac680030c44e9a0d16e6ed05f80a160018055005b61028c913390610b49565b8080610257565b50505f610251565b90506020813d6020116102c5575b816102b6602093836107de565b810103126100ff57518261022b565b3d91506102a9565b6040513d5f823e3d90fd5b6301404c2b60e01b5f5260045ffd5b63e2517d3f60e01b5f52336004527fa49807205ce4d355092ef5a8a18f56e8913cf4a201fbe287825b095693c2177560245260445ffd5b346100ff575f3660031901126100ff5760206040517f00000000000000000000000000000000000000000000000000000000000000008152f35b346100ff575f3660031901126100ff5760206040515f8152f35b346100ff57610380366107b8565b905f525f60205260405f209060018060a01b03165f52602052602060ff60405f2054166040519015158152f35b346100ff575f3660031901126100ff576103c5610af3565b335f9081527f7d7ffb7a348e1c6a02869081a26547b49160dd3df72d1d75a570eb9b698292ec602052604090205460ff16156105a45760ff600354166102d85761040d610842565b61041a6002548092610835565b908115610595576040516370a0823160e01b81527f00000000000000000000000000000000000000000000000000000000000000006001600160a01b038181166004840181905292947f000000000000000000000000000000000000000000000000000000000000000091821693929091602087602481885afa9687156102cd575f97610557575b50916104b19160209493610b49565b6024604051809481936370a0823160e01b835260048301525afa9081156102cd575f91610521575b7fa1598fb976f7dd9df63fd18699c54a5744a6a95364166bbd0d77a2f6c8438b1f60208461051161050a8887610835565b8092610814565b600255604051908152a160018055005b9190506020823d60201161054f575b8161053d602093836107de565b810103126100ff5790516105116104d9565b3d9150610530565b9193929096506020823d60201161058d575b81610576602093836107de565b810103126100ff57905195919290916104b16104a2565b3d9150610569565b63b10205ed60e01b5f5260045ffd5b63ea8e4eb560e01b5f5260045ffd5b346100ff575f3660031901126100ff5760206040517f00000000000000000000000000000000000000000000000000000000000000008152f35b346100ff575f3660031901126100ff57602061060a610237610842565b604051908152f35b346100ff575f3660031901126100ff576040517f00000000000000000000000000000000000000000000000000000000000000006001600160a01b03168152602090f35b346100ff575f3660031901126100ff57602061060a610842565b346100ff5761067e366107b8565b336001600160a01b038216036106975761013791610a73565b63334bd91960e11b5f5260045ffd5b346100ff576101376106b7366107b8565b906106d061012d825f525f602052600160405f20015490565b6109eb565b346100ff575f3660031901126100ff57602060ff600354166040519015158152f35b346100ff5760203660031901126100ff57602061060a6004355f525f602052600160405f20015490565b346100ff575f3660031901126100ff576040517f00000000000000000000000000000000000000000000000000000000000000006001600160a01b03168152602090f35b346100ff5760203660031901126100ff576004359063ffffffff60e01b82168092036100ff57602091637965db0b60e01b81149081156107a7575b5015158152f35b6301ffc9a760e01b149050836107a0565b60409060031901126100ff57600435906024356001600160a01b03811681036100ff5790565b90601f8019910116810190811067ffffffffffffffff82111761080057604052565b634e487b7160e01b5f52604160045260245ffd5b9190820180921161082157565b634e487b7160e01b5f52601160045260245ffd5b9190820391821161082157565b6002546040516370a0823160e01b8152306004820152906020826024817f00000000000000000000000000000000000000000000000000000000000000006001600160a01b03165afa80156102cd575f9061097f575b6108a29250610814565b60014201804211610821577f0000000000000000000000000000000000000000000000000000000000000000106108d857505f90565b7f0000000000000000000000000000000000000000000000000000000000000000907f00000000000000000000000000000000000000000000000000000000000000006109258382610814565b4210801590610973575b1561093a5750905090565b6109449042610835565b9081810291818304149015171561082157811561095f570490565b634e487b7160e01b5f52601260045260245ffd5b5060ff6003541661092f565b506020823d6020116109ab575b81610999602093836107de565b810103126100ff576108a29151610898565b3d915061098c565b5f8181526020818152604080832033845290915290205460ff16156109d55750565b63e2517d3f60e01b5f523360045260245260445ffd5b5f818152602081815260408083206001600160a01b038616845290915290205460ff16610a6d575f818152602081815260408083206001600160a01b0395909516808452949091528120805460ff19166001179055339291907f2f8788117e7eff1d82e926ec794901d17c78024a50270940304540a733656f0d9080a4600190565b50505f90565b5f818152602081815260408083206001600160a01b038616845290915290205460ff1615610a6d575f818152602081815260408083206001600160a01b0395909516808452949091528120805460ff19169055339291907ff6391f5c32d9c69d2a47ea670b442974b53935d1edc7fd64eb21e047a839171b9080a4600190565b600260015414610b04576002600155565b60405162461bcd60e51b815260206004820152601f60248201527f5265656e7472616e637947756172643a207265656e7472616e742063616c6c006044820152606490fd5b60405163a9059cbb60e01b60208281019182526001600160a01b03909416602483015260448083019590955293815290925f91610b876064826107de565b519082855af1156102cd575f513d610bce57506001600160a01b0381163b155b610bae5750565b635274afe760e01b5f9081526001600160a01b0391909116600452602490fd5b60011415610ba756fea264697066735822122096cd499e25a01f34865f58b1c09af047886e55fccd75101a596ad306823d587664736f6c634300081c00337d7ffb7a348e1c6a02869081a26547b49160dd3df72d1d75a570eb9b698292ec",
					"opcodes": "PUSH2 0x120 PUSH1 0x1F PUSH2 0xE7C CODESIZE DUP2 SWAP1 SUB SWAP2 DUP3 ADD PUSH1 0x1F NOT AND DUP4 ADD SWAP2 PUSH1 0x1 PUSH1 0x1 PUSH1 0x40 SHL SUB DUP4 GT DUP5 DUP5 LT OR PUSH2 0x17B JUMPI DUP1 DUP5 SWAP3 PUSH1 0xC0 SWAP5 PUSH1 0x40 MSTORE DUP4 CODECOPY DUP2 ADD SUB SLT PUSH2 0x177 JUMPI PUSH2 0x43 DUP2 PUSH2 0x18F JUMP JUMPDEST PUSH2 0x4F PUSH1 0x20 DUP4 ADD PUSH2 0x18F JUMP JUMPDEST SWAP1 PUSH1 0x40 DUP4 ADD MLOAD SWAP2 PUSH1 0x60 DUP5 ADD MLOAD SWAP2 PUSH2 0x6D PUSH1 0xA0 PUSH1 0x80 DUP8 ADD MLOAD SWAP7 ADD PUSH2 0x18F JUMP JUMPDEST PUSH1 0x1 DUP1 SSTORE PUSH1 0x1 PUSH1 0x1 PUSH1 0xA0 SHL SUB SWAP1 SWAP2 AND SWAP1 DUP2 ISZERO PUSH2 0x168 JUMPI PUSH1 0x1 PUSH1 0x1 PUSH1 0xA0 SHL SUB DUP4 AND ISZERO PUSH2 0x168 JUMPI PUSH1 0x1 PUSH1 0x1 PUSH1 0xA0 SHL SUB DUP2 AND ISZERO PUSH2 0x168 JUMPI PUSH1 0x1 DUP7 ADD DUP1 DUP8 GT PUSH2 0x145 JUMPI DUP5 LT ISZERO PUSH2 0x159 JUMPI PUSH2 0xBC SWAP1 PUSH2 0x1A3 JUMP JUMPDEST POP PUSH1 0x80 MSTORE PUSH1 0xA0 MSTORE DUP2 PUSH1 0xE0 MSTORE DUP2 ADD DUP1 SWAP2 GT PUSH2 0x145 JUMPI PUSH1 0xC0 MSTORE PUSH2 0x100 MSTORE PUSH1 0x40 MLOAD PUSH2 0xC0D SWAP1 DUP2 PUSH2 0x24F DUP3 CODECOPY PUSH1 0x80 MLOAD DUP2 DUP2 DUP2 PUSH2 0x1EB ADD MSTORE DUP2 DUP2 PUSH2 0x465 ADD MSTORE DUP2 DUP2 PUSH2 0x736 ADD MSTORE PUSH2 0x861 ADD MSTORE PUSH1 0xA0 MLOAD DUP2 DUP2 DUP2 PUSH2 0x430 ADD MSTORE PUSH2 0x627 ADD MSTORE PUSH1 0xC0 MLOAD DUP2 DUP2 DUP2 PUSH2 0x5CA ADD MSTORE PUSH2 0x8AF ADD MSTORE PUSH1 0xE0 MLOAD DUP2 DUP2 DUP2 PUSH2 0x150 ADD MSTORE PUSH2 0x8FC ADD MSTORE PUSH2 0x100 MLOAD DUP2 DUP2 DUP2 PUSH2 0x335 ADD MSTORE PUSH2 0x8DA ADD MSTORE RETURN JUMPDEST PUSH4 0x4E487B71 PUSH1 0xE0 SHL PUSH0 MSTORE PUSH1 0x11 PUSH1 0x4 MSTORE PUSH1 0x24 PUSH0 REVERT JUMPDEST PUSH4 0x67F675FF PUSH1 0xE0 SHL PUSH0 MSTORE PUSH1 0x4 PUSH0 REVERT JUMPDEST PUSH4 0xE6C4247B PUSH1 0xE0 SHL PUSH0 MSTORE PUSH1 0x4 PUSH0 REVERT JUMPDEST PUSH0 DUP1 REVERT JUMPDEST PUSH4 0x4E487B71 PUSH1 0xE0 SHL PUSH0 MSTORE PUSH1 0x41 PUSH1 0x4 MSTORE PUSH1 0x24 PUSH0 REVERT JUMPDEST MLOAD SWAP1 PUSH1 0x1 PUSH1 0x1 PUSH1 0xA0 SHL SUB DUP3 AND DUP3 SUB PUSH2 0x177 JUMPI JUMP JUMPDEST PUSH1 0x1 PUSH1 0x1 PUSH1 0xA0 SHL SUB DUP2 AND PUSH0 SWAP1 DUP2 MSTORE PUSH0 MLOAD PUSH1 0x20 PUSH2 0xE5C PUSH0 CODECOPY PUSH0 MLOAD SWAP1 PUSH0 MSTORE PUSH1 0x20 MSTORE PUSH1 0x40 SWAP1 KECCAK256 SLOAD PUSH1 0xFF AND PUSH2 0x249 JUMPI PUSH1 0x1 PUSH1 0x1 PUSH1 0xA0 SHL SUB AND PUSH0 DUP2 DUP2 MSTORE PUSH0 MLOAD PUSH1 0x20 PUSH2 0xE5C PUSH0 CODECOPY PUSH0 MLOAD SWAP1 PUSH0 MSTORE PUSH1 0x20 MSTORE PUSH1 0x40 DUP2 KECCAK256 DUP1 SLOAD PUSH1 0xFF NOT AND PUSH1 0x1 OR SWAP1 SSTORE CALLER SWAP2 SWAP1 PUSH32 0xA49807205CE4D355092EF5A8A18F56E8913CF4A201FBE287825B095693C21775 SWAP1 PUSH32 0x2F8788117E7EFF1D82E926EC794901D17C78024A50270940304540A733656F0D SWAP1 DUP1 LOG4 PUSH1 0x1 SWAP1 JUMP JUMPDEST POP PUSH0 SWAP1 JUMP INVALID PUSH1 0x80 DUP1 PUSH1 0x40 MSTORE PUSH1 0x4 CALLDATASIZE LT ISZERO PUSH2 0x12 JUMPI PUSH0 DUP1 REVERT JUMPDEST PUSH0 CALLDATALOAD PUSH1 0xE0 SHR SWAP1 DUP2 PUSH4 0x1FFC9A7 EQ PUSH2 0x765 JUMPI POP DUP1 PUSH4 0x21DF0DA7 EQ PUSH2 0x721 JUMPI DUP1 PUSH4 0x248A9CA3 EQ PUSH2 0x6F7 JUMPI DUP1 PUSH4 0x2BC9ED02 EQ PUSH2 0x6D5 JUMPI DUP1 PUSH4 0x2F2FF15D EQ PUSH2 0x6A6 JUMPI DUP1 PUSH4 0x36568ABE EQ PUSH2 0x670 JUMPI DUP1 PUSH4 0x44B1231F EQ PUSH2 0x656 JUMPI DUP1 PUSH4 0x565A2E2C EQ PUSH2 0x612 JUMPI DUP1 PUSH4 0x5B940081 EQ PUSH2 0x5ED JUMPI DUP1 PUSH4 0x63260E36 EQ PUSH2 0x5B3 JUMPI DUP1 PUSH4 0x86D1A69F EQ PUSH2 0x3AD JUMPI DUP1 PUSH4 0x91D14854 EQ PUSH2 0x372 JUMPI DUP1 PUSH4 0xA217FDDF EQ PUSH2 0x358 JUMPI DUP1 PUSH4 0xAD2E8C9B EQ PUSH2 0x31E JUMPI DUP1 PUSH4 0xB6549F75 EQ PUSH2 0x173 JUMPI DUP1 PUSH4 0xC5292C67 EQ PUSH2 0x139 JUMPI DUP1 PUSH4 0xD547741F EQ PUSH2 0x103 JUMPI PUSH4 0xE33B7DE3 EQ PUSH2 0xE2 JUMPI PUSH0 DUP1 REVERT JUMPDEST CALLVALUE PUSH2 0xFF JUMPI PUSH0 CALLDATASIZE PUSH1 0x3 NOT ADD SLT PUSH2 0xFF JUMPI PUSH1 0x20 PUSH1 0x2 SLOAD PUSH1 0x40 MLOAD SWAP1 DUP2 MSTORE RETURN JUMPDEST PUSH0 DUP1 REVERT JUMPDEST CALLVALUE PUSH2 0xFF JUMPI PUSH2 0x137 PUSH2 0x114 CALLDATASIZE PUSH2 0x7B8 JUMP JUMPDEST SWAP1 PUSH2 0x132 PUSH2 0x12D DUP3 PUSH0 MSTORE PUSH0 PUSH1 0x20 MSTORE PUSH1 0x1 PUSH1 0x40 PUSH0 KECCAK256 ADD SLOAD SWAP1 JUMP JUMPDEST PUSH2 0x9B3 JUMP JUMPDEST PUSH2 0xA73 JUMP JUMPDEST STOP JUMPDEST CALLVALUE PUSH2 0xFF JUMPI PUSH0 CALLDATASIZE PUSH1 0x3 NOT ADD SLT PUSH2 0xFF JUMPI PUSH1 0x20 PUSH1 0x40 MLOAD PUSH32 0x0 DUP2 MSTORE RETURN JUMPDEST CALLVALUE PUSH2 0xFF JUMPI PUSH0 CALLDATASIZE PUSH1 0x3 NOT ADD SLT PUSH2 0xFF JUMPI PUSH2 0x18B PUSH2 0xAF3 JUMP JUMPDEST CALLER PUSH0 SWAP1 DUP2 MSTORE PUSH32 0x7D7FFB7A348E1C6A02869081A26547B49160DD3DF72D1D75A570EB9B698292EC PUSH1 0x20 MSTORE PUSH1 0x40 SWAP1 KECCAK256 SLOAD PUSH1 0xFF AND ISZERO PUSH2 0x2E7 JUMPI PUSH1 0x3 SLOAD PUSH1 0xFF DUP2 AND PUSH2 0x2D8 JUMPI PUSH1 0xFF NOT AND PUSH1 0x1 OR PUSH1 0x3 SSTORE PUSH1 0x40 MLOAD PUSH4 0x70A08231 PUSH1 0xE0 SHL DUP2 MSTORE ADDRESS PUSH1 0x4 DUP3 ADD MSTORE PUSH32 0x0 SWAP1 PUSH1 0x20 DUP2 PUSH1 0x24 DUP2 PUSH1 0x1 PUSH1 0x1 PUSH1 0xA0 SHL SUB DUP7 AND GAS STATICCALL SWAP1 DUP2 ISZERO PUSH2 0x2CD JUMPI PUSH0 SWAP2 PUSH2 0x29B JUMPI JUMPDEST POP PUSH2 0x240 PUSH2 0x237 PUSH2 0x842 JUMP JUMPDEST PUSH1 0x2 SLOAD SWAP1 PUSH2 0x835 JUMP JUMPDEST DUP1 DUP3 GT ISZERO PUSH2 0x293 JUMPI PUSH2 0x251 SWAP2 PUSH2 0x835 JUMP JUMPDEST DUP1 PUSH2 0x281 JUMPI JUMPDEST PUSH32 0xAB9BB9A2DBCE8EB1C5199596521D57563C7289FB1AC680030C44E9A0D16E6ED0 PUSH0 DUP1 LOG1 PUSH1 0x1 DUP1 SSTORE STOP JUMPDEST PUSH2 0x28C SWAP2 CALLER SWAP1 PUSH2 0xB49 JUMP JUMPDEST DUP1 DUP1 PUSH2 0x257 JUMP JUMPDEST POP POP PUSH0 PUSH2 0x251 JUMP JUMPDEST SWAP1 POP PUSH1 0x20 DUP2 RETURNDATASIZE PUSH1 0x20 GT PUSH2 0x2C5 JUMPI JUMPDEST DUP2 PUSH2 0x2B6 PUSH1 0x20 SWAP4 DUP4 PUSH2 0x7DE JUMP JUMPDEST DUP2 ADD SUB SLT PUSH2 0xFF JUMPI MLOAD DUP3 PUSH2 0x22B JUMP JUMPDEST RETURNDATASIZE SWAP2 POP PUSH2 0x2A9 JUMP JUMPDEST PUSH1 0x40 MLOAD RETURNDATASIZE PUSH0 DUP3 RETURNDATACOPY RETURNDATASIZE SWAP1 REVERT JUMPDEST PUSH4 0x1404C2B PUSH1 0xE0 SHL PUSH0 MSTORE PUSH1 0x4 PUSH0 REVERT JUMPDEST PUSH4 0xE2517D3F PUSH1 0xE0 SHL PUSH0 MSTORE CALLER PUSH1 0x4 MSTORE PUSH32 0xA49807205CE4D355092EF5A8A18F56E8913CF4A201FBE287825B095693C21775 PUSH1 0x24 MSTORE PUSH1 0x44 PUSH0 REVERT JUMPDEST CALLVALUE PUSH2 0xFF JUMPI PUSH0 CALLDATASIZE PUSH1 0x3 NOT ADD SLT PUSH2 0xFF JUMPI PUSH1 0x20 PUSH1 0x40 MLOAD PUSH32 0x0 DUP2 MSTORE RETURN JUMPDEST CALLVALUE PUSH2 0xFF JUMPI PUSH0 CALLDATASIZE PUSH1 0x3 NOT ADD SLT PUSH2 0xFF JUMPI PUSH1 0x20 PUSH1 0x40 MLOAD PUSH0 DUP2 MSTORE RETURN JUMPDEST CALLVALUE PUSH2 0xFF JUMPI PUSH2 0x380 CALLDATASIZE PUSH2 0x7B8 JUMP JUMPDEST SWAP1 PUSH0 MSTORE PUSH0 PUSH1 0x20 MSTORE PUSH1 0x40 PUSH0 KECCAK256 SWAP1 PUSH1 0x1 DUP1 PUSH1 0xA0 SHL SUB AND PUSH0 MSTORE PUSH1 0x20 MSTORE PUSH1 0x20 PUSH1 0xFF PUSH1 0x40 PUSH0 KECCAK256 SLOAD AND PUSH1 0x40 MLOAD SWAP1 ISZERO ISZERO DUP2 MSTORE RETURN JUMPDEST CALLVALUE PUSH2 0xFF JUMPI PUSH0 CALLDATASIZE PUSH1 0x3 NOT ADD SLT PUSH2 0xFF JUMPI PUSH2 0x3C5 PUSH2 0xAF3 JUMP JUMPDEST CALLER PUSH0 SWAP1 DUP2 MSTORE PUSH32 0x7D7FFB7A348E1C6A02869081A26547B49160DD3DF72D1D75A570EB9B698292EC PUSH1 0x20 MSTORE PUSH1 0x40 SWAP1 KECCAK256 SLOAD PUSH1 0xFF AND ISZERO PUSH2 0x5A4 JUMPI PUSH1 0xFF PUSH1 0x3 SLOAD AND PUSH2 0x2D8 JUMPI PUSH2 0x40D PUSH2 0x842 JUMP JUMPDEST PUSH2 0x41A PUSH1 0x2 SLOAD DUP1 SWAP3 PUSH2 0x835 JUMP JUMPDEST SWAP1 DUP2 ISZERO PUSH2 0x595 JUMPI PUSH1 0x40 MLOAD PUSH4 0x70A08231 PUSH1 0xE0 SHL DUP2 MSTORE PUSH32 0x0 PUSH1 0x1 PUSH1 0x1 PUSH1 0xA0 SHL SUB DUP2 DUP2 AND PUSH1 0x4 DUP5 ADD DUP2 SWAP1 MSTORE SWAP3 SWAP5 PUSH32 0x0 SWAP2 DUP3 AND SWAP4 SWAP3 SWAP1 SWAP2 PUSH1 0x20 DUP8 PUSH1 0x24 DUP2 DUP9 GAS STATICCALL SWAP7 DUP8 ISZERO PUSH2 0x2CD JUMPI PUSH0 SWAP8 PUSH2 0x557 JUMPI JUMPDEST POP SWAP2 PUSH2 0x4B1 SWAP2 PUSH1 0x20 SWAP5 SWAP4 PUSH2 0xB49 JUMP JUMPDEST PUSH1 0x24 PUSH1 0x40 MLOAD DUP1 SWAP5 DUP2 SWAP4 PUSH4 0x70A08231 PUSH1 0xE0 SHL DUP4 MSTORE PUSH1 0x4 DUP4 ADD MSTORE GAS STATICCALL SWAP1 DUP2 ISZERO PUSH2 0x2CD JUMPI PUSH0 SWAP2 PUSH2 0x521 JUMPI JUMPDEST PUSH32 0xA1598FB976F7DD9DF63FD18699C54A5744A6A95364166BBD0D77A2F6C8438B1F PUSH1 0x20 DUP5 PUSH2 0x511 PUSH2 0x50A DUP9 DUP8 PUSH2 0x835 JUMP JUMPDEST DUP1 SWAP3 PUSH2 0x814 JUMP JUMPDEST PUSH1 0x2 SSTORE PUSH1 0x40 MLOAD SWAP1 DUP2 MSTORE LOG1 PUSH1 0x1 DUP1 SSTORE STOP JUMPDEST SWAP2 SWAP1 POP PUSH1 0x20 DUP3 RETURNDATASIZE PUSH1 0x20 GT PUSH2 0x54F JUMPI JUMPDEST DUP2 PUSH2 0x53D PUSH1 0x20 SWAP4 DUP4 PUSH2 0x7DE JUMP JUMPDEST DUP2 ADD SUB SLT PUSH2 0xFF JUMPI SWAP1 MLOAD PUSH2 0x511 PUSH2 0x4D9 JUMP JUMPDEST RETURNDATASIZE SWAP2 POP PUSH2 0x530 JUMP JUMPDEST SWAP2 SWAP4 SWAP3 SWAP1 SWAP7 POP PUSH1 0x20 DUP3 RETURNDATASIZE PUSH1 0x20 GT PUSH2 0x58D JUMPI JUMPDEST DUP2 PUSH2 0x576 PUSH1 0x20 SWAP4 DUP4 PUSH2 0x7DE JUMP JUMPDEST DUP2 ADD SUB SLT PUSH2 0xFF JUMPI SWAP1 MLOAD SWAP6 SWAP2 SWAP3 SWAP1 SWAP2 PUSH2 0x4B1 PUSH2 0x4A2 JUMP JUMPDEST RETURNDATASIZE SWAP2 POP PUSH2 0x569 JUMP JUMPDEST PUSH4 0xB10205ED PUSH1 0xE0 SHL PUSH0 MSTORE PUSH1 0x4 PUSH0 REVERT JUMPDEST PUSH4 0xEA8E4EB5 PUSH1 0xE0 SHL PUSH0 MSTORE PUSH1 0x4 PUSH0 REVERT JUMPDEST CALLVALUE PUSH2 0xFF JUMPI PUSH0 CALLDATASIZE PUSH1 0x3 NOT ADD SLT PUSH2 0xFF JUMPI PUSH1 0x20 PUSH1 0x40 MLOAD PUSH32 0x0 DUP2 MSTORE RETURN JUMPDEST CALLVALUE PUSH2 0xFF JUMPI PUSH0 CALLDATASIZE PUSH1 0x3 NOT ADD SLT PUSH2 0xFF JUMPI PUSH1 0x20 PUSH2 0x60A PUSH2 0x237 PUSH2 0x842 JUMP JUMPDEST PUSH1 0x40 MLOAD SWAP1 DUP2 MSTORE RETURN JUMPDEST CALLVALUE PUSH2 0xFF JUMPI PUSH0 CALLDATASIZE PUSH1 0x3 NOT ADD SLT PUSH2 0xFF JUMPI PUSH1 0x40 MLOAD PUSH32 0x0 PUSH1 0x1 PUSH1 0x1 PUSH1 0xA0 SHL SUB AND DUP2 MSTORE PUSH1 0x20 SWAP1 RETURN JUMPDEST CALLVALUE PUSH2 0xFF JUMPI PUSH0 CALLDATASIZE PUSH1 0x3 NOT ADD SLT PUSH2 0xFF JUMPI PUSH1 0x20 PUSH2 0x60A PUSH2 0x842 JUMP JUMPDEST CALLVALUE PUSH2 0xFF JUMPI PUSH2 0x67E CALLDATASIZE PUSH2 0x7B8 JUMP JUMPDEST CALLER PUSH1 0x1 PUSH1 0x1 PUSH1 0xA0 SHL SUB DUP3 AND SUB PUSH2 0x697 JUMPI PUSH2 0x137 SWAP2 PUSH2 0xA73 JUMP JUMPDEST PUSH4 0x334BD919 PUSH1 0xE1 SHL PUSH0 MSTORE PUSH1 0x4 PUSH0 REVERT JUMPDEST CALLVALUE PUSH2 0xFF JUMPI PUSH2 0x137 PUSH2 0x6B7 CALLDATASIZE PUSH2 0x7B8 JUMP JUMPDEST SWAP1 PUSH2 0x6D0 PUSH2 0x12D DUP3 PUSH0 MSTORE PUSH0 PUSH1 0x20 MSTORE PUSH1 0x1 PUSH1 0x40 PUSH0 KECCAK256 ADD SLOAD SWAP1 JUMP JUMPDEST PUSH2 0x9EB JUMP JUMPDEST CALLVALUE PUSH2 0xFF JUMPI PUSH0 CALLDATASIZE PUSH1 0x3 NOT ADD SLT PUSH2 0xFF JUMPI PUSH1 0x20 PUSH1 0xFF PUSH1 0x3 SLOAD AND PUSH1 0x40 MLOAD SWAP1 ISZERO ISZERO DUP2 MSTORE RETURN JUMPDEST CALLVALUE PUSH2 0xFF JUMPI PUSH1 0x20 CALLDATASIZE PUSH1 0x3 NOT ADD SLT PUSH2 0xFF JUMPI PUSH1 0x20 PUSH2 0x60A PUSH1 0x4 CALLDATALOAD PUSH0 MSTORE PUSH0 PUSH1 0x20 MSTORE PUSH1 0x1 PUSH1 0x40 PUSH0 KECCAK256 ADD SLOAD SWAP1 JUMP JUMPDEST CALLVALUE PUSH2 0xFF JUMPI PUSH0 CALLDATASIZE PUSH1 0x3 NOT ADD SLT PUSH2 0xFF JUMPI PUSH1 0x40 MLOAD PUSH32 0x0 PUSH1 0x1 PUSH1 0x1 PUSH1 0xA0 SHL SUB AND DUP2 MSTORE PUSH1 0x20 SWAP1 RETURN JUMPDEST CALLVALUE PUSH2 0xFF JUMPI PUSH1 0x20 CALLDATASIZE PUSH1 0x3 NOT ADD SLT PUSH2 0xFF JUMPI PUSH1 0x4 CALLDATALOAD SWAP1 PUSH4 0xFFFFFFFF PUSH1 0xE0 SHL DUP3 AND DUP1 SWAP3 SUB PUSH2 0xFF JUMPI PUSH1 0x20 SWAP2 PUSH4 0x7965DB0B PUSH1 0xE0 SHL DUP2 EQ SWAP1 DUP2 ISZERO PUSH2 0x7A7 JUMPI JUMPDEST POP ISZERO ISZERO DUP2 MSTORE RETURN JUMPDEST PUSH4 0x1FFC9A7 PUSH1 0xE0 SHL EQ SWAP1 POP DUP4 PUSH2 0x7A0 JUMP JUMPDEST PUSH1 0x40 SWAP1 PUSH1 0x3 NOT ADD SLT PUSH2 0xFF JUMPI PUSH1 0x4 CALLDATALOAD SWAP1 PUSH1 0x24 CALLDATALOAD PUSH1 0x1 PUSH1 0x1 PUSH1 0xA0 SHL SUB DUP2 AND DUP2 SUB PUSH2 0xFF JUMPI SWAP1 JUMP JUMPDEST SWAP1 PUSH1 0x1F DUP1 NOT SWAP2 ADD AND DUP2 ADD SWAP1 DUP2 LT PUSH8 0xFFFFFFFFFFFFFFFF DUP3 GT OR PUSH2 0x800 JUMPI PUSH1 0x40 MSTORE JUMP JUMPDEST PUSH4 0x4E487B71 PUSH1 0xE0 SHL PUSH0 MSTORE PUSH1 0x41 PUSH1 0x4 MSTORE PUSH1 0x24 PUSH0 REVERT JUMPDEST SWAP2 SWAP1 DUP3 ADD DUP1 SWAP3 GT PUSH2 0x821 JUMPI JUMP JUMPDEST PUSH4 0x4E487B71 PUSH1 0xE0 SHL PUSH0 MSTORE PUSH1 0x11 PUSH1 0x4 MSTORE PUSH1 0x24 PUSH0 REVERT JUMPDEST SWAP2 SWAP1 DUP3 SUB SWAP2 DUP3 GT PUSH2 0x821 JUMPI JUMP JUMPDEST PUSH1 0x2 SLOAD PUSH1 0x40 MLOAD PUSH4 0x70A08231 PUSH1 0xE0 SHL DUP2 MSTORE ADDRESS PUSH1 0x4 DUP3 ADD MSTORE SWAP1 PUSH1 0x20 DUP3 PUSH1 0x24 DUP2 PUSH32 0x0 PUSH1 0x1 PUSH1 0x1 PUSH1 0xA0 SHL SUB AND GAS STATICCALL DUP1 ISZERO PUSH2 0x2CD JUMPI PUSH0 SWAP1 PUSH2 0x97F JUMPI JUMPDEST PUSH2 0x8A2 SWAP3 POP PUSH2 0x814 JUMP JUMPDEST PUSH1 0x1 TIMESTAMP ADD DUP1 TIMESTAMP GT PUSH2 0x821 JUMPI PUSH32 0x0 LT PUSH2 0x8D8 JUMPI POP PUSH0 SWAP1 JUMP JUMPDEST PUSH32 0x0 SWAP1 PUSH32 0x0 PUSH2 0x925 DUP4 DUP3 PUSH2 0x814 JUMP JUMPDEST TIMESTAMP LT DUP1 ISZERO SWAP1 PUSH2 0x973 JUMPI JUMPDEST ISZERO PUSH2 0x93A JUMPI POP SWAP1 POP SWAP1 JUMP JUMPDEST PUSH2 0x944 SWAP1 TIMESTAMP PUSH2 0x835 JUMP JUMPDEST SWAP1 DUP2 DUP2 MUL SWAP2 DUP2 DUP4 DIV EQ SWAP1 ISZERO OR ISZERO PUSH2 0x821 JUMPI DUP2 ISZERO PUSH2 0x95F JUMPI DIV SWAP1 JUMP JUMPDEST PUSH4 0x4E487B71 PUSH1 0xE0 SHL PUSH0 MSTORE PUSH1 0x12 PUSH1 0x4 MSTORE PUSH1 0x24 PUSH0 REVERT JUMPDEST POP PUSH1 0xFF PUSH1 0x3 SLOAD AND PUSH2 0x92F JUMP JUMPDEST POP PUSH1 0x20 DUP3 RETURNDATASIZE PUSH1 0x20 GT PUSH2 0x9AB JUMPI JUMPDEST DUP2 PUSH2 0x999 PUSH1 0x20 SWAP4 DUP4 PUSH2 0x7DE JUMP JUMPDEST DUP2 ADD SUB SLT PUSH2 0xFF JUMPI PUSH2 0x8A2 SWAP2 MLOAD PUSH2 0x898 JUMP JUMPDEST RETURNDATASIZE SWAP2 POP PUSH2 0x98C JUMP JUMPDEST PUSH0 DUP2 DUP2 MSTORE PUSH1 0x20 DUP2 DUP2 MSTORE PUSH1 0x40 DUP1 DUP4 KECCAK256 CALLER DUP5 MSTORE SWAP1 SWAP2 MSTORE SWAP1 KECCAK256 SLOAD PUSH1 0xFF AND ISZERO PUSH2 0x9D5 JUMPI POP JUMP JUMPDEST PUSH4 0xE2517D3F PUSH1 0xE0 SHL PUSH0 MSTORE CALLER PUSH1 0x4 MSTORE PUSH1 0x24 MSTORE PUSH1 0x44 PUSH0 REVERT JUMPDEST PUSH0 DUP2 DUP2 MSTORE PUSH1 0x20 DUP2 DUP2 MSTORE PUSH1 0x40 DUP1 DUP4 KECCAK256 PUSH1 0x1 PUSH1 0x1 PUSH1 0xA0 SHL SUB DUP7 AND DUP5 MSTORE SWAP1 SWAP2 MSTORE SWAP1 KECCAK256 SLOAD PUSH1 0xFF AND PUSH2 0xA6D JUMPI PUSH0 DUP2 DUP2 MSTORE PUSH1 0x20 DUP2 DUP2 MSTORE PUSH1 0x40 DUP1 DUP4 KECCAK256 PUSH1 0x1 PUSH1 0x1 PUSH1 0xA0 SHL SUB SWAP6 SWAP1 SWAP6 AND DUP1 DUP5 MSTORE SWAP5 SWAP1 SWAP2 MSTORE DUP2 KECCAK256 DUP1 SLOAD PUSH1 0xFF NOT AND PUSH1 0x1 OR SWAP1 SSTORE CALLER SWAP3 SWAP2 SWAP1 PUSH32 0x2F8788117E7EFF1D82E926EC794901D17C78024A50270940304540A733656F0D SWAP1 DUP1 LOG4 PUSH1 0x1 SWAP1 JUMP JUMPDEST POP POP PUSH0 SWAP1 JUMP JUMPDEST PUSH0 DUP2 DUP2 MSTORE PUSH1 0x20 DUP2 DUP2 MSTORE PUSH1 0x40 DUP1 DUP4 KECCAK256 PUSH1 0x1 PUSH1 0x1 PUSH1 0xA0 SHL SUB DUP7 AND DUP5 MSTORE SWAP1 SWAP2 MSTORE SWAP1 KECCAK256 SLOAD PUSH1 0xFF AND ISZERO PUSH2 0xA6D JUMPI PUSH0 DUP2 DUP2 MSTORE PUSH1 0x20 DUP2 DUP2 MSTORE PUSH1 0x40 DUP1 DUP4 KECCAK256 PUSH1 0x1 PUSH1 0x1 PUSH1 0xA0 SHL SUB SWAP6 SWAP1 SWAP6 AND DUP1 DUP5 MSTORE SWAP5 SWAP1 SWAP2 MSTORE DUP2 KECCAK256 DUP1 SLOAD PUSH1 0xFF NOT AND SWAP1 SSTORE CALLER SWAP3 SWAP2 SWAP1 PUSH32 0xF6391F5C32D9C69D2A47EA670B442974B53935D1EDC7FD64EB21E047A839171B SWAP1 DUP1 LOG4 PUSH1 0x1 SWAP1 JUMP JUMPDEST PUSH1 0x2 PUSH1 0x1 SLOAD EQ PUSH2 0xB04 JUMPI PUSH1 0x2 PUSH1 0x1 SSTORE JUMP JUMPDEST PUSH1 0x40 MLOAD PUSH3 0x461BCD PUSH1 0xE5 SHL DUP2 MSTORE PUSH1 0x20 PUSH1 0x4 DUP3 ADD MSTORE PUSH1 0x1F PUSH1 0x24 DUP3 ADD MSTORE PUSH32 0x5265656E7472616E637947756172643A207265656E7472616E742063616C6C00 PUSH1 0x44 DUP3 ADD MSTORE PUSH1 0x64 SWAP1 REVERT JUMPDEST PUSH1 0x40 MLOAD PUSH4 0xA9059CBB PUSH1 0xE0 SHL PUSH1 0x20 DUP3 DUP2 ADD SWAP2 DUP3 MSTORE PUSH1 0x1 PUSH1 0x1 PUSH1 0xA0 SHL SUB SWAP1 SWAP5 AND PUSH1 0x24 DUP4 ADD MSTORE PUSH1 0x44 DUP1 DUP4 ADD SWAP6 SWAP1 SWAP6 MSTORE SWAP4 DUP2 MSTORE SWAP1 SWAP3 PUSH0 SWAP2 PUSH2 0xB87 PUSH1 0x64 DUP3 PUSH2 0x7DE JUMP JUMPDEST MLOAD SWAP1 DUP3 DUP6 GAS CALL ISZERO PUSH2 0x2CD JUMPI PUSH0 MLOAD RETURNDATASIZE PUSH2 0xBCE JUMPI POP PUSH1 0x1 PUSH1 0x1 PUSH1 0xA0 SHL SUB DUP2 AND EXTCODESIZE ISZERO JUMPDEST PUSH2 0xBAE JUMPI POP JUMP JUMPDEST PUSH4 0x5274AFE7 PUSH1 0xE0 SHL PUSH0 SWAP1 DUP2 MSTORE PUSH1 0x1 PUSH1 0x1 PUSH1 0xA0 SHL SUB SWAP2 SWAP1 SWAP2 AND PUSH1 0x4 MSTORE PUSH1 0x24 SWAP1 REVERT JUMPDEST PUSH1 0x1 EQ ISZERO PUSH2 0xBA7 JUMP INVALID LOG2 PUSH5 0x6970667358 0x22 SLT KECCAK256 SWAP7 0xCD BLOBHASH SWAP15 0x25 LOG0 0x1F CALLVALUE DUP7 PUSH0 PC 0xB1 0xC0 SWAP11 CREATE SELFBALANCE DUP9 PUSH15 0x55FCCD75101A596AD306823D587664 PUSH20 0x6F6C634300081C00337D7FFB7A348E1C6A028690 DUP2 LOG2 PUSH6 0x47B49160DD3D 0xF7 0x2D SAR PUSH22 0xA570EB9B698292EC0000000000000000000000000000 "
				},
				"gasEstimates": {
					"creation": {
						"codeDepositCost": "617000",
						"executionCost": "infinite",
						"totalCost": "infinite"
					},
					"external": {
						"DEFAULT_ADMIN_ROLE()": "416",
						"getBeneficiary()": "infinite",
						"getCliff()": "infinite",
						"getDuration()": "infinite",
						"getRoleAdmin(bytes32)": "2385",
						"getStart()": "infinite",
						"getToken()": "infinite",
						"grantRole(bytes32,address)": "33361",
						"hasRole(bytes32,address)": "2735",
						"isRevoked()": "2334",
						"releasableAmount()": "infinite",
						"release()": "infinite",
						"renounceRole(bytes32,address)": "28951",
						"revoke()": "infinite",
						"revokeRole(bytes32,address)": "33622",
						"supportsInterface(bytes4)": "270",
						"totalReleased()": "2627",
						"vestedAmount()": "infinite"
					}
				},
				"methodIdentifiers": {
					"DEFAULT_ADMIN_ROLE()": "a217fddf",
					"getBeneficiary()": "565a2e2c",
					"getCliff()": "63260e36",
					"getDuration()": "ad2e8c9b",
					"getRoleAdmin(bytes32)": "248a9ca3",
					"getStart()": "c5292c67",
					"getToken()": "21df0da7",
					"grantRole(bytes32,address)": "2f2ff15d",
					"hasRole(bytes32,address)": "91d14854",
					"isRevoked()": "2bc9ed02",
					"releasableAmount()": "5b940081",
					"release()": "86d1a69f",
					"renounceRole(bytes32,address)": "36568abe",
					"revoke()": "b6549f75",
					"revokeRole(bytes32,address)": "d547741f",
					"supportsInterface(bytes4)": "01ffc9a7",
					"totalReleased()": "e33b7de3",
					"vestedAmount()": "44b1231f"
				}
			},
			"storageLayout": {
				"storage": [
					{
						"astId": 185,
						"contract": "contracts/WallyVesting.sol:WallyVesting",
						"label": "_roles",
						"offset": 0,
						"slot": "0",
						"type": "t_mapping(t_bytes32,t_struct(RoleData)180_storage)"
					},
					{
						"astId": 638,
						"contract": "contracts/WallyVesting.sol:WallyVesting",
						"label": "_status",
						"offset": 0,
						"slot": "1",
						"type": "t_uint256"
					},
					{
						"astId": 1291,
						"contract": "contracts/WallyVesting.sol:WallyVesting",
						"label": "_released",
						"offset": 0,
						"slot": "2",
						"type": "t_uint256"
					},
					{
						"astId": 1293,
						"contract": "contracts/WallyVesting.sol:WallyVesting",
						"label": "_revoked",
						"offset": 0,
						"slot": "3",
						"type": "t_bool"
					}
				],
				"types": {
					"t_address": {
						"encoding": "inplace",
						"label": "address",
						"numberOfBytes": "20"
					},
					"t_bool": {
						"encoding": "inplace",
						"label": "bool",
						"numberOfBytes": "1"
					},
					"t_bytes32": {
						"encoding": "inplace",
						"label": "bytes32",
						"numberOfBytes": "32"
					},
					"t_mapping(t_address,t_bool)": {
						"encoding": "mapping",
						"key": "t_address",
						"label": "mapping(address => bool)",
						"numberOfBytes": "32",
						"value": "t_bool"
					},
					"t_mapping(t_bytes32,t_struct(RoleData)180_storage)": {
						"encoding": "mapping",
						"key": "t_bytes32",
						"label": "mapping(bytes32 => struct AccessControl.RoleData)",
						"numberOfBytes": "32",
						"value": "t_struct(RoleData)180_storage"
					},
					"t_struct(RoleData)180_storage": {
						"encoding": "inplace",
						"label": "struct AccessControl.RoleData",
						"members": [
							{
								"astId": 177,
								"contract": "contracts/WallyVesting.sol:WallyVesting",
								"label": "hasRole",
								"offset": 0,
								"slot": "0",
								"type": "t_mapping(t_address,t_bool)"
							},
							{
								"astId": 179,
								"contract": "contracts/WallyVesting.sol:WallyVesting",
								"label": "adminRole",
								"offset": 0,
								"slot": "1",
								"type": "t_bytes32"
							}
						],
						"numberOfBytes": "64"
					},
					"t_uint256": {
						"encoding": "inplace",
						"label": "uint256",
						"numberOfBytes": "32"
					}
				}
			},
			"userdoc": {
				"kind": "user",
				"methods": {},
				"version": 1
			}
		}
	}
}