{
	"contracts/WallyStaking.sol": {
		"WallyStaking": {
			"abi": [
				{
					"inputs": [
						{
							"internalType": "address",
							"name": "tokenAddress",
							"type": "address"
						},
						{
							"internalType": "address",
							"name": "adminAddress",
							"type": "address"
						}
					],
					"stateMutability": "payable",
					"type": "constructor"
				},
				{
					"inputs": [],
					"name": "AccessControlBadConfirmation",
					"type": "error"
				},
				{
					"inputs": [
						{
							"internalType": "address",
							"name": "account",
							"type": "address"
						},
						{
							"internalType": "bytes32",
							"name": "neededRole",
							"type": "bytes32"
						}
					],
					"name": "AccessControlUnauthorizedAccount",
					"type": "error"
				},
				{
					"inputs": [],
					"name": "DurationAlreadyExists",
					"type": "error"
				},
				{
					"inputs": [],
					"name": "InsufficientRewardsPool",
					"type": "error"
				},
				{
					"inputs": [],
					"name": "InvalidAmount",
					"type": "error"
				},
				{
					"inputs": [],
					"name": "InvalidDuration",
					"type": "error"
				},
				{
					"inputs": [],
					"name": "InvalidZeroAddress",
					"type": "error"
				},
				{
					"inputs": [],
					"name": "NoActiveStake",
					"type": "error"
				},
				{
					"inputs": [],
					"name": "NoRewardsAvailable",
					"type": "error"
				},
				{
					"inputs": [
						{
							"internalType": "address",
							"name": "token",
							"type": "address"
						}
					],
					"name": "SafeERC20FailedOperation",
					"type": "error"
				},
				{
					"inputs": [],
					"name": "StakingNotActive",
					"type": "error"
				},
				{
					"inputs": [],
					"name": "StakingStillLocked",
					"type": "error"
				},
				{
					"anonymous": false,
					"inputs": [
						{
							"indexed": true,
							"internalType": "address",
							"name": "user",
							"type": "address"
						},
						{
							"indexed": false,
							"internalType": "uint256",
							"name": "amount",
							"type": "uint256"
						}
					],
					"name": "EmergencyWithdraw",
					"type": "event"
				},
				{
					"anonymous": false,
					"inputs": [
						{
							"indexed": true,
							"internalType": "address",
							"name": "user",
							"type": "address"
						},
						{
							"indexed": false,
							"internalType": "uint256",
							"name": "amount",
							"type": "uint256"
						}
					],
					"name": "RewardClaimed",
					"type": "event"
				},
				{
					"anonymous": false,
					"inputs": [
						{
							"indexed": false,
							"internalType": "uint256",
							"name": "amount",
							"type": "uint256"
						}
					],
					"name": "RewardsAdded",
					"type": "event"
				},
				{
					"anonymous": false,
					"inputs": [
						{
							"indexed": true,
							"internalType": "bytes32",
							"name": "role",
							"type": "bytes32"
						},
						{
							"indexed": true,
							"internalType": "bytes32",
							"name": "previousAdminRole",
							"type": "bytes32"
						},
						{
							"indexed": true,
							"internalType": "bytes32",
							"name": "newAdminRole",
							"type": "bytes32"
						}
					],
					"name": "RoleAdminChanged",
					"type": "event"
				},
				{
					"anonymous": false,
					"inputs": [
						{
							"indexed": true,
							"internalType": "bytes32",
							"name": "role",
							"type": "bytes32"
						},
						{
							"indexed": true,
							"internalType": "address",
							"name": "account",
							"type": "address"
						},
						{
							"indexed": true,
							"internalType": "address",
							"name": "sender",
							"type": "address"
						}
					],
					"name": "RoleGranted",
					"type": "event"
				},
				{
					"anonymous": false,
					"inputs": [
						{
							"indexed": true,
							"internalType": "bytes32",
							"name": "role",
							"type": "bytes32"
						},
						{
							"indexed": true,
							"internalType": "address",
							"name": "account",
							"type": "address"
						},
						{
							"indexed": true,
							"internalType": "address",
							"name": "sender",
							"type": "address"
						}
					],
					"name": "RoleRevoked",
					"type": "event"
				},
				{
					"anonymous": false,
					"inputs": [
						{
							"indexed": true,
							"internalType": "address",
							"name": "user",
							"type": "address"
						},
						{
							"indexed": false,
							"internalType": "uint256",
							"name": "amount",
							"type": "uint256"
						},
						{
							"indexed": true,
							"internalType": "uint256",
							"name": "duration",
							"type": "uint256"
						},
						{
							"indexed": false,
							"internalType": "uint256",
							"name": "unlockTime",
							"type": "uint256"
						}
					],
					"name": "Staked",
					"type": "event"
				},
				{
					"anonymous": false,
					"inputs": [
						{
							"indexed": true,
							"internalType": "bool",
							"name": "isPaused",
							"type": "bool"
						}
					],
					"name": "StakingPaused",
					"type": "event"
				},
				{
					"anonymous": false,
					"inputs": [
						{
							"indexed": true,
							"internalType": "uint256",
							"name": "duration",
							"type": "uint256"
						},
						{
							"indexed": true,
							"internalType": "uint256",
							"name": "apy",
							"type": "uint256"
						}
					],
					"name": "StakingPlanAdded",
					"type": "event"
				},
				{
					"anonymous": false,
					"inputs": [
						{
							"indexed": true,
							"internalType": "uint256",
							"name": "duration",
							"type": "uint256"
						},
						{
							"indexed": true,
							"internalType": "uint256",
							"name": "apy",
							"type": "uint256"
						}
					],
					"name": "StakingPlanUpdated",
					"type": "event"
				},
				{
					"anonymous": false,
					"inputs": [
						{
							"indexed": true,
							"internalType": "address",
							"name": "user",
							"type": "address"
						},
						{
							"indexed": false,
							"internalType": "uint256",
							"name": "stakedAmount",
							"type": "uint256"
						},
						{
							"indexed": false,
							"internalType": "uint256",
							"name": "rewardAmount",
							"type": "uint256"
						}
					],
					"name": "Unstaked",
					"type": "event"
				},
				{
					"inputs": [],
					"name": "DEFAULT_ADMIN_ROLE",
					"outputs": [
						{
							"internalType": "bytes32",
							"name": "",
							"type": "bytes32"
						}
					],
					"stateMutability": "view",
					"type": "function"
				},
				{
					"inputs": [
						{
							"internalType": "uint256",
							"name": "amount",
							"type": "uint256"
						}
					],
					"name": "addRewards",
					"outputs": [],
					"stateMutability": "nonpayable",
					"type": "function"
				},
				{
					"inputs": [
						{
							"internalType": "uint256",
							"name": "duration",
							"type": "uint256"
						},
						{
							"internalType": "uint256",
							"name": "apr",
							"type": "uint256"
						}
					],
					"name": "addStakingPlan",
					"outputs": [],
					"stateMutability": "nonpayable",
					"type": "function"
				},
				{
					"inputs": [
						{
							"internalType": "address",
							"name": "user",
							"type": "address"
						}
					],
					"name": "calculatePendingRewards",
					"outputs": [
						{
							"internalType": "uint256",
							"name": "rewards",
							"type": "uint256"
						}
					],
					"stateMutability": "view",
					"type": "function"
				},
				{
					"inputs": [],
					"name": "claimRewards",
					"outputs": [],
					"stateMutability": "nonpayable",
					"type": "function"
				},
				{
					"inputs": [],
					"name": "emergencyWithdraw",
					"outputs": [],
					"stateMutability": "nonpayable",
					"type": "function"
				},
				{
					"inputs": [],
					"name": "getAvailableDurations",
					"outputs": [
						{
							"internalType": "uint256[]",
							"name": "durations",
							"type": "uint256[]"
						}
					],
					"stateMutability": "view",
					"type": "function"
				},
				{
					"inputs": [],
					"name": "getContractStats",
					"outputs": [
						{
							"internalType": "uint256",
							"name": "totalStaked",
							"type": "uint256"
						},
						{
							"internalType": "uint256",
							"name": "rewardsPool",
							"type": "uint256"
						},
						{
							"internalType": "bool",
							"name": "stakingPaused",
							"type": "bool"
						}
					],
					"stateMutability": "view",
					"type": "function"
				},
				{
					"inputs": [
						{
							"internalType": "bytes32",
							"name": "role",
							"type": "bytes32"
						}
					],
					"name": "getRoleAdmin",
					"outputs": [
						{
							"internalType": "bytes32",
							"name": "",
							"type": "bytes32"
						}
					],
					"stateMutability": "view",
					"type": "function"
				},
				{
					"inputs": [
						{
							"internalType": "uint256",
							"name": "duration",
							"type": "uint256"
						}
					],
					"name": "getStakingPlan",
					"outputs": [
						{
							"internalType": "bool",
							"name": "isActive",
							"type": "bool"
						},
						{
							"internalType": "uint256",
							"name": "apr",
							"type": "uint256"
						}
					],
					"stateMutability": "view",
					"type": "function"
				},
				{
					"inputs": [
						{
							"internalType": "address",
							"name": "user",
							"type": "address"
						}
					],
					"name": "getUserStakingInfo",
					"outputs": [
						{
							"components": [
								{
									"internalType": "uint256",
									"name": "stakedAmount",
									"type": "uint256"
								},
								{
									"internalType": "uint256",
									"name": "stakingStartTime",
									"type": "uint256"
								},
								{
									"internalType": "uint256",
									"name": "stakingEndTime",
									"type": "uint256"
								},
								{
									"internalType": "uint256",
									"name": "duration",
									"type": "uint256"
								},
								{
									"internalType": "uint256",
									"name": "apr",
									"type": "uint256"
								},
								{
									"internalType": "uint256",
									"name": "pendingRewards",
									"type": "uint256"
								},
								{
									"internalType": "bool",
									"name": "isActive",
									"type": "bool"
								}
							],
							"internalType": "struct WallyStaking.UserStakingInfo",
							"name": "userInfo",
							"type": "tuple"
						}
					],
					"stateMutability": "view",
					"type": "function"
				},
				{
					"inputs": [
						{
							"internalType": "bytes32",
							"name": "role",
							"type": "bytes32"
						},
						{
							"internalType": "address",
							"name": "account",
							"type": "address"
						}
					],
					"name": "grantRole",
					"outputs": [],
					"stateMutability": "nonpayable",
					"type": "function"
				},
				{
					"inputs": [
						{
							"internalType": "bytes32",
							"name": "role",
							"type": "bytes32"
						},
						{
							"internalType": "address",
							"name": "account",
							"type": "address"
						}
					],
					"name": "hasRole",
					"outputs": [
						{
							"internalType": "bool",
							"name": "",
							"type": "bool"
						}
					],
					"stateMutability": "view",
					"type": "function"
				},
				{
					"inputs": [
						{
							"internalType": "bytes32",
							"name": "role",
							"type": "bytes32"
						},
						{
							"internalType": "address",
							"name": "callerConfirmation",
							"type": "address"
						}
					],
					"name": "renounceRole",
					"outputs": [],
					"stateMutability": "nonpayable",
					"type": "function"
				},
				{
					"inputs": [
						{
							"internalType": "bytes32",
							"name": "role",
							"type": "bytes32"
						},
						{
							"internalType": "address",
							"name": "account",
							"type": "address"
						}
					],
					"name": "revokeRole",
					"outputs": [],
					"stateMutability": "nonpayable",
					"type": "function"
				},
				{
					"inputs": [
						{
							"internalType": "bool",
							"name": "paused",
							"type": "bool"
						}
					],
					"name": "setStakingPaused",
					"outputs": [],
					"stateMutability": "nonpayable",
					"type": "function"
				},
				{
					"inputs": [
						{
							"internalType": "uint256",
							"name": "amount",
							"type": "uint256"
						},
						{
							"internalType": "uint256",
							"name": "duration",
							"type": "uint256"
						}
					],
					"name": "stake",
					"outputs": [],
					"stateMutability": "nonpayable",
					"type": "function"
				},
				{
					"inputs": [
						{
							"internalType": "bytes4",
							"name": "interfaceId",
							"type": "bytes4"
						}
					],
					"name": "supportsInterface",
					"outputs": [
						{
							"internalType": "bool",
							"name": "",
							"type": "bool"
						}
					],
					"stateMutability": "view",
					"type": "function"
				},
				{
					"inputs": [],
					"name": "unstake",
					"outputs": [],
					"stateMutability": "nonpayable",
					"type": "function"
				},
				{
					"inputs": [
						{
							"internalType": "uint256",
							"name": "duration",
							"type": "uint256"
						},
						{
							"internalType": "uint256",
							"name": "apr",
							"type": "uint256"
						},
						{
							"internalType": "bool",
							"name": "isActive",
							"type": "bool"
						}
					],
					"name": "updateStakingPlan",
					"outputs": [],
					"stateMutability": "nonpayable",
					"type": "function"
				}
			],
			"evm": {
				"assembly": "    /* \"contracts/WallyStaking.sol\":940:16949  contract WallyStaking is AccessControl, ReentrancyGuard {... */\n  0xa0\n  0x1f\n  bytecodeSize\n  codesize\n  dup2\n  swap1\n  sub\n  swap2\n  dup3\n  add\n  not(0x1f)\n  and\n  dup4\n  add\n  swap2\n  sub(shl(0x40, 0x01), 0x01)\n  dup4\n  gt\n  dup5\n  dup5\n  lt\n  or\n  tag_32\n  jumpi\n  dup1\n  dup5\n  swap3\n  0x40\n  swap5\n  dup6\n  mstore\n  dup4\n  codecopy\n  dup2\n  add\n  sub\n  slt\n  tag_7\n  jumpi\n  tag_9\n  0x20\n  tag_10\n  dup4\n  tag_1\n  jump\t// in\ntag_10:\n  swap3\n  add\n  tag_1\n  jump\t// in\ntag_9:\n    /* \"@openzeppelin/contracts/security/ReentrancyGuard.sol\":1716:1717  1 */\n  0x01\n  dup1\n  sstore\n  sub(shl(0xa0, 0x01), 0x01)\n    /* \"contracts/WallyStaking.sol\":940:16949  contract WallyStaking is AccessControl, ReentrancyGuard {... */\n  swap1\n  swap2\n  and\n  swap1\n    /* \"contracts/WallyStaking.sol\":3132:3158  tokenAddress == address(0) */\n  dup2\n  iszero\n    /* \"contracts/WallyStaking.sol\":3128:3187  if (tokenAddress == address(0)) revert InvalidZeroAddress() */\n  tag_13\n  jumpi\n  sub(shl(0xa0, 0x01), 0x01)\n    /* \"contracts/WallyStaking.sol\":940:16949  contract WallyStaking is AccessControl, ReentrancyGuard {... */\n  dup2\n  and\n    /* \"contracts/WallyStaking.sol\":3201:3227  adminAddress == address(0) */\n  iszero\n    /* \"contracts/WallyStaking.sol\":3197:3256  if (adminAddress == address(0)) revert InvalidZeroAddress() */\n  tag_13\n  jumpi\n    /* \"contracts/WallyStaking.sol\":3439:3486  _grantRole(_REWARDS_MANAGER_ROLE, adminAddress) */\n  tag_15\n    /* \"contracts/WallyStaking.sol\":3267:3296  _token = IERC20(tokenAddress) */\n  swap2\n  0x80\n  mstore\n    /* \"contracts/WallyStaking.sol\":3338:3382  _grantRole(DEFAULT_ADMIN_ROLE, adminAddress) */\n  tag_16\n  dup2\n  tag_2\n  jump\t// in\ntag_16:\n  pop\n    /* \"contracts/WallyStaking.sol\":3392:3429  _grantRole(_ADMIN_ROLE, adminAddress) */\n  tag_17\n  dup2\n  tag_3\n  jump\t// in\ntag_17:\n  pop\n    /* \"contracts/WallyStaking.sol\":3439:3486  _grantRole(_REWARDS_MANAGER_ROLE, adminAddress) */\n  tag_4\n  jump\t// in\ntag_15:\n  pop\n  mload(0x00)\n  codecopy(0x00, data_d898bc67ca3d352598a6d8ba14bc12f08b53cf86ca7c5471dcbc6dcb5104da9f, 0x20)\n  mload(0x00)\n  swap1\n  0x00\n  mstore\n  0x00\n    /* \"contracts/WallyStaking.sol\":940:16949  contract WallyStaking is AccessControl, ReentrancyGuard {... */\n  dup2\n  dup2\n  mstore\n  0x20\n  dup2\n  swap1\n  mstore\n    /* \"@openzeppelin/contracts/access/AccessControl.sol\":3901:3923  _roles[role].adminRole */\n  0xf6c17da3865d9645546db4630d07c45803fb99f9b61dd452de8de1cd2159d255\n    /* \"contracts/WallyStaking.sol\":940:16949  contract WallyStaking is AccessControl, ReentrancyGuard {... */\n  dup1\n  sload\n  mload(0x00)\n  codecopy(0x00, data_cb864c43dd5d441bb6271f424f11befa622c032dfd374d226e26fbbdb782b8f8, 0x20)\n  mload(0x00)\n  swap1\n  0x00\n  mstore\n    /* \"@openzeppelin/contracts/security/ReentrancyGuard.sol\":1716:1717  1 */\n  swap2\n  dup3\n  swap1\n  sstore\n    /* \"contracts/WallyStaking.sol\":1087:1110  keccak256(\"ADMIN_ROLE\") */\n  swap1\n  swap3\n    /* \"contracts/WallyStaking.sol\":940:16949  contract WallyStaking is AccessControl, ReentrancyGuard {... */\n  swap1\n  swap2\n    /* \"@openzeppelin/contracts/access/AccessControl.sol\":5886:5938  RoleAdminChanged(role, previousAdminRole, adminRole) */\n  0xbd79b86ffe0ab8e8776151514217cd7cacd52c909f66475c3af44e129f0b00ff\n  swap1\n  dup1\n  log4\n    /* \"contracts/WallyStaking.sol\":3699:3706  90 days */\n  0x76a700\n  0x00\n    /* \"contracts/WallyStaking.sol\":940:16949  contract WallyStaking is AccessControl, ReentrancyGuard {... */\n  mstore\n    /* \"contracts/WallyStaking.sol\":15957:15970  _stakingPlans */\n  0x02\n    /* \"contracts/WallyStaking.sol\":940:16949  contract WallyStaking is AccessControl, ReentrancyGuard {... */\n  0x20\n  mstore\n  mload(0x00)\n  codecopy(0x00, data_5c968d77b01764d69848ab2b960d8f4701e8f3339e0a5524fc9916c9948f3efb, 0x20)\n  mload(0x00)\n  swap1\n  0x00\n  mstore\n  sload\n  0xff\n  and\n    /* \"contracts/WallyStaking.sol\":15953:16021  if (_stakingPlans[duration].isActive) revert DurationAlreadyExists() */\n  tag_30\n  jumpi\n    /* \"contracts/WallyStaking.sol\":3699:3706  90 days */\n  0x76a700\n  0x00\n    /* \"contracts/WallyStaking.sol\":940:16949  contract WallyStaking is AccessControl, ReentrancyGuard {... */\n  mstore\n    /* \"contracts/WallyStaking.sol\":15957:15970  _stakingPlans */\n  0x02\n    /* \"contracts/WallyStaking.sol\":940:16949  contract WallyStaking is AccessControl, ReentrancyGuard {... */\n  0x20\n  mstore\n  mload(0x00)\n  codecopy(0x00, data_5c968d77b01764d69848ab2b960d8f4701e8f3339e0a5524fc9916c9948f3efb, 0x20)\n  mload(0x00)\n  swap1\n  0x00\n  mstore\n    /* \"contracts/WallyStaking.sol\":1165:1198  keccak256(\"REWARDS_MANAGER_ROLE\") */\n  dup1\n  sload\n  not(0xff)\n  and\n    /* \"@openzeppelin/contracts/security/ReentrancyGuard.sol\":1716:1717  1 */\n  0x01\n    /* \"contracts/WallyStaking.sol\":1165:1198  keccak256(\"REWARDS_MANAGER_ROLE\") */\n  or\n  swap1\n  sstore\n    /* \"contracts/WallyStaking.sol\":3708:3711  500 */\n  0x01f4\n    /* \"contracts/WallyStaking.sol\":16173:16181  plan.apr */\n  0xa1ef5b42f18533d67a183a193ea6c3fabfaa3bdabc3fc0e3f65b19b517df6e8d\n    /* \"@openzeppelin/contracts/security/ReentrancyGuard.sol\":1716:1717  1 */\n  sstore\n    /* \"contracts/WallyStaking.sol\":16206:16225  _availableDurations */\n  0x07\n    /* \"contracts/WallyStaking.sol\":940:16949  contract WallyStaking is AccessControl, ReentrancyGuard {... */\n  sload\n  0x010000000000000000\n  dup2\n  lt\n  iszero\n  tag_32\n  jumpi\n    /* \"@openzeppelin/contracts/security/ReentrancyGuard.sol\":1716:1717  1 */\n  0x01\n    /* \"contracts/WallyStaking.sol\":940:16949  contract WallyStaking is AccessControl, ReentrancyGuard {... */\n  dup2\n  add\n  dup1\n    /* \"contracts/WallyStaking.sol\":16206:16225  _availableDurations */\n  0x07\n    /* \"contracts/WallyStaking.sol\":940:16949  contract WallyStaking is AccessControl, ReentrancyGuard {... */\n  sstore\n  dup2\n  lt\n  iszero\n  tag_34\n  jumpi\n    /* \"contracts/WallyStaking.sol\":3699:3706  90 days */\n  0x76a700\n    /* \"contracts/WallyStaking.sol\":940:16949  contract WallyStaking is AccessControl, ReentrancyGuard {... */\n  swap1\n    /* \"contracts/WallyStaking.sol\":16206:16225  _availableDurations */\n  0x07\n  0x00\n    /* \"contracts/WallyStaking.sol\":940:16949  contract WallyStaking is AccessControl, ReentrancyGuard {... */\n  mstore\n  keccak256(0x00, 0x20)\n  add\n  sstore\n    /* \"contracts/WallyStaking.sol\":3708:3711  500 */\n  0x01f4\n    /* \"contracts/WallyStaking.sol\":3699:3706  90 days */\n  0x76a700\n  mload(0x00)\n  codecopy(0x00, data_c65fb5893e4d502cdf4e78a762f3e2cfd52db870a5c66177955d0b59b9825d7d, 0x20)\n  mload(0x00)\n  swap1\n  0x00\n  mstore\n  0x00\n    /* \"contracts/WallyStaking.sol\":16264:16295  StakingPlanAdded(duration, apr) */\n  dup1\n  log3\n    /* \"contracts/WallyStaking.sol\":3762:3770  180 days */\n  0xed4e00\n  0x00\n    /* \"contracts/WallyStaking.sol\":940:16949  contract WallyStaking is AccessControl, ReentrancyGuard {... */\n  mstore\n    /* \"contracts/WallyStaking.sol\":15957:15970  _stakingPlans */\n  0x02\n    /* \"contracts/WallyStaking.sol\":940:16949  contract WallyStaking is AccessControl, ReentrancyGuard {... */\n  0x20\n  mstore\n  mload(0x00)\n  codecopy(0x00, data_4f66db48a07c9781e0592d42ff3b56b244162717317a5f3e947af07a6400a056, 0x20)\n  mload(0x00)\n  swap1\n  0x00\n  mstore\n  sload\n  0xff\n  and\n    /* \"contracts/WallyStaking.sol\":15953:16021  if (_stakingPlans[duration].isActive) revert DurationAlreadyExists() */\n  tag_30\n  jumpi\n    /* \"contracts/WallyStaking.sol\":3762:3770  180 days */\n  0xed4e00\n  0x00\n    /* \"contracts/WallyStaking.sol\":940:16949  contract WallyStaking is AccessControl, ReentrancyGuard {... */\n  mstore\n    /* \"contracts/WallyStaking.sol\":15957:15970  _stakingPlans */\n  0x02\n    /* \"contracts/WallyStaking.sol\":940:16949  contract WallyStaking is AccessControl, ReentrancyGuard {... */\n  0x20\n  mstore\n  mload(0x00)\n  codecopy(0x00, data_4f66db48a07c9781e0592d42ff3b56b244162717317a5f3e947af07a6400a056, 0x20)\n  mload(0x00)\n  swap1\n  0x00\n  mstore\n    /* \"contracts/WallyStaking.sol\":1165:1198  keccak256(\"REWARDS_MANAGER_ROLE\") */\n  dup1\n  sload\n  not(0xff)\n  and\n    /* \"@openzeppelin/contracts/security/ReentrancyGuard.sol\":1716:1717  1 */\n  0x01\n    /* \"contracts/WallyStaking.sol\":1165:1198  keccak256(\"REWARDS_MANAGER_ROLE\") */\n  or\n  swap1\n  sstore\n    /* \"contracts/WallyStaking.sol\":3772:3775  800 */\n  0x0320\n    /* \"contracts/WallyStaking.sol\":16173:16181  plan.apr */\n  0x089cfcbf844e824feee5f634cbc488382291f3c9e0de5905f3c30812390dd833\n    /* \"@openzeppelin/contracts/security/ReentrancyGuard.sol\":1716:1717  1 */\n  sstore\n    /* \"contracts/WallyStaking.sol\":16206:16225  _availableDurations */\n  0x07\n    /* \"contracts/WallyStaking.sol\":940:16949  contract WallyStaking is AccessControl, ReentrancyGuard {... */\n  sload\n  0x010000000000000000\n  dup2\n  lt\n  iszero\n  tag_32\n  jumpi\n    /* \"@openzeppelin/contracts/security/ReentrancyGuard.sol\":1716:1717  1 */\n  0x01\n    /* \"contracts/WallyStaking.sol\":940:16949  contract WallyStaking is AccessControl, ReentrancyGuard {... */\n  dup2\n  add\n  dup1\n    /* \"contracts/WallyStaking.sol\":16206:16225  _availableDurations */\n  0x07\n    /* \"contracts/WallyStaking.sol\":940:16949  contract WallyStaking is AccessControl, ReentrancyGuard {... */\n  sstore\n  dup2\n  lt\n  iszero\n  tag_34\n  jumpi\n    /* \"contracts/WallyStaking.sol\":3762:3770  180 days */\n  0xed4e00\n    /* \"contracts/WallyStaking.sol\":940:16949  contract WallyStaking is AccessControl, ReentrancyGuard {... */\n  swap1\n    /* \"contracts/WallyStaking.sol\":16206:16225  _availableDurations */\n  0x07\n  0x00\n    /* \"contracts/WallyStaking.sol\":940:16949  contract WallyStaking is AccessControl, ReentrancyGuard {... */\n  mstore\n  keccak256(0x00, 0x20)\n  add\n  sstore\n    /* \"contracts/WallyStaking.sol\":3772:3775  800 */\n  0x0320\n    /* \"contracts/WallyStaking.sol\":3762:3770  180 days */\n  0xed4e00\n  mload(0x00)\n  codecopy(0x00, data_c65fb5893e4d502cdf4e78a762f3e2cfd52db870a5c66177955d0b59b9825d7d, 0x20)\n  mload(0x00)\n  swap1\n  0x00\n  mstore\n  0x00\n    /* \"contracts/WallyStaking.sol\":16264:16295  StakingPlanAdded(duration, apr) */\n  dup1\n  log3\n    /* \"contracts/WallyStaking.sol\":3825:3833  365 days */\n  0x01e13380\n  0x00\n    /* \"contracts/WallyStaking.sol\":940:16949  contract WallyStaking is AccessControl, ReentrancyGuard {... */\n  mstore\n    /* \"contracts/WallyStaking.sol\":15957:15970  _stakingPlans */\n  0x02\n    /* \"contracts/WallyStaking.sol\":940:16949  contract WallyStaking is AccessControl, ReentrancyGuard {... */\n  0x20\n  mstore\n  mload(0x00)\n  codecopy(0x00, data_d339c8b099c3809595776000fb57d17374d0ef93e29b1511755be607cb00de99, 0x20)\n  mload(0x00)\n  swap1\n  0x00\n  mstore\n  sload\n  0xff\n  and\n    /* \"contracts/WallyStaking.sol\":15953:16021  if (_stakingPlans[duration].isActive) revert DurationAlreadyExists() */\n  tag_30\n  jumpi\n    /* \"contracts/WallyStaking.sol\":3825:3833  365 days */\n  0x01e13380\n  0x00\n    /* \"contracts/WallyStaking.sol\":940:16949  contract WallyStaking is AccessControl, ReentrancyGuard {... */\n  mstore\n    /* \"contracts/WallyStaking.sol\":15957:15970  _stakingPlans */\n  0x02\n    /* \"contracts/WallyStaking.sol\":940:16949  contract WallyStaking is AccessControl, ReentrancyGuard {... */\n  0x20\n  mstore\n  mload(0x00)\n  codecopy(0x00, data_d339c8b099c3809595776000fb57d17374d0ef93e29b1511755be607cb00de99, 0x20)\n  mload(0x00)\n  swap1\n  0x00\n  mstore\n    /* \"contracts/WallyStaking.sol\":1165:1198  keccak256(\"REWARDS_MANAGER_ROLE\") */\n  dup1\n  sload\n  not(0xff)\n  and\n    /* \"@openzeppelin/contracts/security/ReentrancyGuard.sol\":1716:1717  1 */\n  0x01\n    /* \"contracts/WallyStaking.sol\":1165:1198  keccak256(\"REWARDS_MANAGER_ROLE\") */\n  or\n  swap1\n  sstore\n    /* \"contracts/WallyStaking.sol\":3835:3839  1200 */\n  0x04b0\n    /* \"contracts/WallyStaking.sol\":16173:16181  plan.apr */\n  0xdc083eb4da7563bbd761324b5158d9d40af7c7174afe39b0b31a7577c44fc33c\n    /* \"@openzeppelin/contracts/security/ReentrancyGuard.sol\":1716:1717  1 */\n  sstore\n    /* \"contracts/WallyStaking.sol\":16206:16225  _availableDurations */\n  0x07\n    /* \"contracts/WallyStaking.sol\":940:16949  contract WallyStaking is AccessControl, ReentrancyGuard {... */\n  sload\n  0x010000000000000000\n  dup2\n  lt\n  iszero\n  tag_32\n  jumpi\n    /* \"@openzeppelin/contracts/security/ReentrancyGuard.sol\":1716:1717  1 */\n  0x01\n    /* \"contracts/WallyStaking.sol\":940:16949  contract WallyStaking is AccessControl, ReentrancyGuard {... */\n  dup2\n  add\n  dup1\n    /* \"contracts/WallyStaking.sol\":16206:16225  _availableDurations */\n  0x07\n    /* \"contracts/WallyStaking.sol\":940:16949  contract WallyStaking is AccessControl, ReentrancyGuard {... */\n  sstore\n  dup2\n  lt\n  iszero\n  tag_34\n  jumpi\n    /* \"contracts/WallyStaking.sol\":3825:3833  365 days */\n  0x01e13380\n    /* \"contracts/WallyStaking.sol\":940:16949  contract WallyStaking is AccessControl, ReentrancyGuard {... */\n  swap1\n    /* \"contracts/WallyStaking.sol\":16206:16225  _availableDurations */\n  0x07\n  0x00\n    /* \"contracts/WallyStaking.sol\":940:16949  contract WallyStaking is AccessControl, ReentrancyGuard {... */\n  mstore\n  keccak256(0x00, 0x20)\n  add\n  sstore\n    /* \"contracts/WallyStaking.sol\":3835:3839  1200 */\n  0x04b0\n    /* \"contracts/WallyStaking.sol\":3825:3833  365 days */\n  0x01e13380\n  mload(0x00)\n  codecopy(0x00, data_c65fb5893e4d502cdf4e78a762f3e2cfd52db870a5c66177955d0b59b9825d7d, 0x20)\n  mload(0x00)\n  swap1\n  0x00\n  mstore\n  0x00\n    /* \"contracts/WallyStaking.sol\":16264:16295  StakingPlanAdded(duration, apr) */\n  dup1\n  log3\n    /* \"contracts/WallyStaking.sol\":1165:1198  keccak256(\"REWARDS_MANAGER_ROLE\") */\n  not(0xff)\n    /* \"contracts/WallyStaking.sol\":3884:3906  _stakingPaused = false */\n  0x06\n    /* \"contracts/WallyStaking.sol\":1165:1198  keccak256(\"REWARDS_MANAGER_ROLE\") */\n  sload\n  and\n    /* \"contracts/WallyStaking.sol\":3884:3906  _stakingPaused = false */\n  0x06\n    /* \"contracts/WallyStaking.sol\":1165:1198  keccak256(\"REWARDS_MANAGER_ROLE\") */\n  sstore\n    /* \"contracts/WallyStaking.sol\":940:16949  contract WallyStaking is AccessControl, ReentrancyGuard {... */\n  mload(0x40)\n  dataSize(sub_0)\n  swap1\n  dup2\n  dataOffset(sub_0)\n  dup3\n  codecopy\n    /* \"contracts/WallyStaking.sol\":3267:3296  _token = IERC20(tokenAddress) */\n  0x80\n    /* \"contracts/WallyStaking.sol\":940:16949  contract WallyStaking is AccessControl, ReentrancyGuard {... */\n  mload\n  dup2\n  assignImmutable(\"0x54f98f06761e30617bf10b49b7a4bbfa175f7ac33cb018a55e7053fa716317c1\")\n  return\ntag_34:\n  mstore(0x00, shl(0xe0, 0x4e487b71))\n  mstore(0x04, 0x32)\n  revert(0x00, 0x24)\ntag_32:\n  mstore(0x00, shl(0xe0, 0x4e487b71))\n  mstore(0x04, 0x41)\n  revert(0x00, 0x24)\n    /* \"contracts/WallyStaking.sol\":15953:16021  if (_stakingPlans[duration].isActive) revert DurationAlreadyExists() */\ntag_30:\n    /* \"contracts/WallyStaking.sol\":15998:16021  DurationAlreadyExists() */\n  mstore(0x00, shl(0xe1, 0x57706857))\n  revert(0x00, 0x04)\n    /* \"contracts/WallyStaking.sol\":3197:3256  if (adminAddress == address(0)) revert InvalidZeroAddress() */\ntag_13:\n    /* \"contracts/WallyStaking.sol\":3167:3187  InvalidZeroAddress() */\n  shl(0xe0, 0xf6b2911f)\n  0x00\n    /* \"contracts/WallyStaking.sol\":3236:3256  InvalidZeroAddress() */\n  mstore\n  revert(0x00, 0x04)\n    /* \"contracts/WallyStaking.sol\":940:16949  contract WallyStaking is AccessControl, ReentrancyGuard {... */\ntag_7:\n  0x00\n  dup1\n  revert\ntag_1:\n  mload\n  swap1\n  sub(shl(0xa0, 0x01), 0x01)\n  dup3\n  and\n  dup3\n  sub\n  tag_7\n  jumpi\n  jump\t// out\n    /* \"@openzeppelin/contracts/access/AccessControl.sol\":6179:6495  function _grantRole(bytes32 role, address account) internal virtual returns (bool) {... */\ntag_2:\n  sub(shl(0xa0, 0x01), 0x01)\n    /* \"contracts/WallyStaking.sol\":940:16949  contract WallyStaking is AccessControl, ReentrancyGuard {... */\n  dup2\n  and\n    /* \"contracts/WallyStaking.sol\":3156:3157  0 */\n  0x00\n    /* \"contracts/WallyStaking.sol\":940:16949  contract WallyStaking is AccessControl, ReentrancyGuard {... */\n  swap1\n  dup2\n  mstore\n  mload(0x00)\n  codecopy(0x00, data_f0df3dcda05b4fbd9c655cde3d5ceb211e019e72ec816e127a59e7195f2cd7f5, 0x20)\n  mload(0x00)\n  swap1\n  0x00\n  mstore\n  0x20\n  mstore\n  0x40\n  swap1\n  keccak256\n  sload\n  0xff\n  and\n  tag_38\n  jumpi\n  sub(shl(0xa0, 0x01), 0x01)\n  and\n    /* \"contracts/WallyStaking.sol\":3156:3157  0 */\n  0x00\n    /* \"contracts/WallyStaking.sol\":940:16949  contract WallyStaking is AccessControl, ReentrancyGuard {... */\n  dup2\n  dup2\n  mstore\n  mload(0x00)\n  codecopy(0x00, data_f0df3dcda05b4fbd9c655cde3d5ceb211e019e72ec816e127a59e7195f2cd7f5, 0x20)\n  mload(0x00)\n  swap1\n  0x00\n  mstore\n  0x20\n  mstore\n  0x40\n  dup2\n  keccak256\n    /* \"contracts/WallyStaking.sol\":1165:1198  keccak256(\"REWARDS_MANAGER_ROLE\") */\n  dup1\n  sload\n  not(0xff)\n  and\n    /* \"contracts/WallyStaking.sol\":940:16949  contract WallyStaking is AccessControl, ReentrancyGuard {... */\n  0x01\n    /* \"contracts/WallyStaking.sol\":1165:1198  keccak256(\"REWARDS_MANAGER_ROLE\") */\n  or\n  swap1\n  sstore\n    /* \"@openzeppelin/contracts/utils/Context.sol\":735:745  msg.sender */\n  caller\n  swap2\n    /* \"contracts/WallyStaking.sol\":940:16949  contract WallyStaking is AccessControl, ReentrancyGuard {... */\n  swap1\n  mload(0x00)\n  codecopy(0x00, data_01400fe2f234cf888b5e4c66700c7903f33f31bfc9675e51cb0119f915eb534d, 0x20)\n  mload(0x00)\n  swap1\n  0x00\n  mstore\n    /* \"contracts/WallyStaking.sol\":3156:3157  0 */\n  dup2\n  dup1\n    /* \"@openzeppelin/contracts/access/AccessControl.sol\":6370:6410  RoleGranted(role, account, _msgSender()) */\n  log4\n    /* \"@openzeppelin/contracts/access/AccessControl.sol\":6347:6351  true */\n  0x01\n    /* \"@openzeppelin/contracts/access/AccessControl.sol\":6424:6435  return true */\n  swap1\n  jump\t// out\n    /* \"@openzeppelin/contracts/access/AccessControl.sol\":6272:6489  if (!hasRole(role, account)) {... */\ntag_38:\n    /* \"@openzeppelin/contracts/access/AccessControl.sol\":6466:6478  return false */\n  pop\n    /* \"contracts/WallyStaking.sol\":3156:3157  0 */\n  0x00\n    /* \"@openzeppelin/contracts/access/AccessControl.sol\":6466:6478  return false */\n  swap1\n  jump\t// out\n    /* \"@openzeppelin/contracts/access/AccessControl.sol\":6179:6495  function _grantRole(bytes32 role, address account) internal virtual returns (bool) {... */\ntag_3:\n  sub(shl(0xa0, 0x01), 0x01)\n    /* \"contracts/WallyStaking.sol\":940:16949  contract WallyStaking is AccessControl, ReentrancyGuard {... */\n  dup2\n  and\n  0x00\n  swap1\n  dup2\n  mstore\n  mload(0x00)\n  codecopy(0x00, data_27ad65e758a22f2fe9f0d501da4e2a54eb635546ab8210118501a36d81e3b048, 0x20)\n  mload(0x00)\n  swap1\n  0x00\n  mstore\n  0x20\n  mstore\n  0x40\n  swap1\n  keccak256\n  sload\n  0xff\n  and\n  tag_38\n  jumpi\n  sub(shl(0xa0, 0x01), 0x01)\n  and\n  0x00\n  dup2\n  dup2\n  mstore\n  mload(0x00)\n  codecopy(0x00, data_27ad65e758a22f2fe9f0d501da4e2a54eb635546ab8210118501a36d81e3b048, 0x20)\n  mload(0x00)\n  swap1\n  0x00\n  mstore\n  0x20\n  mstore\n  0x40\n  dup2\n  keccak256\n    /* \"contracts/WallyStaking.sol\":1165:1198  keccak256(\"REWARDS_MANAGER_ROLE\") */\n  dup1\n  sload\n  not(0xff)\n  and\n    /* \"contracts/WallyStaking.sol\":940:16949  contract WallyStaking is AccessControl, ReentrancyGuard {... */\n  0x01\n    /* \"contracts/WallyStaking.sol\":1165:1198  keccak256(\"REWARDS_MANAGER_ROLE\") */\n  or\n  swap1\n  sstore\n    /* \"@openzeppelin/contracts/utils/Context.sol\":735:745  msg.sender */\n  caller\n  swap2\n    /* \"contracts/WallyStaking.sol\":940:16949  contract WallyStaking is AccessControl, ReentrancyGuard {... */\n  swap1\n  mload(0x00)\n  codecopy(0x00, data_cb864c43dd5d441bb6271f424f11befa622c032dfd374d226e26fbbdb782b8f8, 0x20)\n  mload(0x00)\n  swap1\n  0x00\n  mstore\n    /* \"contracts/WallyStaking.sol\":1087:1110  keccak256(\"ADMIN_ROLE\") */\n  swap1\n  mload(0x00)\n  codecopy(0x00, data_01400fe2f234cf888b5e4c66700c7903f33f31bfc9675e51cb0119f915eb534d, 0x20)\n  mload(0x00)\n  swap1\n  0x00\n  mstore\n    /* \"@openzeppelin/contracts/access/AccessControl.sol\":6370:6410  RoleGranted(role, account, _msgSender()) */\n  swap1\n    /* \"contracts/WallyStaking.sol\":940:16949  contract WallyStaking is AccessControl, ReentrancyGuard {... */\n  dup1\n    /* \"@openzeppelin/contracts/access/AccessControl.sol\":6370:6410  RoleGranted(role, account, _msgSender()) */\n  log4\n    /* \"@openzeppelin/contracts/access/AccessControl.sol\":6347:6351  true */\n  0x01\n    /* \"@openzeppelin/contracts/access/AccessControl.sol\":6424:6435  return true */\n  swap1\n  jump\t// out\n    /* \"@openzeppelin/contracts/access/AccessControl.sol\":6179:6495  function _grantRole(bytes32 role, address account) internal virtual returns (bool) {... */\ntag_4:\n  sub(shl(0xa0, 0x01), 0x01)\n    /* \"contracts/WallyStaking.sol\":940:16949  contract WallyStaking is AccessControl, ReentrancyGuard {... */\n  dup2\n  and\n  0x00\n  swap1\n  dup2\n  mstore\n  mload(0x00)\n  codecopy(0x00, data_6b4989bc7b93b2bee94c8fd6eb5542ae9ecccf5d6d8dc2fe26e142ac3434c5cc, 0x20)\n  mload(0x00)\n  swap1\n  0x00\n  mstore\n  0x20\n  mstore\n  0x40\n  swap1\n  keccak256\n  sload\n  0xff\n  and\n  tag_38\n  jumpi\n  sub(shl(0xa0, 0x01), 0x01)\n  and\n  0x00\n  dup2\n  dup2\n  mstore\n  mload(0x00)\n  codecopy(0x00, data_6b4989bc7b93b2bee94c8fd6eb5542ae9ecccf5d6d8dc2fe26e142ac3434c5cc, 0x20)\n  mload(0x00)\n  swap1\n  0x00\n  mstore\n  0x20\n  mstore\n  0x40\n  dup2\n  keccak256\n    /* \"contracts/WallyStaking.sol\":1165:1198  keccak256(\"REWARDS_MANAGER_ROLE\") */\n  dup1\n  sload\n  not(0xff)\n  and\n    /* \"contracts/WallyStaking.sol\":940:16949  contract WallyStaking is AccessControl, ReentrancyGuard {... */\n  0x01\n    /* \"contracts/WallyStaking.sol\":1165:1198  keccak256(\"REWARDS_MANAGER_ROLE\") */\n  or\n  swap1\n  sstore\n    /* \"@openzeppelin/contracts/utils/Context.sol\":735:745  msg.sender */\n  caller\n  swap2\n    /* \"contracts/WallyStaking.sol\":940:16949  contract WallyStaking is AccessControl, ReentrancyGuard {... */\n  swap1\n  mload(0x00)\n  codecopy(0x00, data_d898bc67ca3d352598a6d8ba14bc12f08b53cf86ca7c5471dcbc6dcb5104da9f, 0x20)\n  mload(0x00)\n  swap1\n  0x00\n  mstore\n    /* \"contracts/WallyStaking.sol\":1165:1198  keccak256(\"REWARDS_MANAGER_ROLE\") */\n  swap1\n  mload(0x00)\n  codecopy(0x00, data_01400fe2f234cf888b5e4c66700c7903f33f31bfc9675e51cb0119f915eb534d, 0x20)\n  mload(0x00)\n  swap1\n  0x00\n  mstore\n    /* \"@openzeppelin/contracts/access/AccessControl.sol\":6370:6410  RoleGranted(role, account, _msgSender()) */\n  swap1\n    /* \"contracts/WallyStaking.sol\":940:16949  contract WallyStaking is AccessControl, ReentrancyGuard {... */\n  dup1\n    /* \"@openzeppelin/contracts/access/AccessControl.sol\":6370:6410  RoleGranted(role, account, _msgSender()) */\n  log4\n    /* \"@openzeppelin/contracts/access/AccessControl.sol\":6347:6351  true */\n  0x01\n    /* \"@openzeppelin/contracts/access/AccessControl.sol\":6424:6435  return true */\n  swap1\n  jump\t// out\nstop\ndata_01400fe2f234cf888b5e4c66700c7903f33f31bfc9675e51cb0119f915eb534d 2f8788117e7eff1d82e926ec794901d17c78024a50270940304540a733656f0d\ndata_27ad65e758a22f2fe9f0d501da4e2a54eb635546ab8210118501a36d81e3b048 7d7ffb7a348e1c6a02869081a26547b49160dd3df72d1d75a570eb9b698292ec\ndata_4f66db48a07c9781e0592d42ff3b56b244162717317a5f3e947af07a6400a056 089cfcbf844e824feee5f634cbc488382291f3c9e0de5905f3c30812390dd832\ndata_5c968d77b01764d69848ab2b960d8f4701e8f3339e0a5524fc9916c9948f3efb a1ef5b42f18533d67a183a193ea6c3fabfaa3bdabc3fc0e3f65b19b517df6e8c\ndata_6b4989bc7b93b2bee94c8fd6eb5542ae9ecccf5d6d8dc2fe26e142ac3434c5cc f6c17da3865d9645546db4630d07c45803fb99f9b61dd452de8de1cd2159d254\ndata_c65fb5893e4d502cdf4e78a762f3e2cfd52db870a5c66177955d0b59b9825d7d 682563ed446791dcd2bb66aa531ebaf528bce493e57f037313263799851bc364\ndata_cb864c43dd5d441bb6271f424f11befa622c032dfd374d226e26fbbdb782b8f8 a49807205ce4d355092ef5a8a18f56e8913cf4a201fbe287825b095693c21775\ndata_d339c8b099c3809595776000fb57d17374d0ef93e29b1511755be607cb00de99 dc083eb4da7563bbd761324b5158d9d40af7c7174afe39b0b31a7577c44fc33b\ndata_d898bc67ca3d352598a6d8ba14bc12f08b53cf86ca7c5471dcbc6dcb5104da9f 51785d261c3b3e8c2cfe2d0e108b9ab2b1fb703ff9e9e49aba4ebdc85c36152b\ndata_f0df3dcda05b4fbd9c655cde3d5ceb211e019e72ec816e127a59e7195f2cd7f5 ad3228b676f7d3cd4284a5443f17f1962b36e491b30a40b2405849e597ba5fb5\n\nsub_0: assembly {\n        /* \"contracts/WallyStaking.sol\":940:16949  contract WallyStaking is AccessControl, ReentrancyGuard {... */\n      0x80\n      dup1\n      0x40\n      mstore\n      jumpi(tag_20, iszero(lt(calldatasize, 0x04)))\n      0x00\n      dup1\n      revert\n    tag_20:\n      shr(0xe0, calldataload(0x00))\n      swap1\n      dup2\n      0x01ffc9a7\n      eq\n      tag_22\n      jumpi\n      pop\n      dup1\n      0x097aad10\n      eq\n      tag_24\n      jumpi\n      dup1\n      0x15b31bbb\n      eq\n      tag_26\n      jumpi\n      dup1\n      0x248a9ca3\n      eq\n      tag_28\n      jumpi\n      dup1\n      0x2def6620\n      eq\n      tag_30\n      jumpi\n      dup1\n      0x2f2ff15d\n      eq\n      tag_32\n      jumpi\n      dup1\n      0x36568abe\n      eq\n      tag_34\n      jumpi\n      dup1\n      0x372500ab\n      eq\n      tag_36\n      jumpi\n      dup1\n      0x5ef23fa9\n      eq\n      tag_38\n      jumpi\n      dup1\n      0x7b0472f0\n      eq\n      tag_40\n      jumpi\n      dup1\n      0x80933608\n      eq\n      tag_42\n      jumpi\n      dup1\n      0x91d14854\n      eq\n      tag_44\n      jumpi\n      dup1\n      0x9fca9c22\n      eq\n      tag_46\n      jumpi\n      dup1\n      0xa217fddf\n      eq\n      tag_48\n      jumpi\n      dup1\n      0xaea1b6ef\n      eq\n      tag_50\n      jumpi\n      dup1\n      0xb6b365c2\n      eq\n      tag_52\n      jumpi\n      dup1\n      0xbeceed39\n      eq\n      tag_54\n      jumpi\n      dup1\n      0xd547741f\n      eq\n      tag_56\n      jumpi\n      dup1\n      0xdb2e21bc\n      eq\n      tag_58\n      jumpi\n      0xdfe6b5d6\n      eq\n      tag_60\n      jumpi\n      0x00\n      dup1\n      revert\n    tag_60:\n      jumpi(tag_64, callvalue)\n      jumpi(tag_64, slt(add(not(0x03), calldatasize), 0x00))\n      0x60\n      sload(0x04)\n        /* \"contracts/WallyStaking.sol\":15602:15614  _rewardsPool */\n      0x05\n        /* \"contracts/WallyStaking.sol\":940:16949  contract WallyStaking is AccessControl, ReentrancyGuard {... */\n      sload\n      0xff\n        /* \"contracts/WallyStaking.sol\":15616:15630  _stakingPaused */\n      0x06\n        /* \"contracts/WallyStaking.sol\":940:16949  contract WallyStaking is AccessControl, ReentrancyGuard {... */\n      sload\n      and\n      swap1\n      mload(0x40)\n      swap3\n      dup4\n      mstore\n      0x20\n      dup4\n      add\n      mstore\n      iszero\n      iszero\n      0x40\n      dup3\n      add\n      mstore\n      return\n    tag_64:\n      0x00\n      dup1\n      revert\n    tag_58:\n      jumpi(tag_64, callvalue)\n      jumpi(tag_64, slt(add(not(0x03), calldatasize), 0x00))\n        /* \"@openzeppelin/contracts/security/ReentrancyGuard.sol\":2227:2330  modifier nonReentrant() {... */\n      tag_70\n      tag_11\n      jump\t// in\n    tag_70:\n        /* \"contracts/WallyStaking.sol\":11304:11314  msg.sender */\n      caller\n        /* \"contracts/WallyStaking.sol\":940:16949  contract WallyStaking is AccessControl, ReentrancyGuard {... */\n      0x00\n      mstore\n        /* \"contracts/WallyStaking.sol\":11287:11303  _userStakingData */\n      0x03\n        /* \"contracts/WallyStaking.sol\":940:16949  contract WallyStaking is AccessControl, ReentrancyGuard {... */\n      0x20\n      mstore\n      keccak256(0x00, 0x40)\n        /* \"contracts/WallyStaking.sol\":11362:11379  userData.isActive */\n      0x06\n      dup2\n      add\n        /* \"contracts/WallyStaking.sol\":940:16949  contract WallyStaking is AccessControl, ReentrancyGuard {... */\n      swap1\n      dup2\n      sload\n      swap2\n      0xff\n      dup4\n      and\n        /* \"contracts/WallyStaking.sol\":11361:11379  !userData.isActive */\n      iszero\n        /* \"contracts/WallyStaking.sol\":11357:11403  if (!userData.isActive) revert NoActiveStake() */\n      tag_71\n      jumpi\n        /* \"contracts/WallyStaking.sol\":940:16949  contract WallyStaking is AccessControl, ReentrancyGuard {... */\n      dup2\n        /* \"contracts/WallyStaking.sol\":11772:11794  userData.lastClaimTime */\n      0x02\n        /* \"contracts/WallyStaking.sol\":940:16949  contract WallyStaking is AccessControl, ReentrancyGuard {... */\n      swap2\n      0x00\n      swap4\n      sload\n      swap5\n      dup5\n      dup4\n      sstore\n        /* \"contracts/WallyStaking.sol\":11604:11629  userData.stakingStartTime */\n      dup5\n      0x01\n      dup5\n      add\n        /* \"contracts/WallyStaking.sol\":940:16949  contract WallyStaking is AccessControl, ReentrancyGuard {... */\n      sstore\n        /* \"contracts/WallyStaking.sol\":11643:11666  userData.stakingEndTime */\n      dup5\n        /* \"contracts/WallyStaking.sol\":11287:11303  _userStakingData */\n      0x03\n        /* \"contracts/WallyStaking.sol\":11643:11666  userData.stakingEndTime */\n      dup5\n      add\n        /* \"contracts/WallyStaking.sol\":940:16949  contract WallyStaking is AccessControl, ReentrancyGuard {... */\n      sstore\n        /* \"contracts/WallyStaking.sol\":11680:11697  userData.duration */\n      dup5\n        /* \"contracts/WallyStaking.sol\":940:16949  contract WallyStaking is AccessControl, ReentrancyGuard {... */\n      0x04\n        /* \"contracts/WallyStaking.sol\":11680:11697  userData.duration */\n      dup5\n      add\n        /* \"contracts/WallyStaking.sol\":940:16949  contract WallyStaking is AccessControl, ReentrancyGuard {... */\n      sstore\n        /* \"contracts/WallyStaking.sol\":11711:11723  userData.apr */\n      dup5\n      0x05\n      dup5\n      add\n        /* \"contracts/WallyStaking.sol\":940:16949  contract WallyStaking is AccessControl, ReentrancyGuard {... */\n      sstore\n      not(0xff)\n      and\n      swap1\n      sstore\n        /* \"contracts/WallyStaking.sol\":11772:11794  userData.lastClaimTime */\n      add\n        /* \"contracts/WallyStaking.sol\":940:16949  contract WallyStaking is AccessControl, ReentrancyGuard {... */\n      sstore\n        /* \"contracts/WallyStaking.sol\":11912:11939  _totalStaked - stakedAmount */\n      tag_73\n        /* \"contracts/WallyStaking.sol\":940:16949  contract WallyStaking is AccessControl, ReentrancyGuard {... */\n      dup2\n      sload(0x04)\n        /* \"contracts/WallyStaking.sol\":11912:11939  _totalStaked - stakedAmount */\n      tag_4\n      jump\t// in\n    tag_73:\n        /* \"contracts/WallyStaking.sol\":940:16949  contract WallyStaking is AccessControl, ReentrancyGuard {... */\n      0x04\n      sstore\n        /* \"contracts/WallyStaking.sol\":12030:12042  stakedAmount */\n      tag_74\n        /* \"contracts/WallyStaking.sol\":11304:11314  msg.sender */\n      dup2\n      caller\n        /* \"contracts/WallyStaking.sol\":11998:12004  _token */\n      immutable(\"0x54f98f06761e30617bf10b49b7a4bbfa175f7ac33cb018a55e7053fa716317c1\")\n        /* \"contracts/WallyStaking.sol\":12030:12042  stakedAmount */\n      tag_14\n      jump\t// in\n    tag_74:\n        /* \"contracts/WallyStaking.sol\":940:16949  contract WallyStaking is AccessControl, ReentrancyGuard {... */\n      mload(0x40)\n      swap1\n      dup2\n      mstore\n        /* \"contracts/WallyStaking.sol\":12067:12110  EmergencyWithdraw(msg.sender, stakedAmount) */\n      0x5fafa99d0643513820be26656b45130b01e1c03062e1266bf36f88cbd3bd9695\n        /* \"contracts/WallyStaking.sol\":940:16949  contract WallyStaking is AccessControl, ReentrancyGuard {... */\n      0x20\n        /* \"contracts/WallyStaking.sol\":11304:11314  msg.sender */\n      caller\n        /* \"contracts/WallyStaking.sol\":12067:12110  EmergencyWithdraw(msg.sender, stakedAmount) */\n      swap3\n      log2\n        /* \"contracts/WallyStaking.sol\":11604:11629  userData.stakingStartTime */\n      0x01\n        /* \"contracts/WallyStaking.sol\":940:16949  contract WallyStaking is AccessControl, ReentrancyGuard {... */\n      dup1\n      sstore\n      stop\n        /* \"contracts/WallyStaking.sol\":11357:11403  if (!userData.isActive) revert NoActiveStake() */\n    tag_71:\n        /* \"contracts/WallyStaking.sol\":9307:9322  NoActiveStake() */\n      shl(0xe1, 0x7d9a44a1)\n        /* \"contracts/WallyStaking.sol\":940:16949  contract WallyStaking is AccessControl, ReentrancyGuard {... */\n      0x00\n        /* \"contracts/WallyStaking.sol\":11388:11403  NoActiveStake() */\n      mstore\n        /* \"contracts/WallyStaking.sol\":940:16949  contract WallyStaking is AccessControl, ReentrancyGuard {... */\n      0x04\n      0x00\n        /* \"contracts/WallyStaking.sol\":11388:11403  NoActiveStake() */\n      revert\n        /* \"contracts/WallyStaking.sol\":940:16949  contract WallyStaking is AccessControl, ReentrancyGuard {... */\n    tag_56:\n      jumpi(tag_64, callvalue)\n      jumpi(tag_64, slt(add(not(0x03), calldatasize), 0x40))\n        /* \"@openzeppelin/contracts/access/AccessControl.sol\":4747:4773  _revokeRole(role, account) */\n      tag_79\n        /* \"contracts/WallyStaking.sol\":940:16949  contract WallyStaking is AccessControl, ReentrancyGuard {... */\n      calldataload(0x04)\n      tag_80\n      tag_2\n      jump\t// in\n    tag_80:\n        /* \"@openzeppelin/contracts/access/AccessControl.sol\":4717:4735  getRoleAdmin(role) */\n      swap1\n        /* \"@openzeppelin/contracts/access/AccessControl.sol\":2475:2479  role */\n      tag_81\n        /* \"@openzeppelin/contracts/access/AccessControl.sol\":4717:4735  getRoleAdmin(role) */\n      tag_82\n      dup3\n        /* \"@openzeppelin/contracts/access/AccessControl.sol\":3901:3907  _roles */\n      0x00\n        /* \"contracts/WallyStaking.sol\":940:16949  contract WallyStaking is AccessControl, ReentrancyGuard {... */\n      mstore\n        /* \"@openzeppelin/contracts/access/AccessControl.sol\":3901:3907  _roles */\n      0x00\n        /* \"contracts/WallyStaking.sol\":940:16949  contract WallyStaking is AccessControl, ReentrancyGuard {... */\n      0x20\n      mstore\n        /* \"@openzeppelin/contracts/access/AccessControl.sol\":3901:3923  _roles[role].adminRole */\n      0x01\n        /* \"contracts/WallyStaking.sol\":940:16949  contract WallyStaking is AccessControl, ReentrancyGuard {... */\n      0x40\n        /* \"@openzeppelin/contracts/access/AccessControl.sol\":3901:3907  _roles */\n      0x00\n        /* \"contracts/WallyStaking.sol\":940:16949  contract WallyStaking is AccessControl, ReentrancyGuard {... */\n      keccak256\n        /* \"@openzeppelin/contracts/access/AccessControl.sol\":3901:3923  _roles[role].adminRole */\n      add\n        /* \"contracts/WallyStaking.sol\":940:16949  contract WallyStaking is AccessControl, ReentrancyGuard {... */\n      sload\n        /* \"@openzeppelin/contracts/access/AccessControl.sol\":3810:3930  function getRoleAdmin(bytes32 role) public view virtual returns (bytes32) {... */\n      swap1\n      jump\n        /* \"@openzeppelin/contracts/access/AccessControl.sol\":4717:4735  getRoleAdmin(role) */\n    tag_82:\n        /* \"@openzeppelin/contracts/access/AccessControl.sol\":2475:2479  role */\n      tag_13\n      jump\t// in\n    tag_81:\n        /* \"@openzeppelin/contracts/access/AccessControl.sol\":4747:4773  _revokeRole(role, account) */\n      tag_17\n      jump\t// in\n    tag_79:\n        /* \"contracts/WallyStaking.sol\":940:16949  contract WallyStaking is AccessControl, ReentrancyGuard {... */\n      stop\n    tag_54:\n      jumpi(tag_64, callvalue)\n      jumpi(tag_64, slt(add(not(0x03), calldatasize), 0x20))\n      calldataload(0x04)\n        /* \"@openzeppelin/contracts/security/ReentrancyGuard.sol\":2227:2330  modifier nonReentrant() {... */\n      tag_87\n      tag_11\n      jump\t// in\n    tag_87:\n        /* \"@openzeppelin/contracts/utils/Context.sol\":735:745  msg.sender */\n      caller\n        /* \"contracts/WallyStaking.sol\":940:16949  contract WallyStaking is AccessControl, ReentrancyGuard {... */\n      0x00\n      swap1\n      dup2\n      mstore\n      mstore(0x20, 0xf6c17da3865d9645546db4630d07c45803fb99f9b61dd452de8de1cd2159d254)\n      0x40\n      swap1\n      keccak256\n      sload\n      0xff\n      and\n        /* \"@openzeppelin/contracts/access/AccessControl.sol\":3519:3542  !hasRole(role, account) */\n      iszero\n        /* \"@openzeppelin/contracts/access/AccessControl.sol\":3515:3623  if (!hasRole(role, account)) {... */\n      tag_88\n      jumpi\n        /* \"contracts/WallyStaking.sol\":6145:6156  amount == 0 */\n      dup1\n      iszero\n        /* \"contracts/WallyStaking.sol\":6141:6180  if (amount == 0) revert InvalidAmount() */\n      tag_90\n      jumpi\n        /* \"contracts/WallyStaking.sol\":940:16949  contract WallyStaking is AccessControl, ReentrancyGuard {... */\n      0x20\n      dup2\n        /* \"contracts/WallyStaking.sol\":6621:6641  rewardsPool + amount */\n      tag_92\n        /* \"contracts/WallyStaking.sol\":6665:6685  RewardsAdded(amount) */\n      0xf8fad42e780bfa5459be3fe691e8ba1aec70342250112139c5771c3fd155f312\n        /* \"contracts/WallyStaking.sol\":940:16949  contract WallyStaking is AccessControl, ReentrancyGuard {... */\n      swap4\n        /* \"contracts/WallyStaking.sol\":6376:6388  _rewardsPool */\n      0x05\n        /* \"contracts/WallyStaking.sol\":940:16949  contract WallyStaking is AccessControl, ReentrancyGuard {... */\n      sload\n        /* \"contracts/WallyStaking.sol\":6500:6506  amount */\n      tag_93\n        /* \"contracts/WallyStaking.sol\":6271:6275  this */\n      dup3\n      address\n        /* \"@openzeppelin/contracts/utils/Context.sol\":735:745  msg.sender */\n      caller\n        /* \"contracts/WallyStaking.sol\":6458:6464  _token */\n      immutable(\"0x54f98f06761e30617bf10b49b7a4bbfa175f7ac33cb018a55e7053fa716317c1\")\n        /* \"contracts/WallyStaking.sol\":6500:6506  amount */\n      tag_18\n      jump\t// in\n    tag_93:\n        /* \"contracts/WallyStaking.sol\":6621:6641  rewardsPool + amount */\n      tag_8\n      jump\t// in\n    tag_92:\n        /* \"contracts/WallyStaking.sol\":6376:6388  _rewardsPool */\n      0x05\n        /* \"contracts/WallyStaking.sol\":940:16949  contract WallyStaking is AccessControl, ReentrancyGuard {... */\n      sstore\n      mload(0x40)\n      swap1\n      dup2\n      mstore\n        /* \"contracts/WallyStaking.sol\":6665:6685  RewardsAdded(amount) */\n      log1\n        /* \"contracts/WallyStaking.sol\":940:16949  contract WallyStaking is AccessControl, ReentrancyGuard {... */\n      0x01\n      dup1\n      sstore\n      stop\n        /* \"contracts/WallyStaking.sol\":6141:6180  if (amount == 0) revert InvalidAmount() */\n    tag_90:\n        /* \"contracts/WallyStaking.sol\":7203:7218  InvalidAmount() */\n      shl(0xe1, 0x162908e3)\n        /* \"contracts/WallyStaking.sol\":940:16949  contract WallyStaking is AccessControl, ReentrancyGuard {... */\n      0x00\n        /* \"contracts/WallyStaking.sol\":6165:6180  InvalidAmount() */\n      mstore\n        /* \"contracts/WallyStaking.sol\":940:16949  contract WallyStaking is AccessControl, ReentrancyGuard {... */\n      0x04\n      0x00\n        /* \"contracts/WallyStaking.sol\":6165:6180  InvalidAmount() */\n      revert\n        /* \"@openzeppelin/contracts/access/AccessControl.sol\":3515:3623  if (!hasRole(role, account)) {... */\n    tag_88:\n        /* \"@openzeppelin/contracts/access/AccessControl.sol\":3565:3612  AccessControlUnauthorizedAccount(account, role) */\n      shl(0xe0, 0xe2517d3f)\n        /* \"contracts/WallyStaking.sol\":940:16949  contract WallyStaking is AccessControl, ReentrancyGuard {... */\n      0x00\n        /* \"@openzeppelin/contracts/access/AccessControl.sol\":3565:3612  AccessControlUnauthorizedAccount(account, role) */\n      mstore\n        /* \"@openzeppelin/contracts/utils/Context.sol\":735:745  msg.sender */\n      caller\n        /* \"contracts/WallyStaking.sol\":940:16949  contract WallyStaking is AccessControl, ReentrancyGuard {... */\n      0x04\n      mstore\n        /* \"contracts/WallyStaking.sol\":1165:1198  keccak256(\"REWARDS_MANAGER_ROLE\") */\n      0x51785d261c3b3e8c2cfe2d0e108b9ab2b1fb703ff9e9e49aba4ebdc85c36152b\n        /* \"contracts/WallyStaking.sol\":940:16949  contract WallyStaking is AccessControl, ReentrancyGuard {... */\n      0x24\n      mstore\n      0x44\n      0x00\n        /* \"@openzeppelin/contracts/access/AccessControl.sol\":3565:3612  AccessControlUnauthorizedAccount(account, role) */\n      revert\n        /* \"contracts/WallyStaking.sol\":940:16949  contract WallyStaking is AccessControl, ReentrancyGuard {... */\n    tag_52:\n      jumpi(tag_64, callvalue)\n      jumpi(tag_64, slt(add(not(0x03), calldatasize), 0x00))\n      mload(0x40)\n      dup1\n      0x20\n        /* \"contracts/WallyStaking.sol\":15194:15213  _availableDurations */\n      0x07\n        /* \"contracts/WallyStaking.sol\":940:16949  contract WallyStaking is AccessControl, ReentrancyGuard {... */\n      sload\n      swap3\n      dup4\n      dup2\n      mstore\n      add\n      dup1\n      swap3\n        /* \"contracts/WallyStaking.sol\":15194:15213  _availableDurations */\n      0x07\n        /* \"contracts/WallyStaking.sol\":940:16949  contract WallyStaking is AccessControl, ReentrancyGuard {... */\n      0x00\n      mstore\n      0xa66cc928b5edb82af9bd49922954155ab7b0942694bea4ce44661d9a8736c688\n      swap1\n      0x00\n    tag_98:\n      dup2\n      dup2\n      lt\n      tag_99\n      jumpi\n      pop\n      pop\n      pop\n      dup2\n      tag_101\n      swap2\n      sub\n      dup3\n      tag_9\n      jump\t// in\n    tag_101:\n      mload(0x40)\n      swap2\n      dup3\n      swap2\n      0x20\n      dup4\n      add\n      swap1\n      0x20\n      dup5\n      mstore\n      mload\n      dup1\n      swap2\n      mstore\n      0x40\n      dup4\n      add\n      swap2\n      swap1\n      0x00\n    tag_102:\n      dup2\n      dup2\n      lt\n      tag_103\n      jumpi\n      pop\n      pop\n      pop\n      sub\n      swap1\n      return\n    tag_103:\n      dup3\n      mload\n      dup5\n      mstore\n      dup6\n      swap5\n      pop\n      0x20\n      swap4\n      dup5\n      add\n      swap4\n      swap1\n      swap3\n      add\n      swap2\n      0x01\n      add\n      jump(tag_102)\n    tag_99:\n      dup3\n      sload\n      dup5\n      mstore\n      0x20\n      swap1\n      swap4\n      add\n      swap3\n      0x01\n      swap3\n      dup4\n      add\n      swap3\n      add\n      jump(tag_98)\n    tag_50:\n      jumpi(tag_64, callvalue)\n      jumpi(tag_64, slt(add(not(0x03), calldatasize), 0x60))\n      calldataload(0x04)\n      calldataload(0x24)\n      swap1\n      calldataload(0x44)\n      dup1\n      iszero\n      iszero\n      dup1\n      swap2\n      sub\n      tag_64\n      jumpi\n        /* \"@openzeppelin/contracts/security/ReentrancyGuard.sol\":2227:2330  modifier nonReentrant() {... */\n      tag_111\n      tag_11\n      jump\t// in\n    tag_111:\n        /* \"@openzeppelin/contracts/access/AccessControl.sol\":2475:2479  role */\n      tag_112\n      tag_12\n      jump\t// in\n    tag_112:\n        /* \"contracts/WallyStaking.sol\":940:16949  contract WallyStaking is AccessControl, ReentrancyGuard {... */\n      0x00\n        /* \"contracts/WallyStaking.sol\":4812:4831  _availableDurations */\n      0x07\n        /* \"contracts/WallyStaking.sol\":940:16949  contract WallyStaking is AccessControl, ReentrancyGuard {... */\n      sload\n      0x00\n        /* \"contracts/WallyStaking.sol\":4868:4887  i < durationsLength */\n    tag_113:\n      dup2\n      dup2\n      lt\n      tag_114\n      jumpi\n        /* \"contracts/WallyStaking.sol\":4848:5087  for (uint256 i = 0; i < durationsLength; ++i) { // Using pre-increment (++i) instead of post-increment (i++)... */\n    tag_115:\n        /* \"contracts/WallyStaking.sol\":5100:5106  !found */\n      pop\n      pop\n      iszero\n        /* \"contracts/WallyStaking.sol\":5096:5132  if (!found) revert InvalidDuration() */\n      tag_116\n      jumpi\n        /* \"contracts/WallyStaking.sol\":940:16949  contract WallyStaking is AccessControl, ReentrancyGuard {... */\n      dup2\n      0x00\n      mstore\n        /* \"contracts/WallyStaking.sol\":5235:5248  _stakingPlans */\n      0x02\n        /* \"contracts/WallyStaking.sol\":940:16949  contract WallyStaking is AccessControl, ReentrancyGuard {... */\n      0x20\n      mstore\n      keccak256(0x00, 0x40)\n        /* \"contracts/WallyStaking.sol\":5272:5280  plan.apr */\n      swap1\n      dup4\n        /* \"contracts/WallyStaking.sol\":940:16949  contract WallyStaking is AccessControl, ReentrancyGuard {... */\n      0x01\n        /* \"contracts/WallyStaking.sol\":5272:5280  plan.apr */\n      dup4\n      add\n        /* \"contracts/WallyStaking.sol\":940:16949  contract WallyStaking is AccessControl, ReentrancyGuard {... */\n      dup2\n      dup2\n      sload\n        /* \"contracts/WallyStaking.sol\":5272:5287  plan.apr != apr */\n      sub\n        /* \"contracts/WallyStaking.sol\":5268:5328  if (plan.apr != apr) {... */\n      tag_118\n      jumpi\n        /* \"contracts/WallyStaking.sol\":4848:5087  for (uint256 i = 0; i < durationsLength; ++i) { // Using pre-increment (++i) instead of post-increment (i++)... */\n    tag_119:\n        /* \"contracts/WallyStaking.sol\":940:16949  contract WallyStaking is AccessControl, ReentrancyGuard {... */\n      pop\n      pop\n      dup1\n      0xff\n      dup4\n      sload\n      and\n      iszero\n      iszero\n        /* \"contracts/WallyStaking.sol\":5350:5375  plan.isActive != isActive */\n      sub\n        /* \"contracts/WallyStaking.sol\":5346:5426  if (plan.isActive != isActive) {... */\n      tag_120\n      jumpi\n        /* \"contracts/WallyStaking.sol\":4848:5087  for (uint256 i = 0; i < durationsLength; ++i) { // Using pre-increment (++i) instead of post-increment (i++)... */\n    tag_121:\n        /* \"contracts/WallyStaking.sol\":5449:5482  StakingPlanUpdated(duration, apr) */\n      pop\n      pop\n      0xad2954a6781cdc42b8af5df6f557041b3f146aaf8fbc031d767b7ad48164cff1\n        /* \"contracts/WallyStaking.sol\":940:16949  contract WallyStaking is AccessControl, ReentrancyGuard {... */\n      0x00\n        /* \"contracts/WallyStaking.sol\":5449:5482  StakingPlanUpdated(duration, apr) */\n      dup1\n      log3\n        /* \"contracts/WallyStaking.sol\":940:16949  contract WallyStaking is AccessControl, ReentrancyGuard {... */\n      0x01\n      dup1\n      sstore\n      stop\n        /* \"contracts/WallyStaking.sol\":5346:5426  if (plan.isActive != isActive) {... */\n    tag_120:\n        /* \"contracts/WallyStaking.sol\":940:16949  contract WallyStaking is AccessControl, ReentrancyGuard {... */\n      0xff\n      dup1\n      not\n      dup4\n      sload\n      and\n      swap2\n      and\n      or\n      swap1\n      sstore\n        /* \"contracts/WallyStaking.sol\":5346:5426  if (plan.isActive != isActive) {... */\n      dup3\n      dup1\n      jump(tag_121)\n        /* \"contracts/WallyStaking.sol\":5268:5328  if (plan.apr != apr) {... */\n    tag_118:\n        /* \"contracts/WallyStaking.sol\":940:16949  contract WallyStaking is AccessControl, ReentrancyGuard {... */\n      sstore\n        /* \"contracts/WallyStaking.sol\":5268:5328  if (plan.apr != apr) {... */\n      dup4\n      dup6\n      jump(tag_119)\n        /* \"contracts/WallyStaking.sol\":5096:5132  if (!found) revert InvalidDuration() */\n    tag_116:\n        /* \"contracts/WallyStaking.sol\":15926:15943  InvalidDuration() */\n      shl(0xe0, 0x76166401)\n        /* \"contracts/WallyStaking.sol\":940:16949  contract WallyStaking is AccessControl, ReentrancyGuard {... */\n      0x00\n        /* \"contracts/WallyStaking.sol\":5115:5132  InvalidDuration() */\n      mstore\n        /* \"contracts/WallyStaking.sol\":940:16949  contract WallyStaking is AccessControl, ReentrancyGuard {... */\n      0x04\n      0x00\n        /* \"contracts/WallyStaking.sol\":5115:5132  InvalidDuration() */\n      revert\n        /* \"contracts/WallyStaking.sol\":4889:4892  ++i */\n    tag_114:\n        /* \"contracts/WallyStaking.sol\":4973:4995  _availableDurations[i] */\n      dup5\n      tag_122\n      dup3\n      tag_10\n      jump\t// in\n    tag_122:\n        /* \"contracts/WallyStaking.sol\":940:16949  contract WallyStaking is AccessControl, ReentrancyGuard {... */\n      swap1\n      sload\n      swap1\n      0x03\n      shl\n      shr\n        /* \"contracts/WallyStaking.sol\":4973:5007  _availableDurations[i] == duration */\n      eq\n        /* \"contracts/WallyStaking.sol\":4969:5077  if (_availableDurations[i] == duration) {... */\n      tag_123\n      jumpi\n        /* \"contracts/WallyStaking.sol\":940:16949  contract WallyStaking is AccessControl, ReentrancyGuard {... */\n      0x01\n      add\n        /* \"contracts/WallyStaking.sol\":4853:4866  uint256 i = 0 */\n      jump(tag_113)\n        /* \"contracts/WallyStaking.sol\":4969:5077  if (_availableDurations[i] == duration) {... */\n    tag_123:\n        /* \"contracts/WallyStaking.sol\":5027:5039  found = true */\n      pop\n      pop\n      pop\n        /* \"contracts/WallyStaking.sol\":940:16949  contract WallyStaking is AccessControl, ReentrancyGuard {... */\n      0x01\n        /* \"contracts/WallyStaking.sol\":5057:5062  break */\n      dup5\n      dup1\n      jump(tag_115)\n        /* \"contracts/WallyStaking.sol\":940:16949  contract WallyStaking is AccessControl, ReentrancyGuard {... */\n    tag_48:\n      jumpi(tag_64, callvalue)\n      jumpi(tag_64, slt(add(not(0x03), calldatasize), 0x00))\n      0x20\n      mload(0x40)\n      0x00\n      dup2\n      mstore\n      return\n    tag_46:\n      jumpi(tag_64, callvalue)\n      jumpi(tag_64, slt(add(not(0x03), calldatasize), 0x20))\n      mstore(0x00, calldataload(0x04))\n        /* \"contracts/WallyStaking.sol\":14865:14878  _stakingPlans */\n      0x02\n        /* \"contracts/WallyStaking.sol\":940:16949  contract WallyStaking is AccessControl, ReentrancyGuard {... */\n      0x20\n      mstore\n      0x40\n      dup1\n      0x00\n      keccak256\n      0x01\n      0xff\n      dup3\n      sload\n      and\n        /* \"contracts/WallyStaking.sol\":14921:14929  plan.apr */\n      swap2\n      add\n        /* \"contracts/WallyStaking.sol\":940:16949  contract WallyStaking is AccessControl, ReentrancyGuard {... */\n      sload\n      dup3\n      mload\n      swap2\n      iszero\n      iszero\n      dup3\n      mstore\n      0x20\n      dup3\n      add\n      mstore\n      return\n    tag_44:\n      jumpi(tag_64, callvalue)\n      jumpi(tag_64, slt(add(not(0x03), calldatasize), 0x40))\n      tag_137\n      tag_2\n      jump\t// in\n    tag_137:\n      mstore(0x00, calldataload(0x04))\n      mstore(0x20, 0x00)\n      keccak256(0x00, 0x40)\n        /* \"@openzeppelin/contracts/access/AccessControl.sol\":2954:2983  _roles[role].hasRole[account] */\n      swap1\n        /* \"contracts/WallyStaking.sol\":940:16949  contract WallyStaking is AccessControl, ReentrancyGuard {... */\n      0x01\n      dup1\n      0xa0\n      shl\n      sub\n      and\n      0x00\n      mstore\n      0x20\n      mstore\n      0x20\n      and(sload(keccak256(0x00, 0x40)), 0xff)\n      mload(0x40)\n      swap1\n      iszero\n      iszero\n      dup2\n      mstore\n      return\n    tag_42:\n      jumpi(tag_64, callvalue)\n      jumpi(tag_64, slt(add(not(0x03), calldatasize), 0x20))\n      tag_142\n      tag_1\n      jump\t// in\n    tag_142:\n      mload(0x40)\n      0xe0\n      dup2\n      add\n      swap2\n      dup2\n      dup4\n      lt\n      0xffffffffffffffff\n      dup5\n      gt\n      or\n      tag_143\n      jumpi\n      0xe0\n      swap3\n      0x40\n      mstore\n      0x00\n      dup3\n      mstore\n      0x20\n      dup3\n      add\n      0x00\n      dup2\n      mstore\n      0x40\n      dup4\n      add\n      0x00\n      dup2\n      mstore\n      0x60\n      dup5\n      add\n      0x00\n      dup2\n      mstore\n      0x80\n      dup6\n      add\n      swap2\n      0x00\n      dup4\n      mstore\n      0xa0\n      dup7\n      add\n      swap4\n      0x00\n      dup6\n      mstore\n        /* \"contracts/WallyStaking.sol\":14428:14457  calculatePendingRewards(user) */\n      tag_145\n        /* \"contracts/WallyStaking.sol\":940:16949  contract WallyStaking is AccessControl, ReentrancyGuard {... */\n      0xc0\n      dup9\n      add\n      swap7\n      0x00\n      dup9\n      mstore\n      0x01\n      dup1\n      0xa0\n      shl\n      sub\n      dup2\n      and\n      0x00\n      mstore\n        /* \"contracts/WallyStaking.sol\":14053:14069  _userStakingData */\n      0x03\n        /* \"contracts/WallyStaking.sol\":940:16949  contract WallyStaking is AccessControl, ReentrancyGuard {... */\n      0x20\n      mstore\n      0xff\n        /* \"contracts/WallyStaking.sol\":14375:14392  userData.isActive */\n      0x06\n        /* \"contracts/WallyStaking.sol\":940:16949  contract WallyStaking is AccessControl, ReentrancyGuard {... */\n      keccak256(0x00, 0x40)\n      dup1\n      sload\n      dup13\n      mstore\n        /* \"contracts/WallyStaking.sol\":14177:14202  userData.stakingStartTime */\n      0x01\n      dup2\n      add\n        /* \"contracts/WallyStaking.sol\":940:16949  contract WallyStaking is AccessControl, ReentrancyGuard {... */\n      sload\n      dup7\n      mstore\n        /* \"contracts/WallyStaking.sol\":14053:14069  _userStakingData */\n      0x03\n        /* \"contracts/WallyStaking.sol\":14238:14261  userData.stakingEndTime */\n      dup2\n      add\n        /* \"contracts/WallyStaking.sol\":940:16949  contract WallyStaking is AccessControl, ReentrancyGuard {... */\n      sload\n      dup8\n      mstore\n      0x04\n        /* \"contracts/WallyStaking.sol\":14291:14308  userData.duration */\n      dup2\n      add\n        /* \"contracts/WallyStaking.sol\":940:16949  contract WallyStaking is AccessControl, ReentrancyGuard {... */\n      sload\n      dup9\n      mstore\n        /* \"contracts/WallyStaking.sol\":14333:14345  userData.apr */\n      0x05\n      dup2\n      add\n        /* \"contracts/WallyStaking.sol\":940:16949  contract WallyStaking is AccessControl, ReentrancyGuard {... */\n      sload\n      dup10\n      mstore\n        /* \"contracts/WallyStaking.sol\":14375:14392  userData.isActive */\n      add\n        /* \"contracts/WallyStaking.sol\":940:16949  contract WallyStaking is AccessControl, ReentrancyGuard {... */\n      sload\n      and\n      iszero\n      iszero\n      dup9\n      mstore\n        /* \"contracts/WallyStaking.sol\":14428:14457  calculatePendingRewards(user) */\n      tag_6\n      jump\t// in\n    tag_145:\n        /* \"contracts/WallyStaking.sol\":940:16949  contract WallyStaking is AccessControl, ReentrancyGuard {... */\n      dup6\n      mstore\n      mload(0x40)\n      swap7\n      mload\n      dup8\n      mstore\n      mload\n      0x20\n      dup8\n      add\n      mstore\n      mload\n      0x40\n      dup7\n      add\n      mstore\n      mload\n      0x60\n      dup6\n      add\n      mstore\n      mload\n      0x80\n      dup5\n      add\n      mstore\n      mload\n      0xa0\n      dup4\n      add\n      mstore\n      mload\n      iszero\n      iszero\n      0xc0\n      dup3\n      add\n      mstore\n      return\n    tag_143:\n      mstore(0x00, shl(0xe0, 0x4e487b71))\n      mstore(0x04, 0x41)\n      revert(0x00, 0x24)\n    tag_40:\n      jumpi(tag_64, callvalue)\n      tag_148\n      calldatasize\n      tag_3\n      jump\t// in\n    tag_148:\n        /* \"@openzeppelin/contracts/security/ReentrancyGuard.sol\":2227:2330  modifier nonReentrant() {... */\n      swap1\n      tag_149\n      tag_11\n      jump\t// in\n    tag_149:\n        /* \"contracts/WallyStaking.sol\":940:16949  contract WallyStaking is AccessControl, ReentrancyGuard {... */\n      0xff\n        /* \"contracts/WallyStaking.sol\":7034:7048  _stakingPaused */\n      0x06\n        /* \"contracts/WallyStaking.sol\":940:16949  contract WallyStaking is AccessControl, ReentrancyGuard {... */\n      sload\n      and\n      sload(0x04)\n        /* \"contracts/WallyStaking.sol\":7125:7169  if (stakingPaused) revert StakingNotActive() */\n      swap1\n      tag_150\n      jumpi\n        /* \"contracts/WallyStaking.sol\":7183:7194  amount == 0 */\n      dup2\n      iszero\n        /* \"contracts/WallyStaking.sol\":7179:7218  if (amount == 0) revert InvalidAmount() */\n      tag_90\n      jumpi\n        /* \"contracts/WallyStaking.sol\":940:16949  contract WallyStaking is AccessControl, ReentrancyGuard {... */\n      dup3\n      0x00\n      mstore\n        /* \"contracts/WallyStaking.sol\":7317:7330  _stakingPlans */\n      0x02\n        /* \"contracts/WallyStaking.sol\":940:16949  contract WallyStaking is AccessControl, ReentrancyGuard {... */\n      0x20\n      mstore\n      keccak256(0x00, 0x40)\n      0xff\n      dup2\n      sload\n      and\n        /* \"contracts/WallyStaking.sol\":7354:7368  !plan.isActive */\n      iszero\n        /* \"contracts/WallyStaking.sol\":7350:7394  if (!plan.isActive) revert InvalidDuration() */\n      tag_116\n      jumpi\n        /* \"contracts/WallyStaking.sol\":8869:8889  totalStaked + amount */\n      tag_156\n        /* \"contracts/WallyStaking.sol\":7697:7707  msg.sender */\n      swap2\n      dup4\n      swap2\n      caller\n        /* \"contracts/WallyStaking.sol\":940:16949  contract WallyStaking is AccessControl, ReentrancyGuard {... */\n      0x00\n      mstore\n        /* \"contracts/WallyStaking.sol\":7680:7696  _userStakingData */\n      0x03\n        /* \"contracts/WallyStaking.sol\":940:16949  contract WallyStaking is AccessControl, ReentrancyGuard {... */\n      0x20\n      mstore\n      keccak256(0x00, 0x40)\n        /* \"contracts/WallyStaking.sol\":7722:7739  userData.isActive */\n      swap1\n        /* \"contracts/WallyStaking.sol\":8512:8537  userData.stakingStartTime */\n      0x01\n        /* \"contracts/WallyStaking.sol\":7034:7048  _stakingPaused */\n      0x06\n        /* \"contracts/WallyStaking.sol\":7722:7739  userData.isActive */\n      dup4\n      add\n        /* \"contracts/WallyStaking.sol\":940:16949  contract WallyStaking is AccessControl, ReentrancyGuard {... */\n      swap2\n      0xff\n      dup4\n      sload\n      and\n        /* \"contracts/WallyStaking.sol\":7718:8148  if (userData.isActive) {... */\n      tag_157\n      jumpi\n        /* \"contracts/WallyStaking.sol\":940:16949  contract WallyStaking is AccessControl, ReentrancyGuard {... */\n    tag_158:\n        /* \"contracts/WallyStaking.sol\":8220:8242  currentTime + duration */\n      tag_159\n        /* \"contracts/WallyStaking.sol\":7566:7581  block.timestamp */\n      dup10\n      timestamp\n        /* \"contracts/WallyStaking.sol\":8220:8242  currentTime + duration */\n      tag_8\n      jump\t// in\n    tag_159:\n        /* \"contracts/WallyStaking.sol\":8352:8358  amount */\n      tag_160\n        /* \"contracts/WallyStaking.sol\":7467:7471  this */\n      dup8\n      address\n        /* \"contracts/WallyStaking.sol\":7697:7707  msg.sender */\n      caller\n        /* \"contracts/WallyStaking.sol\":8310:8316  _token */\n      immutable(\"0x54f98f06761e30617bf10b49b7a4bbfa175f7ac33cb018a55e7053fa716317c1\")\n        /* \"contracts/WallyStaking.sol\":8352:8358  amount */\n      tag_18\n      jump\t// in\n    tag_160:\n        /* \"contracts/WallyStaking.sol\":940:16949  contract WallyStaking is AccessControl, ReentrancyGuard {... */\n      dup7\n      dup6\n      sstore\n        /* \"contracts/WallyStaking.sol\":7566:7581  block.timestamp */\n      timestamp\n        /* \"contracts/WallyStaking.sol\":8512:8537  userData.stakingStartTime */\n      dup4\n      dup7\n      add\n        /* \"contracts/WallyStaking.sol\":940:16949  contract WallyStaking is AccessControl, ReentrancyGuard {... */\n      sstore\n        /* \"contracts/WallyStaking.sol\":7680:7696  _userStakingData */\n      0x03\n        /* \"contracts/WallyStaking.sol\":8561:8584  userData.stakingEndTime */\n      dup6\n      add\n        /* \"contracts/WallyStaking.sol\":940:16949  contract WallyStaking is AccessControl, ReentrancyGuard {... */\n      sstore\n        /* \"contracts/WallyStaking.sol\":8607:8624  userData.duration */\n      dup9\n        /* \"contracts/WallyStaking.sol\":940:16949  contract WallyStaking is AccessControl, ReentrancyGuard {... */\n      0x04\n        /* \"contracts/WallyStaking.sol\":8607:8624  userData.duration */\n      dup6\n      add\n        /* \"contracts/WallyStaking.sol\":940:16949  contract WallyStaking is AccessControl, ReentrancyGuard {... */\n      sstore\n        /* \"contracts/WallyStaking.sol\":8660:8668  plan.apr */\n      add\n        /* \"contracts/WallyStaking.sol\":940:16949  contract WallyStaking is AccessControl, ReentrancyGuard {... */\n      sload\n        /* \"contracts/WallyStaking.sol\":8645:8657  userData.apr */\n      0x05\n      dup4\n      add\n        /* \"contracts/WallyStaking.sol\":940:16949  contract WallyStaking is AccessControl, ReentrancyGuard {... */\n      sstore\n        /* \"contracts/WallyStaking.sol\":8512:8537  userData.stakingStartTime */\n      0x01\n        /* \"contracts/WallyStaking.sol\":940:16949  contract WallyStaking is AccessControl, ReentrancyGuard {... */\n      not(0xff)\n      dup3\n      sload\n      and\n      or\n      swap1\n      sstore\n        /* \"contracts/WallyStaking.sol\":7317:7330  _stakingPlans */\n      0x02\n        /* \"contracts/WallyStaking.sol\":7566:7581  block.timestamp */\n      timestamp\n        /* \"contracts/WallyStaking.sol\":8712:8734  userData.lastClaimTime */\n      swap2\n      add\n        /* \"contracts/WallyStaking.sol\":940:16949  contract WallyStaking is AccessControl, ReentrancyGuard {... */\n      sstore\n        /* \"contracts/WallyStaking.sol\":8869:8889  totalStaked + amount */\n      tag_8\n      jump\t// in\n    tag_156:\n        /* \"contracts/WallyStaking.sol\":940:16949  contract WallyStaking is AccessControl, ReentrancyGuard {... */\n      0x04\n      sstore\n      mload(0x40)\n      swap1\n      dup2\n      mstore\n      0x00\n      0x20\n      dup3\n      add\n      mstore\n        /* \"contracts/WallyStaking.sol\":8913:8952  Staked(msg.sender, amount, duration, 0) */\n      0xb4caaf29adda3eefee3ad552a8e85058589bf834c7466cae4ee58787f70589ed\n        /* \"contracts/WallyStaking.sol\":940:16949  contract WallyStaking is AccessControl, ReentrancyGuard {... */\n      0x40\n        /* \"contracts/WallyStaking.sol\":7697:7707  msg.sender */\n      caller\n        /* \"contracts/WallyStaking.sol\":8913:8952  Staked(msg.sender, amount, duration, 0) */\n      swap3\n      log3\n        /* \"contracts/WallyStaking.sol\":8512:8537  userData.stakingStartTime */\n      0x01\n        /* \"contracts/WallyStaking.sol\":940:16949  contract WallyStaking is AccessControl, ReentrancyGuard {... */\n      dup1\n      sstore\n      stop\n        /* \"contracts/WallyStaking.sol\":7718:8148  if (userData.isActive) {... */\n    tag_157:\n        /* \"contracts/WallyStaking.sol\":7845:7870  userData.stakingStartTime */\n      dup2\n      dup5\n      add\n        /* \"contracts/WallyStaking.sol\":940:16949  contract WallyStaking is AccessControl, ReentrancyGuard {... */\n      sload\n        /* \"contracts/WallyStaking.sol\":7845:7875  userData.stakingStartTime != 0 */\n      dup1\n      iszero\n      iszero\n        /* \"contracts/WallyStaking.sol\":7845:7919  userData.stakingStartTime != 0 && currentTime >= userData.stakingStartTime */\n      swap1\n      dup2\n      tag_161\n      jumpi\n        /* \"contracts/WallyStaking.sol\":7718:8148  if (userData.isActive) {... */\n    tag_162:\n        /* \"contracts/WallyStaking.sol\":7841:8138  if (userData.stakingStartTime != 0 && currentTime >= userData.stakingStartTime) {... */\n      pop\n      iszero\n        /* \"contracts/WallyStaking.sol\":7718:8148  if (userData.isActive) {... */\n      tag_158\n        /* \"contracts/WallyStaking.sol\":7841:8138  if (userData.stakingStartTime != 0 && currentTime >= userData.stakingStartTime) {... */\n      jumpi\n        /* \"contracts/WallyStaking.sol\":7964:7999  calculatePendingRewards(msg.sender) */\n      tag_165\n        /* \"contracts/WallyStaking.sol\":7697:7707  msg.sender */\n      caller\n        /* \"contracts/WallyStaking.sol\":7964:7999  calculatePendingRewards(msg.sender) */\n      tag_6\n      jump\t// in\n    tag_165:\n        /* \"contracts/WallyStaking.sol\":8021:8040  pendingRewards != 0 */\n      dup1\n        /* \"contracts/WallyStaking.sol\":8017:8124  if (pendingRewards != 0) {... */\n      tag_166\n      jumpi\n        /* \"contracts/WallyStaking.sol\":7841:8138  if (userData.stakingStartTime != 0 && currentTime >= userData.stakingStartTime) {... */\n    tag_167:\n      pop\n        /* \"contracts/WallyStaking.sol\":7718:8148  if (userData.isActive) {... */\n      jump(tag_158)\n        /* \"contracts/WallyStaking.sol\":8017:8124  if (pendingRewards != 0) {... */\n    tag_166:\n        /* \"contracts/WallyStaking.sol\":8090:8104  pendingRewards */\n      tag_168\n        /* \"contracts/WallyStaking.sol\":7697:7707  msg.sender */\n      swap1\n      caller\n        /* \"contracts/WallyStaking.sol\":8090:8104  pendingRewards */\n      tag_15\n      jump\t// in\n    tag_168:\n        /* \"contracts/WallyStaking.sol\":8017:8124  if (pendingRewards != 0) {... */\n      dup10\n      jump(tag_167)\n        /* \"contracts/WallyStaking.sol\":7845:7919  userData.stakingStartTime != 0 && currentTime >= userData.stakingStartTime */\n    tag_161:\n        /* \"contracts/WallyStaking.sol\":7566:7581  block.timestamp */\n      swap1\n      pop\n      timestamp\n        /* \"contracts/WallyStaking.sol\":7879:7919  currentTime >= userData.stakingStartTime */\n      lt\n      iszero\n        /* \"contracts/WallyStaking.sol\":7845:7919  userData.stakingStartTime != 0 && currentTime >= userData.stakingStartTime */\n      dup11\n      jump(tag_162)\n        /* \"contracts/WallyStaking.sol\":7125:7169  if (stakingPaused) revert StakingNotActive() */\n    tag_150:\n        /* \"contracts/WallyStaking.sol\":7151:7169  StakingNotActive() */\n      shl(0xe2, 0x1a4a6f3b)\n        /* \"contracts/WallyStaking.sol\":940:16949  contract WallyStaking is AccessControl, ReentrancyGuard {... */\n      0x00\n        /* \"contracts/WallyStaking.sol\":7151:7169  StakingNotActive() */\n      mstore\n        /* \"contracts/WallyStaking.sol\":940:16949  contract WallyStaking is AccessControl, ReentrancyGuard {... */\n      0x04\n      0x00\n        /* \"contracts/WallyStaking.sol\":7151:7169  StakingNotActive() */\n      revert\n        /* \"contracts/WallyStaking.sol\":940:16949  contract WallyStaking is AccessControl, ReentrancyGuard {... */\n    tag_38:\n      jumpi(tag_64, callvalue)\n      tag_171\n      calldatasize\n      tag_3\n      jump\t// in\n    tag_171:\n        /* \"@openzeppelin/contracts/security/ReentrancyGuard.sol\":2227:2330  modifier nonReentrant() {... */\n      swap1\n      tag_172\n      tag_11\n      jump\t// in\n    tag_172:\n        /* \"@openzeppelin/contracts/access/AccessControl.sol\":2475:2479  role */\n      tag_173\n      tag_12\n      jump\t// in\n    tag_173:\n        /* \"contracts/WallyStaking.sol\":15904:15917  duration == 0 */\n      dup1\n      iszero\n        /* \"contracts/WallyStaking.sol\":15900:15943  if (duration == 0) revert InvalidDuration() */\n      tag_116\n      jumpi\n        /* \"contracts/WallyStaking.sol\":940:16949  contract WallyStaking is AccessControl, ReentrancyGuard {... */\n      dup1\n      0x00\n      mstore\n        /* \"contracts/WallyStaking.sol\":15957:15970  _stakingPlans */\n      0x02\n        /* \"contracts/WallyStaking.sol\":940:16949  contract WallyStaking is AccessControl, ReentrancyGuard {... */\n      0x20\n      mstore\n      and(sload(keccak256(0x00, 0x40)), 0xff)\n        /* \"contracts/WallyStaking.sol\":15953:16021  if (_stakingPlans[duration].isActive) revert DurationAlreadyExists() */\n      tag_176\n      jumpi\n        /* \"contracts/WallyStaking.sol\":940:16949  contract WallyStaking is AccessControl, ReentrancyGuard {... */\n      dup1\n      0x00\n      mstore\n        /* \"contracts/WallyStaking.sol\":15957:15970  _stakingPlans */\n      0x02\n        /* \"contracts/WallyStaking.sol\":940:16949  contract WallyStaking is AccessControl, ReentrancyGuard {... */\n      0x20\n      mstore\n      dup2\n        /* \"contracts/WallyStaking.sol\":16159:16163  true */\n      0x01\n        /* \"contracts/WallyStaking.sol\":940:16949  contract WallyStaking is AccessControl, ReentrancyGuard {... */\n      keccak256(0x00, 0x40)\n      dup2\n      not(0xff)\n      dup3\n      sload\n      and\n      or\n      dup2\n      sstore\n        /* \"contracts/WallyStaking.sol\":16173:16181  plan.apr */\n      add\n        /* \"contracts/WallyStaking.sol\":940:16949  contract WallyStaking is AccessControl, ReentrancyGuard {... */\n      sstore\n        /* \"contracts/WallyStaking.sol\":16206:16225  _availableDurations */\n      0x07\n        /* \"contracts/WallyStaking.sol\":940:16949  contract WallyStaking is AccessControl, ReentrancyGuard {... */\n      sload\n      0x010000000000000000\n      dup2\n      lt\n      iszero\n      tag_143\n      jumpi\n      dup1\n        /* \"contracts/WallyStaking.sol\":16159:16163  true */\n      0x01\n        /* \"contracts/WallyStaking.sol\":940:16949  contract WallyStaking is AccessControl, ReentrancyGuard {... */\n      tag_180\n      swap3\n      add\n        /* \"contracts/WallyStaking.sol\":16206:16225  _availableDurations */\n      0x07\n        /* \"contracts/WallyStaking.sol\":940:16949  contract WallyStaking is AccessControl, ReentrancyGuard {... */\n      sstore\n      tag_10\n      jump\t// in\n    tag_180:\n      dup2\n      sload\n      swap1\n      0x03\n      shl\n      swap1\n      dup4\n      dup3\n      shl\n      swap2\n      not(0x00)\n      swap1\n      shl\n      not\n      and\n      or\n      swap1\n      sstore\n        /* \"contracts/WallyStaking.sol\":16264:16295  StakingPlanAdded(duration, apr) */\n      0x682563ed446791dcd2bb66aa531ebaf528bce493e57f037313263799851bc364\n        /* \"contracts/WallyStaking.sol\":940:16949  contract WallyStaking is AccessControl, ReentrancyGuard {... */\n      0x00\n        /* \"contracts/WallyStaking.sol\":16264:16295  StakingPlanAdded(duration, apr) */\n      dup1\n      log3\n        /* \"contracts/WallyStaking.sol\":16159:16163  true */\n      0x01\n        /* \"contracts/WallyStaking.sol\":940:16949  contract WallyStaking is AccessControl, ReentrancyGuard {... */\n      dup1\n      sstore\n      stop\n        /* \"contracts/WallyStaking.sol\":15953:16021  if (_stakingPlans[duration].isActive) revert DurationAlreadyExists() */\n    tag_176:\n        /* \"contracts/WallyStaking.sol\":15998:16021  DurationAlreadyExists() */\n      shl(0xe1, 0x57706857)\n        /* \"contracts/WallyStaking.sol\":940:16949  contract WallyStaking is AccessControl, ReentrancyGuard {... */\n      0x00\n        /* \"contracts/WallyStaking.sol\":15998:16021  DurationAlreadyExists() */\n      mstore\n        /* \"contracts/WallyStaking.sol\":940:16949  contract WallyStaking is AccessControl, ReentrancyGuard {... */\n      0x04\n      0x00\n        /* \"contracts/WallyStaking.sol\":15998:16021  DurationAlreadyExists() */\n      revert\n        /* \"contracts/WallyStaking.sol\":940:16949  contract WallyStaking is AccessControl, ReentrancyGuard {... */\n    tag_36:\n      jumpi(tag_64, callvalue)\n      jumpi(tag_64, slt(add(not(0x03), calldatasize), 0x00))\n        /* \"@openzeppelin/contracts/security/ReentrancyGuard.sol\":2227:2330  modifier nonReentrant() {... */\n      tag_185\n      tag_11\n      jump\t// in\n    tag_185:\n        /* \"contracts/WallyStaking.sol\":10593:10603  msg.sender */\n      caller\n        /* \"contracts/WallyStaking.sol\":940:16949  contract WallyStaking is AccessControl, ReentrancyGuard {... */\n      0x00\n      mstore\n        /* \"contracts/WallyStaking.sol\":10576:10592  _userStakingData */\n      0x03\n        /* \"contracts/WallyStaking.sol\":940:16949  contract WallyStaking is AccessControl, ReentrancyGuard {... */\n      0x20\n      mstore\n      keccak256(0x00, 0x40)\n      0xff\n        /* \"contracts/WallyStaking.sol\":10651:10668  userData.isActive */\n      0x06\n      dup3\n      add\n        /* \"contracts/WallyStaking.sol\":940:16949  contract WallyStaking is AccessControl, ReentrancyGuard {... */\n      sload\n      and\n        /* \"contracts/WallyStaking.sol\":10650:10668  !userData.isActive */\n      iszero\n        /* \"contracts/WallyStaking.sol\":10646:10692  if (!userData.isActive) revert NoActiveStake() */\n      tag_71\n      jumpi\n        /* \"contracts/WallyStaking.sol\":10736:10771  calculatePendingRewards(msg.sender) */\n      tag_188\n        /* \"contracts/WallyStaking.sol\":10593:10603  msg.sender */\n      caller\n        /* \"contracts/WallyStaking.sol\":10736:10771  calculatePendingRewards(msg.sender) */\n      tag_6\n      jump\t// in\n    tag_188:\n        /* \"contracts/WallyStaking.sol\":10785:10804  pendingRewards == 0 */\n      dup1\n      iszero\n        /* \"contracts/WallyStaking.sol\":10781:10833  if (pendingRewards == 0) revert NoRewardsAvailable() */\n      tag_189\n      jumpi\n        /* \"contracts/WallyStaking.sol\":10999:11013  pendingRewards */\n      tag_191\n        /* \"contracts/WallyStaking.sol\":10911:10926  block.timestamp */\n      swap2\n        /* \"contracts/WallyStaking.sol\":10886:10908  userData.lastClaimTime */\n      0x02\n        /* \"contracts/WallyStaking.sol\":10911:10926  block.timestamp */\n      timestamp\n        /* \"contracts/WallyStaking.sol\":10886:10908  userData.lastClaimTime */\n      swap2\n      add\n        /* \"contracts/WallyStaking.sol\":940:16949  contract WallyStaking is AccessControl, ReentrancyGuard {... */\n      sstore\n        /* \"contracts/WallyStaking.sol\":10593:10603  msg.sender */\n      caller\n        /* \"contracts/WallyStaking.sol\":10999:11013  pendingRewards */\n      tag_15\n      jump\t// in\n    tag_191:\n        /* \"@openzeppelin/contracts/security/ReentrancyGuard.sol\":1716:1717  1 */\n      0x01\n        /* \"contracts/WallyStaking.sol\":940:16949  contract WallyStaking is AccessControl, ReentrancyGuard {... */\n      dup1\n      sstore\n      stop\n        /* \"contracts/WallyStaking.sol\":10781:10833  if (pendingRewards == 0) revert NoRewardsAvailable() */\n    tag_189:\n        /* \"contracts/WallyStaking.sol\":10813:10833  NoRewardsAvailable() */\n      shl(0xe0, 0xafb0be33)\n        /* \"contracts/WallyStaking.sol\":940:16949  contract WallyStaking is AccessControl, ReentrancyGuard {... */\n      0x00\n        /* \"contracts/WallyStaking.sol\":10813:10833  NoRewardsAvailable() */\n      mstore\n        /* \"contracts/WallyStaking.sol\":940:16949  contract WallyStaking is AccessControl, ReentrancyGuard {... */\n      0x04\n      0x00\n        /* \"contracts/WallyStaking.sol\":10813:10833  NoRewardsAvailable() */\n      revert\n        /* \"contracts/WallyStaking.sol\":940:16949  contract WallyStaking is AccessControl, ReentrancyGuard {... */\n    tag_34:\n      jumpi(tag_64, callvalue)\n      jumpi(tag_64, slt(add(not(0x03), calldatasize), 0x40))\n      tag_196\n      tag_2\n      jump\t// in\n    tag_196:\n        /* \"@openzeppelin/contracts/utils/Context.sol\":735:745  msg.sender */\n      caller\n      sub(shl(0xa0, 0x01), 0x01)\n        /* \"contracts/WallyStaking.sol\":940:16949  contract WallyStaking is AccessControl, ReentrancyGuard {... */\n      dup3\n      and\n        /* \"@openzeppelin/contracts/access/AccessControl.sol\":5421:5455  callerConfirmation != _msgSender() */\n      sub\n        /* \"@openzeppelin/contracts/access/AccessControl.sol\":5417:5519  if (callerConfirmation != _msgSender()) {... */\n      tag_197\n      jumpi\n        /* \"@openzeppelin/contracts/access/AccessControl.sol\":5529:5566  _revokeRole(role, callerConfirmation) */\n      tag_79\n        /* \"contracts/WallyStaking.sol\":940:16949  contract WallyStaking is AccessControl, ReentrancyGuard {... */\n      swap1\n      calldataload(0x04)\n        /* \"@openzeppelin/contracts/access/AccessControl.sol\":5529:5566  _revokeRole(role, callerConfirmation) */\n      tag_17\n      jump\t// in\n        /* \"@openzeppelin/contracts/access/AccessControl.sol\":5417:5519  if (callerConfirmation != _msgSender()) {... */\n    tag_197:\n        /* \"@openzeppelin/contracts/access/AccessControl.sol\":5478:5508  AccessControlBadConfirmation() */\n      shl(0xe1, 0x334bd919)\n        /* \"contracts/WallyStaking.sol\":940:16949  contract WallyStaking is AccessControl, ReentrancyGuard {... */\n      0x00\n        /* \"@openzeppelin/contracts/access/AccessControl.sol\":5478:5508  AccessControlBadConfirmation() */\n      mstore\n        /* \"contracts/WallyStaking.sol\":940:16949  contract WallyStaking is AccessControl, ReentrancyGuard {... */\n      0x04\n      0x00\n        /* \"@openzeppelin/contracts/access/AccessControl.sol\":5478:5508  AccessControlBadConfirmation() */\n      revert\n        /* \"contracts/WallyStaking.sol\":940:16949  contract WallyStaking is AccessControl, ReentrancyGuard {... */\n    tag_32:\n      jumpi(tag_64, callvalue)\n      jumpi(tag_64, slt(add(not(0x03), calldatasize), 0x40))\n        /* \"@openzeppelin/contracts/access/AccessControl.sol\":4330:4355  _grantRole(role, account) */\n      tag_79\n        /* \"contracts/WallyStaking.sol\":940:16949  contract WallyStaking is AccessControl, ReentrancyGuard {... */\n      calldataload(0x04)\n      tag_205\n      tag_2\n      jump\t// in\n    tag_205:\n        /* \"@openzeppelin/contracts/access/AccessControl.sol\":4300:4318  getRoleAdmin(role) */\n      swap1\n        /* \"@openzeppelin/contracts/access/AccessControl.sol\":2475:2479  role */\n      tag_206\n        /* \"@openzeppelin/contracts/access/AccessControl.sol\":4300:4318  getRoleAdmin(role) */\n      tag_82\n      dup3\n        /* \"@openzeppelin/contracts/access/AccessControl.sol\":3901:3907  _roles */\n      0x00\n        /* \"contracts/WallyStaking.sol\":940:16949  contract WallyStaking is AccessControl, ReentrancyGuard {... */\n      mstore\n        /* \"@openzeppelin/contracts/access/AccessControl.sol\":3901:3907  _roles */\n      0x00\n        /* \"contracts/WallyStaking.sol\":940:16949  contract WallyStaking is AccessControl, ReentrancyGuard {... */\n      0x20\n      mstore\n        /* \"@openzeppelin/contracts/access/AccessControl.sol\":3901:3923  _roles[role].adminRole */\n      0x01\n        /* \"contracts/WallyStaking.sol\":940:16949  contract WallyStaking is AccessControl, ReentrancyGuard {... */\n      0x40\n        /* \"@openzeppelin/contracts/access/AccessControl.sol\":3901:3907  _roles */\n      0x00\n        /* \"contracts/WallyStaking.sol\":940:16949  contract WallyStaking is AccessControl, ReentrancyGuard {... */\n      keccak256\n        /* \"@openzeppelin/contracts/access/AccessControl.sol\":3901:3923  _roles[role].adminRole */\n      add\n        /* \"contracts/WallyStaking.sol\":940:16949  contract WallyStaking is AccessControl, ReentrancyGuard {... */\n      sload\n        /* \"@openzeppelin/contracts/access/AccessControl.sol\":3810:3930  function getRoleAdmin(bytes32 role) public view virtual returns (bytes32) {... */\n      swap1\n      jump\n        /* \"@openzeppelin/contracts/access/AccessControl.sol\":2475:2479  role */\n    tag_206:\n        /* \"@openzeppelin/contracts/access/AccessControl.sol\":4330:4355  _grantRole(role, account) */\n      tag_16\n      jump\t// in\n        /* \"contracts/WallyStaking.sol\":940:16949  contract WallyStaking is AccessControl, ReentrancyGuard {... */\n    tag_30:\n      jumpi(tag_64, callvalue)\n      jumpi(tag_64, slt(add(not(0x03), calldatasize), 0x00))\n        /* \"@openzeppelin/contracts/security/ReentrancyGuard.sol\":2227:2330  modifier nonReentrant() {... */\n      tag_212\n      tag_11\n      jump\t// in\n    tag_212:\n        /* \"contracts/WallyStaking.sol\":9223:9233  msg.sender */\n      caller\n        /* \"contracts/WallyStaking.sol\":940:16949  contract WallyStaking is AccessControl, ReentrancyGuard {... */\n      0x00\n      mstore\n        /* \"contracts/WallyStaking.sol\":9206:9222  _userStakingData */\n      0x03\n        /* \"contracts/WallyStaking.sol\":940:16949  contract WallyStaking is AccessControl, ReentrancyGuard {... */\n      0x20\n      mstore\n      keccak256(0x00, 0x40)\n        /* \"contracts/WallyStaking.sol\":9281:9298  userData.isActive */\n      0x06\n      dup2\n      add\n        /* \"contracts/WallyStaking.sol\":940:16949  contract WallyStaking is AccessControl, ReentrancyGuard {... */\n      dup1\n      sload\n      swap2\n      0xff\n      dup4\n      and\n        /* \"contracts/WallyStaking.sol\":9280:9298  !userData.isActive */\n      iszero\n        /* \"contracts/WallyStaking.sol\":9276:9322  if (!userData.isActive) revert NoActiveStake() */\n      tag_71\n      jumpi\n        /* \"contracts/WallyStaking.sol\":9206:9222  _userStakingData */\n      0x03\n        /* \"contracts/WallyStaking.sol\":9355:9378  userData.stakingEndTime */\n      dup2\n      add\n        /* \"contracts/WallyStaking.sol\":940:16949  contract WallyStaking is AccessControl, ReentrancyGuard {... */\n      swap2\n      dup3\n      sload\n        /* \"contracts/WallyStaking.sol\":9336:9351  block.timestamp */\n      timestamp\n        /* \"contracts/WallyStaking.sol\":9336:9378  block.timestamp <= userData.stakingEndTime */\n      gt\n      iszero\n        /* \"contracts/WallyStaking.sol\":9332:9407  if (block.timestamp <= userData.stakingEndTime) revert StakingStillLocked() */\n      tag_215\n      jumpi\n        /* \"contracts/WallyStaking.sol\":940:16949  contract WallyStaking is AccessControl, ReentrancyGuard {... */\n      dup2\n        /* \"contracts/WallyStaking.sol\":9884:9906  userData.lastClaimTime */\n      0x02\n        /* \"contracts/WallyStaking.sol\":940:16949  contract WallyStaking is AccessControl, ReentrancyGuard {... */\n      swap2\n      0x00\n      swap4\n      sload\n        /* \"contracts/WallyStaking.sol\":9223:9233  msg.sender */\n      swap6\n      dup5\n        /* \"contracts/WallyStaking.sol\":9600:9635  calculatePendingRewards(msg.sender) */\n      tag_217\n        /* \"contracts/WallyStaking.sol\":9223:9233  msg.sender */\n      caller\n        /* \"contracts/WallyStaking.sol\":9600:9635  calculatePendingRewards(msg.sender) */\n      tag_6\n      jump\t// in\n    tag_217:\n        /* \"contracts/WallyStaking.sol\":940:16949  contract WallyStaking is AccessControl, ReentrancyGuard {... */\n      swap7\n      dup2\n      dup6\n      sstore\n        /* \"contracts/WallyStaking.sol\":9716:9741  userData.stakingStartTime */\n      dup2\n      0x01\n      dup7\n      add\n        /* \"contracts/WallyStaking.sol\":940:16949  contract WallyStaking is AccessControl, ReentrancyGuard {... */\n      sstore\n      sstore\n        /* \"contracts/WallyStaking.sol\":9792:9809  userData.duration */\n      dup5\n        /* \"contracts/WallyStaking.sol\":940:16949  contract WallyStaking is AccessControl, ReentrancyGuard {... */\n      0x04\n        /* \"contracts/WallyStaking.sol\":9792:9809  userData.duration */\n      dup5\n      add\n        /* \"contracts/WallyStaking.sol\":940:16949  contract WallyStaking is AccessControl, ReentrancyGuard {... */\n      sstore\n        /* \"contracts/WallyStaking.sol\":9823:9835  userData.apr */\n      dup5\n      0x05\n      dup5\n      add\n        /* \"contracts/WallyStaking.sol\":940:16949  contract WallyStaking is AccessControl, ReentrancyGuard {... */\n      sstore\n      not(0xff)\n      and\n      swap1\n      sstore\n        /* \"contracts/WallyStaking.sol\":9884:9906  userData.lastClaimTime */\n      add\n        /* \"contracts/WallyStaking.sol\":940:16949  contract WallyStaking is AccessControl, ReentrancyGuard {... */\n      sstore\n        /* \"contracts/WallyStaking.sol\":10024:10051  _totalStaked - stakedAmount */\n      tag_218\n        /* \"contracts/WallyStaking.sol\":940:16949  contract WallyStaking is AccessControl, ReentrancyGuard {... */\n      dup3\n      sload(0x04)\n        /* \"contracts/WallyStaking.sol\":10024:10051  _totalStaked - stakedAmount */\n      tag_4\n      jump\t// in\n    tag_218:\n        /* \"contracts/WallyStaking.sol\":940:16949  contract WallyStaking is AccessControl, ReentrancyGuard {... */\n      0x04\n      sstore\n        /* \"contracts/WallyStaking.sol\":10142:10154  stakedAmount */\n      tag_219\n        /* \"contracts/WallyStaking.sol\":9223:9233  msg.sender */\n      dup3\n      caller\n        /* \"contracts/WallyStaking.sol\":10110:10116  _token */\n      immutable(\"0x54f98f06761e30617bf10b49b7a4bbfa175f7ac33cb018a55e7053fa716317c1\")\n        /* \"contracts/WallyStaking.sol\":10142:10154  stakedAmount */\n      tag_14\n      jump\t// in\n    tag_219:\n        /* \"contracts/WallyStaking.sol\":10213:10232  pendingRewards != 0 */\n      dup1\n        /* \"contracts/WallyStaking.sol\":10209:10300  if (pendingRewards != 0) {... */\n      tag_220\n      jumpi\n        /* \"contracts/WallyStaking.sol\":940:16949  contract WallyStaking is AccessControl, ReentrancyGuard {... */\n    tag_221:\n      mload(0x40)\n      swap2\n      dup3\n      mstore\n      0x20\n      dup3\n      add\n      mstore\n        /* \"contracts/WallyStaking.sol\":10323:10373  Unstaked(msg.sender, stakedAmount, pendingRewards) */\n      0x7fc4727e062e336010f2c282598ef5f14facb3de68cf8195c2f23e1454b2b74e\n        /* \"contracts/WallyStaking.sol\":940:16949  contract WallyStaking is AccessControl, ReentrancyGuard {... */\n      0x40\n        /* \"contracts/WallyStaking.sol\":9223:9233  msg.sender */\n      caller\n        /* \"contracts/WallyStaking.sol\":10323:10373  Unstaked(msg.sender, stakedAmount, pendingRewards) */\n      swap3\n      log2\n        /* \"contracts/WallyStaking.sol\":9716:9741  userData.stakingStartTime */\n      0x01\n        /* \"contracts/WallyStaking.sol\":940:16949  contract WallyStaking is AccessControl, ReentrancyGuard {... */\n      dup1\n      sstore\n      stop\n        /* \"contracts/WallyStaking.sol\":10209:10300  if (pendingRewards != 0) {... */\n    tag_220:\n        /* \"contracts/WallyStaking.sol\":10274:10288  pendingRewards */\n      tag_222\n        /* \"contracts/WallyStaking.sol\":9223:9233  msg.sender */\n      dup2\n      caller\n        /* \"contracts/WallyStaking.sol\":10274:10288  pendingRewards */\n      tag_15\n      jump\t// in\n    tag_222:\n        /* \"contracts/WallyStaking.sol\":10209:10300  if (pendingRewards != 0) {... */\n      jump(tag_221)\n        /* \"contracts/WallyStaking.sol\":9332:9407  if (block.timestamp <= userData.stakingEndTime) revert StakingStillLocked() */\n    tag_215:\n        /* \"contracts/WallyStaking.sol\":9387:9407  StakingStillLocked() */\n      shl(0xe0, 0x25e5ff65)\n        /* \"contracts/WallyStaking.sol\":940:16949  contract WallyStaking is AccessControl, ReentrancyGuard {... */\n      0x00\n        /* \"contracts/WallyStaking.sol\":9387:9407  StakingStillLocked() */\n      mstore\n        /* \"contracts/WallyStaking.sol\":940:16949  contract WallyStaking is AccessControl, ReentrancyGuard {... */\n      0x04\n      0x00\n        /* \"contracts/WallyStaking.sol\":9387:9407  StakingStillLocked() */\n      revert\n        /* \"contracts/WallyStaking.sol\":940:16949  contract WallyStaking is AccessControl, ReentrancyGuard {... */\n    tag_28:\n      jumpi(tag_64, callvalue)\n      jumpi(tag_64, slt(add(not(0x03), calldatasize), 0x20))\n      0x20\n      tag_227\n      calldataload(0x04)\n        /* \"@openzeppelin/contracts/access/AccessControl.sol\":3901:3907  _roles */\n      0x00\n        /* \"contracts/WallyStaking.sol\":940:16949  contract WallyStaking is AccessControl, ReentrancyGuard {... */\n      mstore\n        /* \"@openzeppelin/contracts/access/AccessControl.sol\":3901:3907  _roles */\n      0x00\n        /* \"contracts/WallyStaking.sol\":940:16949  contract WallyStaking is AccessControl, ReentrancyGuard {... */\n      0x20\n      mstore\n        /* \"@openzeppelin/contracts/access/AccessControl.sol\":3901:3923  _roles[role].adminRole */\n      0x01\n        /* \"contracts/WallyStaking.sol\":940:16949  contract WallyStaking is AccessControl, ReentrancyGuard {... */\n      0x40\n        /* \"@openzeppelin/contracts/access/AccessControl.sol\":3901:3907  _roles */\n      0x00\n        /* \"contracts/WallyStaking.sol\":940:16949  contract WallyStaking is AccessControl, ReentrancyGuard {... */\n      keccak256\n        /* \"@openzeppelin/contracts/access/AccessControl.sol\":3901:3923  _roles[role].adminRole */\n      add\n        /* \"contracts/WallyStaking.sol\":940:16949  contract WallyStaking is AccessControl, ReentrancyGuard {... */\n      sload\n        /* \"@openzeppelin/contracts/access/AccessControl.sol\":3810:3930  function getRoleAdmin(bytes32 role) public view virtual returns (bytes32) {... */\n      swap1\n      jump\n        /* \"contracts/WallyStaking.sol\":940:16949  contract WallyStaking is AccessControl, ReentrancyGuard {... */\n    tag_227:\n      mload(0x40)\n      swap1\n      dup2\n      mstore\n      return\n    tag_26:\n      jumpi(tag_64, callvalue)\n      jumpi(tag_64, slt(add(not(0x03), calldatasize), 0x20))\n      calldataload(0x04)\n      dup1\n      iszero\n      iszero\n      dup1\n      swap2\n      sub\n      tag_64\n      jumpi\n        /* \"@openzeppelin/contracts/security/ReentrancyGuard.sol\":2227:2330  modifier nonReentrant() {... */\n      tag_234\n      tag_11\n      jump\t// in\n    tag_234:\n        /* \"@openzeppelin/contracts/access/AccessControl.sol\":2475:2479  role */\n      tag_235\n      tag_12\n      jump\t// in\n    tag_235:\n        /* \"contracts/WallyStaking.sol\":5778:5792  _stakingPaused */\n      0x06\n        /* \"contracts/WallyStaking.sol\":940:16949  contract WallyStaking is AccessControl, ReentrancyGuard {... */\n      sload\n      dup2\n      0xff\n      dup3\n      and\n      iszero\n      iszero\n        /* \"contracts/WallyStaking.sol\":5778:5802  _stakingPaused != paused */\n      sub\n        /* \"contracts/WallyStaking.sol\":5774:5892  if (_stakingPaused != paused) {... */\n      tag_236\n      jumpi\n        /* \"@openzeppelin/contracts/security/ReentrancyGuard.sol\":1716:1717  1 */\n      0x01\n        /* \"contracts/WallyStaking.sol\":940:16949  contract WallyStaking is AccessControl, ReentrancyGuard {... */\n      dup1\n      sstore\n      stop\n        /* \"contracts/WallyStaking.sol\":5774:5892  if (_stakingPaused != paused) {... */\n    tag_236:\n      not(0xff)\n        /* \"contracts/WallyStaking.sol\":940:16949  contract WallyStaking is AccessControl, ReentrancyGuard {... */\n      and\n      0xff\n      dup3\n      and\n      or\n        /* \"contracts/WallyStaking.sol\":5778:5792  _stakingPaused */\n      0x06\n        /* \"contracts/WallyStaking.sol\":940:16949  contract WallyStaking is AccessControl, ReentrancyGuard {... */\n      sstore\n        /* \"contracts/WallyStaking.sol\":5860:5881  StakingPaused(paused) */\n      0x3cf4fe733160f8f8c48336fab32acee32ebaaa423a08a2be4e5ceff97dd98c69\n        /* \"contracts/WallyStaking.sol\":940:16949  contract WallyStaking is AccessControl, ReentrancyGuard {... */\n      0x00\n      dup1\n        /* \"contracts/WallyStaking.sol\":5860:5881  StakingPaused(paused) */\n      log2\n        /* \"contracts/WallyStaking.sol\":5774:5892  if (_stakingPaused != paused) {... */\n      dup1\n      dup1\n      jump(tag_191)\n        /* \"contracts/WallyStaking.sol\":940:16949  contract WallyStaking is AccessControl, ReentrancyGuard {... */\n    tag_24:\n      jumpi(tag_64, callvalue)\n      jumpi(tag_64, slt(add(not(0x03), calldatasize), 0x20))\n      0x20\n      tag_227\n      tag_243\n      tag_1\n      jump\t// in\n    tag_243:\n      tag_6\n      jump\t// in\n    tag_22:\n      jumpi(tag_64, callvalue)\n      jumpi(tag_64, slt(add(not(0x03), calldatasize), 0x20))\n      calldataload(0x04)\n      swap1\n      shl(0xe0, 0xffffffff)\n      dup3\n      and\n      dup1\n      swap3\n      sub\n      tag_64\n      jumpi\n      0x20\n      swap2\n      shl(0xe0, 0x7965db0b)\n        /* \"@openzeppelin/contracts/access/AccessControl.sol\":2673:2720  interfaceId == type(IAccessControl).interfaceId */\n      dup2\n      eq\n      swap1\n        /* \"@openzeppelin/contracts/access/AccessControl.sol\":2673:2760  interfaceId == type(IAccessControl).interfaceId || super.supportsInterface(interfaceId) */\n      dup2\n      iszero\n      tag_250\n      jumpi\n        /* \"contracts/WallyStaking.sol\":940:16949  contract WallyStaking is AccessControl, ReentrancyGuard {... */\n    tag_251:\n      pop\n      iszero\n      iszero\n      dup2\n      mstore\n      return\n        /* \"@openzeppelin/contracts/access/AccessControl.sol\":2673:2760  interfaceId == type(IAccessControl).interfaceId || super.supportsInterface(interfaceId) */\n    tag_250:\n      shl(0xe0, 0x01ffc9a7)\n        /* \"@openzeppelin/contracts/utils/introspection/ERC165.sol\":862:902  interfaceId == type(IERC165).interfaceId */\n      eq\n      swap1\n      pop\n        /* \"@openzeppelin/contracts/access/AccessControl.sol\":2673:2760  interfaceId == type(IAccessControl).interfaceId || super.supportsInterface(interfaceId) */\n      dup4\n      jump(tag_251)\n        /* \"contracts/WallyStaking.sol\":940:16949  contract WallyStaking is AccessControl, ReentrancyGuard {... */\n    tag_1:\n      calldataload(0x04)\n      swap1\n      sub(shl(0xa0, 0x01), 0x01)\n      dup3\n      and\n      dup3\n      sub\n      tag_64\n      jumpi\n      jump\t// out\n    tag_2:\n      calldataload(0x24)\n      swap1\n      sub(shl(0xa0, 0x01), 0x01)\n      dup3\n      and\n      dup3\n      sub\n      tag_64\n      jumpi\n      jump\t// out\n    tag_3:\n      0x40\n      swap1\n      not(0x03)\n      add\n      slt\n      tag_64\n      jumpi\n      calldataload(0x04)\n      swap1\n      calldataload(0x24)\n      swap1\n      jump\t// out\n    tag_4:\n      swap2\n      swap1\n      dup3\n      sub\n      swap2\n      dup3\n      gt\n      tag_258\n      jumpi\n      jump\t// out\n    tag_258:\n      mstore(0x00, shl(0xe0, 0x4e487b71))\n      mstore(0x04, 0x11)\n      revert(0x00, 0x24)\n    tag_5:\n      dup2\n      dup2\n      mul\n      swap3\n      swap2\n      dup2\n      iszero\n      swap2\n      dup5\n      div\n      eq\n      or\n      iszero\n      tag_258\n      jumpi\n      jump\t// out\n        /* \"contracts/WallyStaking.sol\":12265:13400  function calculatePendingRewards(address user) ... */\n    tag_6:\n      sub(shl(0xa0, 0x01), 0x01)\n        /* \"contracts/WallyStaking.sol\":940:16949  contract WallyStaking is AccessControl, ReentrancyGuard {... */\n      and\n      0x00\n      swap1\n      dup2\n      mstore\n        /* \"contracts/WallyStaking.sol\":12427:12443  _userStakingData */\n      0x03\n        /* \"contracts/WallyStaking.sol\":940:16949  contract WallyStaking is AccessControl, ReentrancyGuard {... */\n      0x20\n      mstore\n      0x40\n      swap1\n      keccak256\n        /* \"contracts/WallyStaking.sol\":12473:12490  userData.isActive */\n      0x06\n      dup2\n      add\n        /* \"contracts/WallyStaking.sol\":940:16949  contract WallyStaking is AccessControl, ReentrancyGuard {... */\n      sload\n      0xff\n      and\n        /* \"contracts/WallyStaking.sol\":12472:12490  !userData.isActive */\n      iszero\n        /* \"contracts/WallyStaking.sol\":940:16949  contract WallyStaking is AccessControl, ReentrancyGuard {... */\n      dup1\n      iszero\n        /* \"contracts/WallyStaking.sol\":12472:12520  !userData.isActive || userData.stakedAmount == 0 */\n      tag_262\n      jumpi\n        /* \"contracts/WallyStaking.sol\":12265:13400  function calculatePendingRewards(address user) ... */\n    tag_263:\n        /* \"contracts/WallyStaking.sol\":12468:12555  if (!userData.isActive || userData.stakedAmount == 0) {... */\n      tag_264\n      jumpi\n        /* \"contracts/WallyStaking.sol\":12805:12837  endTime - userData.lastClaimTime */\n      tag_266\n        /* \"contracts/WallyStaking.sol\":12642:12657  block.timestamp */\n      timestamp\n        /* \"contracts/WallyStaking.sol\":12427:12443  _userStakingData */\n      0x03\n        /* \"contracts/WallyStaking.sol\":12682:12705  userData.stakingEndTime */\n      dup4\n      add\n        /* \"contracts/WallyStaking.sol\":940:16949  contract WallyStaking is AccessControl, ReentrancyGuard {... */\n      sload\n        /* \"contracts/WallyStaking.sol\":12642:12657  block.timestamp */\n      dup1\n      timestamp\n        /* \"contracts/WallyStaking.sol\":12671:12705  endTime >= userData.stakingEndTime */\n      lt\n      iszero\n        /* \"contracts/WallyStaking.sol\":12667:12765  if (endTime >= userData.stakingEndTime) {... */\n      tag_267\n      jumpi\n        /* \"contracts/WallyStaking.sol\":12265:13400  function calculatePendingRewards(address user) ... */\n    tag_268:\n        /* \"contracts/WallyStaking.sol\":12815:12837  userData.lastClaimTime */\n      pop\n      0x02\n      dup4\n      add\n        /* \"contracts/WallyStaking.sol\":940:16949  contract WallyStaking is AccessControl, ReentrancyGuard {... */\n      sload\n        /* \"contracts/WallyStaking.sol\":12805:12837  endTime - userData.lastClaimTime */\n      swap1\n      tag_4\n      jump\t// in\n    tag_266:\n        /* \"contracts/WallyStaking.sol\":12851:12867  timeElapsed == 0 */\n      swap1\n      dup2\n      iszero\n        /* \"contracts/WallyStaking.sol\":12847:12902  if (timeElapsed == 0) {... */\n      tag_269\n      jumpi\n        /* \"contracts/WallyStaking.sol\":940:16949  contract WallyStaking is AccessControl, ReentrancyGuard {... */\n      0x496cebb800\n      swap2\n        /* \"contracts/WallyStaking.sol\":13169:13205  userData.stakedAmount * userData.apr */\n      tag_271\n        /* \"contracts/WallyStaking.sol\":940:16949  contract WallyStaking is AccessControl, ReentrancyGuard {... */\n      dup3\n        /* \"contracts/WallyStaking.sol\":13193:13205  userData.apr */\n      0x05\n        /* \"contracts/WallyStaking.sol\":13169:13219  userData.stakedAmount * userData.apr * timeElapsed */\n      tag_272\n        /* \"contracts/WallyStaking.sol\":940:16949  contract WallyStaking is AccessControl, ReentrancyGuard {... */\n      swap5\n      sload\n        /* \"contracts/WallyStaking.sol\":13193:13205  userData.apr */\n      swap2\n      add\n        /* \"contracts/WallyStaking.sol\":940:16949  contract WallyStaking is AccessControl, ReentrancyGuard {... */\n      sload\n        /* \"contracts/WallyStaking.sol\":13169:13205  userData.stakedAmount * userData.apr */\n      swap1\n      tag_5\n      jump\t// in\n    tag_271:\n        /* \"contracts/WallyStaking.sol\":13169:13219  userData.stakedAmount * userData.apr * timeElapsed */\n      tag_5\n      jump\t// in\n    tag_272:\n        /* \"contracts/WallyStaking.sol\":2788:2796  365 days */\n      div\n        /* \"contracts/WallyStaking.sol\":12265:13400  function calculatePendingRewards(address user) ... */\n      swap1\n      jump\t// out\n        /* \"contracts/WallyStaking.sol\":12847:12902  if (timeElapsed == 0) {... */\n    tag_269:\n        /* \"contracts/WallyStaking.sol\":12883:12891  return 0 */\n      pop\n      pop\n        /* \"contracts/WallyStaking.sol\":940:16949  contract WallyStaking is AccessControl, ReentrancyGuard {... */\n      0x00\n        /* \"contracts/WallyStaking.sol\":12883:12891  return 0 */\n      swap1\n      jump\t// out\n        /* \"contracts/WallyStaking.sol\":12667:12765  if (endTime >= userData.stakingEndTime) {... */\n    tag_267:\n        /* \"contracts/WallyStaking.sol\":12721:12754  endTime = userData.stakingEndTime */\n      swap1\n      pop\n        /* \"contracts/WallyStaking.sol\":12667:12765  if (endTime >= userData.stakingEndTime) {... */\n      0x00\n      jump(tag_268)\n        /* \"contracts/WallyStaking.sol\":12468:12555  if (!userData.isActive || userData.stakedAmount == 0) {... */\n    tag_264:\n        /* \"contracts/WallyStaking.sol\":12536:12544  return 0 */\n      pop\n        /* \"contracts/WallyStaking.sol\":940:16949  contract WallyStaking is AccessControl, ReentrancyGuard {... */\n      0x00\n        /* \"contracts/WallyStaking.sol\":12536:12544  return 0 */\n      swap1\n      jump\t// out\n        /* \"contracts/WallyStaking.sol\":12472:12520  !userData.isActive || userData.stakedAmount == 0 */\n    tag_262:\n        /* \"contracts/WallyStaking.sol\":940:16949  contract WallyStaking is AccessControl, ReentrancyGuard {... */\n      pop\n      dup1\n      sload\n        /* \"contracts/WallyStaking.sol\":12494:12520  userData.stakedAmount == 0 */\n      iszero\n        /* \"contracts/WallyStaking.sol\":12472:12520  !userData.isActive || userData.stakedAmount == 0 */\n      jump(tag_263)\n        /* \"contracts/WallyStaking.sol\":940:16949  contract WallyStaking is AccessControl, ReentrancyGuard {... */\n    tag_8:\n      swap2\n      swap1\n      dup3\n      add\n      dup1\n      swap3\n      gt\n      tag_258\n      jumpi\n      jump\t// out\n    tag_9:\n      swap1\n      0x1f\n      dup1\n      not\n      swap2\n      add\n      and\n      dup2\n      add\n      swap1\n      dup2\n      lt\n      0xffffffffffffffff\n      dup3\n      gt\n      or\n      tag_143\n      jumpi\n      0x40\n      mstore\n      jump\t// out\n    tag_10:\n        /* \"contracts/WallyStaking.sol\":16206:16225  _availableDurations */\n      0x07\n        /* \"contracts/WallyStaking.sol\":940:16949  contract WallyStaking is AccessControl, ReentrancyGuard {... */\n      sload\n      dup2\n      lt\n      iszero\n      tag_277\n      jumpi\n        /* \"contracts/WallyStaking.sol\":16206:16225  _availableDurations */\n      0x07\n      0x00\n        /* \"contracts/WallyStaking.sol\":940:16949  contract WallyStaking is AccessControl, ReentrancyGuard {... */\n      mstore\n      keccak256(0x00, 0x20)\n      add\n      swap1\n      0x00\n      swap1\n      jump\t// out\n    tag_277:\n      mstore(0x00, shl(0xe0, 0x4e487b71))\n      mstore(0x04, 0x32)\n      revert(0x00, 0x24)\n        /* \"@openzeppelin/contracts/security/ReentrancyGuard.sol\":2336:2623  function _nonReentrantBefore() private {... */\n    tag_11:\n        /* \"@openzeppelin/contracts/security/ReentrancyGuard.sol\":1759:1760  2 */\n      0x02\n        /* \"@openzeppelin/contracts/security/ReentrancyGuard.sol\":2468:2475  _status */\n      0x01\n        /* \"contracts/WallyStaking.sol\":940:16949  contract WallyStaking is AccessControl, ReentrancyGuard {... */\n      sload\n        /* \"@openzeppelin/contracts/security/ReentrancyGuard.sol\":2468:2487  _status != _ENTERED */\n      eq\n        /* \"@openzeppelin/contracts/security/ReentrancyGuard.sol\":1759:1760  2 */\n      tag_279\n      jumpi\n      0x02\n        /* \"@openzeppelin/contracts/security/ReentrancyGuard.sol\":2468:2475  _status */\n      0x01\n        /* \"contracts/WallyStaking.sol\":940:16949  contract WallyStaking is AccessControl, ReentrancyGuard {... */\n      sstore\n        /* \"@openzeppelin/contracts/security/ReentrancyGuard.sol\":2336:2623  function _nonReentrantBefore() private {... */\n      jump\t// out\n        /* \"@openzeppelin/contracts/security/ReentrancyGuard.sol\":1759:1760  2 */\n    tag_279:\n        /* \"contracts/WallyStaking.sol\":940:16949  contract WallyStaking is AccessControl, ReentrancyGuard {... */\n      mload(0x40)\n      shl(0xe5, 0x461bcd)\n        /* \"@openzeppelin/contracts/security/ReentrancyGuard.sol\":1759:1760  2 */\n      dup2\n      mstore\n      0x20\n      0x04\n      dup3\n      add\n      mstore\n      0x1f\n      0x24\n      dup3\n      add\n        /* \"contracts/WallyStaking.sol\":940:16949  contract WallyStaking is AccessControl, ReentrancyGuard {... */\n      mstore\n        /* \"@openzeppelin/contracts/security/ReentrancyGuard.sol\":1759:1760  2 */\n      0x5265656e7472616e637947756172643a207265656e7472616e742063616c6c00\n        /* \"contracts/WallyStaking.sol\":940:16949  contract WallyStaking is AccessControl, ReentrancyGuard {... */\n      0x44\n      dup3\n      add\n        /* \"@openzeppelin/contracts/security/ReentrancyGuard.sol\":1759:1760  2 */\n      mstore\n      0x64\n      swap1\n      revert\n        /* \"@openzeppelin/contracts/access/AccessControl.sol\":3199:3302  function _checkRole(bytes32 role) internal view virtual {... */\n    tag_12:\n        /* \"@openzeppelin/contracts/utils/Context.sol\":735:745  msg.sender */\n      caller\n        /* \"@openzeppelin/contracts/access/AccessControl.sol\":2954:2960  _roles */\n      0x00\n        /* \"contracts/WallyStaking.sol\":940:16949  contract WallyStaking is AccessControl, ReentrancyGuard {... */\n      swap1\n      dup2\n      mstore\n      mstore(0x20, 0x7d7ffb7a348e1c6a02869081a26547b49160dd3df72d1d75a570eb9b698292ec)\n      0x40\n      swap1\n      keccak256\n      sload\n      0xff\n      and\n        /* \"@openzeppelin/contracts/access/AccessControl.sol\":3519:3542  !hasRole(role, account) */\n      iszero\n        /* \"@openzeppelin/contracts/access/AccessControl.sol\":3515:3623  if (!hasRole(role, account)) {... */\n      tag_281\n      jumpi\n        /* \"@openzeppelin/contracts/access/AccessControl.sol\":3199:3302  function _checkRole(bytes32 role) internal view virtual {... */\n      jump\t// out\n        /* \"@openzeppelin/contracts/access/AccessControl.sol\":3515:3623  if (!hasRole(role, account)) {... */\n    tag_281:\n        /* \"@openzeppelin/contracts/access/AccessControl.sol\":3565:3612  AccessControlUnauthorizedAccount(account, role) */\n      shl(0xe0, 0xe2517d3f)\n        /* \"@openzeppelin/contracts/access/AccessControl.sol\":2954:2960  _roles */\n      0x00\n        /* \"@openzeppelin/contracts/access/AccessControl.sol\":3565:3612  AccessControlUnauthorizedAccount(account, role) */\n      mstore\n        /* \"@openzeppelin/contracts/utils/Context.sol\":735:745  msg.sender */\n      caller\n        /* \"@openzeppelin/contracts/access/AccessControl.sol\":3565:3612  AccessControlUnauthorizedAccount(account, role) */\n      0x04\n        /* \"contracts/WallyStaking.sol\":940:16949  contract WallyStaking is AccessControl, ReentrancyGuard {... */\n      mstore\n        /* \"contracts/WallyStaking.sol\":1087:1110  keccak256(\"ADMIN_ROLE\") */\n      0xa49807205ce4d355092ef5a8a18f56e8913cf4a201fbe287825b095693c21775\n        /* \"contracts/WallyStaking.sol\":940:16949  contract WallyStaking is AccessControl, ReentrancyGuard {... */\n      0x24\n      mstore\n      0x44\n        /* \"@openzeppelin/contracts/access/AccessControl.sol\":2954:2960  _roles */\n      0x00\n        /* \"@openzeppelin/contracts/access/AccessControl.sol\":3565:3612  AccessControlUnauthorizedAccount(account, role) */\n      revert\n        /* \"@openzeppelin/contracts/access/AccessControl.sol\":3199:3302  function _checkRole(bytes32 role) internal view virtual {... */\n    tag_13:\n        /* \"@openzeppelin/contracts/access/AccessControl.sol\":2954:2960  _roles */\n      0x00\n        /* \"contracts/WallyStaking.sol\":940:16949  contract WallyStaking is AccessControl, ReentrancyGuard {... */\n      dup2\n      dup2\n      mstore\n      0x20\n      dup2\n      dup2\n      mstore\n      0x40\n      dup1\n      dup4\n      keccak256\n        /* \"@openzeppelin/contracts/utils/Context.sol\":735:745  msg.sender */\n      caller\n        /* \"contracts/WallyStaking.sol\":940:16949  contract WallyStaking is AccessControl, ReentrancyGuard {... */\n      dup5\n      mstore\n      swap1\n      swap2\n      mstore\n      swap1\n      keccak256\n      sload\n      0xff\n      and\n        /* \"@openzeppelin/contracts/access/AccessControl.sol\":3519:3542  !hasRole(role, account) */\n      iszero\n        /* \"@openzeppelin/contracts/access/AccessControl.sol\":3515:3623  if (!hasRole(role, account)) {... */\n      tag_283\n      jumpi\n        /* \"@openzeppelin/contracts/access/AccessControl.sol\":3199:3302  function _checkRole(bytes32 role) internal view virtual {... */\n      pop\n      jump\t// out\n        /* \"@openzeppelin/contracts/access/AccessControl.sol\":3515:3623  if (!hasRole(role, account)) {... */\n    tag_283:\n        /* \"@openzeppelin/contracts/access/AccessControl.sol\":3565:3612  AccessControlUnauthorizedAccount(account, role) */\n      shl(0xe0, 0xe2517d3f)\n        /* \"@openzeppelin/contracts/access/AccessControl.sol\":2954:2960  _roles */\n      0x00\n        /* \"@openzeppelin/contracts/access/AccessControl.sol\":3565:3612  AccessControlUnauthorizedAccount(account, role) */\n      mstore\n        /* \"@openzeppelin/contracts/utils/Context.sol\":735:745  msg.sender */\n      caller\n        /* \"@openzeppelin/contracts/access/AccessControl.sol\":3565:3612  AccessControlUnauthorizedAccount(account, role) */\n      0x04\n        /* \"contracts/WallyStaking.sol\":940:16949  contract WallyStaking is AccessControl, ReentrancyGuard {... */\n      mstore\n      0x24\n      mstore\n      0x44\n        /* \"@openzeppelin/contracts/access/AccessControl.sol\":2954:2960  _roles */\n      0x00\n        /* \"@openzeppelin/contracts/access/AccessControl.sol\":3565:3612  AccessControlUnauthorizedAccount(account, role) */\n      revert\n        /* \"@openzeppelin/contracts/token/ERC20/utils/SafeERC20.sol\":1219:1379  function safeTransfer(IERC20 token, address to, uint256 value) internal {... */\n    tag_14:\n        /* \"contracts/WallyStaking.sol\":940:16949  contract WallyStaking is AccessControl, ReentrancyGuard {... */\n      mload(0x40)\n      shl(0xe0, 0xa9059cbb)\n        /* \"@openzeppelin/contracts/token/ERC20/utils/SafeERC20.sol\":1328:1371  abi.encodeCall(token.transfer, (to, value)) */\n      0x20\n      dup3\n      add\n      mstore\n      sub(shl(0xa0, 0x01), 0x01)\n        /* \"contracts/WallyStaking.sol\":940:16949  contract WallyStaking is AccessControl, ReentrancyGuard {... */\n      swap1\n      swap3\n      and\n        /* \"@openzeppelin/contracts/token/ERC20/utils/SafeERC20.sol\":1328:1371  abi.encodeCall(token.transfer, (to, value)) */\n      0x24\n      dup4\n      add\n        /* \"contracts/WallyStaking.sol\":940:16949  contract WallyStaking is AccessControl, ReentrancyGuard {... */\n      mstore\n      0x44\n      dup1\n      dup4\n      add\n      swap4\n      swap1\n      swap4\n      mstore\n        /* \"@openzeppelin/contracts/token/ERC20/utils/SafeERC20.sol\":1328:1371  abi.encodeCall(token.transfer, (to, value)) */\n      swap2\n      dup2\n      mstore\n      tag_285\n      swap2\n      tag_286\n      0x64\n        /* \"contracts/WallyStaking.sol\":940:16949  contract WallyStaking is AccessControl, ReentrancyGuard {... */\n      dup4\n        /* \"@openzeppelin/contracts/token/ERC20/utils/SafeERC20.sol\":1328:1371  abi.encodeCall(token.transfer, (to, value)) */\n      tag_9\n      jump\t// in\n    tag_286:\n      tag_19\n      jump\t// in\n    tag_285:\n        /* \"@openzeppelin/contracts/token/ERC20/utils/SafeERC20.sol\":1219:1379  function safeTransfer(IERC20 token, address to, uint256 value) internal {... */\n      jump\t// out\n        /* \"contracts/WallyStaking.sol\":16458:16947  function _claimRewards(address user, uint256 amount) ... */\n    tag_15:\n        /* \"contracts/WallyStaking.sol\":16624:16636  _rewardsPool */\n      0x05\n        /* \"contracts/WallyStaking.sol\":940:16949  contract WallyStaking is AccessControl, ReentrancyGuard {... */\n      sload\n        /* \"contracts/WallyStaking.sol\":16659:16680  amount >= rewardsPool */\n      dup1\n      dup4\n      lt\n      iszero\n        /* \"contracts/WallyStaking.sol\":16655:16714  if (amount >= rewardsPool) revert InsufficientRewardsPool() */\n      tag_287\n      jumpi\n        /* \"contracts/WallyStaking.sol\":16913:16940  RewardClaimed(user, amount) */\n      0x106f923f993c2149d49b4255ff723acafa1f2d94393f561d3eda32ae348f7241\n        /* \"contracts/WallyStaking.sol\":16826:16846  rewardsPool - amount */\n      swap2\n      tag_289\n      dup5\n        /* \"contracts/WallyStaking.sol\":940:16949  contract WallyStaking is AccessControl, ReentrancyGuard {... */\n      0x20\n        /* \"contracts/WallyStaking.sol\":16826:16846  rewardsPool - amount */\n      swap4\n      tag_4\n      jump\t// in\n    tag_289:\n        /* \"contracts/WallyStaking.sol\":16624:16636  _rewardsPool */\n      0x05\n        /* \"contracts/WallyStaking.sol\":940:16949  contract WallyStaking is AccessControl, ReentrancyGuard {... */\n      sstore\n        /* \"contracts/WallyStaking.sol\":16882:16888  amount */\n      tag_290\n        /* \"contracts/WallyStaking.sol\":16856:16862  _token */\n      dup5\n      dup3\n      immutable(\"0x54f98f06761e30617bf10b49b7a4bbfa175f7ac33cb018a55e7053fa716317c1\")\n        /* \"contracts/WallyStaking.sol\":16882:16888  amount */\n      tag_14\n      jump\t// in\n    tag_290:\n        /* \"contracts/WallyStaking.sol\":940:16949  contract WallyStaking is AccessControl, ReentrancyGuard {... */\n      mload(0x40)\n      swap4\n      dup5\n      mstore\n      sub(shl(0xa0, 0x01), 0x01)\n      and\n      swap3\n        /* \"contracts/WallyStaking.sol\":16913:16940  RewardClaimed(user, amount) */\n      log2\n        /* \"contracts/WallyStaking.sol\":16458:16947  function _claimRewards(address user, uint256 amount) ... */\n      jump\t// out\n        /* \"contracts/WallyStaking.sol\":16655:16714  if (amount >= rewardsPool) revert InsufficientRewardsPool() */\n    tag_287:\n        /* \"contracts/WallyStaking.sol\":16689:16714  InsufficientRewardsPool() */\n      mstore(0x00, shl(0xe0, 0x447b0f67))\n      revert(0x00, 0x04)\n        /* \"@openzeppelin/contracts/access/AccessControl.sol\":6179:6495  function _grantRole(bytes32 role, address account) internal virtual returns (bool) {... */\n    tag_16:\n        /* \"contracts/WallyStaking.sol\":940:16949  contract WallyStaking is AccessControl, ReentrancyGuard {... */\n      0x00\n      dup2\n      dup2\n      mstore\n      0x20\n      dup2\n      dup2\n      mstore\n      0x40\n      dup1\n      dup4\n      keccak256\n      sub(shl(0xa0, 0x01), 0x01)\n      dup7\n      and\n      dup5\n      mstore\n      swap1\n      swap2\n      mstore\n      swap1\n      keccak256\n      sload\n      0xff\n      and\n      tag_269\n      jumpi\n      0x00\n      dup2\n      dup2\n      mstore\n      0x20\n      dup2\n      dup2\n      mstore\n      0x40\n      dup1\n      dup4\n      keccak256\n      sub(shl(0xa0, 0x01), 0x01)\n      swap6\n      swap1\n      swap6\n      and\n      dup1\n      dup5\n      mstore\n      swap5\n      swap1\n      swap2\n      mstore\n      dup2\n      keccak256\n      dup1\n      sload\n      not(0xff)\n      and\n      0x01\n      or\n      swap1\n      sstore\n        /* \"@openzeppelin/contracts/utils/Context.sol\":735:745  msg.sender */\n      caller\n      swap3\n        /* \"contracts/WallyStaking.sol\":940:16949  contract WallyStaking is AccessControl, ReentrancyGuard {... */\n      swap2\n      swap1\n        /* \"@openzeppelin/contracts/access/AccessControl.sol\":6370:6410  RoleGranted(role, account, _msgSender()) */\n      0x2f8788117e7eff1d82e926ec794901d17c78024a50270940304540a733656f0d\n      swap1\n        /* \"contracts/WallyStaking.sol\":940:16949  contract WallyStaking is AccessControl, ReentrancyGuard {... */\n      dup1\n        /* \"@openzeppelin/contracts/access/AccessControl.sol\":6370:6410  RoleGranted(role, account, _msgSender()) */\n      log4\n        /* \"@openzeppelin/contracts/access/AccessControl.sol\":6347:6351  true */\n      0x01\n        /* \"@openzeppelin/contracts/access/AccessControl.sol\":6424:6435  return true */\n      swap1\n      jump\t// out\n        /* \"@openzeppelin/contracts/access/AccessControl.sol\":6730:7047  function _revokeRole(bytes32 role, address account) internal virtual returns (bool) {... */\n    tag_17:\n        /* \"contracts/WallyStaking.sol\":940:16949  contract WallyStaking is AccessControl, ReentrancyGuard {... */\n      0x00\n      dup2\n      dup2\n      mstore\n      0x20\n      dup2\n      dup2\n      mstore\n      0x40\n      dup1\n      dup4\n      keccak256\n      sub(shl(0xa0, 0x01), 0x01)\n      dup7\n      and\n      dup5\n      mstore\n      swap1\n      swap2\n      mstore\n      swap1\n      keccak256\n      sload\n      0xff\n      and\n      iszero\n      tag_269\n      jumpi\n      0x00\n      dup2\n      dup2\n      mstore\n      0x20\n      dup2\n      dup2\n      mstore\n      0x40\n      dup1\n      dup4\n      keccak256\n      sub(shl(0xa0, 0x01), 0x01)\n      swap6\n      swap1\n      swap6\n      and\n      dup1\n      dup5\n      mstore\n      swap5\n      swap1\n      swap2\n      mstore\n      dup2\n      keccak256\n      dup1\n      sload\n      not(0xff)\n      and\n      swap1\n      sstore\n        /* \"@openzeppelin/contracts/utils/Context.sol\":735:745  msg.sender */\n      caller\n      swap3\n        /* \"contracts/WallyStaking.sol\":940:16949  contract WallyStaking is AccessControl, ReentrancyGuard {... */\n      swap2\n      swap1\n        /* \"@openzeppelin/contracts/access/AccessControl.sol\":6922:6962  RoleRevoked(role, account, _msgSender()) */\n      0xf6391f5c32d9c69d2a47ea670b442974b53935d1edc7fd64eb21e047a839171b\n      swap1\n        /* \"contracts/WallyStaking.sol\":940:16949  contract WallyStaking is AccessControl, ReentrancyGuard {... */\n      dup1\n        /* \"@openzeppelin/contracts/access/AccessControl.sol\":6922:6962  RoleRevoked(role, account, _msgSender()) */\n      log4\n        /* \"contracts/WallyStaking.sol\":940:16949  contract WallyStaking is AccessControl, ReentrancyGuard {... */\n      0x01\n        /* \"@openzeppelin/contracts/access/AccessControl.sol\":6976:6987  return true */\n      swap1\n      jump\t// out\n        /* \"@openzeppelin/contracts/token/ERC20/utils/SafeERC20.sol\":1618:1806  function safeTransferFrom(IERC20 token, address from, address to, uint256 value) internal {... */\n    tag_18:\n        /* \"contracts/WallyStaking.sol\":940:16949  contract WallyStaking is AccessControl, ReentrancyGuard {... */\n      mload(0x40)\n      shl(0xe0, 0x23b872dd)\n        /* \"@openzeppelin/contracts/token/ERC20/utils/SafeERC20.sol\":1745:1798  abi.encodeCall(token.transferFrom, (from, to, value)) */\n      0x20\n      dup3\n      add\n      mstore\n      sub(shl(0xa0, 0x01), 0x01)\n        /* \"contracts/WallyStaking.sol\":940:16949  contract WallyStaking is AccessControl, ReentrancyGuard {... */\n      swap3\n      dup4\n      and\n        /* \"@openzeppelin/contracts/token/ERC20/utils/SafeERC20.sol\":1745:1798  abi.encodeCall(token.transferFrom, (from, to, value)) */\n      0x24\n      dup3\n      add\n        /* \"contracts/WallyStaking.sol\":940:16949  contract WallyStaking is AccessControl, ReentrancyGuard {... */\n      mstore\n      swap3\n      swap1\n      swap2\n      and\n      0x44\n      dup4\n      add\n      mstore\n      0x64\n      dup1\n      dup4\n      add\n      swap4\n      swap1\n      swap4\n      mstore\n        /* \"@openzeppelin/contracts/token/ERC20/utils/SafeERC20.sol\":1745:1798  abi.encodeCall(token.transferFrom, (from, to, value)) */\n      swap2\n      dup2\n      mstore\n      tag_285\n      swap2\n      tag_286\n      0x84\n        /* \"contracts/WallyStaking.sol\":940:16949  contract WallyStaking is AccessControl, ReentrancyGuard {... */\n      dup4\n        /* \"@openzeppelin/contracts/token/ERC20/utils/SafeERC20.sol\":1745:1798  abi.encodeCall(token.transferFrom, (from, to, value)) */\n      tag_9\n      jump\t// in\n        /* \"@openzeppelin/contracts/token/ERC20/utils/SafeERC20.sol\":7686:8406  function _callOptionalReturn(IERC20 token, bytes memory data) private {... */\n    tag_19:\n      swap1\n      0x00\n        /* \"@openzeppelin/contracts/token/ERC20/utils/SafeERC20.sol\":7823:8244  assembly (\"memory-safe\") {... */\n      0x20\n        /* \"@openzeppelin/contracts/token/ERC20/utils/SafeERC20.sol\":7686:8406  function _callOptionalReturn(IERC20 token, bytes memory data) private {... */\n      swap2\n        /* \"@openzeppelin/contracts/token/ERC20/utils/SafeERC20.sol\":7823:8244  assembly (\"memory-safe\") {... */\n      dup3\n      dup2\n      mload\n      swap2\n      add\n      dup3\n      dup6\n      gas\n      call\n      iszero\n      tag_297\n      jumpi\n      mload(0x00)\n      returndatasize\n        /* \"@openzeppelin/contracts/token/ERC20/utils/SafeERC20.sol\":8258:8273  returnSize == 0 */\n      tag_299\n      jumpi\n      pop\n      sub(shl(0xa0, 0x01), 0x01)\n        /* \"contracts/WallyStaking.sol\":940:16949  contract WallyStaking is AccessControl, ReentrancyGuard {... */\n      dup2\n      and\n        /* \"@openzeppelin/contracts/token/ERC20/utils/SafeERC20.sol\":8276:8302  address(token).code.length */\n      extcodesize\n        /* \"@openzeppelin/contracts/token/ERC20/utils/SafeERC20.sol\":8276:8307  address(token).code.length == 0 */\n      iszero\n        /* \"@openzeppelin/contracts/token/ERC20/utils/SafeERC20.sol\":8258:8326  returnSize == 0 ? address(token).code.length == 0 : returnValue != 1 */\n    tag_301:\n        /* \"@openzeppelin/contracts/token/ERC20/utils/SafeERC20.sol\":8254:8400  if (returnSize == 0 ? address(token).code.length == 0 : returnValue != 1) {... */\n      tag_302\n      jumpi\n        /* \"@openzeppelin/contracts/token/ERC20/utils/SafeERC20.sol\":7686:8406  function _callOptionalReturn(IERC20 token, bytes memory data) private {... */\n      pop\n      jump\t// out\n        /* \"@openzeppelin/contracts/token/ERC20/utils/SafeERC20.sol\":8254:8400  if (returnSize == 0 ? address(token).code.length == 0 : returnValue != 1) {... */\n    tag_302:\n      shl(0xe0, 0x5274afe7)\n      0x00\n        /* \"@openzeppelin/contracts/token/ERC20/utils/SafeERC20.sol\":8349:8389  SafeERC20FailedOperation(address(token)) */\n      swap1\n      dup2\n      mstore\n      sub(shl(0xa0, 0x01), 0x01)\n        /* \"contracts/WallyStaking.sol\":940:16949  contract WallyStaking is AccessControl, ReentrancyGuard {... */\n      swap2\n      swap1\n      swap2\n      and\n        /* \"@openzeppelin/contracts/token/ERC20/utils/SafeERC20.sol\":8349:8389  SafeERC20FailedOperation(address(token)) */\n      0x04\n        /* \"contracts/WallyStaking.sol\":940:16949  contract WallyStaking is AccessControl, ReentrancyGuard {... */\n      mstore\n      0x24\n      swap1\n        /* \"@openzeppelin/contracts/token/ERC20/utils/SafeERC20.sol\":8349:8389  SafeERC20FailedOperation(address(token)) */\n      revert\n        /* \"@openzeppelin/contracts/token/ERC20/utils/SafeERC20.sol\":8258:8326  returnSize == 0 ? address(token).code.length == 0 : returnValue != 1 */\n    tag_299:\n        /* \"@openzeppelin/contracts/token/ERC20/utils/SafeERC20.sol\":8325:8326  1 */\n      0x01\n        /* \"@openzeppelin/contracts/token/ERC20/utils/SafeERC20.sol\":8310:8326  returnValue != 1 */\n      eq\n      iszero\n        /* \"@openzeppelin/contracts/token/ERC20/utils/SafeERC20.sol\":8258:8326  returnSize == 0 ? address(token).code.length == 0 : returnValue != 1 */\n      jump(tag_301)\n        /* \"@openzeppelin/contracts/token/ERC20/utils/SafeERC20.sol\":7823:8244  assembly (\"memory-safe\") {... */\n    tag_297:\n      mload(0x40)\n      returndatasize\n      0x00\n      dup3\n      returndatacopy\n      returndatasize\n      swap1\n      revert\n\n    auxdata: 0xa2646970667358221220750f1d89420d65f0fddf3b02ea5972f1d7d1f14966d5c6701e52c18cdb657fdd64736f6c634300081c0033\n}\n",
				"bytecode": {
					"linkReferences": {},
					"object": "60a0601f61174238819003918201601f19168301916001600160401b038311848410176103795780849260409485528339810103126103ab5761004d6020610046836103af565b92016103af565b600180556001600160a01b0390911690811561039c576001600160a01b0381161561039c5761009291608052610082816103c3565b5061008c81610439565b506104b9565b505f5160206117025f395f51905f525f81815260208190527ff6c17da3865d9645546db4630d07c45803fb99f9b61dd452de8de1cd2159d25580545f5160206116c25f395f51905f5291829055909290917fbd79b86ffe0ab8e8776151514217cd7cacd52c909f66475c3af44e129f0b00ff9080a46276a7005f5260026020525f5160206116625f395f51905f525460ff1661038d576276a7005f5260026020525f5160206116625f395f51905f52805460ff191660011790556101f47fa1ef5b42f18533d67a183a193ea6c3fabfaa3bdabc3fc0e3f65b19b517df6e8d5560075468010000000000000000811015610379576001810180600755811015610365576276a7009060075f5260205f2001556101f46276a7005f5160206116a25f395f51905f525f80a362ed4e005f5260026020525f5160206116425f395f51905f525460ff1661038d5762ed4e005f5260026020525f5160206116425f395f51905f52805460ff191660011790556103207f089cfcbf844e824feee5f634cbc488382291f3c9e0de5905f3c30812390dd83355600754680100000000000000008110156103795760018101806007558110156103655762ed4e009060075f5260205f20015561032062ed4e005f5160206116a25f395f51905f525f80a36301e133805f5260026020525f5160206116e25f395f51905f525460ff1661038d576301e133805f5260026020525f5160206116e25f395f51905f52805460ff191660011790556104b07fdc083eb4da7563bbd761324b5158d9d40af7c7174afe39b0b31a7577c44fc33c5560075468010000000000000000811015610379576001810180600755811015610365576301e133809060075f5260205f2001556104b06301e133805f5160206116a25f395f51905f525f80a360ff19600654166006556040516110c8908161053a82396080518181816101a5015281816102d90152818161070a01528181610a200152610ea30152f35b634e487b7160e01b5f52603260045260245ffd5b634e487b7160e01b5f52604160045260245ffd5b635770685760e11b5f5260045ffd5b63f6b2911f60e01b5f5260045ffd5b5f80fd5b51906001600160a01b03821682036103ab57565b6001600160a01b0381165f9081525f5160206117225f395f51905f52602052604090205460ff16610434576001600160a01b03165f8181525f5160206117225f395f51905f5260205260408120805460ff191660011790553391905f5160206116025f395f51905f528180a4600190565b505f90565b6001600160a01b0381165f9081525f5160206116225f395f51905f52602052604090205460ff16610434576001600160a01b03165f8181525f5160206116225f395f51905f5260205260408120805460ff191660011790553391905f5160206116c25f395f51905f52905f5160206116025f395f51905f529080a4600190565b6001600160a01b0381165f9081525f5160206116825f395f51905f52602052604090205460ff16610434576001600160a01b03165f8181525f5160206116825f395f51905f5260205260408120805460ff191660011790553391905f5160206117025f395f51905f52905f5160206116025f395f51905f529080a460019056fe6080806040526004361015610012575f80fd5b5f3560e01c90816301ffc9a714610b6e57508063097aad1014610b4b57806315b31bbb14610ad1578063248a9ca314610a9f5780632def6620146109975780632f2ff15d1461095a57806336568abe14610916578063372500ab146108b15780635ef23fa9146107ec5780637b0472f014610693578063809336081461059d57806391d14854146105555780639fca9c221461051d578063a217fddf14610503578063aea1b6ef1461040e578063b6b365c214610358578063beceed391461024e578063d547741f1461020a578063db2e21bc1461012f5763dfe6b5d6146100f8575f80fd5b3461012b575f36600319011261012b57606060045460055460ff6006541690604051928352602083015215156040820152f35b5f80fd5b3461012b575f36600319011261012b57610147610d21565b335f52600360205260405f20600681019081549160ff8316156101fb57816002915f93549484835584600184015584600384015584600484015584600584015560ff19169055015561019b81600454610c03565b6004556101c981337f0000000000000000000000000000000000000000000000000000000000000000610e1e565b6040519081527f5fafa99d0643513820be26656b45130b01e1c03062e1266bf36f88cbd3bd969560203392a260018055005b637d9a44a160e11b5f5260045ffd5b3461012b57604036600319011261012b5761024c600435610229610bd7565b90610247610242825f525f602052600160405f20015490565b610de6565b610f6b565b005b3461012b57602036600319011261012b5760043561026a610d21565b335f9081527ff6c17da3865d9645546db4630d07c45803fb99f9b61dd452de8de1cd2159d254602052604090205460ff1615610321578015610312576020816103027ff8fad42e780bfa5459be3fe691e8ba1aec70342250112139c5771c3fd155f312936005546102fd8230337f0000000000000000000000000000000000000000000000000000000000000000610feb565b610cc6565b600555604051908152a160018055005b63162908e360e11b5f5260045ffd5b63e2517d3f60e01b5f52336004527f51785d261c3b3e8c2cfe2d0e108b9ab2b1fb703ff9e9e49aba4ebdc85c36152b60245260445ffd5b3461012b575f36600319011261012b576040518060206007549283815201809260075f527fa66cc928b5edb82af9bd49922954155ab7b0942694bea4ce44661d9a8736c688905f5b8181106103f857505050816103b6910382610cd3565b604051918291602083019060208452518091526040830191905f5b8181106103df575050500390f35b82518452859450602093840193909201916001016103d1565b82548452602090930192600192830192016103a0565b3461012b57606036600319011261012b576004356024359060443580151580910361012b5761043b610d21565b610443610d77565b5f6007545f5b8181106104d9575b5050156104ca57815f52600260205260405f20908360018301818154036104c2575b50508060ff8354161515036104af575b50507fad2954a6781cdc42b8af5df6f557041b3f146aaf8fbc031d767b7ad48164cff15f80a360018055005b60ff801983541691161790558280610483565b558385610473565b637616640160e01b5f5260045ffd5b846104e382610cf5565b90549060031b1c146104f757600101610449565b50505060018480610451565b3461012b575f36600319011261012b5760206040515f8152f35b3461012b57602036600319011261012b576004355f5260026020526040805f20600160ff825416910154825191151582526020820152f35b3461012b57604036600319011261012b5761056e610bd7565b6004355f525f60205260405f209060018060a01b03165f52602052602060ff60405f2054166040519015158152f35b3461012b57602036600319011261012b576105b6610bc1565b60405160e081019181831067ffffffffffffffff84111761067f5760e0926040525f8252602082015f8152604083015f8152606084015f815260808501915f835260a08601935f855261064e60c08801965f885260018060a01b0381165f52600360205260ff600660405f2080548c526001810154865260038101548752600481015488526005810154895201541615158852610c37565b8552604051965187525160208701525160408601525160608501525160808401525160a083015251151560c0820152f35b634e487b7160e01b5f52604160045260245ffd5b3461012b576106a136610bed565b906106aa610d21565b60ff60065416600454906107dd57811561031257825f52600260205260405f2060ff815416156104ca5761075e918391335f52600360205260405f20906001600683019160ff835416610799575b6107028942610cc6565b61072e8730337f0000000000000000000000000000000000000000000000000000000000000000610feb565b8685554283860155600385015588600485015501546005830155600160ff19825416179055600242910155610cc6565b6004556040519081525f60208201527fb4caaf29adda3eefee3ad552a8e85058589bf834c7466cae4ee58787f70589ed60403392a360018055005b8184015480151590816107d2575b50156106f8576107b633610c37565b806107c2575b506106f8565b6107cc9033610e60565b896107bc565b90504210158a6107a7565b631a4a6f3b60e21b5f5260045ffd5b3461012b576107fa36610bed565b90610803610d21565b61080b610d77565b80156104ca57805f52600260205260ff60405f2054166108a257805f52600260205281600160405f208160ff1982541617815501556007546801000000000000000081101561067f578060016108649201600755610cf5565b81549060031b9083821b915f19901b19161790557f682563ed446791dcd2bb66aa531ebaf528bce493e57f037313263799851bc3645f80a360018055005b635770685760e11b5f5260045ffd5b3461012b575f36600319011261012b576108c9610d21565b335f52600360205260405f2060ff600682015416156101fb576108eb33610c37565b8015610907576109019160024291015533610e60565b60018055005b63afb0be3360e01b5f5260045ffd5b3461012b57604036600319011261012b5761092f610bd7565b336001600160a01b0382160361094b5761024c90600435610f6b565b63334bd91960e11b5f5260045ffd5b3461012b57604036600319011261012b5761024c600435610979610bd7565b90610992610242825f525f602052600160405f20015490565b610ee9565b3461012b575f36600319011261012b576109af610d21565b335f52600360205260405f206006810180549160ff8316156101fb5760038101918254421115610a9057816002915f935495846109eb33610c37565b968185558160018601555584600484015584600584015560ff191690550155610a1682600454610c03565b600455610a4482337f0000000000000000000000000000000000000000000000000000000000000000610e1e565b80610a81575b60405191825260208201527f7fc4727e062e336010f2c282598ef5f14facb3de68cf8195c2f23e1454b2b74e60403392a260018055005b610a8b8133610e60565b610a4a565b6325e5ff6560e01b5f5260045ffd5b3461012b57602036600319011261012b576020610ac96004355f525f602052600160405f20015490565b604051908152f35b3461012b57602036600319011261012b5760043580151580910361012b57610af7610d21565b610aff610d77565b6006548160ff8216151503610b145760018055005b60ff191660ff8216176006557f3cf4fe733160f8f8c48336fab32acee32ebaaa423a08a2be4e5ceff97dd98c695f80a28080610901565b3461012b57602036600319011261012b576020610ac9610b69610bc1565b610c37565b3461012b57602036600319011261012b576004359063ffffffff60e01b821680920361012b57602091637965db0b60e01b8114908115610bb0575b5015158152f35b6301ffc9a760e01b14905083610ba9565b600435906001600160a01b038216820361012b57565b602435906001600160a01b038216820361012b57565b604090600319011261012b576004359060243590565b91908203918211610c1057565b634e487b7160e01b5f52601160045260245ffd5b81810292918115918404141715610c1057565b6001600160a01b03165f908152600360205260409020600681015460ff16158015610cbd575b610cb857610c7f42600383015480421015610cb0575b50600283015490610c03565b908115610caa5764496cebb80091610ca1826005610ca6945491015490610c24565b610c24565b0490565b50505f90565b90505f610c73565b505f90565b50805415610c5d565b91908201809211610c1057565b90601f8019910116810190811067ffffffffffffffff82111761067f57604052565b600754811015610d0d5760075f5260205f2001905f90565b634e487b7160e01b5f52603260045260245ffd5b600260015414610d32576002600155565b60405162461bcd60e51b815260206004820152601f60248201527f5265656e7472616e637947756172643a207265656e7472616e742063616c6c006044820152606490fd5b335f9081527f7d7ffb7a348e1c6a02869081a26547b49160dd3df72d1d75a570eb9b698292ec602052604090205460ff1615610daf57565b63e2517d3f60e01b5f52336004527fa49807205ce4d355092ef5a8a18f56e8913cf4a201fbe287825b095693c2177560245260445ffd5b5f8181526020818152604080832033845290915290205460ff1615610e085750565b63e2517d3f60e01b5f523360045260245260445ffd5b60405163a9059cbb60e01b60208201526001600160a01b039092166024830152604480830193909352918152610e5e91610e59606483610cd3565b61102f565b565b60055480831015610eda577f106f923f993c2149d49b4255ff723acafa1f2d94393f561d3eda32ae348f724191610e9984602093610c03565b600555610ec784827f0000000000000000000000000000000000000000000000000000000000000000610e1e565b6040519384526001600160a01b031692a2565b63447b0f6760e01b5f5260045ffd5b5f818152602081815260408083206001600160a01b038616845290915290205460ff16610caa575f818152602081815260408083206001600160a01b0395909516808452949091528120805460ff19166001179055339291907f2f8788117e7eff1d82e926ec794901d17c78024a50270940304540a733656f0d9080a4600190565b5f818152602081815260408083206001600160a01b038616845290915290205460ff1615610caa575f818152602081815260408083206001600160a01b0395909516808452949091528120805460ff19169055339291907ff6391f5c32d9c69d2a47ea670b442974b53935d1edc7fd64eb21e047a839171b9080a4600190565b6040516323b872dd60e01b60208201526001600160a01b039283166024820152929091166044830152606480830193909352918152610e5e91610e59608483610cd3565b905f602091828151910182855af115611087575f513d61107e57506001600160a01b0381163b155b61105e5750565b635274afe760e01b5f9081526001600160a01b0391909116600452602490fd5b60011415611057565b6040513d5f823e3d90fdfea2646970667358221220750f1d89420d65f0fddf3b02ea5972f1d7d1f14966d5c6701e52c18cdb657fdd64736f6c634300081c00332f8788117e7eff1d82e926ec794901d17c78024a50270940304540a733656f0d7d7ffb7a348e1c6a02869081a26547b49160dd3df72d1d75a570eb9b698292ec089cfcbf844e824feee5f634cbc488382291f3c9e0de5905f3c30812390dd832a1ef5b42f18533d67a183a193ea6c3fabfaa3bdabc3fc0e3f65b19b517df6e8cf6c17da3865d9645546db4630d07c45803fb99f9b61dd452de8de1cd2159d254682563ed446791dcd2bb66aa531ebaf528bce493e57f037313263799851bc364a49807205ce4d355092ef5a8a18f56e8913cf4a201fbe287825b095693c21775dc083eb4da7563bbd761324b5158d9d40af7c7174afe39b0b31a7577c44fc33b51785d261c3b3e8c2cfe2d0e108b9ab2b1fb703ff9e9e49aba4ebdc85c36152bad3228b676f7d3cd4284a5443f17f1962b36e491b30a40b2405849e597ba5fb5",
					"opcodes": "PUSH1 0xA0 PUSH1 0x1F PUSH2 0x1742 CODESIZE DUP2 SWAP1 SUB SWAP2 DUP3 ADD PUSH1 0x1F NOT AND DUP4 ADD SWAP2 PUSH1 0x1 PUSH1 0x1 PUSH1 0x40 SHL SUB DUP4 GT DUP5 DUP5 LT OR PUSH2 0x379 JUMPI DUP1 DUP5 SWAP3 PUSH1 0x40 SWAP5 DUP6 MSTORE DUP4 CODECOPY DUP2 ADD SUB SLT PUSH2 0x3AB JUMPI PUSH2 0x4D PUSH1 0x20 PUSH2 0x46 DUP4 PUSH2 0x3AF JUMP JUMPDEST SWAP3 ADD PUSH2 0x3AF JUMP JUMPDEST PUSH1 0x1 DUP1 SSTORE PUSH1 0x1 PUSH1 0x1 PUSH1 0xA0 SHL SUB SWAP1 SWAP2 AND SWAP1 DUP2 ISZERO PUSH2 0x39C JUMPI PUSH1 0x1 PUSH1 0x1 PUSH1 0xA0 SHL SUB DUP2 AND ISZERO PUSH2 0x39C JUMPI PUSH2 0x92 SWAP2 PUSH1 0x80 MSTORE PUSH2 0x82 DUP2 PUSH2 0x3C3 JUMP JUMPDEST POP PUSH2 0x8C DUP2 PUSH2 0x439 JUMP JUMPDEST POP PUSH2 0x4B9 JUMP JUMPDEST POP PUSH0 MLOAD PUSH1 0x20 PUSH2 0x1702 PUSH0 CODECOPY PUSH0 MLOAD SWAP1 PUSH0 MSTORE PUSH0 DUP2 DUP2 MSTORE PUSH1 0x20 DUP2 SWAP1 MSTORE PUSH32 0xF6C17DA3865D9645546DB4630D07C45803FB99F9B61DD452DE8DE1CD2159D255 DUP1 SLOAD PUSH0 MLOAD PUSH1 0x20 PUSH2 0x16C2 PUSH0 CODECOPY PUSH0 MLOAD SWAP1 PUSH0 MSTORE SWAP2 DUP3 SWAP1 SSTORE SWAP1 SWAP3 SWAP1 SWAP2 PUSH32 0xBD79B86FFE0AB8E8776151514217CD7CACD52C909F66475C3AF44E129F0B00FF SWAP1 DUP1 LOG4 PUSH3 0x76A700 PUSH0 MSTORE PUSH1 0x2 PUSH1 0x20 MSTORE PUSH0 MLOAD PUSH1 0x20 PUSH2 0x1662 PUSH0 CODECOPY PUSH0 MLOAD SWAP1 PUSH0 MSTORE SLOAD PUSH1 0xFF AND PUSH2 0x38D JUMPI PUSH3 0x76A700 PUSH0 MSTORE PUSH1 0x2 PUSH1 0x20 MSTORE PUSH0 MLOAD PUSH1 0x20 PUSH2 0x1662 PUSH0 CODECOPY PUSH0 MLOAD SWAP1 PUSH0 MSTORE DUP1 SLOAD PUSH1 0xFF NOT AND PUSH1 0x1 OR SWAP1 SSTORE PUSH2 0x1F4 PUSH32 0xA1EF5B42F18533D67A183A193EA6C3FABFAA3BDABC3FC0E3F65B19B517DF6E8D SSTORE PUSH1 0x7 SLOAD PUSH9 0x10000000000000000 DUP2 LT ISZERO PUSH2 0x379 JUMPI PUSH1 0x1 DUP2 ADD DUP1 PUSH1 0x7 SSTORE DUP2 LT ISZERO PUSH2 0x365 JUMPI PUSH3 0x76A700 SWAP1 PUSH1 0x7 PUSH0 MSTORE PUSH1 0x20 PUSH0 KECCAK256 ADD SSTORE PUSH2 0x1F4 PUSH3 0x76A700 PUSH0 MLOAD PUSH1 0x20 PUSH2 0x16A2 PUSH0 CODECOPY PUSH0 MLOAD SWAP1 PUSH0 MSTORE PUSH0 DUP1 LOG3 PUSH3 0xED4E00 PUSH0 MSTORE PUSH1 0x2 PUSH1 0x20 MSTORE PUSH0 MLOAD PUSH1 0x20 PUSH2 0x1642 PUSH0 CODECOPY PUSH0 MLOAD SWAP1 PUSH0 MSTORE SLOAD PUSH1 0xFF AND PUSH2 0x38D JUMPI PUSH3 0xED4E00 PUSH0 MSTORE PUSH1 0x2 PUSH1 0x20 MSTORE PUSH0 MLOAD PUSH1 0x20 PUSH2 0x1642 PUSH0 CODECOPY PUSH0 MLOAD SWAP1 PUSH0 MSTORE DUP1 SLOAD PUSH1 0xFF NOT AND PUSH1 0x1 OR SWAP1 SSTORE PUSH2 0x320 PUSH32 0x89CFCBF844E824FEEE5F634CBC488382291F3C9E0DE5905F3C30812390DD833 SSTORE PUSH1 0x7 SLOAD PUSH9 0x10000000000000000 DUP2 LT ISZERO PUSH2 0x379 JUMPI PUSH1 0x1 DUP2 ADD DUP1 PUSH1 0x7 SSTORE DUP2 LT ISZERO PUSH2 0x365 JUMPI PUSH3 0xED4E00 SWAP1 PUSH1 0x7 PUSH0 MSTORE PUSH1 0x20 PUSH0 KECCAK256 ADD SSTORE PUSH2 0x320 PUSH3 0xED4E00 PUSH0 MLOAD PUSH1 0x20 PUSH2 0x16A2 PUSH0 CODECOPY PUSH0 MLOAD SWAP1 PUSH0 MSTORE PUSH0 DUP1 LOG3 PUSH4 0x1E13380 PUSH0 MSTORE PUSH1 0x2 PUSH1 0x20 MSTORE PUSH0 MLOAD PUSH1 0x20 PUSH2 0x16E2 PUSH0 CODECOPY PUSH0 MLOAD SWAP1 PUSH0 MSTORE SLOAD PUSH1 0xFF AND PUSH2 0x38D JUMPI PUSH4 0x1E13380 PUSH0 MSTORE PUSH1 0x2 PUSH1 0x20 MSTORE PUSH0 MLOAD PUSH1 0x20 PUSH2 0x16E2 PUSH0 CODECOPY PUSH0 MLOAD SWAP1 PUSH0 MSTORE DUP1 SLOAD PUSH1 0xFF NOT AND PUSH1 0x1 OR SWAP1 SSTORE PUSH2 0x4B0 PUSH32 0xDC083EB4DA7563BBD761324B5158D9D40AF7C7174AFE39B0B31A7577C44FC33C SSTORE PUSH1 0x7 SLOAD PUSH9 0x10000000000000000 DUP2 LT ISZERO PUSH2 0x379 JUMPI PUSH1 0x1 DUP2 ADD DUP1 PUSH1 0x7 SSTORE DUP2 LT ISZERO PUSH2 0x365 JUMPI PUSH4 0x1E13380 SWAP1 PUSH1 0x7 PUSH0 MSTORE PUSH1 0x20 PUSH0 KECCAK256 ADD SSTORE PUSH2 0x4B0 PUSH4 0x1E13380 PUSH0 MLOAD PUSH1 0x20 PUSH2 0x16A2 PUSH0 CODECOPY PUSH0 MLOAD SWAP1 PUSH0 MSTORE PUSH0 DUP1 LOG3 PUSH1 0xFF NOT PUSH1 0x6 SLOAD AND PUSH1 0x6 SSTORE PUSH1 0x40 MLOAD PUSH2 0x10C8 SWAP1 DUP2 PUSH2 0x53A DUP3 CODECOPY PUSH1 0x80 MLOAD DUP2 DUP2 DUP2 PUSH2 0x1A5 ADD MSTORE DUP2 DUP2 PUSH2 0x2D9 ADD MSTORE DUP2 DUP2 PUSH2 0x70A ADD MSTORE DUP2 DUP2 PUSH2 0xA20 ADD MSTORE PUSH2 0xEA3 ADD MSTORE RETURN JUMPDEST PUSH4 0x4E487B71 PUSH1 0xE0 SHL PUSH0 MSTORE PUSH1 0x32 PUSH1 0x4 MSTORE PUSH1 0x24 PUSH0 REVERT JUMPDEST PUSH4 0x4E487B71 PUSH1 0xE0 SHL PUSH0 MSTORE PUSH1 0x41 PUSH1 0x4 MSTORE PUSH1 0x24 PUSH0 REVERT JUMPDEST PUSH4 0x57706857 PUSH1 0xE1 SHL PUSH0 MSTORE PUSH1 0x4 PUSH0 REVERT JUMPDEST PUSH4 0xF6B2911F PUSH1 0xE0 SHL PUSH0 MSTORE PUSH1 0x4 PUSH0 REVERT JUMPDEST PUSH0 DUP1 REVERT JUMPDEST MLOAD SWAP1 PUSH1 0x1 PUSH1 0x1 PUSH1 0xA0 SHL SUB DUP3 AND DUP3 SUB PUSH2 0x3AB JUMPI JUMP JUMPDEST PUSH1 0x1 PUSH1 0x1 PUSH1 0xA0 SHL SUB DUP2 AND PUSH0 SWAP1 DUP2 MSTORE PUSH0 MLOAD PUSH1 0x20 PUSH2 0x1722 PUSH0 CODECOPY PUSH0 MLOAD SWAP1 PUSH0 MSTORE PUSH1 0x20 MSTORE PUSH1 0x40 SWAP1 KECCAK256 SLOAD PUSH1 0xFF AND PUSH2 0x434 JUMPI PUSH1 0x1 PUSH1 0x1 PUSH1 0xA0 SHL SUB AND PUSH0 DUP2 DUP2 MSTORE PUSH0 MLOAD PUSH1 0x20 PUSH2 0x1722 PUSH0 CODECOPY PUSH0 MLOAD SWAP1 PUSH0 MSTORE PUSH1 0x20 MSTORE PUSH1 0x40 DUP2 KECCAK256 DUP1 SLOAD PUSH1 0xFF NOT AND PUSH1 0x1 OR SWAP1 SSTORE CALLER SWAP2 SWAP1 PUSH0 MLOAD PUSH1 0x20 PUSH2 0x1602 PUSH0 CODECOPY PUSH0 MLOAD SWAP1 PUSH0 MSTORE DUP2 DUP1 LOG4 PUSH1 0x1 SWAP1 JUMP JUMPDEST POP PUSH0 SWAP1 JUMP JUMPDEST PUSH1 0x1 PUSH1 0x1 PUSH1 0xA0 SHL SUB DUP2 AND PUSH0 SWAP1 DUP2 MSTORE PUSH0 MLOAD PUSH1 0x20 PUSH2 0x1622 PUSH0 CODECOPY PUSH0 MLOAD SWAP1 PUSH0 MSTORE PUSH1 0x20 MSTORE PUSH1 0x40 SWAP1 KECCAK256 SLOAD PUSH1 0xFF AND PUSH2 0x434 JUMPI PUSH1 0x1 PUSH1 0x1 PUSH1 0xA0 SHL SUB AND PUSH0 DUP2 DUP2 MSTORE PUSH0 MLOAD PUSH1 0x20 PUSH2 0x1622 PUSH0 CODECOPY PUSH0 MLOAD SWAP1 PUSH0 MSTORE PUSH1 0x20 MSTORE PUSH1 0x40 DUP2 KECCAK256 DUP1 SLOAD PUSH1 0xFF NOT AND PUSH1 0x1 OR SWAP1 SSTORE CALLER SWAP2 SWAP1 PUSH0 MLOAD PUSH1 0x20 PUSH2 0x16C2 PUSH0 CODECOPY PUSH0 MLOAD SWAP1 PUSH0 MSTORE SWAP1 PUSH0 MLOAD PUSH1 0x20 PUSH2 0x1602 PUSH0 CODECOPY PUSH0 MLOAD SWAP1 PUSH0 MSTORE SWAP1 DUP1 LOG4 PUSH1 0x1 SWAP1 JUMP JUMPDEST PUSH1 0x1 PUSH1 0x1 PUSH1 0xA0 SHL SUB DUP2 AND PUSH0 SWAP1 DUP2 MSTORE PUSH0 MLOAD PUSH1 0x20 PUSH2 0x1682 PUSH0 CODECOPY PUSH0 MLOAD SWAP1 PUSH0 MSTORE PUSH1 0x20 MSTORE PUSH1 0x40 SWAP1 KECCAK256 SLOAD PUSH1 0xFF AND PUSH2 0x434 JUMPI PUSH1 0x1 PUSH1 0x1 PUSH1 0xA0 SHL SUB AND PUSH0 DUP2 DUP2 MSTORE PUSH0 MLOAD PUSH1 0x20 PUSH2 0x1682 PUSH0 CODECOPY PUSH0 MLOAD SWAP1 PUSH0 MSTORE PUSH1 0x20 MSTORE PUSH1 0x40 DUP2 KECCAK256 DUP1 SLOAD PUSH1 0xFF NOT AND PUSH1 0x1 OR SWAP1 SSTORE CALLER SWAP2 SWAP1 PUSH0 MLOAD PUSH1 0x20 PUSH2 0x1702 PUSH0 CODECOPY PUSH0 MLOAD SWAP1 PUSH0 MSTORE SWAP1 PUSH0 MLOAD PUSH1 0x20 PUSH2 0x1602 PUSH0 CODECOPY PUSH0 MLOAD SWAP1 PUSH0 MSTORE SWAP1 DUP1 LOG4 PUSH1 0x1 SWAP1 JUMP INVALID PUSH1 0x80 DUP1 PUSH1 0x40 MSTORE PUSH1 0x4 CALLDATASIZE LT ISZERO PUSH2 0x12 JUMPI PUSH0 DUP1 REVERT JUMPDEST PUSH0 CALLDATALOAD PUSH1 0xE0 SHR SWAP1 DUP2 PUSH4 0x1FFC9A7 EQ PUSH2 0xB6E JUMPI POP DUP1 PUSH4 0x97AAD10 EQ PUSH2 0xB4B JUMPI DUP1 PUSH4 0x15B31BBB EQ PUSH2 0xAD1 JUMPI DUP1 PUSH4 0x248A9CA3 EQ PUSH2 0xA9F JUMPI DUP1 PUSH4 0x2DEF6620 EQ PUSH2 0x997 JUMPI DUP1 PUSH4 0x2F2FF15D EQ PUSH2 0x95A JUMPI DUP1 PUSH4 0x36568ABE EQ PUSH2 0x916 JUMPI DUP1 PUSH4 0x372500AB EQ PUSH2 0x8B1 JUMPI DUP1 PUSH4 0x5EF23FA9 EQ PUSH2 0x7EC JUMPI DUP1 PUSH4 0x7B0472F0 EQ PUSH2 0x693 JUMPI DUP1 PUSH4 0x80933608 EQ PUSH2 0x59D JUMPI DUP1 PUSH4 0x91D14854 EQ PUSH2 0x555 JUMPI DUP1 PUSH4 0x9FCA9C22 EQ PUSH2 0x51D JUMPI DUP1 PUSH4 0xA217FDDF EQ PUSH2 0x503 JUMPI DUP1 PUSH4 0xAEA1B6EF EQ PUSH2 0x40E JUMPI DUP1 PUSH4 0xB6B365C2 EQ PUSH2 0x358 JUMPI DUP1 PUSH4 0xBECEED39 EQ PUSH2 0x24E JUMPI DUP1 PUSH4 0xD547741F EQ PUSH2 0x20A JUMPI DUP1 PUSH4 0xDB2E21BC EQ PUSH2 0x12F JUMPI PUSH4 0xDFE6B5D6 EQ PUSH2 0xF8 JUMPI PUSH0 DUP1 REVERT JUMPDEST CALLVALUE PUSH2 0x12B JUMPI PUSH0 CALLDATASIZE PUSH1 0x3 NOT ADD SLT PUSH2 0x12B JUMPI PUSH1 0x60 PUSH1 0x4 SLOAD PUSH1 0x5 SLOAD PUSH1 0xFF PUSH1 0x6 SLOAD AND SWAP1 PUSH1 0x40 MLOAD SWAP3 DUP4 MSTORE PUSH1 0x20 DUP4 ADD MSTORE ISZERO ISZERO PUSH1 0x40 DUP3 ADD MSTORE RETURN JUMPDEST PUSH0 DUP1 REVERT JUMPDEST CALLVALUE PUSH2 0x12B JUMPI PUSH0 CALLDATASIZE PUSH1 0x3 NOT ADD SLT PUSH2 0x12B JUMPI PUSH2 0x147 PUSH2 0xD21 JUMP JUMPDEST CALLER PUSH0 MSTORE PUSH1 0x3 PUSH1 0x20 MSTORE PUSH1 0x40 PUSH0 KECCAK256 PUSH1 0x6 DUP2 ADD SWAP1 DUP2 SLOAD SWAP2 PUSH1 0xFF DUP4 AND ISZERO PUSH2 0x1FB JUMPI DUP2 PUSH1 0x2 SWAP2 PUSH0 SWAP4 SLOAD SWAP5 DUP5 DUP4 SSTORE DUP5 PUSH1 0x1 DUP5 ADD SSTORE DUP5 PUSH1 0x3 DUP5 ADD SSTORE DUP5 PUSH1 0x4 DUP5 ADD SSTORE DUP5 PUSH1 0x5 DUP5 ADD SSTORE PUSH1 0xFF NOT AND SWAP1 SSTORE ADD SSTORE PUSH2 0x19B DUP2 PUSH1 0x4 SLOAD PUSH2 0xC03 JUMP JUMPDEST PUSH1 0x4 SSTORE PUSH2 0x1C9 DUP2 CALLER PUSH32 0x0 PUSH2 0xE1E JUMP JUMPDEST PUSH1 0x40 MLOAD SWAP1 DUP2 MSTORE PUSH32 0x5FAFA99D0643513820BE26656B45130B01E1C03062E1266BF36F88CBD3BD9695 PUSH1 0x20 CALLER SWAP3 LOG2 PUSH1 0x1 DUP1 SSTORE STOP JUMPDEST PUSH4 0x7D9A44A1 PUSH1 0xE1 SHL PUSH0 MSTORE PUSH1 0x4 PUSH0 REVERT JUMPDEST CALLVALUE PUSH2 0x12B JUMPI PUSH1 0x40 CALLDATASIZE PUSH1 0x3 NOT ADD SLT PUSH2 0x12B JUMPI PUSH2 0x24C PUSH1 0x4 CALLDATALOAD PUSH2 0x229 PUSH2 0xBD7 JUMP JUMPDEST SWAP1 PUSH2 0x247 PUSH2 0x242 DUP3 PUSH0 MSTORE PUSH0 PUSH1 0x20 MSTORE PUSH1 0x1 PUSH1 0x40 PUSH0 KECCAK256 ADD SLOAD SWAP1 JUMP JUMPDEST PUSH2 0xDE6 JUMP JUMPDEST PUSH2 0xF6B JUMP JUMPDEST STOP JUMPDEST CALLVALUE PUSH2 0x12B JUMPI PUSH1 0x20 CALLDATASIZE PUSH1 0x3 NOT ADD SLT PUSH2 0x12B JUMPI PUSH1 0x4 CALLDATALOAD PUSH2 0x26A PUSH2 0xD21 JUMP JUMPDEST CALLER PUSH0 SWAP1 DUP2 MSTORE PUSH32 0xF6C17DA3865D9645546DB4630D07C45803FB99F9B61DD452DE8DE1CD2159D254 PUSH1 0x20 MSTORE PUSH1 0x40 SWAP1 KECCAK256 SLOAD PUSH1 0xFF AND ISZERO PUSH2 0x321 JUMPI DUP1 ISZERO PUSH2 0x312 JUMPI PUSH1 0x20 DUP2 PUSH2 0x302 PUSH32 0xF8FAD42E780BFA5459BE3FE691E8BA1AEC70342250112139C5771C3FD155F312 SWAP4 PUSH1 0x5 SLOAD PUSH2 0x2FD DUP3 ADDRESS CALLER PUSH32 0x0 PUSH2 0xFEB JUMP JUMPDEST PUSH2 0xCC6 JUMP JUMPDEST PUSH1 0x5 SSTORE PUSH1 0x40 MLOAD SWAP1 DUP2 MSTORE LOG1 PUSH1 0x1 DUP1 SSTORE STOP JUMPDEST PUSH4 0x162908E3 PUSH1 0xE1 SHL PUSH0 MSTORE PUSH1 0x4 PUSH0 REVERT JUMPDEST PUSH4 0xE2517D3F PUSH1 0xE0 SHL PUSH0 MSTORE CALLER PUSH1 0x4 MSTORE PUSH32 0x51785D261C3B3E8C2CFE2D0E108B9AB2B1FB703FF9E9E49ABA4EBDC85C36152B PUSH1 0x24 MSTORE PUSH1 0x44 PUSH0 REVERT JUMPDEST CALLVALUE PUSH2 0x12B JUMPI PUSH0 CALLDATASIZE PUSH1 0x3 NOT ADD SLT PUSH2 0x12B JUMPI PUSH1 0x40 MLOAD DUP1 PUSH1 0x20 PUSH1 0x7 SLOAD SWAP3 DUP4 DUP2 MSTORE ADD DUP1 SWAP3 PUSH1 0x7 PUSH0 MSTORE PUSH32 0xA66CC928B5EDB82AF9BD49922954155AB7B0942694BEA4CE44661D9A8736C688 SWAP1 PUSH0 JUMPDEST DUP2 DUP2 LT PUSH2 0x3F8 JUMPI POP POP POP DUP2 PUSH2 0x3B6 SWAP2 SUB DUP3 PUSH2 0xCD3 JUMP JUMPDEST PUSH1 0x40 MLOAD SWAP2 DUP3 SWAP2 PUSH1 0x20 DUP4 ADD SWAP1 PUSH1 0x20 DUP5 MSTORE MLOAD DUP1 SWAP2 MSTORE PUSH1 0x40 DUP4 ADD SWAP2 SWAP1 PUSH0 JUMPDEST DUP2 DUP2 LT PUSH2 0x3DF JUMPI POP POP POP SUB SWAP1 RETURN JUMPDEST DUP3 MLOAD DUP5 MSTORE DUP6 SWAP5 POP PUSH1 0x20 SWAP4 DUP5 ADD SWAP4 SWAP1 SWAP3 ADD SWAP2 PUSH1 0x1 ADD PUSH2 0x3D1 JUMP JUMPDEST DUP3 SLOAD DUP5 MSTORE PUSH1 0x20 SWAP1 SWAP4 ADD SWAP3 PUSH1 0x1 SWAP3 DUP4 ADD SWAP3 ADD PUSH2 0x3A0 JUMP JUMPDEST CALLVALUE PUSH2 0x12B JUMPI PUSH1 0x60 CALLDATASIZE PUSH1 0x3 NOT ADD SLT PUSH2 0x12B JUMPI PUSH1 0x4 CALLDATALOAD PUSH1 0x24 CALLDATALOAD SWAP1 PUSH1 0x44 CALLDATALOAD DUP1 ISZERO ISZERO DUP1 SWAP2 SUB PUSH2 0x12B JUMPI PUSH2 0x43B PUSH2 0xD21 JUMP JUMPDEST PUSH2 0x443 PUSH2 0xD77 JUMP JUMPDEST PUSH0 PUSH1 0x7 SLOAD PUSH0 JUMPDEST DUP2 DUP2 LT PUSH2 0x4D9 JUMPI JUMPDEST POP POP ISZERO PUSH2 0x4CA JUMPI DUP2 PUSH0 MSTORE PUSH1 0x2 PUSH1 0x20 MSTORE PUSH1 0x40 PUSH0 KECCAK256 SWAP1 DUP4 PUSH1 0x1 DUP4 ADD DUP2 DUP2 SLOAD SUB PUSH2 0x4C2 JUMPI JUMPDEST POP POP DUP1 PUSH1 0xFF DUP4 SLOAD AND ISZERO ISZERO SUB PUSH2 0x4AF JUMPI JUMPDEST POP POP PUSH32 0xAD2954A6781CDC42B8AF5DF6F557041B3F146AAF8FBC031D767B7AD48164CFF1 PUSH0 DUP1 LOG3 PUSH1 0x1 DUP1 SSTORE STOP JUMPDEST PUSH1 0xFF DUP1 NOT DUP4 SLOAD AND SWAP2 AND OR SWAP1 SSTORE DUP3 DUP1 PUSH2 0x483 JUMP JUMPDEST SSTORE DUP4 DUP6 PUSH2 0x473 JUMP JUMPDEST PUSH4 0x76166401 PUSH1 0xE0 SHL PUSH0 MSTORE PUSH1 0x4 PUSH0 REVERT JUMPDEST DUP5 PUSH2 0x4E3 DUP3 PUSH2 0xCF5 JUMP JUMPDEST SWAP1 SLOAD SWAP1 PUSH1 0x3 SHL SHR EQ PUSH2 0x4F7 JUMPI PUSH1 0x1 ADD PUSH2 0x449 JUMP JUMPDEST POP POP POP PUSH1 0x1 DUP5 DUP1 PUSH2 0x451 JUMP JUMPDEST CALLVALUE PUSH2 0x12B JUMPI PUSH0 CALLDATASIZE PUSH1 0x3 NOT ADD SLT PUSH2 0x12B JUMPI PUSH1 0x20 PUSH1 0x40 MLOAD PUSH0 DUP2 MSTORE RETURN JUMPDEST CALLVALUE PUSH2 0x12B JUMPI PUSH1 0x20 CALLDATASIZE PUSH1 0x3 NOT ADD SLT PUSH2 0x12B JUMPI PUSH1 0x4 CALLDATALOAD PUSH0 MSTORE PUSH1 0x2 PUSH1 0x20 MSTORE PUSH1 0x40 DUP1 PUSH0 KECCAK256 PUSH1 0x1 PUSH1 0xFF DUP3 SLOAD AND SWAP2 ADD SLOAD DUP3 MLOAD SWAP2 ISZERO ISZERO DUP3 MSTORE PUSH1 0x20 DUP3 ADD MSTORE RETURN JUMPDEST CALLVALUE PUSH2 0x12B JUMPI PUSH1 0x40 CALLDATASIZE PUSH1 0x3 NOT ADD SLT PUSH2 0x12B JUMPI PUSH2 0x56E PUSH2 0xBD7 JUMP JUMPDEST PUSH1 0x4 CALLDATALOAD PUSH0 MSTORE PUSH0 PUSH1 0x20 MSTORE PUSH1 0x40 PUSH0 KECCAK256 SWAP1 PUSH1 0x1 DUP1 PUSH1 0xA0 SHL SUB AND PUSH0 MSTORE PUSH1 0x20 MSTORE PUSH1 0x20 PUSH1 0xFF PUSH1 0x40 PUSH0 KECCAK256 SLOAD AND PUSH1 0x40 MLOAD SWAP1 ISZERO ISZERO DUP2 MSTORE RETURN JUMPDEST CALLVALUE PUSH2 0x12B JUMPI PUSH1 0x20 CALLDATASIZE PUSH1 0x3 NOT ADD SLT PUSH2 0x12B JUMPI PUSH2 0x5B6 PUSH2 0xBC1 JUMP JUMPDEST PUSH1 0x40 MLOAD PUSH1 0xE0 DUP2 ADD SWAP2 DUP2 DUP4 LT PUSH8 0xFFFFFFFFFFFFFFFF DUP5 GT OR PUSH2 0x67F JUMPI PUSH1 0xE0 SWAP3 PUSH1 0x40 MSTORE PUSH0 DUP3 MSTORE PUSH1 0x20 DUP3 ADD PUSH0 DUP2 MSTORE PUSH1 0x40 DUP4 ADD PUSH0 DUP2 MSTORE PUSH1 0x60 DUP5 ADD PUSH0 DUP2 MSTORE PUSH1 0x80 DUP6 ADD SWAP2 PUSH0 DUP4 MSTORE PUSH1 0xA0 DUP7 ADD SWAP4 PUSH0 DUP6 MSTORE PUSH2 0x64E PUSH1 0xC0 DUP9 ADD SWAP7 PUSH0 DUP9 MSTORE PUSH1 0x1 DUP1 PUSH1 0xA0 SHL SUB DUP2 AND PUSH0 MSTORE PUSH1 0x3 PUSH1 0x20 MSTORE PUSH1 0xFF PUSH1 0x6 PUSH1 0x40 PUSH0 KECCAK256 DUP1 SLOAD DUP13 MSTORE PUSH1 0x1 DUP2 ADD SLOAD DUP7 MSTORE PUSH1 0x3 DUP2 ADD SLOAD DUP8 MSTORE PUSH1 0x4 DUP2 ADD SLOAD DUP9 MSTORE PUSH1 0x5 DUP2 ADD SLOAD DUP10 MSTORE ADD SLOAD AND ISZERO ISZERO DUP9 MSTORE PUSH2 0xC37 JUMP JUMPDEST DUP6 MSTORE PUSH1 0x40 MLOAD SWAP7 MLOAD DUP8 MSTORE MLOAD PUSH1 0x20 DUP8 ADD MSTORE MLOAD PUSH1 0x40 DUP7 ADD MSTORE MLOAD PUSH1 0x60 DUP6 ADD MSTORE MLOAD PUSH1 0x80 DUP5 ADD MSTORE MLOAD PUSH1 0xA0 DUP4 ADD MSTORE MLOAD ISZERO ISZERO PUSH1 0xC0 DUP3 ADD MSTORE RETURN JUMPDEST PUSH4 0x4E487B71 PUSH1 0xE0 SHL PUSH0 MSTORE PUSH1 0x41 PUSH1 0x4 MSTORE PUSH1 0x24 PUSH0 REVERT JUMPDEST CALLVALUE PUSH2 0x12B JUMPI PUSH2 0x6A1 CALLDATASIZE PUSH2 0xBED JUMP JUMPDEST SWAP1 PUSH2 0x6AA PUSH2 0xD21 JUMP JUMPDEST PUSH1 0xFF PUSH1 0x6 SLOAD AND PUSH1 0x4 SLOAD SWAP1 PUSH2 0x7DD JUMPI DUP2 ISZERO PUSH2 0x312 JUMPI DUP3 PUSH0 MSTORE PUSH1 0x2 PUSH1 0x20 MSTORE PUSH1 0x40 PUSH0 KECCAK256 PUSH1 0xFF DUP2 SLOAD AND ISZERO PUSH2 0x4CA JUMPI PUSH2 0x75E SWAP2 DUP4 SWAP2 CALLER PUSH0 MSTORE PUSH1 0x3 PUSH1 0x20 MSTORE PUSH1 0x40 PUSH0 KECCAK256 SWAP1 PUSH1 0x1 PUSH1 0x6 DUP4 ADD SWAP2 PUSH1 0xFF DUP4 SLOAD AND PUSH2 0x799 JUMPI JUMPDEST PUSH2 0x702 DUP10 TIMESTAMP PUSH2 0xCC6 JUMP JUMPDEST PUSH2 0x72E DUP8 ADDRESS CALLER PUSH32 0x0 PUSH2 0xFEB JUMP JUMPDEST DUP7 DUP6 SSTORE TIMESTAMP DUP4 DUP7 ADD SSTORE PUSH1 0x3 DUP6 ADD SSTORE DUP9 PUSH1 0x4 DUP6 ADD SSTORE ADD SLOAD PUSH1 0x5 DUP4 ADD SSTORE PUSH1 0x1 PUSH1 0xFF NOT DUP3 SLOAD AND OR SWAP1 SSTORE PUSH1 0x2 TIMESTAMP SWAP2 ADD SSTORE PUSH2 0xCC6 JUMP JUMPDEST PUSH1 0x4 SSTORE PUSH1 0x40 MLOAD SWAP1 DUP2 MSTORE PUSH0 PUSH1 0x20 DUP3 ADD MSTORE PUSH32 0xB4CAAF29ADDA3EEFEE3AD552A8E85058589BF834C7466CAE4EE58787F70589ED PUSH1 0x40 CALLER SWAP3 LOG3 PUSH1 0x1 DUP1 SSTORE STOP JUMPDEST DUP2 DUP5 ADD SLOAD DUP1 ISZERO ISZERO SWAP1 DUP2 PUSH2 0x7D2 JUMPI JUMPDEST POP ISZERO PUSH2 0x6F8 JUMPI PUSH2 0x7B6 CALLER PUSH2 0xC37 JUMP JUMPDEST DUP1 PUSH2 0x7C2 JUMPI JUMPDEST POP PUSH2 0x6F8 JUMP JUMPDEST PUSH2 0x7CC SWAP1 CALLER PUSH2 0xE60 JUMP JUMPDEST DUP10 PUSH2 0x7BC JUMP JUMPDEST SWAP1 POP TIMESTAMP LT ISZERO DUP11 PUSH2 0x7A7 JUMP JUMPDEST PUSH4 0x1A4A6F3B PUSH1 0xE2 SHL PUSH0 MSTORE PUSH1 0x4 PUSH0 REVERT JUMPDEST CALLVALUE PUSH2 0x12B JUMPI PUSH2 0x7FA CALLDATASIZE PUSH2 0xBED JUMP JUMPDEST SWAP1 PUSH2 0x803 PUSH2 0xD21 JUMP JUMPDEST PUSH2 0x80B PUSH2 0xD77 JUMP JUMPDEST DUP1 ISZERO PUSH2 0x4CA JUMPI DUP1 PUSH0 MSTORE PUSH1 0x2 PUSH1 0x20 MSTORE PUSH1 0xFF PUSH1 0x40 PUSH0 KECCAK256 SLOAD AND PUSH2 0x8A2 JUMPI DUP1 PUSH0 MSTORE PUSH1 0x2 PUSH1 0x20 MSTORE DUP2 PUSH1 0x1 PUSH1 0x40 PUSH0 KECCAK256 DUP2 PUSH1 0xFF NOT DUP3 SLOAD AND OR DUP2 SSTORE ADD SSTORE PUSH1 0x7 SLOAD PUSH9 0x10000000000000000 DUP2 LT ISZERO PUSH2 0x67F JUMPI DUP1 PUSH1 0x1 PUSH2 0x864 SWAP3 ADD PUSH1 0x7 SSTORE PUSH2 0xCF5 JUMP JUMPDEST DUP2 SLOAD SWAP1 PUSH1 0x3 SHL SWAP1 DUP4 DUP3 SHL SWAP2 PUSH0 NOT SWAP1 SHL NOT AND OR SWAP1 SSTORE PUSH32 0x682563ED446791DCD2BB66AA531EBAF528BCE493E57F037313263799851BC364 PUSH0 DUP1 LOG3 PUSH1 0x1 DUP1 SSTORE STOP JUMPDEST PUSH4 0x57706857 PUSH1 0xE1 SHL PUSH0 MSTORE PUSH1 0x4 PUSH0 REVERT JUMPDEST CALLVALUE PUSH2 0x12B JUMPI PUSH0 CALLDATASIZE PUSH1 0x3 NOT ADD SLT PUSH2 0x12B JUMPI PUSH2 0x8C9 PUSH2 0xD21 JUMP JUMPDEST CALLER PUSH0 MSTORE PUSH1 0x3 PUSH1 0x20 MSTORE PUSH1 0x40 PUSH0 KECCAK256 PUSH1 0xFF PUSH1 0x6 DUP3 ADD SLOAD AND ISZERO PUSH2 0x1FB JUMPI PUSH2 0x8EB CALLER PUSH2 0xC37 JUMP JUMPDEST DUP1 ISZERO PUSH2 0x907 JUMPI PUSH2 0x901 SWAP2 PUSH1 0x2 TIMESTAMP SWAP2 ADD SSTORE CALLER PUSH2 0xE60 JUMP JUMPDEST PUSH1 0x1 DUP1 SSTORE STOP JUMPDEST PUSH4 0xAFB0BE33 PUSH1 0xE0 SHL PUSH0 MSTORE PUSH1 0x4 PUSH0 REVERT JUMPDEST CALLVALUE PUSH2 0x12B JUMPI PUSH1 0x40 CALLDATASIZE PUSH1 0x3 NOT ADD SLT PUSH2 0x12B JUMPI PUSH2 0x92F PUSH2 0xBD7 JUMP JUMPDEST CALLER PUSH1 0x1 PUSH1 0x1 PUSH1 0xA0 SHL SUB DUP3 AND SUB PUSH2 0x94B JUMPI PUSH2 0x24C SWAP1 PUSH1 0x4 CALLDATALOAD PUSH2 0xF6B JUMP JUMPDEST PUSH4 0x334BD919 PUSH1 0xE1 SHL PUSH0 MSTORE PUSH1 0x4 PUSH0 REVERT JUMPDEST CALLVALUE PUSH2 0x12B JUMPI PUSH1 0x40 CALLDATASIZE PUSH1 0x3 NOT ADD SLT PUSH2 0x12B JUMPI PUSH2 0x24C PUSH1 0x4 CALLDATALOAD PUSH2 0x979 PUSH2 0xBD7 JUMP JUMPDEST SWAP1 PUSH2 0x992 PUSH2 0x242 DUP3 PUSH0 MSTORE PUSH0 PUSH1 0x20 MSTORE PUSH1 0x1 PUSH1 0x40 PUSH0 KECCAK256 ADD SLOAD SWAP1 JUMP JUMPDEST PUSH2 0xEE9 JUMP JUMPDEST CALLVALUE PUSH2 0x12B JUMPI PUSH0 CALLDATASIZE PUSH1 0x3 NOT ADD SLT PUSH2 0x12B JUMPI PUSH2 0x9AF PUSH2 0xD21 JUMP JUMPDEST CALLER PUSH0 MSTORE PUSH1 0x3 PUSH1 0x20 MSTORE PUSH1 0x40 PUSH0 KECCAK256 PUSH1 0x6 DUP2 ADD DUP1 SLOAD SWAP2 PUSH1 0xFF DUP4 AND ISZERO PUSH2 0x1FB JUMPI PUSH1 0x3 DUP2 ADD SWAP2 DUP3 SLOAD TIMESTAMP GT ISZERO PUSH2 0xA90 JUMPI DUP2 PUSH1 0x2 SWAP2 PUSH0 SWAP4 SLOAD SWAP6 DUP5 PUSH2 0x9EB CALLER PUSH2 0xC37 JUMP JUMPDEST SWAP7 DUP2 DUP6 SSTORE DUP2 PUSH1 0x1 DUP7 ADD SSTORE SSTORE DUP5 PUSH1 0x4 DUP5 ADD SSTORE DUP5 PUSH1 0x5 DUP5 ADD SSTORE PUSH1 0xFF NOT AND SWAP1 SSTORE ADD SSTORE PUSH2 0xA16 DUP3 PUSH1 0x4 SLOAD PUSH2 0xC03 JUMP JUMPDEST PUSH1 0x4 SSTORE PUSH2 0xA44 DUP3 CALLER PUSH32 0x0 PUSH2 0xE1E JUMP JUMPDEST DUP1 PUSH2 0xA81 JUMPI JUMPDEST PUSH1 0x40 MLOAD SWAP2 DUP3 MSTORE PUSH1 0x20 DUP3 ADD MSTORE PUSH32 0x7FC4727E062E336010F2C282598EF5F14FACB3DE68CF8195C2F23E1454B2B74E PUSH1 0x40 CALLER SWAP3 LOG2 PUSH1 0x1 DUP1 SSTORE STOP JUMPDEST PUSH2 0xA8B DUP2 CALLER PUSH2 0xE60 JUMP JUMPDEST PUSH2 0xA4A JUMP JUMPDEST PUSH4 0x25E5FF65 PUSH1 0xE0 SHL PUSH0 MSTORE PUSH1 0x4 PUSH0 REVERT JUMPDEST CALLVALUE PUSH2 0x12B JUMPI PUSH1 0x20 CALLDATASIZE PUSH1 0x3 NOT ADD SLT PUSH2 0x12B JUMPI PUSH1 0x20 PUSH2 0xAC9 PUSH1 0x4 CALLDATALOAD PUSH0 MSTORE PUSH0 PUSH1 0x20 MSTORE PUSH1 0x1 PUSH1 0x40 PUSH0 KECCAK256 ADD SLOAD SWAP1 JUMP JUMPDEST PUSH1 0x40 MLOAD SWAP1 DUP2 MSTORE RETURN JUMPDEST CALLVALUE PUSH2 0x12B JUMPI PUSH1 0x20 CALLDATASIZE PUSH1 0x3 NOT ADD SLT PUSH2 0x12B JUMPI PUSH1 0x4 CALLDATALOAD DUP1 ISZERO ISZERO DUP1 SWAP2 SUB PUSH2 0x12B JUMPI PUSH2 0xAF7 PUSH2 0xD21 JUMP JUMPDEST PUSH2 0xAFF PUSH2 0xD77 JUMP JUMPDEST PUSH1 0x6 SLOAD DUP2 PUSH1 0xFF DUP3 AND ISZERO ISZERO SUB PUSH2 0xB14 JUMPI PUSH1 0x1 DUP1 SSTORE STOP JUMPDEST PUSH1 0xFF NOT AND PUSH1 0xFF DUP3 AND OR PUSH1 0x6 SSTORE PUSH32 0x3CF4FE733160F8F8C48336FAB32ACEE32EBAAA423A08A2BE4E5CEFF97DD98C69 PUSH0 DUP1 LOG2 DUP1 DUP1 PUSH2 0x901 JUMP JUMPDEST CALLVALUE PUSH2 0x12B JUMPI PUSH1 0x20 CALLDATASIZE PUSH1 0x3 NOT ADD SLT PUSH2 0x12B JUMPI PUSH1 0x20 PUSH2 0xAC9 PUSH2 0xB69 PUSH2 0xBC1 JUMP JUMPDEST PUSH2 0xC37 JUMP JUMPDEST CALLVALUE PUSH2 0x12B JUMPI PUSH1 0x20 CALLDATASIZE PUSH1 0x3 NOT ADD SLT PUSH2 0x12B JUMPI PUSH1 0x4 CALLDATALOAD SWAP1 PUSH4 0xFFFFFFFF PUSH1 0xE0 SHL DUP3 AND DUP1 SWAP3 SUB PUSH2 0x12B JUMPI PUSH1 0x20 SWAP2 PUSH4 0x7965DB0B PUSH1 0xE0 SHL DUP2 EQ SWAP1 DUP2 ISZERO PUSH2 0xBB0 JUMPI JUMPDEST POP ISZERO ISZERO DUP2 MSTORE RETURN JUMPDEST PUSH4 0x1FFC9A7 PUSH1 0xE0 SHL EQ SWAP1 POP DUP4 PUSH2 0xBA9 JUMP JUMPDEST PUSH1 0x4 CALLDATALOAD SWAP1 PUSH1 0x1 PUSH1 0x1 PUSH1 0xA0 SHL SUB DUP3 AND DUP3 SUB PUSH2 0x12B JUMPI JUMP JUMPDEST PUSH1 0x24 CALLDATALOAD SWAP1 PUSH1 0x1 PUSH1 0x1 PUSH1 0xA0 SHL SUB DUP3 AND DUP3 SUB PUSH2 0x12B JUMPI JUMP JUMPDEST PUSH1 0x40 SWAP1 PUSH1 0x3 NOT ADD SLT PUSH2 0x12B JUMPI PUSH1 0x4 CALLDATALOAD SWAP1 PUSH1 0x24 CALLDATALOAD SWAP1 JUMP JUMPDEST SWAP2 SWAP1 DUP3 SUB SWAP2 DUP3 GT PUSH2 0xC10 JUMPI JUMP JUMPDEST PUSH4 0x4E487B71 PUSH1 0xE0 SHL PUSH0 MSTORE PUSH1 0x11 PUSH1 0x4 MSTORE PUSH1 0x24 PUSH0 REVERT JUMPDEST DUP2 DUP2 MUL SWAP3 SWAP2 DUP2 ISZERO SWAP2 DUP5 DIV EQ OR ISZERO PUSH2 0xC10 JUMPI JUMP JUMPDEST PUSH1 0x1 PUSH1 0x1 PUSH1 0xA0 SHL SUB AND PUSH0 SWAP1 DUP2 MSTORE PUSH1 0x3 PUSH1 0x20 MSTORE PUSH1 0x40 SWAP1 KECCAK256 PUSH1 0x6 DUP2 ADD SLOAD PUSH1 0xFF AND ISZERO DUP1 ISZERO PUSH2 0xCBD JUMPI JUMPDEST PUSH2 0xCB8 JUMPI PUSH2 0xC7F TIMESTAMP PUSH1 0x3 DUP4 ADD SLOAD DUP1 TIMESTAMP LT ISZERO PUSH2 0xCB0 JUMPI JUMPDEST POP PUSH1 0x2 DUP4 ADD SLOAD SWAP1 PUSH2 0xC03 JUMP JUMPDEST SWAP1 DUP2 ISZERO PUSH2 0xCAA JUMPI PUSH5 0x496CEBB800 SWAP2 PUSH2 0xCA1 DUP3 PUSH1 0x5 PUSH2 0xCA6 SWAP5 SLOAD SWAP2 ADD SLOAD SWAP1 PUSH2 0xC24 JUMP JUMPDEST PUSH2 0xC24 JUMP JUMPDEST DIV SWAP1 JUMP JUMPDEST POP POP PUSH0 SWAP1 JUMP JUMPDEST SWAP1 POP PUSH0 PUSH2 0xC73 JUMP JUMPDEST POP PUSH0 SWAP1 JUMP JUMPDEST POP DUP1 SLOAD ISZERO PUSH2 0xC5D JUMP JUMPDEST SWAP2 SWAP1 DUP3 ADD DUP1 SWAP3 GT PUSH2 0xC10 JUMPI JUMP JUMPDEST SWAP1 PUSH1 0x1F DUP1 NOT SWAP2 ADD AND DUP2 ADD SWAP1 DUP2 LT PUSH8 0xFFFFFFFFFFFFFFFF DUP3 GT OR PUSH2 0x67F JUMPI PUSH1 0x40 MSTORE JUMP JUMPDEST PUSH1 0x7 SLOAD DUP2 LT ISZERO PUSH2 0xD0D JUMPI PUSH1 0x7 PUSH0 MSTORE PUSH1 0x20 PUSH0 KECCAK256 ADD SWAP1 PUSH0 SWAP1 JUMP JUMPDEST PUSH4 0x4E487B71 PUSH1 0xE0 SHL PUSH0 MSTORE PUSH1 0x32 PUSH1 0x4 MSTORE PUSH1 0x24 PUSH0 REVERT JUMPDEST PUSH1 0x2 PUSH1 0x1 SLOAD EQ PUSH2 0xD32 JUMPI PUSH1 0x2 PUSH1 0x1 SSTORE JUMP JUMPDEST PUSH1 0x40 MLOAD PUSH3 0x461BCD PUSH1 0xE5 SHL DUP2 MSTORE PUSH1 0x20 PUSH1 0x4 DUP3 ADD MSTORE PUSH1 0x1F PUSH1 0x24 DUP3 ADD MSTORE PUSH32 0x5265656E7472616E637947756172643A207265656E7472616E742063616C6C00 PUSH1 0x44 DUP3 ADD MSTORE PUSH1 0x64 SWAP1 REVERT JUMPDEST CALLER PUSH0 SWAP1 DUP2 MSTORE PUSH32 0x7D7FFB7A348E1C6A02869081A26547B49160DD3DF72D1D75A570EB9B698292EC PUSH1 0x20 MSTORE PUSH1 0x40 SWAP1 KECCAK256 SLOAD PUSH1 0xFF AND ISZERO PUSH2 0xDAF JUMPI JUMP JUMPDEST PUSH4 0xE2517D3F PUSH1 0xE0 SHL PUSH0 MSTORE CALLER PUSH1 0x4 MSTORE PUSH32 0xA49807205CE4D355092EF5A8A18F56E8913CF4A201FBE287825B095693C21775 PUSH1 0x24 MSTORE PUSH1 0x44 PUSH0 REVERT JUMPDEST PUSH0 DUP2 DUP2 MSTORE PUSH1 0x20 DUP2 DUP2 MSTORE PUSH1 0x40 DUP1 DUP4 KECCAK256 CALLER DUP5 MSTORE SWAP1 SWAP2 MSTORE SWAP1 KECCAK256 SLOAD PUSH1 0xFF AND ISZERO PUSH2 0xE08 JUMPI POP JUMP JUMPDEST PUSH4 0xE2517D3F PUSH1 0xE0 SHL PUSH0 MSTORE CALLER PUSH1 0x4 MSTORE PUSH1 0x24 MSTORE PUSH1 0x44 PUSH0 REVERT JUMPDEST PUSH1 0x40 MLOAD PUSH4 0xA9059CBB PUSH1 0xE0 SHL PUSH1 0x20 DUP3 ADD MSTORE PUSH1 0x1 PUSH1 0x1 PUSH1 0xA0 SHL SUB SWAP1 SWAP3 AND PUSH1 0x24 DUP4 ADD MSTORE PUSH1 0x44 DUP1 DUP4 ADD SWAP4 SWAP1 SWAP4 MSTORE SWAP2 DUP2 MSTORE PUSH2 0xE5E SWAP2 PUSH2 0xE59 PUSH1 0x64 DUP4 PUSH2 0xCD3 JUMP JUMPDEST PUSH2 0x102F JUMP JUMPDEST JUMP JUMPDEST PUSH1 0x5 SLOAD DUP1 DUP4 LT ISZERO PUSH2 0xEDA JUMPI PUSH32 0x106F923F993C2149D49B4255FF723ACAFA1F2D94393F561D3EDA32AE348F7241 SWAP2 PUSH2 0xE99 DUP5 PUSH1 0x20 SWAP4 PUSH2 0xC03 JUMP JUMPDEST PUSH1 0x5 SSTORE PUSH2 0xEC7 DUP5 DUP3 PUSH32 0x0 PUSH2 0xE1E JUMP JUMPDEST PUSH1 0x40 MLOAD SWAP4 DUP5 MSTORE PUSH1 0x1 PUSH1 0x1 PUSH1 0xA0 SHL SUB AND SWAP3 LOG2 JUMP JUMPDEST PUSH4 0x447B0F67 PUSH1 0xE0 SHL PUSH0 MSTORE PUSH1 0x4 PUSH0 REVERT JUMPDEST PUSH0 DUP2 DUP2 MSTORE PUSH1 0x20 DUP2 DUP2 MSTORE PUSH1 0x40 DUP1 DUP4 KECCAK256 PUSH1 0x1 PUSH1 0x1 PUSH1 0xA0 SHL SUB DUP7 AND DUP5 MSTORE SWAP1 SWAP2 MSTORE SWAP1 KECCAK256 SLOAD PUSH1 0xFF AND PUSH2 0xCAA JUMPI PUSH0 DUP2 DUP2 MSTORE PUSH1 0x20 DUP2 DUP2 MSTORE PUSH1 0x40 DUP1 DUP4 KECCAK256 PUSH1 0x1 PUSH1 0x1 PUSH1 0xA0 SHL SUB SWAP6 SWAP1 SWAP6 AND DUP1 DUP5 MSTORE SWAP5 SWAP1 SWAP2 MSTORE DUP2 KECCAK256 DUP1 SLOAD PUSH1 0xFF NOT AND PUSH1 0x1 OR SWAP1 SSTORE CALLER SWAP3 SWAP2 SWAP1 PUSH32 0x2F8788117E7EFF1D82E926EC794901D17C78024A50270940304540A733656F0D SWAP1 DUP1 LOG4 PUSH1 0x1 SWAP1 JUMP JUMPDEST PUSH0 DUP2 DUP2 MSTORE PUSH1 0x20 DUP2 DUP2 MSTORE PUSH1 0x40 DUP1 DUP4 KECCAK256 PUSH1 0x1 PUSH1 0x1 PUSH1 0xA0 SHL SUB DUP7 AND DUP5 MSTORE SWAP1 SWAP2 MSTORE SWAP1 KECCAK256 SLOAD PUSH1 0xFF AND ISZERO PUSH2 0xCAA JUMPI PUSH0 DUP2 DUP2 MSTORE PUSH1 0x20 DUP2 DUP2 MSTORE PUSH1 0x40 DUP1 DUP4 KECCAK256 PUSH1 0x1 PUSH1 0x1 PUSH1 0xA0 SHL SUB SWAP6 SWAP1 SWAP6 AND DUP1 DUP5 MSTORE SWAP5 SWAP1 SWAP2 MSTORE DUP2 KECCAK256 DUP1 SLOAD PUSH1 0xFF NOT AND SWAP1 SSTORE CALLER SWAP3 SWAP2 SWAP1 PUSH32 0xF6391F5C32D9C69D2A47EA670B442974B53935D1EDC7FD64EB21E047A839171B SWAP1 DUP1 LOG4 PUSH1 0x1 SWAP1 JUMP JUMPDEST PUSH1 0x40 MLOAD PUSH4 0x23B872DD PUSH1 0xE0 SHL PUSH1 0x20 DUP3 ADD MSTORE PUSH1 0x1 PUSH1 0x1 PUSH1 0xA0 SHL SUB SWAP3 DUP4 AND PUSH1 0x24 DUP3 ADD MSTORE SWAP3 SWAP1 SWAP2 AND PUSH1 0x44 DUP4 ADD MSTORE PUSH1 0x64 DUP1 DUP4 ADD SWAP4 SWAP1 SWAP4 MSTORE SWAP2 DUP2 MSTORE PUSH2 0xE5E SWAP2 PUSH2 0xE59 PUSH1 0x84 DUP4 PUSH2 0xCD3 JUMP JUMPDEST SWAP1 PUSH0 PUSH1 0x20 SWAP2 DUP3 DUP2 MLOAD SWAP2 ADD DUP3 DUP6 GAS CALL ISZERO PUSH2 0x1087 JUMPI PUSH0 MLOAD RETURNDATASIZE PUSH2 0x107E JUMPI POP PUSH1 0x1 PUSH1 0x1 PUSH1 0xA0 SHL SUB DUP2 AND EXTCODESIZE ISZERO JUMPDEST PUSH2 0x105E JUMPI POP JUMP JUMPDEST PUSH4 0x5274AFE7 PUSH1 0xE0 SHL PUSH0 SWAP1 DUP2 MSTORE PUSH1 0x1 PUSH1 0x1 PUSH1 0xA0 SHL SUB SWAP2 SWAP1 SWAP2 AND PUSH1 0x4 MSTORE PUSH1 0x24 SWAP1 REVERT JUMPDEST PUSH1 0x1 EQ ISZERO PUSH2 0x1057 JUMP JUMPDEST PUSH1 0x40 MLOAD RETURNDATASIZE PUSH0 DUP3 RETURNDATACOPY RETURNDATASIZE SWAP1 REVERT INVALID LOG2 PUSH5 0x6970667358 0x22 SLT KECCAK256 PUSH22 0xF1D89420D65F0FDDF3B02EA5972F1D7D1F14966D5C6 PUSH17 0x1E52C18CDB657FDD64736F6C634300081C STOP CALLER 0x2F DUP8 DUP9 GT PUSH31 0x7EFF1D82E926EC794901D17C78024A50270940304540A733656F0D7D7FFB7A CALLVALUE DUP15 SHR PUSH11 0x2869081A26547B49160DD RETURNDATASIZE 0xF7 0x2D SAR PUSH22 0xA570EB9B698292EC089CFCBF844E824FEEE5F634CBC4 DUP9 CODESIZE 0x22 SWAP2 RETURN 0xC9 0xE0 0xDE MSIZE SDIV RETURN 0xC3 ADDMOD SLT CODECOPY 0xD 0xD8 ORIGIN LOG1 0xEF JUMPDEST TIMESTAMP CALL DUP6 CALLER 0xD6 PUSH27 0x183A193EA6C3FABFAA3BDABC3FC0E3F65B19B517DF6E8CF6C17DA3 DUP7 TSTORE SWAP7 GASLIMIT SLOAD PUSH14 0xB4630D07C45803FB99F9B61DD452 0xDE DUP14 0xE1 0xCD 0x21 MSIZE 0xD2 SLOAD PUSH9 0x2563ED446791DCD2BB PUSH7 0xAA531EBAF528BC 0xE4 SWAP4 0xE5 PUSH32 0x37313263799851BC364A49807205CE4D355092EF5A8A18F56E8913CF4A201FB 0xE2 DUP8 DUP3 JUMPDEST MULMOD JUMP SWAP4 0xC2 OR PUSH22 0xDC083EB4DA7563BBD761324B5158D9D40AF7C7174AFE CODECOPY 0xB0 0xB3 BYTE PUSH22 0x77C44FC33B51785D261C3B3E8C2CFE2D0E108B9AB2B1 0xFB PUSH17 0x3FF9E9E49ABA4EBDC85C36152BAD3228B6 PUSH23 0xF7D3CD4284A5443F17F1962B36E491B30A40B2405849E5 SWAP8 0xBA PUSH0 0xB5 "
				},
				"gasEstimates": {
					"creation": {
						"codeDepositCost": "859200",
						"executionCost": "infinite",
						"totalCost": "infinite"
					},
					"external": {
						"DEFAULT_ADMIN_ROLE()": "438",
						"addRewards(uint256)": "infinite",
						"addStakingPlan(uint256,uint256)": "149734",
						"calculatePendingRewards(address)": "infinite",
						"claimRewards()": "infinite",
						"emergencyWithdraw()": "infinite",
						"getAvailableDurations()": "infinite",
						"getContractStats()": "6922",
						"getRoleAdmin(bytes32)": "2407",
						"getStakingPlan(uint256)": "4724",
						"getUserStakingInfo(address)": "infinite",
						"grantRole(bytes32,address)": "33377",
						"hasRole(bytes32,address)": "2726",
						"renounceRole(bytes32,address)": "28967",
						"revokeRole(bytes32,address)": "33638",
						"setStakingPaused(bool)": "57098",
						"stake(uint256,uint256)": "infinite",
						"supportsInterface(bytes4)": "270",
						"unstake()": "infinite",
						"updateStakingPlan(uint256,uint256,bool)": "infinite"
					},
					"internal": {
						"_addStakingPlan(uint256,uint256)": "infinite",
						"_claimRewards(address,uint256)": "infinite"
					}
				},
				"methodIdentifiers": {
					"DEFAULT_ADMIN_ROLE()": "a217fddf",
					"addRewards(uint256)": "beceed39",
					"addStakingPlan(uint256,uint256)": "5ef23fa9",
					"calculatePendingRewards(address)": "097aad10",
					"claimRewards()": "372500ab",
					"emergencyWithdraw()": "db2e21bc",
					"getAvailableDurations()": "b6b365c2",
					"getContractStats()": "dfe6b5d6",
					"getRoleAdmin(bytes32)": "248a9ca3",
					"getStakingPlan(uint256)": "9fca9c22",
					"getUserStakingInfo(address)": "80933608",
					"grantRole(bytes32,address)": "2f2ff15d",
					"hasRole(bytes32,address)": "91d14854",
					"renounceRole(bytes32,address)": "36568abe",
					"revokeRole(bytes32,address)": "d547741f",
					"setStakingPaused(bool)": "15b31bbb",
					"stake(uint256,uint256)": "7b0472f0",
					"supportsInterface(bytes4)": "01ffc9a7",
					"unstake()": "2def6620",
					"updateStakingPlan(uint256,uint256,bool)": "aea1b6ef"
				}
			},
			"storageLayout": {
				"storage": [
					{
						"astId": 26,
						"contract": "contracts/WallyStaking.sol:WallyStaking",
						"label": "_roles",
						"offset": 0,
						"slot": "0",
						"type": "t_mapping(t_bytes32,t_struct(RoleData)21_storage)"
					},
					{
						"astId": 479,
						"contract": "contracts/WallyStaking.sol:WallyStaking",
						"label": "_status",
						"offset": 0,
						"slot": "1",
						"type": "t_uint256"
					},
					{
						"astId": 1211,
						"contract": "contracts/WallyStaking.sol:WallyStaking",
						"label": "_stakingPlans",
						"offset": 0,
						"slot": "2",
						"type": "t_mapping(t_uint256,t_struct(StakingPlan)1188_storage)"
					},
					{
						"astId": 1216,
						"contract": "contracts/WallyStaking.sol:WallyStaking",
						"label": "_userStakingData",
						"offset": 0,
						"slot": "3",
						"type": "t_mapping(t_address,t_struct(UserStakingData)1203_storage)"
					},
					{
						"astId": 1218,
						"contract": "contracts/WallyStaking.sol:WallyStaking",
						"label": "_totalStaked",
						"offset": 0,
						"slot": "4",
						"type": "t_uint256"
					},
					{
						"astId": 1220,
						"contract": "contracts/WallyStaking.sol:WallyStaking",
						"label": "_rewardsPool",
						"offset": 0,
						"slot": "5",
						"type": "t_uint256"
					},
					{
						"astId": 1222,
						"contract": "contracts/WallyStaking.sol:WallyStaking",
						"label": "_stakingPaused",
						"offset": 0,
						"slot": "6",
						"type": "t_bool"
					},
					{
						"astId": 1225,
						"contract": "contracts/WallyStaking.sol:WallyStaking",
						"label": "_availableDurations",
						"offset": 0,
						"slot": "7",
						"type": "t_array(t_uint256)dyn_storage"
					}
				],
				"types": {
					"t_address": {
						"encoding": "inplace",
						"label": "address",
						"numberOfBytes": "20"
					},
					"t_array(t_uint256)dyn_storage": {
						"base": "t_uint256",
						"encoding": "dynamic_array",
						"label": "uint256[]",
						"numberOfBytes": "32"
					},
					"t_bool": {
						"encoding": "inplace",
						"label": "bool",
						"numberOfBytes": "1"
					},
					"t_bytes32": {
						"encoding": "inplace",
						"label": "bytes32",
						"numberOfBytes": "32"
					},
					"t_mapping(t_address,t_bool)": {
						"encoding": "mapping",
						"key": "t_address",
						"label": "mapping(address => bool)",
						"numberOfBytes": "32",
						"value": "t_bool"
					},
					"t_mapping(t_address,t_struct(UserStakingData)1203_storage)": {
						"encoding": "mapping",
						"key": "t_address",
						"label": "mapping(address => struct WallyStaking.UserStakingData)",
						"numberOfBytes": "32",
						"value": "t_struct(UserStakingData)1203_storage"
					},
					"t_mapping(t_bytes32,t_struct(RoleData)21_storage)": {
						"encoding": "mapping",
						"key": "t_bytes32",
						"label": "mapping(bytes32 => struct AccessControl.RoleData)",
						"numberOfBytes": "32",
						"value": "t_struct(RoleData)21_storage"
					},
					"t_mapping(t_uint256,t_struct(StakingPlan)1188_storage)": {
						"encoding": "mapping",
						"key": "t_uint256",
						"label": "mapping(uint256 => struct WallyStaking.StakingPlan)",
						"numberOfBytes": "32",
						"value": "t_struct(StakingPlan)1188_storage"
					},
					"t_struct(RoleData)21_storage": {
						"encoding": "inplace",
						"label": "struct AccessControl.RoleData",
						"members": [
							{
								"astId": 18,
								"contract": "contracts/WallyStaking.sol:WallyStaking",
								"label": "hasRole",
								"offset": 0,
								"slot": "0",
								"type": "t_mapping(t_address,t_bool)"
							},
							{
								"astId": 20,
								"contract": "contracts/WallyStaking.sol:WallyStaking",
								"label": "adminRole",
								"offset": 0,
								"slot": "1",
								"type": "t_bytes32"
							}
						],
						"numberOfBytes": "64"
					},
					"t_struct(StakingPlan)1188_storage": {
						"encoding": "inplace",
						"label": "struct WallyStaking.StakingPlan",
						"members": [
							{
								"astId": 1185,
								"contract": "contracts/WallyStaking.sol:WallyStaking",
								"label": "isActive",
								"offset": 0,
								"slot": "0",
								"type": "t_bool"
							},
							{
								"astId": 1187,
								"contract": "contracts/WallyStaking.sol:WallyStaking",
								"label": "apr",
								"offset": 0,
								"slot": "1",
								"type": "t_uint256"
							}
						],
						"numberOfBytes": "64"
					},
					"t_struct(UserStakingData)1203_storage": {
						"encoding": "inplace",
						"label": "struct WallyStaking.UserStakingData",
						"members": [
							{
								"astId": 1190,
								"contract": "contracts/WallyStaking.sol:WallyStaking",
								"label": "stakedAmount",
								"offset": 0,
								"slot": "0",
								"type": "t_uint256"
							},
							{
								"astId": 1192,
								"contract": "contracts/WallyStaking.sol:WallyStaking",
								"label": "stakingStartTime",
								"offset": 0,
								"slot": "1",
								"type": "t_uint256"
							},
							{
								"astId": 1194,
								"contract": "contracts/WallyStaking.sol:WallyStaking",
								"label": "lastClaimTime",
								"offset": 0,
								"slot": "2",
								"type": "t_uint256"
							},
							{
								"astId": 1196,
								"contract": "contracts/WallyStaking.sol:WallyStaking",
								"label": "stakingEndTime",
								"offset": 0,
								"slot": "3",
								"type": "t_uint256"
							},
							{
								"astId": 1198,
								"contract": "contracts/WallyStaking.sol:WallyStaking",
								"label": "duration",
								"offset": 0,
								"slot": "4",
								"type": "t_uint256"
							},
							{
								"astId": 1200,
								"contract": "contracts/WallyStaking.sol:WallyStaking",
								"label": "apr",
								"offset": 0,
								"slot": "5",
								"type": "t_uint256"
							},
							{
								"astId": 1202,
								"contract": "contracts/WallyStaking.sol:WallyStaking",
								"label": "isActive",
								"offset": 0,
								"slot": "6",
								"type": "t_bool"
							}
						],
						"numberOfBytes": "224"
					},
					"t_uint256": {
						"encoding": "inplace",
						"label": "uint256",
						"numberOfBytes": "32"
					}
				}
			},
			"userdoc": {
				"kind": "user",
				"methods": {},
				"version": 1
			}
		}
	}
}