{
	"contracts/WallyVesting.sol": {
		"WallyVesting": {
			"abi": [
				{
					"inputs": [
						{
							"internalType": "address",
							"name": "_token",
							"type": "address"
						},
						{
							"internalType": "address",
							"name": "_beneficiary",
							"type": "address"
						},
						{
							"internalType": "uint256",
							"name": "_start",
							"type": "uint256"
						},
						{
							"internalType": "uint256",
							"name": "_cliffDuration",
							"type": "uint256"
						},
						{
							"internalType": "uint256",
							"name": "_duration",
							"type": "uint256"
						},
						{
							"internalType": "address",
							"name": "_admin",
							"type": "address"
						}
					],
					"stateMutability": "nonpayable",
					"type": "constructor"
				},
				{
					"inputs": [],
					"name": "AccessControlBadConfirmation",
					"type": "error"
				},
				{
					"inputs": [
						{
							"internalType": "address",
							"name": "account",
							"type": "address"
						},
						{
							"internalType": "bytes32",
							"name": "neededRole",
							"type": "bytes32"
						}
					],
					"name": "AccessControlUnauthorizedAccount",
					"type": "error"
				},
				{
					"anonymous": false,
					"inputs": [
						{
							"indexed": true,
							"internalType": "bytes32",
							"name": "role",
							"type": "bytes32"
						},
						{
							"indexed": true,
							"internalType": "bytes32",
							"name": "previousAdminRole",
							"type": "bytes32"
						},
						{
							"indexed": true,
							"internalType": "bytes32",
							"name": "newAdminRole",
							"type": "bytes32"
						}
					],
					"name": "RoleAdminChanged",
					"type": "event"
				},
				{
					"anonymous": false,
					"inputs": [
						{
							"indexed": true,
							"internalType": "bytes32",
							"name": "role",
							"type": "bytes32"
						},
						{
							"indexed": true,
							"internalType": "address",
							"name": "account",
							"type": "address"
						},
						{
							"indexed": true,
							"internalType": "address",
							"name": "sender",
							"type": "address"
						}
					],
					"name": "RoleGranted",
					"type": "event"
				},
				{
					"anonymous": false,
					"inputs": [
						{
							"indexed": true,
							"internalType": "bytes32",
							"name": "role",
							"type": "bytes32"
						},
						{
							"indexed": true,
							"internalType": "address",
							"name": "account",
							"type": "address"
						},
						{
							"indexed": true,
							"internalType": "address",
							"name": "sender",
							"type": "address"
						}
					],
					"name": "RoleRevoked",
					"type": "event"
				},
				{
					"anonymous": false,
					"inputs": [
						{
							"indexed": false,
							"internalType": "uint256",
							"name": "amount",
							"type": "uint256"
						}
					],
					"name": "TokensReleased",
					"type": "event"
				},
				{
					"anonymous": false,
					"inputs": [],
					"name": "VestingRevoked",
					"type": "event"
				},
				{
					"inputs": [],
					"name": "ADMIN_ROLE",
					"outputs": [
						{
							"internalType": "bytes32",
							"name": "",
							"type": "bytes32"
						}
					],
					"stateMutability": "view",
					"type": "function"
				},
				{
					"inputs": [],
					"name": "DEFAULT_ADMIN_ROLE",
					"outputs": [
						{
							"internalType": "bytes32",
							"name": "",
							"type": "bytes32"
						}
					],
					"stateMutability": "view",
					"type": "function"
				},
				{
					"inputs": [],
					"name": "beneficiary",
					"outputs": [
						{
							"internalType": "address",
							"name": "",
							"type": "address"
						}
					],
					"stateMutability": "view",
					"type": "function"
				},
				{
					"inputs": [],
					"name": "cliff",
					"outputs": [
						{
							"internalType": "uint256",
							"name": "",
							"type": "uint256"
						}
					],
					"stateMutability": "view",
					"type": "function"
				},
				{
					"inputs": [],
					"name": "duration",
					"outputs": [
						{
							"internalType": "uint256",
							"name": "",
							"type": "uint256"
						}
					],
					"stateMutability": "view",
					"type": "function"
				},
				{
					"inputs": [
						{
							"internalType": "bytes32",
							"name": "role",
							"type": "bytes32"
						}
					],
					"name": "getRoleAdmin",
					"outputs": [
						{
							"internalType": "bytes32",
							"name": "",
							"type": "bytes32"
						}
					],
					"stateMutability": "view",
					"type": "function"
				},
				{
					"inputs": [
						{
							"internalType": "bytes32",
							"name": "role",
							"type": "bytes32"
						},
						{
							"internalType": "address",
							"name": "account",
							"type": "address"
						}
					],
					"name": "grantRole",
					"outputs": [],
					"stateMutability": "nonpayable",
					"type": "function"
				},
				{
					"inputs": [
						{
							"internalType": "bytes32",
							"name": "role",
							"type": "bytes32"
						},
						{
							"internalType": "address",
							"name": "account",
							"type": "address"
						}
					],
					"name": "hasRole",
					"outputs": [
						{
							"internalType": "bool",
							"name": "",
							"type": "bool"
						}
					],
					"stateMutability": "view",
					"type": "function"
				},
				{
					"inputs": [],
					"name": "releasableAmount",
					"outputs": [
						{
							"internalType": "uint256",
							"name": "",
							"type": "uint256"
						}
					],
					"stateMutability": "view",
					"type": "function"
				},
				{
					"inputs": [],
					"name": "release",
					"outputs": [],
					"stateMutability": "nonpayable",
					"type": "function"
				},
				{
					"inputs": [],
					"name": "released",
					"outputs": [
						{
							"internalType": "uint256",
							"name": "",
							"type": "uint256"
						}
					],
					"stateMutability": "view",
					"type": "function"
				},
				{
					"inputs": [
						{
							"internalType": "bytes32",
							"name": "role",
							"type": "bytes32"
						},
						{
							"internalType": "address",
							"name": "callerConfirmation",
							"type": "address"
						}
					],
					"name": "renounceRole",
					"outputs": [],
					"stateMutability": "nonpayable",
					"type": "function"
				},
				{
					"inputs": [],
					"name": "revoke",
					"outputs": [],
					"stateMutability": "nonpayable",
					"type": "function"
				},
				{
					"inputs": [
						{
							"internalType": "bytes32",
							"name": "role",
							"type": "bytes32"
						},
						{
							"internalType": "address",
							"name": "account",
							"type": "address"
						}
					],
					"name": "revokeRole",
					"outputs": [],
					"stateMutability": "nonpayable",
					"type": "function"
				},
				{
					"inputs": [],
					"name": "revoked",
					"outputs": [
						{
							"internalType": "bool",
							"name": "",
							"type": "bool"
						}
					],
					"stateMutability": "view",
					"type": "function"
				},
				{
					"inputs": [],
					"name": "start",
					"outputs": [
						{
							"internalType": "uint256",
							"name": "",
							"type": "uint256"
						}
					],
					"stateMutability": "view",
					"type": "function"
				},
				{
					"inputs": [
						{
							"internalType": "bytes4",
							"name": "interfaceId",
							"type": "bytes4"
						}
					],
					"name": "supportsInterface",
					"outputs": [
						{
							"internalType": "bool",
							"name": "",
							"type": "bool"
						}
					],
					"stateMutability": "view",
					"type": "function"
				},
				{
					"inputs": [],
					"name": "token",
					"outputs": [
						{
							"internalType": "contract IERC20",
							"name": "",
							"type": "address"
						}
					],
					"stateMutability": "view",
					"type": "function"
				},
				{
					"inputs": [],
					"name": "vestedAmount",
					"outputs": [
						{
							"internalType": "uint256",
							"name": "",
							"type": "uint256"
						}
					],
					"stateMutability": "view",
					"type": "function"
				}
			],
			"devdoc": {
				"details": "Token vesting with cliff + linear release. Admin (DAO) can revoke. - If revoked, vested tokens remain claimable; unvested tokens return to admin. - The beneficiary calls `release()` to get vested tokens.",
				"errors": {
					"AccessControlBadConfirmation()": [
						{
							"details": "The caller of a function is not the expected one. NOTE: Don't confuse with {AccessControlUnauthorizedAccount}."
						}
					],
					"AccessControlUnauthorizedAccount(address,bytes32)": [
						{
							"details": "The `account` is missing a role."
						}
					]
				},
				"events": {
					"RoleAdminChanged(bytes32,bytes32,bytes32)": {
						"details": "Emitted when `newAdminRole` is set as ``role``'s admin role, replacing `previousAdminRole` `DEFAULT_ADMIN_ROLE` is the starting admin for all roles, despite {RoleAdminChanged} not being emitted signaling this."
					},
					"RoleGranted(bytes32,address,address)": {
						"details": "Emitted when `account` is granted `role`. `sender` is the account that originated the contract call. This account bears the admin role (for the granted role). Expected in cases where the role was granted using the internal {AccessControl-_grantRole}."
					},
					"RoleRevoked(bytes32,address,address)": {
						"details": "Emitted when `account` is revoked `role`. `sender` is the account that originated the contract call:   - if using `revokeRole`, it is the admin role bearer   - if using `renounceRole`, it is the role bearer (i.e. `account`)"
					}
				},
				"kind": "dev",
				"methods": {
					"getRoleAdmin(bytes32)": {
						"details": "Returns the admin role that controls `role`. See {grantRole} and {revokeRole}. To change a role's admin, use {_setRoleAdmin}."
					},
					"grantRole(bytes32,address)": {
						"details": "Grants `role` to `account`. If `account` had not been already granted `role`, emits a {RoleGranted} event. Requirements: - the caller must have ``role``'s admin role. May emit a {RoleGranted} event."
					},
					"hasRole(bytes32,address)": {
						"details": "Returns `true` if `account` has been granted `role`."
					},
					"releasableAmount()": {
						"details": "Calculates how many tokens can be released right now."
					},
					"release()": {
						"details": "Release vested tokens to beneficiary."
					},
					"renounceRole(bytes32,address)": {
						"details": "Revokes `role` from the calling account. Roles are often managed via {grantRole} and {revokeRole}: this function's purpose is to provide a mechanism for accounts to lose their privileges if they are compromised (such as when a trusted device is misplaced). If the calling account had been revoked `role`, emits a {RoleRevoked} event. Requirements: - the caller must be `callerConfirmation`. May emit a {RoleRevoked} event."
					},
					"revoke()": {
						"details": "Allows admin to revoke vesting. Already-vested remain claimable; unvested returned to admin."
					},
					"revokeRole(bytes32,address)": {
						"details": "Revokes `role` from `account`. If `account` had been granted `role`, emits a {RoleRevoked} event. Requirements: - the caller must have ``role``'s admin role. May emit a {RoleRevoked} event."
					},
					"supportsInterface(bytes4)": {
						"details": "See {IERC165-supportsInterface}."
					},
					"vestedAmount()": {
						"details": "Calculates total vested tokens at the current time."
					}
				},
				"title": "WallyVesting",
				"version": 1
			},
			"evm": {
				"assembly": "    /* \"contracts/WallyVesting.sol\":427:3290  contract WallyVesting is AccessControl {... */\n  mstore(0x40, 0x0120)\n    /* \"contracts/WallyVesting.sol\":942:1579  constructor(... */\n  callvalue\n  dup1\n  iszero\n  tag_1\n  jumpi\n  revert(0x00, 0x00)\ntag_1:\n  pop\n  mload(0x40)\n  sub(codesize, bytecodeSize)\n  dup1\n  bytecodeSize\n  dup4\n  codecopy\n  dup2\n  dup2\n  add\n  0x40\n  mstore\n  dup2\n  add\n  swap1\n  tag_2\n  swap2\n  swap1\n  tag_3\n  jump\t// in\ntag_2:\n    /* \"contracts/WallyVesting.sol\":1157:1158  0 */\n  0x00\n    /* \"contracts/WallyVesting.sol\":1139:1159  _token != address(0) */\n  0xffffffffffffffffffffffffffffffffffffffff\n  and\n    /* \"contracts/WallyVesting.sol\":1139:1145  _token */\n  dup7\n    /* \"contracts/WallyVesting.sol\":1139:1159  _token != address(0) */\n  0xffffffffffffffffffffffffffffffffffffffff\n  and\n  sub\n    /* \"contracts/WallyVesting.sol\":1131:1177  require(_token != address(0), \"Invalid token\") */\n  tag_6\n  jumpi\n  mload(0x40)\n  0x08c379a000000000000000000000000000000000000000000000000000000000\n  dup2\n  mstore\n  0x04\n  add\n  tag_7\n  swap1\n  tag_8\n  jump\t// in\ntag_7:\n  mload(0x40)\n  dup1\n  swap2\n  sub\n  swap1\n  revert\ntag_6:\n    /* \"contracts/WallyVesting.sol\":1219:1220  0 */\n  0x00\n    /* \"contracts/WallyVesting.sol\":1195:1221  _beneficiary != address(0) */\n  0xffffffffffffffffffffffffffffffffffffffff\n  and\n    /* \"contracts/WallyVesting.sol\":1195:1207  _beneficiary */\n  dup6\n    /* \"contracts/WallyVesting.sol\":1195:1221  _beneficiary != address(0) */\n  0xffffffffffffffffffffffffffffffffffffffff\n  and\n  sub\n    /* \"contracts/WallyVesting.sol\":1187:1245  require(_beneficiary != address(0), \"Invalid beneficiary\") */\n  tag_9\n  jumpi\n  mload(0x40)\n  0x08c379a000000000000000000000000000000000000000000000000000000000\n  dup2\n  mstore\n  0x04\n  add\n  tag_10\n  swap1\n  tag_11\n  jump\t// in\ntag_10:\n  mload(0x40)\n  dup1\n  swap2\n  sub\n  swap1\n  revert\ntag_9:\n    /* \"contracts/WallyVesting.sol\":1281:1282  0 */\n  0x00\n    /* \"contracts/WallyVesting.sol\":1263:1283  _admin != address(0) */\n  0xffffffffffffffffffffffffffffffffffffffff\n  and\n    /* \"contracts/WallyVesting.sol\":1263:1269  _admin */\n  dup2\n    /* \"contracts/WallyVesting.sol\":1263:1283  _admin != address(0) */\n  0xffffffffffffffffffffffffffffffffffffffff\n  and\n  sub\n    /* \"contracts/WallyVesting.sol\":1255:1301  require(_admin != address(0), \"Invalid admin\") */\n  tag_12\n  jumpi\n  mload(0x40)\n  0x08c379a000000000000000000000000000000000000000000000000000000000\n  dup2\n  mstore\n  0x04\n  add\n  tag_13\n  swap1\n  tag_14\n  jump\t// in\ntag_13:\n  mload(0x40)\n  dup1\n  swap2\n  sub\n  swap1\n  revert\ntag_12:\n    /* \"contracts/WallyVesting.sol\":1337:1346  _duration */\n  dup2\n    /* \"contracts/WallyVesting.sol\":1319:1333  _cliffDuration */\n  dup4\n    /* \"contracts/WallyVesting.sol\":1319:1346  _cliffDuration <= _duration */\n  gt\n  iszero\n    /* \"contracts/WallyVesting.sol\":1311:1367  require(_cliffDuration <= _duration, \"Cliff > duration\") */\n  tag_15\n  jumpi\n  mload(0x40)\n  0x08c379a000000000000000000000000000000000000000000000000000000000\n  dup2\n  mstore\n  0x04\n  add\n  tag_16\n  swap1\n  tag_17\n  jump\t// in\ntag_16:\n  mload(0x40)\n  dup1\n  swap2\n  sub\n  swap1\n  revert\ntag_15:\n    /* \"contracts/WallyVesting.sol\":1378:1408  _grantRole(ADMIN_ROLE, _admin) */\n  tag_18\n    /* \"contracts/WallyVesting.sol\":509:532  keccak256(\"ADMIN_ROLE\") */\n  0xa49807205ce4d355092ef5a8a18f56e8913cf4a201fbe287825b095693c21775\n    /* \"contracts/WallyVesting.sol\":1401:1407  _admin */\n  dup3\n    /* \"contracts/WallyVesting.sol\":1378:1388  _grantRole */\n  shl(0x20, tag_19)\n    /* \"contracts/WallyVesting.sol\":1378:1408  _grantRole(ADMIN_ROLE, _admin) */\n  0x20\n  shr\n  jump\t// in\ntag_18:\n  pop\n    /* \"contracts/WallyVesting.sol\":1434:1440  _token */\n  dup6\n    /* \"contracts/WallyVesting.sol\":1419:1441  token = IERC20(_token) */\n  0xffffffffffffffffffffffffffffffffffffffff\n  and\n  0x80\n  dup2\n  0xffffffffffffffffffffffffffffffffffffffff\n  and\n  dup2\n  mstore\n  pop\n  pop\n    /* \"contracts/WallyVesting.sol\":1465:1477  _beneficiary */\n  dup5\n    /* \"contracts/WallyVesting.sol\":1451:1477  beneficiary = _beneficiary */\n  0xffffffffffffffffffffffffffffffffffffffff\n  and\n  0xa0\n  dup2\n  0xffffffffffffffffffffffffffffffffffffffff\n  and\n  dup2\n  mstore\n  pop\n  pop\n    /* \"contracts/WallyVesting.sol\":1495:1501  _start */\n  dup4\n    /* \"contracts/WallyVesting.sol\":1487:1501  start = _start */\n  0xe0\n  dup2\n  dup2\n  mstore\n  pop\n  pop\n    /* \"contracts/WallyVesting.sol\":1528:1542  _cliffDuration */\n  dup3\n    /* \"contracts/WallyVesting.sol\":1519:1525  _start */\n  dup5\n    /* \"contracts/WallyVesting.sol\":1519:1542  _start + _cliffDuration */\n  tag_20\n  swap2\n  swap1\n  tag_21\n  jump\t// in\ntag_20:\n    /* \"contracts/WallyVesting.sol\":1511:1542  cliff = _start + _cliffDuration */\n  0xc0\n  dup2\n  dup2\n  mstore\n  pop\n  pop\n    /* \"contracts/WallyVesting.sol\":1563:1572  _duration */\n  dup2\n    /* \"contracts/WallyVesting.sol\":1552:1572  duration = _duration */\n  0x0100\n  dup2\n  dup2\n  mstore\n  pop\n  pop\n    /* \"contracts/WallyVesting.sol\":942:1579  constructor(... */\n  pop\n  pop\n  pop\n  pop\n  pop\n  pop\n    /* \"contracts/WallyVesting.sol\":427:3290  contract WallyVesting is AccessControl {... */\n  jump(tag_22)\n    /* \"@openzeppelin/contracts/access/AccessControl.sol\":6179:6495  function _grantRole(bytes32 role, address account) internal virtual returns (bool) {... */\ntag_19:\n    /* \"@openzeppelin/contracts/access/AccessControl.sol\":6256:6260  bool */\n  0x00\n    /* \"@openzeppelin/contracts/access/AccessControl.sol\":6277:6299  hasRole(role, account) */\n  tag_24\n    /* \"@openzeppelin/contracts/access/AccessControl.sol\":6285:6289  role */\n  dup4\n    /* \"@openzeppelin/contracts/access/AccessControl.sol\":6291:6298  account */\n  dup4\n    /* \"@openzeppelin/contracts/access/AccessControl.sol\":6277:6284  hasRole */\n  shl(0x20, tag_25)\n    /* \"@openzeppelin/contracts/access/AccessControl.sol\":6277:6299  hasRole(role, account) */\n  0x20\n  shr\n  jump\t// in\ntag_24:\n    /* \"@openzeppelin/contracts/access/AccessControl.sol\":6272:6489  if (!hasRole(role, account)) {... */\n  tag_26\n  jumpi\n    /* \"@openzeppelin/contracts/access/AccessControl.sol\":6347:6351  true */\n  0x01\n    /* \"@openzeppelin/contracts/access/AccessControl.sol\":6315:6321  _roles */\n  0x00\n    /* \"@openzeppelin/contracts/access/AccessControl.sol\":6315:6327  _roles[role] */\n  0x00\n    /* \"@openzeppelin/contracts/access/AccessControl.sol\":6322:6326  role */\n  dup6\n    /* \"@openzeppelin/contracts/access/AccessControl.sol\":6315:6327  _roles[role] */\n  dup2\n  mstore\n  0x20\n  add\n  swap1\n  dup2\n  mstore\n  0x20\n  add\n  0x00\n  keccak256\n    /* \"@openzeppelin/contracts/access/AccessControl.sol\":6315:6335  _roles[role].hasRole */\n  0x00\n  add\n    /* \"@openzeppelin/contracts/access/AccessControl.sol\":6315:6344  _roles[role].hasRole[account] */\n  0x00\n    /* \"@openzeppelin/contracts/access/AccessControl.sol\":6336:6343  account */\n  dup5\n    /* \"@openzeppelin/contracts/access/AccessControl.sol\":6315:6344  _roles[role].hasRole[account] */\n  0xffffffffffffffffffffffffffffffffffffffff\n  and\n  0xffffffffffffffffffffffffffffffffffffffff\n  and\n  dup2\n  mstore\n  0x20\n  add\n  swap1\n  dup2\n  mstore\n  0x20\n  add\n  0x00\n  keccak256\n  0x00\n    /* \"@openzeppelin/contracts/access/AccessControl.sol\":6315:6351  _roles[role].hasRole[account] = true */\n  0x0100\n  exp\n  dup2\n  sload\n  dup2\n  0xff\n  mul\n  not\n  and\n  swap1\n  dup4\n  iszero\n  iszero\n  mul\n  or\n  swap1\n  sstore\n  pop\n    /* \"@openzeppelin/contracts/access/AccessControl.sol\":6397:6409  _msgSender() */\n  tag_27\n    /* \"@openzeppelin/contracts/access/AccessControl.sol\":6397:6407  _msgSender */\n  shl(0x20, tag_28)\n    /* \"@openzeppelin/contracts/access/AccessControl.sol\":6397:6409  _msgSender() */\n  0x20\n  shr\n  jump\t// in\ntag_27:\n    /* \"@openzeppelin/contracts/access/AccessControl.sol\":6370:6410  RoleGranted(role, account, _msgSender()) */\n  0xffffffffffffffffffffffffffffffffffffffff\n  and\n    /* \"@openzeppelin/contracts/access/AccessControl.sol\":6388:6395  account */\n  dup3\n    /* \"@openzeppelin/contracts/access/AccessControl.sol\":6370:6410  RoleGranted(role, account, _msgSender()) */\n  0xffffffffffffffffffffffffffffffffffffffff\n  and\n    /* \"@openzeppelin/contracts/access/AccessControl.sol\":6382:6386  role */\n  dup5\n    /* \"@openzeppelin/contracts/access/AccessControl.sol\":6370:6410  RoleGranted(role, account, _msgSender()) */\n  0x2f8788117e7eff1d82e926ec794901d17c78024a50270940304540a733656f0d\n  mload(0x40)\n  mload(0x40)\n  dup1\n  swap2\n  sub\n  swap1\n  log4\n    /* \"@openzeppelin/contracts/access/AccessControl.sol\":6431:6435  true */\n  0x01\n    /* \"@openzeppelin/contracts/access/AccessControl.sol\":6424:6435  return true */\n  swap1\n  pop\n  jump(tag_23)\n    /* \"@openzeppelin/contracts/access/AccessControl.sol\":6272:6489  if (!hasRole(role, account)) {... */\ntag_26:\n    /* \"@openzeppelin/contracts/access/AccessControl.sol\":6473:6478  false */\n  0x00\n    /* \"@openzeppelin/contracts/access/AccessControl.sol\":6466:6478  return false */\n  swap1\n  pop\n    /* \"@openzeppelin/contracts/access/AccessControl.sol\":6179:6495  function _grantRole(bytes32 role, address account) internal virtual returns (bool) {... */\ntag_23:\n  swap3\n  swap2\n  pop\n  pop\n  jump\t// out\n    /* \"@openzeppelin/contracts/access/AccessControl.sol\":2854:2990  function hasRole(bytes32 role, address account) public view virtual returns (bool) {... */\ntag_25:\n    /* \"@openzeppelin/contracts/access/AccessControl.sol\":2931:2935  bool */\n  0x00\n    /* \"@openzeppelin/contracts/access/AccessControl.sol\":2954:2960  _roles */\n  0x00\n    /* \"@openzeppelin/contracts/access/AccessControl.sol\":2954:2966  _roles[role] */\n  0x00\n    /* \"@openzeppelin/contracts/access/AccessControl.sol\":2961:2965  role */\n  dup5\n    /* \"@openzeppelin/contracts/access/AccessControl.sol\":2954:2966  _roles[role] */\n  dup2\n  mstore\n  0x20\n  add\n  swap1\n  dup2\n  mstore\n  0x20\n  add\n  0x00\n  keccak256\n    /* \"@openzeppelin/contracts/access/AccessControl.sol\":2954:2974  _roles[role].hasRole */\n  0x00\n  add\n    /* \"@openzeppelin/contracts/access/AccessControl.sol\":2954:2983  _roles[role].hasRole[account] */\n  0x00\n    /* \"@openzeppelin/contracts/access/AccessControl.sol\":2975:2982  account */\n  dup4\n    /* \"@openzeppelin/contracts/access/AccessControl.sol\":2954:2983  _roles[role].hasRole[account] */\n  0xffffffffffffffffffffffffffffffffffffffff\n  and\n  0xffffffffffffffffffffffffffffffffffffffff\n  and\n  dup2\n  mstore\n  0x20\n  add\n  swap1\n  dup2\n  mstore\n  0x20\n  add\n  0x00\n  keccak256\n  0x00\n  swap1\n  sload\n  swap1\n  0x0100\n  exp\n  swap1\n  div\n  0xff\n  and\n    /* \"@openzeppelin/contracts/access/AccessControl.sol\":2947:2983  return _roles[role].hasRole[account] */\n  swap1\n  pop\n    /* \"@openzeppelin/contracts/access/AccessControl.sol\":2854:2990  function hasRole(bytes32 role, address account) public view virtual returns (bool) {... */\n  swap3\n  swap2\n  pop\n  pop\n  jump\t// out\n    /* \"@openzeppelin/contracts/utils/Context.sol\":656:752  function _msgSender() internal view virtual returns (address) {... */\ntag_28:\n    /* \"@openzeppelin/contracts/utils/Context.sol\":709:716  address */\n  0x00\n    /* \"@openzeppelin/contracts/utils/Context.sol\":735:745  msg.sender */\n  caller\n    /* \"@openzeppelin/contracts/utils/Context.sol\":728:745  return msg.sender */\n  swap1\n  pop\n    /* \"@openzeppelin/contracts/utils/Context.sol\":656:752  function _msgSender() internal view virtual returns (address) {... */\n  swap1\n  jump\t// out\n    /* \"#utility.yul\":88:205   */\ntag_33:\n    /* \"#utility.yul\":197:198   */\n  0x00\n    /* \"#utility.yul\":194:195   */\n  0x00\n    /* \"#utility.yul\":187:199   */\n  revert\n    /* \"#utility.yul\":334:460   */\ntag_35:\n    /* \"#utility.yul\":371:378   */\n  0x00\n    /* \"#utility.yul\":411:453   */\n  0xffffffffffffffffffffffffffffffffffffffff\n    /* \"#utility.yul\":404:409   */\n  dup3\n    /* \"#utility.yul\":400:454   */\n  and\n    /* \"#utility.yul\":389:454   */\n  swap1\n  pop\n    /* \"#utility.yul\":334:460   */\n  swap2\n  swap1\n  pop\n  jump\t// out\n    /* \"#utility.yul\":466:562   */\ntag_36:\n    /* \"#utility.yul\":503:510   */\n  0x00\n    /* \"#utility.yul\":532:556   */\n  tag_58\n    /* \"#utility.yul\":550:555   */\n  dup3\n    /* \"#utility.yul\":532:556   */\n  tag_35\n  jump\t// in\ntag_58:\n    /* \"#utility.yul\":521:556   */\n  swap1\n  pop\n    /* \"#utility.yul\":466:562   */\n  swap2\n  swap1\n  pop\n  jump\t// out\n    /* \"#utility.yul\":568:690   */\ntag_37:\n    /* \"#utility.yul\":641:665   */\n  tag_60\n    /* \"#utility.yul\":659:664   */\n  dup2\n    /* \"#utility.yul\":641:665   */\n  tag_36\n  jump\t// in\ntag_60:\n    /* \"#utility.yul\":634:639   */\n  dup2\n    /* \"#utility.yul\":631:666   */\n  eq\n    /* \"#utility.yul\":621:684   */\n  tag_61\n  jumpi\n    /* \"#utility.yul\":680:681   */\n  0x00\n    /* \"#utility.yul\":677:678   */\n  0x00\n    /* \"#utility.yul\":670:682   */\n  revert\n    /* \"#utility.yul\":621:684   */\ntag_61:\n    /* \"#utility.yul\":568:690   */\n  pop\n  jump\t// out\n    /* \"#utility.yul\":696:839   */\ntag_38:\n    /* \"#utility.yul\":753:758   */\n  0x00\n    /* \"#utility.yul\":784:790   */\n  dup2\n    /* \"#utility.yul\":778:791   */\n  mload\n    /* \"#utility.yul\":769:791   */\n  swap1\n  pop\n    /* \"#utility.yul\":800:833   */\n  tag_63\n    /* \"#utility.yul\":827:832   */\n  dup2\n    /* \"#utility.yul\":800:833   */\n  tag_37\n  jump\t// in\ntag_63:\n    /* \"#utility.yul\":696:839   */\n  swap3\n  swap2\n  pop\n  pop\n  jump\t// out\n    /* \"#utility.yul\":845:922   */\ntag_39:\n    /* \"#utility.yul\":882:889   */\n  0x00\n    /* \"#utility.yul\":911:916   */\n  dup2\n    /* \"#utility.yul\":900:916   */\n  swap1\n  pop\n    /* \"#utility.yul\":845:922   */\n  swap2\n  swap1\n  pop\n  jump\t// out\n    /* \"#utility.yul\":928:1050   */\ntag_40:\n    /* \"#utility.yul\":1001:1025   */\n  tag_66\n    /* \"#utility.yul\":1019:1024   */\n  dup2\n    /* \"#utility.yul\":1001:1025   */\n  tag_39\n  jump\t// in\ntag_66:\n    /* \"#utility.yul\":994:999   */\n  dup2\n    /* \"#utility.yul\":991:1026   */\n  eq\n    /* \"#utility.yul\":981:1044   */\n  tag_67\n  jumpi\n    /* \"#utility.yul\":1040:1041   */\n  0x00\n    /* \"#utility.yul\":1037:1038   */\n  0x00\n    /* \"#utility.yul\":1030:1042   */\n  revert\n    /* \"#utility.yul\":981:1044   */\ntag_67:\n    /* \"#utility.yul\":928:1050   */\n  pop\n  jump\t// out\n    /* \"#utility.yul\":1056:1199   */\ntag_41:\n    /* \"#utility.yul\":1113:1118   */\n  0x00\n    /* \"#utility.yul\":1144:1150   */\n  dup2\n    /* \"#utility.yul\":1138:1151   */\n  mload\n    /* \"#utility.yul\":1129:1151   */\n  swap1\n  pop\n    /* \"#utility.yul\":1160:1193   */\n  tag_69\n    /* \"#utility.yul\":1187:1192   */\n  dup2\n    /* \"#utility.yul\":1160:1193   */\n  tag_40\n  jump\t// in\ntag_69:\n    /* \"#utility.yul\":1056:1199   */\n  swap3\n  swap2\n  pop\n  pop\n  jump\t// out\n    /* \"#utility.yul\":1205:2339   */\ntag_3:\n    /* \"#utility.yul\":1320:1326   */\n  0x00\n    /* \"#utility.yul\":1328:1334   */\n  0x00\n    /* \"#utility.yul\":1336:1342   */\n  0x00\n    /* \"#utility.yul\":1344:1350   */\n  0x00\n    /* \"#utility.yul\":1352:1358   */\n  0x00\n    /* \"#utility.yul\":1360:1366   */\n  0x00\n    /* \"#utility.yul\":1409:1412   */\n  0xc0\n    /* \"#utility.yul\":1397:1406   */\n  dup8\n    /* \"#utility.yul\":1388:1395   */\n  dup10\n    /* \"#utility.yul\":1384:1407   */\n  sub\n    /* \"#utility.yul\":1380:1413   */\n  slt\n    /* \"#utility.yul\":1377:1497   */\n  iszero\n  tag_71\n  jumpi\n    /* \"#utility.yul\":1416:1495   */\n  tag_72\n  tag_33\n  jump\t// in\ntag_72:\n    /* \"#utility.yul\":1377:1497   */\ntag_71:\n    /* \"#utility.yul\":1536:1537   */\n  0x00\n    /* \"#utility.yul\":1561:1625   */\n  tag_73\n    /* \"#utility.yul\":1617:1624   */\n  dup10\n    /* \"#utility.yul\":1608:1614   */\n  dup3\n    /* \"#utility.yul\":1597:1606   */\n  dup11\n    /* \"#utility.yul\":1593:1615   */\n  add\n    /* \"#utility.yul\":1561:1625   */\n  tag_38\n  jump\t// in\ntag_73:\n    /* \"#utility.yul\":1551:1625   */\n  swap7\n  pop\n    /* \"#utility.yul\":1507:1635   */\n  pop\n    /* \"#utility.yul\":1674:1676   */\n  0x20\n    /* \"#utility.yul\":1700:1764   */\n  tag_74\n    /* \"#utility.yul\":1756:1763   */\n  dup10\n    /* \"#utility.yul\":1747:1753   */\n  dup3\n    /* \"#utility.yul\":1736:1745   */\n  dup11\n    /* \"#utility.yul\":1732:1754   */\n  add\n    /* \"#utility.yul\":1700:1764   */\n  tag_38\n  jump\t// in\ntag_74:\n    /* \"#utility.yul\":1690:1764   */\n  swap6\n  pop\n    /* \"#utility.yul\":1645:1774   */\n  pop\n    /* \"#utility.yul\":1813:1815   */\n  0x40\n    /* \"#utility.yul\":1839:1903   */\n  tag_75\n    /* \"#utility.yul\":1895:1902   */\n  dup10\n    /* \"#utility.yul\":1886:1892   */\n  dup3\n    /* \"#utility.yul\":1875:1884   */\n  dup11\n    /* \"#utility.yul\":1871:1893   */\n  add\n    /* \"#utility.yul\":1839:1903   */\n  tag_41\n  jump\t// in\ntag_75:\n    /* \"#utility.yul\":1829:1903   */\n  swap5\n  pop\n    /* \"#utility.yul\":1784:1913   */\n  pop\n    /* \"#utility.yul\":1952:1954   */\n  0x60\n    /* \"#utility.yul\":1978:2042   */\n  tag_76\n    /* \"#utility.yul\":2034:2041   */\n  dup10\n    /* \"#utility.yul\":2025:2031   */\n  dup3\n    /* \"#utility.yul\":2014:2023   */\n  dup11\n    /* \"#utility.yul\":2010:2032   */\n  add\n    /* \"#utility.yul\":1978:2042   */\n  tag_41\n  jump\t// in\ntag_76:\n    /* \"#utility.yul\":1968:2042   */\n  swap4\n  pop\n    /* \"#utility.yul\":1923:2052   */\n  pop\n    /* \"#utility.yul\":2091:2094   */\n  0x80\n    /* \"#utility.yul\":2118:2182   */\n  tag_77\n    /* \"#utility.yul\":2174:2181   */\n  dup10\n    /* \"#utility.yul\":2165:2171   */\n  dup3\n    /* \"#utility.yul\":2154:2163   */\n  dup11\n    /* \"#utility.yul\":2150:2172   */\n  add\n    /* \"#utility.yul\":2118:2182   */\n  tag_41\n  jump\t// in\ntag_77:\n    /* \"#utility.yul\":2108:2182   */\n  swap3\n  pop\n    /* \"#utility.yul\":2062:2192   */\n  pop\n    /* \"#utility.yul\":2231:2234   */\n  0xa0\n    /* \"#utility.yul\":2258:2322   */\n  tag_78\n    /* \"#utility.yul\":2314:2321   */\n  dup10\n    /* \"#utility.yul\":2305:2311   */\n  dup3\n    /* \"#utility.yul\":2294:2303   */\n  dup11\n    /* \"#utility.yul\":2290:2312   */\n  add\n    /* \"#utility.yul\":2258:2322   */\n  tag_38\n  jump\t// in\ntag_78:\n    /* \"#utility.yul\":2248:2322   */\n  swap2\n  pop\n    /* \"#utility.yul\":2202:2332   */\n  pop\n    /* \"#utility.yul\":1205:2339   */\n  swap3\n  swap6\n  pop\n  swap3\n  swap6\n  pop\n  swap3\n  swap6\n  jump\t// out\n    /* \"#utility.yul\":2345:2514   */\ntag_42:\n    /* \"#utility.yul\":2429:2440   */\n  0x00\n    /* \"#utility.yul\":2463:2469   */\n  dup3\n    /* \"#utility.yul\":2458:2461   */\n  dup3\n    /* \"#utility.yul\":2451:2470   */\n  mstore\n    /* \"#utility.yul\":2503:2507   */\n  0x20\n    /* \"#utility.yul\":2498:2501   */\n  dup3\n    /* \"#utility.yul\":2494:2508   */\n  add\n    /* \"#utility.yul\":2479:2508   */\n  swap1\n  pop\n    /* \"#utility.yul\":2345:2514   */\n  swap3\n  swap2\n  pop\n  pop\n  jump\t// out\n    /* \"#utility.yul\":2520:2683   */\ntag_43:\n    /* \"#utility.yul\":2660:2675   */\n  0x496e76616c696420746f6b656e00000000000000000000000000000000000000\n    /* \"#utility.yul\":2656:2657   */\n  0x00\n    /* \"#utility.yul\":2648:2654   */\n  dup3\n    /* \"#utility.yul\":2644:2658   */\n  add\n    /* \"#utility.yul\":2637:2676   */\n  mstore\n    /* \"#utility.yul\":2520:2683   */\n  pop\n  jump\t// out\n    /* \"#utility.yul\":2689:3055   */\ntag_44:\n    /* \"#utility.yul\":2831:2834   */\n  0x00\n    /* \"#utility.yul\":2852:2919   */\n  tag_82\n    /* \"#utility.yul\":2916:2918   */\n  0x0d\n    /* \"#utility.yul\":2911:2914   */\n  dup4\n    /* \"#utility.yul\":2852:2919   */\n  tag_42\n  jump\t// in\ntag_82:\n    /* \"#utility.yul\":2845:2919   */\n  swap2\n  pop\n    /* \"#utility.yul\":2928:3021   */\n  tag_83\n    /* \"#utility.yul\":3017:3020   */\n  dup3\n    /* \"#utility.yul\":2928:3021   */\n  tag_43\n  jump\t// in\ntag_83:\n    /* \"#utility.yul\":3046:3048   */\n  0x20\n    /* \"#utility.yul\":3041:3044   */\n  dup3\n    /* \"#utility.yul\":3037:3049   */\n  add\n    /* \"#utility.yul\":3030:3049   */\n  swap1\n  pop\n    /* \"#utility.yul\":2689:3055   */\n  swap2\n  swap1\n  pop\n  jump\t// out\n    /* \"#utility.yul\":3061:3480   */\ntag_8:\n    /* \"#utility.yul\":3227:3231   */\n  0x00\n    /* \"#utility.yul\":3265:3267   */\n  0x20\n    /* \"#utility.yul\":3254:3263   */\n  dup3\n    /* \"#utility.yul\":3250:3268   */\n  add\n    /* \"#utility.yul\":3242:3268   */\n  swap1\n  pop\n    /* \"#utility.yul\":3314:3323   */\n  dup2\n    /* \"#utility.yul\":3308:3312   */\n  dup2\n    /* \"#utility.yul\":3304:3324   */\n  sub\n    /* \"#utility.yul\":3300:3301   */\n  0x00\n    /* \"#utility.yul\":3289:3298   */\n  dup4\n    /* \"#utility.yul\":3285:3302   */\n  add\n    /* \"#utility.yul\":3278:3325   */\n  mstore\n    /* \"#utility.yul\":3342:3473   */\n  tag_85\n    /* \"#utility.yul\":3468:3472   */\n  dup2\n    /* \"#utility.yul\":3342:3473   */\n  tag_44\n  jump\t// in\ntag_85:\n    /* \"#utility.yul\":3334:3473   */\n  swap1\n  pop\n    /* \"#utility.yul\":3061:3480   */\n  swap2\n  swap1\n  pop\n  jump\t// out\n    /* \"#utility.yul\":3486:3655   */\ntag_45:\n    /* \"#utility.yul\":3626:3647   */\n  0x496e76616c69642062656e656669636961727900000000000000000000000000\n    /* \"#utility.yul\":3622:3623   */\n  0x00\n    /* \"#utility.yul\":3614:3620   */\n  dup3\n    /* \"#utility.yul\":3610:3624   */\n  add\n    /* \"#utility.yul\":3603:3648   */\n  mstore\n    /* \"#utility.yul\":3486:3655   */\n  pop\n  jump\t// out\n    /* \"#utility.yul\":3661:4027   */\ntag_46:\n    /* \"#utility.yul\":3803:3806   */\n  0x00\n    /* \"#utility.yul\":3824:3891   */\n  tag_88\n    /* \"#utility.yul\":3888:3890   */\n  0x13\n    /* \"#utility.yul\":3883:3886   */\n  dup4\n    /* \"#utility.yul\":3824:3891   */\n  tag_42\n  jump\t// in\ntag_88:\n    /* \"#utility.yul\":3817:3891   */\n  swap2\n  pop\n    /* \"#utility.yul\":3900:3993   */\n  tag_89\n    /* \"#utility.yul\":3989:3992   */\n  dup3\n    /* \"#utility.yul\":3900:3993   */\n  tag_45\n  jump\t// in\ntag_89:\n    /* \"#utility.yul\":4018:4020   */\n  0x20\n    /* \"#utility.yul\":4013:4016   */\n  dup3\n    /* \"#utility.yul\":4009:4021   */\n  add\n    /* \"#utility.yul\":4002:4021   */\n  swap1\n  pop\n    /* \"#utility.yul\":3661:4027   */\n  swap2\n  swap1\n  pop\n  jump\t// out\n    /* \"#utility.yul\":4033:4452   */\ntag_11:\n    /* \"#utility.yul\":4199:4203   */\n  0x00\n    /* \"#utility.yul\":4237:4239   */\n  0x20\n    /* \"#utility.yul\":4226:4235   */\n  dup3\n    /* \"#utility.yul\":4222:4240   */\n  add\n    /* \"#utility.yul\":4214:4240   */\n  swap1\n  pop\n    /* \"#utility.yul\":4286:4295   */\n  dup2\n    /* \"#utility.yul\":4280:4284   */\n  dup2\n    /* \"#utility.yul\":4276:4296   */\n  sub\n    /* \"#utility.yul\":4272:4273   */\n  0x00\n    /* \"#utility.yul\":4261:4270   */\n  dup4\n    /* \"#utility.yul\":4257:4274   */\n  add\n    /* \"#utility.yul\":4250:4297   */\n  mstore\n    /* \"#utility.yul\":4314:4445   */\n  tag_91\n    /* \"#utility.yul\":4440:4444   */\n  dup2\n    /* \"#utility.yul\":4314:4445   */\n  tag_46\n  jump\t// in\ntag_91:\n    /* \"#utility.yul\":4306:4445   */\n  swap1\n  pop\n    /* \"#utility.yul\":4033:4452   */\n  swap2\n  swap1\n  pop\n  jump\t// out\n    /* \"#utility.yul\":4458:4621   */\ntag_47:\n    /* \"#utility.yul\":4598:4613   */\n  0x496e76616c69642061646d696e00000000000000000000000000000000000000\n    /* \"#utility.yul\":4594:4595   */\n  0x00\n    /* \"#utility.yul\":4586:4592   */\n  dup3\n    /* \"#utility.yul\":4582:4596   */\n  add\n    /* \"#utility.yul\":4575:4614   */\n  mstore\n    /* \"#utility.yul\":4458:4621   */\n  pop\n  jump\t// out\n    /* \"#utility.yul\":4627:4993   */\ntag_48:\n    /* \"#utility.yul\":4769:4772   */\n  0x00\n    /* \"#utility.yul\":4790:4857   */\n  tag_94\n    /* \"#utility.yul\":4854:4856   */\n  0x0d\n    /* \"#utility.yul\":4849:4852   */\n  dup4\n    /* \"#utility.yul\":4790:4857   */\n  tag_42\n  jump\t// in\ntag_94:\n    /* \"#utility.yul\":4783:4857   */\n  swap2\n  pop\n    /* \"#utility.yul\":4866:4959   */\n  tag_95\n    /* \"#utility.yul\":4955:4958   */\n  dup3\n    /* \"#utility.yul\":4866:4959   */\n  tag_47\n  jump\t// in\ntag_95:\n    /* \"#utility.yul\":4984:4986   */\n  0x20\n    /* \"#utility.yul\":4979:4982   */\n  dup3\n    /* \"#utility.yul\":4975:4987   */\n  add\n    /* \"#utility.yul\":4968:4987   */\n  swap1\n  pop\n    /* \"#utility.yul\":4627:4993   */\n  swap2\n  swap1\n  pop\n  jump\t// out\n    /* \"#utility.yul\":4999:5418   */\ntag_14:\n    /* \"#utility.yul\":5165:5169   */\n  0x00\n    /* \"#utility.yul\":5203:5205   */\n  0x20\n    /* \"#utility.yul\":5192:5201   */\n  dup3\n    /* \"#utility.yul\":5188:5206   */\n  add\n    /* \"#utility.yul\":5180:5206   */\n  swap1\n  pop\n    /* \"#utility.yul\":5252:5261   */\n  dup2\n    /* \"#utility.yul\":5246:5250   */\n  dup2\n    /* \"#utility.yul\":5242:5262   */\n  sub\n    /* \"#utility.yul\":5238:5239   */\n  0x00\n    /* \"#utility.yul\":5227:5236   */\n  dup4\n    /* \"#utility.yul\":5223:5240   */\n  add\n    /* \"#utility.yul\":5216:5263   */\n  mstore\n    /* \"#utility.yul\":5280:5411   */\n  tag_97\n    /* \"#utility.yul\":5406:5410   */\n  dup2\n    /* \"#utility.yul\":5280:5411   */\n  tag_48\n  jump\t// in\ntag_97:\n    /* \"#utility.yul\":5272:5411   */\n  swap1\n  pop\n    /* \"#utility.yul\":4999:5418   */\n  swap2\n  swap1\n  pop\n  jump\t// out\n    /* \"#utility.yul\":5424:5590   */\ntag_49:\n    /* \"#utility.yul\":5564:5582   */\n  0x436c696666203e206475726174696f6e00000000000000000000000000000000\n    /* \"#utility.yul\":5560:5561   */\n  0x00\n    /* \"#utility.yul\":5552:5558   */\n  dup3\n    /* \"#utility.yul\":5548:5562   */\n  add\n    /* \"#utility.yul\":5541:5583   */\n  mstore\n    /* \"#utility.yul\":5424:5590   */\n  pop\n  jump\t// out\n    /* \"#utility.yul\":5596:5962   */\ntag_50:\n    /* \"#utility.yul\":5738:5741   */\n  0x00\n    /* \"#utility.yul\":5759:5826   */\n  tag_100\n    /* \"#utility.yul\":5823:5825   */\n  0x10\n    /* \"#utility.yul\":5818:5821   */\n  dup4\n    /* \"#utility.yul\":5759:5826   */\n  tag_42\n  jump\t// in\ntag_100:\n    /* \"#utility.yul\":5752:5826   */\n  swap2\n  pop\n    /* \"#utility.yul\":5835:5928   */\n  tag_101\n    /* \"#utility.yul\":5924:5927   */\n  dup3\n    /* \"#utility.yul\":5835:5928   */\n  tag_49\n  jump\t// in\ntag_101:\n    /* \"#utility.yul\":5953:5955   */\n  0x20\n    /* \"#utility.yul\":5948:5951   */\n  dup3\n    /* \"#utility.yul\":5944:5956   */\n  add\n    /* \"#utility.yul\":5937:5956   */\n  swap1\n  pop\n    /* \"#utility.yul\":5596:5962   */\n  swap2\n  swap1\n  pop\n  jump\t// out\n    /* \"#utility.yul\":5968:6387   */\ntag_17:\n    /* \"#utility.yul\":6134:6138   */\n  0x00\n    /* \"#utility.yul\":6172:6174   */\n  0x20\n    /* \"#utility.yul\":6161:6170   */\n  dup3\n    /* \"#utility.yul\":6157:6175   */\n  add\n    /* \"#utility.yul\":6149:6175   */\n  swap1\n  pop\n    /* \"#utility.yul\":6221:6230   */\n  dup2\n    /* \"#utility.yul\":6215:6219   */\n  dup2\n    /* \"#utility.yul\":6211:6231   */\n  sub\n    /* \"#utility.yul\":6207:6208   */\n  0x00\n    /* \"#utility.yul\":6196:6205   */\n  dup4\n    /* \"#utility.yul\":6192:6209   */\n  add\n    /* \"#utility.yul\":6185:6232   */\n  mstore\n    /* \"#utility.yul\":6249:6380   */\n  tag_103\n    /* \"#utility.yul\":6375:6379   */\n  dup2\n    /* \"#utility.yul\":6249:6380   */\n  tag_50\n  jump\t// in\ntag_103:\n    /* \"#utility.yul\":6241:6380   */\n  swap1\n  pop\n    /* \"#utility.yul\":5968:6387   */\n  swap2\n  swap1\n  pop\n  jump\t// out\n    /* \"#utility.yul\":6393:6573   */\ntag_51:\n    /* \"#utility.yul\":6441:6518   */\n  0x4e487b7100000000000000000000000000000000000000000000000000000000\n    /* \"#utility.yul\":6438:6439   */\n  0x00\n    /* \"#utility.yul\":6431:6519   */\n  mstore\n    /* \"#utility.yul\":6538:6542   */\n  0x11\n    /* \"#utility.yul\":6535:6536   */\n  0x04\n    /* \"#utility.yul\":6528:6543   */\n  mstore\n    /* \"#utility.yul\":6562:6566   */\n  0x24\n    /* \"#utility.yul\":6559:6560   */\n  0x00\n    /* \"#utility.yul\":6552:6567   */\n  revert\n    /* \"#utility.yul\":6579:6770   */\ntag_21:\n    /* \"#utility.yul\":6619:6622   */\n  0x00\n    /* \"#utility.yul\":6638:6658   */\n  tag_106\n    /* \"#utility.yul\":6656:6657   */\n  dup3\n    /* \"#utility.yul\":6638:6658   */\n  tag_39\n  jump\t// in\ntag_106:\n    /* \"#utility.yul\":6633:6658   */\n  swap2\n  pop\n    /* \"#utility.yul\":6672:6692   */\n  tag_107\n    /* \"#utility.yul\":6690:6691   */\n  dup4\n    /* \"#utility.yul\":6672:6692   */\n  tag_39\n  jump\t// in\ntag_107:\n    /* \"#utility.yul\":6667:6692   */\n  swap3\n  pop\n    /* \"#utility.yul\":6715:6716   */\n  dup3\n    /* \"#utility.yul\":6712:6713   */\n  dup3\n    /* \"#utility.yul\":6708:6717   */\n  add\n    /* \"#utility.yul\":6701:6717   */\n  swap1\n  pop\n    /* \"#utility.yul\":6736:6739   */\n  dup1\n    /* \"#utility.yul\":6733:6734   */\n  dup3\n    /* \"#utility.yul\":6730:6740   */\n  gt\n    /* \"#utility.yul\":6727:6763   */\n  iszero\n  tag_108\n  jumpi\n    /* \"#utility.yul\":6743:6761   */\n  tag_109\n  tag_51\n  jump\t// in\ntag_109:\n    /* \"#utility.yul\":6727:6763   */\ntag_108:\n    /* \"#utility.yul\":6579:6770   */\n  swap3\n  swap2\n  pop\n  pop\n  jump\t// out\n    /* \"contracts/WallyVesting.sol\":427:3290  contract WallyVesting is AccessControl {... */\ntag_22:\n  mload(0x80)\n  mload(0xa0)\n  mload(0xc0)\n  mload(0xe0)\n  mload(0x0100)\n  codecopy(0x00, dataOffset(sub_0), dataSize(sub_0))\n  0x00\n  assignImmutable(\"0x2594dabed871cb83b92f0316c3cfb3f11c31e831a3dfe02ed619a85d0029a787\")\n  0x00\n  assignImmutable(\"0x90741adfcf45070d86c76a8bfeeec0f65f9ebb67d2d5d664dfa749bf949a2454\")\n  0x00\n  assignImmutable(\"0x1918487e7c9afa9bc01d75bdd43c69c329a1c948229a99b49e14ce6b7dcc6ff5\")\n  0x00\n  assignImmutable(\"0x0b31afb598c370231ceabb804ab791029a356b8c9a372aebeb11347df71b8226\")\n  0x00\n  assignImmutable(\"0x13650127de40bd0482f7a6a80d1966ae3e83b4ea537267404140481f37e37931\")\n  return(0x00, dataSize(sub_0))\nstop\n\nsub_0: assembly {\n        /* \"contracts/WallyVesting.sol\":427:3290  contract WallyVesting is AccessControl {... */\n      mstore(0x40, 0x80)\n      callvalue\n      dup1\n      iszero\n      tag_1\n      jumpi\n      revert(0x00, 0x00)\n    tag_1:\n      pop\n      jumpi(tag_2, lt(calldatasize, 0x04))\n      shr(0xe0, calldataload(0x00))\n      dup1\n      0x63d256ce\n      gt\n      tag_22\n      jumpi\n      dup1\n      0xa217fddf\n      gt\n      tag_23\n      jumpi\n      dup1\n      0xa217fddf\n      eq\n      tag_17\n      jumpi\n      dup1\n      0xb6549f75\n      eq\n      tag_18\n      jumpi\n      dup1\n      0xbe9a6555\n      eq\n      tag_19\n      jumpi\n      dup1\n      0xd547741f\n      eq\n      tag_20\n      jumpi\n      dup1\n      0xfc0c546a\n      eq\n      tag_21\n      jumpi\n      jump(tag_2)\n    tag_23:\n      dup1\n      0x63d256ce\n      eq\n      tag_12\n      jumpi\n      dup1\n      0x75b238fc\n      eq\n      tag_13\n      jumpi\n      dup1\n      0x86d1a69f\n      eq\n      tag_14\n      jumpi\n      dup1\n      0x91d14854\n      eq\n      tag_15\n      jumpi\n      dup1\n      0x96132521\n      eq\n      tag_16\n      jumpi\n      jump(tag_2)\n    tag_22:\n      dup1\n      0x2f2ff15d\n      gt\n      tag_24\n      jumpi\n      dup1\n      0x2f2ff15d\n      eq\n      tag_7\n      jumpi\n      dup1\n      0x36568abe\n      eq\n      tag_8\n      jumpi\n      dup1\n      0x38af3eed\n      eq\n      tag_9\n      jumpi\n      dup1\n      0x44b1231f\n      eq\n      tag_10\n      jumpi\n      dup1\n      0x5b940081\n      eq\n      tag_11\n      jumpi\n      jump(tag_2)\n    tag_24:\n      dup1\n      0x01ffc9a7\n      eq\n      tag_3\n      jumpi\n      dup1\n      0x0fb5a6b4\n      eq\n      tag_4\n      jumpi\n      dup1\n      0x13d033c0\n      eq\n      tag_5\n      jumpi\n      dup1\n      0x248a9ca3\n      eq\n      tag_6\n      jumpi\n    tag_2:\n      revert(0x00, 0x00)\n        /* \"@openzeppelin/contracts/access/AccessControl.sol\":2565:2767  function supportsInterface(bytes4 interfaceId) public view virtual override returns (bool) {... */\n    tag_3:\n      tag_25\n      0x04\n      dup1\n      calldatasize\n      sub\n      dup2\n      add\n      swap1\n      tag_26\n      swap2\n      swap1\n      tag_27\n      jump\t// in\n    tag_26:\n      tag_28\n      jump\t// in\n    tag_25:\n      mload(0x40)\n      tag_29\n      swap2\n      swap1\n      tag_30\n      jump\t// in\n    tag_29:\n      mload(0x40)\n      dup1\n      swap2\n      sub\n      swap1\n      return\n        /* \"contracts/WallyVesting.sol\":749:782  uint256 public immutable duration */\n    tag_4:\n      tag_31\n      tag_32\n      jump\t// in\n    tag_31:\n      mload(0x40)\n      tag_33\n      swap2\n      swap1\n      tag_34\n      jump\t// in\n    tag_33:\n      mload(0x40)\n      dup1\n      swap2\n      sub\n      swap1\n      return\n        /* \"contracts/WallyVesting.sol\":641:671  uint256 public immutable cliff */\n    tag_5:\n      tag_35\n      tag_36\n      jump\t// in\n    tag_35:\n      mload(0x40)\n      tag_37\n      swap2\n      swap1\n      tag_34\n      jump\t// in\n    tag_37:\n      mload(0x40)\n      dup1\n      swap2\n      sub\n      swap1\n      return\n        /* \"@openzeppelin/contracts/access/AccessControl.sol\":3810:3930  function getRoleAdmin(bytes32 role) public view virtual returns (bytes32) {... */\n    tag_6:\n      tag_38\n      0x04\n      dup1\n      calldatasize\n      sub\n      dup2\n      add\n      swap1\n      tag_39\n      swap2\n      swap1\n      tag_40\n      jump\t// in\n    tag_39:\n      tag_41\n      jump\t// in\n    tag_38:\n      mload(0x40)\n      tag_42\n      swap2\n      swap1\n      tag_43\n      jump\t// in\n    tag_42:\n      mload(0x40)\n      dup1\n      swap2\n      sub\n      swap1\n      return\n        /* \"@openzeppelin/contracts/access/AccessControl.sol\":4226:4362  function grantRole(bytes32 role, address account) public virtual onlyRole(getRoleAdmin(role)) {... */\n    tag_7:\n      tag_44\n      0x04\n      dup1\n      calldatasize\n      sub\n      dup2\n      add\n      swap1\n      tag_45\n      swap2\n      swap1\n      tag_46\n      jump\t// in\n    tag_45:\n      tag_47\n      jump\t// in\n    tag_44:\n      stop\n        /* \"@openzeppelin/contracts/access/AccessControl.sol\":5328:5573  function renounceRole(bytes32 role, address callerConfirmation) public virtual {... */\n    tag_8:\n      tag_48\n      0x04\n      dup1\n      calldatasize\n      sub\n      dup2\n      add\n      swap1\n      tag_49\n      swap2\n      swap1\n      tag_46\n      jump\t// in\n    tag_49:\n      tag_50\n      jump\t// in\n    tag_48:\n      stop\n        /* \"contracts/WallyVesting.sol\":598:634  address public immutable beneficiary */\n    tag_9:\n      tag_51\n      tag_52\n      jump\t// in\n    tag_51:\n      mload(0x40)\n      tag_53\n      swap2\n      swap1\n      tag_54\n      jump\t// in\n    tag_53:\n      mload(0x40)\n      dup1\n      swap2\n      sub\n      swap1\n      return\n        /* \"contracts/WallyVesting.sol\":2764:3288  function vestedAmount() public view returns (uint256) {... */\n    tag_10:\n      tag_55\n      tag_56\n      jump\t// in\n    tag_55:\n      mload(0x40)\n      tag_57\n      swap2\n      swap1\n      tag_34\n      jump\t// in\n    tag_57:\n      mload(0x40)\n      dup1\n      swap2\n      sub\n      swap1\n      return\n        /* \"contracts/WallyVesting.sol\":2571:2678  function releasableAmount() public view returns (uint256) {... */\n    tag_11:\n      tag_58\n      tag_59\n      jump\t// in\n    tag_58:\n      mload(0x40)\n      tag_60\n      swap2\n      swap1\n      tag_34\n      jump\t// in\n    tag_60:\n      mload(0x40)\n      dup1\n      swap2\n      sub\n      swap1\n      return\n        /* \"contracts/WallyVesting.sol\":845:864  bool public revoked */\n    tag_12:\n      tag_61\n      tag_62\n      jump\t// in\n    tag_61:\n      mload(0x40)\n      tag_63\n      swap2\n      swap1\n      tag_30\n      jump\t// in\n    tag_63:\n      mload(0x40)\n      dup1\n      swap2\n      sub\n      swap1\n      return\n        /* \"contracts/WallyVesting.sol\":472:532  bytes32 public constant ADMIN_ROLE = keccak256(\"ADMIN_ROLE\") */\n    tag_13:\n      tag_64\n      tag_65\n      jump\t// in\n    tag_64:\n      mload(0x40)\n      tag_66\n      swap2\n      swap1\n      tag_43\n      jump\t// in\n    tag_66:\n      mload(0x40)\n      dup1\n      swap2\n      sub\n      swap1\n      return\n        /* \"contracts/WallyVesting.sol\":1651:1960  function release() external {... */\n    tag_14:\n      tag_67\n      tag_68\n      jump\t// in\n    tag_67:\n      stop\n        /* \"@openzeppelin/contracts/access/AccessControl.sol\":2854:2990  function hasRole(bytes32 role, address account) public view virtual returns (bool) {... */\n    tag_15:\n      tag_69\n      0x04\n      dup1\n      calldatasize\n      sub\n      dup2\n      add\n      swap1\n      tag_70\n      swap2\n      swap1\n      tag_46\n      jump\t// in\n    tag_70:\n      tag_71\n      jump\t// in\n    tag_69:\n      mload(0x40)\n      tag_72\n      swap2\n      swap1\n      tag_30\n      jump\t// in\n    tag_72:\n      mload(0x40)\n      dup1\n      swap2\n      sub\n      swap1\n      return\n        /* \"contracts/WallyVesting.sol\":816:839  uint256 public released */\n    tag_16:\n      tag_73\n      tag_74\n      jump\t// in\n    tag_73:\n      mload(0x40)\n      tag_75\n      swap2\n      swap1\n      tag_34\n      jump\t// in\n    tag_75:\n      mload(0x40)\n      dup1\n      swap2\n      sub\n      swap1\n      return\n        /* \"@openzeppelin/contracts/access/AccessControl.sol\":2187:2236  bytes32 public constant DEFAULT_ADMIN_ROLE = 0x00 */\n    tag_17:\n      tag_76\n      tag_77\n      jump\t// in\n    tag_76:\n      mload(0x40)\n      tag_78\n      swap2\n      swap1\n      tag_43\n      jump\t// in\n    tag_78:\n      mload(0x40)\n      dup1\n      swap2\n      sub\n      swap1\n      return\n        /* \"contracts/WallyVesting.sol\":2087:2483  function revoke() external onlyRole(ADMIN_ROLE) {... */\n    tag_18:\n      tag_79\n      tag_80\n      jump\t// in\n    tag_79:\n      stop\n        /* \"contracts/WallyVesting.sol\":695:725  uint256 public immutable start */\n    tag_19:\n      tag_81\n      tag_82\n      jump\t// in\n    tag_81:\n      mload(0x40)\n      tag_83\n      swap2\n      swap1\n      tag_34\n      jump\t// in\n    tag_83:\n      mload(0x40)\n      dup1\n      swap2\n      sub\n      swap1\n      return\n        /* \"@openzeppelin/contracts/access/AccessControl.sol\":4642:4780  function revokeRole(bytes32 role, address account) public virtual onlyRole(getRoleAdmin(role)) {... */\n    tag_20:\n      tag_84\n      0x04\n      dup1\n      calldatasize\n      sub\n      dup2\n      add\n      swap1\n      tag_85\n      swap2\n      swap1\n      tag_46\n      jump\t// in\n    tag_85:\n      tag_86\n      jump\t// in\n    tag_84:\n      stop\n        /* \"contracts/WallyVesting.sol\":539:568  IERC20 public immutable token */\n    tag_21:\n      tag_87\n      tag_88\n      jump\t// in\n    tag_87:\n      mload(0x40)\n      tag_89\n      swap2\n      swap1\n      tag_90\n      jump\t// in\n    tag_89:\n      mload(0x40)\n      dup1\n      swap2\n      sub\n      swap1\n      return\n        /* \"@openzeppelin/contracts/access/AccessControl.sol\":2565:2767  function supportsInterface(bytes4 interfaceId) public view virtual override returns (bool) {... */\n    tag_28:\n        /* \"@openzeppelin/contracts/access/AccessControl.sol\":2650:2654  bool */\n      0x00\n        /* \"@openzeppelin/contracts/access/AccessControl.sol\":2688:2720  type(IAccessControl).interfaceId */\n      0x7965db0b00000000000000000000000000000000000000000000000000000000\n        /* \"@openzeppelin/contracts/access/AccessControl.sol\":2673:2720  interfaceId == type(IAccessControl).interfaceId */\n      not(0xffffffffffffffffffffffffffffffffffffffffffffffffffffffff)\n      and\n        /* \"@openzeppelin/contracts/access/AccessControl.sol\":2673:2684  interfaceId */\n      dup3\n        /* \"@openzeppelin/contracts/access/AccessControl.sol\":2673:2720  interfaceId == type(IAccessControl).interfaceId */\n      not(0xffffffffffffffffffffffffffffffffffffffffffffffffffffffff)\n      and\n      eq\n        /* \"@openzeppelin/contracts/access/AccessControl.sol\":2673:2760  interfaceId == type(IAccessControl).interfaceId || super.supportsInterface(interfaceId) */\n      dup1\n      tag_92\n      jumpi\n      pop\n        /* \"@openzeppelin/contracts/access/AccessControl.sol\":2724:2760  super.supportsInterface(interfaceId) */\n      tag_93\n        /* \"@openzeppelin/contracts/access/AccessControl.sol\":2748:2759  interfaceId */\n      dup3\n        /* \"@openzeppelin/contracts/access/AccessControl.sol\":2724:2747  super.supportsInterface */\n      tag_94\n        /* \"@openzeppelin/contracts/access/AccessControl.sol\":2724:2760  super.supportsInterface(interfaceId) */\n      jump\t// in\n    tag_93:\n        /* \"@openzeppelin/contracts/access/AccessControl.sol\":2673:2760  interfaceId == type(IAccessControl).interfaceId || super.supportsInterface(interfaceId) */\n    tag_92:\n        /* \"@openzeppelin/contracts/access/AccessControl.sol\":2666:2760  return interfaceId == type(IAccessControl).interfaceId || super.supportsInterface(interfaceId) */\n      swap1\n      pop\n        /* \"@openzeppelin/contracts/access/AccessControl.sol\":2565:2767  function supportsInterface(bytes4 interfaceId) public view virtual override returns (bool) {... */\n      swap2\n      swap1\n      pop\n      jump\t// out\n        /* \"contracts/WallyVesting.sol\":749:782  uint256 public immutable duration */\n    tag_32:\n      immutable(\"0x2594dabed871cb83b92f0316c3cfb3f11c31e831a3dfe02ed619a85d0029a787\")\n      dup2\n      jump\t// out\n        /* \"contracts/WallyVesting.sol\":641:671  uint256 public immutable cliff */\n    tag_36:\n      immutable(\"0x1918487e7c9afa9bc01d75bdd43c69c329a1c948229a99b49e14ce6b7dcc6ff5\")\n      dup2\n      jump\t// out\n        /* \"@openzeppelin/contracts/access/AccessControl.sol\":3810:3930  function getRoleAdmin(bytes32 role) public view virtual returns (bytes32) {... */\n    tag_41:\n        /* \"@openzeppelin/contracts/access/AccessControl.sol\":3875:3882  bytes32 */\n      0x00\n        /* \"@openzeppelin/contracts/access/AccessControl.sol\":3901:3907  _roles */\n      0x00\n        /* \"@openzeppelin/contracts/access/AccessControl.sol\":3901:3913  _roles[role] */\n      0x00\n        /* \"@openzeppelin/contracts/access/AccessControl.sol\":3908:3912  role */\n      dup4\n        /* \"@openzeppelin/contracts/access/AccessControl.sol\":3901:3913  _roles[role] */\n      dup2\n      mstore\n      0x20\n      add\n      swap1\n      dup2\n      mstore\n      0x20\n      add\n      0x00\n      keccak256\n        /* \"@openzeppelin/contracts/access/AccessControl.sol\":3901:3923  _roles[role].adminRole */\n      0x01\n      add\n      sload\n        /* \"@openzeppelin/contracts/access/AccessControl.sol\":3894:3923  return _roles[role].adminRole */\n      swap1\n      pop\n        /* \"@openzeppelin/contracts/access/AccessControl.sol\":3810:3930  function getRoleAdmin(bytes32 role) public view virtual returns (bytes32) {... */\n      swap2\n      swap1\n      pop\n      jump\t// out\n        /* \"@openzeppelin/contracts/access/AccessControl.sol\":4226:4362  function grantRole(bytes32 role, address account) public virtual onlyRole(getRoleAdmin(role)) {... */\n    tag_47:\n        /* \"@openzeppelin/contracts/access/AccessControl.sol\":4300:4318  getRoleAdmin(role) */\n      tag_96\n        /* \"@openzeppelin/contracts/access/AccessControl.sol\":4313:4317  role */\n      dup3\n        /* \"@openzeppelin/contracts/access/AccessControl.sol\":4300:4312  getRoleAdmin */\n      tag_41\n        /* \"@openzeppelin/contracts/access/AccessControl.sol\":4300:4318  getRoleAdmin(role) */\n      jump\t// in\n    tag_96:\n        /* \"@openzeppelin/contracts/access/AccessControl.sol\":2464:2480  _checkRole(role) */\n      tag_98\n        /* \"@openzeppelin/contracts/access/AccessControl.sol\":2475:2479  role */\n      dup2\n        /* \"@openzeppelin/contracts/access/AccessControl.sol\":2464:2474  _checkRole */\n      tag_99\n        /* \"@openzeppelin/contracts/access/AccessControl.sol\":2464:2480  _checkRole(role) */\n      jump\t// in\n    tag_98:\n        /* \"@openzeppelin/contracts/access/AccessControl.sol\":4330:4355  _grantRole(role, account) */\n      tag_101\n        /* \"@openzeppelin/contracts/access/AccessControl.sol\":4341:4345  role */\n      dup4\n        /* \"@openzeppelin/contracts/access/AccessControl.sol\":4347:4354  account */\n      dup4\n        /* \"@openzeppelin/contracts/access/AccessControl.sol\":4330:4340  _grantRole */\n      tag_102\n        /* \"@openzeppelin/contracts/access/AccessControl.sol\":4330:4355  _grantRole(role, account) */\n      jump\t// in\n    tag_101:\n      pop\n        /* \"@openzeppelin/contracts/access/AccessControl.sol\":4226:4362  function grantRole(bytes32 role, address account) public virtual onlyRole(getRoleAdmin(role)) {... */\n      pop\n      pop\n      pop\n      jump\t// out\n        /* \"@openzeppelin/contracts/access/AccessControl.sol\":5328:5573  function renounceRole(bytes32 role, address callerConfirmation) public virtual {... */\n    tag_50:\n        /* \"@openzeppelin/contracts/access/AccessControl.sol\":5443:5455  _msgSender() */\n      tag_104\n        /* \"@openzeppelin/contracts/access/AccessControl.sol\":5443:5453  _msgSender */\n      tag_105\n        /* \"@openzeppelin/contracts/access/AccessControl.sol\":5443:5455  _msgSender() */\n      jump\t// in\n    tag_104:\n        /* \"@openzeppelin/contracts/access/AccessControl.sol\":5421:5455  callerConfirmation != _msgSender() */\n      0xffffffffffffffffffffffffffffffffffffffff\n      and\n        /* \"@openzeppelin/contracts/access/AccessControl.sol\":5421:5439  callerConfirmation */\n      dup2\n        /* \"@openzeppelin/contracts/access/AccessControl.sol\":5421:5455  callerConfirmation != _msgSender() */\n      0xffffffffffffffffffffffffffffffffffffffff\n      and\n      eq\n        /* \"@openzeppelin/contracts/access/AccessControl.sol\":5417:5519  if (callerConfirmation != _msgSender()) {... */\n      tag_106\n      jumpi\n        /* \"@openzeppelin/contracts/access/AccessControl.sol\":5478:5508  AccessControlBadConfirmation() */\n      mload(0x40)\n      0x6697b23200000000000000000000000000000000000000000000000000000000\n      dup2\n      mstore\n      0x04\n      add\n      mload(0x40)\n      dup1\n      swap2\n      sub\n      swap1\n      revert\n        /* \"@openzeppelin/contracts/access/AccessControl.sol\":5417:5519  if (callerConfirmation != _msgSender()) {... */\n    tag_106:\n        /* \"@openzeppelin/contracts/access/AccessControl.sol\":5529:5566  _revokeRole(role, callerConfirmation) */\n      tag_107\n        /* \"@openzeppelin/contracts/access/AccessControl.sol\":5541:5545  role */\n      dup3\n        /* \"@openzeppelin/contracts/access/AccessControl.sol\":5547:5565  callerConfirmation */\n      dup3\n        /* \"@openzeppelin/contracts/access/AccessControl.sol\":5529:5540  _revokeRole */\n      tag_108\n        /* \"@openzeppelin/contracts/access/AccessControl.sol\":5529:5566  _revokeRole(role, callerConfirmation) */\n      jump\t// in\n    tag_107:\n      pop\n        /* \"@openzeppelin/contracts/access/AccessControl.sol\":5328:5573  function renounceRole(bytes32 role, address callerConfirmation) public virtual {... */\n      pop\n      pop\n      jump\t// out\n        /* \"contracts/WallyVesting.sol\":598:634  address public immutable beneficiary */\n    tag_52:\n      immutable(\"0x0b31afb598c370231ceabb804ab791029a356b8c9a372aebeb11347df71b8226\")\n      dup2\n      jump\t// out\n        /* \"contracts/WallyVesting.sol\":2764:3288  function vestedAmount() public view returns (uint256) {... */\n    tag_56:\n        /* \"contracts/WallyVesting.sol\":2809:2816  uint256 */\n      0x00\n        /* \"contracts/WallyVesting.sol\":2828:2848  uint256 totalCurrent */\n      0x00\n        /* \"contracts/WallyVesting.sol\":2851:2856  token */\n      immutable(\"0x13650127de40bd0482f7a6a80d1966ae3e83b4ea537267404140481f37e37931\")\n        /* \"contracts/WallyVesting.sol\":2851:2866  token.balanceOf */\n      0xffffffffffffffffffffffffffffffffffffffff\n      and\n      0x70a08231\n        /* \"contracts/WallyVesting.sol\":2875:2879  this */\n      address\n        /* \"contracts/WallyVesting.sol\":2851:2881  token.balanceOf(address(this)) */\n      mload(0x40)\n      dup3\n      0xffffffff\n      and\n      0xe0\n      shl\n      dup2\n      mstore\n      0x04\n      add\n      tag_110\n      swap2\n      swap1\n      tag_54\n      jump\t// in\n    tag_110:\n      0x20\n      mload(0x40)\n      dup1\n      dup4\n      sub\n      dup2\n      dup7\n      gas\n      staticcall\n      iszero\n      dup1\n      iszero\n      tag_112\n      jumpi\n      returndatacopy(0x00, 0x00, returndatasize)\n      revert(0x00, returndatasize)\n    tag_112:\n      pop\n      pop\n      pop\n      pop\n      mload(0x40)\n      returndatasize\n      not(0x1f)\n      0x1f\n      dup3\n      add\n      and\n      dup3\n      add\n      dup1\n      0x40\n      mstore\n      pop\n      dup2\n      add\n      swap1\n      tag_113\n      swap2\n      swap1\n      tag_114\n      jump\t// in\n    tag_113:\n        /* \"contracts/WallyVesting.sol\":2828:2881  uint256 totalCurrent = token.balanceOf(address(this)) */\n      swap1\n      pop\n        /* \"contracts/WallyVesting.sol\":2891:2904  uint256 total */\n      0x00\n        /* \"contracts/WallyVesting.sol\":2922:2930  released */\n      sload(0x01)\n        /* \"contracts/WallyVesting.sol\":2907:2919  totalCurrent */\n      dup3\n        /* \"contracts/WallyVesting.sol\":2907:2930  totalCurrent + released */\n      tag_115\n      swap2\n      swap1\n      tag_116\n      jump\t// in\n    tag_115:\n        /* \"contracts/WallyVesting.sol\":2891:2930  uint256 total = totalCurrent + released */\n      swap1\n      pop\n        /* \"contracts/WallyVesting.sol\":2963:2968  cliff */\n      immutable(\"0x1918487e7c9afa9bc01d75bdd43c69c329a1c948229a99b49e14ce6b7dcc6ff5\")\n        /* \"contracts/WallyVesting.sol\":2945:2960  block.timestamp */\n      timestamp\n        /* \"contracts/WallyVesting.sol\":2945:2968  block.timestamp < cliff */\n      lt\n        /* \"contracts/WallyVesting.sol\":2941:3282  if (block.timestamp < cliff) {... */\n      iszero\n      tag_117\n      jumpi\n        /* \"contracts/WallyVesting.sol\":2991:2992  0 */\n      0x00\n        /* \"contracts/WallyVesting.sol\":2984:2992  return 0 */\n      swap3\n      pop\n      pop\n      pop\n      jump(tag_109)\n        /* \"contracts/WallyVesting.sol\":2941:3282  if (block.timestamp < cliff) {... */\n    tag_117:\n        /* \"contracts/WallyVesting.sol\":3041:3049  duration */\n      immutable(\"0x2594dabed871cb83b92f0316c3cfb3f11c31e831a3dfe02ed619a85d0029a787\")\n        /* \"contracts/WallyVesting.sol\":3033:3038  start */\n      immutable(\"0x90741adfcf45070d86c76a8bfeeec0f65f9ebb67d2d5d664dfa749bf949a2454\")\n        /* \"contracts/WallyVesting.sol\":3033:3049  start + duration */\n      tag_119\n      swap2\n      swap1\n      tag_116\n      jump\t// in\n    tag_119:\n        /* \"contracts/WallyVesting.sol\":3013:3028  block.timestamp */\n      timestamp\n        /* \"contracts/WallyVesting.sol\":3013:3050  block.timestamp >= (start + duration) */\n      lt\n      iszero\n        /* \"contracts/WallyVesting.sol\":3013:3061  block.timestamp >= (start + duration) || revoked */\n      dup1\n      tag_120\n      jumpi\n      pop\n        /* \"contracts/WallyVesting.sol\":3054:3061  revoked */\n      0x02\n      0x00\n      swap1\n      sload\n      swap1\n      0x0100\n      exp\n      swap1\n      div\n      0xff\n      and\n        /* \"contracts/WallyVesting.sol\":3013:3061  block.timestamp >= (start + duration) || revoked */\n    tag_120:\n        /* \"contracts/WallyVesting.sol\":3009:3282  if (block.timestamp >= (start + duration) || revoked) {... */\n      iszero\n      tag_121\n      jumpi\n        /* \"contracts/WallyVesting.sol\":3084:3089  total */\n      dup1\n        /* \"contracts/WallyVesting.sol\":3077:3089  return total */\n      swap3\n      pop\n      pop\n      pop\n      jump(tag_109)\n        /* \"contracts/WallyVesting.sol\":3009:3282  if (block.timestamp >= (start + duration) || revoked) {... */\n    tag_121:\n        /* \"contracts/WallyVesting.sol\":3181:3195  uint256 vested */\n      0x00\n        /* \"contracts/WallyVesting.sol\":3236:3244  duration */\n      immutable(\"0x2594dabed871cb83b92f0316c3cfb3f11c31e831a3dfe02ed619a85d0029a787\")\n        /* \"contracts/WallyVesting.sol\":3226:3231  start */\n      immutable(\"0x90741adfcf45070d86c76a8bfeeec0f65f9ebb67d2d5d664dfa749bf949a2454\")\n        /* \"contracts/WallyVesting.sol\":3208:3223  block.timestamp */\n      timestamp\n        /* \"contracts/WallyVesting.sol\":3208:3231  block.timestamp - start */\n      tag_123\n      swap2\n      swap1\n      tag_124\n      jump\t// in\n    tag_123:\n        /* \"contracts/WallyVesting.sol\":3199:3204  total */\n      dup4\n        /* \"contracts/WallyVesting.sol\":3199:3232  total * (block.timestamp - start) */\n      tag_125\n      swap2\n      swap1\n      tag_126\n      jump\t// in\n    tag_125:\n        /* \"contracts/WallyVesting.sol\":3198:3244  (total * (block.timestamp - start)) / duration */\n      tag_127\n      swap2\n      swap1\n      tag_128\n      jump\t// in\n    tag_127:\n        /* \"contracts/WallyVesting.sol\":3181:3244  uint256 vested = (total * (block.timestamp - start)) / duration */\n      swap1\n      pop\n        /* \"contracts/WallyVesting.sol\":3265:3271  vested */\n      dup1\n        /* \"contracts/WallyVesting.sol\":3258:3271  return vested */\n      swap4\n      pop\n      pop\n      pop\n      pop\n        /* \"contracts/WallyVesting.sol\":2764:3288  function vestedAmount() public view returns (uint256) {... */\n    tag_109:\n      swap1\n      jump\t// out\n        /* \"contracts/WallyVesting.sol\":2571:2678  function releasableAmount() public view returns (uint256) {... */\n    tag_59:\n        /* \"contracts/WallyVesting.sol\":2620:2627  uint256 */\n      0x00\n        /* \"contracts/WallyVesting.sol\":2663:2671  released */\n      sload(0x01)\n        /* \"contracts/WallyVesting.sol\":2646:2660  vestedAmount() */\n      tag_130\n        /* \"contracts/WallyVesting.sol\":2646:2658  vestedAmount */\n      tag_56\n        /* \"contracts/WallyVesting.sol\":2646:2660  vestedAmount() */\n      jump\t// in\n    tag_130:\n        /* \"contracts/WallyVesting.sol\":2646:2671  vestedAmount() - released */\n      tag_131\n      swap2\n      swap1\n      tag_124\n      jump\t// in\n    tag_131:\n        /* \"contracts/WallyVesting.sol\":2639:2671  return vestedAmount() - released */\n      swap1\n      pop\n        /* \"contracts/WallyVesting.sol\":2571:2678  function releasableAmount() public view returns (uint256) {... */\n      swap1\n      jump\t// out\n        /* \"contracts/WallyVesting.sol\":845:864  bool public revoked */\n    tag_62:\n      0x02\n      0x00\n      swap1\n      sload\n      swap1\n      0x0100\n      exp\n      swap1\n      div\n      0xff\n      and\n      dup2\n      jump\t// out\n        /* \"contracts/WallyVesting.sol\":472:532  bytes32 public constant ADMIN_ROLE = keccak256(\"ADMIN_ROLE\") */\n    tag_65:\n        /* \"contracts/WallyVesting.sol\":509:532  keccak256(\"ADMIN_ROLE\") */\n      0xa49807205ce4d355092ef5a8a18f56e8913cf4a201fbe287825b095693c21775\n        /* \"contracts/WallyVesting.sol\":472:532  bytes32 public constant ADMIN_ROLE = keccak256(\"ADMIN_ROLE\") */\n      dup2\n      jump\t// out\n        /* \"contracts/WallyVesting.sol\":1651:1960  function release() external {... */\n    tag_68:\n        /* \"contracts/WallyVesting.sol\":1698:1705  revoked */\n      0x02\n      0x00\n      swap1\n      sload\n      swap1\n      0x0100\n      exp\n      swap1\n      div\n      0xff\n      and\n        /* \"contracts/WallyVesting.sol\":1697:1705  !revoked */\n      iszero\n        /* \"contracts/WallyVesting.sol\":1689:1725  require(!revoked, \"Vesting revoked\") */\n      tag_133\n      jumpi\n      mload(0x40)\n      0x08c379a000000000000000000000000000000000000000000000000000000000\n      dup2\n      mstore\n      0x04\n      add\n      tag_134\n      swap1\n      tag_135\n      jump\t// in\n    tag_134:\n      mload(0x40)\n      dup1\n      swap2\n      sub\n      swap1\n      revert\n    tag_133:\n        /* \"contracts/WallyVesting.sol\":1735:1753  uint256 unreleased */\n      0x00\n        /* \"contracts/WallyVesting.sol\":1756:1774  releasableAmount() */\n      tag_136\n        /* \"contracts/WallyVesting.sol\":1756:1772  releasableAmount */\n      tag_59\n        /* \"contracts/WallyVesting.sol\":1756:1774  releasableAmount() */\n      jump\t// in\n    tag_136:\n        /* \"contracts/WallyVesting.sol\":1735:1774  uint256 unreleased = releasableAmount() */\n      swap1\n      pop\n        /* \"contracts/WallyVesting.sol\":1805:1806  0 */\n      0x00\n        /* \"contracts/WallyVesting.sol\":1792:1802  unreleased */\n      dup2\n        /* \"contracts/WallyVesting.sol\":1792:1806  unreleased > 0 */\n      gt\n        /* \"contracts/WallyVesting.sol\":1784:1829  require(unreleased > 0, \"Nothing to release\") */\n      tag_137\n      jumpi\n      mload(0x40)\n      0x08c379a000000000000000000000000000000000000000000000000000000000\n      dup2\n      mstore\n      0x04\n      add\n      tag_138\n      swap1\n      tag_139\n      jump\t// in\n    tag_138:\n      mload(0x40)\n      dup1\n      swap2\n      sub\n      swap1\n      revert\n    tag_137:\n        /* \"contracts/WallyVesting.sol\":1852:1862  unreleased */\n      dup1\n        /* \"contracts/WallyVesting.sol\":1840:1848  released */\n      0x01\n      0x00\n        /* \"contracts/WallyVesting.sol\":1840:1862  released += unreleased */\n      dup3\n      dup3\n      sload\n      tag_140\n      swap2\n      swap1\n      tag_116\n      jump\t// in\n    tag_140:\n      swap3\n      pop\n      pop\n      dup2\n      swap1\n      sstore\n      pop\n        /* \"contracts/WallyVesting.sol\":1872:1877  token */\n      immutable(\"0x13650127de40bd0482f7a6a80d1966ae3e83b4ea537267404140481f37e37931\")\n        /* \"contracts/WallyVesting.sol\":1872:1886  token.transfer */\n      0xffffffffffffffffffffffffffffffffffffffff\n      and\n      0xa9059cbb\n        /* \"contracts/WallyVesting.sol\":1887:1898  beneficiary */\n      immutable(\"0x0b31afb598c370231ceabb804ab791029a356b8c9a372aebeb11347df71b8226\")\n        /* \"contracts/WallyVesting.sol\":1900:1910  unreleased */\n      dup4\n        /* \"contracts/WallyVesting.sol\":1872:1911  token.transfer(beneficiary, unreleased) */\n      mload(0x40)\n      dup4\n      0xffffffff\n      and\n      0xe0\n      shl\n      dup2\n      mstore\n      0x04\n      add\n      tag_141\n      swap3\n      swap2\n      swap1\n      tag_142\n      jump\t// in\n    tag_141:\n      0x20\n      mload(0x40)\n      dup1\n      dup4\n      sub\n      dup2\n      0x00\n      dup8\n      gas\n      call\n      iszero\n      dup1\n      iszero\n      tag_144\n      jumpi\n      returndatacopy(0x00, 0x00, returndatasize)\n      revert(0x00, returndatasize)\n    tag_144:\n      pop\n      pop\n      pop\n      pop\n      mload(0x40)\n      returndatasize\n      not(0x1f)\n      0x1f\n      dup3\n      add\n      and\n      dup3\n      add\n      dup1\n      0x40\n      mstore\n      pop\n      dup2\n      add\n      swap1\n      tag_145\n      swap2\n      swap1\n      tag_146\n      jump\t// in\n    tag_145:\n      pop\n        /* \"contracts/WallyVesting.sol\":1927:1953  TokensReleased(unreleased) */\n      0xa1598fb976f7dd9df63fd18699c54a5744a6a95364166bbd0d77a2f6c8438b1f\n        /* \"contracts/WallyVesting.sol\":1942:1952  unreleased */\n      dup2\n        /* \"contracts/WallyVesting.sol\":1927:1953  TokensReleased(unreleased) */\n      mload(0x40)\n      tag_147\n      swap2\n      swap1\n      tag_34\n      jump\t// in\n    tag_147:\n      mload(0x40)\n      dup1\n      swap2\n      sub\n      swap1\n      log1\n        /* \"contracts/WallyVesting.sol\":1679:1960  {... */\n      pop\n        /* \"contracts/WallyVesting.sol\":1651:1960  function release() external {... */\n      jump\t// out\n        /* \"@openzeppelin/contracts/access/AccessControl.sol\":2854:2990  function hasRole(bytes32 role, address account) public view virtual returns (bool) {... */\n    tag_71:\n        /* \"@openzeppelin/contracts/access/AccessControl.sol\":2931:2935  bool */\n      0x00\n        /* \"@openzeppelin/contracts/access/AccessControl.sol\":2954:2960  _roles */\n      0x00\n        /* \"@openzeppelin/contracts/access/AccessControl.sol\":2954:2966  _roles[role] */\n      0x00\n        /* \"@openzeppelin/contracts/access/AccessControl.sol\":2961:2965  role */\n      dup5\n        /* \"@openzeppelin/contracts/access/AccessControl.sol\":2954:2966  _roles[role] */\n      dup2\n      mstore\n      0x20\n      add\n      swap1\n      dup2\n      mstore\n      0x20\n      add\n      0x00\n      keccak256\n        /* \"@openzeppelin/contracts/access/AccessControl.sol\":2954:2974  _roles[role].hasRole */\n      0x00\n      add\n        /* \"@openzeppelin/contracts/access/AccessControl.sol\":2954:2983  _roles[role].hasRole[account] */\n      0x00\n        /* \"@openzeppelin/contracts/access/AccessControl.sol\":2975:2982  account */\n      dup4\n        /* \"@openzeppelin/contracts/access/AccessControl.sol\":2954:2983  _roles[role].hasRole[account] */\n      0xffffffffffffffffffffffffffffffffffffffff\n      and\n      0xffffffffffffffffffffffffffffffffffffffff\n      and\n      dup2\n      mstore\n      0x20\n      add\n      swap1\n      dup2\n      mstore\n      0x20\n      add\n      0x00\n      keccak256\n      0x00\n      swap1\n      sload\n      swap1\n      0x0100\n      exp\n      swap1\n      div\n      0xff\n      and\n        /* \"@openzeppelin/contracts/access/AccessControl.sol\":2947:2983  return _roles[role].hasRole[account] */\n      swap1\n      pop\n        /* \"@openzeppelin/contracts/access/AccessControl.sol\":2854:2990  function hasRole(bytes32 role, address account) public view virtual returns (bool) {... */\n      swap3\n      swap2\n      pop\n      pop\n      jump\t// out\n        /* \"contracts/WallyVesting.sol\":816:839  uint256 public released */\n    tag_74:\n      sload(0x01)\n      dup2\n      jump\t// out\n        /* \"@openzeppelin/contracts/access/AccessControl.sol\":2187:2236  bytes32 public constant DEFAULT_ADMIN_ROLE = 0x00 */\n    tag_77:\n        /* \"@openzeppelin/contracts/access/AccessControl.sol\":2232:2236  0x00 */\n      0x00\n        /* \"@openzeppelin/contracts/access/AccessControl.sol\":2187:2236  bytes32 public constant DEFAULT_ADMIN_ROLE = 0x00 */\n      0x00\n      shl\n      dup2\n      jump\t// out\n        /* \"contracts/WallyVesting.sol\":2087:2483  function revoke() external onlyRole(ADMIN_ROLE) {... */\n    tag_80:\n        /* \"contracts/WallyVesting.sol\":509:532  keccak256(\"ADMIN_ROLE\") */\n      0xa49807205ce4d355092ef5a8a18f56e8913cf4a201fbe287825b095693c21775\n        /* \"@openzeppelin/contracts/access/AccessControl.sol\":2464:2480  _checkRole(role) */\n      tag_150\n        /* \"@openzeppelin/contracts/access/AccessControl.sol\":2475:2479  role */\n      dup2\n        /* \"@openzeppelin/contracts/access/AccessControl.sol\":2464:2474  _checkRole */\n      tag_99\n        /* \"@openzeppelin/contracts/access/AccessControl.sol\":2464:2480  _checkRole(role) */\n      jump\t// in\n    tag_150:\n        /* \"contracts/WallyVesting.sol\":2154:2161  revoked */\n      0x02\n      0x00\n      swap1\n      sload\n      swap1\n      0x0100\n      exp\n      swap1\n      div\n      0xff\n      and\n        /* \"contracts/WallyVesting.sol\":2153:2161  !revoked */\n      iszero\n        /* \"contracts/WallyVesting.sol\":2145:2181  require(!revoked, \"Already revoked\") */\n      tag_152\n      jumpi\n      mload(0x40)\n      0x08c379a000000000000000000000000000000000000000000000000000000000\n      dup2\n      mstore\n      0x04\n      add\n      tag_153\n      swap1\n      tag_154\n      jump\t// in\n    tag_153:\n      mload(0x40)\n      dup1\n      swap2\n      sub\n      swap1\n      revert\n    tag_152:\n        /* \"contracts/WallyVesting.sol\":2201:2205  true */\n      0x01\n        /* \"contracts/WallyVesting.sol\":2191:2198  revoked */\n      0x02\n      0x00\n        /* \"contracts/WallyVesting.sol\":2191:2205  revoked = true */\n      0x0100\n      exp\n      dup2\n      sload\n      dup2\n      0xff\n      mul\n      not\n      and\n      swap1\n      dup4\n      iszero\n      iszero\n      mul\n      or\n      swap1\n      sstore\n      pop\n        /* \"contracts/WallyVesting.sol\":2216:2231  uint256 balance */\n      0x00\n        /* \"contracts/WallyVesting.sol\":2234:2239  token */\n      immutable(\"0x13650127de40bd0482f7a6a80d1966ae3e83b4ea537267404140481f37e37931\")\n        /* \"contracts/WallyVesting.sol\":2234:2249  token.balanceOf */\n      0xffffffffffffffffffffffffffffffffffffffff\n      and\n      0x70a08231\n        /* \"contracts/WallyVesting.sol\":2258:2262  this */\n      address\n        /* \"contracts/WallyVesting.sol\":2234:2264  token.balanceOf(address(this)) */\n      mload(0x40)\n      dup3\n      0xffffffff\n      and\n      0xe0\n      shl\n      dup2\n      mstore\n      0x04\n      add\n      tag_155\n      swap2\n      swap1\n      tag_54\n      jump\t// in\n    tag_155:\n      0x20\n      mload(0x40)\n      dup1\n      dup4\n      sub\n      dup2\n      dup7\n      gas\n      staticcall\n      iszero\n      dup1\n      iszero\n      tag_157\n      jumpi\n      returndatacopy(0x00, 0x00, returndatasize)\n      revert(0x00, returndatasize)\n    tag_157:\n      pop\n      pop\n      pop\n      pop\n      mload(0x40)\n      returndatasize\n      not(0x1f)\n      0x1f\n      dup3\n      add\n      and\n      dup3\n      add\n      dup1\n      0x40\n      mstore\n      pop\n      dup2\n      add\n      swap1\n      tag_158\n      swap2\n      swap1\n      tag_114\n      jump\t// in\n    tag_158:\n        /* \"contracts/WallyVesting.sol\":2216:2264  uint256 balance = token.balanceOf(address(this)) */\n      swap1\n      pop\n        /* \"contracts/WallyVesting.sol\":2274:2292  uint256 unreleased */\n      0x00\n        /* \"contracts/WallyVesting.sol\":2295:2313  releasableAmount() */\n      tag_159\n        /* \"contracts/WallyVesting.sol\":2295:2311  releasableAmount */\n      tag_59\n        /* \"contracts/WallyVesting.sol\":2295:2313  releasableAmount() */\n      jump\t// in\n    tag_159:\n        /* \"contracts/WallyVesting.sol\":2274:2313  uint256 unreleased = releasableAmount() */\n      swap1\n      pop\n        /* \"contracts/WallyVesting.sol\":2323:2337  uint256 refund */\n      0x00\n        /* \"contracts/WallyVesting.sol\":2350:2360  unreleased */\n      dup2\n        /* \"contracts/WallyVesting.sol\":2340:2347  balance */\n      dup4\n        /* \"contracts/WallyVesting.sol\":2340:2360  balance - unreleased */\n      tag_160\n      swap2\n      swap1\n      tag_124\n      jump\t// in\n    tag_160:\n        /* \"contracts/WallyVesting.sol\":2323:2360  uint256 refund = balance - unreleased */\n      swap1\n      pop\n        /* \"contracts/WallyVesting.sol\":2384:2385  0 */\n      0x00\n        /* \"contracts/WallyVesting.sol\":2375:2381  refund */\n      dup2\n        /* \"contracts/WallyVesting.sol\":2375:2385  refund > 0 */\n      gt\n        /* \"contracts/WallyVesting.sol\":2371:2446  if (refund > 0) {... */\n      iszero\n      tag_161\n      jumpi\n        /* \"contracts/WallyVesting.sol\":2401:2406  token */\n      immutable(\"0x13650127de40bd0482f7a6a80d1966ae3e83b4ea537267404140481f37e37931\")\n        /* \"contracts/WallyVesting.sol\":2401:2415  token.transfer */\n      0xffffffffffffffffffffffffffffffffffffffff\n      and\n      0xa9059cbb\n        /* \"contracts/WallyVesting.sol\":2416:2426  msg.sender */\n      caller\n        /* \"contracts/WallyVesting.sol\":2428:2434  refund */\n      dup4\n        /* \"contracts/WallyVesting.sol\":2401:2435  token.transfer(msg.sender, refund) */\n      mload(0x40)\n      dup4\n      0xffffffff\n      and\n      0xe0\n      shl\n      dup2\n      mstore\n      0x04\n      add\n      tag_162\n      swap3\n      swap2\n      swap1\n      tag_142\n      jump\t// in\n    tag_162:\n      0x20\n      mload(0x40)\n      dup1\n      dup4\n      sub\n      dup2\n      0x00\n      dup8\n      gas\n      call\n      iszero\n      dup1\n      iszero\n      tag_164\n      jumpi\n      returndatacopy(0x00, 0x00, returndatasize)\n      revert(0x00, returndatasize)\n    tag_164:\n      pop\n      pop\n      pop\n      pop\n      mload(0x40)\n      returndatasize\n      not(0x1f)\n      0x1f\n      dup3\n      add\n      and\n      dup3\n      add\n      dup1\n      0x40\n      mstore\n      pop\n      dup2\n      add\n      swap1\n      tag_165\n      swap2\n      swap1\n      tag_146\n      jump\t// in\n    tag_165:\n      pop\n        /* \"contracts/WallyVesting.sol\":2371:2446  if (refund > 0) {... */\n    tag_161:\n        /* \"contracts/WallyVesting.sol\":2460:2476  VestingRevoked() */\n      0xab9bb9a2dbce8eb1c5199596521d57563c7289fb1ac680030c44e9a0d16e6ed0\n      mload(0x40)\n      mload(0x40)\n      dup1\n      swap2\n      sub\n      swap1\n      log1\n        /* \"contracts/WallyVesting.sol\":2135:2483  {... */\n      pop\n      pop\n      pop\n        /* \"contracts/WallyVesting.sol\":2087:2483  function revoke() external onlyRole(ADMIN_ROLE) {... */\n      pop\n      jump\t// out\n        /* \"contracts/WallyVesting.sol\":695:725  uint256 public immutable start */\n    tag_82:\n      immutable(\"0x90741adfcf45070d86c76a8bfeeec0f65f9ebb67d2d5d664dfa749bf949a2454\")\n      dup2\n      jump\t// out\n        /* \"@openzeppelin/contracts/access/AccessControl.sol\":4642:4780  function revokeRole(bytes32 role, address account) public virtual onlyRole(getRoleAdmin(role)) {... */\n    tag_86:\n        /* \"@openzeppelin/contracts/access/AccessControl.sol\":4717:4735  getRoleAdmin(role) */\n      tag_166\n        /* \"@openzeppelin/contracts/access/AccessControl.sol\":4730:4734  role */\n      dup3\n        /* \"@openzeppelin/contracts/access/AccessControl.sol\":4717:4729  getRoleAdmin */\n      tag_41\n        /* \"@openzeppelin/contracts/access/AccessControl.sol\":4717:4735  getRoleAdmin(role) */\n      jump\t// in\n    tag_166:\n        /* \"@openzeppelin/contracts/access/AccessControl.sol\":2464:2480  _checkRole(role) */\n      tag_168\n        /* \"@openzeppelin/contracts/access/AccessControl.sol\":2475:2479  role */\n      dup2\n        /* \"@openzeppelin/contracts/access/AccessControl.sol\":2464:2474  _checkRole */\n      tag_99\n        /* \"@openzeppelin/contracts/access/AccessControl.sol\":2464:2480  _checkRole(role) */\n      jump\t// in\n    tag_168:\n        /* \"@openzeppelin/contracts/access/AccessControl.sol\":4747:4773  _revokeRole(role, account) */\n      tag_170\n        /* \"@openzeppelin/contracts/access/AccessControl.sol\":4759:4763  role */\n      dup4\n        /* \"@openzeppelin/contracts/access/AccessControl.sol\":4765:4772  account */\n      dup4\n        /* \"@openzeppelin/contracts/access/AccessControl.sol\":4747:4758  _revokeRole */\n      tag_108\n        /* \"@openzeppelin/contracts/access/AccessControl.sol\":4747:4773  _revokeRole(role, account) */\n      jump\t// in\n    tag_170:\n      pop\n        /* \"@openzeppelin/contracts/access/AccessControl.sol\":4642:4780  function revokeRole(bytes32 role, address account) public virtual onlyRole(getRoleAdmin(role)) {... */\n      pop\n      pop\n      pop\n      jump\t// out\n        /* \"contracts/WallyVesting.sol\":539:568  IERC20 public immutable token */\n    tag_88:\n      immutable(\"0x13650127de40bd0482f7a6a80d1966ae3e83b4ea537267404140481f37e37931\")\n      dup2\n      jump\t// out\n        /* \"@openzeppelin/contracts/utils/introspection/ERC165.sol\":763:909  function supportsInterface(bytes4 interfaceId) public view virtual returns (bool) {... */\n    tag_94:\n        /* \"@openzeppelin/contracts/utils/introspection/ERC165.sol\":839:843  bool */\n      0x00\n        /* \"@openzeppelin/contracts/utils/introspection/ERC165.sol\":877:902  type(IERC165).interfaceId */\n      0x01ffc9a700000000000000000000000000000000000000000000000000000000\n        /* \"@openzeppelin/contracts/utils/introspection/ERC165.sol\":862:902  interfaceId == type(IERC165).interfaceId */\n      not(0xffffffffffffffffffffffffffffffffffffffffffffffffffffffff)\n      and\n        /* \"@openzeppelin/contracts/utils/introspection/ERC165.sol\":862:873  interfaceId */\n      dup3\n        /* \"@openzeppelin/contracts/utils/introspection/ERC165.sol\":862:902  interfaceId == type(IERC165).interfaceId */\n      not(0xffffffffffffffffffffffffffffffffffffffffffffffffffffffff)\n      and\n      eq\n        /* \"@openzeppelin/contracts/utils/introspection/ERC165.sol\":855:902  return interfaceId == type(IERC165).interfaceId */\n      swap1\n      pop\n        /* \"@openzeppelin/contracts/utils/introspection/ERC165.sol\":763:909  function supportsInterface(bytes4 interfaceId) public view virtual returns (bool) {... */\n      swap2\n      swap1\n      pop\n      jump\t// out\n        /* \"@openzeppelin/contracts/access/AccessControl.sol\":3199:3302  function _checkRole(bytes32 role) internal view virtual {... */\n    tag_99:\n        /* \"@openzeppelin/contracts/access/AccessControl.sol\":3265:3295  _checkRole(role, _msgSender()) */\n      tag_173\n        /* \"@openzeppelin/contracts/access/AccessControl.sol\":3276:3280  role */\n      dup2\n        /* \"@openzeppelin/contracts/access/AccessControl.sol\":3282:3294  _msgSender() */\n      tag_174\n        /* \"@openzeppelin/contracts/access/AccessControl.sol\":3282:3292  _msgSender */\n      tag_105\n        /* \"@openzeppelin/contracts/access/AccessControl.sol\":3282:3294  _msgSender() */\n      jump\t// in\n    tag_174:\n        /* \"@openzeppelin/contracts/access/AccessControl.sol\":3265:3275  _checkRole */\n      tag_175\n        /* \"@openzeppelin/contracts/access/AccessControl.sol\":3265:3295  _checkRole(role, _msgSender()) */\n      jump\t// in\n    tag_173:\n        /* \"@openzeppelin/contracts/access/AccessControl.sol\":3199:3302  function _checkRole(bytes32 role) internal view virtual {... */\n      pop\n      jump\t// out\n        /* \"@openzeppelin/contracts/access/AccessControl.sol\":6179:6495  function _grantRole(bytes32 role, address account) internal virtual returns (bool) {... */\n    tag_102:\n        /* \"@openzeppelin/contracts/access/AccessControl.sol\":6256:6260  bool */\n      0x00\n        /* \"@openzeppelin/contracts/access/AccessControl.sol\":6277:6299  hasRole(role, account) */\n      tag_177\n        /* \"@openzeppelin/contracts/access/AccessControl.sol\":6285:6289  role */\n      dup4\n        /* \"@openzeppelin/contracts/access/AccessControl.sol\":6291:6298  account */\n      dup4\n        /* \"@openzeppelin/contracts/access/AccessControl.sol\":6277:6284  hasRole */\n      tag_71\n        /* \"@openzeppelin/contracts/access/AccessControl.sol\":6277:6299  hasRole(role, account) */\n      jump\t// in\n    tag_177:\n        /* \"@openzeppelin/contracts/access/AccessControl.sol\":6272:6489  if (!hasRole(role, account)) {... */\n      tag_178\n      jumpi\n        /* \"@openzeppelin/contracts/access/AccessControl.sol\":6347:6351  true */\n      0x01\n        /* \"@openzeppelin/contracts/access/AccessControl.sol\":6315:6321  _roles */\n      0x00\n        /* \"@openzeppelin/contracts/access/AccessControl.sol\":6315:6327  _roles[role] */\n      0x00\n        /* \"@openzeppelin/contracts/access/AccessControl.sol\":6322:6326  role */\n      dup6\n        /* \"@openzeppelin/contracts/access/AccessControl.sol\":6315:6327  _roles[role] */\n      dup2\n      mstore\n      0x20\n      add\n      swap1\n      dup2\n      mstore\n      0x20\n      add\n      0x00\n      keccak256\n        /* \"@openzeppelin/contracts/access/AccessControl.sol\":6315:6335  _roles[role].hasRole */\n      0x00\n      add\n        /* \"@openzeppelin/contracts/access/AccessControl.sol\":6315:6344  _roles[role].hasRole[account] */\n      0x00\n        /* \"@openzeppelin/contracts/access/AccessControl.sol\":6336:6343  account */\n      dup5\n        /* \"@openzeppelin/contracts/access/AccessControl.sol\":6315:6344  _roles[role].hasRole[account] */\n      0xffffffffffffffffffffffffffffffffffffffff\n      and\n      0xffffffffffffffffffffffffffffffffffffffff\n      and\n      dup2\n      mstore\n      0x20\n      add\n      swap1\n      dup2\n      mstore\n      0x20\n      add\n      0x00\n      keccak256\n      0x00\n        /* \"@openzeppelin/contracts/access/AccessControl.sol\":6315:6351  _roles[role].hasRole[account] = true */\n      0x0100\n      exp\n      dup2\n      sload\n      dup2\n      0xff\n      mul\n      not\n      and\n      swap1\n      dup4\n      iszero\n      iszero\n      mul\n      or\n      swap1\n      sstore\n      pop\n        /* \"@openzeppelin/contracts/access/AccessControl.sol\":6397:6409  _msgSender() */\n      tag_179\n        /* \"@openzeppelin/contracts/access/AccessControl.sol\":6397:6407  _msgSender */\n      tag_105\n        /* \"@openzeppelin/contracts/access/AccessControl.sol\":6397:6409  _msgSender() */\n      jump\t// in\n    tag_179:\n        /* \"@openzeppelin/contracts/access/AccessControl.sol\":6370:6410  RoleGranted(role, account, _msgSender()) */\n      0xffffffffffffffffffffffffffffffffffffffff\n      and\n        /* \"@openzeppelin/contracts/access/AccessControl.sol\":6388:6395  account */\n      dup3\n        /* \"@openzeppelin/contracts/access/AccessControl.sol\":6370:6410  RoleGranted(role, account, _msgSender()) */\n      0xffffffffffffffffffffffffffffffffffffffff\n      and\n        /* \"@openzeppelin/contracts/access/AccessControl.sol\":6382:6386  role */\n      dup5\n        /* \"@openzeppelin/contracts/access/AccessControl.sol\":6370:6410  RoleGranted(role, account, _msgSender()) */\n      0x2f8788117e7eff1d82e926ec794901d17c78024a50270940304540a733656f0d\n      mload(0x40)\n      mload(0x40)\n      dup1\n      swap2\n      sub\n      swap1\n      log4\n        /* \"@openzeppelin/contracts/access/AccessControl.sol\":6431:6435  true */\n      0x01\n        /* \"@openzeppelin/contracts/access/AccessControl.sol\":6424:6435  return true */\n      swap1\n      pop\n      jump(tag_176)\n        /* \"@openzeppelin/contracts/access/AccessControl.sol\":6272:6489  if (!hasRole(role, account)) {... */\n    tag_178:\n        /* \"@openzeppelin/contracts/access/AccessControl.sol\":6473:6478  false */\n      0x00\n        /* \"@openzeppelin/contracts/access/AccessControl.sol\":6466:6478  return false */\n      swap1\n      pop\n        /* \"@openzeppelin/contracts/access/AccessControl.sol\":6179:6495  function _grantRole(bytes32 role, address account) internal virtual returns (bool) {... */\n    tag_176:\n      swap3\n      swap2\n      pop\n      pop\n      jump\t// out\n        /* \"@openzeppelin/contracts/utils/Context.sol\":656:752  function _msgSender() internal view virtual returns (address) {... */\n    tag_105:\n        /* \"@openzeppelin/contracts/utils/Context.sol\":709:716  address */\n      0x00\n        /* \"@openzeppelin/contracts/utils/Context.sol\":735:745  msg.sender */\n      caller\n        /* \"@openzeppelin/contracts/utils/Context.sol\":728:745  return msg.sender */\n      swap1\n      pop\n        /* \"@openzeppelin/contracts/utils/Context.sol\":656:752  function _msgSender() internal view virtual returns (address) {... */\n      swap1\n      jump\t// out\n        /* \"@openzeppelin/contracts/access/AccessControl.sol\":6730:7047  function _revokeRole(bytes32 role, address account) internal virtual returns (bool) {... */\n    tag_108:\n        /* \"@openzeppelin/contracts/access/AccessControl.sol\":6808:6812  bool */\n      0x00\n        /* \"@openzeppelin/contracts/access/AccessControl.sol\":6828:6850  hasRole(role, account) */\n      tag_183\n        /* \"@openzeppelin/contracts/access/AccessControl.sol\":6836:6840  role */\n      dup4\n        /* \"@openzeppelin/contracts/access/AccessControl.sol\":6842:6849  account */\n      dup4\n        /* \"@openzeppelin/contracts/access/AccessControl.sol\":6828:6835  hasRole */\n      tag_71\n        /* \"@openzeppelin/contracts/access/AccessControl.sol\":6828:6850  hasRole(role, account) */\n      jump\t// in\n    tag_183:\n        /* \"@openzeppelin/contracts/access/AccessControl.sol\":6824:7041  if (hasRole(role, account)) {... */\n      iszero\n      tag_184\n      jumpi\n        /* \"@openzeppelin/contracts/access/AccessControl.sol\":6898:6903  false */\n      0x00\n        /* \"@openzeppelin/contracts/access/AccessControl.sol\":6866:6872  _roles */\n      0x00\n        /* \"@openzeppelin/contracts/access/AccessControl.sol\":6866:6878  _roles[role] */\n      0x00\n        /* \"@openzeppelin/contracts/access/AccessControl.sol\":6873:6877  role */\n      dup6\n        /* \"@openzeppelin/contracts/access/AccessControl.sol\":6866:6878  _roles[role] */\n      dup2\n      mstore\n      0x20\n      add\n      swap1\n      dup2\n      mstore\n      0x20\n      add\n      0x00\n      keccak256\n        /* \"@openzeppelin/contracts/access/AccessControl.sol\":6866:6886  _roles[role].hasRole */\n      0x00\n      add\n        /* \"@openzeppelin/contracts/access/AccessControl.sol\":6866:6895  _roles[role].hasRole[account] */\n      0x00\n        /* \"@openzeppelin/contracts/access/AccessControl.sol\":6887:6894  account */\n      dup5\n        /* \"@openzeppelin/contracts/access/AccessControl.sol\":6866:6895  _roles[role].hasRole[account] */\n      0xffffffffffffffffffffffffffffffffffffffff\n      and\n      0xffffffffffffffffffffffffffffffffffffffff\n      and\n      dup2\n      mstore\n      0x20\n      add\n      swap1\n      dup2\n      mstore\n      0x20\n      add\n      0x00\n      keccak256\n      0x00\n        /* \"@openzeppelin/contracts/access/AccessControl.sol\":6866:6903  _roles[role].hasRole[account] = false */\n      0x0100\n      exp\n      dup2\n      sload\n      dup2\n      0xff\n      mul\n      not\n      and\n      swap1\n      dup4\n      iszero\n      iszero\n      mul\n      or\n      swap1\n      sstore\n      pop\n        /* \"@openzeppelin/contracts/access/AccessControl.sol\":6949:6961  _msgSender() */\n      tag_185\n        /* \"@openzeppelin/contracts/access/AccessControl.sol\":6949:6959  _msgSender */\n      tag_105\n        /* \"@openzeppelin/contracts/access/AccessControl.sol\":6949:6961  _msgSender() */\n      jump\t// in\n    tag_185:\n        /* \"@openzeppelin/contracts/access/AccessControl.sol\":6922:6962  RoleRevoked(role, account, _msgSender()) */\n      0xffffffffffffffffffffffffffffffffffffffff\n      and\n        /* \"@openzeppelin/contracts/access/AccessControl.sol\":6940:6947  account */\n      dup3\n        /* \"@openzeppelin/contracts/access/AccessControl.sol\":6922:6962  RoleRevoked(role, account, _msgSender()) */\n      0xffffffffffffffffffffffffffffffffffffffff\n      and\n        /* \"@openzeppelin/contracts/access/AccessControl.sol\":6934:6938  role */\n      dup5\n        /* \"@openzeppelin/contracts/access/AccessControl.sol\":6922:6962  RoleRevoked(role, account, _msgSender()) */\n      0xf6391f5c32d9c69d2a47ea670b442974b53935d1edc7fd64eb21e047a839171b\n      mload(0x40)\n      mload(0x40)\n      dup1\n      swap2\n      sub\n      swap1\n      log4\n        /* \"@openzeppelin/contracts/access/AccessControl.sol\":6983:6987  true */\n      0x01\n        /* \"@openzeppelin/contracts/access/AccessControl.sol\":6976:6987  return true */\n      swap1\n      pop\n      jump(tag_182)\n        /* \"@openzeppelin/contracts/access/AccessControl.sol\":6824:7041  if (hasRole(role, account)) {... */\n    tag_184:\n        /* \"@openzeppelin/contracts/access/AccessControl.sol\":7025:7030  false */\n      0x00\n        /* \"@openzeppelin/contracts/access/AccessControl.sol\":7018:7030  return false */\n      swap1\n      pop\n        /* \"@openzeppelin/contracts/access/AccessControl.sol\":6730:7047  function _revokeRole(bytes32 role, address account) internal virtual returns (bool) {... */\n    tag_182:\n      swap3\n      swap2\n      pop\n      pop\n      jump\t// out\n        /* \"@openzeppelin/contracts/access/AccessControl.sol\":3432:3629  function _checkRole(bytes32 role, address account) internal view virtual {... */\n    tag_175:\n        /* \"@openzeppelin/contracts/access/AccessControl.sol\":3520:3542  hasRole(role, account) */\n      tag_188\n        /* \"@openzeppelin/contracts/access/AccessControl.sol\":3528:3532  role */\n      dup3\n        /* \"@openzeppelin/contracts/access/AccessControl.sol\":3534:3541  account */\n      dup3\n        /* \"@openzeppelin/contracts/access/AccessControl.sol\":3520:3527  hasRole */\n      tag_71\n        /* \"@openzeppelin/contracts/access/AccessControl.sol\":3520:3542  hasRole(role, account) */\n      jump\t// in\n    tag_188:\n        /* \"@openzeppelin/contracts/access/AccessControl.sol\":3515:3623  if (!hasRole(role, account)) {... */\n      tag_189\n      jumpi\n        /* \"@openzeppelin/contracts/access/AccessControl.sol\":3598:3605  account */\n      dup1\n        /* \"@openzeppelin/contracts/access/AccessControl.sol\":3607:3611  role */\n      dup3\n        /* \"@openzeppelin/contracts/access/AccessControl.sol\":3565:3612  AccessControlUnauthorizedAccount(account, role) */\n      mload(0x40)\n      0xe2517d3f00000000000000000000000000000000000000000000000000000000\n      dup2\n      mstore\n      0x04\n      add\n      tag_190\n      swap3\n      swap2\n      swap1\n      tag_191\n      jump\t// in\n    tag_190:\n      mload(0x40)\n      dup1\n      swap2\n      sub\n      swap1\n      revert\n        /* \"@openzeppelin/contracts/access/AccessControl.sol\":3515:3623  if (!hasRole(role, account)) {... */\n    tag_189:\n        /* \"@openzeppelin/contracts/access/AccessControl.sol\":3432:3629  function _checkRole(bytes32 role, address account) internal view virtual {... */\n      pop\n      pop\n      jump\t// out\n        /* \"#utility.yul\":88:205   */\n    tag_193:\n        /* \"#utility.yul\":197:198   */\n      0x00\n        /* \"#utility.yul\":194:195   */\n      0x00\n        /* \"#utility.yul\":187:199   */\n      revert\n        /* \"#utility.yul\":334:483   */\n    tag_195:\n        /* \"#utility.yul\":370:377   */\n      0x00\n        /* \"#utility.yul\":410:476   */\n      0xffffffff00000000000000000000000000000000000000000000000000000000\n        /* \"#utility.yul\":403:408   */\n      dup3\n        /* \"#utility.yul\":399:477   */\n      and\n        /* \"#utility.yul\":388:477   */\n      swap1\n      pop\n        /* \"#utility.yul\":334:483   */\n      swap2\n      swap1\n      pop\n      jump\t// out\n        /* \"#utility.yul\":489:609   */\n    tag_196:\n        /* \"#utility.yul\":561:584   */\n      tag_235\n        /* \"#utility.yul\":578:583   */\n      dup2\n        /* \"#utility.yul\":561:584   */\n      tag_195\n      jump\t// in\n    tag_235:\n        /* \"#utility.yul\":554:559   */\n      dup2\n        /* \"#utility.yul\":551:585   */\n      eq\n        /* \"#utility.yul\":541:603   */\n      tag_236\n      jumpi\n        /* \"#utility.yul\":599:600   */\n      0x00\n        /* \"#utility.yul\":596:597   */\n      0x00\n        /* \"#utility.yul\":589:601   */\n      revert\n        /* \"#utility.yul\":541:603   */\n    tag_236:\n        /* \"#utility.yul\":489:609   */\n      pop\n      jump\t// out\n        /* \"#utility.yul\":615:752   */\n    tag_197:\n        /* \"#utility.yul\":660:665   */\n      0x00\n        /* \"#utility.yul\":698:704   */\n      dup2\n        /* \"#utility.yul\":685:705   */\n      calldataload\n        /* \"#utility.yul\":676:705   */\n      swap1\n      pop\n        /* \"#utility.yul\":714:746   */\n      tag_238\n        /* \"#utility.yul\":740:745   */\n      dup2\n        /* \"#utility.yul\":714:746   */\n      tag_196\n      jump\t// in\n    tag_238:\n        /* \"#utility.yul\":615:752   */\n      swap3\n      swap2\n      pop\n      pop\n      jump\t// out\n        /* \"#utility.yul\":758:1085   */\n    tag_27:\n        /* \"#utility.yul\":816:822   */\n      0x00\n        /* \"#utility.yul\":865:867   */\n      0x20\n        /* \"#utility.yul\":853:862   */\n      dup3\n        /* \"#utility.yul\":844:851   */\n      dup5\n        /* \"#utility.yul\":840:863   */\n      sub\n        /* \"#utility.yul\":836:868   */\n      slt\n        /* \"#utility.yul\":833:952   */\n      iszero\n      tag_240\n      jumpi\n        /* \"#utility.yul\":871:950   */\n      tag_241\n      tag_193\n      jump\t// in\n    tag_241:\n        /* \"#utility.yul\":833:952   */\n    tag_240:\n        /* \"#utility.yul\":991:992   */\n      0x00\n        /* \"#utility.yul\":1016:1068   */\n      tag_242\n        /* \"#utility.yul\":1060:1067   */\n      dup5\n        /* \"#utility.yul\":1051:1057   */\n      dup3\n        /* \"#utility.yul\":1040:1049   */\n      dup6\n        /* \"#utility.yul\":1036:1058   */\n      add\n        /* \"#utility.yul\":1016:1068   */\n      tag_197\n      jump\t// in\n    tag_242:\n        /* \"#utility.yul\":1006:1068   */\n      swap2\n      pop\n        /* \"#utility.yul\":962:1078   */\n      pop\n        /* \"#utility.yul\":758:1085   */\n      swap3\n      swap2\n      pop\n      pop\n      jump\t// out\n        /* \"#utility.yul\":1091:1181   */\n    tag_198:\n        /* \"#utility.yul\":1125:1132   */\n      0x00\n        /* \"#utility.yul\":1168:1173   */\n      dup2\n        /* \"#utility.yul\":1161:1174   */\n      iszero\n        /* \"#utility.yul\":1154:1175   */\n      iszero\n        /* \"#utility.yul\":1143:1175   */\n      swap1\n      pop\n        /* \"#utility.yul\":1091:1181   */\n      swap2\n      swap1\n      pop\n      jump\t// out\n        /* \"#utility.yul\":1187:1296   */\n    tag_199:\n        /* \"#utility.yul\":1268:1289   */\n      tag_245\n        /* \"#utility.yul\":1283:1288   */\n      dup2\n        /* \"#utility.yul\":1268:1289   */\n      tag_198\n      jump\t// in\n    tag_245:\n        /* \"#utility.yul\":1263:1266   */\n      dup3\n        /* \"#utility.yul\":1256:1290   */\n      mstore\n        /* \"#utility.yul\":1187:1296   */\n      pop\n      pop\n      jump\t// out\n        /* \"#utility.yul\":1302:1512   */\n    tag_30:\n        /* \"#utility.yul\":1389:1393   */\n      0x00\n        /* \"#utility.yul\":1427:1429   */\n      0x20\n        /* \"#utility.yul\":1416:1425   */\n      dup3\n        /* \"#utility.yul\":1412:1430   */\n      add\n        /* \"#utility.yul\":1404:1430   */\n      swap1\n      pop\n        /* \"#utility.yul\":1440:1505   */\n      tag_247\n        /* \"#utility.yul\":1502:1503   */\n      0x00\n        /* \"#utility.yul\":1491:1500   */\n      dup4\n        /* \"#utility.yul\":1487:1504   */\n      add\n        /* \"#utility.yul\":1478:1484   */\n      dup5\n        /* \"#utility.yul\":1440:1505   */\n      tag_199\n      jump\t// in\n    tag_247:\n        /* \"#utility.yul\":1302:1512   */\n      swap3\n      swap2\n      pop\n      pop\n      jump\t// out\n        /* \"#utility.yul\":1518:1595   */\n    tag_200:\n        /* \"#utility.yul\":1555:1562   */\n      0x00\n        /* \"#utility.yul\":1584:1589   */\n      dup2\n        /* \"#utility.yul\":1573:1589   */\n      swap1\n      pop\n        /* \"#utility.yul\":1518:1595   */\n      swap2\n      swap1\n      pop\n      jump\t// out\n        /* \"#utility.yul\":1601:1719   */\n    tag_201:\n        /* \"#utility.yul\":1688:1712   */\n      tag_250\n        /* \"#utility.yul\":1706:1711   */\n      dup2\n        /* \"#utility.yul\":1688:1712   */\n      tag_200\n      jump\t// in\n    tag_250:\n        /* \"#utility.yul\":1683:1686   */\n      dup3\n        /* \"#utility.yul\":1676:1713   */\n      mstore\n        /* \"#utility.yul\":1601:1719   */\n      pop\n      pop\n      jump\t// out\n        /* \"#utility.yul\":1725:1947   */\n    tag_34:\n        /* \"#utility.yul\":1818:1822   */\n      0x00\n        /* \"#utility.yul\":1856:1858   */\n      0x20\n        /* \"#utility.yul\":1845:1854   */\n      dup3\n        /* \"#utility.yul\":1841:1859   */\n      add\n        /* \"#utility.yul\":1833:1859   */\n      swap1\n      pop\n        /* \"#utility.yul\":1869:1940   */\n      tag_252\n        /* \"#utility.yul\":1937:1938   */\n      0x00\n        /* \"#utility.yul\":1926:1935   */\n      dup4\n        /* \"#utility.yul\":1922:1939   */\n      add\n        /* \"#utility.yul\":1913:1919   */\n      dup5\n        /* \"#utility.yul\":1869:1940   */\n      tag_201\n      jump\t// in\n    tag_252:\n        /* \"#utility.yul\":1725:1947   */\n      swap3\n      swap2\n      pop\n      pop\n      jump\t// out\n        /* \"#utility.yul\":1953:2030   */\n    tag_202:\n        /* \"#utility.yul\":1990:1997   */\n      0x00\n        /* \"#utility.yul\":2019:2024   */\n      dup2\n        /* \"#utility.yul\":2008:2024   */\n      swap1\n      pop\n        /* \"#utility.yul\":1953:2030   */\n      swap2\n      swap1\n      pop\n      jump\t// out\n        /* \"#utility.yul\":2036:2158   */\n    tag_203:\n        /* \"#utility.yul\":2109:2133   */\n      tag_255\n        /* \"#utility.yul\":2127:2132   */\n      dup2\n        /* \"#utility.yul\":2109:2133   */\n      tag_202\n      jump\t// in\n    tag_255:\n        /* \"#utility.yul\":2102:2107   */\n      dup2\n        /* \"#utility.yul\":2099:2134   */\n      eq\n        /* \"#utility.yul\":2089:2152   */\n      tag_256\n      jumpi\n        /* \"#utility.yul\":2148:2149   */\n      0x00\n        /* \"#utility.yul\":2145:2146   */\n      0x00\n        /* \"#utility.yul\":2138:2150   */\n      revert\n        /* \"#utility.yul\":2089:2152   */\n    tag_256:\n        /* \"#utility.yul\":2036:2158   */\n      pop\n      jump\t// out\n        /* \"#utility.yul\":2164:2303   */\n    tag_204:\n        /* \"#utility.yul\":2210:2215   */\n      0x00\n        /* \"#utility.yul\":2248:2254   */\n      dup2\n        /* \"#utility.yul\":2235:2255   */\n      calldataload\n        /* \"#utility.yul\":2226:2255   */\n      swap1\n      pop\n        /* \"#utility.yul\":2264:2297   */\n      tag_258\n        /* \"#utility.yul\":2291:2296   */\n      dup2\n        /* \"#utility.yul\":2264:2297   */\n      tag_203\n      jump\t// in\n    tag_258:\n        /* \"#utility.yul\":2164:2303   */\n      swap3\n      swap2\n      pop\n      pop\n      jump\t// out\n        /* \"#utility.yul\":2309:2638   */\n    tag_40:\n        /* \"#utility.yul\":2368:2374   */\n      0x00\n        /* \"#utility.yul\":2417:2419   */\n      0x20\n        /* \"#utility.yul\":2405:2414   */\n      dup3\n        /* \"#utility.yul\":2396:2403   */\n      dup5\n        /* \"#utility.yul\":2392:2415   */\n      sub\n        /* \"#utility.yul\":2388:2420   */\n      slt\n        /* \"#utility.yul\":2385:2504   */\n      iszero\n      tag_260\n      jumpi\n        /* \"#utility.yul\":2423:2502   */\n      tag_261\n      tag_193\n      jump\t// in\n    tag_261:\n        /* \"#utility.yul\":2385:2504   */\n    tag_260:\n        /* \"#utility.yul\":2543:2544   */\n      0x00\n        /* \"#utility.yul\":2568:2621   */\n      tag_262\n        /* \"#utility.yul\":2613:2620   */\n      dup5\n        /* \"#utility.yul\":2604:2610   */\n      dup3\n        /* \"#utility.yul\":2593:2602   */\n      dup6\n        /* \"#utility.yul\":2589:2611   */\n      add\n        /* \"#utility.yul\":2568:2621   */\n      tag_204\n      jump\t// in\n    tag_262:\n        /* \"#utility.yul\":2558:2621   */\n      swap2\n      pop\n        /* \"#utility.yul\":2514:2631   */\n      pop\n        /* \"#utility.yul\":2309:2638   */\n      swap3\n      swap2\n      pop\n      pop\n      jump\t// out\n        /* \"#utility.yul\":2644:2762   */\n    tag_205:\n        /* \"#utility.yul\":2731:2755   */\n      tag_264\n        /* \"#utility.yul\":2749:2754   */\n      dup2\n        /* \"#utility.yul\":2731:2755   */\n      tag_202\n      jump\t// in\n    tag_264:\n        /* \"#utility.yul\":2726:2729   */\n      dup3\n        /* \"#utility.yul\":2719:2756   */\n      mstore\n        /* \"#utility.yul\":2644:2762   */\n      pop\n      pop\n      jump\t// out\n        /* \"#utility.yul\":2768:2990   */\n    tag_43:\n        /* \"#utility.yul\":2861:2865   */\n      0x00\n        /* \"#utility.yul\":2899:2901   */\n      0x20\n        /* \"#utility.yul\":2888:2897   */\n      dup3\n        /* \"#utility.yul\":2884:2902   */\n      add\n        /* \"#utility.yul\":2876:2902   */\n      swap1\n      pop\n        /* \"#utility.yul\":2912:2983   */\n      tag_266\n        /* \"#utility.yul\":2980:2981   */\n      0x00\n        /* \"#utility.yul\":2969:2978   */\n      dup4\n        /* \"#utility.yul\":2965:2982   */\n      add\n        /* \"#utility.yul\":2956:2962   */\n      dup5\n        /* \"#utility.yul\":2912:2983   */\n      tag_205\n      jump\t// in\n    tag_266:\n        /* \"#utility.yul\":2768:2990   */\n      swap3\n      swap2\n      pop\n      pop\n      jump\t// out\n        /* \"#utility.yul\":2996:3122   */\n    tag_206:\n        /* \"#utility.yul\":3033:3040   */\n      0x00\n        /* \"#utility.yul\":3073:3115   */\n      0xffffffffffffffffffffffffffffffffffffffff\n        /* \"#utility.yul\":3066:3071   */\n      dup3\n        /* \"#utility.yul\":3062:3116   */\n      and\n        /* \"#utility.yul\":3051:3116   */\n      swap1\n      pop\n        /* \"#utility.yul\":2996:3122   */\n      swap2\n      swap1\n      pop\n      jump\t// out\n        /* \"#utility.yul\":3128:3224   */\n    tag_207:\n        /* \"#utility.yul\":3165:3172   */\n      0x00\n        /* \"#utility.yul\":3194:3218   */\n      tag_269\n        /* \"#utility.yul\":3212:3217   */\n      dup3\n        /* \"#utility.yul\":3194:3218   */\n      tag_206\n      jump\t// in\n    tag_269:\n        /* \"#utility.yul\":3183:3218   */\n      swap1\n      pop\n        /* \"#utility.yul\":3128:3224   */\n      swap2\n      swap1\n      pop\n      jump\t// out\n        /* \"#utility.yul\":3230:3352   */\n    tag_208:\n        /* \"#utility.yul\":3303:3327   */\n      tag_271\n        /* \"#utility.yul\":3321:3326   */\n      dup2\n        /* \"#utility.yul\":3303:3327   */\n      tag_207\n      jump\t// in\n    tag_271:\n        /* \"#utility.yul\":3296:3301   */\n      dup2\n        /* \"#utility.yul\":3293:3328   */\n      eq\n        /* \"#utility.yul\":3283:3346   */\n      tag_272\n      jumpi\n        /* \"#utility.yul\":3342:3343   */\n      0x00\n        /* \"#utility.yul\":3339:3340   */\n      0x00\n        /* \"#utility.yul\":3332:3344   */\n      revert\n        /* \"#utility.yul\":3283:3346   */\n    tag_272:\n        /* \"#utility.yul\":3230:3352   */\n      pop\n      jump\t// out\n        /* \"#utility.yul\":3358:3497   */\n    tag_209:\n        /* \"#utility.yul\":3404:3409   */\n      0x00\n        /* \"#utility.yul\":3442:3448   */\n      dup2\n        /* \"#utility.yul\":3429:3449   */\n      calldataload\n        /* \"#utility.yul\":3420:3449   */\n      swap1\n      pop\n        /* \"#utility.yul\":3458:3491   */\n      tag_274\n        /* \"#utility.yul\":3485:3490   */\n      dup2\n        /* \"#utility.yul\":3458:3491   */\n      tag_208\n      jump\t// in\n    tag_274:\n        /* \"#utility.yul\":3358:3497   */\n      swap3\n      swap2\n      pop\n      pop\n      jump\t// out\n        /* \"#utility.yul\":3503:3977   */\n    tag_46:\n        /* \"#utility.yul\":3571:3577   */\n      0x00\n        /* \"#utility.yul\":3579:3585   */\n      0x00\n        /* \"#utility.yul\":3628:3630   */\n      0x40\n        /* \"#utility.yul\":3616:3625   */\n      dup4\n        /* \"#utility.yul\":3607:3614   */\n      dup6\n        /* \"#utility.yul\":3603:3626   */\n      sub\n        /* \"#utility.yul\":3599:3631   */\n      slt\n        /* \"#utility.yul\":3596:3715   */\n      iszero\n      tag_276\n      jumpi\n        /* \"#utility.yul\":3634:3713   */\n      tag_277\n      tag_193\n      jump\t// in\n    tag_277:\n        /* \"#utility.yul\":3596:3715   */\n    tag_276:\n        /* \"#utility.yul\":3754:3755   */\n      0x00\n        /* \"#utility.yul\":3779:3832   */\n      tag_278\n        /* \"#utility.yul\":3824:3831   */\n      dup6\n        /* \"#utility.yul\":3815:3821   */\n      dup3\n        /* \"#utility.yul\":3804:3813   */\n      dup7\n        /* \"#utility.yul\":3800:3822   */\n      add\n        /* \"#utility.yul\":3779:3832   */\n      tag_204\n      jump\t// in\n    tag_278:\n        /* \"#utility.yul\":3769:3832   */\n      swap3\n      pop\n        /* \"#utility.yul\":3725:3842   */\n      pop\n        /* \"#utility.yul\":3881:3883   */\n      0x20\n        /* \"#utility.yul\":3907:3960   */\n      tag_279\n        /* \"#utility.yul\":3952:3959   */\n      dup6\n        /* \"#utility.yul\":3943:3949   */\n      dup3\n        /* \"#utility.yul\":3932:3941   */\n      dup7\n        /* \"#utility.yul\":3928:3950   */\n      add\n        /* \"#utility.yul\":3907:3960   */\n      tag_209\n      jump\t// in\n    tag_279:\n        /* \"#utility.yul\":3897:3960   */\n      swap2\n      pop\n        /* \"#utility.yul\":3852:3970   */\n      pop\n        /* \"#utility.yul\":3503:3977   */\n      swap3\n      pop\n      swap3\n      swap1\n      pop\n      jump\t// out\n        /* \"#utility.yul\":3983:4101   */\n    tag_210:\n        /* \"#utility.yul\":4070:4094   */\n      tag_281\n        /* \"#utility.yul\":4088:4093   */\n      dup2\n        /* \"#utility.yul\":4070:4094   */\n      tag_207\n      jump\t// in\n    tag_281:\n        /* \"#utility.yul\":4065:4068   */\n      dup3\n        /* \"#utility.yul\":4058:4095   */\n      mstore\n        /* \"#utility.yul\":3983:4101   */\n      pop\n      pop\n      jump\t// out\n        /* \"#utility.yul\":4107:4329   */\n    tag_54:\n        /* \"#utility.yul\":4200:4204   */\n      0x00\n        /* \"#utility.yul\":4238:4240   */\n      0x20\n        /* \"#utility.yul\":4227:4236   */\n      dup3\n        /* \"#utility.yul\":4223:4241   */\n      add\n        /* \"#utility.yul\":4215:4241   */\n      swap1\n      pop\n        /* \"#utility.yul\":4251:4322   */\n      tag_283\n        /* \"#utility.yul\":4319:4320   */\n      0x00\n        /* \"#utility.yul\":4308:4317   */\n      dup4\n        /* \"#utility.yul\":4304:4321   */\n      add\n        /* \"#utility.yul\":4295:4301   */\n      dup5\n        /* \"#utility.yul\":4251:4322   */\n      tag_210\n      jump\t// in\n    tag_283:\n        /* \"#utility.yul\":4107:4329   */\n      swap3\n      swap2\n      pop\n      pop\n      jump\t// out\n        /* \"#utility.yul\":4335:4395   */\n    tag_211:\n        /* \"#utility.yul\":4363:4366   */\n      0x00\n        /* \"#utility.yul\":4384:4389   */\n      dup2\n        /* \"#utility.yul\":4377:4389   */\n      swap1\n      pop\n        /* \"#utility.yul\":4335:4395   */\n      swap2\n      swap1\n      pop\n      jump\t// out\n        /* \"#utility.yul\":4401:4543   */\n    tag_212:\n        /* \"#utility.yul\":4451:4460   */\n      0x00\n        /* \"#utility.yul\":4484:4537   */\n      tag_286\n        /* \"#utility.yul\":4502:4536   */\n      tag_287\n        /* \"#utility.yul\":4511:4535   */\n      tag_288\n        /* \"#utility.yul\":4529:4534   */\n      dup5\n        /* \"#utility.yul\":4511:4535   */\n      tag_206\n      jump\t// in\n    tag_288:\n        /* \"#utility.yul\":4502:4536   */\n      tag_211\n      jump\t// in\n    tag_287:\n        /* \"#utility.yul\":4484:4537   */\n      tag_206\n      jump\t// in\n    tag_286:\n        /* \"#utility.yul\":4471:4537   */\n      swap1\n      pop\n        /* \"#utility.yul\":4401:4543   */\n      swap2\n      swap1\n      pop\n      jump\t// out\n        /* \"#utility.yul\":4549:4675   */\n    tag_213:\n        /* \"#utility.yul\":4599:4608   */\n      0x00\n        /* \"#utility.yul\":4632:4669   */\n      tag_290\n        /* \"#utility.yul\":4663:4668   */\n      dup3\n        /* \"#utility.yul\":4632:4669   */\n      tag_212\n      jump\t// in\n    tag_290:\n        /* \"#utility.yul\":4619:4669   */\n      swap1\n      pop\n        /* \"#utility.yul\":4549:4675   */\n      swap2\n      swap1\n      pop\n      jump\t// out\n        /* \"#utility.yul\":4681:4821   */\n    tag_214:\n        /* \"#utility.yul\":4745:4754   */\n      0x00\n        /* \"#utility.yul\":4778:4815   */\n      tag_292\n        /* \"#utility.yul\":4809:4814   */\n      dup3\n        /* \"#utility.yul\":4778:4815   */\n      tag_213\n      jump\t// in\n    tag_292:\n        /* \"#utility.yul\":4765:4815   */\n      swap1\n      pop\n        /* \"#utility.yul\":4681:4821   */\n      swap2\n      swap1\n      pop\n      jump\t// out\n        /* \"#utility.yul\":4827:4986   */\n    tag_215:\n        /* \"#utility.yul\":4928:4979   */\n      tag_294\n        /* \"#utility.yul\":4973:4978   */\n      dup2\n        /* \"#utility.yul\":4928:4979   */\n      tag_214\n      jump\t// in\n    tag_294:\n        /* \"#utility.yul\":4923:4926   */\n      dup3\n        /* \"#utility.yul\":4916:4980   */\n      mstore\n        /* \"#utility.yul\":4827:4986   */\n      pop\n      pop\n      jump\t// out\n        /* \"#utility.yul\":4992:5242   */\n    tag_90:\n        /* \"#utility.yul\":5099:5103   */\n      0x00\n        /* \"#utility.yul\":5137:5139   */\n      0x20\n        /* \"#utility.yul\":5126:5135   */\n      dup3\n        /* \"#utility.yul\":5122:5140   */\n      add\n        /* \"#utility.yul\":5114:5140   */\n      swap1\n      pop\n        /* \"#utility.yul\":5150:5235   */\n      tag_296\n        /* \"#utility.yul\":5232:5233   */\n      0x00\n        /* \"#utility.yul\":5221:5230   */\n      dup4\n        /* \"#utility.yul\":5217:5234   */\n      add\n        /* \"#utility.yul\":5208:5214   */\n      dup5\n        /* \"#utility.yul\":5150:5235   */\n      tag_215\n      jump\t// in\n    tag_296:\n        /* \"#utility.yul\":4992:5242   */\n      swap3\n      swap2\n      pop\n      pop\n      jump\t// out\n        /* \"#utility.yul\":5248:5370   */\n    tag_216:\n        /* \"#utility.yul\":5321:5345   */\n      tag_298\n        /* \"#utility.yul\":5339:5344   */\n      dup2\n        /* \"#utility.yul\":5321:5345   */\n      tag_200\n      jump\t// in\n    tag_298:\n        /* \"#utility.yul\":5314:5319   */\n      dup2\n        /* \"#utility.yul\":5311:5346   */\n      eq\n        /* \"#utility.yul\":5301:5364   */\n      tag_299\n      jumpi\n        /* \"#utility.yul\":5360:5361   */\n      0x00\n        /* \"#utility.yul\":5357:5358   */\n      0x00\n        /* \"#utility.yul\":5350:5362   */\n      revert\n        /* \"#utility.yul\":5301:5364   */\n    tag_299:\n        /* \"#utility.yul\":5248:5370   */\n      pop\n      jump\t// out\n        /* \"#utility.yul\":5376:5519   */\n    tag_217:\n        /* \"#utility.yul\":5433:5438   */\n      0x00\n        /* \"#utility.yul\":5464:5470   */\n      dup2\n        /* \"#utility.yul\":5458:5471   */\n      mload\n        /* \"#utility.yul\":5449:5471   */\n      swap1\n      pop\n        /* \"#utility.yul\":5480:5513   */\n      tag_301\n        /* \"#utility.yul\":5507:5512   */\n      dup2\n        /* \"#utility.yul\":5480:5513   */\n      tag_216\n      jump\t// in\n    tag_301:\n        /* \"#utility.yul\":5376:5519   */\n      swap3\n      swap2\n      pop\n      pop\n      jump\t// out\n        /* \"#utility.yul\":5525:5876   */\n    tag_114:\n        /* \"#utility.yul\":5595:5601   */\n      0x00\n        /* \"#utility.yul\":5644:5646   */\n      0x20\n        /* \"#utility.yul\":5632:5641   */\n      dup3\n        /* \"#utility.yul\":5623:5630   */\n      dup5\n        /* \"#utility.yul\":5619:5642   */\n      sub\n        /* \"#utility.yul\":5615:5647   */\n      slt\n        /* \"#utility.yul\":5612:5731   */\n      iszero\n      tag_303\n      jumpi\n        /* \"#utility.yul\":5650:5729   */\n      tag_304\n      tag_193\n      jump\t// in\n    tag_304:\n        /* \"#utility.yul\":5612:5731   */\n    tag_303:\n        /* \"#utility.yul\":5770:5771   */\n      0x00\n        /* \"#utility.yul\":5795:5859   */\n      tag_305\n        /* \"#utility.yul\":5851:5858   */\n      dup5\n        /* \"#utility.yul\":5842:5848   */\n      dup3\n        /* \"#utility.yul\":5831:5840   */\n      dup6\n        /* \"#utility.yul\":5827:5849   */\n      add\n        /* \"#utility.yul\":5795:5859   */\n      tag_217\n      jump\t// in\n    tag_305:\n        /* \"#utility.yul\":5785:5859   */\n      swap2\n      pop\n        /* \"#utility.yul\":5741:5869   */\n      pop\n        /* \"#utility.yul\":5525:5876   */\n      swap3\n      swap2\n      pop\n      pop\n      jump\t// out\n        /* \"#utility.yul\":5882:6062   */\n    tag_218:\n        /* \"#utility.yul\":5930:6007   */\n      0x4e487b7100000000000000000000000000000000000000000000000000000000\n        /* \"#utility.yul\":5927:5928   */\n      0x00\n        /* \"#utility.yul\":5920:6008   */\n      mstore\n        /* \"#utility.yul\":6027:6031   */\n      0x11\n        /* \"#utility.yul\":6024:6025   */\n      0x04\n        /* \"#utility.yul\":6017:6032   */\n      mstore\n        /* \"#utility.yul\":6051:6055   */\n      0x24\n        /* \"#utility.yul\":6048:6049   */\n      0x00\n        /* \"#utility.yul\":6041:6056   */\n      revert\n        /* \"#utility.yul\":6068:6259   */\n    tag_116:\n        /* \"#utility.yul\":6108:6111   */\n      0x00\n        /* \"#utility.yul\":6127:6147   */\n      tag_308\n        /* \"#utility.yul\":6145:6146   */\n      dup3\n        /* \"#utility.yul\":6127:6147   */\n      tag_200\n      jump\t// in\n    tag_308:\n        /* \"#utility.yul\":6122:6147   */\n      swap2\n      pop\n        /* \"#utility.yul\":6161:6181   */\n      tag_309\n        /* \"#utility.yul\":6179:6180   */\n      dup4\n        /* \"#utility.yul\":6161:6181   */\n      tag_200\n      jump\t// in\n    tag_309:\n        /* \"#utility.yul\":6156:6181   */\n      swap3\n      pop\n        /* \"#utility.yul\":6204:6205   */\n      dup3\n        /* \"#utility.yul\":6201:6202   */\n      dup3\n        /* \"#utility.yul\":6197:6206   */\n      add\n        /* \"#utility.yul\":6190:6206   */\n      swap1\n      pop\n        /* \"#utility.yul\":6225:6228   */\n      dup1\n        /* \"#utility.yul\":6222:6223   */\n      dup3\n        /* \"#utility.yul\":6219:6229   */\n      gt\n        /* \"#utility.yul\":6216:6252   */\n      iszero\n      tag_310\n      jumpi\n        /* \"#utility.yul\":6232:6250   */\n      tag_311\n      tag_218\n      jump\t// in\n    tag_311:\n        /* \"#utility.yul\":6216:6252   */\n    tag_310:\n        /* \"#utility.yul\":6068:6259   */\n      swap3\n      swap2\n      pop\n      pop\n      jump\t// out\n        /* \"#utility.yul\":6265:6459   */\n    tag_124:\n        /* \"#utility.yul\":6305:6309   */\n      0x00\n        /* \"#utility.yul\":6325:6345   */\n      tag_313\n        /* \"#utility.yul\":6343:6344   */\n      dup3\n        /* \"#utility.yul\":6325:6345   */\n      tag_200\n      jump\t// in\n    tag_313:\n        /* \"#utility.yul\":6320:6345   */\n      swap2\n      pop\n        /* \"#utility.yul\":6359:6379   */\n      tag_314\n        /* \"#utility.yul\":6377:6378   */\n      dup4\n        /* \"#utility.yul\":6359:6379   */\n      tag_200\n      jump\t// in\n    tag_314:\n        /* \"#utility.yul\":6354:6379   */\n      swap3\n      pop\n        /* \"#utility.yul\":6403:6404   */\n      dup3\n        /* \"#utility.yul\":6400:6401   */\n      dup3\n        /* \"#utility.yul\":6396:6405   */\n      sub\n        /* \"#utility.yul\":6388:6405   */\n      swap1\n      pop\n        /* \"#utility.yul\":6427:6428   */\n      dup2\n        /* \"#utility.yul\":6421:6425   */\n      dup2\n        /* \"#utility.yul\":6418:6429   */\n      gt\n        /* \"#utility.yul\":6415:6452   */\n      iszero\n      tag_315\n      jumpi\n        /* \"#utility.yul\":6432:6450   */\n      tag_316\n      tag_218\n      jump\t// in\n    tag_316:\n        /* \"#utility.yul\":6415:6452   */\n    tag_315:\n        /* \"#utility.yul\":6265:6459   */\n      swap3\n      swap2\n      pop\n      pop\n      jump\t// out\n        /* \"#utility.yul\":6465:6875   */\n    tag_126:\n        /* \"#utility.yul\":6505:6512   */\n      0x00\n        /* \"#utility.yul\":6528:6548   */\n      tag_318\n        /* \"#utility.yul\":6546:6547   */\n      dup3\n        /* \"#utility.yul\":6528:6548   */\n      tag_200\n      jump\t// in\n    tag_318:\n        /* \"#utility.yul\":6523:6548   */\n      swap2\n      pop\n        /* \"#utility.yul\":6562:6582   */\n      tag_319\n        /* \"#utility.yul\":6580:6581   */\n      dup4\n        /* \"#utility.yul\":6562:6582   */\n      tag_200\n      jump\t// in\n    tag_319:\n        /* \"#utility.yul\":6557:6582   */\n      swap3\n      pop\n        /* \"#utility.yul\":6617:6618   */\n      dup3\n        /* \"#utility.yul\":6614:6615   */\n      dup3\n        /* \"#utility.yul\":6610:6619   */\n      mul\n        /* \"#utility.yul\":6639:6669   */\n      tag_320\n        /* \"#utility.yul\":6657:6668   */\n      dup2\n        /* \"#utility.yul\":6639:6669   */\n      tag_200\n      jump\t// in\n    tag_320:\n        /* \"#utility.yul\":6628:6669   */\n      swap2\n      pop\n        /* \"#utility.yul\":6818:6819   */\n      dup3\n        /* \"#utility.yul\":6809:6816   */\n      dup3\n        /* \"#utility.yul\":6805:6820   */\n      div\n        /* \"#utility.yul\":6802:6803   */\n      dup5\n        /* \"#utility.yul\":6799:6821   */\n      eq\n        /* \"#utility.yul\":6779:6780   */\n      dup4\n        /* \"#utility.yul\":6772:6781   */\n      iszero\n        /* \"#utility.yul\":6752:6835   */\n      or\n        /* \"#utility.yul\":6729:6868   */\n      tag_321\n      jumpi\n        /* \"#utility.yul\":6848:6866   */\n      tag_322\n      tag_218\n      jump\t// in\n    tag_322:\n        /* \"#utility.yul\":6729:6868   */\n    tag_321:\n        /* \"#utility.yul\":6513:6875   */\n      pop\n        /* \"#utility.yul\":6465:6875   */\n      swap3\n      swap2\n      pop\n      pop\n      jump\t// out\n        /* \"#utility.yul\":6881:7061   */\n    tag_219:\n        /* \"#utility.yul\":6929:7006   */\n      0x4e487b7100000000000000000000000000000000000000000000000000000000\n        /* \"#utility.yul\":6926:6927   */\n      0x00\n        /* \"#utility.yul\":6919:7007   */\n      mstore\n        /* \"#utility.yul\":7026:7030   */\n      0x12\n        /* \"#utility.yul\":7023:7024   */\n      0x04\n        /* \"#utility.yul\":7016:7031   */\n      mstore\n        /* \"#utility.yul\":7050:7054   */\n      0x24\n        /* \"#utility.yul\":7047:7048   */\n      0x00\n        /* \"#utility.yul\":7040:7055   */\n      revert\n        /* \"#utility.yul\":7067:7252   */\n    tag_128:\n        /* \"#utility.yul\":7107:7108   */\n      0x00\n        /* \"#utility.yul\":7124:7144   */\n      tag_325\n        /* \"#utility.yul\":7142:7143   */\n      dup3\n        /* \"#utility.yul\":7124:7144   */\n      tag_200\n      jump\t// in\n    tag_325:\n        /* \"#utility.yul\":7119:7144   */\n      swap2\n      pop\n        /* \"#utility.yul\":7158:7178   */\n      tag_326\n        /* \"#utility.yul\":7176:7177   */\n      dup4\n        /* \"#utility.yul\":7158:7178   */\n      tag_200\n      jump\t// in\n    tag_326:\n        /* \"#utility.yul\":7153:7178   */\n      swap3\n      pop\n        /* \"#utility.yul\":7197:7198   */\n      dup3\n        /* \"#utility.yul\":7187:7222   */\n      tag_327\n      jumpi\n        /* \"#utility.yul\":7202:7220   */\n      tag_328\n      tag_219\n      jump\t// in\n    tag_328:\n        /* \"#utility.yul\":7187:7222   */\n    tag_327:\n        /* \"#utility.yul\":7244:7245   */\n      dup3\n        /* \"#utility.yul\":7241:7242   */\n      dup3\n        /* \"#utility.yul\":7237:7246   */\n      div\n        /* \"#utility.yul\":7232:7246   */\n      swap1\n      pop\n        /* \"#utility.yul\":7067:7252   */\n      swap3\n      swap2\n      pop\n      pop\n      jump\t// out\n        /* \"#utility.yul\":7258:7427   */\n    tag_220:\n        /* \"#utility.yul\":7342:7353   */\n      0x00\n        /* \"#utility.yul\":7376:7382   */\n      dup3\n        /* \"#utility.yul\":7371:7374   */\n      dup3\n        /* \"#utility.yul\":7364:7383   */\n      mstore\n        /* \"#utility.yul\":7416:7420   */\n      0x20\n        /* \"#utility.yul\":7411:7414   */\n      dup3\n        /* \"#utility.yul\":7407:7421   */\n      add\n        /* \"#utility.yul\":7392:7421   */\n      swap1\n      pop\n        /* \"#utility.yul\":7258:7427   */\n      swap3\n      swap2\n      pop\n      pop\n      jump\t// out\n        /* \"#utility.yul\":7433:7598   */\n    tag_221:\n        /* \"#utility.yul\":7573:7590   */\n      0x56657374696e67207265766f6b65640000000000000000000000000000000000\n        /* \"#utility.yul\":7569:7570   */\n      0x00\n        /* \"#utility.yul\":7561:7567   */\n      dup3\n        /* \"#utility.yul\":7557:7571   */\n      add\n        /* \"#utility.yul\":7550:7591   */\n      mstore\n        /* \"#utility.yul\":7433:7598   */\n      pop\n      jump\t// out\n        /* \"#utility.yul\":7604:7970   */\n    tag_222:\n        /* \"#utility.yul\":7746:7749   */\n      0x00\n        /* \"#utility.yul\":7767:7834   */\n      tag_332\n        /* \"#utility.yul\":7831:7833   */\n      0x0f\n        /* \"#utility.yul\":7826:7829   */\n      dup4\n        /* \"#utility.yul\":7767:7834   */\n      tag_220\n      jump\t// in\n    tag_332:\n        /* \"#utility.yul\":7760:7834   */\n      swap2\n      pop\n        /* \"#utility.yul\":7843:7936   */\n      tag_333\n        /* \"#utility.yul\":7932:7935   */\n      dup3\n        /* \"#utility.yul\":7843:7936   */\n      tag_221\n      jump\t// in\n    tag_333:\n        /* \"#utility.yul\":7961:7963   */\n      0x20\n        /* \"#utility.yul\":7956:7959   */\n      dup3\n        /* \"#utility.yul\":7952:7964   */\n      add\n        /* \"#utility.yul\":7945:7964   */\n      swap1\n      pop\n        /* \"#utility.yul\":7604:7970   */\n      swap2\n      swap1\n      pop\n      jump\t// out\n        /* \"#utility.yul\":7976:8395   */\n    tag_135:\n        /* \"#utility.yul\":8142:8146   */\n      0x00\n        /* \"#utility.yul\":8180:8182   */\n      0x20\n        /* \"#utility.yul\":8169:8178   */\n      dup3\n        /* \"#utility.yul\":8165:8183   */\n      add\n        /* \"#utility.yul\":8157:8183   */\n      swap1\n      pop\n        /* \"#utility.yul\":8229:8238   */\n      dup2\n        /* \"#utility.yul\":8223:8227   */\n      dup2\n        /* \"#utility.yul\":8219:8239   */\n      sub\n        /* \"#utility.yul\":8215:8216   */\n      0x00\n        /* \"#utility.yul\":8204:8213   */\n      dup4\n        /* \"#utility.yul\":8200:8217   */\n      add\n        /* \"#utility.yul\":8193:8240   */\n      mstore\n        /* \"#utility.yul\":8257:8388   */\n      tag_335\n        /* \"#utility.yul\":8383:8387   */\n      dup2\n        /* \"#utility.yul\":8257:8388   */\n      tag_222\n      jump\t// in\n    tag_335:\n        /* \"#utility.yul\":8249:8388   */\n      swap1\n      pop\n        /* \"#utility.yul\":7976:8395   */\n      swap2\n      swap1\n      pop\n      jump\t// out\n        /* \"#utility.yul\":8401:8569   */\n    tag_223:\n        /* \"#utility.yul\":8541:8561   */\n      0x4e6f7468696e6720746f2072656c656173650000000000000000000000000000\n        /* \"#utility.yul\":8537:8538   */\n      0x00\n        /* \"#utility.yul\":8529:8535   */\n      dup3\n        /* \"#utility.yul\":8525:8539   */\n      add\n        /* \"#utility.yul\":8518:8562   */\n      mstore\n        /* \"#utility.yul\":8401:8569   */\n      pop\n      jump\t// out\n        /* \"#utility.yul\":8575:8941   */\n    tag_224:\n        /* \"#utility.yul\":8717:8720   */\n      0x00\n        /* \"#utility.yul\":8738:8805   */\n      tag_338\n        /* \"#utility.yul\":8802:8804   */\n      0x12\n        /* \"#utility.yul\":8797:8800   */\n      dup4\n        /* \"#utility.yul\":8738:8805   */\n      tag_220\n      jump\t// in\n    tag_338:\n        /* \"#utility.yul\":8731:8805   */\n      swap2\n      pop\n        /* \"#utility.yul\":8814:8907   */\n      tag_339\n        /* \"#utility.yul\":8903:8906   */\n      dup3\n        /* \"#utility.yul\":8814:8907   */\n      tag_223\n      jump\t// in\n    tag_339:\n        /* \"#utility.yul\":8932:8934   */\n      0x20\n        /* \"#utility.yul\":8927:8930   */\n      dup3\n        /* \"#utility.yul\":8923:8935   */\n      add\n        /* \"#utility.yul\":8916:8935   */\n      swap1\n      pop\n        /* \"#utility.yul\":8575:8941   */\n      swap2\n      swap1\n      pop\n      jump\t// out\n        /* \"#utility.yul\":8947:9366   */\n    tag_139:\n        /* \"#utility.yul\":9113:9117   */\n      0x00\n        /* \"#utility.yul\":9151:9153   */\n      0x20\n        /* \"#utility.yul\":9140:9149   */\n      dup3\n        /* \"#utility.yul\":9136:9154   */\n      add\n        /* \"#utility.yul\":9128:9154   */\n      swap1\n      pop\n        /* \"#utility.yul\":9200:9209   */\n      dup2\n        /* \"#utility.yul\":9194:9198   */\n      dup2\n        /* \"#utility.yul\":9190:9210   */\n      sub\n        /* \"#utility.yul\":9186:9187   */\n      0x00\n        /* \"#utility.yul\":9175:9184   */\n      dup4\n        /* \"#utility.yul\":9171:9188   */\n      add\n        /* \"#utility.yul\":9164:9211   */\n      mstore\n        /* \"#utility.yul\":9228:9359   */\n      tag_341\n        /* \"#utility.yul\":9354:9358   */\n      dup2\n        /* \"#utility.yul\":9228:9359   */\n      tag_224\n      jump\t// in\n    tag_341:\n        /* \"#utility.yul\":9220:9359   */\n      swap1\n      pop\n        /* \"#utility.yul\":8947:9366   */\n      swap2\n      swap1\n      pop\n      jump\t// out\n        /* \"#utility.yul\":9372:9704   */\n    tag_142:\n        /* \"#utility.yul\":9493:9497   */\n      0x00\n        /* \"#utility.yul\":9531:9533   */\n      0x40\n        /* \"#utility.yul\":9520:9529   */\n      dup3\n        /* \"#utility.yul\":9516:9534   */\n      add\n        /* \"#utility.yul\":9508:9534   */\n      swap1\n      pop\n        /* \"#utility.yul\":9544:9615   */\n      tag_343\n        /* \"#utility.yul\":9612:9613   */\n      0x00\n        /* \"#utility.yul\":9601:9610   */\n      dup4\n        /* \"#utility.yul\":9597:9614   */\n      add\n        /* \"#utility.yul\":9588:9594   */\n      dup6\n        /* \"#utility.yul\":9544:9615   */\n      tag_210\n      jump\t// in\n    tag_343:\n        /* \"#utility.yul\":9625:9697   */\n      tag_344\n        /* \"#utility.yul\":9693:9695   */\n      0x20\n        /* \"#utility.yul\":9682:9691   */\n      dup4\n        /* \"#utility.yul\":9678:9696   */\n      add\n        /* \"#utility.yul\":9669:9675   */\n      dup5\n        /* \"#utility.yul\":9625:9697   */\n      tag_201\n      jump\t// in\n    tag_344:\n        /* \"#utility.yul\":9372:9704   */\n      swap4\n      swap3\n      pop\n      pop\n      pop\n      jump\t// out\n        /* \"#utility.yul\":9710:9826   */\n    tag_225:\n        /* \"#utility.yul\":9780:9801   */\n      tag_346\n        /* \"#utility.yul\":9795:9800   */\n      dup2\n        /* \"#utility.yul\":9780:9801   */\n      tag_198\n      jump\t// in\n    tag_346:\n        /* \"#utility.yul\":9773:9778   */\n      dup2\n        /* \"#utility.yul\":9770:9802   */\n      eq\n        /* \"#utility.yul\":9760:9820   */\n      tag_347\n      jumpi\n        /* \"#utility.yul\":9816:9817   */\n      0x00\n        /* \"#utility.yul\":9813:9814   */\n      0x00\n        /* \"#utility.yul\":9806:9818   */\n      revert\n        /* \"#utility.yul\":9760:9820   */\n    tag_347:\n        /* \"#utility.yul\":9710:9826   */\n      pop\n      jump\t// out\n        /* \"#utility.yul\":9832:9969   */\n    tag_226:\n        /* \"#utility.yul\":9886:9891   */\n      0x00\n        /* \"#utility.yul\":9917:9923   */\n      dup2\n        /* \"#utility.yul\":9911:9924   */\n      mload\n        /* \"#utility.yul\":9902:9924   */\n      swap1\n      pop\n        /* \"#utility.yul\":9933:9963   */\n      tag_349\n        /* \"#utility.yul\":9957:9962   */\n      dup2\n        /* \"#utility.yul\":9933:9963   */\n      tag_225\n      jump\t// in\n    tag_349:\n        /* \"#utility.yul\":9832:9969   */\n      swap3\n      swap2\n      pop\n      pop\n      jump\t// out\n        /* \"#utility.yul\":9975:10320   */\n    tag_146:\n        /* \"#utility.yul\":10042:10048   */\n      0x00\n        /* \"#utility.yul\":10091:10093   */\n      0x20\n        /* \"#utility.yul\":10079:10088   */\n      dup3\n        /* \"#utility.yul\":10070:10077   */\n      dup5\n        /* \"#utility.yul\":10066:10089   */\n      sub\n        /* \"#utility.yul\":10062:10094   */\n      slt\n        /* \"#utility.yul\":10059:10178   */\n      iszero\n      tag_351\n      jumpi\n        /* \"#utility.yul\":10097:10176   */\n      tag_352\n      tag_193\n      jump\t// in\n    tag_352:\n        /* \"#utility.yul\":10059:10178   */\n    tag_351:\n        /* \"#utility.yul\":10217:10218   */\n      0x00\n        /* \"#utility.yul\":10242:10303   */\n      tag_353\n        /* \"#utility.yul\":10295:10302   */\n      dup5\n        /* \"#utility.yul\":10286:10292   */\n      dup3\n        /* \"#utility.yul\":10275:10284   */\n      dup6\n        /* \"#utility.yul\":10271:10293   */\n      add\n        /* \"#utility.yul\":10242:10303   */\n      tag_226\n      jump\t// in\n    tag_353:\n        /* \"#utility.yul\":10232:10303   */\n      swap2\n      pop\n        /* \"#utility.yul\":10188:10313   */\n      pop\n        /* \"#utility.yul\":9975:10320   */\n      swap3\n      swap2\n      pop\n      pop\n      jump\t// out\n        /* \"#utility.yul\":10326:10491   */\n    tag_227:\n        /* \"#utility.yul\":10466:10483   */\n      0x416c7265616479207265766f6b65640000000000000000000000000000000000\n        /* \"#utility.yul\":10462:10463   */\n      0x00\n        /* \"#utility.yul\":10454:10460   */\n      dup3\n        /* \"#utility.yul\":10450:10464   */\n      add\n        /* \"#utility.yul\":10443:10484   */\n      mstore\n        /* \"#utility.yul\":10326:10491   */\n      pop\n      jump\t// out\n        /* \"#utility.yul\":10497:10863   */\n    tag_228:\n        /* \"#utility.yul\":10639:10642   */\n      0x00\n        /* \"#utility.yul\":10660:10727   */\n      tag_356\n        /* \"#utility.yul\":10724:10726   */\n      0x0f\n        /* \"#utility.yul\":10719:10722   */\n      dup4\n        /* \"#utility.yul\":10660:10727   */\n      tag_220\n      jump\t// in\n    tag_356:\n        /* \"#utility.yul\":10653:10727   */\n      swap2\n      pop\n        /* \"#utility.yul\":10736:10829   */\n      tag_357\n        /* \"#utility.yul\":10825:10828   */\n      dup3\n        /* \"#utility.yul\":10736:10829   */\n      tag_227\n      jump\t// in\n    tag_357:\n        /* \"#utility.yul\":10854:10856   */\n      0x20\n        /* \"#utility.yul\":10849:10852   */\n      dup3\n        /* \"#utility.yul\":10845:10857   */\n      add\n        /* \"#utility.yul\":10838:10857   */\n      swap1\n      pop\n        /* \"#utility.yul\":10497:10863   */\n      swap2\n      swap1\n      pop\n      jump\t// out\n        /* \"#utility.yul\":10869:11288   */\n    tag_154:\n        /* \"#utility.yul\":11035:11039   */\n      0x00\n        /* \"#utility.yul\":11073:11075   */\n      0x20\n        /* \"#utility.yul\":11062:11071   */\n      dup3\n        /* \"#utility.yul\":11058:11076   */\n      add\n        /* \"#utility.yul\":11050:11076   */\n      swap1\n      pop\n        /* \"#utility.yul\":11122:11131   */\n      dup2\n        /* \"#utility.yul\":11116:11120   */\n      dup2\n        /* \"#utility.yul\":11112:11132   */\n      sub\n        /* \"#utility.yul\":11108:11109   */\n      0x00\n        /* \"#utility.yul\":11097:11106   */\n      dup4\n        /* \"#utility.yul\":11093:11110   */\n      add\n        /* \"#utility.yul\":11086:11133   */\n      mstore\n        /* \"#utility.yul\":11150:11281   */\n      tag_359\n        /* \"#utility.yul\":11276:11280   */\n      dup2\n        /* \"#utility.yul\":11150:11281   */\n      tag_228\n      jump\t// in\n    tag_359:\n        /* \"#utility.yul\":11142:11281   */\n      swap1\n      pop\n        /* \"#utility.yul\":10869:11288   */\n      swap2\n      swap1\n      pop\n      jump\t// out\n        /* \"#utility.yul\":11294:11626   */\n    tag_191:\n        /* \"#utility.yul\":11415:11419   */\n      0x00\n        /* \"#utility.yul\":11453:11455   */\n      0x40\n        /* \"#utility.yul\":11442:11451   */\n      dup3\n        /* \"#utility.yul\":11438:11456   */\n      add\n        /* \"#utility.yul\":11430:11456   */\n      swap1\n      pop\n        /* \"#utility.yul\":11466:11537   */\n      tag_361\n        /* \"#utility.yul\":11534:11535   */\n      0x00\n        /* \"#utility.yul\":11523:11532   */\n      dup4\n        /* \"#utility.yul\":11519:11536   */\n      add\n        /* \"#utility.yul\":11510:11516   */\n      dup6\n        /* \"#utility.yul\":11466:11537   */\n      tag_210\n      jump\t// in\n    tag_361:\n        /* \"#utility.yul\":11547:11619   */\n      tag_362\n        /* \"#utility.yul\":11615:11617   */\n      0x20\n        /* \"#utility.yul\":11604:11613   */\n      dup4\n        /* \"#utility.yul\":11600:11618   */\n      add\n        /* \"#utility.yul\":11591:11597   */\n      dup5\n        /* \"#utility.yul\":11547:11619   */\n      tag_205\n      jump\t// in\n    tag_362:\n        /* \"#utility.yul\":11294:11626   */\n      swap4\n      swap3\n      pop\n      pop\n      pop\n      jump\t// out\n\n    auxdata: 0xa26469706673582212204d9c7b43537cac5dbd31336ec17095b2e6d3363e97b81ffa367fbad0d97a169d64736f6c634300081c0033\n}\n",
				"bytecode": {
					"linkReferences": {},
					"object": "610120604052348015610010575f5ffd5b50604051611c3b380380611c3b83398181016040528101906100329190610477565b5f73ffffffffffffffffffffffffffffffffffffffff168673ffffffffffffffffffffffffffffffffffffffff16036100a0576040517f08c379a00000000000000000000000000000000000000000000000000000000081526004016100979061055a565b60405180910390fd5b5f73ffffffffffffffffffffffffffffffffffffffff168573ffffffffffffffffffffffffffffffffffffffff160361010e576040517f08c379a0000000000000000000000000000000000000000000000000000000008152600401610105906105c2565b60405180910390fd5b5f73ffffffffffffffffffffffffffffffffffffffff168173ffffffffffffffffffffffffffffffffffffffff160361017c576040517f08c379a00000000000000000000000000000000000000000000000000000000081526004016101739061062a565b60405180910390fd5b818311156101bf576040517f08c379a00000000000000000000000000000000000000000000000000000000081526004016101b690610692565b60405180910390fd5b6101ef7fa49807205ce4d355092ef5a8a18f56e8913cf4a201fbe287825b095693c217758261028760201b60201c565b508573ffffffffffffffffffffffffffffffffffffffff1660808173ffffffffffffffffffffffffffffffffffffffff16815250508473ffffffffffffffffffffffffffffffffffffffff1660a08173ffffffffffffffffffffffffffffffffffffffff16815250508360e08181525050828461026c91906106dd565b60c08181525050816101008181525050505050505050610710565b5f610298838361037c60201b60201c565b6103725760015f5f8581526020019081526020015f205f015f8473ffffffffffffffffffffffffffffffffffffffff1673ffffffffffffffffffffffffffffffffffffffff1681526020019081526020015f205f6101000a81548160ff02191690831515021790555061030f6103df60201b60201c565b73ffffffffffffffffffffffffffffffffffffffff168273ffffffffffffffffffffffffffffffffffffffff16847f2f8788117e7eff1d82e926ec794901d17c78024a50270940304540a733656f0d60405160405180910390a460019050610376565b5f90505b92915050565b5f5f5f8481526020019081526020015f205f015f8373ffffffffffffffffffffffffffffffffffffffff1673ffffffffffffffffffffffffffffffffffffffff1681526020019081526020015f205f9054906101000a900460ff16905092915050565b5f33905090565b5f5ffd5b5f73ffffffffffffffffffffffffffffffffffffffff82169050919050565b5f610413826103ea565b9050919050565b61042381610409565b811461042d575f5ffd5b50565b5f8151905061043e8161041a565b92915050565b5f819050919050565b61045681610444565b8114610460575f5ffd5b50565b5f815190506104718161044d565b92915050565b5f5f5f5f5f5f60c08789031215610491576104906103e6565b5b5f61049e89828a01610430565b96505060206104af89828a01610430565b95505060406104c089828a01610463565b94505060606104d189828a01610463565b93505060806104e289828a01610463565b92505060a06104f389828a01610430565b9150509295509295509295565b5f82825260208201905092915050565b7f496e76616c696420746f6b656e000000000000000000000000000000000000005f82015250565b5f610544600d83610500565b915061054f82610510565b602082019050919050565b5f6020820190508181035f83015261057181610538565b9050919050565b7f496e76616c69642062656e6566696369617279000000000000000000000000005f82015250565b5f6105ac601383610500565b91506105b782610578565b602082019050919050565b5f6020820190508181035f8301526105d9816105a0565b9050919050565b7f496e76616c69642061646d696e000000000000000000000000000000000000005f82015250565b5f610614600d83610500565b915061061f826105e0565b602082019050919050565b5f6020820190508181035f83015261064181610608565b9050919050565b7f436c696666203e206475726174696f6e000000000000000000000000000000005f82015250565b5f61067c601083610500565b915061068782610648565b602082019050919050565b5f6020820190508181035f8301526106a981610670565b9050919050565b7f4e487b71000000000000000000000000000000000000000000000000000000005f52601160045260245ffd5b5f6106e782610444565b91506106f283610444565b925082820190508082111561070a576107096106b0565b5b92915050565b60805160a05160c05160e051610100516114a86107935f395f81816103e0015281816105e4015261065901525f81816106050152818161067a0152610b5001525f818161040401526105b201525f81816104e1015261080801525f8181610507015281816107cc015281816109c501528181610a810152610b9601526114a85ff3fe608060405234801561000f575f5ffd5b506004361061011f575f3560e01c806363d256ce116100ab578063a217fddf1161006f578063a217fddf146102e5578063b6549f7514610303578063be9a65551461030d578063d547741f1461032b578063fc0c546a146103475761011f565b806363d256ce1461025157806375b238fc1461026f57806386d1a69f1461028d57806391d148541461029757806396132521146102c75761011f565b80632f2ff15d116100f25780632f2ff15d146101bf57806336568abe146101db57806338af3eed146101f757806344b1231f146102155780635b940081146102335761011f565b806301ffc9a7146101235780630fb5a6b41461015357806313d033c014610171578063248a9ca31461018f575b5f5ffd5b61013d60048036038101906101389190610eb8565b610365565b60405161014a9190610efd565b60405180910390f35b61015b6103de565b6040516101689190610f2e565b60405180910390f35b610179610402565b6040516101869190610f2e565b60405180910390f35b6101a960048036038101906101a49190610f7a565b610426565b6040516101b69190610fb4565b60405180910390f35b6101d960048036038101906101d49190611027565b610442565b005b6101f560048036038101906101f09190611027565b610464565b005b6101ff6104df565b60405161020c9190611074565b60405180910390f35b61021d610503565b60405161022a9190610f2e565b60405180910390f35b61023b6106c5565b6040516102489190610f2e565b60405180910390f35b6102596106e0565b6040516102669190610efd565b60405180910390f35b6102776106f2565b6040516102849190610fb4565b60405180910390f35b610295610716565b005b6102b160048036038101906102ac9190611027565b6108c0565b6040516102be9190610efd565b60405180910390f35b6102cf610923565b6040516102dc9190610f2e565b60405180910390f35b6102ed610929565b6040516102fa9190610fb4565b60405180910390f35b61030b61092f565b005b610315610b4e565b6040516103229190610f2e565b60405180910390f35b61034560048036038101906103409190611027565b610b72565b005b61034f610b94565b60405161035c91906110e8565b60405180910390f35b5f7f7965db0b000000000000000000000000000000000000000000000000000000007bffffffffffffffffffffffffffffffffffffffffffffffffffffffff1916827bffffffffffffffffffffffffffffffffffffffffffffffffffffffff191614806103d757506103d682610bb8565b5b9050919050565b7f000000000000000000000000000000000000000000000000000000000000000081565b7f000000000000000000000000000000000000000000000000000000000000000081565b5f5f5f8381526020019081526020015f20600101549050919050565b61044b82610426565b61045481610c21565b61045e8383610c35565b50505050565b61046c610d1e565b73ffffffffffffffffffffffffffffffffffffffff168173ffffffffffffffffffffffffffffffffffffffff16146104d0576040517f6697b23200000000000000000000000000000000000000000000000000000000815260040160405180910390fd5b6104da8282610d25565b505050565b7f000000000000000000000000000000000000000000000000000000000000000081565b5f5f7f000000000000000000000000000000000000000000000000000000000000000073ffffffffffffffffffffffffffffffffffffffff166370a08231306040518263ffffffff1660e01b815260040161055e9190611074565b602060405180830381865afa158015610579573d5f5f3e3d5ffd5b505050506040513d601f19601f8201168201806040525081019061059d919061112b565b90505f600154826105ae9190611183565b90507f00000000000000000000000000000000000000000000000000000000000000004210156105e2575f925050506106c2565b7f00000000000000000000000000000000000000000000000000000000000000007f000000000000000000000000000000000000000000000000000000000000000061062e9190611183565b42101580610647575060025f9054906101000a900460ff165b156106565780925050506106c2565b5f7f00000000000000000000000000000000000000000000000000000000000000007f0000000000000000000000000000000000000000000000000000000000000000426106a491906111b6565b836106af91906111e9565b6106b99190611257565b90508093505050505b90565b5f6001546106d1610503565b6106db91906111b6565b905090565b60025f9054906101000a900460ff1681565b7fa49807205ce4d355092ef5a8a18f56e8913cf4a201fbe287825b095693c2177581565b60025f9054906101000a900460ff1615610765576040517f08c379a000000000000000000000000000000000000000000000000000000000815260040161075c906112e1565b60405180910390fd5b5f61076e6106c5565b90505f81116107b2576040517f08c379a00000000000000000000000000000000000000000000000000000000081526004016107a990611349565b60405180910390fd5b8060015f8282546107c39190611183565b925050819055507f000000000000000000000000000000000000000000000000000000000000000073ffffffffffffffffffffffffffffffffffffffff1663a9059cbb7f0000000000000000000000000000000000000000000000000000000000000000836040518363ffffffff1660e01b8152600401610845929190611367565b6020604051808303815f875af1158015610861573d5f5f3e3d5ffd5b505050506040513d601f19601f8201168201806040525081019061088591906113b8565b507fa1598fb976f7dd9df63fd18699c54a5744a6a95364166bbd0d77a2f6c8438b1f816040516108b59190610f2e565b60405180910390a150565b5f5f5f8481526020019081526020015f205f015f8373ffffffffffffffffffffffffffffffffffffffff1673ffffffffffffffffffffffffffffffffffffffff1681526020019081526020015f205f9054906101000a900460ff16905092915050565b60015481565b5f5f1b81565b7fa49807205ce4d355092ef5a8a18f56e8913cf4a201fbe287825b095693c2177561095981610c21565b60025f9054906101000a900460ff16156109a8576040517f08c379a000000000000000000000000000000000000000000000000000000000815260040161099f9061142d565b60405180910390fd5b600160025f6101000a81548160ff0219169083151502179055505f7f000000000000000000000000000000000000000000000000000000000000000073ffffffffffffffffffffffffffffffffffffffff166370a08231306040518263ffffffff1660e01b8152600401610a1c9190611074565b602060405180830381865afa158015610a37573d5f5f3e3d5ffd5b505050506040513d601f19601f82011682018060405250810190610a5b919061112b565b90505f610a666106c5565b90505f8183610a7591906111b6565b90505f811115610b1c577f000000000000000000000000000000000000000000000000000000000000000073ffffffffffffffffffffffffffffffffffffffff1663a9059cbb33836040518363ffffffff1660e01b8152600401610ada929190611367565b6020604051808303815f875af1158015610af6573d5f5f3e3d5ffd5b505050506040513d601f19601f82011682018060405250810190610b1a91906113b8565b505b7fab9bb9a2dbce8eb1c5199596521d57563c7289fb1ac680030c44e9a0d16e6ed060405160405180910390a150505050565b7f000000000000000000000000000000000000000000000000000000000000000081565b610b7b82610426565b610b8481610c21565b610b8e8383610d25565b50505050565b7f000000000000000000000000000000000000000000000000000000000000000081565b5f7f01ffc9a7000000000000000000000000000000000000000000000000000000007bffffffffffffffffffffffffffffffffffffffffffffffffffffffff1916827bffffffffffffffffffffffffffffffffffffffffffffffffffffffff1916149050919050565b610c3281610c2d610d1e565b610e0e565b50565b5f610c4083836108c0565b610d145760015f5f8581526020019081526020015f205f015f8473ffffffffffffffffffffffffffffffffffffffff1673ffffffffffffffffffffffffffffffffffffffff1681526020019081526020015f205f6101000a81548160ff021916908315150217905550610cb1610d1e565b73ffffffffffffffffffffffffffffffffffffffff168273ffffffffffffffffffffffffffffffffffffffff16847f2f8788117e7eff1d82e926ec794901d17c78024a50270940304540a733656f0d60405160405180910390a460019050610d18565b5f90505b92915050565b5f33905090565b5f610d3083836108c0565b15610e04575f5f5f8581526020019081526020015f205f015f8473ffffffffffffffffffffffffffffffffffffffff1673ffffffffffffffffffffffffffffffffffffffff1681526020019081526020015f205f6101000a81548160ff021916908315150217905550610da1610d1e565b73ffffffffffffffffffffffffffffffffffffffff168273ffffffffffffffffffffffffffffffffffffffff16847ff6391f5c32d9c69d2a47ea670b442974b53935d1edc7fd64eb21e047a839171b60405160405180910390a460019050610e08565b5f90505b92915050565b610e1882826108c0565b610e5b5780826040517fe2517d3f000000000000000000000000000000000000000000000000000000008152600401610e5292919061144b565b60405180910390fd5b5050565b5f5ffd5b5f7fffffffff0000000000000000000000000000000000000000000000000000000082169050919050565b610e9781610e63565b8114610ea1575f5ffd5b50565b5f81359050610eb281610e8e565b92915050565b5f60208284031215610ecd57610ecc610e5f565b5b5f610eda84828501610ea4565b91505092915050565b5f8115159050919050565b610ef781610ee3565b82525050565b5f602082019050610f105f830184610eee565b92915050565b5f819050919050565b610f2881610f16565b82525050565b5f602082019050610f415f830184610f1f565b92915050565b5f819050919050565b610f5981610f47565b8114610f63575f5ffd5b50565b5f81359050610f7481610f50565b92915050565b5f60208284031215610f8f57610f8e610e5f565b5b5f610f9c84828501610f66565b91505092915050565b610fae81610f47565b82525050565b5f602082019050610fc75f830184610fa5565b92915050565b5f73ffffffffffffffffffffffffffffffffffffffff82169050919050565b5f610ff682610fcd565b9050919050565b61100681610fec565b8114611010575f5ffd5b50565b5f8135905061102181610ffd565b92915050565b5f5f6040838503121561103d5761103c610e5f565b5b5f61104a85828601610f66565b925050602061105b85828601611013565b9150509250929050565b61106e81610fec565b82525050565b5f6020820190506110875f830184611065565b92915050565b5f819050919050565b5f6110b06110ab6110a684610fcd565b61108d565b610fcd565b9050919050565b5f6110c182611096565b9050919050565b5f6110d2826110b7565b9050919050565b6110e2816110c8565b82525050565b5f6020820190506110fb5f8301846110d9565b92915050565b61110a81610f16565b8114611114575f5ffd5b50565b5f8151905061112581611101565b92915050565b5f602082840312156111405761113f610e5f565b5b5f61114d84828501611117565b91505092915050565b7f4e487b71000000000000000000000000000000000000000000000000000000005f52601160045260245ffd5b5f61118d82610f16565b915061119883610f16565b92508282019050808211156111b0576111af611156565b5b92915050565b5f6111c082610f16565b91506111cb83610f16565b92508282039050818111156111e3576111e2611156565b5b92915050565b5f6111f382610f16565b91506111fe83610f16565b925082820261120c81610f16565b9150828204841483151761122357611222611156565b5b5092915050565b7f4e487b71000000000000000000000000000000000000000000000000000000005f52601260045260245ffd5b5f61126182610f16565b915061126c83610f16565b92508261127c5761127b61122a565b5b828204905092915050565b5f82825260208201905092915050565b7f56657374696e67207265766f6b656400000000000000000000000000000000005f82015250565b5f6112cb600f83611287565b91506112d682611297565b602082019050919050565b5f6020820190508181035f8301526112f8816112bf565b9050919050565b7f4e6f7468696e6720746f2072656c6561736500000000000000000000000000005f82015250565b5f611333601283611287565b915061133e826112ff565b602082019050919050565b5f6020820190508181035f83015261136081611327565b9050919050565b5f60408201905061137a5f830185611065565b6113876020830184610f1f565b9392505050565b61139781610ee3565b81146113a1575f5ffd5b50565b5f815190506113b28161138e565b92915050565b5f602082840312156113cd576113cc610e5f565b5b5f6113da848285016113a4565b91505092915050565b7f416c7265616479207265766f6b656400000000000000000000000000000000005f82015250565b5f611417600f83611287565b9150611422826113e3565b602082019050919050565b5f6020820190508181035f8301526114448161140b565b9050919050565b5f60408201905061145e5f830185611065565b61146b6020830184610fa5565b939250505056fea26469706673582212204d9c7b43537cac5dbd31336ec17095b2e6d3363e97b81ffa367fbad0d97a169d64736f6c634300081c0033",
					"opcodes": "PUSH2 0x120 PUSH1 0x40 MSTORE CALLVALUE DUP1 ISZERO PUSH2 0x10 JUMPI PUSH0 PUSH0 REVERT JUMPDEST POP PUSH1 0x40 MLOAD PUSH2 0x1C3B CODESIZE SUB DUP1 PUSH2 0x1C3B DUP4 CODECOPY DUP2 DUP2 ADD PUSH1 0x40 MSTORE DUP2 ADD SWAP1 PUSH2 0x32 SWAP2 SWAP1 PUSH2 0x477 JUMP JUMPDEST PUSH0 PUSH20 0xFFFFFFFFFFFFFFFFFFFFFFFFFFFFFFFFFFFFFFFF AND DUP7 PUSH20 0xFFFFFFFFFFFFFFFFFFFFFFFFFFFFFFFFFFFFFFFF AND SUB PUSH2 0xA0 JUMPI PUSH1 0x40 MLOAD PUSH32 0x8C379A000000000000000000000000000000000000000000000000000000000 DUP2 MSTORE PUSH1 0x4 ADD PUSH2 0x97 SWAP1 PUSH2 0x55A JUMP JUMPDEST PUSH1 0x40 MLOAD DUP1 SWAP2 SUB SWAP1 REVERT JUMPDEST PUSH0 PUSH20 0xFFFFFFFFFFFFFFFFFFFFFFFFFFFFFFFFFFFFFFFF AND DUP6 PUSH20 0xFFFFFFFFFFFFFFFFFFFFFFFFFFFFFFFFFFFFFFFF AND SUB PUSH2 0x10E JUMPI PUSH1 0x40 MLOAD PUSH32 0x8C379A000000000000000000000000000000000000000000000000000000000 DUP2 MSTORE PUSH1 0x4 ADD PUSH2 0x105 SWAP1 PUSH2 0x5C2 JUMP JUMPDEST PUSH1 0x40 MLOAD DUP1 SWAP2 SUB SWAP1 REVERT JUMPDEST PUSH0 PUSH20 0xFFFFFFFFFFFFFFFFFFFFFFFFFFFFFFFFFFFFFFFF AND DUP2 PUSH20 0xFFFFFFFFFFFFFFFFFFFFFFFFFFFFFFFFFFFFFFFF AND SUB PUSH2 0x17C JUMPI PUSH1 0x40 MLOAD PUSH32 0x8C379A000000000000000000000000000000000000000000000000000000000 DUP2 MSTORE PUSH1 0x4 ADD PUSH2 0x173 SWAP1 PUSH2 0x62A JUMP JUMPDEST PUSH1 0x40 MLOAD DUP1 SWAP2 SUB SWAP1 REVERT JUMPDEST DUP2 DUP4 GT ISZERO PUSH2 0x1BF JUMPI PUSH1 0x40 MLOAD PUSH32 0x8C379A000000000000000000000000000000000000000000000000000000000 DUP2 MSTORE PUSH1 0x4 ADD PUSH2 0x1B6 SWAP1 PUSH2 0x692 JUMP JUMPDEST PUSH1 0x40 MLOAD DUP1 SWAP2 SUB SWAP1 REVERT JUMPDEST PUSH2 0x1EF PUSH32 0xA49807205CE4D355092EF5A8A18F56E8913CF4A201FBE287825B095693C21775 DUP3 PUSH2 0x287 PUSH1 0x20 SHL PUSH1 0x20 SHR JUMP JUMPDEST POP DUP6 PUSH20 0xFFFFFFFFFFFFFFFFFFFFFFFFFFFFFFFFFFFFFFFF AND PUSH1 0x80 DUP2 PUSH20 0xFFFFFFFFFFFFFFFFFFFFFFFFFFFFFFFFFFFFFFFF AND DUP2 MSTORE POP POP DUP5 PUSH20 0xFFFFFFFFFFFFFFFFFFFFFFFFFFFFFFFFFFFFFFFF AND PUSH1 0xA0 DUP2 PUSH20 0xFFFFFFFFFFFFFFFFFFFFFFFFFFFFFFFFFFFFFFFF AND DUP2 MSTORE POP POP DUP4 PUSH1 0xE0 DUP2 DUP2 MSTORE POP POP DUP3 DUP5 PUSH2 0x26C SWAP2 SWAP1 PUSH2 0x6DD JUMP JUMPDEST PUSH1 0xC0 DUP2 DUP2 MSTORE POP POP DUP2 PUSH2 0x100 DUP2 DUP2 MSTORE POP POP POP POP POP POP POP POP PUSH2 0x710 JUMP JUMPDEST PUSH0 PUSH2 0x298 DUP4 DUP4 PUSH2 0x37C PUSH1 0x20 SHL PUSH1 0x20 SHR JUMP JUMPDEST PUSH2 0x372 JUMPI PUSH1 0x1 PUSH0 PUSH0 DUP6 DUP2 MSTORE PUSH1 0x20 ADD SWAP1 DUP2 MSTORE PUSH1 0x20 ADD PUSH0 KECCAK256 PUSH0 ADD PUSH0 DUP5 PUSH20 0xFFFFFFFFFFFFFFFFFFFFFFFFFFFFFFFFFFFFFFFF AND PUSH20 0xFFFFFFFFFFFFFFFFFFFFFFFFFFFFFFFFFFFFFFFF AND DUP2 MSTORE PUSH1 0x20 ADD SWAP1 DUP2 MSTORE PUSH1 0x20 ADD PUSH0 KECCAK256 PUSH0 PUSH2 0x100 EXP DUP2 SLOAD DUP2 PUSH1 0xFF MUL NOT AND SWAP1 DUP4 ISZERO ISZERO MUL OR SWAP1 SSTORE POP PUSH2 0x30F PUSH2 0x3DF PUSH1 0x20 SHL PUSH1 0x20 SHR JUMP JUMPDEST PUSH20 0xFFFFFFFFFFFFFFFFFFFFFFFFFFFFFFFFFFFFFFFF AND DUP3 PUSH20 0xFFFFFFFFFFFFFFFFFFFFFFFFFFFFFFFFFFFFFFFF AND DUP5 PUSH32 0x2F8788117E7EFF1D82E926EC794901D17C78024A50270940304540A733656F0D PUSH1 0x40 MLOAD PUSH1 0x40 MLOAD DUP1 SWAP2 SUB SWAP1 LOG4 PUSH1 0x1 SWAP1 POP PUSH2 0x376 JUMP JUMPDEST PUSH0 SWAP1 POP JUMPDEST SWAP3 SWAP2 POP POP JUMP JUMPDEST PUSH0 PUSH0 PUSH0 DUP5 DUP2 MSTORE PUSH1 0x20 ADD SWAP1 DUP2 MSTORE PUSH1 0x20 ADD PUSH0 KECCAK256 PUSH0 ADD PUSH0 DUP4 PUSH20 0xFFFFFFFFFFFFFFFFFFFFFFFFFFFFFFFFFFFFFFFF AND PUSH20 0xFFFFFFFFFFFFFFFFFFFFFFFFFFFFFFFFFFFFFFFF AND DUP2 MSTORE PUSH1 0x20 ADD SWAP1 DUP2 MSTORE PUSH1 0x20 ADD PUSH0 KECCAK256 PUSH0 SWAP1 SLOAD SWAP1 PUSH2 0x100 EXP SWAP1 DIV PUSH1 0xFF AND SWAP1 POP SWAP3 SWAP2 POP POP JUMP JUMPDEST PUSH0 CALLER SWAP1 POP SWAP1 JUMP JUMPDEST PUSH0 PUSH0 REVERT JUMPDEST PUSH0 PUSH20 0xFFFFFFFFFFFFFFFFFFFFFFFFFFFFFFFFFFFFFFFF DUP3 AND SWAP1 POP SWAP2 SWAP1 POP JUMP JUMPDEST PUSH0 PUSH2 0x413 DUP3 PUSH2 0x3EA JUMP JUMPDEST SWAP1 POP SWAP2 SWAP1 POP JUMP JUMPDEST PUSH2 0x423 DUP2 PUSH2 0x409 JUMP JUMPDEST DUP2 EQ PUSH2 0x42D JUMPI PUSH0 PUSH0 REVERT JUMPDEST POP JUMP JUMPDEST PUSH0 DUP2 MLOAD SWAP1 POP PUSH2 0x43E DUP2 PUSH2 0x41A JUMP JUMPDEST SWAP3 SWAP2 POP POP JUMP JUMPDEST PUSH0 DUP2 SWAP1 POP SWAP2 SWAP1 POP JUMP JUMPDEST PUSH2 0x456 DUP2 PUSH2 0x444 JUMP JUMPDEST DUP2 EQ PUSH2 0x460 JUMPI PUSH0 PUSH0 REVERT JUMPDEST POP JUMP JUMPDEST PUSH0 DUP2 MLOAD SWAP1 POP PUSH2 0x471 DUP2 PUSH2 0x44D JUMP JUMPDEST SWAP3 SWAP2 POP POP JUMP JUMPDEST PUSH0 PUSH0 PUSH0 PUSH0 PUSH0 PUSH0 PUSH1 0xC0 DUP8 DUP10 SUB SLT ISZERO PUSH2 0x491 JUMPI PUSH2 0x490 PUSH2 0x3E6 JUMP JUMPDEST JUMPDEST PUSH0 PUSH2 0x49E DUP10 DUP3 DUP11 ADD PUSH2 0x430 JUMP JUMPDEST SWAP7 POP POP PUSH1 0x20 PUSH2 0x4AF DUP10 DUP3 DUP11 ADD PUSH2 0x430 JUMP JUMPDEST SWAP6 POP POP PUSH1 0x40 PUSH2 0x4C0 DUP10 DUP3 DUP11 ADD PUSH2 0x463 JUMP JUMPDEST SWAP5 POP POP PUSH1 0x60 PUSH2 0x4D1 DUP10 DUP3 DUP11 ADD PUSH2 0x463 JUMP JUMPDEST SWAP4 POP POP PUSH1 0x80 PUSH2 0x4E2 DUP10 DUP3 DUP11 ADD PUSH2 0x463 JUMP JUMPDEST SWAP3 POP POP PUSH1 0xA0 PUSH2 0x4F3 DUP10 DUP3 DUP11 ADD PUSH2 0x430 JUMP JUMPDEST SWAP2 POP POP SWAP3 SWAP6 POP SWAP3 SWAP6 POP SWAP3 SWAP6 JUMP JUMPDEST PUSH0 DUP3 DUP3 MSTORE PUSH1 0x20 DUP3 ADD SWAP1 POP SWAP3 SWAP2 POP POP JUMP JUMPDEST PUSH32 0x496E76616C696420746F6B656E00000000000000000000000000000000000000 PUSH0 DUP3 ADD MSTORE POP JUMP JUMPDEST PUSH0 PUSH2 0x544 PUSH1 0xD DUP4 PUSH2 0x500 JUMP JUMPDEST SWAP2 POP PUSH2 0x54F DUP3 PUSH2 0x510 JUMP JUMPDEST PUSH1 0x20 DUP3 ADD SWAP1 POP SWAP2 SWAP1 POP JUMP JUMPDEST PUSH0 PUSH1 0x20 DUP3 ADD SWAP1 POP DUP2 DUP2 SUB PUSH0 DUP4 ADD MSTORE PUSH2 0x571 DUP2 PUSH2 0x538 JUMP JUMPDEST SWAP1 POP SWAP2 SWAP1 POP JUMP JUMPDEST PUSH32 0x496E76616C69642062656E656669636961727900000000000000000000000000 PUSH0 DUP3 ADD MSTORE POP JUMP JUMPDEST PUSH0 PUSH2 0x5AC PUSH1 0x13 DUP4 PUSH2 0x500 JUMP JUMPDEST SWAP2 POP PUSH2 0x5B7 DUP3 PUSH2 0x578 JUMP JUMPDEST PUSH1 0x20 DUP3 ADD SWAP1 POP SWAP2 SWAP1 POP JUMP JUMPDEST PUSH0 PUSH1 0x20 DUP3 ADD SWAP1 POP DUP2 DUP2 SUB PUSH0 DUP4 ADD MSTORE PUSH2 0x5D9 DUP2 PUSH2 0x5A0 JUMP JUMPDEST SWAP1 POP SWAP2 SWAP1 POP JUMP JUMPDEST PUSH32 0x496E76616C69642061646D696E00000000000000000000000000000000000000 PUSH0 DUP3 ADD MSTORE POP JUMP JUMPDEST PUSH0 PUSH2 0x614 PUSH1 0xD DUP4 PUSH2 0x500 JUMP JUMPDEST SWAP2 POP PUSH2 0x61F DUP3 PUSH2 0x5E0 JUMP JUMPDEST PUSH1 0x20 DUP3 ADD SWAP1 POP SWAP2 SWAP1 POP JUMP JUMPDEST PUSH0 PUSH1 0x20 DUP3 ADD SWAP1 POP DUP2 DUP2 SUB PUSH0 DUP4 ADD MSTORE PUSH2 0x641 DUP2 PUSH2 0x608 JUMP JUMPDEST SWAP1 POP SWAP2 SWAP1 POP JUMP JUMPDEST PUSH32 0x436C696666203E206475726174696F6E00000000000000000000000000000000 PUSH0 DUP3 ADD MSTORE POP JUMP JUMPDEST PUSH0 PUSH2 0x67C PUSH1 0x10 DUP4 PUSH2 0x500 JUMP JUMPDEST SWAP2 POP PUSH2 0x687 DUP3 PUSH2 0x648 JUMP JUMPDEST PUSH1 0x20 DUP3 ADD SWAP1 POP SWAP2 SWAP1 POP JUMP JUMPDEST PUSH0 PUSH1 0x20 DUP3 ADD SWAP1 POP DUP2 DUP2 SUB PUSH0 DUP4 ADD MSTORE PUSH2 0x6A9 DUP2 PUSH2 0x670 JUMP JUMPDEST SWAP1 POP SWAP2 SWAP1 POP JUMP JUMPDEST PUSH32 0x4E487B7100000000000000000000000000000000000000000000000000000000 PUSH0 MSTORE PUSH1 0x11 PUSH1 0x4 MSTORE PUSH1 0x24 PUSH0 REVERT JUMPDEST PUSH0 PUSH2 0x6E7 DUP3 PUSH2 0x444 JUMP JUMPDEST SWAP2 POP PUSH2 0x6F2 DUP4 PUSH2 0x444 JUMP JUMPDEST SWAP3 POP DUP3 DUP3 ADD SWAP1 POP DUP1 DUP3 GT ISZERO PUSH2 0x70A JUMPI PUSH2 0x709 PUSH2 0x6B0 JUMP JUMPDEST JUMPDEST SWAP3 SWAP2 POP POP JUMP JUMPDEST PUSH1 0x80 MLOAD PUSH1 0xA0 MLOAD PUSH1 0xC0 MLOAD PUSH1 0xE0 MLOAD PUSH2 0x100 MLOAD PUSH2 0x14A8 PUSH2 0x793 PUSH0 CODECOPY PUSH0 DUP2 DUP2 PUSH2 0x3E0 ADD MSTORE DUP2 DUP2 PUSH2 0x5E4 ADD MSTORE PUSH2 0x659 ADD MSTORE PUSH0 DUP2 DUP2 PUSH2 0x605 ADD MSTORE DUP2 DUP2 PUSH2 0x67A ADD MSTORE PUSH2 0xB50 ADD MSTORE PUSH0 DUP2 DUP2 PUSH2 0x404 ADD MSTORE PUSH2 0x5B2 ADD MSTORE PUSH0 DUP2 DUP2 PUSH2 0x4E1 ADD MSTORE PUSH2 0x808 ADD MSTORE PUSH0 DUP2 DUP2 PUSH2 0x507 ADD MSTORE DUP2 DUP2 PUSH2 0x7CC ADD MSTORE DUP2 DUP2 PUSH2 0x9C5 ADD MSTORE DUP2 DUP2 PUSH2 0xA81 ADD MSTORE PUSH2 0xB96 ADD MSTORE PUSH2 0x14A8 PUSH0 RETURN INVALID PUSH1 0x80 PUSH1 0x40 MSTORE CALLVALUE DUP1 ISZERO PUSH2 0xF JUMPI PUSH0 PUSH0 REVERT JUMPDEST POP PUSH1 0x4 CALLDATASIZE LT PUSH2 0x11F JUMPI PUSH0 CALLDATALOAD PUSH1 0xE0 SHR DUP1 PUSH4 0x63D256CE GT PUSH2 0xAB JUMPI DUP1 PUSH4 0xA217FDDF GT PUSH2 0x6F JUMPI DUP1 PUSH4 0xA217FDDF EQ PUSH2 0x2E5 JUMPI DUP1 PUSH4 0xB6549F75 EQ PUSH2 0x303 JUMPI DUP1 PUSH4 0xBE9A6555 EQ PUSH2 0x30D JUMPI DUP1 PUSH4 0xD547741F EQ PUSH2 0x32B JUMPI DUP1 PUSH4 0xFC0C546A EQ PUSH2 0x347 JUMPI PUSH2 0x11F JUMP JUMPDEST DUP1 PUSH4 0x63D256CE EQ PUSH2 0x251 JUMPI DUP1 PUSH4 0x75B238FC EQ PUSH2 0x26F JUMPI DUP1 PUSH4 0x86D1A69F EQ PUSH2 0x28D JUMPI DUP1 PUSH4 0x91D14854 EQ PUSH2 0x297 JUMPI DUP1 PUSH4 0x96132521 EQ PUSH2 0x2C7 JUMPI PUSH2 0x11F JUMP JUMPDEST DUP1 PUSH4 0x2F2FF15D GT PUSH2 0xF2 JUMPI DUP1 PUSH4 0x2F2FF15D EQ PUSH2 0x1BF JUMPI DUP1 PUSH4 0x36568ABE EQ PUSH2 0x1DB JUMPI DUP1 PUSH4 0x38AF3EED EQ PUSH2 0x1F7 JUMPI DUP1 PUSH4 0x44B1231F EQ PUSH2 0x215 JUMPI DUP1 PUSH4 0x5B940081 EQ PUSH2 0x233 JUMPI PUSH2 0x11F JUMP JUMPDEST DUP1 PUSH4 0x1FFC9A7 EQ PUSH2 0x123 JUMPI DUP1 PUSH4 0xFB5A6B4 EQ PUSH2 0x153 JUMPI DUP1 PUSH4 0x13D033C0 EQ PUSH2 0x171 JUMPI DUP1 PUSH4 0x248A9CA3 EQ PUSH2 0x18F JUMPI JUMPDEST PUSH0 PUSH0 REVERT JUMPDEST PUSH2 0x13D PUSH1 0x4 DUP1 CALLDATASIZE SUB DUP2 ADD SWAP1 PUSH2 0x138 SWAP2 SWAP1 PUSH2 0xEB8 JUMP JUMPDEST PUSH2 0x365 JUMP JUMPDEST PUSH1 0x40 MLOAD PUSH2 0x14A SWAP2 SWAP1 PUSH2 0xEFD JUMP JUMPDEST PUSH1 0x40 MLOAD DUP1 SWAP2 SUB SWAP1 RETURN JUMPDEST PUSH2 0x15B PUSH2 0x3DE JUMP JUMPDEST PUSH1 0x40 MLOAD PUSH2 0x168 SWAP2 SWAP1 PUSH2 0xF2E JUMP JUMPDEST PUSH1 0x40 MLOAD DUP1 SWAP2 SUB SWAP1 RETURN JUMPDEST PUSH2 0x179 PUSH2 0x402 JUMP JUMPDEST PUSH1 0x40 MLOAD PUSH2 0x186 SWAP2 SWAP1 PUSH2 0xF2E JUMP JUMPDEST PUSH1 0x40 MLOAD DUP1 SWAP2 SUB SWAP1 RETURN JUMPDEST PUSH2 0x1A9 PUSH1 0x4 DUP1 CALLDATASIZE SUB DUP2 ADD SWAP1 PUSH2 0x1A4 SWAP2 SWAP1 PUSH2 0xF7A JUMP JUMPDEST PUSH2 0x426 JUMP JUMPDEST PUSH1 0x40 MLOAD PUSH2 0x1B6 SWAP2 SWAP1 PUSH2 0xFB4 JUMP JUMPDEST PUSH1 0x40 MLOAD DUP1 SWAP2 SUB SWAP1 RETURN JUMPDEST PUSH2 0x1D9 PUSH1 0x4 DUP1 CALLDATASIZE SUB DUP2 ADD SWAP1 PUSH2 0x1D4 SWAP2 SWAP1 PUSH2 0x1027 JUMP JUMPDEST PUSH2 0x442 JUMP JUMPDEST STOP JUMPDEST PUSH2 0x1F5 PUSH1 0x4 DUP1 CALLDATASIZE SUB DUP2 ADD SWAP1 PUSH2 0x1F0 SWAP2 SWAP1 PUSH2 0x1027 JUMP JUMPDEST PUSH2 0x464 JUMP JUMPDEST STOP JUMPDEST PUSH2 0x1FF PUSH2 0x4DF JUMP JUMPDEST PUSH1 0x40 MLOAD PUSH2 0x20C SWAP2 SWAP1 PUSH2 0x1074 JUMP JUMPDEST PUSH1 0x40 MLOAD DUP1 SWAP2 SUB SWAP1 RETURN JUMPDEST PUSH2 0x21D PUSH2 0x503 JUMP JUMPDEST PUSH1 0x40 MLOAD PUSH2 0x22A SWAP2 SWAP1 PUSH2 0xF2E JUMP JUMPDEST PUSH1 0x40 MLOAD DUP1 SWAP2 SUB SWAP1 RETURN JUMPDEST PUSH2 0x23B PUSH2 0x6C5 JUMP JUMPDEST PUSH1 0x40 MLOAD PUSH2 0x248 SWAP2 SWAP1 PUSH2 0xF2E JUMP JUMPDEST PUSH1 0x40 MLOAD DUP1 SWAP2 SUB SWAP1 RETURN JUMPDEST PUSH2 0x259 PUSH2 0x6E0 JUMP JUMPDEST PUSH1 0x40 MLOAD PUSH2 0x266 SWAP2 SWAP1 PUSH2 0xEFD JUMP JUMPDEST PUSH1 0x40 MLOAD DUP1 SWAP2 SUB SWAP1 RETURN JUMPDEST PUSH2 0x277 PUSH2 0x6F2 JUMP JUMPDEST PUSH1 0x40 MLOAD PUSH2 0x284 SWAP2 SWAP1 PUSH2 0xFB4 JUMP JUMPDEST PUSH1 0x40 MLOAD DUP1 SWAP2 SUB SWAP1 RETURN JUMPDEST PUSH2 0x295 PUSH2 0x716 JUMP JUMPDEST STOP JUMPDEST PUSH2 0x2B1 PUSH1 0x4 DUP1 CALLDATASIZE SUB DUP2 ADD SWAP1 PUSH2 0x2AC SWAP2 SWAP1 PUSH2 0x1027 JUMP JUMPDEST PUSH2 0x8C0 JUMP JUMPDEST PUSH1 0x40 MLOAD PUSH2 0x2BE SWAP2 SWAP1 PUSH2 0xEFD JUMP JUMPDEST PUSH1 0x40 MLOAD DUP1 SWAP2 SUB SWAP1 RETURN JUMPDEST PUSH2 0x2CF PUSH2 0x923 JUMP JUMPDEST PUSH1 0x40 MLOAD PUSH2 0x2DC SWAP2 SWAP1 PUSH2 0xF2E JUMP JUMPDEST PUSH1 0x40 MLOAD DUP1 SWAP2 SUB SWAP1 RETURN JUMPDEST PUSH2 0x2ED PUSH2 0x929 JUMP JUMPDEST PUSH1 0x40 MLOAD PUSH2 0x2FA SWAP2 SWAP1 PUSH2 0xFB4 JUMP JUMPDEST PUSH1 0x40 MLOAD DUP1 SWAP2 SUB SWAP1 RETURN JUMPDEST PUSH2 0x30B PUSH2 0x92F JUMP JUMPDEST STOP JUMPDEST PUSH2 0x315 PUSH2 0xB4E JUMP JUMPDEST PUSH1 0x40 MLOAD PUSH2 0x322 SWAP2 SWAP1 PUSH2 0xF2E JUMP JUMPDEST PUSH1 0x40 MLOAD DUP1 SWAP2 SUB SWAP1 RETURN JUMPDEST PUSH2 0x345 PUSH1 0x4 DUP1 CALLDATASIZE SUB DUP2 ADD SWAP1 PUSH2 0x340 SWAP2 SWAP1 PUSH2 0x1027 JUMP JUMPDEST PUSH2 0xB72 JUMP JUMPDEST STOP JUMPDEST PUSH2 0x34F PUSH2 0xB94 JUMP JUMPDEST PUSH1 0x40 MLOAD PUSH2 0x35C SWAP2 SWAP1 PUSH2 0x10E8 JUMP JUMPDEST PUSH1 0x40 MLOAD DUP1 SWAP2 SUB SWAP1 RETURN JUMPDEST PUSH0 PUSH32 0x7965DB0B00000000000000000000000000000000000000000000000000000000 PUSH28 0xFFFFFFFFFFFFFFFFFFFFFFFFFFFFFFFFFFFFFFFFFFFFFFFFFFFFFFFF NOT AND DUP3 PUSH28 0xFFFFFFFFFFFFFFFFFFFFFFFFFFFFFFFFFFFFFFFFFFFFFFFFFFFFFFFF NOT AND EQ DUP1 PUSH2 0x3D7 JUMPI POP PUSH2 0x3D6 DUP3 PUSH2 0xBB8 JUMP JUMPDEST JUMPDEST SWAP1 POP SWAP2 SWAP1 POP JUMP JUMPDEST PUSH32 0x0 DUP2 JUMP JUMPDEST PUSH32 0x0 DUP2 JUMP JUMPDEST PUSH0 PUSH0 PUSH0 DUP4 DUP2 MSTORE PUSH1 0x20 ADD SWAP1 DUP2 MSTORE PUSH1 0x20 ADD PUSH0 KECCAK256 PUSH1 0x1 ADD SLOAD SWAP1 POP SWAP2 SWAP1 POP JUMP JUMPDEST PUSH2 0x44B DUP3 PUSH2 0x426 JUMP JUMPDEST PUSH2 0x454 DUP2 PUSH2 0xC21 JUMP JUMPDEST PUSH2 0x45E DUP4 DUP4 PUSH2 0xC35 JUMP JUMPDEST POP POP POP POP JUMP JUMPDEST PUSH2 0x46C PUSH2 0xD1E JUMP JUMPDEST PUSH20 0xFFFFFFFFFFFFFFFFFFFFFFFFFFFFFFFFFFFFFFFF AND DUP2 PUSH20 0xFFFFFFFFFFFFFFFFFFFFFFFFFFFFFFFFFFFFFFFF AND EQ PUSH2 0x4D0 JUMPI PUSH1 0x40 MLOAD PUSH32 0x6697B23200000000000000000000000000000000000000000000000000000000 DUP2 MSTORE PUSH1 0x4 ADD PUSH1 0x40 MLOAD DUP1 SWAP2 SUB SWAP1 REVERT JUMPDEST PUSH2 0x4DA DUP3 DUP3 PUSH2 0xD25 JUMP JUMPDEST POP POP POP JUMP JUMPDEST PUSH32 0x0 DUP2 JUMP JUMPDEST PUSH0 PUSH0 PUSH32 0x0 PUSH20 0xFFFFFFFFFFFFFFFFFFFFFFFFFFFFFFFFFFFFFFFF AND PUSH4 0x70A08231 ADDRESS PUSH1 0x40 MLOAD DUP3 PUSH4 0xFFFFFFFF AND PUSH1 0xE0 SHL DUP2 MSTORE PUSH1 0x4 ADD PUSH2 0x55E SWAP2 SWAP1 PUSH2 0x1074 JUMP JUMPDEST PUSH1 0x20 PUSH1 0x40 MLOAD DUP1 DUP4 SUB DUP2 DUP7 GAS STATICCALL ISZERO DUP1 ISZERO PUSH2 0x579 JUMPI RETURNDATASIZE PUSH0 PUSH0 RETURNDATACOPY RETURNDATASIZE PUSH0 REVERT JUMPDEST POP POP POP POP PUSH1 0x40 MLOAD RETURNDATASIZE PUSH1 0x1F NOT PUSH1 0x1F DUP3 ADD AND DUP3 ADD DUP1 PUSH1 0x40 MSTORE POP DUP2 ADD SWAP1 PUSH2 0x59D SWAP2 SWAP1 PUSH2 0x112B JUMP JUMPDEST SWAP1 POP PUSH0 PUSH1 0x1 SLOAD DUP3 PUSH2 0x5AE SWAP2 SWAP1 PUSH2 0x1183 JUMP JUMPDEST SWAP1 POP PUSH32 0x0 TIMESTAMP LT ISZERO PUSH2 0x5E2 JUMPI PUSH0 SWAP3 POP POP POP PUSH2 0x6C2 JUMP JUMPDEST PUSH32 0x0 PUSH32 0x0 PUSH2 0x62E SWAP2 SWAP1 PUSH2 0x1183 JUMP JUMPDEST TIMESTAMP LT ISZERO DUP1 PUSH2 0x647 JUMPI POP PUSH1 0x2 PUSH0 SWAP1 SLOAD SWAP1 PUSH2 0x100 EXP SWAP1 DIV PUSH1 0xFF AND JUMPDEST ISZERO PUSH2 0x656 JUMPI DUP1 SWAP3 POP POP POP PUSH2 0x6C2 JUMP JUMPDEST PUSH0 PUSH32 0x0 PUSH32 0x0 TIMESTAMP PUSH2 0x6A4 SWAP2 SWAP1 PUSH2 0x11B6 JUMP JUMPDEST DUP4 PUSH2 0x6AF SWAP2 SWAP1 PUSH2 0x11E9 JUMP JUMPDEST PUSH2 0x6B9 SWAP2 SWAP1 PUSH2 0x1257 JUMP JUMPDEST SWAP1 POP DUP1 SWAP4 POP POP POP POP JUMPDEST SWAP1 JUMP JUMPDEST PUSH0 PUSH1 0x1 SLOAD PUSH2 0x6D1 PUSH2 0x503 JUMP JUMPDEST PUSH2 0x6DB SWAP2 SWAP1 PUSH2 0x11B6 JUMP JUMPDEST SWAP1 POP SWAP1 JUMP JUMPDEST PUSH1 0x2 PUSH0 SWAP1 SLOAD SWAP1 PUSH2 0x100 EXP SWAP1 DIV PUSH1 0xFF AND DUP2 JUMP JUMPDEST PUSH32 0xA49807205CE4D355092EF5A8A18F56E8913CF4A201FBE287825B095693C21775 DUP2 JUMP JUMPDEST PUSH1 0x2 PUSH0 SWAP1 SLOAD SWAP1 PUSH2 0x100 EXP SWAP1 DIV PUSH1 0xFF AND ISZERO PUSH2 0x765 JUMPI PUSH1 0x40 MLOAD PUSH32 0x8C379A000000000000000000000000000000000000000000000000000000000 DUP2 MSTORE PUSH1 0x4 ADD PUSH2 0x75C SWAP1 PUSH2 0x12E1 JUMP JUMPDEST PUSH1 0x40 MLOAD DUP1 SWAP2 SUB SWAP1 REVERT JUMPDEST PUSH0 PUSH2 0x76E PUSH2 0x6C5 JUMP JUMPDEST SWAP1 POP PUSH0 DUP2 GT PUSH2 0x7B2 JUMPI PUSH1 0x40 MLOAD PUSH32 0x8C379A000000000000000000000000000000000000000000000000000000000 DUP2 MSTORE PUSH1 0x4 ADD PUSH2 0x7A9 SWAP1 PUSH2 0x1349 JUMP JUMPDEST PUSH1 0x40 MLOAD DUP1 SWAP2 SUB SWAP1 REVERT JUMPDEST DUP1 PUSH1 0x1 PUSH0 DUP3 DUP3 SLOAD PUSH2 0x7C3 SWAP2 SWAP1 PUSH2 0x1183 JUMP JUMPDEST SWAP3 POP POP DUP2 SWAP1 SSTORE POP PUSH32 0x0 PUSH20 0xFFFFFFFFFFFFFFFFFFFFFFFFFFFFFFFFFFFFFFFF AND PUSH4 0xA9059CBB PUSH32 0x0 DUP4 PUSH1 0x40 MLOAD DUP4 PUSH4 0xFFFFFFFF AND PUSH1 0xE0 SHL DUP2 MSTORE PUSH1 0x4 ADD PUSH2 0x845 SWAP3 SWAP2 SWAP1 PUSH2 0x1367 JUMP JUMPDEST PUSH1 0x20 PUSH1 0x40 MLOAD DUP1 DUP4 SUB DUP2 PUSH0 DUP8 GAS CALL ISZERO DUP1 ISZERO PUSH2 0x861 JUMPI RETURNDATASIZE PUSH0 PUSH0 RETURNDATACOPY RETURNDATASIZE PUSH0 REVERT JUMPDEST POP POP POP POP PUSH1 0x40 MLOAD RETURNDATASIZE PUSH1 0x1F NOT PUSH1 0x1F DUP3 ADD AND DUP3 ADD DUP1 PUSH1 0x40 MSTORE POP DUP2 ADD SWAP1 PUSH2 0x885 SWAP2 SWAP1 PUSH2 0x13B8 JUMP JUMPDEST POP PUSH32 0xA1598FB976F7DD9DF63FD18699C54A5744A6A95364166BBD0D77A2F6C8438B1F DUP2 PUSH1 0x40 MLOAD PUSH2 0x8B5 SWAP2 SWAP1 PUSH2 0xF2E JUMP JUMPDEST PUSH1 0x40 MLOAD DUP1 SWAP2 SUB SWAP1 LOG1 POP JUMP JUMPDEST PUSH0 PUSH0 PUSH0 DUP5 DUP2 MSTORE PUSH1 0x20 ADD SWAP1 DUP2 MSTORE PUSH1 0x20 ADD PUSH0 KECCAK256 PUSH0 ADD PUSH0 DUP4 PUSH20 0xFFFFFFFFFFFFFFFFFFFFFFFFFFFFFFFFFFFFFFFF AND PUSH20 0xFFFFFFFFFFFFFFFFFFFFFFFFFFFFFFFFFFFFFFFF AND DUP2 MSTORE PUSH1 0x20 ADD SWAP1 DUP2 MSTORE PUSH1 0x20 ADD PUSH0 KECCAK256 PUSH0 SWAP1 SLOAD SWAP1 PUSH2 0x100 EXP SWAP1 DIV PUSH1 0xFF AND SWAP1 POP SWAP3 SWAP2 POP POP JUMP JUMPDEST PUSH1 0x1 SLOAD DUP2 JUMP JUMPDEST PUSH0 PUSH0 SHL DUP2 JUMP JUMPDEST PUSH32 0xA49807205CE4D355092EF5A8A18F56E8913CF4A201FBE287825B095693C21775 PUSH2 0x959 DUP2 PUSH2 0xC21 JUMP JUMPDEST PUSH1 0x2 PUSH0 SWAP1 SLOAD SWAP1 PUSH2 0x100 EXP SWAP1 DIV PUSH1 0xFF AND ISZERO PUSH2 0x9A8 JUMPI PUSH1 0x40 MLOAD PUSH32 0x8C379A000000000000000000000000000000000000000000000000000000000 DUP2 MSTORE PUSH1 0x4 ADD PUSH2 0x99F SWAP1 PUSH2 0x142D JUMP JUMPDEST PUSH1 0x40 MLOAD DUP1 SWAP2 SUB SWAP1 REVERT JUMPDEST PUSH1 0x1 PUSH1 0x2 PUSH0 PUSH2 0x100 EXP DUP2 SLOAD DUP2 PUSH1 0xFF MUL NOT AND SWAP1 DUP4 ISZERO ISZERO MUL OR SWAP1 SSTORE POP PUSH0 PUSH32 0x0 PUSH20 0xFFFFFFFFFFFFFFFFFFFFFFFFFFFFFFFFFFFFFFFF AND PUSH4 0x70A08231 ADDRESS PUSH1 0x40 MLOAD DUP3 PUSH4 0xFFFFFFFF AND PUSH1 0xE0 SHL DUP2 MSTORE PUSH1 0x4 ADD PUSH2 0xA1C SWAP2 SWAP1 PUSH2 0x1074 JUMP JUMPDEST PUSH1 0x20 PUSH1 0x40 MLOAD DUP1 DUP4 SUB DUP2 DUP7 GAS STATICCALL ISZERO DUP1 ISZERO PUSH2 0xA37 JUMPI RETURNDATASIZE PUSH0 PUSH0 RETURNDATACOPY RETURNDATASIZE PUSH0 REVERT JUMPDEST POP POP POP POP PUSH1 0x40 MLOAD RETURNDATASIZE PUSH1 0x1F NOT PUSH1 0x1F DUP3 ADD AND DUP3 ADD DUP1 PUSH1 0x40 MSTORE POP DUP2 ADD SWAP1 PUSH2 0xA5B SWAP2 SWAP1 PUSH2 0x112B JUMP JUMPDEST SWAP1 POP PUSH0 PUSH2 0xA66 PUSH2 0x6C5 JUMP JUMPDEST SWAP1 POP PUSH0 DUP2 DUP4 PUSH2 0xA75 SWAP2 SWAP1 PUSH2 0x11B6 JUMP JUMPDEST SWAP1 POP PUSH0 DUP2 GT ISZERO PUSH2 0xB1C JUMPI PUSH32 0x0 PUSH20 0xFFFFFFFFFFFFFFFFFFFFFFFFFFFFFFFFFFFFFFFF AND PUSH4 0xA9059CBB CALLER DUP4 PUSH1 0x40 MLOAD DUP4 PUSH4 0xFFFFFFFF AND PUSH1 0xE0 SHL DUP2 MSTORE PUSH1 0x4 ADD PUSH2 0xADA SWAP3 SWAP2 SWAP1 PUSH2 0x1367 JUMP JUMPDEST PUSH1 0x20 PUSH1 0x40 MLOAD DUP1 DUP4 SUB DUP2 PUSH0 DUP8 GAS CALL ISZERO DUP1 ISZERO PUSH2 0xAF6 JUMPI RETURNDATASIZE PUSH0 PUSH0 RETURNDATACOPY RETURNDATASIZE PUSH0 REVERT JUMPDEST POP POP POP POP PUSH1 0x40 MLOAD RETURNDATASIZE PUSH1 0x1F NOT PUSH1 0x1F DUP3 ADD AND DUP3 ADD DUP1 PUSH1 0x40 MSTORE POP DUP2 ADD SWAP1 PUSH2 0xB1A SWAP2 SWAP1 PUSH2 0x13B8 JUMP JUMPDEST POP JUMPDEST PUSH32 0xAB9BB9A2DBCE8EB1C5199596521D57563C7289FB1AC680030C44E9A0D16E6ED0 PUSH1 0x40 MLOAD PUSH1 0x40 MLOAD DUP1 SWAP2 SUB SWAP1 LOG1 POP POP POP POP JUMP JUMPDEST PUSH32 0x0 DUP2 JUMP JUMPDEST PUSH2 0xB7B DUP3 PUSH2 0x426 JUMP JUMPDEST PUSH2 0xB84 DUP2 PUSH2 0xC21 JUMP JUMPDEST PUSH2 0xB8E DUP4 DUP4 PUSH2 0xD25 JUMP JUMPDEST POP POP POP POP JUMP JUMPDEST PUSH32 0x0 DUP2 JUMP JUMPDEST PUSH0 PUSH32 0x1FFC9A700000000000000000000000000000000000000000000000000000000 PUSH28 0xFFFFFFFFFFFFFFFFFFFFFFFFFFFFFFFFFFFFFFFFFFFFFFFFFFFFFFFF NOT AND DUP3 PUSH28 0xFFFFFFFFFFFFFFFFFFFFFFFFFFFFFFFFFFFFFFFFFFFFFFFFFFFFFFFF NOT AND EQ SWAP1 POP SWAP2 SWAP1 POP JUMP JUMPDEST PUSH2 0xC32 DUP2 PUSH2 0xC2D PUSH2 0xD1E JUMP JUMPDEST PUSH2 0xE0E JUMP JUMPDEST POP JUMP JUMPDEST PUSH0 PUSH2 0xC40 DUP4 DUP4 PUSH2 0x8C0 JUMP JUMPDEST PUSH2 0xD14 JUMPI PUSH1 0x1 PUSH0 PUSH0 DUP6 DUP2 MSTORE PUSH1 0x20 ADD SWAP1 DUP2 MSTORE PUSH1 0x20 ADD PUSH0 KECCAK256 PUSH0 ADD PUSH0 DUP5 PUSH20 0xFFFFFFFFFFFFFFFFFFFFFFFFFFFFFFFFFFFFFFFF AND PUSH20 0xFFFFFFFFFFFFFFFFFFFFFFFFFFFFFFFFFFFFFFFF AND DUP2 MSTORE PUSH1 0x20 ADD SWAP1 DUP2 MSTORE PUSH1 0x20 ADD PUSH0 KECCAK256 PUSH0 PUSH2 0x100 EXP DUP2 SLOAD DUP2 PUSH1 0xFF MUL NOT AND SWAP1 DUP4 ISZERO ISZERO MUL OR SWAP1 SSTORE POP PUSH2 0xCB1 PUSH2 0xD1E JUMP JUMPDEST PUSH20 0xFFFFFFFFFFFFFFFFFFFFFFFFFFFFFFFFFFFFFFFF AND DUP3 PUSH20 0xFFFFFFFFFFFFFFFFFFFFFFFFFFFFFFFFFFFFFFFF AND DUP5 PUSH32 0x2F8788117E7EFF1D82E926EC794901D17C78024A50270940304540A733656F0D PUSH1 0x40 MLOAD PUSH1 0x40 MLOAD DUP1 SWAP2 SUB SWAP1 LOG4 PUSH1 0x1 SWAP1 POP PUSH2 0xD18 JUMP JUMPDEST PUSH0 SWAP1 POP JUMPDEST SWAP3 SWAP2 POP POP JUMP JUMPDEST PUSH0 CALLER SWAP1 POP SWAP1 JUMP JUMPDEST PUSH0 PUSH2 0xD30 DUP4 DUP4 PUSH2 0x8C0 JUMP JUMPDEST ISZERO PUSH2 0xE04 JUMPI PUSH0 PUSH0 PUSH0 DUP6 DUP2 MSTORE PUSH1 0x20 ADD SWAP1 DUP2 MSTORE PUSH1 0x20 ADD PUSH0 KECCAK256 PUSH0 ADD PUSH0 DUP5 PUSH20 0xFFFFFFFFFFFFFFFFFFFFFFFFFFFFFFFFFFFFFFFF AND PUSH20 0xFFFFFFFFFFFFFFFFFFFFFFFFFFFFFFFFFFFFFFFF AND DUP2 MSTORE PUSH1 0x20 ADD SWAP1 DUP2 MSTORE PUSH1 0x20 ADD PUSH0 KECCAK256 PUSH0 PUSH2 0x100 EXP DUP2 SLOAD DUP2 PUSH1 0xFF MUL NOT AND SWAP1 DUP4 ISZERO ISZERO MUL OR SWAP1 SSTORE POP PUSH2 0xDA1 PUSH2 0xD1E JUMP JUMPDEST PUSH20 0xFFFFFFFFFFFFFFFFFFFFFFFFFFFFFFFFFFFFFFFF AND DUP3 PUSH20 0xFFFFFFFFFFFFFFFFFFFFFFFFFFFFFFFFFFFFFFFF AND DUP5 PUSH32 0xF6391F5C32D9C69D2A47EA670B442974B53935D1EDC7FD64EB21E047A839171B PUSH1 0x40 MLOAD PUSH1 0x40 MLOAD DUP1 SWAP2 SUB SWAP1 LOG4 PUSH1 0x1 SWAP1 POP PUSH2 0xE08 JUMP JUMPDEST PUSH0 SWAP1 POP JUMPDEST SWAP3 SWAP2 POP POP JUMP JUMPDEST PUSH2 0xE18 DUP3 DUP3 PUSH2 0x8C0 JUMP JUMPDEST PUSH2 0xE5B JUMPI DUP1 DUP3 PUSH1 0x40 MLOAD PUSH32 0xE2517D3F00000000000000000000000000000000000000000000000000000000 DUP2 MSTORE PUSH1 0x4 ADD PUSH2 0xE52 SWAP3 SWAP2 SWAP1 PUSH2 0x144B JUMP JUMPDEST PUSH1 0x40 MLOAD DUP1 SWAP2 SUB SWAP1 REVERT JUMPDEST POP POP JUMP JUMPDEST PUSH0 PUSH0 REVERT JUMPDEST PUSH0 PUSH32 0xFFFFFFFF00000000000000000000000000000000000000000000000000000000 DUP3 AND SWAP1 POP SWAP2 SWAP1 POP JUMP JUMPDEST PUSH2 0xE97 DUP2 PUSH2 0xE63 JUMP JUMPDEST DUP2 EQ PUSH2 0xEA1 JUMPI PUSH0 PUSH0 REVERT JUMPDEST POP JUMP JUMPDEST PUSH0 DUP2 CALLDATALOAD SWAP1 POP PUSH2 0xEB2 DUP2 PUSH2 0xE8E JUMP JUMPDEST SWAP3 SWAP2 POP POP JUMP JUMPDEST PUSH0 PUSH1 0x20 DUP3 DUP5 SUB SLT ISZERO PUSH2 0xECD JUMPI PUSH2 0xECC PUSH2 0xE5F JUMP JUMPDEST JUMPDEST PUSH0 PUSH2 0xEDA DUP5 DUP3 DUP6 ADD PUSH2 0xEA4 JUMP JUMPDEST SWAP2 POP POP SWAP3 SWAP2 POP POP JUMP JUMPDEST PUSH0 DUP2 ISZERO ISZERO SWAP1 POP SWAP2 SWAP1 POP JUMP JUMPDEST PUSH2 0xEF7 DUP2 PUSH2 0xEE3 JUMP JUMPDEST DUP3 MSTORE POP POP JUMP JUMPDEST PUSH0 PUSH1 0x20 DUP3 ADD SWAP1 POP PUSH2 0xF10 PUSH0 DUP4 ADD DUP5 PUSH2 0xEEE JUMP JUMPDEST SWAP3 SWAP2 POP POP JUMP JUMPDEST PUSH0 DUP2 SWAP1 POP SWAP2 SWAP1 POP JUMP JUMPDEST PUSH2 0xF28 DUP2 PUSH2 0xF16 JUMP JUMPDEST DUP3 MSTORE POP POP JUMP JUMPDEST PUSH0 PUSH1 0x20 DUP3 ADD SWAP1 POP PUSH2 0xF41 PUSH0 DUP4 ADD DUP5 PUSH2 0xF1F JUMP JUMPDEST SWAP3 SWAP2 POP POP JUMP JUMPDEST PUSH0 DUP2 SWAP1 POP SWAP2 SWAP1 POP JUMP JUMPDEST PUSH2 0xF59 DUP2 PUSH2 0xF47 JUMP JUMPDEST DUP2 EQ PUSH2 0xF63 JUMPI PUSH0 PUSH0 REVERT JUMPDEST POP JUMP JUMPDEST PUSH0 DUP2 CALLDATALOAD SWAP1 POP PUSH2 0xF74 DUP2 PUSH2 0xF50 JUMP JUMPDEST SWAP3 SWAP2 POP POP JUMP JUMPDEST PUSH0 PUSH1 0x20 DUP3 DUP5 SUB SLT ISZERO PUSH2 0xF8F JUMPI PUSH2 0xF8E PUSH2 0xE5F JUMP JUMPDEST JUMPDEST PUSH0 PUSH2 0xF9C DUP5 DUP3 DUP6 ADD PUSH2 0xF66 JUMP JUMPDEST SWAP2 POP POP SWAP3 SWAP2 POP POP JUMP JUMPDEST PUSH2 0xFAE DUP2 PUSH2 0xF47 JUMP JUMPDEST DUP3 MSTORE POP POP JUMP JUMPDEST PUSH0 PUSH1 0x20 DUP3 ADD SWAP1 POP PUSH2 0xFC7 PUSH0 DUP4 ADD DUP5 PUSH2 0xFA5 JUMP JUMPDEST SWAP3 SWAP2 POP POP JUMP JUMPDEST PUSH0 PUSH20 0xFFFFFFFFFFFFFFFFFFFFFFFFFFFFFFFFFFFFFFFF DUP3 AND SWAP1 POP SWAP2 SWAP1 POP JUMP JUMPDEST PUSH0 PUSH2 0xFF6 DUP3 PUSH2 0xFCD JUMP JUMPDEST SWAP1 POP SWAP2 SWAP1 POP JUMP JUMPDEST PUSH2 0x1006 DUP2 PUSH2 0xFEC JUMP JUMPDEST DUP2 EQ PUSH2 0x1010 JUMPI PUSH0 PUSH0 REVERT JUMPDEST POP JUMP JUMPDEST PUSH0 DUP2 CALLDATALOAD SWAP1 POP PUSH2 0x1021 DUP2 PUSH2 0xFFD JUMP JUMPDEST SWAP3 SWAP2 POP POP JUMP JUMPDEST PUSH0 PUSH0 PUSH1 0x40 DUP4 DUP6 SUB SLT ISZERO PUSH2 0x103D JUMPI PUSH2 0x103C PUSH2 0xE5F JUMP JUMPDEST JUMPDEST PUSH0 PUSH2 0x104A DUP6 DUP3 DUP7 ADD PUSH2 0xF66 JUMP JUMPDEST SWAP3 POP POP PUSH1 0x20 PUSH2 0x105B DUP6 DUP3 DUP7 ADD PUSH2 0x1013 JUMP JUMPDEST SWAP2 POP POP SWAP3 POP SWAP3 SWAP1 POP JUMP JUMPDEST PUSH2 0x106E DUP2 PUSH2 0xFEC JUMP JUMPDEST DUP3 MSTORE POP POP JUMP JUMPDEST PUSH0 PUSH1 0x20 DUP3 ADD SWAP1 POP PUSH2 0x1087 PUSH0 DUP4 ADD DUP5 PUSH2 0x1065 JUMP JUMPDEST SWAP3 SWAP2 POP POP JUMP JUMPDEST PUSH0 DUP2 SWAP1 POP SWAP2 SWAP1 POP JUMP JUMPDEST PUSH0 PUSH2 0x10B0 PUSH2 0x10AB PUSH2 0x10A6 DUP5 PUSH2 0xFCD JUMP JUMPDEST PUSH2 0x108D JUMP JUMPDEST PUSH2 0xFCD JUMP JUMPDEST SWAP1 POP SWAP2 SWAP1 POP JUMP JUMPDEST PUSH0 PUSH2 0x10C1 DUP3 PUSH2 0x1096 JUMP JUMPDEST SWAP1 POP SWAP2 SWAP1 POP JUMP JUMPDEST PUSH0 PUSH2 0x10D2 DUP3 PUSH2 0x10B7 JUMP JUMPDEST SWAP1 POP SWAP2 SWAP1 POP JUMP JUMPDEST PUSH2 0x10E2 DUP2 PUSH2 0x10C8 JUMP JUMPDEST DUP3 MSTORE POP POP JUMP JUMPDEST PUSH0 PUSH1 0x20 DUP3 ADD SWAP1 POP PUSH2 0x10FB PUSH0 DUP4 ADD DUP5 PUSH2 0x10D9 JUMP JUMPDEST SWAP3 SWAP2 POP POP JUMP JUMPDEST PUSH2 0x110A DUP2 PUSH2 0xF16 JUMP JUMPDEST DUP2 EQ PUSH2 0x1114 JUMPI PUSH0 PUSH0 REVERT JUMPDEST POP JUMP JUMPDEST PUSH0 DUP2 MLOAD SWAP1 POP PUSH2 0x1125 DUP2 PUSH2 0x1101 JUMP JUMPDEST SWAP3 SWAP2 POP POP JUMP JUMPDEST PUSH0 PUSH1 0x20 DUP3 DUP5 SUB SLT ISZERO PUSH2 0x1140 JUMPI PUSH2 0x113F PUSH2 0xE5F JUMP JUMPDEST JUMPDEST PUSH0 PUSH2 0x114D DUP5 DUP3 DUP6 ADD PUSH2 0x1117 JUMP JUMPDEST SWAP2 POP POP SWAP3 SWAP2 POP POP JUMP JUMPDEST PUSH32 0x4E487B7100000000000000000000000000000000000000000000000000000000 PUSH0 MSTORE PUSH1 0x11 PUSH1 0x4 MSTORE PUSH1 0x24 PUSH0 REVERT JUMPDEST PUSH0 PUSH2 0x118D DUP3 PUSH2 0xF16 JUMP JUMPDEST SWAP2 POP PUSH2 0x1198 DUP4 PUSH2 0xF16 JUMP JUMPDEST SWAP3 POP DUP3 DUP3 ADD SWAP1 POP DUP1 DUP3 GT ISZERO PUSH2 0x11B0 JUMPI PUSH2 0x11AF PUSH2 0x1156 JUMP JUMPDEST JUMPDEST SWAP3 SWAP2 POP POP JUMP JUMPDEST PUSH0 PUSH2 0x11C0 DUP3 PUSH2 0xF16 JUMP JUMPDEST SWAP2 POP PUSH2 0x11CB DUP4 PUSH2 0xF16 JUMP JUMPDEST SWAP3 POP DUP3 DUP3 SUB SWAP1 POP DUP2 DUP2 GT ISZERO PUSH2 0x11E3 JUMPI PUSH2 0x11E2 PUSH2 0x1156 JUMP JUMPDEST JUMPDEST SWAP3 SWAP2 POP POP JUMP JUMPDEST PUSH0 PUSH2 0x11F3 DUP3 PUSH2 0xF16 JUMP JUMPDEST SWAP2 POP PUSH2 0x11FE DUP4 PUSH2 0xF16 JUMP JUMPDEST SWAP3 POP DUP3 DUP3 MUL PUSH2 0x120C DUP2 PUSH2 0xF16 JUMP JUMPDEST SWAP2 POP DUP3 DUP3 DIV DUP5 EQ DUP4 ISZERO OR PUSH2 0x1223 JUMPI PUSH2 0x1222 PUSH2 0x1156 JUMP JUMPDEST JUMPDEST POP SWAP3 SWAP2 POP POP JUMP JUMPDEST PUSH32 0x4E487B7100000000000000000000000000000000000000000000000000000000 PUSH0 MSTORE PUSH1 0x12 PUSH1 0x4 MSTORE PUSH1 0x24 PUSH0 REVERT JUMPDEST PUSH0 PUSH2 0x1261 DUP3 PUSH2 0xF16 JUMP JUMPDEST SWAP2 POP PUSH2 0x126C DUP4 PUSH2 0xF16 JUMP JUMPDEST SWAP3 POP DUP3 PUSH2 0x127C JUMPI PUSH2 0x127B PUSH2 0x122A JUMP JUMPDEST JUMPDEST DUP3 DUP3 DIV SWAP1 POP SWAP3 SWAP2 POP POP JUMP JUMPDEST PUSH0 DUP3 DUP3 MSTORE PUSH1 0x20 DUP3 ADD SWAP1 POP SWAP3 SWAP2 POP POP JUMP JUMPDEST PUSH32 0x56657374696E67207265766F6B65640000000000000000000000000000000000 PUSH0 DUP3 ADD MSTORE POP JUMP JUMPDEST PUSH0 PUSH2 0x12CB PUSH1 0xF DUP4 PUSH2 0x1287 JUMP JUMPDEST SWAP2 POP PUSH2 0x12D6 DUP3 PUSH2 0x1297 JUMP JUMPDEST PUSH1 0x20 DUP3 ADD SWAP1 POP SWAP2 SWAP1 POP JUMP JUMPDEST PUSH0 PUSH1 0x20 DUP3 ADD SWAP1 POP DUP2 DUP2 SUB PUSH0 DUP4 ADD MSTORE PUSH2 0x12F8 DUP2 PUSH2 0x12BF JUMP JUMPDEST SWAP1 POP SWAP2 SWAP1 POP JUMP JUMPDEST PUSH32 0x4E6F7468696E6720746F2072656C656173650000000000000000000000000000 PUSH0 DUP3 ADD MSTORE POP JUMP JUMPDEST PUSH0 PUSH2 0x1333 PUSH1 0x12 DUP4 PUSH2 0x1287 JUMP JUMPDEST SWAP2 POP PUSH2 0x133E DUP3 PUSH2 0x12FF JUMP JUMPDEST PUSH1 0x20 DUP3 ADD SWAP1 POP SWAP2 SWAP1 POP JUMP JUMPDEST PUSH0 PUSH1 0x20 DUP3 ADD SWAP1 POP DUP2 DUP2 SUB PUSH0 DUP4 ADD MSTORE PUSH2 0x1360 DUP2 PUSH2 0x1327 JUMP JUMPDEST SWAP1 POP SWAP2 SWAP1 POP JUMP JUMPDEST PUSH0 PUSH1 0x40 DUP3 ADD SWAP1 POP PUSH2 0x137A PUSH0 DUP4 ADD DUP6 PUSH2 0x1065 JUMP JUMPDEST PUSH2 0x1387 PUSH1 0x20 DUP4 ADD DUP5 PUSH2 0xF1F JUMP JUMPDEST SWAP4 SWAP3 POP POP POP JUMP JUMPDEST PUSH2 0x1397 DUP2 PUSH2 0xEE3 JUMP JUMPDEST DUP2 EQ PUSH2 0x13A1 JUMPI PUSH0 PUSH0 REVERT JUMPDEST POP JUMP JUMPDEST PUSH0 DUP2 MLOAD SWAP1 POP PUSH2 0x13B2 DUP2 PUSH2 0x138E JUMP JUMPDEST SWAP3 SWAP2 POP POP JUMP JUMPDEST PUSH0 PUSH1 0x20 DUP3 DUP5 SUB SLT ISZERO PUSH2 0x13CD JUMPI PUSH2 0x13CC PUSH2 0xE5F JUMP JUMPDEST JUMPDEST PUSH0 PUSH2 0x13DA DUP5 DUP3 DUP6 ADD PUSH2 0x13A4 JUMP JUMPDEST SWAP2 POP POP SWAP3 SWAP2 POP POP JUMP JUMPDEST PUSH32 0x416C7265616479207265766F6B65640000000000000000000000000000000000 PUSH0 DUP3 ADD MSTORE POP JUMP JUMPDEST PUSH0 PUSH2 0x1417 PUSH1 0xF DUP4 PUSH2 0x1287 JUMP JUMPDEST SWAP2 POP PUSH2 0x1422 DUP3 PUSH2 0x13E3 JUMP JUMPDEST PUSH1 0x20 DUP3 ADD SWAP1 POP SWAP2 SWAP1 POP JUMP JUMPDEST PUSH0 PUSH1 0x20 DUP3 ADD SWAP1 POP DUP2 DUP2 SUB PUSH0 DUP4 ADD MSTORE PUSH2 0x1444 DUP2 PUSH2 0x140B JUMP JUMPDEST SWAP1 POP SWAP2 SWAP1 POP JUMP JUMPDEST PUSH0 PUSH1 0x40 DUP3 ADD SWAP1 POP PUSH2 0x145E PUSH0 DUP4 ADD DUP6 PUSH2 0x1065 JUMP JUMPDEST PUSH2 0x146B PUSH1 0x20 DUP4 ADD DUP5 PUSH2 0xFA5 JUMP JUMPDEST SWAP4 SWAP3 POP POP POP JUMP INVALID LOG2 PUSH5 0x6970667358 0x22 SLT KECCAK256 0x4D SWAP13 PUSH28 0x43537CAC5DBD31336EC17095B2E6D3363E97B81FFA367FBAD0D97A16 SWAP14 PUSH5 0x736F6C6343 STOP ADDMOD SHR STOP CALLER "
				},
				"gasEstimates": {
					"creation": {
						"codeDepositCost": "1057600",
						"executionCost": "infinite",
						"totalCost": "infinite"
					},
					"external": {
						"ADMIN_ROLE()": "370",
						"DEFAULT_ADMIN_ROLE()": "351",
						"beneficiary()": "infinite",
						"cliff()": "infinite",
						"duration()": "infinite",
						"getRoleAdmin(bytes32)": "infinite",
						"grantRole(bytes32,address)": "infinite",
						"hasRole(bytes32,address)": "3209",
						"releasableAmount()": "infinite",
						"release()": "infinite",
						"released()": "2536",
						"renounceRole(bytes32,address)": "infinite",
						"revoke()": "infinite",
						"revokeRole(bytes32,address)": "infinite",
						"revoked()": "2489",
						"start()": "infinite",
						"supportsInterface(bytes4)": "741",
						"token()": "infinite",
						"vestedAmount()": "infinite"
					}
				},
				"methodIdentifiers": {
					"ADMIN_ROLE()": "75b238fc",
					"DEFAULT_ADMIN_ROLE()": "a217fddf",
					"beneficiary()": "38af3eed",
					"cliff()": "13d033c0",
					"duration()": "0fb5a6b4",
					"getRoleAdmin(bytes32)": "248a9ca3",
					"grantRole(bytes32,address)": "2f2ff15d",
					"hasRole(bytes32,address)": "91d14854",
					"releasableAmount()": "5b940081",
					"release()": "86d1a69f",
					"released()": "96132521",
					"renounceRole(bytes32,address)": "36568abe",
					"revoke()": "b6549f75",
					"revokeRole(bytes32,address)": "d547741f",
					"revoked()": "63d256ce",
					"start()": "be9a6555",
					"supportsInterface(bytes4)": "01ffc9a7",
					"token()": "fc0c546a",
					"vestedAmount()": "44b1231f"
				}
			},
			"storageLayout": {
				"storage": [
					{
						"astId": 26,
						"contract": "contracts/WallyVesting.sol:WallyVesting",
						"label": "_roles",
						"offset": 0,
						"slot": "0",
						"type": "t_mapping(t_bytes32,t_struct(RoleData)21_storage)"
					},
					{
						"astId": 547,
						"contract": "contracts/WallyVesting.sol:WallyVesting",
						"label": "released",
						"offset": 0,
						"slot": "1",
						"type": "t_uint256"
					},
					{
						"astId": 549,
						"contract": "contracts/WallyVesting.sol:WallyVesting",
						"label": "revoked",
						"offset": 0,
						"slot": "2",
						"type": "t_bool"
					}
				],
				"types": {
					"t_address": {
						"encoding": "inplace",
						"label": "address",
						"numberOfBytes": "20"
					},
					"t_bool": {
						"encoding": "inplace",
						"label": "bool",
						"numberOfBytes": "1"
					},
					"t_bytes32": {
						"encoding": "inplace",
						"label": "bytes32",
						"numberOfBytes": "32"
					},
					"t_mapping(t_address,t_bool)": {
						"encoding": "mapping",
						"key": "t_address",
						"label": "mapping(address => bool)",
						"numberOfBytes": "32",
						"value": "t_bool"
					},
					"t_mapping(t_bytes32,t_struct(RoleData)21_storage)": {
						"encoding": "mapping",
						"key": "t_bytes32",
						"label": "mapping(bytes32 => struct AccessControl.RoleData)",
						"numberOfBytes": "32",
						"value": "t_struct(RoleData)21_storage"
					},
					"t_struct(RoleData)21_storage": {
						"encoding": "inplace",
						"label": "struct AccessControl.RoleData",
						"members": [
							{
								"astId": 18,
								"contract": "contracts/WallyVesting.sol:WallyVesting",
								"label": "hasRole",
								"offset": 0,
								"slot": "0",
								"type": "t_mapping(t_address,t_bool)"
							},
							{
								"astId": 20,
								"contract": "contracts/WallyVesting.sol:WallyVesting",
								"label": "adminRole",
								"offset": 0,
								"slot": "1",
								"type": "t_bytes32"
							}
						],
						"numberOfBytes": "64"
					},
					"t_uint256": {
						"encoding": "inplace",
						"label": "uint256",
						"numberOfBytes": "32"
					}
				}
			},
			"userdoc": {
				"kind": "user",
				"methods": {},
				"version": 1
			}
		}
	}
}