{
	"contracts/WallyToken.sol": {
		"WallyToken": {
			"abi": [
				{
					"inputs": [
						{
							"internalType": "address",
							"name": "_uniswapV2Router",
							"type": "address"
						}
					],
					"stateMutability": "nonpayable",
					"type": "constructor"
				},
				{
					"inputs": [],
					"name": "AccessControlBadConfirmation",
					"type": "error"
				},
				{
					"inputs": [
						{
							"internalType": "address",
							"name": "account",
							"type": "address"
						},
						{
							"internalType": "bytes32",
							"name": "neededRole",
							"type": "bytes32"
						}
					],
					"name": "AccessControlUnauthorizedAccount",
					"type": "error"
				},
				{
					"inputs": [
						{
							"internalType": "address",
							"name": "spender",
							"type": "address"
						},
						{
							"internalType": "uint256",
							"name": "allowance",
							"type": "uint256"
						},
						{
							"internalType": "uint256",
							"name": "needed",
							"type": "uint256"
						}
					],
					"name": "ERC20InsufficientAllowance",
					"type": "error"
				},
				{
					"inputs": [
						{
							"internalType": "address",
							"name": "sender",
							"type": "address"
						},
						{
							"internalType": "uint256",
							"name": "balance",
							"type": "uint256"
						},
						{
							"internalType": "uint256",
							"name": "needed",
							"type": "uint256"
						}
					],
					"name": "ERC20InsufficientBalance",
					"type": "error"
				},
				{
					"inputs": [
						{
							"internalType": "address",
							"name": "approver",
							"type": "address"
						}
					],
					"name": "ERC20InvalidApprover",
					"type": "error"
				},
				{
					"inputs": [
						{
							"internalType": "address",
							"name": "receiver",
							"type": "address"
						}
					],
					"name": "ERC20InvalidReceiver",
					"type": "error"
				},
				{
					"inputs": [
						{
							"internalType": "address",
							"name": "sender",
							"type": "address"
						}
					],
					"name": "ERC20InvalidSender",
					"type": "error"
				},
				{
					"inputs": [
						{
							"internalType": "address",
							"name": "spender",
							"type": "address"
						}
					],
					"name": "ERC20InvalidSpender",
					"type": "error"
				},
				{
					"anonymous": false,
					"inputs": [
						{
							"indexed": true,
							"internalType": "address",
							"name": "owner",
							"type": "address"
						},
						{
							"indexed": true,
							"internalType": "address",
							"name": "spender",
							"type": "address"
						},
						{
							"indexed": false,
							"internalType": "uint256",
							"name": "value",
							"type": "uint256"
						}
					],
					"name": "Approval",
					"type": "event"
				},
				{
					"anonymous": false,
					"inputs": [
						{
							"indexed": true,
							"internalType": "address",
							"name": "account",
							"type": "address"
						},
						{
							"indexed": false,
							"internalType": "bool",
							"name": "isBlacklisted",
							"type": "bool"
						}
					],
					"name": "Blacklisted",
					"type": "event"
				},
				{
					"anonymous": false,
					"inputs": [
						{
							"indexed": false,
							"internalType": "bool",
							"name": "enabled",
							"type": "bool"
						},
						{
							"indexed": false,
							"internalType": "uint256",
							"name": "cooldownTime",
							"type": "uint256"
						}
					],
					"name": "CooldownUpdated",
					"type": "event"
				},
				{
					"anonymous": false,
					"inputs": [
						{
							"indexed": false,
							"internalType": "uint256",
							"name": "newMaxTx",
							"type": "uint256"
						}
					],
					"name": "MaxTxAmountUpdated",
					"type": "event"
				},
				{
					"anonymous": false,
					"inputs": [
						{
							"indexed": true,
							"internalType": "bytes32",
							"name": "role",
							"type": "bytes32"
						},
						{
							"indexed": true,
							"internalType": "bytes32",
							"name": "previousAdminRole",
							"type": "bytes32"
						},
						{
							"indexed": true,
							"internalType": "bytes32",
							"name": "newAdminRole",
							"type": "bytes32"
						}
					],
					"name": "RoleAdminChanged",
					"type": "event"
				},
				{
					"anonymous": false,
					"inputs": [
						{
							"indexed": true,
							"internalType": "bytes32",
							"name": "role",
							"type": "bytes32"
						},
						{
							"indexed": true,
							"internalType": "address",
							"name": "account",
							"type": "address"
						},
						{
							"indexed": true,
							"internalType": "address",
							"name": "sender",
							"type": "address"
						}
					],
					"name": "RoleGranted",
					"type": "event"
				},
				{
					"anonymous": false,
					"inputs": [
						{
							"indexed": true,
							"internalType": "bytes32",
							"name": "role",
							"type": "bytes32"
						},
						{
							"indexed": true,
							"internalType": "address",
							"name": "account",
							"type": "address"
						},
						{
							"indexed": true,
							"internalType": "address",
							"name": "sender",
							"type": "address"
						}
					],
					"name": "RoleRevoked",
					"type": "event"
				},
				{
					"anonymous": false,
					"inputs": [
						{
							"indexed": false,
							"internalType": "bool",
							"name": "enabled",
							"type": "bool"
						},
						{
							"indexed": false,
							"internalType": "uint256",
							"name": "snipeBlocks",
							"type": "uint256"
						}
					],
					"name": "SniperProtectionUpdated",
					"type": "event"
				},
				{
					"anonymous": false,
					"inputs": [
						{
							"indexed": false,
							"internalType": "bool",
							"name": "enabled",
							"type": "bool"
						}
					],
					"name": "TradingEnabled",
					"type": "event"
				},
				{
					"anonymous": false,
					"inputs": [
						{
							"indexed": true,
							"internalType": "address",
							"name": "from",
							"type": "address"
						},
						{
							"indexed": true,
							"internalType": "address",
							"name": "to",
							"type": "address"
						},
						{
							"indexed": false,
							"internalType": "uint256",
							"name": "value",
							"type": "uint256"
						}
					],
					"name": "Transfer",
					"type": "event"
				},
				{
					"inputs": [],
					"name": "ADMIN_ROLE",
					"outputs": [
						{
							"internalType": "bytes32",
							"name": "",
							"type": "bytes32"
						}
					],
					"stateMutability": "view",
					"type": "function"
				},
				{
					"inputs": [],
					"name": "BURNER_ROLE",
					"outputs": [
						{
							"internalType": "bytes32",
							"name": "",
							"type": "bytes32"
						}
					],
					"stateMutability": "view",
					"type": "function"
				},
				{
					"inputs": [],
					"name": "DAO_ADDRESS",
					"outputs": [
						{
							"internalType": "address",
							"name": "",
							"type": "address"
						}
					],
					"stateMutability": "view",
					"type": "function"
				},
				{
					"inputs": [],
					"name": "DEFAULT_ADMIN_ROLE",
					"outputs": [
						{
							"internalType": "bytes32",
							"name": "",
							"type": "bytes32"
						}
					],
					"stateMutability": "view",
					"type": "function"
				},
				{
					"inputs": [],
					"name": "INITIAL_SUPPLY",
					"outputs": [
						{
							"internalType": "uint256",
							"name": "",
							"type": "uint256"
						}
					],
					"stateMutability": "view",
					"type": "function"
				},
				{
					"inputs": [],
					"name": "MINTER_ROLE",
					"outputs": [
						{
							"internalType": "bytes32",
							"name": "",
							"type": "bytes32"
						}
					],
					"stateMutability": "view",
					"type": "function"
				},
				{
					"inputs": [
						{
							"internalType": "address",
							"name": "to",
							"type": "address"
						},
						{
							"internalType": "uint256",
							"name": "tokenAmountIn",
							"type": "uint256"
						},
						{
							"internalType": "uint256",
							"name": "tokenAmountMin",
							"type": "uint256"
						},
						{
							"internalType": "uint256",
							"name": "ethAmountMin",
							"type": "uint256"
						},
						{
							"internalType": "uint256",
							"name": "deadline",
							"type": "uint256"
						}
					],
					"name": "addLiquidityETH",
					"outputs": [
						{
							"internalType": "uint256",
							"name": "amountToken",
							"type": "uint256"
						},
						{
							"internalType": "uint256",
							"name": "amountETH",
							"type": "uint256"
						},
						{
							"internalType": "uint256",
							"name": "liquidity",
							"type": "uint256"
						}
					],
					"stateMutability": "payable",
					"type": "function"
				},
				{
					"inputs": [
						{
							"internalType": "address",
							"name": "owner",
							"type": "address"
						},
						{
							"internalType": "address",
							"name": "spender",
							"type": "address"
						}
					],
					"name": "allowance",
					"outputs": [
						{
							"internalType": "uint256",
							"name": "",
							"type": "uint256"
						}
					],
					"stateMutability": "view",
					"type": "function"
				},
				{
					"inputs": [
						{
							"internalType": "address",
							"name": "spender",
							"type": "address"
						},
						{
							"internalType": "uint256",
							"name": "value",
							"type": "uint256"
						}
					],
					"name": "approve",
					"outputs": [
						{
							"internalType": "bool",
							"name": "",
							"type": "bool"
						}
					],
					"stateMutability": "nonpayable",
					"type": "function"
				},
				{
					"inputs": [
						{
							"internalType": "address",
							"name": "account",
							"type": "address"
						}
					],
					"name": "balanceOf",
					"outputs": [
						{
							"internalType": "uint256",
							"name": "",
							"type": "uint256"
						}
					],
					"stateMutability": "view",
					"type": "function"
				},
				{
					"inputs": [
						{
							"internalType": "address",
							"name": "",
							"type": "address"
						}
					],
					"name": "blacklist",
					"outputs": [
						{
							"internalType": "bool",
							"name": "",
							"type": "bool"
						}
					],
					"stateMutability": "view",
					"type": "function"
				},
				{
					"inputs": [
						{
							"internalType": "uint256",
							"name": "amount",
							"type": "uint256"
						}
					],
					"name": "burn",
					"outputs": [],
					"stateMutability": "nonpayable",
					"type": "function"
				},
				{
					"inputs": [],
					"name": "cooldownEnabled",
					"outputs": [
						{
							"internalType": "bool",
							"name": "",
							"type": "bool"
						}
					],
					"stateMutability": "view",
					"type": "function"
				},
				{
					"inputs": [],
					"name": "cooldownTime",
					"outputs": [
						{
							"internalType": "uint256",
							"name": "",
							"type": "uint256"
						}
					],
					"stateMutability": "view",
					"type": "function"
				},
				{
					"inputs": [],
					"name": "decimals",
					"outputs": [
						{
							"internalType": "uint8",
							"name": "",
							"type": "uint8"
						}
					],
					"stateMutability": "view",
					"type": "function"
				},
				{
					"inputs": [
						{
							"internalType": "bytes32",
							"name": "role",
							"type": "bytes32"
						}
					],
					"name": "getRoleAdmin",
					"outputs": [
						{
							"internalType": "bytes32",
							"name": "",
							"type": "bytes32"
						}
					],
					"stateMutability": "view",
					"type": "function"
				},
				{
					"inputs": [
						{
							"internalType": "bytes32",
							"name": "role",
							"type": "bytes32"
						},
						{
							"internalType": "address",
							"name": "account",
							"type": "address"
						}
					],
					"name": "grantRole",
					"outputs": [],
					"stateMutability": "nonpayable",
					"type": "function"
				},
				{
					"inputs": [
						{
							"internalType": "bytes32",
							"name": "role",
							"type": "bytes32"
						},
						{
							"internalType": "address",
							"name": "account",
							"type": "address"
						}
					],
					"name": "hasRole",
					"outputs": [
						{
							"internalType": "bool",
							"name": "",
							"type": "bool"
						}
					],
					"stateMutability": "view",
					"type": "function"
				},
				{
					"inputs": [
						{
							"internalType": "address",
							"name": "",
							"type": "address"
						}
					],
					"name": "lastTxTimestamp",
					"outputs": [
						{
							"internalType": "uint256",
							"name": "",
							"type": "uint256"
						}
					],
					"stateMutability": "view",
					"type": "function"
				},
				{
					"inputs": [],
					"name": "launchBlock",
					"outputs": [
						{
							"internalType": "uint256",
							"name": "",
							"type": "uint256"
						}
					],
					"stateMutability": "view",
					"type": "function"
				},
				{
					"inputs": [],
					"name": "maxTxAmount",
					"outputs": [
						{
							"internalType": "uint256",
							"name": "",
							"type": "uint256"
						}
					],
					"stateMutability": "view",
					"type": "function"
				},
				{
					"inputs": [
						{
							"internalType": "address",
							"name": "to",
							"type": "address"
						},
						{
							"internalType": "uint256",
							"name": "amount",
							"type": "uint256"
						}
					],
					"name": "mint",
					"outputs": [],
					"stateMutability": "nonpayable",
					"type": "function"
				},
				{
					"inputs": [],
					"name": "name",
					"outputs": [
						{
							"internalType": "string",
							"name": "",
							"type": "string"
						}
					],
					"stateMutability": "view",
					"type": "function"
				},
				{
					"inputs": [
						{
							"internalType": "bytes32",
							"name": "role",
							"type": "bytes32"
						},
						{
							"internalType": "address",
							"name": "callerConfirmation",
							"type": "address"
						}
					],
					"name": "renounceRole",
					"outputs": [],
					"stateMutability": "nonpayable",
					"type": "function"
				},
				{
					"inputs": [
						{
							"internalType": "address payable",
							"name": "to",
							"type": "address"
						},
						{
							"internalType": "uint256",
							"name": "amount",
							"type": "uint256"
						}
					],
					"name": "rescueETH",
					"outputs": [],
					"stateMutability": "nonpayable",
					"type": "function"
				},
				{
					"inputs": [
						{
							"internalType": "address",
							"name": "tokenAddress",
							"type": "address"
						},
						{
							"internalType": "uint256",
							"name": "amount",
							"type": "uint256"
						},
						{
							"internalType": "address",
							"name": "to",
							"type": "address"
						}
					],
					"name": "rescueTokens",
					"outputs": [],
					"stateMutability": "nonpayable",
					"type": "function"
				},
				{
					"inputs": [
						{
							"internalType": "bytes32",
							"name": "role",
							"type": "bytes32"
						},
						{
							"internalType": "address",
							"name": "account",
							"type": "address"
						}
					],
					"name": "revokeRole",
					"outputs": [],
					"stateMutability": "nonpayable",
					"type": "function"
				},
				{
					"inputs": [
						{
							"internalType": "address",
							"name": "account",
							"type": "address"
						},
						{
							"internalType": "bool",
							"name": "isBlacklisted",
							"type": "bool"
						}
					],
					"name": "setBlacklist",
					"outputs": [],
					"stateMutability": "nonpayable",
					"type": "function"
				},
				{
					"inputs": [
						{
							"internalType": "bool",
							"name": "_enabled",
							"type": "bool"
						},
						{
							"internalType": "uint256",
							"name": "_cooldownTime",
							"type": "uint256"
						}
					],
					"name": "setCooldownConfig",
					"outputs": [],
					"stateMutability": "nonpayable",
					"type": "function"
				},
				{
					"inputs": [
						{
							"internalType": "uint256",
							"name": "_maxTxAmount",
							"type": "uint256"
						}
					],
					"name": "setMaxTxAmount",
					"outputs": [],
					"stateMutability": "nonpayable",
					"type": "function"
				},
				{
					"inputs": [
						{
							"internalType": "bool",
							"name": "_enabled",
							"type": "bool"
						},
						{
							"internalType": "uint256",
							"name": "_snipeBlocks",
							"type": "uint256"
						}
					],
					"name": "setSniperProtection",
					"outputs": [],
					"stateMutability": "nonpayable",
					"type": "function"
				},
				{
					"inputs": [
						{
							"internalType": "bool",
							"name": "_enabled",
							"type": "bool"
						}
					],
					"name": "setTradingEnabled",
					"outputs": [],
					"stateMutability": "nonpayable",
					"type": "function"
				},
				{
					"inputs": [],
					"name": "snipeBlocks",
					"outputs": [
						{
							"internalType": "uint256",
							"name": "",
							"type": "uint256"
						}
					],
					"stateMutability": "view",
					"type": "function"
				},
				{
					"inputs": [],
					"name": "sniperProtectionEnabled",
					"outputs": [
						{
							"internalType": "bool",
							"name": "",
							"type": "bool"
						}
					],
					"stateMutability": "view",
					"type": "function"
				},
				{
					"inputs": [
						{
							"internalType": "bytes4",
							"name": "interfaceId",
							"type": "bytes4"
						}
					],
					"name": "supportsInterface",
					"outputs": [
						{
							"internalType": "bool",
							"name": "",
							"type": "bool"
						}
					],
					"stateMutability": "view",
					"type": "function"
				},
				{
					"inputs": [],
					"name": "symbol",
					"outputs": [
						{
							"internalType": "string",
							"name": "",
							"type": "string"
						}
					],
					"stateMutability": "view",
					"type": "function"
				},
				{
					"inputs": [],
					"name": "totalSupply",
					"outputs": [
						{
							"internalType": "uint256",
							"name": "",
							"type": "uint256"
						}
					],
					"stateMutability": "view",
					"type": "function"
				},
				{
					"inputs": [],
					"name": "tradingEnabled",
					"outputs": [
						{
							"internalType": "bool",
							"name": "",
							"type": "bool"
						}
					],
					"stateMutability": "view",
					"type": "function"
				},
				{
					"inputs": [
						{
							"internalType": "address",
							"name": "to",
							"type": "address"
						},
						{
							"internalType": "uint256",
							"name": "value",
							"type": "uint256"
						}
					],
					"name": "transfer",
					"outputs": [
						{
							"internalType": "bool",
							"name": "",
							"type": "bool"
						}
					],
					"stateMutability": "nonpayable",
					"type": "function"
				},
				{
					"inputs": [
						{
							"internalType": "address",
							"name": "from",
							"type": "address"
						},
						{
							"internalType": "address",
							"name": "to",
							"type": "address"
						},
						{
							"internalType": "uint256",
							"name": "value",
							"type": "uint256"
						}
					],
					"name": "transferFrom",
					"outputs": [
						{
							"internalType": "bool",
							"name": "",
							"type": "bool"
						}
					],
					"stateMutability": "nonpayable",
					"type": "function"
				},
				{
					"inputs": [],
					"name": "uniswapV2Pair",
					"outputs": [
						{
							"internalType": "address",
							"name": "",
							"type": "address"
						}
					],
					"stateMutability": "view",
					"type": "function"
				},
				{
					"inputs": [],
					"name": "uniswapV2Router",
					"outputs": [
						{
							"internalType": "contract IUniswapV2Router02",
							"name": "",
							"type": "address"
						}
					],
					"stateMutability": "view",
					"type": "function"
				},
				{
					"stateMutability": "payable",
					"type": "receive"
				}
			],
			"devdoc": {
				"details": "IMPORTANT: The DAO address must be a **secure** address (multi-sig or official DAO).",
				"errors": {
					"AccessControlBadConfirmation()": [
						{
							"details": "The caller of a function is not the expected one. NOTE: Don't confuse with {AccessControlUnauthorizedAccount}."
						}
					],
					"AccessControlUnauthorizedAccount(address,bytes32)": [
						{
							"details": "The `account` is missing a role."
						}
					],
					"ERC20InsufficientAllowance(address,uint256,uint256)": [
						{
							"details": "Indicates a failure with the `spender`’s `allowance`. Used in transfers.",
							"params": {
								"allowance": "Amount of tokens a `spender` is allowed to operate with.",
								"needed": "Minimum amount required to perform a transfer.",
								"spender": "Address that may be allowed to operate on tokens without being their owner."
							}
						}
					],
					"ERC20InsufficientBalance(address,uint256,uint256)": [
						{
							"details": "Indicates an error related to the current `balance` of a `sender`. Used in transfers.",
							"params": {
								"balance": "Current balance for the interacting account.",
								"needed": "Minimum amount required to perform a transfer.",
								"sender": "Address whose tokens are being transferred."
							}
						}
					],
					"ERC20InvalidApprover(address)": [
						{
							"details": "Indicates a failure with the `approver` of a token to be approved. Used in approvals.",
							"params": {
								"approver": "Address initiating an approval operation."
							}
						}
					],
					"ERC20InvalidReceiver(address)": [
						{
							"details": "Indicates a failure with the token `receiver`. Used in transfers.",
							"params": {
								"receiver": "Address to which tokens are being transferred."
							}
						}
					],
					"ERC20InvalidSender(address)": [
						{
							"details": "Indicates a failure with the token `sender`. Used in transfers.",
							"params": {
								"sender": "Address whose tokens are being transferred."
							}
						}
					],
					"ERC20InvalidSpender(address)": [
						{
							"details": "Indicates a failure with the `spender` to be approved. Used in approvals.",
							"params": {
								"spender": "Address that may be allowed to operate on tokens without being their owner."
							}
						}
					]
				},
				"events": {
					"Approval(address,address,uint256)": {
						"details": "Emitted when the allowance of a `spender` for an `owner` is set by a call to {approve}. `value` is the new allowance."
					},
					"RoleAdminChanged(bytes32,bytes32,bytes32)": {
						"details": "Emitted when `newAdminRole` is set as ``role``'s admin role, replacing `previousAdminRole` `DEFAULT_ADMIN_ROLE` is the starting admin for all roles, despite {RoleAdminChanged} not being emitted signaling this."
					},
					"RoleGranted(bytes32,address,address)": {
						"details": "Emitted when `account` is granted `role`. `sender` is the account that originated the contract call. This account bears the admin role (for the granted role). Expected in cases where the role was granted using the internal {AccessControl-_grantRole}."
					},
					"RoleRevoked(bytes32,address,address)": {
						"details": "Emitted when `account` is revoked `role`. `sender` is the account that originated the contract call:   - if using `revokeRole`, it is the admin role bearer   - if using `renounceRole`, it is the role bearer (i.e. `account`)"
					},
					"Transfer(address,address,uint256)": {
						"details": "Emitted when `value` tokens are moved from one account (`from`) to another (`to`). Note that `value` may be zero."
					}
				},
				"kind": "dev",
				"methods": {
					"addLiquidityETH(address,uint256,uint256,uint256,uint256)": {
						"details": "Add liquidity (TWG / ETH) on Uniswap. Must transfer `tokenAmountIn` to      this contract first, or do it in a two-transaction flow from a front-end."
					},
					"allowance(address,address)": {
						"details": "See {IERC20-allowance}."
					},
					"approve(address,uint256)": {
						"details": "See {IERC20-approve}. NOTE: If `value` is the maximum `uint256`, the allowance is not updated on `transferFrom`. This is semantically equivalent to an infinite approval. Requirements: - `spender` cannot be the zero address."
					},
					"balanceOf(address)": {
						"details": "See {IERC20-balanceOf}."
					},
					"constructor": {
						"details": "Constructor  1) Mints the entire supply to the deployer (msg.sender).  2) Sets up roles so that only the DAO address has ADMIN_ROLE.  3) Creates a Uniswap V2 pair for (TWG / WETH).  4) Leaves the deployer with NO admin privileges by default, fulfilling the requirement      that the DAO is the sole admin from the start. ",
						"params": {
							"_uniswapV2Router": "Address of the Uniswap V2 router (e.g., 0x7a250d563...)"
						}
					},
					"decimals()": {
						"details": "Returns the number of decimals used to get its user representation. For example, if `decimals` equals `2`, a balance of `505` tokens should be displayed to a user as `5.05` (`505 / 10 ** 2`). Tokens usually opt for a value of 18, imitating the relationship between Ether and Wei. This is the default value returned by this function, unless it's overridden. NOTE: This information is only used for _display_ purposes: it in no way affects any of the arithmetic of the contract, including {IERC20-balanceOf} and {IERC20-transfer}."
					},
					"getRoleAdmin(bytes32)": {
						"details": "Returns the admin role that controls `role`. See {grantRole} and {revokeRole}. To change a role's admin, use {_setRoleAdmin}."
					},
					"grantRole(bytes32,address)": {
						"details": "Grants `role` to `account`. If `account` had not been already granted `role`, emits a {RoleGranted} event. Requirements: - the caller must have ``role``'s admin role. May emit a {RoleGranted} event."
					},
					"hasRole(bytes32,address)": {
						"details": "Returns `true` if `account` has been granted `role`."
					},
					"name()": {
						"details": "Returns the name of the token."
					},
					"renounceRole(bytes32,address)": {
						"details": "Revokes `role` from the calling account. Roles are often managed via {grantRole} and {revokeRole}: this function's purpose is to provide a mechanism for accounts to lose their privileges if they are compromised (such as when a trusted device is misplaced). If the calling account had been revoked `role`, emits a {RoleRevoked} event. Requirements: - the caller must be `callerConfirmation`. May emit a {RoleRevoked} event."
					},
					"revokeRole(bytes32,address)": {
						"details": "Revokes `role` from `account`. If `account` had been granted `role`, emits a {RoleRevoked} event. Requirements: - the caller must have ``role``'s admin role. May emit a {RoleRevoked} event."
					},
					"setCooldownConfig(bool,uint256)": {
						"details": "Toggle cooldown enforcement and set the cooldown duration in seconds."
					},
					"setSniperProtection(bool,uint256)": {
						"details": "Turn sniper protection on or off, and set how many blocks to protect."
					},
					"setTradingEnabled(bool)": {
						"details": "Enables or disables trading. If enabling, records the `launchBlock`       for anti-sniping logic if `sniperProtectionEnabled` is true."
					},
					"supportsInterface(bytes4)": {
						"details": "See {IERC165-supportsInterface}."
					},
					"symbol()": {
						"details": "Returns the symbol of the token, usually a shorter version of the name."
					},
					"totalSupply()": {
						"details": "See {IERC20-totalSupply}."
					},
					"transfer(address,uint256)": {
						"details": "See {IERC20-transfer}. Requirements: - `to` cannot be the zero address. - the caller must have a balance of at least `value`."
					},
					"transferFrom(address,address,uint256)": {
						"details": "See {IERC20-transferFrom}. Skips emitting an {Approval} event indicating an allowance update. This is not required by the ERC. See {xref-ERC20-_approve-address-address-uint256-bool-}[_approve]. NOTE: Does not update the allowance if the current allowance is the maximum `uint256`. Requirements: - `from` and `to` cannot be the zero address. - `from` must have a balance of at least `value`. - the caller must have allowance for ``from``'s tokens of at least `value`."
					}
				},
				"title": "WallyToken",
				"version": 1
			},
			"evm": {
				"assembly": "    /* \"contracts/WallyToken.sol\":1423:11955  contract WallyToken is ERC20, AccessControl, ReentrancyGuard {... */\n  mstore(0x40, 0x80)\n    /* \"contracts/WallyToken.sol\":2296:2301  false */\n  0x00\n    /* \"contracts/WallyToken.sol\":2267:2301  bool public tradingEnabled = false */\n  0x08\n  exp(0x0100, 0x14)\n  dup2\n  sload\n  dup2\n  0xff\n  mul\n  not\n  and\n  swap1\n  dup4\n  iszero\n  iszero\n  mul\n  or\n  swap1\n  sstore\n  pop\n    /* \"contracts/WallyToken.sol\":2610:2615  false */\n  0x00\n    /* \"contracts/WallyToken.sol\":2572:2615  bool public sniperProtectionEnabled = false */\n  0x0b\n  exp(0x0100, 0x00)\n  dup2\n  sload\n  dup2\n  0xff\n  mul\n  not\n  and\n  swap1\n  dup4\n  iszero\n  iszero\n  mul\n  or\n  swap1\n  sstore\n  pop\n    /* \"contracts/WallyToken.sol\":2683:2684  2 */\n  0x02\n    /* \"contracts/WallyToken.sol\":2654:2684  uint256 public snipeBlocks = 2 */\n  0x0c\n  sstore\n    /* \"contracts/WallyToken.sol\":2929:2934  false */\n  0x00\n    /* \"contracts/WallyToken.sol\":2899:2934  bool public cooldownEnabled = false */\n  0x0e\n  exp(0x0100, 0x00)\n  dup2\n  sload\n  dup2\n  0xff\n  mul\n  not\n  and\n  swap1\n  dup4\n  iszero\n  iszero\n  mul\n  or\n  swap1\n  sstore\n  pop\n    /* \"contracts/WallyToken.sol\":3023:3025  30 */\n  0x1e\n    /* \"contracts/WallyToken.sol\":2993:3025  uint256 public cooldownTime = 30 */\n  0x0f\n  sstore\n    /* \"contracts/WallyToken.sol\":3948:5298  constructor(address _uniswapV2Router) ERC20(\"Wally Token\", \"TWG\") {... */\n  callvalue\n  dup1\n  iszero\n  tag_1\n  jumpi\n  revert(0x00, 0x00)\ntag_1:\n  pop\n  mload(0x40)\n  sub(codesize, bytecodeSize)\n  dup1\n  bytecodeSize\n  dup4\n  codecopy\n  dup2\n  dup2\n  add\n  0x40\n  mstore\n  dup2\n  add\n  swap1\n  tag_2\n  swap2\n  swap1\n  tag_3\n  jump\t// in\ntag_2:\n    /* \"@openzeppelin/contracts/token/ERC20/ERC20.sol\":1601:1714  constructor(string memory name_, string memory symbol_) {... */\n  mload(0x40)\n  dup1\n  0x40\n  add\n  0x40\n  mstore\n  dup1\n  0x0b\n  dup2\n  mstore\n  0x20\n  add\n  0x57616c6c7920546f6b656e000000000000000000000000000000000000000000\n  dup2\n  mstore\n  pop\n  mload(0x40)\n  dup1\n  0x40\n  add\n  0x40\n  mstore\n  dup1\n  0x03\n  dup2\n  mstore\n  0x20\n  add\n  0x5457470000000000000000000000000000000000000000000000000000000000\n  dup2\n  mstore\n  pop\n    /* \"@openzeppelin/contracts/token/ERC20/ERC20.sol\":1675:1680  name_ */\n  dup2\n    /* \"@openzeppelin/contracts/token/ERC20/ERC20.sol\":1667:1672  _name */\n  0x03\n    /* \"@openzeppelin/contracts/token/ERC20/ERC20.sol\":1667:1680  _name = name_ */\n  swap1\n  dup2\n  tag_8\n  swap2\n  swap1\n  tag_9\n  jump\t// in\ntag_8:\n  pop\n    /* \"@openzeppelin/contracts/token/ERC20/ERC20.sol\":1700:1707  symbol_ */\n  dup1\n    /* \"@openzeppelin/contracts/token/ERC20/ERC20.sol\":1690:1697  _symbol */\n  0x04\n    /* \"@openzeppelin/contracts/token/ERC20/ERC20.sol\":1690:1707  _symbol = symbol_ */\n  swap1\n  dup2\n  tag_10\n  swap2\n  swap1\n  tag_9\n  jump\t// in\ntag_10:\n  pop\n    /* \"@openzeppelin/contracts/token/ERC20/ERC20.sol\":1601:1714  constructor(string memory name_, string memory symbol_) {... */\n  pop\n  pop\n    /* \"@openzeppelin/contracts/security/ReentrancyGuard.sol\":1716:1717  1 */\n  0x01\n    /* \"@openzeppelin/contracts/security/ReentrancyGuard.sol\":1821:1828  _status */\n  0x06\n    /* \"@openzeppelin/contracts/security/ReentrancyGuard.sol\":1821:1843  _status = _NOT_ENTERED */\n  dup2\n  swap1\n  sstore\n  pop\n    /* \"contracts/WallyToken.sol\":4060:4061  0 */\n  0x00\n    /* \"contracts/WallyToken.sol\":4032:4062  _uniswapV2Router != address(0) */\n  0xffffffffffffffffffffffffffffffffffffffff\n  and\n    /* \"contracts/WallyToken.sol\":4032:4048  _uniswapV2Router */\n  dup2\n    /* \"contracts/WallyToken.sol\":4032:4062  _uniswapV2Router != address(0) */\n  0xffffffffffffffffffffffffffffffffffffffff\n  and\n  sub\n    /* \"contracts/WallyToken.sol\":4024:4096  require(_uniswapV2Router != address(0), \"Router cannot be zero address\") */\n  tag_13\n  jumpi\n  mload(0x40)\n  0x08c379a000000000000000000000000000000000000000000000000000000000\n  dup2\n  mstore\n  0x04\n  add\n  tag_14\n  swap1\n  tag_15\n  jump\t// in\ntag_14:\n  mload(0x40)\n  dup1\n  swap2\n  sub\n  swap1\n  revert\ntag_13:\n    /* \"contracts/WallyToken.sol\":4215:4248  _mint(msg.sender, INITIAL_SUPPLY) */\n  tag_16\n    /* \"contracts/WallyToken.sol\":4221:4231  msg.sender */\n  caller\n    /* \"contracts/WallyToken.sol\":1816:1839  20_000_000_000 * 10**18 */\n  0x409f9cbc7c4a04c220000000\n    /* \"contracts/WallyToken.sol\":4215:4220  _mint */\n  shl(0x20, tag_17)\n    /* \"contracts/WallyToken.sol\":4215:4248  _mint(msg.sender, INITIAL_SUPPLY) */\n  0x20\n  shr\n  jump\t// in\ntag_16:\n    /* \"contracts/WallyToken.sol\":4401:4436  _grantRole(ADMIN_ROLE, DAO_ADDRESS) */\n  tag_18\n    /* \"contracts/WallyToken.sol\":1563:1586  keccak256(\"ADMIN_ROLE\") */\n  0xa49807205ce4d355092ef5a8a18f56e8913cf4a201fbe287825b095693c21775\n    /* \"contracts/WallyToken.sol\":2036:2078  0x633ea8fe424CD65AD4D4826e6581273afd06B8Ef */\n  0x633ea8fe424cd65ad4d4826e6581273afd06b8ef\n    /* \"contracts/WallyToken.sol\":4401:4411  _grantRole */\n  shl(0x20, tag_19)\n    /* \"contracts/WallyToken.sol\":4401:4436  _grantRole(ADMIN_ROLE, DAO_ADDRESS) */\n  0x20\n  shr\n  jump\t// in\ntag_18:\n  pop\n    /* \"contracts/WallyToken.sol\":4536:4574  _setRoleAdmin(MINTER_ROLE, ADMIN_ROLE) */\n  tag_20\n    /* \"contracts/WallyToken.sol\":1630:1654  keccak256(\"MINTER_ROLE\") */\n  0x9f2df0fed2c77648de5860a4cc508cd0818c85b8b8a1ab4ceeef8d981c8956a6\n    /* \"contracts/WallyToken.sol\":1563:1586  keccak256(\"ADMIN_ROLE\") */\n  0xa49807205ce4d355092ef5a8a18f56e8913cf4a201fbe287825b095693c21775\n    /* \"contracts/WallyToken.sol\":4536:4549  _setRoleAdmin */\n  shl(0x20, tag_21)\n    /* \"contracts/WallyToken.sol\":4536:4574  _setRoleAdmin(MINTER_ROLE, ADMIN_ROLE) */\n  0x20\n  shr\n  jump\t// in\ntag_20:\n    /* \"contracts/WallyToken.sol\":4584:4622  _setRoleAdmin(BURNER_ROLE, ADMIN_ROLE) */\n  tag_22\n    /* \"contracts/WallyToken.sol\":1698:1722  keccak256(\"BURNER_ROLE\") */\n  0x3c11d16cbaffd01df69ce1c404f6340ee057498f5f00246190ea54220576a848\n    /* \"contracts/WallyToken.sol\":1563:1586  keccak256(\"ADMIN_ROLE\") */\n  0xa49807205ce4d355092ef5a8a18f56e8913cf4a201fbe287825b095693c21775\n    /* \"contracts/WallyToken.sol\":4584:4597  _setRoleAdmin */\n  shl(0x20, tag_21)\n    /* \"contracts/WallyToken.sol\":4584:4622  _setRoleAdmin(BURNER_ROLE, ADMIN_ROLE) */\n  0x20\n  shr\n  jump\t// in\ntag_22:\n    /* \"contracts/WallyToken.sol\":4931:4947  _uniswapV2Router */\n  dup1\n    /* \"contracts/WallyToken.sol\":4894:4909  uniswapV2Router */\n  0x07\n  0x00\n    /* \"contracts/WallyToken.sol\":4894:4948  uniswapV2Router = IUniswapV2Router02(_uniswapV2Router) */\n  0x0100\n  exp\n  dup2\n  sload\n  dup2\n  0xffffffffffffffffffffffffffffffffffffffff\n  mul\n  not\n  and\n  swap1\n  dup4\n  0xffffffffffffffffffffffffffffffffffffffff\n  and\n  mul\n  or\n  swap1\n  sstore\n  pop\n    /* \"contracts/WallyToken.sol\":4958:4973  address factory */\n  0x00\n    /* \"contracts/WallyToken.sol\":4976:4991  uniswapV2Router */\n  0x07\n  0x00\n  swap1\n  sload\n  swap1\n  0x0100\n  exp\n  swap1\n  div\n  0xffffffffffffffffffffffffffffffffffffffff\n  and\n    /* \"contracts/WallyToken.sol\":4976:4999  uniswapV2Router.factory */\n  0xffffffffffffffffffffffffffffffffffffffff\n  and\n  0xc45a0155\n    /* \"contracts/WallyToken.sol\":4976:5001  uniswapV2Router.factory() */\n  mload(0x40)\n  dup2\n  0xffffffff\n  and\n  0xe0\n  shl\n  dup2\n  mstore\n  0x04\n  add\n  0x20\n  mload(0x40)\n  dup1\n  dup4\n  sub\n  dup2\n  dup7\n  gas\n  staticcall\n  iszero\n  dup1\n  iszero\n  tag_24\n  jumpi\n  returndatacopy(0x00, 0x00, returndatasize)\n  revert(0x00, returndatasize)\ntag_24:\n  pop\n  pop\n  pop\n  pop\n  mload(0x40)\n  returndatasize\n  not(0x1f)\n  0x1f\n  dup3\n  add\n  and\n  dup3\n  add\n  dup1\n  0x40\n  mstore\n  pop\n  dup2\n  add\n  swap1\n  tag_25\n  swap2\n  swap1\n  tag_3\n  jump\t// in\ntag_25:\n    /* \"contracts/WallyToken.sol\":4958:5001  address factory = uniswapV2Router.factory() */\n  swap1\n  pop\n    /* \"contracts/WallyToken.sol\":5011:5023  address weth */\n  0x00\n    /* \"contracts/WallyToken.sol\":5026:5041  uniswapV2Router */\n  0x07\n  0x00\n  swap1\n  sload\n  swap1\n  0x0100\n  exp\n  swap1\n  div\n  0xffffffffffffffffffffffffffffffffffffffff\n  and\n    /* \"contracts/WallyToken.sol\":5026:5046  uniswapV2Router.WETH */\n  0xffffffffffffffffffffffffffffffffffffffff\n  and\n  0xad5c4648\n    /* \"contracts/WallyToken.sol\":5026:5048  uniswapV2Router.WETH() */\n  mload(0x40)\n  dup2\n  0xffffffff\n  and\n  0xe0\n  shl\n  dup2\n  mstore\n  0x04\n  add\n  0x20\n  mload(0x40)\n  dup1\n  dup4\n  sub\n  dup2\n  dup7\n  gas\n  staticcall\n  iszero\n  dup1\n  iszero\n  tag_27\n  jumpi\n  returndatacopy(0x00, 0x00, returndatasize)\n  revert(0x00, returndatasize)\ntag_27:\n  pop\n  pop\n  pop\n  pop\n  mload(0x40)\n  returndatasize\n  not(0x1f)\n  0x1f\n  dup3\n  add\n  and\n  dup3\n  add\n  dup1\n  0x40\n  mstore\n  pop\n  dup2\n  add\n  swap1\n  tag_28\n  swap2\n  swap1\n  tag_3\n  jump\t// in\ntag_28:\n    /* \"contracts/WallyToken.sol\":5011:5048  address weth = uniswapV2Router.WETH() */\n  swap1\n  pop\n    /* \"contracts/WallyToken.sol\":5093:5100  factory */\n  dup2\n    /* \"contracts/WallyToken.sol\":5075:5112  IUniswapV2Factory(factory).createPair */\n  0xffffffffffffffffffffffffffffffffffffffff\n  and\n  0xc9c65396\n    /* \"contracts/WallyToken.sol\":5121:5125  this */\n  address\n    /* \"contracts/WallyToken.sol\":5128:5132  weth */\n  dup4\n    /* \"contracts/WallyToken.sol\":5075:5133  IUniswapV2Factory(factory).createPair(address(this), weth) */\n  mload(0x40)\n  dup4\n  0xffffffff\n  and\n  0xe0\n  shl\n  dup2\n  mstore\n  0x04\n  add\n  tag_29\n  swap3\n  swap2\n  swap1\n  tag_30\n  jump\t// in\ntag_29:\n  0x20\n  mload(0x40)\n  dup1\n  dup4\n  sub\n  dup2\n  0x00\n  dup8\n  gas\n  call\n  iszero\n  dup1\n  iszero\n  tag_32\n  jumpi\n  returndatacopy(0x00, 0x00, returndatasize)\n  revert(0x00, returndatasize)\ntag_32:\n  pop\n  pop\n  pop\n  pop\n  mload(0x40)\n  returndatasize\n  not(0x1f)\n  0x1f\n  dup3\n  add\n  and\n  dup3\n  add\n  dup1\n  0x40\n  mstore\n  pop\n  dup2\n  add\n  swap1\n  tag_33\n  swap2\n  swap1\n  tag_3\n  jump\t// in\ntag_33:\n    /* \"contracts/WallyToken.sol\":5059:5072  uniswapV2Pair */\n  0x08\n  0x00\n    /* \"contracts/WallyToken.sol\":5059:5133  uniswapV2Pair = IUniswapV2Factory(factory).createPair(address(this), weth) */\n  0x0100\n  exp\n  dup2\n  sload\n  dup2\n  0xffffffffffffffffffffffffffffffffffffffff\n  mul\n  not\n  and\n  swap1\n  dup4\n  0xffffffffffffffffffffffffffffffffffffffff\n  and\n  mul\n  or\n  swap1\n  sstore\n  pop\n    /* \"contracts/WallyToken.sol\":5263:5264  0 */\n  0x00\n    /* \"contracts/WallyToken.sol\":5249:5260  maxTxAmount */\n  0x0a\n    /* \"contracts/WallyToken.sol\":5249:5264  maxTxAmount = 0 */\n  dup2\n  swap1\n  sstore\n  pop\n    /* \"contracts/WallyToken.sol\":4014:5298  {... */\n  pop\n  pop\n    /* \"contracts/WallyToken.sol\":3948:5298  constructor(address _uniswapV2Router) ERC20(\"Wally Token\", \"TWG\") {... */\n  pop\n    /* \"contracts/WallyToken.sol\":1423:11955  contract WallyToken is ERC20, AccessControl, ReentrancyGuard {... */\n  jump(tag_34)\n    /* \"@openzeppelin/contracts/token/ERC20/ERC20.sol\":7458:7666  function _mint(address account, uint256 value) internal {... */\ntag_17:\n    /* \"@openzeppelin/contracts/token/ERC20/ERC20.sol\":7547:7548  0 */\n  0x00\n    /* \"@openzeppelin/contracts/token/ERC20/ERC20.sol\":7528:7549  account == address(0) */\n  0xffffffffffffffffffffffffffffffffffffffff\n  and\n    /* \"@openzeppelin/contracts/token/ERC20/ERC20.sol\":7528:7535  account */\n  dup3\n    /* \"@openzeppelin/contracts/token/ERC20/ERC20.sol\":7528:7549  account == address(0) */\n  0xffffffffffffffffffffffffffffffffffffffff\n  and\n  sub\n    /* \"@openzeppelin/contracts/token/ERC20/ERC20.sol\":7524:7615  if (account == address(0)) {... */\n  tag_36\n  jumpi\n    /* \"@openzeppelin/contracts/token/ERC20/ERC20.sol\":7601:7602  0 */\n  0x00\n    /* \"@openzeppelin/contracts/token/ERC20/ERC20.sol\":7572:7604  ERC20InvalidReceiver(address(0)) */\n  mload(0x40)\n  0xec442f0500000000000000000000000000000000000000000000000000000000\n  dup2\n  mstore\n  0x04\n  add\n  tag_37\n  swap2\n  swap1\n  tag_38\n  jump\t// in\ntag_37:\n  mload(0x40)\n  dup1\n  swap2\n  sub\n  swap1\n  revert\n    /* \"@openzeppelin/contracts/token/ERC20/ERC20.sol\":7524:7615  if (account == address(0)) {... */\ntag_36:\n    /* \"@openzeppelin/contracts/token/ERC20/ERC20.sol\":7624:7659  _update(address(0), account, value) */\n  tag_39\n    /* \"@openzeppelin/contracts/token/ERC20/ERC20.sol\":7640:7641  0 */\n  0x00\n    /* \"@openzeppelin/contracts/token/ERC20/ERC20.sol\":7644:7651  account */\n  dup4\n    /* \"@openzeppelin/contracts/token/ERC20/ERC20.sol\":7653:7658  value */\n  dup4\n    /* \"@openzeppelin/contracts/token/ERC20/ERC20.sol\":7624:7631  _update */\n  shl(0x20, tag_40)\n    /* \"@openzeppelin/contracts/token/ERC20/ERC20.sol\":7624:7659  _update(address(0), account, value) */\n  0x20\n  shr\n  jump\t// in\ntag_39:\n    /* \"@openzeppelin/contracts/token/ERC20/ERC20.sol\":7458:7666  function _mint(address account, uint256 value) internal {... */\n  pop\n  pop\n  jump\t// out\n    /* \"@openzeppelin/contracts/access/AccessControl.sol\":6179:6495  function _grantRole(bytes32 role, address account) internal virtual returns (bool) {... */\ntag_19:\n    /* \"@openzeppelin/contracts/access/AccessControl.sol\":6256:6260  bool */\n  0x00\n    /* \"@openzeppelin/contracts/access/AccessControl.sol\":6277:6299  hasRole(role, account) */\n  tag_42\n    /* \"@openzeppelin/contracts/access/AccessControl.sol\":6285:6289  role */\n  dup4\n    /* \"@openzeppelin/contracts/access/AccessControl.sol\":6291:6298  account */\n  dup4\n    /* \"@openzeppelin/contracts/access/AccessControl.sol\":6277:6284  hasRole */\n  shl(0x20, tag_43)\n    /* \"@openzeppelin/contracts/access/AccessControl.sol\":6277:6299  hasRole(role, account) */\n  0x20\n  shr\n  jump\t// in\ntag_42:\n    /* \"@openzeppelin/contracts/access/AccessControl.sol\":6272:6489  if (!hasRole(role, account)) {... */\n  tag_44\n  jumpi\n    /* \"@openzeppelin/contracts/access/AccessControl.sol\":6347:6351  true */\n  0x01\n    /* \"@openzeppelin/contracts/access/AccessControl.sol\":6315:6321  _roles */\n  0x05\n    /* \"@openzeppelin/contracts/access/AccessControl.sol\":6315:6327  _roles[role] */\n  0x00\n    /* \"@openzeppelin/contracts/access/AccessControl.sol\":6322:6326  role */\n  dup6\n    /* \"@openzeppelin/contracts/access/AccessControl.sol\":6315:6327  _roles[role] */\n  dup2\n  mstore\n  0x20\n  add\n  swap1\n  dup2\n  mstore\n  0x20\n  add\n  0x00\n  keccak256\n    /* \"@openzeppelin/contracts/access/AccessControl.sol\":6315:6335  _roles[role].hasRole */\n  0x00\n  add\n    /* \"@openzeppelin/contracts/access/AccessControl.sol\":6315:6344  _roles[role].hasRole[account] */\n  0x00\n    /* \"@openzeppelin/contracts/access/AccessControl.sol\":6336:6343  account */\n  dup5\n    /* \"@openzeppelin/contracts/access/AccessControl.sol\":6315:6344  _roles[role].hasRole[account] */\n  0xffffffffffffffffffffffffffffffffffffffff\n  and\n  0xffffffffffffffffffffffffffffffffffffffff\n  and\n  dup2\n  mstore\n  0x20\n  add\n  swap1\n  dup2\n  mstore\n  0x20\n  add\n  0x00\n  keccak256\n  0x00\n    /* \"@openzeppelin/contracts/access/AccessControl.sol\":6315:6351  _roles[role].hasRole[account] = true */\n  0x0100\n  exp\n  dup2\n  sload\n  dup2\n  0xff\n  mul\n  not\n  and\n  swap1\n  dup4\n  iszero\n  iszero\n  mul\n  or\n  swap1\n  sstore\n  pop\n    /* \"@openzeppelin/contracts/access/AccessControl.sol\":6397:6409  _msgSender() */\n  tag_45\n    /* \"@openzeppelin/contracts/access/AccessControl.sol\":6397:6407  _msgSender */\n  shl(0x20, tag_46)\n    /* \"@openzeppelin/contracts/access/AccessControl.sol\":6397:6409  _msgSender() */\n  0x20\n  shr\n  jump\t// in\ntag_45:\n    /* \"@openzeppelin/contracts/access/AccessControl.sol\":6370:6410  RoleGranted(role, account, _msgSender()) */\n  0xffffffffffffffffffffffffffffffffffffffff\n  and\n    /* \"@openzeppelin/contracts/access/AccessControl.sol\":6388:6395  account */\n  dup3\n    /* \"@openzeppelin/contracts/access/AccessControl.sol\":6370:6410  RoleGranted(role, account, _msgSender()) */\n  0xffffffffffffffffffffffffffffffffffffffff\n  and\n    /* \"@openzeppelin/contracts/access/AccessControl.sol\":6382:6386  role */\n  dup5\n    /* \"@openzeppelin/contracts/access/AccessControl.sol\":6370:6410  RoleGranted(role, account, _msgSender()) */\n  0x2f8788117e7eff1d82e926ec794901d17c78024a50270940304540a733656f0d\n  mload(0x40)\n  mload(0x40)\n  dup1\n  swap2\n  sub\n  swap1\n  log4\n    /* \"@openzeppelin/contracts/access/AccessControl.sol\":6431:6435  true */\n  0x01\n    /* \"@openzeppelin/contracts/access/AccessControl.sol\":6424:6435  return true */\n  swap1\n  pop\n  jump(tag_41)\n    /* \"@openzeppelin/contracts/access/AccessControl.sol\":6272:6489  if (!hasRole(role, account)) {... */\ntag_44:\n    /* \"@openzeppelin/contracts/access/AccessControl.sol\":6473:6478  false */\n  0x00\n    /* \"@openzeppelin/contracts/access/AccessControl.sol\":6466:6478  return false */\n  swap1\n  pop\n    /* \"@openzeppelin/contracts/access/AccessControl.sol\":6179:6495  function _grantRole(bytes32 role, address account) internal virtual returns (bool) {... */\ntag_41:\n  swap3\n  swap2\n  pop\n  pop\n  jump\t// out\n    /* \"@openzeppelin/contracts/access/AccessControl.sol\":5698:5945  function _setRoleAdmin(bytes32 role, bytes32 adminRole) internal virtual {... */\ntag_21:\n    /* \"@openzeppelin/contracts/access/AccessControl.sol\":5781:5806  bytes32 previousAdminRole */\n  0x00\n    /* \"@openzeppelin/contracts/access/AccessControl.sol\":5809:5827  getRoleAdmin(role) */\n  tag_49\n    /* \"@openzeppelin/contracts/access/AccessControl.sol\":5822:5826  role */\n  dup4\n    /* \"@openzeppelin/contracts/access/AccessControl.sol\":5809:5821  getRoleAdmin */\n  shl(0x20, tag_50)\n    /* \"@openzeppelin/contracts/access/AccessControl.sol\":5809:5827  getRoleAdmin(role) */\n  0x20\n  shr\n  jump\t// in\ntag_49:\n    /* \"@openzeppelin/contracts/access/AccessControl.sol\":5781:5827  bytes32 previousAdminRole = getRoleAdmin(role) */\n  swap1\n  pop\n    /* \"@openzeppelin/contracts/access/AccessControl.sol\":5862:5871  adminRole */\n  dup2\n    /* \"@openzeppelin/contracts/access/AccessControl.sol\":5837:5843  _roles */\n  0x05\n    /* \"@openzeppelin/contracts/access/AccessControl.sol\":5837:5849  _roles[role] */\n  0x00\n    /* \"@openzeppelin/contracts/access/AccessControl.sol\":5844:5848  role */\n  dup6\n    /* \"@openzeppelin/contracts/access/AccessControl.sol\":5837:5849  _roles[role] */\n  dup2\n  mstore\n  0x20\n  add\n  swap1\n  dup2\n  mstore\n  0x20\n  add\n  0x00\n  keccak256\n    /* \"@openzeppelin/contracts/access/AccessControl.sol\":5837:5859  _roles[role].adminRole */\n  0x01\n  add\n    /* \"@openzeppelin/contracts/access/AccessControl.sol\":5837:5871  _roles[role].adminRole = adminRole */\n  dup2\n  swap1\n  sstore\n  pop\n    /* \"@openzeppelin/contracts/access/AccessControl.sol\":5928:5937  adminRole */\n  dup2\n    /* \"@openzeppelin/contracts/access/AccessControl.sol\":5909:5926  previousAdminRole */\n  dup2\n    /* \"@openzeppelin/contracts/access/AccessControl.sol\":5903:5907  role */\n  dup5\n    /* \"@openzeppelin/contracts/access/AccessControl.sol\":5886:5938  RoleAdminChanged(role, previousAdminRole, adminRole) */\n  0xbd79b86ffe0ab8e8776151514217cd7cacd52c909f66475c3af44e129f0b00ff\n  mload(0x40)\n  mload(0x40)\n  dup1\n  swap2\n  sub\n  swap1\n  log4\n    /* \"@openzeppelin/contracts/access/AccessControl.sol\":5771:5945  {... */\n  pop\n    /* \"@openzeppelin/contracts/access/AccessControl.sol\":5698:5945  function _setRoleAdmin(bytes32 role, bytes32 adminRole) internal virtual {... */\n  pop\n  pop\n  jump\t// out\n    /* \"@openzeppelin/contracts/token/ERC20/ERC20.sol\":6008:7115  function _update(address from, address to, uint256 value) internal virtual {... */\ntag_40:\n    /* \"@openzeppelin/contracts/token/ERC20/ERC20.sol\":6113:6114  0 */\n  0x00\n    /* \"@openzeppelin/contracts/token/ERC20/ERC20.sol\":6097:6115  from == address(0) */\n  0xffffffffffffffffffffffffffffffffffffffff\n  and\n    /* \"@openzeppelin/contracts/token/ERC20/ERC20.sol\":6097:6101  from */\n  dup4\n    /* \"@openzeppelin/contracts/token/ERC20/ERC20.sol\":6097:6115  from == address(0) */\n  0xffffffffffffffffffffffffffffffffffffffff\n  and\n  sub\n    /* \"@openzeppelin/contracts/token/ERC20/ERC20.sol\":6093:6633  if (from == address(0)) {... */\n  tag_52\n  jumpi\n    /* \"@openzeppelin/contracts/token/ERC20/ERC20.sol\":6249:6254  value */\n  dup1\n    /* \"@openzeppelin/contracts/token/ERC20/ERC20.sol\":6233:6245  _totalSupply */\n  0x02\n  0x00\n    /* \"@openzeppelin/contracts/token/ERC20/ERC20.sol\":6233:6254  _totalSupply += value */\n  dup3\n  dup3\n  sload\n  tag_53\n  swap2\n  swap1\n  tag_54\n  jump\t// in\ntag_53:\n  swap3\n  pop\n  pop\n  dup2\n  swap1\n  sstore\n  pop\n    /* \"@openzeppelin/contracts/token/ERC20/ERC20.sol\":6093:6633  if (from == address(0)) {... */\n  jump(tag_55)\ntag_52:\n    /* \"@openzeppelin/contracts/token/ERC20/ERC20.sol\":6285:6304  uint256 fromBalance */\n  0x00\n    /* \"@openzeppelin/contracts/token/ERC20/ERC20.sol\":6307:6316  _balances */\n  0x00\n    /* \"@openzeppelin/contracts/token/ERC20/ERC20.sol\":6307:6322  _balances[from] */\n  0x00\n    /* \"@openzeppelin/contracts/token/ERC20/ERC20.sol\":6317:6321  from */\n  dup6\n    /* \"@openzeppelin/contracts/token/ERC20/ERC20.sol\":6307:6322  _balances[from] */\n  0xffffffffffffffffffffffffffffffffffffffff\n  and\n  0xffffffffffffffffffffffffffffffffffffffff\n  and\n  dup2\n  mstore\n  0x20\n  add\n  swap1\n  dup2\n  mstore\n  0x20\n  add\n  0x00\n  keccak256\n  sload\n    /* \"@openzeppelin/contracts/token/ERC20/ERC20.sol\":6285:6322  uint256 fromBalance = _balances[from] */\n  swap1\n  pop\n    /* \"@openzeppelin/contracts/token/ERC20/ERC20.sol\":6354:6359  value */\n  dup2\n    /* \"@openzeppelin/contracts/token/ERC20/ERC20.sol\":6340:6351  fromBalance */\n  dup2\n    /* \"@openzeppelin/contracts/token/ERC20/ERC20.sol\":6340:6359  fromBalance < value */\n  lt\n    /* \"@openzeppelin/contracts/token/ERC20/ERC20.sol\":6336:6451  if (fromBalance < value) {... */\n  iszero\n  tag_56\n  jumpi\n    /* \"@openzeppelin/contracts/token/ERC20/ERC20.sol\":6411:6415  from */\n  dup4\n    /* \"@openzeppelin/contracts/token/ERC20/ERC20.sol\":6417:6428  fromBalance */\n  dup2\n    /* \"@openzeppelin/contracts/token/ERC20/ERC20.sol\":6430:6435  value */\n  dup4\n    /* \"@openzeppelin/contracts/token/ERC20/ERC20.sol\":6386:6436  ERC20InsufficientBalance(from, fromBalance, value) */\n  mload(0x40)\n  0xe450d38c00000000000000000000000000000000000000000000000000000000\n  dup2\n  mstore\n  0x04\n  add\n  tag_57\n  swap4\n  swap3\n  swap2\n  swap1\n  tag_58\n  jump\t// in\ntag_57:\n  mload(0x40)\n  dup1\n  swap2\n  sub\n  swap1\n  revert\n    /* \"@openzeppelin/contracts/token/ERC20/ERC20.sol\":6336:6451  if (fromBalance < value) {... */\ntag_56:\n    /* \"@openzeppelin/contracts/token/ERC20/ERC20.sol\":6603:6608  value */\n  dup2\n    /* \"@openzeppelin/contracts/token/ERC20/ERC20.sol\":6589:6600  fromBalance */\n  dup2\n    /* \"@openzeppelin/contracts/token/ERC20/ERC20.sol\":6589:6608  fromBalance - value */\n  sub\n    /* \"@openzeppelin/contracts/token/ERC20/ERC20.sol\":6571:6580  _balances */\n  0x00\n    /* \"@openzeppelin/contracts/token/ERC20/ERC20.sol\":6571:6586  _balances[from] */\n  0x00\n    /* \"@openzeppelin/contracts/token/ERC20/ERC20.sol\":6581:6585  from */\n  dup7\n    /* \"@openzeppelin/contracts/token/ERC20/ERC20.sol\":6571:6586  _balances[from] */\n  0xffffffffffffffffffffffffffffffffffffffff\n  and\n  0xffffffffffffffffffffffffffffffffffffffff\n  and\n  dup2\n  mstore\n  0x20\n  add\n  swap1\n  dup2\n  mstore\n  0x20\n  add\n  0x00\n  keccak256\n    /* \"@openzeppelin/contracts/token/ERC20/ERC20.sol\":6571:6608  _balances[from] = fromBalance - value */\n  dup2\n  swap1\n  sstore\n  pop\n    /* \"@openzeppelin/contracts/token/ERC20/ERC20.sol\":6271:6633  {... */\n  pop\n    /* \"@openzeppelin/contracts/token/ERC20/ERC20.sol\":6093:6633  if (from == address(0)) {... */\ntag_55:\n    /* \"@openzeppelin/contracts/token/ERC20/ERC20.sol\":6661:6662  0 */\n  0x00\n    /* \"@openzeppelin/contracts/token/ERC20/ERC20.sol\":6647:6663  to == address(0) */\n  0xffffffffffffffffffffffffffffffffffffffff\n  and\n    /* \"@openzeppelin/contracts/token/ERC20/ERC20.sol\":6647:6649  to */\n  dup3\n    /* \"@openzeppelin/contracts/token/ERC20/ERC20.sol\":6647:6663  to == address(0) */\n  0xffffffffffffffffffffffffffffffffffffffff\n  and\n  sub\n    /* \"@openzeppelin/contracts/token/ERC20/ERC20.sol\":6643:7068  if (to == address(0)) {... */\n  tag_59\n  jumpi\n    /* \"@openzeppelin/contracts/token/ERC20/ERC20.sol\":6826:6831  value */\n  dup1\n    /* \"@openzeppelin/contracts/token/ERC20/ERC20.sol\":6810:6822  _totalSupply */\n  0x02\n  0x00\n    /* \"@openzeppelin/contracts/token/ERC20/ERC20.sol\":6810:6831  _totalSupply -= value */\n  dup3\n  dup3\n  sload\n  sub\n  swap3\n  pop\n  pop\n  dup2\n  swap1\n  sstore\n  pop\n    /* \"@openzeppelin/contracts/token/ERC20/ERC20.sol\":6643:7068  if (to == address(0)) {... */\n  jump(tag_60)\ntag_59:\n    /* \"@openzeppelin/contracts/token/ERC20/ERC20.sol\":7038:7043  value */\n  dup1\n    /* \"@openzeppelin/contracts/token/ERC20/ERC20.sol\":7021:7030  _balances */\n  0x00\n    /* \"@openzeppelin/contracts/token/ERC20/ERC20.sol\":7021:7034  _balances[to] */\n  0x00\n    /* \"@openzeppelin/contracts/token/ERC20/ERC20.sol\":7031:7033  to */\n  dup5\n    /* \"@openzeppelin/contracts/token/ERC20/ERC20.sol\":7021:7034  _balances[to] */\n  0xffffffffffffffffffffffffffffffffffffffff\n  and\n  0xffffffffffffffffffffffffffffffffffffffff\n  and\n  dup2\n  mstore\n  0x20\n  add\n  swap1\n  dup2\n  mstore\n  0x20\n  add\n  0x00\n  keccak256\n  0x00\n    /* \"@openzeppelin/contracts/token/ERC20/ERC20.sol\":7021:7043  _balances[to] += value */\n  dup3\n  dup3\n  sload\n  add\n  swap3\n  pop\n  pop\n  dup2\n  swap1\n  sstore\n  pop\n    /* \"@openzeppelin/contracts/token/ERC20/ERC20.sol\":6643:7068  if (to == address(0)) {... */\ntag_60:\n    /* \"@openzeppelin/contracts/token/ERC20/ERC20.sol\":7098:7100  to */\n  dup2\n    /* \"@openzeppelin/contracts/token/ERC20/ERC20.sol\":7083:7108  Transfer(from, to, value) */\n  0xffffffffffffffffffffffffffffffffffffffff\n  and\n    /* \"@openzeppelin/contracts/token/ERC20/ERC20.sol\":7092:7096  from */\n  dup4\n    /* \"@openzeppelin/contracts/token/ERC20/ERC20.sol\":7083:7108  Transfer(from, to, value) */\n  0xffffffffffffffffffffffffffffffffffffffff\n  and\n  0xddf252ad1be2c89b69c2b068fc378daa952ba7f163c4a11628f55a4df523b3ef\n    /* \"@openzeppelin/contracts/token/ERC20/ERC20.sol\":7102:7107  value */\n  dup4\n    /* \"@openzeppelin/contracts/token/ERC20/ERC20.sol\":7083:7108  Transfer(from, to, value) */\n  mload(0x40)\n  tag_61\n  swap2\n  swap1\n  tag_62\n  jump\t// in\ntag_61:\n  mload(0x40)\n  dup1\n  swap2\n  sub\n  swap1\n  log3\n    /* \"@openzeppelin/contracts/token/ERC20/ERC20.sol\":6008:7115  function _update(address from, address to, uint256 value) internal virtual {... */\n  pop\n  pop\n  pop\n  jump\t// out\n    /* \"@openzeppelin/contracts/access/AccessControl.sol\":2854:2990  function hasRole(bytes32 role, address account) public view virtual returns (bool) {... */\ntag_43:\n    /* \"@openzeppelin/contracts/access/AccessControl.sol\":2931:2935  bool */\n  0x00\n    /* \"@openzeppelin/contracts/access/AccessControl.sol\":2954:2960  _roles */\n  0x05\n    /* \"@openzeppelin/contracts/access/AccessControl.sol\":2954:2966  _roles[role] */\n  0x00\n    /* \"@openzeppelin/contracts/access/AccessControl.sol\":2961:2965  role */\n  dup5\n    /* \"@openzeppelin/contracts/access/AccessControl.sol\":2954:2966  _roles[role] */\n  dup2\n  mstore\n  0x20\n  add\n  swap1\n  dup2\n  mstore\n  0x20\n  add\n  0x00\n  keccak256\n    /* \"@openzeppelin/contracts/access/AccessControl.sol\":2954:2974  _roles[role].hasRole */\n  0x00\n  add\n    /* \"@openzeppelin/contracts/access/AccessControl.sol\":2954:2983  _roles[role].hasRole[account] */\n  0x00\n    /* \"@openzeppelin/contracts/access/AccessControl.sol\":2975:2982  account */\n  dup4\n    /* \"@openzeppelin/contracts/access/AccessControl.sol\":2954:2983  _roles[role].hasRole[account] */\n  0xffffffffffffffffffffffffffffffffffffffff\n  and\n  0xffffffffffffffffffffffffffffffffffffffff\n  and\n  dup2\n  mstore\n  0x20\n  add\n  swap1\n  dup2\n  mstore\n  0x20\n  add\n  0x00\n  keccak256\n  0x00\n  swap1\n  sload\n  swap1\n  0x0100\n  exp\n  swap1\n  div\n  0xff\n  and\n    /* \"@openzeppelin/contracts/access/AccessControl.sol\":2947:2983  return _roles[role].hasRole[account] */\n  swap1\n  pop\n    /* \"@openzeppelin/contracts/access/AccessControl.sol\":2854:2990  function hasRole(bytes32 role, address account) public view virtual returns (bool) {... */\n  swap3\n  swap2\n  pop\n  pop\n  jump\t// out\n    /* \"@openzeppelin/contracts/utils/Context.sol\":656:752  function _msgSender() internal view virtual returns (address) {... */\ntag_46:\n    /* \"@openzeppelin/contracts/utils/Context.sol\":709:716  address */\n  0x00\n    /* \"@openzeppelin/contracts/utils/Context.sol\":735:745  msg.sender */\n  caller\n    /* \"@openzeppelin/contracts/utils/Context.sol\":728:745  return msg.sender */\n  swap1\n  pop\n    /* \"@openzeppelin/contracts/utils/Context.sol\":656:752  function _msgSender() internal view virtual returns (address) {... */\n  swap1\n  jump\t// out\n    /* \"@openzeppelin/contracts/access/AccessControl.sol\":3810:3930  function getRoleAdmin(bytes32 role) public view virtual returns (bytes32) {... */\ntag_50:\n    /* \"@openzeppelin/contracts/access/AccessControl.sol\":3875:3882  bytes32 */\n  0x00\n    /* \"@openzeppelin/contracts/access/AccessControl.sol\":3901:3907  _roles */\n  0x05\n    /* \"@openzeppelin/contracts/access/AccessControl.sol\":3901:3913  _roles[role] */\n  0x00\n    /* \"@openzeppelin/contracts/access/AccessControl.sol\":3908:3912  role */\n  dup4\n    /* \"@openzeppelin/contracts/access/AccessControl.sol\":3901:3913  _roles[role] */\n  dup2\n  mstore\n  0x20\n  add\n  swap1\n  dup2\n  mstore\n  0x20\n  add\n  0x00\n  keccak256\n    /* \"@openzeppelin/contracts/access/AccessControl.sol\":3901:3923  _roles[role].adminRole */\n  0x01\n  add\n  sload\n    /* \"@openzeppelin/contracts/access/AccessControl.sol\":3894:3923  return _roles[role].adminRole */\n  swap1\n  pop\n    /* \"@openzeppelin/contracts/access/AccessControl.sol\":3810:3930  function getRoleAdmin(bytes32 role) public view virtual returns (bytes32) {... */\n  swap2\n  swap1\n  pop\n  jump\t// out\n    /* \"#utility.yul\":88:205   */\ntag_67:\n    /* \"#utility.yul\":197:198   */\n  0x00\n    /* \"#utility.yul\":194:195   */\n  0x00\n    /* \"#utility.yul\":187:199   */\n  revert\n    /* \"#utility.yul\":334:460   */\ntag_69:\n    /* \"#utility.yul\":371:378   */\n  0x00\n    /* \"#utility.yul\":411:453   */\n  0xffffffffffffffffffffffffffffffffffffffff\n    /* \"#utility.yul\":404:409   */\n  dup3\n    /* \"#utility.yul\":400:454   */\n  and\n    /* \"#utility.yul\":389:454   */\n  swap1\n  pop\n    /* \"#utility.yul\":334:460   */\n  swap2\n  swap1\n  pop\n  jump\t// out\n    /* \"#utility.yul\":466:562   */\ntag_70:\n    /* \"#utility.yul\":503:510   */\n  0x00\n    /* \"#utility.yul\":532:556   */\n  tag_105\n    /* \"#utility.yul\":550:555   */\n  dup3\n    /* \"#utility.yul\":532:556   */\n  tag_69\n  jump\t// in\ntag_105:\n    /* \"#utility.yul\":521:556   */\n  swap1\n  pop\n    /* \"#utility.yul\":466:562   */\n  swap2\n  swap1\n  pop\n  jump\t// out\n    /* \"#utility.yul\":568:690   */\ntag_71:\n    /* \"#utility.yul\":641:665   */\n  tag_107\n    /* \"#utility.yul\":659:664   */\n  dup2\n    /* \"#utility.yul\":641:665   */\n  tag_70\n  jump\t// in\ntag_107:\n    /* \"#utility.yul\":634:639   */\n  dup2\n    /* \"#utility.yul\":631:666   */\n  eq\n    /* \"#utility.yul\":621:684   */\n  tag_108\n  jumpi\n    /* \"#utility.yul\":680:681   */\n  0x00\n    /* \"#utility.yul\":677:678   */\n  0x00\n    /* \"#utility.yul\":670:682   */\n  revert\n    /* \"#utility.yul\":621:684   */\ntag_108:\n    /* \"#utility.yul\":568:690   */\n  pop\n  jump\t// out\n    /* \"#utility.yul\":696:839   */\ntag_72:\n    /* \"#utility.yul\":753:758   */\n  0x00\n    /* \"#utility.yul\":784:790   */\n  dup2\n    /* \"#utility.yul\":778:791   */\n  mload\n    /* \"#utility.yul\":769:791   */\n  swap1\n  pop\n    /* \"#utility.yul\":800:833   */\n  tag_110\n    /* \"#utility.yul\":827:832   */\n  dup2\n    /* \"#utility.yul\":800:833   */\n  tag_71\n  jump\t// in\ntag_110:\n    /* \"#utility.yul\":696:839   */\n  swap3\n  swap2\n  pop\n  pop\n  jump\t// out\n    /* \"#utility.yul\":845:1196   */\ntag_3:\n    /* \"#utility.yul\":915:921   */\n  0x00\n    /* \"#utility.yul\":964:966   */\n  0x20\n    /* \"#utility.yul\":952:961   */\n  dup3\n    /* \"#utility.yul\":943:950   */\n  dup5\n    /* \"#utility.yul\":939:962   */\n  sub\n    /* \"#utility.yul\":935:967   */\n  slt\n    /* \"#utility.yul\":932:1051   */\n  iszero\n  tag_112\n  jumpi\n    /* \"#utility.yul\":970:1049   */\n  tag_113\n  tag_67\n  jump\t// in\ntag_113:\n    /* \"#utility.yul\":932:1051   */\ntag_112:\n    /* \"#utility.yul\":1090:1091   */\n  0x00\n    /* \"#utility.yul\":1115:1179   */\n  tag_114\n    /* \"#utility.yul\":1171:1178   */\n  dup5\n    /* \"#utility.yul\":1162:1168   */\n  dup3\n    /* \"#utility.yul\":1151:1160   */\n  dup6\n    /* \"#utility.yul\":1147:1169   */\n  add\n    /* \"#utility.yul\":1115:1179   */\n  tag_72\n  jump\t// in\ntag_114:\n    /* \"#utility.yul\":1105:1179   */\n  swap2\n  pop\n    /* \"#utility.yul\":1061:1189   */\n  pop\n    /* \"#utility.yul\":845:1196   */\n  swap3\n  swap2\n  pop\n  pop\n  jump\t// out\n    /* \"#utility.yul\":1202:1301   */\ntag_73:\n    /* \"#utility.yul\":1254:1260   */\n  0x00\n    /* \"#utility.yul\":1288:1293   */\n  dup2\n    /* \"#utility.yul\":1282:1294   */\n  mload\n    /* \"#utility.yul\":1272:1294   */\n  swap1\n  pop\n    /* \"#utility.yul\":1202:1301   */\n  swap2\n  swap1\n  pop\n  jump\t// out\n    /* \"#utility.yul\":1307:1487   */\ntag_74:\n    /* \"#utility.yul\":1355:1432   */\n  0x4e487b7100000000000000000000000000000000000000000000000000000000\n    /* \"#utility.yul\":1352:1353   */\n  0x00\n    /* \"#utility.yul\":1345:1433   */\n  mstore\n    /* \"#utility.yul\":1452:1456   */\n  0x41\n    /* \"#utility.yul\":1449:1450   */\n  0x04\n    /* \"#utility.yul\":1442:1457   */\n  mstore\n    /* \"#utility.yul\":1476:1480   */\n  0x24\n    /* \"#utility.yul\":1473:1474   */\n  0x00\n    /* \"#utility.yul\":1466:1481   */\n  revert\n    /* \"#utility.yul\":1493:1673   */\ntag_75:\n    /* \"#utility.yul\":1541:1618   */\n  0x4e487b7100000000000000000000000000000000000000000000000000000000\n    /* \"#utility.yul\":1538:1539   */\n  0x00\n    /* \"#utility.yul\":1531:1619   */\n  mstore\n    /* \"#utility.yul\":1638:1642   */\n  0x22\n    /* \"#utility.yul\":1635:1636   */\n  0x04\n    /* \"#utility.yul\":1628:1643   */\n  mstore\n    /* \"#utility.yul\":1662:1666   */\n  0x24\n    /* \"#utility.yul\":1659:1660   */\n  0x00\n    /* \"#utility.yul\":1652:1667   */\n  revert\n    /* \"#utility.yul\":1679:1999   */\ntag_76:\n    /* \"#utility.yul\":1723:1729   */\n  0x00\n    /* \"#utility.yul\":1760:1761   */\n  0x02\n    /* \"#utility.yul\":1754:1758   */\n  dup3\n    /* \"#utility.yul\":1750:1762   */\n  div\n    /* \"#utility.yul\":1740:1762   */\n  swap1\n  pop\n    /* \"#utility.yul\":1807:1808   */\n  0x01\n    /* \"#utility.yul\":1801:1805   */\n  dup3\n    /* \"#utility.yul\":1797:1809   */\n  and\n    /* \"#utility.yul\":1828:1846   */\n  dup1\n    /* \"#utility.yul\":1818:1899   */\n  tag_119\n  jumpi\n    /* \"#utility.yul\":1884:1888   */\n  0x7f\n    /* \"#utility.yul\":1876:1882   */\n  dup3\n    /* \"#utility.yul\":1872:1889   */\n  and\n    /* \"#utility.yul\":1862:1889   */\n  swap2\n  pop\n    /* \"#utility.yul\":1818:1899   */\ntag_119:\n    /* \"#utility.yul\":1946:1948   */\n  0x20\n    /* \"#utility.yul\":1938:1944   */\n  dup3\n    /* \"#utility.yul\":1935:1949   */\n  lt\n    /* \"#utility.yul\":1915:1933   */\n  dup2\n    /* \"#utility.yul\":1912:1950   */\n  sub\n    /* \"#utility.yul\":1909:1993   */\n  tag_120\n  jumpi\n    /* \"#utility.yul\":1965:1983   */\n  tag_121\n  tag_75\n  jump\t// in\ntag_121:\n    /* \"#utility.yul\":1909:1993   */\ntag_120:\n    /* \"#utility.yul\":1730:1999   */\n  pop\n    /* \"#utility.yul\":1679:1999   */\n  swap2\n  swap1\n  pop\n  jump\t// out\n    /* \"#utility.yul\":2005:2146   */\ntag_77:\n    /* \"#utility.yul\":2054:2058   */\n  0x00\n    /* \"#utility.yul\":2077:2080   */\n  dup2\n    /* \"#utility.yul\":2069:2080   */\n  swap1\n  pop\n    /* \"#utility.yul\":2100:2103   */\n  dup2\n    /* \"#utility.yul\":2097:2098   */\n  0x00\n    /* \"#utility.yul\":2090:2104   */\n  mstore\n    /* \"#utility.yul\":2134:2138   */\n  0x20\n    /* \"#utility.yul\":2131:2132   */\n  0x00\n    /* \"#utility.yul\":2121:2139   */\n  keccak256\n    /* \"#utility.yul\":2113:2139   */\n  swap1\n  pop\n    /* \"#utility.yul\":2005:2146   */\n  swap2\n  swap1\n  pop\n  jump\t// out\n    /* \"#utility.yul\":2152:2245   */\ntag_78:\n    /* \"#utility.yul\":2189:2195   */\n  0x00\n    /* \"#utility.yul\":2236:2238   */\n  0x20\n    /* \"#utility.yul\":2231:2233   */\n  0x1f\n    /* \"#utility.yul\":2224:2229   */\n  dup4\n    /* \"#utility.yul\":2220:2234   */\n  add\n    /* \"#utility.yul\":2216:2239   */\n  div\n    /* \"#utility.yul\":2206:2239   */\n  swap1\n  pop\n    /* \"#utility.yul\":2152:2245   */\n  swap2\n  swap1\n  pop\n  jump\t// out\n    /* \"#utility.yul\":2251:2358   */\ntag_79:\n    /* \"#utility.yul\":2295:2303   */\n  0x00\n    /* \"#utility.yul\":2345:2350   */\n  dup3\n    /* \"#utility.yul\":2339:2343   */\n  dup3\n    /* \"#utility.yul\":2335:2351   */\n  shl\n    /* \"#utility.yul\":2314:2351   */\n  swap1\n  pop\n    /* \"#utility.yul\":2251:2358   */\n  swap3\n  swap2\n  pop\n  pop\n  jump\t// out\n    /* \"#utility.yul\":2364:2757   */\ntag_80:\n    /* \"#utility.yul\":2433:2439   */\n  0x00\n    /* \"#utility.yul\":2483:2484   */\n  0x08\n    /* \"#utility.yul\":2471:2481   */\n  dup4\n    /* \"#utility.yul\":2467:2485   */\n  mul\n    /* \"#utility.yul\":2506:2603   */\n  tag_126\n    /* \"#utility.yul\":2536:2602   */\n  0xffffffffffffffffffffffffffffffffffffffffffffffffffffffffffffffff\n    /* \"#utility.yul\":2525:2534   */\n  dup3\n    /* \"#utility.yul\":2506:2603   */\n  tag_79\n  jump\t// in\ntag_126:\n    /* \"#utility.yul\":2624:2663   */\n  tag_127\n    /* \"#utility.yul\":2654:2662   */\n  dup7\n    /* \"#utility.yul\":2643:2652   */\n  dup4\n    /* \"#utility.yul\":2624:2663   */\n  tag_79\n  jump\t// in\ntag_127:\n    /* \"#utility.yul\":2612:2663   */\n  swap6\n  pop\n    /* \"#utility.yul\":2696:2700   */\n  dup1\n    /* \"#utility.yul\":2692:2701   */\n  not\n    /* \"#utility.yul\":2685:2690   */\n  dup5\n    /* \"#utility.yul\":2681:2702   */\n  and\n    /* \"#utility.yul\":2672:2702   */\n  swap4\n  pop\n    /* \"#utility.yul\":2745:2749   */\n  dup1\n    /* \"#utility.yul\":2735:2743   */\n  dup7\n    /* \"#utility.yul\":2731:2750   */\n  and\n    /* \"#utility.yul\":2724:2729   */\n  dup5\n    /* \"#utility.yul\":2721:2751   */\n  or\n    /* \"#utility.yul\":2711:2751   */\n  swap3\n  pop\n    /* \"#utility.yul\":2440:2757   */\n  pop\n  pop\n    /* \"#utility.yul\":2364:2757   */\n  swap4\n  swap3\n  pop\n  pop\n  pop\n  jump\t// out\n    /* \"#utility.yul\":2763:2840   */\ntag_81:\n    /* \"#utility.yul\":2800:2807   */\n  0x00\n    /* \"#utility.yul\":2829:2834   */\n  dup2\n    /* \"#utility.yul\":2818:2834   */\n  swap1\n  pop\n    /* \"#utility.yul\":2763:2840   */\n  swap2\n  swap1\n  pop\n  jump\t// out\n    /* \"#utility.yul\":2846:2906   */\ntag_82:\n    /* \"#utility.yul\":2874:2877   */\n  0x00\n    /* \"#utility.yul\":2895:2900   */\n  dup2\n    /* \"#utility.yul\":2888:2900   */\n  swap1\n  pop\n    /* \"#utility.yul\":2846:2906   */\n  swap2\n  swap1\n  pop\n  jump\t// out\n    /* \"#utility.yul\":2912:3054   */\ntag_83:\n    /* \"#utility.yul\":2962:2971   */\n  0x00\n    /* \"#utility.yul\":2995:3048   */\n  tag_131\n    /* \"#utility.yul\":3013:3047   */\n  tag_132\n    /* \"#utility.yul\":3022:3046   */\n  tag_133\n    /* \"#utility.yul\":3040:3045   */\n  dup5\n    /* \"#utility.yul\":3022:3046   */\n  tag_81\n  jump\t// in\ntag_133:\n    /* \"#utility.yul\":3013:3047   */\n  tag_82\n  jump\t// in\ntag_132:\n    /* \"#utility.yul\":2995:3048   */\n  tag_81\n  jump\t// in\ntag_131:\n    /* \"#utility.yul\":2982:3048   */\n  swap1\n  pop\n    /* \"#utility.yul\":2912:3054   */\n  swap2\n  swap1\n  pop\n  jump\t// out\n    /* \"#utility.yul\":3060:3135   */\ntag_84:\n    /* \"#utility.yul\":3103:3106   */\n  0x00\n    /* \"#utility.yul\":3124:3129   */\n  dup2\n    /* \"#utility.yul\":3117:3129   */\n  swap1\n  pop\n    /* \"#utility.yul\":3060:3135   */\n  swap2\n  swap1\n  pop\n  jump\t// out\n    /* \"#utility.yul\":3141:3410   */\ntag_85:\n    /* \"#utility.yul\":3251:3290   */\n  tag_136\n    /* \"#utility.yul\":3282:3289   */\n  dup4\n    /* \"#utility.yul\":3251:3290   */\n  tag_83\n  jump\t// in\ntag_136:\n    /* \"#utility.yul\":3312:3403   */\n  tag_137\n    /* \"#utility.yul\":3361:3402   */\n  tag_138\n    /* \"#utility.yul\":3385:3401   */\n  dup3\n    /* \"#utility.yul\":3361:3402   */\n  tag_84\n  jump\t// in\ntag_138:\n    /* \"#utility.yul\":3353:3359   */\n  dup5\n    /* \"#utility.yul\":3346:3350   */\n  dup5\n    /* \"#utility.yul\":3340:3351   */\n  sload\n    /* \"#utility.yul\":3312:3403   */\n  tag_80\n  jump\t// in\ntag_137:\n    /* \"#utility.yul\":3306:3310   */\n  dup3\n    /* \"#utility.yul\":3299:3404   */\n  sstore\n    /* \"#utility.yul\":3217:3410   */\n  pop\n    /* \"#utility.yul\":3141:3410   */\n  pop\n  pop\n  pop\n  jump\t// out\n    /* \"#utility.yul\":3416:3489   */\ntag_86:\n    /* \"#utility.yul\":3461:3464   */\n  0x00\n    /* \"#utility.yul\":3482:3483   */\n  0x00\n    /* \"#utility.yul\":3475:3483   */\n  swap1\n  pop\n    /* \"#utility.yul\":3416:3489   */\n  swap1\n  jump\t// out\n    /* \"#utility.yul\":3495:3684   */\ntag_87:\n    /* \"#utility.yul\":3572:3604   */\n  tag_141\n  tag_86\n  jump\t// in\ntag_141:\n    /* \"#utility.yul\":3613:3678   */\n  tag_142\n    /* \"#utility.yul\":3671:3677   */\n  dup2\n    /* \"#utility.yul\":3663:3669   */\n  dup5\n    /* \"#utility.yul\":3657:3661   */\n  dup5\n    /* \"#utility.yul\":3613:3678   */\n  tag_85\n  jump\t// in\ntag_142:\n    /* \"#utility.yul\":3548:3684   */\n  pop\n    /* \"#utility.yul\":3495:3684   */\n  pop\n  pop\n  jump\t// out\n    /* \"#utility.yul\":3690:3876   */\ntag_88:\n    /* \"#utility.yul\":3750:3870   */\ntag_144:\n    /* \"#utility.yul\":3767:3770   */\n  dup2\n    /* \"#utility.yul\":3760:3765   */\n  dup2\n    /* \"#utility.yul\":3757:3771   */\n  lt\n    /* \"#utility.yul\":3750:3870   */\n  iszero\n  tag_146\n  jumpi\n    /* \"#utility.yul\":3821:3860   */\n  tag_147\n    /* \"#utility.yul\":3858:3859   */\n  0x00\n    /* \"#utility.yul\":3851:3856   */\n  dup3\n    /* \"#utility.yul\":3821:3860   */\n  tag_87\n  jump\t// in\ntag_147:\n    /* \"#utility.yul\":3794:3795   */\n  0x01\n    /* \"#utility.yul\":3787:3792   */\n  dup2\n    /* \"#utility.yul\":3783:3796   */\n  add\n    /* \"#utility.yul\":3774:3796   */\n  swap1\n  pop\n    /* \"#utility.yul\":3750:3870   */\n  jump(tag_144)\ntag_146:\n    /* \"#utility.yul\":3690:3876   */\n  pop\n  pop\n  jump\t// out\n    /* \"#utility.yul\":3882:4425   */\ntag_89:\n    /* \"#utility.yul\":3983:3985   */\n  0x1f\n    /* \"#utility.yul\":3978:3981   */\n  dup3\n    /* \"#utility.yul\":3975:3986   */\n  gt\n    /* \"#utility.yul\":3972:4418   */\n  iszero\n  tag_149\n  jumpi\n    /* \"#utility.yul\":4017:4055   */\n  tag_150\n    /* \"#utility.yul\":4049:4054   */\n  dup2\n    /* \"#utility.yul\":4017:4055   */\n  tag_77\n  jump\t// in\ntag_150:\n    /* \"#utility.yul\":4101:4130   */\n  tag_151\n    /* \"#utility.yul\":4119:4129   */\n  dup5\n    /* \"#utility.yul\":4101:4130   */\n  tag_78\n  jump\t// in\ntag_151:\n    /* \"#utility.yul\":4091:4099   */\n  dup2\n    /* \"#utility.yul\":4087:4131   */\n  add\n    /* \"#utility.yul\":4284:4286   */\n  0x20\n    /* \"#utility.yul\":4272:4282   */\n  dup6\n    /* \"#utility.yul\":4269:4287   */\n  lt\n    /* \"#utility.yul\":4266:4315   */\n  iszero\n  tag_152\n  jumpi\n    /* \"#utility.yul\":4305:4313   */\n  dup2\n    /* \"#utility.yul\":4290:4313   */\n  swap1\n  pop\n    /* \"#utility.yul\":4266:4315   */\ntag_152:\n    /* \"#utility.yul\":4328:4408   */\n  tag_153\n    /* \"#utility.yul\":4384:4406   */\n  tag_154\n    /* \"#utility.yul\":4402:4405   */\n  dup6\n    /* \"#utility.yul\":4384:4406   */\n  tag_78\n  jump\t// in\ntag_154:\n    /* \"#utility.yul\":4374:4382   */\n  dup4\n    /* \"#utility.yul\":4370:4407   */\n  add\n    /* \"#utility.yul\":4357:4368   */\n  dup3\n    /* \"#utility.yul\":4328:4408   */\n  tag_88\n  jump\t// in\ntag_153:\n    /* \"#utility.yul\":3987:4418   */\n  pop\n  pop\n    /* \"#utility.yul\":3972:4418   */\ntag_149:\n    /* \"#utility.yul\":3882:4425   */\n  pop\n  pop\n  pop\n  jump\t// out\n    /* \"#utility.yul\":4431:4548   */\ntag_90:\n    /* \"#utility.yul\":4485:4493   */\n  0x00\n    /* \"#utility.yul\":4535:4540   */\n  dup3\n    /* \"#utility.yul\":4529:4533   */\n  dup3\n    /* \"#utility.yul\":4525:4541   */\n  shr\n    /* \"#utility.yul\":4504:4541   */\n  swap1\n  pop\n    /* \"#utility.yul\":4431:4548   */\n  swap3\n  swap2\n  pop\n  pop\n  jump\t// out\n    /* \"#utility.yul\":4554:4723   */\ntag_91:\n    /* \"#utility.yul\":4598:4604   */\n  0x00\n    /* \"#utility.yul\":4631:4682   */\n  tag_157\n    /* \"#utility.yul\":4679:4680   */\n  0x00\n    /* \"#utility.yul\":4675:4681   */\n  not\n    /* \"#utility.yul\":4667:4672   */\n  dup5\n    /* \"#utility.yul\":4664:4665   */\n  0x08\n    /* \"#utility.yul\":4660:4673   */\n  mul\n    /* \"#utility.yul\":4631:4682   */\n  tag_90\n  jump\t// in\ntag_157:\n    /* \"#utility.yul\":4627:4683   */\n  not\n    /* \"#utility.yul\":4712:4716   */\n  dup1\n    /* \"#utility.yul\":4706:4710   */\n  dup4\n    /* \"#utility.yul\":4702:4717   */\n  and\n    /* \"#utility.yul\":4692:4717   */\n  swap2\n  pop\n    /* \"#utility.yul\":4605:4723   */\n  pop\n    /* \"#utility.yul\":4554:4723   */\n  swap3\n  swap2\n  pop\n  pop\n  jump\t// out\n    /* \"#utility.yul\":4728:5023   */\ntag_92:\n    /* \"#utility.yul\":4804:4808   */\n  0x00\n    /* \"#utility.yul\":4950:4979   */\n  tag_159\n    /* \"#utility.yul\":4975:4978   */\n  dup4\n    /* \"#utility.yul\":4969:4973   */\n  dup4\n    /* \"#utility.yul\":4950:4979   */\n  tag_91\n  jump\t// in\ntag_159:\n    /* \"#utility.yul\":4942:4979   */\n  swap2\n  pop\n    /* \"#utility.yul\":5012:5015   */\n  dup3\n    /* \"#utility.yul\":5009:5010   */\n  0x02\n    /* \"#utility.yul\":5005:5016   */\n  mul\n    /* \"#utility.yul\":4999:5003   */\n  dup3\n    /* \"#utility.yul\":4996:5017   */\n  or\n    /* \"#utility.yul\":4988:5017   */\n  swap1\n  pop\n    /* \"#utility.yul\":4728:5023   */\n  swap3\n  swap2\n  pop\n  pop\n  jump\t// out\n    /* \"#utility.yul\":5028:6423   */\ntag_9:\n    /* \"#utility.yul\":5145:5182   */\n  tag_161\n    /* \"#utility.yul\":5178:5181   */\n  dup3\n    /* \"#utility.yul\":5145:5182   */\n  tag_73\n  jump\t// in\ntag_161:\n    /* \"#utility.yul\":5247:5265   */\n  0xffffffffffffffff\n    /* \"#utility.yul\":5239:5245   */\n  dup2\n    /* \"#utility.yul\":5236:5266   */\n  gt\n    /* \"#utility.yul\":5233:5289   */\n  iszero\n  tag_162\n  jumpi\n    /* \"#utility.yul\":5269:5287   */\n  tag_163\n  tag_74\n  jump\t// in\ntag_163:\n    /* \"#utility.yul\":5233:5289   */\ntag_162:\n    /* \"#utility.yul\":5313:5351   */\n  tag_164\n    /* \"#utility.yul\":5345:5349   */\n  dup3\n    /* \"#utility.yul\":5339:5350   */\n  sload\n    /* \"#utility.yul\":5313:5351   */\n  tag_76\n  jump\t// in\ntag_164:\n    /* \"#utility.yul\":5398:5465   */\n  tag_165\n    /* \"#utility.yul\":5458:5464   */\n  dup3\n    /* \"#utility.yul\":5450:5456   */\n  dup3\n    /* \"#utility.yul\":5444:5448   */\n  dup6\n    /* \"#utility.yul\":5398:5465   */\n  tag_89\n  jump\t// in\ntag_165:\n    /* \"#utility.yul\":5492:5493   */\n  0x00\n    /* \"#utility.yul\":5516:5520   */\n  0x20\n    /* \"#utility.yul\":5503:5520   */\n  swap1\n  pop\n    /* \"#utility.yul\":5548:5550   */\n  0x1f\n    /* \"#utility.yul\":5540:5546   */\n  dup4\n    /* \"#utility.yul\":5537:5551   */\n  gt\n    /* \"#utility.yul\":5565:5566   */\n  0x01\n    /* \"#utility.yul\":5560:6178   */\n  dup2\n  eq\n  tag_167\n  jumpi\n    /* \"#utility.yul\":6222:6223   */\n  0x00\n    /* \"#utility.yul\":6239:6245   */\n  dup5\n    /* \"#utility.yul\":6236:6313   */\n  iszero\n  tag_168\n  jumpi\n    /* \"#utility.yul\":6288:6297   */\n  dup3\n    /* \"#utility.yul\":6283:6286   */\n  dup8\n    /* \"#utility.yul\":6279:6298   */\n  add\n    /* \"#utility.yul\":6273:6299   */\n  mload\n    /* \"#utility.yul\":6264:6299   */\n  swap1\n  pop\n    /* \"#utility.yul\":6236:6313   */\ntag_168:\n    /* \"#utility.yul\":6339:6406   */\n  tag_169\n    /* \"#utility.yul\":6399:6405   */\n  dup6\n    /* \"#utility.yul\":6392:6397   */\n  dup3\n    /* \"#utility.yul\":6339:6406   */\n  tag_92\n  jump\t// in\ntag_169:\n    /* \"#utility.yul\":6333:6337   */\n  dup7\n    /* \"#utility.yul\":6326:6407   */\n  sstore\n    /* \"#utility.yul\":6195:6417   */\n  pop\n    /* \"#utility.yul\":5530:6417   */\n  jump(tag_166)\n    /* \"#utility.yul\":5560:6178   */\ntag_167:\n    /* \"#utility.yul\":5612:5616   */\n  0x1f\n    /* \"#utility.yul\":5608:5617   */\n  not\n    /* \"#utility.yul\":5600:5606   */\n  dup5\n    /* \"#utility.yul\":5596:5618   */\n  and\n    /* \"#utility.yul\":5646:5683   */\n  tag_170\n    /* \"#utility.yul\":5678:5682   */\n  dup7\n    /* \"#utility.yul\":5646:5683   */\n  tag_77\n  jump\t// in\ntag_170:\n    /* \"#utility.yul\":5705:5706   */\n  0x00\n    /* \"#utility.yul\":5719:5927   */\ntag_171:\n    /* \"#utility.yul\":5733:5740   */\n  dup3\n    /* \"#utility.yul\":5730:5731   */\n  dup2\n    /* \"#utility.yul\":5727:5741   */\n  lt\n    /* \"#utility.yul\":5719:5927   */\n  iszero\n  tag_173\n  jumpi\n    /* \"#utility.yul\":5812:5821   */\n  dup5\n    /* \"#utility.yul\":5807:5810   */\n  dup10\n    /* \"#utility.yul\":5803:5822   */\n  add\n    /* \"#utility.yul\":5797:5823   */\n  mload\n    /* \"#utility.yul\":5789:5795   */\n  dup3\n    /* \"#utility.yul\":5782:5824   */\n  sstore\n    /* \"#utility.yul\":5863:5864   */\n  0x01\n    /* \"#utility.yul\":5855:5861   */\n  dup3\n    /* \"#utility.yul\":5851:5865   */\n  add\n    /* \"#utility.yul\":5841:5865   */\n  swap2\n  pop\n    /* \"#utility.yul\":5910:5912   */\n  0x20\n    /* \"#utility.yul\":5899:5908   */\n  dup6\n    /* \"#utility.yul\":5895:5913   */\n  add\n    /* \"#utility.yul\":5882:5913   */\n  swap5\n  pop\n    /* \"#utility.yul\":5756:5760   */\n  0x20\n    /* \"#utility.yul\":5753:5754   */\n  dup2\n    /* \"#utility.yul\":5749:5761   */\n  add\n    /* \"#utility.yul\":5744:5761   */\n  swap1\n  pop\n    /* \"#utility.yul\":5719:5927   */\n  jump(tag_171)\ntag_173:\n    /* \"#utility.yul\":5955:5961   */\n  dup7\n    /* \"#utility.yul\":5946:5953   */\n  dup4\n    /* \"#utility.yul\":5943:5962   */\n  lt\n    /* \"#utility.yul\":5940:6119   */\n  iszero\n  tag_174\n  jumpi\n    /* \"#utility.yul\":6013:6022   */\n  dup5\n    /* \"#utility.yul\":6008:6011   */\n  dup10\n    /* \"#utility.yul\":6004:6023   */\n  add\n    /* \"#utility.yul\":5998:6024   */\n  mload\n    /* \"#utility.yul\":6056:6104   */\n  tag_175\n    /* \"#utility.yul\":6098:6102   */\n  0x1f\n    /* \"#utility.yul\":6090:6096   */\n  dup10\n    /* \"#utility.yul\":6086:6103   */\n  and\n    /* \"#utility.yul\":6075:6084   */\n  dup3\n    /* \"#utility.yul\":6056:6104   */\n  tag_91\n  jump\t// in\ntag_175:\n    /* \"#utility.yul\":6048:6054   */\n  dup4\n    /* \"#utility.yul\":6041:6105   */\n  sstore\n    /* \"#utility.yul\":5963:6119   */\n  pop\n    /* \"#utility.yul\":5940:6119   */\ntag_174:\n    /* \"#utility.yul\":6165:6166   */\n  0x01\n    /* \"#utility.yul\":6161:6162   */\n  0x02\n    /* \"#utility.yul\":6153:6159   */\n  dup9\n    /* \"#utility.yul\":6149:6163   */\n  mul\n    /* \"#utility.yul\":6145:6167   */\n  add\n    /* \"#utility.yul\":6139:6143   */\n  dup9\n    /* \"#utility.yul\":6132:6168   */\n  sstore\n    /* \"#utility.yul\":5567:6178   */\n  pop\n  pop\n  pop\n    /* \"#utility.yul\":5530:6417   */\ntag_166:\n  pop\n    /* \"#utility.yul\":5120:6423   */\n  pop\n  pop\n  pop\n    /* \"#utility.yul\":5028:6423   */\n  pop\n  pop\n  jump\t// out\n    /* \"#utility.yul\":6429:6598   */\ntag_93:\n    /* \"#utility.yul\":6513:6524   */\n  0x00\n    /* \"#utility.yul\":6547:6553   */\n  dup3\n    /* \"#utility.yul\":6542:6545   */\n  dup3\n    /* \"#utility.yul\":6535:6554   */\n  mstore\n    /* \"#utility.yul\":6587:6591   */\n  0x20\n    /* \"#utility.yul\":6582:6585   */\n  dup3\n    /* \"#utility.yul\":6578:6592   */\n  add\n    /* \"#utility.yul\":6563:6592   */\n  swap1\n  pop\n    /* \"#utility.yul\":6429:6598   */\n  swap3\n  swap2\n  pop\n  pop\n  jump\t// out\n    /* \"#utility.yul\":6604:6783   */\ntag_94:\n    /* \"#utility.yul\":6744:6775   */\n  0x526f757465722063616e6e6f74206265207a65726f2061646472657373000000\n    /* \"#utility.yul\":6740:6741   */\n  0x00\n    /* \"#utility.yul\":6732:6738   */\n  dup3\n    /* \"#utility.yul\":6728:6742   */\n  add\n    /* \"#utility.yul\":6721:6776   */\n  mstore\n    /* \"#utility.yul\":6604:6783   */\n  pop\n  jump\t// out\n    /* \"#utility.yul\":6789:7155   */\ntag_95:\n    /* \"#utility.yul\":6931:6934   */\n  0x00\n    /* \"#utility.yul\":6952:7019   */\n  tag_179\n    /* \"#utility.yul\":7016:7018   */\n  0x1d\n    /* \"#utility.yul\":7011:7014   */\n  dup4\n    /* \"#utility.yul\":6952:7019   */\n  tag_93\n  jump\t// in\ntag_179:\n    /* \"#utility.yul\":6945:7019   */\n  swap2\n  pop\n    /* \"#utility.yul\":7028:7121   */\n  tag_180\n    /* \"#utility.yul\":7117:7120   */\n  dup3\n    /* \"#utility.yul\":7028:7121   */\n  tag_94\n  jump\t// in\ntag_180:\n    /* \"#utility.yul\":7146:7148   */\n  0x20\n    /* \"#utility.yul\":7141:7144   */\n  dup3\n    /* \"#utility.yul\":7137:7149   */\n  add\n    /* \"#utility.yul\":7130:7149   */\n  swap1\n  pop\n    /* \"#utility.yul\":6789:7155   */\n  swap2\n  swap1\n  pop\n  jump\t// out\n    /* \"#utility.yul\":7161:7580   */\ntag_15:\n    /* \"#utility.yul\":7327:7331   */\n  0x00\n    /* \"#utility.yul\":7365:7367   */\n  0x20\n    /* \"#utility.yul\":7354:7363   */\n  dup3\n    /* \"#utility.yul\":7350:7368   */\n  add\n    /* \"#utility.yul\":7342:7368   */\n  swap1\n  pop\n    /* \"#utility.yul\":7414:7423   */\n  dup2\n    /* \"#utility.yul\":7408:7412   */\n  dup2\n    /* \"#utility.yul\":7404:7424   */\n  sub\n    /* \"#utility.yul\":7400:7401   */\n  0x00\n    /* \"#utility.yul\":7389:7398   */\n  dup4\n    /* \"#utility.yul\":7385:7402   */\n  add\n    /* \"#utility.yul\":7378:7425   */\n  mstore\n    /* \"#utility.yul\":7442:7573   */\n  tag_182\n    /* \"#utility.yul\":7568:7572   */\n  dup2\n    /* \"#utility.yul\":7442:7573   */\n  tag_95\n  jump\t// in\ntag_182:\n    /* \"#utility.yul\":7434:7573   */\n  swap1\n  pop\n    /* \"#utility.yul\":7161:7580   */\n  swap2\n  swap1\n  pop\n  jump\t// out\n    /* \"#utility.yul\":7586:7704   */\ntag_96:\n    /* \"#utility.yul\":7673:7697   */\n  tag_184\n    /* \"#utility.yul\":7691:7696   */\n  dup2\n    /* \"#utility.yul\":7673:7697   */\n  tag_70\n  jump\t// in\ntag_184:\n    /* \"#utility.yul\":7668:7671   */\n  dup3\n    /* \"#utility.yul\":7661:7698   */\n  mstore\n    /* \"#utility.yul\":7586:7704   */\n  pop\n  pop\n  jump\t// out\n    /* \"#utility.yul\":7710:8042   */\ntag_30:\n    /* \"#utility.yul\":7831:7835   */\n  0x00\n    /* \"#utility.yul\":7869:7871   */\n  0x40\n    /* \"#utility.yul\":7858:7867   */\n  dup3\n    /* \"#utility.yul\":7854:7872   */\n  add\n    /* \"#utility.yul\":7846:7872   */\n  swap1\n  pop\n    /* \"#utility.yul\":7882:7953   */\n  tag_186\n    /* \"#utility.yul\":7950:7951   */\n  0x00\n    /* \"#utility.yul\":7939:7948   */\n  dup4\n    /* \"#utility.yul\":7935:7952   */\n  add\n    /* \"#utility.yul\":7926:7932   */\n  dup6\n    /* \"#utility.yul\":7882:7953   */\n  tag_96\n  jump\t// in\ntag_186:\n    /* \"#utility.yul\":7963:8035   */\n  tag_187\n    /* \"#utility.yul\":8031:8033   */\n  0x20\n    /* \"#utility.yul\":8020:8029   */\n  dup4\n    /* \"#utility.yul\":8016:8034   */\n  add\n    /* \"#utility.yul\":8007:8013   */\n  dup5\n    /* \"#utility.yul\":7963:8035   */\n  tag_96\n  jump\t// in\ntag_187:\n    /* \"#utility.yul\":7710:8042   */\n  swap4\n  swap3\n  pop\n  pop\n  pop\n  jump\t// out\n    /* \"#utility.yul\":8048:8270   */\ntag_38:\n    /* \"#utility.yul\":8141:8145   */\n  0x00\n    /* \"#utility.yul\":8179:8181   */\n  0x20\n    /* \"#utility.yul\":8168:8177   */\n  dup3\n    /* \"#utility.yul\":8164:8182   */\n  add\n    /* \"#utility.yul\":8156:8182   */\n  swap1\n  pop\n    /* \"#utility.yul\":8192:8263   */\n  tag_189\n    /* \"#utility.yul\":8260:8261   */\n  0x00\n    /* \"#utility.yul\":8249:8258   */\n  dup4\n    /* \"#utility.yul\":8245:8262   */\n  add\n    /* \"#utility.yul\":8236:8242   */\n  dup5\n    /* \"#utility.yul\":8192:8263   */\n  tag_96\n  jump\t// in\ntag_189:\n    /* \"#utility.yul\":8048:8270   */\n  swap3\n  swap2\n  pop\n  pop\n  jump\t// out\n    /* \"#utility.yul\":8276:8456   */\ntag_97:\n    /* \"#utility.yul\":8324:8401   */\n  0x4e487b7100000000000000000000000000000000000000000000000000000000\n    /* \"#utility.yul\":8321:8322   */\n  0x00\n    /* \"#utility.yul\":8314:8402   */\n  mstore\n    /* \"#utility.yul\":8421:8425   */\n  0x11\n    /* \"#utility.yul\":8418:8419   */\n  0x04\n    /* \"#utility.yul\":8411:8426   */\n  mstore\n    /* \"#utility.yul\":8445:8449   */\n  0x24\n    /* \"#utility.yul\":8442:8443   */\n  0x00\n    /* \"#utility.yul\":8435:8450   */\n  revert\n    /* \"#utility.yul\":8462:8653   */\ntag_54:\n    /* \"#utility.yul\":8502:8505   */\n  0x00\n    /* \"#utility.yul\":8521:8541   */\n  tag_192\n    /* \"#utility.yul\":8539:8540   */\n  dup3\n    /* \"#utility.yul\":8521:8541   */\n  tag_81\n  jump\t// in\ntag_192:\n    /* \"#utility.yul\":8516:8541   */\n  swap2\n  pop\n    /* \"#utility.yul\":8555:8575   */\n  tag_193\n    /* \"#utility.yul\":8573:8574   */\n  dup4\n    /* \"#utility.yul\":8555:8575   */\n  tag_81\n  jump\t// in\ntag_193:\n    /* \"#utility.yul\":8550:8575   */\n  swap3\n  pop\n    /* \"#utility.yul\":8598:8599   */\n  dup3\n    /* \"#utility.yul\":8595:8596   */\n  dup3\n    /* \"#utility.yul\":8591:8600   */\n  add\n    /* \"#utility.yul\":8584:8600   */\n  swap1\n  pop\n    /* \"#utility.yul\":8619:8622   */\n  dup1\n    /* \"#utility.yul\":8616:8617   */\n  dup3\n    /* \"#utility.yul\":8613:8623   */\n  gt\n    /* \"#utility.yul\":8610:8646   */\n  iszero\n  tag_194\n  jumpi\n    /* \"#utility.yul\":8626:8644   */\n  tag_195\n  tag_97\n  jump\t// in\ntag_195:\n    /* \"#utility.yul\":8610:8646   */\ntag_194:\n    /* \"#utility.yul\":8462:8653   */\n  swap3\n  swap2\n  pop\n  pop\n  jump\t// out\n    /* \"#utility.yul\":8659:8777   */\ntag_98:\n    /* \"#utility.yul\":8746:8770   */\n  tag_197\n    /* \"#utility.yul\":8764:8769   */\n  dup2\n    /* \"#utility.yul\":8746:8770   */\n  tag_81\n  jump\t// in\ntag_197:\n    /* \"#utility.yul\":8741:8744   */\n  dup3\n    /* \"#utility.yul\":8734:8771   */\n  mstore\n    /* \"#utility.yul\":8659:8777   */\n  pop\n  pop\n  jump\t// out\n    /* \"#utility.yul\":8783:9225   */\ntag_58:\n    /* \"#utility.yul\":8932:8936   */\n  0x00\n    /* \"#utility.yul\":8970:8972   */\n  0x60\n    /* \"#utility.yul\":8959:8968   */\n  dup3\n    /* \"#utility.yul\":8955:8973   */\n  add\n    /* \"#utility.yul\":8947:8973   */\n  swap1\n  pop\n    /* \"#utility.yul\":8983:9054   */\n  tag_199\n    /* \"#utility.yul\":9051:9052   */\n  0x00\n    /* \"#utility.yul\":9040:9049   */\n  dup4\n    /* \"#utility.yul\":9036:9053   */\n  add\n    /* \"#utility.yul\":9027:9033   */\n  dup7\n    /* \"#utility.yul\":8983:9054   */\n  tag_96\n  jump\t// in\ntag_199:\n    /* \"#utility.yul\":9064:9136   */\n  tag_200\n    /* \"#utility.yul\":9132:9134   */\n  0x20\n    /* \"#utility.yul\":9121:9130   */\n  dup4\n    /* \"#utility.yul\":9117:9135   */\n  add\n    /* \"#utility.yul\":9108:9114   */\n  dup6\n    /* \"#utility.yul\":9064:9136   */\n  tag_98\n  jump\t// in\ntag_200:\n    /* \"#utility.yul\":9146:9218   */\n  tag_201\n    /* \"#utility.yul\":9214:9216   */\n  0x40\n    /* \"#utility.yul\":9203:9212   */\n  dup4\n    /* \"#utility.yul\":9199:9217   */\n  add\n    /* \"#utility.yul\":9190:9196   */\n  dup5\n    /* \"#utility.yul\":9146:9218   */\n  tag_98\n  jump\t// in\ntag_201:\n    /* \"#utility.yul\":8783:9225   */\n  swap5\n  swap4\n  pop\n  pop\n  pop\n  pop\n  jump\t// out\n    /* \"#utility.yul\":9231:9453   */\ntag_62:\n    /* \"#utility.yul\":9324:9328   */\n  0x00\n    /* \"#utility.yul\":9362:9364   */\n  0x20\n    /* \"#utility.yul\":9351:9360   */\n  dup3\n    /* \"#utility.yul\":9347:9365   */\n  add\n    /* \"#utility.yul\":9339:9365   */\n  swap1\n  pop\n    /* \"#utility.yul\":9375:9446   */\n  tag_203\n    /* \"#utility.yul\":9443:9444   */\n  0x00\n    /* \"#utility.yul\":9432:9441   */\n  dup4\n    /* \"#utility.yul\":9428:9445   */\n  add\n    /* \"#utility.yul\":9419:9425   */\n  dup5\n    /* \"#utility.yul\":9375:9446   */\n  tag_98\n  jump\t// in\ntag_203:\n    /* \"#utility.yul\":9231:9453   */\n  swap3\n  swap2\n  pop\n  pop\n  jump\t// out\n    /* \"contracts/WallyToken.sol\":1423:11955  contract WallyToken is ERC20, AccessControl, ReentrancyGuard {... */\ntag_34:\n  dataSize(sub_0)\n  dup1\n  dataOffset(sub_0)\n  0x00\n  codecopy\n  0x00\n  return\nstop\n\nsub_0: assembly {\n        /* \"contracts/WallyToken.sol\":1423:11955  contract WallyToken is ERC20, AccessControl, ReentrancyGuard {... */\n      mstore(0x40, 0x80)\n      jumpi(tag_1, lt(calldatasize, 0x04))\n      shr(0xe0, calldataload(0x00))\n      dup1\n      0x70a08231\n      gt\n      tag_45\n      jumpi\n      dup1\n      0xb319c6b7\n      gt\n      tag_46\n      jumpi\n      dup1\n      0xd547741f\n      gt\n      tag_47\n      jumpi\n      dup1\n      0xd547741f\n      eq\n      tag_39\n      jumpi\n      dup1\n      0xdd62ed3e\n      eq\n      tag_40\n      jumpi\n      dup1\n      0xec28438a\n      eq\n      tag_41\n      jumpi\n      dup1\n      0xf68ded66\n      eq\n      tag_42\n      jumpi\n      dup1\n      0xf6f1e306\n      eq\n      tag_43\n      jumpi\n      dup1\n      0xf9f92be4\n      eq\n      tag_44\n      jumpi\n      jump(tag_2)\n    tag_47:\n      dup1\n      0xb319c6b7\n      eq\n      tag_34\n      jumpi\n      dup1\n      0xb37fd190\n      eq\n      tag_35\n      jumpi\n      dup1\n      0xc2e5ec04\n      eq\n      tag_36\n      jumpi\n      dup1\n      0xd00efb2f\n      eq\n      tag_37\n      jumpi\n      dup1\n      0xd5391393\n      eq\n      tag_38\n      jumpi\n      jump(tag_2)\n    tag_46:\n      dup1\n      0x95d89b41\n      gt\n      tag_48\n      jumpi\n      dup1\n      0x95d89b41\n      eq\n      tag_29\n      jumpi\n      dup1\n      0x963472f9\n      eq\n      tag_30\n      jumpi\n      dup1\n      0xa217fddf\n      eq\n      tag_31\n      jumpi\n      dup1\n      0xa9059cbb\n      eq\n      tag_32\n      jumpi\n      dup1\n      0xa985ceef\n      eq\n      tag_33\n      jumpi\n      jump(tag_2)\n    tag_48:\n      dup1\n      0x70a08231\n      eq\n      tag_24\n      jumpi\n      dup1\n      0x75b238fc\n      eq\n      tag_25\n      jumpi\n      dup1\n      0x89900603\n      eq\n      tag_26\n      jumpi\n      dup1\n      0x8c0b5e22\n      eq\n      tag_27\n      jumpi\n      dup1\n      0x91d14854\n      eq\n      tag_28\n      jumpi\n      jump(tag_2)\n    tag_45:\n      dup1\n      0x2be29fa8\n      gt\n      tag_49\n      jumpi\n      dup1\n      0x40c10f19\n      gt\n      tag_50\n      jumpi\n      dup1\n      0x40c10f19\n      eq\n      tag_18\n      jumpi\n      dup1\n      0x42966c68\n      eq\n      tag_19\n      jumpi\n      dup1\n      0x4551bbe9\n      eq\n      tag_20\n      jumpi\n      dup1\n      0x48fca59d\n      eq\n      tag_21\n      jumpi\n      dup1\n      0x49bd5a5e\n      eq\n      tag_22\n      jumpi\n      dup1\n      0x4ada218b\n      eq\n      tag_23\n      jumpi\n      jump(tag_2)\n    tag_50:\n      dup1\n      0x2be29fa8\n      eq\n      tag_13\n      jumpi\n      dup1\n      0x2f2ff15d\n      eq\n      tag_14\n      jumpi\n      dup1\n      0x2ff2e9dc\n      eq\n      tag_15\n      jumpi\n      dup1\n      0x313ce567\n      eq\n      tag_16\n      jumpi\n      dup1\n      0x36568abe\n      eq\n      tag_17\n      jumpi\n      jump(tag_2)\n    tag_49:\n      dup1\n      0x1694505e\n      gt\n      tag_51\n      jumpi\n      dup1\n      0x1694505e\n      eq\n      tag_8\n      jumpi\n      dup1\n      0x18160ddd\n      eq\n      tag_9\n      jumpi\n      dup1\n      0x23b872dd\n      eq\n      tag_10\n      jumpi\n      dup1\n      0x248a9ca3\n      eq\n      tag_11\n      jumpi\n      dup1\n      0x282c51f3\n      eq\n      tag_12\n      jumpi\n      jump(tag_2)\n    tag_51:\n      dup1\n      0x01ffc9a7\n      eq\n      tag_3\n      jumpi\n      dup1\n      0x06fdde03\n      eq\n      tag_4\n      jumpi\n      dup1\n      0x095ea7b3\n      eq\n      tag_5\n      jumpi\n      dup1\n      0x099a04e5\n      eq\n      tag_6\n      jumpi\n      dup1\n      0x153b0d1e\n      eq\n      tag_7\n      jumpi\n      jump(tag_2)\n    tag_1:\n      jumpi(tag_2, calldatasize)\n      stop\n    tag_2:\n      revert(0x00, 0x00)\n        /* \"@openzeppelin/contracts/access/AccessControl.sol\":2565:2767  function supportsInterface(bytes4 interfaceId) public view virtual override returns (bool) {... */\n    tag_3:\n      callvalue\n      dup1\n      iszero\n      tag_54\n      jumpi\n      revert(0x00, 0x00)\n    tag_54:\n      pop\n      tag_55\n      0x04\n      dup1\n      calldatasize\n      sub\n      dup2\n      add\n      swap1\n      tag_56\n      swap2\n      swap1\n      tag_57\n      jump\t// in\n    tag_56:\n      tag_58\n      jump\t// in\n    tag_55:\n      mload(0x40)\n      tag_59\n      swap2\n      swap1\n      tag_60\n      jump\t// in\n    tag_59:\n      mload(0x40)\n      dup1\n      swap2\n      sub\n      swap1\n      return\n        /* \"@openzeppelin/contracts/token/ERC20/ERC20.sol\":1779:1868  function name() public view virtual returns (string memory) {... */\n    tag_4:\n      callvalue\n      dup1\n      iszero\n      tag_61\n      jumpi\n      revert(0x00, 0x00)\n    tag_61:\n      pop\n      tag_62\n      tag_63\n      jump\t// in\n    tag_62:\n      mload(0x40)\n      tag_64\n      swap2\n      swap1\n      tag_65\n      jump\t// in\n    tag_64:\n      mload(0x40)\n      dup1\n      swap2\n      sub\n      swap1\n      return\n        /* \"@openzeppelin/contracts/token/ERC20/ERC20.sol\":3998:4184  function approve(address spender, uint256 value) public virtual returns (bool) {... */\n    tag_5:\n      callvalue\n      dup1\n      iszero\n      tag_66\n      jumpi\n      revert(0x00, 0x00)\n    tag_66:\n      pop\n      tag_67\n      0x04\n      dup1\n      calldatasize\n      sub\n      dup2\n      add\n      swap1\n      tag_68\n      swap2\n      swap1\n      tag_69\n      jump\t// in\n    tag_68:\n      tag_70\n      jump\t// in\n    tag_67:\n      mload(0x40)\n      tag_71\n      swap2\n      swap1\n      tag_60\n      jump\t// in\n    tag_71:\n      mload(0x40)\n      dup1\n      swap2\n      sub\n      swap1\n      return\n        /* \"contracts/WallyToken.sol\":11633:11900  function rescueETH(address payable to, uint256 amount)... */\n    tag_6:\n      callvalue\n      dup1\n      iszero\n      tag_72\n      jumpi\n      revert(0x00, 0x00)\n    tag_72:\n      pop\n      tag_73\n      0x04\n      dup1\n      calldatasize\n      sub\n      dup2\n      add\n      swap1\n      tag_74\n      swap2\n      swap1\n      tag_75\n      jump\t// in\n    tag_74:\n      tag_76\n      jump\t// in\n    tag_73:\n      stop\n        /* \"contracts/WallyToken.sol\":7258:7468  function setBlacklist(address account, bool isBlacklisted)... */\n    tag_7:\n      callvalue\n      dup1\n      iszero\n      tag_77\n      jumpi\n      revert(0x00, 0x00)\n    tag_77:\n      pop\n      tag_78\n      0x04\n      dup1\n      calldatasize\n      sub\n      dup2\n      add\n      swap1\n      tag_79\n      swap2\n      swap1\n      tag_80\n      jump\t// in\n    tag_79:\n      tag_81\n      jump\t// in\n    tag_78:\n      stop\n        /* \"contracts/WallyToken.sol\":2135:2176  IUniswapV2Router02 public uniswapV2Router */\n    tag_8:\n      callvalue\n      dup1\n      iszero\n      tag_82\n      jumpi\n      revert(0x00, 0x00)\n    tag_82:\n      pop\n      tag_83\n      tag_84\n      jump\t// in\n    tag_83:\n      mload(0x40)\n      tag_85\n      swap2\n      swap1\n      tag_86\n      jump\t// in\n    tag_85:\n      mload(0x40)\n      dup1\n      swap2\n      sub\n      swap1\n      return\n        /* \"@openzeppelin/contracts/token/ERC20/ERC20.sol\":2849:2946  function totalSupply() public view virtual returns (uint256) {... */\n    tag_9:\n      callvalue\n      dup1\n      iszero\n      tag_87\n      jumpi\n      revert(0x00, 0x00)\n    tag_87:\n      pop\n      tag_88\n      tag_89\n      jump\t// in\n    tag_88:\n      mload(0x40)\n      tag_90\n      swap2\n      swap1\n      tag_91\n      jump\t// in\n    tag_90:\n      mload(0x40)\n      dup1\n      swap2\n      sub\n      swap1\n      return\n        /* \"@openzeppelin/contracts/token/ERC20/ERC20.sol\":4776:5020  function transferFrom(address from, address to, uint256 value) public virtual returns (bool) {... */\n    tag_10:\n      callvalue\n      dup1\n      iszero\n      tag_92\n      jumpi\n      revert(0x00, 0x00)\n    tag_92:\n      pop\n      tag_93\n      0x04\n      dup1\n      calldatasize\n      sub\n      dup2\n      add\n      swap1\n      tag_94\n      swap2\n      swap1\n      tag_95\n      jump\t// in\n    tag_94:\n      tag_96\n      jump\t// in\n    tag_93:\n      mload(0x40)\n      tag_97\n      swap2\n      swap1\n      tag_60\n      jump\t// in\n    tag_97:\n      mload(0x40)\n      dup1\n      swap2\n      sub\n      swap1\n      return\n        /* \"@openzeppelin/contracts/access/AccessControl.sol\":3810:3930  function getRoleAdmin(bytes32 role) public view virtual returns (bytes32) {... */\n    tag_11:\n      callvalue\n      dup1\n      iszero\n      tag_98\n      jumpi\n      revert(0x00, 0x00)\n    tag_98:\n      pop\n      tag_99\n      0x04\n      dup1\n      calldatasize\n      sub\n      dup2\n      add\n      swap1\n      tag_100\n      swap2\n      swap1\n      tag_101\n      jump\t// in\n    tag_100:\n      tag_102\n      jump\t// in\n    tag_99:\n      mload(0x40)\n      tag_103\n      swap2\n      swap1\n      tag_104\n      jump\t// in\n    tag_103:\n      mload(0x40)\n      dup1\n      swap2\n      sub\n      swap1\n      return\n        /* \"contracts/WallyToken.sol\":1660:1722  bytes32 public constant BURNER_ROLE = keccak256(\"BURNER_ROLE\") */\n    tag_12:\n      callvalue\n      dup1\n      iszero\n      tag_105\n      jumpi\n      revert(0x00, 0x00)\n    tag_105:\n      pop\n      tag_106\n      tag_107\n      jump\t// in\n    tag_106:\n      mload(0x40)\n      tag_108\n      swap2\n      swap1\n      tag_104\n      jump\t// in\n    tag_108:\n      mload(0x40)\n      dup1\n      swap2\n      sub\n      swap1\n      return\n        /* \"contracts/WallyToken.sol\":2654:2684  uint256 public snipeBlocks = 2 */\n    tag_13:\n      callvalue\n      dup1\n      iszero\n      tag_109\n      jumpi\n      revert(0x00, 0x00)\n    tag_109:\n      pop\n      tag_110\n      tag_111\n      jump\t// in\n    tag_110:\n      mload(0x40)\n      tag_112\n      swap2\n      swap1\n      tag_91\n      jump\t// in\n    tag_112:\n      mload(0x40)\n      dup1\n      swap2\n      sub\n      swap1\n      return\n        /* \"@openzeppelin/contracts/access/AccessControl.sol\":4226:4362  function grantRole(bytes32 role, address account) public virtual onlyRole(getRoleAdmin(role)) {... */\n    tag_14:\n      callvalue\n      dup1\n      iszero\n      tag_113\n      jumpi\n      revert(0x00, 0x00)\n    tag_113:\n      pop\n      tag_114\n      0x04\n      dup1\n      calldatasize\n      sub\n      dup2\n      add\n      swap1\n      tag_115\n      swap2\n      swap1\n      tag_116\n      jump\t// in\n    tag_115:\n      tag_117\n      jump\t// in\n    tag_114:\n      stop\n        /* \"contracts/WallyToken.sol\":1775:1839  uint256 public constant INITIAL_SUPPLY = 20_000_000_000 * 10**18 */\n    tag_15:\n      callvalue\n      dup1\n      iszero\n      tag_118\n      jumpi\n      revert(0x00, 0x00)\n    tag_118:\n      pop\n      tag_119\n      tag_120\n      jump\t// in\n    tag_119:\n      mload(0x40)\n      tag_121\n      swap2\n      swap1\n      tag_91\n      jump\t// in\n    tag_121:\n      mload(0x40)\n      dup1\n      swap2\n      sub\n      swap1\n      return\n        /* \"@openzeppelin/contracts/token/ERC20/ERC20.sol\":2707:2789  function decimals() public view virtual returns (uint8) {... */\n    tag_16:\n      callvalue\n      dup1\n      iszero\n      tag_122\n      jumpi\n      revert(0x00, 0x00)\n    tag_122:\n      pop\n      tag_123\n      tag_124\n      jump\t// in\n    tag_123:\n      mload(0x40)\n      tag_125\n      swap2\n      swap1\n      tag_126\n      jump\t// in\n    tag_125:\n      mload(0x40)\n      dup1\n      swap2\n      sub\n      swap1\n      return\n        /* \"@openzeppelin/contracts/access/AccessControl.sol\":5328:5573  function renounceRole(bytes32 role, address callerConfirmation) public virtual {... */\n    tag_17:\n      callvalue\n      dup1\n      iszero\n      tag_127\n      jumpi\n      revert(0x00, 0x00)\n    tag_127:\n      pop\n      tag_128\n      0x04\n      dup1\n      calldatasize\n      sub\n      dup2\n      add\n      swap1\n      tag_129\n      swap2\n      swap1\n      tag_116\n      jump\t// in\n    tag_129:\n      tag_130\n      jump\t// in\n    tag_128:\n      stop\n        /* \"contracts/WallyToken.sol\":5469:5576  function mint(address to, uint256 amount) external onlyRole(MINTER_ROLE) {... */\n    tag_18:\n      callvalue\n      dup1\n      iszero\n      tag_131\n      jumpi\n      revert(0x00, 0x00)\n    tag_131:\n      pop\n      tag_132\n      0x04\n      dup1\n      calldatasize\n      sub\n      dup2\n      add\n      swap1\n      tag_133\n      swap2\n      swap1\n      tag_69\n      jump\t// in\n    tag_133:\n      tag_134\n      jump\t// in\n    tag_132:\n      stop\n        /* \"contracts/WallyToken.sol\":5582:5687  function burn(uint256 amount) external onlyRole(BURNER_ROLE) {... */\n    tag_19:\n      callvalue\n      dup1\n      iszero\n      tag_135\n      jumpi\n      revert(0x00, 0x00)\n    tag_135:\n      pop\n      tag_136\n      0x04\n      dup1\n      calldatasize\n      sub\n      dup2\n      add\n      swap1\n      tag_137\n      swap2\n      swap1\n      tag_138\n      jump\t// in\n    tag_137:\n      tag_139\n      jump\t// in\n    tag_136:\n      stop\n        /* \"contracts/WallyToken.sol\":3063:3113  mapping(address => uint256) public lastTxTimestamp */\n    tag_20:\n      callvalue\n      dup1\n      iszero\n      tag_140\n      jumpi\n      revert(0x00, 0x00)\n    tag_140:\n      pop\n      tag_141\n      0x04\n      dup1\n      calldatasize\n      sub\n      dup2\n      add\n      swap1\n      tag_142\n      swap2\n      swap1\n      tag_143\n      jump\t// in\n    tag_142:\n      tag_144\n      jump\t// in\n    tag_141:\n      mload(0x40)\n      tag_145\n      swap2\n      swap1\n      tag_91\n      jump\t// in\n    tag_145:\n      mload(0x40)\n      dup1\n      swap2\n      sub\n      swap1\n      return\n        /* \"contracts/WallyToken.sol\":6850:7101  function setCooldownConfig(bool _enabled, uint256 _cooldownTime)... */\n    tag_21:\n      callvalue\n      dup1\n      iszero\n      tag_146\n      jumpi\n      revert(0x00, 0x00)\n    tag_146:\n      pop\n      tag_147\n      0x04\n      dup1\n      calldatasize\n      sub\n      dup2\n      add\n      swap1\n      tag_148\n      swap2\n      swap1\n      tag_149\n      jump\t// in\n    tag_148:\n      tag_150\n      jump\t// in\n    tag_147:\n      stop\n        /* \"contracts/WallyToken.sol\":2182:2210  address public uniswapV2Pair */\n    tag_22:\n      callvalue\n      dup1\n      iszero\n      tag_151\n      jumpi\n      revert(0x00, 0x00)\n    tag_151:\n      pop\n      tag_152\n      tag_153\n      jump\t// in\n    tag_152:\n      mload(0x40)\n      tag_154\n      swap2\n      swap1\n      tag_155\n      jump\t// in\n    tag_154:\n      mload(0x40)\n      dup1\n      swap2\n      sub\n      swap1\n      return\n        /* \"contracts/WallyToken.sol\":2267:2301  bool public tradingEnabled = false */\n    tag_23:\n      callvalue\n      dup1\n      iszero\n      tag_156\n      jumpi\n      revert(0x00, 0x00)\n    tag_156:\n      pop\n      tag_157\n      tag_158\n      jump\t// in\n    tag_157:\n      mload(0x40)\n      tag_159\n      swap2\n      swap1\n      tag_60\n      jump\t// in\n    tag_159:\n      mload(0x40)\n      dup1\n      swap2\n      sub\n      swap1\n      return\n        /* \"@openzeppelin/contracts/token/ERC20/ERC20.sol\":3004:3120  function balanceOf(address account) public view virtual returns (uint256) {... */\n    tag_24:\n      callvalue\n      dup1\n      iszero\n      tag_160\n      jumpi\n      revert(0x00, 0x00)\n    tag_160:\n      pop\n      tag_161\n      0x04\n      dup1\n      calldatasize\n      sub\n      dup2\n      add\n      swap1\n      tag_162\n      swap2\n      swap1\n      tag_143\n      jump\t// in\n    tag_162:\n      tag_163\n      jump\t// in\n    tag_161:\n      mload(0x40)\n      tag_164\n      swap2\n      swap1\n      tag_91\n      jump\t// in\n    tag_164:\n      mload(0x40)\n      dup1\n      swap2\n      sub\n      swap1\n      return\n        /* \"contracts/WallyToken.sol\":1525:1586  bytes32 public constant ADMIN_ROLE  = keccak256(\"ADMIN_ROLE\") */\n    tag_25:\n      callvalue\n      dup1\n      iszero\n      tag_165\n      jumpi\n      revert(0x00, 0x00)\n    tag_165:\n      pop\n      tag_166\n      tag_167\n      jump\t// in\n    tag_166:\n      mload(0x40)\n      tag_168\n      swap2\n      swap1\n      tag_104\n      jump\t// in\n    tag_168:\n      mload(0x40)\n      dup1\n      swap2\n      sub\n      swap1\n      return\n        /* \"contracts/WallyToken.sol\":6481:6746  function setSniperProtection(bool _enabled, uint256 _snipeBlocks)... */\n    tag_26:\n      callvalue\n      dup1\n      iszero\n      tag_169\n      jumpi\n      revert(0x00, 0x00)\n    tag_169:\n      pop\n      tag_170\n      0x04\n      dup1\n      calldatasize\n      sub\n      dup2\n      add\n      swap1\n      tag_171\n      swap2\n      swap1\n      tag_149\n      jump\t// in\n    tag_171:\n      tag_172\n      jump\t// in\n    tag_170:\n      stop\n        /* \"contracts/WallyToken.sol\":2448:2474  uint256 public maxTxAmount */\n    tag_27:\n      callvalue\n      dup1\n      iszero\n      tag_173\n      jumpi\n      revert(0x00, 0x00)\n    tag_173:\n      pop\n      tag_174\n      tag_175\n      jump\t// in\n    tag_174:\n      mload(0x40)\n      tag_176\n      swap2\n      swap1\n      tag_91\n      jump\t// in\n    tag_176:\n      mload(0x40)\n      dup1\n      swap2\n      sub\n      swap1\n      return\n        /* \"@openzeppelin/contracts/access/AccessControl.sol\":2854:2990  function hasRole(bytes32 role, address account) public view virtual returns (bool) {... */\n    tag_28:\n      callvalue\n      dup1\n      iszero\n      tag_177\n      jumpi\n      revert(0x00, 0x00)\n    tag_177:\n      pop\n      tag_178\n      0x04\n      dup1\n      calldatasize\n      sub\n      dup2\n      add\n      swap1\n      tag_179\n      swap2\n      swap1\n      tag_116\n      jump\t// in\n    tag_179:\n      tag_180\n      jump\t// in\n    tag_178:\n      mload(0x40)\n      tag_181\n      swap2\n      swap1\n      tag_60\n      jump\t// in\n    tag_181:\n      mload(0x40)\n      dup1\n      swap2\n      sub\n      swap1\n      return\n        /* \"@openzeppelin/contracts/token/ERC20/ERC20.sol\":1981:2074  function symbol() public view virtual returns (string memory) {... */\n    tag_29:\n      callvalue\n      dup1\n      iszero\n      tag_182\n      jumpi\n      revert(0x00, 0x00)\n    tag_182:\n      pop\n      tag_183\n      tag_184\n      jump\t// in\n    tag_183:\n      mload(0x40)\n      tag_185\n      swap2\n      swap1\n      tag_65\n      jump\t// in\n    tag_185:\n      mload(0x40)\n      dup1\n      swap2\n      sub\n      swap1\n      return\n        /* \"contracts/WallyToken.sol\":2572:2615  bool public sniperProtectionEnabled = false */\n    tag_30:\n      callvalue\n      dup1\n      iszero\n      tag_186\n      jumpi\n      revert(0x00, 0x00)\n    tag_186:\n      pop\n      tag_187\n      tag_188\n      jump\t// in\n    tag_187:\n      mload(0x40)\n      tag_189\n      swap2\n      swap1\n      tag_60\n      jump\t// in\n    tag_189:\n      mload(0x40)\n      dup1\n      swap2\n      sub\n      swap1\n      return\n        /* \"@openzeppelin/contracts/access/AccessControl.sol\":2187:2236  bytes32 public constant DEFAULT_ADMIN_ROLE = 0x00 */\n    tag_31:\n      callvalue\n      dup1\n      iszero\n      tag_190\n      jumpi\n      revert(0x00, 0x00)\n    tag_190:\n      pop\n      tag_191\n      tag_192\n      jump\t// in\n    tag_191:\n      mload(0x40)\n      tag_193\n      swap2\n      swap1\n      tag_104\n      jump\t// in\n    tag_193:\n      mload(0x40)\n      dup1\n      swap2\n      sub\n      swap1\n      return\n        /* \"@openzeppelin/contracts/token/ERC20/ERC20.sol\":3315:3493  function transfer(address to, uint256 value) public virtual returns (bool) {... */\n    tag_32:\n      callvalue\n      dup1\n      iszero\n      tag_194\n      jumpi\n      revert(0x00, 0x00)\n    tag_194:\n      pop\n      tag_195\n      0x04\n      dup1\n      calldatasize\n      sub\n      dup2\n      add\n      swap1\n      tag_196\n      swap2\n      swap1\n      tag_69\n      jump\t// in\n    tag_196:\n      tag_197\n      jump\t// in\n    tag_195:\n      mload(0x40)\n      tag_198\n      swap2\n      swap1\n      tag_60\n      jump\t// in\n    tag_198:\n      mload(0x40)\n      dup1\n      swap2\n      sub\n      swap1\n      return\n        /* \"contracts/WallyToken.sol\":2899:2934  bool public cooldownEnabled = false */\n    tag_33:\n      callvalue\n      dup1\n      iszero\n      tag_199\n      jumpi\n      revert(0x00, 0x00)\n    tag_199:\n      pop\n      tag_200\n      tag_201\n      jump\t// in\n    tag_200:\n      mload(0x40)\n      tag_202\n      swap2\n      swap1\n      tag_60\n      jump\t// in\n    tag_202:\n      mload(0x40)\n      dup1\n      swap2\n      sub\n      swap1\n      return\n        /* \"contracts/WallyToken.sol\":2993:3025  uint256 public cooldownTime = 30 */\n    tag_34:\n      callvalue\n      dup1\n      iszero\n      tag_203\n      jumpi\n      revert(0x00, 0x00)\n    tag_203:\n      pop\n      tag_204\n      tag_205\n      jump\t// in\n    tag_204:\n      mload(0x40)\n      tag_206\n      swap2\n      swap1\n      tag_91\n      jump\t// in\n    tag_206:\n      mload(0x40)\n      dup1\n      swap2\n      sub\n      swap1\n      return\n        /* \"contracts/WallyToken.sol\":11397:11627  function rescueTokens(address tokenAddress, uint256 amount, address to)... */\n    tag_35:\n      callvalue\n      dup1\n      iszero\n      tag_207\n      jumpi\n      revert(0x00, 0x00)\n    tag_207:\n      pop\n      tag_208\n      0x04\n      dup1\n      calldatasize\n      sub\n      dup2\n      add\n      swap1\n      tag_209\n      swap2\n      swap1\n      tag_210\n      jump\t// in\n    tag_209:\n      tag_211\n      jump\t// in\n    tag_208:\n      stop\n        /* \"contracts/WallyToken.sol\":6031:6377  function setTradingEnabled(bool _enabled) external onlyRole(ADMIN_ROLE) {... */\n    tag_36:\n      callvalue\n      dup1\n      iszero\n      tag_212\n      jumpi\n      revert(0x00, 0x00)\n    tag_212:\n      pop\n      tag_213\n      0x04\n      dup1\n      calldatasize\n      sub\n      dup2\n      add\n      swap1\n      tag_214\n      swap2\n      swap1\n      tag_215\n      jump\t// in\n    tag_214:\n      tag_216\n      jump\t// in\n    tag_213:\n      stop\n        /* \"contracts/WallyToken.sol\":2754:2780  uint256 public launchBlock */\n    tag_37:\n      callvalue\n      dup1\n      iszero\n      tag_217\n      jumpi\n      revert(0x00, 0x00)\n    tag_217:\n      pop\n      tag_218\n      tag_219\n      jump\t// in\n    tag_218:\n      mload(0x40)\n      tag_220\n      swap2\n      swap1\n      tag_91\n      jump\t// in\n    tag_220:\n      mload(0x40)\n      dup1\n      swap2\n      sub\n      swap1\n      return\n        /* \"contracts/WallyToken.sol\":1592:1654  bytes32 public constant MINTER_ROLE = keccak256(\"MINTER_ROLE\") */\n    tag_38:\n      callvalue\n      dup1\n      iszero\n      tag_221\n      jumpi\n      revert(0x00, 0x00)\n    tag_221:\n      pop\n      tag_222\n      tag_223\n      jump\t// in\n    tag_222:\n      mload(0x40)\n      tag_224\n      swap2\n      swap1\n      tag_104\n      jump\t// in\n    tag_224:\n      mload(0x40)\n      dup1\n      swap2\n      sub\n      swap1\n      return\n        /* \"@openzeppelin/contracts/access/AccessControl.sol\":4642:4780  function revokeRole(bytes32 role, address account) public virtual onlyRole(getRoleAdmin(role)) {... */\n    tag_39:\n      callvalue\n      dup1\n      iszero\n      tag_225\n      jumpi\n      revert(0x00, 0x00)\n    tag_225:\n      pop\n      tag_226\n      0x04\n      dup1\n      calldatasize\n      sub\n      dup2\n      add\n      swap1\n      tag_227\n      swap2\n      swap1\n      tag_116\n      jump\t// in\n    tag_227:\n      tag_228\n      jump\t// in\n    tag_226:\n      stop\n        /* \"@openzeppelin/contracts/token/ERC20/ERC20.sol\":3551:3691  function allowance(address owner, address spender) public view virtual returns (uint256) {... */\n    tag_40:\n      callvalue\n      dup1\n      iszero\n      tag_229\n      jumpi\n      revert(0x00, 0x00)\n    tag_229:\n      pop\n      tag_230\n      0x04\n      dup1\n      calldatasize\n      sub\n      dup2\n      add\n      swap1\n      tag_231\n      swap2\n      swap1\n      tag_232\n      jump\t// in\n    tag_231:\n      tag_233\n      jump\t// in\n    tag_230:\n      mload(0x40)\n      tag_234\n      swap2\n      swap1\n      tag_91\n      jump\t// in\n    tag_234:\n      mload(0x40)\n      dup1\n      swap2\n      sub\n      swap1\n      return\n        /* \"contracts/WallyToken.sol\":7474:7640  function setMaxTxAmount(uint256 _maxTxAmount) external onlyRole(ADMIN_ROLE) {... */\n    tag_41:\n      callvalue\n      dup1\n      iszero\n      tag_235\n      jumpi\n      revert(0x00, 0x00)\n    tag_235:\n      pop\n      tag_236\n      0x04\n      dup1\n      calldatasize\n      sub\n      dup2\n      add\n      swap1\n      tag_237\n      swap2\n      swap1\n      tag_138\n      jump\t// in\n    tag_237:\n      tag_238\n      jump\t// in\n    tag_236:\n      stop\n        /* \"contracts/WallyToken.sol\":1998:2078  address public constant DAO_ADDRESS = 0x633ea8fe424CD65AD4D4826e6581273afd06B8Ef */\n    tag_42:\n      callvalue\n      dup1\n      iszero\n      tag_239\n      jumpi\n      revert(0x00, 0x00)\n    tag_239:\n      pop\n      tag_240\n      tag_241\n      jump\t// in\n    tag_240:\n      mload(0x40)\n      tag_242\n      swap2\n      swap1\n      tag_155\n      jump\t// in\n    tag_242:\n      mload(0x40)\n      dup1\n      swap2\n      sub\n      swap1\n      return\n        /* \"contracts/WallyToken.sol\":7989:8747  function addLiquidityETH(... */\n    tag_43:\n      tag_243\n      0x04\n      dup1\n      calldatasize\n      sub\n      dup2\n      add\n      swap1\n      tag_244\n      swap2\n      swap1\n      tag_245\n      jump\t// in\n    tag_244:\n      tag_246\n      jump\t// in\n    tag_243:\n      mload(0x40)\n      tag_247\n      swap4\n      swap3\n      swap2\n      swap1\n      tag_248\n      jump\t// in\n    tag_247:\n      mload(0x40)\n      dup1\n      swap2\n      sub\n      swap1\n      return\n        /* \"contracts/WallyToken.sol\":2358:2399  mapping(address => bool) public blacklist */\n    tag_44:\n      callvalue\n      dup1\n      iszero\n      tag_249\n      jumpi\n      revert(0x00, 0x00)\n    tag_249:\n      pop\n      tag_250\n      0x04\n      dup1\n      calldatasize\n      sub\n      dup2\n      add\n      swap1\n      tag_251\n      swap2\n      swap1\n      tag_143\n      jump\t// in\n    tag_251:\n      tag_252\n      jump\t// in\n    tag_250:\n      mload(0x40)\n      tag_253\n      swap2\n      swap1\n      tag_60\n      jump\t// in\n    tag_253:\n      mload(0x40)\n      dup1\n      swap2\n      sub\n      swap1\n      return\n        /* \"@openzeppelin/contracts/access/AccessControl.sol\":2565:2767  function supportsInterface(bytes4 interfaceId) public view virtual override returns (bool) {... */\n    tag_58:\n        /* \"@openzeppelin/contracts/access/AccessControl.sol\":2650:2654  bool */\n      0x00\n        /* \"@openzeppelin/contracts/access/AccessControl.sol\":2688:2720  type(IAccessControl).interfaceId */\n      0x7965db0b00000000000000000000000000000000000000000000000000000000\n        /* \"@openzeppelin/contracts/access/AccessControl.sol\":2673:2720  interfaceId == type(IAccessControl).interfaceId */\n      not(0xffffffffffffffffffffffffffffffffffffffffffffffffffffffff)\n      and\n        /* \"@openzeppelin/contracts/access/AccessControl.sol\":2673:2684  interfaceId */\n      dup3\n        /* \"@openzeppelin/contracts/access/AccessControl.sol\":2673:2720  interfaceId == type(IAccessControl).interfaceId */\n      not(0xffffffffffffffffffffffffffffffffffffffffffffffffffffffff)\n      and\n      eq\n        /* \"@openzeppelin/contracts/access/AccessControl.sol\":2673:2760  interfaceId == type(IAccessControl).interfaceId || super.supportsInterface(interfaceId) */\n      dup1\n      tag_255\n      jumpi\n      pop\n        /* \"@openzeppelin/contracts/access/AccessControl.sol\":2724:2760  super.supportsInterface(interfaceId) */\n      tag_256\n        /* \"@openzeppelin/contracts/access/AccessControl.sol\":2748:2759  interfaceId */\n      dup3\n        /* \"@openzeppelin/contracts/access/AccessControl.sol\":2724:2747  super.supportsInterface */\n      tag_257\n        /* \"@openzeppelin/contracts/access/AccessControl.sol\":2724:2760  super.supportsInterface(interfaceId) */\n      jump\t// in\n    tag_256:\n        /* \"@openzeppelin/contracts/access/AccessControl.sol\":2673:2760  interfaceId == type(IAccessControl).interfaceId || super.supportsInterface(interfaceId) */\n    tag_255:\n        /* \"@openzeppelin/contracts/access/AccessControl.sol\":2666:2760  return interfaceId == type(IAccessControl).interfaceId || super.supportsInterface(interfaceId) */\n      swap1\n      pop\n        /* \"@openzeppelin/contracts/access/AccessControl.sol\":2565:2767  function supportsInterface(bytes4 interfaceId) public view virtual override returns (bool) {... */\n      swap2\n      swap1\n      pop\n      jump\t// out\n        /* \"@openzeppelin/contracts/token/ERC20/ERC20.sol\":1779:1868  function name() public view virtual returns (string memory) {... */\n    tag_63:\n        /* \"@openzeppelin/contracts/token/ERC20/ERC20.sol\":1824:1837  string memory */\n      0x60\n        /* \"@openzeppelin/contracts/token/ERC20/ERC20.sol\":1856:1861  _name */\n      0x03\n        /* \"@openzeppelin/contracts/token/ERC20/ERC20.sol\":1849:1861  return _name */\n      dup1\n      sload\n      tag_259\n      swap1\n      tag_260\n      jump\t// in\n    tag_259:\n      dup1\n      0x1f\n      add\n      0x20\n      dup1\n      swap2\n      div\n      mul\n      0x20\n      add\n      mload(0x40)\n      swap1\n      dup2\n      add\n      0x40\n      mstore\n      dup1\n      swap3\n      swap2\n      swap1\n      dup2\n      dup2\n      mstore\n      0x20\n      add\n      dup3\n      dup1\n      sload\n      tag_261\n      swap1\n      tag_260\n      jump\t// in\n    tag_261:\n      dup1\n      iszero\n      tag_262\n      jumpi\n      dup1\n      0x1f\n      lt\n      tag_263\n      jumpi\n      0x0100\n      dup1\n      dup4\n      sload\n      div\n      mul\n      dup4\n      mstore\n      swap2\n      0x20\n      add\n      swap2\n      jump(tag_262)\n    tag_263:\n      dup3\n      add\n      swap2\n      swap1\n      0x00\n      mstore\n      keccak256(0x00, 0x20)\n      swap1\n    tag_264:\n      dup2\n      sload\n      dup2\n      mstore\n      swap1\n      0x01\n      add\n      swap1\n      0x20\n      add\n      dup1\n      dup4\n      gt\n      tag_264\n      jumpi\n      dup3\n      swap1\n      sub\n      0x1f\n      and\n      dup3\n      add\n      swap2\n    tag_262:\n      pop\n      pop\n      pop\n      pop\n      pop\n      swap1\n      pop\n        /* \"@openzeppelin/contracts/token/ERC20/ERC20.sol\":1779:1868  function name() public view virtual returns (string memory) {... */\n      swap1\n      jump\t// out\n        /* \"@openzeppelin/contracts/token/ERC20/ERC20.sol\":3998:4184  function approve(address spender, uint256 value) public virtual returns (bool) {... */\n    tag_70:\n        /* \"@openzeppelin/contracts/token/ERC20/ERC20.sol\":4071:4075  bool */\n      0x00\n        /* \"@openzeppelin/contracts/token/ERC20/ERC20.sol\":4087:4100  address owner */\n      0x00\n        /* \"@openzeppelin/contracts/token/ERC20/ERC20.sol\":4103:4115  _msgSender() */\n      tag_266\n        /* \"@openzeppelin/contracts/token/ERC20/ERC20.sol\":4103:4113  _msgSender */\n      tag_267\n        /* \"@openzeppelin/contracts/token/ERC20/ERC20.sol\":4103:4115  _msgSender() */\n      jump\t// in\n    tag_266:\n        /* \"@openzeppelin/contracts/token/ERC20/ERC20.sol\":4087:4115  address owner = _msgSender() */\n      swap1\n      pop\n        /* \"@openzeppelin/contracts/token/ERC20/ERC20.sol\":4125:4156  _approve(owner, spender, value) */\n      tag_268\n        /* \"@openzeppelin/contracts/token/ERC20/ERC20.sol\":4134:4139  owner */\n      dup2\n        /* \"@openzeppelin/contracts/token/ERC20/ERC20.sol\":4141:4148  spender */\n      dup6\n        /* \"@openzeppelin/contracts/token/ERC20/ERC20.sol\":4150:4155  value */\n      dup6\n        /* \"@openzeppelin/contracts/token/ERC20/ERC20.sol\":4125:4133  _approve */\n      tag_269\n        /* \"@openzeppelin/contracts/token/ERC20/ERC20.sol\":4125:4156  _approve(owner, spender, value) */\n      jump\t// in\n    tag_268:\n        /* \"@openzeppelin/contracts/token/ERC20/ERC20.sol\":4173:4177  true */\n      0x01\n        /* \"@openzeppelin/contracts/token/ERC20/ERC20.sol\":4166:4177  return true */\n      swap2\n      pop\n      pop\n        /* \"@openzeppelin/contracts/token/ERC20/ERC20.sol\":3998:4184  function approve(address spender, uint256 value) public virtual returns (bool) {... */\n      swap3\n      swap2\n      pop\n      pop\n      jump\t// out\n        /* \"contracts/WallyToken.sol\":11633:11900  function rescueETH(address payable to, uint256 amount)... */\n    tag_76:\n        /* \"contracts/WallyToken.sol\":1563:1586  keccak256(\"ADMIN_ROLE\") */\n      0xa49807205ce4d355092ef5a8a18f56e8913cf4a201fbe287825b095693c21775\n        /* \"@openzeppelin/contracts/access/AccessControl.sol\":2464:2480  _checkRole(role) */\n      tag_271\n        /* \"@openzeppelin/contracts/access/AccessControl.sol\":2475:2479  role */\n      dup2\n        /* \"@openzeppelin/contracts/access/AccessControl.sol\":2464:2474  _checkRole */\n      tag_272\n        /* \"@openzeppelin/contracts/access/AccessControl.sol\":2464:2480  _checkRole(role) */\n      jump\t// in\n    tag_271:\n        /* \"contracts/WallyToken.sol\":11770:11771  0 */\n      0x00\n        /* \"contracts/WallyToken.sol\":11756:11772  to != address(0) */\n      0xffffffffffffffffffffffffffffffffffffffff\n      and\n        /* \"contracts/WallyToken.sol\":11756:11758  to */\n      dup4\n        /* \"contracts/WallyToken.sol\":11756:11772  to != address(0) */\n      0xffffffffffffffffffffffffffffffffffffffff\n      and\n      sub\n        /* \"contracts/WallyToken.sol\":11748:11789  require(to != address(0), \"Invalid 'to'\") */\n      tag_274\n      jumpi\n      mload(0x40)\n      0x08c379a000000000000000000000000000000000000000000000000000000000\n      dup2\n      mstore\n      0x04\n      add\n      tag_275\n      swap1\n      tag_276\n      jump\t// in\n    tag_275:\n      mload(0x40)\n      dup1\n      swap2\n      sub\n      swap1\n      revert\n    tag_274:\n        /* \"contracts/WallyToken.sol\":11800:11812  bool success */\n      0x00\n        /* \"contracts/WallyToken.sol\":11818:11820  to */\n      dup4\n        /* \"contracts/WallyToken.sol\":11818:11825  to.call */\n      0xffffffffffffffffffffffffffffffffffffffff\n      and\n        /* \"contracts/WallyToken.sol\":11833:11839  amount */\n      dup4\n        /* \"contracts/WallyToken.sol\":11818:11844  to.call{value: amount}(\"\") */\n      mload(0x40)\n      tag_277\n      swap1\n      tag_278\n      jump\t// in\n    tag_277:\n      0x00\n      mload(0x40)\n      dup1\n      dup4\n      sub\n      dup2\n      dup6\n      dup8\n      gas\n      call\n      swap3\n      pop\n      pop\n      pop\n      returndatasize\n      dup1\n      0x00\n      dup2\n      eq\n      tag_281\n      jumpi\n      mload(0x40)\n      swap2\n      pop\n      and(add(returndatasize, 0x3f), not(0x1f))\n      dup3\n      add\n      0x40\n      mstore\n      returndatasize\n      dup3\n      mstore\n      returndatasize\n      0x00\n      0x20\n      dup5\n      add\n      returndatacopy\n      jump(tag_280)\n    tag_281:\n      0x60\n      swap2\n      pop\n    tag_280:\n      pop\n        /* \"contracts/WallyToken.sol\":11799:11844  (bool success, ) = to.call{value: amount}(\"\") */\n      pop\n      swap1\n      pop\n        /* \"contracts/WallyToken.sol\":11862:11869  success */\n      dup1\n        /* \"contracts/WallyToken.sol\":11854:11893  require(success, \"ETH transfer failed\") */\n      tag_282\n      jumpi\n      mload(0x40)\n      0x08c379a000000000000000000000000000000000000000000000000000000000\n      dup2\n      mstore\n      0x04\n      add\n      tag_283\n      swap1\n      tag_284\n      jump\t// in\n    tag_283:\n      mload(0x40)\n      dup1\n      swap2\n      sub\n      swap1\n      revert\n    tag_282:\n        /* \"contracts/WallyToken.sol\":11738:11900  {... */\n      pop\n        /* \"contracts/WallyToken.sol\":11633:11900  function rescueETH(address payable to, uint256 amount)... */\n      pop\n      pop\n      pop\n      jump\t// out\n        /* \"contracts/WallyToken.sol\":7258:7468  function setBlacklist(address account, bool isBlacklisted)... */\n    tag_81:\n        /* \"contracts/WallyToken.sol\":1563:1586  keccak256(\"ADMIN_ROLE\") */\n      0xa49807205ce4d355092ef5a8a18f56e8913cf4a201fbe287825b095693c21775\n        /* \"@openzeppelin/contracts/access/AccessControl.sol\":2464:2480  _checkRole(role) */\n      tag_286\n        /* \"@openzeppelin/contracts/access/AccessControl.sol\":2475:2479  role */\n      dup2\n        /* \"@openzeppelin/contracts/access/AccessControl.sol\":2464:2474  _checkRole */\n      tag_272\n        /* \"@openzeppelin/contracts/access/AccessControl.sol\":2464:2480  _checkRole(role) */\n      jump\t// in\n    tag_286:\n        /* \"contracts/WallyToken.sol\":7398:7411  isBlacklisted */\n      dup2\n        /* \"contracts/WallyToken.sol\":7377:7386  blacklist */\n      0x09\n        /* \"contracts/WallyToken.sol\":7377:7395  blacklist[account] */\n      0x00\n        /* \"contracts/WallyToken.sol\":7387:7394  account */\n      dup6\n        /* \"contracts/WallyToken.sol\":7377:7395  blacklist[account] */\n      0xffffffffffffffffffffffffffffffffffffffff\n      and\n      0xffffffffffffffffffffffffffffffffffffffff\n      and\n      dup2\n      mstore\n      0x20\n      add\n      swap1\n      dup2\n      mstore\n      0x20\n      add\n      0x00\n      keccak256\n      0x00\n        /* \"contracts/WallyToken.sol\":7377:7411  blacklist[account] = isBlacklisted */\n      0x0100\n      exp\n      dup2\n      sload\n      dup2\n      0xff\n      mul\n      not\n      and\n      swap1\n      dup4\n      iszero\n      iszero\n      mul\n      or\n      swap1\n      sstore\n      pop\n        /* \"contracts/WallyToken.sol\":7438:7445  account */\n      dup3\n        /* \"contracts/WallyToken.sol\":7426:7461  Blacklisted(account, isBlacklisted) */\n      0xffffffffffffffffffffffffffffffffffffffff\n      and\n      0xcf3473b85df1594d47b6958f29a32bea0abff9dd68296f7bf33443646793cfd8\n        /* \"contracts/WallyToken.sol\":7447:7460  isBlacklisted */\n      dup4\n        /* \"contracts/WallyToken.sol\":7426:7461  Blacklisted(account, isBlacklisted) */\n      mload(0x40)\n      tag_288\n      swap2\n      swap1\n      tag_60\n      jump\t// in\n    tag_288:\n      mload(0x40)\n      dup1\n      swap2\n      sub\n      swap1\n      log2\n        /* \"contracts/WallyToken.sol\":7258:7468  function setBlacklist(address account, bool isBlacklisted)... */\n      pop\n      pop\n      pop\n      jump\t// out\n        /* \"contracts/WallyToken.sol\":2135:2176  IUniswapV2Router02 public uniswapV2Router */\n    tag_84:\n      0x07\n      0x00\n      swap1\n      sload\n      swap1\n      0x0100\n      exp\n      swap1\n      div\n      0xffffffffffffffffffffffffffffffffffffffff\n      and\n      dup2\n      jump\t// out\n        /* \"@openzeppelin/contracts/token/ERC20/ERC20.sol\":2849:2946  function totalSupply() public view virtual returns (uint256) {... */\n    tag_89:\n        /* \"@openzeppelin/contracts/token/ERC20/ERC20.sol\":2901:2908  uint256 */\n      0x00\n        /* \"@openzeppelin/contracts/token/ERC20/ERC20.sol\":2927:2939  _totalSupply */\n      sload(0x02)\n        /* \"@openzeppelin/contracts/token/ERC20/ERC20.sol\":2920:2939  return _totalSupply */\n      swap1\n      pop\n        /* \"@openzeppelin/contracts/token/ERC20/ERC20.sol\":2849:2946  function totalSupply() public view virtual returns (uint256) {... */\n      swap1\n      jump\t// out\n        /* \"@openzeppelin/contracts/token/ERC20/ERC20.sol\":4776:5020  function transferFrom(address from, address to, uint256 value) public virtual returns (bool) {... */\n    tag_96:\n        /* \"@openzeppelin/contracts/token/ERC20/ERC20.sol\":4863:4867  bool */\n      0x00\n        /* \"@openzeppelin/contracts/token/ERC20/ERC20.sol\":4879:4894  address spender */\n      0x00\n        /* \"@openzeppelin/contracts/token/ERC20/ERC20.sol\":4897:4909  _msgSender() */\n      tag_291\n        /* \"@openzeppelin/contracts/token/ERC20/ERC20.sol\":4897:4907  _msgSender */\n      tag_267\n        /* \"@openzeppelin/contracts/token/ERC20/ERC20.sol\":4897:4909  _msgSender() */\n      jump\t// in\n    tag_291:\n        /* \"@openzeppelin/contracts/token/ERC20/ERC20.sol\":4879:4909  address spender = _msgSender() */\n      swap1\n      pop\n        /* \"@openzeppelin/contracts/token/ERC20/ERC20.sol\":4919:4956  _spendAllowance(from, spender, value) */\n      tag_292\n        /* \"@openzeppelin/contracts/token/ERC20/ERC20.sol\":4935:4939  from */\n      dup6\n        /* \"@openzeppelin/contracts/token/ERC20/ERC20.sol\":4941:4948  spender */\n      dup3\n        /* \"@openzeppelin/contracts/token/ERC20/ERC20.sol\":4950:4955  value */\n      dup6\n        /* \"@openzeppelin/contracts/token/ERC20/ERC20.sol\":4919:4934  _spendAllowance */\n      tag_293\n        /* \"@openzeppelin/contracts/token/ERC20/ERC20.sol\":4919:4956  _spendAllowance(from, spender, value) */\n      jump\t// in\n    tag_292:\n        /* \"@openzeppelin/contracts/token/ERC20/ERC20.sol\":4966:4992  _transfer(from, to, value) */\n      tag_294\n        /* \"@openzeppelin/contracts/token/ERC20/ERC20.sol\":4976:4980  from */\n      dup6\n        /* \"@openzeppelin/contracts/token/ERC20/ERC20.sol\":4982:4984  to */\n      dup6\n        /* \"@openzeppelin/contracts/token/ERC20/ERC20.sol\":4986:4991  value */\n      dup6\n        /* \"@openzeppelin/contracts/token/ERC20/ERC20.sol\":4966:4975  _transfer */\n      tag_295\n        /* \"@openzeppelin/contracts/token/ERC20/ERC20.sol\":4966:4992  _transfer(from, to, value) */\n      jump\t// in\n    tag_294:\n        /* \"@openzeppelin/contracts/token/ERC20/ERC20.sol\":5009:5013  true */\n      0x01\n        /* \"@openzeppelin/contracts/token/ERC20/ERC20.sol\":5002:5013  return true */\n      swap2\n      pop\n      pop\n        /* \"@openzeppelin/contracts/token/ERC20/ERC20.sol\":4776:5020  function transferFrom(address from, address to, uint256 value) public virtual returns (bool) {... */\n      swap4\n      swap3\n      pop\n      pop\n      pop\n      jump\t// out\n        /* \"@openzeppelin/contracts/access/AccessControl.sol\":3810:3930  function getRoleAdmin(bytes32 role) public view virtual returns (bytes32) {... */\n    tag_102:\n        /* \"@openzeppelin/contracts/access/AccessControl.sol\":3875:3882  bytes32 */\n      0x00\n        /* \"@openzeppelin/contracts/access/AccessControl.sol\":3901:3907  _roles */\n      0x05\n        /* \"@openzeppelin/contracts/access/AccessControl.sol\":3901:3913  _roles[role] */\n      0x00\n        /* \"@openzeppelin/contracts/access/AccessControl.sol\":3908:3912  role */\n      dup4\n        /* \"@openzeppelin/contracts/access/AccessControl.sol\":3901:3913  _roles[role] */\n      dup2\n      mstore\n      0x20\n      add\n      swap1\n      dup2\n      mstore\n      0x20\n      add\n      0x00\n      keccak256\n        /* \"@openzeppelin/contracts/access/AccessControl.sol\":3901:3923  _roles[role].adminRole */\n      0x01\n      add\n      sload\n        /* \"@openzeppelin/contracts/access/AccessControl.sol\":3894:3923  return _roles[role].adminRole */\n      swap1\n      pop\n        /* \"@openzeppelin/contracts/access/AccessControl.sol\":3810:3930  function getRoleAdmin(bytes32 role) public view virtual returns (bytes32) {... */\n      swap2\n      swap1\n      pop\n      jump\t// out\n        /* \"contracts/WallyToken.sol\":1660:1722  bytes32 public constant BURNER_ROLE = keccak256(\"BURNER_ROLE\") */\n    tag_107:\n        /* \"contracts/WallyToken.sol\":1698:1722  keccak256(\"BURNER_ROLE\") */\n      0x3c11d16cbaffd01df69ce1c404f6340ee057498f5f00246190ea54220576a848\n        /* \"contracts/WallyToken.sol\":1660:1722  bytes32 public constant BURNER_ROLE = keccak256(\"BURNER_ROLE\") */\n      dup2\n      jump\t// out\n        /* \"contracts/WallyToken.sol\":2654:2684  uint256 public snipeBlocks = 2 */\n    tag_111:\n      sload(0x0c)\n      dup2\n      jump\t// out\n        /* \"@openzeppelin/contracts/access/AccessControl.sol\":4226:4362  function grantRole(bytes32 role, address account) public virtual onlyRole(getRoleAdmin(role)) {... */\n    tag_117:\n        /* \"@openzeppelin/contracts/access/AccessControl.sol\":4300:4318  getRoleAdmin(role) */\n      tag_297\n        /* \"@openzeppelin/contracts/access/AccessControl.sol\":4313:4317  role */\n      dup3\n        /* \"@openzeppelin/contracts/access/AccessControl.sol\":4300:4312  getRoleAdmin */\n      tag_102\n        /* \"@openzeppelin/contracts/access/AccessControl.sol\":4300:4318  getRoleAdmin(role) */\n      jump\t// in\n    tag_297:\n        /* \"@openzeppelin/contracts/access/AccessControl.sol\":2464:2480  _checkRole(role) */\n      tag_299\n        /* \"@openzeppelin/contracts/access/AccessControl.sol\":2475:2479  role */\n      dup2\n        /* \"@openzeppelin/contracts/access/AccessControl.sol\":2464:2474  _checkRole */\n      tag_272\n        /* \"@openzeppelin/contracts/access/AccessControl.sol\":2464:2480  _checkRole(role) */\n      jump\t// in\n    tag_299:\n        /* \"@openzeppelin/contracts/access/AccessControl.sol\":4330:4355  _grantRole(role, account) */\n      tag_301\n        /* \"@openzeppelin/contracts/access/AccessControl.sol\":4341:4345  role */\n      dup4\n        /* \"@openzeppelin/contracts/access/AccessControl.sol\":4347:4354  account */\n      dup4\n        /* \"@openzeppelin/contracts/access/AccessControl.sol\":4330:4340  _grantRole */\n      tag_302\n        /* \"@openzeppelin/contracts/access/AccessControl.sol\":4330:4355  _grantRole(role, account) */\n      jump\t// in\n    tag_301:\n      pop\n        /* \"@openzeppelin/contracts/access/AccessControl.sol\":4226:4362  function grantRole(bytes32 role, address account) public virtual onlyRole(getRoleAdmin(role)) {... */\n      pop\n      pop\n      pop\n      jump\t// out\n        /* \"contracts/WallyToken.sol\":1775:1839  uint256 public constant INITIAL_SUPPLY = 20_000_000_000 * 10**18 */\n    tag_120:\n        /* \"contracts/WallyToken.sol\":1816:1839  20_000_000_000 * 10**18 */\n      0x409f9cbc7c4a04c220000000\n        /* \"contracts/WallyToken.sol\":1775:1839  uint256 public constant INITIAL_SUPPLY = 20_000_000_000 * 10**18 */\n      dup2\n      jump\t// out\n        /* \"@openzeppelin/contracts/token/ERC20/ERC20.sol\":2707:2789  function decimals() public view virtual returns (uint8) {... */\n    tag_124:\n        /* \"@openzeppelin/contracts/token/ERC20/ERC20.sol\":2756:2761  uint8 */\n      0x00\n        /* \"@openzeppelin/contracts/token/ERC20/ERC20.sol\":2780:2782  18 */\n      0x12\n        /* \"@openzeppelin/contracts/token/ERC20/ERC20.sol\":2773:2782  return 18 */\n      swap1\n      pop\n        /* \"@openzeppelin/contracts/token/ERC20/ERC20.sol\":2707:2789  function decimals() public view virtual returns (uint8) {... */\n      swap1\n      jump\t// out\n        /* \"@openzeppelin/contracts/access/AccessControl.sol\":5328:5573  function renounceRole(bytes32 role, address callerConfirmation) public virtual {... */\n    tag_130:\n        /* \"@openzeppelin/contracts/access/AccessControl.sol\":5443:5455  _msgSender() */\n      tag_305\n        /* \"@openzeppelin/contracts/access/AccessControl.sol\":5443:5453  _msgSender */\n      tag_267\n        /* \"@openzeppelin/contracts/access/AccessControl.sol\":5443:5455  _msgSender() */\n      jump\t// in\n    tag_305:\n        /* \"@openzeppelin/contracts/access/AccessControl.sol\":5421:5455  callerConfirmation != _msgSender() */\n      0xffffffffffffffffffffffffffffffffffffffff\n      and\n        /* \"@openzeppelin/contracts/access/AccessControl.sol\":5421:5439  callerConfirmation */\n      dup2\n        /* \"@openzeppelin/contracts/access/AccessControl.sol\":5421:5455  callerConfirmation != _msgSender() */\n      0xffffffffffffffffffffffffffffffffffffffff\n      and\n      eq\n        /* \"@openzeppelin/contracts/access/AccessControl.sol\":5417:5519  if (callerConfirmation != _msgSender()) {... */\n      tag_306\n      jumpi\n        /* \"@openzeppelin/contracts/access/AccessControl.sol\":5478:5508  AccessControlBadConfirmation() */\n      mload(0x40)\n      0x6697b23200000000000000000000000000000000000000000000000000000000\n      dup2\n      mstore\n      0x04\n      add\n      mload(0x40)\n      dup1\n      swap2\n      sub\n      swap1\n      revert\n        /* \"@openzeppelin/contracts/access/AccessControl.sol\":5417:5519  if (callerConfirmation != _msgSender()) {... */\n    tag_306:\n        /* \"@openzeppelin/contracts/access/AccessControl.sol\":5529:5566  _revokeRole(role, callerConfirmation) */\n      tag_307\n        /* \"@openzeppelin/contracts/access/AccessControl.sol\":5541:5545  role */\n      dup3\n        /* \"@openzeppelin/contracts/access/AccessControl.sol\":5547:5565  callerConfirmation */\n      dup3\n        /* \"@openzeppelin/contracts/access/AccessControl.sol\":5529:5540  _revokeRole */\n      tag_308\n        /* \"@openzeppelin/contracts/access/AccessControl.sol\":5529:5566  _revokeRole(role, callerConfirmation) */\n      jump\t// in\n    tag_307:\n      pop\n        /* \"@openzeppelin/contracts/access/AccessControl.sol\":5328:5573  function renounceRole(bytes32 role, address callerConfirmation) public virtual {... */\n      pop\n      pop\n      jump\t// out\n        /* \"contracts/WallyToken.sol\":5469:5576  function mint(address to, uint256 amount) external onlyRole(MINTER_ROLE) {... */\n    tag_134:\n        /* \"contracts/WallyToken.sol\":1630:1654  keccak256(\"MINTER_ROLE\") */\n      0x9f2df0fed2c77648de5860a4cc508cd0818c85b8b8a1ab4ceeef8d981c8956a6\n        /* \"@openzeppelin/contracts/access/AccessControl.sol\":2464:2480  _checkRole(role) */\n      tag_310\n        /* \"@openzeppelin/contracts/access/AccessControl.sol\":2475:2479  role */\n      dup2\n        /* \"@openzeppelin/contracts/access/AccessControl.sol\":2464:2474  _checkRole */\n      tag_272\n        /* \"@openzeppelin/contracts/access/AccessControl.sol\":2464:2480  _checkRole(role) */\n      jump\t// in\n    tag_310:\n        /* \"contracts/WallyToken.sol\":5552:5569  _mint(to, amount) */\n      tag_312\n        /* \"contracts/WallyToken.sol\":5558:5560  to */\n      dup4\n        /* \"contracts/WallyToken.sol\":5562:5568  amount */\n      dup4\n        /* \"contracts/WallyToken.sol\":5552:5557  _mint */\n      tag_313\n        /* \"contracts/WallyToken.sol\":5552:5569  _mint(to, amount) */\n      jump\t// in\n    tag_312:\n        /* \"contracts/WallyToken.sol\":5469:5576  function mint(address to, uint256 amount) external onlyRole(MINTER_ROLE) {... */\n      pop\n      pop\n      pop\n      jump\t// out\n        /* \"contracts/WallyToken.sol\":5582:5687  function burn(uint256 amount) external onlyRole(BURNER_ROLE) {... */\n    tag_139:\n        /* \"contracts/WallyToken.sol\":1698:1722  keccak256(\"BURNER_ROLE\") */\n      0x3c11d16cbaffd01df69ce1c404f6340ee057498f5f00246190ea54220576a848\n        /* \"@openzeppelin/contracts/access/AccessControl.sol\":2464:2480  _checkRole(role) */\n      tag_315\n        /* \"@openzeppelin/contracts/access/AccessControl.sol\":2475:2479  role */\n      dup2\n        /* \"@openzeppelin/contracts/access/AccessControl.sol\":2464:2474  _checkRole */\n      tag_272\n        /* \"@openzeppelin/contracts/access/AccessControl.sol\":2464:2480  _checkRole(role) */\n      jump\t// in\n    tag_315:\n        /* \"contracts/WallyToken.sol\":5653:5680  _burn(_msgSender(), amount) */\n      tag_317\n        /* \"contracts/WallyToken.sol\":5659:5671  _msgSender() */\n      tag_318\n        /* \"contracts/WallyToken.sol\":5659:5669  _msgSender */\n      tag_267\n        /* \"contracts/WallyToken.sol\":5659:5671  _msgSender() */\n      jump\t// in\n    tag_318:\n        /* \"contracts/WallyToken.sol\":5673:5679  amount */\n      dup4\n        /* \"contracts/WallyToken.sol\":5653:5658  _burn */\n      tag_319\n        /* \"contracts/WallyToken.sol\":5653:5680  _burn(_msgSender(), amount) */\n      jump\t// in\n    tag_317:\n        /* \"contracts/WallyToken.sol\":5582:5687  function burn(uint256 amount) external onlyRole(BURNER_ROLE) {... */\n      pop\n      pop\n      jump\t// out\n        /* \"contracts/WallyToken.sol\":3063:3113  mapping(address => uint256) public lastTxTimestamp */\n    tag_144:\n      mstore(0x20, 0x10)\n      dup1\n      0x00\n      mstore\n      keccak256(0x00, 0x40)\n      0x00\n      swap2\n      pop\n      swap1\n      pop\n      sload\n      dup2\n      jump\t// out\n        /* \"contracts/WallyToken.sol\":6850:7101  function setCooldownConfig(bool _enabled, uint256 _cooldownTime)... */\n    tag_150:\n        /* \"contracts/WallyToken.sol\":1563:1586  keccak256(\"ADMIN_ROLE\") */\n      0xa49807205ce4d355092ef5a8a18f56e8913cf4a201fbe287825b095693c21775\n        /* \"@openzeppelin/contracts/access/AccessControl.sol\":2464:2480  _checkRole(role) */\n      tag_321\n        /* \"@openzeppelin/contracts/access/AccessControl.sol\":2475:2479  role */\n      dup2\n        /* \"@openzeppelin/contracts/access/AccessControl.sol\":2464:2474  _checkRole */\n      tag_272\n        /* \"@openzeppelin/contracts/access/AccessControl.sol\":2464:2480  _checkRole(role) */\n      jump\t// in\n    tag_321:\n        /* \"contracts/WallyToken.sol\":6993:7001  _enabled */\n      dup3\n        /* \"contracts/WallyToken.sol\":6975:6990  cooldownEnabled */\n      0x0e\n      0x00\n        /* \"contracts/WallyToken.sol\":6975:7001  cooldownEnabled = _enabled */\n      0x0100\n      exp\n      dup2\n      sload\n      dup2\n      0xff\n      mul\n      not\n      and\n      swap1\n      dup4\n      iszero\n      iszero\n      mul\n      or\n      swap1\n      sstore\n      pop\n        /* \"contracts/WallyToken.sol\":7026:7039  _cooldownTime */\n      dup2\n        /* \"contracts/WallyToken.sol\":7011:7023  cooldownTime */\n      0x0f\n        /* \"contracts/WallyToken.sol\":7011:7039  cooldownTime = _cooldownTime */\n      dup2\n      swap1\n      sstore\n      pop\n        /* \"contracts/WallyToken.sol\":7054:7094  CooldownUpdated(_enabled, _cooldownTime) */\n      0x3dd49c7bc5b4083d3ed5845bd08d8d308e600ce46a1bf5fed3466dba31ce9f0c\n        /* \"contracts/WallyToken.sol\":7070:7078  _enabled */\n      dup4\n        /* \"contracts/WallyToken.sol\":7080:7093  _cooldownTime */\n      dup4\n        /* \"contracts/WallyToken.sol\":7054:7094  CooldownUpdated(_enabled, _cooldownTime) */\n      mload(0x40)\n      tag_323\n      swap3\n      swap2\n      swap1\n      tag_324\n      jump\t// in\n    tag_323:\n      mload(0x40)\n      dup1\n      swap2\n      sub\n      swap1\n      log1\n        /* \"contracts/WallyToken.sol\":6850:7101  function setCooldownConfig(bool _enabled, uint256 _cooldownTime)... */\n      pop\n      pop\n      pop\n      jump\t// out\n        /* \"contracts/WallyToken.sol\":2182:2210  address public uniswapV2Pair */\n    tag_153:\n      0x08\n      0x00\n      swap1\n      sload\n      swap1\n      0x0100\n      exp\n      swap1\n      div\n      0xffffffffffffffffffffffffffffffffffffffff\n      and\n      dup2\n      jump\t// out\n        /* \"contracts/WallyToken.sol\":2267:2301  bool public tradingEnabled = false */\n    tag_158:\n      0x08\n      0x14\n      swap1\n      sload\n      swap1\n      0x0100\n      exp\n      swap1\n      div\n      0xff\n      and\n      dup2\n      jump\t// out\n        /* \"@openzeppelin/contracts/token/ERC20/ERC20.sol\":3004:3120  function balanceOf(address account) public view virtual returns (uint256) {... */\n    tag_163:\n        /* \"@openzeppelin/contracts/token/ERC20/ERC20.sol\":3069:3076  uint256 */\n      0x00\n        /* \"@openzeppelin/contracts/token/ERC20/ERC20.sol\":3095:3104  _balances */\n      0x00\n        /* \"@openzeppelin/contracts/token/ERC20/ERC20.sol\":3095:3113  _balances[account] */\n      0x00\n        /* \"@openzeppelin/contracts/token/ERC20/ERC20.sol\":3105:3112  account */\n      dup4\n        /* \"@openzeppelin/contracts/token/ERC20/ERC20.sol\":3095:3113  _balances[account] */\n      0xffffffffffffffffffffffffffffffffffffffff\n      and\n      0xffffffffffffffffffffffffffffffffffffffff\n      and\n      dup2\n      mstore\n      0x20\n      add\n      swap1\n      dup2\n      mstore\n      0x20\n      add\n      0x00\n      keccak256\n      sload\n        /* \"@openzeppelin/contracts/token/ERC20/ERC20.sol\":3088:3113  return _balances[account] */\n      swap1\n      pop\n        /* \"@openzeppelin/contracts/token/ERC20/ERC20.sol\":3004:3120  function balanceOf(address account) public view virtual returns (uint256) {... */\n      swap2\n      swap1\n      pop\n      jump\t// out\n        /* \"contracts/WallyToken.sol\":1525:1586  bytes32 public constant ADMIN_ROLE  = keccak256(\"ADMIN_ROLE\") */\n    tag_167:\n        /* \"contracts/WallyToken.sol\":1563:1586  keccak256(\"ADMIN_ROLE\") */\n      0xa49807205ce4d355092ef5a8a18f56e8913cf4a201fbe287825b095693c21775\n        /* \"contracts/WallyToken.sol\":1525:1586  bytes32 public constant ADMIN_ROLE  = keccak256(\"ADMIN_ROLE\") */\n      dup2\n      jump\t// out\n        /* \"contracts/WallyToken.sol\":6481:6746  function setSniperProtection(bool _enabled, uint256 _snipeBlocks)... */\n    tag_172:\n        /* \"contracts/WallyToken.sol\":1563:1586  keccak256(\"ADMIN_ROLE\") */\n      0xa49807205ce4d355092ef5a8a18f56e8913cf4a201fbe287825b095693c21775\n        /* \"@openzeppelin/contracts/access/AccessControl.sol\":2464:2480  _checkRole(role) */\n      tag_327\n        /* \"@openzeppelin/contracts/access/AccessControl.sol\":2475:2479  role */\n      dup2\n        /* \"@openzeppelin/contracts/access/AccessControl.sol\":2464:2474  _checkRole */\n      tag_272\n        /* \"@openzeppelin/contracts/access/AccessControl.sol\":2464:2480  _checkRole(role) */\n      jump\t// in\n    tag_327:\n        /* \"contracts/WallyToken.sol\":6633:6641  _enabled */\n      dup3\n        /* \"contracts/WallyToken.sol\":6607:6630  sniperProtectionEnabled */\n      0x0b\n      0x00\n        /* \"contracts/WallyToken.sol\":6607:6641  sniperProtectionEnabled = _enabled */\n      0x0100\n      exp\n      dup2\n      sload\n      dup2\n      0xff\n      mul\n      not\n      and\n      swap1\n      dup4\n      iszero\n      iszero\n      mul\n      or\n      swap1\n      sstore\n      pop\n        /* \"contracts/WallyToken.sol\":6665:6677  _snipeBlocks */\n      dup2\n        /* \"contracts/WallyToken.sol\":6651:6662  snipeBlocks */\n      0x0c\n        /* \"contracts/WallyToken.sol\":6651:6677  snipeBlocks = _snipeBlocks */\n      dup2\n      swap1\n      sstore\n      pop\n        /* \"contracts/WallyToken.sol\":6692:6739  SniperProtectionUpdated(_enabled, _snipeBlocks) */\n      0xb31b570d042c886827a2637126edd8ff4f4fe90beb7cb87ffe8c4d2d542c190d\n        /* \"contracts/WallyToken.sol\":6716:6724  _enabled */\n      dup4\n        /* \"contracts/WallyToken.sol\":6726:6738  _snipeBlocks */\n      dup4\n        /* \"contracts/WallyToken.sol\":6692:6739  SniperProtectionUpdated(_enabled, _snipeBlocks) */\n      mload(0x40)\n      tag_329\n      swap3\n      swap2\n      swap1\n      tag_324\n      jump\t// in\n    tag_329:\n      mload(0x40)\n      dup1\n      swap2\n      sub\n      swap1\n      log1\n        /* \"contracts/WallyToken.sol\":6481:6746  function setSniperProtection(bool _enabled, uint256 _snipeBlocks)... */\n      pop\n      pop\n      pop\n      jump\t// out\n        /* \"contracts/WallyToken.sol\":2448:2474  uint256 public maxTxAmount */\n    tag_175:\n      sload(0x0a)\n      dup2\n      jump\t// out\n        /* \"@openzeppelin/contracts/access/AccessControl.sol\":2854:2990  function hasRole(bytes32 role, address account) public view virtual returns (bool) {... */\n    tag_180:\n        /* \"@openzeppelin/contracts/access/AccessControl.sol\":2931:2935  bool */\n      0x00\n        /* \"@openzeppelin/contracts/access/AccessControl.sol\":2954:2960  _roles */\n      0x05\n        /* \"@openzeppelin/contracts/access/AccessControl.sol\":2954:2966  _roles[role] */\n      0x00\n        /* \"@openzeppelin/contracts/access/AccessControl.sol\":2961:2965  role */\n      dup5\n        /* \"@openzeppelin/contracts/access/AccessControl.sol\":2954:2966  _roles[role] */\n      dup2\n      mstore\n      0x20\n      add\n      swap1\n      dup2\n      mstore\n      0x20\n      add\n      0x00\n      keccak256\n        /* \"@openzeppelin/contracts/access/AccessControl.sol\":2954:2974  _roles[role].hasRole */\n      0x00\n      add\n        /* \"@openzeppelin/contracts/access/AccessControl.sol\":2954:2983  _roles[role].hasRole[account] */\n      0x00\n        /* \"@openzeppelin/contracts/access/AccessControl.sol\":2975:2982  account */\n      dup4\n        /* \"@openzeppelin/contracts/access/AccessControl.sol\":2954:2983  _roles[role].hasRole[account] */\n      0xffffffffffffffffffffffffffffffffffffffff\n      and\n      0xffffffffffffffffffffffffffffffffffffffff\n      and\n      dup2\n      mstore\n      0x20\n      add\n      swap1\n      dup2\n      mstore\n      0x20\n      add\n      0x00\n      keccak256\n      0x00\n      swap1\n      sload\n      swap1\n      0x0100\n      exp\n      swap1\n      div\n      0xff\n      and\n        /* \"@openzeppelin/contracts/access/AccessControl.sol\":2947:2983  return _roles[role].hasRole[account] */\n      swap1\n      pop\n        /* \"@openzeppelin/contracts/access/AccessControl.sol\":2854:2990  function hasRole(bytes32 role, address account) public view virtual returns (bool) {... */\n      swap3\n      swap2\n      pop\n      pop\n      jump\t// out\n        /* \"@openzeppelin/contracts/token/ERC20/ERC20.sol\":1981:2074  function symbol() public view virtual returns (string memory) {... */\n    tag_184:\n        /* \"@openzeppelin/contracts/token/ERC20/ERC20.sol\":2028:2041  string memory */\n      0x60\n        /* \"@openzeppelin/contracts/token/ERC20/ERC20.sol\":2060:2067  _symbol */\n      0x04\n        /* \"@openzeppelin/contracts/token/ERC20/ERC20.sol\":2053:2067  return _symbol */\n      dup1\n      sload\n      tag_332\n      swap1\n      tag_260\n      jump\t// in\n    tag_332:\n      dup1\n      0x1f\n      add\n      0x20\n      dup1\n      swap2\n      div\n      mul\n      0x20\n      add\n      mload(0x40)\n      swap1\n      dup2\n      add\n      0x40\n      mstore\n      dup1\n      swap3\n      swap2\n      swap1\n      dup2\n      dup2\n      mstore\n      0x20\n      add\n      dup3\n      dup1\n      sload\n      tag_333\n      swap1\n      tag_260\n      jump\t// in\n    tag_333:\n      dup1\n      iszero\n      tag_334\n      jumpi\n      dup1\n      0x1f\n      lt\n      tag_335\n      jumpi\n      0x0100\n      dup1\n      dup4\n      sload\n      div\n      mul\n      dup4\n      mstore\n      swap2\n      0x20\n      add\n      swap2\n      jump(tag_334)\n    tag_335:\n      dup3\n      add\n      swap2\n      swap1\n      0x00\n      mstore\n      keccak256(0x00, 0x20)\n      swap1\n    tag_336:\n      dup2\n      sload\n      dup2\n      mstore\n      swap1\n      0x01\n      add\n      swap1\n      0x20\n      add\n      dup1\n      dup4\n      gt\n      tag_336\n      jumpi\n      dup3\n      swap1\n      sub\n      0x1f\n      and\n      dup3\n      add\n      swap2\n    tag_334:\n      pop\n      pop\n      pop\n      pop\n      pop\n      swap1\n      pop\n        /* \"@openzeppelin/contracts/token/ERC20/ERC20.sol\":1981:2074  function symbol() public view virtual returns (string memory) {... */\n      swap1\n      jump\t// out\n        /* \"contracts/WallyToken.sol\":2572:2615  bool public sniperProtectionEnabled = false */\n    tag_188:\n      0x0b\n      0x00\n      swap1\n      sload\n      swap1\n      0x0100\n      exp\n      swap1\n      div\n      0xff\n      and\n      dup2\n      jump\t// out\n        /* \"@openzeppelin/contracts/access/AccessControl.sol\":2187:2236  bytes32 public constant DEFAULT_ADMIN_ROLE = 0x00 */\n    tag_192:\n        /* \"@openzeppelin/contracts/access/AccessControl.sol\":2232:2236  0x00 */\n      0x00\n        /* \"@openzeppelin/contracts/access/AccessControl.sol\":2187:2236  bytes32 public constant DEFAULT_ADMIN_ROLE = 0x00 */\n      0x00\n      shl\n      dup2\n      jump\t// out\n        /* \"@openzeppelin/contracts/token/ERC20/ERC20.sol\":3315:3493  function transfer(address to, uint256 value) public virtual returns (bool) {... */\n    tag_197:\n        /* \"@openzeppelin/contracts/token/ERC20/ERC20.sol\":3384:3388  bool */\n      0x00\n        /* \"@openzeppelin/contracts/token/ERC20/ERC20.sol\":3400:3413  address owner */\n      0x00\n        /* \"@openzeppelin/contracts/token/ERC20/ERC20.sol\":3416:3428  _msgSender() */\n      tag_338\n        /* \"@openzeppelin/contracts/token/ERC20/ERC20.sol\":3416:3426  _msgSender */\n      tag_267\n        /* \"@openzeppelin/contracts/token/ERC20/ERC20.sol\":3416:3428  _msgSender() */\n      jump\t// in\n    tag_338:\n        /* \"@openzeppelin/contracts/token/ERC20/ERC20.sol\":3400:3428  address owner = _msgSender() */\n      swap1\n      pop\n        /* \"@openzeppelin/contracts/token/ERC20/ERC20.sol\":3438:3465  _transfer(owner, to, value) */\n      tag_339\n        /* \"@openzeppelin/contracts/token/ERC20/ERC20.sol\":3448:3453  owner */\n      dup2\n        /* \"@openzeppelin/contracts/token/ERC20/ERC20.sol\":3455:3457  to */\n      dup6\n        /* \"@openzeppelin/contracts/token/ERC20/ERC20.sol\":3459:3464  value */\n      dup6\n        /* \"@openzeppelin/contracts/token/ERC20/ERC20.sol\":3438:3447  _transfer */\n      tag_295\n        /* \"@openzeppelin/contracts/token/ERC20/ERC20.sol\":3438:3465  _transfer(owner, to, value) */\n      jump\t// in\n    tag_339:\n        /* \"@openzeppelin/contracts/token/ERC20/ERC20.sol\":3482:3486  true */\n      0x01\n        /* \"@openzeppelin/contracts/token/ERC20/ERC20.sol\":3475:3486  return true */\n      swap2\n      pop\n      pop\n        /* \"@openzeppelin/contracts/token/ERC20/ERC20.sol\":3315:3493  function transfer(address to, uint256 value) public virtual returns (bool) {... */\n      swap3\n      swap2\n      pop\n      pop\n      jump\t// out\n        /* \"contracts/WallyToken.sol\":2899:2934  bool public cooldownEnabled = false */\n    tag_201:\n      0x0e\n      0x00\n      swap1\n      sload\n      swap1\n      0x0100\n      exp\n      swap1\n      div\n      0xff\n      and\n      dup2\n      jump\t// out\n        /* \"contracts/WallyToken.sol\":2993:3025  uint256 public cooldownTime = 30 */\n    tag_205:\n      sload(0x0f)\n      dup2\n      jump\t// out\n        /* \"contracts/WallyToken.sol\":11397:11627  function rescueTokens(address tokenAddress, uint256 amount, address to)... */\n    tag_211:\n        /* \"contracts/WallyToken.sol\":1563:1586  keccak256(\"ADMIN_ROLE\") */\n      0xa49807205ce4d355092ef5a8a18f56e8913cf4a201fbe287825b095693c21775\n        /* \"@openzeppelin/contracts/access/AccessControl.sol\":2464:2480  _checkRole(role) */\n      tag_341\n        /* \"@openzeppelin/contracts/access/AccessControl.sol\":2475:2479  role */\n      dup2\n        /* \"@openzeppelin/contracts/access/AccessControl.sol\":2464:2474  _checkRole */\n      tag_272\n        /* \"@openzeppelin/contracts/access/AccessControl.sol\":2464:2480  _checkRole(role) */\n      jump\t// in\n    tag_341:\n        /* \"contracts/WallyToken.sol\":11551:11552  0 */\n      0x00\n        /* \"contracts/WallyToken.sol\":11537:11553  to != address(0) */\n      0xffffffffffffffffffffffffffffffffffffffff\n      and\n        /* \"contracts/WallyToken.sol\":11537:11539  to */\n      dup3\n        /* \"contracts/WallyToken.sol\":11537:11553  to != address(0) */\n      0xffffffffffffffffffffffffffffffffffffffff\n      and\n      sub\n        /* \"contracts/WallyToken.sol\":11529:11570  require(to != address(0), \"Invalid 'to'\") */\n      tag_343\n      jumpi\n      mload(0x40)\n      0x08c379a000000000000000000000000000000000000000000000000000000000\n      dup2\n      mstore\n      0x04\n      add\n      tag_344\n      swap1\n      tag_276\n      jump\t// in\n    tag_344:\n      mload(0x40)\n      dup1\n      swap2\n      sub\n      swap1\n      revert\n    tag_343:\n        /* \"contracts/WallyToken.sol\":11586:11598  tokenAddress */\n      dup4\n        /* \"contracts/WallyToken.sol\":11580:11608  ERC20(tokenAddress).transfer */\n      0xffffffffffffffffffffffffffffffffffffffff\n      and\n      0xa9059cbb\n        /* \"contracts/WallyToken.sol\":11609:11611  to */\n      dup4\n        /* \"contracts/WallyToken.sol\":11613:11619  amount */\n      dup6\n        /* \"contracts/WallyToken.sol\":11580:11620  ERC20(tokenAddress).transfer(to, amount) */\n      mload(0x40)\n      dup4\n      0xffffffff\n      and\n      0xe0\n      shl\n      dup2\n      mstore\n      0x04\n      add\n      tag_345\n      swap3\n      swap2\n      swap1\n      tag_346\n      jump\t// in\n    tag_345:\n      0x20\n      mload(0x40)\n      dup1\n      dup4\n      sub\n      dup2\n      0x00\n      dup8\n      gas\n      call\n      iszero\n      dup1\n      iszero\n      tag_348\n      jumpi\n      returndatacopy(0x00, 0x00, returndatasize)\n      revert(0x00, returndatasize)\n    tag_348:\n      pop\n      pop\n      pop\n      pop\n      mload(0x40)\n      returndatasize\n      not(0x1f)\n      0x1f\n      dup3\n      add\n      and\n      dup3\n      add\n      dup1\n      0x40\n      mstore\n      pop\n      dup2\n      add\n      swap1\n      tag_349\n      swap2\n      swap1\n      tag_350\n      jump\t// in\n    tag_349:\n      pop\n        /* \"contracts/WallyToken.sol\":11397:11627  function rescueTokens(address tokenAddress, uint256 amount, address to)... */\n      pop\n      pop\n      pop\n      pop\n      jump\t// out\n        /* \"contracts/WallyToken.sol\":6031:6377  function setTradingEnabled(bool _enabled) external onlyRole(ADMIN_ROLE) {... */\n    tag_216:\n        /* \"contracts/WallyToken.sol\":1563:1586  keccak256(\"ADMIN_ROLE\") */\n      0xa49807205ce4d355092ef5a8a18f56e8913cf4a201fbe287825b095693c21775\n        /* \"@openzeppelin/contracts/access/AccessControl.sol\":2464:2480  _checkRole(role) */\n      tag_352\n        /* \"@openzeppelin/contracts/access/AccessControl.sol\":2475:2479  role */\n      dup2\n        /* \"@openzeppelin/contracts/access/AccessControl.sol\":2464:2474  _checkRole */\n      tag_272\n        /* \"@openzeppelin/contracts/access/AccessControl.sol\":2464:2480  _checkRole(role) */\n      jump\t// in\n    tag_352:\n        /* \"contracts/WallyToken.sol\":6130:6138  _enabled */\n      dup2\n        /* \"contracts/WallyToken.sol\":6113:6127  tradingEnabled */\n      0x08\n      0x14\n        /* \"contracts/WallyToken.sol\":6113:6138  tradingEnabled = _enabled */\n      0x0100\n      exp\n      dup2\n      sload\n      dup2\n      0xff\n      mul\n      not\n      and\n      swap1\n      dup4\n      iszero\n      iszero\n      mul\n      or\n      swap1\n      sstore\n      pop\n        /* \"contracts/WallyToken.sol\":6243:6251  _enabled */\n      dup2\n        /* \"contracts/WallyToken.sol\":6243:6278  _enabled && sniperProtectionEnabled */\n      dup1\n      iszero\n      tag_354\n      jumpi\n      pop\n        /* \"contracts/WallyToken.sol\":6255:6278  sniperProtectionEnabled */\n      0x0b\n      0x00\n      swap1\n      sload\n      swap1\n      0x0100\n      exp\n      swap1\n      div\n      0xff\n      and\n        /* \"contracts/WallyToken.sol\":6243:6278  _enabled && sniperProtectionEnabled */\n    tag_354:\n        /* \"contracts/WallyToken.sol\":6239:6331  if (_enabled && sniperProtectionEnabled) {... */\n      iszero\n      tag_355\n      jumpi\n        /* \"contracts/WallyToken.sol\":6308:6320  block.number */\n      number\n        /* \"contracts/WallyToken.sol\":6294:6305  launchBlock */\n      0x0d\n        /* \"contracts/WallyToken.sol\":6294:6320  launchBlock = block.number */\n      dup2\n      swap1\n      sstore\n      pop\n        /* \"contracts/WallyToken.sol\":6239:6331  if (_enabled && sniperProtectionEnabled) {... */\n    tag_355:\n        /* \"contracts/WallyToken.sol\":6346:6370  TradingEnabled(_enabled) */\n      0xbeda7dca7bc1b3e80b871f4818129ec73b771581f803d553aeb3484098e5f65a\n        /* \"contracts/WallyToken.sol\":6361:6369  _enabled */\n      dup3\n        /* \"contracts/WallyToken.sol\":6346:6370  TradingEnabled(_enabled) */\n      mload(0x40)\n      tag_356\n      swap2\n      swap1\n      tag_60\n      jump\t// in\n    tag_356:\n      mload(0x40)\n      dup1\n      swap2\n      sub\n      swap1\n      log1\n        /* \"contracts/WallyToken.sol\":6031:6377  function setTradingEnabled(bool _enabled) external onlyRole(ADMIN_ROLE) {... */\n      pop\n      pop\n      jump\t// out\n        /* \"contracts/WallyToken.sol\":2754:2780  uint256 public launchBlock */\n    tag_219:\n      sload(0x0d)\n      dup2\n      jump\t// out\n        /* \"contracts/WallyToken.sol\":1592:1654  bytes32 public constant MINTER_ROLE = keccak256(\"MINTER_ROLE\") */\n    tag_223:\n        /* \"contracts/WallyToken.sol\":1630:1654  keccak256(\"MINTER_ROLE\") */\n      0x9f2df0fed2c77648de5860a4cc508cd0818c85b8b8a1ab4ceeef8d981c8956a6\n        /* \"contracts/WallyToken.sol\":1592:1654  bytes32 public constant MINTER_ROLE = keccak256(\"MINTER_ROLE\") */\n      dup2\n      jump\t// out\n        /* \"@openzeppelin/contracts/access/AccessControl.sol\":4642:4780  function revokeRole(bytes32 role, address account) public virtual onlyRole(getRoleAdmin(role)) {... */\n    tag_228:\n        /* \"@openzeppelin/contracts/access/AccessControl.sol\":4717:4735  getRoleAdmin(role) */\n      tag_357\n        /* \"@openzeppelin/contracts/access/AccessControl.sol\":4730:4734  role */\n      dup3\n        /* \"@openzeppelin/contracts/access/AccessControl.sol\":4717:4729  getRoleAdmin */\n      tag_102\n        /* \"@openzeppelin/contracts/access/AccessControl.sol\":4717:4735  getRoleAdmin(role) */\n      jump\t// in\n    tag_357:\n        /* \"@openzeppelin/contracts/access/AccessControl.sol\":2464:2480  _checkRole(role) */\n      tag_359\n        /* \"@openzeppelin/contracts/access/AccessControl.sol\":2475:2479  role */\n      dup2\n        /* \"@openzeppelin/contracts/access/AccessControl.sol\":2464:2474  _checkRole */\n      tag_272\n        /* \"@openzeppelin/contracts/access/AccessControl.sol\":2464:2480  _checkRole(role) */\n      jump\t// in\n    tag_359:\n        /* \"@openzeppelin/contracts/access/AccessControl.sol\":4747:4773  _revokeRole(role, account) */\n      tag_361\n        /* \"@openzeppelin/contracts/access/AccessControl.sol\":4759:4763  role */\n      dup4\n        /* \"@openzeppelin/contracts/access/AccessControl.sol\":4765:4772  account */\n      dup4\n        /* \"@openzeppelin/contracts/access/AccessControl.sol\":4747:4758  _revokeRole */\n      tag_308\n        /* \"@openzeppelin/contracts/access/AccessControl.sol\":4747:4773  _revokeRole(role, account) */\n      jump\t// in\n    tag_361:\n      pop\n        /* \"@openzeppelin/contracts/access/AccessControl.sol\":4642:4780  function revokeRole(bytes32 role, address account) public virtual onlyRole(getRoleAdmin(role)) {... */\n      pop\n      pop\n      pop\n      jump\t// out\n        /* \"@openzeppelin/contracts/token/ERC20/ERC20.sol\":3551:3691  function allowance(address owner, address spender) public view virtual returns (uint256) {... */\n    tag_233:\n        /* \"@openzeppelin/contracts/token/ERC20/ERC20.sol\":3631:3638  uint256 */\n      0x00\n        /* \"@openzeppelin/contracts/token/ERC20/ERC20.sol\":3657:3668  _allowances */\n      0x01\n        /* \"@openzeppelin/contracts/token/ERC20/ERC20.sol\":3657:3675  _allowances[owner] */\n      0x00\n        /* \"@openzeppelin/contracts/token/ERC20/ERC20.sol\":3669:3674  owner */\n      dup5\n        /* \"@openzeppelin/contracts/token/ERC20/ERC20.sol\":3657:3675  _allowances[owner] */\n      0xffffffffffffffffffffffffffffffffffffffff\n      and\n      0xffffffffffffffffffffffffffffffffffffffff\n      and\n      dup2\n      mstore\n      0x20\n      add\n      swap1\n      dup2\n      mstore\n      0x20\n      add\n      0x00\n      keccak256\n        /* \"@openzeppelin/contracts/token/ERC20/ERC20.sol\":3657:3684  _allowances[owner][spender] */\n      0x00\n        /* \"@openzeppelin/contracts/token/ERC20/ERC20.sol\":3676:3683  spender */\n      dup4\n        /* \"@openzeppelin/contracts/token/ERC20/ERC20.sol\":3657:3684  _allowances[owner][spender] */\n      0xffffffffffffffffffffffffffffffffffffffff\n      and\n      0xffffffffffffffffffffffffffffffffffffffff\n      and\n      dup2\n      mstore\n      0x20\n      add\n      swap1\n      dup2\n      mstore\n      0x20\n      add\n      0x00\n      keccak256\n      sload\n        /* \"@openzeppelin/contracts/token/ERC20/ERC20.sol\":3650:3684  return _allowances[owner][spender] */\n      swap1\n      pop\n        /* \"@openzeppelin/contracts/token/ERC20/ERC20.sol\":3551:3691  function allowance(address owner, address spender) public view virtual returns (uint256) {... */\n      swap3\n      swap2\n      pop\n      pop\n      jump\t// out\n        /* \"contracts/WallyToken.sol\":7474:7640  function setMaxTxAmount(uint256 _maxTxAmount) external onlyRole(ADMIN_ROLE) {... */\n    tag_238:\n        /* \"contracts/WallyToken.sol\":1563:1586  keccak256(\"ADMIN_ROLE\") */\n      0xa49807205ce4d355092ef5a8a18f56e8913cf4a201fbe287825b095693c21775\n        /* \"@openzeppelin/contracts/access/AccessControl.sol\":2464:2480  _checkRole(role) */\n      tag_364\n        /* \"@openzeppelin/contracts/access/AccessControl.sol\":2475:2479  role */\n      dup2\n        /* \"@openzeppelin/contracts/access/AccessControl.sol\":2464:2474  _checkRole */\n      tag_272\n        /* \"@openzeppelin/contracts/access/AccessControl.sol\":2464:2480  _checkRole(role) */\n      jump\t// in\n    tag_364:\n        /* \"contracts/WallyToken.sol\":7574:7586  _maxTxAmount */\n      dup2\n        /* \"contracts/WallyToken.sol\":7560:7571  maxTxAmount */\n      0x0a\n        /* \"contracts/WallyToken.sol\":7560:7586  maxTxAmount = _maxTxAmount */\n      dup2\n      swap1\n      sstore\n      pop\n        /* \"contracts/WallyToken.sol\":7601:7633  MaxTxAmountUpdated(_maxTxAmount) */\n      0x947f344d56e1e8c70dc492fb94c4ddddd490c016aab685f5e7e47b2e85cb44cf\n        /* \"contracts/WallyToken.sol\":7620:7632  _maxTxAmount */\n      dup3\n        /* \"contracts/WallyToken.sol\":7601:7633  MaxTxAmountUpdated(_maxTxAmount) */\n      mload(0x40)\n      tag_366\n      swap2\n      swap1\n      tag_91\n      jump\t// in\n    tag_366:\n      mload(0x40)\n      dup1\n      swap2\n      sub\n      swap1\n      log1\n        /* \"contracts/WallyToken.sol\":7474:7640  function setMaxTxAmount(uint256 _maxTxAmount) external onlyRole(ADMIN_ROLE) {... */\n      pop\n      pop\n      jump\t// out\n        /* \"contracts/WallyToken.sol\":1998:2078  address public constant DAO_ADDRESS = 0x633ea8fe424CD65AD4D4826e6581273afd06B8Ef */\n    tag_241:\n        /* \"contracts/WallyToken.sol\":2036:2078  0x633ea8fe424CD65AD4D4826e6581273afd06B8Ef */\n      0x633ea8fe424cd65ad4d4826e6581273afd06b8ef\n        /* \"contracts/WallyToken.sol\":1998:2078  address public constant DAO_ADDRESS = 0x633ea8fe424CD65AD4D4826e6581273afd06B8Ef */\n      dup2\n      jump\t// out\n        /* \"contracts/WallyToken.sol\":7989:8747  function addLiquidityETH(... */\n    tag_246:\n        /* \"contracts/WallyToken.sol\":8259:8278  uint256 amountToken */\n      0x00\n        /* \"contracts/WallyToken.sol\":8280:8297  uint256 amountETH */\n      0x00\n        /* \"contracts/WallyToken.sol\":8299:8316  uint256 liquidity */\n      0x00\n        /* \"@openzeppelin/contracts/security/ReentrancyGuard.sol\":2261:2282  _nonReentrantBefore() */\n      tag_368\n        /* \"@openzeppelin/contracts/security/ReentrancyGuard.sol\":2261:2280  _nonReentrantBefore */\n      tag_369\n        /* \"@openzeppelin/contracts/security/ReentrancyGuard.sol\":2261:2282  _nonReentrantBefore() */\n      jump\t// in\n    tag_368:\n        /* \"contracts/WallyToken.sol\":1563:1586  keccak256(\"ADMIN_ROLE\") */\n      0xa49807205ce4d355092ef5a8a18f56e8913cf4a201fbe287825b095693c21775\n        /* \"@openzeppelin/contracts/access/AccessControl.sol\":2464:2480  _checkRole(role) */\n      tag_371\n        /* \"@openzeppelin/contracts/access/AccessControl.sol\":2475:2479  role */\n      dup2\n        /* \"@openzeppelin/contracts/access/AccessControl.sol\":2464:2474  _checkRole */\n      tag_272\n        /* \"@openzeppelin/contracts/access/AccessControl.sol\":2464:2480  _checkRole(role) */\n      jump\t// in\n    tag_371:\n        /* \"contracts/WallyToken.sol\":8400:8464  _approve(address(this), address(uniswapV2Router), tokenAmountIn) */\n      tag_373\n        /* \"contracts/WallyToken.sol\":8417:8421  this */\n      address\n        /* \"contracts/WallyToken.sol\":8432:8447  uniswapV2Router */\n      0x07\n      0x00\n      swap1\n      sload\n      swap1\n      0x0100\n      exp\n      swap1\n      div\n      0xffffffffffffffffffffffffffffffffffffffff\n      and\n        /* \"contracts/WallyToken.sol\":8450:8463  tokenAmountIn */\n      dup11\n        /* \"contracts/WallyToken.sol\":8400:8408  _approve */\n      tag_269\n        /* \"contracts/WallyToken.sol\":8400:8464  _approve(address(this), address(uniswapV2Router), tokenAmountIn) */\n      jump\t// in\n    tag_373:\n        /* \"contracts/WallyToken.sol\":8513:8528  uniswapV2Router */\n      0x07\n      0x00\n      swap1\n      sload\n      swap1\n      0x0100\n      exp\n      swap1\n      div\n      0xffffffffffffffffffffffffffffffffffffffff\n      and\n        /* \"contracts/WallyToken.sol\":8513:8544  uniswapV2Router.addLiquidityETH */\n      0xffffffffffffffffffffffffffffffffffffffff\n      and\n      0xf305d719\n        /* \"contracts/WallyToken.sol\":8565:8574  msg.value */\n      callvalue\n        /* \"contracts/WallyToken.sol\":8606:8610  this */\n      address\n        /* \"contracts/WallyToken.sol\":8625:8638  tokenAmountIn */\n      dup12\n        /* \"contracts/WallyToken.sol\":8652:8666  tokenAmountMin */\n      dup12\n        /* \"contracts/WallyToken.sol\":8680:8692  ethAmountMin */\n      dup12\n        /* \"contracts/WallyToken.sol\":8706:8708  to */\n      dup16\n        /* \"contracts/WallyToken.sol\":8722:8730  deadline */\n      dup13\n        /* \"contracts/WallyToken.sol\":8513:8740  uniswapV2Router.addLiquidityETH{... */\n      mload(0x40)\n      dup9\n      0xffffffff\n      and\n      0xe0\n      shl\n      dup2\n      mstore\n      0x04\n      add\n      tag_374\n      swap7\n      swap6\n      swap5\n      swap4\n      swap3\n      swap2\n      swap1\n      tag_375\n      jump\t// in\n    tag_374:\n      0x60\n      mload(0x40)\n      dup1\n      dup4\n      sub\n      dup2\n      dup6\n      dup9\n      gas\n      call\n      iszero\n      dup1\n      iszero\n      tag_377\n      jumpi\n      returndatacopy(0x00, 0x00, returndatasize)\n      revert(0x00, returndatasize)\n    tag_377:\n      pop\n      pop\n      pop\n      pop\n      pop\n      mload(0x40)\n      returndatasize\n      not(0x1f)\n      0x1f\n      dup3\n      add\n      and\n      dup3\n      add\n      dup1\n      0x40\n      mstore\n      pop\n      dup2\n      add\n      swap1\n      tag_378\n      swap2\n      swap1\n      tag_379\n      jump\t// in\n    tag_378:\n        /* \"contracts/WallyToken.sol\":8475:8740  (amountToken, amountETH, liquidity) = uniswapV2Router.addLiquidityETH{... */\n      dup1\n      swap5\n      pop\n      dup2\n      swap6\n      pop\n      dup3\n      swap7\n      pop\n      pop\n      pop\n      pop\n        /* \"@openzeppelin/contracts/security/ReentrancyGuard.sol\":2292:2293  _ */\n      pop\n        /* \"@openzeppelin/contracts/security/ReentrancyGuard.sol\":2303:2323  _nonReentrantAfter() */\n      tag_380\n        /* \"@openzeppelin/contracts/security/ReentrancyGuard.sol\":2303:2321  _nonReentrantAfter */\n      tag_381\n        /* \"@openzeppelin/contracts/security/ReentrancyGuard.sol\":2303:2323  _nonReentrantAfter() */\n      jump\t// in\n    tag_380:\n        /* \"contracts/WallyToken.sol\":7989:8747  function addLiquidityETH(... */\n      swap6\n      pop\n      swap6\n      pop\n      swap6\n      swap3\n      pop\n      pop\n      pop\n      jump\t// out\n        /* \"contracts/WallyToken.sol\":2358:2399  mapping(address => bool) public blacklist */\n    tag_252:\n      mstore(0x20, 0x09)\n      dup1\n      0x00\n      mstore\n      keccak256(0x00, 0x40)\n      0x00\n      swap2\n      pop\n      sload\n      swap1\n      0x0100\n      exp\n      swap1\n      div\n      0xff\n      and\n      dup2\n      jump\t// out\n        /* \"@openzeppelin/contracts/utils/introspection/ERC165.sol\":763:909  function supportsInterface(bytes4 interfaceId) public view virtual returns (bool) {... */\n    tag_257:\n        /* \"@openzeppelin/contracts/utils/introspection/ERC165.sol\":839:843  bool */\n      0x00\n        /* \"@openzeppelin/contracts/utils/introspection/ERC165.sol\":877:902  type(IERC165).interfaceId */\n      0x01ffc9a700000000000000000000000000000000000000000000000000000000\n        /* \"@openzeppelin/contracts/utils/introspection/ERC165.sol\":862:902  interfaceId == type(IERC165).interfaceId */\n      not(0xffffffffffffffffffffffffffffffffffffffffffffffffffffffff)\n      and\n        /* \"@openzeppelin/contracts/utils/introspection/ERC165.sol\":862:873  interfaceId */\n      dup3\n        /* \"@openzeppelin/contracts/utils/introspection/ERC165.sol\":862:902  interfaceId == type(IERC165).interfaceId */\n      not(0xffffffffffffffffffffffffffffffffffffffffffffffffffffffff)\n      and\n      eq\n        /* \"@openzeppelin/contracts/utils/introspection/ERC165.sol\":855:902  return interfaceId == type(IERC165).interfaceId */\n      swap1\n      pop\n        /* \"@openzeppelin/contracts/utils/introspection/ERC165.sol\":763:909  function supportsInterface(bytes4 interfaceId) public view virtual returns (bool) {... */\n      swap2\n      swap1\n      pop\n      jump\t// out\n        /* \"@openzeppelin/contracts/utils/Context.sol\":656:752  function _msgSender() internal view virtual returns (address) {... */\n    tag_267:\n        /* \"@openzeppelin/contracts/utils/Context.sol\":709:716  address */\n      0x00\n        /* \"@openzeppelin/contracts/utils/Context.sol\":735:745  msg.sender */\n      caller\n        /* \"@openzeppelin/contracts/utils/Context.sol\":728:745  return msg.sender */\n      swap1\n      pop\n        /* \"@openzeppelin/contracts/utils/Context.sol\":656:752  function _msgSender() internal view virtual returns (address) {... */\n      swap1\n      jump\t// out\n        /* \"@openzeppelin/contracts/token/ERC20/ERC20.sol\":8726:8854  function _approve(address owner, address spender, uint256 value) internal {... */\n    tag_269:\n        /* \"@openzeppelin/contracts/token/ERC20/ERC20.sol\":8810:8847  _approve(owner, spender, value, true) */\n      tag_385\n        /* \"@openzeppelin/contracts/token/ERC20/ERC20.sol\":8819:8824  owner */\n      dup4\n        /* \"@openzeppelin/contracts/token/ERC20/ERC20.sol\":8826:8833  spender */\n      dup4\n        /* \"@openzeppelin/contracts/token/ERC20/ERC20.sol\":8835:8840  value */\n      dup4\n        /* \"@openzeppelin/contracts/token/ERC20/ERC20.sol\":8842:8846  true */\n      0x01\n        /* \"@openzeppelin/contracts/token/ERC20/ERC20.sol\":8810:8818  _approve */\n      tag_386\n        /* \"@openzeppelin/contracts/token/ERC20/ERC20.sol\":8810:8847  _approve(owner, spender, value, true) */\n      jump\t// in\n    tag_385:\n        /* \"@openzeppelin/contracts/token/ERC20/ERC20.sol\":8726:8854  function _approve(address owner, address spender, uint256 value) internal {... */\n      pop\n      pop\n      pop\n      jump\t// out\n        /* \"@openzeppelin/contracts/access/AccessControl.sol\":3199:3302  function _checkRole(bytes32 role) internal view virtual {... */\n    tag_272:\n        /* \"@openzeppelin/contracts/access/AccessControl.sol\":3265:3295  _checkRole(role, _msgSender()) */\n      tag_388\n        /* \"@openzeppelin/contracts/access/AccessControl.sol\":3276:3280  role */\n      dup2\n        /* \"@openzeppelin/contracts/access/AccessControl.sol\":3282:3294  _msgSender() */\n      tag_389\n        /* \"@openzeppelin/contracts/access/AccessControl.sol\":3282:3292  _msgSender */\n      tag_267\n        /* \"@openzeppelin/contracts/access/AccessControl.sol\":3282:3294  _msgSender() */\n      jump\t// in\n    tag_389:\n        /* \"@openzeppelin/contracts/access/AccessControl.sol\":3265:3275  _checkRole */\n      tag_390\n        /* \"@openzeppelin/contracts/access/AccessControl.sol\":3265:3295  _checkRole(role, _msgSender()) */\n      jump\t// in\n    tag_388:\n        /* \"@openzeppelin/contracts/access/AccessControl.sol\":3199:3302  function _checkRole(bytes32 role) internal view virtual {... */\n      pop\n      jump\t// out\n        /* \"@openzeppelin/contracts/token/ERC20/ERC20.sol\":10415:10891  function _spendAllowance(address owner, address spender, uint256 value) internal virtual {... */\n    tag_293:\n        /* \"@openzeppelin/contracts/token/ERC20/ERC20.sol\":10514:10538  uint256 currentAllowance */\n      0x00\n        /* \"@openzeppelin/contracts/token/ERC20/ERC20.sol\":10541:10566  allowance(owner, spender) */\n      tag_392\n        /* \"@openzeppelin/contracts/token/ERC20/ERC20.sol\":10551:10556  owner */\n      dup5\n        /* \"@openzeppelin/contracts/token/ERC20/ERC20.sol\":10558:10565  spender */\n      dup5\n        /* \"@openzeppelin/contracts/token/ERC20/ERC20.sol\":10541:10550  allowance */\n      tag_233\n        /* \"@openzeppelin/contracts/token/ERC20/ERC20.sol\":10541:10566  allowance(owner, spender) */\n      jump\t// in\n    tag_392:\n        /* \"@openzeppelin/contracts/token/ERC20/ERC20.sol\":10514:10566  uint256 currentAllowance = allowance(owner, spender) */\n      swap1\n      pop\n        /* \"@openzeppelin/contracts/token/ERC20/ERC20.sol\":10599:10616  type(uint256).max */\n      0xffffffffffffffffffffffffffffffffffffffffffffffffffffffffffffffff\n        /* \"@openzeppelin/contracts/token/ERC20/ERC20.sol\":10580:10596  currentAllowance */\n      dup2\n        /* \"@openzeppelin/contracts/token/ERC20/ERC20.sol\":10580:10616  currentAllowance < type(uint256).max */\n      lt\n        /* \"@openzeppelin/contracts/token/ERC20/ERC20.sol\":10576:10885  if (currentAllowance < type(uint256).max) {... */\n      iszero\n      tag_393\n      jumpi\n        /* \"@openzeppelin/contracts/token/ERC20/ERC20.sol\":10655:10660  value */\n      dup2\n        /* \"@openzeppelin/contracts/token/ERC20/ERC20.sol\":10636:10652  currentAllowance */\n      dup2\n        /* \"@openzeppelin/contracts/token/ERC20/ERC20.sol\":10636:10660  currentAllowance < value */\n      lt\n        /* \"@openzeppelin/contracts/token/ERC20/ERC20.sol\":10632:10762  if (currentAllowance < value) {... */\n      iszero\n      tag_394\n      jumpi\n        /* \"@openzeppelin/contracts/token/ERC20/ERC20.sol\":10714:10721  spender */\n      dup3\n        /* \"@openzeppelin/contracts/token/ERC20/ERC20.sol\":10723:10739  currentAllowance */\n      dup2\n        /* \"@openzeppelin/contracts/token/ERC20/ERC20.sol\":10741:10746  value */\n      dup4\n        /* \"@openzeppelin/contracts/token/ERC20/ERC20.sol\":10687:10747  ERC20InsufficientAllowance(spender, currentAllowance, value) */\n      mload(0x40)\n      0xfb8f41b200000000000000000000000000000000000000000000000000000000\n      dup2\n      mstore\n      0x04\n      add\n      tag_395\n      swap4\n      swap3\n      swap2\n      swap1\n      tag_396\n      jump\t// in\n    tag_395:\n      mload(0x40)\n      dup1\n      swap2\n      sub\n      swap1\n      revert\n        /* \"@openzeppelin/contracts/token/ERC20/ERC20.sol\":10632:10762  if (currentAllowance < value) {... */\n    tag_394:\n        /* \"@openzeppelin/contracts/token/ERC20/ERC20.sol\":10803:10860  _approve(owner, spender, currentAllowance - value, false) */\n      tag_397\n        /* \"@openzeppelin/contracts/token/ERC20/ERC20.sol\":10812:10817  owner */\n      dup5\n        /* \"@openzeppelin/contracts/token/ERC20/ERC20.sol\":10819:10826  spender */\n      dup5\n        /* \"@openzeppelin/contracts/token/ERC20/ERC20.sol\":10847:10852  value */\n      dup5\n        /* \"@openzeppelin/contracts/token/ERC20/ERC20.sol\":10828:10844  currentAllowance */\n      dup5\n        /* \"@openzeppelin/contracts/token/ERC20/ERC20.sol\":10828:10852  currentAllowance - value */\n      sub\n        /* \"@openzeppelin/contracts/token/ERC20/ERC20.sol\":10854:10859  false */\n      0x00\n        /* \"@openzeppelin/contracts/token/ERC20/ERC20.sol\":10803:10811  _approve */\n      tag_386\n        /* \"@openzeppelin/contracts/token/ERC20/ERC20.sol\":10803:10860  _approve(owner, spender, currentAllowance - value, false) */\n      jump\t// in\n    tag_397:\n        /* \"@openzeppelin/contracts/token/ERC20/ERC20.sol\":10576:10885  if (currentAllowance < type(uint256).max) {... */\n    tag_393:\n        /* \"@openzeppelin/contracts/token/ERC20/ERC20.sol\":10504:10891  {... */\n      pop\n        /* \"@openzeppelin/contracts/token/ERC20/ERC20.sol\":10415:10891  function _spendAllowance(address owner, address spender, uint256 value) internal virtual {... */\n      pop\n      pop\n      pop\n      jump\t// out\n        /* \"@openzeppelin/contracts/token/ERC20/ERC20.sol\":5393:5693  function _transfer(address from, address to, uint256 value) internal {... */\n    tag_295:\n        /* \"@openzeppelin/contracts/token/ERC20/ERC20.sol\":5492:5493  0 */\n      0x00\n        /* \"@openzeppelin/contracts/token/ERC20/ERC20.sol\":5476:5494  from == address(0) */\n      0xffffffffffffffffffffffffffffffffffffffff\n      and\n        /* \"@openzeppelin/contracts/token/ERC20/ERC20.sol\":5476:5480  from */\n      dup4\n        /* \"@openzeppelin/contracts/token/ERC20/ERC20.sol\":5476:5494  from == address(0) */\n      0xffffffffffffffffffffffffffffffffffffffff\n      and\n      sub\n        /* \"@openzeppelin/contracts/token/ERC20/ERC20.sol\":5472:5558  if (from == address(0)) {... */\n      tag_399\n      jumpi\n        /* \"@openzeppelin/contracts/token/ERC20/ERC20.sol\":5544:5545  0 */\n      0x00\n        /* \"@openzeppelin/contracts/token/ERC20/ERC20.sol\":5517:5547  ERC20InvalidSender(address(0)) */\n      mload(0x40)\n      0x96c6fd1e00000000000000000000000000000000000000000000000000000000\n      dup2\n      mstore\n      0x04\n      add\n      tag_400\n      swap2\n      swap1\n      tag_155\n      jump\t// in\n    tag_400:\n      mload(0x40)\n      dup1\n      swap2\n      sub\n      swap1\n      revert\n        /* \"@openzeppelin/contracts/token/ERC20/ERC20.sol\":5472:5558  if (from == address(0)) {... */\n    tag_399:\n        /* \"@openzeppelin/contracts/token/ERC20/ERC20.sol\":5585:5586  0 */\n      0x00\n        /* \"@openzeppelin/contracts/token/ERC20/ERC20.sol\":5571:5587  to == address(0) */\n      0xffffffffffffffffffffffffffffffffffffffff\n      and\n        /* \"@openzeppelin/contracts/token/ERC20/ERC20.sol\":5571:5573  to */\n      dup3\n        /* \"@openzeppelin/contracts/token/ERC20/ERC20.sol\":5571:5587  to == address(0) */\n      0xffffffffffffffffffffffffffffffffffffffff\n      and\n      sub\n        /* \"@openzeppelin/contracts/token/ERC20/ERC20.sol\":5567:5653  if (to == address(0)) {... */\n      tag_401\n      jumpi\n        /* \"@openzeppelin/contracts/token/ERC20/ERC20.sol\":5639:5640  0 */\n      0x00\n        /* \"@openzeppelin/contracts/token/ERC20/ERC20.sol\":5610:5642  ERC20InvalidReceiver(address(0)) */\n      mload(0x40)\n      0xec442f0500000000000000000000000000000000000000000000000000000000\n      dup2\n      mstore\n      0x04\n      add\n      tag_402\n      swap2\n      swap1\n      tag_155\n      jump\t// in\n    tag_402:\n      mload(0x40)\n      dup1\n      swap2\n      sub\n      swap1\n      revert\n        /* \"@openzeppelin/contracts/token/ERC20/ERC20.sol\":5567:5653  if (to == address(0)) {... */\n    tag_401:\n        /* \"@openzeppelin/contracts/token/ERC20/ERC20.sol\":5662:5686  _update(from, to, value) */\n      tag_403\n        /* \"@openzeppelin/contracts/token/ERC20/ERC20.sol\":5670:5674  from */\n      dup4\n        /* \"@openzeppelin/contracts/token/ERC20/ERC20.sol\":5676:5678  to */\n      dup4\n        /* \"@openzeppelin/contracts/token/ERC20/ERC20.sol\":5680:5685  value */\n      dup4\n        /* \"@openzeppelin/contracts/token/ERC20/ERC20.sol\":5662:5669  _update */\n      tag_404\n        /* \"@openzeppelin/contracts/token/ERC20/ERC20.sol\":5662:5686  _update(from, to, value) */\n      jump\t// in\n    tag_403:\n        /* \"@openzeppelin/contracts/token/ERC20/ERC20.sol\":5393:5693  function _transfer(address from, address to, uint256 value) internal {... */\n      pop\n      pop\n      pop\n      jump\t// out\n        /* \"@openzeppelin/contracts/access/AccessControl.sol\":6179:6495  function _grantRole(bytes32 role, address account) internal virtual returns (bool) {... */\n    tag_302:\n        /* \"@openzeppelin/contracts/access/AccessControl.sol\":6256:6260  bool */\n      0x00\n        /* \"@openzeppelin/contracts/access/AccessControl.sol\":6277:6299  hasRole(role, account) */\n      tag_406\n        /* \"@openzeppelin/contracts/access/AccessControl.sol\":6285:6289  role */\n      dup4\n        /* \"@openzeppelin/contracts/access/AccessControl.sol\":6291:6298  account */\n      dup4\n        /* \"@openzeppelin/contracts/access/AccessControl.sol\":6277:6284  hasRole */\n      tag_180\n        /* \"@openzeppelin/contracts/access/AccessControl.sol\":6277:6299  hasRole(role, account) */\n      jump\t// in\n    tag_406:\n        /* \"@openzeppelin/contracts/access/AccessControl.sol\":6272:6489  if (!hasRole(role, account)) {... */\n      tag_407\n      jumpi\n        /* \"@openzeppelin/contracts/access/AccessControl.sol\":6347:6351  true */\n      0x01\n        /* \"@openzeppelin/contracts/access/AccessControl.sol\":6315:6321  _roles */\n      0x05\n        /* \"@openzeppelin/contracts/access/AccessControl.sol\":6315:6327  _roles[role] */\n      0x00\n        /* \"@openzeppelin/contracts/access/AccessControl.sol\":6322:6326  role */\n      dup6\n        /* \"@openzeppelin/contracts/access/AccessControl.sol\":6315:6327  _roles[role] */\n      dup2\n      mstore\n      0x20\n      add\n      swap1\n      dup2\n      mstore\n      0x20\n      add\n      0x00\n      keccak256\n        /* \"@openzeppelin/contracts/access/AccessControl.sol\":6315:6335  _roles[role].hasRole */\n      0x00\n      add\n        /* \"@openzeppelin/contracts/access/AccessControl.sol\":6315:6344  _roles[role].hasRole[account] */\n      0x00\n        /* \"@openzeppelin/contracts/access/AccessControl.sol\":6336:6343  account */\n      dup5\n        /* \"@openzeppelin/contracts/access/AccessControl.sol\":6315:6344  _roles[role].hasRole[account] */\n      0xffffffffffffffffffffffffffffffffffffffff\n      and\n      0xffffffffffffffffffffffffffffffffffffffff\n      and\n      dup2\n      mstore\n      0x20\n      add\n      swap1\n      dup2\n      mstore\n      0x20\n      add\n      0x00\n      keccak256\n      0x00\n        /* \"@openzeppelin/contracts/access/AccessControl.sol\":6315:6351  _roles[role].hasRole[account] = true */\n      0x0100\n      exp\n      dup2\n      sload\n      dup2\n      0xff\n      mul\n      not\n      and\n      swap1\n      dup4\n      iszero\n      iszero\n      mul\n      or\n      swap1\n      sstore\n      pop\n        /* \"@openzeppelin/contracts/access/AccessControl.sol\":6397:6409  _msgSender() */\n      tag_408\n        /* \"@openzeppelin/contracts/access/AccessControl.sol\":6397:6407  _msgSender */\n      tag_267\n        /* \"@openzeppelin/contracts/access/AccessControl.sol\":6397:6409  _msgSender() */\n      jump\t// in\n    tag_408:\n        /* \"@openzeppelin/contracts/access/AccessControl.sol\":6370:6410  RoleGranted(role, account, _msgSender()) */\n      0xffffffffffffffffffffffffffffffffffffffff\n      and\n        /* \"@openzeppelin/contracts/access/AccessControl.sol\":6388:6395  account */\n      dup3\n        /* \"@openzeppelin/contracts/access/AccessControl.sol\":6370:6410  RoleGranted(role, account, _msgSender()) */\n      0xffffffffffffffffffffffffffffffffffffffff\n      and\n        /* \"@openzeppelin/contracts/access/AccessControl.sol\":6382:6386  role */\n      dup5\n        /* \"@openzeppelin/contracts/access/AccessControl.sol\":6370:6410  RoleGranted(role, account, _msgSender()) */\n      0x2f8788117e7eff1d82e926ec794901d17c78024a50270940304540a733656f0d\n      mload(0x40)\n      mload(0x40)\n      dup1\n      swap2\n      sub\n      swap1\n      log4\n        /* \"@openzeppelin/contracts/access/AccessControl.sol\":6431:6435  true */\n      0x01\n        /* \"@openzeppelin/contracts/access/AccessControl.sol\":6424:6435  return true */\n      swap1\n      pop\n      jump(tag_405)\n        /* \"@openzeppelin/contracts/access/AccessControl.sol\":6272:6489  if (!hasRole(role, account)) {... */\n    tag_407:\n        /* \"@openzeppelin/contracts/access/AccessControl.sol\":6473:6478  false */\n      0x00\n        /* \"@openzeppelin/contracts/access/AccessControl.sol\":6466:6478  return false */\n      swap1\n      pop\n        /* \"@openzeppelin/contracts/access/AccessControl.sol\":6179:6495  function _grantRole(bytes32 role, address account) internal virtual returns (bool) {... */\n    tag_405:\n      swap3\n      swap2\n      pop\n      pop\n      jump\t// out\n        /* \"@openzeppelin/contracts/access/AccessControl.sol\":6730:7047  function _revokeRole(bytes32 role, address account) internal virtual returns (bool) {... */\n    tag_308:\n        /* \"@openzeppelin/contracts/access/AccessControl.sol\":6808:6812  bool */\n      0x00\n        /* \"@openzeppelin/contracts/access/AccessControl.sol\":6828:6850  hasRole(role, account) */\n      tag_411\n        /* \"@openzeppelin/contracts/access/AccessControl.sol\":6836:6840  role */\n      dup4\n        /* \"@openzeppelin/contracts/access/AccessControl.sol\":6842:6849  account */\n      dup4\n        /* \"@openzeppelin/contracts/access/AccessControl.sol\":6828:6835  hasRole */\n      tag_180\n        /* \"@openzeppelin/contracts/access/AccessControl.sol\":6828:6850  hasRole(role, account) */\n      jump\t// in\n    tag_411:\n        /* \"@openzeppelin/contracts/access/AccessControl.sol\":6824:7041  if (hasRole(role, account)) {... */\n      iszero\n      tag_412\n      jumpi\n        /* \"@openzeppelin/contracts/access/AccessControl.sol\":6898:6903  false */\n      0x00\n        /* \"@openzeppelin/contracts/access/AccessControl.sol\":6866:6872  _roles */\n      0x05\n        /* \"@openzeppelin/contracts/access/AccessControl.sol\":6866:6878  _roles[role] */\n      0x00\n        /* \"@openzeppelin/contracts/access/AccessControl.sol\":6873:6877  role */\n      dup6\n        /* \"@openzeppelin/contracts/access/AccessControl.sol\":6866:6878  _roles[role] */\n      dup2\n      mstore\n      0x20\n      add\n      swap1\n      dup2\n      mstore\n      0x20\n      add\n      0x00\n      keccak256\n        /* \"@openzeppelin/contracts/access/AccessControl.sol\":6866:6886  _roles[role].hasRole */\n      0x00\n      add\n        /* \"@openzeppelin/contracts/access/AccessControl.sol\":6866:6895  _roles[role].hasRole[account] */\n      0x00\n        /* \"@openzeppelin/contracts/access/AccessControl.sol\":6887:6894  account */\n      dup5\n        /* \"@openzeppelin/contracts/access/AccessControl.sol\":6866:6895  _roles[role].hasRole[account] */\n      0xffffffffffffffffffffffffffffffffffffffff\n      and\n      0xffffffffffffffffffffffffffffffffffffffff\n      and\n      dup2\n      mstore\n      0x20\n      add\n      swap1\n      dup2\n      mstore\n      0x20\n      add\n      0x00\n      keccak256\n      0x00\n        /* \"@openzeppelin/contracts/access/AccessControl.sol\":6866:6903  _roles[role].hasRole[account] = false */\n      0x0100\n      exp\n      dup2\n      sload\n      dup2\n      0xff\n      mul\n      not\n      and\n      swap1\n      dup4\n      iszero\n      iszero\n      mul\n      or\n      swap1\n      sstore\n      pop\n        /* \"@openzeppelin/contracts/access/AccessControl.sol\":6949:6961  _msgSender() */\n      tag_413\n        /* \"@openzeppelin/contracts/access/AccessControl.sol\":6949:6959  _msgSender */\n      tag_267\n        /* \"@openzeppelin/contracts/access/AccessControl.sol\":6949:6961  _msgSender() */\n      jump\t// in\n    tag_413:\n        /* \"@openzeppelin/contracts/access/AccessControl.sol\":6922:6962  RoleRevoked(role, account, _msgSender()) */\n      0xffffffffffffffffffffffffffffffffffffffff\n      and\n        /* \"@openzeppelin/contracts/access/AccessControl.sol\":6940:6947  account */\n      dup3\n        /* \"@openzeppelin/contracts/access/AccessControl.sol\":6922:6962  RoleRevoked(role, account, _msgSender()) */\n      0xffffffffffffffffffffffffffffffffffffffff\n      and\n        /* \"@openzeppelin/contracts/access/AccessControl.sol\":6934:6938  role */\n      dup5\n        /* \"@openzeppelin/contracts/access/AccessControl.sol\":6922:6962  RoleRevoked(role, account, _msgSender()) */\n      0xf6391f5c32d9c69d2a47ea670b442974b53935d1edc7fd64eb21e047a839171b\n      mload(0x40)\n      mload(0x40)\n      dup1\n      swap2\n      sub\n      swap1\n      log4\n        /* \"@openzeppelin/contracts/access/AccessControl.sol\":6983:6987  true */\n      0x01\n        /* \"@openzeppelin/contracts/access/AccessControl.sol\":6976:6987  return true */\n      swap1\n      pop\n      jump(tag_410)\n        /* \"@openzeppelin/contracts/access/AccessControl.sol\":6824:7041  if (hasRole(role, account)) {... */\n    tag_412:\n        /* \"@openzeppelin/contracts/access/AccessControl.sol\":7025:7030  false */\n      0x00\n        /* \"@openzeppelin/contracts/access/AccessControl.sol\":7018:7030  return false */\n      swap1\n      pop\n        /* \"@openzeppelin/contracts/access/AccessControl.sol\":6730:7047  function _revokeRole(bytes32 role, address account) internal virtual returns (bool) {... */\n    tag_410:\n      swap3\n      swap2\n      pop\n      pop\n      jump\t// out\n        /* \"@openzeppelin/contracts/token/ERC20/ERC20.sol\":7458:7666  function _mint(address account, uint256 value) internal {... */\n    tag_313:\n        /* \"@openzeppelin/contracts/token/ERC20/ERC20.sol\":7547:7548  0 */\n      0x00\n        /* \"@openzeppelin/contracts/token/ERC20/ERC20.sol\":7528:7549  account == address(0) */\n      0xffffffffffffffffffffffffffffffffffffffff\n      and\n        /* \"@openzeppelin/contracts/token/ERC20/ERC20.sol\":7528:7535  account */\n      dup3\n        /* \"@openzeppelin/contracts/token/ERC20/ERC20.sol\":7528:7549  account == address(0) */\n      0xffffffffffffffffffffffffffffffffffffffff\n      and\n      sub\n        /* \"@openzeppelin/contracts/token/ERC20/ERC20.sol\":7524:7615  if (account == address(0)) {... */\n      tag_416\n      jumpi\n        /* \"@openzeppelin/contracts/token/ERC20/ERC20.sol\":7601:7602  0 */\n      0x00\n        /* \"@openzeppelin/contracts/token/ERC20/ERC20.sol\":7572:7604  ERC20InvalidReceiver(address(0)) */\n      mload(0x40)\n      0xec442f0500000000000000000000000000000000000000000000000000000000\n      dup2\n      mstore\n      0x04\n      add\n      tag_417\n      swap2\n      swap1\n      tag_155\n      jump\t// in\n    tag_417:\n      mload(0x40)\n      dup1\n      swap2\n      sub\n      swap1\n      revert\n        /* \"@openzeppelin/contracts/token/ERC20/ERC20.sol\":7524:7615  if (account == address(0)) {... */\n    tag_416:\n        /* \"@openzeppelin/contracts/token/ERC20/ERC20.sol\":7624:7659  _update(address(0), account, value) */\n      tag_418\n        /* \"@openzeppelin/contracts/token/ERC20/ERC20.sol\":7640:7641  0 */\n      0x00\n        /* \"@openzeppelin/contracts/token/ERC20/ERC20.sol\":7644:7651  account */\n      dup4\n        /* \"@openzeppelin/contracts/token/ERC20/ERC20.sol\":7653:7658  value */\n      dup4\n        /* \"@openzeppelin/contracts/token/ERC20/ERC20.sol\":7624:7631  _update */\n      tag_404\n        /* \"@openzeppelin/contracts/token/ERC20/ERC20.sol\":7624:7659  _update(address(0), account, value) */\n      jump\t// in\n    tag_418:\n        /* \"@openzeppelin/contracts/token/ERC20/ERC20.sol\":7458:7666  function _mint(address account, uint256 value) internal {... */\n      pop\n      pop\n      jump\t// out\n        /* \"@openzeppelin/contracts/token/ERC20/ERC20.sol\":7984:8190  function _burn(address account, uint256 value) internal {... */\n    tag_319:\n        /* \"@openzeppelin/contracts/token/ERC20/ERC20.sol\":8073:8074  0 */\n      0x00\n        /* \"@openzeppelin/contracts/token/ERC20/ERC20.sol\":8054:8075  account == address(0) */\n      0xffffffffffffffffffffffffffffffffffffffff\n      and\n        /* \"@openzeppelin/contracts/token/ERC20/ERC20.sol\":8054:8061  account */\n      dup3\n        /* \"@openzeppelin/contracts/token/ERC20/ERC20.sol\":8054:8075  account == address(0) */\n      0xffffffffffffffffffffffffffffffffffffffff\n      and\n      sub\n        /* \"@openzeppelin/contracts/token/ERC20/ERC20.sol\":8050:8139  if (account == address(0)) {... */\n      tag_420\n      jumpi\n        /* \"@openzeppelin/contracts/token/ERC20/ERC20.sol\":8125:8126  0 */\n      0x00\n        /* \"@openzeppelin/contracts/token/ERC20/ERC20.sol\":8098:8128  ERC20InvalidSender(address(0)) */\n      mload(0x40)\n      0x96c6fd1e00000000000000000000000000000000000000000000000000000000\n      dup2\n      mstore\n      0x04\n      add\n      tag_421\n      swap2\n      swap1\n      tag_155\n      jump\t// in\n    tag_421:\n      mload(0x40)\n      dup1\n      swap2\n      sub\n      swap1\n      revert\n        /* \"@openzeppelin/contracts/token/ERC20/ERC20.sol\":8050:8139  if (account == address(0)) {... */\n    tag_420:\n        /* \"@openzeppelin/contracts/token/ERC20/ERC20.sol\":8148:8183  _update(account, address(0), value) */\n      tag_422\n        /* \"@openzeppelin/contracts/token/ERC20/ERC20.sol\":8156:8163  account */\n      dup3\n        /* \"@openzeppelin/contracts/token/ERC20/ERC20.sol\":8173:8174  0 */\n      0x00\n        /* \"@openzeppelin/contracts/token/ERC20/ERC20.sol\":8177:8182  value */\n      dup4\n        /* \"@openzeppelin/contracts/token/ERC20/ERC20.sol\":8148:8155  _update */\n      tag_404\n        /* \"@openzeppelin/contracts/token/ERC20/ERC20.sol\":8148:8183  _update(account, address(0), value) */\n      jump\t// in\n    tag_422:\n        /* \"@openzeppelin/contracts/token/ERC20/ERC20.sol\":7984:8190  function _burn(address account, uint256 value) internal {... */\n      pop\n      pop\n      jump\t// out\n        /* \"@openzeppelin/contracts/security/ReentrancyGuard.sol\":2336:2623  function _nonReentrantBefore() private {... */\n    tag_369:\n        /* \"@openzeppelin/contracts/security/ReentrancyGuard.sol\":1759:1760  2 */\n      0x02\n        /* \"@openzeppelin/contracts/security/ReentrancyGuard.sol\":2468:2475  _status */\n      sload(0x06)\n        /* \"@openzeppelin/contracts/security/ReentrancyGuard.sol\":2468:2487  _status != _ENTERED */\n      sub\n        /* \"@openzeppelin/contracts/security/ReentrancyGuard.sol\":2460:2523  require(_status != _ENTERED, \"ReentrancyGuard: reentrant call\") */\n      tag_424\n      jumpi\n      mload(0x40)\n      0x08c379a000000000000000000000000000000000000000000000000000000000\n      dup2\n      mstore\n      0x04\n      add\n      tag_425\n      swap1\n      tag_426\n      jump\t// in\n    tag_425:\n      mload(0x40)\n      dup1\n      swap2\n      sub\n      swap1\n      revert\n    tag_424:\n        /* \"@openzeppelin/contracts/security/ReentrancyGuard.sol\":1759:1760  2 */\n      0x02\n        /* \"@openzeppelin/contracts/security/ReentrancyGuard.sol\":2598:2605  _status */\n      0x06\n        /* \"@openzeppelin/contracts/security/ReentrancyGuard.sol\":2598:2616  _status = _ENTERED */\n      dup2\n      swap1\n      sstore\n      pop\n        /* \"@openzeppelin/contracts/security/ReentrancyGuard.sol\":2336:2623  function _nonReentrantBefore() private {... */\n      jump\t// out\n        /* \"@openzeppelin/contracts/security/ReentrancyGuard.sol\":2629:2838  function _nonReentrantAfter() private {... */\n    tag_381:\n        /* \"@openzeppelin/contracts/security/ReentrancyGuard.sol\":1716:1717  1 */\n      0x01\n        /* \"@openzeppelin/contracts/security/ReentrancyGuard.sol\":2809:2816  _status */\n      0x06\n        /* \"@openzeppelin/contracts/security/ReentrancyGuard.sol\":2809:2831  _status = _NOT_ENTERED */\n      dup2\n      swap1\n      sstore\n      pop\n        /* \"@openzeppelin/contracts/security/ReentrancyGuard.sol\":2629:2838  function _nonReentrantAfter() private {... */\n      jump\t// out\n        /* \"@openzeppelin/contracts/token/ERC20/ERC20.sol\":9701:10133  function _approve(address owner, address spender, uint256 value, bool emitEvent) internal virtual {... */\n    tag_386:\n        /* \"@openzeppelin/contracts/token/ERC20/ERC20.sol\":9830:9831  0 */\n      0x00\n        /* \"@openzeppelin/contracts/token/ERC20/ERC20.sol\":9813:9832  owner == address(0) */\n      0xffffffffffffffffffffffffffffffffffffffff\n      and\n        /* \"@openzeppelin/contracts/token/ERC20/ERC20.sol\":9813:9818  owner */\n      dup5\n        /* \"@openzeppelin/contracts/token/ERC20/ERC20.sol\":9813:9832  owner == address(0) */\n      0xffffffffffffffffffffffffffffffffffffffff\n      and\n      sub\n        /* \"@openzeppelin/contracts/token/ERC20/ERC20.sol\":9809:9898  if (owner == address(0)) {... */\n      tag_429\n      jumpi\n        /* \"@openzeppelin/contracts/token/ERC20/ERC20.sol\":9884:9885  0 */\n      0x00\n        /* \"@openzeppelin/contracts/token/ERC20/ERC20.sol\":9855:9887  ERC20InvalidApprover(address(0)) */\n      mload(0x40)\n      0xe602df0500000000000000000000000000000000000000000000000000000000\n      dup2\n      mstore\n      0x04\n      add\n      tag_430\n      swap2\n      swap1\n      tag_155\n      jump\t// in\n    tag_430:\n      mload(0x40)\n      dup1\n      swap2\n      sub\n      swap1\n      revert\n        /* \"@openzeppelin/contracts/token/ERC20/ERC20.sol\":9809:9898  if (owner == address(0)) {... */\n    tag_429:\n        /* \"@openzeppelin/contracts/token/ERC20/ERC20.sol\":9930:9931  0 */\n      0x00\n        /* \"@openzeppelin/contracts/token/ERC20/ERC20.sol\":9911:9932  spender == address(0) */\n      0xffffffffffffffffffffffffffffffffffffffff\n      and\n        /* \"@openzeppelin/contracts/token/ERC20/ERC20.sol\":9911:9918  spender */\n      dup4\n        /* \"@openzeppelin/contracts/token/ERC20/ERC20.sol\":9911:9932  spender == address(0) */\n      0xffffffffffffffffffffffffffffffffffffffff\n      and\n      sub\n        /* \"@openzeppelin/contracts/token/ERC20/ERC20.sol\":9907:9997  if (spender == address(0)) {... */\n      tag_431\n      jumpi\n        /* \"@openzeppelin/contracts/token/ERC20/ERC20.sol\":9983:9984  0 */\n      0x00\n        /* \"@openzeppelin/contracts/token/ERC20/ERC20.sol\":9955:9986  ERC20InvalidSpender(address(0)) */\n      mload(0x40)\n      0x94280d6200000000000000000000000000000000000000000000000000000000\n      dup2\n      mstore\n      0x04\n      add\n      tag_432\n      swap2\n      swap1\n      tag_155\n      jump\t// in\n    tag_432:\n      mload(0x40)\n      dup1\n      swap2\n      sub\n      swap1\n      revert\n        /* \"@openzeppelin/contracts/token/ERC20/ERC20.sol\":9907:9997  if (spender == address(0)) {... */\n    tag_431:\n        /* \"@openzeppelin/contracts/token/ERC20/ERC20.sol\":10036:10041  value */\n      dup2\n        /* \"@openzeppelin/contracts/token/ERC20/ERC20.sol\":10006:10017  _allowances */\n      0x01\n        /* \"@openzeppelin/contracts/token/ERC20/ERC20.sol\":10006:10024  _allowances[owner] */\n      0x00\n        /* \"@openzeppelin/contracts/token/ERC20/ERC20.sol\":10018:10023  owner */\n      dup7\n        /* \"@openzeppelin/contracts/token/ERC20/ERC20.sol\":10006:10024  _allowances[owner] */\n      0xffffffffffffffffffffffffffffffffffffffff\n      and\n      0xffffffffffffffffffffffffffffffffffffffff\n      and\n      dup2\n      mstore\n      0x20\n      add\n      swap1\n      dup2\n      mstore\n      0x20\n      add\n      0x00\n      keccak256\n        /* \"@openzeppelin/contracts/token/ERC20/ERC20.sol\":10006:10033  _allowances[owner][spender] */\n      0x00\n        /* \"@openzeppelin/contracts/token/ERC20/ERC20.sol\":10025:10032  spender */\n      dup6\n        /* \"@openzeppelin/contracts/token/ERC20/ERC20.sol\":10006:10033  _allowances[owner][spender] */\n      0xffffffffffffffffffffffffffffffffffffffff\n      and\n      0xffffffffffffffffffffffffffffffffffffffff\n      and\n      dup2\n      mstore\n      0x20\n      add\n      swap1\n      dup2\n      mstore\n      0x20\n      add\n      0x00\n      keccak256\n        /* \"@openzeppelin/contracts/token/ERC20/ERC20.sol\":10006:10041  _allowances[owner][spender] = value */\n      dup2\n      swap1\n      sstore\n      pop\n        /* \"@openzeppelin/contracts/token/ERC20/ERC20.sol\":10055:10064  emitEvent */\n      dup1\n        /* \"@openzeppelin/contracts/token/ERC20/ERC20.sol\":10051:10127  if (emitEvent) {... */\n      iszero\n      tag_433\n      jumpi\n        /* \"@openzeppelin/contracts/token/ERC20/ERC20.sol\":10101:10108  spender */\n      dup3\n        /* \"@openzeppelin/contracts/token/ERC20/ERC20.sol\":10085:10116  Approval(owner, spender, value) */\n      0xffffffffffffffffffffffffffffffffffffffff\n      and\n        /* \"@openzeppelin/contracts/token/ERC20/ERC20.sol\":10094:10099  owner */\n      dup5\n        /* \"@openzeppelin/contracts/token/ERC20/ERC20.sol\":10085:10116  Approval(owner, spender, value) */\n      0xffffffffffffffffffffffffffffffffffffffff\n      and\n      0x8c5be1e5ebec7d5bd14f71427d1e84f3dd0314c0f7b2291e5b200ac8c7c3b925\n        /* \"@openzeppelin/contracts/token/ERC20/ERC20.sol\":10110:10115  value */\n      dup5\n        /* \"@openzeppelin/contracts/token/ERC20/ERC20.sol\":10085:10116  Approval(owner, spender, value) */\n      mload(0x40)\n      tag_434\n      swap2\n      swap1\n      tag_91\n      jump\t// in\n    tag_434:\n      mload(0x40)\n      dup1\n      swap2\n      sub\n      swap1\n      log3\n        /* \"@openzeppelin/contracts/token/ERC20/ERC20.sol\":10051:10127  if (emitEvent) {... */\n    tag_433:\n        /* \"@openzeppelin/contracts/token/ERC20/ERC20.sol\":9701:10133  function _approve(address owner, address spender, uint256 value, bool emitEvent) internal virtual {... */\n      pop\n      pop\n      pop\n      pop\n      jump\t// out\n        /* \"@openzeppelin/contracts/access/AccessControl.sol\":3432:3629  function _checkRole(bytes32 role, address account) internal view virtual {... */\n    tag_390:\n        /* \"@openzeppelin/contracts/access/AccessControl.sol\":3520:3542  hasRole(role, account) */\n      tag_436\n        /* \"@openzeppelin/contracts/access/AccessControl.sol\":3528:3532  role */\n      dup3\n        /* \"@openzeppelin/contracts/access/AccessControl.sol\":3534:3541  account */\n      dup3\n        /* \"@openzeppelin/contracts/access/AccessControl.sol\":3520:3527  hasRole */\n      tag_180\n        /* \"@openzeppelin/contracts/access/AccessControl.sol\":3520:3542  hasRole(role, account) */\n      jump\t// in\n    tag_436:\n        /* \"@openzeppelin/contracts/access/AccessControl.sol\":3515:3623  if (!hasRole(role, account)) {... */\n      tag_437\n      jumpi\n        /* \"@openzeppelin/contracts/access/AccessControl.sol\":3598:3605  account */\n      dup1\n        /* \"@openzeppelin/contracts/access/AccessControl.sol\":3607:3611  role */\n      dup3\n        /* \"@openzeppelin/contracts/access/AccessControl.sol\":3565:3612  AccessControlUnauthorizedAccount(account, role) */\n      mload(0x40)\n      0xe2517d3f00000000000000000000000000000000000000000000000000000000\n      dup2\n      mstore\n      0x04\n      add\n      tag_438\n      swap3\n      swap2\n      swap1\n      tag_439\n      jump\t// in\n    tag_438:\n      mload(0x40)\n      dup1\n      swap2\n      sub\n      swap1\n      revert\n        /* \"@openzeppelin/contracts/access/AccessControl.sol\":3515:3623  if (!hasRole(role, account)) {... */\n    tag_437:\n        /* \"@openzeppelin/contracts/access/AccessControl.sol\":3432:3629  function _checkRole(bytes32 role, address account) internal view virtual {... */\n      pop\n      pop\n      jump\t// out\n        /* \"@openzeppelin/contracts/token/ERC20/ERC20.sol\":6008:7115  function _update(address from, address to, uint256 value) internal virtual {... */\n    tag_404:\n        /* \"@openzeppelin/contracts/token/ERC20/ERC20.sol\":6113:6114  0 */\n      0x00\n        /* \"@openzeppelin/contracts/token/ERC20/ERC20.sol\":6097:6115  from == address(0) */\n      0xffffffffffffffffffffffffffffffffffffffff\n      and\n        /* \"@openzeppelin/contracts/token/ERC20/ERC20.sol\":6097:6101  from */\n      dup4\n        /* \"@openzeppelin/contracts/token/ERC20/ERC20.sol\":6097:6115  from == address(0) */\n      0xffffffffffffffffffffffffffffffffffffffff\n      and\n      sub\n        /* \"@openzeppelin/contracts/token/ERC20/ERC20.sol\":6093:6633  if (from == address(0)) {... */\n      tag_441\n      jumpi\n        /* \"@openzeppelin/contracts/token/ERC20/ERC20.sol\":6249:6254  value */\n      dup1\n        /* \"@openzeppelin/contracts/token/ERC20/ERC20.sol\":6233:6245  _totalSupply */\n      0x02\n      0x00\n        /* \"@openzeppelin/contracts/token/ERC20/ERC20.sol\":6233:6254  _totalSupply += value */\n      dup3\n      dup3\n      sload\n      tag_442\n      swap2\n      swap1\n      tag_443\n      jump\t// in\n    tag_442:\n      swap3\n      pop\n      pop\n      dup2\n      swap1\n      sstore\n      pop\n        /* \"@openzeppelin/contracts/token/ERC20/ERC20.sol\":6093:6633  if (from == address(0)) {... */\n      jump(tag_444)\n    tag_441:\n        /* \"@openzeppelin/contracts/token/ERC20/ERC20.sol\":6285:6304  uint256 fromBalance */\n      0x00\n        /* \"@openzeppelin/contracts/token/ERC20/ERC20.sol\":6307:6316  _balances */\n      0x00\n        /* \"@openzeppelin/contracts/token/ERC20/ERC20.sol\":6307:6322  _balances[from] */\n      0x00\n        /* \"@openzeppelin/contracts/token/ERC20/ERC20.sol\":6317:6321  from */\n      dup6\n        /* \"@openzeppelin/contracts/token/ERC20/ERC20.sol\":6307:6322  _balances[from] */\n      0xffffffffffffffffffffffffffffffffffffffff\n      and\n      0xffffffffffffffffffffffffffffffffffffffff\n      and\n      dup2\n      mstore\n      0x20\n      add\n      swap1\n      dup2\n      mstore\n      0x20\n      add\n      0x00\n      keccak256\n      sload\n        /* \"@openzeppelin/contracts/token/ERC20/ERC20.sol\":6285:6322  uint256 fromBalance = _balances[from] */\n      swap1\n      pop\n        /* \"@openzeppelin/contracts/token/ERC20/ERC20.sol\":6354:6359  value */\n      dup2\n        /* \"@openzeppelin/contracts/token/ERC20/ERC20.sol\":6340:6351  fromBalance */\n      dup2\n        /* \"@openzeppelin/contracts/token/ERC20/ERC20.sol\":6340:6359  fromBalance < value */\n      lt\n        /* \"@openzeppelin/contracts/token/ERC20/ERC20.sol\":6336:6451  if (fromBalance < value) {... */\n      iszero\n      tag_445\n      jumpi\n        /* \"@openzeppelin/contracts/token/ERC20/ERC20.sol\":6411:6415  from */\n      dup4\n        /* \"@openzeppelin/contracts/token/ERC20/ERC20.sol\":6417:6428  fromBalance */\n      dup2\n        /* \"@openzeppelin/contracts/token/ERC20/ERC20.sol\":6430:6435  value */\n      dup4\n        /* \"@openzeppelin/contracts/token/ERC20/ERC20.sol\":6386:6436  ERC20InsufficientBalance(from, fromBalance, value) */\n      mload(0x40)\n      0xe450d38c00000000000000000000000000000000000000000000000000000000\n      dup2\n      mstore\n      0x04\n      add\n      tag_446\n      swap4\n      swap3\n      swap2\n      swap1\n      tag_396\n      jump\t// in\n    tag_446:\n      mload(0x40)\n      dup1\n      swap2\n      sub\n      swap1\n      revert\n        /* \"@openzeppelin/contracts/token/ERC20/ERC20.sol\":6336:6451  if (fromBalance < value) {... */\n    tag_445:\n        /* \"@openzeppelin/contracts/token/ERC20/ERC20.sol\":6603:6608  value */\n      dup2\n        /* \"@openzeppelin/contracts/token/ERC20/ERC20.sol\":6589:6600  fromBalance */\n      dup2\n        /* \"@openzeppelin/contracts/token/ERC20/ERC20.sol\":6589:6608  fromBalance - value */\n      sub\n        /* \"@openzeppelin/contracts/token/ERC20/ERC20.sol\":6571:6580  _balances */\n      0x00\n        /* \"@openzeppelin/contracts/token/ERC20/ERC20.sol\":6571:6586  _balances[from] */\n      0x00\n        /* \"@openzeppelin/contracts/token/ERC20/ERC20.sol\":6581:6585  from */\n      dup7\n        /* \"@openzeppelin/contracts/token/ERC20/ERC20.sol\":6571:6586  _balances[from] */\n      0xffffffffffffffffffffffffffffffffffffffff\n      and\n      0xffffffffffffffffffffffffffffffffffffffff\n      and\n      dup2\n      mstore\n      0x20\n      add\n      swap1\n      dup2\n      mstore\n      0x20\n      add\n      0x00\n      keccak256\n        /* \"@openzeppelin/contracts/token/ERC20/ERC20.sol\":6571:6608  _balances[from] = fromBalance - value */\n      dup2\n      swap1\n      sstore\n      pop\n        /* \"@openzeppelin/contracts/token/ERC20/ERC20.sol\":6271:6633  {... */\n      pop\n        /* \"@openzeppelin/contracts/token/ERC20/ERC20.sol\":6093:6633  if (from == address(0)) {... */\n    tag_444:\n        /* \"@openzeppelin/contracts/token/ERC20/ERC20.sol\":6661:6662  0 */\n      0x00\n        /* \"@openzeppelin/contracts/token/ERC20/ERC20.sol\":6647:6663  to == address(0) */\n      0xffffffffffffffffffffffffffffffffffffffff\n      and\n        /* \"@openzeppelin/contracts/token/ERC20/ERC20.sol\":6647:6649  to */\n      dup3\n        /* \"@openzeppelin/contracts/token/ERC20/ERC20.sol\":6647:6663  to == address(0) */\n      0xffffffffffffffffffffffffffffffffffffffff\n      and\n      sub\n        /* \"@openzeppelin/contracts/token/ERC20/ERC20.sol\":6643:7068  if (to == address(0)) {... */\n      tag_447\n      jumpi\n        /* \"@openzeppelin/contracts/token/ERC20/ERC20.sol\":6826:6831  value */\n      dup1\n        /* \"@openzeppelin/contracts/token/ERC20/ERC20.sol\":6810:6822  _totalSupply */\n      0x02\n      0x00\n        /* \"@openzeppelin/contracts/token/ERC20/ERC20.sol\":6810:6831  _totalSupply -= value */\n      dup3\n      dup3\n      sload\n      sub\n      swap3\n      pop\n      pop\n      dup2\n      swap1\n      sstore\n      pop\n        /* \"@openzeppelin/contracts/token/ERC20/ERC20.sol\":6643:7068  if (to == address(0)) {... */\n      jump(tag_448)\n    tag_447:\n        /* \"@openzeppelin/contracts/token/ERC20/ERC20.sol\":7038:7043  value */\n      dup1\n        /* \"@openzeppelin/contracts/token/ERC20/ERC20.sol\":7021:7030  _balances */\n      0x00\n        /* \"@openzeppelin/contracts/token/ERC20/ERC20.sol\":7021:7034  _balances[to] */\n      0x00\n        /* \"@openzeppelin/contracts/token/ERC20/ERC20.sol\":7031:7033  to */\n      dup5\n        /* \"@openzeppelin/contracts/token/ERC20/ERC20.sol\":7021:7034  _balances[to] */\n      0xffffffffffffffffffffffffffffffffffffffff\n      and\n      0xffffffffffffffffffffffffffffffffffffffff\n      and\n      dup2\n      mstore\n      0x20\n      add\n      swap1\n      dup2\n      mstore\n      0x20\n      add\n      0x00\n      keccak256\n      0x00\n        /* \"@openzeppelin/contracts/token/ERC20/ERC20.sol\":7021:7043  _balances[to] += value */\n      dup3\n      dup3\n      sload\n      add\n      swap3\n      pop\n      pop\n      dup2\n      swap1\n      sstore\n      pop\n        /* \"@openzeppelin/contracts/token/ERC20/ERC20.sol\":6643:7068  if (to == address(0)) {... */\n    tag_448:\n        /* \"@openzeppelin/contracts/token/ERC20/ERC20.sol\":7098:7100  to */\n      dup2\n        /* \"@openzeppelin/contracts/token/ERC20/ERC20.sol\":7083:7108  Transfer(from, to, value) */\n      0xffffffffffffffffffffffffffffffffffffffff\n      and\n        /* \"@openzeppelin/contracts/token/ERC20/ERC20.sol\":7092:7096  from */\n      dup4\n        /* \"@openzeppelin/contracts/token/ERC20/ERC20.sol\":7083:7108  Transfer(from, to, value) */\n      0xffffffffffffffffffffffffffffffffffffffff\n      and\n      0xddf252ad1be2c89b69c2b068fc378daa952ba7f163c4a11628f55a4df523b3ef\n        /* \"@openzeppelin/contracts/token/ERC20/ERC20.sol\":7102:7107  value */\n      dup4\n        /* \"@openzeppelin/contracts/token/ERC20/ERC20.sol\":7083:7108  Transfer(from, to, value) */\n      mload(0x40)\n      tag_449\n      swap2\n      swap1\n      tag_91\n      jump\t// in\n    tag_449:\n      mload(0x40)\n      dup1\n      swap2\n      sub\n      swap1\n      log3\n        /* \"@openzeppelin/contracts/token/ERC20/ERC20.sol\":6008:7115  function _update(address from, address to, uint256 value) internal virtual {... */\n      pop\n      pop\n      pop\n      jump\t// out\n        /* \"#utility.yul\":88:205   */\n    tag_451:\n        /* \"#utility.yul\":197:198   */\n      0x00\n        /* \"#utility.yul\":194:195   */\n      0x00\n        /* \"#utility.yul\":187:199   */\n      revert\n        /* \"#utility.yul\":334:483   */\n    tag_453:\n        /* \"#utility.yul\":370:377   */\n      0x00\n        /* \"#utility.yul\":410:476   */\n      0xffffffff00000000000000000000000000000000000000000000000000000000\n        /* \"#utility.yul\":403:408   */\n      dup3\n        /* \"#utility.yul\":399:477   */\n      and\n        /* \"#utility.yul\":388:477   */\n      swap1\n      pop\n        /* \"#utility.yul\":334:483   */\n      swap2\n      swap1\n      pop\n      jump\t// out\n        /* \"#utility.yul\":489:609   */\n    tag_454:\n        /* \"#utility.yul\":561:584   */\n      tag_507\n        /* \"#utility.yul\":578:583   */\n      dup2\n        /* \"#utility.yul\":561:584   */\n      tag_453\n      jump\t// in\n    tag_507:\n        /* \"#utility.yul\":554:559   */\n      dup2\n        /* \"#utility.yul\":551:585   */\n      eq\n        /* \"#utility.yul\":541:603   */\n      tag_508\n      jumpi\n        /* \"#utility.yul\":599:600   */\n      0x00\n        /* \"#utility.yul\":596:597   */\n      0x00\n        /* \"#utility.yul\":589:601   */\n      revert\n        /* \"#utility.yul\":541:603   */\n    tag_508:\n        /* \"#utility.yul\":489:609   */\n      pop\n      jump\t// out\n        /* \"#utility.yul\":615:752   */\n    tag_455:\n        /* \"#utility.yul\":660:665   */\n      0x00\n        /* \"#utility.yul\":698:704   */\n      dup2\n        /* \"#utility.yul\":685:705   */\n      calldataload\n        /* \"#utility.yul\":676:705   */\n      swap1\n      pop\n        /* \"#utility.yul\":714:746   */\n      tag_510\n        /* \"#utility.yul\":740:745   */\n      dup2\n        /* \"#utility.yul\":714:746   */\n      tag_454\n      jump\t// in\n    tag_510:\n        /* \"#utility.yul\":615:752   */\n      swap3\n      swap2\n      pop\n      pop\n      jump\t// out\n        /* \"#utility.yul\":758:1085   */\n    tag_57:\n        /* \"#utility.yul\":816:822   */\n      0x00\n        /* \"#utility.yul\":865:867   */\n      0x20\n        /* \"#utility.yul\":853:862   */\n      dup3\n        /* \"#utility.yul\":844:851   */\n      dup5\n        /* \"#utility.yul\":840:863   */\n      sub\n        /* \"#utility.yul\":836:868   */\n      slt\n        /* \"#utility.yul\":833:952   */\n      iszero\n      tag_512\n      jumpi\n        /* \"#utility.yul\":871:950   */\n      tag_513\n      tag_451\n      jump\t// in\n    tag_513:\n        /* \"#utility.yul\":833:952   */\n    tag_512:\n        /* \"#utility.yul\":991:992   */\n      0x00\n        /* \"#utility.yul\":1016:1068   */\n      tag_514\n        /* \"#utility.yul\":1060:1067   */\n      dup5\n        /* \"#utility.yul\":1051:1057   */\n      dup3\n        /* \"#utility.yul\":1040:1049   */\n      dup6\n        /* \"#utility.yul\":1036:1058   */\n      add\n        /* \"#utility.yul\":1016:1068   */\n      tag_455\n      jump\t// in\n    tag_514:\n        /* \"#utility.yul\":1006:1068   */\n      swap2\n      pop\n        /* \"#utility.yul\":962:1078   */\n      pop\n        /* \"#utility.yul\":758:1085   */\n      swap3\n      swap2\n      pop\n      pop\n      jump\t// out\n        /* \"#utility.yul\":1091:1181   */\n    tag_456:\n        /* \"#utility.yul\":1125:1132   */\n      0x00\n        /* \"#utility.yul\":1168:1173   */\n      dup2\n        /* \"#utility.yul\":1161:1174   */\n      iszero\n        /* \"#utility.yul\":1154:1175   */\n      iszero\n        /* \"#utility.yul\":1143:1175   */\n      swap1\n      pop\n        /* \"#utility.yul\":1091:1181   */\n      swap2\n      swap1\n      pop\n      jump\t// out\n        /* \"#utility.yul\":1187:1296   */\n    tag_457:\n        /* \"#utility.yul\":1268:1289   */\n      tag_517\n        /* \"#utility.yul\":1283:1288   */\n      dup2\n        /* \"#utility.yul\":1268:1289   */\n      tag_456\n      jump\t// in\n    tag_517:\n        /* \"#utility.yul\":1263:1266   */\n      dup3\n        /* \"#utility.yul\":1256:1290   */\n      mstore\n        /* \"#utility.yul\":1187:1296   */\n      pop\n      pop\n      jump\t// out\n        /* \"#utility.yul\":1302:1512   */\n    tag_60:\n        /* \"#utility.yul\":1389:1393   */\n      0x00\n        /* \"#utility.yul\":1427:1429   */\n      0x20\n        /* \"#utility.yul\":1416:1425   */\n      dup3\n        /* \"#utility.yul\":1412:1430   */\n      add\n        /* \"#utility.yul\":1404:1430   */\n      swap1\n      pop\n        /* \"#utility.yul\":1440:1505   */\n      tag_519\n        /* \"#utility.yul\":1502:1503   */\n      0x00\n        /* \"#utility.yul\":1491:1500   */\n      dup4\n        /* \"#utility.yul\":1487:1504   */\n      add\n        /* \"#utility.yul\":1478:1484   */\n      dup5\n        /* \"#utility.yul\":1440:1505   */\n      tag_457\n      jump\t// in\n    tag_519:\n        /* \"#utility.yul\":1302:1512   */\n      swap3\n      swap2\n      pop\n      pop\n      jump\t// out\n        /* \"#utility.yul\":1518:1617   */\n    tag_458:\n        /* \"#utility.yul\":1570:1576   */\n      0x00\n        /* \"#utility.yul\":1604:1609   */\n      dup2\n        /* \"#utility.yul\":1598:1610   */\n      mload\n        /* \"#utility.yul\":1588:1610   */\n      swap1\n      pop\n        /* \"#utility.yul\":1518:1617   */\n      swap2\n      swap1\n      pop\n      jump\t// out\n        /* \"#utility.yul\":1623:1792   */\n    tag_459:\n        /* \"#utility.yul\":1707:1718   */\n      0x00\n        /* \"#utility.yul\":1741:1747   */\n      dup3\n        /* \"#utility.yul\":1736:1739   */\n      dup3\n        /* \"#utility.yul\":1729:1748   */\n      mstore\n        /* \"#utility.yul\":1781:1785   */\n      0x20\n        /* \"#utility.yul\":1776:1779   */\n      dup3\n        /* \"#utility.yul\":1772:1786   */\n      add\n        /* \"#utility.yul\":1757:1786   */\n      swap1\n      pop\n        /* \"#utility.yul\":1623:1792   */\n      swap3\n      swap2\n      pop\n      pop\n      jump\t// out\n        /* \"#utility.yul\":1798:1937   */\n    tag_460:\n        /* \"#utility.yul\":1887:1893   */\n      dup3\n        /* \"#utility.yul\":1882:1885   */\n      dup2\n        /* \"#utility.yul\":1877:1880   */\n      dup4\n        /* \"#utility.yul\":1871:1894   */\n      mcopy\n        /* \"#utility.yul\":1928:1929   */\n      0x00\n        /* \"#utility.yul\":1919:1925   */\n      dup4\n        /* \"#utility.yul\":1914:1917   */\n      dup4\n        /* \"#utility.yul\":1910:1926   */\n      add\n        /* \"#utility.yul\":1903:1930   */\n      mstore\n        /* \"#utility.yul\":1798:1937   */\n      pop\n      pop\n      pop\n      jump\t// out\n        /* \"#utility.yul\":1943:2045   */\n    tag_461:\n        /* \"#utility.yul\":1984:1990   */\n      0x00\n        /* \"#utility.yul\":2035:2037   */\n      0x1f\n        /* \"#utility.yul\":2031:2038   */\n      not\n        /* \"#utility.yul\":2026:2028   */\n      0x1f\n        /* \"#utility.yul\":2019:2024   */\n      dup4\n        /* \"#utility.yul\":2015:2029   */\n      add\n        /* \"#utility.yul\":2011:2039   */\n      and\n        /* \"#utility.yul\":2001:2039   */\n      swap1\n      pop\n        /* \"#utility.yul\":1943:2045   */\n      swap2\n      swap1\n      pop\n      jump\t// out\n        /* \"#utility.yul\":2051:2428   */\n    tag_462:\n        /* \"#utility.yul\":2139:2142   */\n      0x00\n        /* \"#utility.yul\":2167:2206   */\n      tag_525\n        /* \"#utility.yul\":2200:2205   */\n      dup3\n        /* \"#utility.yul\":2167:2206   */\n      tag_458\n      jump\t// in\n    tag_525:\n        /* \"#utility.yul\":2222:2293   */\n      tag_526\n        /* \"#utility.yul\":2286:2292   */\n      dup2\n        /* \"#utility.yul\":2281:2284   */\n      dup6\n        /* \"#utility.yul\":2222:2293   */\n      tag_459\n      jump\t// in\n    tag_526:\n        /* \"#utility.yul\":2215:2293   */\n      swap4\n      pop\n        /* \"#utility.yul\":2302:2367   */\n      tag_527\n        /* \"#utility.yul\":2360:2366   */\n      dup2\n        /* \"#utility.yul\":2355:2358   */\n      dup6\n        /* \"#utility.yul\":2348:2352   */\n      0x20\n        /* \"#utility.yul\":2341:2346   */\n      dup7\n        /* \"#utility.yul\":2337:2353   */\n      add\n        /* \"#utility.yul\":2302:2367   */\n      tag_460\n      jump\t// in\n    tag_527:\n        /* \"#utility.yul\":2392:2421   */\n      tag_528\n        /* \"#utility.yul\":2414:2420   */\n      dup2\n        /* \"#utility.yul\":2392:2421   */\n      tag_461\n      jump\t// in\n    tag_528:\n        /* \"#utility.yul\":2387:2390   */\n      dup5\n        /* \"#utility.yul\":2383:2422   */\n      add\n        /* \"#utility.yul\":2376:2422   */\n      swap2\n      pop\n        /* \"#utility.yul\":2143:2428   */\n      pop\n        /* \"#utility.yul\":2051:2428   */\n      swap3\n      swap2\n      pop\n      pop\n      jump\t// out\n        /* \"#utility.yul\":2434:2747   */\n    tag_65:\n        /* \"#utility.yul\":2547:2551   */\n      0x00\n        /* \"#utility.yul\":2585:2587   */\n      0x20\n        /* \"#utility.yul\":2574:2583   */\n      dup3\n        /* \"#utility.yul\":2570:2588   */\n      add\n        /* \"#utility.yul\":2562:2588   */\n      swap1\n      pop\n        /* \"#utility.yul\":2634:2643   */\n      dup2\n        /* \"#utility.yul\":2628:2632   */\n      dup2\n        /* \"#utility.yul\":2624:2644   */\n      sub\n        /* \"#utility.yul\":2620:2621   */\n      0x00\n        /* \"#utility.yul\":2609:2618   */\n      dup4\n        /* \"#utility.yul\":2605:2622   */\n      add\n        /* \"#utility.yul\":2598:2645   */\n      mstore\n        /* \"#utility.yul\":2662:2740   */\n      tag_530\n        /* \"#utility.yul\":2735:2739   */\n      dup2\n        /* \"#utility.yul\":2726:2732   */\n      dup5\n        /* \"#utility.yul\":2662:2740   */\n      tag_462\n      jump\t// in\n    tag_530:\n        /* \"#utility.yul\":2654:2740   */\n      swap1\n      pop\n        /* \"#utility.yul\":2434:2747   */\n      swap3\n      swap2\n      pop\n      pop\n      jump\t// out\n        /* \"#utility.yul\":2753:2879   */\n    tag_463:\n        /* \"#utility.yul\":2790:2797   */\n      0x00\n        /* \"#utility.yul\":2830:2872   */\n      0xffffffffffffffffffffffffffffffffffffffff\n        /* \"#utility.yul\":2823:2828   */\n      dup3\n        /* \"#utility.yul\":2819:2873   */\n      and\n        /* \"#utility.yul\":2808:2873   */\n      swap1\n      pop\n        /* \"#utility.yul\":2753:2879   */\n      swap2\n      swap1\n      pop\n      jump\t// out\n        /* \"#utility.yul\":2885:2981   */\n    tag_464:\n        /* \"#utility.yul\":2922:2929   */\n      0x00\n        /* \"#utility.yul\":2951:2975   */\n      tag_533\n        /* \"#utility.yul\":2969:2974   */\n      dup3\n        /* \"#utility.yul\":2951:2975   */\n      tag_463\n      jump\t// in\n    tag_533:\n        /* \"#utility.yul\":2940:2975   */\n      swap1\n      pop\n        /* \"#utility.yul\":2885:2981   */\n      swap2\n      swap1\n      pop\n      jump\t// out\n        /* \"#utility.yul\":2987:3109   */\n    tag_465:\n        /* \"#utility.yul\":3060:3084   */\n      tag_535\n        /* \"#utility.yul\":3078:3083   */\n      dup2\n        /* \"#utility.yul\":3060:3084   */\n      tag_464\n      jump\t// in\n    tag_535:\n        /* \"#utility.yul\":3053:3058   */\n      dup2\n        /* \"#utility.yul\":3050:3085   */\n      eq\n        /* \"#utility.yul\":3040:3103   */\n      tag_536\n      jumpi\n        /* \"#utility.yul\":3099:3100   */\n      0x00\n        /* \"#utility.yul\":3096:3097   */\n      0x00\n        /* \"#utility.yul\":3089:3101   */\n      revert\n        /* \"#utility.yul\":3040:3103   */\n    tag_536:\n        /* \"#utility.yul\":2987:3109   */\n      pop\n      jump\t// out\n        /* \"#utility.yul\":3115:3254   */\n    tag_466:\n        /* \"#utility.yul\":3161:3166   */\n      0x00\n        /* \"#utility.yul\":3199:3205   */\n      dup2\n        /* \"#utility.yul\":3186:3206   */\n      calldataload\n        /* \"#utility.yul\":3177:3206   */\n      swap1\n      pop\n        /* \"#utility.yul\":3215:3248   */\n      tag_538\n        /* \"#utility.yul\":3242:3247   */\n      dup2\n        /* \"#utility.yul\":3215:3248   */\n      tag_465\n      jump\t// in\n    tag_538:\n        /* \"#utility.yul\":3115:3254   */\n      swap3\n      swap2\n      pop\n      pop\n      jump\t// out\n        /* \"#utility.yul\":3260:3337   */\n    tag_467:\n        /* \"#utility.yul\":3297:3304   */\n      0x00\n        /* \"#utility.yul\":3326:3331   */\n      dup2\n        /* \"#utility.yul\":3315:3331   */\n      swap1\n      pop\n        /* \"#utility.yul\":3260:3337   */\n      swap2\n      swap1\n      pop\n      jump\t// out\n        /* \"#utility.yul\":3343:3465   */\n    tag_468:\n        /* \"#utility.yul\":3416:3440   */\n      tag_541\n        /* \"#utility.yul\":3434:3439   */\n      dup2\n        /* \"#utility.yul\":3416:3440   */\n      tag_467\n      jump\t// in\n    tag_541:\n        /* \"#utility.yul\":3409:3414   */\n      dup2\n        /* \"#utility.yul\":3406:3441   */\n      eq\n        /* \"#utility.yul\":3396:3459   */\n      tag_542\n      jumpi\n        /* \"#utility.yul\":3455:3456   */\n      0x00\n        /* \"#utility.yul\":3452:3453   */\n      0x00\n        /* \"#utility.yul\":3445:3457   */\n      revert\n        /* \"#utility.yul\":3396:3459   */\n    tag_542:\n        /* \"#utility.yul\":3343:3465   */\n      pop\n      jump\t// out\n        /* \"#utility.yul\":3471:3610   */\n    tag_469:\n        /* \"#utility.yul\":3517:3522   */\n      0x00\n        /* \"#utility.yul\":3555:3561   */\n      dup2\n        /* \"#utility.yul\":3542:3562   */\n      calldataload\n        /* \"#utility.yul\":3533:3562   */\n      swap1\n      pop\n        /* \"#utility.yul\":3571:3604   */\n      tag_544\n        /* \"#utility.yul\":3598:3603   */\n      dup2\n        /* \"#utility.yul\":3571:3604   */\n      tag_468\n      jump\t// in\n    tag_544:\n        /* \"#utility.yul\":3471:3610   */\n      swap3\n      swap2\n      pop\n      pop\n      jump\t// out\n        /* \"#utility.yul\":3616:4090   */\n    tag_69:\n        /* \"#utility.yul\":3684:3690   */\n      0x00\n        /* \"#utility.yul\":3692:3698   */\n      0x00\n        /* \"#utility.yul\":3741:3743   */\n      0x40\n        /* \"#utility.yul\":3729:3738   */\n      dup4\n        /* \"#utility.yul\":3720:3727   */\n      dup6\n        /* \"#utility.yul\":3716:3739   */\n      sub\n        /* \"#utility.yul\":3712:3744   */\n      slt\n        /* \"#utility.yul\":3709:3828   */\n      iszero\n      tag_546\n      jumpi\n        /* \"#utility.yul\":3747:3826   */\n      tag_547\n      tag_451\n      jump\t// in\n    tag_547:\n        /* \"#utility.yul\":3709:3828   */\n    tag_546:\n        /* \"#utility.yul\":3867:3868   */\n      0x00\n        /* \"#utility.yul\":3892:3945   */\n      tag_548\n        /* \"#utility.yul\":3937:3944   */\n      dup6\n        /* \"#utility.yul\":3928:3934   */\n      dup3\n        /* \"#utility.yul\":3917:3926   */\n      dup7\n        /* \"#utility.yul\":3913:3935   */\n      add\n        /* \"#utility.yul\":3892:3945   */\n      tag_466\n      jump\t// in\n    tag_548:\n        /* \"#utility.yul\":3882:3945   */\n      swap3\n      pop\n        /* \"#utility.yul\":3838:3955   */\n      pop\n        /* \"#utility.yul\":3994:3996   */\n      0x20\n        /* \"#utility.yul\":4020:4073   */\n      tag_549\n        /* \"#utility.yul\":4065:4072   */\n      dup6\n        /* \"#utility.yul\":4056:4062   */\n      dup3\n        /* \"#utility.yul\":4045:4054   */\n      dup7\n        /* \"#utility.yul\":4041:4063   */\n      add\n        /* \"#utility.yul\":4020:4073   */\n      tag_469\n      jump\t// in\n    tag_549:\n        /* \"#utility.yul\":4010:4073   */\n      swap2\n      pop\n        /* \"#utility.yul\":3965:4083   */\n      pop\n        /* \"#utility.yul\":3616:4090   */\n      swap3\n      pop\n      swap3\n      swap1\n      pop\n      jump\t// out\n        /* \"#utility.yul\":4096:4200   */\n    tag_470:\n        /* \"#utility.yul\":4141:4148   */\n      0x00\n        /* \"#utility.yul\":4170:4194   */\n      tag_551\n        /* \"#utility.yul\":4188:4193   */\n      dup3\n        /* \"#utility.yul\":4170:4194   */\n      tag_463\n      jump\t// in\n    tag_551:\n        /* \"#utility.yul\":4159:4194   */\n      swap1\n      pop\n        /* \"#utility.yul\":4096:4200   */\n      swap2\n      swap1\n      pop\n      jump\t// out\n        /* \"#utility.yul\":4206:4344   */\n    tag_471:\n        /* \"#utility.yul\":4287:4319   */\n      tag_553\n        /* \"#utility.yul\":4313:4318   */\n      dup2\n        /* \"#utility.yul\":4287:4319   */\n      tag_470\n      jump\t// in\n    tag_553:\n        /* \"#utility.yul\":4280:4285   */\n      dup2\n        /* \"#utility.yul\":4277:4320   */\n      eq\n        /* \"#utility.yul\":4267:4338   */\n      tag_554\n      jumpi\n        /* \"#utility.yul\":4334:4335   */\n      0x00\n        /* \"#utility.yul\":4331:4332   */\n      0x00\n        /* \"#utility.yul\":4324:4336   */\n      revert\n        /* \"#utility.yul\":4267:4338   */\n    tag_554:\n        /* \"#utility.yul\":4206:4344   */\n      pop\n      jump\t// out\n        /* \"#utility.yul\":4350:4505   */\n    tag_472:\n        /* \"#utility.yul\":4404:4409   */\n      0x00\n        /* \"#utility.yul\":4442:4448   */\n      dup2\n        /* \"#utility.yul\":4429:4449   */\n      calldataload\n        /* \"#utility.yul\":4420:4449   */\n      swap1\n      pop\n        /* \"#utility.yul\":4458:4499   */\n      tag_556\n        /* \"#utility.yul\":4493:4498   */\n      dup2\n        /* \"#utility.yul\":4458:4499   */\n      tag_471\n      jump\t// in\n    tag_556:\n        /* \"#utility.yul\":4350:4505   */\n      swap3\n      swap2\n      pop\n      pop\n      jump\t// out\n        /* \"#utility.yul\":4511:5001   */\n    tag_75:\n        /* \"#utility.yul\":4587:4593   */\n      0x00\n        /* \"#utility.yul\":4595:4601   */\n      0x00\n        /* \"#utility.yul\":4644:4646   */\n      0x40\n        /* \"#utility.yul\":4632:4641   */\n      dup4\n        /* \"#utility.yul\":4623:4630   */\n      dup6\n        /* \"#utility.yul\":4619:4642   */\n      sub\n        /* \"#utility.yul\":4615:4647   */\n      slt\n        /* \"#utility.yul\":4612:4731   */\n      iszero\n      tag_558\n      jumpi\n        /* \"#utility.yul\":4650:4729   */\n      tag_559\n      tag_451\n      jump\t// in\n    tag_559:\n        /* \"#utility.yul\":4612:4731   */\n    tag_558:\n        /* \"#utility.yul\":4770:4771   */\n      0x00\n        /* \"#utility.yul\":4795:4856   */\n      tag_560\n        /* \"#utility.yul\":4848:4855   */\n      dup6\n        /* \"#utility.yul\":4839:4845   */\n      dup3\n        /* \"#utility.yul\":4828:4837   */\n      dup7\n        /* \"#utility.yul\":4824:4846   */\n      add\n        /* \"#utility.yul\":4795:4856   */\n      tag_472\n      jump\t// in\n    tag_560:\n        /* \"#utility.yul\":4785:4856   */\n      swap3\n      pop\n        /* \"#utility.yul\":4741:4866   */\n      pop\n        /* \"#utility.yul\":4905:4907   */\n      0x20\n        /* \"#utility.yul\":4931:4984   */\n      tag_561\n        /* \"#utility.yul\":4976:4983   */\n      dup6\n        /* \"#utility.yul\":4967:4973   */\n      dup3\n        /* \"#utility.yul\":4956:4965   */\n      dup7\n        /* \"#utility.yul\":4952:4974   */\n      add\n        /* \"#utility.yul\":4931:4984   */\n      tag_469\n      jump\t// in\n    tag_561:\n        /* \"#utility.yul\":4921:4984   */\n      swap2\n      pop\n        /* \"#utility.yul\":4876:4994   */\n      pop\n        /* \"#utility.yul\":4511:5001   */\n      swap3\n      pop\n      swap3\n      swap1\n      pop\n      jump\t// out\n        /* \"#utility.yul\":5007:5123   */\n    tag_473:\n        /* \"#utility.yul\":5077:5098   */\n      tag_563\n        /* \"#utility.yul\":5092:5097   */\n      dup2\n        /* \"#utility.yul\":5077:5098   */\n      tag_456\n      jump\t// in\n    tag_563:\n        /* \"#utility.yul\":5070:5075   */\n      dup2\n        /* \"#utility.yul\":5067:5099   */\n      eq\n        /* \"#utility.yul\":5057:5117   */\n      tag_564\n      jumpi\n        /* \"#utility.yul\":5113:5114   */\n      0x00\n        /* \"#utility.yul\":5110:5111   */\n      0x00\n        /* \"#utility.yul\":5103:5115   */\n      revert\n        /* \"#utility.yul\":5057:5117   */\n    tag_564:\n        /* \"#utility.yul\":5007:5123   */\n      pop\n      jump\t// out\n        /* \"#utility.yul\":5129:5262   */\n    tag_474:\n        /* \"#utility.yul\":5172:5177   */\n      0x00\n        /* \"#utility.yul\":5210:5216   */\n      dup2\n        /* \"#utility.yul\":5197:5217   */\n      calldataload\n        /* \"#utility.yul\":5188:5217   */\n      swap1\n      pop\n        /* \"#utility.yul\":5226:5256   */\n      tag_566\n        /* \"#utility.yul\":5250:5255   */\n      dup2\n        /* \"#utility.yul\":5226:5256   */\n      tag_473\n      jump\t// in\n    tag_566:\n        /* \"#utility.yul\":5129:5262   */\n      swap3\n      swap2\n      pop\n      pop\n      jump\t// out\n        /* \"#utility.yul\":5268:5736   */\n    tag_80:\n        /* \"#utility.yul\":5333:5339   */\n      0x00\n        /* \"#utility.yul\":5341:5347   */\n      0x00\n        /* \"#utility.yul\":5390:5392   */\n      0x40\n        /* \"#utility.yul\":5378:5387   */\n      dup4\n        /* \"#utility.yul\":5369:5376   */\n      dup6\n        /* \"#utility.yul\":5365:5388   */\n      sub\n        /* \"#utility.yul\":5361:5393   */\n      slt\n        /* \"#utility.yul\":5358:5477   */\n      iszero\n      tag_568\n      jumpi\n        /* \"#utility.yul\":5396:5475   */\n      tag_569\n      tag_451\n      jump\t// in\n    tag_569:\n        /* \"#utility.yul\":5358:5477   */\n    tag_568:\n        /* \"#utility.yul\":5516:5517   */\n      0x00\n        /* \"#utility.yul\":5541:5594   */\n      tag_570\n        /* \"#utility.yul\":5586:5593   */\n      dup6\n        /* \"#utility.yul\":5577:5583   */\n      dup3\n        /* \"#utility.yul\":5566:5575   */\n      dup7\n        /* \"#utility.yul\":5562:5584   */\n      add\n        /* \"#utility.yul\":5541:5594   */\n      tag_466\n      jump\t// in\n    tag_570:\n        /* \"#utility.yul\":5531:5594   */\n      swap3\n      pop\n        /* \"#utility.yul\":5487:5604   */\n      pop\n        /* \"#utility.yul\":5643:5645   */\n      0x20\n        /* \"#utility.yul\":5669:5719   */\n      tag_571\n        /* \"#utility.yul\":5711:5718   */\n      dup6\n        /* \"#utility.yul\":5702:5708   */\n      dup3\n        /* \"#utility.yul\":5691:5700   */\n      dup7\n        /* \"#utility.yul\":5687:5709   */\n      add\n        /* \"#utility.yul\":5669:5719   */\n      tag_474\n      jump\t// in\n    tag_571:\n        /* \"#utility.yul\":5659:5719   */\n      swap2\n      pop\n        /* \"#utility.yul\":5614:5729   */\n      pop\n        /* \"#utility.yul\":5268:5736   */\n      swap3\n      pop\n      swap3\n      swap1\n      pop\n      jump\t// out\n        /* \"#utility.yul\":5742:5802   */\n    tag_475:\n        /* \"#utility.yul\":5770:5773   */\n      0x00\n        /* \"#utility.yul\":5791:5796   */\n      dup2\n        /* \"#utility.yul\":5784:5796   */\n      swap1\n      pop\n        /* \"#utility.yul\":5742:5802   */\n      swap2\n      swap1\n      pop\n      jump\t// out\n        /* \"#utility.yul\":5808:5950   */\n    tag_476:\n        /* \"#utility.yul\":5858:5867   */\n      0x00\n        /* \"#utility.yul\":5891:5944   */\n      tag_574\n        /* \"#utility.yul\":5909:5943   */\n      tag_575\n        /* \"#utility.yul\":5918:5942   */\n      tag_576\n        /* \"#utility.yul\":5936:5941   */\n      dup5\n        /* \"#utility.yul\":5918:5942   */\n      tag_463\n      jump\t// in\n    tag_576:\n        /* \"#utility.yul\":5909:5943   */\n      tag_475\n      jump\t// in\n    tag_575:\n        /* \"#utility.yul\":5891:5944   */\n      tag_463\n      jump\t// in\n    tag_574:\n        /* \"#utility.yul\":5878:5944   */\n      swap1\n      pop\n        /* \"#utility.yul\":5808:5950   */\n      swap2\n      swap1\n      pop\n      jump\t// out\n        /* \"#utility.yul\":5956:6082   */\n    tag_477:\n        /* \"#utility.yul\":6006:6015   */\n      0x00\n        /* \"#utility.yul\":6039:6076   */\n      tag_578\n        /* \"#utility.yul\":6070:6075   */\n      dup3\n        /* \"#utility.yul\":6039:6076   */\n      tag_476\n      jump\t// in\n    tag_578:\n        /* \"#utility.yul\":6026:6076   */\n      swap1\n      pop\n        /* \"#utility.yul\":5956:6082   */\n      swap2\n      swap1\n      pop\n      jump\t// out\n        /* \"#utility.yul\":6088:6241   */\n    tag_478:\n        /* \"#utility.yul\":6165:6174   */\n      0x00\n        /* \"#utility.yul\":6198:6235   */\n      tag_580\n        /* \"#utility.yul\":6229:6234   */\n      dup3\n        /* \"#utility.yul\":6198:6235   */\n      tag_477\n      jump\t// in\n    tag_580:\n        /* \"#utility.yul\":6185:6235   */\n      swap1\n      pop\n        /* \"#utility.yul\":6088:6241   */\n      swap2\n      swap1\n      pop\n      jump\t// out\n        /* \"#utility.yul\":6247:6432   */\n    tag_479:\n        /* \"#utility.yul\":6361:6425   */\n      tag_582\n        /* \"#utility.yul\":6419:6424   */\n      dup2\n        /* \"#utility.yul\":6361:6425   */\n      tag_478\n      jump\t// in\n    tag_582:\n        /* \"#utility.yul\":6356:6359   */\n      dup3\n        /* \"#utility.yul\":6349:6426   */\n      mstore\n        /* \"#utility.yul\":6247:6432   */\n      pop\n      pop\n      jump\t// out\n        /* \"#utility.yul\":6438:6714   */\n    tag_86:\n        /* \"#utility.yul\":6558:6562   */\n      0x00\n        /* \"#utility.yul\":6596:6598   */\n      0x20\n        /* \"#utility.yul\":6585:6594   */\n      dup3\n        /* \"#utility.yul\":6581:6599   */\n      add\n        /* \"#utility.yul\":6573:6599   */\n      swap1\n      pop\n        /* \"#utility.yul\":6609:6707   */\n      tag_584\n        /* \"#utility.yul\":6704:6705   */\n      0x00\n        /* \"#utility.yul\":6693:6702   */\n      dup4\n        /* \"#utility.yul\":6689:6706   */\n      add\n        /* \"#utility.yul\":6680:6686   */\n      dup5\n        /* \"#utility.yul\":6609:6707   */\n      tag_479\n      jump\t// in\n    tag_584:\n        /* \"#utility.yul\":6438:6714   */\n      swap3\n      swap2\n      pop\n      pop\n      jump\t// out\n        /* \"#utility.yul\":6720:6838   */\n    tag_480:\n        /* \"#utility.yul\":6807:6831   */\n      tag_586\n        /* \"#utility.yul\":6825:6830   */\n      dup2\n        /* \"#utility.yul\":6807:6831   */\n      tag_467\n      jump\t// in\n    tag_586:\n        /* \"#utility.yul\":6802:6805   */\n      dup3\n        /* \"#utility.yul\":6795:6832   */\n      mstore\n        /* \"#utility.yul\":6720:6838   */\n      pop\n      pop\n      jump\t// out\n        /* \"#utility.yul\":6844:7066   */\n    tag_91:\n        /* \"#utility.yul\":6937:6941   */\n      0x00\n        /* \"#utility.yul\":6975:6977   */\n      0x20\n        /* \"#utility.yul\":6964:6973   */\n      dup3\n        /* \"#utility.yul\":6960:6978   */\n      add\n        /* \"#utility.yul\":6952:6978   */\n      swap1\n      pop\n        /* \"#utility.yul\":6988:7059   */\n      tag_588\n        /* \"#utility.yul\":7056:7057   */\n      0x00\n        /* \"#utility.yul\":7045:7054   */\n      dup4\n        /* \"#utility.yul\":7041:7058   */\n      add\n        /* \"#utility.yul\":7032:7038   */\n      dup5\n        /* \"#utility.yul\":6988:7059   */\n      tag_480\n      jump\t// in\n    tag_588:\n        /* \"#utility.yul\":6844:7066   */\n      swap3\n      swap2\n      pop\n      pop\n      jump\t// out\n        /* \"#utility.yul\":7072:7691   */\n    tag_95:\n        /* \"#utility.yul\":7149:7155   */\n      0x00\n        /* \"#utility.yul\":7157:7163   */\n      0x00\n        /* \"#utility.yul\":7165:7171   */\n      0x00\n        /* \"#utility.yul\":7214:7216   */\n      0x60\n        /* \"#utility.yul\":7202:7211   */\n      dup5\n        /* \"#utility.yul\":7193:7200   */\n      dup7\n        /* \"#utility.yul\":7189:7212   */\n      sub\n        /* \"#utility.yul\":7185:7217   */\n      slt\n        /* \"#utility.yul\":7182:7301   */\n      iszero\n      tag_590\n      jumpi\n        /* \"#utility.yul\":7220:7299   */\n      tag_591\n      tag_451\n      jump\t// in\n    tag_591:\n        /* \"#utility.yul\":7182:7301   */\n    tag_590:\n        /* \"#utility.yul\":7340:7341   */\n      0x00\n        /* \"#utility.yul\":7365:7418   */\n      tag_592\n        /* \"#utility.yul\":7410:7417   */\n      dup7\n        /* \"#utility.yul\":7401:7407   */\n      dup3\n        /* \"#utility.yul\":7390:7399   */\n      dup8\n        /* \"#utility.yul\":7386:7408   */\n      add\n        /* \"#utility.yul\":7365:7418   */\n      tag_466\n      jump\t// in\n    tag_592:\n        /* \"#utility.yul\":7355:7418   */\n      swap4\n      pop\n        /* \"#utility.yul\":7311:7428   */\n      pop\n        /* \"#utility.yul\":7467:7469   */\n      0x20\n        /* \"#utility.yul\":7493:7546   */\n      tag_593\n        /* \"#utility.yul\":7538:7545   */\n      dup7\n        /* \"#utility.yul\":7529:7535   */\n      dup3\n        /* \"#utility.yul\":7518:7527   */\n      dup8\n        /* \"#utility.yul\":7514:7536   */\n      add\n        /* \"#utility.yul\":7493:7546   */\n      tag_466\n      jump\t// in\n    tag_593:\n        /* \"#utility.yul\":7483:7546   */\n      swap3\n      pop\n        /* \"#utility.yul\":7438:7556   */\n      pop\n        /* \"#utility.yul\":7595:7597   */\n      0x40\n        /* \"#utility.yul\":7621:7674   */\n      tag_594\n        /* \"#utility.yul\":7666:7673   */\n      dup7\n        /* \"#utility.yul\":7657:7663   */\n      dup3\n        /* \"#utility.yul\":7646:7655   */\n      dup8\n        /* \"#utility.yul\":7642:7664   */\n      add\n        /* \"#utility.yul\":7621:7674   */\n      tag_469\n      jump\t// in\n    tag_594:\n        /* \"#utility.yul\":7611:7674   */\n      swap2\n      pop\n        /* \"#utility.yul\":7566:7684   */\n      pop\n        /* \"#utility.yul\":7072:7691   */\n      swap3\n      pop\n      swap3\n      pop\n      swap3\n      jump\t// out\n        /* \"#utility.yul\":7697:7774   */\n    tag_481:\n        /* \"#utility.yul\":7734:7741   */\n      0x00\n        /* \"#utility.yul\":7763:7768   */\n      dup2\n        /* \"#utility.yul\":7752:7768   */\n      swap1\n      pop\n        /* \"#utility.yul\":7697:7774   */\n      swap2\n      swap1\n      pop\n      jump\t// out\n        /* \"#utility.yul\":7780:7902   */\n    tag_482:\n        /* \"#utility.yul\":7853:7877   */\n      tag_597\n        /* \"#utility.yul\":7871:7876   */\n      dup2\n        /* \"#utility.yul\":7853:7877   */\n      tag_481\n      jump\t// in\n    tag_597:\n        /* \"#utility.yul\":7846:7851   */\n      dup2\n        /* \"#utility.yul\":7843:7878   */\n      eq\n        /* \"#utility.yul\":7833:7896   */\n      tag_598\n      jumpi\n        /* \"#utility.yul\":7892:7893   */\n      0x00\n        /* \"#utility.yul\":7889:7890   */\n      0x00\n        /* \"#utility.yul\":7882:7894   */\n      revert\n        /* \"#utility.yul\":7833:7896   */\n    tag_598:\n        /* \"#utility.yul\":7780:7902   */\n      pop\n      jump\t// out\n        /* \"#utility.yul\":7908:8047   */\n    tag_483:\n        /* \"#utility.yul\":7954:7959   */\n      0x00\n        /* \"#utility.yul\":7992:7998   */\n      dup2\n        /* \"#utility.yul\":7979:7999   */\n      calldataload\n        /* \"#utility.yul\":7970:7999   */\n      swap1\n      pop\n        /* \"#utility.yul\":8008:8041   */\n      tag_600\n        /* \"#utility.yul\":8035:8040   */\n      dup2\n        /* \"#utility.yul\":8008:8041   */\n      tag_482\n      jump\t// in\n    tag_600:\n        /* \"#utility.yul\":7908:8047   */\n      swap3\n      swap2\n      pop\n      pop\n      jump\t// out\n        /* \"#utility.yul\":8053:8382   */\n    tag_101:\n        /* \"#utility.yul\":8112:8118   */\n      0x00\n        /* \"#utility.yul\":8161:8163   */\n      0x20\n        /* \"#utility.yul\":8149:8158   */\n      dup3\n        /* \"#utility.yul\":8140:8147   */\n      dup5\n        /* \"#utility.yul\":8136:8159   */\n      sub\n        /* \"#utility.yul\":8132:8164   */\n      slt\n        /* \"#utility.yul\":8129:8248   */\n      iszero\n      tag_602\n      jumpi\n        /* \"#utility.yul\":8167:8246   */\n      tag_603\n      tag_451\n      jump\t// in\n    tag_603:\n        /* \"#utility.yul\":8129:8248   */\n    tag_602:\n        /* \"#utility.yul\":8287:8288   */\n      0x00\n        /* \"#utility.yul\":8312:8365   */\n      tag_604\n        /* \"#utility.yul\":8357:8364   */\n      dup5\n        /* \"#utility.yul\":8348:8354   */\n      dup3\n        /* \"#utility.yul\":8337:8346   */\n      dup6\n        /* \"#utility.yul\":8333:8355   */\n      add\n        /* \"#utility.yul\":8312:8365   */\n      tag_483\n      jump\t// in\n    tag_604:\n        /* \"#utility.yul\":8302:8365   */\n      swap2\n      pop\n        /* \"#utility.yul\":8258:8375   */\n      pop\n        /* \"#utility.yul\":8053:8382   */\n      swap3\n      swap2\n      pop\n      pop\n      jump\t// out\n        /* \"#utility.yul\":8388:8506   */\n    tag_484:\n        /* \"#utility.yul\":8475:8499   */\n      tag_606\n        /* \"#utility.yul\":8493:8498   */\n      dup2\n        /* \"#utility.yul\":8475:8499   */\n      tag_481\n      jump\t// in\n    tag_606:\n        /* \"#utility.yul\":8470:8473   */\n      dup3\n        /* \"#utility.yul\":8463:8500   */\n      mstore\n        /* \"#utility.yul\":8388:8506   */\n      pop\n      pop\n      jump\t// out\n        /* \"#utility.yul\":8512:8734   */\n    tag_104:\n        /* \"#utility.yul\":8605:8609   */\n      0x00\n        /* \"#utility.yul\":8643:8645   */\n      0x20\n        /* \"#utility.yul\":8632:8641   */\n      dup3\n        /* \"#utility.yul\":8628:8646   */\n      add\n        /* \"#utility.yul\":8620:8646   */\n      swap1\n      pop\n        /* \"#utility.yul\":8656:8727   */\n      tag_608\n        /* \"#utility.yul\":8724:8725   */\n      0x00\n        /* \"#utility.yul\":8713:8722   */\n      dup4\n        /* \"#utility.yul\":8709:8726   */\n      add\n        /* \"#utility.yul\":8700:8706   */\n      dup5\n        /* \"#utility.yul\":8656:8727   */\n      tag_484\n      jump\t// in\n    tag_608:\n        /* \"#utility.yul\":8512:8734   */\n      swap3\n      swap2\n      pop\n      pop\n      jump\t// out\n        /* \"#utility.yul\":8740:9214   */\n    tag_116:\n        /* \"#utility.yul\":8808:8814   */\n      0x00\n        /* \"#utility.yul\":8816:8822   */\n      0x00\n        /* \"#utility.yul\":8865:8867   */\n      0x40\n        /* \"#utility.yul\":8853:8862   */\n      dup4\n        /* \"#utility.yul\":8844:8851   */\n      dup6\n        /* \"#utility.yul\":8840:8863   */\n      sub\n        /* \"#utility.yul\":8836:8868   */\n      slt\n        /* \"#utility.yul\":8833:8952   */\n      iszero\n      tag_610\n      jumpi\n        /* \"#utility.yul\":8871:8950   */\n      tag_611\n      tag_451\n      jump\t// in\n    tag_611:\n        /* \"#utility.yul\":8833:8952   */\n    tag_610:\n        /* \"#utility.yul\":8991:8992   */\n      0x00\n        /* \"#utility.yul\":9016:9069   */\n      tag_612\n        /* \"#utility.yul\":9061:9068   */\n      dup6\n        /* \"#utility.yul\":9052:9058   */\n      dup3\n        /* \"#utility.yul\":9041:9050   */\n      dup7\n        /* \"#utility.yul\":9037:9059   */\n      add\n        /* \"#utility.yul\":9016:9069   */\n      tag_483\n      jump\t// in\n    tag_612:\n        /* \"#utility.yul\":9006:9069   */\n      swap3\n      pop\n        /* \"#utility.yul\":8962:9079   */\n      pop\n        /* \"#utility.yul\":9118:9120   */\n      0x20\n        /* \"#utility.yul\":9144:9197   */\n      tag_613\n        /* \"#utility.yul\":9189:9196   */\n      dup6\n        /* \"#utility.yul\":9180:9186   */\n      dup3\n        /* \"#utility.yul\":9169:9178   */\n      dup7\n        /* \"#utility.yul\":9165:9187   */\n      add\n        /* \"#utility.yul\":9144:9197   */\n      tag_466\n      jump\t// in\n    tag_613:\n        /* \"#utility.yul\":9134:9197   */\n      swap2\n      pop\n        /* \"#utility.yul\":9089:9207   */\n      pop\n        /* \"#utility.yul\":8740:9214   */\n      swap3\n      pop\n      swap3\n      swap1\n      pop\n      jump\t// out\n        /* \"#utility.yul\":9220:9306   */\n    tag_485:\n        /* \"#utility.yul\":9255:9262   */\n      0x00\n        /* \"#utility.yul\":9295:9299   */\n      0xff\n        /* \"#utility.yul\":9288:9293   */\n      dup3\n        /* \"#utility.yul\":9284:9300   */\n      and\n        /* \"#utility.yul\":9273:9300   */\n      swap1\n      pop\n        /* \"#utility.yul\":9220:9306   */\n      swap2\n      swap1\n      pop\n      jump\t// out\n        /* \"#utility.yul\":9312:9424   */\n    tag_486:\n        /* \"#utility.yul\":9395:9417   */\n      tag_616\n        /* \"#utility.yul\":9411:9416   */\n      dup2\n        /* \"#utility.yul\":9395:9417   */\n      tag_485\n      jump\t// in\n    tag_616:\n        /* \"#utility.yul\":9390:9393   */\n      dup3\n        /* \"#utility.yul\":9383:9418   */\n      mstore\n        /* \"#utility.yul\":9312:9424   */\n      pop\n      pop\n      jump\t// out\n        /* \"#utility.yul\":9430:9644   */\n    tag_126:\n        /* \"#utility.yul\":9519:9523   */\n      0x00\n        /* \"#utility.yul\":9557:9559   */\n      0x20\n        /* \"#utility.yul\":9546:9555   */\n      dup3\n        /* \"#utility.yul\":9542:9560   */\n      add\n        /* \"#utility.yul\":9534:9560   */\n      swap1\n      pop\n        /* \"#utility.yul\":9570:9637   */\n      tag_618\n        /* \"#utility.yul\":9634:9635   */\n      0x00\n        /* \"#utility.yul\":9623:9632   */\n      dup4\n        /* \"#utility.yul\":9619:9636   */\n      add\n        /* \"#utility.yul\":9610:9616   */\n      dup5\n        /* \"#utility.yul\":9570:9637   */\n      tag_486\n      jump\t// in\n    tag_618:\n        /* \"#utility.yul\":9430:9644   */\n      swap3\n      swap2\n      pop\n      pop\n      jump\t// out\n        /* \"#utility.yul\":9650:9979   */\n    tag_138:\n        /* \"#utility.yul\":9709:9715   */\n      0x00\n        /* \"#utility.yul\":9758:9760   */\n      0x20\n        /* \"#utility.yul\":9746:9755   */\n      dup3\n        /* \"#utility.yul\":9737:9744   */\n      dup5\n        /* \"#utility.yul\":9733:9756   */\n      sub\n        /* \"#utility.yul\":9729:9761   */\n      slt\n        /* \"#utility.yul\":9726:9845   */\n      iszero\n      tag_620\n      jumpi\n        /* \"#utility.yul\":9764:9843   */\n      tag_621\n      tag_451\n      jump\t// in\n    tag_621:\n        /* \"#utility.yul\":9726:9845   */\n    tag_620:\n        /* \"#utility.yul\":9884:9885   */\n      0x00\n        /* \"#utility.yul\":9909:9962   */\n      tag_622\n        /* \"#utility.yul\":9954:9961   */\n      dup5\n        /* \"#utility.yul\":9945:9951   */\n      dup3\n        /* \"#utility.yul\":9934:9943   */\n      dup6\n        /* \"#utility.yul\":9930:9952   */\n      add\n        /* \"#utility.yul\":9909:9962   */\n      tag_469\n      jump\t// in\n    tag_622:\n        /* \"#utility.yul\":9899:9962   */\n      swap2\n      pop\n        /* \"#utility.yul\":9855:9972   */\n      pop\n        /* \"#utility.yul\":9650:9979   */\n      swap3\n      swap2\n      pop\n      pop\n      jump\t// out\n        /* \"#utility.yul\":9985:10314   */\n    tag_143:\n        /* \"#utility.yul\":10044:10050   */\n      0x00\n        /* \"#utility.yul\":10093:10095   */\n      0x20\n        /* \"#utility.yul\":10081:10090   */\n      dup3\n        /* \"#utility.yul\":10072:10079   */\n      dup5\n        /* \"#utility.yul\":10068:10091   */\n      sub\n        /* \"#utility.yul\":10064:10096   */\n      slt\n        /* \"#utility.yul\":10061:10180   */\n      iszero\n      tag_624\n      jumpi\n        /* \"#utility.yul\":10099:10178   */\n      tag_625\n      tag_451\n      jump\t// in\n    tag_625:\n        /* \"#utility.yul\":10061:10180   */\n    tag_624:\n        /* \"#utility.yul\":10219:10220   */\n      0x00\n        /* \"#utility.yul\":10244:10297   */\n      tag_626\n        /* \"#utility.yul\":10289:10296   */\n      dup5\n        /* \"#utility.yul\":10280:10286   */\n      dup3\n        /* \"#utility.yul\":10269:10278   */\n      dup6\n        /* \"#utility.yul\":10265:10287   */\n      add\n        /* \"#utility.yul\":10244:10297   */\n      tag_466\n      jump\t// in\n    tag_626:\n        /* \"#utility.yul\":10234:10297   */\n      swap2\n      pop\n        /* \"#utility.yul\":10190:10307   */\n      pop\n        /* \"#utility.yul\":9985:10314   */\n      swap3\n      swap2\n      pop\n      pop\n      jump\t// out\n        /* \"#utility.yul\":10320:10788   */\n    tag_149:\n        /* \"#utility.yul\":10385:10391   */\n      0x00\n        /* \"#utility.yul\":10393:10399   */\n      0x00\n        /* \"#utility.yul\":10442:10444   */\n      0x40\n        /* \"#utility.yul\":10430:10439   */\n      dup4\n        /* \"#utility.yul\":10421:10428   */\n      dup6\n        /* \"#utility.yul\":10417:10440   */\n      sub\n        /* \"#utility.yul\":10413:10445   */\n      slt\n        /* \"#utility.yul\":10410:10529   */\n      iszero\n      tag_628\n      jumpi\n        /* \"#utility.yul\":10448:10527   */\n      tag_629\n      tag_451\n      jump\t// in\n    tag_629:\n        /* \"#utility.yul\":10410:10529   */\n    tag_628:\n        /* \"#utility.yul\":10568:10569   */\n      0x00\n        /* \"#utility.yul\":10593:10643   */\n      tag_630\n        /* \"#utility.yul\":10635:10642   */\n      dup6\n        /* \"#utility.yul\":10626:10632   */\n      dup3\n        /* \"#utility.yul\":10615:10624   */\n      dup7\n        /* \"#utility.yul\":10611:10633   */\n      add\n        /* \"#utility.yul\":10593:10643   */\n      tag_474\n      jump\t// in\n    tag_630:\n        /* \"#utility.yul\":10583:10643   */\n      swap3\n      pop\n        /* \"#utility.yul\":10539:10653   */\n      pop\n        /* \"#utility.yul\":10692:10694   */\n      0x20\n        /* \"#utility.yul\":10718:10771   */\n      tag_631\n        /* \"#utility.yul\":10763:10770   */\n      dup6\n        /* \"#utility.yul\":10754:10760   */\n      dup3\n        /* \"#utility.yul\":10743:10752   */\n      dup7\n        /* \"#utility.yul\":10739:10761   */\n      add\n        /* \"#utility.yul\":10718:10771   */\n      tag_469\n      jump\t// in\n    tag_631:\n        /* \"#utility.yul\":10708:10771   */\n      swap2\n      pop\n        /* \"#utility.yul\":10663:10781   */\n      pop\n        /* \"#utility.yul\":10320:10788   */\n      swap3\n      pop\n      swap3\n      swap1\n      pop\n      jump\t// out\n        /* \"#utility.yul\":10794:10912   */\n    tag_487:\n        /* \"#utility.yul\":10881:10905   */\n      tag_633\n        /* \"#utility.yul\":10899:10904   */\n      dup2\n        /* \"#utility.yul\":10881:10905   */\n      tag_464\n      jump\t// in\n    tag_633:\n        /* \"#utility.yul\":10876:10879   */\n      dup3\n        /* \"#utility.yul\":10869:10906   */\n      mstore\n        /* \"#utility.yul\":10794:10912   */\n      pop\n      pop\n      jump\t// out\n        /* \"#utility.yul\":10918:11140   */\n    tag_155:\n        /* \"#utility.yul\":11011:11015   */\n      0x00\n        /* \"#utility.yul\":11049:11051   */\n      0x20\n        /* \"#utility.yul\":11038:11047   */\n      dup3\n        /* \"#utility.yul\":11034:11052   */\n      add\n        /* \"#utility.yul\":11026:11052   */\n      swap1\n      pop\n        /* \"#utility.yul\":11062:11133   */\n      tag_635\n        /* \"#utility.yul\":11130:11131   */\n      0x00\n        /* \"#utility.yul\":11119:11128   */\n      dup4\n        /* \"#utility.yul\":11115:11132   */\n      add\n        /* \"#utility.yul\":11106:11112   */\n      dup5\n        /* \"#utility.yul\":11062:11133   */\n      tag_487\n      jump\t// in\n    tag_635:\n        /* \"#utility.yul\":10918:11140   */\n      swap3\n      swap2\n      pop\n      pop\n      jump\t// out\n        /* \"#utility.yul\":11146:11765   */\n    tag_210:\n        /* \"#utility.yul\":11223:11229   */\n      0x00\n        /* \"#utility.yul\":11231:11237   */\n      0x00\n        /* \"#utility.yul\":11239:11245   */\n      0x00\n        /* \"#utility.yul\":11288:11290   */\n      0x60\n        /* \"#utility.yul\":11276:11285   */\n      dup5\n        /* \"#utility.yul\":11267:11274   */\n      dup7\n        /* \"#utility.yul\":11263:11286   */\n      sub\n        /* \"#utility.yul\":11259:11291   */\n      slt\n        /* \"#utility.yul\":11256:11375   */\n      iszero\n      tag_637\n      jumpi\n        /* \"#utility.yul\":11294:11373   */\n      tag_638\n      tag_451\n      jump\t// in\n    tag_638:\n        /* \"#utility.yul\":11256:11375   */\n    tag_637:\n        /* \"#utility.yul\":11414:11415   */\n      0x00\n        /* \"#utility.yul\":11439:11492   */\n      tag_639\n        /* \"#utility.yul\":11484:11491   */\n      dup7\n        /* \"#utility.yul\":11475:11481   */\n      dup3\n        /* \"#utility.yul\":11464:11473   */\n      dup8\n        /* \"#utility.yul\":11460:11482   */\n      add\n        /* \"#utility.yul\":11439:11492   */\n      tag_466\n      jump\t// in\n    tag_639:\n        /* \"#utility.yul\":11429:11492   */\n      swap4\n      pop\n        /* \"#utility.yul\":11385:11502   */\n      pop\n        /* \"#utility.yul\":11541:11543   */\n      0x20\n        /* \"#utility.yul\":11567:11620   */\n      tag_640\n        /* \"#utility.yul\":11612:11619   */\n      dup7\n        /* \"#utility.yul\":11603:11609   */\n      dup3\n        /* \"#utility.yul\":11592:11601   */\n      dup8\n        /* \"#utility.yul\":11588:11610   */\n      add\n        /* \"#utility.yul\":11567:11620   */\n      tag_469\n      jump\t// in\n    tag_640:\n        /* \"#utility.yul\":11557:11620   */\n      swap3\n      pop\n        /* \"#utility.yul\":11512:11630   */\n      pop\n        /* \"#utility.yul\":11669:11671   */\n      0x40\n        /* \"#utility.yul\":11695:11748   */\n      tag_641\n        /* \"#utility.yul\":11740:11747   */\n      dup7\n        /* \"#utility.yul\":11731:11737   */\n      dup3\n        /* \"#utility.yul\":11720:11729   */\n      dup8\n        /* \"#utility.yul\":11716:11738   */\n      add\n        /* \"#utility.yul\":11695:11748   */\n      tag_466\n      jump\t// in\n    tag_641:\n        /* \"#utility.yul\":11685:11748   */\n      swap2\n      pop\n        /* \"#utility.yul\":11640:11758   */\n      pop\n        /* \"#utility.yul\":11146:11765   */\n      swap3\n      pop\n      swap3\n      pop\n      swap3\n      jump\t// out\n        /* \"#utility.yul\":11771:12094   */\n    tag_215:\n        /* \"#utility.yul\":11827:11833   */\n      0x00\n        /* \"#utility.yul\":11876:11878   */\n      0x20\n        /* \"#utility.yul\":11864:11873   */\n      dup3\n        /* \"#utility.yul\":11855:11862   */\n      dup5\n        /* \"#utility.yul\":11851:11874   */\n      sub\n        /* \"#utility.yul\":11847:11879   */\n      slt\n        /* \"#utility.yul\":11844:11963   */\n      iszero\n      tag_643\n      jumpi\n        /* \"#utility.yul\":11882:11961   */\n      tag_644\n      tag_451\n      jump\t// in\n    tag_644:\n        /* \"#utility.yul\":11844:11963   */\n    tag_643:\n        /* \"#utility.yul\":12002:12003   */\n      0x00\n        /* \"#utility.yul\":12027:12077   */\n      tag_645\n        /* \"#utility.yul\":12069:12076   */\n      dup5\n        /* \"#utility.yul\":12060:12066   */\n      dup3\n        /* \"#utility.yul\":12049:12058   */\n      dup6\n        /* \"#utility.yul\":12045:12067   */\n      add\n        /* \"#utility.yul\":12027:12077   */\n      tag_474\n      jump\t// in\n    tag_645:\n        /* \"#utility.yul\":12017:12077   */\n      swap2\n      pop\n        /* \"#utility.yul\":11973:12087   */\n      pop\n        /* \"#utility.yul\":11771:12094   */\n      swap3\n      swap2\n      pop\n      pop\n      jump\t// out\n        /* \"#utility.yul\":12100:12574   */\n    tag_232:\n        /* \"#utility.yul\":12168:12174   */\n      0x00\n        /* \"#utility.yul\":12176:12182   */\n      0x00\n        /* \"#utility.yul\":12225:12227   */\n      0x40\n        /* \"#utility.yul\":12213:12222   */\n      dup4\n        /* \"#utility.yul\":12204:12211   */\n      dup6\n        /* \"#utility.yul\":12200:12223   */\n      sub\n        /* \"#utility.yul\":12196:12228   */\n      slt\n        /* \"#utility.yul\":12193:12312   */\n      iszero\n      tag_647\n      jumpi\n        /* \"#utility.yul\":12231:12310   */\n      tag_648\n      tag_451\n      jump\t// in\n    tag_648:\n        /* \"#utility.yul\":12193:12312   */\n    tag_647:\n        /* \"#utility.yul\":12351:12352   */\n      0x00\n        /* \"#utility.yul\":12376:12429   */\n      tag_649\n        /* \"#utility.yul\":12421:12428   */\n      dup6\n        /* \"#utility.yul\":12412:12418   */\n      dup3\n        /* \"#utility.yul\":12401:12410   */\n      dup7\n        /* \"#utility.yul\":12397:12419   */\n      add\n        /* \"#utility.yul\":12376:12429   */\n      tag_466\n      jump\t// in\n    tag_649:\n        /* \"#utility.yul\":12366:12429   */\n      swap3\n      pop\n        /* \"#utility.yul\":12322:12439   */\n      pop\n        /* \"#utility.yul\":12478:12480   */\n      0x20\n        /* \"#utility.yul\":12504:12557   */\n      tag_650\n        /* \"#utility.yul\":12549:12556   */\n      dup6\n        /* \"#utility.yul\":12540:12546   */\n      dup3\n        /* \"#utility.yul\":12529:12538   */\n      dup7\n        /* \"#utility.yul\":12525:12547   */\n      add\n        /* \"#utility.yul\":12504:12557   */\n      tag_466\n      jump\t// in\n    tag_650:\n        /* \"#utility.yul\":12494:12557   */\n      swap2\n      pop\n        /* \"#utility.yul\":12449:12567   */\n      pop\n        /* \"#utility.yul\":12100:12574   */\n      swap3\n      pop\n      swap3\n      swap1\n      pop\n      jump\t// out\n        /* \"#utility.yul\":12580:13491   */\n    tag_245:\n        /* \"#utility.yul\":12675:12681   */\n      0x00\n        /* \"#utility.yul\":12683:12689   */\n      0x00\n        /* \"#utility.yul\":12691:12697   */\n      0x00\n        /* \"#utility.yul\":12699:12705   */\n      0x00\n        /* \"#utility.yul\":12707:12713   */\n      0x00\n        /* \"#utility.yul\":12756:12759   */\n      0xa0\n        /* \"#utility.yul\":12744:12753   */\n      dup7\n        /* \"#utility.yul\":12735:12742   */\n      dup9\n        /* \"#utility.yul\":12731:12754   */\n      sub\n        /* \"#utility.yul\":12727:12760   */\n      slt\n        /* \"#utility.yul\":12724:12844   */\n      iszero\n      tag_652\n      jumpi\n        /* \"#utility.yul\":12763:12842   */\n      tag_653\n      tag_451\n      jump\t// in\n    tag_653:\n        /* \"#utility.yul\":12724:12844   */\n    tag_652:\n        /* \"#utility.yul\":12883:12884   */\n      0x00\n        /* \"#utility.yul\":12908:12961   */\n      tag_654\n        /* \"#utility.yul\":12953:12960   */\n      dup9\n        /* \"#utility.yul\":12944:12950   */\n      dup3\n        /* \"#utility.yul\":12933:12942   */\n      dup10\n        /* \"#utility.yul\":12929:12951   */\n      add\n        /* \"#utility.yul\":12908:12961   */\n      tag_466\n      jump\t// in\n    tag_654:\n        /* \"#utility.yul\":12898:12961   */\n      swap6\n      pop\n        /* \"#utility.yul\":12854:12971   */\n      pop\n        /* \"#utility.yul\":13010:13012   */\n      0x20\n        /* \"#utility.yul\":13036:13089   */\n      tag_655\n        /* \"#utility.yul\":13081:13088   */\n      dup9\n        /* \"#utility.yul\":13072:13078   */\n      dup3\n        /* \"#utility.yul\":13061:13070   */\n      dup10\n        /* \"#utility.yul\":13057:13079   */\n      add\n        /* \"#utility.yul\":13036:13089   */\n      tag_469\n      jump\t// in\n    tag_655:\n        /* \"#utility.yul\":13026:13089   */\n      swap5\n      pop\n        /* \"#utility.yul\":12981:13099   */\n      pop\n        /* \"#utility.yul\":13138:13140   */\n      0x40\n        /* \"#utility.yul\":13164:13217   */\n      tag_656\n        /* \"#utility.yul\":13209:13216   */\n      dup9\n        /* \"#utility.yul\":13200:13206   */\n      dup3\n        /* \"#utility.yul\":13189:13198   */\n      dup10\n        /* \"#utility.yul\":13185:13207   */\n      add\n        /* \"#utility.yul\":13164:13217   */\n      tag_469\n      jump\t// in\n    tag_656:\n        /* \"#utility.yul\":13154:13217   */\n      swap4\n      pop\n        /* \"#utility.yul\":13109:13227   */\n      pop\n        /* \"#utility.yul\":13266:13268   */\n      0x60\n        /* \"#utility.yul\":13292:13345   */\n      tag_657\n        /* \"#utility.yul\":13337:13344   */\n      dup9\n        /* \"#utility.yul\":13328:13334   */\n      dup3\n        /* \"#utility.yul\":13317:13326   */\n      dup10\n        /* \"#utility.yul\":13313:13335   */\n      add\n        /* \"#utility.yul\":13292:13345   */\n      tag_469\n      jump\t// in\n    tag_657:\n        /* \"#utility.yul\":13282:13345   */\n      swap3\n      pop\n        /* \"#utility.yul\":13237:13355   */\n      pop\n        /* \"#utility.yul\":13394:13397   */\n      0x80\n        /* \"#utility.yul\":13421:13474   */\n      tag_658\n        /* \"#utility.yul\":13466:13473   */\n      dup9\n        /* \"#utility.yul\":13457:13463   */\n      dup3\n        /* \"#utility.yul\":13446:13455   */\n      dup10\n        /* \"#utility.yul\":13442:13464   */\n      add\n        /* \"#utility.yul\":13421:13474   */\n      tag_469\n      jump\t// in\n    tag_658:\n        /* \"#utility.yul\":13411:13474   */\n      swap2\n      pop\n        /* \"#utility.yul\":13365:13484   */\n      pop\n        /* \"#utility.yul\":12580:13491   */\n      swap3\n      swap6\n      pop\n      swap3\n      swap6\n      swap1\n      swap4\n      pop\n      jump\t// out\n        /* \"#utility.yul\":13497:13939   */\n    tag_248:\n        /* \"#utility.yul\":13646:13650   */\n      0x00\n        /* \"#utility.yul\":13684:13686   */\n      0x60\n        /* \"#utility.yul\":13673:13682   */\n      dup3\n        /* \"#utility.yul\":13669:13687   */\n      add\n        /* \"#utility.yul\":13661:13687   */\n      swap1\n      pop\n        /* \"#utility.yul\":13697:13768   */\n      tag_660\n        /* \"#utility.yul\":13765:13766   */\n      0x00\n        /* \"#utility.yul\":13754:13763   */\n      dup4\n        /* \"#utility.yul\":13750:13767   */\n      add\n        /* \"#utility.yul\":13741:13747   */\n      dup7\n        /* \"#utility.yul\":13697:13768   */\n      tag_480\n      jump\t// in\n    tag_660:\n        /* \"#utility.yul\":13778:13850   */\n      tag_661\n        /* \"#utility.yul\":13846:13848   */\n      0x20\n        /* \"#utility.yul\":13835:13844   */\n      dup4\n        /* \"#utility.yul\":13831:13849   */\n      add\n        /* \"#utility.yul\":13822:13828   */\n      dup6\n        /* \"#utility.yul\":13778:13850   */\n      tag_480\n      jump\t// in\n    tag_661:\n        /* \"#utility.yul\":13860:13932   */\n      tag_662\n        /* \"#utility.yul\":13928:13930   */\n      0x40\n        /* \"#utility.yul\":13917:13926   */\n      dup4\n        /* \"#utility.yul\":13913:13931   */\n      add\n        /* \"#utility.yul\":13904:13910   */\n      dup5\n        /* \"#utility.yul\":13860:13932   */\n      tag_480\n      jump\t// in\n    tag_662:\n        /* \"#utility.yul\":13497:13939   */\n      swap5\n      swap4\n      pop\n      pop\n      pop\n      pop\n      jump\t// out\n        /* \"#utility.yul\":13945:14125   */\n    tag_488:\n        /* \"#utility.yul\":13993:14070   */\n      0x4e487b7100000000000000000000000000000000000000000000000000000000\n        /* \"#utility.yul\":13990:13991   */\n      0x00\n        /* \"#utility.yul\":13983:14071   */\n      mstore\n        /* \"#utility.yul\":14090:14094   */\n      0x22\n        /* \"#utility.yul\":14087:14088   */\n      0x04\n        /* \"#utility.yul\":14080:14095   */\n      mstore\n        /* \"#utility.yul\":14114:14118   */\n      0x24\n        /* \"#utility.yul\":14111:14112   */\n      0x00\n        /* \"#utility.yul\":14104:14119   */\n      revert\n        /* \"#utility.yul\":14131:14451   */\n    tag_260:\n        /* \"#utility.yul\":14175:14181   */\n      0x00\n        /* \"#utility.yul\":14212:14213   */\n      0x02\n        /* \"#utility.yul\":14206:14210   */\n      dup3\n        /* \"#utility.yul\":14202:14214   */\n      div\n        /* \"#utility.yul\":14192:14214   */\n      swap1\n      pop\n        /* \"#utility.yul\":14259:14260   */\n      0x01\n        /* \"#utility.yul\":14253:14257   */\n      dup3\n        /* \"#utility.yul\":14249:14261   */\n      and\n        /* \"#utility.yul\":14280:14298   */\n      dup1\n        /* \"#utility.yul\":14270:14351   */\n      tag_665\n      jumpi\n        /* \"#utility.yul\":14336:14340   */\n      0x7f\n        /* \"#utility.yul\":14328:14334   */\n      dup3\n        /* \"#utility.yul\":14324:14341   */\n      and\n        /* \"#utility.yul\":14314:14341   */\n      swap2\n      pop\n        /* \"#utility.yul\":14270:14351   */\n    tag_665:\n        /* \"#utility.yul\":14398:14400   */\n      0x20\n        /* \"#utility.yul\":14390:14396   */\n      dup3\n        /* \"#utility.yul\":14387:14401   */\n      lt\n        /* \"#utility.yul\":14367:14385   */\n      dup2\n        /* \"#utility.yul\":14364:14402   */\n      sub\n        /* \"#utility.yul\":14361:14445   */\n      tag_666\n      jumpi\n        /* \"#utility.yul\":14417:14435   */\n      tag_667\n      tag_488\n      jump\t// in\n    tag_667:\n        /* \"#utility.yul\":14361:14445   */\n    tag_666:\n        /* \"#utility.yul\":14182:14451   */\n      pop\n        /* \"#utility.yul\":14131:14451   */\n      swap2\n      swap1\n      pop\n      jump\t// out\n        /* \"#utility.yul\":14457:14619   */\n    tag_489:\n        /* \"#utility.yul\":14597:14611   */\n      0x496e76616c69642027746f270000000000000000000000000000000000000000\n        /* \"#utility.yul\":14593:14594   */\n      0x00\n        /* \"#utility.yul\":14585:14591   */\n      dup3\n        /* \"#utility.yul\":14581:14595   */\n      add\n        /* \"#utility.yul\":14574:14612   */\n      mstore\n        /* \"#utility.yul\":14457:14619   */\n      pop\n      jump\t// out\n        /* \"#utility.yul\":14625:14991   */\n    tag_490:\n        /* \"#utility.yul\":14767:14770   */\n      0x00\n        /* \"#utility.yul\":14788:14855   */\n      tag_670\n        /* \"#utility.yul\":14852:14854   */\n      0x0c\n        /* \"#utility.yul\":14847:14850   */\n      dup4\n        /* \"#utility.yul\":14788:14855   */\n      tag_459\n      jump\t// in\n    tag_670:\n        /* \"#utility.yul\":14781:14855   */\n      swap2\n      pop\n        /* \"#utility.yul\":14864:14957   */\n      tag_671\n        /* \"#utility.yul\":14953:14956   */\n      dup3\n        /* \"#utility.yul\":14864:14957   */\n      tag_489\n      jump\t// in\n    tag_671:\n        /* \"#utility.yul\":14982:14984   */\n      0x20\n        /* \"#utility.yul\":14977:14980   */\n      dup3\n        /* \"#utility.yul\":14973:14985   */\n      add\n        /* \"#utility.yul\":14966:14985   */\n      swap1\n      pop\n        /* \"#utility.yul\":14625:14991   */\n      swap2\n      swap1\n      pop\n      jump\t// out\n        /* \"#utility.yul\":14997:15416   */\n    tag_276:\n        /* \"#utility.yul\":15163:15167   */\n      0x00\n        /* \"#utility.yul\":15201:15203   */\n      0x20\n        /* \"#utility.yul\":15190:15199   */\n      dup3\n        /* \"#utility.yul\":15186:15204   */\n      add\n        /* \"#utility.yul\":15178:15204   */\n      swap1\n      pop\n        /* \"#utility.yul\":15250:15259   */\n      dup2\n        /* \"#utility.yul\":15244:15248   */\n      dup2\n        /* \"#utility.yul\":15240:15260   */\n      sub\n        /* \"#utility.yul\":15236:15237   */\n      0x00\n        /* \"#utility.yul\":15225:15234   */\n      dup4\n        /* \"#utility.yul\":15221:15238   */\n      add\n        /* \"#utility.yul\":15214:15261   */\n      mstore\n        /* \"#utility.yul\":15278:15409   */\n      tag_673\n        /* \"#utility.yul\":15404:15408   */\n      dup2\n        /* \"#utility.yul\":15278:15409   */\n      tag_490\n      jump\t// in\n    tag_673:\n        /* \"#utility.yul\":15270:15409   */\n      swap1\n      pop\n        /* \"#utility.yul\":14997:15416   */\n      swap2\n      swap1\n      pop\n      jump\t// out\n        /* \"#utility.yul\":15422:15569   */\n    tag_491:\n        /* \"#utility.yul\":15523:15534   */\n      0x00\n        /* \"#utility.yul\":15560:15563   */\n      dup2\n        /* \"#utility.yul\":15545:15563   */\n      swap1\n      pop\n        /* \"#utility.yul\":15422:15569   */\n      swap3\n      swap2\n      pop\n      pop\n      jump\t// out\n        /* \"#utility.yul\":15575:15689   */\n    tag_492:\n      pop\n      jump\t// out\n        /* \"#utility.yul\":15695:16093   */\n    tag_493:\n        /* \"#utility.yul\":15854:15857   */\n      0x00\n        /* \"#utility.yul\":15875:15958   */\n      tag_677\n        /* \"#utility.yul\":15956:15957   */\n      0x00\n        /* \"#utility.yul\":15951:15954   */\n      dup4\n        /* \"#utility.yul\":15875:15958   */\n      tag_491\n      jump\t// in\n    tag_677:\n        /* \"#utility.yul\":15868:15958   */\n      swap2\n      pop\n        /* \"#utility.yul\":15967:16060   */\n      tag_678\n        /* \"#utility.yul\":16056:16059   */\n      dup3\n        /* \"#utility.yul\":15967:16060   */\n      tag_492\n      jump\t// in\n    tag_678:\n        /* \"#utility.yul\":16085:16086   */\n      0x00\n        /* \"#utility.yul\":16080:16083   */\n      dup3\n        /* \"#utility.yul\":16076:16087   */\n      add\n        /* \"#utility.yul\":16069:16087   */\n      swap1\n      pop\n        /* \"#utility.yul\":15695:16093   */\n      swap2\n      swap1\n      pop\n      jump\t// out\n        /* \"#utility.yul\":16099:16478   */\n    tag_278:\n        /* \"#utility.yul\":16283:16286   */\n      0x00\n        /* \"#utility.yul\":16305:16452   */\n      tag_680\n        /* \"#utility.yul\":16448:16451   */\n      dup3\n        /* \"#utility.yul\":16305:16452   */\n      tag_493\n      jump\t// in\n    tag_680:\n        /* \"#utility.yul\":16298:16452   */\n      swap2\n      pop\n        /* \"#utility.yul\":16469:16472   */\n      dup2\n        /* \"#utility.yul\":16462:16472   */\n      swap1\n      pop\n        /* \"#utility.yul\":16099:16478   */\n      swap2\n      swap1\n      pop\n      jump\t// out\n        /* \"#utility.yul\":16484:16653   */\n    tag_494:\n        /* \"#utility.yul\":16624:16645   */\n      0x455448207472616e73666572206661696c656400000000000000000000000000\n        /* \"#utility.yul\":16620:16621   */\n      0x00\n        /* \"#utility.yul\":16612:16618   */\n      dup3\n        /* \"#utility.yul\":16608:16622   */\n      add\n        /* \"#utility.yul\":16601:16646   */\n      mstore\n        /* \"#utility.yul\":16484:16653   */\n      pop\n      jump\t// out\n        /* \"#utility.yul\":16659:17025   */\n    tag_495:\n        /* \"#utility.yul\":16801:16804   */\n      0x00\n        /* \"#utility.yul\":16822:16889   */\n      tag_683\n        /* \"#utility.yul\":16886:16888   */\n      0x13\n        /* \"#utility.yul\":16881:16884   */\n      dup4\n        /* \"#utility.yul\":16822:16889   */\n      tag_459\n      jump\t// in\n    tag_683:\n        /* \"#utility.yul\":16815:16889   */\n      swap2\n      pop\n        /* \"#utility.yul\":16898:16991   */\n      tag_684\n        /* \"#utility.yul\":16987:16990   */\n      dup3\n        /* \"#utility.yul\":16898:16991   */\n      tag_494\n      jump\t// in\n    tag_684:\n        /* \"#utility.yul\":17016:17018   */\n      0x20\n        /* \"#utility.yul\":17011:17014   */\n      dup3\n        /* \"#utility.yul\":17007:17019   */\n      add\n        /* \"#utility.yul\":17000:17019   */\n      swap1\n      pop\n        /* \"#utility.yul\":16659:17025   */\n      swap2\n      swap1\n      pop\n      jump\t// out\n        /* \"#utility.yul\":17031:17450   */\n    tag_284:\n        /* \"#utility.yul\":17197:17201   */\n      0x00\n        /* \"#utility.yul\":17235:17237   */\n      0x20\n        /* \"#utility.yul\":17224:17233   */\n      dup3\n        /* \"#utility.yul\":17220:17238   */\n      add\n        /* \"#utility.yul\":17212:17238   */\n      swap1\n      pop\n        /* \"#utility.yul\":17284:17293   */\n      dup2\n        /* \"#utility.yul\":17278:17282   */\n      dup2\n        /* \"#utility.yul\":17274:17294   */\n      sub\n        /* \"#utility.yul\":17270:17271   */\n      0x00\n        /* \"#utility.yul\":17259:17268   */\n      dup4\n        /* \"#utility.yul\":17255:17272   */\n      add\n        /* \"#utility.yul\":17248:17295   */\n      mstore\n        /* \"#utility.yul\":17312:17443   */\n      tag_686\n        /* \"#utility.yul\":17438:17442   */\n      dup2\n        /* \"#utility.yul\":17312:17443   */\n      tag_495\n      jump\t// in\n    tag_686:\n        /* \"#utility.yul\":17304:17443   */\n      swap1\n      pop\n        /* \"#utility.yul\":17031:17450   */\n      swap2\n      swap1\n      pop\n      jump\t// out\n        /* \"#utility.yul\":17456:17776   */\n    tag_324:\n        /* \"#utility.yul\":17571:17575   */\n      0x00\n        /* \"#utility.yul\":17609:17611   */\n      0x40\n        /* \"#utility.yul\":17598:17607   */\n      dup3\n        /* \"#utility.yul\":17594:17612   */\n      add\n        /* \"#utility.yul\":17586:17612   */\n      swap1\n      pop\n        /* \"#utility.yul\":17622:17687   */\n      tag_688\n        /* \"#utility.yul\":17684:17685   */\n      0x00\n        /* \"#utility.yul\":17673:17682   */\n      dup4\n        /* \"#utility.yul\":17669:17686   */\n      add\n        /* \"#utility.yul\":17660:17666   */\n      dup6\n        /* \"#utility.yul\":17622:17687   */\n      tag_457\n      jump\t// in\n    tag_688:\n        /* \"#utility.yul\":17697:17769   */\n      tag_689\n        /* \"#utility.yul\":17765:17767   */\n      0x20\n        /* \"#utility.yul\":17754:17763   */\n      dup4\n        /* \"#utility.yul\":17750:17768   */\n      add\n        /* \"#utility.yul\":17741:17747   */\n      dup5\n        /* \"#utility.yul\":17697:17769   */\n      tag_480\n      jump\t// in\n    tag_689:\n        /* \"#utility.yul\":17456:17776   */\n      swap4\n      swap3\n      pop\n      pop\n      pop\n      jump\t// out\n        /* \"#utility.yul\":17782:18114   */\n    tag_346:\n        /* \"#utility.yul\":17903:17907   */\n      0x00\n        /* \"#utility.yul\":17941:17943   */\n      0x40\n        /* \"#utility.yul\":17930:17939   */\n      dup3\n        /* \"#utility.yul\":17926:17944   */\n      add\n        /* \"#utility.yul\":17918:17944   */\n      swap1\n      pop\n        /* \"#utility.yul\":17954:18025   */\n      tag_691\n        /* \"#utility.yul\":18022:18023   */\n      0x00\n        /* \"#utility.yul\":18011:18020   */\n      dup4\n        /* \"#utility.yul\":18007:18024   */\n      add\n        /* \"#utility.yul\":17998:18004   */\n      dup6\n        /* \"#utility.yul\":17954:18025   */\n      tag_487\n      jump\t// in\n    tag_691:\n        /* \"#utility.yul\":18035:18107   */\n      tag_692\n        /* \"#utility.yul\":18103:18105   */\n      0x20\n        /* \"#utility.yul\":18092:18101   */\n      dup4\n        /* \"#utility.yul\":18088:18106   */\n      add\n        /* \"#utility.yul\":18079:18085   */\n      dup5\n        /* \"#utility.yul\":18035:18107   */\n      tag_480\n      jump\t// in\n    tag_692:\n        /* \"#utility.yul\":17782:18114   */\n      swap4\n      swap3\n      pop\n      pop\n      pop\n      jump\t// out\n        /* \"#utility.yul\":18120:18257   */\n    tag_496:\n        /* \"#utility.yul\":18174:18179   */\n      0x00\n        /* \"#utility.yul\":18205:18211   */\n      dup2\n        /* \"#utility.yul\":18199:18212   */\n      mload\n        /* \"#utility.yul\":18190:18212   */\n      swap1\n      pop\n        /* \"#utility.yul\":18221:18251   */\n      tag_694\n        /* \"#utility.yul\":18245:18250   */\n      dup2\n        /* \"#utility.yul\":18221:18251   */\n      tag_473\n      jump\t// in\n    tag_694:\n        /* \"#utility.yul\":18120:18257   */\n      swap3\n      swap2\n      pop\n      pop\n      jump\t// out\n        /* \"#utility.yul\":18263:18608   */\n    tag_350:\n        /* \"#utility.yul\":18330:18336   */\n      0x00\n        /* \"#utility.yul\":18379:18381   */\n      0x20\n        /* \"#utility.yul\":18367:18376   */\n      dup3\n        /* \"#utility.yul\":18358:18365   */\n      dup5\n        /* \"#utility.yul\":18354:18377   */\n      sub\n        /* \"#utility.yul\":18350:18382   */\n      slt\n        /* \"#utility.yul\":18347:18466   */\n      iszero\n      tag_696\n      jumpi\n        /* \"#utility.yul\":18385:18464   */\n      tag_697\n      tag_451\n      jump\t// in\n    tag_697:\n        /* \"#utility.yul\":18347:18466   */\n    tag_696:\n        /* \"#utility.yul\":18505:18506   */\n      0x00\n        /* \"#utility.yul\":18530:18591   */\n      tag_698\n        /* \"#utility.yul\":18583:18590   */\n      dup5\n        /* \"#utility.yul\":18574:18580   */\n      dup3\n        /* \"#utility.yul\":18563:18572   */\n      dup6\n        /* \"#utility.yul\":18559:18581   */\n      add\n        /* \"#utility.yul\":18530:18591   */\n      tag_496\n      jump\t// in\n    tag_698:\n        /* \"#utility.yul\":18520:18591   */\n      swap2\n      pop\n        /* \"#utility.yul\":18476:18601   */\n      pop\n        /* \"#utility.yul\":18263:18608   */\n      swap3\n      swap2\n      pop\n      pop\n      jump\t// out\n        /* \"#utility.yul\":18614:19389   */\n    tag_375:\n        /* \"#utility.yul\":18847:18851   */\n      0x00\n        /* \"#utility.yul\":18885:18888   */\n      0xc0\n        /* \"#utility.yul\":18874:18883   */\n      dup3\n        /* \"#utility.yul\":18870:18889   */\n      add\n        /* \"#utility.yul\":18862:18889   */\n      swap1\n      pop\n        /* \"#utility.yul\":18899:18970   */\n      tag_700\n        /* \"#utility.yul\":18967:18968   */\n      0x00\n        /* \"#utility.yul\":18956:18965   */\n      dup4\n        /* \"#utility.yul\":18952:18969   */\n      add\n        /* \"#utility.yul\":18943:18949   */\n      dup10\n        /* \"#utility.yul\":18899:18970   */\n      tag_487\n      jump\t// in\n    tag_700:\n        /* \"#utility.yul\":18980:19052   */\n      tag_701\n        /* \"#utility.yul\":19048:19050   */\n      0x20\n        /* \"#utility.yul\":19037:19046   */\n      dup4\n        /* \"#utility.yul\":19033:19051   */\n      add\n        /* \"#utility.yul\":19024:19030   */\n      dup9\n        /* \"#utility.yul\":18980:19052   */\n      tag_480\n      jump\t// in\n    tag_701:\n        /* \"#utility.yul\":19062:19134   */\n      tag_702\n        /* \"#utility.yul\":19130:19132   */\n      0x40\n        /* \"#utility.yul\":19119:19128   */\n      dup4\n        /* \"#utility.yul\":19115:19133   */\n      add\n        /* \"#utility.yul\":19106:19112   */\n      dup8\n        /* \"#utility.yul\":19062:19134   */\n      tag_480\n      jump\t// in\n    tag_702:\n        /* \"#utility.yul\":19144:19216   */\n      tag_703\n        /* \"#utility.yul\":19212:19214   */\n      0x60\n        /* \"#utility.yul\":19201:19210   */\n      dup4\n        /* \"#utility.yul\":19197:19215   */\n      add\n        /* \"#utility.yul\":19188:19194   */\n      dup7\n        /* \"#utility.yul\":19144:19216   */\n      tag_480\n      jump\t// in\n    tag_703:\n        /* \"#utility.yul\":19226:19299   */\n      tag_704\n        /* \"#utility.yul\":19294:19297   */\n      0x80\n        /* \"#utility.yul\":19283:19292   */\n      dup4\n        /* \"#utility.yul\":19279:19298   */\n      add\n        /* \"#utility.yul\":19270:19276   */\n      dup6\n        /* \"#utility.yul\":19226:19299   */\n      tag_487\n      jump\t// in\n    tag_704:\n        /* \"#utility.yul\":19309:19382   */\n      tag_705\n        /* \"#utility.yul\":19377:19380   */\n      0xa0\n        /* \"#utility.yul\":19366:19375   */\n      dup4\n        /* \"#utility.yul\":19362:19381   */\n      add\n        /* \"#utility.yul\":19353:19359   */\n      dup5\n        /* \"#utility.yul\":19309:19382   */\n      tag_480\n      jump\t// in\n    tag_705:\n        /* \"#utility.yul\":18614:19389   */\n      swap8\n      swap7\n      pop\n      pop\n      pop\n      pop\n      pop\n      pop\n      pop\n      jump\t// out\n        /* \"#utility.yul\":19395:19538   */\n    tag_497:\n        /* \"#utility.yul\":19452:19457   */\n      0x00\n        /* \"#utility.yul\":19483:19489   */\n      dup2\n        /* \"#utility.yul\":19477:19490   */\n      mload\n        /* \"#utility.yul\":19468:19490   */\n      swap1\n      pop\n        /* \"#utility.yul\":19499:19532   */\n      tag_707\n        /* \"#utility.yul\":19526:19531   */\n      dup2\n        /* \"#utility.yul\":19499:19532   */\n      tag_468\n      jump\t// in\n    tag_707:\n        /* \"#utility.yul\":19395:19538   */\n      swap3\n      swap2\n      pop\n      pop\n      jump\t// out\n        /* \"#utility.yul\":19544:20207   */\n    tag_379:\n        /* \"#utility.yul\":19632:19638   */\n      0x00\n        /* \"#utility.yul\":19640:19646   */\n      0x00\n        /* \"#utility.yul\":19648:19654   */\n      0x00\n        /* \"#utility.yul\":19697:19699   */\n      0x60\n        /* \"#utility.yul\":19685:19694   */\n      dup5\n        /* \"#utility.yul\":19676:19683   */\n      dup7\n        /* \"#utility.yul\":19672:19695   */\n      sub\n        /* \"#utility.yul\":19668:19700   */\n      slt\n        /* \"#utility.yul\":19665:19784   */\n      iszero\n      tag_709\n      jumpi\n        /* \"#utility.yul\":19703:19782   */\n      tag_710\n      tag_451\n      jump\t// in\n    tag_710:\n        /* \"#utility.yul\":19665:19784   */\n    tag_709:\n        /* \"#utility.yul\":19823:19824   */\n      0x00\n        /* \"#utility.yul\":19848:19912   */\n      tag_711\n        /* \"#utility.yul\":19904:19911   */\n      dup7\n        /* \"#utility.yul\":19895:19901   */\n      dup3\n        /* \"#utility.yul\":19884:19893   */\n      dup8\n        /* \"#utility.yul\":19880:19902   */\n      add\n        /* \"#utility.yul\":19848:19912   */\n      tag_497\n      jump\t// in\n    tag_711:\n        /* \"#utility.yul\":19838:19912   */\n      swap4\n      pop\n        /* \"#utility.yul\":19794:19922   */\n      pop\n        /* \"#utility.yul\":19961:19963   */\n      0x20\n        /* \"#utility.yul\":19987:20051   */\n      tag_712\n        /* \"#utility.yul\":20043:20050   */\n      dup7\n        /* \"#utility.yul\":20034:20040   */\n      dup3\n        /* \"#utility.yul\":20023:20032   */\n      dup8\n        /* \"#utility.yul\":20019:20041   */\n      add\n        /* \"#utility.yul\":19987:20051   */\n      tag_497\n      jump\t// in\n    tag_712:\n        /* \"#utility.yul\":19977:20051   */\n      swap3\n      pop\n        /* \"#utility.yul\":19932:20061   */\n      pop\n        /* \"#utility.yul\":20100:20102   */\n      0x40\n        /* \"#utility.yul\":20126:20190   */\n      tag_713\n        /* \"#utility.yul\":20182:20189   */\n      dup7\n        /* \"#utility.yul\":20173:20179   */\n      dup3\n        /* \"#utility.yul\":20162:20171   */\n      dup8\n        /* \"#utility.yul\":20158:20180   */\n      add\n        /* \"#utility.yul\":20126:20190   */\n      tag_497\n      jump\t// in\n    tag_713:\n        /* \"#utility.yul\":20116:20190   */\n      swap2\n      pop\n        /* \"#utility.yul\":20071:20200   */\n      pop\n        /* \"#utility.yul\":19544:20207   */\n      swap3\n      pop\n      swap3\n      pop\n      swap3\n      jump\t// out\n        /* \"#utility.yul\":20213:20655   */\n    tag_396:\n        /* \"#utility.yul\":20362:20366   */\n      0x00\n        /* \"#utility.yul\":20400:20402   */\n      0x60\n        /* \"#utility.yul\":20389:20398   */\n      dup3\n        /* \"#utility.yul\":20385:20403   */\n      add\n        /* \"#utility.yul\":20377:20403   */\n      swap1\n      pop\n        /* \"#utility.yul\":20413:20484   */\n      tag_715\n        /* \"#utility.yul\":20481:20482   */\n      0x00\n        /* \"#utility.yul\":20470:20479   */\n      dup4\n        /* \"#utility.yul\":20466:20483   */\n      add\n        /* \"#utility.yul\":20457:20463   */\n      dup7\n        /* \"#utility.yul\":20413:20484   */\n      tag_487\n      jump\t// in\n    tag_715:\n        /* \"#utility.yul\":20494:20566   */\n      tag_716\n        /* \"#utility.yul\":20562:20564   */\n      0x20\n        /* \"#utility.yul\":20551:20560   */\n      dup4\n        /* \"#utility.yul\":20547:20565   */\n      add\n        /* \"#utility.yul\":20538:20544   */\n      dup6\n        /* \"#utility.yul\":20494:20566   */\n      tag_480\n      jump\t// in\n    tag_716:\n        /* \"#utility.yul\":20576:20648   */\n      tag_717\n        /* \"#utility.yul\":20644:20646   */\n      0x40\n        /* \"#utility.yul\":20633:20642   */\n      dup4\n        /* \"#utility.yul\":20629:20647   */\n      add\n        /* \"#utility.yul\":20620:20626   */\n      dup5\n        /* \"#utility.yul\":20576:20648   */\n      tag_480\n      jump\t// in\n    tag_717:\n        /* \"#utility.yul\":20213:20655   */\n      swap5\n      swap4\n      pop\n      pop\n      pop\n      pop\n      jump\t// out\n        /* \"#utility.yul\":20661:20842   */\n    tag_498:\n        /* \"#utility.yul\":20801:20834   */\n      0x5265656e7472616e637947756172643a207265656e7472616e742063616c6c00\n        /* \"#utility.yul\":20797:20798   */\n      0x00\n        /* \"#utility.yul\":20789:20795   */\n      dup3\n        /* \"#utility.yul\":20785:20799   */\n      add\n        /* \"#utility.yul\":20778:20835   */\n      mstore\n        /* \"#utility.yul\":20661:20842   */\n      pop\n      jump\t// out\n        /* \"#utility.yul\":20848:21214   */\n    tag_499:\n        /* \"#utility.yul\":20990:20993   */\n      0x00\n        /* \"#utility.yul\":21011:21078   */\n      tag_720\n        /* \"#utility.yul\":21075:21077   */\n      0x1f\n        /* \"#utility.yul\":21070:21073   */\n      dup4\n        /* \"#utility.yul\":21011:21078   */\n      tag_459\n      jump\t// in\n    tag_720:\n        /* \"#utility.yul\":21004:21078   */\n      swap2\n      pop\n        /* \"#utility.yul\":21087:21180   */\n      tag_721\n        /* \"#utility.yul\":21176:21179   */\n      dup3\n        /* \"#utility.yul\":21087:21180   */\n      tag_498\n      jump\t// in\n    tag_721:\n        /* \"#utility.yul\":21205:21207   */\n      0x20\n        /* \"#utility.yul\":21200:21203   */\n      dup3\n        /* \"#utility.yul\":21196:21208   */\n      add\n        /* \"#utility.yul\":21189:21208   */\n      swap1\n      pop\n        /* \"#utility.yul\":20848:21214   */\n      swap2\n      swap1\n      pop\n      jump\t// out\n        /* \"#utility.yul\":21220:21639   */\n    tag_426:\n        /* \"#utility.yul\":21386:21390   */\n      0x00\n        /* \"#utility.yul\":21424:21426   */\n      0x20\n        /* \"#utility.yul\":21413:21422   */\n      dup3\n        /* \"#utility.yul\":21409:21427   */\n      add\n        /* \"#utility.yul\":21401:21427   */\n      swap1\n      pop\n        /* \"#utility.yul\":21473:21482   */\n      dup2\n        /* \"#utility.yul\":21467:21471   */\n      dup2\n        /* \"#utility.yul\":21463:21483   */\n      sub\n        /* \"#utility.yul\":21459:21460   */\n      0x00\n        /* \"#utility.yul\":21448:21457   */\n      dup4\n        /* \"#utility.yul\":21444:21461   */\n      add\n        /* \"#utility.yul\":21437:21484   */\n      mstore\n        /* \"#utility.yul\":21501:21632   */\n      tag_723\n        /* \"#utility.yul\":21627:21631   */\n      dup2\n        /* \"#utility.yul\":21501:21632   */\n      tag_499\n      jump\t// in\n    tag_723:\n        /* \"#utility.yul\":21493:21632   */\n      swap1\n      pop\n        /* \"#utility.yul\":21220:21639   */\n      swap2\n      swap1\n      pop\n      jump\t// out\n        /* \"#utility.yul\":21645:21977   */\n    tag_439:\n        /* \"#utility.yul\":21766:21770   */\n      0x00\n        /* \"#utility.yul\":21804:21806   */\n      0x40\n        /* \"#utility.yul\":21793:21802   */\n      dup3\n        /* \"#utility.yul\":21789:21807   */\n      add\n        /* \"#utility.yul\":21781:21807   */\n      swap1\n      pop\n        /* \"#utility.yul\":21817:21888   */\n      tag_725\n        /* \"#utility.yul\":21885:21886   */\n      0x00\n        /* \"#utility.yul\":21874:21883   */\n      dup4\n        /* \"#utility.yul\":21870:21887   */\n      add\n        /* \"#utility.yul\":21861:21867   */\n      dup6\n        /* \"#utility.yul\":21817:21888   */\n      tag_487\n      jump\t// in\n    tag_725:\n        /* \"#utility.yul\":21898:21970   */\n      tag_726\n        /* \"#utility.yul\":21966:21968   */\n      0x20\n        /* \"#utility.yul\":21955:21964   */\n      dup4\n        /* \"#utility.yul\":21951:21969   */\n      add\n        /* \"#utility.yul\":21942:21948   */\n      dup5\n        /* \"#utility.yul\":21898:21970   */\n      tag_484\n      jump\t// in\n    tag_726:\n        /* \"#utility.yul\":21645:21977   */\n      swap4\n      swap3\n      pop\n      pop\n      pop\n      jump\t// out\n        /* \"#utility.yul\":21983:22163   */\n    tag_500:\n        /* \"#utility.yul\":22031:22108   */\n      0x4e487b7100000000000000000000000000000000000000000000000000000000\n        /* \"#utility.yul\":22028:22029   */\n      0x00\n        /* \"#utility.yul\":22021:22109   */\n      mstore\n        /* \"#utility.yul\":22128:22132   */\n      0x11\n        /* \"#utility.yul\":22125:22126   */\n      0x04\n        /* \"#utility.yul\":22118:22133   */\n      mstore\n        /* \"#utility.yul\":22152:22156   */\n      0x24\n        /* \"#utility.yul\":22149:22150   */\n      0x00\n        /* \"#utility.yul\":22142:22157   */\n      revert\n        /* \"#utility.yul\":22169:22360   */\n    tag_443:\n        /* \"#utility.yul\":22209:22212   */\n      0x00\n        /* \"#utility.yul\":22228:22248   */\n      tag_729\n        /* \"#utility.yul\":22246:22247   */\n      dup3\n        /* \"#utility.yul\":22228:22248   */\n      tag_467\n      jump\t// in\n    tag_729:\n        /* \"#utility.yul\":22223:22248   */\n      swap2\n      pop\n        /* \"#utility.yul\":22262:22282   */\n      tag_730\n        /* \"#utility.yul\":22280:22281   */\n      dup4\n        /* \"#utility.yul\":22262:22282   */\n      tag_467\n      jump\t// in\n    tag_730:\n        /* \"#utility.yul\":22257:22282   */\n      swap3\n      pop\n        /* \"#utility.yul\":22305:22306   */\n      dup3\n        /* \"#utility.yul\":22302:22303   */\n      dup3\n        /* \"#utility.yul\":22298:22307   */\n      add\n        /* \"#utility.yul\":22291:22307   */\n      swap1\n      pop\n        /* \"#utility.yul\":22326:22329   */\n      dup1\n        /* \"#utility.yul\":22323:22324   */\n      dup3\n        /* \"#utility.yul\":22320:22330   */\n      gt\n        /* \"#utility.yul\":22317:22353   */\n      iszero\n      tag_731\n      jumpi\n        /* \"#utility.yul\":22333:22351   */\n      tag_732\n      tag_500\n      jump\t// in\n    tag_732:\n        /* \"#utility.yul\":22317:22353   */\n    tag_731:\n        /* \"#utility.yul\":22169:22360   */\n      swap3\n      swap2\n      pop\n      pop\n      jump\t// out\n\n    auxdata: 0xa26469706673582212209f1944292964c7e1204b31f0dec38a3ab244dc0bddece31bcda082e574b2596b64736f6c634300081c0033\n}\n",
				"bytecode": {
					"linkReferences": {},
					"object": "60806040525f600860146101000a81548160ff0219169083151502179055505f600b5f6101000a81548160ff0219169083151502179055506002600c555f600e5f6101000a81548160ff021916908315150217905550601e600f55348015610065575f5ffd5b5060405161394438038061394483398181016040528101906100879190610990565b6040518060400160405280600b81526020017f57616c6c7920546f6b656e0000000000000000000000000000000000000000008152506040518060400160405280600381526020017f545747000000000000000000000000000000000000000000000000000000000081525081600390816101029190610bf8565b5080600490816101129190610bf8565b50505060016006819055505f73ffffffffffffffffffffffffffffffffffffffff168173ffffffffffffffffffffffffffffffffffffffff160361018b576040517f08c379a000000000000000000000000000000000000000000000000000000000815260040161018290610d21565b60405180910390fd5b6101a7336b409f9cbc7c4a04c2200000006104b760201b60201c565b6101eb7fa49807205ce4d355092ef5a8a18f56e8913cf4a201fbe287825b095693c2177573633ea8fe424cd65ad4d4826e6581273afd06b8ef61053c60201b60201c565b5061023c7f9f2df0fed2c77648de5860a4cc508cd0818c85b8b8a1ab4ceeef8d981c8956a67fa49807205ce4d355092ef5a8a18f56e8913cf4a201fbe287825b095693c2177561063260201b60201c565b61028c7f3c11d16cbaffd01df69ce1c404f6340ee057498f5f00246190ea54220576a8487fa49807205ce4d355092ef5a8a18f56e8913cf4a201fbe287825b095693c2177561063260201b60201c565b8060075f6101000a81548173ffffffffffffffffffffffffffffffffffffffff021916908373ffffffffffffffffffffffffffffffffffffffff1602179055505f60075f9054906101000a900473ffffffffffffffffffffffffffffffffffffffff1673ffffffffffffffffffffffffffffffffffffffff1663c45a01556040518163ffffffff1660e01b8152600401602060405180830381865afa158015610337573d5f5f3e3d5ffd5b505050506040513d601f19601f8201168201806040525081019061035b9190610990565b90505f60075f9054906101000a900473ffffffffffffffffffffffffffffffffffffffff1673ffffffffffffffffffffffffffffffffffffffff1663ad5c46486040518163ffffffff1660e01b8152600401602060405180830381865afa1580156103c8573d5f5f3e3d5ffd5b505050506040513d601f19601f820116820180604052508101906103ec9190610990565b90508173ffffffffffffffffffffffffffffffffffffffff1663c9c6539630836040518363ffffffff1660e01b8152600401610429929190610d4e565b6020604051808303815f875af1158015610445573d5f5f3e3d5ffd5b505050506040513d601f19601f820116820180604052508101906104699190610990565b60085f6101000a81548173ffffffffffffffffffffffffffffffffffffffff021916908373ffffffffffffffffffffffffffffffffffffffff1602179055505f600a81905550505050610e4b565b5f73ffffffffffffffffffffffffffffffffffffffff168273ffffffffffffffffffffffffffffffffffffffff1603610527575f6040517fec442f0500000000000000000000000000000000000000000000000000000000815260040161051e9190610d75565b60405180910390fd5b6105385f838361069160201b60201c565b5050565b5f61054d83836108aa60201b60201c565b61062857600160055f8581526020019081526020015f205f015f8473ffffffffffffffffffffffffffffffffffffffff1673ffffffffffffffffffffffffffffffffffffffff1681526020019081526020015f205f6101000a81548160ff0219169083151502179055506105c561090e60201b60201c565b73ffffffffffffffffffffffffffffffffffffffff168273ffffffffffffffffffffffffffffffffffffffff16847f2f8788117e7eff1d82e926ec794901d17c78024a50270940304540a733656f0d60405160405180910390a46001905061062c565b5f90505b92915050565b5f6106428361091560201b60201c565b90508160055f8581526020019081526020015f20600101819055508181847fbd79b86ffe0ab8e8776151514217cd7cacd52c909f66475c3af44e129f0b00ff60405160405180910390a4505050565b5f73ffffffffffffffffffffffffffffffffffffffff168373ffffffffffffffffffffffffffffffffffffffff16036106e1578060025f8282546106d59190610dbb565b925050819055506107af565b5f5f5f8573ffffffffffffffffffffffffffffffffffffffff1673ffffffffffffffffffffffffffffffffffffffff1681526020019081526020015f205490508181101561076a578381836040517fe450d38c00000000000000000000000000000000000000000000000000000000815260040161076193929190610dfd565b60405180910390fd5b8181035f5f8673ffffffffffffffffffffffffffffffffffffffff1673ffffffffffffffffffffffffffffffffffffffff1681526020019081526020015f2081905550505b5f73ffffffffffffffffffffffffffffffffffffffff168273ffffffffffffffffffffffffffffffffffffffff16036107f6578060025f8282540392505081905550610840565b805f5f8473ffffffffffffffffffffffffffffffffffffffff1673ffffffffffffffffffffffffffffffffffffffff1681526020019081526020015f205f82825401925050819055505b8173ffffffffffffffffffffffffffffffffffffffff168373ffffffffffffffffffffffffffffffffffffffff167fddf252ad1be2c89b69c2b068fc378daa952ba7f163c4a11628f55a4df523b3ef8360405161089d9190610e32565b60405180910390a3505050565b5f60055f8481526020019081526020015f205f015f8373ffffffffffffffffffffffffffffffffffffffff1673ffffffffffffffffffffffffffffffffffffffff1681526020019081526020015f205f9054906101000a900460ff16905092915050565b5f33905090565b5f60055f8381526020019081526020015f20600101549050919050565b5f5ffd5b5f73ffffffffffffffffffffffffffffffffffffffff82169050919050565b5f61095f82610936565b9050919050565b61096f81610955565b8114610979575f5ffd5b50565b5f8151905061098a81610966565b92915050565b5f602082840312156109a5576109a4610932565b5b5f6109b28482850161097c565b91505092915050565b5f81519050919050565b7f4e487b71000000000000000000000000000000000000000000000000000000005f52604160045260245ffd5b7f4e487b71000000000000000000000000000000000000000000000000000000005f52602260045260245ffd5b5f6002820490506001821680610a3657607f821691505b602082108103610a4957610a486109f2565b5b50919050565b5f819050815f5260205f209050919050565b5f6020601f8301049050919050565b5f82821b905092915050565b5f60088302610aab7fffffffffffffffffffffffffffffffffffffffffffffffffffffffffffffffff82610a70565b610ab58683610a70565b95508019841693508086168417925050509392505050565b5f819050919050565b5f819050919050565b5f610af9610af4610aef84610acd565b610ad6565b610acd565b9050919050565b5f819050919050565b610b1283610adf565b610b26610b1e82610b00565b848454610a7c565b825550505050565b5f5f905090565b610b3d610b2e565b610b48818484610b09565b505050565b5b81811015610b6b57610b605f82610b35565b600181019050610b4e565b5050565b601f821115610bb057610b8181610a4f565b610b8a84610a61565b81016020851015610b99578190505b610bad610ba585610a61565b830182610b4d565b50505b505050565b5f82821c905092915050565b5f610bd05f1984600802610bb5565b1980831691505092915050565b5f610be88383610bc1565b9150826002028217905092915050565b610c01826109bb565b67ffffffffffffffff811115610c1a57610c196109c5565b5b610c248254610a1f565b610c2f828285610b6f565b5f60209050601f831160018114610c60575f8415610c4e578287015190505b610c588582610bdd565b865550610cbf565b601f198416610c6e86610a4f565b5f5b82811015610c9557848901518255600182019150602085019450602081019050610c70565b86831015610cb25784890151610cae601f891682610bc1565b8355505b6001600288020188555050505b505050505050565b5f82825260208201905092915050565b7f526f757465722063616e6e6f74206265207a65726f20616464726573730000005f82015250565b5f610d0b601d83610cc7565b9150610d1682610cd7565b602082019050919050565b5f6020820190508181035f830152610d3881610cff565b9050919050565b610d4881610955565b82525050565b5f604082019050610d615f830185610d3f565b610d6e6020830184610d3f565b9392505050565b5f602082019050610d885f830184610d3f565b92915050565b7f4e487b71000000000000000000000000000000000000000000000000000000005f52601160045260245ffd5b5f610dc582610acd565b9150610dd083610acd565b9250828201905080821115610de857610de7610d8e565b5b92915050565b610df781610acd565b82525050565b5f606082019050610e105f830186610d3f565b610e1d6020830185610dee565b610e2a6040830184610dee565b949350505050565b5f602082019050610e455f830184610dee565b92915050565b612aec80610e585f395ff3fe608060405260043610610254575f3560e01c806370a0823111610138578063b319c6b7116100b5578063d547741f11610079578063d547741f146108c3578063dd62ed3e146108eb578063ec28438a14610927578063f68ded661461094f578063f6f1e30614610979578063f9f92be4146109ab5761025b565b8063b319c6b7146107f5578063b37fd1901461081f578063c2e5ec0414610847578063d00efb2f1461086f578063d5391393146108995761025b565b806395d89b41116100fc57806395d89b4114610711578063963472f91461073b578063a217fddf14610765578063a9059cbb1461078f578063a985ceef146107cb5761025b565b806370a082311461061d57806375b238fc1461065957806389900603146106835780638c0b5e22146106ab57806391d14854146106d55761025b565b80632be29fa8116101d157806340c10f191161019557806340c10f191461051557806342966c681461053d5780634551bbe91461056557806348fca59d146105a157806349bd5a5e146105c95780634ada218b146105f35761025b565b80632be29fa8146104475780632f2ff15d146104715780632ff2e9dc14610499578063313ce567146104c357806336568abe146104ed5761025b565b80631694505e116102185780631694505e1461035157806318160ddd1461037b57806323b872dd146103a5578063248a9ca3146103e1578063282c51f31461041d5761025b565b806301ffc9a71461025f57806306fdde031461029b578063095ea7b3146102c5578063099a04e514610301578063153b0d1e146103295761025b565b3661025b57005b5f5ffd5b34801561026a575f5ffd5b5061028560048036038101906102809190612035565b6109e7565b604051610292919061207a565b60405180910390f35b3480156102a6575f5ffd5b506102af610a60565b6040516102bc9190612103565b60405180910390f35b3480156102d0575f5ffd5b506102eb60048036038101906102e691906121b0565b610af0565b6040516102f8919061207a565b60405180910390f35b34801561030c575f5ffd5b5061032760048036038101906103229190612229565b610b12565b005b348015610334575f5ffd5b5061034f600480360381019061034a9190612291565b610c58565b005b34801561035c575f5ffd5b50610365610d29565b604051610372919061232a565b60405180910390f35b348015610386575f5ffd5b5061038f610d4e565b60405161039c9190612352565b60405180910390f35b3480156103b0575f5ffd5b506103cb60048036038101906103c6919061236b565b610d57565b6040516103d8919061207a565b60405180910390f35b3480156103ec575f5ffd5b50610407600480360381019061040291906123ee565b610d85565b6040516104149190612428565b60405180910390f35b348015610428575f5ffd5b50610431610da2565b60405161043e9190612428565b60405180910390f35b348015610452575f5ffd5b5061045b610dc6565b6040516104689190612352565b60405180910390f35b34801561047c575f5ffd5b5061049760048036038101906104929190612441565b610dcc565b005b3480156104a4575f5ffd5b506104ad610dee565b6040516104ba9190612352565b60405180910390f35b3480156104ce575f5ffd5b506104d7610dfe565b6040516104e4919061249a565b60405180910390f35b3480156104f8575f5ffd5b50610513600480360381019061050e9190612441565b610e06565b005b348015610520575f5ffd5b5061053b600480360381019061053691906121b0565b610e81565b005b348015610548575f5ffd5b50610563600480360381019061055e91906124b3565b610eba565b005b348015610570575f5ffd5b5061058b600480360381019061058691906124de565b610ef9565b6040516105989190612352565b60405180910390f35b3480156105ac575f5ffd5b506105c760048036038101906105c29190612509565b610f0e565b005b3480156105d4575f5ffd5b506105dd610f96565b6040516105ea9190612556565b60405180910390f35b3480156105fe575f5ffd5b50610607610fbb565b604051610614919061207a565b60405180910390f35b348015610628575f5ffd5b50610643600480360381019061063e91906124de565b610fce565b6040516106509190612352565b60405180910390f35b348015610664575f5ffd5b5061066d611013565b60405161067a9190612428565b60405180910390f35b34801561068e575f5ffd5b506106a960048036038101906106a49190612509565b611037565b005b3480156106b6575f5ffd5b506106bf6110bf565b6040516106cc9190612352565b60405180910390f35b3480156106e0575f5ffd5b506106fb60048036038101906106f69190612441565b6110c5565b604051610708919061207a565b60405180910390f35b34801561071c575f5ffd5b50610725611129565b6040516107329190612103565b60405180910390f35b348015610746575f5ffd5b5061074f6111b9565b60405161075c919061207a565b60405180910390f35b348015610770575f5ffd5b506107796111cb565b6040516107869190612428565b60405180910390f35b34801561079a575f5ffd5b506107b560048036038101906107b091906121b0565b6111d1565b6040516107c2919061207a565b60405180910390f35b3480156107d6575f5ffd5b506107df6111f3565b6040516107ec919061207a565b60405180910390f35b348015610800575f5ffd5b50610809611205565b6040516108169190612352565b60405180910390f35b34801561082a575f5ffd5b506108456004803603810190610840919061256f565b61120b565b005b348015610852575f5ffd5b5061086d600480360381019061086891906125bf565b611325565b005b34801561087a575f5ffd5b506108836113c9565b6040516108909190612352565b60405180910390f35b3480156108a4575f5ffd5b506108ad6113cf565b6040516108ba9190612428565b60405180910390f35b3480156108ce575f5ffd5b506108e960048036038101906108e49190612441565b6113f3565b005b3480156108f6575f5ffd5b50610911600480360381019061090c91906125ea565b611415565b60405161091e9190612352565b60405180910390f35b348015610932575f5ffd5b5061094d600480360381019061094891906124b3565b611497565b005b34801561095a575f5ffd5b50610963611503565b6040516109709190612556565b60405180910390f35b610993600480360381019061098e9190612628565b61151b565b6040516109a29392919061269f565b60405180910390f35b3480156109b6575f5ffd5b506109d160048036038101906109cc91906124de565b611642565b6040516109de919061207a565b60405180910390f35b5f7f7965db0b000000000000000000000000000000000000000000000000000000007bffffffffffffffffffffffffffffffffffffffffffffffffffffffff1916827bffffffffffffffffffffffffffffffffffffffffffffffffffffffff19161480610a595750610a588261165f565b5b9050919050565b606060038054610a6f90612701565b80601f0160208091040260200160405190810160405280929190818152602001828054610a9b90612701565b8015610ae65780601f10610abd57610100808354040283529160200191610ae6565b820191905f5260205f20905b815481529060010190602001808311610ac957829003601f168201915b5050505050905090565b5f5f610afa6116c8565b9050610b078185856116cf565b600191505092915050565b7fa49807205ce4d355092ef5a8a18f56e8913cf4a201fbe287825b095693c21775610b3c816116e1565b5f73ffffffffffffffffffffffffffffffffffffffff168373ffffffffffffffffffffffffffffffffffffffff1603610baa576040517f08c379a0000000000000000000000000000000000000000000000000000000008152600401610ba19061277b565b60405180910390fd5b5f8373ffffffffffffffffffffffffffffffffffffffff1683604051610bcf906127c6565b5f6040518083038185875af1925050503d805f8114610c09576040519150601f19603f3d011682016040523d82523d5f602084013e610c0e565b606091505b5050905080610c52576040517f08c379a0000000000000000000000000000000000000000000000000000000008152600401610c4990612824565b60405180910390fd5b50505050565b7fa49807205ce4d355092ef5a8a18f56e8913cf4a201fbe287825b095693c21775610c82816116e1565b8160095f8573ffffffffffffffffffffffffffffffffffffffff1673ffffffffffffffffffffffffffffffffffffffff1681526020019081526020015f205f6101000a81548160ff0219169083151502179055508273ffffffffffffffffffffffffffffffffffffffff167fcf3473b85df1594d47b6958f29a32bea0abff9dd68296f7bf33443646793cfd883604051610d1c919061207a565b60405180910390a2505050565b60075f9054906101000a900473ffffffffffffffffffffffffffffffffffffffff1681565b5f600254905090565b5f5f610d616116c8565b9050610d6e8582856116f5565b610d79858585611788565b60019150509392505050565b5f60055f8381526020019081526020015f20600101549050919050565b7f3c11d16cbaffd01df69ce1c404f6340ee057498f5f00246190ea54220576a84881565b600c5481565b610dd582610d85565b610dde816116e1565b610de88383611878565b50505050565b6b409f9cbc7c4a04c22000000081565b5f6012905090565b610e0e6116c8565b73ffffffffffffffffffffffffffffffffffffffff168173ffffffffffffffffffffffffffffffffffffffff1614610e72576040517f6697b23200000000000000000000000000000000000000000000000000000000815260040160405180910390fd5b610e7c8282611962565b505050565b7f9f2df0fed2c77648de5860a4cc508cd0818c85b8b8a1ab4ceeef8d981c8956a6610eab816116e1565b610eb58383611a4c565b505050565b7f3c11d16cbaffd01df69ce1c404f6340ee057498f5f00246190ea54220576a848610ee4816116e1565b610ef5610eef6116c8565b83611acb565b5050565b6010602052805f5260405f205f915090505481565b7fa49807205ce4d355092ef5a8a18f56e8913cf4a201fbe287825b095693c21775610f38816116e1565b82600e5f6101000a81548160ff02191690831515021790555081600f819055507f3dd49c7bc5b4083d3ed5845bd08d8d308e600ce46a1bf5fed3466dba31ce9f0c8383604051610f89929190612842565b60405180910390a1505050565b60085f9054906101000a900473ffffffffffffffffffffffffffffffffffffffff1681565b600860149054906101000a900460ff1681565b5f5f5f8373ffffffffffffffffffffffffffffffffffffffff1673ffffffffffffffffffffffffffffffffffffffff1681526020019081526020015f20549050919050565b7fa49807205ce4d355092ef5a8a18f56e8913cf4a201fbe287825b095693c2177581565b7fa49807205ce4d355092ef5a8a18f56e8913cf4a201fbe287825b095693c21775611061816116e1565b82600b5f6101000a81548160ff02191690831515021790555081600c819055507fb31b570d042c886827a2637126edd8ff4f4fe90beb7cb87ffe8c4d2d542c190d83836040516110b2929190612842565b60405180910390a1505050565b600a5481565b5f60055f8481526020019081526020015f205f015f8373ffffffffffffffffffffffffffffffffffffffff1673ffffffffffffffffffffffffffffffffffffffff1681526020019081526020015f205f9054906101000a900460ff16905092915050565b60606004805461113890612701565b80601f016020809104026020016040519081016040528092919081815260200182805461116490612701565b80156111af5780601f10611186576101008083540402835291602001916111af565b820191905f5260205f20905b81548152906001019060200180831161119257829003601f168201915b5050505050905090565b600b5f9054906101000a900460ff1681565b5f5f1b81565b5f5f6111db6116c8565b90506111e8818585611788565b600191505092915050565b600e5f9054906101000a900460ff1681565b600f5481565b7fa49807205ce4d355092ef5a8a18f56e8913cf4a201fbe287825b095693c21775611235816116e1565b5f73ffffffffffffffffffffffffffffffffffffffff168273ffffffffffffffffffffffffffffffffffffffff16036112a3576040517f08c379a000000000000000000000000000000000000000000000000000000000815260040161129a9061277b565b60405180910390fd5b8373ffffffffffffffffffffffffffffffffffffffff1663a9059cbb83856040518363ffffffff1660e01b81526004016112de929190612869565b6020604051808303815f875af11580156112fa573d5f5f3e3d5ffd5b505050506040513d601f19601f8201168201806040525081019061131e91906128a4565b5050505050565b7fa49807205ce4d355092ef5a8a18f56e8913cf4a201fbe287825b095693c2177561134f816116e1565b81600860146101000a81548160ff0219169083151502179055508180156113815750600b5f9054906101000a900460ff165b1561138e5743600d819055505b7fbeda7dca7bc1b3e80b871f4818129ec73b771581f803d553aeb3484098e5f65a826040516113bd919061207a565b60405180910390a15050565b600d5481565b7f9f2df0fed2c77648de5860a4cc508cd0818c85b8b8a1ab4ceeef8d981c8956a681565b6113fc82610d85565b611405816116e1565b61140f8383611962565b50505050565b5f60015f8473ffffffffffffffffffffffffffffffffffffffff1673ffffffffffffffffffffffffffffffffffffffff1681526020019081526020015f205f8373ffffffffffffffffffffffffffffffffffffffff1673ffffffffffffffffffffffffffffffffffffffff1681526020019081526020015f2054905092915050565b7fa49807205ce4d355092ef5a8a18f56e8913cf4a201fbe287825b095693c217756114c1816116e1565b81600a819055507f947f344d56e1e8c70dc492fb94c4ddddd490c016aab685f5e7e47b2e85cb44cf826040516114f79190612352565b60405180910390a15050565b73633ea8fe424cd65ad4d4826e6581273afd06b8ef81565b5f5f5f611526611b4a565b7fa49807205ce4d355092ef5a8a18f56e8913cf4a201fbe287825b095693c21775611550816116e1565b61157c3060075f9054906101000a900473ffffffffffffffffffffffffffffffffffffffff168a6116cf565b60075f9054906101000a900473ffffffffffffffffffffffffffffffffffffffff1673ffffffffffffffffffffffffffffffffffffffff1663f305d71934308b8b8b8f8c6040518863ffffffff1660e01b81526004016115e1969594939291906128cf565b60606040518083038185885af11580156115fd573d5f5f3e3d5ffd5b50505050506040513d601f19601f820116820180604052508101906116229190612942565b80945081955082965050505050611637611b99565b955095509592505050565b6009602052805f5260405f205f915054906101000a900460ff1681565b5f7f01ffc9a7000000000000000000000000000000000000000000000000000000007bffffffffffffffffffffffffffffffffffffffffffffffffffffffff1916827bffffffffffffffffffffffffffffffffffffffffffffffffffffffff1916149050919050565b5f33905090565b6116dc8383836001611ba3565b505050565b6116f2816116ed6116c8565b611d72565b50565b5f6117008484611415565b90507fffffffffffffffffffffffffffffffffffffffffffffffffffffffffffffffff8110156117825781811015611773578281836040517ffb8f41b200000000000000000000000000000000000000000000000000000000815260040161176a93929190612992565b60405180910390fd5b61178184848484035f611ba3565b5b50505050565b5f73ffffffffffffffffffffffffffffffffffffffff168373ffffffffffffffffffffffffffffffffffffffff16036117f8575f6040517f96c6fd1e0000000000000000000000000000000000000000000000000000000081526004016117ef9190612556565b60405180910390fd5b5f73ffffffffffffffffffffffffffffffffffffffff168273ffffffffffffffffffffffffffffffffffffffff1603611868575f6040517fec442f0500000000000000000000000000000000000000000000000000000000815260040161185f9190612556565b60405180910390fd5b611873838383611dc3565b505050565b5f61188383836110c5565b61195857600160055f8581526020019081526020015f205f015f8473ffffffffffffffffffffffffffffffffffffffff1673ffffffffffffffffffffffffffffffffffffffff1681526020019081526020015f205f6101000a81548160ff0219169083151502179055506118f56116c8565b73ffffffffffffffffffffffffffffffffffffffff168273ffffffffffffffffffffffffffffffffffffffff16847f2f8788117e7eff1d82e926ec794901d17c78024a50270940304540a733656f0d60405160405180910390a46001905061195c565b5f90505b92915050565b5f61196d83836110c5565b15611a42575f60055f8581526020019081526020015f205f015f8473ffffffffffffffffffffffffffffffffffffffff1673ffffffffffffffffffffffffffffffffffffffff1681526020019081526020015f205f6101000a81548160ff0219169083151502179055506119df6116c8565b73ffffffffffffffffffffffffffffffffffffffff168273ffffffffffffffffffffffffffffffffffffffff16847ff6391f5c32d9c69d2a47ea670b442974b53935d1edc7fd64eb21e047a839171b60405160405180910390a460019050611a46565b5f90505b92915050565b5f73ffffffffffffffffffffffffffffffffffffffff168273ffffffffffffffffffffffffffffffffffffffff1603611abc575f6040517fec442f05000000000000000000000000000000000000000000000000000000008152600401611ab39190612556565b60405180910390fd5b611ac75f8383611dc3565b5050565b5f73ffffffffffffffffffffffffffffffffffffffff168273ffffffffffffffffffffffffffffffffffffffff1603611b3b575f6040517f96c6fd1e000000000000000000000000000000000000000000000000000000008152600401611b329190612556565b60405180910390fd5b611b46825f83611dc3565b5050565b600260065403611b8f576040517f08c379a0000000000000000000000000000000000000000000000000000000008152600401611b8690612a11565b60405180910390fd5b6002600681905550565b6001600681905550565b5f73ffffffffffffffffffffffffffffffffffffffff168473ffffffffffffffffffffffffffffffffffffffff1603611c13575f6040517fe602df05000000000000000000000000000000000000000000000000000000008152600401611c0a9190612556565b60405180910390fd5b5f73ffffffffffffffffffffffffffffffffffffffff168373ffffffffffffffffffffffffffffffffffffffff1603611c83575f6040517f94280d62000000000000000000000000000000000000000000000000000000008152600401611c7a9190612556565b60405180910390fd5b8160015f8673ffffffffffffffffffffffffffffffffffffffff1673ffffffffffffffffffffffffffffffffffffffff1681526020019081526020015f205f8573ffffffffffffffffffffffffffffffffffffffff1673ffffffffffffffffffffffffffffffffffffffff1681526020019081526020015f20819055508015611d6c578273ffffffffffffffffffffffffffffffffffffffff168473ffffffffffffffffffffffffffffffffffffffff167f8c5be1e5ebec7d5bd14f71427d1e84f3dd0314c0f7b2291e5b200ac8c7c3b92584604051611d639190612352565b60405180910390a35b50505050565b611d7c82826110c5565b611dbf5780826040517fe2517d3f000000000000000000000000000000000000000000000000000000008152600401611db6929190612a2f565b60405180910390fd5b5050565b5f73ffffffffffffffffffffffffffffffffffffffff168373ffffffffffffffffffffffffffffffffffffffff1603611e13578060025f828254611e079190612a83565b92505081905550611ee1565b5f5f5f8573ffffffffffffffffffffffffffffffffffffffff1673ffffffffffffffffffffffffffffffffffffffff1681526020019081526020015f2054905081811015611e9c578381836040517fe450d38c000000000000000000000000000000000000000000000000000000008152600401611e9393929190612992565b60405180910390fd5b8181035f5f8673ffffffffffffffffffffffffffffffffffffffff1673ffffffffffffffffffffffffffffffffffffffff1681526020019081526020015f2081905550505b5f73ffffffffffffffffffffffffffffffffffffffff168273ffffffffffffffffffffffffffffffffffffffff1603611f28578060025f8282540392505081905550611f72565b805f5f8473ffffffffffffffffffffffffffffffffffffffff1673ffffffffffffffffffffffffffffffffffffffff1681526020019081526020015f205f82825401925050819055505b8173ffffffffffffffffffffffffffffffffffffffff168373ffffffffffffffffffffffffffffffffffffffff167fddf252ad1be2c89b69c2b068fc378daa952ba7f163c4a11628f55a4df523b3ef83604051611fcf9190612352565b60405180910390a3505050565b5f5ffd5b5f7fffffffff0000000000000000000000000000000000000000000000000000000082169050919050565b61201481611fe0565b811461201e575f5ffd5b50565b5f8135905061202f8161200b565b92915050565b5f6020828403121561204a57612049611fdc565b5b5f61205784828501612021565b91505092915050565b5f8115159050919050565b61207481612060565b82525050565b5f60208201905061208d5f83018461206b565b92915050565b5f81519050919050565b5f82825260208201905092915050565b8281835e5f83830152505050565b5f601f19601f8301169050919050565b5f6120d582612093565b6120df818561209d565b93506120ef8185602086016120ad565b6120f8816120bb565b840191505092915050565b5f6020820190508181035f83015261211b81846120cb565b905092915050565b5f73ffffffffffffffffffffffffffffffffffffffff82169050919050565b5f61214c82612123565b9050919050565b61215c81612142565b8114612166575f5ffd5b50565b5f8135905061217781612153565b92915050565b5f819050919050565b61218f8161217d565b8114612199575f5ffd5b50565b5f813590506121aa81612186565b92915050565b5f5f604083850312156121c6576121c5611fdc565b5b5f6121d385828601612169565b92505060206121e48582860161219c565b9150509250929050565b5f6121f882612123565b9050919050565b612208816121ee565b8114612212575f5ffd5b50565b5f81359050612223816121ff565b92915050565b5f5f6040838503121561223f5761223e611fdc565b5b5f61224c85828601612215565b925050602061225d8582860161219c565b9150509250929050565b61227081612060565b811461227a575f5ffd5b50565b5f8135905061228b81612267565b92915050565b5f5f604083850312156122a7576122a6611fdc565b5b5f6122b485828601612169565b92505060206122c58582860161227d565b9150509250929050565b5f819050919050565b5f6122f26122ed6122e884612123565b6122cf565b612123565b9050919050565b5f612303826122d8565b9050919050565b5f612314826122f9565b9050919050565b6123248161230a565b82525050565b5f60208201905061233d5f83018461231b565b92915050565b61234c8161217d565b82525050565b5f6020820190506123655f830184612343565b92915050565b5f5f5f6060848603121561238257612381611fdc565b5b5f61238f86828701612169565b93505060206123a086828701612169565b92505060406123b18682870161219c565b9150509250925092565b5f819050919050565b6123cd816123bb565b81146123d7575f5ffd5b50565b5f813590506123e8816123c4565b92915050565b5f6020828403121561240357612402611fdc565b5b5f612410848285016123da565b91505092915050565b612422816123bb565b82525050565b5f60208201905061243b5f830184612419565b92915050565b5f5f6040838503121561245757612456611fdc565b5b5f612464858286016123da565b925050602061247585828601612169565b9150509250929050565b5f60ff82169050919050565b6124948161247f565b82525050565b5f6020820190506124ad5f83018461248b565b92915050565b5f602082840312156124c8576124c7611fdc565b5b5f6124d58482850161219c565b91505092915050565b5f602082840312156124f3576124f2611fdc565b5b5f61250084828501612169565b91505092915050565b5f5f6040838503121561251f5761251e611fdc565b5b5f61252c8582860161227d565b925050602061253d8582860161219c565b9150509250929050565b61255081612142565b82525050565b5f6020820190506125695f830184612547565b92915050565b5f5f5f6060848603121561258657612585611fdc565b5b5f61259386828701612169565b93505060206125a48682870161219c565b92505060406125b586828701612169565b9150509250925092565b5f602082840312156125d4576125d3611fdc565b5b5f6125e18482850161227d565b91505092915050565b5f5f60408385031215612600576125ff611fdc565b5b5f61260d85828601612169565b925050602061261e85828601612169565b9150509250929050565b5f5f5f5f5f60a0868803121561264157612640611fdc565b5b5f61264e88828901612169565b955050602061265f8882890161219c565b94505060406126708882890161219c565b93505060606126818882890161219c565b92505060806126928882890161219c565b9150509295509295909350565b5f6060820190506126b25f830186612343565b6126bf6020830185612343565b6126cc6040830184612343565b949350505050565b7f4e487b71000000000000000000000000000000000000000000000000000000005f52602260045260245ffd5b5f600282049050600182168061271857607f821691505b60208210810361272b5761272a6126d4565b5b50919050565b7f496e76616c69642027746f2700000000000000000000000000000000000000005f82015250565b5f612765600c8361209d565b915061277082612731565b602082019050919050565b5f6020820190508181035f83015261279281612759565b9050919050565b5f81905092915050565b50565b5f6127b15f83612799565b91506127bc826127a3565b5f82019050919050565b5f6127d0826127a6565b9150819050919050565b7f455448207472616e73666572206661696c6564000000000000000000000000005f82015250565b5f61280e60138361209d565b9150612819826127da565b602082019050919050565b5f6020820190508181035f83015261283b81612802565b9050919050565b5f6040820190506128555f83018561206b565b6128626020830184612343565b9392505050565b5f60408201905061287c5f830185612547565b6128896020830184612343565b9392505050565b5f8151905061289e81612267565b92915050565b5f602082840312156128b9576128b8611fdc565b5b5f6128c684828501612890565b91505092915050565b5f60c0820190506128e25f830189612547565b6128ef6020830188612343565b6128fc6040830187612343565b6129096060830186612343565b6129166080830185612547565b61292360a0830184612343565b979650505050505050565b5f8151905061293c81612186565b92915050565b5f5f5f6060848603121561295957612958611fdc565b5b5f6129668682870161292e565b93505060206129778682870161292e565b92505060406129888682870161292e565b9150509250925092565b5f6060820190506129a55f830186612547565b6129b26020830185612343565b6129bf6040830184612343565b949350505050565b7f5265656e7472616e637947756172643a207265656e7472616e742063616c6c005f82015250565b5f6129fb601f8361209d565b9150612a06826129c7565b602082019050919050565b5f6020820190508181035f830152612a28816129ef565b9050919050565b5f604082019050612a425f830185612547565b612a4f6020830184612419565b9392505050565b7f4e487b71000000000000000000000000000000000000000000000000000000005f52601160045260245ffd5b5f612a8d8261217d565b9150612a988361217d565b9250828201905080821115612ab057612aaf612a56565b5b9291505056fea26469706673582212209f1944292964c7e1204b31f0dec38a3ab244dc0bddece31bcda082e574b2596b64736f6c634300081c0033",
					"opcodes": "PUSH1 0x80 PUSH1 0x40 MSTORE PUSH0 PUSH1 0x8 PUSH1 0x14 PUSH2 0x100 EXP DUP2 SLOAD DUP2 PUSH1 0xFF MUL NOT AND SWAP1 DUP4 ISZERO ISZERO MUL OR SWAP1 SSTORE POP PUSH0 PUSH1 0xB PUSH0 PUSH2 0x100 EXP DUP2 SLOAD DUP2 PUSH1 0xFF MUL NOT AND SWAP1 DUP4 ISZERO ISZERO MUL OR SWAP1 SSTORE POP PUSH1 0x2 PUSH1 0xC SSTORE PUSH0 PUSH1 0xE PUSH0 PUSH2 0x100 EXP DUP2 SLOAD DUP2 PUSH1 0xFF MUL NOT AND SWAP1 DUP4 ISZERO ISZERO MUL OR SWAP1 SSTORE POP PUSH1 0x1E PUSH1 0xF SSTORE CALLVALUE DUP1 ISZERO PUSH2 0x65 JUMPI PUSH0 PUSH0 REVERT JUMPDEST POP PUSH1 0x40 MLOAD PUSH2 0x3944 CODESIZE SUB DUP1 PUSH2 0x3944 DUP4 CODECOPY DUP2 DUP2 ADD PUSH1 0x40 MSTORE DUP2 ADD SWAP1 PUSH2 0x87 SWAP2 SWAP1 PUSH2 0x990 JUMP JUMPDEST PUSH1 0x40 MLOAD DUP1 PUSH1 0x40 ADD PUSH1 0x40 MSTORE DUP1 PUSH1 0xB DUP2 MSTORE PUSH1 0x20 ADD PUSH32 0x57616C6C7920546F6B656E000000000000000000000000000000000000000000 DUP2 MSTORE POP PUSH1 0x40 MLOAD DUP1 PUSH1 0x40 ADD PUSH1 0x40 MSTORE DUP1 PUSH1 0x3 DUP2 MSTORE PUSH1 0x20 ADD PUSH32 0x5457470000000000000000000000000000000000000000000000000000000000 DUP2 MSTORE POP DUP2 PUSH1 0x3 SWAP1 DUP2 PUSH2 0x102 SWAP2 SWAP1 PUSH2 0xBF8 JUMP JUMPDEST POP DUP1 PUSH1 0x4 SWAP1 DUP2 PUSH2 0x112 SWAP2 SWAP1 PUSH2 0xBF8 JUMP JUMPDEST POP POP POP PUSH1 0x1 PUSH1 0x6 DUP2 SWAP1 SSTORE POP PUSH0 PUSH20 0xFFFFFFFFFFFFFFFFFFFFFFFFFFFFFFFFFFFFFFFF AND DUP2 PUSH20 0xFFFFFFFFFFFFFFFFFFFFFFFFFFFFFFFFFFFFFFFF AND SUB PUSH2 0x18B JUMPI PUSH1 0x40 MLOAD PUSH32 0x8C379A000000000000000000000000000000000000000000000000000000000 DUP2 MSTORE PUSH1 0x4 ADD PUSH2 0x182 SWAP1 PUSH2 0xD21 JUMP JUMPDEST PUSH1 0x40 MLOAD DUP1 SWAP2 SUB SWAP1 REVERT JUMPDEST PUSH2 0x1A7 CALLER PUSH12 0x409F9CBC7C4A04C220000000 PUSH2 0x4B7 PUSH1 0x20 SHL PUSH1 0x20 SHR JUMP JUMPDEST PUSH2 0x1EB PUSH32 0xA49807205CE4D355092EF5A8A18F56E8913CF4A201FBE287825B095693C21775 PUSH20 0x633EA8FE424CD65AD4D4826E6581273AFD06B8EF PUSH2 0x53C PUSH1 0x20 SHL PUSH1 0x20 SHR JUMP JUMPDEST POP PUSH2 0x23C PUSH32 0x9F2DF0FED2C77648DE5860A4CC508CD0818C85B8B8A1AB4CEEEF8D981C8956A6 PUSH32 0xA49807205CE4D355092EF5A8A18F56E8913CF4A201FBE287825B095693C21775 PUSH2 0x632 PUSH1 0x20 SHL PUSH1 0x20 SHR JUMP JUMPDEST PUSH2 0x28C PUSH32 0x3C11D16CBAFFD01DF69CE1C404F6340EE057498F5F00246190EA54220576A848 PUSH32 0xA49807205CE4D355092EF5A8A18F56E8913CF4A201FBE287825B095693C21775 PUSH2 0x632 PUSH1 0x20 SHL PUSH1 0x20 SHR JUMP JUMPDEST DUP1 PUSH1 0x7 PUSH0 PUSH2 0x100 EXP DUP2 SLOAD DUP2 PUSH20 0xFFFFFFFFFFFFFFFFFFFFFFFFFFFFFFFFFFFFFFFF MUL NOT AND SWAP1 DUP4 PUSH20 0xFFFFFFFFFFFFFFFFFFFFFFFFFFFFFFFFFFFFFFFF AND MUL OR SWAP1 SSTORE POP PUSH0 PUSH1 0x7 PUSH0 SWAP1 SLOAD SWAP1 PUSH2 0x100 EXP SWAP1 DIV PUSH20 0xFFFFFFFFFFFFFFFFFFFFFFFFFFFFFFFFFFFFFFFF AND PUSH20 0xFFFFFFFFFFFFFFFFFFFFFFFFFFFFFFFFFFFFFFFF AND PUSH4 0xC45A0155 PUSH1 0x40 MLOAD DUP2 PUSH4 0xFFFFFFFF AND PUSH1 0xE0 SHL DUP2 MSTORE PUSH1 0x4 ADD PUSH1 0x20 PUSH1 0x40 MLOAD DUP1 DUP4 SUB DUP2 DUP7 GAS STATICCALL ISZERO DUP1 ISZERO PUSH2 0x337 JUMPI RETURNDATASIZE PUSH0 PUSH0 RETURNDATACOPY RETURNDATASIZE PUSH0 REVERT JUMPDEST POP POP POP POP PUSH1 0x40 MLOAD RETURNDATASIZE PUSH1 0x1F NOT PUSH1 0x1F DUP3 ADD AND DUP3 ADD DUP1 PUSH1 0x40 MSTORE POP DUP2 ADD SWAP1 PUSH2 0x35B SWAP2 SWAP1 PUSH2 0x990 JUMP JUMPDEST SWAP1 POP PUSH0 PUSH1 0x7 PUSH0 SWAP1 SLOAD SWAP1 PUSH2 0x100 EXP SWAP1 DIV PUSH20 0xFFFFFFFFFFFFFFFFFFFFFFFFFFFFFFFFFFFFFFFF AND PUSH20 0xFFFFFFFFFFFFFFFFFFFFFFFFFFFFFFFFFFFFFFFF AND PUSH4 0xAD5C4648 PUSH1 0x40 MLOAD DUP2 PUSH4 0xFFFFFFFF AND PUSH1 0xE0 SHL DUP2 MSTORE PUSH1 0x4 ADD PUSH1 0x20 PUSH1 0x40 MLOAD DUP1 DUP4 SUB DUP2 DUP7 GAS STATICCALL ISZERO DUP1 ISZERO PUSH2 0x3C8 JUMPI RETURNDATASIZE PUSH0 PUSH0 RETURNDATACOPY RETURNDATASIZE PUSH0 REVERT JUMPDEST POP POP POP POP PUSH1 0x40 MLOAD RETURNDATASIZE PUSH1 0x1F NOT PUSH1 0x1F DUP3 ADD AND DUP3 ADD DUP1 PUSH1 0x40 MSTORE POP DUP2 ADD SWAP1 PUSH2 0x3EC SWAP2 SWAP1 PUSH2 0x990 JUMP JUMPDEST SWAP1 POP DUP2 PUSH20 0xFFFFFFFFFFFFFFFFFFFFFFFFFFFFFFFFFFFFFFFF AND PUSH4 0xC9C65396 ADDRESS DUP4 PUSH1 0x40 MLOAD DUP4 PUSH4 0xFFFFFFFF AND PUSH1 0xE0 SHL DUP2 MSTORE PUSH1 0x4 ADD PUSH2 0x429 SWAP3 SWAP2 SWAP1 PUSH2 0xD4E JUMP JUMPDEST PUSH1 0x20 PUSH1 0x40 MLOAD DUP1 DUP4 SUB DUP2 PUSH0 DUP8 GAS CALL ISZERO DUP1 ISZERO PUSH2 0x445 JUMPI RETURNDATASIZE PUSH0 PUSH0 RETURNDATACOPY RETURNDATASIZE PUSH0 REVERT JUMPDEST POP POP POP POP PUSH1 0x40 MLOAD RETURNDATASIZE PUSH1 0x1F NOT PUSH1 0x1F DUP3 ADD AND DUP3 ADD DUP1 PUSH1 0x40 MSTORE POP DUP2 ADD SWAP1 PUSH2 0x469 SWAP2 SWAP1 PUSH2 0x990 JUMP JUMPDEST PUSH1 0x8 PUSH0 PUSH2 0x100 EXP DUP2 SLOAD DUP2 PUSH20 0xFFFFFFFFFFFFFFFFFFFFFFFFFFFFFFFFFFFFFFFF MUL NOT AND SWAP1 DUP4 PUSH20 0xFFFFFFFFFFFFFFFFFFFFFFFFFFFFFFFFFFFFFFFF AND MUL OR SWAP1 SSTORE POP PUSH0 PUSH1 0xA DUP2 SWAP1 SSTORE POP POP POP POP PUSH2 0xE4B JUMP JUMPDEST PUSH0 PUSH20 0xFFFFFFFFFFFFFFFFFFFFFFFFFFFFFFFFFFFFFFFF AND DUP3 PUSH20 0xFFFFFFFFFFFFFFFFFFFFFFFFFFFFFFFFFFFFFFFF AND SUB PUSH2 0x527 JUMPI PUSH0 PUSH1 0x40 MLOAD PUSH32 0xEC442F0500000000000000000000000000000000000000000000000000000000 DUP2 MSTORE PUSH1 0x4 ADD PUSH2 0x51E SWAP2 SWAP1 PUSH2 0xD75 JUMP JUMPDEST PUSH1 0x40 MLOAD DUP1 SWAP2 SUB SWAP1 REVERT JUMPDEST PUSH2 0x538 PUSH0 DUP4 DUP4 PUSH2 0x691 PUSH1 0x20 SHL PUSH1 0x20 SHR JUMP JUMPDEST POP POP JUMP JUMPDEST PUSH0 PUSH2 0x54D DUP4 DUP4 PUSH2 0x8AA PUSH1 0x20 SHL PUSH1 0x20 SHR JUMP JUMPDEST PUSH2 0x628 JUMPI PUSH1 0x1 PUSH1 0x5 PUSH0 DUP6 DUP2 MSTORE PUSH1 0x20 ADD SWAP1 DUP2 MSTORE PUSH1 0x20 ADD PUSH0 KECCAK256 PUSH0 ADD PUSH0 DUP5 PUSH20 0xFFFFFFFFFFFFFFFFFFFFFFFFFFFFFFFFFFFFFFFF AND PUSH20 0xFFFFFFFFFFFFFFFFFFFFFFFFFFFFFFFFFFFFFFFF AND DUP2 MSTORE PUSH1 0x20 ADD SWAP1 DUP2 MSTORE PUSH1 0x20 ADD PUSH0 KECCAK256 PUSH0 PUSH2 0x100 EXP DUP2 SLOAD DUP2 PUSH1 0xFF MUL NOT AND SWAP1 DUP4 ISZERO ISZERO MUL OR SWAP1 SSTORE POP PUSH2 0x5C5 PUSH2 0x90E PUSH1 0x20 SHL PUSH1 0x20 SHR JUMP JUMPDEST PUSH20 0xFFFFFFFFFFFFFFFFFFFFFFFFFFFFFFFFFFFFFFFF AND DUP3 PUSH20 0xFFFFFFFFFFFFFFFFFFFFFFFFFFFFFFFFFFFFFFFF AND DUP5 PUSH32 0x2F8788117E7EFF1D82E926EC794901D17C78024A50270940304540A733656F0D PUSH1 0x40 MLOAD PUSH1 0x40 MLOAD DUP1 SWAP2 SUB SWAP1 LOG4 PUSH1 0x1 SWAP1 POP PUSH2 0x62C JUMP JUMPDEST PUSH0 SWAP1 POP JUMPDEST SWAP3 SWAP2 POP POP JUMP JUMPDEST PUSH0 PUSH2 0x642 DUP4 PUSH2 0x915 PUSH1 0x20 SHL PUSH1 0x20 SHR JUMP JUMPDEST SWAP1 POP DUP2 PUSH1 0x5 PUSH0 DUP6 DUP2 MSTORE PUSH1 0x20 ADD SWAP1 DUP2 MSTORE PUSH1 0x20 ADD PUSH0 KECCAK256 PUSH1 0x1 ADD DUP2 SWAP1 SSTORE POP DUP2 DUP2 DUP5 PUSH32 0xBD79B86FFE0AB8E8776151514217CD7CACD52C909F66475C3AF44E129F0B00FF PUSH1 0x40 MLOAD PUSH1 0x40 MLOAD DUP1 SWAP2 SUB SWAP1 LOG4 POP POP POP JUMP JUMPDEST PUSH0 PUSH20 0xFFFFFFFFFFFFFFFFFFFFFFFFFFFFFFFFFFFFFFFF AND DUP4 PUSH20 0xFFFFFFFFFFFFFFFFFFFFFFFFFFFFFFFFFFFFFFFF AND SUB PUSH2 0x6E1 JUMPI DUP1 PUSH1 0x2 PUSH0 DUP3 DUP3 SLOAD PUSH2 0x6D5 SWAP2 SWAP1 PUSH2 0xDBB JUMP JUMPDEST SWAP3 POP POP DUP2 SWAP1 SSTORE POP PUSH2 0x7AF JUMP JUMPDEST PUSH0 PUSH0 PUSH0 DUP6 PUSH20 0xFFFFFFFFFFFFFFFFFFFFFFFFFFFFFFFFFFFFFFFF AND PUSH20 0xFFFFFFFFFFFFFFFFFFFFFFFFFFFFFFFFFFFFFFFF AND DUP2 MSTORE PUSH1 0x20 ADD SWAP1 DUP2 MSTORE PUSH1 0x20 ADD PUSH0 KECCAK256 SLOAD SWAP1 POP DUP2 DUP2 LT ISZERO PUSH2 0x76A JUMPI DUP4 DUP2 DUP4 PUSH1 0x40 MLOAD PUSH32 0xE450D38C00000000000000000000000000000000000000000000000000000000 DUP2 MSTORE PUSH1 0x4 ADD PUSH2 0x761 SWAP4 SWAP3 SWAP2 SWAP1 PUSH2 0xDFD JUMP JUMPDEST PUSH1 0x40 MLOAD DUP1 SWAP2 SUB SWAP1 REVERT JUMPDEST DUP2 DUP2 SUB PUSH0 PUSH0 DUP7 PUSH20 0xFFFFFFFFFFFFFFFFFFFFFFFFFFFFFFFFFFFFFFFF AND PUSH20 0xFFFFFFFFFFFFFFFFFFFFFFFFFFFFFFFFFFFFFFFF AND DUP2 MSTORE PUSH1 0x20 ADD SWAP1 DUP2 MSTORE PUSH1 0x20 ADD PUSH0 KECCAK256 DUP2 SWAP1 SSTORE POP POP JUMPDEST PUSH0 PUSH20 0xFFFFFFFFFFFFFFFFFFFFFFFFFFFFFFFFFFFFFFFF AND DUP3 PUSH20 0xFFFFFFFFFFFFFFFFFFFFFFFFFFFFFFFFFFFFFFFF AND SUB PUSH2 0x7F6 JUMPI DUP1 PUSH1 0x2 PUSH0 DUP3 DUP3 SLOAD SUB SWAP3 POP POP DUP2 SWAP1 SSTORE POP PUSH2 0x840 JUMP JUMPDEST DUP1 PUSH0 PUSH0 DUP5 PUSH20 0xFFFFFFFFFFFFFFFFFFFFFFFFFFFFFFFFFFFFFFFF AND PUSH20 0xFFFFFFFFFFFFFFFFFFFFFFFFFFFFFFFFFFFFFFFF AND DUP2 MSTORE PUSH1 0x20 ADD SWAP1 DUP2 MSTORE PUSH1 0x20 ADD PUSH0 KECCAK256 PUSH0 DUP3 DUP3 SLOAD ADD SWAP3 POP POP DUP2 SWAP1 SSTORE POP JUMPDEST DUP2 PUSH20 0xFFFFFFFFFFFFFFFFFFFFFFFFFFFFFFFFFFFFFFFF AND DUP4 PUSH20 0xFFFFFFFFFFFFFFFFFFFFFFFFFFFFFFFFFFFFFFFF AND PUSH32 0xDDF252AD1BE2C89B69C2B068FC378DAA952BA7F163C4A11628F55A4DF523B3EF DUP4 PUSH1 0x40 MLOAD PUSH2 0x89D SWAP2 SWAP1 PUSH2 0xE32 JUMP JUMPDEST PUSH1 0x40 MLOAD DUP1 SWAP2 SUB SWAP1 LOG3 POP POP POP JUMP JUMPDEST PUSH0 PUSH1 0x5 PUSH0 DUP5 DUP2 MSTORE PUSH1 0x20 ADD SWAP1 DUP2 MSTORE PUSH1 0x20 ADD PUSH0 KECCAK256 PUSH0 ADD PUSH0 DUP4 PUSH20 0xFFFFFFFFFFFFFFFFFFFFFFFFFFFFFFFFFFFFFFFF AND PUSH20 0xFFFFFFFFFFFFFFFFFFFFFFFFFFFFFFFFFFFFFFFF AND DUP2 MSTORE PUSH1 0x20 ADD SWAP1 DUP2 MSTORE PUSH1 0x20 ADD PUSH0 KECCAK256 PUSH0 SWAP1 SLOAD SWAP1 PUSH2 0x100 EXP SWAP1 DIV PUSH1 0xFF AND SWAP1 POP SWAP3 SWAP2 POP POP JUMP JUMPDEST PUSH0 CALLER SWAP1 POP SWAP1 JUMP JUMPDEST PUSH0 PUSH1 0x5 PUSH0 DUP4 DUP2 MSTORE PUSH1 0x20 ADD SWAP1 DUP2 MSTORE PUSH1 0x20 ADD PUSH0 KECCAK256 PUSH1 0x1 ADD SLOAD SWAP1 POP SWAP2 SWAP1 POP JUMP JUMPDEST PUSH0 PUSH0 REVERT JUMPDEST PUSH0 PUSH20 0xFFFFFFFFFFFFFFFFFFFFFFFFFFFFFFFFFFFFFFFF DUP3 AND SWAP1 POP SWAP2 SWAP1 POP JUMP JUMPDEST PUSH0 PUSH2 0x95F DUP3 PUSH2 0x936 JUMP JUMPDEST SWAP1 POP SWAP2 SWAP1 POP JUMP JUMPDEST PUSH2 0x96F DUP2 PUSH2 0x955 JUMP JUMPDEST DUP2 EQ PUSH2 0x979 JUMPI PUSH0 PUSH0 REVERT JUMPDEST POP JUMP JUMPDEST PUSH0 DUP2 MLOAD SWAP1 POP PUSH2 0x98A DUP2 PUSH2 0x966 JUMP JUMPDEST SWAP3 SWAP2 POP POP JUMP JUMPDEST PUSH0 PUSH1 0x20 DUP3 DUP5 SUB SLT ISZERO PUSH2 0x9A5 JUMPI PUSH2 0x9A4 PUSH2 0x932 JUMP JUMPDEST JUMPDEST PUSH0 PUSH2 0x9B2 DUP5 DUP3 DUP6 ADD PUSH2 0x97C JUMP JUMPDEST SWAP2 POP POP SWAP3 SWAP2 POP POP JUMP JUMPDEST PUSH0 DUP2 MLOAD SWAP1 POP SWAP2 SWAP1 POP JUMP JUMPDEST PUSH32 0x4E487B7100000000000000000000000000000000000000000000000000000000 PUSH0 MSTORE PUSH1 0x41 PUSH1 0x4 MSTORE PUSH1 0x24 PUSH0 REVERT JUMPDEST PUSH32 0x4E487B7100000000000000000000000000000000000000000000000000000000 PUSH0 MSTORE PUSH1 0x22 PUSH1 0x4 MSTORE PUSH1 0x24 PUSH0 REVERT JUMPDEST PUSH0 PUSH1 0x2 DUP3 DIV SWAP1 POP PUSH1 0x1 DUP3 AND DUP1 PUSH2 0xA36 JUMPI PUSH1 0x7F DUP3 AND SWAP2 POP JUMPDEST PUSH1 0x20 DUP3 LT DUP2 SUB PUSH2 0xA49 JUMPI PUSH2 0xA48 PUSH2 0x9F2 JUMP JUMPDEST JUMPDEST POP SWAP2 SWAP1 POP JUMP JUMPDEST PUSH0 DUP2 SWAP1 POP DUP2 PUSH0 MSTORE PUSH1 0x20 PUSH0 KECCAK256 SWAP1 POP SWAP2 SWAP1 POP JUMP JUMPDEST PUSH0 PUSH1 0x20 PUSH1 0x1F DUP4 ADD DIV SWAP1 POP SWAP2 SWAP1 POP JUMP JUMPDEST PUSH0 DUP3 DUP3 SHL SWAP1 POP SWAP3 SWAP2 POP POP JUMP JUMPDEST PUSH0 PUSH1 0x8 DUP4 MUL PUSH2 0xAAB PUSH32 0xFFFFFFFFFFFFFFFFFFFFFFFFFFFFFFFFFFFFFFFFFFFFFFFFFFFFFFFFFFFFFFFF DUP3 PUSH2 0xA70 JUMP JUMPDEST PUSH2 0xAB5 DUP7 DUP4 PUSH2 0xA70 JUMP JUMPDEST SWAP6 POP DUP1 NOT DUP5 AND SWAP4 POP DUP1 DUP7 AND DUP5 OR SWAP3 POP POP POP SWAP4 SWAP3 POP POP POP JUMP JUMPDEST PUSH0 DUP2 SWAP1 POP SWAP2 SWAP1 POP JUMP JUMPDEST PUSH0 DUP2 SWAP1 POP SWAP2 SWAP1 POP JUMP JUMPDEST PUSH0 PUSH2 0xAF9 PUSH2 0xAF4 PUSH2 0xAEF DUP5 PUSH2 0xACD JUMP JUMPDEST PUSH2 0xAD6 JUMP JUMPDEST PUSH2 0xACD JUMP JUMPDEST SWAP1 POP SWAP2 SWAP1 POP JUMP JUMPDEST PUSH0 DUP2 SWAP1 POP SWAP2 SWAP1 POP JUMP JUMPDEST PUSH2 0xB12 DUP4 PUSH2 0xADF JUMP JUMPDEST PUSH2 0xB26 PUSH2 0xB1E DUP3 PUSH2 0xB00 JUMP JUMPDEST DUP5 DUP5 SLOAD PUSH2 0xA7C JUMP JUMPDEST DUP3 SSTORE POP POP POP POP JUMP JUMPDEST PUSH0 PUSH0 SWAP1 POP SWAP1 JUMP JUMPDEST PUSH2 0xB3D PUSH2 0xB2E JUMP JUMPDEST PUSH2 0xB48 DUP2 DUP5 DUP5 PUSH2 0xB09 JUMP JUMPDEST POP POP POP JUMP JUMPDEST JUMPDEST DUP2 DUP2 LT ISZERO PUSH2 0xB6B JUMPI PUSH2 0xB60 PUSH0 DUP3 PUSH2 0xB35 JUMP JUMPDEST PUSH1 0x1 DUP2 ADD SWAP1 POP PUSH2 0xB4E JUMP JUMPDEST POP POP JUMP JUMPDEST PUSH1 0x1F DUP3 GT ISZERO PUSH2 0xBB0 JUMPI PUSH2 0xB81 DUP2 PUSH2 0xA4F JUMP JUMPDEST PUSH2 0xB8A DUP5 PUSH2 0xA61 JUMP JUMPDEST DUP2 ADD PUSH1 0x20 DUP6 LT ISZERO PUSH2 0xB99 JUMPI DUP2 SWAP1 POP JUMPDEST PUSH2 0xBAD PUSH2 0xBA5 DUP6 PUSH2 0xA61 JUMP JUMPDEST DUP4 ADD DUP3 PUSH2 0xB4D JUMP JUMPDEST POP POP JUMPDEST POP POP POP JUMP JUMPDEST PUSH0 DUP3 DUP3 SHR SWAP1 POP SWAP3 SWAP2 POP POP JUMP JUMPDEST PUSH0 PUSH2 0xBD0 PUSH0 NOT DUP5 PUSH1 0x8 MUL PUSH2 0xBB5 JUMP JUMPDEST NOT DUP1 DUP4 AND SWAP2 POP POP SWAP3 SWAP2 POP POP JUMP JUMPDEST PUSH0 PUSH2 0xBE8 DUP4 DUP4 PUSH2 0xBC1 JUMP JUMPDEST SWAP2 POP DUP3 PUSH1 0x2 MUL DUP3 OR SWAP1 POP SWAP3 SWAP2 POP POP JUMP JUMPDEST PUSH2 0xC01 DUP3 PUSH2 0x9BB JUMP JUMPDEST PUSH8 0xFFFFFFFFFFFFFFFF DUP2 GT ISZERO PUSH2 0xC1A JUMPI PUSH2 0xC19 PUSH2 0x9C5 JUMP JUMPDEST JUMPDEST PUSH2 0xC24 DUP3 SLOAD PUSH2 0xA1F JUMP JUMPDEST PUSH2 0xC2F DUP3 DUP3 DUP6 PUSH2 0xB6F JUMP JUMPDEST PUSH0 PUSH1 0x20 SWAP1 POP PUSH1 0x1F DUP4 GT PUSH1 0x1 DUP2 EQ PUSH2 0xC60 JUMPI PUSH0 DUP5 ISZERO PUSH2 0xC4E JUMPI DUP3 DUP8 ADD MLOAD SWAP1 POP JUMPDEST PUSH2 0xC58 DUP6 DUP3 PUSH2 0xBDD JUMP JUMPDEST DUP7 SSTORE POP PUSH2 0xCBF JUMP JUMPDEST PUSH1 0x1F NOT DUP5 AND PUSH2 0xC6E DUP7 PUSH2 0xA4F JUMP JUMPDEST PUSH0 JUMPDEST DUP3 DUP2 LT ISZERO PUSH2 0xC95 JUMPI DUP5 DUP10 ADD MLOAD DUP3 SSTORE PUSH1 0x1 DUP3 ADD SWAP2 POP PUSH1 0x20 DUP6 ADD SWAP5 POP PUSH1 0x20 DUP2 ADD SWAP1 POP PUSH2 0xC70 JUMP JUMPDEST DUP7 DUP4 LT ISZERO PUSH2 0xCB2 JUMPI DUP5 DUP10 ADD MLOAD PUSH2 0xCAE PUSH1 0x1F DUP10 AND DUP3 PUSH2 0xBC1 JUMP JUMPDEST DUP4 SSTORE POP JUMPDEST PUSH1 0x1 PUSH1 0x2 DUP9 MUL ADD DUP9 SSTORE POP POP POP JUMPDEST POP POP POP POP POP POP JUMP JUMPDEST PUSH0 DUP3 DUP3 MSTORE PUSH1 0x20 DUP3 ADD SWAP1 POP SWAP3 SWAP2 POP POP JUMP JUMPDEST PUSH32 0x526F757465722063616E6E6F74206265207A65726F2061646472657373000000 PUSH0 DUP3 ADD MSTORE POP JUMP JUMPDEST PUSH0 PUSH2 0xD0B PUSH1 0x1D DUP4 PUSH2 0xCC7 JUMP JUMPDEST SWAP2 POP PUSH2 0xD16 DUP3 PUSH2 0xCD7 JUMP JUMPDEST PUSH1 0x20 DUP3 ADD SWAP1 POP SWAP2 SWAP1 POP JUMP JUMPDEST PUSH0 PUSH1 0x20 DUP3 ADD SWAP1 POP DUP2 DUP2 SUB PUSH0 DUP4 ADD MSTORE PUSH2 0xD38 DUP2 PUSH2 0xCFF JUMP JUMPDEST SWAP1 POP SWAP2 SWAP1 POP JUMP JUMPDEST PUSH2 0xD48 DUP2 PUSH2 0x955 JUMP JUMPDEST DUP3 MSTORE POP POP JUMP JUMPDEST PUSH0 PUSH1 0x40 DUP3 ADD SWAP1 POP PUSH2 0xD61 PUSH0 DUP4 ADD DUP6 PUSH2 0xD3F JUMP JUMPDEST PUSH2 0xD6E PUSH1 0x20 DUP4 ADD DUP5 PUSH2 0xD3F JUMP JUMPDEST SWAP4 SWAP3 POP POP POP JUMP JUMPDEST PUSH0 PUSH1 0x20 DUP3 ADD SWAP1 POP PUSH2 0xD88 PUSH0 DUP4 ADD DUP5 PUSH2 0xD3F JUMP JUMPDEST SWAP3 SWAP2 POP POP JUMP JUMPDEST PUSH32 0x4E487B7100000000000000000000000000000000000000000000000000000000 PUSH0 MSTORE PUSH1 0x11 PUSH1 0x4 MSTORE PUSH1 0x24 PUSH0 REVERT JUMPDEST PUSH0 PUSH2 0xDC5 DUP3 PUSH2 0xACD JUMP JUMPDEST SWAP2 POP PUSH2 0xDD0 DUP4 PUSH2 0xACD JUMP JUMPDEST SWAP3 POP DUP3 DUP3 ADD SWAP1 POP DUP1 DUP3 GT ISZERO PUSH2 0xDE8 JUMPI PUSH2 0xDE7 PUSH2 0xD8E JUMP JUMPDEST JUMPDEST SWAP3 SWAP2 POP POP JUMP JUMPDEST PUSH2 0xDF7 DUP2 PUSH2 0xACD JUMP JUMPDEST DUP3 MSTORE POP POP JUMP JUMPDEST PUSH0 PUSH1 0x60 DUP3 ADD SWAP1 POP PUSH2 0xE10 PUSH0 DUP4 ADD DUP7 PUSH2 0xD3F JUMP JUMPDEST PUSH2 0xE1D PUSH1 0x20 DUP4 ADD DUP6 PUSH2 0xDEE JUMP JUMPDEST PUSH2 0xE2A PUSH1 0x40 DUP4 ADD DUP5 PUSH2 0xDEE JUMP JUMPDEST SWAP5 SWAP4 POP POP POP POP JUMP JUMPDEST PUSH0 PUSH1 0x20 DUP3 ADD SWAP1 POP PUSH2 0xE45 PUSH0 DUP4 ADD DUP5 PUSH2 0xDEE JUMP JUMPDEST SWAP3 SWAP2 POP POP JUMP JUMPDEST PUSH2 0x2AEC DUP1 PUSH2 0xE58 PUSH0 CODECOPY PUSH0 RETURN INVALID PUSH1 0x80 PUSH1 0x40 MSTORE PUSH1 0x4 CALLDATASIZE LT PUSH2 0x254 JUMPI PUSH0 CALLDATALOAD PUSH1 0xE0 SHR DUP1 PUSH4 0x70A08231 GT PUSH2 0x138 JUMPI DUP1 PUSH4 0xB319C6B7 GT PUSH2 0xB5 JUMPI DUP1 PUSH4 0xD547741F GT PUSH2 0x79 JUMPI DUP1 PUSH4 0xD547741F EQ PUSH2 0x8C3 JUMPI DUP1 PUSH4 0xDD62ED3E EQ PUSH2 0x8EB JUMPI DUP1 PUSH4 0xEC28438A EQ PUSH2 0x927 JUMPI DUP1 PUSH4 0xF68DED66 EQ PUSH2 0x94F JUMPI DUP1 PUSH4 0xF6F1E306 EQ PUSH2 0x979 JUMPI DUP1 PUSH4 0xF9F92BE4 EQ PUSH2 0x9AB JUMPI PUSH2 0x25B JUMP JUMPDEST DUP1 PUSH4 0xB319C6B7 EQ PUSH2 0x7F5 JUMPI DUP1 PUSH4 0xB37FD190 EQ PUSH2 0x81F JUMPI DUP1 PUSH4 0xC2E5EC04 EQ PUSH2 0x847 JUMPI DUP1 PUSH4 0xD00EFB2F EQ PUSH2 0x86F JUMPI DUP1 PUSH4 0xD5391393 EQ PUSH2 0x899 JUMPI PUSH2 0x25B JUMP JUMPDEST DUP1 PUSH4 0x95D89B41 GT PUSH2 0xFC JUMPI DUP1 PUSH4 0x95D89B41 EQ PUSH2 0x711 JUMPI DUP1 PUSH4 0x963472F9 EQ PUSH2 0x73B JUMPI DUP1 PUSH4 0xA217FDDF EQ PUSH2 0x765 JUMPI DUP1 PUSH4 0xA9059CBB EQ PUSH2 0x78F JUMPI DUP1 PUSH4 0xA985CEEF EQ PUSH2 0x7CB JUMPI PUSH2 0x25B JUMP JUMPDEST DUP1 PUSH4 0x70A08231 EQ PUSH2 0x61D JUMPI DUP1 PUSH4 0x75B238FC EQ PUSH2 0x659 JUMPI DUP1 PUSH4 0x89900603 EQ PUSH2 0x683 JUMPI DUP1 PUSH4 0x8C0B5E22 EQ PUSH2 0x6AB JUMPI DUP1 PUSH4 0x91D14854 EQ PUSH2 0x6D5 JUMPI PUSH2 0x25B JUMP JUMPDEST DUP1 PUSH4 0x2BE29FA8 GT PUSH2 0x1D1 JUMPI DUP1 PUSH4 0x40C10F19 GT PUSH2 0x195 JUMPI DUP1 PUSH4 0x40C10F19 EQ PUSH2 0x515 JUMPI DUP1 PUSH4 0x42966C68 EQ PUSH2 0x53D JUMPI DUP1 PUSH4 0x4551BBE9 EQ PUSH2 0x565 JUMPI DUP1 PUSH4 0x48FCA59D EQ PUSH2 0x5A1 JUMPI DUP1 PUSH4 0x49BD5A5E EQ PUSH2 0x5C9 JUMPI DUP1 PUSH4 0x4ADA218B EQ PUSH2 0x5F3 JUMPI PUSH2 0x25B JUMP JUMPDEST DUP1 PUSH4 0x2BE29FA8 EQ PUSH2 0x447 JUMPI DUP1 PUSH4 0x2F2FF15D EQ PUSH2 0x471 JUMPI DUP1 PUSH4 0x2FF2E9DC EQ PUSH2 0x499 JUMPI DUP1 PUSH4 0x313CE567 EQ PUSH2 0x4C3 JUMPI DUP1 PUSH4 0x36568ABE EQ PUSH2 0x4ED JUMPI PUSH2 0x25B JUMP JUMPDEST DUP1 PUSH4 0x1694505E GT PUSH2 0x218 JUMPI DUP1 PUSH4 0x1694505E EQ PUSH2 0x351 JUMPI DUP1 PUSH4 0x18160DDD EQ PUSH2 0x37B JUMPI DUP1 PUSH4 0x23B872DD EQ PUSH2 0x3A5 JUMPI DUP1 PUSH4 0x248A9CA3 EQ PUSH2 0x3E1 JUMPI DUP1 PUSH4 0x282C51F3 EQ PUSH2 0x41D JUMPI PUSH2 0x25B JUMP JUMPDEST DUP1 PUSH4 0x1FFC9A7 EQ PUSH2 0x25F JUMPI DUP1 PUSH4 0x6FDDE03 EQ PUSH2 0x29B JUMPI DUP1 PUSH4 0x95EA7B3 EQ PUSH2 0x2C5 JUMPI DUP1 PUSH4 0x99A04E5 EQ PUSH2 0x301 JUMPI DUP1 PUSH4 0x153B0D1E EQ PUSH2 0x329 JUMPI PUSH2 0x25B JUMP JUMPDEST CALLDATASIZE PUSH2 0x25B JUMPI STOP JUMPDEST PUSH0 PUSH0 REVERT JUMPDEST CALLVALUE DUP1 ISZERO PUSH2 0x26A JUMPI PUSH0 PUSH0 REVERT JUMPDEST POP PUSH2 0x285 PUSH1 0x4 DUP1 CALLDATASIZE SUB DUP2 ADD SWAP1 PUSH2 0x280 SWAP2 SWAP1 PUSH2 0x2035 JUMP JUMPDEST PUSH2 0x9E7 JUMP JUMPDEST PUSH1 0x40 MLOAD PUSH2 0x292 SWAP2 SWAP1 PUSH2 0x207A JUMP JUMPDEST PUSH1 0x40 MLOAD DUP1 SWAP2 SUB SWAP1 RETURN JUMPDEST CALLVALUE DUP1 ISZERO PUSH2 0x2A6 JUMPI PUSH0 PUSH0 REVERT JUMPDEST POP PUSH2 0x2AF PUSH2 0xA60 JUMP JUMPDEST PUSH1 0x40 MLOAD PUSH2 0x2BC SWAP2 SWAP1 PUSH2 0x2103 JUMP JUMPDEST PUSH1 0x40 MLOAD DUP1 SWAP2 SUB SWAP1 RETURN JUMPDEST CALLVALUE DUP1 ISZERO PUSH2 0x2D0 JUMPI PUSH0 PUSH0 REVERT JUMPDEST POP PUSH2 0x2EB PUSH1 0x4 DUP1 CALLDATASIZE SUB DUP2 ADD SWAP1 PUSH2 0x2E6 SWAP2 SWAP1 PUSH2 0x21B0 JUMP JUMPDEST PUSH2 0xAF0 JUMP JUMPDEST PUSH1 0x40 MLOAD PUSH2 0x2F8 SWAP2 SWAP1 PUSH2 0x207A JUMP JUMPDEST PUSH1 0x40 MLOAD DUP1 SWAP2 SUB SWAP1 RETURN JUMPDEST CALLVALUE DUP1 ISZERO PUSH2 0x30C JUMPI PUSH0 PUSH0 REVERT JUMPDEST POP PUSH2 0x327 PUSH1 0x4 DUP1 CALLDATASIZE SUB DUP2 ADD SWAP1 PUSH2 0x322 SWAP2 SWAP1 PUSH2 0x2229 JUMP JUMPDEST PUSH2 0xB12 JUMP JUMPDEST STOP JUMPDEST CALLVALUE DUP1 ISZERO PUSH2 0x334 JUMPI PUSH0 PUSH0 REVERT JUMPDEST POP PUSH2 0x34F PUSH1 0x4 DUP1 CALLDATASIZE SUB DUP2 ADD SWAP1 PUSH2 0x34A SWAP2 SWAP1 PUSH2 0x2291 JUMP JUMPDEST PUSH2 0xC58 JUMP JUMPDEST STOP JUMPDEST CALLVALUE DUP1 ISZERO PUSH2 0x35C JUMPI PUSH0 PUSH0 REVERT JUMPDEST POP PUSH2 0x365 PUSH2 0xD29 JUMP JUMPDEST PUSH1 0x40 MLOAD PUSH2 0x372 SWAP2 SWAP1 PUSH2 0x232A JUMP JUMPDEST PUSH1 0x40 MLOAD DUP1 SWAP2 SUB SWAP1 RETURN JUMPDEST CALLVALUE DUP1 ISZERO PUSH2 0x386 JUMPI PUSH0 PUSH0 REVERT JUMPDEST POP PUSH2 0x38F PUSH2 0xD4E JUMP JUMPDEST PUSH1 0x40 MLOAD PUSH2 0x39C SWAP2 SWAP1 PUSH2 0x2352 JUMP JUMPDEST PUSH1 0x40 MLOAD DUP1 SWAP2 SUB SWAP1 RETURN JUMPDEST CALLVALUE DUP1 ISZERO PUSH2 0x3B0 JUMPI PUSH0 PUSH0 REVERT JUMPDEST POP PUSH2 0x3CB PUSH1 0x4 DUP1 CALLDATASIZE SUB DUP2 ADD SWAP1 PUSH2 0x3C6 SWAP2 SWAP1 PUSH2 0x236B JUMP JUMPDEST PUSH2 0xD57 JUMP JUMPDEST PUSH1 0x40 MLOAD PUSH2 0x3D8 SWAP2 SWAP1 PUSH2 0x207A JUMP JUMPDEST PUSH1 0x40 MLOAD DUP1 SWAP2 SUB SWAP1 RETURN JUMPDEST CALLVALUE DUP1 ISZERO PUSH2 0x3EC JUMPI PUSH0 PUSH0 REVERT JUMPDEST POP PUSH2 0x407 PUSH1 0x4 DUP1 CALLDATASIZE SUB DUP2 ADD SWAP1 PUSH2 0x402 SWAP2 SWAP1 PUSH2 0x23EE JUMP JUMPDEST PUSH2 0xD85 JUMP JUMPDEST PUSH1 0x40 MLOAD PUSH2 0x414 SWAP2 SWAP1 PUSH2 0x2428 JUMP JUMPDEST PUSH1 0x40 MLOAD DUP1 SWAP2 SUB SWAP1 RETURN JUMPDEST CALLVALUE DUP1 ISZERO PUSH2 0x428 JUMPI PUSH0 PUSH0 REVERT JUMPDEST POP PUSH2 0x431 PUSH2 0xDA2 JUMP JUMPDEST PUSH1 0x40 MLOAD PUSH2 0x43E SWAP2 SWAP1 PUSH2 0x2428 JUMP JUMPDEST PUSH1 0x40 MLOAD DUP1 SWAP2 SUB SWAP1 RETURN JUMPDEST CALLVALUE DUP1 ISZERO PUSH2 0x452 JUMPI PUSH0 PUSH0 REVERT JUMPDEST POP PUSH2 0x45B PUSH2 0xDC6 JUMP JUMPDEST PUSH1 0x40 MLOAD PUSH2 0x468 SWAP2 SWAP1 PUSH2 0x2352 JUMP JUMPDEST PUSH1 0x40 MLOAD DUP1 SWAP2 SUB SWAP1 RETURN JUMPDEST CALLVALUE DUP1 ISZERO PUSH2 0x47C JUMPI PUSH0 PUSH0 REVERT JUMPDEST POP PUSH2 0x497 PUSH1 0x4 DUP1 CALLDATASIZE SUB DUP2 ADD SWAP1 PUSH2 0x492 SWAP2 SWAP1 PUSH2 0x2441 JUMP JUMPDEST PUSH2 0xDCC JUMP JUMPDEST STOP JUMPDEST CALLVALUE DUP1 ISZERO PUSH2 0x4A4 JUMPI PUSH0 PUSH0 REVERT JUMPDEST POP PUSH2 0x4AD PUSH2 0xDEE JUMP JUMPDEST PUSH1 0x40 MLOAD PUSH2 0x4BA SWAP2 SWAP1 PUSH2 0x2352 JUMP JUMPDEST PUSH1 0x40 MLOAD DUP1 SWAP2 SUB SWAP1 RETURN JUMPDEST CALLVALUE DUP1 ISZERO PUSH2 0x4CE JUMPI PUSH0 PUSH0 REVERT JUMPDEST POP PUSH2 0x4D7 PUSH2 0xDFE JUMP JUMPDEST PUSH1 0x40 MLOAD PUSH2 0x4E4 SWAP2 SWAP1 PUSH2 0x249A JUMP JUMPDEST PUSH1 0x40 MLOAD DUP1 SWAP2 SUB SWAP1 RETURN JUMPDEST CALLVALUE DUP1 ISZERO PUSH2 0x4F8 JUMPI PUSH0 PUSH0 REVERT JUMPDEST POP PUSH2 0x513 PUSH1 0x4 DUP1 CALLDATASIZE SUB DUP2 ADD SWAP1 PUSH2 0x50E SWAP2 SWAP1 PUSH2 0x2441 JUMP JUMPDEST PUSH2 0xE06 JUMP JUMPDEST STOP JUMPDEST CALLVALUE DUP1 ISZERO PUSH2 0x520 JUMPI PUSH0 PUSH0 REVERT JUMPDEST POP PUSH2 0x53B PUSH1 0x4 DUP1 CALLDATASIZE SUB DUP2 ADD SWAP1 PUSH2 0x536 SWAP2 SWAP1 PUSH2 0x21B0 JUMP JUMPDEST PUSH2 0xE81 JUMP JUMPDEST STOP JUMPDEST CALLVALUE DUP1 ISZERO PUSH2 0x548 JUMPI PUSH0 PUSH0 REVERT JUMPDEST POP PUSH2 0x563 PUSH1 0x4 DUP1 CALLDATASIZE SUB DUP2 ADD SWAP1 PUSH2 0x55E SWAP2 SWAP1 PUSH2 0x24B3 JUMP JUMPDEST PUSH2 0xEBA JUMP JUMPDEST STOP JUMPDEST CALLVALUE DUP1 ISZERO PUSH2 0x570 JUMPI PUSH0 PUSH0 REVERT JUMPDEST POP PUSH2 0x58B PUSH1 0x4 DUP1 CALLDATASIZE SUB DUP2 ADD SWAP1 PUSH2 0x586 SWAP2 SWAP1 PUSH2 0x24DE JUMP JUMPDEST PUSH2 0xEF9 JUMP JUMPDEST PUSH1 0x40 MLOAD PUSH2 0x598 SWAP2 SWAP1 PUSH2 0x2352 JUMP JUMPDEST PUSH1 0x40 MLOAD DUP1 SWAP2 SUB SWAP1 RETURN JUMPDEST CALLVALUE DUP1 ISZERO PUSH2 0x5AC JUMPI PUSH0 PUSH0 REVERT JUMPDEST POP PUSH2 0x5C7 PUSH1 0x4 DUP1 CALLDATASIZE SUB DUP2 ADD SWAP1 PUSH2 0x5C2 SWAP2 SWAP1 PUSH2 0x2509 JUMP JUMPDEST PUSH2 0xF0E JUMP JUMPDEST STOP JUMPDEST CALLVALUE DUP1 ISZERO PUSH2 0x5D4 JUMPI PUSH0 PUSH0 REVERT JUMPDEST POP PUSH2 0x5DD PUSH2 0xF96 JUMP JUMPDEST PUSH1 0x40 MLOAD PUSH2 0x5EA SWAP2 SWAP1 PUSH2 0x2556 JUMP JUMPDEST PUSH1 0x40 MLOAD DUP1 SWAP2 SUB SWAP1 RETURN JUMPDEST CALLVALUE DUP1 ISZERO PUSH2 0x5FE JUMPI PUSH0 PUSH0 REVERT JUMPDEST POP PUSH2 0x607 PUSH2 0xFBB JUMP JUMPDEST PUSH1 0x40 MLOAD PUSH2 0x614 SWAP2 SWAP1 PUSH2 0x207A JUMP JUMPDEST PUSH1 0x40 MLOAD DUP1 SWAP2 SUB SWAP1 RETURN JUMPDEST CALLVALUE DUP1 ISZERO PUSH2 0x628 JUMPI PUSH0 PUSH0 REVERT JUMPDEST POP PUSH2 0x643 PUSH1 0x4 DUP1 CALLDATASIZE SUB DUP2 ADD SWAP1 PUSH2 0x63E SWAP2 SWAP1 PUSH2 0x24DE JUMP JUMPDEST PUSH2 0xFCE JUMP JUMPDEST PUSH1 0x40 MLOAD PUSH2 0x650 SWAP2 SWAP1 PUSH2 0x2352 JUMP JUMPDEST PUSH1 0x40 MLOAD DUP1 SWAP2 SUB SWAP1 RETURN JUMPDEST CALLVALUE DUP1 ISZERO PUSH2 0x664 JUMPI PUSH0 PUSH0 REVERT JUMPDEST POP PUSH2 0x66D PUSH2 0x1013 JUMP JUMPDEST PUSH1 0x40 MLOAD PUSH2 0x67A SWAP2 SWAP1 PUSH2 0x2428 JUMP JUMPDEST PUSH1 0x40 MLOAD DUP1 SWAP2 SUB SWAP1 RETURN JUMPDEST CALLVALUE DUP1 ISZERO PUSH2 0x68E JUMPI PUSH0 PUSH0 REVERT JUMPDEST POP PUSH2 0x6A9 PUSH1 0x4 DUP1 CALLDATASIZE SUB DUP2 ADD SWAP1 PUSH2 0x6A4 SWAP2 SWAP1 PUSH2 0x2509 JUMP JUMPDEST PUSH2 0x1037 JUMP JUMPDEST STOP JUMPDEST CALLVALUE DUP1 ISZERO PUSH2 0x6B6 JUMPI PUSH0 PUSH0 REVERT JUMPDEST POP PUSH2 0x6BF PUSH2 0x10BF JUMP JUMPDEST PUSH1 0x40 MLOAD PUSH2 0x6CC SWAP2 SWAP1 PUSH2 0x2352 JUMP JUMPDEST PUSH1 0x40 MLOAD DUP1 SWAP2 SUB SWAP1 RETURN JUMPDEST CALLVALUE DUP1 ISZERO PUSH2 0x6E0 JUMPI PUSH0 PUSH0 REVERT JUMPDEST POP PUSH2 0x6FB PUSH1 0x4 DUP1 CALLDATASIZE SUB DUP2 ADD SWAP1 PUSH2 0x6F6 SWAP2 SWAP1 PUSH2 0x2441 JUMP JUMPDEST PUSH2 0x10C5 JUMP JUMPDEST PUSH1 0x40 MLOAD PUSH2 0x708 SWAP2 SWAP1 PUSH2 0x207A JUMP JUMPDEST PUSH1 0x40 MLOAD DUP1 SWAP2 SUB SWAP1 RETURN JUMPDEST CALLVALUE DUP1 ISZERO PUSH2 0x71C JUMPI PUSH0 PUSH0 REVERT JUMPDEST POP PUSH2 0x725 PUSH2 0x1129 JUMP JUMPDEST PUSH1 0x40 MLOAD PUSH2 0x732 SWAP2 SWAP1 PUSH2 0x2103 JUMP JUMPDEST PUSH1 0x40 MLOAD DUP1 SWAP2 SUB SWAP1 RETURN JUMPDEST CALLVALUE DUP1 ISZERO PUSH2 0x746 JUMPI PUSH0 PUSH0 REVERT JUMPDEST POP PUSH2 0x74F PUSH2 0x11B9 JUMP JUMPDEST PUSH1 0x40 MLOAD PUSH2 0x75C SWAP2 SWAP1 PUSH2 0x207A JUMP JUMPDEST PUSH1 0x40 MLOAD DUP1 SWAP2 SUB SWAP1 RETURN JUMPDEST CALLVALUE DUP1 ISZERO PUSH2 0x770 JUMPI PUSH0 PUSH0 REVERT JUMPDEST POP PUSH2 0x779 PUSH2 0x11CB JUMP JUMPDEST PUSH1 0x40 MLOAD PUSH2 0x786 SWAP2 SWAP1 PUSH2 0x2428 JUMP JUMPDEST PUSH1 0x40 MLOAD DUP1 SWAP2 SUB SWAP1 RETURN JUMPDEST CALLVALUE DUP1 ISZERO PUSH2 0x79A JUMPI PUSH0 PUSH0 REVERT JUMPDEST POP PUSH2 0x7B5 PUSH1 0x4 DUP1 CALLDATASIZE SUB DUP2 ADD SWAP1 PUSH2 0x7B0 SWAP2 SWAP1 PUSH2 0x21B0 JUMP JUMPDEST PUSH2 0x11D1 JUMP JUMPDEST PUSH1 0x40 MLOAD PUSH2 0x7C2 SWAP2 SWAP1 PUSH2 0x207A JUMP JUMPDEST PUSH1 0x40 MLOAD DUP1 SWAP2 SUB SWAP1 RETURN JUMPDEST CALLVALUE DUP1 ISZERO PUSH2 0x7D6 JUMPI PUSH0 PUSH0 REVERT JUMPDEST POP PUSH2 0x7DF PUSH2 0x11F3 JUMP JUMPDEST PUSH1 0x40 MLOAD PUSH2 0x7EC SWAP2 SWAP1 PUSH2 0x207A JUMP JUMPDEST PUSH1 0x40 MLOAD DUP1 SWAP2 SUB SWAP1 RETURN JUMPDEST CALLVALUE DUP1 ISZERO PUSH2 0x800 JUMPI PUSH0 PUSH0 REVERT JUMPDEST POP PUSH2 0x809 PUSH2 0x1205 JUMP JUMPDEST PUSH1 0x40 MLOAD PUSH2 0x816 SWAP2 SWAP1 PUSH2 0x2352 JUMP JUMPDEST PUSH1 0x40 MLOAD DUP1 SWAP2 SUB SWAP1 RETURN JUMPDEST CALLVALUE DUP1 ISZERO PUSH2 0x82A JUMPI PUSH0 PUSH0 REVERT JUMPDEST POP PUSH2 0x845 PUSH1 0x4 DUP1 CALLDATASIZE SUB DUP2 ADD SWAP1 PUSH2 0x840 SWAP2 SWAP1 PUSH2 0x256F JUMP JUMPDEST PUSH2 0x120B JUMP JUMPDEST STOP JUMPDEST CALLVALUE DUP1 ISZERO PUSH2 0x852 JUMPI PUSH0 PUSH0 REVERT JUMPDEST POP PUSH2 0x86D PUSH1 0x4 DUP1 CALLDATASIZE SUB DUP2 ADD SWAP1 PUSH2 0x868 SWAP2 SWAP1 PUSH2 0x25BF JUMP JUMPDEST PUSH2 0x1325 JUMP JUMPDEST STOP JUMPDEST CALLVALUE DUP1 ISZERO PUSH2 0x87A JUMPI PUSH0 PUSH0 REVERT JUMPDEST POP PUSH2 0x883 PUSH2 0x13C9 JUMP JUMPDEST PUSH1 0x40 MLOAD PUSH2 0x890 SWAP2 SWAP1 PUSH2 0x2352 JUMP JUMPDEST PUSH1 0x40 MLOAD DUP1 SWAP2 SUB SWAP1 RETURN JUMPDEST CALLVALUE DUP1 ISZERO PUSH2 0x8A4 JUMPI PUSH0 PUSH0 REVERT JUMPDEST POP PUSH2 0x8AD PUSH2 0x13CF JUMP JUMPDEST PUSH1 0x40 MLOAD PUSH2 0x8BA SWAP2 SWAP1 PUSH2 0x2428 JUMP JUMPDEST PUSH1 0x40 MLOAD DUP1 SWAP2 SUB SWAP1 RETURN JUMPDEST CALLVALUE DUP1 ISZERO PUSH2 0x8CE JUMPI PUSH0 PUSH0 REVERT JUMPDEST POP PUSH2 0x8E9 PUSH1 0x4 DUP1 CALLDATASIZE SUB DUP2 ADD SWAP1 PUSH2 0x8E4 SWAP2 SWAP1 PUSH2 0x2441 JUMP JUMPDEST PUSH2 0x13F3 JUMP JUMPDEST STOP JUMPDEST CALLVALUE DUP1 ISZERO PUSH2 0x8F6 JUMPI PUSH0 PUSH0 REVERT JUMPDEST POP PUSH2 0x911 PUSH1 0x4 DUP1 CALLDATASIZE SUB DUP2 ADD SWAP1 PUSH2 0x90C SWAP2 SWAP1 PUSH2 0x25EA JUMP JUMPDEST PUSH2 0x1415 JUMP JUMPDEST PUSH1 0x40 MLOAD PUSH2 0x91E SWAP2 SWAP1 PUSH2 0x2352 JUMP JUMPDEST PUSH1 0x40 MLOAD DUP1 SWAP2 SUB SWAP1 RETURN JUMPDEST CALLVALUE DUP1 ISZERO PUSH2 0x932 JUMPI PUSH0 PUSH0 REVERT JUMPDEST POP PUSH2 0x94D PUSH1 0x4 DUP1 CALLDATASIZE SUB DUP2 ADD SWAP1 PUSH2 0x948 SWAP2 SWAP1 PUSH2 0x24B3 JUMP JUMPDEST PUSH2 0x1497 JUMP JUMPDEST STOP JUMPDEST CALLVALUE DUP1 ISZERO PUSH2 0x95A JUMPI PUSH0 PUSH0 REVERT JUMPDEST POP PUSH2 0x963 PUSH2 0x1503 JUMP JUMPDEST PUSH1 0x40 MLOAD PUSH2 0x970 SWAP2 SWAP1 PUSH2 0x2556 JUMP JUMPDEST PUSH1 0x40 MLOAD DUP1 SWAP2 SUB SWAP1 RETURN JUMPDEST PUSH2 0x993 PUSH1 0x4 DUP1 CALLDATASIZE SUB DUP2 ADD SWAP1 PUSH2 0x98E SWAP2 SWAP1 PUSH2 0x2628 JUMP JUMPDEST PUSH2 0x151B JUMP JUMPDEST PUSH1 0x40 MLOAD PUSH2 0x9A2 SWAP4 SWAP3 SWAP2 SWAP1 PUSH2 0x269F JUMP JUMPDEST PUSH1 0x40 MLOAD DUP1 SWAP2 SUB SWAP1 RETURN JUMPDEST CALLVALUE DUP1 ISZERO PUSH2 0x9B6 JUMPI PUSH0 PUSH0 REVERT JUMPDEST POP PUSH2 0x9D1 PUSH1 0x4 DUP1 CALLDATASIZE SUB DUP2 ADD SWAP1 PUSH2 0x9CC SWAP2 SWAP1 PUSH2 0x24DE JUMP JUMPDEST PUSH2 0x1642 JUMP JUMPDEST PUSH1 0x40 MLOAD PUSH2 0x9DE SWAP2 SWAP1 PUSH2 0x207A JUMP JUMPDEST PUSH1 0x40 MLOAD DUP1 SWAP2 SUB SWAP1 RETURN JUMPDEST PUSH0 PUSH32 0x7965DB0B00000000000000000000000000000000000000000000000000000000 PUSH28 0xFFFFFFFFFFFFFFFFFFFFFFFFFFFFFFFFFFFFFFFFFFFFFFFFFFFFFFFF NOT AND DUP3 PUSH28 0xFFFFFFFFFFFFFFFFFFFFFFFFFFFFFFFFFFFFFFFFFFFFFFFFFFFFFFFF NOT AND EQ DUP1 PUSH2 0xA59 JUMPI POP PUSH2 0xA58 DUP3 PUSH2 0x165F JUMP JUMPDEST JUMPDEST SWAP1 POP SWAP2 SWAP1 POP JUMP JUMPDEST PUSH1 0x60 PUSH1 0x3 DUP1 SLOAD PUSH2 0xA6F SWAP1 PUSH2 0x2701 JUMP JUMPDEST DUP1 PUSH1 0x1F ADD PUSH1 0x20 DUP1 SWAP2 DIV MUL PUSH1 0x20 ADD PUSH1 0x40 MLOAD SWAP1 DUP2 ADD PUSH1 0x40 MSTORE DUP1 SWAP3 SWAP2 SWAP1 DUP2 DUP2 MSTORE PUSH1 0x20 ADD DUP3 DUP1 SLOAD PUSH2 0xA9B SWAP1 PUSH2 0x2701 JUMP JUMPDEST DUP1 ISZERO PUSH2 0xAE6 JUMPI DUP1 PUSH1 0x1F LT PUSH2 0xABD JUMPI PUSH2 0x100 DUP1 DUP4 SLOAD DIV MUL DUP4 MSTORE SWAP2 PUSH1 0x20 ADD SWAP2 PUSH2 0xAE6 JUMP JUMPDEST DUP3 ADD SWAP2 SWAP1 PUSH0 MSTORE PUSH1 0x20 PUSH0 KECCAK256 SWAP1 JUMPDEST DUP2 SLOAD DUP2 MSTORE SWAP1 PUSH1 0x1 ADD SWAP1 PUSH1 0x20 ADD DUP1 DUP4 GT PUSH2 0xAC9 JUMPI DUP3 SWAP1 SUB PUSH1 0x1F AND DUP3 ADD SWAP2 JUMPDEST POP POP POP POP POP SWAP1 POP SWAP1 JUMP JUMPDEST PUSH0 PUSH0 PUSH2 0xAFA PUSH2 0x16C8 JUMP JUMPDEST SWAP1 POP PUSH2 0xB07 DUP2 DUP6 DUP6 PUSH2 0x16CF JUMP JUMPDEST PUSH1 0x1 SWAP2 POP POP SWAP3 SWAP2 POP POP JUMP JUMPDEST PUSH32 0xA49807205CE4D355092EF5A8A18F56E8913CF4A201FBE287825B095693C21775 PUSH2 0xB3C DUP2 PUSH2 0x16E1 JUMP JUMPDEST PUSH0 PUSH20 0xFFFFFFFFFFFFFFFFFFFFFFFFFFFFFFFFFFFFFFFF AND DUP4 PUSH20 0xFFFFFFFFFFFFFFFFFFFFFFFFFFFFFFFFFFFFFFFF AND SUB PUSH2 0xBAA JUMPI PUSH1 0x40 MLOAD PUSH32 0x8C379A000000000000000000000000000000000000000000000000000000000 DUP2 MSTORE PUSH1 0x4 ADD PUSH2 0xBA1 SWAP1 PUSH2 0x277B JUMP JUMPDEST PUSH1 0x40 MLOAD DUP1 SWAP2 SUB SWAP1 REVERT JUMPDEST PUSH0 DUP4 PUSH20 0xFFFFFFFFFFFFFFFFFFFFFFFFFFFFFFFFFFFFFFFF AND DUP4 PUSH1 0x40 MLOAD PUSH2 0xBCF SWAP1 PUSH2 0x27C6 JUMP JUMPDEST PUSH0 PUSH1 0x40 MLOAD DUP1 DUP4 SUB DUP2 DUP6 DUP8 GAS CALL SWAP3 POP POP POP RETURNDATASIZE DUP1 PUSH0 DUP2 EQ PUSH2 0xC09 JUMPI PUSH1 0x40 MLOAD SWAP2 POP PUSH1 0x1F NOT PUSH1 0x3F RETURNDATASIZE ADD AND DUP3 ADD PUSH1 0x40 MSTORE RETURNDATASIZE DUP3 MSTORE RETURNDATASIZE PUSH0 PUSH1 0x20 DUP5 ADD RETURNDATACOPY PUSH2 0xC0E JUMP JUMPDEST PUSH1 0x60 SWAP2 POP JUMPDEST POP POP SWAP1 POP DUP1 PUSH2 0xC52 JUMPI PUSH1 0x40 MLOAD PUSH32 0x8C379A000000000000000000000000000000000000000000000000000000000 DUP2 MSTORE PUSH1 0x4 ADD PUSH2 0xC49 SWAP1 PUSH2 0x2824 JUMP JUMPDEST PUSH1 0x40 MLOAD DUP1 SWAP2 SUB SWAP1 REVERT JUMPDEST POP POP POP POP JUMP JUMPDEST PUSH32 0xA49807205CE4D355092EF5A8A18F56E8913CF4A201FBE287825B095693C21775 PUSH2 0xC82 DUP2 PUSH2 0x16E1 JUMP JUMPDEST DUP2 PUSH1 0x9 PUSH0 DUP6 PUSH20 0xFFFFFFFFFFFFFFFFFFFFFFFFFFFFFFFFFFFFFFFF AND PUSH20 0xFFFFFFFFFFFFFFFFFFFFFFFFFFFFFFFFFFFFFFFF AND DUP2 MSTORE PUSH1 0x20 ADD SWAP1 DUP2 MSTORE PUSH1 0x20 ADD PUSH0 KECCAK256 PUSH0 PUSH2 0x100 EXP DUP2 SLOAD DUP2 PUSH1 0xFF MUL NOT AND SWAP1 DUP4 ISZERO ISZERO MUL OR SWAP1 SSTORE POP DUP3 PUSH20 0xFFFFFFFFFFFFFFFFFFFFFFFFFFFFFFFFFFFFFFFF AND PUSH32 0xCF3473B85DF1594D47B6958F29A32BEA0ABFF9DD68296F7BF33443646793CFD8 DUP4 PUSH1 0x40 MLOAD PUSH2 0xD1C SWAP2 SWAP1 PUSH2 0x207A JUMP JUMPDEST PUSH1 0x40 MLOAD DUP1 SWAP2 SUB SWAP1 LOG2 POP POP POP JUMP JUMPDEST PUSH1 0x7 PUSH0 SWAP1 SLOAD SWAP1 PUSH2 0x100 EXP SWAP1 DIV PUSH20 0xFFFFFFFFFFFFFFFFFFFFFFFFFFFFFFFFFFFFFFFF AND DUP2 JUMP JUMPDEST PUSH0 PUSH1 0x2 SLOAD SWAP1 POP SWAP1 JUMP JUMPDEST PUSH0 PUSH0 PUSH2 0xD61 PUSH2 0x16C8 JUMP JUMPDEST SWAP1 POP PUSH2 0xD6E DUP6 DUP3 DUP6 PUSH2 0x16F5 JUMP JUMPDEST PUSH2 0xD79 DUP6 DUP6 DUP6 PUSH2 0x1788 JUMP JUMPDEST PUSH1 0x1 SWAP2 POP POP SWAP4 SWAP3 POP POP POP JUMP JUMPDEST PUSH0 PUSH1 0x5 PUSH0 DUP4 DUP2 MSTORE PUSH1 0x20 ADD SWAP1 DUP2 MSTORE PUSH1 0x20 ADD PUSH0 KECCAK256 PUSH1 0x1 ADD SLOAD SWAP1 POP SWAP2 SWAP1 POP JUMP JUMPDEST PUSH32 0x3C11D16CBAFFD01DF69CE1C404F6340EE057498F5F00246190EA54220576A848 DUP2 JUMP JUMPDEST PUSH1 0xC SLOAD DUP2 JUMP JUMPDEST PUSH2 0xDD5 DUP3 PUSH2 0xD85 JUMP JUMPDEST PUSH2 0xDDE DUP2 PUSH2 0x16E1 JUMP JUMPDEST PUSH2 0xDE8 DUP4 DUP4 PUSH2 0x1878 JUMP JUMPDEST POP POP POP POP JUMP JUMPDEST PUSH12 0x409F9CBC7C4A04C220000000 DUP2 JUMP JUMPDEST PUSH0 PUSH1 0x12 SWAP1 POP SWAP1 JUMP JUMPDEST PUSH2 0xE0E PUSH2 0x16C8 JUMP JUMPDEST PUSH20 0xFFFFFFFFFFFFFFFFFFFFFFFFFFFFFFFFFFFFFFFF AND DUP2 PUSH20 0xFFFFFFFFFFFFFFFFFFFFFFFFFFFFFFFFFFFFFFFF AND EQ PUSH2 0xE72 JUMPI PUSH1 0x40 MLOAD PUSH32 0x6697B23200000000000000000000000000000000000000000000000000000000 DUP2 MSTORE PUSH1 0x4 ADD PUSH1 0x40 MLOAD DUP1 SWAP2 SUB SWAP1 REVERT JUMPDEST PUSH2 0xE7C DUP3 DUP3 PUSH2 0x1962 JUMP JUMPDEST POP POP POP JUMP JUMPDEST PUSH32 0x9F2DF0FED2C77648DE5860A4CC508CD0818C85B8B8A1AB4CEEEF8D981C8956A6 PUSH2 0xEAB DUP2 PUSH2 0x16E1 JUMP JUMPDEST PUSH2 0xEB5 DUP4 DUP4 PUSH2 0x1A4C JUMP JUMPDEST POP POP POP JUMP JUMPDEST PUSH32 0x3C11D16CBAFFD01DF69CE1C404F6340EE057498F5F00246190EA54220576A848 PUSH2 0xEE4 DUP2 PUSH2 0x16E1 JUMP JUMPDEST PUSH2 0xEF5 PUSH2 0xEEF PUSH2 0x16C8 JUMP JUMPDEST DUP4 PUSH2 0x1ACB JUMP JUMPDEST POP POP JUMP JUMPDEST PUSH1 0x10 PUSH1 0x20 MSTORE DUP1 PUSH0 MSTORE PUSH1 0x40 PUSH0 KECCAK256 PUSH0 SWAP2 POP SWAP1 POP SLOAD DUP2 JUMP JUMPDEST PUSH32 0xA49807205CE4D355092EF5A8A18F56E8913CF4A201FBE287825B095693C21775 PUSH2 0xF38 DUP2 PUSH2 0x16E1 JUMP JUMPDEST DUP3 PUSH1 0xE PUSH0 PUSH2 0x100 EXP DUP2 SLOAD DUP2 PUSH1 0xFF MUL NOT AND SWAP1 DUP4 ISZERO ISZERO MUL OR SWAP1 SSTORE POP DUP2 PUSH1 0xF DUP2 SWAP1 SSTORE POP PUSH32 0x3DD49C7BC5B4083D3ED5845BD08D8D308E600CE46A1BF5FED3466DBA31CE9F0C DUP4 DUP4 PUSH1 0x40 MLOAD PUSH2 0xF89 SWAP3 SWAP2 SWAP1 PUSH2 0x2842 JUMP JUMPDEST PUSH1 0x40 MLOAD DUP1 SWAP2 SUB SWAP1 LOG1 POP POP POP JUMP JUMPDEST PUSH1 0x8 PUSH0 SWAP1 SLOAD SWAP1 PUSH2 0x100 EXP SWAP1 DIV PUSH20 0xFFFFFFFFFFFFFFFFFFFFFFFFFFFFFFFFFFFFFFFF AND DUP2 JUMP JUMPDEST PUSH1 0x8 PUSH1 0x14 SWAP1 SLOAD SWAP1 PUSH2 0x100 EXP SWAP1 DIV PUSH1 0xFF AND DUP2 JUMP JUMPDEST PUSH0 PUSH0 PUSH0 DUP4 PUSH20 0xFFFFFFFFFFFFFFFFFFFFFFFFFFFFFFFFFFFFFFFF AND PUSH20 0xFFFFFFFFFFFFFFFFFFFFFFFFFFFFFFFFFFFFFFFF AND DUP2 MSTORE PUSH1 0x20 ADD SWAP1 DUP2 MSTORE PUSH1 0x20 ADD PUSH0 KECCAK256 SLOAD SWAP1 POP SWAP2 SWAP1 POP JUMP JUMPDEST PUSH32 0xA49807205CE4D355092EF5A8A18F56E8913CF4A201FBE287825B095693C21775 DUP2 JUMP JUMPDEST PUSH32 0xA49807205CE4D355092EF5A8A18F56E8913CF4A201FBE287825B095693C21775 PUSH2 0x1061 DUP2 PUSH2 0x16E1 JUMP JUMPDEST DUP3 PUSH1 0xB PUSH0 PUSH2 0x100 EXP DUP2 SLOAD DUP2 PUSH1 0xFF MUL NOT AND SWAP1 DUP4 ISZERO ISZERO MUL OR SWAP1 SSTORE POP DUP2 PUSH1 0xC DUP2 SWAP1 SSTORE POP PUSH32 0xB31B570D042C886827A2637126EDD8FF4F4FE90BEB7CB87FFE8C4D2D542C190D DUP4 DUP4 PUSH1 0x40 MLOAD PUSH2 0x10B2 SWAP3 SWAP2 SWAP1 PUSH2 0x2842 JUMP JUMPDEST PUSH1 0x40 MLOAD DUP1 SWAP2 SUB SWAP1 LOG1 POP POP POP JUMP JUMPDEST PUSH1 0xA SLOAD DUP2 JUMP JUMPDEST PUSH0 PUSH1 0x5 PUSH0 DUP5 DUP2 MSTORE PUSH1 0x20 ADD SWAP1 DUP2 MSTORE PUSH1 0x20 ADD PUSH0 KECCAK256 PUSH0 ADD PUSH0 DUP4 PUSH20 0xFFFFFFFFFFFFFFFFFFFFFFFFFFFFFFFFFFFFFFFF AND PUSH20 0xFFFFFFFFFFFFFFFFFFFFFFFFFFFFFFFFFFFFFFFF AND DUP2 MSTORE PUSH1 0x20 ADD SWAP1 DUP2 MSTORE PUSH1 0x20 ADD PUSH0 KECCAK256 PUSH0 SWAP1 SLOAD SWAP1 PUSH2 0x100 EXP SWAP1 DIV PUSH1 0xFF AND SWAP1 POP SWAP3 SWAP2 POP POP JUMP JUMPDEST PUSH1 0x60 PUSH1 0x4 DUP1 SLOAD PUSH2 0x1138 SWAP1 PUSH2 0x2701 JUMP JUMPDEST DUP1 PUSH1 0x1F ADD PUSH1 0x20 DUP1 SWAP2 DIV MUL PUSH1 0x20 ADD PUSH1 0x40 MLOAD SWAP1 DUP2 ADD PUSH1 0x40 MSTORE DUP1 SWAP3 SWAP2 SWAP1 DUP2 DUP2 MSTORE PUSH1 0x20 ADD DUP3 DUP1 SLOAD PUSH2 0x1164 SWAP1 PUSH2 0x2701 JUMP JUMPDEST DUP1 ISZERO PUSH2 0x11AF JUMPI DUP1 PUSH1 0x1F LT PUSH2 0x1186 JUMPI PUSH2 0x100 DUP1 DUP4 SLOAD DIV MUL DUP4 MSTORE SWAP2 PUSH1 0x20 ADD SWAP2 PUSH2 0x11AF JUMP JUMPDEST DUP3 ADD SWAP2 SWAP1 PUSH0 MSTORE PUSH1 0x20 PUSH0 KECCAK256 SWAP1 JUMPDEST DUP2 SLOAD DUP2 MSTORE SWAP1 PUSH1 0x1 ADD SWAP1 PUSH1 0x20 ADD DUP1 DUP4 GT PUSH2 0x1192 JUMPI DUP3 SWAP1 SUB PUSH1 0x1F AND DUP3 ADD SWAP2 JUMPDEST POP POP POP POP POP SWAP1 POP SWAP1 JUMP JUMPDEST PUSH1 0xB PUSH0 SWAP1 SLOAD SWAP1 PUSH2 0x100 EXP SWAP1 DIV PUSH1 0xFF AND DUP2 JUMP JUMPDEST PUSH0 PUSH0 SHL DUP2 JUMP JUMPDEST PUSH0 PUSH0 PUSH2 0x11DB PUSH2 0x16C8 JUMP JUMPDEST SWAP1 POP PUSH2 0x11E8 DUP2 DUP6 DUP6 PUSH2 0x1788 JUMP JUMPDEST PUSH1 0x1 SWAP2 POP POP SWAP3 SWAP2 POP POP JUMP JUMPDEST PUSH1 0xE PUSH0 SWAP1 SLOAD SWAP1 PUSH2 0x100 EXP SWAP1 DIV PUSH1 0xFF AND DUP2 JUMP JUMPDEST PUSH1 0xF SLOAD DUP2 JUMP JUMPDEST PUSH32 0xA49807205CE4D355092EF5A8A18F56E8913CF4A201FBE287825B095693C21775 PUSH2 0x1235 DUP2 PUSH2 0x16E1 JUMP JUMPDEST PUSH0 PUSH20 0xFFFFFFFFFFFFFFFFFFFFFFFFFFFFFFFFFFFFFFFF AND DUP3 PUSH20 0xFFFFFFFFFFFFFFFFFFFFFFFFFFFFFFFFFFFFFFFF AND SUB PUSH2 0x12A3 JUMPI PUSH1 0x40 MLOAD PUSH32 0x8C379A000000000000000000000000000000000000000000000000000000000 DUP2 MSTORE PUSH1 0x4 ADD PUSH2 0x129A SWAP1 PUSH2 0x277B JUMP JUMPDEST PUSH1 0x40 MLOAD DUP1 SWAP2 SUB SWAP1 REVERT JUMPDEST DUP4 PUSH20 0xFFFFFFFFFFFFFFFFFFFFFFFFFFFFFFFFFFFFFFFF AND PUSH4 0xA9059CBB DUP4 DUP6 PUSH1 0x40 MLOAD DUP4 PUSH4 0xFFFFFFFF AND PUSH1 0xE0 SHL DUP2 MSTORE PUSH1 0x4 ADD PUSH2 0x12DE SWAP3 SWAP2 SWAP1 PUSH2 0x2869 JUMP JUMPDEST PUSH1 0x20 PUSH1 0x40 MLOAD DUP1 DUP4 SUB DUP2 PUSH0 DUP8 GAS CALL ISZERO DUP1 ISZERO PUSH2 0x12FA JUMPI RETURNDATASIZE PUSH0 PUSH0 RETURNDATACOPY RETURNDATASIZE PUSH0 REVERT JUMPDEST POP POP POP POP PUSH1 0x40 MLOAD RETURNDATASIZE PUSH1 0x1F NOT PUSH1 0x1F DUP3 ADD AND DUP3 ADD DUP1 PUSH1 0x40 MSTORE POP DUP2 ADD SWAP1 PUSH2 0x131E SWAP2 SWAP1 PUSH2 0x28A4 JUMP JUMPDEST POP POP POP POP POP JUMP JUMPDEST PUSH32 0xA49807205CE4D355092EF5A8A18F56E8913CF4A201FBE287825B095693C21775 PUSH2 0x134F DUP2 PUSH2 0x16E1 JUMP JUMPDEST DUP2 PUSH1 0x8 PUSH1 0x14 PUSH2 0x100 EXP DUP2 SLOAD DUP2 PUSH1 0xFF MUL NOT AND SWAP1 DUP4 ISZERO ISZERO MUL OR SWAP1 SSTORE POP DUP2 DUP1 ISZERO PUSH2 0x1381 JUMPI POP PUSH1 0xB PUSH0 SWAP1 SLOAD SWAP1 PUSH2 0x100 EXP SWAP1 DIV PUSH1 0xFF AND JUMPDEST ISZERO PUSH2 0x138E JUMPI NUMBER PUSH1 0xD DUP2 SWAP1 SSTORE POP JUMPDEST PUSH32 0xBEDA7DCA7BC1B3E80B871F4818129EC73B771581F803D553AEB3484098E5F65A DUP3 PUSH1 0x40 MLOAD PUSH2 0x13BD SWAP2 SWAP1 PUSH2 0x207A JUMP JUMPDEST PUSH1 0x40 MLOAD DUP1 SWAP2 SUB SWAP1 LOG1 POP POP JUMP JUMPDEST PUSH1 0xD SLOAD DUP2 JUMP JUMPDEST PUSH32 0x9F2DF0FED2C77648DE5860A4CC508CD0818C85B8B8A1AB4CEEEF8D981C8956A6 DUP2 JUMP JUMPDEST PUSH2 0x13FC DUP3 PUSH2 0xD85 JUMP JUMPDEST PUSH2 0x1405 DUP2 PUSH2 0x16E1 JUMP JUMPDEST PUSH2 0x140F DUP4 DUP4 PUSH2 0x1962 JUMP JUMPDEST POP POP POP POP JUMP JUMPDEST PUSH0 PUSH1 0x1 PUSH0 DUP5 PUSH20 0xFFFFFFFFFFFFFFFFFFFFFFFFFFFFFFFFFFFFFFFF AND PUSH20 0xFFFFFFFFFFFFFFFFFFFFFFFFFFFFFFFFFFFFFFFF AND DUP2 MSTORE PUSH1 0x20 ADD SWAP1 DUP2 MSTORE PUSH1 0x20 ADD PUSH0 KECCAK256 PUSH0 DUP4 PUSH20 0xFFFFFFFFFFFFFFFFFFFFFFFFFFFFFFFFFFFFFFFF AND PUSH20 0xFFFFFFFFFFFFFFFFFFFFFFFFFFFFFFFFFFFFFFFF AND DUP2 MSTORE PUSH1 0x20 ADD SWAP1 DUP2 MSTORE PUSH1 0x20 ADD PUSH0 KECCAK256 SLOAD SWAP1 POP SWAP3 SWAP2 POP POP JUMP JUMPDEST PUSH32 0xA49807205CE4D355092EF5A8A18F56E8913CF4A201FBE287825B095693C21775 PUSH2 0x14C1 DUP2 PUSH2 0x16E1 JUMP JUMPDEST DUP2 PUSH1 0xA DUP2 SWAP1 SSTORE POP PUSH32 0x947F344D56E1E8C70DC492FB94C4DDDDD490C016AAB685F5E7E47B2E85CB44CF DUP3 PUSH1 0x40 MLOAD PUSH2 0x14F7 SWAP2 SWAP1 PUSH2 0x2352 JUMP JUMPDEST PUSH1 0x40 MLOAD DUP1 SWAP2 SUB SWAP1 LOG1 POP POP JUMP JUMPDEST PUSH20 0x633EA8FE424CD65AD4D4826E6581273AFD06B8EF DUP2 JUMP JUMPDEST PUSH0 PUSH0 PUSH0 PUSH2 0x1526 PUSH2 0x1B4A JUMP JUMPDEST PUSH32 0xA49807205CE4D355092EF5A8A18F56E8913CF4A201FBE287825B095693C21775 PUSH2 0x1550 DUP2 PUSH2 0x16E1 JUMP JUMPDEST PUSH2 0x157C ADDRESS PUSH1 0x7 PUSH0 SWAP1 SLOAD SWAP1 PUSH2 0x100 EXP SWAP1 DIV PUSH20 0xFFFFFFFFFFFFFFFFFFFFFFFFFFFFFFFFFFFFFFFF AND DUP11 PUSH2 0x16CF JUMP JUMPDEST PUSH1 0x7 PUSH0 SWAP1 SLOAD SWAP1 PUSH2 0x100 EXP SWAP1 DIV PUSH20 0xFFFFFFFFFFFFFFFFFFFFFFFFFFFFFFFFFFFFFFFF AND PUSH20 0xFFFFFFFFFFFFFFFFFFFFFFFFFFFFFFFFFFFFFFFF AND PUSH4 0xF305D719 CALLVALUE ADDRESS DUP12 DUP12 DUP12 DUP16 DUP13 PUSH1 0x40 MLOAD DUP9 PUSH4 0xFFFFFFFF AND PUSH1 0xE0 SHL DUP2 MSTORE PUSH1 0x4 ADD PUSH2 0x15E1 SWAP7 SWAP6 SWAP5 SWAP4 SWAP3 SWAP2 SWAP1 PUSH2 0x28CF JUMP JUMPDEST PUSH1 0x60 PUSH1 0x40 MLOAD DUP1 DUP4 SUB DUP2 DUP6 DUP9 GAS CALL ISZERO DUP1 ISZERO PUSH2 0x15FD JUMPI RETURNDATASIZE PUSH0 PUSH0 RETURNDATACOPY RETURNDATASIZE PUSH0 REVERT JUMPDEST POP POP POP POP POP PUSH1 0x40 MLOAD RETURNDATASIZE PUSH1 0x1F NOT PUSH1 0x1F DUP3 ADD AND DUP3 ADD DUP1 PUSH1 0x40 MSTORE POP DUP2 ADD SWAP1 PUSH2 0x1622 SWAP2 SWAP1 PUSH2 0x2942 JUMP JUMPDEST DUP1 SWAP5 POP DUP2 SWAP6 POP DUP3 SWAP7 POP POP POP POP POP PUSH2 0x1637 PUSH2 0x1B99 JUMP JUMPDEST SWAP6 POP SWAP6 POP SWAP6 SWAP3 POP POP POP JUMP JUMPDEST PUSH1 0x9 PUSH1 0x20 MSTORE DUP1 PUSH0 MSTORE PUSH1 0x40 PUSH0 KECCAK256 PUSH0 SWAP2 POP SLOAD SWAP1 PUSH2 0x100 EXP SWAP1 DIV PUSH1 0xFF AND DUP2 JUMP JUMPDEST PUSH0 PUSH32 0x1FFC9A700000000000000000000000000000000000000000000000000000000 PUSH28 0xFFFFFFFFFFFFFFFFFFFFFFFFFFFFFFFFFFFFFFFFFFFFFFFFFFFFFFFF NOT AND DUP3 PUSH28 0xFFFFFFFFFFFFFFFFFFFFFFFFFFFFFFFFFFFFFFFFFFFFFFFFFFFFFFFF NOT AND EQ SWAP1 POP SWAP2 SWAP1 POP JUMP JUMPDEST PUSH0 CALLER SWAP1 POP SWAP1 JUMP JUMPDEST PUSH2 0x16DC DUP4 DUP4 DUP4 PUSH1 0x1 PUSH2 0x1BA3 JUMP JUMPDEST POP POP POP JUMP JUMPDEST PUSH2 0x16F2 DUP2 PUSH2 0x16ED PUSH2 0x16C8 JUMP JUMPDEST PUSH2 0x1D72 JUMP JUMPDEST POP JUMP JUMPDEST PUSH0 PUSH2 0x1700 DUP5 DUP5 PUSH2 0x1415 JUMP JUMPDEST SWAP1 POP PUSH32 0xFFFFFFFFFFFFFFFFFFFFFFFFFFFFFFFFFFFFFFFFFFFFFFFFFFFFFFFFFFFFFFFF DUP2 LT ISZERO PUSH2 0x1782 JUMPI DUP2 DUP2 LT ISZERO PUSH2 0x1773 JUMPI DUP3 DUP2 DUP4 PUSH1 0x40 MLOAD PUSH32 0xFB8F41B200000000000000000000000000000000000000000000000000000000 DUP2 MSTORE PUSH1 0x4 ADD PUSH2 0x176A SWAP4 SWAP3 SWAP2 SWAP1 PUSH2 0x2992 JUMP JUMPDEST PUSH1 0x40 MLOAD DUP1 SWAP2 SUB SWAP1 REVERT JUMPDEST PUSH2 0x1781 DUP5 DUP5 DUP5 DUP5 SUB PUSH0 PUSH2 0x1BA3 JUMP JUMPDEST JUMPDEST POP POP POP POP JUMP JUMPDEST PUSH0 PUSH20 0xFFFFFFFFFFFFFFFFFFFFFFFFFFFFFFFFFFFFFFFF AND DUP4 PUSH20 0xFFFFFFFFFFFFFFFFFFFFFFFFFFFFFFFFFFFFFFFF AND SUB PUSH2 0x17F8 JUMPI PUSH0 PUSH1 0x40 MLOAD PUSH32 0x96C6FD1E00000000000000000000000000000000000000000000000000000000 DUP2 MSTORE PUSH1 0x4 ADD PUSH2 0x17EF SWAP2 SWAP1 PUSH2 0x2556 JUMP JUMPDEST PUSH1 0x40 MLOAD DUP1 SWAP2 SUB SWAP1 REVERT JUMPDEST PUSH0 PUSH20 0xFFFFFFFFFFFFFFFFFFFFFFFFFFFFFFFFFFFFFFFF AND DUP3 PUSH20 0xFFFFFFFFFFFFFFFFFFFFFFFFFFFFFFFFFFFFFFFF AND SUB PUSH2 0x1868 JUMPI PUSH0 PUSH1 0x40 MLOAD PUSH32 0xEC442F0500000000000000000000000000000000000000000000000000000000 DUP2 MSTORE PUSH1 0x4 ADD PUSH2 0x185F SWAP2 SWAP1 PUSH2 0x2556 JUMP JUMPDEST PUSH1 0x40 MLOAD DUP1 SWAP2 SUB SWAP1 REVERT JUMPDEST PUSH2 0x1873 DUP4 DUP4 DUP4 PUSH2 0x1DC3 JUMP JUMPDEST POP POP POP JUMP JUMPDEST PUSH0 PUSH2 0x1883 DUP4 DUP4 PUSH2 0x10C5 JUMP JUMPDEST PUSH2 0x1958 JUMPI PUSH1 0x1 PUSH1 0x5 PUSH0 DUP6 DUP2 MSTORE PUSH1 0x20 ADD SWAP1 DUP2 MSTORE PUSH1 0x20 ADD PUSH0 KECCAK256 PUSH0 ADD PUSH0 DUP5 PUSH20 0xFFFFFFFFFFFFFFFFFFFFFFFFFFFFFFFFFFFFFFFF AND PUSH20 0xFFFFFFFFFFFFFFFFFFFFFFFFFFFFFFFFFFFFFFFF AND DUP2 MSTORE PUSH1 0x20 ADD SWAP1 DUP2 MSTORE PUSH1 0x20 ADD PUSH0 KECCAK256 PUSH0 PUSH2 0x100 EXP DUP2 SLOAD DUP2 PUSH1 0xFF MUL NOT AND SWAP1 DUP4 ISZERO ISZERO MUL OR SWAP1 SSTORE POP PUSH2 0x18F5 PUSH2 0x16C8 JUMP JUMPDEST PUSH20 0xFFFFFFFFFFFFFFFFFFFFFFFFFFFFFFFFFFFFFFFF AND DUP3 PUSH20 0xFFFFFFFFFFFFFFFFFFFFFFFFFFFFFFFFFFFFFFFF AND DUP5 PUSH32 0x2F8788117E7EFF1D82E926EC794901D17C78024A50270940304540A733656F0D PUSH1 0x40 MLOAD PUSH1 0x40 MLOAD DUP1 SWAP2 SUB SWAP1 LOG4 PUSH1 0x1 SWAP1 POP PUSH2 0x195C JUMP JUMPDEST PUSH0 SWAP1 POP JUMPDEST SWAP3 SWAP2 POP POP JUMP JUMPDEST PUSH0 PUSH2 0x196D DUP4 DUP4 PUSH2 0x10C5 JUMP JUMPDEST ISZERO PUSH2 0x1A42 JUMPI PUSH0 PUSH1 0x5 PUSH0 DUP6 DUP2 MSTORE PUSH1 0x20 ADD SWAP1 DUP2 MSTORE PUSH1 0x20 ADD PUSH0 KECCAK256 PUSH0 ADD PUSH0 DUP5 PUSH20 0xFFFFFFFFFFFFFFFFFFFFFFFFFFFFFFFFFFFFFFFF AND PUSH20 0xFFFFFFFFFFFFFFFFFFFFFFFFFFFFFFFFFFFFFFFF AND DUP2 MSTORE PUSH1 0x20 ADD SWAP1 DUP2 MSTORE PUSH1 0x20 ADD PUSH0 KECCAK256 PUSH0 PUSH2 0x100 EXP DUP2 SLOAD DUP2 PUSH1 0xFF MUL NOT AND SWAP1 DUP4 ISZERO ISZERO MUL OR SWAP1 SSTORE POP PUSH2 0x19DF PUSH2 0x16C8 JUMP JUMPDEST PUSH20 0xFFFFFFFFFFFFFFFFFFFFFFFFFFFFFFFFFFFFFFFF AND DUP3 PUSH20 0xFFFFFFFFFFFFFFFFFFFFFFFFFFFFFFFFFFFFFFFF AND DUP5 PUSH32 0xF6391F5C32D9C69D2A47EA670B442974B53935D1EDC7FD64EB21E047A839171B PUSH1 0x40 MLOAD PUSH1 0x40 MLOAD DUP1 SWAP2 SUB SWAP1 LOG4 PUSH1 0x1 SWAP1 POP PUSH2 0x1A46 JUMP JUMPDEST PUSH0 SWAP1 POP JUMPDEST SWAP3 SWAP2 POP POP JUMP JUMPDEST PUSH0 PUSH20 0xFFFFFFFFFFFFFFFFFFFFFFFFFFFFFFFFFFFFFFFF AND DUP3 PUSH20 0xFFFFFFFFFFFFFFFFFFFFFFFFFFFFFFFFFFFFFFFF AND SUB PUSH2 0x1ABC JUMPI PUSH0 PUSH1 0x40 MLOAD PUSH32 0xEC442F0500000000000000000000000000000000000000000000000000000000 DUP2 MSTORE PUSH1 0x4 ADD PUSH2 0x1AB3 SWAP2 SWAP1 PUSH2 0x2556 JUMP JUMPDEST PUSH1 0x40 MLOAD DUP1 SWAP2 SUB SWAP1 REVERT JUMPDEST PUSH2 0x1AC7 PUSH0 DUP4 DUP4 PUSH2 0x1DC3 JUMP JUMPDEST POP POP JUMP JUMPDEST PUSH0 PUSH20 0xFFFFFFFFFFFFFFFFFFFFFFFFFFFFFFFFFFFFFFFF AND DUP3 PUSH20 0xFFFFFFFFFFFFFFFFFFFFFFFFFFFFFFFFFFFFFFFF AND SUB PUSH2 0x1B3B JUMPI PUSH0 PUSH1 0x40 MLOAD PUSH32 0x96C6FD1E00000000000000000000000000000000000000000000000000000000 DUP2 MSTORE PUSH1 0x4 ADD PUSH2 0x1B32 SWAP2 SWAP1 PUSH2 0x2556 JUMP JUMPDEST PUSH1 0x40 MLOAD DUP1 SWAP2 SUB SWAP1 REVERT JUMPDEST PUSH2 0x1B46 DUP3 PUSH0 DUP4 PUSH2 0x1DC3 JUMP JUMPDEST POP POP JUMP JUMPDEST PUSH1 0x2 PUSH1 0x6 SLOAD SUB PUSH2 0x1B8F JUMPI PUSH1 0x40 MLOAD PUSH32 0x8C379A000000000000000000000000000000000000000000000000000000000 DUP2 MSTORE PUSH1 0x4 ADD PUSH2 0x1B86 SWAP1 PUSH2 0x2A11 JUMP JUMPDEST PUSH1 0x40 MLOAD DUP1 SWAP2 SUB SWAP1 REVERT JUMPDEST PUSH1 0x2 PUSH1 0x6 DUP2 SWAP1 SSTORE POP JUMP JUMPDEST PUSH1 0x1 PUSH1 0x6 DUP2 SWAP1 SSTORE POP JUMP JUMPDEST PUSH0 PUSH20 0xFFFFFFFFFFFFFFFFFFFFFFFFFFFFFFFFFFFFFFFF AND DUP5 PUSH20 0xFFFFFFFFFFFFFFFFFFFFFFFFFFFFFFFFFFFFFFFF AND SUB PUSH2 0x1C13 JUMPI PUSH0 PUSH1 0x40 MLOAD PUSH32 0xE602DF0500000000000000000000000000000000000000000000000000000000 DUP2 MSTORE PUSH1 0x4 ADD PUSH2 0x1C0A SWAP2 SWAP1 PUSH2 0x2556 JUMP JUMPDEST PUSH1 0x40 MLOAD DUP1 SWAP2 SUB SWAP1 REVERT JUMPDEST PUSH0 PUSH20 0xFFFFFFFFFFFFFFFFFFFFFFFFFFFFFFFFFFFFFFFF AND DUP4 PUSH20 0xFFFFFFFFFFFFFFFFFFFFFFFFFFFFFFFFFFFFFFFF AND SUB PUSH2 0x1C83 JUMPI PUSH0 PUSH1 0x40 MLOAD PUSH32 0x94280D6200000000000000000000000000000000000000000000000000000000 DUP2 MSTORE PUSH1 0x4 ADD PUSH2 0x1C7A SWAP2 SWAP1 PUSH2 0x2556 JUMP JUMPDEST PUSH1 0x40 MLOAD DUP1 SWAP2 SUB SWAP1 REVERT JUMPDEST DUP2 PUSH1 0x1 PUSH0 DUP7 PUSH20 0xFFFFFFFFFFFFFFFFFFFFFFFFFFFFFFFFFFFFFFFF AND PUSH20 0xFFFFFFFFFFFFFFFFFFFFFFFFFFFFFFFFFFFFFFFF AND DUP2 MSTORE PUSH1 0x20 ADD SWAP1 DUP2 MSTORE PUSH1 0x20 ADD PUSH0 KECCAK256 PUSH0 DUP6 PUSH20 0xFFFFFFFFFFFFFFFFFFFFFFFFFFFFFFFFFFFFFFFF AND PUSH20 0xFFFFFFFFFFFFFFFFFFFFFFFFFFFFFFFFFFFFFFFF AND DUP2 MSTORE PUSH1 0x20 ADD SWAP1 DUP2 MSTORE PUSH1 0x20 ADD PUSH0 KECCAK256 DUP2 SWAP1 SSTORE POP DUP1 ISZERO PUSH2 0x1D6C JUMPI DUP3 PUSH20 0xFFFFFFFFFFFFFFFFFFFFFFFFFFFFFFFFFFFFFFFF AND DUP5 PUSH20 0xFFFFFFFFFFFFFFFFFFFFFFFFFFFFFFFFFFFFFFFF AND PUSH32 0x8C5BE1E5EBEC7D5BD14F71427D1E84F3DD0314C0F7B2291E5B200AC8C7C3B925 DUP5 PUSH1 0x40 MLOAD PUSH2 0x1D63 SWAP2 SWAP1 PUSH2 0x2352 JUMP JUMPDEST PUSH1 0x40 MLOAD DUP1 SWAP2 SUB SWAP1 LOG3 JUMPDEST POP POP POP POP JUMP JUMPDEST PUSH2 0x1D7C DUP3 DUP3 PUSH2 0x10C5 JUMP JUMPDEST PUSH2 0x1DBF JUMPI DUP1 DUP3 PUSH1 0x40 MLOAD PUSH32 0xE2517D3F00000000000000000000000000000000000000000000000000000000 DUP2 MSTORE PUSH1 0x4 ADD PUSH2 0x1DB6 SWAP3 SWAP2 SWAP1 PUSH2 0x2A2F JUMP JUMPDEST PUSH1 0x40 MLOAD DUP1 SWAP2 SUB SWAP1 REVERT JUMPDEST POP POP JUMP JUMPDEST PUSH0 PUSH20 0xFFFFFFFFFFFFFFFFFFFFFFFFFFFFFFFFFFFFFFFF AND DUP4 PUSH20 0xFFFFFFFFFFFFFFFFFFFFFFFFFFFFFFFFFFFFFFFF AND SUB PUSH2 0x1E13 JUMPI DUP1 PUSH1 0x2 PUSH0 DUP3 DUP3 SLOAD PUSH2 0x1E07 SWAP2 SWAP1 PUSH2 0x2A83 JUMP JUMPDEST SWAP3 POP POP DUP2 SWAP1 SSTORE POP PUSH2 0x1EE1 JUMP JUMPDEST PUSH0 PUSH0 PUSH0 DUP6 PUSH20 0xFFFFFFFFFFFFFFFFFFFFFFFFFFFFFFFFFFFFFFFF AND PUSH20 0xFFFFFFFFFFFFFFFFFFFFFFFFFFFFFFFFFFFFFFFF AND DUP2 MSTORE PUSH1 0x20 ADD SWAP1 DUP2 MSTORE PUSH1 0x20 ADD PUSH0 KECCAK256 SLOAD SWAP1 POP DUP2 DUP2 LT ISZERO PUSH2 0x1E9C JUMPI DUP4 DUP2 DUP4 PUSH1 0x40 MLOAD PUSH32 0xE450D38C00000000000000000000000000000000000000000000000000000000 DUP2 MSTORE PUSH1 0x4 ADD PUSH2 0x1E93 SWAP4 SWAP3 SWAP2 SWAP1 PUSH2 0x2992 JUMP JUMPDEST PUSH1 0x40 MLOAD DUP1 SWAP2 SUB SWAP1 REVERT JUMPDEST DUP2 DUP2 SUB PUSH0 PUSH0 DUP7 PUSH20 0xFFFFFFFFFFFFFFFFFFFFFFFFFFFFFFFFFFFFFFFF AND PUSH20 0xFFFFFFFFFFFFFFFFFFFFFFFFFFFFFFFFFFFFFFFF AND DUP2 MSTORE PUSH1 0x20 ADD SWAP1 DUP2 MSTORE PUSH1 0x20 ADD PUSH0 KECCAK256 DUP2 SWAP1 SSTORE POP POP JUMPDEST PUSH0 PUSH20 0xFFFFFFFFFFFFFFFFFFFFFFFFFFFFFFFFFFFFFFFF AND DUP3 PUSH20 0xFFFFFFFFFFFFFFFFFFFFFFFFFFFFFFFFFFFFFFFF AND SUB PUSH2 0x1F28 JUMPI DUP1 PUSH1 0x2 PUSH0 DUP3 DUP3 SLOAD SUB SWAP3 POP POP DUP2 SWAP1 SSTORE POP PUSH2 0x1F72 JUMP JUMPDEST DUP1 PUSH0 PUSH0 DUP5 PUSH20 0xFFFFFFFFFFFFFFFFFFFFFFFFFFFFFFFFFFFFFFFF AND PUSH20 0xFFFFFFFFFFFFFFFFFFFFFFFFFFFFFFFFFFFFFFFF AND DUP2 MSTORE PUSH1 0x20 ADD SWAP1 DUP2 MSTORE PUSH1 0x20 ADD PUSH0 KECCAK256 PUSH0 DUP3 DUP3 SLOAD ADD SWAP3 POP POP DUP2 SWAP1 SSTORE POP JUMPDEST DUP2 PUSH20 0xFFFFFFFFFFFFFFFFFFFFFFFFFFFFFFFFFFFFFFFF AND DUP4 PUSH20 0xFFFFFFFFFFFFFFFFFFFFFFFFFFFFFFFFFFFFFFFF AND PUSH32 0xDDF252AD1BE2C89B69C2B068FC378DAA952BA7F163C4A11628F55A4DF523B3EF DUP4 PUSH1 0x40 MLOAD PUSH2 0x1FCF SWAP2 SWAP1 PUSH2 0x2352 JUMP JUMPDEST PUSH1 0x40 MLOAD DUP1 SWAP2 SUB SWAP1 LOG3 POP POP POP JUMP JUMPDEST PUSH0 PUSH0 REVERT JUMPDEST PUSH0 PUSH32 0xFFFFFFFF00000000000000000000000000000000000000000000000000000000 DUP3 AND SWAP1 POP SWAP2 SWAP1 POP JUMP JUMPDEST PUSH2 0x2014 DUP2 PUSH2 0x1FE0 JUMP JUMPDEST DUP2 EQ PUSH2 0x201E JUMPI PUSH0 PUSH0 REVERT JUMPDEST POP JUMP JUMPDEST PUSH0 DUP2 CALLDATALOAD SWAP1 POP PUSH2 0x202F DUP2 PUSH2 0x200B JUMP JUMPDEST SWAP3 SWAP2 POP POP JUMP JUMPDEST PUSH0 PUSH1 0x20 DUP3 DUP5 SUB SLT ISZERO PUSH2 0x204A JUMPI PUSH2 0x2049 PUSH2 0x1FDC JUMP JUMPDEST JUMPDEST PUSH0 PUSH2 0x2057 DUP5 DUP3 DUP6 ADD PUSH2 0x2021 JUMP JUMPDEST SWAP2 POP POP SWAP3 SWAP2 POP POP JUMP JUMPDEST PUSH0 DUP2 ISZERO ISZERO SWAP1 POP SWAP2 SWAP1 POP JUMP JUMPDEST PUSH2 0x2074 DUP2 PUSH2 0x2060 JUMP JUMPDEST DUP3 MSTORE POP POP JUMP JUMPDEST PUSH0 PUSH1 0x20 DUP3 ADD SWAP1 POP PUSH2 0x208D PUSH0 DUP4 ADD DUP5 PUSH2 0x206B JUMP JUMPDEST SWAP3 SWAP2 POP POP JUMP JUMPDEST PUSH0 DUP2 MLOAD SWAP1 POP SWAP2 SWAP1 POP JUMP JUMPDEST PUSH0 DUP3 DUP3 MSTORE PUSH1 0x20 DUP3 ADD SWAP1 POP SWAP3 SWAP2 POP POP JUMP JUMPDEST DUP3 DUP2 DUP4 MCOPY PUSH0 DUP4 DUP4 ADD MSTORE POP POP POP JUMP JUMPDEST PUSH0 PUSH1 0x1F NOT PUSH1 0x1F DUP4 ADD AND SWAP1 POP SWAP2 SWAP1 POP JUMP JUMPDEST PUSH0 PUSH2 0x20D5 DUP3 PUSH2 0x2093 JUMP JUMPDEST PUSH2 0x20DF DUP2 DUP6 PUSH2 0x209D JUMP JUMPDEST SWAP4 POP PUSH2 0x20EF DUP2 DUP6 PUSH1 0x20 DUP7 ADD PUSH2 0x20AD JUMP JUMPDEST PUSH2 0x20F8 DUP2 PUSH2 0x20BB JUMP JUMPDEST DUP5 ADD SWAP2 POP POP SWAP3 SWAP2 POP POP JUMP JUMPDEST PUSH0 PUSH1 0x20 DUP3 ADD SWAP1 POP DUP2 DUP2 SUB PUSH0 DUP4 ADD MSTORE PUSH2 0x211B DUP2 DUP5 PUSH2 0x20CB JUMP JUMPDEST SWAP1 POP SWAP3 SWAP2 POP POP JUMP JUMPDEST PUSH0 PUSH20 0xFFFFFFFFFFFFFFFFFFFFFFFFFFFFFFFFFFFFFFFF DUP3 AND SWAP1 POP SWAP2 SWAP1 POP JUMP JUMPDEST PUSH0 PUSH2 0x214C DUP3 PUSH2 0x2123 JUMP JUMPDEST SWAP1 POP SWAP2 SWAP1 POP JUMP JUMPDEST PUSH2 0x215C DUP2 PUSH2 0x2142 JUMP JUMPDEST DUP2 EQ PUSH2 0x2166 JUMPI PUSH0 PUSH0 REVERT JUMPDEST POP JUMP JUMPDEST PUSH0 DUP2 CALLDATALOAD SWAP1 POP PUSH2 0x2177 DUP2 PUSH2 0x2153 JUMP JUMPDEST SWAP3 SWAP2 POP POP JUMP JUMPDEST PUSH0 DUP2 SWAP1 POP SWAP2 SWAP1 POP JUMP JUMPDEST PUSH2 0x218F DUP2 PUSH2 0x217D JUMP JUMPDEST DUP2 EQ PUSH2 0x2199 JUMPI PUSH0 PUSH0 REVERT JUMPDEST POP JUMP JUMPDEST PUSH0 DUP2 CALLDATALOAD SWAP1 POP PUSH2 0x21AA DUP2 PUSH2 0x2186 JUMP JUMPDEST SWAP3 SWAP2 POP POP JUMP JUMPDEST PUSH0 PUSH0 PUSH1 0x40 DUP4 DUP6 SUB SLT ISZERO PUSH2 0x21C6 JUMPI PUSH2 0x21C5 PUSH2 0x1FDC JUMP JUMPDEST JUMPDEST PUSH0 PUSH2 0x21D3 DUP6 DUP3 DUP7 ADD PUSH2 0x2169 JUMP JUMPDEST SWAP3 POP POP PUSH1 0x20 PUSH2 0x21E4 DUP6 DUP3 DUP7 ADD PUSH2 0x219C JUMP JUMPDEST SWAP2 POP POP SWAP3 POP SWAP3 SWAP1 POP JUMP JUMPDEST PUSH0 PUSH2 0x21F8 DUP3 PUSH2 0x2123 JUMP JUMPDEST SWAP1 POP SWAP2 SWAP1 POP JUMP JUMPDEST PUSH2 0x2208 DUP2 PUSH2 0x21EE JUMP JUMPDEST DUP2 EQ PUSH2 0x2212 JUMPI PUSH0 PUSH0 REVERT JUMPDEST POP JUMP JUMPDEST PUSH0 DUP2 CALLDATALOAD SWAP1 POP PUSH2 0x2223 DUP2 PUSH2 0x21FF JUMP JUMPDEST SWAP3 SWAP2 POP POP JUMP JUMPDEST PUSH0 PUSH0 PUSH1 0x40 DUP4 DUP6 SUB SLT ISZERO PUSH2 0x223F JUMPI PUSH2 0x223E PUSH2 0x1FDC JUMP JUMPDEST JUMPDEST PUSH0 PUSH2 0x224C DUP6 DUP3 DUP7 ADD PUSH2 0x2215 JUMP JUMPDEST SWAP3 POP POP PUSH1 0x20 PUSH2 0x225D DUP6 DUP3 DUP7 ADD PUSH2 0x219C JUMP JUMPDEST SWAP2 POP POP SWAP3 POP SWAP3 SWAP1 POP JUMP JUMPDEST PUSH2 0x2270 DUP2 PUSH2 0x2060 JUMP JUMPDEST DUP2 EQ PUSH2 0x227A JUMPI PUSH0 PUSH0 REVERT JUMPDEST POP JUMP JUMPDEST PUSH0 DUP2 CALLDATALOAD SWAP1 POP PUSH2 0x228B DUP2 PUSH2 0x2267 JUMP JUMPDEST SWAP3 SWAP2 POP POP JUMP JUMPDEST PUSH0 PUSH0 PUSH1 0x40 DUP4 DUP6 SUB SLT ISZERO PUSH2 0x22A7 JUMPI PUSH2 0x22A6 PUSH2 0x1FDC JUMP JUMPDEST JUMPDEST PUSH0 PUSH2 0x22B4 DUP6 DUP3 DUP7 ADD PUSH2 0x2169 JUMP JUMPDEST SWAP3 POP POP PUSH1 0x20 PUSH2 0x22C5 DUP6 DUP3 DUP7 ADD PUSH2 0x227D JUMP JUMPDEST SWAP2 POP POP SWAP3 POP SWAP3 SWAP1 POP JUMP JUMPDEST PUSH0 DUP2 SWAP1 POP SWAP2 SWAP1 POP JUMP JUMPDEST PUSH0 PUSH2 0x22F2 PUSH2 0x22ED PUSH2 0x22E8 DUP5 PUSH2 0x2123 JUMP JUMPDEST PUSH2 0x22CF JUMP JUMPDEST PUSH2 0x2123 JUMP JUMPDEST SWAP1 POP SWAP2 SWAP1 POP JUMP JUMPDEST PUSH0 PUSH2 0x2303 DUP3 PUSH2 0x22D8 JUMP JUMPDEST SWAP1 POP SWAP2 SWAP1 POP JUMP JUMPDEST PUSH0 PUSH2 0x2314 DUP3 PUSH2 0x22F9 JUMP JUMPDEST SWAP1 POP SWAP2 SWAP1 POP JUMP JUMPDEST PUSH2 0x2324 DUP2 PUSH2 0x230A JUMP JUMPDEST DUP3 MSTORE POP POP JUMP JUMPDEST PUSH0 PUSH1 0x20 DUP3 ADD SWAP1 POP PUSH2 0x233D PUSH0 DUP4 ADD DUP5 PUSH2 0x231B JUMP JUMPDEST SWAP3 SWAP2 POP POP JUMP JUMPDEST PUSH2 0x234C DUP2 PUSH2 0x217D JUMP JUMPDEST DUP3 MSTORE POP POP JUMP JUMPDEST PUSH0 PUSH1 0x20 DUP3 ADD SWAP1 POP PUSH2 0x2365 PUSH0 DUP4 ADD DUP5 PUSH2 0x2343 JUMP JUMPDEST SWAP3 SWAP2 POP POP JUMP JUMPDEST PUSH0 PUSH0 PUSH0 PUSH1 0x60 DUP5 DUP7 SUB SLT ISZERO PUSH2 0x2382 JUMPI PUSH2 0x2381 PUSH2 0x1FDC JUMP JUMPDEST JUMPDEST PUSH0 PUSH2 0x238F DUP7 DUP3 DUP8 ADD PUSH2 0x2169 JUMP JUMPDEST SWAP4 POP POP PUSH1 0x20 PUSH2 0x23A0 DUP7 DUP3 DUP8 ADD PUSH2 0x2169 JUMP JUMPDEST SWAP3 POP POP PUSH1 0x40 PUSH2 0x23B1 DUP7 DUP3 DUP8 ADD PUSH2 0x219C JUMP JUMPDEST SWAP2 POP POP SWAP3 POP SWAP3 POP SWAP3 JUMP JUMPDEST PUSH0 DUP2 SWAP1 POP SWAP2 SWAP1 POP JUMP JUMPDEST PUSH2 0x23CD DUP2 PUSH2 0x23BB JUMP JUMPDEST DUP2 EQ PUSH2 0x23D7 JUMPI PUSH0 PUSH0 REVERT JUMPDEST POP JUMP JUMPDEST PUSH0 DUP2 CALLDATALOAD SWAP1 POP PUSH2 0x23E8 DUP2 PUSH2 0x23C4 JUMP JUMPDEST SWAP3 SWAP2 POP POP JUMP JUMPDEST PUSH0 PUSH1 0x20 DUP3 DUP5 SUB SLT ISZERO PUSH2 0x2403 JUMPI PUSH2 0x2402 PUSH2 0x1FDC JUMP JUMPDEST JUMPDEST PUSH0 PUSH2 0x2410 DUP5 DUP3 DUP6 ADD PUSH2 0x23DA JUMP JUMPDEST SWAP2 POP POP SWAP3 SWAP2 POP POP JUMP JUMPDEST PUSH2 0x2422 DUP2 PUSH2 0x23BB JUMP JUMPDEST DUP3 MSTORE POP POP JUMP JUMPDEST PUSH0 PUSH1 0x20 DUP3 ADD SWAP1 POP PUSH2 0x243B PUSH0 DUP4 ADD DUP5 PUSH2 0x2419 JUMP JUMPDEST SWAP3 SWAP2 POP POP JUMP JUMPDEST PUSH0 PUSH0 PUSH1 0x40 DUP4 DUP6 SUB SLT ISZERO PUSH2 0x2457 JUMPI PUSH2 0x2456 PUSH2 0x1FDC JUMP JUMPDEST JUMPDEST PUSH0 PUSH2 0x2464 DUP6 DUP3 DUP7 ADD PUSH2 0x23DA JUMP JUMPDEST SWAP3 POP POP PUSH1 0x20 PUSH2 0x2475 DUP6 DUP3 DUP7 ADD PUSH2 0x2169 JUMP JUMPDEST SWAP2 POP POP SWAP3 POP SWAP3 SWAP1 POP JUMP JUMPDEST PUSH0 PUSH1 0xFF DUP3 AND SWAP1 POP SWAP2 SWAP1 POP JUMP JUMPDEST PUSH2 0x2494 DUP2 PUSH2 0x247F JUMP JUMPDEST DUP3 MSTORE POP POP JUMP JUMPDEST PUSH0 PUSH1 0x20 DUP3 ADD SWAP1 POP PUSH2 0x24AD PUSH0 DUP4 ADD DUP5 PUSH2 0x248B JUMP JUMPDEST SWAP3 SWAP2 POP POP JUMP JUMPDEST PUSH0 PUSH1 0x20 DUP3 DUP5 SUB SLT ISZERO PUSH2 0x24C8 JUMPI PUSH2 0x24C7 PUSH2 0x1FDC JUMP JUMPDEST JUMPDEST PUSH0 PUSH2 0x24D5 DUP5 DUP3 DUP6 ADD PUSH2 0x219C JUMP JUMPDEST SWAP2 POP POP SWAP3 SWAP2 POP POP JUMP JUMPDEST PUSH0 PUSH1 0x20 DUP3 DUP5 SUB SLT ISZERO PUSH2 0x24F3 JUMPI PUSH2 0x24F2 PUSH2 0x1FDC JUMP JUMPDEST JUMPDEST PUSH0 PUSH2 0x2500 DUP5 DUP3 DUP6 ADD PUSH2 0x2169 JUMP JUMPDEST SWAP2 POP POP SWAP3 SWAP2 POP POP JUMP JUMPDEST PUSH0 PUSH0 PUSH1 0x40 DUP4 DUP6 SUB SLT ISZERO PUSH2 0x251F JUMPI PUSH2 0x251E PUSH2 0x1FDC JUMP JUMPDEST JUMPDEST PUSH0 PUSH2 0x252C DUP6 DUP3 DUP7 ADD PUSH2 0x227D JUMP JUMPDEST SWAP3 POP POP PUSH1 0x20 PUSH2 0x253D DUP6 DUP3 DUP7 ADD PUSH2 0x219C JUMP JUMPDEST SWAP2 POP POP SWAP3 POP SWAP3 SWAP1 POP JUMP JUMPDEST PUSH2 0x2550 DUP2 PUSH2 0x2142 JUMP JUMPDEST DUP3 MSTORE POP POP JUMP JUMPDEST PUSH0 PUSH1 0x20 DUP3 ADD SWAP1 POP PUSH2 0x2569 PUSH0 DUP4 ADD DUP5 PUSH2 0x2547 JUMP JUMPDEST SWAP3 SWAP2 POP POP JUMP JUMPDEST PUSH0 PUSH0 PUSH0 PUSH1 0x60 DUP5 DUP7 SUB SLT ISZERO PUSH2 0x2586 JUMPI PUSH2 0x2585 PUSH2 0x1FDC JUMP JUMPDEST JUMPDEST PUSH0 PUSH2 0x2593 DUP7 DUP3 DUP8 ADD PUSH2 0x2169 JUMP JUMPDEST SWAP4 POP POP PUSH1 0x20 PUSH2 0x25A4 DUP7 DUP3 DUP8 ADD PUSH2 0x219C JUMP JUMPDEST SWAP3 POP POP PUSH1 0x40 PUSH2 0x25B5 DUP7 DUP3 DUP8 ADD PUSH2 0x2169 JUMP JUMPDEST SWAP2 POP POP SWAP3 POP SWAP3 POP SWAP3 JUMP JUMPDEST PUSH0 PUSH1 0x20 DUP3 DUP5 SUB SLT ISZERO PUSH2 0x25D4 JUMPI PUSH2 0x25D3 PUSH2 0x1FDC JUMP JUMPDEST JUMPDEST PUSH0 PUSH2 0x25E1 DUP5 DUP3 DUP6 ADD PUSH2 0x227D JUMP JUMPDEST SWAP2 POP POP SWAP3 SWAP2 POP POP JUMP JUMPDEST PUSH0 PUSH0 PUSH1 0x40 DUP4 DUP6 SUB SLT ISZERO PUSH2 0x2600 JUMPI PUSH2 0x25FF PUSH2 0x1FDC JUMP JUMPDEST JUMPDEST PUSH0 PUSH2 0x260D DUP6 DUP3 DUP7 ADD PUSH2 0x2169 JUMP JUMPDEST SWAP3 POP POP PUSH1 0x20 PUSH2 0x261E DUP6 DUP3 DUP7 ADD PUSH2 0x2169 JUMP JUMPDEST SWAP2 POP POP SWAP3 POP SWAP3 SWAP1 POP JUMP JUMPDEST PUSH0 PUSH0 PUSH0 PUSH0 PUSH0 PUSH1 0xA0 DUP7 DUP9 SUB SLT ISZERO PUSH2 0x2641 JUMPI PUSH2 0x2640 PUSH2 0x1FDC JUMP JUMPDEST JUMPDEST PUSH0 PUSH2 0x264E DUP9 DUP3 DUP10 ADD PUSH2 0x2169 JUMP JUMPDEST SWAP6 POP POP PUSH1 0x20 PUSH2 0x265F DUP9 DUP3 DUP10 ADD PUSH2 0x219C JUMP JUMPDEST SWAP5 POP POP PUSH1 0x40 PUSH2 0x2670 DUP9 DUP3 DUP10 ADD PUSH2 0x219C JUMP JUMPDEST SWAP4 POP POP PUSH1 0x60 PUSH2 0x2681 DUP9 DUP3 DUP10 ADD PUSH2 0x219C JUMP JUMPDEST SWAP3 POP POP PUSH1 0x80 PUSH2 0x2692 DUP9 DUP3 DUP10 ADD PUSH2 0x219C JUMP JUMPDEST SWAP2 POP POP SWAP3 SWAP6 POP SWAP3 SWAP6 SWAP1 SWAP4 POP JUMP JUMPDEST PUSH0 PUSH1 0x60 DUP3 ADD SWAP1 POP PUSH2 0x26B2 PUSH0 DUP4 ADD DUP7 PUSH2 0x2343 JUMP JUMPDEST PUSH2 0x26BF PUSH1 0x20 DUP4 ADD DUP6 PUSH2 0x2343 JUMP JUMPDEST PUSH2 0x26CC PUSH1 0x40 DUP4 ADD DUP5 PUSH2 0x2343 JUMP JUMPDEST SWAP5 SWAP4 POP POP POP POP JUMP JUMPDEST PUSH32 0x4E487B7100000000000000000000000000000000000000000000000000000000 PUSH0 MSTORE PUSH1 0x22 PUSH1 0x4 MSTORE PUSH1 0x24 PUSH0 REVERT JUMPDEST PUSH0 PUSH1 0x2 DUP3 DIV SWAP1 POP PUSH1 0x1 DUP3 AND DUP1 PUSH2 0x2718 JUMPI PUSH1 0x7F DUP3 AND SWAP2 POP JUMPDEST PUSH1 0x20 DUP3 LT DUP2 SUB PUSH2 0x272B JUMPI PUSH2 0x272A PUSH2 0x26D4 JUMP JUMPDEST JUMPDEST POP SWAP2 SWAP1 POP JUMP JUMPDEST PUSH32 0x496E76616C69642027746F270000000000000000000000000000000000000000 PUSH0 DUP3 ADD MSTORE POP JUMP JUMPDEST PUSH0 PUSH2 0x2765 PUSH1 0xC DUP4 PUSH2 0x209D JUMP JUMPDEST SWAP2 POP PUSH2 0x2770 DUP3 PUSH2 0x2731 JUMP JUMPDEST PUSH1 0x20 DUP3 ADD SWAP1 POP SWAP2 SWAP1 POP JUMP JUMPDEST PUSH0 PUSH1 0x20 DUP3 ADD SWAP1 POP DUP2 DUP2 SUB PUSH0 DUP4 ADD MSTORE PUSH2 0x2792 DUP2 PUSH2 0x2759 JUMP JUMPDEST SWAP1 POP SWAP2 SWAP1 POP JUMP JUMPDEST PUSH0 DUP2 SWAP1 POP SWAP3 SWAP2 POP POP JUMP JUMPDEST POP JUMP JUMPDEST PUSH0 PUSH2 0x27B1 PUSH0 DUP4 PUSH2 0x2799 JUMP JUMPDEST SWAP2 POP PUSH2 0x27BC DUP3 PUSH2 0x27A3 JUMP JUMPDEST PUSH0 DUP3 ADD SWAP1 POP SWAP2 SWAP1 POP JUMP JUMPDEST PUSH0 PUSH2 0x27D0 DUP3 PUSH2 0x27A6 JUMP JUMPDEST SWAP2 POP DUP2 SWAP1 POP SWAP2 SWAP1 POP JUMP JUMPDEST PUSH32 0x455448207472616E73666572206661696C656400000000000000000000000000 PUSH0 DUP3 ADD MSTORE POP JUMP JUMPDEST PUSH0 PUSH2 0x280E PUSH1 0x13 DUP4 PUSH2 0x209D JUMP JUMPDEST SWAP2 POP PUSH2 0x2819 DUP3 PUSH2 0x27DA JUMP JUMPDEST PUSH1 0x20 DUP3 ADD SWAP1 POP SWAP2 SWAP1 POP JUMP JUMPDEST PUSH0 PUSH1 0x20 DUP3 ADD SWAP1 POP DUP2 DUP2 SUB PUSH0 DUP4 ADD MSTORE PUSH2 0x283B DUP2 PUSH2 0x2802 JUMP JUMPDEST SWAP1 POP SWAP2 SWAP1 POP JUMP JUMPDEST PUSH0 PUSH1 0x40 DUP3 ADD SWAP1 POP PUSH2 0x2855 PUSH0 DUP4 ADD DUP6 PUSH2 0x206B JUMP JUMPDEST PUSH2 0x2862 PUSH1 0x20 DUP4 ADD DUP5 PUSH2 0x2343 JUMP JUMPDEST SWAP4 SWAP3 POP POP POP JUMP JUMPDEST PUSH0 PUSH1 0x40 DUP3 ADD SWAP1 POP PUSH2 0x287C PUSH0 DUP4 ADD DUP6 PUSH2 0x2547 JUMP JUMPDEST PUSH2 0x2889 PUSH1 0x20 DUP4 ADD DUP5 PUSH2 0x2343 JUMP JUMPDEST SWAP4 SWAP3 POP POP POP JUMP JUMPDEST PUSH0 DUP2 MLOAD SWAP1 POP PUSH2 0x289E DUP2 PUSH2 0x2267 JUMP JUMPDEST SWAP3 SWAP2 POP POP JUMP JUMPDEST PUSH0 PUSH1 0x20 DUP3 DUP5 SUB SLT ISZERO PUSH2 0x28B9 JUMPI PUSH2 0x28B8 PUSH2 0x1FDC JUMP JUMPDEST JUMPDEST PUSH0 PUSH2 0x28C6 DUP5 DUP3 DUP6 ADD PUSH2 0x2890 JUMP JUMPDEST SWAP2 POP POP SWAP3 SWAP2 POP POP JUMP JUMPDEST PUSH0 PUSH1 0xC0 DUP3 ADD SWAP1 POP PUSH2 0x28E2 PUSH0 DUP4 ADD DUP10 PUSH2 0x2547 JUMP JUMPDEST PUSH2 0x28EF PUSH1 0x20 DUP4 ADD DUP9 PUSH2 0x2343 JUMP JUMPDEST PUSH2 0x28FC PUSH1 0x40 DUP4 ADD DUP8 PUSH2 0x2343 JUMP JUMPDEST PUSH2 0x2909 PUSH1 0x60 DUP4 ADD DUP7 PUSH2 0x2343 JUMP JUMPDEST PUSH2 0x2916 PUSH1 0x80 DUP4 ADD DUP6 PUSH2 0x2547 JUMP JUMPDEST PUSH2 0x2923 PUSH1 0xA0 DUP4 ADD DUP5 PUSH2 0x2343 JUMP JUMPDEST SWAP8 SWAP7 POP POP POP POP POP POP POP JUMP JUMPDEST PUSH0 DUP2 MLOAD SWAP1 POP PUSH2 0x293C DUP2 PUSH2 0x2186 JUMP JUMPDEST SWAP3 SWAP2 POP POP JUMP JUMPDEST PUSH0 PUSH0 PUSH0 PUSH1 0x60 DUP5 DUP7 SUB SLT ISZERO PUSH2 0x2959 JUMPI PUSH2 0x2958 PUSH2 0x1FDC JUMP JUMPDEST JUMPDEST PUSH0 PUSH2 0x2966 DUP7 DUP3 DUP8 ADD PUSH2 0x292E JUMP JUMPDEST SWAP4 POP POP PUSH1 0x20 PUSH2 0x2977 DUP7 DUP3 DUP8 ADD PUSH2 0x292E JUMP JUMPDEST SWAP3 POP POP PUSH1 0x40 PUSH2 0x2988 DUP7 DUP3 DUP8 ADD PUSH2 0x292E JUMP JUMPDEST SWAP2 POP POP SWAP3 POP SWAP3 POP SWAP3 JUMP JUMPDEST PUSH0 PUSH1 0x60 DUP3 ADD SWAP1 POP PUSH2 0x29A5 PUSH0 DUP4 ADD DUP7 PUSH2 0x2547 JUMP JUMPDEST PUSH2 0x29B2 PUSH1 0x20 DUP4 ADD DUP6 PUSH2 0x2343 JUMP JUMPDEST PUSH2 0x29BF PUSH1 0x40 DUP4 ADD DUP5 PUSH2 0x2343 JUMP JUMPDEST SWAP5 SWAP4 POP POP POP POP JUMP JUMPDEST PUSH32 0x5265656E7472616E637947756172643A207265656E7472616E742063616C6C00 PUSH0 DUP3 ADD MSTORE POP JUMP JUMPDEST PUSH0 PUSH2 0x29FB PUSH1 0x1F DUP4 PUSH2 0x209D JUMP JUMPDEST SWAP2 POP PUSH2 0x2A06 DUP3 PUSH2 0x29C7 JUMP JUMPDEST PUSH1 0x20 DUP3 ADD SWAP1 POP SWAP2 SWAP1 POP JUMP JUMPDEST PUSH0 PUSH1 0x20 DUP3 ADD SWAP1 POP DUP2 DUP2 SUB PUSH0 DUP4 ADD MSTORE PUSH2 0x2A28 DUP2 PUSH2 0x29EF JUMP JUMPDEST SWAP1 POP SWAP2 SWAP1 POP JUMP JUMPDEST PUSH0 PUSH1 0x40 DUP3 ADD SWAP1 POP PUSH2 0x2A42 PUSH0 DUP4 ADD DUP6 PUSH2 0x2547 JUMP JUMPDEST PUSH2 0x2A4F PUSH1 0x20 DUP4 ADD DUP5 PUSH2 0x2419 JUMP JUMPDEST SWAP4 SWAP3 POP POP POP JUMP JUMPDEST PUSH32 0x4E487B7100000000000000000000000000000000000000000000000000000000 PUSH0 MSTORE PUSH1 0x11 PUSH1 0x4 MSTORE PUSH1 0x24 PUSH0 REVERT JUMPDEST PUSH0 PUSH2 0x2A8D DUP3 PUSH2 0x217D JUMP JUMPDEST SWAP2 POP PUSH2 0x2A98 DUP4 PUSH2 0x217D JUMP JUMPDEST SWAP3 POP DUP3 DUP3 ADD SWAP1 POP DUP1 DUP3 GT ISZERO PUSH2 0x2AB0 JUMPI PUSH2 0x2AAF PUSH2 0x2A56 JUMP JUMPDEST JUMPDEST SWAP3 SWAP2 POP POP JUMP INVALID LOG2 PUSH5 0x6970667358 0x22 SLT KECCAK256 SWAP16 NOT PREVRANDAO 0x29 0x29 PUSH5 0xC7E1204B31 CREATE 0xDE 0xC3 DUP11 GASPRICE 0xB2 PREVRANDAO 0xDC SIGNEXTEND 0xDD 0xEC 0xE3 SHL 0xCD LOG0 DUP3 0xE5 PUSH21 0xB2596B64736F6C634300081C003300000000000000 "
				},
				"gasEstimates": {
					"creation": {
						"codeDepositCost": "2197600",
						"executionCost": "infinite",
						"totalCost": "infinite"
					},
					"external": {
						"ADMIN_ROLE()": "393",
						"BURNER_ROLE()": "459",
						"DAO_ADDRESS()": "483",
						"DEFAULT_ADMIN_ROLE()": "418",
						"INITIAL_SUPPLY()": "415",
						"MINTER_ROLE()": "458",
						"addLiquidityETH(address,uint256,uint256,uint256,uint256)": "infinite",
						"allowance(address,address)": "infinite",
						"approve(address,uint256)": "infinite",
						"balanceOf(address)": "2874",
						"blacklist(address)": "2987",
						"burn(uint256)": "infinite",
						"cooldownEnabled()": "2599",
						"cooldownTime()": "2470",
						"decimals()": "450",
						"getRoleAdmin(bytes32)": "infinite",
						"grantRole(bytes32,address)": "infinite",
						"hasRole(bytes32,address)": "3255",
						"lastTxTimestamp(address)": "2891",
						"launchBlock()": "2536",
						"maxTxAmount()": "2537",
						"mint(address,uint256)": "infinite",
						"name()": "infinite",
						"renounceRole(bytes32,address)": "infinite",
						"rescueETH(address,uint256)": "infinite",
						"rescueTokens(address,uint256,address)": "infinite",
						"revokeRole(bytes32,address)": "infinite",
						"setBlacklist(address,bool)": "infinite",
						"setCooldownConfig(bool,uint256)": "infinite",
						"setMaxTxAmount(uint256)": "infinite",
						"setSniperProtection(bool,uint256)": "infinite",
						"setTradingEnabled(bool)": "infinite",
						"snipeBlocks()": "2471",
						"sniperProtectionEnabled()": "2533",
						"supportsInterface(bytes4)": "764",
						"symbol()": "infinite",
						"totalSupply()": "2500",
						"tradingEnabled()": "2672",
						"transfer(address,uint256)": "infinite",
						"transferFrom(address,address,uint256)": "infinite",
						"uniswapV2Pair()": "2641",
						"uniswapV2Router()": "infinite"
					},
					"internal": {
						"_beforeTokenTransfer(address,address,uint256)": "infinite"
					}
				},
				"methodIdentifiers": {
					"ADMIN_ROLE()": "75b238fc",
					"BURNER_ROLE()": "282c51f3",
					"DAO_ADDRESS()": "f68ded66",
					"DEFAULT_ADMIN_ROLE()": "a217fddf",
					"INITIAL_SUPPLY()": "2ff2e9dc",
					"MINTER_ROLE()": "d5391393",
					"addLiquidityETH(address,uint256,uint256,uint256,uint256)": "f6f1e306",
					"allowance(address,address)": "dd62ed3e",
					"approve(address,uint256)": "095ea7b3",
					"balanceOf(address)": "70a08231",
					"blacklist(address)": "f9f92be4",
					"burn(uint256)": "42966c68",
					"cooldownEnabled()": "a985ceef",
					"cooldownTime()": "b319c6b7",
					"decimals()": "313ce567",
					"getRoleAdmin(bytes32)": "248a9ca3",
					"grantRole(bytes32,address)": "2f2ff15d",
					"hasRole(bytes32,address)": "91d14854",
					"lastTxTimestamp(address)": "4551bbe9",
					"launchBlock()": "d00efb2f",
					"maxTxAmount()": "8c0b5e22",
					"mint(address,uint256)": "40c10f19",
					"name()": "06fdde03",
					"renounceRole(bytes32,address)": "36568abe",
					"rescueETH(address,uint256)": "099a04e5",
					"rescueTokens(address,uint256,address)": "b37fd190",
					"revokeRole(bytes32,address)": "d547741f",
					"setBlacklist(address,bool)": "153b0d1e",
					"setCooldownConfig(bool,uint256)": "48fca59d",
					"setMaxTxAmount(uint256)": "ec28438a",
					"setSniperProtection(bool,uint256)": "89900603",
					"setTradingEnabled(bool)": "c2e5ec04",
					"snipeBlocks()": "2be29fa8",
					"sniperProtectionEnabled()": "963472f9",
					"supportsInterface(bytes4)": "01ffc9a7",
					"symbol()": "95d89b41",
					"totalSupply()": "18160ddd",
					"tradingEnabled()": "4ada218b",
					"transfer(address,uint256)": "a9059cbb",
					"transferFrom(address,address,uint256)": "23b872dd",
					"uniswapV2Pair()": "49bd5a5e",
					"uniswapV2Router()": "1694505e"
				}
			},
			"storageLayout": {
				"storage": [
					{
						"astId": 603,
						"contract": "contracts/WallyToken.sol:WallyToken",
						"label": "_balances",
						"offset": 0,
						"slot": "0",
						"type": "t_mapping(t_address,t_uint256)"
					},
					{
						"astId": 609,
						"contract": "contracts/WallyToken.sol:WallyToken",
						"label": "_allowances",
						"offset": 0,
						"slot": "1",
						"type": "t_mapping(t_address,t_mapping(t_address,t_uint256))"
					},
					{
						"astId": 611,
						"contract": "contracts/WallyToken.sol:WallyToken",
						"label": "_totalSupply",
						"offset": 0,
						"slot": "2",
						"type": "t_uint256"
					},
					{
						"astId": 613,
						"contract": "contracts/WallyToken.sol:WallyToken",
						"label": "_name",
						"offset": 0,
						"slot": "3",
						"type": "t_string_storage"
					},
					{
						"astId": 615,
						"contract": "contracts/WallyToken.sol:WallyToken",
						"label": "_symbol",
						"offset": 0,
						"slot": "4",
						"type": "t_string_storage"
					},
					{
						"astId": 26,
						"contract": "contracts/WallyToken.sol:WallyToken",
						"label": "_roles",
						"offset": 0,
						"slot": "5",
						"type": "t_mapping(t_bytes32,t_struct(RoleData)21_storage)"
					},
					{
						"astId": 526,
						"contract": "contracts/WallyToken.sol:WallyToken",
						"label": "_status",
						"offset": 0,
						"slot": "6",
						"type": "t_uint256"
					},
					{
						"astId": 1349,
						"contract": "contracts/WallyToken.sol:WallyToken",
						"label": "uniswapV2Router",
						"offset": 0,
						"slot": "7",
						"type": "t_contract(IUniswapV2Router02)1314"
					},
					{
						"astId": 1351,
						"contract": "contracts/WallyToken.sol:WallyToken",
						"label": "uniswapV2Pair",
						"offset": 0,
						"slot": "8",
						"type": "t_address"
					},
					{
						"astId": 1354,
						"contract": "contracts/WallyToken.sol:WallyToken",
						"label": "tradingEnabled",
						"offset": 20,
						"slot": "8",
						"type": "t_bool"
					},
					{
						"astId": 1358,
						"contract": "contracts/WallyToken.sol:WallyToken",
						"label": "blacklist",
						"offset": 0,
						"slot": "9",
						"type": "t_mapping(t_address,t_bool)"
					},
					{
						"astId": 1360,
						"contract": "contracts/WallyToken.sol:WallyToken",
						"label": "maxTxAmount",
						"offset": 0,
						"slot": "10",
						"type": "t_uint256"
					},
					{
						"astId": 1363,
						"contract": "contracts/WallyToken.sol:WallyToken",
						"label": "sniperProtectionEnabled",
						"offset": 0,
						"slot": "11",
						"type": "t_bool"
					},
					{
						"astId": 1366,
						"contract": "contracts/WallyToken.sol:WallyToken",
						"label": "snipeBlocks",
						"offset": 0,
						"slot": "12",
						"type": "t_uint256"
					},
					{
						"astId": 1368,
						"contract": "contracts/WallyToken.sol:WallyToken",
						"label": "launchBlock",
						"offset": 0,
						"slot": "13",
						"type": "t_uint256"
					},
					{
						"astId": 1371,
						"contract": "contracts/WallyToken.sol:WallyToken",
						"label": "cooldownEnabled",
						"offset": 0,
						"slot": "14",
						"type": "t_bool"
					},
					{
						"astId": 1374,
						"contract": "contracts/WallyToken.sol:WallyToken",
						"label": "cooldownTime",
						"offset": 0,
						"slot": "15",
						"type": "t_uint256"
					},
					{
						"astId": 1378,
						"contract": "contracts/WallyToken.sol:WallyToken",
						"label": "lastTxTimestamp",
						"offset": 0,
						"slot": "16",
						"type": "t_mapping(t_address,t_uint256)"
					}
				],
				"types": {
					"t_address": {
						"encoding": "inplace",
						"label": "address",
						"numberOfBytes": "20"
					},
					"t_bool": {
						"encoding": "inplace",
						"label": "bool",
						"numberOfBytes": "1"
					},
					"t_bytes32": {
						"encoding": "inplace",
						"label": "bytes32",
						"numberOfBytes": "32"
					},
					"t_contract(IUniswapV2Router02)1314": {
						"encoding": "inplace",
						"label": "contract IUniswapV2Router02",
						"numberOfBytes": "20"
					},
					"t_mapping(t_address,t_bool)": {
						"encoding": "mapping",
						"key": "t_address",
						"label": "mapping(address => bool)",
						"numberOfBytes": "32",
						"value": "t_bool"
					},
					"t_mapping(t_address,t_mapping(t_address,t_uint256))": {
						"encoding": "mapping",
						"key": "t_address",
						"label": "mapping(address => mapping(address => uint256))",
						"numberOfBytes": "32",
						"value": "t_mapping(t_address,t_uint256)"
					},
					"t_mapping(t_address,t_uint256)": {
						"encoding": "mapping",
						"key": "t_address",
						"label": "mapping(address => uint256)",
						"numberOfBytes": "32",
						"value": "t_uint256"
					},
					"t_mapping(t_bytes32,t_struct(RoleData)21_storage)": {
						"encoding": "mapping",
						"key": "t_bytes32",
						"label": "mapping(bytes32 => struct AccessControl.RoleData)",
						"numberOfBytes": "32",
						"value": "t_struct(RoleData)21_storage"
					},
					"t_string_storage": {
						"encoding": "bytes",
						"label": "string",
						"numberOfBytes": "32"
					},
					"t_struct(RoleData)21_storage": {
						"encoding": "inplace",
						"label": "struct AccessControl.RoleData",
						"members": [
							{
								"astId": 18,
								"contract": "contracts/WallyToken.sol:WallyToken",
								"label": "hasRole",
								"offset": 0,
								"slot": "0",
								"type": "t_mapping(t_address,t_bool)"
							},
							{
								"astId": 20,
								"contract": "contracts/WallyToken.sol:WallyToken",
								"label": "adminRole",
								"offset": 0,
								"slot": "1",
								"type": "t_bytes32"
							}
						],
						"numberOfBytes": "64"
					},
					"t_uint256": {
						"encoding": "inplace",
						"label": "uint256",
						"numberOfBytes": "32"
					}
				}
			},
			"userdoc": {
				"kind": "user",
				"methods": {},
				"notice": "  - Zero-tax ERC20 token  - **AccessControl** with a designated DAO as `ADMIN_ROLE` (not the deployer EOA)  - **Advanced Anti-Sniping**: (launchBlock sniper checks, optional cooldown)  - Basic anti-bot features: (trading toggle, blacklist, max tx limit)  - Liquidity management (Uniswap V2)  - Rescue functions for stuck tokens/ETH",
				"version": 1
			}
		}
	}
}