{
	"data": {
		"bytecode": {
			"linkReferences": {},
			"object": "60a080604052604081611fb9803803809161001a82856106b5565b833981010312610406576100396020610032836106d8565b92016106d8565b90604051916100496040846106b5565b600b83526a2bb0b6363c902a37b5b2b760a91b6020840152604051916100706040846106b5565b600383526254574760e81b602084015283516001600160401b0381116105c657600354600181811c911680156106ab575b60208210146105a857601f8111610648575b50602094601f82116001146105e5579481929394955f926105da575b50508160011b915f199060031b1c1916176003555b82516001600160401b0381116105c657600454600181811c911680156105bc575b60208210146105a857601f8111610545575b506020601f82116001146104e257819293945f926104d7575b50508160011b915f199060031b1c1916176004555b6001600655601e600b819055600e556001600160a01b03169081156104c8576001600160a01b038116156104c8578060805233156104b557600254906b409f9cbc7c4a04c22000000082018092116104a1576101f991600255335f525f60205260405f206b409f9cbc7c4a04c22000000081540190556040516b409f9cbc7c4a04c22000000081525f7fddf252ad1be2c89b69c2b068fc378daa952ba7f163c4a11628f55a4df523b3ef60203393a36106ec565b507f9f2df0fed2c77648de5860a4cc508cd0818c85b8b8a1ab4ceeef8d981c8956a65f81815260056020527f15a28d26fa1bf736cf7edc9922607171ccb09c3c73b808e7772a3013e068a52380545f516020611f995f395f51905f5291829055909290915f516020611f595f395f51905f529080a47f3c11d16cbaffd01df69ce1c404f6340ee057498f5f00246190ea54220576a8485f81815260056020527f847f481f687befb06ed3511f1a8dcef57e83007c0147ae5047583d705617093880545f516020611f995f395f51905f5291829055909290915f516020611f595f395f51905f529080a4600780546001600160a01b0319168217905560405163c45a015560e01b815290602082600481845afa918215610412575f92610460575b506020600491604051928380926315ab88c960e31b82525afa908115610412575f9161041d575b506040516364e329cb60e11b81523060048201526001600160a01b03918216602482015291602091839160449183915f91165af1908115610412575f916103d4575b50600880546001600160a01b0319166001600160a01b03929092169190911790555f600f55600a805461ffff19169055600d805460ff191690556040516117d490816107858239608051816110210152f35b90506020813d60201161040a575b816103ef602093836106b5565b8101031261040657610400906106d8565b5f610382565b5f80fd5b3d91506103e2565b6040513d5f823e3d90fd5b90506020813d602011610458575b81610438602093836106b5565b81010312610406575f91604461044f6020936106d8565b92505091610340565b3d915061042b565b9091506020813d602011610499575b8161047c602093836106b5565b810103126104065760206104916004926106d8565b929150610319565b3d915061046f565b634e487b7160e01b5f52601160045260245ffd5b63ec442f0560e01b5f525f60045260245ffd5b63f6b2911f60e01b5f5260045ffd5b015190505f80610130565b601f1982169060045f52805f20915f5b81811061052d57509583600195969710610515575b505050811b01600455610145565b01515f1960f88460031b161c191690555f8080610507565b9192602060018192868b0151815501940192016104f2565b60045f527f8a35acfbc15ff81a39ae7d344fd709f28e8600b4aa8c65c6b64bfe7fe36bd19b601f830160051c8101916020841061059e575b601f0160051c01905b8181106105935750610117565b5f8155600101610586565b909150819061057d565b634e487b7160e01b5f52602260045260245ffd5b90607f1690610105565b634e487b7160e01b5f52604160045260245ffd5b015190505f806100cf565b601f1982169560035f52805f20915f5b88811061063057508360019596979810610618575b505050811b016003556100e4565b01515f1960f88460031b161c191690555f808061060a565b919260206001819286850151815501940192016105f5565b60035f527fc2575a0e9e593c00f959f8c92f12db2869c3395a3b0502d05e2516446f71f85b601f830160051c810191602084106106a1575b601f0160051c01905b81811061069657506100b3565b5f8155600101610689565b9091508190610680565b90607f16906100a1565b601f909101601f19168101906001600160401b038211908210176105c657604052565b51906001600160a01b038216820361040657565b6001600160a01b0381165f9081525f516020611f795f395f51905f52602052604090205460ff1661077f576001600160a01b03165f8181525f516020611f795f395f51905f5260205260408120805460ff191660011790553391905f516020611f995f395f51905f52907f2f8788117e7eff1d82e926ec794901d17c78024a50270940304540a733656f0d9080a4600190565b505f9056fe6080806040526004361015610048575b50361561001a575f80fd5b6040513481527fa419615bc8fda4c87663805ee2a3597a6d71c1d476911d9892f340d965bc7bf160203392a2005b5f3560e01c90816301ffc9a71461137f5750806306fdde03146112c4578063095ea7b314611224578063099a04e514611134578063153b0d1e146110955780631694505e1461106d57806318160ddd146110505780632131c68c1461100c57806323b872dd14610f53578063248a9ca314610f205780632618f21414610f035780632f2ff15d14610ec5578063313ce56714610eaa57806336568abe14610e66578063395093511461083857806340c10f1914610d1f57806342966c6814610bdb57806348fca59d14610b3257806349bd5a5e14610b0a5780634ada218b14610ae857806365cf7c9b14610acb57806370a0823114610a9457806389900603146109e25780638c0b5e22146109c557806391d148541461097c57806395d89b411461087c578063963472f914610857578063a217fddf1461083d578063a457c2d714610838578063a9059cbb14610807578063a985ceef146107e5578063b319c6b7146107c8578063b37fd19014610602578063c2e5ec0414610561578063d547741f1461051c578063dd62ed3e146104cc578063ec28438a14610469578063f6f1e306146102425763fe575a8714610201575f61000f565b3461023e57602036600319011261023e576001600160a01b036102226113fc565b165f526009602052602060ff60405f2054166040519015158152f35b5f80fd5b60a036600319011261023e576102566113fc565b60243590610262611482565b61026a6114d8565b6001600160a01b0316801561045a57806040518381523460208201527f407e9458c121455467ad277a21812c883f5d67ee0020a7b7a3ea0007a663918360403392a36007546001600160a01b031691301561044757821561043457606090305f52600160205260405f2060018060a01b0385165f526020525f6040812055836040515f81527f8c5be1e5ebec7d5bd14f71427d1e84f3dd0314c0f7b2291e5b200ac8c7c3b92560203092a361032081853061173b565b60c46040518095819363f305d71960e01b835230600484015260248301526044356044830152606435606483015285608483015260843560a483015234905af18015610429575f915f935f926103e2575b50906103de917f64b83944e79c3ce8d4c297411de637c3e102d064677aac0c163976ebdcd6f50e604051806103b9858989846040919493926060820195825260208201520152565b0390a26001600655604051938493846040919493926060820195825260208201520152565b0390f35b92509250506060813d606011610421575b8161040060609383611460565b8101031261023e576103de8151926040602084015193015193929391610371565b3d91506103f3565b6040513d5f823e3d90fd5b634a1406b160e11b5f525f60045260245ffd5b63e602df0560e01b5f525f60045260245ffd5b63f6b2911f60e01b5f5260045ffd5b3461023e57602036600319011261023e57600435610485611482565b61048d6114d8565b80600f540361049e575b6001600655005b80600f557fd6a912222a539eff01eb7e23cd954e57c4ae962622948839fefbc46b0ffe914a5f80a280610497565b3461023e57604036600319011261023e576104e56113fc565b6104ed611412565b6001600160a01b039182165f908152600160209081526040808320949093168252928352819020549051908152f35b3461023e57604036600319011261023e5761055f60043561053b611412565b9061055a610555825f526005602052600160405f20015490565b611547565b6116b7565b005b3461023e57602036600319011261023e5761057a611428565b610582611482565b61058a6114d8565b600a54811515908160ff82161515036105a4576001600655005b60ff191660ff821617600a819055907f6e552ceee9488e9332de4530eb91788e818d00e6ccfb1f2968cb4325924e06115f80a2816105f4575b506105eb575b808080610497565b42600c556105e3565b60ff915060081c16816105dd565b3461023e57606036600319011261023e5761061b6113fc565b6044356001600160a01b038116916024359183900361023e5761063c611482565b6106446114d8565b6001600160a01b0316801561045a57821561045a576040516370a0823160e01b8152306004820152602081602481855afa80156104295783915f91610793575b501061074e5760205f6040518281019063a9059cbb60e01b8252866024820152856044820152604481526106b9606482611460565b519082855af115610429575f513d6107455750803b155b6107335782817ffb475a842bad10d3800b61bd1a92e716051afba979b124b583bd99a2d1d7bfd56020604051868152a36040519182527f02f642362e744c03eb2a0db24e698da09c654158c26a1d65ef67a0224e21bd1860203093a46001600655005b635274afe760e01b5f5260045260245ffd5b600114156106d0565b60405162461bcd60e51b815260206004820152601a60248201527f496e73756666696369656e7420746f6b656e2062616c616e63650000000000006044820152606490fd5b9150506020813d6020116107c0575b816107af60209383611460565b8101031261023e5782905185610684565b3d91506107a2565b3461023e575f36600319011261023e576020600e54604051908152f35b3461023e575f36600319011261023e57602060ff600d54166040519015158152f35b3461023e57604036600319011261023e5761082d6108236113fc565b6024359033611581565b602060405160018152f35b611437565b3461023e575f36600319011261023e5760206040515f8152f35b3461023e575f36600319011261023e57602060ff600a5460081c166040519015158152f35b3461023e575f36600319011261023e576040515f6004548060011c90600181168015610972575b60208310811461095e5782855290811561093a57506001146108dc575b6103de836108d081850382611460565b604051918291826113d2565b91905060045f527f8a35acfbc15ff81a39ae7d344fd709f28e8600b4aa8c65c6b64bfe7fe36bd19b915f905b808210610920575090915081016020016108d06108c0565b919260018160209254838588010152019101909291610908565b60ff191660208086019190915291151560051b840190910191506108d090506108c0565b634e487b7160e01b5f52602260045260245ffd5b91607f16916108a3565b3461023e57604036600319011261023e57610995611412565b6004355f52600560205260405f209060018060a01b03165f52602052602060ff60405f2054166040519015158152f35b3461023e575f36600319011261023e576020600f54604051908152f35b3461023e57604036600319011261023e576109fb611428565b60243590610a07611482565b610a0f6114d8565b600a549082600b545f921515938460ff8260081c16151503610a75575b5003610a69575b610a3e576001600655005b7f5d394a4e9bd564f1a587773e5dbd3099a9e7b2fb0ecb2dbe1808ad21e9dc943e5f80a38080610497565b5081600b556001610a33565b61ff001916600885901b61ff001617600a556001925084915085610a2c565b3461023e57602036600319011261023e576001600160a01b03610ab56113fc565b165f525f602052602060405f2054604051908152f35b3461023e575f36600319011261023e576020600c54604051908152f35b3461023e575f36600319011261023e57602060ff600a54166040519015158152f35b3461023e575f36600319011261023e576008546040516001600160a01b039091168152602090f35b3461023e57604036600319011261023e57610b4b611428565b60243590610b57611482565b610b5f6114d8565b600d549082600e545f921515938460ff8216151503610bc2575b5003610bb6575b610b8b576001600655005b7f7bc6854ea2dd87a130378b485fb91a0eb3056211ee9b85cb67fabef030c073505f80a38080610497565b5081600e556001610b80565b60ff191660ff851617600d556001925084915085610b79565b3461023e57602036600319011261023e57600435610bf7611482565b335f9081527f847f481f687befb06ed3511f1a8dcef57e83007c0147ae5047583d7056170937602052604090205460ff1615610ce8573315610cd557335f525f6020528060405f2054818110610cbc57335f525f6020520360405f205580600254036002555f6040518281527fddf252ad1be2c89b69c2b068fc378daa952ba7f163c4a11628f55a4df523b3ef60203392a36040519081527f696de425f79f4a40bc6d2122ca50507f0efbeabbff86a84871b7196ab8ea8df760203392a26001600655005b63391434e360e21b5f523360045260245260445260645ffd5b634b637e8f60e11b5f525f60045260245ffd5b63e2517d3f60e01b5f52336004527f3c11d16cbaffd01df69ce1c404f6340ee057498f5f00246190ea54220576a84860245260445ffd5b3461023e57604036600319011261023e57610d386113fc565b60243590610d44611482565b335f9081527f15a28d26fa1bf736cf7edc9922607171ccb09c3c73b808e7772a3013e068a522602052604090205460ff1615610e2f576001600160a01b031690811561045a57600254818101809111610e1b576002557f30385c845b448a36257a6a1716e6ad2e1bc2cbe333cde1e69fe849ad6511adfe9060209083610e065780600254036002555b835f7fddf252ad1be2c89b69c2b068fc378daa952ba7f163c4a11628f55a4df523b3ef84604051858152a3604051908152a26001600655005b835f525f825260405f20818154019055610dcd565b634e487b7160e01b5f52601160045260245ffd5b63e2517d3f60e01b5f52336004527f9f2df0fed2c77648de5860a4cc508cd0818c85b8b8a1ab4ceeef8d981c8956a660245260445ffd5b3461023e57604036600319011261023e57610e7f611412565b336001600160a01b03821603610e9b5761055f906004356116b7565b63334bd91960e11b5f5260045ffd5b3461023e575f36600319011261023e57602060405160128152f35b3461023e57604036600319011261023e5761055f600435610ee4611412565b90610efe610555825f526005602052600160405f20015490565b61162b565b3461023e575f36600319011261023e576020600b54604051908152f35b3461023e57602036600319011261023e576020610f4b6004355f526005602052600160405f20015490565b604051908152f35b3461023e57606036600319011261023e57610f6c6113fc565b610f74611412565b6001600160a01b0382165f818152600160209081526040808320338452909152902054909260443592915f198110610fb2575b5061082d9350611581565b838110610ff15784156104475733156104345761082d945f52600160205260405f2060018060a01b0333165f526020528360405f209103905584610fa7565b8390637dc7a0d960e11b5f523360045260245260445260645ffd5b3461023e575f36600319011261023e576040517f00000000000000000000000000000000000000000000000000000000000000006001600160a01b03168152602090f35b3461023e575f36600319011261023e576020600254604051908152f35b3461023e575f36600319011261023e576007546040516001600160a01b039091168152602090f35b3461023e57604036600319011261023e576110ae6113fc565b6024359081151580920361023e576110c4611482565b6110cc6114d8565b6001600160a01b0316801561045a57805f52600960205260405f208260ff8254161515036110fb576001600655005b60ff1981541660ff84161790557fa534e7c418f24c958af1e861a7af8c6ece8f5204eb8c33685ae7e16a1c2ada425f80a3808080610497565b604036600319011261023e576004356001600160a01b0381169081900361023e57602435611160611482565b6111686114d8565b811561045a57804710611215575f80808084865af13d15611210573d67ffffffffffffffff81116111fc57604051906111ab601f8201601f191660200183611460565b81525f60203d92013e5b156111ed577ffb475a842bad10d3800b61bd1a92e716051afba979b124b583bd99a2d1d7bfd560205f92604051908152a36001600655005b63b12d13eb60e01b5f5260045ffd5b634e487b7160e01b5f52604160045260245ffd5b6111b5565b631e9acf1760e31b5f5260045ffd5b3461023e57604036600319011261023e5761123d6113fc565b602435335f52600160205260405f2060018060a01b0383165f5260205260405f205491826112af575b604080519384526020840183905261082d936001600160a01b0383169133917f3691d1a86d99355e52b689ca70a7bdf6d80763237a6aa06e5fa43964eac7244b9190a33361173b565b81156112665763f46f5c8d60e01b5f5260045ffd5b3461023e575f36600319011261023e576040515f6003548060011c90600181168015611375575b60208310811461095e5782855290811561093a5750600114611317576103de836108d081850382611460565b91905060035f527fc2575a0e9e593c00f959f8c92f12db2869c3395a3b0502d05e2516446f71f85b915f905b80821061135b575090915081016020016108d06108c0565b919260018160209254838588010152019101909291611343565b91607f16916112eb565b3461023e57602036600319011261023e576004359063ffffffff60e01b821680920361023e57602091637965db0b60e01b81149081156113c1575b5015158152f35b6301ffc9a760e01b149050836113ba565b602060409281835280519182918282860152018484015e5f828201840152601f01601f1916010190565b600435906001600160a01b038216820361023e57565b602435906001600160a01b038216820361023e57565b60043590811515820361023e57565b3461023e57604036600319011261023e576114506113fc565b50631d748ca960e31b5f5260045ffd5b90601f8019910116810190811067ffffffffffffffff8211176111fc57604052565b600260065414611493576002600655565b60405162461bcd60e51b815260206004820152601f60248201527f5265656e7472616e637947756172643a207265656e7472616e742063616c6c006044820152606490fd5b335f9081527fd8ef4509105c3edb0b04658b4528edc5ddd30ea5a81e623a2623c88db1eb54b6602052604090205460ff161561151057565b63e2517d3f60e01b5f52336004527fa49807205ce4d355092ef5a8a18f56e8913cf4a201fbe287825b095693c2177560245260445ffd5b5f81815260056020908152604080832033845290915290205460ff161561156b5750565b63e2517d3f60e01b5f523360045260245260445ffd5b6001600160a01b0316908115610cd5576001600160a01b031691821561161857815f525f60205260405f20548181106115ff57817fddf252ad1be2c89b69c2b068fc378daa952ba7f163c4a11628f55a4df523b3ef92602092855f525f84520360405f2055845f525f825260405f20818154019055604051908152a3565b8263391434e360e21b5f5260045260245260445260645ffd5b63ec442f0560e01b5f525f60045260245ffd5b5f8181526005602090815260408083206001600160a01b038616845290915290205460ff166116b1575f8181526005602090815260408083206001600160a01b0395909516808452949091528120805460ff19166001179055339291907f2f8788117e7eff1d82e926ec794901d17c78024a50270940304540a733656f0d9080a4600190565b50505f90565b5f8181526005602090815260408083206001600160a01b038616845290915290205460ff16156116b1575f8181526005602090815260408083206001600160a01b0395909516808452949091528120805460ff19169055339291907ff6391f5c32d9c69d2a47ea670b442974b53935d1edc7fd64eb21e047a839171b9080a4600190565b6001600160a01b0316908115610447576001600160a01b03169182156104345760207f8c5be1e5ebec7d5bd14f71427d1e84f3dd0314c0f7b2291e5b200ac8c7c3b92591835f526001825260405f20855f5282528060405f2055604051908152a356fea26469706673582212206f49de49c4e5b025c0219efa0e2a72e71a76e1753b77abbfa1d3b5671f35757c64736f6c634300081c0033bd79b86ffe0ab8e8776151514217cd7cacd52c909f66475c3af44e129f0b00ffd8ef4509105c3edb0b04658b4528edc5ddd30ea5a81e623a2623c88db1eb54b6a49807205ce4d355092ef5a8a18f56e8913cf4a201fbe287825b095693c21775",
			"opcodes": "PUSH1 0xA0 DUP1 PUSH1 0x40 MSTORE PUSH1 0x40 DUP2 PUSH2 0x1FB9 DUP1 CODESIZE SUB DUP1 SWAP2 PUSH2 0x1A DUP3 DUP6 PUSH2 0x6B5 JUMP JUMPDEST DUP4 CODECOPY DUP2 ADD SUB SLT PUSH2 0x406 JUMPI PUSH2 0x39 PUSH1 0x20 PUSH2 0x32 DUP4 PUSH2 0x6D8 JUMP JUMPDEST SWAP3 ADD PUSH2 0x6D8 JUMP JUMPDEST SWAP1 PUSH1 0x40 MLOAD SWAP2 PUSH2 0x49 PUSH1 0x40 DUP5 PUSH2 0x6B5 JUMP JUMPDEST PUSH1 0xB DUP4 MSTORE PUSH11 0x2BB0B6363C902A37B5B2B7 PUSH1 0xA9 SHL PUSH1 0x20 DUP5 ADD MSTORE PUSH1 0x40 MLOAD SWAP2 PUSH2 0x70 PUSH1 0x40 DUP5 PUSH2 0x6B5 JUMP JUMPDEST PUSH1 0x3 DUP4 MSTORE PUSH3 0x545747 PUSH1 0xE8 SHL PUSH1 0x20 DUP5 ADD MSTORE DUP4 MLOAD PUSH1 0x1 PUSH1 0x1 PUSH1 0x40 SHL SUB DUP2 GT PUSH2 0x5C6 JUMPI PUSH1 0x3 SLOAD PUSH1 0x1 DUP2 DUP2 SHR SWAP2 AND DUP1 ISZERO PUSH2 0x6AB JUMPI JUMPDEST PUSH1 0x20 DUP3 LT EQ PUSH2 0x5A8 JUMPI PUSH1 0x1F DUP2 GT PUSH2 0x648 JUMPI JUMPDEST POP PUSH1 0x20 SWAP5 PUSH1 0x1F DUP3 GT PUSH1 0x1 EQ PUSH2 0x5E5 JUMPI SWAP5 DUP2 SWAP3 SWAP4 SWAP5 SWAP6 PUSH0 SWAP3 PUSH2 0x5DA JUMPI JUMPDEST POP POP DUP2 PUSH1 0x1 SHL SWAP2 PUSH0 NOT SWAP1 PUSH1 0x3 SHL SHR NOT AND OR PUSH1 0x3 SSTORE JUMPDEST DUP3 MLOAD PUSH1 0x1 PUSH1 0x1 PUSH1 0x40 SHL SUB DUP2 GT PUSH2 0x5C6 JUMPI PUSH1 0x4 SLOAD PUSH1 0x1 DUP2 DUP2 SHR SWAP2 AND DUP1 ISZERO PUSH2 0x5BC JUMPI JUMPDEST PUSH1 0x20 DUP3 LT EQ PUSH2 0x5A8 JUMPI PUSH1 0x1F DUP2 GT PUSH2 0x545 JUMPI JUMPDEST POP PUSH1 0x20 PUSH1 0x1F DUP3 GT PUSH1 0x1 EQ PUSH2 0x4E2 JUMPI DUP2 SWAP3 SWAP4 SWAP5 PUSH0 SWAP3 PUSH2 0x4D7 JUMPI JUMPDEST POP POP DUP2 PUSH1 0x1 SHL SWAP2 PUSH0 NOT SWAP1 PUSH1 0x3 SHL SHR NOT AND OR PUSH1 0x4 SSTORE JUMPDEST PUSH1 0x1 PUSH1 0x6 SSTORE PUSH1 0x1E PUSH1 0xB DUP2 SWAP1 SSTORE PUSH1 0xE SSTORE PUSH1 0x1 PUSH1 0x1 PUSH1 0xA0 SHL SUB AND SWAP1 DUP2 ISZERO PUSH2 0x4C8 JUMPI PUSH1 0x1 PUSH1 0x1 PUSH1 0xA0 SHL SUB DUP2 AND ISZERO PUSH2 0x4C8 JUMPI DUP1 PUSH1 0x80 MSTORE CALLER ISZERO PUSH2 0x4B5 JUMPI PUSH1 0x2 SLOAD SWAP1 PUSH12 0x409F9CBC7C4A04C220000000 DUP3 ADD DUP1 SWAP3 GT PUSH2 0x4A1 JUMPI PUSH2 0x1F9 SWAP2 PUSH1 0x2 SSTORE CALLER PUSH0 MSTORE PUSH0 PUSH1 0x20 MSTORE PUSH1 0x40 PUSH0 KECCAK256 PUSH12 0x409F9CBC7C4A04C220000000 DUP2 SLOAD ADD SWAP1 SSTORE PUSH1 0x40 MLOAD PUSH12 0x409F9CBC7C4A04C220000000 DUP2 MSTORE PUSH0 PUSH32 0xDDF252AD1BE2C89B69C2B068FC378DAA952BA7F163C4A11628F55A4DF523B3EF PUSH1 0x20 CALLER SWAP4 LOG3 PUSH2 0x6EC JUMP JUMPDEST POP PUSH32 0x9F2DF0FED2C77648DE5860A4CC508CD0818C85B8B8A1AB4CEEEF8D981C8956A6 PUSH0 DUP2 DUP2 MSTORE PUSH1 0x5 PUSH1 0x20 MSTORE PUSH32 0x15A28D26FA1BF736CF7EDC9922607171CCB09C3C73B808E7772A3013E068A523 DUP1 SLOAD PUSH0 MLOAD PUSH1 0x20 PUSH2 0x1F99 PUSH0 CODECOPY PUSH0 MLOAD SWAP1 PUSH0 MSTORE SWAP2 DUP3 SWAP1 SSTORE SWAP1 SWAP3 SWAP1 SWAP2 PUSH0 MLOAD PUSH1 0x20 PUSH2 0x1F59 PUSH0 CODECOPY PUSH0 MLOAD SWAP1 PUSH0 MSTORE SWAP1 DUP1 LOG4 PUSH32 0x3C11D16CBAFFD01DF69CE1C404F6340EE057498F5F00246190EA54220576A848 PUSH0 DUP2 DUP2 MSTORE PUSH1 0x5 PUSH1 0x20 MSTORE PUSH32 0x847F481F687BEFB06ED3511F1A8DCEF57E83007C0147AE5047583D7056170938 DUP1 SLOAD PUSH0 MLOAD PUSH1 0x20 PUSH2 0x1F99 PUSH0 CODECOPY PUSH0 MLOAD SWAP1 PUSH0 MSTORE SWAP2 DUP3 SWAP1 SSTORE SWAP1 SWAP3 SWAP1 SWAP2 PUSH0 MLOAD PUSH1 0x20 PUSH2 0x1F59 PUSH0 CODECOPY PUSH0 MLOAD SWAP1 PUSH0 MSTORE SWAP1 DUP1 LOG4 PUSH1 0x7 DUP1 SLOAD PUSH1 0x1 PUSH1 0x1 PUSH1 0xA0 SHL SUB NOT AND DUP3 OR SWAP1 SSTORE PUSH1 0x40 MLOAD PUSH4 0xC45A0155 PUSH1 0xE0 SHL DUP2 MSTORE SWAP1 PUSH1 0x20 DUP3 PUSH1 0x4 DUP2 DUP5 GAS STATICCALL SWAP2 DUP3 ISZERO PUSH2 0x412 JUMPI PUSH0 SWAP3 PUSH2 0x460 JUMPI JUMPDEST POP PUSH1 0x20 PUSH1 0x4 SWAP2 PUSH1 0x40 MLOAD SWAP3 DUP4 DUP1 SWAP3 PUSH4 0x15AB88C9 PUSH1 0xE3 SHL DUP3 MSTORE GAS STATICCALL SWAP1 DUP2 ISZERO PUSH2 0x412 JUMPI PUSH0 SWAP2 PUSH2 0x41D JUMPI JUMPDEST POP PUSH1 0x40 MLOAD PUSH4 0x64E329CB PUSH1 0xE1 SHL DUP2 MSTORE ADDRESS PUSH1 0x4 DUP3 ADD MSTORE PUSH1 0x1 PUSH1 0x1 PUSH1 0xA0 SHL SUB SWAP2 DUP3 AND PUSH1 0x24 DUP3 ADD MSTORE SWAP2 PUSH1 0x20 SWAP2 DUP4 SWAP2 PUSH1 0x44 SWAP2 DUP4 SWAP2 PUSH0 SWAP2 AND GAS CALL SWAP1 DUP2 ISZERO PUSH2 0x412 JUMPI PUSH0 SWAP2 PUSH2 0x3D4 JUMPI JUMPDEST POP PUSH1 0x8 DUP1 SLOAD PUSH1 0x1 PUSH1 0x1 PUSH1 0xA0 SHL SUB NOT AND PUSH1 0x1 PUSH1 0x1 PUSH1 0xA0 SHL SUB SWAP3 SWAP1 SWAP3 AND SWAP2 SWAP1 SWAP2 OR SWAP1 SSTORE PUSH0 PUSH1 0xF SSTORE PUSH1 0xA DUP1 SLOAD PUSH2 0xFFFF NOT AND SWAP1 SSTORE PUSH1 0xD DUP1 SLOAD PUSH1 0xFF NOT AND SWAP1 SSTORE PUSH1 0x40 MLOAD PUSH2 0x17D4 SWAP1 DUP2 PUSH2 0x785 DUP3 CODECOPY PUSH1 0x80 MLOAD DUP2 PUSH2 0x1021 ADD MSTORE RETURN JUMPDEST SWAP1 POP PUSH1 0x20 DUP2 RETURNDATASIZE PUSH1 0x20 GT PUSH2 0x40A JUMPI JUMPDEST DUP2 PUSH2 0x3EF PUSH1 0x20 SWAP4 DUP4 PUSH2 0x6B5 JUMP JUMPDEST DUP2 ADD SUB SLT PUSH2 0x406 JUMPI PUSH2 0x400 SWAP1 PUSH2 0x6D8 JUMP JUMPDEST PUSH0 PUSH2 0x382 JUMP JUMPDEST PUSH0 DUP1 REVERT JUMPDEST RETURNDATASIZE SWAP2 POP PUSH2 0x3E2 JUMP JUMPDEST PUSH1 0x40 MLOAD RETURNDATASIZE PUSH0 DUP3 RETURNDATACOPY RETURNDATASIZE SWAP1 REVERT JUMPDEST SWAP1 POP PUSH1 0x20 DUP2 RETURNDATASIZE PUSH1 0x20 GT PUSH2 0x458 JUMPI JUMPDEST DUP2 PUSH2 0x438 PUSH1 0x20 SWAP4 DUP4 PUSH2 0x6B5 JUMP JUMPDEST DUP2 ADD SUB SLT PUSH2 0x406 JUMPI PUSH0 SWAP2 PUSH1 0x44 PUSH2 0x44F PUSH1 0x20 SWAP4 PUSH2 0x6D8 JUMP JUMPDEST SWAP3 POP POP SWAP2 PUSH2 0x340 JUMP JUMPDEST RETURNDATASIZE SWAP2 POP PUSH2 0x42B JUMP JUMPDEST SWAP1 SWAP2 POP PUSH1 0x20 DUP2 RETURNDATASIZE PUSH1 0x20 GT PUSH2 0x499 JUMPI JUMPDEST DUP2 PUSH2 0x47C PUSH1 0x20 SWAP4 DUP4 PUSH2 0x6B5 JUMP JUMPDEST DUP2 ADD SUB SLT PUSH2 0x406 JUMPI PUSH1 0x20 PUSH2 0x491 PUSH1 0x4 SWAP3 PUSH2 0x6D8 JUMP JUMPDEST SWAP3 SWAP2 POP PUSH2 0x319 JUMP JUMPDEST RETURNDATASIZE SWAP2 POP PUSH2 0x46F JUMP JUMPDEST PUSH4 0x4E487B71 PUSH1 0xE0 SHL PUSH0 MSTORE PUSH1 0x11 PUSH1 0x4 MSTORE PUSH1 0x24 PUSH0 REVERT JUMPDEST PUSH4 0xEC442F05 PUSH1 0xE0 SHL PUSH0 MSTORE PUSH0 PUSH1 0x4 MSTORE PUSH1 0x24 PUSH0 REVERT JUMPDEST PUSH4 0xF6B2911F PUSH1 0xE0 SHL PUSH0 MSTORE PUSH1 0x4 PUSH0 REVERT JUMPDEST ADD MLOAD SWAP1 POP PUSH0 DUP1 PUSH2 0x130 JUMP JUMPDEST PUSH1 0x1F NOT DUP3 AND SWAP1 PUSH1 0x4 PUSH0 MSTORE DUP1 PUSH0 KECCAK256 SWAP2 PUSH0 JUMPDEST DUP2 DUP2 LT PUSH2 0x52D JUMPI POP SWAP6 DUP4 PUSH1 0x1 SWAP6 SWAP7 SWAP8 LT PUSH2 0x515 JUMPI JUMPDEST POP POP POP DUP2 SHL ADD PUSH1 0x4 SSTORE PUSH2 0x145 JUMP JUMPDEST ADD MLOAD PUSH0 NOT PUSH1 0xF8 DUP5 PUSH1 0x3 SHL AND SHR NOT AND SWAP1 SSTORE PUSH0 DUP1 DUP1 PUSH2 0x507 JUMP JUMPDEST SWAP2 SWAP3 PUSH1 0x20 PUSH1 0x1 DUP2 SWAP3 DUP7 DUP12 ADD MLOAD DUP2 SSTORE ADD SWAP5 ADD SWAP3 ADD PUSH2 0x4F2 JUMP JUMPDEST PUSH1 0x4 PUSH0 MSTORE PUSH32 0x8A35ACFBC15FF81A39AE7D344FD709F28E8600B4AA8C65C6B64BFE7FE36BD19B PUSH1 0x1F DUP4 ADD PUSH1 0x5 SHR DUP2 ADD SWAP2 PUSH1 0x20 DUP5 LT PUSH2 0x59E JUMPI JUMPDEST PUSH1 0x1F ADD PUSH1 0x5 SHR ADD SWAP1 JUMPDEST DUP2 DUP2 LT PUSH2 0x593 JUMPI POP PUSH2 0x117 JUMP JUMPDEST PUSH0 DUP2 SSTORE PUSH1 0x1 ADD PUSH2 0x586 JUMP JUMPDEST SWAP1 SWAP2 POP DUP2 SWAP1 PUSH2 0x57D JUMP JUMPDEST PUSH4 0x4E487B71 PUSH1 0xE0 SHL PUSH0 MSTORE PUSH1 0x22 PUSH1 0x4 MSTORE PUSH1 0x24 PUSH0 REVERT JUMPDEST SWAP1 PUSH1 0x7F AND SWAP1 PUSH2 0x105 JUMP JUMPDEST PUSH4 0x4E487B71 PUSH1 0xE0 SHL PUSH0 MSTORE PUSH1 0x41 PUSH1 0x4 MSTORE PUSH1 0x24 PUSH0 REVERT JUMPDEST ADD MLOAD SWAP1 POP PUSH0 DUP1 PUSH2 0xCF JUMP JUMPDEST PUSH1 0x1F NOT DUP3 AND SWAP6 PUSH1 0x3 PUSH0 MSTORE DUP1 PUSH0 KECCAK256 SWAP2 PUSH0 JUMPDEST DUP9 DUP2 LT PUSH2 0x630 JUMPI POP DUP4 PUSH1 0x1 SWAP6 SWAP7 SWAP8 SWAP9 LT PUSH2 0x618 JUMPI JUMPDEST POP POP POP DUP2 SHL ADD PUSH1 0x3 SSTORE PUSH2 0xE4 JUMP JUMPDEST ADD MLOAD PUSH0 NOT PUSH1 0xF8 DUP5 PUSH1 0x3 SHL AND SHR NOT AND SWAP1 SSTORE PUSH0 DUP1 DUP1 PUSH2 0x60A JUMP JUMPDEST SWAP2 SWAP3 PUSH1 0x20 PUSH1 0x1 DUP2 SWAP3 DUP7 DUP6 ADD MLOAD DUP2 SSTORE ADD SWAP5 ADD SWAP3 ADD PUSH2 0x5F5 JUMP JUMPDEST PUSH1 0x3 PUSH0 MSTORE PUSH32 0xC2575A0E9E593C00F959F8C92F12DB2869C3395A3B0502D05E2516446F71F85B PUSH1 0x1F DUP4 ADD PUSH1 0x5 SHR DUP2 ADD SWAP2 PUSH1 0x20 DUP5 LT PUSH2 0x6A1 JUMPI JUMPDEST PUSH1 0x1F ADD PUSH1 0x5 SHR ADD SWAP1 JUMPDEST DUP2 DUP2 LT PUSH2 0x696 JUMPI POP PUSH2 0xB3 JUMP JUMPDEST PUSH0 DUP2 SSTORE PUSH1 0x1 ADD PUSH2 0x689 JUMP JUMPDEST SWAP1 SWAP2 POP DUP2 SWAP1 PUSH2 0x680 JUMP JUMPDEST SWAP1 PUSH1 0x7F AND SWAP1 PUSH2 0xA1 JUMP JUMPDEST PUSH1 0x1F SWAP1 SWAP2 ADD PUSH1 0x1F NOT AND DUP2 ADD SWAP1 PUSH1 0x1 PUSH1 0x1 PUSH1 0x40 SHL SUB DUP3 GT SWAP1 DUP3 LT OR PUSH2 0x5C6 JUMPI PUSH1 0x40 MSTORE JUMP JUMPDEST MLOAD SWAP1 PUSH1 0x1 PUSH1 0x1 PUSH1 0xA0 SHL SUB DUP3 AND DUP3 SUB PUSH2 0x406 JUMPI JUMP JUMPDEST PUSH1 0x1 PUSH1 0x1 PUSH1 0xA0 SHL SUB DUP2 AND PUSH0 SWAP1 DUP2 MSTORE PUSH0 MLOAD PUSH1 0x20 PUSH2 0x1F79 PUSH0 CODECOPY PUSH0 MLOAD SWAP1 PUSH0 MSTORE PUSH1 0x20 MSTORE PUSH1 0x40 SWAP1 KECCAK256 SLOAD PUSH1 0xFF AND PUSH2 0x77F JUMPI PUSH1 0x1 PUSH1 0x1 PUSH1 0xA0 SHL SUB AND PUSH0 DUP2 DUP2 MSTORE PUSH0 MLOAD PUSH1 0x20 PUSH2 0x1F79 PUSH0 CODECOPY PUSH0 MLOAD SWAP1 PUSH0 MSTORE PUSH1 0x20 MSTORE PUSH1 0x40 DUP2 KECCAK256 DUP1 SLOAD PUSH1 0xFF NOT AND PUSH1 0x1 OR SWAP1 SSTORE CALLER SWAP2 SWAP1 PUSH0 MLOAD PUSH1 0x20 PUSH2 0x1F99 PUSH0 CODECOPY PUSH0 MLOAD SWAP1 PUSH0 MSTORE SWAP1 PUSH32 0x2F8788117E7EFF1D82E926EC794901D17C78024A50270940304540A733656F0D SWAP1 DUP1 LOG4 PUSH1 0x1 SWAP1 JUMP JUMPDEST POP PUSH0 SWAP1 JUMP INVALID PUSH1 0x80 DUP1 PUSH1 0x40 MSTORE PUSH1 0x4 CALLDATASIZE LT ISZERO PUSH2 0x48 JUMPI JUMPDEST POP CALLDATASIZE ISZERO PUSH2 0x1A JUMPI PUSH0 DUP1 REVERT JUMPDEST PUSH1 0x40 MLOAD CALLVALUE DUP2 MSTORE PUSH32 0xA419615BC8FDA4C87663805EE2A3597A6D71C1D476911D9892F340D965BC7BF1 PUSH1 0x20 CALLER SWAP3 LOG2 STOP JUMPDEST PUSH0 CALLDATALOAD PUSH1 0xE0 SHR SWAP1 DUP2 PUSH4 0x1FFC9A7 EQ PUSH2 0x137F JUMPI POP DUP1 PUSH4 0x6FDDE03 EQ PUSH2 0x12C4 JUMPI DUP1 PUSH4 0x95EA7B3 EQ PUSH2 0x1224 JUMPI DUP1 PUSH4 0x99A04E5 EQ PUSH2 0x1134 JUMPI DUP1 PUSH4 0x153B0D1E EQ PUSH2 0x1095 JUMPI DUP1 PUSH4 0x1694505E EQ PUSH2 0x106D JUMPI DUP1 PUSH4 0x18160DDD EQ PUSH2 0x1050 JUMPI DUP1 PUSH4 0x2131C68C EQ PUSH2 0x100C JUMPI DUP1 PUSH4 0x23B872DD EQ PUSH2 0xF53 JUMPI DUP1 PUSH4 0x248A9CA3 EQ PUSH2 0xF20 JUMPI DUP1 PUSH4 0x2618F214 EQ PUSH2 0xF03 JUMPI DUP1 PUSH4 0x2F2FF15D EQ PUSH2 0xEC5 JUMPI DUP1 PUSH4 0x313CE567 EQ PUSH2 0xEAA JUMPI DUP1 PUSH4 0x36568ABE EQ PUSH2 0xE66 JUMPI DUP1 PUSH4 0x39509351 EQ PUSH2 0x838 JUMPI DUP1 PUSH4 0x40C10F19 EQ PUSH2 0xD1F JUMPI DUP1 PUSH4 0x42966C68 EQ PUSH2 0xBDB JUMPI DUP1 PUSH4 0x48FCA59D EQ PUSH2 0xB32 JUMPI DUP1 PUSH4 0x49BD5A5E EQ PUSH2 0xB0A JUMPI DUP1 PUSH4 0x4ADA218B EQ PUSH2 0xAE8 JUMPI DUP1 PUSH4 0x65CF7C9B EQ PUSH2 0xACB JUMPI DUP1 PUSH4 0x70A08231 EQ PUSH2 0xA94 JUMPI DUP1 PUSH4 0x89900603 EQ PUSH2 0x9E2 JUMPI DUP1 PUSH4 0x8C0B5E22 EQ PUSH2 0x9C5 JUMPI DUP1 PUSH4 0x91D14854 EQ PUSH2 0x97C JUMPI DUP1 PUSH4 0x95D89B41 EQ PUSH2 0x87C JUMPI DUP1 PUSH4 0x963472F9 EQ PUSH2 0x857 JUMPI DUP1 PUSH4 0xA217FDDF EQ PUSH2 0x83D JUMPI DUP1 PUSH4 0xA457C2D7 EQ PUSH2 0x838 JUMPI DUP1 PUSH4 0xA9059CBB EQ PUSH2 0x807 JUMPI DUP1 PUSH4 0xA985CEEF EQ PUSH2 0x7E5 JUMPI DUP1 PUSH4 0xB319C6B7 EQ PUSH2 0x7C8 JUMPI DUP1 PUSH4 0xB37FD190 EQ PUSH2 0x602 JUMPI DUP1 PUSH4 0xC2E5EC04 EQ PUSH2 0x561 JUMPI DUP1 PUSH4 0xD547741F EQ PUSH2 0x51C JUMPI DUP1 PUSH4 0xDD62ED3E EQ PUSH2 0x4CC JUMPI DUP1 PUSH4 0xEC28438A EQ PUSH2 0x469 JUMPI DUP1 PUSH4 0xF6F1E306 EQ PUSH2 0x242 JUMPI PUSH4 0xFE575A87 EQ PUSH2 0x201 JUMPI PUSH0 PUSH2 0xF JUMP JUMPDEST CALLVALUE PUSH2 0x23E JUMPI PUSH1 0x20 CALLDATASIZE PUSH1 0x3 NOT ADD SLT PUSH2 0x23E JUMPI PUSH1 0x1 PUSH1 0x1 PUSH1 0xA0 SHL SUB PUSH2 0x222 PUSH2 0x13FC JUMP JUMPDEST AND PUSH0 MSTORE PUSH1 0x9 PUSH1 0x20 MSTORE PUSH1 0x20 PUSH1 0xFF PUSH1 0x40 PUSH0 KECCAK256 SLOAD AND PUSH1 0x40 MLOAD SWAP1 ISZERO ISZERO DUP2 MSTORE RETURN JUMPDEST PUSH0 DUP1 REVERT JUMPDEST PUSH1 0xA0 CALLDATASIZE PUSH1 0x3 NOT ADD SLT PUSH2 0x23E JUMPI PUSH2 0x256 PUSH2 0x13FC JUMP JUMPDEST PUSH1 0x24 CALLDATALOAD SWAP1 PUSH2 0x262 PUSH2 0x1482 JUMP JUMPDEST PUSH2 0x26A PUSH2 0x14D8 JUMP JUMPDEST PUSH1 0x1 PUSH1 0x1 PUSH1 0xA0 SHL SUB AND DUP1 ISZERO PUSH2 0x45A JUMPI DUP1 PUSH1 0x40 MLOAD DUP4 DUP2 MSTORE CALLVALUE PUSH1 0x20 DUP3 ADD MSTORE PUSH32 0x407E9458C121455467AD277A21812C883F5D67EE0020A7B7A3EA0007A6639183 PUSH1 0x40 CALLER SWAP3 LOG3 PUSH1 0x7 SLOAD PUSH1 0x1 PUSH1 0x1 PUSH1 0xA0 SHL SUB AND SWAP2 ADDRESS ISZERO PUSH2 0x447 JUMPI DUP3 ISZERO PUSH2 0x434 JUMPI PUSH1 0x60 SWAP1 ADDRESS PUSH0 MSTORE PUSH1 0x1 PUSH1 0x20 MSTORE PUSH1 0x40 PUSH0 KECCAK256 PUSH1 0x1 DUP1 PUSH1 0xA0 SHL SUB DUP6 AND PUSH0 MSTORE PUSH1 0x20 MSTORE PUSH0 PUSH1 0x40 DUP2 KECCAK256 SSTORE DUP4 PUSH1 0x40 MLOAD PUSH0 DUP2 MSTORE PUSH32 0x8C5BE1E5EBEC7D5BD14F71427D1E84F3DD0314C0F7B2291E5B200AC8C7C3B925 PUSH1 0x20 ADDRESS SWAP3 LOG3 PUSH2 0x320 DUP2 DUP6 ADDRESS PUSH2 0x173B JUMP JUMPDEST PUSH1 0xC4 PUSH1 0x40 MLOAD DUP1 SWAP6 DUP2 SWAP4 PUSH4 0xF305D719 PUSH1 0xE0 SHL DUP4 MSTORE ADDRESS PUSH1 0x4 DUP5 ADD MSTORE PUSH1 0x24 DUP4 ADD MSTORE PUSH1 0x44 CALLDATALOAD PUSH1 0x44 DUP4 ADD MSTORE PUSH1 0x64 CALLDATALOAD PUSH1 0x64 DUP4 ADD MSTORE DUP6 PUSH1 0x84 DUP4 ADD MSTORE PUSH1 0x84 CALLDATALOAD PUSH1 0xA4 DUP4 ADD MSTORE CALLVALUE SWAP1 GAS CALL DUP1 ISZERO PUSH2 0x429 JUMPI PUSH0 SWAP2 PUSH0 SWAP4 PUSH0 SWAP3 PUSH2 0x3E2 JUMPI JUMPDEST POP SWAP1 PUSH2 0x3DE SWAP2 PUSH32 0x64B83944E79C3CE8D4C297411DE637C3E102D064677AAC0C163976EBDCD6F50E PUSH1 0x40 MLOAD DUP1 PUSH2 0x3B9 DUP6 DUP10 DUP10 DUP5 PUSH1 0x40 SWAP2 SWAP5 SWAP4 SWAP3 PUSH1 0x60 DUP3 ADD SWAP6 DUP3 MSTORE PUSH1 0x20 DUP3 ADD MSTORE ADD MSTORE JUMP JUMPDEST SUB SWAP1 LOG2 PUSH1 0x1 PUSH1 0x6 SSTORE PUSH1 0x40 MLOAD SWAP4 DUP5 SWAP4 DUP5 PUSH1 0x40 SWAP2 SWAP5 SWAP4 SWAP3 PUSH1 0x60 DUP3 ADD SWAP6 DUP3 MSTORE PUSH1 0x20 DUP3 ADD MSTORE ADD MSTORE JUMP JUMPDEST SUB SWAP1 RETURN JUMPDEST SWAP3 POP SWAP3 POP POP PUSH1 0x60 DUP2 RETURNDATASIZE PUSH1 0x60 GT PUSH2 0x421 JUMPI JUMPDEST DUP2 PUSH2 0x400 PUSH1 0x60 SWAP4 DUP4 PUSH2 0x1460 JUMP JUMPDEST DUP2 ADD SUB SLT PUSH2 0x23E JUMPI PUSH2 0x3DE DUP2 MLOAD SWAP3 PUSH1 0x40 PUSH1 0x20 DUP5 ADD MLOAD SWAP4 ADD MLOAD SWAP4 SWAP3 SWAP4 SWAP2 PUSH2 0x371 JUMP JUMPDEST RETURNDATASIZE SWAP2 POP PUSH2 0x3F3 JUMP JUMPDEST PUSH1 0x40 MLOAD RETURNDATASIZE PUSH0 DUP3 RETURNDATACOPY RETURNDATASIZE SWAP1 REVERT JUMPDEST PUSH4 0x4A1406B1 PUSH1 0xE1 SHL PUSH0 MSTORE PUSH0 PUSH1 0x4 MSTORE PUSH1 0x24 PUSH0 REVERT JUMPDEST PUSH4 0xE602DF05 PUSH1 0xE0 SHL PUSH0 MSTORE PUSH0 PUSH1 0x4 MSTORE PUSH1 0x24 PUSH0 REVERT JUMPDEST PUSH4 0xF6B2911F PUSH1 0xE0 SHL PUSH0 MSTORE PUSH1 0x4 PUSH0 REVERT JUMPDEST CALLVALUE PUSH2 0x23E JUMPI PUSH1 0x20 CALLDATASIZE PUSH1 0x3 NOT ADD SLT PUSH2 0x23E JUMPI PUSH1 0x4 CALLDATALOAD PUSH2 0x485 PUSH2 0x1482 JUMP JUMPDEST PUSH2 0x48D PUSH2 0x14D8 JUMP JUMPDEST DUP1 PUSH1 0xF SLOAD SUB PUSH2 0x49E JUMPI JUMPDEST PUSH1 0x1 PUSH1 0x6 SSTORE STOP JUMPDEST DUP1 PUSH1 0xF SSTORE PUSH32 0xD6A912222A539EFF01EB7E23CD954E57C4AE962622948839FEFBC46B0FFE914A PUSH0 DUP1 LOG2 DUP1 PUSH2 0x497 JUMP JUMPDEST CALLVALUE PUSH2 0x23E JUMPI PUSH1 0x40 CALLDATASIZE PUSH1 0x3 NOT ADD SLT PUSH2 0x23E JUMPI PUSH2 0x4E5 PUSH2 0x13FC JUMP JUMPDEST PUSH2 0x4ED PUSH2 0x1412 JUMP JUMPDEST PUSH1 0x1 PUSH1 0x1 PUSH1 0xA0 SHL SUB SWAP2 DUP3 AND PUSH0 SWAP1 DUP2 MSTORE PUSH1 0x1 PUSH1 0x20 SWAP1 DUP2 MSTORE PUSH1 0x40 DUP1 DUP4 KECCAK256 SWAP5 SWAP1 SWAP4 AND DUP3 MSTORE SWAP3 DUP4 MSTORE DUP2 SWAP1 KECCAK256 SLOAD SWAP1 MLOAD SWAP1 DUP2 MSTORE RETURN JUMPDEST CALLVALUE PUSH2 0x23E JUMPI PUSH1 0x40 CALLDATASIZE PUSH1 0x3 NOT ADD SLT PUSH2 0x23E JUMPI PUSH2 0x55F PUSH1 0x4 CALLDATALOAD PUSH2 0x53B PUSH2 0x1412 JUMP JUMPDEST SWAP1 PUSH2 0x55A PUSH2 0x555 DUP3 PUSH0 MSTORE PUSH1 0x5 PUSH1 0x20 MSTORE PUSH1 0x1 PUSH1 0x40 PUSH0 KECCAK256 ADD SLOAD SWAP1 JUMP JUMPDEST PUSH2 0x1547 JUMP JUMPDEST PUSH2 0x16B7 JUMP JUMPDEST STOP JUMPDEST CALLVALUE PUSH2 0x23E JUMPI PUSH1 0x20 CALLDATASIZE PUSH1 0x3 NOT ADD SLT PUSH2 0x23E JUMPI PUSH2 0x57A PUSH2 0x1428 JUMP JUMPDEST PUSH2 0x582 PUSH2 0x1482 JUMP JUMPDEST PUSH2 0x58A PUSH2 0x14D8 JUMP JUMPDEST PUSH1 0xA SLOAD DUP2 ISZERO ISZERO SWAP1 DUP2 PUSH1 0xFF DUP3 AND ISZERO ISZERO SUB PUSH2 0x5A4 JUMPI PUSH1 0x1 PUSH1 0x6 SSTORE STOP JUMPDEST PUSH1 0xFF NOT AND PUSH1 0xFF DUP3 AND OR PUSH1 0xA DUP2 SWAP1 SSTORE SWAP1 PUSH32 0x6E552CEEE9488E9332DE4530EB91788E818D00E6CCFB1F2968CB4325924E0611 PUSH0 DUP1 LOG2 DUP2 PUSH2 0x5F4 JUMPI JUMPDEST POP PUSH2 0x5EB JUMPI JUMPDEST DUP1 DUP1 DUP1 PUSH2 0x497 JUMP JUMPDEST TIMESTAMP PUSH1 0xC SSTORE PUSH2 0x5E3 JUMP JUMPDEST PUSH1 0xFF SWAP2 POP PUSH1 0x8 SHR AND DUP2 PUSH2 0x5DD JUMP JUMPDEST CALLVALUE PUSH2 0x23E JUMPI PUSH1 0x60 CALLDATASIZE PUSH1 0x3 NOT ADD SLT PUSH2 0x23E JUMPI PUSH2 0x61B PUSH2 0x13FC JUMP JUMPDEST PUSH1 0x44 CALLDATALOAD PUSH1 0x1 PUSH1 0x1 PUSH1 0xA0 SHL SUB DUP2 AND SWAP2 PUSH1 0x24 CALLDATALOAD SWAP2 DUP4 SWAP1 SUB PUSH2 0x23E JUMPI PUSH2 0x63C PUSH2 0x1482 JUMP JUMPDEST PUSH2 0x644 PUSH2 0x14D8 JUMP JUMPDEST PUSH1 0x1 PUSH1 0x1 PUSH1 0xA0 SHL SUB AND DUP1 ISZERO PUSH2 0x45A JUMPI DUP3 ISZERO PUSH2 0x45A JUMPI PUSH1 0x40 MLOAD PUSH4 0x70A08231 PUSH1 0xE0 SHL DUP2 MSTORE ADDRESS PUSH1 0x4 DUP3 ADD MSTORE PUSH1 0x20 DUP2 PUSH1 0x24 DUP2 DUP6 GAS STATICCALL DUP1 ISZERO PUSH2 0x429 JUMPI DUP4 SWAP2 PUSH0 SWAP2 PUSH2 0x793 JUMPI JUMPDEST POP LT PUSH2 0x74E JUMPI PUSH1 0x20 PUSH0 PUSH1 0x40 MLOAD DUP3 DUP2 ADD SWAP1 PUSH4 0xA9059CBB PUSH1 0xE0 SHL DUP3 MSTORE DUP7 PUSH1 0x24 DUP3 ADD MSTORE DUP6 PUSH1 0x44 DUP3 ADD MSTORE PUSH1 0x44 DUP2 MSTORE PUSH2 0x6B9 PUSH1 0x64 DUP3 PUSH2 0x1460 JUMP JUMPDEST MLOAD SWAP1 DUP3 DUP6 GAS CALL ISZERO PUSH2 0x429 JUMPI PUSH0 MLOAD RETURNDATASIZE PUSH2 0x745 JUMPI POP DUP1 EXTCODESIZE ISZERO JUMPDEST PUSH2 0x733 JUMPI DUP3 DUP2 PUSH32 0xFB475A842BAD10D3800B61BD1A92E716051AFBA979B124B583BD99A2D1D7BFD5 PUSH1 0x20 PUSH1 0x40 MLOAD DUP7 DUP2 MSTORE LOG3 PUSH1 0x40 MLOAD SWAP2 DUP3 MSTORE PUSH32 0x2F642362E744C03EB2A0DB24E698DA09C654158C26A1D65EF67A0224E21BD18 PUSH1 0x20 ADDRESS SWAP4 LOG4 PUSH1 0x1 PUSH1 0x6 SSTORE STOP JUMPDEST PUSH4 0x5274AFE7 PUSH1 0xE0 SHL PUSH0 MSTORE PUSH1 0x4 MSTORE PUSH1 0x24 PUSH0 REVERT JUMPDEST PUSH1 0x1 EQ ISZERO PUSH2 0x6D0 JUMP JUMPDEST PUSH1 0x40 MLOAD PUSH3 0x461BCD PUSH1 0xE5 SHL DUP2 MSTORE PUSH1 0x20 PUSH1 0x4 DUP3 ADD MSTORE PUSH1 0x1A PUSH1 0x24 DUP3 ADD MSTORE PUSH32 0x496E73756666696369656E7420746F6B656E2062616C616E6365000000000000 PUSH1 0x44 DUP3 ADD MSTORE PUSH1 0x64 SWAP1 REVERT JUMPDEST SWAP2 POP POP PUSH1 0x20 DUP2 RETURNDATASIZE PUSH1 0x20 GT PUSH2 0x7C0 JUMPI JUMPDEST DUP2 PUSH2 0x7AF PUSH1 0x20 SWAP4 DUP4 PUSH2 0x1460 JUMP JUMPDEST DUP2 ADD SUB SLT PUSH2 0x23E JUMPI DUP3 SWAP1 MLOAD DUP6 PUSH2 0x684 JUMP JUMPDEST RETURNDATASIZE SWAP2 POP PUSH2 0x7A2 JUMP JUMPDEST CALLVALUE PUSH2 0x23E JUMPI PUSH0 CALLDATASIZE PUSH1 0x3 NOT ADD SLT PUSH2 0x23E JUMPI PUSH1 0x20 PUSH1 0xE SLOAD PUSH1 0x40 MLOAD SWAP1 DUP2 MSTORE RETURN JUMPDEST CALLVALUE PUSH2 0x23E JUMPI PUSH0 CALLDATASIZE PUSH1 0x3 NOT ADD SLT PUSH2 0x23E JUMPI PUSH1 0x20 PUSH1 0xFF PUSH1 0xD SLOAD AND PUSH1 0x40 MLOAD SWAP1 ISZERO ISZERO DUP2 MSTORE RETURN JUMPDEST CALLVALUE PUSH2 0x23E JUMPI PUSH1 0x40 CALLDATASIZE PUSH1 0x3 NOT ADD SLT PUSH2 0x23E JUMPI PUSH2 0x82D PUSH2 0x823 PUSH2 0x13FC JUMP JUMPDEST PUSH1 0x24 CALLDATALOAD SWAP1 CALLER PUSH2 0x1581 JUMP JUMPDEST PUSH1 0x20 PUSH1 0x40 MLOAD PUSH1 0x1 DUP2 MSTORE RETURN JUMPDEST PUSH2 0x1437 JUMP JUMPDEST CALLVALUE PUSH2 0x23E JUMPI PUSH0 CALLDATASIZE PUSH1 0x3 NOT ADD SLT PUSH2 0x23E JUMPI PUSH1 0x20 PUSH1 0x40 MLOAD PUSH0 DUP2 MSTORE RETURN JUMPDEST CALLVALUE PUSH2 0x23E JUMPI PUSH0 CALLDATASIZE PUSH1 0x3 NOT ADD SLT PUSH2 0x23E JUMPI PUSH1 0x20 PUSH1 0xFF PUSH1 0xA SLOAD PUSH1 0x8 SHR AND PUSH1 0x40 MLOAD SWAP1 ISZERO ISZERO DUP2 MSTORE RETURN JUMPDEST CALLVALUE PUSH2 0x23E JUMPI PUSH0 CALLDATASIZE PUSH1 0x3 NOT ADD SLT PUSH2 0x23E JUMPI PUSH1 0x40 MLOAD PUSH0 PUSH1 0x4 SLOAD DUP1 PUSH1 0x1 SHR SWAP1 PUSH1 0x1 DUP2 AND DUP1 ISZERO PUSH2 0x972 JUMPI JUMPDEST PUSH1 0x20 DUP4 LT DUP2 EQ PUSH2 0x95E JUMPI DUP3 DUP6 MSTORE SWAP1 DUP2 ISZERO PUSH2 0x93A JUMPI POP PUSH1 0x1 EQ PUSH2 0x8DC JUMPI JUMPDEST PUSH2 0x3DE DUP4 PUSH2 0x8D0 DUP2 DUP6 SUB DUP3 PUSH2 0x1460 JUMP JUMPDEST PUSH1 0x40 MLOAD SWAP2 DUP3 SWAP2 DUP3 PUSH2 0x13D2 JUMP JUMPDEST SWAP2 SWAP1 POP PUSH1 0x4 PUSH0 MSTORE PUSH32 0x8A35ACFBC15FF81A39AE7D344FD709F28E8600B4AA8C65C6B64BFE7FE36BD19B SWAP2 PUSH0 SWAP1 JUMPDEST DUP1 DUP3 LT PUSH2 0x920 JUMPI POP SWAP1 SWAP2 POP DUP2 ADD PUSH1 0x20 ADD PUSH2 0x8D0 PUSH2 0x8C0 JUMP JUMPDEST SWAP2 SWAP3 PUSH1 0x1 DUP2 PUSH1 0x20 SWAP3 SLOAD DUP4 DUP6 DUP9 ADD ADD MSTORE ADD SWAP2 ADD SWAP1 SWAP3 SWAP2 PUSH2 0x908 JUMP JUMPDEST PUSH1 0xFF NOT AND PUSH1 0x20 DUP1 DUP7 ADD SWAP2 SWAP1 SWAP2 MSTORE SWAP2 ISZERO ISZERO PUSH1 0x5 SHL DUP5 ADD SWAP1 SWAP2 ADD SWAP2 POP PUSH2 0x8D0 SWAP1 POP PUSH2 0x8C0 JUMP JUMPDEST PUSH4 0x4E487B71 PUSH1 0xE0 SHL PUSH0 MSTORE PUSH1 0x22 PUSH1 0x4 MSTORE PUSH1 0x24 PUSH0 REVERT JUMPDEST SWAP2 PUSH1 0x7F AND SWAP2 PUSH2 0x8A3 JUMP JUMPDEST CALLVALUE PUSH2 0x23E JUMPI PUSH1 0x40 CALLDATASIZE PUSH1 0x3 NOT ADD SLT PUSH2 0x23E JUMPI PUSH2 0x995 PUSH2 0x1412 JUMP JUMPDEST PUSH1 0x4 CALLDATALOAD PUSH0 MSTORE PUSH1 0x5 PUSH1 0x20 MSTORE PUSH1 0x40 PUSH0 KECCAK256 SWAP1 PUSH1 0x1 DUP1 PUSH1 0xA0 SHL SUB AND PUSH0 MSTORE PUSH1 0x20 MSTORE PUSH1 0x20 PUSH1 0xFF PUSH1 0x40 PUSH0 KECCAK256 SLOAD AND PUSH1 0x40 MLOAD SWAP1 ISZERO ISZERO DUP2 MSTORE RETURN JUMPDEST CALLVALUE PUSH2 0x23E JUMPI PUSH0 CALLDATASIZE PUSH1 0x3 NOT ADD SLT PUSH2 0x23E JUMPI PUSH1 0x20 PUSH1 0xF SLOAD PUSH1 0x40 MLOAD SWAP1 DUP2 MSTORE RETURN JUMPDEST CALLVALUE PUSH2 0x23E JUMPI PUSH1 0x40 CALLDATASIZE PUSH1 0x3 NOT ADD SLT PUSH2 0x23E JUMPI PUSH2 0x9FB PUSH2 0x1428 JUMP JUMPDEST PUSH1 0x24 CALLDATALOAD SWAP1 PUSH2 0xA07 PUSH2 0x1482 JUMP JUMPDEST PUSH2 0xA0F PUSH2 0x14D8 JUMP JUMPDEST PUSH1 0xA SLOAD SWAP1 DUP3 PUSH1 0xB SLOAD PUSH0 SWAP3 ISZERO ISZERO SWAP4 DUP5 PUSH1 0xFF DUP3 PUSH1 0x8 SHR AND ISZERO ISZERO SUB PUSH2 0xA75 JUMPI JUMPDEST POP SUB PUSH2 0xA69 JUMPI JUMPDEST PUSH2 0xA3E JUMPI PUSH1 0x1 PUSH1 0x6 SSTORE STOP JUMPDEST PUSH32 0x5D394A4E9BD564F1A587773E5DBD3099A9E7B2FB0ECB2DBE1808AD21E9DC943E PUSH0 DUP1 LOG3 DUP1 DUP1 PUSH2 0x497 JUMP JUMPDEST POP DUP2 PUSH1 0xB SSTORE PUSH1 0x1 PUSH2 0xA33 JUMP JUMPDEST PUSH2 0xFF00 NOT AND PUSH1 0x8 DUP6 SWAP1 SHL PUSH2 0xFF00 AND OR PUSH1 0xA SSTORE PUSH1 0x1 SWAP3 POP DUP5 SWAP2 POP DUP6 PUSH2 0xA2C JUMP JUMPDEST CALLVALUE PUSH2 0x23E JUMPI PUSH1 0x20 CALLDATASIZE PUSH1 0x3 NOT ADD SLT PUSH2 0x23E JUMPI PUSH1 0x1 PUSH1 0x1 PUSH1 0xA0 SHL SUB PUSH2 0xAB5 PUSH2 0x13FC JUMP JUMPDEST AND PUSH0 MSTORE PUSH0 PUSH1 0x20 MSTORE PUSH1 0x20 PUSH1 0x40 PUSH0 KECCAK256 SLOAD PUSH1 0x40 MLOAD SWAP1 DUP2 MSTORE RETURN JUMPDEST CALLVALUE PUSH2 0x23E JUMPI PUSH0 CALLDATASIZE PUSH1 0x3 NOT ADD SLT PUSH2 0x23E JUMPI PUSH1 0x20 PUSH1 0xC SLOAD PUSH1 0x40 MLOAD SWAP1 DUP2 MSTORE RETURN JUMPDEST CALLVALUE PUSH2 0x23E JUMPI PUSH0 CALLDATASIZE PUSH1 0x3 NOT ADD SLT PUSH2 0x23E JUMPI PUSH1 0x20 PUSH1 0xFF PUSH1 0xA SLOAD AND PUSH1 0x40 MLOAD SWAP1 ISZERO ISZERO DUP2 MSTORE RETURN JUMPDEST CALLVALUE PUSH2 0x23E JUMPI PUSH0 CALLDATASIZE PUSH1 0x3 NOT ADD SLT PUSH2 0x23E JUMPI PUSH1 0x8 SLOAD PUSH1 0x40 MLOAD PUSH1 0x1 PUSH1 0x1 PUSH1 0xA0 SHL SUB SWAP1 SWAP2 AND DUP2 MSTORE PUSH1 0x20 SWAP1 RETURN JUMPDEST CALLVALUE PUSH2 0x23E JUMPI PUSH1 0x40 CALLDATASIZE PUSH1 0x3 NOT ADD SLT PUSH2 0x23E JUMPI PUSH2 0xB4B PUSH2 0x1428 JUMP JUMPDEST PUSH1 0x24 CALLDATALOAD SWAP1 PUSH2 0xB57 PUSH2 0x1482 JUMP JUMPDEST PUSH2 0xB5F PUSH2 0x14D8 JUMP JUMPDEST PUSH1 0xD SLOAD SWAP1 DUP3 PUSH1 0xE SLOAD PUSH0 SWAP3 ISZERO ISZERO SWAP4 DUP5 PUSH1 0xFF DUP3 AND ISZERO ISZERO SUB PUSH2 0xBC2 JUMPI JUMPDEST POP SUB PUSH2 0xBB6 JUMPI JUMPDEST PUSH2 0xB8B JUMPI PUSH1 0x1 PUSH1 0x6 SSTORE STOP JUMPDEST PUSH32 0x7BC6854EA2DD87A130378B485FB91A0EB3056211EE9B85CB67FABEF030C07350 PUSH0 DUP1 LOG3 DUP1 DUP1 PUSH2 0x497 JUMP JUMPDEST POP DUP2 PUSH1 0xE SSTORE PUSH1 0x1 PUSH2 0xB80 JUMP JUMPDEST PUSH1 0xFF NOT AND PUSH1 0xFF DUP6 AND OR PUSH1 0xD SSTORE PUSH1 0x1 SWAP3 POP DUP5 SWAP2 POP DUP6 PUSH2 0xB79 JUMP JUMPDEST CALLVALUE PUSH2 0x23E JUMPI PUSH1 0x20 CALLDATASIZE PUSH1 0x3 NOT ADD SLT PUSH2 0x23E JUMPI PUSH1 0x4 CALLDATALOAD PUSH2 0xBF7 PUSH2 0x1482 JUMP JUMPDEST CALLER PUSH0 SWAP1 DUP2 MSTORE PUSH32 0x847F481F687BEFB06ED3511F1A8DCEF57E83007C0147AE5047583D7056170937 PUSH1 0x20 MSTORE PUSH1 0x40 SWAP1 KECCAK256 SLOAD PUSH1 0xFF AND ISZERO PUSH2 0xCE8 JUMPI CALLER ISZERO PUSH2 0xCD5 JUMPI CALLER PUSH0 MSTORE PUSH0 PUSH1 0x20 MSTORE DUP1 PUSH1 0x40 PUSH0 KECCAK256 SLOAD DUP2 DUP2 LT PUSH2 0xCBC JUMPI CALLER PUSH0 MSTORE PUSH0 PUSH1 0x20 MSTORE SUB PUSH1 0x40 PUSH0 KECCAK256 SSTORE DUP1 PUSH1 0x2 SLOAD SUB PUSH1 0x2 SSTORE PUSH0 PUSH1 0x40 MLOAD DUP3 DUP2 MSTORE PUSH32 0xDDF252AD1BE2C89B69C2B068FC378DAA952BA7F163C4A11628F55A4DF523B3EF PUSH1 0x20 CALLER SWAP3 LOG3 PUSH1 0x40 MLOAD SWAP1 DUP2 MSTORE PUSH32 0x696DE425F79F4A40BC6D2122CA50507F0EFBEABBFF86A84871B7196AB8EA8DF7 PUSH1 0x20 CALLER SWAP3 LOG2 PUSH1 0x1 PUSH1 0x6 SSTORE STOP JUMPDEST PUSH4 0x391434E3 PUSH1 0xE2 SHL PUSH0 MSTORE CALLER PUSH1 0x4 MSTORE PUSH1 0x24 MSTORE PUSH1 0x44 MSTORE PUSH1 0x64 PUSH0 REVERT JUMPDEST PUSH4 0x4B637E8F PUSH1 0xE1 SHL PUSH0 MSTORE PUSH0 PUSH1 0x4 MSTORE PUSH1 0x24 PUSH0 REVERT JUMPDEST PUSH4 0xE2517D3F PUSH1 0xE0 SHL PUSH0 MSTORE CALLER PUSH1 0x4 MSTORE PUSH32 0x3C11D16CBAFFD01DF69CE1C404F6340EE057498F5F00246190EA54220576A848 PUSH1 0x24 MSTORE PUSH1 0x44 PUSH0 REVERT JUMPDEST CALLVALUE PUSH2 0x23E JUMPI PUSH1 0x40 CALLDATASIZE PUSH1 0x3 NOT ADD SLT PUSH2 0x23E JUMPI PUSH2 0xD38 PUSH2 0x13FC JUMP JUMPDEST PUSH1 0x24 CALLDATALOAD SWAP1 PUSH2 0xD44 PUSH2 0x1482 JUMP JUMPDEST CALLER PUSH0 SWAP1 DUP2 MSTORE PUSH32 0x15A28D26FA1BF736CF7EDC9922607171CCB09C3C73B808E7772A3013E068A522 PUSH1 0x20 MSTORE PUSH1 0x40 SWAP1 KECCAK256 SLOAD PUSH1 0xFF AND ISZERO PUSH2 0xE2F JUMPI PUSH1 0x1 PUSH1 0x1 PUSH1 0xA0 SHL SUB AND SWAP1 DUP2 ISZERO PUSH2 0x45A JUMPI PUSH1 0x2 SLOAD DUP2 DUP2 ADD DUP1 SWAP2 GT PUSH2 0xE1B JUMPI PUSH1 0x2 SSTORE PUSH32 0x30385C845B448A36257A6A1716E6AD2E1BC2CBE333CDE1E69FE849AD6511ADFE SWAP1 PUSH1 0x20 SWAP1 DUP4 PUSH2 0xE06 JUMPI DUP1 PUSH1 0x2 SLOAD SUB PUSH1 0x2 SSTORE JUMPDEST DUP4 PUSH0 PUSH32 0xDDF252AD1BE2C89B69C2B068FC378DAA952BA7F163C4A11628F55A4DF523B3EF DUP5 PUSH1 0x40 MLOAD DUP6 DUP2 MSTORE LOG3 PUSH1 0x40 MLOAD SWAP1 DUP2 MSTORE LOG2 PUSH1 0x1 PUSH1 0x6 SSTORE STOP JUMPDEST DUP4 PUSH0 MSTORE PUSH0 DUP3 MSTORE PUSH1 0x40 PUSH0 KECCAK256 DUP2 DUP2 SLOAD ADD SWAP1 SSTORE PUSH2 0xDCD JUMP JUMPDEST PUSH4 0x4E487B71 PUSH1 0xE0 SHL PUSH0 MSTORE PUSH1 0x11 PUSH1 0x4 MSTORE PUSH1 0x24 PUSH0 REVERT JUMPDEST PUSH4 0xE2517D3F PUSH1 0xE0 SHL PUSH0 MSTORE CALLER PUSH1 0x4 MSTORE PUSH32 0x9F2DF0FED2C77648DE5860A4CC508CD0818C85B8B8A1AB4CEEEF8D981C8956A6 PUSH1 0x24 MSTORE PUSH1 0x44 PUSH0 REVERT JUMPDEST CALLVALUE PUSH2 0x23E JUMPI PUSH1 0x40 CALLDATASIZE PUSH1 0x3 NOT ADD SLT PUSH2 0x23E JUMPI PUSH2 0xE7F PUSH2 0x1412 JUMP JUMPDEST CALLER PUSH1 0x1 PUSH1 0x1 PUSH1 0xA0 SHL SUB DUP3 AND SUB PUSH2 0xE9B JUMPI PUSH2 0x55F SWAP1 PUSH1 0x4 CALLDATALOAD PUSH2 0x16B7 JUMP JUMPDEST PUSH4 0x334BD919 PUSH1 0xE1 SHL PUSH0 MSTORE PUSH1 0x4 PUSH0 REVERT JUMPDEST CALLVALUE PUSH2 0x23E JUMPI PUSH0 CALLDATASIZE PUSH1 0x3 NOT ADD SLT PUSH2 0x23E JUMPI PUSH1 0x20 PUSH1 0x40 MLOAD PUSH1 0x12 DUP2 MSTORE RETURN JUMPDEST CALLVALUE PUSH2 0x23E JUMPI PUSH1 0x40 CALLDATASIZE PUSH1 0x3 NOT ADD SLT PUSH2 0x23E JUMPI PUSH2 0x55F PUSH1 0x4 CALLDATALOAD PUSH2 0xEE4 PUSH2 0x1412 JUMP JUMPDEST SWAP1 PUSH2 0xEFE PUSH2 0x555 DUP3 PUSH0 MSTORE PUSH1 0x5 PUSH1 0x20 MSTORE PUSH1 0x1 PUSH1 0x40 PUSH0 KECCAK256 ADD SLOAD SWAP1 JUMP JUMPDEST PUSH2 0x162B JUMP JUMPDEST CALLVALUE PUSH2 0x23E JUMPI PUSH0 CALLDATASIZE PUSH1 0x3 NOT ADD SLT PUSH2 0x23E JUMPI PUSH1 0x20 PUSH1 0xB SLOAD PUSH1 0x40 MLOAD SWAP1 DUP2 MSTORE RETURN JUMPDEST CALLVALUE PUSH2 0x23E JUMPI PUSH1 0x20 CALLDATASIZE PUSH1 0x3 NOT ADD SLT PUSH2 0x23E JUMPI PUSH1 0x20 PUSH2 0xF4B PUSH1 0x4 CALLDATALOAD PUSH0 MSTORE PUSH1 0x5 PUSH1 0x20 MSTORE PUSH1 0x1 PUSH1 0x40 PUSH0 KECCAK256 ADD SLOAD SWAP1 JUMP JUMPDEST PUSH1 0x40 MLOAD SWAP1 DUP2 MSTORE RETURN JUMPDEST CALLVALUE PUSH2 0x23E JUMPI PUSH1 0x60 CALLDATASIZE PUSH1 0x3 NOT ADD SLT PUSH2 0x23E JUMPI PUSH2 0xF6C PUSH2 0x13FC JUMP JUMPDEST PUSH2 0xF74 PUSH2 0x1412 JUMP JUMPDEST PUSH1 0x1 PUSH1 0x1 PUSH1 0xA0 SHL SUB DUP3 AND PUSH0 DUP2 DUP2 MSTORE PUSH1 0x1 PUSH1 0x20 SWAP1 DUP2 MSTORE PUSH1 0x40 DUP1 DUP4 KECCAK256 CALLER DUP5 MSTORE SWAP1 SWAP2 MSTORE SWAP1 KECCAK256 SLOAD SWAP1 SWAP3 PUSH1 0x44 CALLDATALOAD SWAP3 SWAP2 PUSH0 NOT DUP2 LT PUSH2 0xFB2 JUMPI JUMPDEST POP PUSH2 0x82D SWAP4 POP PUSH2 0x1581 JUMP JUMPDEST DUP4 DUP2 LT PUSH2 0xFF1 JUMPI DUP5 ISZERO PUSH2 0x447 JUMPI CALLER ISZERO PUSH2 0x434 JUMPI PUSH2 0x82D SWAP5 PUSH0 MSTORE PUSH1 0x1 PUSH1 0x20 MSTORE PUSH1 0x40 PUSH0 KECCAK256 PUSH1 0x1 DUP1 PUSH1 0xA0 SHL SUB CALLER AND PUSH0 MSTORE PUSH1 0x20 MSTORE DUP4 PUSH1 0x40 PUSH0 KECCAK256 SWAP2 SUB SWAP1 SSTORE DUP5 PUSH2 0xFA7 JUMP JUMPDEST DUP4 SWAP1 PUSH4 0x7DC7A0D9 PUSH1 0xE1 SHL PUSH0 MSTORE CALLER PUSH1 0x4 MSTORE PUSH1 0x24 MSTORE PUSH1 0x44 MSTORE PUSH1 0x64 PUSH0 REVERT JUMPDEST CALLVALUE PUSH2 0x23E JUMPI PUSH0 CALLDATASIZE PUSH1 0x3 NOT ADD SLT PUSH2 0x23E JUMPI PUSH1 0x40 MLOAD PUSH32 0x0 PUSH1 0x1 PUSH1 0x1 PUSH1 0xA0 SHL SUB AND DUP2 MSTORE PUSH1 0x20 SWAP1 RETURN JUMPDEST CALLVALUE PUSH2 0x23E JUMPI PUSH0 CALLDATASIZE PUSH1 0x3 NOT ADD SLT PUSH2 0x23E JUMPI PUSH1 0x20 PUSH1 0x2 SLOAD PUSH1 0x40 MLOAD SWAP1 DUP2 MSTORE RETURN JUMPDEST CALLVALUE PUSH2 0x23E JUMPI PUSH0 CALLDATASIZE PUSH1 0x3 NOT ADD SLT PUSH2 0x23E JUMPI PUSH1 0x7 SLOAD PUSH1 0x40 MLOAD PUSH1 0x1 PUSH1 0x1 PUSH1 0xA0 SHL SUB SWAP1 SWAP2 AND DUP2 MSTORE PUSH1 0x20 SWAP1 RETURN JUMPDEST CALLVALUE PUSH2 0x23E JUMPI PUSH1 0x40 CALLDATASIZE PUSH1 0x3 NOT ADD SLT PUSH2 0x23E JUMPI PUSH2 0x10AE PUSH2 0x13FC JUMP JUMPDEST PUSH1 0x24 CALLDATALOAD SWAP1 DUP2 ISZERO ISZERO DUP1 SWAP3 SUB PUSH2 0x23E JUMPI PUSH2 0x10C4 PUSH2 0x1482 JUMP JUMPDEST PUSH2 0x10CC PUSH2 0x14D8 JUMP JUMPDEST PUSH1 0x1 PUSH1 0x1 PUSH1 0xA0 SHL SUB AND DUP1 ISZERO PUSH2 0x45A JUMPI DUP1 PUSH0 MSTORE PUSH1 0x9 PUSH1 0x20 MSTORE PUSH1 0x40 PUSH0 KECCAK256 DUP3 PUSH1 0xFF DUP3 SLOAD AND ISZERO ISZERO SUB PUSH2 0x10FB JUMPI PUSH1 0x1 PUSH1 0x6 SSTORE STOP JUMPDEST PUSH1 0xFF NOT DUP2 SLOAD AND PUSH1 0xFF DUP5 AND OR SWAP1 SSTORE PUSH32 0xA534E7C418F24C958AF1E861A7AF8C6ECE8F5204EB8C33685AE7E16A1C2ADA42 PUSH0 DUP1 LOG3 DUP1 DUP1 DUP1 PUSH2 0x497 JUMP JUMPDEST PUSH1 0x40 CALLDATASIZE PUSH1 0x3 NOT ADD SLT PUSH2 0x23E JUMPI PUSH1 0x4 CALLDATALOAD PUSH1 0x1 PUSH1 0x1 PUSH1 0xA0 SHL SUB DUP2 AND SWAP1 DUP2 SWAP1 SUB PUSH2 0x23E JUMPI PUSH1 0x24 CALLDATALOAD PUSH2 0x1160 PUSH2 0x1482 JUMP JUMPDEST PUSH2 0x1168 PUSH2 0x14D8 JUMP JUMPDEST DUP2 ISZERO PUSH2 0x45A JUMPI DUP1 SELFBALANCE LT PUSH2 0x1215 JUMPI PUSH0 DUP1 DUP1 DUP1 DUP5 DUP7 GAS CALL RETURNDATASIZE ISZERO PUSH2 0x1210 JUMPI RETURNDATASIZE PUSH8 0xFFFFFFFFFFFFFFFF DUP2 GT PUSH2 0x11FC JUMPI PUSH1 0x40 MLOAD SWAP1 PUSH2 0x11AB PUSH1 0x1F DUP3 ADD PUSH1 0x1F NOT AND PUSH1 0x20 ADD DUP4 PUSH2 0x1460 JUMP JUMPDEST DUP2 MSTORE PUSH0 PUSH1 0x20 RETURNDATASIZE SWAP3 ADD RETURNDATACOPY JUMPDEST ISZERO PUSH2 0x11ED JUMPI PUSH32 0xFB475A842BAD10D3800B61BD1A92E716051AFBA979B124B583BD99A2D1D7BFD5 PUSH1 0x20 PUSH0 SWAP3 PUSH1 0x40 MLOAD SWAP1 DUP2 MSTORE LOG3 PUSH1 0x1 PUSH1 0x6 SSTORE STOP JUMPDEST PUSH4 0xB12D13EB PUSH1 0xE0 SHL PUSH0 MSTORE PUSH1 0x4 PUSH0 REVERT JUMPDEST PUSH4 0x4E487B71 PUSH1 0xE0 SHL PUSH0 MSTORE PUSH1 0x41 PUSH1 0x4 MSTORE PUSH1 0x24 PUSH0 REVERT JUMPDEST PUSH2 0x11B5 JUMP JUMPDEST PUSH4 0x1E9ACF17 PUSH1 0xE3 SHL PUSH0 MSTORE PUSH1 0x4 PUSH0 REVERT JUMPDEST CALLVALUE PUSH2 0x23E JUMPI PUSH1 0x40 CALLDATASIZE PUSH1 0x3 NOT ADD SLT PUSH2 0x23E JUMPI PUSH2 0x123D PUSH2 0x13FC JUMP JUMPDEST PUSH1 0x24 CALLDATALOAD CALLER PUSH0 MSTORE PUSH1 0x1 PUSH1 0x20 MSTORE PUSH1 0x40 PUSH0 KECCAK256 PUSH1 0x1 DUP1 PUSH1 0xA0 SHL SUB DUP4 AND PUSH0 MSTORE PUSH1 0x20 MSTORE PUSH1 0x40 PUSH0 KECCAK256 SLOAD SWAP2 DUP3 PUSH2 0x12AF JUMPI JUMPDEST PUSH1 0x40 DUP1 MLOAD SWAP4 DUP5 MSTORE PUSH1 0x20 DUP5 ADD DUP4 SWAP1 MSTORE PUSH2 0x82D SWAP4 PUSH1 0x1 PUSH1 0x1 PUSH1 0xA0 SHL SUB DUP4 AND SWAP2 CALLER SWAP2 PUSH32 0x3691D1A86D99355E52B689CA70A7BDF6D80763237A6AA06E5FA43964EAC7244B SWAP2 SWAP1 LOG3 CALLER PUSH2 0x173B JUMP JUMPDEST DUP2 ISZERO PUSH2 0x1266 JUMPI PUSH4 0xF46F5C8D PUSH1 0xE0 SHL PUSH0 MSTORE PUSH1 0x4 PUSH0 REVERT JUMPDEST CALLVALUE PUSH2 0x23E JUMPI PUSH0 CALLDATASIZE PUSH1 0x3 NOT ADD SLT PUSH2 0x23E JUMPI PUSH1 0x40 MLOAD PUSH0 PUSH1 0x3 SLOAD DUP1 PUSH1 0x1 SHR SWAP1 PUSH1 0x1 DUP2 AND DUP1 ISZERO PUSH2 0x1375 JUMPI JUMPDEST PUSH1 0x20 DUP4 LT DUP2 EQ PUSH2 0x95E JUMPI DUP3 DUP6 MSTORE SWAP1 DUP2 ISZERO PUSH2 0x93A JUMPI POP PUSH1 0x1 EQ PUSH2 0x1317 JUMPI PUSH2 0x3DE DUP4 PUSH2 0x8D0 DUP2 DUP6 SUB DUP3 PUSH2 0x1460 JUMP JUMPDEST SWAP2 SWAP1 POP PUSH1 0x3 PUSH0 MSTORE PUSH32 0xC2575A0E9E593C00F959F8C92F12DB2869C3395A3B0502D05E2516446F71F85B SWAP2 PUSH0 SWAP1 JUMPDEST DUP1 DUP3 LT PUSH2 0x135B JUMPI POP SWAP1 SWAP2 POP DUP2 ADD PUSH1 0x20 ADD PUSH2 0x8D0 PUSH2 0x8C0 JUMP JUMPDEST SWAP2 SWAP3 PUSH1 0x1 DUP2 PUSH1 0x20 SWAP3 SLOAD DUP4 DUP6 DUP9 ADD ADD MSTORE ADD SWAP2 ADD SWAP1 SWAP3 SWAP2 PUSH2 0x1343 JUMP JUMPDEST SWAP2 PUSH1 0x7F AND SWAP2 PUSH2 0x12EB JUMP JUMPDEST CALLVALUE PUSH2 0x23E JUMPI PUSH1 0x20 CALLDATASIZE PUSH1 0x3 NOT ADD SLT PUSH2 0x23E JUMPI PUSH1 0x4 CALLDATALOAD SWAP1 PUSH4 0xFFFFFFFF PUSH1 0xE0 SHL DUP3 AND DUP1 SWAP3 SUB PUSH2 0x23E JUMPI PUSH1 0x20 SWAP2 PUSH4 0x7965DB0B PUSH1 0xE0 SHL DUP2 EQ SWAP1 DUP2 ISZERO PUSH2 0x13C1 JUMPI JUMPDEST POP ISZERO ISZERO DUP2 MSTORE RETURN JUMPDEST PUSH4 0x1FFC9A7 PUSH1 0xE0 SHL EQ SWAP1 POP DUP4 PUSH2 0x13BA JUMP JUMPDEST PUSH1 0x20 PUSH1 0x40 SWAP3 DUP2 DUP4 MSTORE DUP1 MLOAD SWAP2 DUP3 SWAP2 DUP3 DUP3 DUP7 ADD MSTORE ADD DUP5 DUP5 ADD MCOPY PUSH0 DUP3 DUP3 ADD DUP5 ADD MSTORE PUSH1 0x1F ADD PUSH1 0x1F NOT AND ADD ADD SWAP1 JUMP JUMPDEST PUSH1 0x4 CALLDATALOAD SWAP1 PUSH1 0x1 PUSH1 0x1 PUSH1 0xA0 SHL SUB DUP3 AND DUP3 SUB PUSH2 0x23E JUMPI JUMP JUMPDEST PUSH1 0x24 CALLDATALOAD SWAP1 PUSH1 0x1 PUSH1 0x1 PUSH1 0xA0 SHL SUB DUP3 AND DUP3 SUB PUSH2 0x23E JUMPI JUMP JUMPDEST PUSH1 0x4 CALLDATALOAD SWAP1 DUP2 ISZERO ISZERO DUP3 SUB PUSH2 0x23E JUMPI JUMP JUMPDEST CALLVALUE PUSH2 0x23E JUMPI PUSH1 0x40 CALLDATASIZE PUSH1 0x3 NOT ADD SLT PUSH2 0x23E JUMPI PUSH2 0x1450 PUSH2 0x13FC JUMP JUMPDEST POP PUSH4 0x1D748CA9 PUSH1 0xE3 SHL PUSH0 MSTORE PUSH1 0x4 PUSH0 REVERT JUMPDEST SWAP1 PUSH1 0x1F DUP1 NOT SWAP2 ADD AND DUP2 ADD SWAP1 DUP2 LT PUSH8 0xFFFFFFFFFFFFFFFF DUP3 GT OR PUSH2 0x11FC JUMPI PUSH1 0x40 MSTORE JUMP JUMPDEST PUSH1 0x2 PUSH1 0x6 SLOAD EQ PUSH2 0x1493 JUMPI PUSH1 0x2 PUSH1 0x6 SSTORE JUMP JUMPDEST PUSH1 0x40 MLOAD PUSH3 0x461BCD PUSH1 0xE5 SHL DUP2 MSTORE PUSH1 0x20 PUSH1 0x4 DUP3 ADD MSTORE PUSH1 0x1F PUSH1 0x24 DUP3 ADD MSTORE PUSH32 0x5265656E7472616E637947756172643A207265656E7472616E742063616C6C00 PUSH1 0x44 DUP3 ADD MSTORE PUSH1 0x64 SWAP1 REVERT JUMPDEST CALLER PUSH0 SWAP1 DUP2 MSTORE PUSH32 0xD8EF4509105C3EDB0B04658B4528EDC5DDD30EA5A81E623A2623C88DB1EB54B6 PUSH1 0x20 MSTORE PUSH1 0x40 SWAP1 KECCAK256 SLOAD PUSH1 0xFF AND ISZERO PUSH2 0x1510 JUMPI JUMP JUMPDEST PUSH4 0xE2517D3F PUSH1 0xE0 SHL PUSH0 MSTORE CALLER PUSH1 0x4 MSTORE PUSH32 0xA49807205CE4D355092EF5A8A18F56E8913CF4A201FBE287825B095693C21775 PUSH1 0x24 MSTORE PUSH1 0x44 PUSH0 REVERT JUMPDEST PUSH0 DUP2 DUP2 MSTORE PUSH1 0x5 PUSH1 0x20 SWAP1 DUP2 MSTORE PUSH1 0x40 DUP1 DUP4 KECCAK256 CALLER DUP5 MSTORE SWAP1 SWAP2 MSTORE SWAP1 KECCAK256 SLOAD PUSH1 0xFF AND ISZERO PUSH2 0x156B JUMPI POP JUMP JUMPDEST PUSH4 0xE2517D3F PUSH1 0xE0 SHL PUSH0 MSTORE CALLER PUSH1 0x4 MSTORE PUSH1 0x24 MSTORE PUSH1 0x44 PUSH0 REVERT JUMPDEST PUSH1 0x1 PUSH1 0x1 PUSH1 0xA0 SHL SUB AND SWAP1 DUP2 ISZERO PUSH2 0xCD5 JUMPI PUSH1 0x1 PUSH1 0x1 PUSH1 0xA0 SHL SUB AND SWAP2 DUP3 ISZERO PUSH2 0x1618 JUMPI DUP2 PUSH0 MSTORE PUSH0 PUSH1 0x20 MSTORE PUSH1 0x40 PUSH0 KECCAK256 SLOAD DUP2 DUP2 LT PUSH2 0x15FF JUMPI DUP2 PUSH32 0xDDF252AD1BE2C89B69C2B068FC378DAA952BA7F163C4A11628F55A4DF523B3EF SWAP3 PUSH1 0x20 SWAP3 DUP6 PUSH0 MSTORE PUSH0 DUP5 MSTORE SUB PUSH1 0x40 PUSH0 KECCAK256 SSTORE DUP5 PUSH0 MSTORE PUSH0 DUP3 MSTORE PUSH1 0x40 PUSH0 KECCAK256 DUP2 DUP2 SLOAD ADD SWAP1 SSTORE PUSH1 0x40 MLOAD SWAP1 DUP2 MSTORE LOG3 JUMP JUMPDEST DUP3 PUSH4 0x391434E3 PUSH1 0xE2 SHL PUSH0 MSTORE PUSH1 0x4 MSTORE PUSH1 0x24 MSTORE PUSH1 0x44 MSTORE PUSH1 0x64 PUSH0 REVERT JUMPDEST PUSH4 0xEC442F05 PUSH1 0xE0 SHL PUSH0 MSTORE PUSH0 PUSH1 0x4 MSTORE PUSH1 0x24 PUSH0 REVERT JUMPDEST PUSH0 DUP2 DUP2 MSTORE PUSH1 0x5 PUSH1 0x20 SWAP1 DUP2 MSTORE PUSH1 0x40 DUP1 DUP4 KECCAK256 PUSH1 0x1 PUSH1 0x1 PUSH1 0xA0 SHL SUB DUP7 AND DUP5 MSTORE SWAP1 SWAP2 MSTORE SWAP1 KECCAK256 SLOAD PUSH1 0xFF AND PUSH2 0x16B1 JUMPI PUSH0 DUP2 DUP2 MSTORE PUSH1 0x5 PUSH1 0x20 SWAP1 DUP2 MSTORE PUSH1 0x40 DUP1 DUP4 KECCAK256 PUSH1 0x1 PUSH1 0x1 PUSH1 0xA0 SHL SUB SWAP6 SWAP1 SWAP6 AND DUP1 DUP5 MSTORE SWAP5 SWAP1 SWAP2 MSTORE DUP2 KECCAK256 DUP1 SLOAD PUSH1 0xFF NOT AND PUSH1 0x1 OR SWAP1 SSTORE CALLER SWAP3 SWAP2 SWAP1 PUSH32 0x2F8788117E7EFF1D82E926EC794901D17C78024A50270940304540A733656F0D SWAP1 DUP1 LOG4 PUSH1 0x1 SWAP1 JUMP JUMPDEST POP POP PUSH0 SWAP1 JUMP JUMPDEST PUSH0 DUP2 DUP2 MSTORE PUSH1 0x5 PUSH1 0x20 SWAP1 DUP2 MSTORE PUSH1 0x40 DUP1 DUP4 KECCAK256 PUSH1 0x1 PUSH1 0x1 PUSH1 0xA0 SHL SUB DUP7 AND DUP5 MSTORE SWAP1 SWAP2 MSTORE SWAP1 KECCAK256 SLOAD PUSH1 0xFF AND ISZERO PUSH2 0x16B1 JUMPI PUSH0 DUP2 DUP2 MSTORE PUSH1 0x5 PUSH1 0x20 SWAP1 DUP2 MSTORE PUSH1 0x40 DUP1 DUP4 KECCAK256 PUSH1 0x1 PUSH1 0x1 PUSH1 0xA0 SHL SUB SWAP6 SWAP1 SWAP6 AND DUP1 DUP5 MSTORE SWAP5 SWAP1 SWAP2 MSTORE DUP2 KECCAK256 DUP1 SLOAD PUSH1 0xFF NOT AND SWAP1 SSTORE CALLER SWAP3 SWAP2 SWAP1 PUSH32 0xF6391F5C32D9C69D2A47EA670B442974B53935D1EDC7FD64EB21E047A839171B SWAP1 DUP1 LOG4 PUSH1 0x1 SWAP1 JUMP JUMPDEST PUSH1 0x1 PUSH1 0x1 PUSH1 0xA0 SHL SUB AND SWAP1 DUP2 ISZERO PUSH2 0x447 JUMPI PUSH1 0x1 PUSH1 0x1 PUSH1 0xA0 SHL SUB AND SWAP2 DUP3 ISZERO PUSH2 0x434 JUMPI PUSH1 0x20 PUSH32 0x8C5BE1E5EBEC7D5BD14F71427D1E84F3DD0314C0F7B2291E5B200AC8C7C3B925 SWAP2 DUP4 PUSH0 MSTORE PUSH1 0x1 DUP3 MSTORE PUSH1 0x40 PUSH0 KECCAK256 DUP6 PUSH0 MSTORE DUP3 MSTORE DUP1 PUSH1 0x40 PUSH0 KECCAK256 SSTORE PUSH1 0x40 MLOAD SWAP1 DUP2 MSTORE LOG3 JUMP INVALID LOG2 PUSH5 0x6970667358 0x22 SLT KECCAK256 PUSH16 0x49DE49C4E5B025C0219EFA0E2A72E71A PUSH23 0xE1753B77ABBFA1D3B5671F35757C64736F6C634300081C STOP CALLER 0xBD PUSH26 0xB86FFE0AB8E8776151514217CD7CACD52C909F66475C3AF44E12 SWAP16 SIGNEXTEND STOP SELFDESTRUCT 0xD8 0xEF GASLIMIT MULMOD LT TLOAD RETURNDATACOPY 0xDB SIGNEXTEND DIV PUSH6 0x8B4528EDC5DD 0xD3 0xE 0xA5 0xA8 0x1E PUSH3 0x3A2623 0xC8 DUP14 0xB1 0xEB SLOAD 0xB6 LOG4 SWAP9 SMOD KECCAK256 TLOAD 0xE4 0xD3 SSTORE MULMOD 0x2E CREATE2 0xA8 LOG1 DUP16 JUMP 0xE8 SWAP2 EXTCODECOPY DELEGATECALL LOG2 ADD 0xFB 0xE2 DUP8 DUP3 JUMPDEST MULMOD JUMP SWAP4 0xC2 OR PUSH22 0x0 "
		},
		"gasEstimates": {
			"creation": {
				"codeDepositCost": "1220000",
				"executionCost": "infinite",
				"totalCost": "infinite"
			},
			"external": {
				"DEFAULT_ADMIN_ROLE()": "746",
				"addLiquidityETH(address,uint256,uint256,uint256,uint256)": "infinite",
				"allowance(address,address)": "3343",
				"approve(address,uint256)": "28765",
				"balanceOf(address)": "2867",
				"burn(uint256)": "100817",
				"cooldownEnabled()": "2928",
				"cooldownTime()": "2938",
				"daoAddress()": "infinite",
				"decimals()": "417",
				"decreaseAllowance(address,uint256)": "852",
				"getRoleAdmin(bytes32)": "2540",
				"grantRole(bytes32,address)": "33519",
				"hasRole(bytes32,address)": "3013",
				"increaseAllowance(address,uint256)": "544",
				"isBlacklisted(address)": "3251",
				"launchTimestamp()": "2696",
				"maxTxAmount()": "2762",
				"mint(address,uint256)": "100869",
				"name()": "infinite",
				"renounceRole(bytes32,address)": "29127",
				"rescueETH(address,uint256)": "infinite",
				"rescueTokens(address,uint256,address)": "infinite",
				"revokeRole(bytes32,address)": "34022",
				"setBlacklist(address,bool)": "76897",
				"setCooldownConfig(bool,uint256)": "82146",
				"setMaxTxAmount(uint256)": "57779",
				"setSniperProtection(bool,uint256)": "82271",
				"setTradingEnabled(bool)": "80010",
				"snipeTime()": "2476",
				"sniperProtectionEnabled()": "2846",
				"supportsInterface(bytes4)": "270",
				"symbol()": "infinite",
				"totalSupply()": "2388",
				"tradingEnabled()": "2686",
				"transfer(address,uint256)": "51392",
				"transferFrom(address,address,uint256)": "75633",
				"uniswapV2Pair()": "2676",
				"uniswapV2Router()": "2390"
			},
			"internal": {
				"_beforeTokenTransfer(address,address,uint256)": "infinite"
			}
		},
		"methodIdentifiers": {
			"DEFAULT_ADMIN_ROLE()": "a217fddf",
			"addLiquidityETH(address,uint256,uint256,uint256,uint256)": "f6f1e306",
			"allowance(address,address)": "dd62ed3e",
			"approve(address,uint256)": "095ea7b3",
			"balanceOf(address)": "70a08231",
			"burn(uint256)": "42966c68",
			"cooldownEnabled()": "a985ceef",
			"cooldownTime()": "b319c6b7",
			"daoAddress()": "2131c68c",
			"decimals()": "313ce567",
			"decreaseAllowance(address,uint256)": "a457c2d7",
			"getRoleAdmin(bytes32)": "248a9ca3",
			"grantRole(bytes32,address)": "2f2ff15d",
			"hasRole(bytes32,address)": "91d14854",
			"increaseAllowance(address,uint256)": "39509351",
			"isBlacklisted(address)": "fe575a87",
			"launchTimestamp()": "65cf7c9b",
			"maxTxAmount()": "8c0b5e22",
			"mint(address,uint256)": "40c10f19",
			"name()": "06fdde03",
			"renounceRole(bytes32,address)": "36568abe",
			"rescueETH(address,uint256)": "099a04e5",
			"rescueTokens(address,uint256,address)": "b37fd190",
			"revokeRole(bytes32,address)": "d547741f",
			"setBlacklist(address,bool)": "153b0d1e",
			"setCooldownConfig(bool,uint256)": "48fca59d",
			"setMaxTxAmount(uint256)": "ec28438a",
			"setSniperProtection(bool,uint256)": "89900603",
			"setTradingEnabled(bool)": "c2e5ec04",
			"snipeTime()": "2618f214",
			"sniperProtectionEnabled()": "963472f9",
			"supportsInterface(bytes4)": "01ffc9a7",
			"symbol()": "95d89b41",
			"totalSupply()": "18160ddd",
			"tradingEnabled()": "4ada218b",
			"transfer(address,uint256)": "a9059cbb",
			"transferFrom(address,address,uint256)": "23b872dd",
			"uniswapV2Pair()": "49bd5a5e",
			"uniswapV2Router()": "1694505e"
		}
	},
	"abi": [
		{
			"inputs": [
				{
					"internalType": "address",
					"name": "uniswapV2Router_",
					"type": "address"
				},
				{
					"internalType": "address",
					"name": "daoAddress_",
					"type": "address"
				}
			],
			"stateMutability": "payable",
			"type": "constructor"
		},
		{
			"inputs": [],
			"name": "AccessControlBadConfirmation",
			"type": "error"
		},
		{
			"inputs": [
				{
					"internalType": "address",
					"name": "account",
					"type": "address"
				},
				{
					"internalType": "bytes32",
					"name": "neededRole",
					"type": "bytes32"
				}
			],
			"name": "AccessControlUnauthorizedAccount",
			"type": "error"
		},
		{
			"inputs": [],
			"name": "CurrentAllowanceNonZero",
			"type": "error"
		},
		{
			"inputs": [
				{
					"internalType": "address",
					"name": "spender",
					"type": "address"
				},
				{
					"internalType": "uint256",
					"name": "allowance",
					"type": "uint256"
				},
				{
					"internalType": "uint256",
					"name": "needed",
					"type": "uint256"
				}
			],
			"name": "ERC20InsufficientAllowance",
			"type": "error"
		},
		{
			"inputs": [
				{
					"internalType": "address",
					"name": "sender",
					"type": "address"
				},
				{
					"internalType": "uint256",
					"name": "balance",
					"type": "uint256"
				},
				{
					"internalType": "uint256",
					"name": "needed",
					"type": "uint256"
				}
			],
			"name": "ERC20InsufficientBalance",
			"type": "error"
		},
		{
			"inputs": [
				{
					"internalType": "address",
					"name": "approver",
					"type": "address"
				}
			],
			"name": "ERC20InvalidApprover",
			"type": "error"
		},
		{
			"inputs": [
				{
					"internalType": "address",
					"name": "receiver",
					"type": "address"
				}
			],
			"name": "ERC20InvalidReceiver",
			"type": "error"
		},
		{
			"inputs": [
				{
					"internalType": "address",
					"name": "sender",
					"type": "address"
				}
			],
			"name": "ERC20InvalidSender",
			"type": "error"
		},
		{
			"inputs": [
				{
					"internalType": "address",
					"name": "spender",
					"type": "address"
				}
			],
			"name": "ERC20InvalidSpender",
			"type": "error"
		},
		{
			"inputs": [],
			"name": "ETHTransferFailed",
			"type": "error"
		},
		{
			"inputs": [],
			"name": "InsufficientBalance",
			"type": "error"
		},
		{
			"inputs": [],
			"name": "InvalidZeroAddress",
			"type": "error"
		},
		{
			"inputs": [],
			"name": "MustZeroAllowanceFirst",
			"type": "error"
		},
		{
			"inputs": [
				{
					"internalType": "address",
					"name": "token",
					"type": "address"
				}
			],
			"name": "SafeERC20FailedOperation",
			"type": "error"
		},
		{
			"anonymous": false,
			"inputs": [
				{
					"indexed": true,
					"internalType": "address",
					"name": "owner",
					"type": "address"
				},
				{
					"indexed": true,
					"internalType": "address",
					"name": "spender",
					"type": "address"
				},
				{
					"indexed": false,
					"internalType": "uint256",
					"name": "oldAmount",
					"type": "uint256"
				},
				{
					"indexed": false,
					"internalType": "uint256",
					"name": "newAmount",
					"type": "uint256"
				}
			],
			"name": "AllowanceChanged",
			"type": "event"
		},
		{
			"anonymous": false,
			"inputs": [
				{
					"indexed": true,
					"internalType": "address",
					"name": "owner",
					"type": "address"
				},
				{
					"indexed": true,
					"internalType": "address",
					"name": "spender",
					"type": "address"
				},
				{
					"indexed": false,
					"internalType": "uint256",
					"name": "value",
					"type": "uint256"
				}
			],
			"name": "Approval",
			"type": "event"
		},
		{
			"anonymous": false,
			"inputs": [
				{
					"indexed": true,
					"internalType": "address",
					"name": "from",
					"type": "address"
				},
				{
					"indexed": false,
					"internalType": "uint256",
					"name": "amount",
					"type": "uint256"
				}
			],
			"name": "Burned",
			"type": "event"
		},
		{
			"anonymous": false,
			"inputs": [
				{
					"indexed": true,
					"internalType": "address",
					"name": "sender",
					"type": "address"
				},
				{
					"indexed": false,
					"internalType": "uint256",
					"name": "lastTx",
					"type": "uint256"
				},
				{
					"indexed": false,
					"internalType": "uint256",
					"name": "cooldownTime",
					"type": "uint256"
				}
			],
			"name": "CooldownEnforced",
			"type": "event"
		},
		{
			"anonymous": false,
			"inputs": [
				{
					"indexed": true,
					"internalType": "bool",
					"name": "enabled",
					"type": "bool"
				},
				{
					"indexed": true,
					"internalType": "uint256",
					"name": "timeSeconds",
					"type": "uint256"
				}
			],
			"name": "CooldownSet",
			"type": "event"
		},
		{
			"anonymous": false,
			"inputs": [
				{
					"indexed": true,
					"internalType": "address",
					"name": "admin",
					"type": "address"
				},
				{
					"indexed": true,
					"internalType": "address",
					"name": "to",
					"type": "address"
				},
				{
					"indexed": false,
					"internalType": "uint256",
					"name": "tokenAmountIn",
					"type": "uint256"
				},
				{
					"indexed": false,
					"internalType": "uint256",
					"name": "ethAmount",
					"type": "uint256"
				}
			],
			"name": "LiquidityAddRequested",
			"type": "event"
		},
		{
			"anonymous": false,
			"inputs": [
				{
					"indexed": true,
					"internalType": "address",
					"name": "to",
					"type": "address"
				},
				{
					"indexed": false,
					"internalType": "uint256",
					"name": "tokenAmount",
					"type": "uint256"
				},
				{
					"indexed": false,
					"internalType": "uint256",
					"name": "ethAmount",
					"type": "uint256"
				},
				{
					"indexed": false,
					"internalType": "uint256",
					"name": "liquidity",
					"type": "uint256"
				}
			],
			"name": "LiquidityAdded",
			"type": "event"
		},
		{
			"anonymous": false,
			"inputs": [
				{
					"indexed": true,
					"internalType": "uint256",
					"name": "newMaxTx",
					"type": "uint256"
				}
			],
			"name": "MaxTxAmountSet",
			"type": "event"
		},
		{
			"anonymous": false,
			"inputs": [
				{
					"indexed": true,
					"internalType": "address",
					"name": "from",
					"type": "address"
				},
				{
					"indexed": true,
					"internalType": "address",
					"name": "to",
					"type": "address"
				},
				{
					"indexed": false,
					"internalType": "uint256",
					"name": "amount",
					"type": "uint256"
				},
				{
					"indexed": false,
					"internalType": "uint256",
					"name": "maxAmount",
					"type": "uint256"
				}
			],
			"name": "MaxTxLimitReached",
			"type": "event"
		},
		{
			"anonymous": false,
			"inputs": [
				{
					"indexed": true,
					"internalType": "address",
					"name": "to",
					"type": "address"
				},
				{
					"indexed": false,
					"internalType": "uint256",
					"name": "amount",
					"type": "uint256"
				}
			],
			"name": "Minted",
			"type": "event"
		},
		{
			"anonymous": false,
			"inputs": [
				{
					"indexed": true,
					"internalType": "address",
					"name": "from",
					"type": "address"
				},
				{
					"indexed": false,
					"internalType": "uint256",
					"name": "amount",
					"type": "uint256"
				}
			],
			"name": "ReceivedEther",
			"type": "event"
		},
		{
			"anonymous": false,
			"inputs": [
				{
					"indexed": true,
					"internalType": "bytes32",
					"name": "role",
					"type": "bytes32"
				},
				{
					"indexed": true,
					"internalType": "bytes32",
					"name": "previousAdminRole",
					"type": "bytes32"
				},
				{
					"indexed": true,
					"internalType": "bytes32",
					"name": "newAdminRole",
					"type": "bytes32"
				}
			],
			"name": "RoleAdminChanged",
			"type": "event"
		},
		{
			"anonymous": false,
			"inputs": [
				{
					"indexed": true,
					"internalType": "bytes32",
					"name": "role",
					"type": "bytes32"
				},
				{
					"indexed": true,
					"internalType": "address",
					"name": "account",
					"type": "address"
				},
				{
					"indexed": true,
					"internalType": "address",
					"name": "sender",
					"type": "address"
				}
			],
			"name": "RoleGranted",
			"type": "event"
		},
		{
			"anonymous": false,
			"inputs": [
				{
					"indexed": true,
					"internalType": "bytes32",
					"name": "role",
					"type": "bytes32"
				},
				{
					"indexed": true,
					"internalType": "address",
					"name": "account",
					"type": "address"
				},
				{
					"indexed": true,
					"internalType": "address",
					"name": "sender",
					"type": "address"
				}
			],
			"name": "RoleRevoked",
			"type": "event"
		},
		{
			"anonymous": false,
			"inputs": [
				{
					"indexed": true,
					"internalType": "address",
					"name": "from",
					"type": "address"
				},
				{
					"indexed": true,
					"internalType": "address",
					"name": "to",
					"type": "address"
				},
				{
					"indexed": false,
					"internalType": "uint256",
					"name": "timestamp",
					"type": "uint256"
				}
			],
			"name": "SniperBlocked",
			"type": "event"
		},
		{
			"anonymous": false,
			"inputs": [
				{
					"indexed": true,
					"internalType": "bool",
					"name": "enabled",
					"type": "bool"
				},
				{
					"indexed": true,
					"internalType": "uint256",
					"name": "timeSeconds",
					"type": "uint256"
				}
			],
			"name": "SniperProtectionSet",
			"type": "event"
		},
		{
			"anonymous": false,
			"inputs": [
				{
					"indexed": true,
					"internalType": "address",
					"name": "token",
					"type": "address"
				},
				{
					"indexed": true,
					"internalType": "address",
					"name": "from",
					"type": "address"
				},
				{
					"indexed": true,
					"internalType": "address",
					"name": "to",
					"type": "address"
				},
				{
					"indexed": false,
					"internalType": "uint256",
					"name": "amount",
					"type": "uint256"
				}
			],
			"name": "TokenRescueCompleted",
			"type": "event"
		},
		{
			"anonymous": false,
			"inputs": [
				{
					"indexed": true,
					"internalType": "address",
					"name": "token",
					"type": "address"
				},
				{
					"indexed": false,
					"internalType": "uint256",
					"name": "amount",
					"type": "uint256"
				},
				{
					"indexed": true,
					"internalType": "address",
					"name": "to",
					"type": "address"
				}
			],
			"name": "TokensRescued",
			"type": "event"
		},
		{
			"anonymous": false,
			"inputs": [
				{
					"indexed": true,
					"internalType": "bool",
					"name": "enabled",
					"type": "bool"
				}
			],
			"name": "TradingEnabledSet",
			"type": "event"
		},
		{
			"anonymous": false,
			"inputs": [
				{
					"indexed": true,
					"internalType": "address",
					"name": "from",
					"type": "address"
				},
				{
					"indexed": true,
					"internalType": "address",
					"name": "to",
					"type": "address"
				},
				{
					"indexed": false,
					"internalType": "uint256",
					"name": "value",
					"type": "uint256"
				}
			],
			"name": "Transfer",
			"type": "event"
		},
		{
			"anonymous": false,
			"inputs": [
				{
					"indexed": true,
					"internalType": "address",
					"name": "from",
					"type": "address"
				},
				{
					"indexed": true,
					"internalType": "address",
					"name": "to",
					"type": "address"
				},
				{
					"indexed": false,
					"internalType": "string",
					"name": "reason",
					"type": "string"
				}
			],
			"name": "TransferBlocked",
			"type": "event"
		},
		{
			"anonymous": false,
			"inputs": [
				{
					"indexed": true,
					"internalType": "address",
					"name": "user",
					"type": "address"
				},
				{
					"indexed": true,
					"internalType": "bool",
					"name": "isBlacklisted",
					"type": "bool"
				}
			],
			"name": "UserBlacklistedSet",
			"type": "event"
		},
		{
			"inputs": [],
			"name": "DEFAULT_ADMIN_ROLE",
			"outputs": [
				{
					"internalType": "bytes32",
					"name": "",
					"type": "bytes32"
				}
			],
			"stateMutability": "view",
			"type": "function"
		},
		{
			"inputs": [
				{
					"internalType": "address",
					"name": "to",
					"type": "address"
				},
				{
					"internalType": "uint256",
					"name": "tokenAmountIn",
					"type": "uint256"
				},
				{
					"internalType": "uint256",
					"name": "tokenAmountMin",
					"type": "uint256"
				},
				{
					"internalType": "uint256",
					"name": "ethAmountMin",
					"type": "uint256"
				},
				{
					"internalType": "uint256",
					"name": "deadline",
					"type": "uint256"
				}
			],
			"name": "addLiquidityETH",
			"outputs": [
				{
					"internalType": "uint256",
					"name": "amountToken",
					"type": "uint256"
				},
				{
					"internalType": "uint256",
					"name": "amountETH",
					"type": "uint256"
				},
				{
					"internalType": "uint256",
					"name": "liquidity",
					"type": "uint256"
				}
			],
			"stateMutability": "payable",
			"type": "function"
		},
		{
			"inputs": [
				{
					"internalType": "address",
					"name": "owner",
					"type": "address"
				},
				{
					"internalType": "address",
					"name": "spender",
					"type": "address"
				}
			],
			"name": "allowance",
			"outputs": [
				{
					"internalType": "uint256",
					"name": "",
					"type": "uint256"
				}
			],
			"stateMutability": "view",
			"type": "function"
		},
		{
			"inputs": [
				{
					"internalType": "address",
					"name": "spender",
					"type": "address"
				},
				{
					"internalType": "uint256",
					"name": "amount",
					"type": "uint256"
				}
			],
			"name": "approve",
			"outputs": [
				{
					"internalType": "bool",
					"name": "",
					"type": "bool"
				}
			],
			"stateMutability": "nonpayable",
			"type": "function"
		},
		{
			"inputs": [
				{
					"internalType": "address",
					"name": "account",
					"type": "address"
				}
			],
			"name": "balanceOf",
			"outputs": [
				{
					"internalType": "uint256",
					"name": "",
					"type": "uint256"
				}
			],
			"stateMutability": "view",
			"type": "function"
		},
		{
			"inputs": [
				{
					"internalType": "uint256",
					"name": "amount",
					"type": "uint256"
				}
			],
			"name": "burn",
			"outputs": [],
			"stateMutability": "nonpayable",
			"type": "function"
		},
		{
			"inputs": [],
			"name": "cooldownEnabled",
			"outputs": [
				{
					"internalType": "bool",
					"name": "",
					"type": "bool"
				}
			],
			"stateMutability": "view",
			"type": "function"
		},
		{
			"inputs": [],
			"name": "cooldownTime",
			"outputs": [
				{
					"internalType": "uint256",
					"name": "",
					"type": "uint256"
				}
			],
			"stateMutability": "view",
			"type": "function"
		},
		{
			"inputs": [],
			"name": "daoAddress",
			"outputs": [
				{
					"internalType": "address",
					"name": "",
					"type": "address"
				}
			],
			"stateMutability": "view",
			"type": "function"
		},
		{
			"inputs": [],
			"name": "decimals",
			"outputs": [
				{
					"internalType": "uint8",
					"name": "",
					"type": "uint8"
				}
			],
			"stateMutability": "view",
			"type": "function"
		},
		{
			"inputs": [
				{
					"internalType": "address",
					"name": "",
					"type": "address"
				},
				{
					"internalType": "uint256",
					"name": "",
					"type": "uint256"
				}
			],
			"name": "decreaseAllowance",
			"outputs": [
				{
					"internalType": "bool",
					"name": "",
					"type": "bool"
				}
			],
			"stateMutability": "pure",
			"type": "function"
		},
		{
			"inputs": [
				{
					"internalType": "bytes32",
					"name": "role",
					"type": "bytes32"
				}
			],
			"name": "getRoleAdmin",
			"outputs": [
				{
					"internalType": "bytes32",
					"name": "",
					"type": "bytes32"
				}
			],
			"stateMutability": "view",
			"type": "function"
		},
		{
			"inputs": [
				{
					"internalType": "bytes32",
					"name": "role",
					"type": "bytes32"
				},
				{
					"internalType": "address",
					"name": "account",
					"type": "address"
				}
			],
			"name": "grantRole",
			"outputs": [],
			"stateMutability": "nonpayable",
			"type": "function"
		},
		{
			"inputs": [
				{
					"internalType": "bytes32",
					"name": "role",
					"type": "bytes32"
				},
				{
					"internalType": "address",
					"name": "account",
					"type": "address"
				}
			],
			"name": "hasRole",
			"outputs": [
				{
					"internalType": "bool",
					"name": "",
					"type": "bool"
				}
			],
			"stateMutability": "view",
			"type": "function"
		},
		{
			"inputs": [
				{
					"internalType": "address",
					"name": "",
					"type": "address"
				},
				{
					"internalType": "uint256",
					"name": "",
					"type": "uint256"
				}
			],
			"name": "increaseAllowance",
			"outputs": [
				{
					"internalType": "bool",
					"name": "",
					"type": "bool"
				}
			],
			"stateMutability": "pure",
			"type": "function"
		},
		{
			"inputs": [
				{
					"internalType": "address",
					"name": "user",
					"type": "address"
				}
			],
			"name": "isBlacklisted",
			"outputs": [
				{
					"internalType": "bool",
					"name": "",
					"type": "bool"
				}
			],
			"stateMutability": "view",
			"type": "function"
		},
		{
			"inputs": [],
			"name": "launchTimestamp",
			"outputs": [
				{
					"internalType": "uint256",
					"name": "",
					"type": "uint256"
				}
			],
			"stateMutability": "view",
			"type": "function"
		},
		{
			"inputs": [],
			"name": "maxTxAmount",
			"outputs": [
				{
					"internalType": "uint256",
					"name": "",
					"type": "uint256"
				}
			],
			"stateMutability": "view",
			"type": "function"
		},
		{
			"inputs": [
				{
					"internalType": "address",
					"name": "to",
					"type": "address"
				},
				{
					"internalType": "uint256",
					"name": "amount",
					"type": "uint256"
				}
			],
			"name": "mint",
			"outputs": [],
			"stateMutability": "nonpayable",
			"type": "function"
		},
		{
			"inputs": [],
			"name": "name",
			"outputs": [
				{
					"internalType": "string",
					"name": "",
					"type": "string"
				}
			],
			"stateMutability": "view",
			"type": "function"
		},
		{
			"inputs": [
				{
					"internalType": "bytes32",
					"name": "role",
					"type": "bytes32"
				},
				{
					"internalType": "address",
					"name": "callerConfirmation",
					"type": "address"
				}
			],
			"name": "renounceRole",
			"outputs": [],
			"stateMutability": "nonpayable",
			"type": "function"
		},
		{
			"inputs": [
				{
					"internalType": "address payable",
					"name": "to",
					"type": "address"
				},
				{
					"internalType": "uint256",
					"name": "amount",
					"type": "uint256"
				}
			],
			"name": "rescueETH",
			"outputs": [],
			"stateMutability": "payable",
			"type": "function"
		},
		{
			"inputs": [
				{
					"internalType": "address",
					"name": "tokenAddress",
					"type": "address"
				},
				{
					"internalType": "uint256",
					"name": "amount",
					"type": "uint256"
				},
				{
					"internalType": "address",
					"name": "to",
					"type": "address"
				}
			],
			"name": "rescueTokens",
			"outputs": [],
			"stateMutability": "nonpayable",
			"type": "function"
		},
		{
			"inputs": [
				{
					"internalType": "bytes32",
					"name": "role",
					"type": "bytes32"
				},
				{
					"internalType": "address",
					"name": "account",
					"type": "address"
				}
			],
			"name": "revokeRole",
			"outputs": [],
			"stateMutability": "nonpayable",
			"type": "function"
		},
		{
			"inputs": [
				{
					"internalType": "address",
					"name": "user",
					"type": "address"
				},
				{
					"internalType": "bool",
					"name": "blacklisted_",
					"type": "bool"
				}
			],
			"name": "setBlacklist",
			"outputs": [],
			"stateMutability": "nonpayable",
			"type": "function"
		},
		{
			"inputs": [
				{
					"internalType": "bool",
					"name": "enabled",
					"type": "bool"
				},
				{
					"internalType": "uint256",
					"name": "cooldownSec",
					"type": "uint256"
				}
			],
			"name": "setCooldownConfig",
			"outputs": [],
			"stateMutability": "nonpayable",
			"type": "function"
		},
		{
			"inputs": [
				{
					"internalType": "uint256",
					"name": "maxTx",
					"type": "uint256"
				}
			],
			"name": "setMaxTxAmount",
			"outputs": [],
			"stateMutability": "nonpayable",
			"type": "function"
		},
		{
			"inputs": [
				{
					"internalType": "bool",
					"name": "enabled",
					"type": "bool"
				},
				{
					"internalType": "uint256",
					"name": "timeSeconds",
					"type": "uint256"
				}
			],
			"name": "setSniperProtection",
			"outputs": [],
			"stateMutability": "nonpayable",
			"type": "function"
		},
		{
			"inputs": [
				{
					"internalType": "bool",
					"name": "enabled",
					"type": "bool"
				}
			],
			"name": "setTradingEnabled",
			"outputs": [],
			"stateMutability": "nonpayable",
			"type": "function"
		},
		{
			"inputs": [],
			"name": "snipeTime",
			"outputs": [
				{
					"internalType": "uint256",
					"name": "",
					"type": "uint256"
				}
			],
			"stateMutability": "view",
			"type": "function"
		},
		{
			"inputs": [],
			"name": "sniperProtectionEnabled",
			"outputs": [
				{
					"internalType": "bool",
					"name": "",
					"type": "bool"
				}
			],
			"stateMutability": "view",
			"type": "function"
		},
		{
			"inputs": [
				{
					"internalType": "bytes4",
					"name": "interfaceId",
					"type": "bytes4"
				}
			],
			"name": "supportsInterface",
			"outputs": [
				{
					"internalType": "bool",
					"name": "",
					"type": "bool"
				}
			],
			"stateMutability": "view",
			"type": "function"
		},
		{
			"inputs": [],
			"name": "symbol",
			"outputs": [
				{
					"internalType": "string",
					"name": "",
					"type": "string"
				}
			],
			"stateMutability": "view",
			"type": "function"
		},
		{
			"inputs": [],
			"name": "totalSupply",
			"outputs": [
				{
					"internalType": "uint256",
					"name": "",
					"type": "uint256"
				}
			],
			"stateMutability": "view",
			"type": "function"
		},
		{
			"inputs": [],
			"name": "tradingEnabled",
			"outputs": [
				{
					"internalType": "bool",
					"name": "",
					"type": "bool"
				}
			],
			"stateMutability": "view",
			"type": "function"
		},
		{
			"inputs": [
				{
					"internalType": "address",
					"name": "to",
					"type": "address"
				},
				{
					"internalType": "uint256",
					"name": "value",
					"type": "uint256"
				}
			],
			"name": "transfer",
			"outputs": [
				{
					"internalType": "bool",
					"name": "",
					"type": "bool"
				}
			],
			"stateMutability": "nonpayable",
			"type": "function"
		},
		{
			"inputs": [
				{
					"internalType": "address",
					"name": "from",
					"type": "address"
				},
				{
					"internalType": "address",
					"name": "to",
					"type": "address"
				},
				{
					"internalType": "uint256",
					"name": "value",
					"type": "uint256"
				}
			],
			"name": "transferFrom",
			"outputs": [
				{
					"internalType": "bool",
					"name": "",
					"type": "bool"
				}
			],
			"stateMutability": "nonpayable",
			"type": "function"
		},
		{
			"inputs": [],
			"name": "uniswapV2Pair",
			"outputs": [
				{
					"internalType": "address",
					"name": "",
					"type": "address"
				}
			],
			"stateMutability": "view",
			"type": "function"
		},
		{
			"inputs": [],
			"name": "uniswapV2Router",
			"outputs": [
				{
					"internalType": "address",
					"name": "",
					"type": "address"
				}
			],
			"stateMutability": "view",
			"type": "function"
		},
		{
			"stateMutability": "payable",
			"type": "receive"
		}
	]
}