{
	"data": {
		"bytecode": {
			"linkReferences": {},
			"object": "60a0601f61174238819003918201601f19168301916001600160401b038311848410176103795780849260409485528339810103126103ab5761004d6020610046836103af565b92016103af565b600180556001600160a01b0390911690811561039c576001600160a01b0381161561039c5761009291608052610082816103c3565b5061008c81610439565b506104b9565b505f5160206117025f395f51905f525f81815260208190527ff6c17da3865d9645546db4630d07c45803fb99f9b61dd452de8de1cd2159d25580545f5160206116c25f395f51905f5291829055909290917fbd79b86ffe0ab8e8776151514217cd7cacd52c909f66475c3af44e129f0b00ff9080a46276a7005f5260026020525f5160206116625f395f51905f525460ff1661038d576276a7005f5260026020525f5160206116625f395f51905f52805460ff191660011790556101f47fa1ef5b42f18533d67a183a193ea6c3fabfaa3bdabc3fc0e3f65b19b517df6e8d5560075468010000000000000000811015610379576001810180600755811015610365576276a7009060075f5260205f2001556101f46276a7005f5160206116a25f395f51905f525f80a362ed4e005f5260026020525f5160206116425f395f51905f525460ff1661038d5762ed4e005f5260026020525f5160206116425f395f51905f52805460ff191660011790556103207f089cfcbf844e824feee5f634cbc488382291f3c9e0de5905f3c30812390dd83355600754680100000000000000008110156103795760018101806007558110156103655762ed4e009060075f5260205f20015561032062ed4e005f5160206116a25f395f51905f525f80a36301e133805f5260026020525f5160206116e25f395f51905f525460ff1661038d576301e133805f5260026020525f5160206116e25f395f51905f52805460ff191660011790556104b07fdc083eb4da7563bbd761324b5158d9d40af7c7174afe39b0b31a7577c44fc33c5560075468010000000000000000811015610379576001810180600755811015610365576301e133809060075f5260205f2001556104b06301e133805f5160206116a25f395f51905f525f80a360ff19600654166006556040516110c8908161053a82396080518181816101a5015281816102d90152818161070a01528181610a200152610ea30152f35b634e487b7160e01b5f52603260045260245ffd5b634e487b7160e01b5f52604160045260245ffd5b635770685760e11b5f5260045ffd5b63f6b2911f60e01b5f5260045ffd5b5f80fd5b51906001600160a01b03821682036103ab57565b6001600160a01b0381165f9081525f5160206117225f395f51905f52602052604090205460ff16610434576001600160a01b03165f8181525f5160206117225f395f51905f5260205260408120805460ff191660011790553391905f5160206116025f395f51905f528180a4600190565b505f90565b6001600160a01b0381165f9081525f5160206116225f395f51905f52602052604090205460ff16610434576001600160a01b03165f8181525f5160206116225f395f51905f5260205260408120805460ff191660011790553391905f5160206116c25f395f51905f52905f5160206116025f395f51905f529080a4600190565b6001600160a01b0381165f9081525f5160206116825f395f51905f52602052604090205460ff16610434576001600160a01b03165f8181525f5160206116825f395f51905f5260205260408120805460ff191660011790553391905f5160206117025f395f51905f52905f5160206116025f395f51905f529080a460019056fe6080806040526004361015610012575f80fd5b5f3560e01c90816301ffc9a714610b6e57508063097aad1014610b4b57806315b31bbb14610ad1578063248a9ca314610a9f5780632def6620146109975780632f2ff15d1461095a57806336568abe14610916578063372500ab146108b15780635ef23fa9146107ec5780637b0472f014610693578063809336081461059d57806391d14854146105555780639fca9c221461051d578063a217fddf14610503578063aea1b6ef1461040e578063b6b365c214610358578063beceed391461024e578063d547741f1461020a578063db2e21bc1461012f5763dfe6b5d6146100f8575f80fd5b3461012b575f36600319011261012b57606060045460055460ff6006541690604051928352602083015215156040820152f35b5f80fd5b3461012b575f36600319011261012b57610147610d21565b335f52600360205260405f20600681019081549160ff8316156101fb57816002915f93549484835584600184015584600384015584600484015584600584015560ff19169055015561019b81600454610c03565b6004556101c981337f0000000000000000000000000000000000000000000000000000000000000000610e1e565b6040519081527f5fafa99d0643513820be26656b45130b01e1c03062e1266bf36f88cbd3bd969560203392a260018055005b637d9a44a160e11b5f5260045ffd5b3461012b57604036600319011261012b5761024c600435610229610bd7565b90610247610242825f525f602052600160405f20015490565b610de6565b610f6b565b005b3461012b57602036600319011261012b5760043561026a610d21565b335f9081527ff6c17da3865d9645546db4630d07c45803fb99f9b61dd452de8de1cd2159d254602052604090205460ff1615610321578015610312576020816103027ff8fad42e780bfa5459be3fe691e8ba1aec70342250112139c5771c3fd155f312936005546102fd8230337f0000000000000000000000000000000000000000000000000000000000000000610feb565b610cc6565b600555604051908152a160018055005b63162908e360e11b5f5260045ffd5b63e2517d3f60e01b5f52336004527f51785d261c3b3e8c2cfe2d0e108b9ab2b1fb703ff9e9e49aba4ebdc85c36152b60245260445ffd5b3461012b575f36600319011261012b576040518060206007549283815201809260075f527fa66cc928b5edb82af9bd49922954155ab7b0942694bea4ce44661d9a8736c688905f5b8181106103f857505050816103b6910382610cd3565b604051918291602083019060208452518091526040830191905f5b8181106103df575050500390f35b82518452859450602093840193909201916001016103d1565b82548452602090930192600192830192016103a0565b3461012b57606036600319011261012b576004356024359060443580151580910361012b5761043b610d21565b610443610d77565b5f6007545f5b8181106104d9575b5050156104ca57815f52600260205260405f20908360018301818154036104c2575b50508060ff8354161515036104af575b50507fad2954a6781cdc42b8af5df6f557041b3f146aaf8fbc031d767b7ad48164cff15f80a360018055005b60ff801983541691161790558280610483565b558385610473565b637616640160e01b5f5260045ffd5b846104e382610cf5565b90549060031b1c146104f757600101610449565b50505060018480610451565b3461012b575f36600319011261012b5760206040515f8152f35b3461012b57602036600319011261012b576004355f5260026020526040805f20600160ff825416910154825191151582526020820152f35b3461012b57604036600319011261012b5761056e610bd7565b6004355f525f60205260405f209060018060a01b03165f52602052602060ff60405f2054166040519015158152f35b3461012b57602036600319011261012b576105b6610bc1565b60405160e081019181831067ffffffffffffffff84111761067f5760e0926040525f8252602082015f8152604083015f8152606084015f815260808501915f835260a08601935f855261064e60c08801965f885260018060a01b0381165f52600360205260ff600660405f2080548c526001810154865260038101548752600481015488526005810154895201541615158852610c37565b8552604051965187525160208701525160408601525160608501525160808401525160a083015251151560c0820152f35b634e487b7160e01b5f52604160045260245ffd5b3461012b576106a136610bed565b906106aa610d21565b60ff60065416600454906107dd57811561031257825f52600260205260405f2060ff815416156104ca5761075e918391335f52600360205260405f20906001600683019160ff835416610799575b6107028942610cc6565b61072e8730337f0000000000000000000000000000000000000000000000000000000000000000610feb565b8685554283860155600385015588600485015501546005830155600160ff19825416179055600242910155610cc6565b6004556040519081525f60208201527fb4caaf29adda3eefee3ad552a8e85058589bf834c7466cae4ee58787f70589ed60403392a360018055005b8184015480151590816107d2575b50156106f8576107b633610c37565b806107c2575b506106f8565b6107cc9033610e60565b896107bc565b90504210158a6107a7565b631a4a6f3b60e21b5f5260045ffd5b3461012b576107fa36610bed565b90610803610d21565b61080b610d77565b80156104ca57805f52600260205260ff60405f2054166108a257805f52600260205281600160405f208160ff1982541617815501556007546801000000000000000081101561067f578060016108649201600755610cf5565b81549060031b9083821b915f19901b19161790557f682563ed446791dcd2bb66aa531ebaf528bce493e57f037313263799851bc3645f80a360018055005b635770685760e11b5f5260045ffd5b3461012b575f36600319011261012b576108c9610d21565b335f52600360205260405f2060ff600682015416156101fb576108eb33610c37565b8015610907576109019160024291015533610e60565b60018055005b63afb0be3360e01b5f5260045ffd5b3461012b57604036600319011261012b5761092f610bd7565b336001600160a01b0382160361094b5761024c90600435610f6b565b63334bd91960e11b5f5260045ffd5b3461012b57604036600319011261012b5761024c600435610979610bd7565b90610992610242825f525f602052600160405f20015490565b610ee9565b3461012b575f36600319011261012b576109af610d21565b335f52600360205260405f206006810180549160ff8316156101fb5760038101918254421115610a9057816002915f935495846109eb33610c37565b968185558160018601555584600484015584600584015560ff191690550155610a1682600454610c03565b600455610a4482337f0000000000000000000000000000000000000000000000000000000000000000610e1e565b80610a81575b60405191825260208201527f7fc4727e062e336010f2c282598ef5f14facb3de68cf8195c2f23e1454b2b74e60403392a260018055005b610a8b8133610e60565b610a4a565b6325e5ff6560e01b5f5260045ffd5b3461012b57602036600319011261012b576020610ac96004355f525f602052600160405f20015490565b604051908152f35b3461012b57602036600319011261012b5760043580151580910361012b57610af7610d21565b610aff610d77565b6006548160ff8216151503610b145760018055005b60ff191660ff8216176006557f3cf4fe733160f8f8c48336fab32acee32ebaaa423a08a2be4e5ceff97dd98c695f80a28080610901565b3461012b57602036600319011261012b576020610ac9610b69610bc1565b610c37565b3461012b57602036600319011261012b576004359063ffffffff60e01b821680920361012b57602091637965db0b60e01b8114908115610bb0575b5015158152f35b6301ffc9a760e01b14905083610ba9565b600435906001600160a01b038216820361012b57565b602435906001600160a01b038216820361012b57565b604090600319011261012b576004359060243590565b91908203918211610c1057565b634e487b7160e01b5f52601160045260245ffd5b81810292918115918404141715610c1057565b6001600160a01b03165f908152600360205260409020600681015460ff16158015610cbd575b610cb857610c7f42600383015480421015610cb0575b50600283015490610c03565b908115610caa5764496cebb80091610ca1826005610ca6945491015490610c24565b610c24565b0490565b50505f90565b90505f610c73565b505f90565b50805415610c5d565b91908201809211610c1057565b90601f8019910116810190811067ffffffffffffffff82111761067f57604052565b600754811015610d0d5760075f5260205f2001905f90565b634e487b7160e01b5f52603260045260245ffd5b600260015414610d32576002600155565b60405162461bcd60e51b815260206004820152601f60248201527f5265656e7472616e637947756172643a207265656e7472616e742063616c6c006044820152606490fd5b335f9081527f7d7ffb7a348e1c6a02869081a26547b49160dd3df72d1d75a570eb9b698292ec602052604090205460ff1615610daf57565b63e2517d3f60e01b5f52336004527fa49807205ce4d355092ef5a8a18f56e8913cf4a201fbe287825b095693c2177560245260445ffd5b5f8181526020818152604080832033845290915290205460ff1615610e085750565b63e2517d3f60e01b5f523360045260245260445ffd5b60405163a9059cbb60e01b60208201526001600160a01b039092166024830152604480830193909352918152610e5e91610e59606483610cd3565b61102f565b565b60055480831015610eda577f106f923f993c2149d49b4255ff723acafa1f2d94393f561d3eda32ae348f724191610e9984602093610c03565b600555610ec784827f0000000000000000000000000000000000000000000000000000000000000000610e1e565b6040519384526001600160a01b031692a2565b63447b0f6760e01b5f5260045ffd5b5f818152602081815260408083206001600160a01b038616845290915290205460ff16610caa575f818152602081815260408083206001600160a01b0395909516808452949091528120805460ff19166001179055339291907f2f8788117e7eff1d82e926ec794901d17c78024a50270940304540a733656f0d9080a4600190565b5f818152602081815260408083206001600160a01b038616845290915290205460ff1615610caa575f818152602081815260408083206001600160a01b0395909516808452949091528120805460ff19169055339291907ff6391f5c32d9c69d2a47ea670b442974b53935d1edc7fd64eb21e047a839171b9080a4600190565b6040516323b872dd60e01b60208201526001600160a01b039283166024820152929091166044830152606480830193909352918152610e5e91610e59608483610cd3565b905f602091828151910182855af115611087575f513d61107e57506001600160a01b0381163b155b61105e5750565b635274afe760e01b5f9081526001600160a01b0391909116600452602490fd5b60011415611057565b6040513d5f823e3d90fdfea2646970667358221220750f1d89420d65f0fddf3b02ea5972f1d7d1f14966d5c6701e52c18cdb657fdd64736f6c634300081c00332f8788117e7eff1d82e926ec794901d17c78024a50270940304540a733656f0d7d7ffb7a348e1c6a02869081a26547b49160dd3df72d1d75a570eb9b698292ec089cfcbf844e824feee5f634cbc488382291f3c9e0de5905f3c30812390dd832a1ef5b42f18533d67a183a193ea6c3fabfaa3bdabc3fc0e3f65b19b517df6e8cf6c17da3865d9645546db4630d07c45803fb99f9b61dd452de8de1cd2159d254682563ed446791dcd2bb66aa531ebaf528bce493e57f037313263799851bc364a49807205ce4d355092ef5a8a18f56e8913cf4a201fbe287825b095693c21775dc083eb4da7563bbd761324b5158d9d40af7c7174afe39b0b31a7577c44fc33b51785d261c3b3e8c2cfe2d0e108b9ab2b1fb703ff9e9e49aba4ebdc85c36152bad3228b676f7d3cd4284a5443f17f1962b36e491b30a40b2405849e597ba5fb5",
			"opcodes": "PUSH1 0xA0 PUSH1 0x1F PUSH2 0x1742 CODESIZE DUP2 SWAP1 SUB SWAP2 DUP3 ADD PUSH1 0x1F NOT AND DUP4 ADD SWAP2 PUSH1 0x1 PUSH1 0x1 PUSH1 0x40 SHL SUB DUP4 GT DUP5 DUP5 LT OR PUSH2 0x379 JUMPI DUP1 DUP5 SWAP3 PUSH1 0x40 SWAP5 DUP6 MSTORE DUP4 CODECOPY DUP2 ADD SUB SLT PUSH2 0x3AB JUMPI PUSH2 0x4D PUSH1 0x20 PUSH2 0x46 DUP4 PUSH2 0x3AF JUMP JUMPDEST SWAP3 ADD PUSH2 0x3AF JUMP JUMPDEST PUSH1 0x1 DUP1 SSTORE PUSH1 0x1 PUSH1 0x1 PUSH1 0xA0 SHL SUB SWAP1 SWAP2 AND SWAP1 DUP2 ISZERO PUSH2 0x39C JUMPI PUSH1 0x1 PUSH1 0x1 PUSH1 0xA0 SHL SUB DUP2 AND ISZERO PUSH2 0x39C JUMPI PUSH2 0x92 SWAP2 PUSH1 0x80 MSTORE PUSH2 0x82 DUP2 PUSH2 0x3C3 JUMP JUMPDEST POP PUSH2 0x8C DUP2 PUSH2 0x439 JUMP JUMPDEST POP PUSH2 0x4B9 JUMP JUMPDEST POP PUSH0 MLOAD PUSH1 0x20 PUSH2 0x1702 PUSH0 CODECOPY PUSH0 MLOAD SWAP1 PUSH0 MSTORE PUSH0 DUP2 DUP2 MSTORE PUSH1 0x20 DUP2 SWAP1 MSTORE PUSH32 0xF6C17DA3865D9645546DB4630D07C45803FB99F9B61DD452DE8DE1CD2159D255 DUP1 SLOAD PUSH0 MLOAD PUSH1 0x20 PUSH2 0x16C2 PUSH0 CODECOPY PUSH0 MLOAD SWAP1 PUSH0 MSTORE SWAP2 DUP3 SWAP1 SSTORE SWAP1 SWAP3 SWAP1 SWAP2 PUSH32 0xBD79B86FFE0AB8E8776151514217CD7CACD52C909F66475C3AF44E129F0B00FF SWAP1 DUP1 LOG4 PUSH3 0x76A700 PUSH0 MSTORE PUSH1 0x2 PUSH1 0x20 MSTORE PUSH0 MLOAD PUSH1 0x20 PUSH2 0x1662 PUSH0 CODECOPY PUSH0 MLOAD SWAP1 PUSH0 MSTORE SLOAD PUSH1 0xFF AND PUSH2 0x38D JUMPI PUSH3 0x76A700 PUSH0 MSTORE PUSH1 0x2 PUSH1 0x20 MSTORE PUSH0 MLOAD PUSH1 0x20 PUSH2 0x1662 PUSH0 CODECOPY PUSH0 MLOAD SWAP1 PUSH0 MSTORE DUP1 SLOAD PUSH1 0xFF NOT AND PUSH1 0x1 OR SWAP1 SSTORE PUSH2 0x1F4 PUSH32 0xA1EF5B42F18533D67A183A193EA6C3FABFAA3BDABC3FC0E3F65B19B517DF6E8D SSTORE PUSH1 0x7 SLOAD PUSH9 0x10000000000000000 DUP2 LT ISZERO PUSH2 0x379 JUMPI PUSH1 0x1 DUP2 ADD DUP1 PUSH1 0x7 SSTORE DUP2 LT ISZERO PUSH2 0x365 JUMPI PUSH3 0x76A700 SWAP1 PUSH1 0x7 PUSH0 MSTORE PUSH1 0x20 PUSH0 KECCAK256 ADD SSTORE PUSH2 0x1F4 PUSH3 0x76A700 PUSH0 MLOAD PUSH1 0x20 PUSH2 0x16A2 PUSH0 CODECOPY PUSH0 MLOAD SWAP1 PUSH0 MSTORE PUSH0 DUP1 LOG3 PUSH3 0xED4E00 PUSH0 MSTORE PUSH1 0x2 PUSH1 0x20 MSTORE PUSH0 MLOAD PUSH1 0x20 PUSH2 0x1642 PUSH0 CODECOPY PUSH0 MLOAD SWAP1 PUSH0 MSTORE SLOAD PUSH1 0xFF AND PUSH2 0x38D JUMPI PUSH3 0xED4E00 PUSH0 MSTORE PUSH1 0x2 PUSH1 0x20 MSTORE PUSH0 MLOAD PUSH1 0x20 PUSH2 0x1642 PUSH0 CODECOPY PUSH0 MLOAD SWAP1 PUSH0 MSTORE DUP1 SLOAD PUSH1 0xFF NOT AND PUSH1 0x1 OR SWAP1 SSTORE PUSH2 0x320 PUSH32 0x89CFCBF844E824FEEE5F634CBC488382291F3C9E0DE5905F3C30812390DD833 SSTORE PUSH1 0x7 SLOAD PUSH9 0x10000000000000000 DUP2 LT ISZERO PUSH2 0x379 JUMPI PUSH1 0x1 DUP2 ADD DUP1 PUSH1 0x7 SSTORE DUP2 LT ISZERO PUSH2 0x365 JUMPI PUSH3 0xED4E00 SWAP1 PUSH1 0x7 PUSH0 MSTORE PUSH1 0x20 PUSH0 KECCAK256 ADD SSTORE PUSH2 0x320 PUSH3 0xED4E00 PUSH0 MLOAD PUSH1 0x20 PUSH2 0x16A2 PUSH0 CODECOPY PUSH0 MLOAD SWAP1 PUSH0 MSTORE PUSH0 DUP1 LOG3 PUSH4 0x1E13380 PUSH0 MSTORE PUSH1 0x2 PUSH1 0x20 MSTORE PUSH0 MLOAD PUSH1 0x20 PUSH2 0x16E2 PUSH0 CODECOPY PUSH0 MLOAD SWAP1 PUSH0 MSTORE SLOAD PUSH1 0xFF AND PUSH2 0x38D JUMPI PUSH4 0x1E13380 PUSH0 MSTORE PUSH1 0x2 PUSH1 0x20 MSTORE PUSH0 MLOAD PUSH1 0x20 PUSH2 0x16E2 PUSH0 CODECOPY PUSH0 MLOAD SWAP1 PUSH0 MSTORE DUP1 SLOAD PUSH1 0xFF NOT AND PUSH1 0x1 OR SWAP1 SSTORE PUSH2 0x4B0 PUSH32 0xDC083EB4DA7563BBD761324B5158D9D40AF7C7174AFE39B0B31A7577C44FC33C SSTORE PUSH1 0x7 SLOAD PUSH9 0x10000000000000000 DUP2 LT ISZERO PUSH2 0x379 JUMPI PUSH1 0x1 DUP2 ADD DUP1 PUSH1 0x7 SSTORE DUP2 LT ISZERO PUSH2 0x365 JUMPI PUSH4 0x1E13380 SWAP1 PUSH1 0x7 PUSH0 MSTORE PUSH1 0x20 PUSH0 KECCAK256 ADD SSTORE PUSH2 0x4B0 PUSH4 0x1E13380 PUSH0 MLOAD PUSH1 0x20 PUSH2 0x16A2 PUSH0 CODECOPY PUSH0 MLOAD SWAP1 PUSH0 MSTORE PUSH0 DUP1 LOG3 PUSH1 0xFF NOT PUSH1 0x6 SLOAD AND PUSH1 0x6 SSTORE PUSH1 0x40 MLOAD PUSH2 0x10C8 SWAP1 DUP2 PUSH2 0x53A DUP3 CODECOPY PUSH1 0x80 MLOAD DUP2 DUP2 DUP2 PUSH2 0x1A5 ADD MSTORE DUP2 DUP2 PUSH2 0x2D9 ADD MSTORE DUP2 DUP2 PUSH2 0x70A ADD MSTORE DUP2 DUP2 PUSH2 0xA20 ADD MSTORE PUSH2 0xEA3 ADD MSTORE RETURN JUMPDEST PUSH4 0x4E487B71 PUSH1 0xE0 SHL PUSH0 MSTORE PUSH1 0x32 PUSH1 0x4 MSTORE PUSH1 0x24 PUSH0 REVERT JUMPDEST PUSH4 0x4E487B71 PUSH1 0xE0 SHL PUSH0 MSTORE PUSH1 0x41 PUSH1 0x4 MSTORE PUSH1 0x24 PUSH0 REVERT JUMPDEST PUSH4 0x57706857 PUSH1 0xE1 SHL PUSH0 MSTORE PUSH1 0x4 PUSH0 REVERT JUMPDEST PUSH4 0xF6B2911F PUSH1 0xE0 SHL PUSH0 MSTORE PUSH1 0x4 PUSH0 REVERT JUMPDEST PUSH0 DUP1 REVERT JUMPDEST MLOAD SWAP1 PUSH1 0x1 PUSH1 0x1 PUSH1 0xA0 SHL SUB DUP3 AND DUP3 SUB PUSH2 0x3AB JUMPI JUMP JUMPDEST PUSH1 0x1 PUSH1 0x1 PUSH1 0xA0 SHL SUB DUP2 AND PUSH0 SWAP1 DUP2 MSTORE PUSH0 MLOAD PUSH1 0x20 PUSH2 0x1722 PUSH0 CODECOPY PUSH0 MLOAD SWAP1 PUSH0 MSTORE PUSH1 0x20 MSTORE PUSH1 0x40 SWAP1 KECCAK256 SLOAD PUSH1 0xFF AND PUSH2 0x434 JUMPI PUSH1 0x1 PUSH1 0x1 PUSH1 0xA0 SHL SUB AND PUSH0 DUP2 DUP2 MSTORE PUSH0 MLOAD PUSH1 0x20 PUSH2 0x1722 PUSH0 CODECOPY PUSH0 MLOAD SWAP1 PUSH0 MSTORE PUSH1 0x20 MSTORE PUSH1 0x40 DUP2 KECCAK256 DUP1 SLOAD PUSH1 0xFF NOT AND PUSH1 0x1 OR SWAP1 SSTORE CALLER SWAP2 SWAP1 PUSH0 MLOAD PUSH1 0x20 PUSH2 0x1602 PUSH0 CODECOPY PUSH0 MLOAD SWAP1 PUSH0 MSTORE DUP2 DUP1 LOG4 PUSH1 0x1 SWAP1 JUMP JUMPDEST POP PUSH0 SWAP1 JUMP JUMPDEST PUSH1 0x1 PUSH1 0x1 PUSH1 0xA0 SHL SUB DUP2 AND PUSH0 SWAP1 DUP2 MSTORE PUSH0 MLOAD PUSH1 0x20 PUSH2 0x1622 PUSH0 CODECOPY PUSH0 MLOAD SWAP1 PUSH0 MSTORE PUSH1 0x20 MSTORE PUSH1 0x40 SWAP1 KECCAK256 SLOAD PUSH1 0xFF AND PUSH2 0x434 JUMPI PUSH1 0x1 PUSH1 0x1 PUSH1 0xA0 SHL SUB AND PUSH0 DUP2 DUP2 MSTORE PUSH0 MLOAD PUSH1 0x20 PUSH2 0x1622 PUSH0 CODECOPY PUSH0 MLOAD SWAP1 PUSH0 MSTORE PUSH1 0x20 MSTORE PUSH1 0x40 DUP2 KECCAK256 DUP1 SLOAD PUSH1 0xFF NOT AND PUSH1 0x1 OR SWAP1 SSTORE CALLER SWAP2 SWAP1 PUSH0 MLOAD PUSH1 0x20 PUSH2 0x16C2 PUSH0 CODECOPY PUSH0 MLOAD SWAP1 PUSH0 MSTORE SWAP1 PUSH0 MLOAD PUSH1 0x20 PUSH2 0x1602 PUSH0 CODECOPY PUSH0 MLOAD SWAP1 PUSH0 MSTORE SWAP1 DUP1 LOG4 PUSH1 0x1 SWAP1 JUMP JUMPDEST PUSH1 0x1 PUSH1 0x1 PUSH1 0xA0 SHL SUB DUP2 AND PUSH0 SWAP1 DUP2 MSTORE PUSH0 MLOAD PUSH1 0x20 PUSH2 0x1682 PUSH0 CODECOPY PUSH0 MLOAD SWAP1 PUSH0 MSTORE PUSH1 0x20 MSTORE PUSH1 0x40 SWAP1 KECCAK256 SLOAD PUSH1 0xFF AND PUSH2 0x434 JUMPI PUSH1 0x1 PUSH1 0x1 PUSH1 0xA0 SHL SUB AND PUSH0 DUP2 DUP2 MSTORE PUSH0 MLOAD PUSH1 0x20 PUSH2 0x1682 PUSH0 CODECOPY PUSH0 MLOAD SWAP1 PUSH0 MSTORE PUSH1 0x20 MSTORE PUSH1 0x40 DUP2 KECCAK256 DUP1 SLOAD PUSH1 0xFF NOT AND PUSH1 0x1 OR SWAP1 SSTORE CALLER SWAP2 SWAP1 PUSH0 MLOAD PUSH1 0x20 PUSH2 0x1702 PUSH0 CODECOPY PUSH0 MLOAD SWAP1 PUSH0 MSTORE SWAP1 PUSH0 MLOAD PUSH1 0x20 PUSH2 0x1602 PUSH0 CODECOPY PUSH0 MLOAD SWAP1 PUSH0 MSTORE SWAP1 DUP1 LOG4 PUSH1 0x1 SWAP1 JUMP INVALID PUSH1 0x80 DUP1 PUSH1 0x40 MSTORE PUSH1 0x4 CALLDATASIZE LT ISZERO PUSH2 0x12 JUMPI PUSH0 DUP1 REVERT JUMPDEST PUSH0 CALLDATALOAD PUSH1 0xE0 SHR SWAP1 DUP2 PUSH4 0x1FFC9A7 EQ PUSH2 0xB6E JUMPI POP DUP1 PUSH4 0x97AAD10 EQ PUSH2 0xB4B JUMPI DUP1 PUSH4 0x15B31BBB EQ PUSH2 0xAD1 JUMPI DUP1 PUSH4 0x248A9CA3 EQ PUSH2 0xA9F JUMPI DUP1 PUSH4 0x2DEF6620 EQ PUSH2 0x997 JUMPI DUP1 PUSH4 0x2F2FF15D EQ PUSH2 0x95A JUMPI DUP1 PUSH4 0x36568ABE EQ PUSH2 0x916 JUMPI DUP1 PUSH4 0x372500AB EQ PUSH2 0x8B1 JUMPI DUP1 PUSH4 0x5EF23FA9 EQ PUSH2 0x7EC JUMPI DUP1 PUSH4 0x7B0472F0 EQ PUSH2 0x693 JUMPI DUP1 PUSH4 0x80933608 EQ PUSH2 0x59D JUMPI DUP1 PUSH4 0x91D14854 EQ PUSH2 0x555 JUMPI DUP1 PUSH4 0x9FCA9C22 EQ PUSH2 0x51D JUMPI DUP1 PUSH4 0xA217FDDF EQ PUSH2 0x503 JUMPI DUP1 PUSH4 0xAEA1B6EF EQ PUSH2 0x40E JUMPI DUP1 PUSH4 0xB6B365C2 EQ PUSH2 0x358 JUMPI DUP1 PUSH4 0xBECEED39 EQ PUSH2 0x24E JUMPI DUP1 PUSH4 0xD547741F EQ PUSH2 0x20A JUMPI DUP1 PUSH4 0xDB2E21BC EQ PUSH2 0x12F JUMPI PUSH4 0xDFE6B5D6 EQ PUSH2 0xF8 JUMPI PUSH0 DUP1 REVERT JUMPDEST CALLVALUE PUSH2 0x12B JUMPI PUSH0 CALLDATASIZE PUSH1 0x3 NOT ADD SLT PUSH2 0x12B JUMPI PUSH1 0x60 PUSH1 0x4 SLOAD PUSH1 0x5 SLOAD PUSH1 0xFF PUSH1 0x6 SLOAD AND SWAP1 PUSH1 0x40 MLOAD SWAP3 DUP4 MSTORE PUSH1 0x20 DUP4 ADD MSTORE ISZERO ISZERO PUSH1 0x40 DUP3 ADD MSTORE RETURN JUMPDEST PUSH0 DUP1 REVERT JUMPDEST CALLVALUE PUSH2 0x12B JUMPI PUSH0 CALLDATASIZE PUSH1 0x3 NOT ADD SLT PUSH2 0x12B JUMPI PUSH2 0x147 PUSH2 0xD21 JUMP JUMPDEST CALLER PUSH0 MSTORE PUSH1 0x3 PUSH1 0x20 MSTORE PUSH1 0x40 PUSH0 KECCAK256 PUSH1 0x6 DUP2 ADD SWAP1 DUP2 SLOAD SWAP2 PUSH1 0xFF DUP4 AND ISZERO PUSH2 0x1FB JUMPI DUP2 PUSH1 0x2 SWAP2 PUSH0 SWAP4 SLOAD SWAP5 DUP5 DUP4 SSTORE DUP5 PUSH1 0x1 DUP5 ADD SSTORE DUP5 PUSH1 0x3 DUP5 ADD SSTORE DUP5 PUSH1 0x4 DUP5 ADD SSTORE DUP5 PUSH1 0x5 DUP5 ADD SSTORE PUSH1 0xFF NOT AND SWAP1 SSTORE ADD SSTORE PUSH2 0x19B DUP2 PUSH1 0x4 SLOAD PUSH2 0xC03 JUMP JUMPDEST PUSH1 0x4 SSTORE PUSH2 0x1C9 DUP2 CALLER PUSH32 0x0 PUSH2 0xE1E JUMP JUMPDEST PUSH1 0x40 MLOAD SWAP1 DUP2 MSTORE PUSH32 0x5FAFA99D0643513820BE26656B45130B01E1C03062E1266BF36F88CBD3BD9695 PUSH1 0x20 CALLER SWAP3 LOG2 PUSH1 0x1 DUP1 SSTORE STOP JUMPDEST PUSH4 0x7D9A44A1 PUSH1 0xE1 SHL PUSH0 MSTORE PUSH1 0x4 PUSH0 REVERT JUMPDEST CALLVALUE PUSH2 0x12B JUMPI PUSH1 0x40 CALLDATASIZE PUSH1 0x3 NOT ADD SLT PUSH2 0x12B JUMPI PUSH2 0x24C PUSH1 0x4 CALLDATALOAD PUSH2 0x229 PUSH2 0xBD7 JUMP JUMPDEST SWAP1 PUSH2 0x247 PUSH2 0x242 DUP3 PUSH0 MSTORE PUSH0 PUSH1 0x20 MSTORE PUSH1 0x1 PUSH1 0x40 PUSH0 KECCAK256 ADD SLOAD SWAP1 JUMP JUMPDEST PUSH2 0xDE6 JUMP JUMPDEST PUSH2 0xF6B JUMP JUMPDEST STOP JUMPDEST CALLVALUE PUSH2 0x12B JUMPI PUSH1 0x20 CALLDATASIZE PUSH1 0x3 NOT ADD SLT PUSH2 0x12B JUMPI PUSH1 0x4 CALLDATALOAD PUSH2 0x26A PUSH2 0xD21 JUMP JUMPDEST CALLER PUSH0 SWAP1 DUP2 MSTORE PUSH32 0xF6C17DA3865D9645546DB4630D07C45803FB99F9B61DD452DE8DE1CD2159D254 PUSH1 0x20 MSTORE PUSH1 0x40 SWAP1 KECCAK256 SLOAD PUSH1 0xFF AND ISZERO PUSH2 0x321 JUMPI DUP1 ISZERO PUSH2 0x312 JUMPI PUSH1 0x20 DUP2 PUSH2 0x302 PUSH32 0xF8FAD42E780BFA5459BE3FE691E8BA1AEC70342250112139C5771C3FD155F312 SWAP4 PUSH1 0x5 SLOAD PUSH2 0x2FD DUP3 ADDRESS CALLER PUSH32 0x0 PUSH2 0xFEB JUMP JUMPDEST PUSH2 0xCC6 JUMP JUMPDEST PUSH1 0x5 SSTORE PUSH1 0x40 MLOAD SWAP1 DUP2 MSTORE LOG1 PUSH1 0x1 DUP1 SSTORE STOP JUMPDEST PUSH4 0x162908E3 PUSH1 0xE1 SHL PUSH0 MSTORE PUSH1 0x4 PUSH0 REVERT JUMPDEST PUSH4 0xE2517D3F PUSH1 0xE0 SHL PUSH0 MSTORE CALLER PUSH1 0x4 MSTORE PUSH32 0x51785D261C3B3E8C2CFE2D0E108B9AB2B1FB703FF9E9E49ABA4EBDC85C36152B PUSH1 0x24 MSTORE PUSH1 0x44 PUSH0 REVERT JUMPDEST CALLVALUE PUSH2 0x12B JUMPI PUSH0 CALLDATASIZE PUSH1 0x3 NOT ADD SLT PUSH2 0x12B JUMPI PUSH1 0x40 MLOAD DUP1 PUSH1 0x20 PUSH1 0x7 SLOAD SWAP3 DUP4 DUP2 MSTORE ADD DUP1 SWAP3 PUSH1 0x7 PUSH0 MSTORE PUSH32 0xA66CC928B5EDB82AF9BD49922954155AB7B0942694BEA4CE44661D9A8736C688 SWAP1 PUSH0 JUMPDEST DUP2 DUP2 LT PUSH2 0x3F8 JUMPI POP POP POP DUP2 PUSH2 0x3B6 SWAP2 SUB DUP3 PUSH2 0xCD3 JUMP JUMPDEST PUSH1 0x40 MLOAD SWAP2 DUP3 SWAP2 PUSH1 0x20 DUP4 ADD SWAP1 PUSH1 0x20 DUP5 MSTORE MLOAD DUP1 SWAP2 MSTORE PUSH1 0x40 DUP4 ADD SWAP2 SWAP1 PUSH0 JUMPDEST DUP2 DUP2 LT PUSH2 0x3DF JUMPI POP POP POP SUB SWAP1 RETURN JUMPDEST DUP3 MLOAD DUP5 MSTORE DUP6 SWAP5 POP PUSH1 0x20 SWAP4 DUP5 ADD SWAP4 SWAP1 SWAP3 ADD SWAP2 PUSH1 0x1 ADD PUSH2 0x3D1 JUMP JUMPDEST DUP3 SLOAD DUP5 MSTORE PUSH1 0x20 SWAP1 SWAP4 ADD SWAP3 PUSH1 0x1 SWAP3 DUP4 ADD SWAP3 ADD PUSH2 0x3A0 JUMP JUMPDEST CALLVALUE PUSH2 0x12B JUMPI PUSH1 0x60 CALLDATASIZE PUSH1 0x3 NOT ADD SLT PUSH2 0x12B JUMPI PUSH1 0x4 CALLDATALOAD PUSH1 0x24 CALLDATALOAD SWAP1 PUSH1 0x44 CALLDATALOAD DUP1 ISZERO ISZERO DUP1 SWAP2 SUB PUSH2 0x12B JUMPI PUSH2 0x43B PUSH2 0xD21 JUMP JUMPDEST PUSH2 0x443 PUSH2 0xD77 JUMP JUMPDEST PUSH0 PUSH1 0x7 SLOAD PUSH0 JUMPDEST DUP2 DUP2 LT PUSH2 0x4D9 JUMPI JUMPDEST POP POP ISZERO PUSH2 0x4CA JUMPI DUP2 PUSH0 MSTORE PUSH1 0x2 PUSH1 0x20 MSTORE PUSH1 0x40 PUSH0 KECCAK256 SWAP1 DUP4 PUSH1 0x1 DUP4 ADD DUP2 DUP2 SLOAD SUB PUSH2 0x4C2 JUMPI JUMPDEST POP POP DUP1 PUSH1 0xFF DUP4 SLOAD AND ISZERO ISZERO SUB PUSH2 0x4AF JUMPI JUMPDEST POP POP PUSH32 0xAD2954A6781CDC42B8AF5DF6F557041B3F146AAF8FBC031D767B7AD48164CFF1 PUSH0 DUP1 LOG3 PUSH1 0x1 DUP1 SSTORE STOP JUMPDEST PUSH1 0xFF DUP1 NOT DUP4 SLOAD AND SWAP2 AND OR SWAP1 SSTORE DUP3 DUP1 PUSH2 0x483 JUMP JUMPDEST SSTORE DUP4 DUP6 PUSH2 0x473 JUMP JUMPDEST PUSH4 0x76166401 PUSH1 0xE0 SHL PUSH0 MSTORE PUSH1 0x4 PUSH0 REVERT JUMPDEST DUP5 PUSH2 0x4E3 DUP3 PUSH2 0xCF5 JUMP JUMPDEST SWAP1 SLOAD SWAP1 PUSH1 0x3 SHL SHR EQ PUSH2 0x4F7 JUMPI PUSH1 0x1 ADD PUSH2 0x449 JUMP JUMPDEST POP POP POP PUSH1 0x1 DUP5 DUP1 PUSH2 0x451 JUMP JUMPDEST CALLVALUE PUSH2 0x12B JUMPI PUSH0 CALLDATASIZE PUSH1 0x3 NOT ADD SLT PUSH2 0x12B JUMPI PUSH1 0x20 PUSH1 0x40 MLOAD PUSH0 DUP2 MSTORE RETURN JUMPDEST CALLVALUE PUSH2 0x12B JUMPI PUSH1 0x20 CALLDATASIZE PUSH1 0x3 NOT ADD SLT PUSH2 0x12B JUMPI PUSH1 0x4 CALLDATALOAD PUSH0 MSTORE PUSH1 0x2 PUSH1 0x20 MSTORE PUSH1 0x40 DUP1 PUSH0 KECCAK256 PUSH1 0x1 PUSH1 0xFF DUP3 SLOAD AND SWAP2 ADD SLOAD DUP3 MLOAD SWAP2 ISZERO ISZERO DUP3 MSTORE PUSH1 0x20 DUP3 ADD MSTORE RETURN JUMPDEST CALLVALUE PUSH2 0x12B JUMPI PUSH1 0x40 CALLDATASIZE PUSH1 0x3 NOT ADD SLT PUSH2 0x12B JUMPI PUSH2 0x56E PUSH2 0xBD7 JUMP JUMPDEST PUSH1 0x4 CALLDATALOAD PUSH0 MSTORE PUSH0 PUSH1 0x20 MSTORE PUSH1 0x40 PUSH0 KECCAK256 SWAP1 PUSH1 0x1 DUP1 PUSH1 0xA0 SHL SUB AND PUSH0 MSTORE PUSH1 0x20 MSTORE PUSH1 0x20 PUSH1 0xFF PUSH1 0x40 PUSH0 KECCAK256 SLOAD AND PUSH1 0x40 MLOAD SWAP1 ISZERO ISZERO DUP2 MSTORE RETURN JUMPDEST CALLVALUE PUSH2 0x12B JUMPI PUSH1 0x20 CALLDATASIZE PUSH1 0x3 NOT ADD SLT PUSH2 0x12B JUMPI PUSH2 0x5B6 PUSH2 0xBC1 JUMP JUMPDEST PUSH1 0x40 MLOAD PUSH1 0xE0 DUP2 ADD SWAP2 DUP2 DUP4 LT PUSH8 0xFFFFFFFFFFFFFFFF DUP5 GT OR PUSH2 0x67F JUMPI PUSH1 0xE0 SWAP3 PUSH1 0x40 MSTORE PUSH0 DUP3 MSTORE PUSH1 0x20 DUP3 ADD PUSH0 DUP2 MSTORE PUSH1 0x40 DUP4 ADD PUSH0 DUP2 MSTORE PUSH1 0x60 DUP5 ADD PUSH0 DUP2 MSTORE PUSH1 0x80 DUP6 ADD SWAP2 PUSH0 DUP4 MSTORE PUSH1 0xA0 DUP7 ADD SWAP4 PUSH0 DUP6 MSTORE PUSH2 0x64E PUSH1 0xC0 DUP9 ADD SWAP7 PUSH0 DUP9 MSTORE PUSH1 0x1 DUP1 PUSH1 0xA0 SHL SUB DUP2 AND PUSH0 MSTORE PUSH1 0x3 PUSH1 0x20 MSTORE PUSH1 0xFF PUSH1 0x6 PUSH1 0x40 PUSH0 KECCAK256 DUP1 SLOAD DUP13 MSTORE PUSH1 0x1 DUP2 ADD SLOAD DUP7 MSTORE PUSH1 0x3 DUP2 ADD SLOAD DUP8 MSTORE PUSH1 0x4 DUP2 ADD SLOAD DUP9 MSTORE PUSH1 0x5 DUP2 ADD SLOAD DUP10 MSTORE ADD SLOAD AND ISZERO ISZERO DUP9 MSTORE PUSH2 0xC37 JUMP JUMPDEST DUP6 MSTORE PUSH1 0x40 MLOAD SWAP7 MLOAD DUP8 MSTORE MLOAD PUSH1 0x20 DUP8 ADD MSTORE MLOAD PUSH1 0x40 DUP7 ADD MSTORE MLOAD PUSH1 0x60 DUP6 ADD MSTORE MLOAD PUSH1 0x80 DUP5 ADD MSTORE MLOAD PUSH1 0xA0 DUP4 ADD MSTORE MLOAD ISZERO ISZERO PUSH1 0xC0 DUP3 ADD MSTORE RETURN JUMPDEST PUSH4 0x4E487B71 PUSH1 0xE0 SHL PUSH0 MSTORE PUSH1 0x41 PUSH1 0x4 MSTORE PUSH1 0x24 PUSH0 REVERT JUMPDEST CALLVALUE PUSH2 0x12B JUMPI PUSH2 0x6A1 CALLDATASIZE PUSH2 0xBED JUMP JUMPDEST SWAP1 PUSH2 0x6AA PUSH2 0xD21 JUMP JUMPDEST PUSH1 0xFF PUSH1 0x6 SLOAD AND PUSH1 0x4 SLOAD SWAP1 PUSH2 0x7DD JUMPI DUP2 ISZERO PUSH2 0x312 JUMPI DUP3 PUSH0 MSTORE PUSH1 0x2 PUSH1 0x20 MSTORE PUSH1 0x40 PUSH0 KECCAK256 PUSH1 0xFF DUP2 SLOAD AND ISZERO PUSH2 0x4CA JUMPI PUSH2 0x75E SWAP2 DUP4 SWAP2 CALLER PUSH0 MSTORE PUSH1 0x3 PUSH1 0x20 MSTORE PUSH1 0x40 PUSH0 KECCAK256 SWAP1 PUSH1 0x1 PUSH1 0x6 DUP4 ADD SWAP2 PUSH1 0xFF DUP4 SLOAD AND PUSH2 0x799 JUMPI JUMPDEST PUSH2 0x702 DUP10 TIMESTAMP PUSH2 0xCC6 JUMP JUMPDEST PUSH2 0x72E DUP8 ADDRESS CALLER PUSH32 0x0 PUSH2 0xFEB JUMP JUMPDEST DUP7 DUP6 SSTORE TIMESTAMP DUP4 DUP7 ADD SSTORE PUSH1 0x3 DUP6 ADD SSTORE DUP9 PUSH1 0x4 DUP6 ADD SSTORE ADD SLOAD PUSH1 0x5 DUP4 ADD SSTORE PUSH1 0x1 PUSH1 0xFF NOT DUP3 SLOAD AND OR SWAP1 SSTORE PUSH1 0x2 TIMESTAMP SWAP2 ADD SSTORE PUSH2 0xCC6 JUMP JUMPDEST PUSH1 0x4 SSTORE PUSH1 0x40 MLOAD SWAP1 DUP2 MSTORE PUSH0 PUSH1 0x20 DUP3 ADD MSTORE PUSH32 0xB4CAAF29ADDA3EEFEE3AD552A8E85058589BF834C7466CAE4EE58787F70589ED PUSH1 0x40 CALLER SWAP3 LOG3 PUSH1 0x1 DUP1 SSTORE STOP JUMPDEST DUP2 DUP5 ADD SLOAD DUP1 ISZERO ISZERO SWAP1 DUP2 PUSH2 0x7D2 JUMPI JUMPDEST POP ISZERO PUSH2 0x6F8 JUMPI PUSH2 0x7B6 CALLER PUSH2 0xC37 JUMP JUMPDEST DUP1 PUSH2 0x7C2 JUMPI JUMPDEST POP PUSH2 0x6F8 JUMP JUMPDEST PUSH2 0x7CC SWAP1 CALLER PUSH2 0xE60 JUMP JUMPDEST DUP10 PUSH2 0x7BC JUMP JUMPDEST SWAP1 POP TIMESTAMP LT ISZERO DUP11 PUSH2 0x7A7 JUMP JUMPDEST PUSH4 0x1A4A6F3B PUSH1 0xE2 SHL PUSH0 MSTORE PUSH1 0x4 PUSH0 REVERT JUMPDEST CALLVALUE PUSH2 0x12B JUMPI PUSH2 0x7FA CALLDATASIZE PUSH2 0xBED JUMP JUMPDEST SWAP1 PUSH2 0x803 PUSH2 0xD21 JUMP JUMPDEST PUSH2 0x80B PUSH2 0xD77 JUMP JUMPDEST DUP1 ISZERO PUSH2 0x4CA JUMPI DUP1 PUSH0 MSTORE PUSH1 0x2 PUSH1 0x20 MSTORE PUSH1 0xFF PUSH1 0x40 PUSH0 KECCAK256 SLOAD AND PUSH2 0x8A2 JUMPI DUP1 PUSH0 MSTORE PUSH1 0x2 PUSH1 0x20 MSTORE DUP2 PUSH1 0x1 PUSH1 0x40 PUSH0 KECCAK256 DUP2 PUSH1 0xFF NOT DUP3 SLOAD AND OR DUP2 SSTORE ADD SSTORE PUSH1 0x7 SLOAD PUSH9 0x10000000000000000 DUP2 LT ISZERO PUSH2 0x67F JUMPI DUP1 PUSH1 0x1 PUSH2 0x864 SWAP3 ADD PUSH1 0x7 SSTORE PUSH2 0xCF5 JUMP JUMPDEST DUP2 SLOAD SWAP1 PUSH1 0x3 SHL SWAP1 DUP4 DUP3 SHL SWAP2 PUSH0 NOT SWAP1 SHL NOT AND OR SWAP1 SSTORE PUSH32 0x682563ED446791DCD2BB66AA531EBAF528BCE493E57F037313263799851BC364 PUSH0 DUP1 LOG3 PUSH1 0x1 DUP1 SSTORE STOP JUMPDEST PUSH4 0x57706857 PUSH1 0xE1 SHL PUSH0 MSTORE PUSH1 0x4 PUSH0 REVERT JUMPDEST CALLVALUE PUSH2 0x12B JUMPI PUSH0 CALLDATASIZE PUSH1 0x3 NOT ADD SLT PUSH2 0x12B JUMPI PUSH2 0x8C9 PUSH2 0xD21 JUMP JUMPDEST CALLER PUSH0 MSTORE PUSH1 0x3 PUSH1 0x20 MSTORE PUSH1 0x40 PUSH0 KECCAK256 PUSH1 0xFF PUSH1 0x6 DUP3 ADD SLOAD AND ISZERO PUSH2 0x1FB JUMPI PUSH2 0x8EB CALLER PUSH2 0xC37 JUMP JUMPDEST DUP1 ISZERO PUSH2 0x907 JUMPI PUSH2 0x901 SWAP2 PUSH1 0x2 TIMESTAMP SWAP2 ADD SSTORE CALLER PUSH2 0xE60 JUMP JUMPDEST PUSH1 0x1 DUP1 SSTORE STOP JUMPDEST PUSH4 0xAFB0BE33 PUSH1 0xE0 SHL PUSH0 MSTORE PUSH1 0x4 PUSH0 REVERT JUMPDEST CALLVALUE PUSH2 0x12B JUMPI PUSH1 0x40 CALLDATASIZE PUSH1 0x3 NOT ADD SLT PUSH2 0x12B JUMPI PUSH2 0x92F PUSH2 0xBD7 JUMP JUMPDEST CALLER PUSH1 0x1 PUSH1 0x1 PUSH1 0xA0 SHL SUB DUP3 AND SUB PUSH2 0x94B JUMPI PUSH2 0x24C SWAP1 PUSH1 0x4 CALLDATALOAD PUSH2 0xF6B JUMP JUMPDEST PUSH4 0x334BD919 PUSH1 0xE1 SHL PUSH0 MSTORE PUSH1 0x4 PUSH0 REVERT JUMPDEST CALLVALUE PUSH2 0x12B JUMPI PUSH1 0x40 CALLDATASIZE PUSH1 0x3 NOT ADD SLT PUSH2 0x12B JUMPI PUSH2 0x24C PUSH1 0x4 CALLDATALOAD PUSH2 0x979 PUSH2 0xBD7 JUMP JUMPDEST SWAP1 PUSH2 0x992 PUSH2 0x242 DUP3 PUSH0 MSTORE PUSH0 PUSH1 0x20 MSTORE PUSH1 0x1 PUSH1 0x40 PUSH0 KECCAK256 ADD SLOAD SWAP1 JUMP JUMPDEST PUSH2 0xEE9 JUMP JUMPDEST CALLVALUE PUSH2 0x12B JUMPI PUSH0 CALLDATASIZE PUSH1 0x3 NOT ADD SLT PUSH2 0x12B JUMPI PUSH2 0x9AF PUSH2 0xD21 JUMP JUMPDEST CALLER PUSH0 MSTORE PUSH1 0x3 PUSH1 0x20 MSTORE PUSH1 0x40 PUSH0 KECCAK256 PUSH1 0x6 DUP2 ADD DUP1 SLOAD SWAP2 PUSH1 0xFF DUP4 AND ISZERO PUSH2 0x1FB JUMPI PUSH1 0x3 DUP2 ADD SWAP2 DUP3 SLOAD TIMESTAMP GT ISZERO PUSH2 0xA90 JUMPI DUP2 PUSH1 0x2 SWAP2 PUSH0 SWAP4 SLOAD SWAP6 DUP5 PUSH2 0x9EB CALLER PUSH2 0xC37 JUMP JUMPDEST SWAP7 DUP2 DUP6 SSTORE DUP2 PUSH1 0x1 DUP7 ADD SSTORE SSTORE DUP5 PUSH1 0x4 DUP5 ADD SSTORE DUP5 PUSH1 0x5 DUP5 ADD SSTORE PUSH1 0xFF NOT AND SWAP1 SSTORE ADD SSTORE PUSH2 0xA16 DUP3 PUSH1 0x4 SLOAD PUSH2 0xC03 JUMP JUMPDEST PUSH1 0x4 SSTORE PUSH2 0xA44 DUP3 CALLER PUSH32 0x0 PUSH2 0xE1E JUMP JUMPDEST DUP1 PUSH2 0xA81 JUMPI JUMPDEST PUSH1 0x40 MLOAD SWAP2 DUP3 MSTORE PUSH1 0x20 DUP3 ADD MSTORE PUSH32 0x7FC4727E062E336010F2C282598EF5F14FACB3DE68CF8195C2F23E1454B2B74E PUSH1 0x40 CALLER SWAP3 LOG2 PUSH1 0x1 DUP1 SSTORE STOP JUMPDEST PUSH2 0xA8B DUP2 CALLER PUSH2 0xE60 JUMP JUMPDEST PUSH2 0xA4A JUMP JUMPDEST PUSH4 0x25E5FF65 PUSH1 0xE0 SHL PUSH0 MSTORE PUSH1 0x4 PUSH0 REVERT JUMPDEST CALLVALUE PUSH2 0x12B JUMPI PUSH1 0x20 CALLDATASIZE PUSH1 0x3 NOT ADD SLT PUSH2 0x12B JUMPI PUSH1 0x20 PUSH2 0xAC9 PUSH1 0x4 CALLDATALOAD PUSH0 MSTORE PUSH0 PUSH1 0x20 MSTORE PUSH1 0x1 PUSH1 0x40 PUSH0 KECCAK256 ADD SLOAD SWAP1 JUMP JUMPDEST PUSH1 0x40 MLOAD SWAP1 DUP2 MSTORE RETURN JUMPDEST CALLVALUE PUSH2 0x12B JUMPI PUSH1 0x20 CALLDATASIZE PUSH1 0x3 NOT ADD SLT PUSH2 0x12B JUMPI PUSH1 0x4 CALLDATALOAD DUP1 ISZERO ISZERO DUP1 SWAP2 SUB PUSH2 0x12B JUMPI PUSH2 0xAF7 PUSH2 0xD21 JUMP JUMPDEST PUSH2 0xAFF PUSH2 0xD77 JUMP JUMPDEST PUSH1 0x6 SLOAD DUP2 PUSH1 0xFF DUP3 AND ISZERO ISZERO SUB PUSH2 0xB14 JUMPI PUSH1 0x1 DUP1 SSTORE STOP JUMPDEST PUSH1 0xFF NOT AND PUSH1 0xFF DUP3 AND OR PUSH1 0x6 SSTORE PUSH32 0x3CF4FE733160F8F8C48336FAB32ACEE32EBAAA423A08A2BE4E5CEFF97DD98C69 PUSH0 DUP1 LOG2 DUP1 DUP1 PUSH2 0x901 JUMP JUMPDEST CALLVALUE PUSH2 0x12B JUMPI PUSH1 0x20 CALLDATASIZE PUSH1 0x3 NOT ADD SLT PUSH2 0x12B JUMPI PUSH1 0x20 PUSH2 0xAC9 PUSH2 0xB69 PUSH2 0xBC1 JUMP JUMPDEST PUSH2 0xC37 JUMP JUMPDEST CALLVALUE PUSH2 0x12B JUMPI PUSH1 0x20 CALLDATASIZE PUSH1 0x3 NOT ADD SLT PUSH2 0x12B JUMPI PUSH1 0x4 CALLDATALOAD SWAP1 PUSH4 0xFFFFFFFF PUSH1 0xE0 SHL DUP3 AND DUP1 SWAP3 SUB PUSH2 0x12B JUMPI PUSH1 0x20 SWAP2 PUSH4 0x7965DB0B PUSH1 0xE0 SHL DUP2 EQ SWAP1 DUP2 ISZERO PUSH2 0xBB0 JUMPI JUMPDEST POP ISZERO ISZERO DUP2 MSTORE RETURN JUMPDEST PUSH4 0x1FFC9A7 PUSH1 0xE0 SHL EQ SWAP1 POP DUP4 PUSH2 0xBA9 JUMP JUMPDEST PUSH1 0x4 CALLDATALOAD SWAP1 PUSH1 0x1 PUSH1 0x1 PUSH1 0xA0 SHL SUB DUP3 AND DUP3 SUB PUSH2 0x12B JUMPI JUMP JUMPDEST PUSH1 0x24 CALLDATALOAD SWAP1 PUSH1 0x1 PUSH1 0x1 PUSH1 0xA0 SHL SUB DUP3 AND DUP3 SUB PUSH2 0x12B JUMPI JUMP JUMPDEST PUSH1 0x40 SWAP1 PUSH1 0x3 NOT ADD SLT PUSH2 0x12B JUMPI PUSH1 0x4 CALLDATALOAD SWAP1 PUSH1 0x24 CALLDATALOAD SWAP1 JUMP JUMPDEST SWAP2 SWAP1 DUP3 SUB SWAP2 DUP3 GT PUSH2 0xC10 JUMPI JUMP JUMPDEST PUSH4 0x4E487B71 PUSH1 0xE0 SHL PUSH0 MSTORE PUSH1 0x11 PUSH1 0x4 MSTORE PUSH1 0x24 PUSH0 REVERT JUMPDEST DUP2 DUP2 MUL SWAP3 SWAP2 DUP2 ISZERO SWAP2 DUP5 DIV EQ OR ISZERO PUSH2 0xC10 JUMPI JUMP JUMPDEST PUSH1 0x1 PUSH1 0x1 PUSH1 0xA0 SHL SUB AND PUSH0 SWAP1 DUP2 MSTORE PUSH1 0x3 PUSH1 0x20 MSTORE PUSH1 0x40 SWAP1 KECCAK256 PUSH1 0x6 DUP2 ADD SLOAD PUSH1 0xFF AND ISZERO DUP1 ISZERO PUSH2 0xCBD JUMPI JUMPDEST PUSH2 0xCB8 JUMPI PUSH2 0xC7F TIMESTAMP PUSH1 0x3 DUP4 ADD SLOAD DUP1 TIMESTAMP LT ISZERO PUSH2 0xCB0 JUMPI JUMPDEST POP PUSH1 0x2 DUP4 ADD SLOAD SWAP1 PUSH2 0xC03 JUMP JUMPDEST SWAP1 DUP2 ISZERO PUSH2 0xCAA JUMPI PUSH5 0x496CEBB800 SWAP2 PUSH2 0xCA1 DUP3 PUSH1 0x5 PUSH2 0xCA6 SWAP5 SLOAD SWAP2 ADD SLOAD SWAP1 PUSH2 0xC24 JUMP JUMPDEST PUSH2 0xC24 JUMP JUMPDEST DIV SWAP1 JUMP JUMPDEST POP POP PUSH0 SWAP1 JUMP JUMPDEST SWAP1 POP PUSH0 PUSH2 0xC73 JUMP JUMPDEST POP PUSH0 SWAP1 JUMP JUMPDEST POP DUP1 SLOAD ISZERO PUSH2 0xC5D JUMP JUMPDEST SWAP2 SWAP1 DUP3 ADD DUP1 SWAP3 GT PUSH2 0xC10 JUMPI JUMP JUMPDEST SWAP1 PUSH1 0x1F DUP1 NOT SWAP2 ADD AND DUP2 ADD SWAP1 DUP2 LT PUSH8 0xFFFFFFFFFFFFFFFF DUP3 GT OR PUSH2 0x67F JUMPI PUSH1 0x40 MSTORE JUMP JUMPDEST PUSH1 0x7 SLOAD DUP2 LT ISZERO PUSH2 0xD0D JUMPI PUSH1 0x7 PUSH0 MSTORE PUSH1 0x20 PUSH0 KECCAK256 ADD SWAP1 PUSH0 SWAP1 JUMP JUMPDEST PUSH4 0x4E487B71 PUSH1 0xE0 SHL PUSH0 MSTORE PUSH1 0x32 PUSH1 0x4 MSTORE PUSH1 0x24 PUSH0 REVERT JUMPDEST PUSH1 0x2 PUSH1 0x1 SLOAD EQ PUSH2 0xD32 JUMPI PUSH1 0x2 PUSH1 0x1 SSTORE JUMP JUMPDEST PUSH1 0x40 MLOAD PUSH3 0x461BCD PUSH1 0xE5 SHL DUP2 MSTORE PUSH1 0x20 PUSH1 0x4 DUP3 ADD MSTORE PUSH1 0x1F PUSH1 0x24 DUP3 ADD MSTORE PUSH32 0x5265656E7472616E637947756172643A207265656E7472616E742063616C6C00 PUSH1 0x44 DUP3 ADD MSTORE PUSH1 0x64 SWAP1 REVERT JUMPDEST CALLER PUSH0 SWAP1 DUP2 MSTORE PUSH32 0x7D7FFB7A348E1C6A02869081A26547B49160DD3DF72D1D75A570EB9B698292EC PUSH1 0x20 MSTORE PUSH1 0x40 SWAP1 KECCAK256 SLOAD PUSH1 0xFF AND ISZERO PUSH2 0xDAF JUMPI JUMP JUMPDEST PUSH4 0xE2517D3F PUSH1 0xE0 SHL PUSH0 MSTORE CALLER PUSH1 0x4 MSTORE PUSH32 0xA49807205CE4D355092EF5A8A18F56E8913CF4A201FBE287825B095693C21775 PUSH1 0x24 MSTORE PUSH1 0x44 PUSH0 REVERT JUMPDEST PUSH0 DUP2 DUP2 MSTORE PUSH1 0x20 DUP2 DUP2 MSTORE PUSH1 0x40 DUP1 DUP4 KECCAK256 CALLER DUP5 MSTORE SWAP1 SWAP2 MSTORE SWAP1 KECCAK256 SLOAD PUSH1 0xFF AND ISZERO PUSH2 0xE08 JUMPI POP JUMP JUMPDEST PUSH4 0xE2517D3F PUSH1 0xE0 SHL PUSH0 MSTORE CALLER PUSH1 0x4 MSTORE PUSH1 0x24 MSTORE PUSH1 0x44 PUSH0 REVERT JUMPDEST PUSH1 0x40 MLOAD PUSH4 0xA9059CBB PUSH1 0xE0 SHL PUSH1 0x20 DUP3 ADD MSTORE PUSH1 0x1 PUSH1 0x1 PUSH1 0xA0 SHL SUB SWAP1 SWAP3 AND PUSH1 0x24 DUP4 ADD MSTORE PUSH1 0x44 DUP1 DUP4 ADD SWAP4 SWAP1 SWAP4 MSTORE SWAP2 DUP2 MSTORE PUSH2 0xE5E SWAP2 PUSH2 0xE59 PUSH1 0x64 DUP4 PUSH2 0xCD3 JUMP JUMPDEST PUSH2 0x102F JUMP JUMPDEST JUMP JUMPDEST PUSH1 0x5 SLOAD DUP1 DUP4 LT ISZERO PUSH2 0xEDA JUMPI PUSH32 0x106F923F993C2149D49B4255FF723ACAFA1F2D94393F561D3EDA32AE348F7241 SWAP2 PUSH2 0xE99 DUP5 PUSH1 0x20 SWAP4 PUSH2 0xC03 JUMP JUMPDEST PUSH1 0x5 SSTORE PUSH2 0xEC7 DUP5 DUP3 PUSH32 0x0 PUSH2 0xE1E JUMP JUMPDEST PUSH1 0x40 MLOAD SWAP4 DUP5 MSTORE PUSH1 0x1 PUSH1 0x1 PUSH1 0xA0 SHL SUB AND SWAP3 LOG2 JUMP JUMPDEST PUSH4 0x447B0F67 PUSH1 0xE0 SHL PUSH0 MSTORE PUSH1 0x4 PUSH0 REVERT JUMPDEST PUSH0 DUP2 DUP2 MSTORE PUSH1 0x20 DUP2 DUP2 MSTORE PUSH1 0x40 DUP1 DUP4 KECCAK256 PUSH1 0x1 PUSH1 0x1 PUSH1 0xA0 SHL SUB DUP7 AND DUP5 MSTORE SWAP1 SWAP2 MSTORE SWAP1 KECCAK256 SLOAD PUSH1 0xFF AND PUSH2 0xCAA JUMPI PUSH0 DUP2 DUP2 MSTORE PUSH1 0x20 DUP2 DUP2 MSTORE PUSH1 0x40 DUP1 DUP4 KECCAK256 PUSH1 0x1 PUSH1 0x1 PUSH1 0xA0 SHL SUB SWAP6 SWAP1 SWAP6 AND DUP1 DUP5 MSTORE SWAP5 SWAP1 SWAP2 MSTORE DUP2 KECCAK256 DUP1 SLOAD PUSH1 0xFF NOT AND PUSH1 0x1 OR SWAP1 SSTORE CALLER SWAP3 SWAP2 SWAP1 PUSH32 0x2F8788117E7EFF1D82E926EC794901D17C78024A50270940304540A733656F0D SWAP1 DUP1 LOG4 PUSH1 0x1 SWAP1 JUMP JUMPDEST PUSH0 DUP2 DUP2 MSTORE PUSH1 0x20 DUP2 DUP2 MSTORE PUSH1 0x40 DUP1 DUP4 KECCAK256 PUSH1 0x1 PUSH1 0x1 PUSH1 0xA0 SHL SUB DUP7 AND DUP5 MSTORE SWAP1 SWAP2 MSTORE SWAP1 KECCAK256 SLOAD PUSH1 0xFF AND ISZERO PUSH2 0xCAA JUMPI PUSH0 DUP2 DUP2 MSTORE PUSH1 0x20 DUP2 DUP2 MSTORE PUSH1 0x40 DUP1 DUP4 KECCAK256 PUSH1 0x1 PUSH1 0x1 PUSH1 0xA0 SHL SUB SWAP6 SWAP1 SWAP6 AND DUP1 DUP5 MSTORE SWAP5 SWAP1 SWAP2 MSTORE DUP2 KECCAK256 DUP1 SLOAD PUSH1 0xFF NOT AND SWAP1 SSTORE CALLER SWAP3 SWAP2 SWAP1 PUSH32 0xF6391F5C32D9C69D2A47EA670B442974B53935D1EDC7FD64EB21E047A839171B SWAP1 DUP1 LOG4 PUSH1 0x1 SWAP1 JUMP JUMPDEST PUSH1 0x40 MLOAD PUSH4 0x23B872DD PUSH1 0xE0 SHL PUSH1 0x20 DUP3 ADD MSTORE PUSH1 0x1 PUSH1 0x1 PUSH1 0xA0 SHL SUB SWAP3 DUP4 AND PUSH1 0x24 DUP3 ADD MSTORE SWAP3 SWAP1 SWAP2 AND PUSH1 0x44 DUP4 ADD MSTORE PUSH1 0x64 DUP1 DUP4 ADD SWAP4 SWAP1 SWAP4 MSTORE SWAP2 DUP2 MSTORE PUSH2 0xE5E SWAP2 PUSH2 0xE59 PUSH1 0x84 DUP4 PUSH2 0xCD3 JUMP JUMPDEST SWAP1 PUSH0 PUSH1 0x20 SWAP2 DUP3 DUP2 MLOAD SWAP2 ADD DUP3 DUP6 GAS CALL ISZERO PUSH2 0x1087 JUMPI PUSH0 MLOAD RETURNDATASIZE PUSH2 0x107E JUMPI POP PUSH1 0x1 PUSH1 0x1 PUSH1 0xA0 SHL SUB DUP2 AND EXTCODESIZE ISZERO JUMPDEST PUSH2 0x105E JUMPI POP JUMP JUMPDEST PUSH4 0x5274AFE7 PUSH1 0xE0 SHL PUSH0 SWAP1 DUP2 MSTORE PUSH1 0x1 PUSH1 0x1 PUSH1 0xA0 SHL SUB SWAP2 SWAP1 SWAP2 AND PUSH1 0x4 MSTORE PUSH1 0x24 SWAP1 REVERT JUMPDEST PUSH1 0x1 EQ ISZERO PUSH2 0x1057 JUMP JUMPDEST PUSH1 0x40 MLOAD RETURNDATASIZE PUSH0 DUP3 RETURNDATACOPY RETURNDATASIZE SWAP1 REVERT INVALID LOG2 PUSH5 0x6970667358 0x22 SLT KECCAK256 PUSH22 0xF1D89420D65F0FDDF3B02EA5972F1D7D1F14966D5C6 PUSH17 0x1E52C18CDB657FDD64736F6C634300081C STOP CALLER 0x2F DUP8 DUP9 GT PUSH31 0x7EFF1D82E926EC794901D17C78024A50270940304540A733656F0D7D7FFB7A CALLVALUE DUP15 SHR PUSH11 0x2869081A26547B49160DD RETURNDATASIZE 0xF7 0x2D SAR PUSH22 0xA570EB9B698292EC089CFCBF844E824FEEE5F634CBC4 DUP9 CODESIZE 0x22 SWAP2 RETURN 0xC9 0xE0 0xDE MSIZE SDIV RETURN 0xC3 ADDMOD SLT CODECOPY 0xD 0xD8 ORIGIN LOG1 0xEF JUMPDEST TIMESTAMP CALL DUP6 CALLER 0xD6 PUSH27 0x183A193EA6C3FABFAA3BDABC3FC0E3F65B19B517DF6E8CF6C17DA3 DUP7 TSTORE SWAP7 GASLIMIT SLOAD PUSH14 0xB4630D07C45803FB99F9B61DD452 0xDE DUP14 0xE1 0xCD 0x21 MSIZE 0xD2 SLOAD PUSH9 0x2563ED446791DCD2BB PUSH7 0xAA531EBAF528BC 0xE4 SWAP4 0xE5 PUSH32 0x37313263799851BC364A49807205CE4D355092EF5A8A18F56E8913CF4A201FB 0xE2 DUP8 DUP3 JUMPDEST MULMOD JUMP SWAP4 0xC2 OR PUSH22 0xDC083EB4DA7563BBD761324B5158D9D40AF7C7174AFE CODECOPY 0xB0 0xB3 BYTE PUSH22 0x77C44FC33B51785D261C3B3E8C2CFE2D0E108B9AB2B1 0xFB PUSH17 0x3FF9E9E49ABA4EBDC85C36152BAD3228B6 PUSH23 0xF7D3CD4284A5443F17F1962B36E491B30A40B2405849E5 SWAP8 0xBA PUSH0 0xB5 "
		},
		"gasEstimates": {
			"creation": {
				"codeDepositCost": "859200",
				"executionCost": "infinite",
				"totalCost": "infinite"
			},
			"external": {
				"DEFAULT_ADMIN_ROLE()": "438",
				"addRewards(uint256)": "infinite",
				"addStakingPlan(uint256,uint256)": "149734",
				"calculatePendingRewards(address)": "infinite",
				"claimRewards()": "infinite",
				"emergencyWithdraw()": "infinite",
				"getAvailableDurations()": "infinite",
				"getContractStats()": "6922",
				"getRoleAdmin(bytes32)": "2407",
				"getStakingPlan(uint256)": "4724",
				"getUserStakingInfo(address)": "infinite",
				"grantRole(bytes32,address)": "33377",
				"hasRole(bytes32,address)": "2726",
				"renounceRole(bytes32,address)": "28967",
				"revokeRole(bytes32,address)": "33638",
				"setStakingPaused(bool)": "57098",
				"stake(uint256,uint256)": "infinite",
				"supportsInterface(bytes4)": "270",
				"unstake()": "infinite",
				"updateStakingPlan(uint256,uint256,bool)": "infinite"
			},
			"internal": {
				"_addStakingPlan(uint256,uint256)": "infinite",
				"_claimRewards(address,uint256)": "infinite"
			}
		},
		"methodIdentifiers": {
			"DEFAULT_ADMIN_ROLE()": "a217fddf",
			"addRewards(uint256)": "beceed39",
			"addStakingPlan(uint256,uint256)": "5ef23fa9",
			"calculatePendingRewards(address)": "097aad10",
			"claimRewards()": "372500ab",
			"emergencyWithdraw()": "db2e21bc",
			"getAvailableDurations()": "b6b365c2",
			"getContractStats()": "dfe6b5d6",
			"getRoleAdmin(bytes32)": "248a9ca3",
			"getStakingPlan(uint256)": "9fca9c22",
			"getUserStakingInfo(address)": "80933608",
			"grantRole(bytes32,address)": "2f2ff15d",
			"hasRole(bytes32,address)": "91d14854",
			"renounceRole(bytes32,address)": "36568abe",
			"revokeRole(bytes32,address)": "d547741f",
			"setStakingPaused(bool)": "15b31bbb",
			"stake(uint256,uint256)": "7b0472f0",
			"supportsInterface(bytes4)": "01ffc9a7",
			"unstake()": "2def6620",
			"updateStakingPlan(uint256,uint256,bool)": "aea1b6ef"
		}
	},
	"abi": [
		{
			"inputs": [
				{
					"internalType": "address",
					"name": "tokenAddress",
					"type": "address"
				},
				{
					"internalType": "address",
					"name": "adminAddress",
					"type": "address"
				}
			],
			"stateMutability": "payable",
			"type": "constructor"
		},
		{
			"inputs": [],
			"name": "AccessControlBadConfirmation",
			"type": "error"
		},
		{
			"inputs": [
				{
					"internalType": "address",
					"name": "account",
					"type": "address"
				},
				{
					"internalType": "bytes32",
					"name": "neededRole",
					"type": "bytes32"
				}
			],
			"name": "AccessControlUnauthorizedAccount",
			"type": "error"
		},
		{
			"inputs": [],
			"name": "DurationAlreadyExists",
			"type": "error"
		},
		{
			"inputs": [],
			"name": "InsufficientRewardsPool",
			"type": "error"
		},
		{
			"inputs": [],
			"name": "InvalidAmount",
			"type": "error"
		},
		{
			"inputs": [],
			"name": "InvalidDuration",
			"type": "error"
		},
		{
			"inputs": [],
			"name": "InvalidZeroAddress",
			"type": "error"
		},
		{
			"inputs": [],
			"name": "NoActiveStake",
			"type": "error"
		},
		{
			"inputs": [],
			"name": "NoRewardsAvailable",
			"type": "error"
		},
		{
			"inputs": [
				{
					"internalType": "address",
					"name": "token",
					"type": "address"
				}
			],
			"name": "SafeERC20FailedOperation",
			"type": "error"
		},
		{
			"inputs": [],
			"name": "StakingNotActive",
			"type": "error"
		},
		{
			"inputs": [],
			"name": "StakingStillLocked",
			"type": "error"
		},
		{
			"anonymous": false,
			"inputs": [
				{
					"indexed": true,
					"internalType": "address",
					"name": "user",
					"type": "address"
				},
				{
					"indexed": false,
					"internalType": "uint256",
					"name": "amount",
					"type": "uint256"
				}
			],
			"name": "EmergencyWithdraw",
			"type": "event"
		},
		{
			"anonymous": false,
			"inputs": [
				{
					"indexed": true,
					"internalType": "address",
					"name": "user",
					"type": "address"
				},
				{
					"indexed": false,
					"internalType": "uint256",
					"name": "amount",
					"type": "uint256"
				}
			],
			"name": "RewardClaimed",
			"type": "event"
		},
		{
			"anonymous": false,
			"inputs": [
				{
					"indexed": false,
					"internalType": "uint256",
					"name": "amount",
					"type": "uint256"
				}
			],
			"name": "RewardsAdded",
			"type": "event"
		},
		{
			"anonymous": false,
			"inputs": [
				{
					"indexed": true,
					"internalType": "bytes32",
					"name": "role",
					"type": "bytes32"
				},
				{
					"indexed": true,
					"internalType": "bytes32",
					"name": "previousAdminRole",
					"type": "bytes32"
				},
				{
					"indexed": true,
					"internalType": "bytes32",
					"name": "newAdminRole",
					"type": "bytes32"
				}
			],
			"name": "RoleAdminChanged",
			"type": "event"
		},
		{
			"anonymous": false,
			"inputs": [
				{
					"indexed": true,
					"internalType": "bytes32",
					"name": "role",
					"type": "bytes32"
				},
				{
					"indexed": true,
					"internalType": "address",
					"name": "account",
					"type": "address"
				},
				{
					"indexed": true,
					"internalType": "address",
					"name": "sender",
					"type": "address"
				}
			],
			"name": "RoleGranted",
			"type": "event"
		},
		{
			"anonymous": false,
			"inputs": [
				{
					"indexed": true,
					"internalType": "bytes32",
					"name": "role",
					"type": "bytes32"
				},
				{
					"indexed": true,
					"internalType": "address",
					"name": "account",
					"type": "address"
				},
				{
					"indexed": true,
					"internalType": "address",
					"name": "sender",
					"type": "address"
				}
			],
			"name": "RoleRevoked",
			"type": "event"
		},
		{
			"anonymous": false,
			"inputs": [
				{
					"indexed": true,
					"internalType": "address",
					"name": "user",
					"type": "address"
				},
				{
					"indexed": false,
					"internalType": "uint256",
					"name": "amount",
					"type": "uint256"
				},
				{
					"indexed": true,
					"internalType": "uint256",
					"name": "duration",
					"type": "uint256"
				},
				{
					"indexed": false,
					"internalType": "uint256",
					"name": "unlockTime",
					"type": "uint256"
				}
			],
			"name": "Staked",
			"type": "event"
		},
		{
			"anonymous": false,
			"inputs": [
				{
					"indexed": true,
					"internalType": "bool",
					"name": "isPaused",
					"type": "bool"
				}
			],
			"name": "StakingPaused",
			"type": "event"
		},
		{
			"anonymous": false,
			"inputs": [
				{
					"indexed": true,
					"internalType": "uint256",
					"name": "duration",
					"type": "uint256"
				},
				{
					"indexed": true,
					"internalType": "uint256",
					"name": "apy",
					"type": "uint256"
				}
			],
			"name": "StakingPlanAdded",
			"type": "event"
		},
		{
			"anonymous": false,
			"inputs": [
				{
					"indexed": true,
					"internalType": "uint256",
					"name": "duration",
					"type": "uint256"
				},
				{
					"indexed": true,
					"internalType": "uint256",
					"name": "apy",
					"type": "uint256"
				}
			],
			"name": "StakingPlanUpdated",
			"type": "event"
		},
		{
			"anonymous": false,
			"inputs": [
				{
					"indexed": true,
					"internalType": "address",
					"name": "user",
					"type": "address"
				},
				{
					"indexed": false,
					"internalType": "uint256",
					"name": "stakedAmount",
					"type": "uint256"
				},
				{
					"indexed": false,
					"internalType": "uint256",
					"name": "rewardAmount",
					"type": "uint256"
				}
			],
			"name": "Unstaked",
			"type": "event"
		},
		{
			"inputs": [],
			"name": "DEFAULT_ADMIN_ROLE",
			"outputs": [
				{
					"internalType": "bytes32",
					"name": "",
					"type": "bytes32"
				}
			],
			"stateMutability": "view",
			"type": "function"
		},
		{
			"inputs": [
				{
					"internalType": "uint256",
					"name": "amount",
					"type": "uint256"
				}
			],
			"name": "addRewards",
			"outputs": [],
			"stateMutability": "nonpayable",
			"type": "function"
		},
		{
			"inputs": [
				{
					"internalType": "uint256",
					"name": "duration",
					"type": "uint256"
				},
				{
					"internalType": "uint256",
					"name": "apr",
					"type": "uint256"
				}
			],
			"name": "addStakingPlan",
			"outputs": [],
			"stateMutability": "nonpayable",
			"type": "function"
		},
		{
			"inputs": [
				{
					"internalType": "address",
					"name": "user",
					"type": "address"
				}
			],
			"name": "calculatePendingRewards",
			"outputs": [
				{
					"internalType": "uint256",
					"name": "rewards",
					"type": "uint256"
				}
			],
			"stateMutability": "view",
			"type": "function"
		},
		{
			"inputs": [],
			"name": "claimRewards",
			"outputs": [],
			"stateMutability": "nonpayable",
			"type": "function"
		},
		{
			"inputs": [],
			"name": "emergencyWithdraw",
			"outputs": [],
			"stateMutability": "nonpayable",
			"type": "function"
		},
		{
			"inputs": [],
			"name": "getAvailableDurations",
			"outputs": [
				{
					"internalType": "uint256[]",
					"name": "durations",
					"type": "uint256[]"
				}
			],
			"stateMutability": "view",
			"type": "function"
		},
		{
			"inputs": [],
			"name": "getContractStats",
			"outputs": [
				{
					"internalType": "uint256",
					"name": "totalStaked",
					"type": "uint256"
				},
				{
					"internalType": "uint256",
					"name": "rewardsPool",
					"type": "uint256"
				},
				{
					"internalType": "bool",
					"name": "stakingPaused",
					"type": "bool"
				}
			],
			"stateMutability": "view",
			"type": "function"
		},
		{
			"inputs": [
				{
					"internalType": "bytes32",
					"name": "role",
					"type": "bytes32"
				}
			],
			"name": "getRoleAdmin",
			"outputs": [
				{
					"internalType": "bytes32",
					"name": "",
					"type": "bytes32"
				}
			],
			"stateMutability": "view",
			"type": "function"
		},
		{
			"inputs": [
				{
					"internalType": "uint256",
					"name": "duration",
					"type": "uint256"
				}
			],
			"name": "getStakingPlan",
			"outputs": [
				{
					"internalType": "bool",
					"name": "isActive",
					"type": "bool"
				},
				{
					"internalType": "uint256",
					"name": "apr",
					"type": "uint256"
				}
			],
			"stateMutability": "view",
			"type": "function"
		},
		{
			"inputs": [
				{
					"internalType": "address",
					"name": "user",
					"type": "address"
				}
			],
			"name": "getUserStakingInfo",
			"outputs": [
				{
					"components": [
						{
							"internalType": "uint256",
							"name": "stakedAmount",
							"type": "uint256"
						},
						{
							"internalType": "uint256",
							"name": "stakingStartTime",
							"type": "uint256"
						},
						{
							"internalType": "uint256",
							"name": "stakingEndTime",
							"type": "uint256"
						},
						{
							"internalType": "uint256",
							"name": "duration",
							"type": "uint256"
						},
						{
							"internalType": "uint256",
							"name": "apr",
							"type": "uint256"
						},
						{
							"internalType": "uint256",
							"name": "pendingRewards",
							"type": "uint256"
						},
						{
							"internalType": "bool",
							"name": "isActive",
							"type": "bool"
						}
					],
					"internalType": "struct WallyStaking.UserStakingInfo",
					"name": "userInfo",
					"type": "tuple"
				}
			],
			"stateMutability": "view",
			"type": "function"
		},
		{
			"inputs": [
				{
					"internalType": "bytes32",
					"name": "role",
					"type": "bytes32"
				},
				{
					"internalType": "address",
					"name": "account",
					"type": "address"
				}
			],
			"name": "grantRole",
			"outputs": [],
			"stateMutability": "nonpayable",
			"type": "function"
		},
		{
			"inputs": [
				{
					"internalType": "bytes32",
					"name": "role",
					"type": "bytes32"
				},
				{
					"internalType": "address",
					"name": "account",
					"type": "address"
				}
			],
			"name": "hasRole",
			"outputs": [
				{
					"internalType": "bool",
					"name": "",
					"type": "bool"
				}
			],
			"stateMutability": "view",
			"type": "function"
		},
		{
			"inputs": [
				{
					"internalType": "bytes32",
					"name": "role",
					"type": "bytes32"
				},
				{
					"internalType": "address",
					"name": "callerConfirmation",
					"type": "address"
				}
			],
			"name": "renounceRole",
			"outputs": [],
			"stateMutability": "nonpayable",
			"type": "function"
		},
		{
			"inputs": [
				{
					"internalType": "bytes32",
					"name": "role",
					"type": "bytes32"
				},
				{
					"internalType": "address",
					"name": "account",
					"type": "address"
				}
			],
			"name": "revokeRole",
			"outputs": [],
			"stateMutability": "nonpayable",
			"type": "function"
		},
		{
			"inputs": [
				{
					"internalType": "bool",
					"name": "paused",
					"type": "bool"
				}
			],
			"name": "setStakingPaused",
			"outputs": [],
			"stateMutability": "nonpayable",
			"type": "function"
		},
		{
			"inputs": [
				{
					"internalType": "uint256",
					"name": "amount",
					"type": "uint256"
				},
				{
					"internalType": "uint256",
					"name": "duration",
					"type": "uint256"
				}
			],
			"name": "stake",
			"outputs": [],
			"stateMutability": "nonpayable",
			"type": "function"
		},
		{
			"inputs": [
				{
					"internalType": "bytes4",
					"name": "interfaceId",
					"type": "bytes4"
				}
			],
			"name": "supportsInterface",
			"outputs": [
				{
					"internalType": "bool",
					"name": "",
					"type": "bool"
				}
			],
			"stateMutability": "view",
			"type": "function"
		},
		{
			"inputs": [],
			"name": "unstake",
			"outputs": [],
			"stateMutability": "nonpayable",
			"type": "function"
		},
		{
			"inputs": [
				{
					"internalType": "uint256",
					"name": "duration",
					"type": "uint256"
				},
				{
					"internalType": "uint256",
					"name": "apr",
					"type": "uint256"
				},
				{
					"internalType": "bool",
					"name": "isActive",
					"type": "bool"
				}
			],
			"name": "updateStakingPlan",
			"outputs": [],
			"stateMutability": "nonpayable",
			"type": "function"
		}
	]
}