{
	"data": {
		"bytecode": {
			"linkReferences": {},
			"object": "60a0601f611a7038819003918201601f19168301916001600160401b038311848410176103a15780849260409485528339810103126103e25761004d6020610046836103e6565b92016103e6565b600180556001600160a01b039091169081156103d3576001600160a01b038116156103d35761009291608052610082816103fa565b5061008c81610470565b506104f0565b505f516020611a305f395f51905f525f81815260208190527ff6c17da3865d9645546db4630d07c45803fb99f9b61dd452de8de1cd2159d25580545f5160206119f05f395f51905f5291829055909290917fbd79b86ffe0ab8e8776151514217cd7cacd52c909f66475c3af44e129f0b00ff9080a46276a7005f5260026020525f5160206119905f395f51905f525460ff166103c457601460075410156103b5576276a7005f5260026020525f5160206119905f395f51905f52805460ff191660011790556101f47fa1ef5b42f18533d67a183a193ea6c3fabfaa3bdabc3fc0e3f65b19b517df6e8d55600754680100000000000000008110156103a157600181018060075581101561038d576276a7009060075f5260205f2001556101f46276a7005f5160206119d05f395f51905f525f80a362ed4e005f5260026020525f5160206119705f395f51905f525460ff166103c457601460075410156103b55762ed4e005f5260026020525f5160206119705f395f51905f52805460ff191660011790556103207f089cfcbf844e824feee5f634cbc488382291f3c9e0de5905f3c30812390dd83355600754680100000000000000008110156103a157600181018060075581101561038d5762ed4e009060075f5260205f20015561032062ed4e005f5160206119d05f395f51905f525f80a36301e133805f5260026020525f516020611a105f395f51905f525460ff166103c457601460075410156103b5576301e133805f5260026020525f516020611a105f395f51905f52805460ff191660011790556104b07fdc083eb4da7563bbd761324b5158d9d40af7c7174afe39b0b31a7577c44fc33c55600754680100000000000000008110156103a157600181018060075581101561038d576301e133809060075f5260205f2001556104b06301e133805f5160206119d05f395f51905f525f80a360ff19600654166006556040516113bf908161057182396080518181816101eb015281816105a8015281816107ba015281816109f701528181610cc601526111af0152f35b634e487b7160e01b5f52603260045260245ffd5b634e487b7160e01b5f52604160045260245ffd5b635bb01e5b60e01b5f5260045ffd5b635770685760e11b5f5260045ffd5b63f6b2911f60e01b5f5260045ffd5b5f80fd5b51906001600160a01b03821682036103e257565b6001600160a01b0381165f9081525f516020611a505f395f51905f52602052604090205460ff1661046b576001600160a01b03165f8181525f516020611a505f395f51905f5260205260408120805460ff191660011790553391905f5160206119305f395f51905f528180a4600190565b505f90565b6001600160a01b0381165f9081525f5160206119505f395f51905f52602052604090205460ff1661046b576001600160a01b03165f8181525f5160206119505f395f51905f5260205260408120805460ff191660011790553391905f5160206119f05f395f51905f52905f5160206119305f395f51905f529080a4600190565b6001600160a01b0381165f9081525f5160206119b05f395f51905f52602052604090205460ff1661046b576001600160a01b03165f8181525f5160206119b05f395f51905f5260205260408120805460ff191660011790553391905f516020611a305f395f51905f52905f5160206119305f395f51905f529080a460019056fe6080806040526004361015610012575f80fd5b5f3560e01c90816301ffc9a714610e1457508063097aad1014610df157806315b31bbb14610d77578063248a9ca314610d455780632def662014610c3b5780632f2ff15d14610bfe57806336568abe14610bba578063372500ab14610b555780635ef23fa914610a375780636ff1c9bc1461093a5780637b0472f01461076357806380933608146106975780638980f11f1461056457806391d148541461051c5780639fca9c22146104e4578063a217fddf146104ca578063aea1b6ef146103cc578063b6b365c214610316578063beceed391461017e578063d547741f1461013a5763dfe6b5d614610103575f80fd5b34610136575f36600319011261013657606060045460055460ff6006541690604051928352602083015215156040820152f35b5f80fd5b346101365760403660031901126101365761017c600435610159610e7d565b90610177610172825f525f602052600160405f20015490565b6110db565b61126d565b005b346101365760203660031901126101365760043561019a611016565b335f9081527ff6c17da3865d9645546db4630d07c45803fb99f9b61dd452de8de1cd2159d254602052604090205460ff16156102df5780156102d0576040516370a0823160e01b81523360048201527f0000000000000000000000000000000000000000000000000000000000000000906020816024816001600160a01b0386165afa80156102c55783915f91610290575b501061028157816102718160209361026c7ff8fad42e780bfa5459be3fe691e8ba1aec70342250112139c5771c3fd155f3129660055492309033906112ed565b610f96565b600555604051908152a160018055005b631e9acf1760e31b5f5260045ffd5b9150506020813d6020116102bd575b816102ac60209383610f74565b81010312610136578290518461022c565b3d915061029f565b6040513d5f823e3d90fd5b63162908e360e11b5f5260045ffd5b63e2517d3f60e01b5f52336004527f51785d261c3b3e8c2cfe2d0e108b9ab2b1fb703ff9e9e49aba4ebdc85c36152b60245260445ffd5b34610136575f366003190112610136576040518060206007549283815201809260075f527fa66cc928b5edb82af9bd49922954155ab7b0942694bea4ce44661d9a8736c688905f5b8181106103b65750505081610374910382610f74565b604051918291602083019060208452518091526040830191905f5b81811061039d575050500390f35b825184528594506020938401939092019160010161038f565b825484526020909301926001928301920161035e565b346101365760603660031901126101365760043560243590604435801515809103610136576103f9611016565b61040161106c565b61271083116102d0575f6007545f5b8181106104a0575b50501561049157815f52600260205260405f2090836001830181815403610489575b50508060ff835416151503610476575b50507fad2954a6781cdc42b8af5df6f557041b3f146aaf8fbc031d767b7ad48164cff15f80a360018055005b60ff80198354169116179055828061044a565b55838561043a565b637616640160e01b5f5260045ffd5b846104aa82610fea565b90549060031b1c146104be57600101610410565b50505060018480610418565b34610136575f3660031901126101365760206040515f8152f35b34610136576020366003190112610136576004355f5260026020526040805f20600160ff825416910154825191151582526020820152f35b3461013657604036600319011261013657610535610e7d565b6004355f525f60205260405f209060018060a01b03165f52602052602060ff60405f2054166040519015158152f35b346101365760403660031901126101365761057d610e67565b60243590610589611016565b61059161106c565b6001600160a01b031680156106885781156102d0577f00000000000000000000000000000000000000000000000000000000000000006001600160a01b03168114610679576040516370a0823160e01b8152306004820152602081602481855afa80156102c55783915f91610644575b501061028157610612823383611113565b6040519182527f8619312ed4eff1cf9f0116e6db2f49d9570a86f0350d1c5ad1bd0f7b0cf9e13260203393a360018055005b9150506020813d602011610671575b8161066060209383610f74565b810103126101365782905184610601565b3d9150610653565b63ffc9b52b60e01b5f5260045ffd5b63f6b2911f60e01b5f5260045ffd5b346101365760203660031901126101365760e06106b2610e67565b6106ba610fa3565b506001600160a01b0381165f908152600360205260409020906106db610fa3565b9180548352600181015490602084019182526003810154604085019081526004820154906060860191825261072c60ff600660058601549560808a019687520154169560c088019615158752610eca565b9360a08701948552604051965187525160208701525160408601525160608501525160808401525160a083015251151560c0820152f35b346101365761077136610e93565b9061077a611016565b60ff600654166004549061092b5781156102d057825f52600260205260405f209060ff8254161561091c576040516370a0823160e01b81523360048201527f000000000000000000000000000000000000000000000000000000000000000091906020816024816001600160a01b0387165afa80156102c55785915f916108e7575b50106102815761086e928492335f526003602052600160405f2092600684019260ff8454166108a3575b61083e876108348c42610f96565b92309033906112ed565b8685554283860155600385015588600485015501546005830155600160ff19825416179055600242910155610f96565b6004556040519081527f1449c6dd7851abc30abf37f57715f492010519147cc2652fbc38202c18a6ee9060203392a360018055005b8285015480151590816108dc575b5015610826576108c033610eca565b806108cc575b50610826565b6108d69033611155565b8a6108c6565b90504210158b6108b1565b9150506020813d602011610914575b8161090360209383610f74565b8101031261013657849051876107fc565b3d91506108f6565b63ea48ba2b60e01b5f5260045ffd5b631a4a6f3b60e21b5f5260045ffd5b3461013657602036600319011261013657610953610e67565b61095b611016565b61096361106c565b6001600160a01b03811690811561068857815f52600360205260405f20906006820191825460ff811615610a28577f5fafa99d0643513820be26656b45130b01e1c03062e1266bf36f88cbd3bd9695936020936109f2610a1b936004545f60028854988997889584835584600184015584600384015584600484015584600584015560ff191690550155610ea9565b6004557f0000000000000000000000000000000000000000000000000000000000000000611113565b604051908152a260018055005b637d9a44a160e11b5f5260045ffd5b3461013657610a4536610e93565b90610a4e611016565b610a5661106c565b63096601808111610b3e5761271082116102d057801561049157805f52600260205260ff60405f205416610b2f5760146007541015610b2057805f52600260205281600160405f208160ff19825416178155015560075468010000000000000000811015610b0c57806001610ace9201600755610fea565b81549060031b9083821b915f19901b19161790557f682563ed446791dcd2bb66aa531ebaf528bce493e57f037313263799851bc3645f80a360018055005b634e487b7160e01b5f52604160045260245ffd5b635bb01e5b60e01b5f5260045ffd5b635770685760e11b5f5260045ffd5b63b666aeb760e01b5f52630966018060045260245ffd5b34610136575f36600319011261013657610b6d611016565b335f52600360205260405f2060ff60068201541615610a2857610b8f33610eca565b8015610bab57610ba59160024291015533611155565b60018055005b63afb0be3360e01b5f5260045ffd5b3461013657604036600319011261013657610bd3610e7d565b336001600160a01b03821603610bef5761017c9060043561126d565b63334bd91960e11b5f5260045ffd5b346101365760403660031901126101365761017c600435610c1d610e7d565b90610c36610172825f525f602052600160405f20015490565b6111eb565b34610136575f36600319011261013657610c53611016565b335f52600360205260405f20600681019081549060ff821615610a285760038101918254421115610d3657610cbc915f600260045492805497889584610c9833610eca565b998185558160018601555584600484015584600584015560ff191690550155610ea9565b600455610cea82337f0000000000000000000000000000000000000000000000000000000000000000611113565b80610d27575b60405191825260208201527f7fc4727e062e336010f2c282598ef5f14facb3de68cf8195c2f23e1454b2b74e60403392a260018055005b610d318133611155565b610cf0565b6325e5ff6560e01b5f5260045ffd5b34610136576020366003190112610136576020610d6f6004355f525f602052600160405f20015490565b604051908152f35b346101365760203660031901126101365760043580151580910361013657610d9d611016565b610da561106c565b6006548160ff8216151503610dba5760018055005b60ff191660ff8216176006557f3cf4fe733160f8f8c48336fab32acee32ebaaa423a08a2be4e5ceff97dd98c695f80a28080610ba5565b34610136576020366003190112610136576020610d6f610e0f610e67565b610eca565b34610136576020366003190112610136576004359063ffffffff60e01b821680920361013657602091637965db0b60e01b8114908115610e56575b5015158152f35b6301ffc9a760e01b14905083610e4f565b600435906001600160a01b038216820361013657565b602435906001600160a01b038216820361013657565b6040906003190112610136576004359060243590565b91908203918211610eb657565b634e487b7160e01b5f52601160045260245ffd5b6001600160a01b03165f908152600360205260409020600681015460ff16158015610f6b575b610f6657610f1242600383015480421015610f5e575b50600283015490610ea9565b908115610f585760058154910154805f1904821181021561271002156101365761271091020490805f190482118102156301e133800215610136576301e1338091020490565b50505f90565b90505f610f06565b505f90565b50805415610ef0565b90601f8019910116810190811067ffffffffffffffff821117610b0c57604052565b91908201809211610eb657565b6040519060e0820182811067ffffffffffffffff821117610b0c576040525f60c0838281528260208201528260408201528260608201528260808201528260a08201520152565b6007548110156110025760075f5260205f2001905f90565b634e487b7160e01b5f52603260045260245ffd5b600260015414611027576002600155565b60405162461bcd60e51b815260206004820152601f60248201527f5265656e7472616e637947756172643a207265656e7472616e742063616c6c006044820152606490fd5b335f9081527f7d7ffb7a348e1c6a02869081a26547b49160dd3df72d1d75a570eb9b698292ec602052604090205460ff16156110a457565b63e2517d3f60e01b5f52336004527fa49807205ce4d355092ef5a8a18f56e8913cf4a201fbe287825b095693c2177560245260445ffd5b5f8181526020818152604080832033845290915290205460ff16156110fd5750565b63e2517d3f60e01b5f523360045260245260445ffd5b60405163a9059cbb60e01b60208201526001600160a01b0390921660248301526044808301939093529181526111539161114e606483610f74565b611331565b565b6001600160a01b0381169182156106885780156102d05760055490818110156111dc576111d3817f106f923f993c2149d49b4255ff723acafa1f2d94393f561d3eda32ae348f7241946111aa82602096610ea9565b6005557f0000000000000000000000000000000000000000000000000000000000000000611113565b604051908152a2565b63447b0f6760e01b5f5260045ffd5b5f818152602081815260408083206001600160a01b038616845290915290205460ff16610f58575f818152602081815260408083206001600160a01b0395909516808452949091528120805460ff19166001179055339291907f2f8788117e7eff1d82e926ec794901d17c78024a50270940304540a733656f0d9080a4600190565b5f818152602081815260408083206001600160a01b038616845290915290205460ff1615610f58575f818152602081815260408083206001600160a01b0395909516808452949091528120805460ff19169055339291907ff6391f5c32d9c69d2a47ea670b442974b53935d1edc7fd64eb21e047a839171b9080a4600190565b6040516323b872dd60e01b60208201526001600160a01b0392831660248201529290911660448301526064808301939093529181526111539161114e608483610f74565b905f602091828151910182855af1156102c5575f513d61138057506001600160a01b0381163b155b6113605750565b635274afe760e01b5f9081526001600160a01b0391909116600452602490fd5b6001141561135956fea2646970667358221220a2eb35ee130c8e9b68d011a8eb9a4399951b4b2ae3467e5b0febac22ef2d8e4d64736f6c634300081c00332f8788117e7eff1d82e926ec794901d17c78024a50270940304540a733656f0d7d7ffb7a348e1c6a02869081a26547b49160dd3df72d1d75a570eb9b698292ec089cfcbf844e824feee5f634cbc488382291f3c9e0de5905f3c30812390dd832a1ef5b42f18533d67a183a193ea6c3fabfaa3bdabc3fc0e3f65b19b517df6e8cf6c17da3865d9645546db4630d07c45803fb99f9b61dd452de8de1cd2159d254682563ed446791dcd2bb66aa531ebaf528bce493e57f037313263799851bc364a49807205ce4d355092ef5a8a18f56e8913cf4a201fbe287825b095693c21775dc083eb4da7563bbd761324b5158d9d40af7c7174afe39b0b31a7577c44fc33b51785d261c3b3e8c2cfe2d0e108b9ab2b1fb703ff9e9e49aba4ebdc85c36152bad3228b676f7d3cd4284a5443f17f1962b36e491b30a40b2405849e597ba5fb5",
			"opcodes": "PUSH1 0xA0 PUSH1 0x1F PUSH2 0x1A70 CODESIZE DUP2 SWAP1 SUB SWAP2 DUP3 ADD PUSH1 0x1F NOT AND DUP4 ADD SWAP2 PUSH1 0x1 PUSH1 0x1 PUSH1 0x40 SHL SUB DUP4 GT DUP5 DUP5 LT OR PUSH2 0x3A1 JUMPI DUP1 DUP5 SWAP3 PUSH1 0x40 SWAP5 DUP6 MSTORE DUP4 CODECOPY DUP2 ADD SUB SLT PUSH2 0x3E2 JUMPI PUSH2 0x4D PUSH1 0x20 PUSH2 0x46 DUP4 PUSH2 0x3E6 JUMP JUMPDEST SWAP3 ADD PUSH2 0x3E6 JUMP JUMPDEST PUSH1 0x1 DUP1 SSTORE PUSH1 0x1 PUSH1 0x1 PUSH1 0xA0 SHL SUB SWAP1 SWAP2 AND SWAP1 DUP2 ISZERO PUSH2 0x3D3 JUMPI PUSH1 0x1 PUSH1 0x1 PUSH1 0xA0 SHL SUB DUP2 AND ISZERO PUSH2 0x3D3 JUMPI PUSH2 0x92 SWAP2 PUSH1 0x80 MSTORE PUSH2 0x82 DUP2 PUSH2 0x3FA JUMP JUMPDEST POP PUSH2 0x8C DUP2 PUSH2 0x470 JUMP JUMPDEST POP PUSH2 0x4F0 JUMP JUMPDEST POP PUSH0 MLOAD PUSH1 0x20 PUSH2 0x1A30 PUSH0 CODECOPY PUSH0 MLOAD SWAP1 PUSH0 MSTORE PUSH0 DUP2 DUP2 MSTORE PUSH1 0x20 DUP2 SWAP1 MSTORE PUSH32 0xF6C17DA3865D9645546DB4630D07C45803FB99F9B61DD452DE8DE1CD2159D255 DUP1 SLOAD PUSH0 MLOAD PUSH1 0x20 PUSH2 0x19F0 PUSH0 CODECOPY PUSH0 MLOAD SWAP1 PUSH0 MSTORE SWAP2 DUP3 SWAP1 SSTORE SWAP1 SWAP3 SWAP1 SWAP2 PUSH32 0xBD79B86FFE0AB8E8776151514217CD7CACD52C909F66475C3AF44E129F0B00FF SWAP1 DUP1 LOG4 PUSH3 0x76A700 PUSH0 MSTORE PUSH1 0x2 PUSH1 0x20 MSTORE PUSH0 MLOAD PUSH1 0x20 PUSH2 0x1990 PUSH0 CODECOPY PUSH0 MLOAD SWAP1 PUSH0 MSTORE SLOAD PUSH1 0xFF AND PUSH2 0x3C4 JUMPI PUSH1 0x14 PUSH1 0x7 SLOAD LT ISZERO PUSH2 0x3B5 JUMPI PUSH3 0x76A700 PUSH0 MSTORE PUSH1 0x2 PUSH1 0x20 MSTORE PUSH0 MLOAD PUSH1 0x20 PUSH2 0x1990 PUSH0 CODECOPY PUSH0 MLOAD SWAP1 PUSH0 MSTORE DUP1 SLOAD PUSH1 0xFF NOT AND PUSH1 0x1 OR SWAP1 SSTORE PUSH2 0x1F4 PUSH32 0xA1EF5B42F18533D67A183A193EA6C3FABFAA3BDABC3FC0E3F65B19B517DF6E8D SSTORE PUSH1 0x7 SLOAD PUSH9 0x10000000000000000 DUP2 LT ISZERO PUSH2 0x3A1 JUMPI PUSH1 0x1 DUP2 ADD DUP1 PUSH1 0x7 SSTORE DUP2 LT ISZERO PUSH2 0x38D JUMPI PUSH3 0x76A700 SWAP1 PUSH1 0x7 PUSH0 MSTORE PUSH1 0x20 PUSH0 KECCAK256 ADD SSTORE PUSH2 0x1F4 PUSH3 0x76A700 PUSH0 MLOAD PUSH1 0x20 PUSH2 0x19D0 PUSH0 CODECOPY PUSH0 MLOAD SWAP1 PUSH0 MSTORE PUSH0 DUP1 LOG3 PUSH3 0xED4E00 PUSH0 MSTORE PUSH1 0x2 PUSH1 0x20 MSTORE PUSH0 MLOAD PUSH1 0x20 PUSH2 0x1970 PUSH0 CODECOPY PUSH0 MLOAD SWAP1 PUSH0 MSTORE SLOAD PUSH1 0xFF AND PUSH2 0x3C4 JUMPI PUSH1 0x14 PUSH1 0x7 SLOAD LT ISZERO PUSH2 0x3B5 JUMPI PUSH3 0xED4E00 PUSH0 MSTORE PUSH1 0x2 PUSH1 0x20 MSTORE PUSH0 MLOAD PUSH1 0x20 PUSH2 0x1970 PUSH0 CODECOPY PUSH0 MLOAD SWAP1 PUSH0 MSTORE DUP1 SLOAD PUSH1 0xFF NOT AND PUSH1 0x1 OR SWAP1 SSTORE PUSH2 0x320 PUSH32 0x89CFCBF844E824FEEE5F634CBC488382291F3C9E0DE5905F3C30812390DD833 SSTORE PUSH1 0x7 SLOAD PUSH9 0x10000000000000000 DUP2 LT ISZERO PUSH2 0x3A1 JUMPI PUSH1 0x1 DUP2 ADD DUP1 PUSH1 0x7 SSTORE DUP2 LT ISZERO PUSH2 0x38D JUMPI PUSH3 0xED4E00 SWAP1 PUSH1 0x7 PUSH0 MSTORE PUSH1 0x20 PUSH0 KECCAK256 ADD SSTORE PUSH2 0x320 PUSH3 0xED4E00 PUSH0 MLOAD PUSH1 0x20 PUSH2 0x19D0 PUSH0 CODECOPY PUSH0 MLOAD SWAP1 PUSH0 MSTORE PUSH0 DUP1 LOG3 PUSH4 0x1E13380 PUSH0 MSTORE PUSH1 0x2 PUSH1 0x20 MSTORE PUSH0 MLOAD PUSH1 0x20 PUSH2 0x1A10 PUSH0 CODECOPY PUSH0 MLOAD SWAP1 PUSH0 MSTORE SLOAD PUSH1 0xFF AND PUSH2 0x3C4 JUMPI PUSH1 0x14 PUSH1 0x7 SLOAD LT ISZERO PUSH2 0x3B5 JUMPI PUSH4 0x1E13380 PUSH0 MSTORE PUSH1 0x2 PUSH1 0x20 MSTORE PUSH0 MLOAD PUSH1 0x20 PUSH2 0x1A10 PUSH0 CODECOPY PUSH0 MLOAD SWAP1 PUSH0 MSTORE DUP1 SLOAD PUSH1 0xFF NOT AND PUSH1 0x1 OR SWAP1 SSTORE PUSH2 0x4B0 PUSH32 0xDC083EB4DA7563BBD761324B5158D9D40AF7C7174AFE39B0B31A7577C44FC33C SSTORE PUSH1 0x7 SLOAD PUSH9 0x10000000000000000 DUP2 LT ISZERO PUSH2 0x3A1 JUMPI PUSH1 0x1 DUP2 ADD DUP1 PUSH1 0x7 SSTORE DUP2 LT ISZERO PUSH2 0x38D JUMPI PUSH4 0x1E13380 SWAP1 PUSH1 0x7 PUSH0 MSTORE PUSH1 0x20 PUSH0 KECCAK256 ADD SSTORE PUSH2 0x4B0 PUSH4 0x1E13380 PUSH0 MLOAD PUSH1 0x20 PUSH2 0x19D0 PUSH0 CODECOPY PUSH0 MLOAD SWAP1 PUSH0 MSTORE PUSH0 DUP1 LOG3 PUSH1 0xFF NOT PUSH1 0x6 SLOAD AND PUSH1 0x6 SSTORE PUSH1 0x40 MLOAD PUSH2 0x13BF SWAP1 DUP2 PUSH2 0x571 DUP3 CODECOPY PUSH1 0x80 MLOAD DUP2 DUP2 DUP2 PUSH2 0x1EB ADD MSTORE DUP2 DUP2 PUSH2 0x5A8 ADD MSTORE DUP2 DUP2 PUSH2 0x7BA ADD MSTORE DUP2 DUP2 PUSH2 0x9F7 ADD MSTORE DUP2 DUP2 PUSH2 0xCC6 ADD MSTORE PUSH2 0x11AF ADD MSTORE RETURN JUMPDEST PUSH4 0x4E487B71 PUSH1 0xE0 SHL PUSH0 MSTORE PUSH1 0x32 PUSH1 0x4 MSTORE PUSH1 0x24 PUSH0 REVERT JUMPDEST PUSH4 0x4E487B71 PUSH1 0xE0 SHL PUSH0 MSTORE PUSH1 0x41 PUSH1 0x4 MSTORE PUSH1 0x24 PUSH0 REVERT JUMPDEST PUSH4 0x5BB01E5B PUSH1 0xE0 SHL PUSH0 MSTORE PUSH1 0x4 PUSH0 REVERT JUMPDEST PUSH4 0x57706857 PUSH1 0xE1 SHL PUSH0 MSTORE PUSH1 0x4 PUSH0 REVERT JUMPDEST PUSH4 0xF6B2911F PUSH1 0xE0 SHL PUSH0 MSTORE PUSH1 0x4 PUSH0 REVERT JUMPDEST PUSH0 DUP1 REVERT JUMPDEST MLOAD SWAP1 PUSH1 0x1 PUSH1 0x1 PUSH1 0xA0 SHL SUB DUP3 AND DUP3 SUB PUSH2 0x3E2 JUMPI JUMP JUMPDEST PUSH1 0x1 PUSH1 0x1 PUSH1 0xA0 SHL SUB DUP2 AND PUSH0 SWAP1 DUP2 MSTORE PUSH0 MLOAD PUSH1 0x20 PUSH2 0x1A50 PUSH0 CODECOPY PUSH0 MLOAD SWAP1 PUSH0 MSTORE PUSH1 0x20 MSTORE PUSH1 0x40 SWAP1 KECCAK256 SLOAD PUSH1 0xFF AND PUSH2 0x46B JUMPI PUSH1 0x1 PUSH1 0x1 PUSH1 0xA0 SHL SUB AND PUSH0 DUP2 DUP2 MSTORE PUSH0 MLOAD PUSH1 0x20 PUSH2 0x1A50 PUSH0 CODECOPY PUSH0 MLOAD SWAP1 PUSH0 MSTORE PUSH1 0x20 MSTORE PUSH1 0x40 DUP2 KECCAK256 DUP1 SLOAD PUSH1 0xFF NOT AND PUSH1 0x1 OR SWAP1 SSTORE CALLER SWAP2 SWAP1 PUSH0 MLOAD PUSH1 0x20 PUSH2 0x1930 PUSH0 CODECOPY PUSH0 MLOAD SWAP1 PUSH0 MSTORE DUP2 DUP1 LOG4 PUSH1 0x1 SWAP1 JUMP JUMPDEST POP PUSH0 SWAP1 JUMP JUMPDEST PUSH1 0x1 PUSH1 0x1 PUSH1 0xA0 SHL SUB DUP2 AND PUSH0 SWAP1 DUP2 MSTORE PUSH0 MLOAD PUSH1 0x20 PUSH2 0x1950 PUSH0 CODECOPY PUSH0 MLOAD SWAP1 PUSH0 MSTORE PUSH1 0x20 MSTORE PUSH1 0x40 SWAP1 KECCAK256 SLOAD PUSH1 0xFF AND PUSH2 0x46B JUMPI PUSH1 0x1 PUSH1 0x1 PUSH1 0xA0 SHL SUB AND PUSH0 DUP2 DUP2 MSTORE PUSH0 MLOAD PUSH1 0x20 PUSH2 0x1950 PUSH0 CODECOPY PUSH0 MLOAD SWAP1 PUSH0 MSTORE PUSH1 0x20 MSTORE PUSH1 0x40 DUP2 KECCAK256 DUP1 SLOAD PUSH1 0xFF NOT AND PUSH1 0x1 OR SWAP1 SSTORE CALLER SWAP2 SWAP1 PUSH0 MLOAD PUSH1 0x20 PUSH2 0x19F0 PUSH0 CODECOPY PUSH0 MLOAD SWAP1 PUSH0 MSTORE SWAP1 PUSH0 MLOAD PUSH1 0x20 PUSH2 0x1930 PUSH0 CODECOPY PUSH0 MLOAD SWAP1 PUSH0 MSTORE SWAP1 DUP1 LOG4 PUSH1 0x1 SWAP1 JUMP JUMPDEST PUSH1 0x1 PUSH1 0x1 PUSH1 0xA0 SHL SUB DUP2 AND PUSH0 SWAP1 DUP2 MSTORE PUSH0 MLOAD PUSH1 0x20 PUSH2 0x19B0 PUSH0 CODECOPY PUSH0 MLOAD SWAP1 PUSH0 MSTORE PUSH1 0x20 MSTORE PUSH1 0x40 SWAP1 KECCAK256 SLOAD PUSH1 0xFF AND PUSH2 0x46B JUMPI PUSH1 0x1 PUSH1 0x1 PUSH1 0xA0 SHL SUB AND PUSH0 DUP2 DUP2 MSTORE PUSH0 MLOAD PUSH1 0x20 PUSH2 0x19B0 PUSH0 CODECOPY PUSH0 MLOAD SWAP1 PUSH0 MSTORE PUSH1 0x20 MSTORE PUSH1 0x40 DUP2 KECCAK256 DUP1 SLOAD PUSH1 0xFF NOT AND PUSH1 0x1 OR SWAP1 SSTORE CALLER SWAP2 SWAP1 PUSH0 MLOAD PUSH1 0x20 PUSH2 0x1A30 PUSH0 CODECOPY PUSH0 MLOAD SWAP1 PUSH0 MSTORE SWAP1 PUSH0 MLOAD PUSH1 0x20 PUSH2 0x1930 PUSH0 CODECOPY PUSH0 MLOAD SWAP1 PUSH0 MSTORE SWAP1 DUP1 LOG4 PUSH1 0x1 SWAP1 JUMP INVALID PUSH1 0x80 DUP1 PUSH1 0x40 MSTORE PUSH1 0x4 CALLDATASIZE LT ISZERO PUSH2 0x12 JUMPI PUSH0 DUP1 REVERT JUMPDEST PUSH0 CALLDATALOAD PUSH1 0xE0 SHR SWAP1 DUP2 PUSH4 0x1FFC9A7 EQ PUSH2 0xE14 JUMPI POP DUP1 PUSH4 0x97AAD10 EQ PUSH2 0xDF1 JUMPI DUP1 PUSH4 0x15B31BBB EQ PUSH2 0xD77 JUMPI DUP1 PUSH4 0x248A9CA3 EQ PUSH2 0xD45 JUMPI DUP1 PUSH4 0x2DEF6620 EQ PUSH2 0xC3B JUMPI DUP1 PUSH4 0x2F2FF15D EQ PUSH2 0xBFE JUMPI DUP1 PUSH4 0x36568ABE EQ PUSH2 0xBBA JUMPI DUP1 PUSH4 0x372500AB EQ PUSH2 0xB55 JUMPI DUP1 PUSH4 0x5EF23FA9 EQ PUSH2 0xA37 JUMPI DUP1 PUSH4 0x6FF1C9BC EQ PUSH2 0x93A JUMPI DUP1 PUSH4 0x7B0472F0 EQ PUSH2 0x763 JUMPI DUP1 PUSH4 0x80933608 EQ PUSH2 0x697 JUMPI DUP1 PUSH4 0x8980F11F EQ PUSH2 0x564 JUMPI DUP1 PUSH4 0x91D14854 EQ PUSH2 0x51C JUMPI DUP1 PUSH4 0x9FCA9C22 EQ PUSH2 0x4E4 JUMPI DUP1 PUSH4 0xA217FDDF EQ PUSH2 0x4CA JUMPI DUP1 PUSH4 0xAEA1B6EF EQ PUSH2 0x3CC JUMPI DUP1 PUSH4 0xB6B365C2 EQ PUSH2 0x316 JUMPI DUP1 PUSH4 0xBECEED39 EQ PUSH2 0x17E JUMPI DUP1 PUSH4 0xD547741F EQ PUSH2 0x13A JUMPI PUSH4 0xDFE6B5D6 EQ PUSH2 0x103 JUMPI PUSH0 DUP1 REVERT JUMPDEST CALLVALUE PUSH2 0x136 JUMPI PUSH0 CALLDATASIZE PUSH1 0x3 NOT ADD SLT PUSH2 0x136 JUMPI PUSH1 0x60 PUSH1 0x4 SLOAD PUSH1 0x5 SLOAD PUSH1 0xFF PUSH1 0x6 SLOAD AND SWAP1 PUSH1 0x40 MLOAD SWAP3 DUP4 MSTORE PUSH1 0x20 DUP4 ADD MSTORE ISZERO ISZERO PUSH1 0x40 DUP3 ADD MSTORE RETURN JUMPDEST PUSH0 DUP1 REVERT JUMPDEST CALLVALUE PUSH2 0x136 JUMPI PUSH1 0x40 CALLDATASIZE PUSH1 0x3 NOT ADD SLT PUSH2 0x136 JUMPI PUSH2 0x17C PUSH1 0x4 CALLDATALOAD PUSH2 0x159 PUSH2 0xE7D JUMP JUMPDEST SWAP1 PUSH2 0x177 PUSH2 0x172 DUP3 PUSH0 MSTORE PUSH0 PUSH1 0x20 MSTORE PUSH1 0x1 PUSH1 0x40 PUSH0 KECCAK256 ADD SLOAD SWAP1 JUMP JUMPDEST PUSH2 0x10DB JUMP JUMPDEST PUSH2 0x126D JUMP JUMPDEST STOP JUMPDEST CALLVALUE PUSH2 0x136 JUMPI PUSH1 0x20 CALLDATASIZE PUSH1 0x3 NOT ADD SLT PUSH2 0x136 JUMPI PUSH1 0x4 CALLDATALOAD PUSH2 0x19A PUSH2 0x1016 JUMP JUMPDEST CALLER PUSH0 SWAP1 DUP2 MSTORE PUSH32 0xF6C17DA3865D9645546DB4630D07C45803FB99F9B61DD452DE8DE1CD2159D254 PUSH1 0x20 MSTORE PUSH1 0x40 SWAP1 KECCAK256 SLOAD PUSH1 0xFF AND ISZERO PUSH2 0x2DF JUMPI DUP1 ISZERO PUSH2 0x2D0 JUMPI PUSH1 0x40 MLOAD PUSH4 0x70A08231 PUSH1 0xE0 SHL DUP2 MSTORE CALLER PUSH1 0x4 DUP3 ADD MSTORE PUSH32 0x0 SWAP1 PUSH1 0x20 DUP2 PUSH1 0x24 DUP2 PUSH1 0x1 PUSH1 0x1 PUSH1 0xA0 SHL SUB DUP7 AND GAS STATICCALL DUP1 ISZERO PUSH2 0x2C5 JUMPI DUP4 SWAP2 PUSH0 SWAP2 PUSH2 0x290 JUMPI JUMPDEST POP LT PUSH2 0x281 JUMPI DUP2 PUSH2 0x271 DUP2 PUSH1 0x20 SWAP4 PUSH2 0x26C PUSH32 0xF8FAD42E780BFA5459BE3FE691E8BA1AEC70342250112139C5771C3FD155F312 SWAP7 PUSH1 0x5 SLOAD SWAP3 ADDRESS SWAP1 CALLER SWAP1 PUSH2 0x12ED JUMP JUMPDEST PUSH2 0xF96 JUMP JUMPDEST PUSH1 0x5 SSTORE PUSH1 0x40 MLOAD SWAP1 DUP2 MSTORE LOG1 PUSH1 0x1 DUP1 SSTORE STOP JUMPDEST PUSH4 0x1E9ACF17 PUSH1 0xE3 SHL PUSH0 MSTORE PUSH1 0x4 PUSH0 REVERT JUMPDEST SWAP2 POP POP PUSH1 0x20 DUP2 RETURNDATASIZE PUSH1 0x20 GT PUSH2 0x2BD JUMPI JUMPDEST DUP2 PUSH2 0x2AC PUSH1 0x20 SWAP4 DUP4 PUSH2 0xF74 JUMP JUMPDEST DUP2 ADD SUB SLT PUSH2 0x136 JUMPI DUP3 SWAP1 MLOAD DUP5 PUSH2 0x22C JUMP JUMPDEST RETURNDATASIZE SWAP2 POP PUSH2 0x29F JUMP JUMPDEST PUSH1 0x40 MLOAD RETURNDATASIZE PUSH0 DUP3 RETURNDATACOPY RETURNDATASIZE SWAP1 REVERT JUMPDEST PUSH4 0x162908E3 PUSH1 0xE1 SHL PUSH0 MSTORE PUSH1 0x4 PUSH0 REVERT JUMPDEST PUSH4 0xE2517D3F PUSH1 0xE0 SHL PUSH0 MSTORE CALLER PUSH1 0x4 MSTORE PUSH32 0x51785D261C3B3E8C2CFE2D0E108B9AB2B1FB703FF9E9E49ABA4EBDC85C36152B PUSH1 0x24 MSTORE PUSH1 0x44 PUSH0 REVERT JUMPDEST CALLVALUE PUSH2 0x136 JUMPI PUSH0 CALLDATASIZE PUSH1 0x3 NOT ADD SLT PUSH2 0x136 JUMPI PUSH1 0x40 MLOAD DUP1 PUSH1 0x20 PUSH1 0x7 SLOAD SWAP3 DUP4 DUP2 MSTORE ADD DUP1 SWAP3 PUSH1 0x7 PUSH0 MSTORE PUSH32 0xA66CC928B5EDB82AF9BD49922954155AB7B0942694BEA4CE44661D9A8736C688 SWAP1 PUSH0 JUMPDEST DUP2 DUP2 LT PUSH2 0x3B6 JUMPI POP POP POP DUP2 PUSH2 0x374 SWAP2 SUB DUP3 PUSH2 0xF74 JUMP JUMPDEST PUSH1 0x40 MLOAD SWAP2 DUP3 SWAP2 PUSH1 0x20 DUP4 ADD SWAP1 PUSH1 0x20 DUP5 MSTORE MLOAD DUP1 SWAP2 MSTORE PUSH1 0x40 DUP4 ADD SWAP2 SWAP1 PUSH0 JUMPDEST DUP2 DUP2 LT PUSH2 0x39D JUMPI POP POP POP SUB SWAP1 RETURN JUMPDEST DUP3 MLOAD DUP5 MSTORE DUP6 SWAP5 POP PUSH1 0x20 SWAP4 DUP5 ADD SWAP4 SWAP1 SWAP3 ADD SWAP2 PUSH1 0x1 ADD PUSH2 0x38F JUMP JUMPDEST DUP3 SLOAD DUP5 MSTORE PUSH1 0x20 SWAP1 SWAP4 ADD SWAP3 PUSH1 0x1 SWAP3 DUP4 ADD SWAP3 ADD PUSH2 0x35E JUMP JUMPDEST CALLVALUE PUSH2 0x136 JUMPI PUSH1 0x60 CALLDATASIZE PUSH1 0x3 NOT ADD SLT PUSH2 0x136 JUMPI PUSH1 0x4 CALLDATALOAD PUSH1 0x24 CALLDATALOAD SWAP1 PUSH1 0x44 CALLDATALOAD DUP1 ISZERO ISZERO DUP1 SWAP2 SUB PUSH2 0x136 JUMPI PUSH2 0x3F9 PUSH2 0x1016 JUMP JUMPDEST PUSH2 0x401 PUSH2 0x106C JUMP JUMPDEST PUSH2 0x2710 DUP4 GT PUSH2 0x2D0 JUMPI PUSH0 PUSH1 0x7 SLOAD PUSH0 JUMPDEST DUP2 DUP2 LT PUSH2 0x4A0 JUMPI JUMPDEST POP POP ISZERO PUSH2 0x491 JUMPI DUP2 PUSH0 MSTORE PUSH1 0x2 PUSH1 0x20 MSTORE PUSH1 0x40 PUSH0 KECCAK256 SWAP1 DUP4 PUSH1 0x1 DUP4 ADD DUP2 DUP2 SLOAD SUB PUSH2 0x489 JUMPI JUMPDEST POP POP DUP1 PUSH1 0xFF DUP4 SLOAD AND ISZERO ISZERO SUB PUSH2 0x476 JUMPI JUMPDEST POP POP PUSH32 0xAD2954A6781CDC42B8AF5DF6F557041B3F146AAF8FBC031D767B7AD48164CFF1 PUSH0 DUP1 LOG3 PUSH1 0x1 DUP1 SSTORE STOP JUMPDEST PUSH1 0xFF DUP1 NOT DUP4 SLOAD AND SWAP2 AND OR SWAP1 SSTORE DUP3 DUP1 PUSH2 0x44A JUMP JUMPDEST SSTORE DUP4 DUP6 PUSH2 0x43A JUMP JUMPDEST PUSH4 0x76166401 PUSH1 0xE0 SHL PUSH0 MSTORE PUSH1 0x4 PUSH0 REVERT JUMPDEST DUP5 PUSH2 0x4AA DUP3 PUSH2 0xFEA JUMP JUMPDEST SWAP1 SLOAD SWAP1 PUSH1 0x3 SHL SHR EQ PUSH2 0x4BE JUMPI PUSH1 0x1 ADD PUSH2 0x410 JUMP JUMPDEST POP POP POP PUSH1 0x1 DUP5 DUP1 PUSH2 0x418 JUMP JUMPDEST CALLVALUE PUSH2 0x136 JUMPI PUSH0 CALLDATASIZE PUSH1 0x3 NOT ADD SLT PUSH2 0x136 JUMPI PUSH1 0x20 PUSH1 0x40 MLOAD PUSH0 DUP2 MSTORE RETURN JUMPDEST CALLVALUE PUSH2 0x136 JUMPI PUSH1 0x20 CALLDATASIZE PUSH1 0x3 NOT ADD SLT PUSH2 0x136 JUMPI PUSH1 0x4 CALLDATALOAD PUSH0 MSTORE PUSH1 0x2 PUSH1 0x20 MSTORE PUSH1 0x40 DUP1 PUSH0 KECCAK256 PUSH1 0x1 PUSH1 0xFF DUP3 SLOAD AND SWAP2 ADD SLOAD DUP3 MLOAD SWAP2 ISZERO ISZERO DUP3 MSTORE PUSH1 0x20 DUP3 ADD MSTORE RETURN JUMPDEST CALLVALUE PUSH2 0x136 JUMPI PUSH1 0x40 CALLDATASIZE PUSH1 0x3 NOT ADD SLT PUSH2 0x136 JUMPI PUSH2 0x535 PUSH2 0xE7D JUMP JUMPDEST PUSH1 0x4 CALLDATALOAD PUSH0 MSTORE PUSH0 PUSH1 0x20 MSTORE PUSH1 0x40 PUSH0 KECCAK256 SWAP1 PUSH1 0x1 DUP1 PUSH1 0xA0 SHL SUB AND PUSH0 MSTORE PUSH1 0x20 MSTORE PUSH1 0x20 PUSH1 0xFF PUSH1 0x40 PUSH0 KECCAK256 SLOAD AND PUSH1 0x40 MLOAD SWAP1 ISZERO ISZERO DUP2 MSTORE RETURN JUMPDEST CALLVALUE PUSH2 0x136 JUMPI PUSH1 0x40 CALLDATASIZE PUSH1 0x3 NOT ADD SLT PUSH2 0x136 JUMPI PUSH2 0x57D PUSH2 0xE67 JUMP JUMPDEST PUSH1 0x24 CALLDATALOAD SWAP1 PUSH2 0x589 PUSH2 0x1016 JUMP JUMPDEST PUSH2 0x591 PUSH2 0x106C JUMP JUMPDEST PUSH1 0x1 PUSH1 0x1 PUSH1 0xA0 SHL SUB AND DUP1 ISZERO PUSH2 0x688 JUMPI DUP2 ISZERO PUSH2 0x2D0 JUMPI PUSH32 0x0 PUSH1 0x1 PUSH1 0x1 PUSH1 0xA0 SHL SUB AND DUP2 EQ PUSH2 0x679 JUMPI PUSH1 0x40 MLOAD PUSH4 0x70A08231 PUSH1 0xE0 SHL DUP2 MSTORE ADDRESS PUSH1 0x4 DUP3 ADD MSTORE PUSH1 0x20 DUP2 PUSH1 0x24 DUP2 DUP6 GAS STATICCALL DUP1 ISZERO PUSH2 0x2C5 JUMPI DUP4 SWAP2 PUSH0 SWAP2 PUSH2 0x644 JUMPI JUMPDEST POP LT PUSH2 0x281 JUMPI PUSH2 0x612 DUP3 CALLER DUP4 PUSH2 0x1113 JUMP JUMPDEST PUSH1 0x40 MLOAD SWAP2 DUP3 MSTORE PUSH32 0x8619312ED4EFF1CF9F0116E6DB2F49D9570A86F0350D1C5AD1BD0F7B0CF9E132 PUSH1 0x20 CALLER SWAP4 LOG3 PUSH1 0x1 DUP1 SSTORE STOP JUMPDEST SWAP2 POP POP PUSH1 0x20 DUP2 RETURNDATASIZE PUSH1 0x20 GT PUSH2 0x671 JUMPI JUMPDEST DUP2 PUSH2 0x660 PUSH1 0x20 SWAP4 DUP4 PUSH2 0xF74 JUMP JUMPDEST DUP2 ADD SUB SLT PUSH2 0x136 JUMPI DUP3 SWAP1 MLOAD DUP5 PUSH2 0x601 JUMP JUMPDEST RETURNDATASIZE SWAP2 POP PUSH2 0x653 JUMP JUMPDEST PUSH4 0xFFC9B52B PUSH1 0xE0 SHL PUSH0 MSTORE PUSH1 0x4 PUSH0 REVERT JUMPDEST PUSH4 0xF6B2911F PUSH1 0xE0 SHL PUSH0 MSTORE PUSH1 0x4 PUSH0 REVERT JUMPDEST CALLVALUE PUSH2 0x136 JUMPI PUSH1 0x20 CALLDATASIZE PUSH1 0x3 NOT ADD SLT PUSH2 0x136 JUMPI PUSH1 0xE0 PUSH2 0x6B2 PUSH2 0xE67 JUMP JUMPDEST PUSH2 0x6BA PUSH2 0xFA3 JUMP JUMPDEST POP PUSH1 0x1 PUSH1 0x1 PUSH1 0xA0 SHL SUB DUP2 AND PUSH0 SWAP1 DUP2 MSTORE PUSH1 0x3 PUSH1 0x20 MSTORE PUSH1 0x40 SWAP1 KECCAK256 SWAP1 PUSH2 0x6DB PUSH2 0xFA3 JUMP JUMPDEST SWAP2 DUP1 SLOAD DUP4 MSTORE PUSH1 0x1 DUP2 ADD SLOAD SWAP1 PUSH1 0x20 DUP5 ADD SWAP2 DUP3 MSTORE PUSH1 0x3 DUP2 ADD SLOAD PUSH1 0x40 DUP6 ADD SWAP1 DUP2 MSTORE PUSH1 0x4 DUP3 ADD SLOAD SWAP1 PUSH1 0x60 DUP7 ADD SWAP2 DUP3 MSTORE PUSH2 0x72C PUSH1 0xFF PUSH1 0x6 PUSH1 0x5 DUP7 ADD SLOAD SWAP6 PUSH1 0x80 DUP11 ADD SWAP7 DUP8 MSTORE ADD SLOAD AND SWAP6 PUSH1 0xC0 DUP9 ADD SWAP7 ISZERO ISZERO DUP8 MSTORE PUSH2 0xECA JUMP JUMPDEST SWAP4 PUSH1 0xA0 DUP8 ADD SWAP5 DUP6 MSTORE PUSH1 0x40 MLOAD SWAP7 MLOAD DUP8 MSTORE MLOAD PUSH1 0x20 DUP8 ADD MSTORE MLOAD PUSH1 0x40 DUP7 ADD MSTORE MLOAD PUSH1 0x60 DUP6 ADD MSTORE MLOAD PUSH1 0x80 DUP5 ADD MSTORE MLOAD PUSH1 0xA0 DUP4 ADD MSTORE MLOAD ISZERO ISZERO PUSH1 0xC0 DUP3 ADD MSTORE RETURN JUMPDEST CALLVALUE PUSH2 0x136 JUMPI PUSH2 0x771 CALLDATASIZE PUSH2 0xE93 JUMP JUMPDEST SWAP1 PUSH2 0x77A PUSH2 0x1016 JUMP JUMPDEST PUSH1 0xFF PUSH1 0x6 SLOAD AND PUSH1 0x4 SLOAD SWAP1 PUSH2 0x92B JUMPI DUP2 ISZERO PUSH2 0x2D0 JUMPI DUP3 PUSH0 MSTORE PUSH1 0x2 PUSH1 0x20 MSTORE PUSH1 0x40 PUSH0 KECCAK256 SWAP1 PUSH1 0xFF DUP3 SLOAD AND ISZERO PUSH2 0x91C JUMPI PUSH1 0x40 MLOAD PUSH4 0x70A08231 PUSH1 0xE0 SHL DUP2 MSTORE CALLER PUSH1 0x4 DUP3 ADD MSTORE PUSH32 0x0 SWAP2 SWAP1 PUSH1 0x20 DUP2 PUSH1 0x24 DUP2 PUSH1 0x1 PUSH1 0x1 PUSH1 0xA0 SHL SUB DUP8 AND GAS STATICCALL DUP1 ISZERO PUSH2 0x2C5 JUMPI DUP6 SWAP2 PUSH0 SWAP2 PUSH2 0x8E7 JUMPI JUMPDEST POP LT PUSH2 0x281 JUMPI PUSH2 0x86E SWAP3 DUP5 SWAP3 CALLER PUSH0 MSTORE PUSH1 0x3 PUSH1 0x20 MSTORE PUSH1 0x1 PUSH1 0x40 PUSH0 KECCAK256 SWAP3 PUSH1 0x6 DUP5 ADD SWAP3 PUSH1 0xFF DUP5 SLOAD AND PUSH2 0x8A3 JUMPI JUMPDEST PUSH2 0x83E DUP8 PUSH2 0x834 DUP13 TIMESTAMP PUSH2 0xF96 JUMP JUMPDEST SWAP3 ADDRESS SWAP1 CALLER SWAP1 PUSH2 0x12ED JUMP JUMPDEST DUP7 DUP6 SSTORE TIMESTAMP DUP4 DUP7 ADD SSTORE PUSH1 0x3 DUP6 ADD SSTORE DUP9 PUSH1 0x4 DUP6 ADD SSTORE ADD SLOAD PUSH1 0x5 DUP4 ADD SSTORE PUSH1 0x1 PUSH1 0xFF NOT DUP3 SLOAD AND OR SWAP1 SSTORE PUSH1 0x2 TIMESTAMP SWAP2 ADD SSTORE PUSH2 0xF96 JUMP JUMPDEST PUSH1 0x4 SSTORE PUSH1 0x40 MLOAD SWAP1 DUP2 MSTORE PUSH32 0x1449C6DD7851ABC30ABF37F57715F492010519147CC2652FBC38202C18A6EE90 PUSH1 0x20 CALLER SWAP3 LOG3 PUSH1 0x1 DUP1 SSTORE STOP JUMPDEST DUP3 DUP6 ADD SLOAD DUP1 ISZERO ISZERO SWAP1 DUP2 PUSH2 0x8DC JUMPI JUMPDEST POP ISZERO PUSH2 0x826 JUMPI PUSH2 0x8C0 CALLER PUSH2 0xECA JUMP JUMPDEST DUP1 PUSH2 0x8CC JUMPI JUMPDEST POP PUSH2 0x826 JUMP JUMPDEST PUSH2 0x8D6 SWAP1 CALLER PUSH2 0x1155 JUMP JUMPDEST DUP11 PUSH2 0x8C6 JUMP JUMPDEST SWAP1 POP TIMESTAMP LT ISZERO DUP12 PUSH2 0x8B1 JUMP JUMPDEST SWAP2 POP POP PUSH1 0x20 DUP2 RETURNDATASIZE PUSH1 0x20 GT PUSH2 0x914 JUMPI JUMPDEST DUP2 PUSH2 0x903 PUSH1 0x20 SWAP4 DUP4 PUSH2 0xF74 JUMP JUMPDEST DUP2 ADD SUB SLT PUSH2 0x136 JUMPI DUP5 SWAP1 MLOAD DUP8 PUSH2 0x7FC JUMP JUMPDEST RETURNDATASIZE SWAP2 POP PUSH2 0x8F6 JUMP JUMPDEST PUSH4 0xEA48BA2B PUSH1 0xE0 SHL PUSH0 MSTORE PUSH1 0x4 PUSH0 REVERT JUMPDEST PUSH4 0x1A4A6F3B PUSH1 0xE2 SHL PUSH0 MSTORE PUSH1 0x4 PUSH0 REVERT JUMPDEST CALLVALUE PUSH2 0x136 JUMPI PUSH1 0x20 CALLDATASIZE PUSH1 0x3 NOT ADD SLT PUSH2 0x136 JUMPI PUSH2 0x953 PUSH2 0xE67 JUMP JUMPDEST PUSH2 0x95B PUSH2 0x1016 JUMP JUMPDEST PUSH2 0x963 PUSH2 0x106C JUMP JUMPDEST PUSH1 0x1 PUSH1 0x1 PUSH1 0xA0 SHL SUB DUP2 AND SWAP1 DUP2 ISZERO PUSH2 0x688 JUMPI DUP2 PUSH0 MSTORE PUSH1 0x3 PUSH1 0x20 MSTORE PUSH1 0x40 PUSH0 KECCAK256 SWAP1 PUSH1 0x6 DUP3 ADD SWAP2 DUP3 SLOAD PUSH1 0xFF DUP2 AND ISZERO PUSH2 0xA28 JUMPI PUSH32 0x5FAFA99D0643513820BE26656B45130B01E1C03062E1266BF36F88CBD3BD9695 SWAP4 PUSH1 0x20 SWAP4 PUSH2 0x9F2 PUSH2 0xA1B SWAP4 PUSH1 0x4 SLOAD PUSH0 PUSH1 0x2 DUP9 SLOAD SWAP9 DUP10 SWAP8 DUP9 SWAP6 DUP5 DUP4 SSTORE DUP5 PUSH1 0x1 DUP5 ADD SSTORE DUP5 PUSH1 0x3 DUP5 ADD SSTORE DUP5 PUSH1 0x4 DUP5 ADD SSTORE DUP5 PUSH1 0x5 DUP5 ADD SSTORE PUSH1 0xFF NOT AND SWAP1 SSTORE ADD SSTORE PUSH2 0xEA9 JUMP JUMPDEST PUSH1 0x4 SSTORE PUSH32 0x0 PUSH2 0x1113 JUMP JUMPDEST PUSH1 0x40 MLOAD SWAP1 DUP2 MSTORE LOG2 PUSH1 0x1 DUP1 SSTORE STOP JUMPDEST PUSH4 0x7D9A44A1 PUSH1 0xE1 SHL PUSH0 MSTORE PUSH1 0x4 PUSH0 REVERT JUMPDEST CALLVALUE PUSH2 0x136 JUMPI PUSH2 0xA45 CALLDATASIZE PUSH2 0xE93 JUMP JUMPDEST SWAP1 PUSH2 0xA4E PUSH2 0x1016 JUMP JUMPDEST PUSH2 0xA56 PUSH2 0x106C JUMP JUMPDEST PUSH4 0x9660180 DUP2 GT PUSH2 0xB3E JUMPI PUSH2 0x2710 DUP3 GT PUSH2 0x2D0 JUMPI DUP1 ISZERO PUSH2 0x491 JUMPI DUP1 PUSH0 MSTORE PUSH1 0x2 PUSH1 0x20 MSTORE PUSH1 0xFF PUSH1 0x40 PUSH0 KECCAK256 SLOAD AND PUSH2 0xB2F JUMPI PUSH1 0x14 PUSH1 0x7 SLOAD LT ISZERO PUSH2 0xB20 JUMPI DUP1 PUSH0 MSTORE PUSH1 0x2 PUSH1 0x20 MSTORE DUP2 PUSH1 0x1 PUSH1 0x40 PUSH0 KECCAK256 DUP2 PUSH1 0xFF NOT DUP3 SLOAD AND OR DUP2 SSTORE ADD SSTORE PUSH1 0x7 SLOAD PUSH9 0x10000000000000000 DUP2 LT ISZERO PUSH2 0xB0C JUMPI DUP1 PUSH1 0x1 PUSH2 0xACE SWAP3 ADD PUSH1 0x7 SSTORE PUSH2 0xFEA JUMP JUMPDEST DUP2 SLOAD SWAP1 PUSH1 0x3 SHL SWAP1 DUP4 DUP3 SHL SWAP2 PUSH0 NOT SWAP1 SHL NOT AND OR SWAP1 SSTORE PUSH32 0x682563ED446791DCD2BB66AA531EBAF528BCE493E57F037313263799851BC364 PUSH0 DUP1 LOG3 PUSH1 0x1 DUP1 SSTORE STOP JUMPDEST PUSH4 0x4E487B71 PUSH1 0xE0 SHL PUSH0 MSTORE PUSH1 0x41 PUSH1 0x4 MSTORE PUSH1 0x24 PUSH0 REVERT JUMPDEST PUSH4 0x5BB01E5B PUSH1 0xE0 SHL PUSH0 MSTORE PUSH1 0x4 PUSH0 REVERT JUMPDEST PUSH4 0x57706857 PUSH1 0xE1 SHL PUSH0 MSTORE PUSH1 0x4 PUSH0 REVERT JUMPDEST PUSH4 0xB666AEB7 PUSH1 0xE0 SHL PUSH0 MSTORE PUSH4 0x9660180 PUSH1 0x4 MSTORE PUSH1 0x24 PUSH0 REVERT JUMPDEST CALLVALUE PUSH2 0x136 JUMPI PUSH0 CALLDATASIZE PUSH1 0x3 NOT ADD SLT PUSH2 0x136 JUMPI PUSH2 0xB6D PUSH2 0x1016 JUMP JUMPDEST CALLER PUSH0 MSTORE PUSH1 0x3 PUSH1 0x20 MSTORE PUSH1 0x40 PUSH0 KECCAK256 PUSH1 0xFF PUSH1 0x6 DUP3 ADD SLOAD AND ISZERO PUSH2 0xA28 JUMPI PUSH2 0xB8F CALLER PUSH2 0xECA JUMP JUMPDEST DUP1 ISZERO PUSH2 0xBAB JUMPI PUSH2 0xBA5 SWAP2 PUSH1 0x2 TIMESTAMP SWAP2 ADD SSTORE CALLER PUSH2 0x1155 JUMP JUMPDEST PUSH1 0x1 DUP1 SSTORE STOP JUMPDEST PUSH4 0xAFB0BE33 PUSH1 0xE0 SHL PUSH0 MSTORE PUSH1 0x4 PUSH0 REVERT JUMPDEST CALLVALUE PUSH2 0x136 JUMPI PUSH1 0x40 CALLDATASIZE PUSH1 0x3 NOT ADD SLT PUSH2 0x136 JUMPI PUSH2 0xBD3 PUSH2 0xE7D JUMP JUMPDEST CALLER PUSH1 0x1 PUSH1 0x1 PUSH1 0xA0 SHL SUB DUP3 AND SUB PUSH2 0xBEF JUMPI PUSH2 0x17C SWAP1 PUSH1 0x4 CALLDATALOAD PUSH2 0x126D JUMP JUMPDEST PUSH4 0x334BD919 PUSH1 0xE1 SHL PUSH0 MSTORE PUSH1 0x4 PUSH0 REVERT JUMPDEST CALLVALUE PUSH2 0x136 JUMPI PUSH1 0x40 CALLDATASIZE PUSH1 0x3 NOT ADD SLT PUSH2 0x136 JUMPI PUSH2 0x17C PUSH1 0x4 CALLDATALOAD PUSH2 0xC1D PUSH2 0xE7D JUMP JUMPDEST SWAP1 PUSH2 0xC36 PUSH2 0x172 DUP3 PUSH0 MSTORE PUSH0 PUSH1 0x20 MSTORE PUSH1 0x1 PUSH1 0x40 PUSH0 KECCAK256 ADD SLOAD SWAP1 JUMP JUMPDEST PUSH2 0x11EB JUMP JUMPDEST CALLVALUE PUSH2 0x136 JUMPI PUSH0 CALLDATASIZE PUSH1 0x3 NOT ADD SLT PUSH2 0x136 JUMPI PUSH2 0xC53 PUSH2 0x1016 JUMP JUMPDEST CALLER PUSH0 MSTORE PUSH1 0x3 PUSH1 0x20 MSTORE PUSH1 0x40 PUSH0 KECCAK256 PUSH1 0x6 DUP2 ADD SWAP1 DUP2 SLOAD SWAP1 PUSH1 0xFF DUP3 AND ISZERO PUSH2 0xA28 JUMPI PUSH1 0x3 DUP2 ADD SWAP2 DUP3 SLOAD TIMESTAMP GT ISZERO PUSH2 0xD36 JUMPI PUSH2 0xCBC SWAP2 PUSH0 PUSH1 0x2 PUSH1 0x4 SLOAD SWAP3 DUP1 SLOAD SWAP8 DUP9 SWAP6 DUP5 PUSH2 0xC98 CALLER PUSH2 0xECA JUMP JUMPDEST SWAP10 DUP2 DUP6 SSTORE DUP2 PUSH1 0x1 DUP7 ADD SSTORE SSTORE DUP5 PUSH1 0x4 DUP5 ADD SSTORE DUP5 PUSH1 0x5 DUP5 ADD SSTORE PUSH1 0xFF NOT AND SWAP1 SSTORE ADD SSTORE PUSH2 0xEA9 JUMP JUMPDEST PUSH1 0x4 SSTORE PUSH2 0xCEA DUP3 CALLER PUSH32 0x0 PUSH2 0x1113 JUMP JUMPDEST DUP1 PUSH2 0xD27 JUMPI JUMPDEST PUSH1 0x40 MLOAD SWAP2 DUP3 MSTORE PUSH1 0x20 DUP3 ADD MSTORE PUSH32 0x7FC4727E062E336010F2C282598EF5F14FACB3DE68CF8195C2F23E1454B2B74E PUSH1 0x40 CALLER SWAP3 LOG2 PUSH1 0x1 DUP1 SSTORE STOP JUMPDEST PUSH2 0xD31 DUP2 CALLER PUSH2 0x1155 JUMP JUMPDEST PUSH2 0xCF0 JUMP JUMPDEST PUSH4 0x25E5FF65 PUSH1 0xE0 SHL PUSH0 MSTORE PUSH1 0x4 PUSH0 REVERT JUMPDEST CALLVALUE PUSH2 0x136 JUMPI PUSH1 0x20 CALLDATASIZE PUSH1 0x3 NOT ADD SLT PUSH2 0x136 JUMPI PUSH1 0x20 PUSH2 0xD6F PUSH1 0x4 CALLDATALOAD PUSH0 MSTORE PUSH0 PUSH1 0x20 MSTORE PUSH1 0x1 PUSH1 0x40 PUSH0 KECCAK256 ADD SLOAD SWAP1 JUMP JUMPDEST PUSH1 0x40 MLOAD SWAP1 DUP2 MSTORE RETURN JUMPDEST CALLVALUE PUSH2 0x136 JUMPI PUSH1 0x20 CALLDATASIZE PUSH1 0x3 NOT ADD SLT PUSH2 0x136 JUMPI PUSH1 0x4 CALLDATALOAD DUP1 ISZERO ISZERO DUP1 SWAP2 SUB PUSH2 0x136 JUMPI PUSH2 0xD9D PUSH2 0x1016 JUMP JUMPDEST PUSH2 0xDA5 PUSH2 0x106C JUMP JUMPDEST PUSH1 0x6 SLOAD DUP2 PUSH1 0xFF DUP3 AND ISZERO ISZERO SUB PUSH2 0xDBA JUMPI PUSH1 0x1 DUP1 SSTORE STOP JUMPDEST PUSH1 0xFF NOT AND PUSH1 0xFF DUP3 AND OR PUSH1 0x6 SSTORE PUSH32 0x3CF4FE733160F8F8C48336FAB32ACEE32EBAAA423A08A2BE4E5CEFF97DD98C69 PUSH0 DUP1 LOG2 DUP1 DUP1 PUSH2 0xBA5 JUMP JUMPDEST CALLVALUE PUSH2 0x136 JUMPI PUSH1 0x20 CALLDATASIZE PUSH1 0x3 NOT ADD SLT PUSH2 0x136 JUMPI PUSH1 0x20 PUSH2 0xD6F PUSH2 0xE0F PUSH2 0xE67 JUMP JUMPDEST PUSH2 0xECA JUMP JUMPDEST CALLVALUE PUSH2 0x136 JUMPI PUSH1 0x20 CALLDATASIZE PUSH1 0x3 NOT ADD SLT PUSH2 0x136 JUMPI PUSH1 0x4 CALLDATALOAD SWAP1 PUSH4 0xFFFFFFFF PUSH1 0xE0 SHL DUP3 AND DUP1 SWAP3 SUB PUSH2 0x136 JUMPI PUSH1 0x20 SWAP2 PUSH4 0x7965DB0B PUSH1 0xE0 SHL DUP2 EQ SWAP1 DUP2 ISZERO PUSH2 0xE56 JUMPI JUMPDEST POP ISZERO ISZERO DUP2 MSTORE RETURN JUMPDEST PUSH4 0x1FFC9A7 PUSH1 0xE0 SHL EQ SWAP1 POP DUP4 PUSH2 0xE4F JUMP JUMPDEST PUSH1 0x4 CALLDATALOAD SWAP1 PUSH1 0x1 PUSH1 0x1 PUSH1 0xA0 SHL SUB DUP3 AND DUP3 SUB PUSH2 0x136 JUMPI JUMP JUMPDEST PUSH1 0x24 CALLDATALOAD SWAP1 PUSH1 0x1 PUSH1 0x1 PUSH1 0xA0 SHL SUB DUP3 AND DUP3 SUB PUSH2 0x136 JUMPI JUMP JUMPDEST PUSH1 0x40 SWAP1 PUSH1 0x3 NOT ADD SLT PUSH2 0x136 JUMPI PUSH1 0x4 CALLDATALOAD SWAP1 PUSH1 0x24 CALLDATALOAD SWAP1 JUMP JUMPDEST SWAP2 SWAP1 DUP3 SUB SWAP2 DUP3 GT PUSH2 0xEB6 JUMPI JUMP JUMPDEST PUSH4 0x4E487B71 PUSH1 0xE0 SHL PUSH0 MSTORE PUSH1 0x11 PUSH1 0x4 MSTORE PUSH1 0x24 PUSH0 REVERT JUMPDEST PUSH1 0x1 PUSH1 0x1 PUSH1 0xA0 SHL SUB AND PUSH0 SWAP1 DUP2 MSTORE PUSH1 0x3 PUSH1 0x20 MSTORE PUSH1 0x40 SWAP1 KECCAK256 PUSH1 0x6 DUP2 ADD SLOAD PUSH1 0xFF AND ISZERO DUP1 ISZERO PUSH2 0xF6B JUMPI JUMPDEST PUSH2 0xF66 JUMPI PUSH2 0xF12 TIMESTAMP PUSH1 0x3 DUP4 ADD SLOAD DUP1 TIMESTAMP LT ISZERO PUSH2 0xF5E JUMPI JUMPDEST POP PUSH1 0x2 DUP4 ADD SLOAD SWAP1 PUSH2 0xEA9 JUMP JUMPDEST SWAP1 DUP2 ISZERO PUSH2 0xF58 JUMPI PUSH1 0x5 DUP2 SLOAD SWAP2 ADD SLOAD DUP1 PUSH0 NOT DIV DUP3 GT DUP2 MUL ISZERO PUSH2 0x2710 MUL ISZERO PUSH2 0x136 JUMPI PUSH2 0x2710 SWAP2 MUL DIV SWAP1 DUP1 PUSH0 NOT DIV DUP3 GT DUP2 MUL ISZERO PUSH4 0x1E13380 MUL ISZERO PUSH2 0x136 JUMPI PUSH4 0x1E13380 SWAP2 MUL DIV SWAP1 JUMP JUMPDEST POP POP PUSH0 SWAP1 JUMP JUMPDEST SWAP1 POP PUSH0 PUSH2 0xF06 JUMP JUMPDEST POP PUSH0 SWAP1 JUMP JUMPDEST POP DUP1 SLOAD ISZERO PUSH2 0xEF0 JUMP JUMPDEST SWAP1 PUSH1 0x1F DUP1 NOT SWAP2 ADD AND DUP2 ADD SWAP1 DUP2 LT PUSH8 0xFFFFFFFFFFFFFFFF DUP3 GT OR PUSH2 0xB0C JUMPI PUSH1 0x40 MSTORE JUMP JUMPDEST SWAP2 SWAP1 DUP3 ADD DUP1 SWAP3 GT PUSH2 0xEB6 JUMPI JUMP JUMPDEST PUSH1 0x40 MLOAD SWAP1 PUSH1 0xE0 DUP3 ADD DUP3 DUP2 LT PUSH8 0xFFFFFFFFFFFFFFFF DUP3 GT OR PUSH2 0xB0C JUMPI PUSH1 0x40 MSTORE PUSH0 PUSH1 0xC0 DUP4 DUP3 DUP2 MSTORE DUP3 PUSH1 0x20 DUP3 ADD MSTORE DUP3 PUSH1 0x40 DUP3 ADD MSTORE DUP3 PUSH1 0x60 DUP3 ADD MSTORE DUP3 PUSH1 0x80 DUP3 ADD MSTORE DUP3 PUSH1 0xA0 DUP3 ADD MSTORE ADD MSTORE JUMP JUMPDEST PUSH1 0x7 SLOAD DUP2 LT ISZERO PUSH2 0x1002 JUMPI PUSH1 0x7 PUSH0 MSTORE PUSH1 0x20 PUSH0 KECCAK256 ADD SWAP1 PUSH0 SWAP1 JUMP JUMPDEST PUSH4 0x4E487B71 PUSH1 0xE0 SHL PUSH0 MSTORE PUSH1 0x32 PUSH1 0x4 MSTORE PUSH1 0x24 PUSH0 REVERT JUMPDEST PUSH1 0x2 PUSH1 0x1 SLOAD EQ PUSH2 0x1027 JUMPI PUSH1 0x2 PUSH1 0x1 SSTORE JUMP JUMPDEST PUSH1 0x40 MLOAD PUSH3 0x461BCD PUSH1 0xE5 SHL DUP2 MSTORE PUSH1 0x20 PUSH1 0x4 DUP3 ADD MSTORE PUSH1 0x1F PUSH1 0x24 DUP3 ADD MSTORE PUSH32 0x5265656E7472616E637947756172643A207265656E7472616E742063616C6C00 PUSH1 0x44 DUP3 ADD MSTORE PUSH1 0x64 SWAP1 REVERT JUMPDEST CALLER PUSH0 SWAP1 DUP2 MSTORE PUSH32 0x7D7FFB7A348E1C6A02869081A26547B49160DD3DF72D1D75A570EB9B698292EC PUSH1 0x20 MSTORE PUSH1 0x40 SWAP1 KECCAK256 SLOAD PUSH1 0xFF AND ISZERO PUSH2 0x10A4 JUMPI JUMP JUMPDEST PUSH4 0xE2517D3F PUSH1 0xE0 SHL PUSH0 MSTORE CALLER PUSH1 0x4 MSTORE PUSH32 0xA49807205CE4D355092EF5A8A18F56E8913CF4A201FBE287825B095693C21775 PUSH1 0x24 MSTORE PUSH1 0x44 PUSH0 REVERT JUMPDEST PUSH0 DUP2 DUP2 MSTORE PUSH1 0x20 DUP2 DUP2 MSTORE PUSH1 0x40 DUP1 DUP4 KECCAK256 CALLER DUP5 MSTORE SWAP1 SWAP2 MSTORE SWAP1 KECCAK256 SLOAD PUSH1 0xFF AND ISZERO PUSH2 0x10FD JUMPI POP JUMP JUMPDEST PUSH4 0xE2517D3F PUSH1 0xE0 SHL PUSH0 MSTORE CALLER PUSH1 0x4 MSTORE PUSH1 0x24 MSTORE PUSH1 0x44 PUSH0 REVERT JUMPDEST PUSH1 0x40 MLOAD PUSH4 0xA9059CBB PUSH1 0xE0 SHL PUSH1 0x20 DUP3 ADD MSTORE PUSH1 0x1 PUSH1 0x1 PUSH1 0xA0 SHL SUB SWAP1 SWAP3 AND PUSH1 0x24 DUP4 ADD MSTORE PUSH1 0x44 DUP1 DUP4 ADD SWAP4 SWAP1 SWAP4 MSTORE SWAP2 DUP2 MSTORE PUSH2 0x1153 SWAP2 PUSH2 0x114E PUSH1 0x64 DUP4 PUSH2 0xF74 JUMP JUMPDEST PUSH2 0x1331 JUMP JUMPDEST JUMP JUMPDEST PUSH1 0x1 PUSH1 0x1 PUSH1 0xA0 SHL SUB DUP2 AND SWAP2 DUP3 ISZERO PUSH2 0x688 JUMPI DUP1 ISZERO PUSH2 0x2D0 JUMPI PUSH1 0x5 SLOAD SWAP1 DUP2 DUP2 LT ISZERO PUSH2 0x11DC JUMPI PUSH2 0x11D3 DUP2 PUSH32 0x106F923F993C2149D49B4255FF723ACAFA1F2D94393F561D3EDA32AE348F7241 SWAP5 PUSH2 0x11AA DUP3 PUSH1 0x20 SWAP7 PUSH2 0xEA9 JUMP JUMPDEST PUSH1 0x5 SSTORE PUSH32 0x0 PUSH2 0x1113 JUMP JUMPDEST PUSH1 0x40 MLOAD SWAP1 DUP2 MSTORE LOG2 JUMP JUMPDEST PUSH4 0x447B0F67 PUSH1 0xE0 SHL PUSH0 MSTORE PUSH1 0x4 PUSH0 REVERT JUMPDEST PUSH0 DUP2 DUP2 MSTORE PUSH1 0x20 DUP2 DUP2 MSTORE PUSH1 0x40 DUP1 DUP4 KECCAK256 PUSH1 0x1 PUSH1 0x1 PUSH1 0xA0 SHL SUB DUP7 AND DUP5 MSTORE SWAP1 SWAP2 MSTORE SWAP1 KECCAK256 SLOAD PUSH1 0xFF AND PUSH2 0xF58 JUMPI PUSH0 DUP2 DUP2 MSTORE PUSH1 0x20 DUP2 DUP2 MSTORE PUSH1 0x40 DUP1 DUP4 KECCAK256 PUSH1 0x1 PUSH1 0x1 PUSH1 0xA0 SHL SUB SWAP6 SWAP1 SWAP6 AND DUP1 DUP5 MSTORE SWAP5 SWAP1 SWAP2 MSTORE DUP2 KECCAK256 DUP1 SLOAD PUSH1 0xFF NOT AND PUSH1 0x1 OR SWAP1 SSTORE CALLER SWAP3 SWAP2 SWAP1 PUSH32 0x2F8788117E7EFF1D82E926EC794901D17C78024A50270940304540A733656F0D SWAP1 DUP1 LOG4 PUSH1 0x1 SWAP1 JUMP JUMPDEST PUSH0 DUP2 DUP2 MSTORE PUSH1 0x20 DUP2 DUP2 MSTORE PUSH1 0x40 DUP1 DUP4 KECCAK256 PUSH1 0x1 PUSH1 0x1 PUSH1 0xA0 SHL SUB DUP7 AND DUP5 MSTORE SWAP1 SWAP2 MSTORE SWAP1 KECCAK256 SLOAD PUSH1 0xFF AND ISZERO PUSH2 0xF58 JUMPI PUSH0 DUP2 DUP2 MSTORE PUSH1 0x20 DUP2 DUP2 MSTORE PUSH1 0x40 DUP1 DUP4 KECCAK256 PUSH1 0x1 PUSH1 0x1 PUSH1 0xA0 SHL SUB SWAP6 SWAP1 SWAP6 AND DUP1 DUP5 MSTORE SWAP5 SWAP1 SWAP2 MSTORE DUP2 KECCAK256 DUP1 SLOAD PUSH1 0xFF NOT AND SWAP1 SSTORE CALLER SWAP3 SWAP2 SWAP1 PUSH32 0xF6391F5C32D9C69D2A47EA670B442974B53935D1EDC7FD64EB21E047A839171B SWAP1 DUP1 LOG4 PUSH1 0x1 SWAP1 JUMP JUMPDEST PUSH1 0x40 MLOAD PUSH4 0x23B872DD PUSH1 0xE0 SHL PUSH1 0x20 DUP3 ADD MSTORE PUSH1 0x1 PUSH1 0x1 PUSH1 0xA0 SHL SUB SWAP3 DUP4 AND PUSH1 0x24 DUP3 ADD MSTORE SWAP3 SWAP1 SWAP2 AND PUSH1 0x44 DUP4 ADD MSTORE PUSH1 0x64 DUP1 DUP4 ADD SWAP4 SWAP1 SWAP4 MSTORE SWAP2 DUP2 MSTORE PUSH2 0x1153 SWAP2 PUSH2 0x114E PUSH1 0x84 DUP4 PUSH2 0xF74 JUMP JUMPDEST SWAP1 PUSH0 PUSH1 0x20 SWAP2 DUP3 DUP2 MLOAD SWAP2 ADD DUP3 DUP6 GAS CALL ISZERO PUSH2 0x2C5 JUMPI PUSH0 MLOAD RETURNDATASIZE PUSH2 0x1380 JUMPI POP PUSH1 0x1 PUSH1 0x1 PUSH1 0xA0 SHL SUB DUP2 AND EXTCODESIZE ISZERO JUMPDEST PUSH2 0x1360 JUMPI POP JUMP JUMPDEST PUSH4 0x5274AFE7 PUSH1 0xE0 SHL PUSH0 SWAP1 DUP2 MSTORE PUSH1 0x1 PUSH1 0x1 PUSH1 0xA0 SHL SUB SWAP2 SWAP1 SWAP2 AND PUSH1 0x4 MSTORE PUSH1 0x24 SWAP1 REVERT JUMPDEST PUSH1 0x1 EQ ISZERO PUSH2 0x1359 JUMP INVALID LOG2 PUSH5 0x6970667358 0x22 SLT KECCAK256 LOG2 0xEB CALLDATALOAD 0xEE SGT 0xC DUP15 SWAP12 PUSH9 0xD011A8EB9A4399951B 0x4B 0x2A 0xE3 CHAINID PUSH31 0x5B0FEBAC22EF2D8E4D64736F6C634300081C00332F8788117E7EFF1D82E926 0xEC PUSH26 0x4901D17C78024A50270940304540A733656F0D7D7FFB7A348E1C PUSH11 0x2869081A26547B49160DD RETURNDATASIZE 0xF7 0x2D SAR PUSH22 0xA570EB9B698292EC089CFCBF844E824FEEE5F634CBC4 DUP9 CODESIZE 0x22 SWAP2 RETURN 0xC9 0xE0 0xDE MSIZE SDIV RETURN 0xC3 ADDMOD SLT CODECOPY 0xD 0xD8 ORIGIN LOG1 0xEF JUMPDEST TIMESTAMP CALL DUP6 CALLER 0xD6 PUSH27 0x183A193EA6C3FABFAA3BDABC3FC0E3F65B19B517DF6E8CF6C17DA3 DUP7 TSTORE SWAP7 GASLIMIT SLOAD PUSH14 0xB4630D07C45803FB99F9B61DD452 0xDE DUP14 0xE1 0xCD 0x21 MSIZE 0xD2 SLOAD PUSH9 0x2563ED446791DCD2BB PUSH7 0xAA531EBAF528BC 0xE4 SWAP4 0xE5 PUSH32 0x37313263799851BC364A49807205CE4D355092EF5A8A18F56E8913CF4A201FB 0xE2 DUP8 DUP3 JUMPDEST MULMOD JUMP SWAP4 0xC2 OR PUSH22 0xDC083EB4DA7563BBD761324B5158D9D40AF7C7174AFE CODECOPY 0xB0 0xB3 BYTE PUSH22 0x77C44FC33B51785D261C3B3E8C2CFE2D0E108B9AB2B1 0xFB PUSH17 0x3FF9E9E49ABA4EBDC85C36152BAD3228B6 PUSH23 0xF7D3CD4284A5443F17F1962B36E491B30A40B2405849E5 SWAP8 0xBA PUSH0 0xB5 "
		},
		"gasEstimates": {
			"creation": {
				"codeDepositCost": "1011000",
				"executionCost": "infinite",
				"totalCost": "infinite"
			},
			"external": {
				"DEFAULT_ADMIN_ROLE()": "482",
				"addRewards(uint256)": "infinite",
				"addStakingPlan(uint256,uint256)": "151903",
				"calculatePendingRewards(address)": "13337",
				"claimRewards()": "infinite",
				"emergencyWithdraw(address)": "infinite",
				"getAvailableDurations()": "infinite",
				"getContractStats()": "6944",
				"getRoleAdmin(bytes32)": "2407",
				"getStakingPlan(uint256)": "4768",
				"getUserStakingInfo(address)": "infinite",
				"grantRole(bytes32,address)": "33377",
				"hasRole(bytes32,address)": "2770",
				"recoverERC20(address,uint256)": "infinite",
				"renounceRole(bytes32,address)": "28967",
				"revokeRole(bytes32,address)": "33682",
				"setStakingPaused(bool)": "57098",
				"stake(uint256,uint256)": "infinite",
				"supportsInterface(bytes4)": "270",
				"unstake()": "infinite",
				"updateStakingPlan(uint256,uint256,bool)": "infinite"
			},
			"internal": {
				"_addStakingPlan(uint256,uint256)": "infinite",
				"_claimRewards(address,uint256)": "infinite"
			}
		},
		"methodIdentifiers": {
			"DEFAULT_ADMIN_ROLE()": "a217fddf",
			"addRewards(uint256)": "beceed39",
			"addStakingPlan(uint256,uint256)": "5ef23fa9",
			"calculatePendingRewards(address)": "097aad10",
			"claimRewards()": "372500ab",
			"emergencyWithdraw(address)": "6ff1c9bc",
			"getAvailableDurations()": "b6b365c2",
			"getContractStats()": "dfe6b5d6",
			"getRoleAdmin(bytes32)": "248a9ca3",
			"getStakingPlan(uint256)": "9fca9c22",
			"getUserStakingInfo(address)": "80933608",
			"grantRole(bytes32,address)": "2f2ff15d",
			"hasRole(bytes32,address)": "91d14854",
			"recoverERC20(address,uint256)": "8980f11f",
			"renounceRole(bytes32,address)": "36568abe",
			"revokeRole(bytes32,address)": "d547741f",
			"setStakingPaused(bool)": "15b31bbb",
			"stake(uint256,uint256)": "7b0472f0",
			"supportsInterface(bytes4)": "01ffc9a7",
			"unstake()": "2def6620",
			"updateStakingPlan(uint256,uint256,bool)": "aea1b6ef"
		}
	},
	"abi": [
		{
			"inputs": [
				{
					"internalType": "address",
					"name": "tokenAddress",
					"type": "address"
				},
				{
					"internalType": "address",
					"name": "adminAddress",
					"type": "address"
				}
			],
			"stateMutability": "payable",
			"type": "constructor"
		},
		{
			"inputs": [],
			"name": "AccessControlBadConfirmation",
			"type": "error"
		},
		{
			"inputs": [
				{
					"internalType": "address",
					"name": "account",
					"type": "address"
				},
				{
					"internalType": "bytes32",
					"name": "neededRole",
					"type": "bytes32"
				}
			],
			"name": "AccessControlUnauthorizedAccount",
			"type": "error"
		},
		{
			"inputs": [],
			"name": "CannotRecoverStakedTokens",
			"type": "error"
		},
		{
			"inputs": [],
			"name": "DurationAlreadyExists",
			"type": "error"
		},
		{
			"inputs": [
				{
					"internalType": "uint256",
					"name": "maxAllowedDuration",
					"type": "uint256"
				}
			],
			"name": "DurationTooLong",
			"type": "error"
		},
		{
			"inputs": [],
			"name": "InsufficientBalance",
			"type": "error"
		},
		{
			"inputs": [],
			"name": "InsufficientRewardsPool",
			"type": "error"
		},
		{
			"inputs": [],
			"name": "InvalidAmount",
			"type": "error"
		},
		{
			"inputs": [],
			"name": "InvalidDuration",
			"type": "error"
		},
		{
			"inputs": [],
			"name": "InvalidStakingPlan",
			"type": "error"
		},
		{
			"inputs": [],
			"name": "InvalidZeroAddress",
			"type": "error"
		},
		{
			"inputs": [],
			"name": "MaxDurationsLimitReached",
			"type": "error"
		},
		{
			"inputs": [],
			"name": "NoActiveStake",
			"type": "error"
		},
		{
			"inputs": [],
			"name": "NoRewardsAvailable",
			"type": "error"
		},
		{
			"inputs": [
				{
					"internalType": "address",
					"name": "token",
					"type": "address"
				}
			],
			"name": "SafeERC20FailedOperation",
			"type": "error"
		},
		{
			"inputs": [],
			"name": "StakingNotActive",
			"type": "error"
		},
		{
			"inputs": [],
			"name": "StakingStillLocked",
			"type": "error"
		},
		{
			"anonymous": false,
			"inputs": [
				{
					"indexed": true,
					"internalType": "address",
					"name": "token",
					"type": "address"
				},
				{
					"indexed": false,
					"internalType": "uint256",
					"name": "amount",
					"type": "uint256"
				},
				{
					"indexed": true,
					"internalType": "address",
					"name": "to",
					"type": "address"
				}
			],
			"name": "ERC20Recovered",
			"type": "event"
		},
		{
			"anonymous": false,
			"inputs": [
				{
					"indexed": true,
					"internalType": "address",
					"name": "user",
					"type": "address"
				},
				{
					"indexed": false,
					"internalType": "uint256",
					"name": "amount",
					"type": "uint256"
				}
			],
			"name": "EmergencyWithdraw",
			"type": "event"
		},
		{
			"anonymous": false,
			"inputs": [
				{
					"indexed": true,
					"internalType": "address",
					"name": "user",
					"type": "address"
				},
				{
					"indexed": false,
					"internalType": "uint256",
					"name": "amount",
					"type": "uint256"
				}
			],
			"name": "RewardClaimed",
			"type": "event"
		},
		{
			"anonymous": false,
			"inputs": [
				{
					"indexed": false,
					"internalType": "uint256",
					"name": "amount",
					"type": "uint256"
				}
			],
			"name": "RewardsAdded",
			"type": "event"
		},
		{
			"anonymous": false,
			"inputs": [
				{
					"indexed": true,
					"internalType": "bytes32",
					"name": "role",
					"type": "bytes32"
				},
				{
					"indexed": true,
					"internalType": "bytes32",
					"name": "previousAdminRole",
					"type": "bytes32"
				},
				{
					"indexed": true,
					"internalType": "bytes32",
					"name": "newAdminRole",
					"type": "bytes32"
				}
			],
			"name": "RoleAdminChanged",
			"type": "event"
		},
		{
			"anonymous": false,
			"inputs": [
				{
					"indexed": true,
					"internalType": "bytes32",
					"name": "role",
					"type": "bytes32"
				},
				{
					"indexed": true,
					"internalType": "address",
					"name": "account",
					"type": "address"
				},
				{
					"indexed": true,
					"internalType": "address",
					"name": "sender",
					"type": "address"
				}
			],
			"name": "RoleGranted",
			"type": "event"
		},
		{
			"anonymous": false,
			"inputs": [
				{
					"indexed": true,
					"internalType": "bytes32",
					"name": "role",
					"type": "bytes32"
				},
				{
					"indexed": true,
					"internalType": "address",
					"name": "account",
					"type": "address"
				},
				{
					"indexed": true,
					"internalType": "address",
					"name": "sender",
					"type": "address"
				}
			],
			"name": "RoleRevoked",
			"type": "event"
		},
		{
			"anonymous": false,
			"inputs": [
				{
					"indexed": true,
					"internalType": "address",
					"name": "user",
					"type": "address"
				},
				{
					"indexed": false,
					"internalType": "uint256",
					"name": "amount",
					"type": "uint256"
				},
				{
					"indexed": true,
					"internalType": "uint256",
					"name": "duration",
					"type": "uint256"
				}
			],
			"name": "Staked",
			"type": "event"
		},
		{
			"anonymous": false,
			"inputs": [
				{
					"indexed": true,
					"internalType": "bool",
					"name": "isPaused",
					"type": "bool"
				}
			],
			"name": "StakingPaused",
			"type": "event"
		},
		{
			"anonymous": false,
			"inputs": [
				{
					"indexed": true,
					"internalType": "uint256",
					"name": "duration",
					"type": "uint256"
				},
				{
					"indexed": true,
					"internalType": "uint256",
					"name": "apy",
					"type": "uint256"
				}
			],
			"name": "StakingPlanAdded",
			"type": "event"
		},
		{
			"anonymous": false,
			"inputs": [
				{
					"indexed": true,
					"internalType": "uint256",
					"name": "duration",
					"type": "uint256"
				},
				{
					"indexed": true,
					"internalType": "uint256",
					"name": "apy",
					"type": "uint256"
				}
			],
			"name": "StakingPlanUpdated",
			"type": "event"
		},
		{
			"anonymous": false,
			"inputs": [
				{
					"indexed": true,
					"internalType": "address",
					"name": "user",
					"type": "address"
				},
				{
					"indexed": false,
					"internalType": "uint256",
					"name": "stakedAmount",
					"type": "uint256"
				},
				{
					"indexed": false,
					"internalType": "uint256",
					"name": "rewardAmount",
					"type": "uint256"
				}
			],
			"name": "Unstaked",
			"type": "event"
		},
		{
			"inputs": [],
			"name": "DEFAULT_ADMIN_ROLE",
			"outputs": [
				{
					"internalType": "bytes32",
					"name": "",
					"type": "bytes32"
				}
			],
			"stateMutability": "view",
			"type": "function"
		},
		{
			"inputs": [
				{
					"internalType": "uint256",
					"name": "amount",
					"type": "uint256"
				}
			],
			"name": "addRewards",
			"outputs": [],
			"stateMutability": "nonpayable",
			"type": "function"
		},
		{
			"inputs": [
				{
					"internalType": "uint256",
					"name": "duration",
					"type": "uint256"
				},
				{
					"internalType": "uint256",
					"name": "apr",
					"type": "uint256"
				}
			],
			"name": "addStakingPlan",
			"outputs": [],
			"stateMutability": "nonpayable",
			"type": "function"
		},
		{
			"inputs": [
				{
					"internalType": "address",
					"name": "user",
					"type": "address"
				}
			],
			"name": "calculatePendingRewards",
			"outputs": [
				{
					"internalType": "uint256",
					"name": "rewards",
					"type": "uint256"
				}
			],
			"stateMutability": "view",
			"type": "function"
		},
		{
			"inputs": [],
			"name": "claimRewards",
			"outputs": [],
			"stateMutability": "nonpayable",
			"type": "function"
		},
		{
			"inputs": [
				{
					"internalType": "address",
					"name": "user",
					"type": "address"
				}
			],
			"name": "emergencyWithdraw",
			"outputs": [],
			"stateMutability": "nonpayable",
			"type": "function"
		},
		{
			"inputs": [],
			"name": "getAvailableDurations",
			"outputs": [
				{
					"internalType": "uint256[]",
					"name": "",
					"type": "uint256[]"
				}
			],
			"stateMutability": "view",
			"type": "function"
		},
		{
			"inputs": [],
			"name": "getContractStats",
			"outputs": [
				{
					"internalType": "uint256",
					"name": "",
					"type": "uint256"
				},
				{
					"internalType": "uint256",
					"name": "",
					"type": "uint256"
				},
				{
					"internalType": "bool",
					"name": "",
					"type": "bool"
				}
			],
			"stateMutability": "view",
			"type": "function"
		},
		{
			"inputs": [
				{
					"internalType": "bytes32",
					"name": "role",
					"type": "bytes32"
				}
			],
			"name": "getRoleAdmin",
			"outputs": [
				{
					"internalType": "bytes32",
					"name": "",
					"type": "bytes32"
				}
			],
			"stateMutability": "view",
			"type": "function"
		},
		{
			"inputs": [
				{
					"internalType": "uint256",
					"name": "duration",
					"type": "uint256"
				}
			],
			"name": "getStakingPlan",
			"outputs": [
				{
					"internalType": "bool",
					"name": "isActive",
					"type": "bool"
				},
				{
					"internalType": "uint256",
					"name": "apr",
					"type": "uint256"
				}
			],
			"stateMutability": "view",
			"type": "function"
		},
		{
			"inputs": [
				{
					"internalType": "address",
					"name": "user",
					"type": "address"
				}
			],
			"name": "getUserStakingInfo",
			"outputs": [
				{
					"components": [
						{
							"internalType": "uint256",
							"name": "stakedAmount",
							"type": "uint256"
						},
						{
							"internalType": "uint256",
							"name": "stakingStartTime",
							"type": "uint256"
						},
						{
							"internalType": "uint256",
							"name": "stakingEndTime",
							"type": "uint256"
						},
						{
							"internalType": "uint256",
							"name": "duration",
							"type": "uint256"
						},
						{
							"internalType": "uint256",
							"name": "apr",
							"type": "uint256"
						},
						{
							"internalType": "uint256",
							"name": "pendingRewards",
							"type": "uint256"
						},
						{
							"internalType": "bool",
							"name": "isActive",
							"type": "bool"
						}
					],
					"internalType": "struct WallyStaking.UserStakingInfo",
					"name": "",
					"type": "tuple"
				}
			],
			"stateMutability": "view",
			"type": "function"
		},
		{
			"inputs": [
				{
					"internalType": "bytes32",
					"name": "role",
					"type": "bytes32"
				},
				{
					"internalType": "address",
					"name": "account",
					"type": "address"
				}
			],
			"name": "grantRole",
			"outputs": [],
			"stateMutability": "nonpayable",
			"type": "function"
		},
		{
			"inputs": [
				{
					"internalType": "bytes32",
					"name": "role",
					"type": "bytes32"
				},
				{
					"internalType": "address",
					"name": "account",
					"type": "address"
				}
			],
			"name": "hasRole",
			"outputs": [
				{
					"internalType": "bool",
					"name": "",
					"type": "bool"
				}
			],
			"stateMutability": "view",
			"type": "function"
		},
		{
			"inputs": [
				{
					"internalType": "address",
					"name": "tokenAddress",
					"type": "address"
				},
				{
					"internalType": "uint256",
					"name": "amount",
					"type": "uint256"
				}
			],
			"name": "recoverERC20",
			"outputs": [],
			"stateMutability": "nonpayable",
			"type": "function"
		},
		{
			"inputs": [
				{
					"internalType": "bytes32",
					"name": "role",
					"type": "bytes32"
				},
				{
					"internalType": "address",
					"name": "callerConfirmation",
					"type": "address"
				}
			],
			"name": "renounceRole",
			"outputs": [],
			"stateMutability": "nonpayable",
			"type": "function"
		},
		{
			"inputs": [
				{
					"internalType": "bytes32",
					"name": "role",
					"type": "bytes32"
				},
				{
					"internalType": "address",
					"name": "account",
					"type": "address"
				}
			],
			"name": "revokeRole",
			"outputs": [],
			"stateMutability": "nonpayable",
			"type": "function"
		},
		{
			"inputs": [
				{
					"internalType": "bool",
					"name": "paused",
					"type": "bool"
				}
			],
			"name": "setStakingPaused",
			"outputs": [],
			"stateMutability": "nonpayable",
			"type": "function"
		},
		{
			"inputs": [
				{
					"internalType": "uint256",
					"name": "amount",
					"type": "uint256"
				},
				{
					"internalType": "uint256",
					"name": "duration",
					"type": "uint256"
				}
			],
			"name": "stake",
			"outputs": [],
			"stateMutability": "nonpayable",
			"type": "function"
		},
		{
			"inputs": [
				{
					"internalType": "bytes4",
					"name": "interfaceId",
					"type": "bytes4"
				}
			],
			"name": "supportsInterface",
			"outputs": [
				{
					"internalType": "bool",
					"name": "",
					"type": "bool"
				}
			],
			"stateMutability": "view",
			"type": "function"
		},
		{
			"inputs": [],
			"name": "unstake",
			"outputs": [],
			"stateMutability": "nonpayable",
			"type": "function"
		},
		{
			"inputs": [
				{
					"internalType": "uint256",
					"name": "duration",
					"type": "uint256"
				},
				{
					"internalType": "uint256",
					"name": "apr",
					"type": "uint256"
				},
				{
					"internalType": "bool",
					"name": "isActive",
					"type": "bool"
				}
			],
			"name": "updateStakingPlan",
			"outputs": [],
			"stateMutability": "nonpayable",
			"type": "function"
		}
	]
}