{
	"data": {
		"bytecode": {
			"linkReferences": {},
			"object": "60a0601f6109ae38819003918201601f19168301916001600160401b038311848410176100a65780849260409485528339810103126100a25761004d6020610046836100ba565b92016100ba565b6001600160a01b03909116908115610093576001600160a01b038116156100935761007a916080526100ce565b50604051610814908161017a8239608051816102a40152f35b633494a40d60e21b5f5260045ffd5b5f80fd5b634e487b7160e01b5f52604160045260245ffd5b51906001600160a01b03821682036100a257565b6001600160a01b0381165f9081525f51602061098e5f395f51905f52602052604090205460ff16610174576001600160a01b03165f8181525f51602061098e5f395f51905f5260205260408120805460ff191660011790553391907fa49807205ce4d355092ef5a8a18f56e8913cf4a201fbe287825b095693c21775907f2f8788117e7eff1d82e926ec794901d17c78024a50270940304540a733656f0d9080a4600190565b505f9056fe6080806040526004361015610012575f80fd5b5f3560e01c90816301ffc9a71461052357508063248a9ca3146104f15780632f2ff15d146104b457806336568abe14610470578063672434821461023f57806391d14854146101f7578063a217fddf146101dd578063b37fd190146100c75763d547741f1461007f575f80fd5b346100c35760403660031901126100c3576100c160043561009e610576565b906100bc6100b7825f525f602052600160405f20015490565b61069e565b61075e565b005b5f80fd5b346100c35760603660031901126100c3576004356001600160a01b038116908190036100c3576044356001600160a01b0381169190602435908381036100c35761010f61062f565b83156101ce5760405163a9059cbb60e01b81526001600160a01b03919091166004820152602481018290526020816044815f875af19081156101c3575f91610194575b50156101855760207fb827212398d00bec25c9929a724fa1a266fb9ee3507d7a377758eca985b8923f91604051908152a3005b631e9acf1760e31b5f5260045ffd5b6101b6915060203d6020116101bc575b6101ae81836105e1565b810190610617565b84610152565b503d6101a4565b6040513d5f823e3d90fd5b633494a40d60e21b5f5260045ffd5b346100c3575f3660031901126100c35760206040515f8152f35b346100c35760403660031901126100c357610210610576565b6004355f525f60205260405f209060018060a01b03165f52602052602060ff60405f2054166040519015158152f35b346100c35760403660031901126100c35760043567ffffffffffffffff81116100c35761027090369060040161058c565b60243567ffffffffffffffff81116100c35761029090369060040161058c565b61029b93919361062f565b8083036101ce577f00000000000000000000000000000000000000000000000000000000000000006001600160a01b03165f5b84811061037257505060405192806040850160408652526060840192905f905b8082106103485750505082820360208401528082526001600160fb1b0381116100c3577f71dfe3d8206b73dfdb5bff7f42fc15abd6bf2665f4076753f9d046f5d7de6edf93602092849260051b80928583013701030190a1005b90919384359060018060a01b0382168092036100c3576020816001938293520195019201906102ee565b61037d8186866105bd565b356001600160a01b0381168082036100c357156101ce5761039f8285896105bd565b35906040516370a0823160e01b8152306004820152602081602481885afa80156101c35783915f9161043c575b50106101855760405163a9059cbb60e01b81526001600160a01b0391909116600482015260248101919091526020816044815f875af19081156101c3575f9161041e575b5015610185576001016102ce565b610436915060203d81116101bc576101ae81836105e1565b87610410565b9150506020813d8211610468575b81610457602093836105e1565b810103126100c3578290518a6103cc565b3d915061044a565b346100c35760403660031901126100c357610489610576565b336001600160a01b038216036104a5576100c19060043561075e565b63334bd91960e11b5f5260045ffd5b346100c35760403660031901126100c3576100c16004356104d3610576565b906104ec6100b7825f525f602052600160405f20015490565b6106d6565b346100c35760203660031901126100c357602061051b6004355f525f602052600160405f20015490565b604051908152f35b346100c35760203660031901126100c3576004359063ffffffff60e01b82168092036100c357602091637965db0b60e01b8114908115610565575b5015158152f35b6301ffc9a760e01b1490508361055e565b602435906001600160a01b03821682036100c357565b9181601f840112156100c35782359167ffffffffffffffff83116100c3576020808501948460051b0101116100c357565b91908110156105cd5760051b0190565b634e487b7160e01b5f52603260045260245ffd5b90601f8019910116810190811067ffffffffffffffff82111761060357604052565b634e487b7160e01b5f52604160045260245ffd5b908160209103126100c3575180151581036100c35790565b335f9081527f7d7ffb7a348e1c6a02869081a26547b49160dd3df72d1d75a570eb9b698292ec602052604090205460ff161561066757565b63e2517d3f60e01b5f52336004527fa49807205ce4d355092ef5a8a18f56e8913cf4a201fbe287825b095693c2177560245260445ffd5b5f8181526020818152604080832033845290915290205460ff16156106c05750565b63e2517d3f60e01b5f523360045260245260445ffd5b5f818152602081815260408083206001600160a01b038616845290915290205460ff16610758575f818152602081815260408083206001600160a01b0395909516808452949091528120805460ff19166001179055339291907f2f8788117e7eff1d82e926ec794901d17c78024a50270940304540a733656f0d9080a4600190565b50505f90565b5f818152602081815260408083206001600160a01b038616845290915290205460ff1615610758575f818152602081815260408083206001600160a01b0395909516808452949091528120805460ff19169055339291907ff6391f5c32d9c69d2a47ea670b442974b53935d1edc7fd64eb21e047a839171b9080a460019056fea2646970667358221220614aec210417c3c69ffc9f9641567b66133abbeeefc89b0e5e79508a105d9f0364736f6c634300081c00337d7ffb7a348e1c6a02869081a26547b49160dd3df72d1d75a570eb9b698292ec",
			"opcodes": "PUSH1 0xA0 PUSH1 0x1F PUSH2 0x9AE CODESIZE DUP2 SWAP1 SUB SWAP2 DUP3 ADD PUSH1 0x1F NOT AND DUP4 ADD SWAP2 PUSH1 0x1 PUSH1 0x1 PUSH1 0x40 SHL SUB DUP4 GT DUP5 DUP5 LT OR PUSH2 0xA6 JUMPI DUP1 DUP5 SWAP3 PUSH1 0x40 SWAP5 DUP6 MSTORE DUP4 CODECOPY DUP2 ADD SUB SLT PUSH2 0xA2 JUMPI PUSH2 0x4D PUSH1 0x20 PUSH2 0x46 DUP4 PUSH2 0xBA JUMP JUMPDEST SWAP3 ADD PUSH2 0xBA JUMP JUMPDEST PUSH1 0x1 PUSH1 0x1 PUSH1 0xA0 SHL SUB SWAP1 SWAP2 AND SWAP1 DUP2 ISZERO PUSH2 0x93 JUMPI PUSH1 0x1 PUSH1 0x1 PUSH1 0xA0 SHL SUB DUP2 AND ISZERO PUSH2 0x93 JUMPI PUSH2 0x7A SWAP2 PUSH1 0x80 MSTORE PUSH2 0xCE JUMP JUMPDEST POP PUSH1 0x40 MLOAD PUSH2 0x814 SWAP1 DUP2 PUSH2 0x17A DUP3 CODECOPY PUSH1 0x80 MLOAD DUP2 PUSH2 0x2A4 ADD MSTORE RETURN JUMPDEST PUSH4 0x3494A40D PUSH1 0xE2 SHL PUSH0 MSTORE PUSH1 0x4 PUSH0 REVERT JUMPDEST PUSH0 DUP1 REVERT JUMPDEST PUSH4 0x4E487B71 PUSH1 0xE0 SHL PUSH0 MSTORE PUSH1 0x41 PUSH1 0x4 MSTORE PUSH1 0x24 PUSH0 REVERT JUMPDEST MLOAD SWAP1 PUSH1 0x1 PUSH1 0x1 PUSH1 0xA0 SHL SUB DUP3 AND DUP3 SUB PUSH2 0xA2 JUMPI JUMP JUMPDEST PUSH1 0x1 PUSH1 0x1 PUSH1 0xA0 SHL SUB DUP2 AND PUSH0 SWAP1 DUP2 MSTORE PUSH0 MLOAD PUSH1 0x20 PUSH2 0x98E PUSH0 CODECOPY PUSH0 MLOAD SWAP1 PUSH0 MSTORE PUSH1 0x20 MSTORE PUSH1 0x40 SWAP1 KECCAK256 SLOAD PUSH1 0xFF AND PUSH2 0x174 JUMPI PUSH1 0x1 PUSH1 0x1 PUSH1 0xA0 SHL SUB AND PUSH0 DUP2 DUP2 MSTORE PUSH0 MLOAD PUSH1 0x20 PUSH2 0x98E PUSH0 CODECOPY PUSH0 MLOAD SWAP1 PUSH0 MSTORE PUSH1 0x20 MSTORE PUSH1 0x40 DUP2 KECCAK256 DUP1 SLOAD PUSH1 0xFF NOT AND PUSH1 0x1 OR SWAP1 SSTORE CALLER SWAP2 SWAP1 PUSH32 0xA49807205CE4D355092EF5A8A18F56E8913CF4A201FBE287825B095693C21775 SWAP1 PUSH32 0x2F8788117E7EFF1D82E926EC794901D17C78024A50270940304540A733656F0D SWAP1 DUP1 LOG4 PUSH1 0x1 SWAP1 JUMP JUMPDEST POP PUSH0 SWAP1 JUMP INVALID PUSH1 0x80 DUP1 PUSH1 0x40 MSTORE PUSH1 0x4 CALLDATASIZE LT ISZERO PUSH2 0x12 JUMPI PUSH0 DUP1 REVERT JUMPDEST PUSH0 CALLDATALOAD PUSH1 0xE0 SHR SWAP1 DUP2 PUSH4 0x1FFC9A7 EQ PUSH2 0x523 JUMPI POP DUP1 PUSH4 0x248A9CA3 EQ PUSH2 0x4F1 JUMPI DUP1 PUSH4 0x2F2FF15D EQ PUSH2 0x4B4 JUMPI DUP1 PUSH4 0x36568ABE EQ PUSH2 0x470 JUMPI DUP1 PUSH4 0x67243482 EQ PUSH2 0x23F JUMPI DUP1 PUSH4 0x91D14854 EQ PUSH2 0x1F7 JUMPI DUP1 PUSH4 0xA217FDDF EQ PUSH2 0x1DD JUMPI DUP1 PUSH4 0xB37FD190 EQ PUSH2 0xC7 JUMPI PUSH4 0xD547741F EQ PUSH2 0x7F JUMPI PUSH0 DUP1 REVERT JUMPDEST CALLVALUE PUSH2 0xC3 JUMPI PUSH1 0x40 CALLDATASIZE PUSH1 0x3 NOT ADD SLT PUSH2 0xC3 JUMPI PUSH2 0xC1 PUSH1 0x4 CALLDATALOAD PUSH2 0x9E PUSH2 0x576 JUMP JUMPDEST SWAP1 PUSH2 0xBC PUSH2 0xB7 DUP3 PUSH0 MSTORE PUSH0 PUSH1 0x20 MSTORE PUSH1 0x1 PUSH1 0x40 PUSH0 KECCAK256 ADD SLOAD SWAP1 JUMP JUMPDEST PUSH2 0x69E JUMP JUMPDEST PUSH2 0x75E JUMP JUMPDEST STOP JUMPDEST PUSH0 DUP1 REVERT JUMPDEST CALLVALUE PUSH2 0xC3 JUMPI PUSH1 0x60 CALLDATASIZE PUSH1 0x3 NOT ADD SLT PUSH2 0xC3 JUMPI PUSH1 0x4 CALLDATALOAD PUSH1 0x1 PUSH1 0x1 PUSH1 0xA0 SHL SUB DUP2 AND SWAP1 DUP2 SWAP1 SUB PUSH2 0xC3 JUMPI PUSH1 0x44 CALLDATALOAD PUSH1 0x1 PUSH1 0x1 PUSH1 0xA0 SHL SUB DUP2 AND SWAP2 SWAP1 PUSH1 0x24 CALLDATALOAD SWAP1 DUP4 DUP2 SUB PUSH2 0xC3 JUMPI PUSH2 0x10F PUSH2 0x62F JUMP JUMPDEST DUP4 ISZERO PUSH2 0x1CE JUMPI PUSH1 0x40 MLOAD PUSH4 0xA9059CBB PUSH1 0xE0 SHL DUP2 MSTORE PUSH1 0x1 PUSH1 0x1 PUSH1 0xA0 SHL SUB SWAP2 SWAP1 SWAP2 AND PUSH1 0x4 DUP3 ADD MSTORE PUSH1 0x24 DUP2 ADD DUP3 SWAP1 MSTORE PUSH1 0x20 DUP2 PUSH1 0x44 DUP2 PUSH0 DUP8 GAS CALL SWAP1 DUP2 ISZERO PUSH2 0x1C3 JUMPI PUSH0 SWAP2 PUSH2 0x194 JUMPI JUMPDEST POP ISZERO PUSH2 0x185 JUMPI PUSH1 0x20 PUSH32 0xB827212398D00BEC25C9929A724FA1A266FB9EE3507D7A377758ECA985B8923F SWAP2 PUSH1 0x40 MLOAD SWAP1 DUP2 MSTORE LOG3 STOP JUMPDEST PUSH4 0x1E9ACF17 PUSH1 0xE3 SHL PUSH0 MSTORE PUSH1 0x4 PUSH0 REVERT JUMPDEST PUSH2 0x1B6 SWAP2 POP PUSH1 0x20 RETURNDATASIZE PUSH1 0x20 GT PUSH2 0x1BC JUMPI JUMPDEST PUSH2 0x1AE DUP2 DUP4 PUSH2 0x5E1 JUMP JUMPDEST DUP2 ADD SWAP1 PUSH2 0x617 JUMP JUMPDEST DUP5 PUSH2 0x152 JUMP JUMPDEST POP RETURNDATASIZE PUSH2 0x1A4 JUMP JUMPDEST PUSH1 0x40 MLOAD RETURNDATASIZE PUSH0 DUP3 RETURNDATACOPY RETURNDATASIZE SWAP1 REVERT JUMPDEST PUSH4 0x3494A40D PUSH1 0xE2 SHL PUSH0 MSTORE PUSH1 0x4 PUSH0 REVERT JUMPDEST CALLVALUE PUSH2 0xC3 JUMPI PUSH0 CALLDATASIZE PUSH1 0x3 NOT ADD SLT PUSH2 0xC3 JUMPI PUSH1 0x20 PUSH1 0x40 MLOAD PUSH0 DUP2 MSTORE RETURN JUMPDEST CALLVALUE PUSH2 0xC3 JUMPI PUSH1 0x40 CALLDATASIZE PUSH1 0x3 NOT ADD SLT PUSH2 0xC3 JUMPI PUSH2 0x210 PUSH2 0x576 JUMP JUMPDEST PUSH1 0x4 CALLDATALOAD PUSH0 MSTORE PUSH0 PUSH1 0x20 MSTORE PUSH1 0x40 PUSH0 KECCAK256 SWAP1 PUSH1 0x1 DUP1 PUSH1 0xA0 SHL SUB AND PUSH0 MSTORE PUSH1 0x20 MSTORE PUSH1 0x20 PUSH1 0xFF PUSH1 0x40 PUSH0 KECCAK256 SLOAD AND PUSH1 0x40 MLOAD SWAP1 ISZERO ISZERO DUP2 MSTORE RETURN JUMPDEST CALLVALUE PUSH2 0xC3 JUMPI PUSH1 0x40 CALLDATASIZE PUSH1 0x3 NOT ADD SLT PUSH2 0xC3 JUMPI PUSH1 0x4 CALLDATALOAD PUSH8 0xFFFFFFFFFFFFFFFF DUP2 GT PUSH2 0xC3 JUMPI PUSH2 0x270 SWAP1 CALLDATASIZE SWAP1 PUSH1 0x4 ADD PUSH2 0x58C JUMP JUMPDEST PUSH1 0x24 CALLDATALOAD PUSH8 0xFFFFFFFFFFFFFFFF DUP2 GT PUSH2 0xC3 JUMPI PUSH2 0x290 SWAP1 CALLDATASIZE SWAP1 PUSH1 0x4 ADD PUSH2 0x58C JUMP JUMPDEST PUSH2 0x29B SWAP4 SWAP2 SWAP4 PUSH2 0x62F JUMP JUMPDEST DUP1 DUP4 SUB PUSH2 0x1CE JUMPI PUSH32 0x0 PUSH1 0x1 PUSH1 0x1 PUSH1 0xA0 SHL SUB AND PUSH0 JUMPDEST DUP5 DUP2 LT PUSH2 0x372 JUMPI POP POP PUSH1 0x40 MLOAD SWAP3 DUP1 PUSH1 0x40 DUP6 ADD PUSH1 0x40 DUP7 MSTORE MSTORE PUSH1 0x60 DUP5 ADD SWAP3 SWAP1 PUSH0 SWAP1 JUMPDEST DUP1 DUP3 LT PUSH2 0x348 JUMPI POP POP POP DUP3 DUP3 SUB PUSH1 0x20 DUP5 ADD MSTORE DUP1 DUP3 MSTORE PUSH1 0x1 PUSH1 0x1 PUSH1 0xFB SHL SUB DUP2 GT PUSH2 0xC3 JUMPI PUSH32 0x71DFE3D8206B73DFDB5BFF7F42FC15ABD6BF2665F4076753F9D046F5D7DE6EDF SWAP4 PUSH1 0x20 SWAP3 DUP5 SWAP3 PUSH1 0x5 SHL DUP1 SWAP3 DUP6 DUP4 ADD CALLDATACOPY ADD SUB ADD SWAP1 LOG1 STOP JUMPDEST SWAP1 SWAP2 SWAP4 DUP5 CALLDATALOAD SWAP1 PUSH1 0x1 DUP1 PUSH1 0xA0 SHL SUB DUP3 AND DUP1 SWAP3 SUB PUSH2 0xC3 JUMPI PUSH1 0x20 DUP2 PUSH1 0x1 SWAP4 DUP3 SWAP4 MSTORE ADD SWAP6 ADD SWAP3 ADD SWAP1 PUSH2 0x2EE JUMP JUMPDEST PUSH2 0x37D DUP2 DUP7 DUP7 PUSH2 0x5BD JUMP JUMPDEST CALLDATALOAD PUSH1 0x1 PUSH1 0x1 PUSH1 0xA0 SHL SUB DUP2 AND DUP1 DUP3 SUB PUSH2 0xC3 JUMPI ISZERO PUSH2 0x1CE JUMPI PUSH2 0x39F DUP3 DUP6 DUP10 PUSH2 0x5BD JUMP JUMPDEST CALLDATALOAD SWAP1 PUSH1 0x40 MLOAD PUSH4 0x70A08231 PUSH1 0xE0 SHL DUP2 MSTORE ADDRESS PUSH1 0x4 DUP3 ADD MSTORE PUSH1 0x20 DUP2 PUSH1 0x24 DUP2 DUP9 GAS STATICCALL DUP1 ISZERO PUSH2 0x1C3 JUMPI DUP4 SWAP2 PUSH0 SWAP2 PUSH2 0x43C JUMPI JUMPDEST POP LT PUSH2 0x185 JUMPI PUSH1 0x40 MLOAD PUSH4 0xA9059CBB PUSH1 0xE0 SHL DUP2 MSTORE PUSH1 0x1 PUSH1 0x1 PUSH1 0xA0 SHL SUB SWAP2 SWAP1 SWAP2 AND PUSH1 0x4 DUP3 ADD MSTORE PUSH1 0x24 DUP2 ADD SWAP2 SWAP1 SWAP2 MSTORE PUSH1 0x20 DUP2 PUSH1 0x44 DUP2 PUSH0 DUP8 GAS CALL SWAP1 DUP2 ISZERO PUSH2 0x1C3 JUMPI PUSH0 SWAP2 PUSH2 0x41E JUMPI JUMPDEST POP ISZERO PUSH2 0x185 JUMPI PUSH1 0x1 ADD PUSH2 0x2CE JUMP JUMPDEST PUSH2 0x436 SWAP2 POP PUSH1 0x20 RETURNDATASIZE DUP2 GT PUSH2 0x1BC JUMPI PUSH2 0x1AE DUP2 DUP4 PUSH2 0x5E1 JUMP JUMPDEST DUP8 PUSH2 0x410 JUMP JUMPDEST SWAP2 POP POP PUSH1 0x20 DUP2 RETURNDATASIZE DUP3 GT PUSH2 0x468 JUMPI JUMPDEST DUP2 PUSH2 0x457 PUSH1 0x20 SWAP4 DUP4 PUSH2 0x5E1 JUMP JUMPDEST DUP2 ADD SUB SLT PUSH2 0xC3 JUMPI DUP3 SWAP1 MLOAD DUP11 PUSH2 0x3CC JUMP JUMPDEST RETURNDATASIZE SWAP2 POP PUSH2 0x44A JUMP JUMPDEST CALLVALUE PUSH2 0xC3 JUMPI PUSH1 0x40 CALLDATASIZE PUSH1 0x3 NOT ADD SLT PUSH2 0xC3 JUMPI PUSH2 0x489 PUSH2 0x576 JUMP JUMPDEST CALLER PUSH1 0x1 PUSH1 0x1 PUSH1 0xA0 SHL SUB DUP3 AND SUB PUSH2 0x4A5 JUMPI PUSH2 0xC1 SWAP1 PUSH1 0x4 CALLDATALOAD PUSH2 0x75E JUMP JUMPDEST PUSH4 0x334BD919 PUSH1 0xE1 SHL PUSH0 MSTORE PUSH1 0x4 PUSH0 REVERT JUMPDEST CALLVALUE PUSH2 0xC3 JUMPI PUSH1 0x40 CALLDATASIZE PUSH1 0x3 NOT ADD SLT PUSH2 0xC3 JUMPI PUSH2 0xC1 PUSH1 0x4 CALLDATALOAD PUSH2 0x4D3 PUSH2 0x576 JUMP JUMPDEST SWAP1 PUSH2 0x4EC PUSH2 0xB7 DUP3 PUSH0 MSTORE PUSH0 PUSH1 0x20 MSTORE PUSH1 0x1 PUSH1 0x40 PUSH0 KECCAK256 ADD SLOAD SWAP1 JUMP JUMPDEST PUSH2 0x6D6 JUMP JUMPDEST CALLVALUE PUSH2 0xC3 JUMPI PUSH1 0x20 CALLDATASIZE PUSH1 0x3 NOT ADD SLT PUSH2 0xC3 JUMPI PUSH1 0x20 PUSH2 0x51B PUSH1 0x4 CALLDATALOAD PUSH0 MSTORE PUSH0 PUSH1 0x20 MSTORE PUSH1 0x1 PUSH1 0x40 PUSH0 KECCAK256 ADD SLOAD SWAP1 JUMP JUMPDEST PUSH1 0x40 MLOAD SWAP1 DUP2 MSTORE RETURN JUMPDEST CALLVALUE PUSH2 0xC3 JUMPI PUSH1 0x20 CALLDATASIZE PUSH1 0x3 NOT ADD SLT PUSH2 0xC3 JUMPI PUSH1 0x4 CALLDATALOAD SWAP1 PUSH4 0xFFFFFFFF PUSH1 0xE0 SHL DUP3 AND DUP1 SWAP3 SUB PUSH2 0xC3 JUMPI PUSH1 0x20 SWAP2 PUSH4 0x7965DB0B PUSH1 0xE0 SHL DUP2 EQ SWAP1 DUP2 ISZERO PUSH2 0x565 JUMPI JUMPDEST POP ISZERO ISZERO DUP2 MSTORE RETURN JUMPDEST PUSH4 0x1FFC9A7 PUSH1 0xE0 SHL EQ SWAP1 POP DUP4 PUSH2 0x55E JUMP JUMPDEST PUSH1 0x24 CALLDATALOAD SWAP1 PUSH1 0x1 PUSH1 0x1 PUSH1 0xA0 SHL SUB DUP3 AND DUP3 SUB PUSH2 0xC3 JUMPI JUMP JUMPDEST SWAP2 DUP2 PUSH1 0x1F DUP5 ADD SLT ISZERO PUSH2 0xC3 JUMPI DUP3 CALLDATALOAD SWAP2 PUSH8 0xFFFFFFFFFFFFFFFF DUP4 GT PUSH2 0xC3 JUMPI PUSH1 0x20 DUP1 DUP6 ADD SWAP5 DUP5 PUSH1 0x5 SHL ADD ADD GT PUSH2 0xC3 JUMPI JUMP JUMPDEST SWAP2 SWAP1 DUP2 LT ISZERO PUSH2 0x5CD JUMPI PUSH1 0x5 SHL ADD SWAP1 JUMP JUMPDEST PUSH4 0x4E487B71 PUSH1 0xE0 SHL PUSH0 MSTORE PUSH1 0x32 PUSH1 0x4 MSTORE PUSH1 0x24 PUSH0 REVERT JUMPDEST SWAP1 PUSH1 0x1F DUP1 NOT SWAP2 ADD AND DUP2 ADD SWAP1 DUP2 LT PUSH8 0xFFFFFFFFFFFFFFFF DUP3 GT OR PUSH2 0x603 JUMPI PUSH1 0x40 MSTORE JUMP JUMPDEST PUSH4 0x4E487B71 PUSH1 0xE0 SHL PUSH0 MSTORE PUSH1 0x41 PUSH1 0x4 MSTORE PUSH1 0x24 PUSH0 REVERT JUMPDEST SWAP1 DUP2 PUSH1 0x20 SWAP2 SUB SLT PUSH2 0xC3 JUMPI MLOAD DUP1 ISZERO ISZERO DUP2 SUB PUSH2 0xC3 JUMPI SWAP1 JUMP JUMPDEST CALLER PUSH0 SWAP1 DUP2 MSTORE PUSH32 0x7D7FFB7A348E1C6A02869081A26547B49160DD3DF72D1D75A570EB9B698292EC PUSH1 0x20 MSTORE PUSH1 0x40 SWAP1 KECCAK256 SLOAD PUSH1 0xFF AND ISZERO PUSH2 0x667 JUMPI JUMP JUMPDEST PUSH4 0xE2517D3F PUSH1 0xE0 SHL PUSH0 MSTORE CALLER PUSH1 0x4 MSTORE PUSH32 0xA49807205CE4D355092EF5A8A18F56E8913CF4A201FBE287825B095693C21775 PUSH1 0x24 MSTORE PUSH1 0x44 PUSH0 REVERT JUMPDEST PUSH0 DUP2 DUP2 MSTORE PUSH1 0x20 DUP2 DUP2 MSTORE PUSH1 0x40 DUP1 DUP4 KECCAK256 CALLER DUP5 MSTORE SWAP1 SWAP2 MSTORE SWAP1 KECCAK256 SLOAD PUSH1 0xFF AND ISZERO PUSH2 0x6C0 JUMPI POP JUMP JUMPDEST PUSH4 0xE2517D3F PUSH1 0xE0 SHL PUSH0 MSTORE CALLER PUSH1 0x4 MSTORE PUSH1 0x24 MSTORE PUSH1 0x44 PUSH0 REVERT JUMPDEST PUSH0 DUP2 DUP2 MSTORE PUSH1 0x20 DUP2 DUP2 MSTORE PUSH1 0x40 DUP1 DUP4 KECCAK256 PUSH1 0x1 PUSH1 0x1 PUSH1 0xA0 SHL SUB DUP7 AND DUP5 MSTORE SWAP1 SWAP2 MSTORE SWAP1 KECCAK256 SLOAD PUSH1 0xFF AND PUSH2 0x758 JUMPI PUSH0 DUP2 DUP2 MSTORE PUSH1 0x20 DUP2 DUP2 MSTORE PUSH1 0x40 DUP1 DUP4 KECCAK256 PUSH1 0x1 PUSH1 0x1 PUSH1 0xA0 SHL SUB SWAP6 SWAP1 SWAP6 AND DUP1 DUP5 MSTORE SWAP5 SWAP1 SWAP2 MSTORE DUP2 KECCAK256 DUP1 SLOAD PUSH1 0xFF NOT AND PUSH1 0x1 OR SWAP1 SSTORE CALLER SWAP3 SWAP2 SWAP1 PUSH32 0x2F8788117E7EFF1D82E926EC794901D17C78024A50270940304540A733656F0D SWAP1 DUP1 LOG4 PUSH1 0x1 SWAP1 JUMP JUMPDEST POP POP PUSH0 SWAP1 JUMP JUMPDEST PUSH0 DUP2 DUP2 MSTORE PUSH1 0x20 DUP2 DUP2 MSTORE PUSH1 0x40 DUP1 DUP4 KECCAK256 PUSH1 0x1 PUSH1 0x1 PUSH1 0xA0 SHL SUB DUP7 AND DUP5 MSTORE SWAP1 SWAP2 MSTORE SWAP1 KECCAK256 SLOAD PUSH1 0xFF AND ISZERO PUSH2 0x758 JUMPI PUSH0 DUP2 DUP2 MSTORE PUSH1 0x20 DUP2 DUP2 MSTORE PUSH1 0x40 DUP1 DUP4 KECCAK256 PUSH1 0x1 PUSH1 0x1 PUSH1 0xA0 SHL SUB SWAP6 SWAP1 SWAP6 AND DUP1 DUP5 MSTORE SWAP5 SWAP1 SWAP2 MSTORE DUP2 KECCAK256 DUP1 SLOAD PUSH1 0xFF NOT AND SWAP1 SSTORE CALLER SWAP3 SWAP2 SWAP1 PUSH32 0xF6391F5C32D9C69D2A47EA670B442974B53935D1EDC7FD64EB21E047A839171B SWAP1 DUP1 LOG4 PUSH1 0x1 SWAP1 JUMP INVALID LOG2 PUSH5 0x6970667358 0x22 SLT KECCAK256 PUSH2 0x4AEC 0x21 DIV OR 0xC3 0xC6 SWAP16 0xFC SWAP16 SWAP7 COINBASE JUMP PUSH28 0x66133ABBEEEFC89B0E5E79508A105D9F0364736F6C634300081C0033 PUSH30 0x7FFB7A348E1C6A02869081A26547B49160DD3DF72D1D75A570EB9B698292 0xEC "
		},
		"gasEstimates": {
			"creation": {
				"codeDepositCost": "413600",
				"executionCost": "infinite",
				"totalCost": "infinite"
			},
			"external": {
				"DEFAULT_ADMIN_ROLE()": "284",
				"airdrop(address[],uint256[])": "infinite",
				"getRoleAdmin(bytes32)": "2363",
				"grantRole(bytes32,address)": "33311",
				"hasRole(bytes32,address)": "2594",
				"renounceRole(bytes32,address)": "28901",
				"rescueTokens(address,uint256,address)": "infinite",
				"revokeRole(bytes32,address)": "33437",
				"supportsInterface(bytes4)": "270"
			}
		},
		"methodIdentifiers": {
			"DEFAULT_ADMIN_ROLE()": "a217fddf",
			"airdrop(address[],uint256[])": "67243482",
			"getRoleAdmin(bytes32)": "248a9ca3",
			"grantRole(bytes32,address)": "2f2ff15d",
			"hasRole(bytes32,address)": "91d14854",
			"renounceRole(bytes32,address)": "36568abe",
			"rescueTokens(address,uint256,address)": "b37fd190",
			"revokeRole(bytes32,address)": "d547741f",
			"supportsInterface(bytes4)": "01ffc9a7"
		}
	},
	"abi": [
		{
			"inputs": [
				{
					"internalType": "address",
					"name": "_wallyToken",
					"type": "address"
				},
				{
					"internalType": "address",
					"name": "_admin",
					"type": "address"
				}
			],
			"stateMutability": "payable",
			"type": "constructor"
		},
		{
			"inputs": [],
			"name": "AccessControlBadConfirmation",
			"type": "error"
		},
		{
			"inputs": [
				{
					"internalType": "address",
					"name": "account",
					"type": "address"
				},
				{
					"internalType": "bytes32",
					"name": "neededRole",
					"type": "bytes32"
				}
			],
			"name": "AccessControlUnauthorizedAccount",
			"type": "error"
		},
		{
			"inputs": [],
			"name": "InsufficientBalance",
			"type": "error"
		},
		{
			"inputs": [],
			"name": "InvalidParam",
			"type": "error"
		},
		{
			"anonymous": false,
			"inputs": [
				{
					"indexed": false,
					"internalType": "address[]",
					"name": "recipients",
					"type": "address[]"
				},
				{
					"indexed": false,
					"internalType": "uint256[]",
					"name": "amounts",
					"type": "uint256[]"
				}
			],
			"name": "Airdropped",
			"type": "event"
		},
		{
			"anonymous": false,
			"inputs": [
				{
					"indexed": true,
					"internalType": "address",
					"name": "token",
					"type": "address"
				},
				{
					"indexed": false,
					"internalType": "uint256",
					"name": "amount",
					"type": "uint256"
				},
				{
					"indexed": true,
					"internalType": "address",
					"name": "to",
					"type": "address"
				}
			],
			"name": "RescueTokens",
			"type": "event"
		},
		{
			"anonymous": false,
			"inputs": [
				{
					"indexed": true,
					"internalType": "bytes32",
					"name": "role",
					"type": "bytes32"
				},
				{
					"indexed": true,
					"internalType": "bytes32",
					"name": "previousAdminRole",
					"type": "bytes32"
				},
				{
					"indexed": true,
					"internalType": "bytes32",
					"name": "newAdminRole",
					"type": "bytes32"
				}
			],
			"name": "RoleAdminChanged",
			"type": "event"
		},
		{
			"anonymous": false,
			"inputs": [
				{
					"indexed": true,
					"internalType": "bytes32",
					"name": "role",
					"type": "bytes32"
				},
				{
					"indexed": true,
					"internalType": "address",
					"name": "account",
					"type": "address"
				},
				{
					"indexed": true,
					"internalType": "address",
					"name": "sender",
					"type": "address"
				}
			],
			"name": "RoleGranted",
			"type": "event"
		},
		{
			"anonymous": false,
			"inputs": [
				{
					"indexed": true,
					"internalType": "bytes32",
					"name": "role",
					"type": "bytes32"
				},
				{
					"indexed": true,
					"internalType": "address",
					"name": "account",
					"type": "address"
				},
				{
					"indexed": true,
					"internalType": "address",
					"name": "sender",
					"type": "address"
				}
			],
			"name": "RoleRevoked",
			"type": "event"
		},
		{
			"inputs": [],
			"name": "DEFAULT_ADMIN_ROLE",
			"outputs": [
				{
					"internalType": "bytes32",
					"name": "",
					"type": "bytes32"
				}
			],
			"stateMutability": "view",
			"type": "function"
		},
		{
			"inputs": [
				{
					"internalType": "address[]",
					"name": "recipients",
					"type": "address[]"
				},
				{
					"internalType": "uint256[]",
					"name": "amounts",
					"type": "uint256[]"
				}
			],
			"name": "airdrop",
			"outputs": [],
			"stateMutability": "nonpayable",
			"type": "function"
		},
		{
			"inputs": [
				{
					"internalType": "bytes32",
					"name": "role",
					"type": "bytes32"
				}
			],
			"name": "getRoleAdmin",
			"outputs": [
				{
					"internalType": "bytes32",
					"name": "",
					"type": "bytes32"
				}
			],
			"stateMutability": "view",
			"type": "function"
		},
		{
			"inputs": [
				{
					"internalType": "bytes32",
					"name": "role",
					"type": "bytes32"
				},
				{
					"internalType": "address",
					"name": "account",
					"type": "address"
				}
			],
			"name": "grantRole",
			"outputs": [],
			"stateMutability": "nonpayable",
			"type": "function"
		},
		{
			"inputs": [
				{
					"internalType": "bytes32",
					"name": "role",
					"type": "bytes32"
				},
				{
					"internalType": "address",
					"name": "account",
					"type": "address"
				}
			],
			"name": "hasRole",
			"outputs": [
				{
					"internalType": "bool",
					"name": "",
					"type": "bool"
				}
			],
			"stateMutability": "view",
			"type": "function"
		},
		{
			"inputs": [
				{
					"internalType": "bytes32",
					"name": "role",
					"type": "bytes32"
				},
				{
					"internalType": "address",
					"name": "callerConfirmation",
					"type": "address"
				}
			],
			"name": "renounceRole",
			"outputs": [],
			"stateMutability": "nonpayable",
			"type": "function"
		},
		{
			"inputs": [
				{
					"internalType": "address",
					"name": "tokenAddress",
					"type": "address"
				},
				{
					"internalType": "uint256",
					"name": "amount",
					"type": "uint256"
				},
				{
					"internalType": "address",
					"name": "to",
					"type": "address"
				}
			],
			"name": "rescueTokens",
			"outputs": [],
			"stateMutability": "nonpayable",
			"type": "function"
		},
		{
			"inputs": [
				{
					"internalType": "bytes32",
					"name": "role",
					"type": "bytes32"
				},
				{
					"internalType": "address",
					"name": "account",
					"type": "address"
				}
			],
			"name": "revokeRole",
			"outputs": [],
			"stateMutability": "nonpayable",
			"type": "function"
		},
		{
			"inputs": [
				{
					"internalType": "bytes4",
					"name": "interfaceId",
					"type": "bytes4"
				}
			],
			"name": "supportsInterface",
			"outputs": [
				{
					"internalType": "bool",
					"name": "",
					"type": "bool"
				}
			],
			"stateMutability": "view",
			"type": "function"
		}
	]
}