{
	"tests/WallyStaking_test.sol": {
		"testSuite": {
			"abi": [
				{
					"inputs": [],
					"name": "beforeAll",
					"outputs": [],
					"stateMutability": "nonpayable",
					"type": "function"
				},
				{
					"inputs": [],
					"name": "checkFailure",
					"outputs": [],
					"stateMutability": "nonpayable",
					"type": "function"
				},
				{
					"inputs": [],
					"name": "checkSenderAndValue",
					"outputs": [],
					"stateMutability": "payable",
					"type": "function"
				},
				{
					"inputs": [],
					"name": "checkSuccess",
					"outputs": [],
					"stateMutability": "nonpayable",
					"type": "function"
				},
				{
					"inputs": [],
					"name": "checkSuccess2",
					"outputs": [
						{
							"internalType": "bool",
							"name": "",
							"type": "bool"
						}
					],
					"stateMutability": "pure",
					"type": "function"
				}
			],
			"evm": {
				"assembly": "    /* \"tests/WallyStaking_test.sol\":511:1832  contract testSuite {... */\n  0x80\n  dup1\n  0x40\n  mstore\n  jumpi(tag_1, callvalue)\n  dataSize(sub_0)\n  swap1\n  dup2\n  dataOffset(sub_0)\n  dup3\n  codecopy\n  return\ntag_1:\n  0x00\n  dup1\n  revert\nstop\n\nsub_0: assembly {\n        /* \"tests/WallyStaking_test.sol\":511:1832  contract testSuite {... */\n      0x80\n      dup1\n      0x40\n      mstore\n      jumpi(tag_3, iszero(lt(calldatasize, 0x04)))\n      0x00\n      dup1\n      revert\n    tag_3:\n      shr(0xe0, calldataload(0x00))\n      swap1\n      dup2\n      0x011e6492\n      eq\n      tag_5\n      jumpi\n      pop\n      dup1\n      0x12d487ea\n      eq\n      tag_7\n      jumpi\n      dup1\n      0x36c00656\n      eq\n      tag_9\n      jumpi\n      dup1\n      0x7fea0d4b\n      eq\n      tag_11\n      jumpi\n      0x9074416d\n      eq\n      tag_13\n      jumpi\n      0x00\n      dup1\n      revert\n    tag_13:\n      jumpi(tag_42, slt(add(not(0x03), calldatasize), 0x00))\n      mload(0x40)\n      shl(0xe0, 0xce88b145)\n        /* \"tests/WallyStaking_test.sol\":1722:1749  TestsAccounts.getAccount(1) */\n      dup2\n      mstore\n        /* \"tests/WallyStaking_test.sol\":1747:1748  1 */\n      0x01\n        /* \"tests/WallyStaking_test.sol\":511:1832  contract testSuite {... */\n      0x04\n        /* \"tests/WallyStaking_test.sol\":1722:1749  TestsAccounts.getAccount(1) */\n      dup3\n      add\n        /* \"tests/WallyStaking_test.sol\":511:1832  contract testSuite {... */\n      mstore\n        /* \"tests/WallyStaking_test.sol\":1697:1703  Assert */\n      linkerSymbol(\"acbfb1c35000d78352310b16a054a6b1066124b9c6f054b10c085f549bff80c6\")\n        /* \"tests/WallyStaking_test.sol\":511:1832  contract testSuite {... */\n      0x20\n      dup3\n        /* \"tests/WallyStaking_test.sol\":1722:1749  TestsAccounts.getAccount(1) */\n      0x24\n        /* \"tests/WallyStaking_test.sol\":511:1832  contract testSuite {... */\n      dup2\n        /* \"tests/WallyStaking_test.sol\":1722:1735  TestsAccounts */\n      linkerSymbol(\"1068a87eb54ed04c4e435de35b2ebf536f41f3ff436b4a9bd78b8044f97a1889\")\n        /* \"tests/WallyStaking_test.sol\":1722:1749  TestsAccounts.getAccount(1) */\n      gas\n      delegatecall\n      swap2\n      dup3\n      iszero\n      tag_25\n      jumpi\n        /* \"tests/WallyStaking_test.sol\":511:1832  contract testSuite {... */\n      0x00\n        /* \"tests/WallyStaking_test.sol\":1722:1749  TestsAccounts.getAccount(1) */\n      swap3\n      tag_19\n      jumpi\n        /* \"tests/WallyStaking_test.sol\":511:1832  contract testSuite {... */\n    tag_20:\n      pop\n      mload(0x40)\n      shl(0xe1, 0x5fdd2eeb)\n        /* \"tests/WallyStaking_test.sol\":1697:1768  Assert.equal(msg.sender, TestsAccounts.getAccount(1), \"Invalid sender\") */\n      dup2\n      mstore\n        /* \"tests/WallyStaking_test.sol\":1710:1720  msg.sender */\n      caller\n        /* \"tests/WallyStaking_test.sol\":511:1832  contract testSuite {... */\n      0x04\n        /* \"tests/WallyStaking_test.sol\":1697:1768  Assert.equal(msg.sender, TestsAccounts.getAccount(1), \"Invalid sender\") */\n      dup3\n      add\n        /* \"tests/WallyStaking_test.sol\":511:1832  contract testSuite {... */\n      mstore\n      sub(shl(0xa0, 0x01), 0x01)\n      swap1\n      swap3\n      and\n        /* \"tests/WallyStaking_test.sol\":1722:1749  TestsAccounts.getAccount(1) */\n      0x24\n        /* \"tests/WallyStaking_test.sol\":511:1832  contract testSuite {... */\n      dup4\n      add\n      mstore\n      0x60\n      0x44\n      dup4\n      add\n      mstore\n      0x0e\n      0x64\n      dup4\n      add\n      mstore\n      shl(0x91, 0x24b73b30b634b21039b2b73232b9)\n      0x84\n      dup4\n      add\n      mstore\n      0x20\n      dup3\n        /* \"tests/WallyStaking_test.sol\":1697:1768  Assert.equal(msg.sender, TestsAccounts.getAccount(1), \"Invalid sender\") */\n      0xa4\n        /* \"tests/WallyStaking_test.sol\":511:1832  contract testSuite {... */\n      dup2\n        /* \"tests/WallyStaking_test.sol\":1697:1768  Assert.equal(msg.sender, TestsAccounts.getAccount(1), \"Invalid sender\") */\n      dup5\n      gas\n      delegatecall\n      swap1\n      dup2\n      iszero\n      tag_25\n      jumpi\n      0xa4\n      swap3\n        /* \"tests/WallyStaking_test.sol\":511:1832  contract testSuite {... */\n      0x20\n        /* \"tests/WallyStaking_test.sol\":1697:1768  Assert.equal(msg.sender, TestsAccounts.getAccount(1), \"Invalid sender\") */\n      swap3\n      tag_23\n      jumpi\n        /* \"tests/WallyStaking_test.sol\":511:1832  contract testSuite {... */\n    tag_24:\n      pop\n      mload(0x40)\n      swap3\n      dup4\n      dup1\n      swap3\n      shl(0xe5, 0x055e6bcb)\n        /* \"tests/WallyStaking_test.sol\":1778:1823  Assert.equal(msg.value, 100, \"Invalid value\") */\n      dup3\n      mstore\n        /* \"tests/WallyStaking_test.sol\":1791:1800  msg.value */\n      callvalue\n        /* \"tests/WallyStaking_test.sol\":511:1832  contract testSuite {... */\n      0x04\n        /* \"tests/WallyStaking_test.sol\":1778:1823  Assert.equal(msg.value, 100, \"Invalid value\") */\n      dup4\n      add\n        /* \"tests/WallyStaking_test.sol\":511:1832  contract testSuite {... */\n      mstore\n      0x64\n        /* \"tests/WallyStaking_test.sol\":1722:1749  TestsAccounts.getAccount(1) */\n      0x24\n        /* \"tests/WallyStaking_test.sol\":511:1832  contract testSuite {... */\n      dup4\n      add\n      mstore\n      0x60\n      0x44\n      dup4\n      add\n      mstore\n      0x0d\n      0x64\n      dup4\n      add\n      mstore\n      shl(0x98, 0x496e76616c69642076616c7565)\n      0x84\n      dup4\n      add\n      mstore\n        /* \"tests/WallyStaking_test.sol\":1778:1823  Assert.equal(msg.value, 100, \"Invalid value\") */\n      gas\n      delegatecall\n      dup1\n      iszero\n      tag_25\n      jumpi\n      tag_27\n      jumpi\n        /* \"tests/WallyStaking_test.sol\":511:1832  contract testSuite {... */\n      stop\n        /* \"tests/WallyStaking_test.sol\":1778:1823  Assert.equal(msg.value, 100, \"Invalid value\") */\n    tag_27:\n      tag_29\n      swap1\n        /* \"tests/WallyStaking_test.sol\":511:1832  contract testSuite {... */\n      0x20\n        /* \"tests/WallyStaking_test.sol\":1778:1823  Assert.equal(msg.value, 100, \"Invalid value\") */\n      returndatasize\n        /* \"tests/WallyStaking_test.sol\":511:1832  contract testSuite {... */\n      0x20\n        /* \"tests/WallyStaking_test.sol\":1778:1823  Assert.equal(msg.value, 100, \"Invalid value\") */\n      gt\n      tag_30\n      jumpi\n    tag_31:\n      tag_32\n      dup2\n      dup4\n      tag_1\n      jump\t// in\n    tag_32:\n      dup2\n      add\n      swap1\n      tag_2\n      jump\t// in\n    tag_29:\n        /* \"tests/WallyStaking_test.sol\":511:1832  contract testSuite {... */\n      stop\n        /* \"tests/WallyStaking_test.sol\":1778:1823  Assert.equal(msg.value, 100, \"Invalid value\") */\n    tag_30:\n      pop\n      returndatasize\n      jump(tag_31)\n    tag_25:\n        /* \"tests/WallyStaking_test.sol\":511:1832  contract testSuite {... */\n      mload(0x40)\n      returndatasize\n      0x00\n      dup3\n      returndatacopy\n      returndatasize\n      swap1\n      revert\n        /* \"tests/WallyStaking_test.sol\":1697:1768  Assert.equal(msg.sender, TestsAccounts.getAccount(1), \"Invalid sender\") */\n    tag_23:\n      tag_33\n      swap1\n      dup4\n      returndatasize\n      dup6\n      gt\n      tag_30\n      jumpi\n      tag_32\n      dup2\n      dup4\n      tag_1\n      jump\t// in\n    tag_33:\n      jump(tag_24)\n        /* \"tests/WallyStaking_test.sol\":1722:1749  TestsAccounts.getAccount(1) */\n    tag_19:\n      swap1\n      swap2\n      pop\n        /* \"tests/WallyStaking_test.sol\":511:1832  contract testSuite {... */\n      0x20\n        /* \"tests/WallyStaking_test.sol\":1722:1749  TestsAccounts.getAccount(1) */\n      dup2\n      returndatasize\n        /* \"tests/WallyStaking_test.sol\":511:1832  contract testSuite {... */\n      0x20\n        /* \"tests/WallyStaking_test.sol\":1722:1749  TestsAccounts.getAccount(1) */\n      gt\n      tag_37\n      jumpi\n    tag_38:\n      dup2\n      tag_39\n        /* \"tests/WallyStaking_test.sol\":511:1832  contract testSuite {... */\n      0x20\n        /* \"tests/WallyStaking_test.sol\":1722:1749  TestsAccounts.getAccount(1) */\n      swap4\n      dup4\n      tag_1\n      jump\t// in\n    tag_39:\n      dup2\n      add\n        /* \"tests/WallyStaking_test.sol\":511:1832  contract testSuite {... */\n      sub\n      slt\n      tag_42\n      jumpi\n      mload\n      sub(shl(0xa0, 0x01), 0x01)\n      dup2\n      and\n      dup2\n      sub\n      tag_42\n      jumpi\n        /* \"tests/WallyStaking_test.sol\":1722:1749  TestsAccounts.getAccount(1) */\n      swap1\n      0x00\n      jump(tag_20)\n        /* \"tests/WallyStaking_test.sol\":511:1832  contract testSuite {... */\n    tag_42:\n      0x00\n      dup1\n      revert\n        /* \"tests/WallyStaking_test.sol\":1722:1749  TestsAccounts.getAccount(1) */\n    tag_37:\n      returndatasize\n      swap2\n      pop\n      jump(tag_38)\n        /* \"tests/WallyStaking_test.sol\":511:1832  contract testSuite {... */\n    tag_11:\n      jumpi(tag_42, callvalue)\n      jumpi(tag_42, slt(add(not(0x03), calldatasize), 0x00))\n      mload(0x40)\n      shl(0xe5, 0x055e6bcb)\n        /* \"tests/WallyStaking_test.sol\":745:801  Assert.equal(uint(1), uint(1), \"1 should be equal to 1\") */\n      dup2\n      mstore\n        /* \"tests/WallyStaking_test.sol\":763:764  1 */\n      0x01\n        /* \"tests/WallyStaking_test.sol\":511:1832  contract testSuite {... */\n      0x04\n        /* \"tests/WallyStaking_test.sol\":745:801  Assert.equal(uint(1), uint(1), \"1 should be equal to 1\") */\n      dup3\n      add\n        /* \"tests/WallyStaking_test.sol\":511:1832  contract testSuite {... */\n      dup2\n      swap1\n      mstore\n      0x24\n      dup3\n      add\n      mstore\n      0x60\n      0x44\n      dup3\n      add\n      mstore\n      0x16\n      0x64\n      dup3\n      add\n      mstore\n      shl(0x50, 0x312073686f756c6420626520657175616c20746f2031)\n      0x84\n      dup3\n      add\n      mstore\n      0x20\n      dup2\n        /* \"tests/WallyStaking_test.sol\":745:801  Assert.equal(uint(1), uint(1), \"1 should be equal to 1\") */\n      0xa4\n        /* \"tests/WallyStaking_test.sol\":511:1832  contract testSuite {... */\n      dup2\n        /* \"tests/WallyStaking_test.sol\":745:751  Assert */\n      linkerSymbol(\"acbfb1c35000d78352310b16a054a6b1066124b9c6f054b10c085f549bff80c6\")\n        /* \"tests/WallyStaking_test.sol\":745:801  Assert.equal(uint(1), uint(1), \"1 should be equal to 1\") */\n      gas\n      delegatecall\n      dup1\n      iszero\n      tag_25\n      jumpi\n      tag_27\n      jumpi\n        /* \"tests/WallyStaking_test.sol\":511:1832  contract testSuite {... */\n      stop\n    tag_9:\n      jumpi(tag_42, callvalue)\n      jumpi(tag_42, slt(add(not(0x03), calldatasize), 0x00))\n      mload(0x40)\n      shl(0xe1, 0x2b080af1)\n        /* \"tests/WallyStaking_test.sol\":1355:1418  Assert.notEqual(uint(1), uint(1), \"1 should not be equal to 1\") */\n      dup2\n      mstore\n        /* \"tests/WallyStaking_test.sol\":1376:1377  1 */\n      0x01\n        /* \"tests/WallyStaking_test.sol\":511:1832  contract testSuite {... */\n      0x04\n        /* \"tests/WallyStaking_test.sol\":1355:1418  Assert.notEqual(uint(1), uint(1), \"1 should not be equal to 1\") */\n      dup3\n      add\n        /* \"tests/WallyStaking_test.sol\":511:1832  contract testSuite {... */\n      dup2\n      swap1\n      mstore\n      0x24\n      dup3\n      add\n      mstore\n      0x60\n      0x44\n      dup3\n      add\n      mstore\n      0x1a\n      0x64\n      dup3\n      add\n      mstore\n      0x312073686f756c64206e6f7420626520657175616c20746f2031000000000000\n      0x84\n      dup3\n      add\n      mstore\n      0x20\n      dup2\n        /* \"tests/WallyStaking_test.sol\":1355:1418  Assert.notEqual(uint(1), uint(1), \"1 should not be equal to 1\") */\n      0xa4\n        /* \"tests/WallyStaking_test.sol\":511:1832  contract testSuite {... */\n      dup2\n        /* \"tests/WallyStaking_test.sol\":1355:1361  Assert */\n      linkerSymbol(\"acbfb1c35000d78352310b16a054a6b1066124b9c6f054b10c085f549bff80c6\")\n        /* \"tests/WallyStaking_test.sol\":1355:1418  Assert.notEqual(uint(1), uint(1), \"1 should not be equal to 1\") */\n      gas\n      delegatecall\n      dup1\n      iszero\n      tag_25\n      jumpi\n      tag_27\n      jumpi\n        /* \"tests/WallyStaking_test.sol\":511:1832  contract testSuite {... */\n      stop\n    tag_7:\n      jumpi(tag_42, callvalue)\n      jumpi(tag_42, slt(add(not(0x03), calldatasize), 0x00))\n      0x20\n      mload(0x40)\n        /* \"tests/WallyStaking_test.sol\":1293:1297  true */\n      0x01\n        /* \"tests/WallyStaking_test.sol\":511:1832  contract testSuite {... */\n      dup2\n      mstore\n      return\n    tag_5:\n      jumpi(tag_42, callvalue)\n      jumpi(tag_42, slt(add(not(0x03), calldatasize), 0x00))\n      shl(0xe0, 0x39df137f)\n        /* \"tests/WallyStaking_test.sol\":951:986  Assert.ok(2 == 2, 'should be true') */\n      dup2\n      mstore\n        /* \"tests/WallyStaking_test.sol\":961:967  2 == 2 */\n      0x01\n        /* \"tests/WallyStaking_test.sol\":511:1832  contract testSuite {... */\n      0x04\n        /* \"tests/WallyStaking_test.sol\":951:986  Assert.ok(2 == 2, 'should be true') */\n      dup3\n      add\n        /* \"tests/WallyStaking_test.sol\":511:1832  contract testSuite {... */\n      mstore\n      0x40\n      0x24\n      dup3\n      add\n      mstore\n      0x0e\n      0x44\n      dup3\n      add\n      mstore\n      shl(0x90, 0x73686f756c642062652074727565)\n      0x64\n      dup3\n      add\n      mstore\n        /* \"tests/WallyStaking_test.sol\":951:957  Assert */\n      linkerSymbol(\"acbfb1c35000d78352310b16a054a6b1066124b9c6f054b10c085f549bff80c6\")\n      swap1\n        /* \"tests/WallyStaking_test.sol\":511:1832  contract testSuite {... */\n      0x20\n      dup2\n        /* \"tests/WallyStaking_test.sol\":951:986  Assert.ok(2 == 2, 'should be true') */\n      0x84\n        /* \"tests/WallyStaking_test.sol\":511:1832  contract testSuite {... */\n      dup2\n        /* \"tests/WallyStaking_test.sol\":951:957  Assert */\n      dup6\n        /* \"tests/WallyStaking_test.sol\":951:986  Assert.ok(2 == 2, 'should be true') */\n      gas\n      delegatecall\n      dup1\n      iszero\n      tag_25\n      jumpi\n      tag_78\n      jumpi\n        /* \"tests/WallyStaking_test.sol\":511:1832  contract testSuite {... */\n    tag_79:\n      pop\n      mload(0x40)\n      shl(0xe0, 0xa079f1a3)\n        /* \"tests/WallyStaking_test.sol\":996:1065  Assert.greaterThan(uint(2), uint(1), \"2 should be greater than to 1\") */\n      dup2\n      mstore\n        /* \"tests/WallyStaking_test.sol\":961:962  2 */\n      0x02\n        /* \"tests/WallyStaking_test.sol\":511:1832  contract testSuite {... */\n      0x04\n        /* \"tests/WallyStaking_test.sol\":996:1065  Assert.greaterThan(uint(2), uint(1), \"2 should be greater than to 1\") */\n      dup3\n      add\n        /* \"tests/WallyStaking_test.sol\":511:1832  contract testSuite {... */\n      mstore\n        /* \"tests/WallyStaking_test.sol\":961:967  2 == 2 */\n      0x01\n        /* \"tests/WallyStaking_test.sol\":511:1832  contract testSuite {... */\n      0x24\n      dup3\n      add\n      mstore\n      0x60\n      0x44\n      dup3\n      add\n      mstore\n      0x1d\n      0x64\n      dup3\n      add\n      mstore\n      0x322073686f756c642062652067726561746572207468616e20746f2031000000\n        /* \"tests/WallyStaking_test.sol\":951:986  Assert.ok(2 == 2, 'should be true') */\n      0x84\n        /* \"tests/WallyStaking_test.sol\":511:1832  contract testSuite {... */\n      dup3\n      add\n      mstore\n      swap1\n      0x20\n      dup3\n        /* \"tests/WallyStaking_test.sol\":996:1065  Assert.greaterThan(uint(2), uint(1), \"2 should be greater than to 1\") */\n      0xa4\n        /* \"tests/WallyStaking_test.sol\":511:1832  contract testSuite {... */\n      dup2\n      dup5\n        /* \"tests/WallyStaking_test.sol\":996:1065  Assert.greaterThan(uint(2), uint(1), \"2 should be greater than to 1\") */\n      gas\n      delegatecall\n      swap1\n      dup2\n      iszero\n      tag_25\n      jumpi\n      0xa4\n      swap3\n        /* \"tests/WallyStaking_test.sol\":511:1832  contract testSuite {... */\n      0x20\n        /* \"tests/WallyStaking_test.sol\":996:1065  Assert.greaterThan(uint(2), uint(1), \"2 should be greater than to 1\") */\n      swap3\n      tag_82\n      jumpi\n        /* \"tests/WallyStaking_test.sol\":511:1832  contract testSuite {... */\n    tag_83:\n      pop\n      mload(0x40)\n      shl(0xe1, 0x575444a9)\n        /* \"tests/WallyStaking_test.sol\":1075:1142  Assert.lesserThan(uint(2), uint(3), \"2 should be lesser than to 3\") */\n      dup2\n      mstore\n        /* \"tests/WallyStaking_test.sol\":961:962  2 */\n      0x02\n        /* \"tests/WallyStaking_test.sol\":511:1832  contract testSuite {... */\n      0x04\n        /* \"tests/WallyStaking_test.sol\":1075:1142  Assert.lesserThan(uint(2), uint(3), \"2 should be lesser than to 3\") */\n      dup3\n      add\n        /* \"tests/WallyStaking_test.sol\":511:1832  contract testSuite {... */\n      mstore\n        /* \"tests/WallyStaking_test.sol\":1107:1108  3 */\n      0x03\n        /* \"tests/WallyStaking_test.sol\":511:1832  contract testSuite {... */\n      0x24\n      dup3\n      add\n      mstore\n      0x60\n      0x44\n      dup3\n      add\n      mstore\n      0x1c\n      0x64\n      dup3\n      add\n      mstore\n      0x322073686f756c64206265206c6573736572207468616e20746f203300000000\n        /* \"tests/WallyStaking_test.sol\":951:986  Assert.ok(2 == 2, 'should be true') */\n      0x84\n        /* \"tests/WallyStaking_test.sol\":511:1832  contract testSuite {... */\n      dup3\n      add\n      mstore\n      swap3\n      dup4\n      swap2\n      dup3\n      swap1\n        /* \"tests/WallyStaking_test.sol\":1075:1142  Assert.lesserThan(uint(2), uint(3), \"2 should be lesser than to 3\") */\n      gas\n      delegatecall\n      dup1\n      iszero\n      tag_25\n      jumpi\n      tag_27\n      jumpi\n        /* \"tests/WallyStaking_test.sol\":511:1832  contract testSuite {... */\n      stop\n        /* \"tests/WallyStaking_test.sol\":996:1065  Assert.greaterThan(uint(2), uint(1), \"2 should be greater than to 1\") */\n    tag_82:\n      tag_92\n      swap1\n      dup4\n      returndatasize\n      dup6\n      gt\n      tag_30\n      jumpi\n      tag_32\n      dup2\n      dup4\n      tag_1\n      jump\t// in\n    tag_92:\n      jump(tag_83)\n        /* \"tests/WallyStaking_test.sol\":951:986  Assert.ok(2 == 2, 'should be true') */\n    tag_78:\n      tag_96\n      swap1\n        /* \"tests/WallyStaking_test.sol\":511:1832  contract testSuite {... */\n      0x20\n        /* \"tests/WallyStaking_test.sol\":951:986  Assert.ok(2 == 2, 'should be true') */\n      returndatasize\n        /* \"tests/WallyStaking_test.sol\":511:1832  contract testSuite {... */\n      0x20\n        /* \"tests/WallyStaking_test.sol\":951:986  Assert.ok(2 == 2, 'should be true') */\n      gt\n      tag_30\n      jumpi\n      tag_32\n      dup2\n      dup4\n      tag_1\n      jump\t// in\n    tag_96:\n      jump(tag_79)\n        /* \"tests/WallyStaking_test.sol\":511:1832  contract testSuite {... */\n    tag_1:\n      swap1\n      0x1f\n      dup1\n      not\n      swap2\n      add\n      and\n      dup2\n      add\n      swap1\n      dup2\n      lt\n      0xffffffffffffffff\n      dup3\n      gt\n      or\n      tag_100\n      jumpi\n      0x40\n      mstore\n      jump\t// out\n    tag_100:\n      mstore(0x00, shl(0xe0, 0x4e487b71))\n      mstore(0x04, 0x41)\n      revert(0x00, 0x24)\n    tag_2:\n      swap1\n      dup2\n      0x20\n      swap2\n      sub\n      slt\n      tag_42\n      jumpi\n      mload\n      dup1\n      iszero\n      iszero\n      dup2\n      sub\n      tag_42\n      jumpi\n      swap1\n      jump\t// out\n\n    auxdata: 0xa26469706673582212202d5f674480d1856ac7b63e0cb5ca978be7f4366f0c7619a169307f613953169664736f6c634300081c0033\n}\n",
				"bytecode": {
					"linkReferences": {
						"remix_accounts.sol": {
							"TestsAccounts": [
								{
									"length": 20,
									"start": 169
								}
							]
						},
						"remix_tests.sol": {
							"Assert": [
								{
									"length": 20,
									"start": 142
								},
								{
									"length": 20,
									"start": 633
								},
								{
									"length": 20,
									"start": 769
								},
								{
									"length": 20,
									"start": 901
								}
							]
						}
					},
					"object": "6080806040523460155761051e908161001a8239f35b5f80fdfe6080806040526004361015610012575f80fd5b5f3560e01c908163011e6492146103235750806312d487ea1461030857806336c00656146102805780637fea0d4b146101ff57639074416d14610053575f80fd5b5f3660031901126101f35760405163ce88b14560e01b81526001600482015273__$acbfb1c35000d78352310b16a054a6b106$__60208260248173__$1068a87eb54ed04c4e435de35b2ebf536f$__5af4918215610191575f926101b7575b50604051635fdd2eeb60e11b81523360048201526001600160a01b03909216602483015260606044830152600e60648301526d24b73b30b634b21039b2b73232b960911b608483015260208260a481845af49081156101915760a49260209261019c575b506040519283809263055e6bcb60e51b82523460048301526064602483015260606044830152600d60648301526c496e76616c69642076616c756560981b60848301525af480156101915761016757005b6101889060203d60201161018a575b610180818361049a565b8101906104d0565b005b503d610176565b6040513d5f823e3d90fd5b6101b290833d851161018a57610180818361049a565b610116565b9091506020813d6020116101f7575b816101d36020938361049a565b810103126101f357516001600160a01b03811681036101f357905f6100b2565b5f80fd5b3d91506101c6565b346101f3575f3660031901126101f35760405163055e6bcb60e51b81526001600482018190526024820152606060448201526016606482015275312073686f756c6420626520657175616c20746f203160501b608482015260208160a48173__$acbfb1c35000d78352310b16a054a6b106$__5af480156101915761016757005b346101f3575f3660031901126101f357604051632b080af160e11b8152600160048201819052602482015260606044820152601a60648201527f312073686f756c64206e6f7420626520657175616c20746f2031000000000000608482015260208160a48173__$acbfb1c35000d78352310b16a054a6b106$__5af480156101915761016757005b346101f3575f3660031901126101f357602060405160018152f35b346101f3575f3660031901126101f3576339df137f60e01b81526001600482015260406024820152600e60448201526d73686f756c64206265207472756560901b606482015273__$acbfb1c35000d78352310b16a054a6b106$__90602081608481855af480156101915761047d575b5060405163a079f1a360e01b8152600260048201526001602482015260606044820152601d60648201527f322073686f756c642062652067726561746572207468616e20746f203100000060848201529060208260a481845af49081156101915760a492602092610462575b5060405163575444a960e11b8152600260048201526003602482015260606044820152601c60648201527f322073686f756c64206265206c6573736572207468616e20746f203300000000608482015292839182905af480156101915761016757005b61047890833d851161018a57610180818361049a565b6103ff565b6104959060203d60201161018a57610180818361049a565b610393565b90601f8019910116810190811067ffffffffffffffff8211176104bc57604052565b634e487b7160e01b5f52604160045260245ffd5b908160209103126101f3575180151581036101f3579056fea26469706673582212202d5f674480d1856ac7b63e0cb5ca978be7f4366f0c7619a169307f613953169664736f6c634300081c0033",
					"opcodes": "PUSH1 0x80 DUP1 PUSH1 0x40 MSTORE CALLVALUE PUSH1 0x15 JUMPI PUSH2 0x51E SWAP1 DUP2 PUSH2 0x1A DUP3 CODECOPY RETURN JUMPDEST PUSH0 DUP1 REVERT INVALID PUSH1 0x80 DUP1 PUSH1 0x40 MSTORE PUSH1 0x4 CALLDATASIZE LT ISZERO PUSH2 0x12 JUMPI PUSH0 DUP1 REVERT JUMPDEST PUSH0 CALLDATALOAD PUSH1 0xE0 SHR SWAP1 DUP2 PUSH4 0x11E6492 EQ PUSH2 0x323 JUMPI POP DUP1 PUSH4 0x12D487EA EQ PUSH2 0x308 JUMPI DUP1 PUSH4 0x36C00656 EQ PUSH2 0x280 JUMPI DUP1 PUSH4 0x7FEA0D4B EQ PUSH2 0x1FF JUMPI PUSH4 0x9074416D EQ PUSH2 0x53 JUMPI PUSH0 DUP1 REVERT JUMPDEST PUSH0 CALLDATASIZE PUSH1 0x3 NOT ADD SLT PUSH2 0x1F3 JUMPI PUSH1 0x40 MLOAD PUSH4 0xCE88B145 PUSH1 0xE0 SHL DUP2 MSTORE PUSH1 0x1 PUSH1 0x4 DUP3 ADD MSTORE PUSH20 0x0 PUSH1 0x20 DUP3 PUSH1 0x24 DUP2 PUSH20 0x0 GAS DELEGATECALL SWAP2 DUP3 ISZERO PUSH2 0x191 JUMPI PUSH0 SWAP3 PUSH2 0x1B7 JUMPI JUMPDEST POP PUSH1 0x40 MLOAD PUSH4 0x5FDD2EEB PUSH1 0xE1 SHL DUP2 MSTORE CALLER PUSH1 0x4 DUP3 ADD MSTORE PUSH1 0x1 PUSH1 0x1 PUSH1 0xA0 SHL SUB SWAP1 SWAP3 AND PUSH1 0x24 DUP4 ADD MSTORE PUSH1 0x60 PUSH1 0x44 DUP4 ADD MSTORE PUSH1 0xE PUSH1 0x64 DUP4 ADD MSTORE PUSH14 0x24B73B30B634B21039B2B73232B9 PUSH1 0x91 SHL PUSH1 0x84 DUP4 ADD MSTORE PUSH1 0x20 DUP3 PUSH1 0xA4 DUP2 DUP5 GAS DELEGATECALL SWAP1 DUP2 ISZERO PUSH2 0x191 JUMPI PUSH1 0xA4 SWAP3 PUSH1 0x20 SWAP3 PUSH2 0x19C JUMPI JUMPDEST POP PUSH1 0x40 MLOAD SWAP3 DUP4 DUP1 SWAP3 PUSH4 0x55E6BCB PUSH1 0xE5 SHL DUP3 MSTORE CALLVALUE PUSH1 0x4 DUP4 ADD MSTORE PUSH1 0x64 PUSH1 0x24 DUP4 ADD MSTORE PUSH1 0x60 PUSH1 0x44 DUP4 ADD MSTORE PUSH1 0xD PUSH1 0x64 DUP4 ADD MSTORE PUSH13 0x496E76616C69642076616C7565 PUSH1 0x98 SHL PUSH1 0x84 DUP4 ADD MSTORE GAS DELEGATECALL DUP1 ISZERO PUSH2 0x191 JUMPI PUSH2 0x167 JUMPI STOP JUMPDEST PUSH2 0x188 SWAP1 PUSH1 0x20 RETURNDATASIZE PUSH1 0x20 GT PUSH2 0x18A JUMPI JUMPDEST PUSH2 0x180 DUP2 DUP4 PUSH2 0x49A JUMP JUMPDEST DUP2 ADD SWAP1 PUSH2 0x4D0 JUMP JUMPDEST STOP JUMPDEST POP RETURNDATASIZE PUSH2 0x176 JUMP JUMPDEST PUSH1 0x40 MLOAD RETURNDATASIZE PUSH0 DUP3 RETURNDATACOPY RETURNDATASIZE SWAP1 REVERT JUMPDEST PUSH2 0x1B2 SWAP1 DUP4 RETURNDATASIZE DUP6 GT PUSH2 0x18A JUMPI PUSH2 0x180 DUP2 DUP4 PUSH2 0x49A JUMP JUMPDEST PUSH2 0x116 JUMP JUMPDEST SWAP1 SWAP2 POP PUSH1 0x20 DUP2 RETURNDATASIZE PUSH1 0x20 GT PUSH2 0x1F7 JUMPI JUMPDEST DUP2 PUSH2 0x1D3 PUSH1 0x20 SWAP4 DUP4 PUSH2 0x49A JUMP JUMPDEST DUP2 ADD SUB SLT PUSH2 0x1F3 JUMPI MLOAD PUSH1 0x1 PUSH1 0x1 PUSH1 0xA0 SHL SUB DUP2 AND DUP2 SUB PUSH2 0x1F3 JUMPI SWAP1 PUSH0 PUSH2 0xB2 JUMP JUMPDEST PUSH0 DUP1 REVERT JUMPDEST RETURNDATASIZE SWAP2 POP PUSH2 0x1C6 JUMP JUMPDEST CALLVALUE PUSH2 0x1F3 JUMPI PUSH0 CALLDATASIZE PUSH1 0x3 NOT ADD SLT PUSH2 0x1F3 JUMPI PUSH1 0x40 MLOAD PUSH4 0x55E6BCB PUSH1 0xE5 SHL DUP2 MSTORE PUSH1 0x1 PUSH1 0x4 DUP3 ADD DUP2 SWAP1 MSTORE PUSH1 0x24 DUP3 ADD MSTORE PUSH1 0x60 PUSH1 0x44 DUP3 ADD MSTORE PUSH1 0x16 PUSH1 0x64 DUP3 ADD MSTORE PUSH22 0x312073686F756C6420626520657175616C20746F2031 PUSH1 0x50 SHL PUSH1 0x84 DUP3 ADD MSTORE PUSH1 0x20 DUP2 PUSH1 0xA4 DUP2 PUSH20 0x0 GAS DELEGATECALL DUP1 ISZERO PUSH2 0x191 JUMPI PUSH2 0x167 JUMPI STOP JUMPDEST CALLVALUE PUSH2 0x1F3 JUMPI PUSH0 CALLDATASIZE PUSH1 0x3 NOT ADD SLT PUSH2 0x1F3 JUMPI PUSH1 0x40 MLOAD PUSH4 0x2B080AF1 PUSH1 0xE1 SHL DUP2 MSTORE PUSH1 0x1 PUSH1 0x4 DUP3 ADD DUP2 SWAP1 MSTORE PUSH1 0x24 DUP3 ADD MSTORE PUSH1 0x60 PUSH1 0x44 DUP3 ADD MSTORE PUSH1 0x1A PUSH1 0x64 DUP3 ADD MSTORE PUSH32 0x312073686F756C64206E6F7420626520657175616C20746F2031000000000000 PUSH1 0x84 DUP3 ADD MSTORE PUSH1 0x20 DUP2 PUSH1 0xA4 DUP2 PUSH20 0x0 GAS DELEGATECALL DUP1 ISZERO PUSH2 0x191 JUMPI PUSH2 0x167 JUMPI STOP JUMPDEST CALLVALUE PUSH2 0x1F3 JUMPI PUSH0 CALLDATASIZE PUSH1 0x3 NOT ADD SLT PUSH2 0x1F3 JUMPI PUSH1 0x20 PUSH1 0x40 MLOAD PUSH1 0x1 DUP2 MSTORE RETURN JUMPDEST CALLVALUE PUSH2 0x1F3 JUMPI PUSH0 CALLDATASIZE PUSH1 0x3 NOT ADD SLT PUSH2 0x1F3 JUMPI PUSH4 0x39DF137F PUSH1 0xE0 SHL DUP2 MSTORE PUSH1 0x1 PUSH1 0x4 DUP3 ADD MSTORE PUSH1 0x40 PUSH1 0x24 DUP3 ADD MSTORE PUSH1 0xE PUSH1 0x44 DUP3 ADD MSTORE PUSH14 0x73686F756C642062652074727565 PUSH1 0x90 SHL PUSH1 0x64 DUP3 ADD MSTORE PUSH20 0x0 SWAP1 PUSH1 0x20 DUP2 PUSH1 0x84 DUP2 DUP6 GAS DELEGATECALL DUP1 ISZERO PUSH2 0x191 JUMPI PUSH2 0x47D JUMPI JUMPDEST POP PUSH1 0x40 MLOAD PUSH4 0xA079F1A3 PUSH1 0xE0 SHL DUP2 MSTORE PUSH1 0x2 PUSH1 0x4 DUP3 ADD MSTORE PUSH1 0x1 PUSH1 0x24 DUP3 ADD MSTORE PUSH1 0x60 PUSH1 0x44 DUP3 ADD MSTORE PUSH1 0x1D PUSH1 0x64 DUP3 ADD MSTORE PUSH32 0x322073686F756C642062652067726561746572207468616E20746F2031000000 PUSH1 0x84 DUP3 ADD MSTORE SWAP1 PUSH1 0x20 DUP3 PUSH1 0xA4 DUP2 DUP5 GAS DELEGATECALL SWAP1 DUP2 ISZERO PUSH2 0x191 JUMPI PUSH1 0xA4 SWAP3 PUSH1 0x20 SWAP3 PUSH2 0x462 JUMPI JUMPDEST POP PUSH1 0x40 MLOAD PUSH4 0x575444A9 PUSH1 0xE1 SHL DUP2 MSTORE PUSH1 0x2 PUSH1 0x4 DUP3 ADD MSTORE PUSH1 0x3 PUSH1 0x24 DUP3 ADD MSTORE PUSH1 0x60 PUSH1 0x44 DUP3 ADD MSTORE PUSH1 0x1C PUSH1 0x64 DUP3 ADD MSTORE PUSH32 0x322073686F756C64206265206C6573736572207468616E20746F203300000000 PUSH1 0x84 DUP3 ADD MSTORE SWAP3 DUP4 SWAP2 DUP3 SWAP1 GAS DELEGATECALL DUP1 ISZERO PUSH2 0x191 JUMPI PUSH2 0x167 JUMPI STOP JUMPDEST PUSH2 0x478 SWAP1 DUP4 RETURNDATASIZE DUP6 GT PUSH2 0x18A JUMPI PUSH2 0x180 DUP2 DUP4 PUSH2 0x49A JUMP JUMPDEST PUSH2 0x3FF JUMP JUMPDEST PUSH2 0x495 SWAP1 PUSH1 0x20 RETURNDATASIZE PUSH1 0x20 GT PUSH2 0x18A JUMPI PUSH2 0x180 DUP2 DUP4 PUSH2 0x49A JUMP JUMPDEST PUSH2 0x393 JUMP JUMPDEST SWAP1 PUSH1 0x1F DUP1 NOT SWAP2 ADD AND DUP2 ADD SWAP1 DUP2 LT PUSH8 0xFFFFFFFFFFFFFFFF DUP3 GT OR PUSH2 0x4BC JUMPI PUSH1 0x40 MSTORE JUMP JUMPDEST PUSH4 0x4E487B71 PUSH1 0xE0 SHL PUSH0 MSTORE PUSH1 0x41 PUSH1 0x4 MSTORE PUSH1 0x24 PUSH0 REVERT JUMPDEST SWAP1 DUP2 PUSH1 0x20 SWAP2 SUB SLT PUSH2 0x1F3 JUMPI MLOAD DUP1 ISZERO ISZERO DUP2 SUB PUSH2 0x1F3 JUMPI SWAP1 JUMP INVALID LOG2 PUSH5 0x6970667358 0x22 SLT KECCAK256 0x2D PUSH0 PUSH8 0x4480D1856AC7B63E 0xC 0xB5 0xCA SWAP8 DUP12 0xE7 DELEGATECALL CALLDATASIZE PUSH16 0xC7619A169307F613953169664736F6C PUSH4 0x4300081C STOP CALLER "
				},
				"gasEstimates": {
					"creation": {
						"codeDepositCost": "262000",
						"executionCost": "306",
						"totalCost": "262306"
					},
					"external": {
						"beforeAll()": "infinite",
						"checkFailure()": "infinite",
						"checkSenderAndValue()": "infinite",
						"checkSuccess()": "infinite",
						"checkSuccess2()": "175"
					}
				},
				"methodIdentifiers": {
					"beforeAll()": "7fea0d4b",
					"checkFailure()": "36c00656",
					"checkSenderAndValue()": "9074416d",
					"checkSuccess()": "011e6492",
					"checkSuccess2()": "12d487ea"
				}
			},
			"storageLayout": {
				"storage": [],
				"types": null
			},
			"userdoc": {
				"kind": "user",
				"methods": {
					"beforeAll()": {
						"notice": "'beforeAll' runs before all other tests More special functions are: 'beforeEach', 'beforeAll', 'afterEach' & 'afterAll'"
					},
					"checkSenderAndValue()": {
						"notice": "Custom Transaction Context: https://remix-ide.readthedocs.io/en/latest/unittesting.html#customization #sender: account-1 #value: 100"
					}
				},
				"version": 1
			}
		}
	}
}