{
	"remix_accounts.sol": {
		"TestsAccounts": {
			"abi": [
				{
					"inputs": [
						{
							"internalType": "uint256",
							"name": "index",
							"type": "uint256"
						}
					],
					"name": "getAccount",
					"outputs": [
						{
							"internalType": "address",
							"name": "",
							"type": "address"
						}
					],
					"stateMutability": "pure",
					"type": "function"
				}
			],
			"evm": {
				"assembly": "    /* \"remix_accounts.sol\":71:1150  library TestsAccounts {... */\n  0x80\n  dup1\n  0x40\n  mstore\n  jumpi(tag_1, callvalue)\n  dataSize(sub_0)\n  swap1\n  dup2\n  dataOffset(sub_0)\n  dup3\n  codecopy\n  address\n  dup2\n  assignImmutable(\"0xcd5a02d485074f67d63783a7acdae578618045c23ccf47fa4e3f1a01c11714ad\")\n  return\ntag_1:\n  0x00\n  dup1\n  revert\nstop\n\nsub_0: assembly {\n        /* \"remix_accounts.sol\":71:1150  library TestsAccounts {... */\n      mstore(0x40, 0x80)\n      jumpi(tag_1, iszero(lt(calldatasize, 0x04)))\n      0x00\n      dup1\n      revert\n    tag_1:\n      jumpi(tag_3, eq(0xce88b145, shr(0xe0, calldataload(0x00))))\n      0x00\n      dup1\n      revert\n    tag_3:\n      jumpi(tag_5, slt(add(not(0x03), calldatasize), 0x20))\n      calldataload(0x04)\n      0x01e0\n      mload(0x40)\n      swap1\n      dup1\n      dup3\n      add\n      dup3\n      dup2\n      lt\n      0xffffffffffffffff\n      dup3\n      gt\n      or\n      tag_7\n      jumpi\n      0x40\n      mstore\n      calldatasize\n      dup3\n      calldatacopy\n        /* \"remix_accounts.sol\":216:258  0x5B38Da6a701c568545dCfcB03FcB875f56beddC4 */\n      0x5b38da6a701c568545dcfcb03fcb875f56beddc4\n        /* \"remix_accounts.sol\":71:1150  library TestsAccounts {... */\n      dup2\n      mstore\n        /* \"remix_accounts.sol\":277:319  0xAb8483F64d9C6d1EcF9b849Ae677dD3315835cb2 */\n      0xab8483f64d9c6d1ecf9b849ae677dd3315835cb2\n        /* \"remix_accounts.sol\":71:1150  library TestsAccounts {... */\n      0x20\n      dup3\n      add\n      mstore\n        /* \"remix_accounts.sol\":338:380  0x4B20993Bc481177ec7E8f571ceCaE8A9e22C02db */\n      0x4b20993bc481177ec7e8f571cecae8a9e22c02db\n        /* \"remix_accounts.sol\":71:1150  library TestsAccounts {... */\n      0x40\n      dup3\n      add\n      mstore\n        /* \"remix_accounts.sol\":399:441  0x78731D3Ca6b7E34aC0F824c42a7cC18A495cabaB */\n      0x78731d3ca6b7e34ac0f824c42a7cc18a495cabab\n        /* \"remix_accounts.sol\":71:1150  library TestsAccounts {... */\n      0x60\n      dup3\n      add\n      mstore\n        /* \"remix_accounts.sol\":460:502  0x617F2E2fD72FD9D5503197092aC168c91465E7f2 */\n      0x617f2e2fd72fd9d5503197092ac168c91465e7f2\n        /* \"remix_accounts.sol\":71:1150  library TestsAccounts {... */\n      0x80\n      dup3\n      add\n      mstore\n        /* \"remix_accounts.sol\":521:563  0x17F6AD8Ef982297579C203069C1DbfFE4348c372 */\n      0x17f6ad8ef982297579c203069c1dbffe4348c372\n        /* \"remix_accounts.sol\":71:1150  library TestsAccounts {... */\n      0xa0\n      dup3\n      add\n      mstore\n        /* \"remix_accounts.sol\":582:624  0x5c6B0f7Bf3E7ce046039Bd8FABdfD3f9F5021678 */\n      0x5c6b0f7bf3e7ce046039bd8fabdfd3f9f5021678\n        /* \"remix_accounts.sol\":71:1150  library TestsAccounts {... */\n      0xc0\n      dup3\n      add\n      mstore\n        /* \"remix_accounts.sol\":643:685  0x03C6FcED478cBbC9a4FAB34eF9f40767739D1Ff7 */\n      0x03c6fced478cbbc9a4fab34ef9f40767739d1ff7\n        /* \"remix_accounts.sol\":71:1150  library TestsAccounts {... */\n      0xe0\n      dup3\n      add\n      mstore\n        /* \"remix_accounts.sol\":704:746  0x1aE0EA34a72D944a8C7603FfB3eC30a6669E454C */\n      0x1ae0ea34a72d944a8c7603ffb3ec30a6669e454c\n        /* \"remix_accounts.sol\":71:1150  library TestsAccounts {... */\n      0x0100\n      dup3\n      add\n      mstore\n        /* \"remix_accounts.sol\":765:807  0x0A098Eda01Ce92ff4A4CCb7A4fFFb5A43EBC70DC */\n      0x0a098eda01ce92ff4a4ccb7a4fffb5a43ebc70dc\n        /* \"remix_accounts.sol\":71:1150  library TestsAccounts {... */\n      0x0120\n      dup3\n      add\n      mstore\n        /* \"remix_accounts.sol\":827:869  0xCA35b7d915458EF540aDe6068dFe2F44E8fa733c */\n      0xca35b7d915458ef540ade6068dfe2f44e8fa733c\n        /* \"remix_accounts.sol\":71:1150  library TestsAccounts {... */\n      0x0140\n      dup3\n      add\n      mstore\n        /* \"remix_accounts.sol\":889:931  0x14723A09ACff6D2A60DcdF7aA4AFf308FDDC160C */\n      0x14723a09acff6d2a60dcdf7aa4aff308fddc160c\n        /* \"remix_accounts.sol\":71:1150  library TestsAccounts {... */\n      0x0160\n      dup3\n      add\n      mstore\n        /* \"remix_accounts.sol\":951:993  0x4B0897b0513fdC7C541B6d9D7E929C4e5364D2dB */\n      0x4b0897b0513fdc7c541b6d9d7e929c4e5364d2db\n        /* \"remix_accounts.sol\":71:1150  library TestsAccounts {... */\n      0x0180\n      dup3\n      add\n      mstore\n        /* \"remix_accounts.sol\":1013:1055  0x583031D1113aD414F02576BD6afaBfb302140225 */\n      0x583031d1113ad414f02576bd6afabfb302140225\n        /* \"remix_accounts.sol\":71:1150  library TestsAccounts {... */\n      0x01a0\n      dup3\n      add\n      mstore\n        /* \"remix_accounts.sol\":1075:1117  0xdD870fA1b7C4700F2BD7f44238821C26f7392148 */\n      0xdd870fa1b7c4700f2bd7f44238821c26f7392148\n        /* \"remix_accounts.sol\":71:1150  library TestsAccounts {... */\n      0x01c0\n      dup3\n      add\n      mstore\n      0x0f\n      dup3\n      lt\n      iszero\n      tag_9\n      jumpi\n      0x20\n      swap2\n      0x05\n      shl\n      add\n      0x01\n      dup1\n      0xa0\n      shl\n      sub\n      swap1\n      mload\n      and\n      mload(0x40)\n      swap1\n      dup2\n      mstore\n      return\n    tag_9:\n      mstore(0x00, shl(0xe0, 0x4e487b71))\n      mstore(0x04, 0x32)\n      revert(0x00, 0x24)\n    tag_7:\n      mstore(0x00, shl(0xe0, 0x4e487b71))\n      mstore(0x04, 0x41)\n      revert(0x00, 0x24)\n    tag_5:\n      0x00\n      dup1\n      revert\n\n    auxdata: 0xa26469706673582212208ece4717ea1b5976d7a34f434cc0d41853eca9e4c45f56bd25ce74da6780b6d564736f6c634300081c0033\n}\n",
				"bytecode": {
					"linkReferences": {},
					"object": "60808060405234601957610264908161001e823930815050f35b5f80fdfe60806040526004361015610011575f80fd5b5f3560e01c63ce88b14514610024575f80fd5b602036600319011261022a576004356101e06040519080820182811067ffffffffffffffff82111761021657604052368237735b38da6a701c568545dcfcb03fcb875f56beddc4815273ab8483f64d9c6d1ecf9b849ae677dd3315835cb26020820152734b20993bc481177ec7e8f571cecae8a9e22c02db60408201527378731d3ca6b7e34ac0f824c42a7cc18a495cabab606082015273617f2e2fd72fd9d5503197092ac168c91465e7f260808201527317f6ad8ef982297579c203069c1dbffe4348c37260a0820152735c6b0f7bf3e7ce046039bd8fabdfd3f9f502167860c08201527303c6fced478cbbc9a4fab34ef9f40767739d1ff760e0820152731ae0ea34a72d944a8c7603ffb3ec30a6669e454c610100820152730a098eda01ce92ff4a4ccb7a4fffb5a43ebc70dc61012082015273ca35b7d915458ef540ade6068dfe2f44e8fa733c6101408201527314723a09acff6d2a60dcdf7aa4aff308fddc160c610160820152734b0897b0513fdc7c541b6d9d7e929c4e5364d2db61018082015273583031d1113ad414f02576bd6afabfb3021402256101a082015273dd870fa1b7c4700f2bd7f44238821c26f73921486101c0820152600f8210156102025760209160051b0160018060a01b03905116604051908152f35b634e487b7160e01b5f52603260045260245ffd5b634e487b7160e01b5f52604160045260245ffd5b5f80fdfea26469706673582212208ece4717ea1b5976d7a34f434cc0d41853eca9e4c45f56bd25ce74da6780b6d564736f6c634300081c0033",
					"opcodes": "PUSH1 0x80 DUP1 PUSH1 0x40 MSTORE CALLVALUE PUSH1 0x19 JUMPI PUSH2 0x264 SWAP1 DUP2 PUSH2 0x1E DUP3 CODECOPY ADDRESS DUP2 POP POP RETURN JUMPDEST PUSH0 DUP1 REVERT INVALID PUSH1 0x80 PUSH1 0x40 MSTORE PUSH1 0x4 CALLDATASIZE LT ISZERO PUSH2 0x11 JUMPI PUSH0 DUP1 REVERT JUMPDEST PUSH0 CALLDATALOAD PUSH1 0xE0 SHR PUSH4 0xCE88B145 EQ PUSH2 0x24 JUMPI PUSH0 DUP1 REVERT JUMPDEST PUSH1 0x20 CALLDATASIZE PUSH1 0x3 NOT ADD SLT PUSH2 0x22A JUMPI PUSH1 0x4 CALLDATALOAD PUSH2 0x1E0 PUSH1 0x40 MLOAD SWAP1 DUP1 DUP3 ADD DUP3 DUP2 LT PUSH8 0xFFFFFFFFFFFFFFFF DUP3 GT OR PUSH2 0x216 JUMPI PUSH1 0x40 MSTORE CALLDATASIZE DUP3 CALLDATACOPY PUSH20 0x5B38DA6A701C568545DCFCB03FCB875F56BEDDC4 DUP2 MSTORE PUSH20 0xAB8483F64D9C6D1ECF9B849AE677DD3315835CB2 PUSH1 0x20 DUP3 ADD MSTORE PUSH20 0x4B20993BC481177EC7E8F571CECAE8A9E22C02DB PUSH1 0x40 DUP3 ADD MSTORE PUSH20 0x78731D3CA6B7E34AC0F824C42A7CC18A495CABAB PUSH1 0x60 DUP3 ADD MSTORE PUSH20 0x617F2E2FD72FD9D5503197092AC168C91465E7F2 PUSH1 0x80 DUP3 ADD MSTORE PUSH20 0x17F6AD8EF982297579C203069C1DBFFE4348C372 PUSH1 0xA0 DUP3 ADD MSTORE PUSH20 0x5C6B0F7BF3E7CE046039BD8FABDFD3F9F5021678 PUSH1 0xC0 DUP3 ADD MSTORE PUSH20 0x3C6FCED478CBBC9A4FAB34EF9F40767739D1FF7 PUSH1 0xE0 DUP3 ADD MSTORE PUSH20 0x1AE0EA34A72D944A8C7603FFB3EC30A6669E454C PUSH2 0x100 DUP3 ADD MSTORE PUSH20 0xA098EDA01CE92FF4A4CCB7A4FFFB5A43EBC70DC PUSH2 0x120 DUP3 ADD MSTORE PUSH20 0xCA35B7D915458EF540ADE6068DFE2F44E8FA733C PUSH2 0x140 DUP3 ADD MSTORE PUSH20 0x14723A09ACFF6D2A60DCDF7AA4AFF308FDDC160C PUSH2 0x160 DUP3 ADD MSTORE PUSH20 0x4B0897B0513FDC7C541B6D9D7E929C4E5364D2DB PUSH2 0x180 DUP3 ADD MSTORE PUSH20 0x583031D1113AD414F02576BD6AFABFB302140225 PUSH2 0x1A0 DUP3 ADD MSTORE PUSH20 0xDD870FA1B7C4700F2BD7F44238821C26F7392148 PUSH2 0x1C0 DUP3 ADD MSTORE PUSH1 0xF DUP3 LT ISZERO PUSH2 0x202 JUMPI PUSH1 0x20 SWAP2 PUSH1 0x5 SHL ADD PUSH1 0x1 DUP1 PUSH1 0xA0 SHL SUB SWAP1 MLOAD AND PUSH1 0x40 MLOAD SWAP1 DUP2 MSTORE RETURN JUMPDEST PUSH4 0x4E487B71 PUSH1 0xE0 SHL PUSH0 MSTORE PUSH1 0x32 PUSH1 0x4 MSTORE PUSH1 0x24 PUSH0 REVERT JUMPDEST PUSH4 0x4E487B71 PUSH1 0xE0 SHL PUSH0 MSTORE PUSH1 0x41 PUSH1 0x4 MSTORE PUSH1 0x24 PUSH0 REVERT JUMPDEST PUSH0 DUP1 REVERT INVALID LOG2 PUSH5 0x6970667358 0x22 SLT KECCAK256 DUP15 0xCE SELFBALANCE OR 0xEA SHL MSIZE PUSH23 0xD7A34F434CC0D41853ECA9E4C45F56BD25CE74DA6780B6 0xD5 PUSH5 0x736F6C6343 STOP ADDMOD SHR STOP CALLER "
				},
				"gasEstimates": {
					"creation": {
						"codeDepositCost": "122400",
						"executionCost": "infinite",
						"totalCost": "infinite"
					},
					"external": {
						"getAccount(uint256)": "infinite"
					}
				},
				"methodIdentifiers": {
					"getAccount(uint256)": "ce88b145"
				}
			},
			"storageLayout": {
				"storage": [],
				"types": null
			},
			"userdoc": {
				"kind": "user",
				"methods": {},
				"version": 1
			}
		}
	}
}